{
  "_format": "hh-sol-artifact-1",
  "contractName": "DynamicNFT",
  "sourceName": "contracts/DynamicNFT.sol",
  "abi": [
    {
      "inputs": [
        {
          "internalType": "address",
          "name": "target",
          "type": "address"
        }
      ],
      "name": "AddressEmptyCode",
      "type": "error"
    },
    {
      "inputs": [
        {
          "internalType": "address",
          "name": "implementation",
          "type": "address"
        }
      ],
      "name": "ERC1967InvalidImplementation",
      "type": "error"
    },
    {
      "inputs": [],
      "name": "ERC1967NonPayable",
      "type": "error"
    },
    {
      "inputs": [
        {
          "internalType": "address",
          "name": "sender",
          "type": "address"
        },
        {
          "internalType": "uint256",
          "name": "tokenId",
          "type": "uint256"
        },
        {
          "internalType": "address",
          "name": "owner",
          "type": "address"
        }
      ],
      "name": "ERC721IncorrectOwner",
      "type": "error"
    },
    {
      "inputs": [
        {
          "internalType": "address",
          "name": "operator",
          "type": "address"
        },
        {
          "internalType": "uint256",
          "name": "tokenId",
          "type": "uint256"
        }
      ],
      "name": "ERC721InsufficientApproval",
      "type": "error"
    },
    {
      "inputs": [
        {
          "internalType": "address",
          "name": "approver",
          "type": "address"
        }
      ],
      "name": "ERC721InvalidApprover",
      "type": "error"
    },
    {
      "inputs": [
        {
          "internalType": "address",
          "name": "operator",
          "type": "address"
        }
      ],
      "name": "ERC721InvalidOperator",
      "type": "error"
    },
    {
      "inputs": [
        {
          "internalType": "address",
          "name": "owner",
          "type": "address"
        }
      ],
      "name": "ERC721InvalidOwner",
      "type": "error"
    },
    {
      "inputs": [
        {
          "internalType": "address",
          "name": "receiver",
          "type": "address"
        }
      ],
      "name": "ERC721InvalidReceiver",
      "type": "error"
    },
    {
      "inputs": [
        {
          "internalType": "address",
          "name": "sender",
          "type": "address"
        }
      ],
      "name": "ERC721InvalidSender",
      "type": "error"
    },
    {
      "inputs": [
        {
          "internalType": "uint256",
          "name": "tokenId",
          "type": "uint256"
        }
      ],
      "name": "ERC721NonexistentToken",
      "type": "error"
    },
    {
      "inputs": [],
      "name": "FailedCall",
      "type": "error"
    },
    {
      "inputs": [],
      "name": "InvalidInitialization",
      "type": "error"
    },
    {
      "inputs": [],
      "name": "NotInitializing",
      "type": "error"
    },
    {
      "inputs": [
        {
          "internalType": "address",
          "name": "owner",
          "type": "address"
        }
      ],
      "name": "OwnableInvalidOwner",
      "type": "error"
    },
    {
      "inputs": [
        {
          "internalType": "address",
          "name": "account",
          "type": "address"
        }
      ],
      "name": "OwnableUnauthorizedAccount",
      "type": "error"
    },
    {
      "inputs": [],
      "name": "UUPSUnauthorizedCallContext",
      "type": "error"
    },
    {
      "inputs": [
        {
          "internalType": "bytes32",
          "name": "slot",
          "type": "bytes32"
        }
      ],
      "name": "UUPSUnsupportedProxiableUUID",
      "type": "error"
    },
    {
      "anonymous": false,
      "inputs": [
        {
          "indexed": true,
          "internalType": "uint256",
          "name": "tokenId",
          "type": "uint256"
        },
        {
          "indexed": false,
          "internalType": "uint256",
          "name": "predictedLevel",
          "type": "uint256"
        },
        {
          "indexed": false,
          "internalType": "uint256",
          "name": "evolutionProbability",
          "type": "uint256"
        },
        {
          "indexed": false,
          "internalType": "uint256",
          "name": "recommendedActions",
          "type": "uint256"
        }
      ],
      "name": "AIEvolutionPredicted",
      "type": "event"
    },
    {
      "anonymous": false,
      "inputs": [
        {
          "indexed": true,
          "internalType": "address",
          "name": "owner",
          "type": "address"
        },
        {
          "indexed": true,
          "internalType": "address",
          "name": "approved",
          "type": "address"
        },
        {
          "indexed": true,
          "internalType": "uint256",
          "name": "tokenId",
          "type": "uint256"
        }
      ],
      "name": "Approval",
      "type": "event"
    },
    {
      "anonymous": false,
      "inputs": [
        {
          "indexed": true,
          "internalType": "address",
          "name": "owner",
          "type": "address"
        },
        {
          "indexed": true,
          "internalType": "address",
          "name": "operator",
          "type": "address"
        },
        {
          "indexed": false,
          "internalType": "bool",
          "name": "approved",
          "type": "bool"
        }
      ],
      "name": "ApprovalForAll",
      "type": "event"
    },
    {
      "anonymous": false,
      "inputs": [
        {
          "indexed": false,
          "internalType": "uint64",
          "name": "version",
          "type": "uint64"
        }
      ],
      "name": "Initialized",
      "type": "event"
    },
    {
      "anonymous": false,
      "inputs": [
        {
          "indexed": true,
          "internalType": "uint256",
          "name": "tokenId",
          "type": "uint256"
        },
        {
          "indexed": false,
          "internalType": "uint256",
          "name": "health",
          "type": "uint256"
        },
        {
          "indexed": false,
          "internalType": "uint256",
          "name": "yield",
          "type": "uint256"
        }
      ],
      "name": "NFTAttributesUpdated",
      "type": "event"
    },
    {
      "anonymous": false,
      "inputs": [
        {
          "indexed": true,
          "internalType": "uint256",
          "name": "tokenId",
          "type": "uint256"
        },
        {
          "indexed": false,
          "internalType": "uint256",
          "name": "targetChainId",
          "type": "uint256"
        },
        {
          "indexed": true,
          "internalType": "address",
          "name": "owner",
          "type": "address"
        }
      ],
      "name": "NFTBridged",
      "type": "event"
    },
    {
      "anonymous": false,
      "inputs": [
        {
          "indexed": true,
          "internalType": "uint256",
          "name": "tokenId",
          "type": "uint256"
        },
        {
          "indexed": true,
          "internalType": "address",
          "name": "owner",
          "type": "address"
        }
      ],
      "name": "NFTClaimed",
      "type": "event"
    },
    {
      "anonymous": false,
      "inputs": [
        {
          "indexed": true,
          "internalType": "uint256",
          "name": "tokenId",
          "type": "uint256"
        },
        {
          "indexed": false,
          "internalType": "uint256",
          "name": "newLevel",
          "type": "uint256"
        },
        {
          "indexed": false,
          "internalType": "string",
          "name": "newStage",
          "type": "string"
        }
      ],
      "name": "NFTEvolved",
      "type": "event"
    },
    {
      "anonymous": false,
      "inputs": [
        {
          "indexed": true,
          "internalType": "uint256",
          "name": "tokenId",
          "type": "uint256"
        },
        {
          "indexed": false,
          "internalType": "uint256",
          "name": "experience",
          "type": "uint256"
        },
        {
          "indexed": false,
          "internalType": "string",
          "name": "source",
          "type": "string"
        }
      ],
      "name": "NFTExperienceGained",
      "type": "event"
    },
    {
      "anonymous": false,
      "inputs": [
        {
          "indexed": true,
          "internalType": "address",
          "name": "previousOwner",
          "type": "address"
        },
        {
          "indexed": true,
          "internalType": "address",
          "name": "newOwner",
          "type": "address"
        }
      ],
      "name": "OwnershipTransferred",
      "type": "event"
    },
    {
      "anonymous": false,
      "inputs": [
        {
          "indexed": true,
          "internalType": "address",
          "name": "from",
          "type": "address"
        },
        {
          "indexed": true,
          "internalType": "address",
          "name": "to",
          "type": "address"
        },
        {
          "indexed": true,
          "internalType": "uint256",
          "name": "tokenId",
          "type": "uint256"
        }
      ],
      "name": "Transfer",
      "type": "event"
    },
    {
      "anonymous": false,
      "inputs": [
        {
          "indexed": true,
          "internalType": "address",
          "name": "implementation",
          "type": "address"
        }
      ],
      "name": "Upgraded",
      "type": "event"
    },
    {
      "inputs": [],
      "name": "UPGRADE_INTERFACE_VERSION",
      "outputs": [
        {
          "internalType": "string",
          "name": "",
          "type": "string"
        }
      ],
      "stateMutability": "view",
      "type": "function"
    },
    {
      "inputs": [
        {
          "internalType": "uint256",
          "name": "",
          "type": "uint256"
        }
      ],
      "name": "aiEvolutionPredictions",
      "outputs": [
        {
          "internalType": "uint256",
          "name": "tokenId",
          "type": "uint256"
        },
        {
          "internalType": "uint256",
          "name": "predictedLevel",
          "type": "uint256"
        },
        {
          "internalType": "uint256",
          "name": "evolutionProbability",
          "type": "uint256"
        },
        {
          "internalType": "uint256",
          "name": "recommendedActions",
          "type": "uint256"
        },
        {
          "internalType": "uint256",
          "name": "timestamp",
          "type": "uint256"
        }
      ],
      "stateMutability": "view",
      "type": "function"
    },
    {
      "inputs": [],
      "name": "aiPredictor",
      "outputs": [
        {
          "internalType": "contract AIPredictor",
          "name": "",
          "type": "address"
        }
      ],
      "stateMutability": "view",
      "type": "function"
    },
    {
      "inputs": [
        {
          "internalType": "address",
          "name": "to",
          "type": "address"
        },
        {
          "internalType": "uint256",
          "name": "tokenId",
          "type": "uint256"
        }
      ],
      "name": "approve",
      "outputs": [],
      "stateMutability": "nonpayable",
      "type": "function"
    },
    {
      "inputs": [
        {
          "internalType": "address",
          "name": "owner",
          "type": "address"
        }
      ],
      "name": "balanceOf",
      "outputs": [
        {
          "internalType": "uint256",
          "name": "",
          "type": "uint256"
        }
      ],
      "stateMutability": "view",
      "type": "function"
    },
    {
      "inputs": [
        {
          "internalType": "uint256",
          "name": "tokenId",
          "type": "uint256"
        },
        {
          "internalType": "uint256",
          "name": "targetChainId",
          "type": "uint256"
        }
      ],
      "name": "bridgeNFT",
      "outputs": [],
      "stateMutability": "nonpayable",
      "type": "function"
    },
    {
      "inputs": [
        {
          "internalType": "uint256",
          "name": "tokenId",
          "type": "uint256"
        }
      ],
      "name": "canEvolve",
      "outputs": [
        {
          "internalType": "bool",
          "name": "",
          "type": "bool"
        }
      ],
      "stateMutability": "view",
      "type": "function"
    },
    {
      "inputs": [
        {
          "internalType": "uint256",
          "name": "tokenId",
          "type": "uint256"
        },
        {
          "internalType": "bytes",
          "name": "proof",
          "type": "bytes"
        }
      ],
      "name": "claimBridgedNFT",
      "outputs": [],
      "stateMutability": "nonpayable",
      "type": "function"
    },
    {
      "inputs": [
        {
          "internalType": "uint256",
          "name": "",
          "type": "uint256"
        }
      ],
      "name": "crossChainNFTs",
      "outputs": [
        {
          "internalType": "uint256",
          "name": "sourceChainId",
          "type": "uint256"
        },
        {
          "internalType": "uint256",
          "name": "tokenId",
          "type": "uint256"
        },
        {
          "internalType": "address",
          "name": "originalOwner",
          "type": "address"
        },
        {
          "internalType": "bytes32",
          "name": "bridgeTxHash",
          "type": "bytes32"
        },
        {
          "internalType": "bool",
          "name": "bridged",
          "type": "bool"
        },
        {
          "internalType": "uint256",
          "name": "bridgeTimestamp",
          "type": "uint256"
        }
      ],
      "stateMutability": "view",
      "type": "function"
    },
    {
      "inputs": [],
      "name": "evolutionCooldown",
      "outputs": [
        {
          "internalType": "uint256",
          "name": "",
          "type": "uint256"
        }
      ],
      "stateMutability": "view",
      "type": "function"
    },
    {
      "inputs": [
        {
          "internalType": "uint256",
          "name": "",
          "type": "uint256"
        }
      ],
      "name": "evolutionCriteria",
      "outputs": [
        {
          "internalType": "uint256",
          "name": "minExperience",
          "type": "uint256"
        },
        {
          "internalType": "uint256",
          "name": "minHealth",
          "type": "uint256"
        },
        {
          "internalType": "uint256",
          "name": "minYield",
          "type": "uint256"
        },
        {
          "internalType": "string",
          "name": "requiredStage",
          "type": "string"
        },
        {
          "internalType": "uint256",
          "name": "timeRequirement",
          "type": "uint256"
        }
      ],
      "stateMutability": "view",
      "type": "function"
    },
    {
      "inputs": [
        {
          "internalType": "uint256",
          "name": "tokenId",
          "type": "uint256"
        }
      ],
      "name": "evolveNFT",
      "outputs": [],
      "stateMutability": "nonpayable",
      "type": "function"
    },
    {
      "inputs": [],
      "name": "experiencePerYield",
      "outputs": [
        {
          "internalType": "uint256",
          "name": "",
          "type": "uint256"
        }
      ],
      "stateMutability": "view",
      "type": "function"
    },
    {
      "inputs": [
        {
          "internalType": "uint256",
          "name": "tokenId",
          "type": "uint256"
        }
      ],
      "name": "getAIEvolutionPrediction",
      "outputs": [
        {
          "components": [
            {
              "internalType": "uint256",
              "name": "tokenId",
              "type": "uint256"
            },
            {
              "internalType": "uint256",
              "name": "predictedLevel",
              "type": "uint256"
            },
            {
              "internalType": "uint256",
              "name": "evolutionProbability",
              "type": "uint256"
            },
            {
              "internalType": "uint256",
              "name": "recommendedActions",
              "type": "uint256"
            },
            {
              "internalType": "uint256",
              "name": "timestamp",
              "type": "uint256"
            }
          ],
          "internalType": "struct DynamicNFT.AIEvolutionPrediction",
          "name": "",
          "type": "tuple"
        }
      ],
      "stateMutability": "view",
      "type": "function"
    },
    {
      "inputs": [
        {
          "internalType": "uint256",
          "name": "tokenId",
          "type": "uint256"
        }
      ],
      "name": "getApproved",
      "outputs": [
        {
          "internalType": "address",
          "name": "",
          "type": "address"
        }
      ],
      "stateMutability": "view",
      "type": "function"
    },
    {
      "inputs": [
        {
          "internalType": "uint256",
          "name": "tokenId",
          "type": "uint256"
        }
      ],
      "name": "getCrossChainNFT",
      "outputs": [
        {
          "components": [
            {
              "internalType": "uint256",
              "name": "sourceChainId",
              "type": "uint256"
            },
            {
              "internalType": "uint256",
              "name": "tokenId",
              "type": "uint256"
            },
            {
              "internalType": "address",
              "name": "originalOwner",
              "type": "address"
            },
            {
              "internalType": "bytes32",
              "name": "bridgeTxHash",
              "type": "bytes32"
            },
            {
              "internalType": "bool",
              "name": "bridged",
              "type": "bool"
            },
            {
              "internalType": "uint256",
              "name": "bridgeTimestamp",
              "type": "uint256"
            }
          ],
          "internalType": "struct DynamicNFT.CrossChainNFT",
          "name": "",
          "type": "tuple"
        }
      ],
      "stateMutability": "view",
      "type": "function"
    },
    {
      "inputs": [
        {
          "internalType": "uint256",
          "name": "tokenId",
          "type": "uint256"
        }
      ],
      "name": "getEvolutionCriteria",
      "outputs": [
        {
          "components": [
            {
              "internalType": "uint256",
              "name": "minExperience",
              "type": "uint256"
            },
            {
              "internalType": "uint256",
              "name": "minHealth",
              "type": "uint256"
            },
            {
              "internalType": "uint256",
              "name": "minYield",
              "type": "uint256"
            },
            {
              "internalType": "string",
              "name": "requiredStage",
              "type": "string"
            },
            {
              "internalType": "uint256",
              "name": "timeRequirement",
              "type": "uint256"
            }
          ],
          "internalType": "struct DynamicNFT.EvolutionCriteria",
          "name": "",
          "type": "tuple"
        }
      ],
      "stateMutability": "view",
      "type": "function"
    },
    {
      "inputs": [
        {
          "internalType": "uint256",
          "name": "tokenId",
          "type": "uint256"
        }
      ],
      "name": "getNFTAttributes",
      "outputs": [
        {
          "internalType": "uint256",
          "name": "level",
          "type": "uint256"
        },
        {
          "internalType": "uint256",
          "name": "experience",
          "type": "uint256"
        },
        {
          "internalType": "uint256",
          "name": "health",
          "type": "uint256"
        },
        {
          "internalType": "uint256",
          "name": "yield",
          "type": "uint256"
        },
        {
          "internalType": "uint256",
          "name": "rarity",
          "type": "uint256"
        },
        {
          "internalType": "string",
          "name": "currentStage",
          "type": "string"
        },
        {
          "internalType": "uint256",
          "name": "lastUpdate",
          "type": "uint256"
        }
      ],
      "stateMutability": "view",
      "type": "function"
    },
    {
      "inputs": [
        {
          "internalType": "uint256",
          "name": "tokenId",
          "type": "uint256"
        },
        {
          "internalType": "string",
          "name": "traitName",
          "type": "string"
        }
      ],
      "name": "getNFTTrait",
      "outputs": [
        {
          "internalType": "uint256",
          "name": "",
          "type": "uint256"
        }
      ],
      "stateMutability": "view",
      "type": "function"
    },
    {
      "inputs": [],
      "name": "healthDecayRate",
      "outputs": [
        {
          "internalType": "uint256",
          "name": "",
          "type": "uint256"
        }
      ],
      "stateMutability": "view",
      "type": "function"
    },
    {
      "inputs": [
        {
          "internalType": "address",
          "name": "_oracle",
          "type": "address"
        },
        {
          "internalType": "address payable",
          "name": "_aiPredictor",
          "type": "address"
        }
      ],
      "name": "initialize",
      "outputs": [],
      "stateMutability": "nonpayable",
      "type": "function"
    },
    {
      "inputs": [
        {
          "internalType": "address",
          "name": "owner",
          "type": "address"
        },
        {
          "internalType": "address",
          "name": "operator",
          "type": "address"
        }
      ],
      "name": "isApprovedForAll",
      "outputs": [
        {
          "internalType": "bool",
          "name": "",
          "type": "bool"
        }
      ],
      "stateMutability": "view",
      "type": "function"
    },
    {
      "inputs": [],
      "name": "maxLevel",
      "outputs": [
        {
          "internalType": "uint256",
          "name": "",
          "type": "uint256"
        }
      ],
      "stateMutability": "view",
      "type": "function"
    },
    {
      "inputs": [
        {
          "internalType": "address",
          "name": "to",
          "type": "address"
        },
        {
          "internalType": "string",
          "name": "baseURI",
          "type": "string"
        },
        {
          "internalType": "uint256",
          "name": "initialYield",
          "type": "uint256"
        },
        {
          "internalType": "string",
          "name": "cropType",
          "type": "string"
        }
      ],
      "name": "mintDynamicNFT",
      "outputs": [
        {
          "internalType": "uint256",
          "name": "",
          "type": "uint256"
        }
      ],
      "stateMutability": "nonpayable",
      "type": "function"
    },
    {
      "inputs": [],
      "name": "name",
      "outputs": [
        {
          "internalType": "string",
          "name": "",
          "type": "string"
        }
      ],
      "stateMutability": "view",
      "type": "function"
    },
    {
      "inputs": [
        {
          "internalType": "uint256",
          "name": "",
          "type": "uint256"
        }
      ],
      "name": "nftAttributes",
      "outputs": [
        {
          "internalType": "uint256",
          "name": "level",
          "type": "uint256"
        },
        {
          "internalType": "uint256",
          "name": "experience",
          "type": "uint256"
        },
        {
          "internalType": "uint256",
          "name": "health",
          "type": "uint256"
        },
        {
          "internalType": "uint256",
          "name": "yield",
          "type": "uint256"
        },
        {
          "internalType": "uint256",
          "name": "rarity",
          "type": "uint256"
        },
        {
          "internalType": "string",
          "name": "currentStage",
          "type": "string"
        },
        {
          "internalType": "uint256",
          "name": "lastUpdate",
          "type": "uint256"
        }
      ],
      "stateMutability": "view",
      "type": "function"
    },
    {
      "inputs": [],
      "name": "oracle",
      "outputs": [
        {
          "internalType": "contract DecentralizedOracle",
          "name": "",
          "type": "address"
        }
      ],
      "stateMutability": "view",
      "type": "function"
    },
    {
      "inputs": [],
      "name": "owner",
      "outputs": [
        {
          "internalType": "address",
          "name": "",
          "type": "address"
        }
      ],
      "stateMutability": "view",
      "type": "function"
    },
    {
      "inputs": [
        {
          "internalType": "uint256",
          "name": "tokenId",
          "type": "uint256"
        }
      ],
      "name": "ownerOf",
      "outputs": [
        {
          "internalType": "address",
          "name": "",
          "type": "address"
        }
      ],
      "stateMutability": "view",
      "type": "function"
    },
    {
      "inputs": [
        {
          "internalType": "uint256",
          "name": "tokenId",
          "type": "uint256"
        }
      ],
      "name": "predictEvolutionWithAI",
      "outputs": [
        {
          "internalType": "uint256",
          "name": "predictedLevel",
          "type": "uint256"
        },
        {
          "internalType": "uint256",
          "name": "evolutionProbability",
          "type": "uint256"
        },
        {
          "internalType": "uint256",
          "name": "recommendedActions",
          "type": "uint256"
        }
      ],
      "stateMutability": "nonpayable",
      "type": "function"
    },
    {
      "inputs": [],
      "name": "proxiableUUID",
      "outputs": [
        {
          "internalType": "bytes32",
          "name": "",
          "type": "bytes32"
        }
      ],
      "stateMutability": "view",
      "type": "function"
    },
    {
      "inputs": [
        {
          "internalType": "uint256",
          "name": "tokenId",
          "type": "uint256"
        },
        {
          "internalType": "uint256",
          "name": "actualYield",
          "type": "uint256"
        }
      ],
      "name": "recordYield",
      "outputs": [],
      "stateMutability": "nonpayable",
      "type": "function"
    },
    {
      "inputs": [],
      "name": "renounceOwnership",
      "outputs": [],
      "stateMutability": "nonpayable",
      "type": "function"
    },
    {
      "inputs": [
        {
          "internalType": "address",
          "name": "from",
          "type": "address"
        },
        {
          "internalType": "address",
          "name": "to",
          "type": "address"
        },
        {
          "internalType": "uint256",
          "name": "tokenId",
          "type": "uint256"
        }
      ],
      "name": "safeTransferFrom",
      "outputs": [],
      "stateMutability": "nonpayable",
      "type": "function"
    },
    {
      "inputs": [
        {
          "internalType": "address",
          "name": "from",
          "type": "address"
        },
        {
          "internalType": "address",
          "name": "to",
          "type": "address"
        },
        {
          "internalType": "uint256",
          "name": "tokenId",
          "type": "uint256"
        },
        {
          "internalType": "bytes",
          "name": "data",
          "type": "bytes"
        }
      ],
      "name": "safeTransferFrom",
      "outputs": [],
      "stateMutability": "nonpayable",
      "type": "function"
    },
    {
      "inputs": [
        {
          "internalType": "address",
          "name": "operator",
          "type": "address"
        },
        {
          "internalType": "bool",
          "name": "approved",
          "type": "bool"
        }
      ],
      "name": "setApprovalForAll",
      "outputs": [],
      "stateMutability": "nonpayable",
      "type": "function"
    },
    {
      "inputs": [
        {
          "internalType": "uint256",
          "name": "tokenId",
          "type": "uint256"
        },
        {
          "internalType": "uint256",
          "name": "minExperience",
          "type": "uint256"
        },
        {
          "internalType": "uint256",
          "name": "minHealth",
          "type": "uint256"
        },
        {
          "internalType": "uint256",
          "name": "minYield",
          "type": "uint256"
        },
        {
          "internalType": "string",
          "name": "requiredStage",
          "type": "string"
        },
        {
          "internalType": "uint256",
          "name": "timeRequirement",
          "type": "uint256"
        }
      ],
      "name": "setEvolutionCriteria",
      "outputs": [],
      "stateMutability": "nonpayable",
      "type": "function"
    },
    {
      "inputs": [
        {
          "internalType": "bytes4",
          "name": "interfaceId",
          "type": "bytes4"
        }
      ],
      "name": "supportsInterface",
      "outputs": [
        {
          "internalType": "bool",
          "name": "",
          "type": "bool"
        }
      ],
      "stateMutability": "view",
      "type": "function"
    },
    {
      "inputs": [],
      "name": "symbol",
      "outputs": [
        {
          "internalType": "string",
          "name": "",
          "type": "string"
        }
      ],
      "stateMutability": "view",
      "type": "function"
    },
    {
      "inputs": [
        {
          "internalType": "uint256",
          "name": "tokenId",
          "type": "uint256"
        }
      ],
      "name": "tokenURI",
      "outputs": [
        {
          "internalType": "string",
          "name": "",
          "type": "string"
        }
      ],
      "stateMutability": "view",
      "type": "function"
    },
    {
      "inputs": [
        {
          "internalType": "address",
          "name": "from",
          "type": "address"
        },
        {
          "internalType": "address",
          "name": "to",
          "type": "address"
        },
        {
          "internalType": "uint256",
          "name": "tokenId",
          "type": "uint256"
        }
      ],
      "name": "transferFrom",
      "outputs": [],
      "stateMutability": "nonpayable",
      "type": "function"
    },
    {
      "inputs": [
        {
          "internalType": "address",
          "name": "newOwner",
          "type": "address"
        }
      ],
      "name": "transferOwnership",
      "outputs": [],
      "stateMutability": "nonpayable",
      "type": "function"
    },
    {
      "inputs": [
        {
          "internalType": "uint256",
          "name": "_evolutionCooldown",
          "type": "uint256"
        },
        {
          "internalType": "uint256",
          "name": "_maxLevel",
          "type": "uint256"
        },
        {
          "internalType": "uint256",
          "name": "_experiencePerYield",
          "type": "uint256"
        },
        {
          "internalType": "uint256",
          "name": "_healthDecayRate",
          "type": "uint256"
        }
      ],
      "name": "updateEvolutionParameters",
      "outputs": [],
      "stateMutability": "nonpayable",
      "type": "function"
    },
    {
      "inputs": [
        {
          "internalType": "uint256",
          "name": "tokenId",
          "type": "uint256"
        }
      ],
      "name": "updateNFTAttributes",
      "outputs": [],
      "stateMutability": "nonpayable",
      "type": "function"
    },
    {
      "inputs": [
        {
          "internalType": "address",
          "name": "newImplementation",
          "type": "address"
        },
        {
          "internalType": "bytes",
          "name": "data",
          "type": "bytes"
        }
      ],
      "name": "upgradeToAndCall",
      "outputs": [],
      "stateMutability": "payable",
      "type": "function"
    }
  ],
  "bytecode": "0x60a08060405234603e573060805262093a806008556064600955600a80556001600b55614e1790816100448239608051818181611b570152611c0f0152f35b600080fdfe608080604052600436101561001357600080fd5b60003560e01c90816301ffc9a71461356a5750806306fdde0314613484578063081812fc14613428578063095ea7b3146132d55780631113f3ae14613162578063212aabfd146130f157806323b872dd146130da5780632942ae5a14612f505780633283975614612f295780633c59c29514612f0b5780634264bea314612adb57806342842e0e14612ab157806342bce6d0146129da57806346abdccf146124dd57806347c4ef2514612473578063485cc95514611e4c5780634f1ef28614611bd157806352d1902d14611b3c5780635c4c17c014611a6a5780636352211e14611a3b57806369527c6414611a1d5780636db779ad146119ea57806370a082311461194c578063715018a6146118b357806376f6da3e146117b35780637dc0d1d01461178c578063835b617a146116135780638da5cb5b146115cd57806391c535b71461155457806395d89b4114611435578063a22cb46514611344578063a2c3a3f514611267578063ad3cb1cc14611208578063b460fa091461100f578063b88d4fde14610fc0578063ba4fe5d914610f52578063c3d12a0b146109e3578063c87b56dd1461046f578063cc06c35914610451578063d4b5d603146103e3578063e2f80bd1146103c5578063e7090cf114610318578063e985e9c514610296578063eabe57b81461023e5763f2fde38b1461020e57600080fd5b346102395760203660031901126102395761023761022a613681565b61023261480a565b613ec0565b005b600080fd5b3461023957602036600319011261023957600435600052600660205260a06040600020805490600181015490600281015460046003830154920154926040519485526020850152604084015260608301526080820152f35b34610239576040366003190112610239576102af613681565b6001600160a01b036102fb6102c2613697565b926001600160a01b03166000527f80bb2b638cc20bc4d0a60d66940f3ab4a00c1d7b313497ca82fb0b4ab0079305602052604060002090565b9116600052602052602060ff604060002054166040519015158152f35b346102395760203660031901126102395760006080604051610339816136ad565b8281528260208201528260408201528260608201520152600435600052600660205260a0604060002060405161036e816136ad565b81549182825260018101546020830190815260028201549060408401918252608060046003850154946060870195865201549401938452604051948552516020850152516040840152516060830152516080820152f35b34610239576000366003190112610239576020600a54604051908152f35b346102395760203660031901126102395760043560005260016020526040600020805461044d600183015492600281015490600381015460048201549060066040519361043e85610437816005850161382b565b03866136e5565b015493604051978897886137a2565b0390f35b34610239576000366003190112610239576020600954604051908152f35b346102395760203660031901126102395760043580600052600160205260406000209061049b816149e5565b90600052600260205260406000209180546104b5906149e5565b9060018101546104c4906149e5565b60028201546104d2906149e5565b60038301546104e0906149e5565b9060048401546104ef90614b6b565b9260068501546104fe906149e5565b9560405198899860208a017f7b226e616d65223a202244796e616d6963204661726d204e4654202300000000905280519081603c8c01916020019161054292613639565b8901603c810161088b60f21b9052603e81017f226465736372697074696f6e223a2022412064796e616d6963204e46542074689052605e81017f61742065766f6c766573206261736564206f6e207265616c2d776f726c6420669052607e81017f61726d696e672064617461222c000000000000000000000000000000000000009052608b81017f22696d616765223a20220000000000000000000000000000000000000000000090526095016105f891613be7565b61088b60f21b81527f2261747472696275746573223a205b000000000000000000000000000000000060028201527f7b2274726169745f74797065223a20224c6576656c222c202276616c7565223a6011820152600160fd1b603182015281519161066c9083906032840190602001613639565b0160328101611f4b60f21b9052603481017f7b2274726169745f74797065223a2022457870657269656e6365222c202276619052605481017f6c7565223a200000000000000000000000000000000000000000000000000000905281519182605a830191602001916106dd92613639565b0160320160288101611f4b60f21b9052602a81017f7b2274726169745f74797065223a20224865616c7468222c202276616c7565229052604a81016101d160f51b905281519182604c8301916020019161073692613639565b0160280160248101611f4b60f21b9052602681017f7b2274726169745f74797065223a20225969656c64222c202276616c7565223a905260468101600160fd1b90528151918260478301916020019161078e92613639565b0160240160238101611f4b60f21b9052602581017f7b2274726169745f74797065223a2022526172697479222c202276616c7565229052604581016101d160f51b9052815191826047830191602001916107e792613639565b0160230160248101611f4b60f21b9052602681017f7b2274726169745f74797065223a20225374616765222c202276616c7565223a9052604681017f20220000000000000000000000000000000000000000000000000000000000009052604801906005019061085691613be7565b7f227d2c000000000000000000000000000000000000000000000000000000000081527f7b2274726169745f74797065223a20224c61737420557064617465222c20227660038201527f616c7565223a200000000000000000000000000000000000000000000000000060238201528151916108db908390602a840190602001613639565b01602a81017f7d000000000000000000000000000000000000000000000000000000000000009052602b81017f5d7d000000000000000000000000000000000000000000000000000000000000905203602a01601c1981018252600301610941916136e5565b604080519061095081836136e5565b6013825260208201917f4241534536345f454e434f4445445f444154410000000000000000000000000083528151928391602083017f646174613a6170706c69636174696f6e2f6a736f6e3b6261736536342c0000009052519081603d84016109b892613639565b810103603d01601f19810183526109cf90836136e5565b518091602082526020820161044d9161365c565b3461023957602036600319011261023957600435806000526001602052604060002060068101908154610e108101809111610e61574210610f0e576001600160a01b036004541690604051926352ee0b7760e01b8452600060048501526060602485015260608480610a9f610a7660648301604090600d81526c3330b936afb637b1b0ba34b7b760991b60208201520190565b828103600319016044840152600a8152696e66745f75706461746560b01b602082015260400190565b0381865afa938415610edf57600094610eeb575b50606060405180946352ee0b7760e01b8252600480830152826024830152600c60648301527f6661726d5f73656e736f72730000000000000000000000000000000000000000608483015260a060448301528180610b2c60a48201604090600a8152696e66745f75706461746560b01b60208201520190565b03915afa928315610edf57600093610eac575b50610b498461489b565b610b60610b5b60028501928354613bda565b614575565b81556007830194610c6f6020610c4360286040517f6661726d53697a6500000000000000000000000000000000000000000000000081528a60088201522054610bca610bc48b602890604051906763726f705479706560c01b825260088201522090565b546148d3565b60006001600160a01b036005541692610bff8d602c90604051906b706c616e74696e674461746560a01b8252600c8201522090565b54604051978896879586947faa8f3c7b000000000000000000000000000000000000000000000000000000008652600486015260806024860152608485019061365c565b838103600319016044850152600d81526c3330b936afb637b1b0ba34b7b760991b602082015260400190565b90606483015203925af19081610e7d575b50610e775760038401908154835491601483029280840460141490151715610e6157602890066050019182605011610e6157606490046064019182606411610e6157610ce0610ce592610cda6127109560148c0690613bda565b90613d41565b613d41565b0490555b610d1b610d1086602a9060405190691dd85d195c93195d995b60b21b8252600a8201522090565b54600a860690613bda565b6004198101908111610e6157610d3090614575565b604051691dd85d195c93195d995b60b21b8152600a8101879052602a902055610d82610d7786602b90604051906a736f696c5175616c69747960a81b8252600b8201522090565b546005860690613bda565b600119810192908311610e61577fd980f8e032223c8895f2157310e3adb44099652c53ce260972cd76a9b9b24bd895604095610dbf600395614575565b6040516a736f696c5175616c69747960a81b8152600b8101849052602b902055602960328851927f706573744c6576656c00000000000000000000000000000000000000000000008452846009850152069120558551907f6c61737453656e736f725570646174650000000000000000000000000000000082526010820152603042912055610e4d87614586565b4290555491015482519182526020820152a2005b634e487b7160e01b600052601160045260246000fd5b50610ce9565b6020813d602011610ea4575b81610e96602093836136e5565b810103126102395751610c80565b3d9150610e89565b610ecf91935060603d606011610ed8575b610ec781836136e5565b810190613d54565b50509185610b3f565b503d610ebd565b6040513d6000823e3d90fd5b610f0591945060603d606011610ed857610ec781836136e5565b50509285610ab3565b606460405162461bcd60e51b815260206004820152601360248201527f55706461746520746f6f206672657175656e74000000000000000000000000006044820152fd5b346102395760403660031901126102395760243567ffffffffffffffff811161023957610fae6020610f8981933690600401613723565b6004356000526001825260076040600020018260405194838680955193849201613639565b82019081520301902054604051908152f35b3461023957608036600319011261023957610fd9613681565b610fe1613697565b6064359167ffffffffffffffff831161023957611005610237933690600401613723565b9160443591613d6f565b34610239576020366003190112610239576110ff60043580600052600160205260606001600160a01b0360045416604051907f746f6b656e5f000000000000000000000000000000000000000000000000000060208301528360268301527f5f65766f6c7574696f6e000000000000000000000000000000000000000000006046830152603082526110a26050836136e5565b60405180809681946352ee0b7760e01b835260056004840152866024840152600d60648401527f6e66745f65766f6c7574696f6e00000000000000000000000000000000000000608484015260a0604484015260a483019061365c565b03915afa918215610edf576000926111e5575b5061044d60658306916103e86127106065606487040695040690604051611138816136ad565b8181526004602082018681526040830188815260608401908682526080850192428452866000526006602052604060002095518655516001860155516002850155516003840155519101557f48751aef0f2f702119c19dc43b57e99eb4e5a0c5c6dce3164c2c750115a1317a604051806111c5858989846040919493926060820195825260208201520152565b0390a2604051938493846040919493926060820195825260208201520152565b6111ff91925060603d606011610ed857610ec781836136e5565b50509082611112565b346102395760003660031901126102395761044d604080519061122b81836136e5565b600582527f352e302e3000000000000000000000000000000000000000000000000000000060208301525191829160208352602083019061365c565b346102395760203660031901126102395760006080604051611288816136ad565b8281528260208201528260408201526060808201520152600435600052600360205260406000206040516112bb816136ad565b8154815260018201549160208201928352611339600282015491604084019283526004604051916112fa836112f3816003850161382b565b03846136e5565b6060860192835201549260808501938452604051958695602087525160208701525160408601525160608501525160a0608085015260c084019061365c565b905160a08301520390f35b346102395760403660031901126102395761135d613681565b6024359081151590818303610239576001600160a01b0316918215611407576113d9906113bc336001600160a01b03166000527f80bb2b638cc20bc4d0a60d66940f3ab4a00c1d7b313497ca82fb0b4ab0079305602052604060002090565b8460005260205260406000209060ff801983541691151516179055565b6040519081527f17307eab39ab6107e8899845ad3d59bd9653f200f220920489ca2b5937696c3160203392a3005b827f5b08ba180000000000000000000000000000000000000000000000000000000060005260045260246000fd5b346102395760003660031901126102395760405160007f80bb2b638cc20bc4d0a60d66940f3ab4a00c1d7b313497ca82fb0b4ab007930154611476816137f1565b808452906001811690811561153057506001146114b2575b61044d8361149e818503826136e5565b60405191829160208352602083019061365c565b7f80bb2b638cc20bc4d0a60d66940f3ab4a00c1d7b313497ca82fb0b4ab007930160009081527ff4bad0a69248f59680a4f2b3000328cec71a413447c96781cfe5996daa8c456e939250905b8082106115165750909150810160200161149e61148e565b9192600181602092548385880101520191019092916114fe565b60ff191660208086019190915291151560051b8401909101915061149e905061148e565b34610239576020366003190112610239576004356000526003602052604060002080546001820154916115c360028201549160046040519161159d836112f3816003850161382b565b01549260405195869586526020860152604085015260a0606085015260a084019061365c565b9060808301520390f35b346102395760003660031901126102395760206001600160a01b037f9016d09d72d40fdae2fd8ceac6b6234c7706214fd39c1cd1e609a0528c1993005416604051908152f35b346102395760c03660031901126102395760843567ffffffffffffffff811161023957611644903690600401613723565b61164c61480a565b604051611658816136ad565b602435815260208101604435815260408201606435815260608301938452608083019160a4358352600435600052600360205260406000209351845551600184015551600283015560038201925192835167ffffffffffffffff8111611776576116cc816116c684546137f1565b84613c7b565b6020601f821160011461170d57819060049596600092611702575b50508160011b916000199060031b1c19161790555b51910155005b0151905086806116e7565b601f1982169583600052816000209660005b81811061175e5750916004969791846001959410611745575b505050811b0190556116fc565b015160001960f88460031b161c19169055868080611738565b8383015189556001909801976020938401930161171f565b634e487b7160e01b600052604160045260246000fd5b346102395760003660031901126102395760206001600160a01b0360045416604051908152f35b34610239576117c1366137db565b906117de6117ce82613f7f565b6001600160a01b03163314613cdc565b6040516117ea816136c9565b4681526005602082018381526118766040840133815260608501600081526001600160a01b0360808701926001845260a088019542875289600052600760205260406000209851895551600189015551166001600160a01b036002880191166001600160a01b0319825416179055516003860155511515600485019060ff801983541691151516179055565b51910155611885813033613fe4565b6040519182527f5ef271152e0784a8a3dd4025ad5296d2ec16645af25a20fb626d45cd991d38ae60203393a3005b34610239576000366003190112610239576118cc61480a565b60006001600160a01b037f9016d09d72d40fdae2fd8ceac6b6234c7706214fd39c1cd1e609a0528c199300546001600160a01b031981167f9016d09d72d40fdae2fd8ceac6b6234c7706214fd39c1cd1e609a0528c19930055167f8be0079c531659141344cd1fd0a4f28419497f9722a3daafe3b4186f6b6457e08280a3005b3461023957602036600319011261023957611965613681565b6001600160a01b038116156119bb576119b26020916001600160a01b03166000527f80bb2b638cc20bc4d0a60d66940f3ab4a00c1d7b313497ca82fb0b4ab0079303602052604060002090565b54604051908152f35b7f89c62b6400000000000000000000000000000000000000000000000000000000600052600060045260246000fd5b3461023957608036600319011261023957611a0361480a565b600435600855602435600955604435600a55606435600b55005b34610239576000366003190112610239576020600b54604051908152f35b34610239576020366003190112610239576020611a59600435613f7f565b6001600160a01b0360405191168152f35b3461023957611a78366137db565b90611a856117ce82613f7f565b80600052600160205260026040600020611aa1600a5485613d41565b9360018201611ab1868254613bda565b905560038201550191825492600a8401809411610e6157608083927f14ce7a9dc14569001187d355c66f029c0d5fcd7640d4b8bbdf7f50465385873692611afa61023797614575565b905560405190815260406020820152600d60408201527f7969656c645f68617276657374000000000000000000000000000000000000006060820152a2614586565b34610239576000366003190112610239576001600160a01b037f0000000000000000000000000000000000000000000000000000000000000000163003611ba75760206040517f360894a13ba1a3210667c828492db98dca3e2076cc3735a920a3ca505d382bbc8152f35b7fe07c8dba0000000000000000000000000000000000000000000000000000000060005260046000fd5b604036600319011261023957611be5613681565b60243567ffffffffffffffff811161023957611c05903690600401613723565b6001600160a01b037f000000000000000000000000000000000000000000000000000000000000000016803014908115611e17575b50611ba757611c4761480a565b6001600160a01b038216916040517f52d1902d000000000000000000000000000000000000000000000000000000008152602081600481875afa60009181611de3575b50611ca45783634c9c8ce360e01b60005260045260246000fd5b807f360894a13ba1a3210667c828492db98dca3e2076cc3735a920a3ca505d382bbc859203611db65750813b15611da257806001600160a01b03197f360894a13ba1a3210667c828492db98dca3e2076cc3735a920a3ca505d382bbc5416177f360894a13ba1a3210667c828492db98dca3e2076cc3735a920a3ca505d382bbc557fbc7cd75a20ee27fd9adebab32041f755214dbc6bffa90cc0225b39da2e5c2d3b600080a2815115611d6f5760008083602061023795519101845af4611d6961486b565b91614d51565b505034611d7857005b7fb398979f0000000000000000000000000000000000000000000000000000000060005260046000fd5b634c9c8ce360e01b60005260045260246000fd5b7faa1d49a40000000000000000000000000000000000000000000000000000000060005260045260246000fd5b9091506020813d602011611e0f575b81611dff602093836136e5565b8101031261023957519085611c8a565b3d9150611df2565b90506001600160a01b037f360894a13ba1a3210667c828492db98dca3e2076cc3735a920a3ca505d382bbc5416141583611c3a565b3461023957604036600319011261023957611e65613681565b6024356001600160a01b038116809103610239577ff0c57e16840df040f15088dc2f81fe391c3923bec73e23a9662efc9c229c6a00549060ff8260401c16159167ffffffffffffffff81168015908161246b575b6001149081612461575b159081612458575b5061242e5767ffffffffffffffff1981166001177ff0c57e16840df040f15088dc2f81fe391c3923bec73e23a9662efc9c229c6a0055826123ef575b506040928351611f1785826136e5565b601b81527f416772694372656469742044796e616d6963204661726d204e465400000000006020820152845190611f4e86836136e5565b600582527f444641524d0000000000000000000000000000000000000000000000000000006020830152611f80614cf8565b611f88614cf8565b80519067ffffffffffffffff8211611776578190611fc67f80bb2b638cc20bc4d0a60d66940f3ab4a00c1d7b313497ca82fb0b4ab0079300546137f1565b601f8111612381575b50602090601f83116001146122bd576000926122b2575b50508160011b916000199060031b1c1916177f80bb2b638cc20bc4d0a60d66940f3ab4a00c1d7b313497ca82fb0b4ab0079300555b80519067ffffffffffffffff8211611776576120577f80bb2b638cc20bc4d0a60d66940f3ab4a00c1d7b313497ca82fb0b4ab0079301546137f1565b601f8111612239575b50602090601f8311600114612189576001600160a01b039392916000918361217e575b50508160011b916000199060031b1c1916177f80bb2b638cc20bc4d0a60d66940f3ab4a00c1d7b313497ca82fb0b4ab0079301555b6120c0614cf8565b6120c8614cf8565b6120d133613ec0565b6120d9614cf8565b166001600160a01b031960045416176004556001600160a01b0319600554161760055561210257005b60207fc7f505b2f371ae2175ee4913f4499e1f2633a7b5936321eed1cdaeb6115181d29168ff0000000000000000197ff0c57e16840df040f15088dc2f81fe391c3923bec73e23a9662efc9c229c6a0054167ff0c57e16840df040f15088dc2f81fe391c3923bec73e23a9662efc9c229c6a00555160018152a1005b015190508780612083565b90601f198316917f80bb2b638cc20bc4d0a60d66940f3ab4a00c1d7b313497ca82fb0b4ab0079301600052816000209260005b81811061222157509160019391856001600160a01b0397969410612208575b505050811b017f80bb2b638cc20bc4d0a60d66940f3ab4a00c1d7b313497ca82fb0b4ab0079301556120b8565b015160001960f88460031b161c191690558780806121db565b929360206001819287860151815501950193016121bc565b7f80bb2b638cc20bc4d0a60d66940f3ab4a00c1d7b313497ca82fb0b4ab00793016000526122a2907ff4bad0a69248f59680a4f2b3000328cec71a413447c96781cfe5996daa8c456e601f850160051c810191602086106122a8575b601f0160051c0190613c64565b86612060565b9091508190612295565b015190508780611fe6565b7f80bb2b638cc20bc4d0a60d66940f3ab4a00c1d7b313497ca82fb0b4ab007930060009081527f37c58c799b6609234b945e882912ee9ad34948a1dfaa20a97485e1a7752bbf819350601f198516905b8181106123695750908460019594939210612350575b505050811b017f80bb2b638cc20bc4d0a60d66940f3ab4a00c1d7b313497ca82fb0b4ab00793005561201b565b015160001960f88460031b161c19169055878080612323565b9293602060018192878601518155019501930161230d565b7f80bb2b638cc20bc4d0a60d66940f3ab4a00c1d7b313497ca82fb0b4ab00793006000526123e9907f37c58c799b6609234b945e882912ee9ad34948a1dfaa20a97485e1a7752bbf81601f850160051c810191602086106122a857601f0160051c0190613c64565b88611fcf565b68ffffffffffffffffff191668010000000000000001177ff0c57e16840df040f15088dc2f81fe391c3923bec73e23a9662efc9c229c6a005583611f07565b7ff92ee8a90000000000000000000000000000000000000000000000000000000060005260046000fd5b90501585611ecb565b303b159150611ec3565b849150611eb9565b346102395760203660031901126102395760043560005260016020526040600020805461044d6001830154926005600282015460038301546004840154916124d16006860154956124ca604051809781930161382b565b03856136e5565b604051978897886137a2565b34610239576020366003190112610239576004356124fd6117ce82613f7f565b806000526001602052604060002090806000526003602052604060002091604051612527816136ad565b835481526001840154602082019081526002850154604083019081526004604051966125618861255a816003850161382b565b03896136e5565b606085019788520154916080840192835284549360095485101561299657612590600687015460085490613bda565b421061295257600186015490511161290e5760028501549051116128ca57600384015490511161288657600583019460405160208101906125e3816125d5848b613be7565b03601f1981018352826136e5565b5190209051604051612616602082816126058183019687815193849201613639565b81010301601f1981018352826136e5565b51902003612842576040516b706c616e74696e674461746560a01b815260078401600c820152602c902061264f91905b54905190613bda565b42106127fe5761265e90613c55565b815561268060405161267b81612674818861382b565b03826136e5565b61423b565b92835167ffffffffffffffff8111611776576126a0816116c684546137f1565b602094601f82116001146127995794819293949560009261278e575b50508160011b916000199060031b1c19161781555b6126da836143d6565b600a606460405160208101904282524460408201523360601b6060820152605481526127076074826136e5565b5190200610612748575b7ffd89fd580514690e5b5bbca4b9d7e7c33a4cdca3e0e8f1be152707ec570b4c9a915461274360405192839283613d27565b0390a2005b600482019182549260018401809411610e61576127857ffd89fd580514690e5b5bbca4b9d7e7c33a4cdca3e0e8f1be152707ec570b4c9a9461455c565b90559150612711565b0151905085806126bc565b601f1982169583600052806000209160005b8881106127e6575083600195969798106127cd575b505050811b0181556126d1565b015160001960f88460031b161c191690558580806127c0565b919260206001819286850151815501940192016127ab565b606460405162461bcd60e51b815260206004820152601860248201527f54696d6520726571756972656d656e74206e6f74206d657400000000000000006044820152fd5b606460405162461bcd60e51b815260206004820152600b60248201527f57726f6e672073746167650000000000000000000000000000000000000000006044820152fd5b606460405162461bcd60e51b815260206004820152601260248201527f496e73756666696369656e74207969656c6400000000000000000000000000006044820152fd5b606460405162461bcd60e51b815260206004820152601360248201527f496e73756666696369656e74206865616c7468000000000000000000000000006044820152fd5b606460405162461bcd60e51b815260206004820152601760248201527f496e73756666696369656e7420657870657269656e63650000000000000000006044820152fd5b606460405162461bcd60e51b815260206004820152601960248201527f45766f6c7574696f6e20636f6f6c646f776e20616374697665000000000000006044820152fd5b606460405162461bcd60e51b815260206004820152601160248201527f4d6178206c6576656c20726561636865640000000000000000000000000000006044820152fd5b3461023957602036600319011261023957600060a06040516129fb816136c9565b8281528260208201528260408201528260608201528260808201520152600435600052600760205260c06040600020604051612a36816136c9565b8154918282526001810154602083019081526001600160a01b0380600284015416604085019081526003840154926060860193845260a0600560ff60048801541696608089019715158852015496019586526040519687525160208701525116604085015251606084015251151560808301525160a0820152f35b3461023957610237612ac236613768565b9060405192612ad26020856136e5565b60008452613d6f565b3461023957608036600319011261023957612af4613681565b60243567ffffffffffffffff811161023957612b14903690600401613723565b906044359160643567ffffffffffffffff811161023957612b39903690600401613723565b90612b45600054613c55565b92836000556001600160a01b03811615612ef557612b6b846001600160a01b039261403e565b16612ec65782600052600260205260406000209080519067ffffffffffffffff821161177657612ba582612b9f85546137f1565b85613c7b565b602090601f8311600114612e58579180612cf7949260509694600092612e4d575b50508160011b916000199060031b1c19161790555b8360005260016020526007604060002091600183556000600184015560646002840155866003840155612c0d876141d6565b600484015560058301612c2081546137f1565b601f8111612e2b575b50601067736565646c696e6760c01b019055426006840155604051612c5e602082816126058183019687815193849201613639565b519020910190612c8682602890604051906763726f705479706560c01b825260088201522090565b5542612cae82602c90604051906b706c616e74696e674461746560a01b8252600c8201522090565b55604b612cd582602a9060405190691dd85d195c93195d995b60b21b8252600a8201522090565b55602b90604051906a736f696c5175616c69747960a81b8252600b8201522090565b55604051612d04816136ad565b60648152602081016046815260408201938452612d1f613cb7565b9360608301948552608083019162278d00835284600052600360205260406000209351845551600184015551600283015560038201935193845167ffffffffffffffff811161177657602095612d7982612b9f85546137f1565b8690601f8311600114612dc15760049493929160009183612db6575b50508160011b916000199060031b1c19161790555b51910155604051908152f35b015190508880612d95565b90601f1983169184600052816000209260005b818110612e14575091600193918560049897969410612dfb575b505050811b019055612daa565b015160001960f88460031b161c19169055888080612dee565b92938a600181928786015181550195019301612dd4565b612e479082600052601f6020600020910160051c810190613c64565b88612c29565b015190508880612bc6565b90601f1983169184600052816000209260005b818110612eae575092600192859260509896612cf7989610612e95575b505050811b019055612bdb565b015160001960f88460031b161c19169055888080612e88565b92936020600181928786015181550195019301612e6b565b7f73c6ac6e00000000000000000000000000000000000000000000000000000000600052600060045260246000fd5b633250574960e11b600052600060045260246000fd5b34610239576000366003190112610239576020600854604051908152f35b346102395760003660031901126102395760206001600160a01b0360055416604051908152f35b34610239576020366003190112610239576020600435806000526001825260406000209060005260038252604060002060405191612f8d836136ad565b81548352600182015491848401928352600281015460408501908152600460405192612fc0846124ca816003850161382b565b606087019384520154936080860194855283546009541195866130be575b866130ad575b508561309c575b508461308b575b5083613044575b508261300c575b50506040519015158152f35b61303a925060076126469101602c90604051906b706c616e74696e674461746560a01b8252600c8201522090565b4210158280613000565b9092506040518481019061305f816125d58460058901613be7565b51902090516040516130808682816126058183019687815193849201613639565b519020149184612ff9565b600383015490511115935085612ff2565b600284015490511115945086612feb565b600185015490511115955087612fe4565b95506130d1600685015460085490613bda565b42101595612fde565b34610239576102376130eb36613768565b916138ae565b3461023957602036600319011261023957600435600052600760205260c060406000208054906001810154906001600160a01b03600282015416600382015490600560ff600485015416930154936040519586526020860152604085015260608401521515608083015260a0820152f35b346102395760403660031901126102395760043560243567ffffffffffffffff811161023957613196903690600401613723565b816000526007602052604060002090600482019160ff8354161561329157600201546001600160a01b0316330361324d575115613209576131d8823330613fe4565b805460ff1916905533907fec5f0dee1fc3c7beab746dbd5883eee3f1c9bc07fe02dd318c553c5243f52fea600080a3005b606460405162461bcd60e51b815260206004820152600d60248201527f496e76616c69642070726f6f66000000000000000000000000000000000000006044820152fd5b606460405162461bcd60e51b815260206004820152601660248201527f4e6f7420746865206f726967696e616c206f776e6572000000000000000000006044820152fd5b606460405162461bcd60e51b815260206004820152600f60248201527f4e4654206e6f74206272696467656400000000000000000000000000000000006044820152fd5b34610239576040366003190112610239576132ee613681565b6024356132fa81613f7f565b33151580613415575b806133b9575b61338b5781906001600160a01b0380851691167f8c5be1e5ebec7d5bd14f71427d1e84f3dd0314c0f7b2291e5b200ac8c7c3b925600080a46000527f80bb2b638cc20bc4d0a60d66940f3ab4a00c1d7b313497ca82fb0b4ab00793046020526001600160a01b03604060002091166001600160a01b0319825416179055600080f35b7fa9fbf51f000000000000000000000000000000000000000000000000000000006000523360045260246000fd5b506133f6816001600160a01b03166000527f80bb2b638cc20bc4d0a60d66940f3ab4a00c1d7b313497ca82fb0b4ab0079305602052604060002090565b6001600160a01b03331660005260205260ff6040600020541615613309565b50336001600160a01b0382161415613303565b34610239576020366003190112610239576020611a5960043561344a81613f7f565b506000527f80bb2b638cc20bc4d0a60d66940f3ab4a00c1d7b313497ca82fb0b4ab00793046020526001600160a01b036040600020541690565b346102395760003660031901126102395760405160007f80bb2b638cc20bc4d0a60d66940f3ab4a00c1d7b313497ca82fb0b4ab0079300546134c5816137f1565b808452906001811690811561153057506001146134ec5761044d8361149e818503826136e5565b7f80bb2b638cc20bc4d0a60d66940f3ab4a00c1d7b313497ca82fb0b4ab007930060009081527f37c58c799b6609234b945e882912ee9ad34948a1dfaa20a97485e1a7752bbf81939250905b8082106135505750909150810160200161149e61148e565b919260018160209254838588010152019101909291613538565b3461023957602036600319011261023957600435907fffffffff00000000000000000000000000000000000000000000000000000000821680920361023957817f80ac58cd000000000000000000000000000000000000000000000000000000006020931490811561360f575b81156135e5575b5015158152f35b7f01ffc9a700000000000000000000000000000000000000000000000000000000915014836135de565b7f5b5e139f00000000000000000000000000000000000000000000000000000000811491506135d7565b60005b83811061364c5750506000910152565b818101518382015260200161363c565b9060209161367581518092818552858086019101613639565b601f01601f1916010190565b600435906001600160a01b038216820361023957565b602435906001600160a01b038216820361023957565b60a0810190811067ffffffffffffffff82111761177657604052565b60c0810190811067ffffffffffffffff82111761177657604052565b90601f8019910116810190811067ffffffffffffffff82111761177657604052565b67ffffffffffffffff811161177657601f01601f191660200190565b81601f820112156102395760208135910161373d82613707565b9261374b60405194856136e5565b828452828201116102395781600092602092838601378301015290565b6060906003190112610239576004356001600160a01b038116810361023957906024356001600160a01b0381168103610239579060443590565b9796959260c095926137d695928a5260208a015260408901526060880152608087015260e060a087015260e086019061365c565b930152565b6040906003190112610239576004359060243590565b90600182811c92168015613821575b602083101461380b57565b634e487b7160e01b600052602260045260246000fd5b91607f1691613800565b6000929181549161383b836137f1565b8083529260018116908115613891575060011461385757505050565b60009081526020812093945091925b838310613877575060209250010190565b600181602092949394548385870101520191019190613866565b915050602093945060ff929192191683830152151560051b010190565b906001600160a01b0381168015612ef5576000916138ff856000527f80bb2b638cc20bc4d0a60d66940f3ab4a00c1d7b313497ca82fb0b4ab00793026020526001600160a01b036040600020541690565b9233151580613ac1575b509480949284927fddf252ad1be2c89b69c2b068fc378daa952ba7f163c4a11628f55a4df523b3ef613980986001600160a01b03809816998a9384613a05576001600160a01b03166000527f80bb2b638cc20bc4d0a60d66940f3ab4a00c1d7b313497ca82fb0b4ab0079303602052604060002090565b600181540190558481527f80bb2b638cc20bc4d0a60d66940f3ab4a00c1d7b313497ca82fb0b4ab007930260205260408120846001600160a01b031982541617905580a450168083036139d257505050565b7f64283d7b0000000000000000000000000000000000000000000000000000000060005260045260245260445260646000fd5b613a45876000527f80bb2b638cc20bc4d0a60d66940f3ab4a00c1d7b313497ca82fb0b4ab007930460205260406000206001600160a01b03198154169055565b613a81886001600160a01b03166000527f80bb2b638cc20bc4d0a60d66940f3ab4a00c1d7b313497ca82fb0b4ab0079303602052604060002090565b80546000190190556001600160a01b03166000527f80bb2b638cc20bc4d0a60d66940f3ab4a00c1d7b313497ca82fb0b4ab0079303602052604060002090565b80613b23575b15613ad25738613909565b85906001600160a01b038516613af457602491637e27328960e01b8252600452fd5b6044917f177e802f00000000000000000000000000000000000000000000000000000000825233600452602452fd5b50336001600160a01b038516148015613b8a575b80613ac75750336001600160a01b03613b83886000527f80bb2b638cc20bc4d0a60d66940f3ab4a00c1d7b313497ca82fb0b4ab00793046020526001600160a01b036040600020541690565b1614613ac7565b50613bc7846001600160a01b03166000527f80bb2b638cc20bc4d0a60d66940f3ab4a00c1d7b313497ca82fb0b4ab0079305602052604060002090565b338252602052604081205460ff16613b37565b91908201809211610e6157565b60009291815491613bf7836137f1565b9260018116908115613c425750600114613c1057505050565b909192935060005260206000206000905b838210613c2e5750500190565b600181602092548486015201910190613c21565b60ff191683525050811515909102019150565b6000198114610e615760010190565b818110613c6f575050565b60008155600101613c64565b9190601f8111613c8a57505050565b613cb5926000526020600020906020601f840160051c830193106122a857601f0160051c0190613c64565b565b60405190613cc66040836136e5565b600782526667726f77696e6760c81b6020830152565b15613ce357565b606460405162461bcd60e51b815260206004820152600d60248201527f4e6f7420746865206f776e6572000000000000000000000000000000000000006044820152fd5b604090613d3e93928152816020820152019061382b565b90565b81810292918115918404141715610e6157565b90816060910312610239578051916040602083015192015190565b90613d7b8382846138ae565b803b613d88575b50505050565b602091613dce6001600160a01b03809316956040519586948594630a85bd0160e11b8652336004870152166024850152604484015260806064840152608483019061365c565b03816000865af18091600091613e5e575b5090613e105750613dee61486b565b80519081613e0b5782633250574960e11b60005260045260246000fd5b602001fd5b7fffffffff00000000000000000000000000000000000000000000000000000000630a85bd0160e11b911603613e4a575038808080613d82565b633250574960e11b60005260045260246000fd5b6020813d602011613eb8575b81613e77602093836136e5565b81010312613eb45751907fffffffff0000000000000000000000000000000000000000000000000000000082168203613eb1575038613ddf565b80fd5b5080fd5b3d9150613e6a565b6001600160a01b03168015613f50576001600160a01b037f9016d09d72d40fdae2fd8ceac6b6234c7706214fd39c1cd1e609a0528c19930054826001600160a01b03198216177f9016d09d72d40fdae2fd8ceac6b6234c7706214fd39c1cd1e609a0528c19930055167f8be0079c531659141344cd1fd0a4f28419497f9722a3daafe3b4186f6b6457e0600080a3565b7f1e4fbdf700000000000000000000000000000000000000000000000000000000600052600060045260246000fd5b613fbc816000527f80bb2b638cc20bc4d0a60d66940f3ab4a00c1d7b313497ca82fb0b4ab00793026020526001600160a01b036040600020541690565b906001600160a01b03821615613fd0575090565b637e27328960e01b60005260045260246000fd5b909291926001600160a01b03811615612ef557614009846001600160a01b039261403e565b1690816140255783637e27328960e01b60005260045260246000fd5b919290916001600160a01b03168083036139d257505050565b9061407c816000527f80bb2b638cc20bc4d0a60d66940f3ab4a00c1d7b313497ca82fb0b4ab00793026020526001600160a01b036040600020541690565b916001600160a01b0383168061414d575b6001600160a01b0382169182614104575b50826000527f80bb2b638cc20bc4d0a60d66940f3ab4a00c1d7b313497ca82fb0b4ab00793026020526040600020826001600160a01b03198254161790557fddf252ad1be2c89b69c2b068fc378daa952ba7f163c4a11628f55a4df523b3ef600080a490565b614140906001600160a01b03166000527f80bb2b638cc20bc4d0a60d66940f3ab4a00c1d7b313497ca82fb0b4ab0079303602052604060002090565b600181540190553861409e565b61418d836000527f80bb2b638cc20bc4d0a60d66940f3ab4a00c1d7b313497ca82fb0b4ab007930460205260406000206001600160a01b03198154169055565b6141c9846001600160a01b03166000527f80bb2b638cc20bc4d0a60d66940f3ab4a00c1d7b313497ca82fb0b4ab0079303602052604060002090565b805460001901905561408d565b601481101561420f57600f81101561420957600a81101561420357600511156141fe57600190565b600290565b50600390565b50600490565b50600590565b604051906142246040836136e5565b6008825267736565646c696e6760c01b6020830152565b604051906020820181519261425b6020828186019661260581878a613639565b519020604051602081019067736565646c696e6760c01b8252600881526142836028826136e5565b519020146143cc5760405160208101906142a6602082855161260581878a613639565b51902060405160208101906667726f77696e6760c81b8252600781526142cd6027826136e5565b519020146143a65760405160208101906142f0602082855161260581878a613639565b5190206040516020810190656d617475726560d01b8252600681526143166026826136e5565b5190201461437c5761433a6020604051809361260583830196879251928391613639565b51902060405160208101906968617276657374696e6760b01b8252600a8152614364602a826136e5565b5190201461437457613d3e614215565b613d3e614215565b505060405161438c6040826136e5565b600a81526968617276657374696e6760b01b602082015290565b50506040516143b66040826136e5565b60068152656d617475726560d01b602082015290565b5050613d3e613cb7565b80600052600160205260406000209060005260036020526040600020908054906064820290821591838104606414831715610e615784558260011b838104600214831715610e6157603c0180603c11610e615760018501556003810154836064019081606411610e615761446b92606461445560059461267b94613d41565b046002880155612674604051809481930161382b565b8051600385019167ffffffffffffffff82116117765781906144978261449186546137f1565b86613c7b565b602090601f83116001146144f7576000926144ec575b50508160011b916000199060031b1c19161790555b62015180820291820462015180141715610e615762278d0001908162278d0011610e615760040155565b0151905038806144ad565b60008581528281209350601f198516905b818110614544575090846001959493921061452b575b505050811b0190556144c2565b015160001960f88460031b161c1916905538808061451e565b92936020600181928786015181550195019301614508565b6001811061456f576005811161420f5790565b50600190565b606481116145805790565b50606490565b806000526001602052604060002081600052600360205260406000206040516145ae816136ad565b81548152600182015491602082019283526002810154604083019081526004604051926145e2846124ca816003850161382b565b606085019384520154926080810193845260018601549051111593846147f9575b50836147e8575b508261479f575b508161476a575b50614621575050565b61462b8154613c55565b8155600581019061464660405161267b81612674818761382b565b80519067ffffffffffffffff8211611776576146668261449186546137f1565b602090601f83116001146146e0577ffd89fd580514690e5b5bbca4b9d7e7c33a4cdca3e0e8f1be152707ec570b4c9a94939291600091836146d5575b50508160011b916000199060031b1c19161782555b6146c0846143d6565b546146d060405192839283613d27565b0390a2565b0151905038806146a2565b90601f1983169185600052816000209260005b81811061475257509160019391857ffd89fd580514690e5b5bbca4b9d7e7c33a4cdca3e0e8f1be152707ec570b4c9a9897969410614739575b505050811b0182556146b7565b015160001960f88460031b161c1916905538808061472c565b929360206001819287860151815501950193016146f3565b6040516b706c616e74696e674461746560a01b815260078401600c820152602c90206147969250612646565b42101538614618565b90915060405160208101906147bb816125d58460058901613be7565b51902090516040516147dd602082816126058183019687815193849201613639565b519020149038614611565b60038501549051111592503861460a565b600286015490511115935038614603565b6001600160a01b037f9016d09d72d40fdae2fd8ceac6b6234c7706214fd39c1cd1e609a0528c1993005416330361483d57565b7f118cdaa7000000000000000000000000000000000000000000000000000000006000523360045260246000fd5b3d15614896573d9061487c82613707565b9161488a60405193846136e5565b82523d6000602084013e565b606090565b601981106148cc57603281106148c557604b81106148bf57605a116141fe57600590565b50600090565b5060011990565b5060041990565b80156149a957600081805b61499557506148ec81613707565b906148fa60405192836136e5565b808252601f1961490982613707565b013660208401375b8092801561498e576000198201918211610e61578193600a82066030019283603011610e61578451111561497857601f7fff00000000000000000000000000000000000000000000000000000000000000600a9460f81b1660001a91850101530491614911565b634e487b7160e01b600052603260045260246000fd5b5050905090565b906149a1600a91613c55565b9104806148de565b506040516149b86040826136e5565b600181527f3000000000000000000000000000000000000000000000000000000000000000602082015290565b806000917a184f03e93ff9f4daa797ed6e38ed64bf6a1f010000000000000000821015614b43575b806d04ee2d6d415b85acef8100000000600a921015614b28575b662386f26fc10000811015614b14575b6305f5e100811015614b03575b612710811015614af4575b6064811015614ae6575b1015614adb575b600a60216001840193614a7285613707565b94614a8060405196876136e5565b808652614a8f601f1991613707565b013660208701378401015b60001901917f30313233343536373839616263646566000000000000000000000000000000008282061a8353048015614ad657600a9091614a9a565b505090565b600190910190614a60565b606460029104930192614a59565b61271060049104930192614a4f565b6305f5e10060089104930192614a44565b662386f26fc1000060109104930192614a37565b6d04ee2d6d415b85acef810000000060209104930192614a27565b50604091507a184f03e93ff9f4daa797ed6e38ed64bf6a1f0100000000000000008104614a0d565b60018114614cbc5760028114614c805760038114614c445760048114614c0857600514614bcd57604051614ba06040826136e5565b600781527f556e6b6e6f776e00000000000000000000000000000000000000000000000000602082015290565b604051614bdb6040826136e5565b600981527f4c6567656e646172790000000000000000000000000000000000000000000000602082015290565b50604051614c176040826136e5565b600481527f4570696300000000000000000000000000000000000000000000000000000000602082015290565b50604051614c536040826136e5565b600481527f5261726500000000000000000000000000000000000000000000000000000000602082015290565b50604051614c8f6040826136e5565b600881527f556e636f6d6d6f6e000000000000000000000000000000000000000000000000602082015290565b50604051614ccb6040826136e5565b600681527f436f6d6d6f6e0000000000000000000000000000000000000000000000000000602082015290565b60ff7ff0c57e16840df040f15088dc2f81fe391c3923bec73e23a9662efc9c229c6a005460401c1615614d2757565b7fd7e6bcf80000000000000000000000000000000000000000000000000000000060005260046000fd5b90614d905750805115614d6657602081519101fd5b7fd6bda2750000000000000000000000000000000000000000000000000000000060005260046000fd5b81511580614dd8575b614da1575090565b6001600160a01b03907f9996b315000000000000000000000000000000000000000000000000000000006000521660045260246000fd5b50803b15614d9956fea26469706673582212200dbe58f393bedd3e09450d003620e8b07b8a59759a2352c3050ed13789f43d9b64736f6c634300081c0033",
  "linkReferences": {},
  "deployedLinkReferences": {}
}