{
  "_format": "hh-sol-artifact-1",
  "contractName": "InsurancePool",
  "sourceName": "contracts/InsurancePool.sol",
  "abi": [
    {
      "inputs": [
        {
          "internalType": "address",
          "name": "target",
          "type": "address"
        }
      ],
      "name": "AddressEmptyCode",
      "type": "error"
    },
    {
      "inputs": [
        {
          "internalType": "address",
          "name": "implementation",
          "type": "address"
        }
      ],
      "name": "ERC1967InvalidImplementation",
      "type": "error"
    },
    {
      "inputs": [],
      "name": "ERC1967NonPayable",
      "type": "error"
    },
    {
      "inputs": [],
      "name": "FailedCall",
      "type": "error"
    },
    {
      "inputs": [],
      "name": "InvalidInitialization",
      "type": "error"
    },
    {
      "inputs": [],
      "name": "NotInitializing",
      "type": "error"
    },
    {
      "inputs": [
        {
          "internalType": "address",
          "name": "owner",
          "type": "address"
        }
      ],
      "name": "OwnableInvalidOwner",
      "type": "error"
    },
    {
      "inputs": [
        {
          "internalType": "address",
          "name": "account",
          "type": "address"
        }
      ],
      "name": "OwnableUnauthorizedAccount",
      "type": "error"
    },
    {
      "inputs": [],
      "name": "ReentrancyGuardReentrantCall",
      "type": "error"
    },
    {
      "inputs": [
        {
          "internalType": "address",
          "name": "token",
          "type": "address"
        }
      ],
      "name": "SafeERC20FailedOperation",
      "type": "error"
    },
    {
      "inputs": [],
      "name": "UUPSUnauthorizedCallContext",
      "type": "error"
    },
    {
      "inputs": [
        {
          "internalType": "bytes32",
          "name": "slot",
          "type": "bytes32"
        }
      ],
      "name": "UUPSUnsupportedProxiableUUID",
      "type": "error"
    },
    {
      "anonymous": false,
      "inputs": [
        {
          "indexed": true,
          "internalType": "uint256",
          "name": "claimId",
          "type": "uint256"
        },
        {
          "indexed": false,
          "internalType": "enum InsurancePool.ClaimStatus",
          "name": "status",
          "type": "uint8"
        },
        {
          "indexed": false,
          "internalType": "uint256",
          "name": "paidAmount",
          "type": "uint256"
        }
      ],
      "name": "ClaimProcessed",
      "type": "event"
    },
    {
      "anonymous": false,
      "inputs": [
        {
          "indexed": true,
          "internalType": "uint256",
          "name": "claimId",
          "type": "uint256"
        },
        {
          "indexed": true,
          "internalType": "uint256",
          "name": "policyId",
          "type": "uint256"
        },
        {
          "indexed": false,
          "internalType": "uint256",
          "name": "amount",
          "type": "uint256"
        }
      ],
      "name": "ClaimSubmitted",
      "type": "event"
    },
    {
      "anonymous": false,
      "inputs": [
        {
          "indexed": false,
          "internalType": "uint64",
          "name": "version",
          "type": "uint64"
        }
      ],
      "name": "Initialized",
      "type": "event"
    },
    {
      "anonymous": false,
      "inputs": [
        {
          "indexed": true,
          "internalType": "uint256",
          "name": "poolId",
          "type": "uint256"
        },
        {
          "indexed": true,
          "internalType": "address",
          "name": "member",
          "type": "address"
        },
        {
          "indexed": false,
          "internalType": "uint256",
          "name": "contribution",
          "type": "uint256"
        }
      ],
      "name": "MemberJoined",
      "type": "event"
    },
    {
      "anonymous": false,
      "inputs": [
        {
          "indexed": true,
          "internalType": "address",
          "name": "previousOwner",
          "type": "address"
        },
        {
          "indexed": true,
          "internalType": "address",
          "name": "newOwner",
          "type": "address"
        }
      ],
      "name": "OwnershipTransferred",
      "type": "event"
    },
    {
      "anonymous": false,
      "inputs": [
        {
          "indexed": true,
          "internalType": "uint256",
          "name": "policyId",
          "type": "uint256"
        },
        {
          "indexed": false,
          "internalType": "uint256",
          "name": "triggerValue",
          "type": "uint256"
        }
      ],
      "name": "ParametricTriggerExecuted",
      "type": "event"
    },
    {
      "anonymous": false,
      "inputs": [
        {
          "indexed": true,
          "internalType": "uint256",
          "name": "policyId",
          "type": "uint256"
        },
        {
          "indexed": true,
          "internalType": "address",
          "name": "holder",
          "type": "address"
        },
        {
          "indexed": false,
          "internalType": "uint256",
          "name": "coverageAmount",
          "type": "uint256"
        }
      ],
      "name": "PolicyPurchased",
      "type": "event"
    },
    {
      "anonymous": false,
      "inputs": [
        {
          "indexed": true,
          "internalType": "uint256",
          "name": "poolId",
          "type": "uint256"
        },
        {
          "indexed": false,
          "internalType": "string",
          "name": "name",
          "type": "string"
        },
        {
          "indexed": false,
          "internalType": "enum InsurancePool.RiskCategory",
          "name": "riskCategory",
          "type": "uint8"
        }
      ],
      "name": "PoolCreated",
      "type": "event"
    },
    {
      "anonymous": false,
      "inputs": [
        {
          "indexed": true,
          "internalType": "uint256",
          "name": "poolId",
          "type": "uint256"
        },
        {
          "indexed": false,
          "internalType": "uint256",
          "name": "totalDistributed",
          "type": "uint256"
        }
      ],
      "name": "PoolFundsDistributed",
      "type": "event"
    },
    {
      "anonymous": false,
      "inputs": [
        {
          "indexed": true,
          "internalType": "address",
          "name": "implementation",
          "type": "address"
        }
      ],
      "name": "Upgraded",
      "type": "event"
    },
    {
      "inputs": [],
      "name": "UPGRADE_INTERFACE_VERSION",
      "outputs": [
        {
          "internalType": "string",
          "name": "",
          "type": "string"
        }
      ],
      "stateMutability": "view",
      "type": "function"
    },
    {
      "inputs": [],
      "name": "aiOracle",
      "outputs": [
        {
          "internalType": "address",
          "name": "",
          "type": "address"
        }
      ],
      "stateMutability": "view",
      "type": "function"
    },
    {
      "inputs": [
        {
          "internalType": "uint256",
          "name": "claimId",
          "type": "uint256"
        }
      ],
      "name": "approveClaim",
      "outputs": [],
      "stateMutability": "nonpayable",
      "type": "function"
    },
    {
      "inputs": [],
      "name": "claimApprovalThreshold",
      "outputs": [
        {
          "internalType": "uint256",
          "name": "",
          "type": "uint256"
        }
      ],
      "stateMutability": "view",
      "type": "function"
    },
    {
      "inputs": [],
      "name": "claimCount",
      "outputs": [
        {
          "internalType": "uint256",
          "name": "",
          "type": "uint256"
        }
      ],
      "stateMutability": "view",
      "type": "function"
    },
    {
      "inputs": [
        {
          "internalType": "uint256",
          "name": "poolId",
          "type": "uint256"
        }
      ],
      "name": "claimMemberFunds",
      "outputs": [],
      "stateMutability": "nonpayable",
      "type": "function"
    },
    {
      "inputs": [
        {
          "internalType": "uint256",
          "name": "",
          "type": "uint256"
        }
      ],
      "name": "claims",
      "outputs": [
        {
          "internalType": "uint256",
          "name": "claimId",
          "type": "uint256"
        },
        {
          "internalType": "uint256",
          "name": "policyId",
          "type": "uint256"
        },
        {
          "internalType": "address",
          "name": "claimant",
          "type": "address"
        },
        {
          "internalType": "uint256",
          "name": "claimedAmount",
          "type": "uint256"
        },
        {
          "internalType": "string",
          "name": "evidence",
          "type": "string"
        },
        {
          "internalType": "uint256",
          "name": "aiConfidence",
          "type": "uint256"
        },
        {
          "internalType": "enum InsurancePool.ClaimStatus",
          "name": "status",
          "type": "uint8"
        },
        {
          "internalType": "uint256",
          "name": "submittedAt",
          "type": "uint256"
        },
        {
          "internalType": "uint256",
          "name": "processedAt",
          "type": "uint256"
        },
        {
          "internalType": "uint256",
          "name": "approvalCount",
          "type": "uint256"
        }
      ],
      "stateMutability": "view",
      "type": "function"
    },
    {
      "inputs": [
        {
          "internalType": "string",
          "name": "name",
          "type": "string"
        },
        {
          "internalType": "string",
          "name": "description",
          "type": "string"
        },
        {
          "internalType": "address",
          "name": "premiumToken",
          "type": "address"
        },
        {
          "internalType": "enum InsurancePool.RiskCategory",
          "name": "riskCategory",
          "type": "uint8"
        },
        {
          "internalType": "uint256",
          "name": "poolUtilization",
          "type": "uint256"
        }
      ],
      "name": "createPool",
      "outputs": [
        {
          "internalType": "uint256",
          "name": "",
          "type": "uint256"
        }
      ],
      "stateMutability": "nonpayable",
      "type": "function"
    },
    {
      "inputs": [
        {
          "internalType": "uint256",
          "name": "poolId",
          "type": "uint256"
        }
      ],
      "name": "distributePoolFunds",
      "outputs": [],
      "stateMutability": "nonpayable",
      "type": "function"
    },
    {
      "inputs": [
        {
          "internalType": "uint256",
          "name": "policyId",
          "type": "uint256"
        },
        {
          "internalType": "uint256",
          "name": "triggerValue",
          "type": "uint256"
        }
      ],
      "name": "executeParametricTrigger",
      "outputs": [],
      "stateMutability": "nonpayable",
      "type": "function"
    },
    {
      "inputs": [
        {
          "internalType": "uint256",
          "name": "poolId",
          "type": "uint256"
        },
        {
          "internalType": "address",
          "name": "member",
          "type": "address"
        }
      ],
      "name": "getMemberInfo",
      "outputs": [
        {
          "internalType": "uint256",
          "name": "contribution",
          "type": "uint256"
        },
        {
          "internalType": "uint256",
          "name": "coverageAmount",
          "type": "uint256"
        },
        {
          "internalType": "uint256",
          "name": "claimableAmount",
          "type": "uint256"
        },
        {
          "internalType": "bool",
          "name": "active",
          "type": "bool"
        }
      ],
      "stateMutability": "view",
      "type": "function"
    },
    {
      "inputs": [
        {
          "internalType": "uint256",
          "name": "policyId",
          "type": "uint256"
        }
      ],
      "name": "getPolicyInfo",
      "outputs": [
        {
          "internalType": "address",
          "name": "holder",
          "type": "address"
        },
        {
          "internalType": "uint256",
          "name": "coverageAmount",
          "type": "uint256"
        },
        {
          "internalType": "string",
          "name": "riskType",
          "type": "string"
        },
        {
          "internalType": "bool",
          "name": "isActive",
          "type": "bool"
        },
        {
          "internalType": "uint256",
          "name": "aiRiskScore",
          "type": "uint256"
        }
      ],
      "stateMutability": "view",
      "type": "function"
    },
    {
      "inputs": [
        {
          "internalType": "uint256",
          "name": "poolId",
          "type": "uint256"
        }
      ],
      "name": "getPoolInfo",
      "outputs": [
        {
          "internalType": "string",
          "name": "name",
          "type": "string"
        },
        {
          "internalType": "uint256",
          "name": "totalPremiums",
          "type": "uint256"
        },
        {
          "internalType": "uint256",
          "name": "totalCoverage",
          "type": "uint256"
        },
        {
          "internalType": "uint256",
          "name": "memberCount",
          "type": "uint256"
        },
        {
          "internalType": "bool",
          "name": "active",
          "type": "bool"
        }
      ],
      "stateMutability": "view",
      "type": "function"
    },
    {
      "inputs": [
        {
          "internalType": "address",
          "name": "_oracle",
          "type": "address"
        },
        {
          "internalType": "address",
          "name": "_aiOracle",
          "type": "address"
        }
      ],
      "name": "initialize",
      "outputs": [],
      "stateMutability": "nonpayable",
      "type": "function"
    },
    {
      "inputs": [
        {
          "internalType": "uint256",
          "name": "poolId",
          "type": "uint256"
        },
        {
          "internalType": "uint256",
          "name": "contribution",
          "type": "uint256"
        }
      ],
      "name": "joinPool",
      "outputs": [],
      "stateMutability": "nonpayable",
      "type": "function"
    },
    {
      "inputs": [],
      "name": "maxPoolUtilization",
      "outputs": [
        {
          "internalType": "uint256",
          "name": "",
          "type": "uint256"
        }
      ],
      "stateMutability": "view",
      "type": "function"
    },
    {
      "inputs": [],
      "name": "minContribution",
      "outputs": [
        {
          "internalType": "uint256",
          "name": "",
          "type": "uint256"
        }
      ],
      "stateMutability": "view",
      "type": "function"
    },
    {
      "inputs": [],
      "name": "oracle",
      "outputs": [
        {
          "internalType": "address",
          "name": "",
          "type": "address"
        }
      ],
      "stateMutability": "view",
      "type": "function"
    },
    {
      "inputs": [],
      "name": "owner",
      "outputs": [
        {
          "internalType": "address",
          "name": "",
          "type": "address"
        }
      ],
      "stateMutability": "view",
      "type": "function"
    },
    {
      "inputs": [
        {
          "internalType": "uint256",
          "name": "",
          "type": "uint256"
        }
      ],
      "name": "policies",
      "outputs": [
        {
          "internalType": "uint256",
          "name": "policyId",
          "type": "uint256"
        },
        {
          "internalType": "uint256",
          "name": "poolId",
          "type": "uint256"
        },
        {
          "internalType": "address",
          "name": "holder",
          "type": "address"
        },
        {
          "internalType": "uint256",
          "name": "coverageAmount",
          "type": "uint256"
        },
        {
          "internalType": "uint256",
          "name": "premiumPaid",
          "type": "uint256"
        },
        {
          "internalType": "string",
          "name": "riskType",
          "type": "string"
        },
        {
          "internalType": "bytes",
          "name": "triggerCondition",
          "type": "bytes"
        },
        {
          "internalType": "uint256",
          "name": "triggerValue",
          "type": "uint256"
        },
        {
          "internalType": "bool",
          "name": "isActive",
          "type": "bool"
        },
        {
          "internalType": "uint256",
          "name": "expiryDate",
          "type": "uint256"
        },
        {
          "internalType": "enum InsurancePool.ClaimStatus",
          "name": "claimStatus",
          "type": "uint8"
        },
        {
          "internalType": "uint256",
          "name": "aiRiskScore",
          "type": "uint256"
        }
      ],
      "stateMutability": "view",
      "type": "function"
    },
    {
      "inputs": [],
      "name": "policyCount",
      "outputs": [
        {
          "internalType": "uint256",
          "name": "",
          "type": "uint256"
        }
      ],
      "stateMutability": "view",
      "type": "function"
    },
    {
      "inputs": [],
      "name": "poolCount",
      "outputs": [
        {
          "internalType": "uint256",
          "name": "",
          "type": "uint256"
        }
      ],
      "stateMutability": "view",
      "type": "function"
    },
    {
      "inputs": [
        {
          "internalType": "uint256",
          "name": "",
          "type": "uint256"
        }
      ],
      "name": "pools",
      "outputs": [
        {
          "internalType": "uint256",
          "name": "poolId",
          "type": "uint256"
        },
        {
          "internalType": "string",
          "name": "name",
          "type": "string"
        },
        {
          "internalType": "string",
          "name": "description",
          "type": "string"
        },
        {
          "internalType": "address",
          "name": "premiumToken",
          "type": "address"
        },
        {
          "internalType": "enum InsurancePool.RiskCategory",
          "name": "riskCategory",
          "type": "uint8"
        },
        {
          "internalType": "uint256",
          "name": "totalPremiums",
          "type": "uint256"
        },
        {
          "internalType": "uint256",
          "name": "totalCoverage",
          "type": "uint256"
        },
        {
          "internalType": "uint256",
          "name": "lockedFunds",
          "type": "uint256"
        },
        {
          "internalType": "uint256",
          "name": "poolUtilization",
          "type": "uint256"
        },
        {
          "internalType": "bool",
          "name": "active",
          "type": "bool"
        }
      ],
      "stateMutability": "view",
      "type": "function"
    },
    {
      "inputs": [],
      "name": "premiumFee",
      "outputs": [
        {
          "internalType": "uint256",
          "name": "",
          "type": "uint256"
        }
      ],
      "stateMutability": "view",
      "type": "function"
    },
    {
      "inputs": [],
      "name": "proxiableUUID",
      "outputs": [
        {
          "internalType": "bytes32",
          "name": "",
          "type": "bytes32"
        }
      ],
      "stateMutability": "view",
      "type": "function"
    },
    {
      "inputs": [
        {
          "internalType": "uint256",
          "name": "poolId",
          "type": "uint256"
        },
        {
          "internalType": "uint256",
          "name": "coverageAmount",
          "type": "uint256"
        },
        {
          "internalType": "string",
          "name": "riskType",
          "type": "string"
        },
        {
          "internalType": "bytes",
          "name": "triggerCondition",
          "type": "bytes"
        },
        {
          "internalType": "uint256",
          "name": "triggerValue",
          "type": "uint256"
        },
        {
          "internalType": "uint256",
          "name": "duration",
          "type": "uint256"
        }
      ],
      "name": "purchaseParametricPolicy",
      "outputs": [
        {
          "internalType": "uint256",
          "name": "",
          "type": "uint256"
        }
      ],
      "stateMutability": "nonpayable",
      "type": "function"
    },
    {
      "inputs": [],
      "name": "renounceOwnership",
      "outputs": [],
      "stateMutability": "nonpayable",
      "type": "function"
    },
    {
      "inputs": [
        {
          "internalType": "address",
          "name": "_aiOracle",
          "type": "address"
        }
      ],
      "name": "setAIOracle",
      "outputs": [],
      "stateMutability": "nonpayable",
      "type": "function"
    },
    {
      "inputs": [
        {
          "internalType": "uint256",
          "name": "_threshold",
          "type": "uint256"
        }
      ],
      "name": "setClaimApprovalThreshold",
      "outputs": [],
      "stateMutability": "nonpayable",
      "type": "function"
    },
    {
      "inputs": [
        {
          "internalType": "uint256",
          "name": "_minContribution",
          "type": "uint256"
        }
      ],
      "name": "setMinContribution",
      "outputs": [],
      "stateMutability": "nonpayable",
      "type": "function"
    },
    {
      "inputs": [
        {
          "internalType": "address",
          "name": "_oracle",
          "type": "address"
        }
      ],
      "name": "setOracle",
      "outputs": [],
      "stateMutability": "nonpayable",
      "type": "function"
    },
    {
      "inputs": [
        {
          "internalType": "uint256",
          "name": "policyId",
          "type": "uint256"
        },
        {
          "internalType": "uint256",
          "name": "claimedAmount",
          "type": "uint256"
        },
        {
          "internalType": "string",
          "name": "evidence",
          "type": "string"
        }
      ],
      "name": "submitClaim",
      "outputs": [
        {
          "internalType": "uint256",
          "name": "",
          "type": "uint256"
        }
      ],
      "stateMutability": "nonpayable",
      "type": "function"
    },
    {
      "inputs": [
        {
          "internalType": "address",
          "name": "newOwner",
          "type": "address"
        }
      ],
      "name": "transferOwnership",
      "outputs": [],
      "stateMutability": "nonpayable",
      "type": "function"
    },
    {
      "inputs": [
        {
          "internalType": "address",
          "name": "newImplementation",
          "type": "address"
        },
        {
          "internalType": "bytes",
          "name": "data",
          "type": "bytes"
        }
      ],
      "name": "upgradeToAndCall",
      "outputs": [],
      "stateMutability": "payable",
      "type": "function"
    }
  ],
  "bytecode": "0x60a080604052346045573060805268056bc75e2d6310000060085560036009556050600a5560c8600b556129f6908161004b823960805181818161143701526114ef0152f35b600080fdfe6080604052600436101561001257600080fd5b60003560e01c806306964de714611e67578063108c849214611cd65780631aa632b314611c965780631ae907a614611c785780631e67939e14611c07578063209c952314611be95780632f380b3514611b6057806331b221cd14611b3957806346e30135146119b1578063473b0d4614611990578063485cc955146117545780634f1ef286146114b157806352d1902d1461141c57806355de1931146113fe5780635b35e34714611236578063715018a61461119d5780637908574614610d015780637adbf97314610cc15780637dc0d1d014610c9a5780637fee2a7d14610c795780638da4d3c914610c5b5780638da5cb5b14610c155780639588d85b14610b8a5780639f53b92314610aa6578063a888c2cd146109d7578063aaffadf3146109b9578063ac4afa38146108d2578063ad3cb1cc1461086f578063b7c075f9146106b0578063c28483a81461030d578063d3e89483146101fe578063de54d429146101e0578063f2fde38b146101b55763f525cb681461019257600080fd5b346101b05760003660031901126101b0576020600354604051908152f35b600080fd5b346101b05760203660031901126101b0576101de6101d1612208565b6101d9612699565b612502565b005b346101b05760003660031901126101b0576020600454604051908152f35b346101b05760203660031901126101b05760043560005260016020526020604060002080549060018101546001600160a01b03600283015416916003810154926004820154936102e06040516102628161025b81600589016122b6565b038261216f565b6102d2604051916102818361027a8160068b016122b6565b038461216f565b60078701549860ff60088901541695600989015497600b60ff600a8c0154169a01549a6040519e8f9e8f908152015260408d015260608c015260808b015261018060a08b01526101808a0190612257565b9088820360c08a0152612257565b9460e087015215156101008601526101208501526102fd81612339565b6101408401526101608301520390f35b346101b05760a03660031901126101b05760043567ffffffffffffffff81116101b05761033e9036906004016121ad565b60243567ffffffffffffffff81116101b05761035e9036906004016121ad565b90604435916001600160a01b03831683036101b0576064359160048310156101b0576084359261038c612699565b6064841161066c5761039f6003546123a4565b938460035584600052600060205260406000209085825560018201845167ffffffffffffffff81116105e7576103df816103d9845461227c565b846123ca565b6020601f821160011461060857908061040e926000916105fd575b508160011b916000199060031b1c19161790565b90555b8451966002830167ffffffffffffffff89116105e75788889761044060209b61043a855461227c565b856123ca565b8a90601f8311600114610552579261049d8361052e999794600897947f6605480140c3e48aa670705846435e8f492d1a17179ff2f4bcb70a54e1f8e7fc9c9a97600092610547575b50508160011b916000199060031b1c19161790565b90555b6001600160a01b036003840191166001600160a01b03198254161781556104c685612339565b80547fffffffffffffffffffffff00ffffffffffffffffffffffffffffffffffffffff74ff00000000000000000000000000000000000000008760a01b169116179055600782015501600160ff19825416179055604051928392604084526040840190612257565b9061053881612339565b878301520390a2604051908152f35b015190508f80610488565b90601f1983169184600052816000209260005b8181106105cd575093600896937f6605480140c3e48aa670705846435e8f492d1a17179ff2f4bcb70a54e1f8e7fc9b9996936001938361052e9d9b98106105b4575b505050811b0190556104a0565b015160001960f88460031b161c191690558e80806105a7565b8284015185558d9c50600190940193928e01928e01610565565b634e487b7160e01b600052604160045260246000fd5b90508701518b6103fa565b601f1982169083600052806000209160005b8181106106545750908360019493921061063b575b5050811b019055610411565b88015160001960f88460031b161c191690558a8061062f565b9192602060018192868d01518155019401920161061a565b606460405162461bcd60e51b815260206004820152601e60248201527f5574696c697a6174696f6e2063616e6e6f7420657863656564203130302500006044820152fd5b346101b05760203660031901126101b0576004358060005260006020526040600020906106e360ff600884015416612411565b6004820154916106f76006820154846124f5565b90811561082b579161271061070e600b54846124e2565b04600091600a85019160098601935b83548110156107b15760406001600160a01b0361073a838761245c565b90549060031b1c166001600160a01b03600091168152866020522060ff60048201541661076b575b5060010161071d565b6107768154886124e2565b60008a1561079d57509061079560028b6001959404920191825461248a565b905590610762565b80634e487b7160e01b602492526012600452fd5b506020610822828761081d7ff15d24813160f04af8b2e549aff724dc8300aba738beb549d61f81c6a566665e956001600160a01b0360038d0154166001600160a01b037f9016d09d72d40fdae2fd8ceac6b6234c7706214fd39c1cd1e609a0528c19930054169061280a565b6124f5565b604051908152a2005b606460405162461bcd60e51b815260206004820152601660248201527f4e6f2066756e647320746f2064697374726962757465000000000000000000006044820152fd5b346101b05760003660031901126101b0576108ce6040805190610892818361216f565b600582527f352e302e30000000000000000000000000000000000000000000000000000000602083015251918291602083526020830190612257565b0390f35b346101b05760203660031901126101b05760043560005260006020526020604060002080549060405161090c8161025b81600186016122b6565b604051916109218361027a81600285016122b6565b60038101549260ff8460a01c1660048301546005840154916001600160a01b0361098360068701549561097560ff600860078b01549a015416996101406040519e8f9e8f90815201526101408d0190612257565b908b820360408d0152612257565b9716606089015261099381612339565b608088015260a087015260c086015260e085015261010084015215156101208301520390f35b346101b05760003660031901126101b0576020600854604051908152f35b346101b05760203660031901126101b0576004356000526002602052604060002080546001820154916001600160a01b0360028201541660038201549160405192610a3084610a2981600486016122b6565b038561216f565b600582015493610a7d60ff60068501541691600785015493600a6008870154960154966040519a8b9a8b5260208b015260408a015260608901526101406080890152610140880190612257565b9460a0870152610a8c81612339565b60c086015260e08501526101008401526101208301520390f35b346101b05760203660031901126101b057610abf6125c1565b600435600052600060205260406000206001600160a01b0333166000526009810160205260026040600020610afa60ff600483015416612497565b01908154908115610b46576000610b2093556001600160a01b036003339201541661280a565b60017f9b779b17422d0df92223018b32b4d1fa46e071723d6817e2486d003becc55f0055005b606460405162461bcd60e51b815260206004820152601160248201527f4e6f2066756e647320746f20636c61696d0000000000000000000000000000006044820152fd5b346101b05760203660031901126101b057600435600052600160205260406000206001600160a01b0360028201541660038201549160ff60088201541690610c046005610be6600b8401549361025b60405180948193016122b6565b6040519586958652602086015260a0604086015260a0850190612257565b911515606084015260808301520390f35b346101b05760003660031901126101b05760206001600160a01b037f9016d09d72d40fdae2fd8ceac6b6234c7706214fd39c1cd1e609a0528c1993005416604051908152f35b346101b05760003660031901126101b0576020600554604051908152f35b346101b05760203660031901126101b057610c92612699565b600435600955005b346101b05760003660031901126101b05760206001600160a01b0360065416604051908152f35b346101b05760203660031901126101b0576001600160a01b03610ce2612208565b610cea612699565b166001600160a01b03196006541617600655600080f35b346101b05760c03660031901126101b05760043560243560443567ffffffffffffffff81116101b057610d389036906004016121ad565b9060643567ffffffffffffffff81116101b057610d599036906004016121ad565b926084359060a43593610d6a6125c1565b816000526000602052604060002092610d8960ff600886015416612411565b6001600160a01b03331660005260098401602052610db160ff60046040600020015416612497565b60038401549560ff8760a01c16600090610dca81612339565b8061112d575050670de0b6b3a7640000610dfa612710610dec60145b8a6124e2565b046301e133808404906124e2565b049660056064610e13600489015460078a0154906124e2565b04960195610e2288885461248a565b116110e95787610e3e9130906001600160a01b0333911661263a565b610e496004546123a4565b96876004558760005260016020526040600020948886556001860155600285016001600160a01b0333166001600160a01b0319825416179055866003860155600485015560058401835167ffffffffffffffff81116105e757610eb0816103d9845461227c565b6020601f8211600114611085579080610ede9260009161107a57508160011b916000199060031b1c19161790565b90555b60068401885167ffffffffffffffff81116105e757602099610f078261043a855461227c565b8a90601f83116001146110095792610f4283610f6094600b999794606499976000926105475750508160011b916000199060031b1c19161790565b90555b82600788015560088701600160ff198254161790554261248a565b6009860155610f9d60408a8151809482610f838184019889815193849201612234565b8201908c848301528482015203018b81018452018261216f565b51902006910155610faf82825461248a565b9055604051908152817f95b12f586a70e031f18e62742c53fbfce9f4f2951ed9686b8aab253fc7cc3996843393a360017f9b779b17422d0df92223018b32b4d1fa46e071723d6817e2486d003becc55f0055604051908152f35b90601f1983169184600052816000209260005b818110611063575093600b989693606498969360019383610f60981061104a575b505050811b019055610f45565b015160001960f88460031b161c191690558e808061103d565b92938e60018192878601518155019501930161101c565b90508601518c6103fa565b601f1982169083600052806000209160005b8181106110d1575090836001949392106110b8575b5050811b019055610ee1565b87015160001960f88460031b161c191690558b806110ac565b9192602060018192868c015181550194019201611097565b606460405162461bcd60e51b815260206004820152601560248201527f4578636565647320706f6f6c20636170616369747900000000000000000000006044820152fd5b61113681612339565b60018103611159575050670de0b6b3a7640000610dfa612710610dec6032610de6565b6002915061116681612339565b0361118457670de0b6b3a7640000610dfa612710610dec6064610de6565b670de0b6b3a7640000610dfa612710610dec60c8610de6565b346101b05760003660031901126101b0576111b6612699565b60006001600160a01b037f9016d09d72d40fdae2fd8ceac6b6234c7706214fd39c1cd1e609a0528c199300546001600160a01b031981167f9016d09d72d40fdae2fd8ceac6b6234c7706214fd39c1cd1e609a0528c19930055167f8be0079c531659141344cd1fd0a4f28419497f9722a3daafe3b4186f6b6457e08280a3005b346101b057611244366121f2565b6001600160a01b036006541633036113ba578160005260016020526040600020600881019161127660ff845416612359565b60078201546112966040518061128f81600688016122b6565b039061216f565b81101561129f57005b7f31efdfb091d69d90b8f5e89a6afad83b3f5127d358e1c15441167da89531b67b92611388600360209401546112d66005546123a4565b9081600555816000526002865260406000209082825588600183015588600052600187526001600160a01b03600260406000200154166001600160a01b036002840191166001600160a01b031982541617905560038201556004810161133c815461227c565b601f8111611399575b507f4175746f6d6174696320706172616d657472696320747269676765720000003890556064600582015560068101805460ff19169055426007909101556126fa565b805460ff19169055604051908152a2005b6113b49082600052601f89600020910160051c8101906123b3565b89611345565b606460405162461bcd60e51b815260206004820152602060248201527f4f6e6c79206f7261636c652063616e20657865637574652074726967676572736044820152fd5b346101b05760003660031901126101b0576020600a54604051908152f35b346101b05760003660031901126101b0576001600160a01b037f00000000000000000000000000000000000000000000000000000000000000001630036114875760206040517f360894a13ba1a3210667c828492db98dca3e2076cc3735a920a3ca505d382bbc8152f35b7fe07c8dba0000000000000000000000000000000000000000000000000000000060005260046000fd5b60403660031901126101b0576114c5612208565b60243567ffffffffffffffff81116101b0576114e59036906004016121ad565b6001600160a01b037f00000000000000000000000000000000000000000000000000000000000000001680301490811561171f575b5061148757611527612699565b6001600160a01b038216916040517f52d1902d000000000000000000000000000000000000000000000000000000008152602081600481875afa600091816116eb575b506115845783634c9c8ce360e01b60005260045260246000fd5b807f360894a13ba1a3210667c828492db98dca3e2076cc3735a920a3ca505d382bbc8592036116be5750813b156116aa57806001600160a01b03197f360894a13ba1a3210667c828492db98dca3e2076cc3735a920a3ca505d382bbc5416177f360894a13ba1a3210667c828492db98dca3e2076cc3735a920a3ca505d382bbc557fbc7cd75a20ee27fd9adebab32041f755214dbc6bffa90cc0225b39da2e5c2d3b600080a2815115611677576000808360206101de95519101845af43d1561166f573d9161165283612191565b92611660604051948561216f565b83523d6000602085013e612930565b606091612930565b50503461168057005b7fb398979f0000000000000000000000000000000000000000000000000000000060005260046000fd5b634c9c8ce360e01b60005260045260246000fd5b7faa1d49a40000000000000000000000000000000000000000000000000000000060005260045260246000fd5b9091506020813d602011611717575b816117076020938361216f565b810103126101b05751908561156a565b3d91506116fa565b90506001600160a01b037f360894a13ba1a3210667c828492db98dca3e2076cc3735a920a3ca505d382bbc541614158361151a565b346101b05760403660031901126101b05761176d612208565b61177561221e565b907ff0c57e16840df040f15088dc2f81fe391c3923bec73e23a9662efc9c229c6a00549160ff8360401c16159267ffffffffffffffff811680159081611988575b600114908161197e575b159081611975575b5061194b5767ffffffffffffffff1981166001177ff0c57e16840df040f15088dc2f81fe391c3923bec73e23a9662efc9c229c6a00556001600160a01b039283918561190c575b506118186128d7565b6118206128d7565b61182933612502565b6118316128d7565b6118396128d7565b60017f9b779b17422d0df92223018b32b4d1fa46e071723d6817e2486d003becc55f00556118656128d7565b166001600160a01b03196006541617600655166001600160a01b0319600754161760075561188f57005b68ff0000000000000000197ff0c57e16840df040f15088dc2f81fe391c3923bec73e23a9662efc9c229c6a0054167ff0c57e16840df040f15088dc2f81fe391c3923bec73e23a9662efc9c229c6a00557fc7f505b2f371ae2175ee4913f4499e1f2633a7b5936321eed1cdaeb6115181d2602060405160018152a1005b68ffffffffffffffffff191668010000000000000001177ff0c57e16840df040f15088dc2f81fe391c3923bec73e23a9662efc9c229c6a00558561180f565b7ff92ee8a90000000000000000000000000000000000000000000000000000000060005260046000fd5b905015856117c8565b303b1591506117c0565b8591506117b6565b346101b05760203660031901126101b0576119a9612699565b600435600855005b346101b05760203660031901126101b057600435806000526002602052604060002060ff6006820154166119e481612339565b611af557600981016001600160a01b0333166000528060205260ff60406000205416611ab15760018201546000526001602052600160406000200154600052600060205260096040600020016001600160a01b033316600052602052611a5460ff60046040600020015416612497565b6001600160a01b0333166000526020526040600020600160ff19825416179055600a8101611a8281546123a4565b80915560095411159081611aa1575b50611a9857005b6101de906126fa565b6050915060050154101582611a91565b606460405162461bcd60e51b815260206004820152601060248201527f416c726561647920617070726f766564000000000000000000000000000000006044820152fd5b606460405162461bcd60e51b815260206004820152601160248201527f436c61696d206e6f742070656e64696e670000000000000000000000000000006044820152fd5b346101b05760003660031901126101b05760206001600160a01b0360075416604051908152f35b346101b05760203660031901126101b0576004356000526000602052611bce600160406000206004810154906005810154600a82015490611bba60ff60088501541693611bb360405180988193016122b6565b038661216f565b60405195869560a0875260a0870190612257565b93602086015260408501526060840152151560808301520390f35b346101b05760003660031901126101b0576020600b54604051908152f35b346101b05760403660031901126101b05760806040611c2461221e565b6004356000526000602052600982600020016001600160a01b036000921682526020522080549060018101549060ff6004600283015492015416916040519384526020840152604083015215156060820152f35b346101b05760003660031901126101b0576020600954604051908152f35b346101b05760203660031901126101b0576001600160a01b03611cb7612208565b611cbf612699565b166001600160a01b03196007541617600755600080f35b346101b057611ce4366121f2565b90611ced6125c1565b8060005260006020526040600020611d0b60ff600883015416612411565b6008548310611e2357611d2f836001600160a01b036003840154163090339061263a565b604060006001600160a01b03331681526009830160205220906004820160ff81541615611dd8575b82611d65866004955461248a565b8155600342910155600160ff1982541617905501611d8483825461248a565b90556040519182527ff4f82575ee84a81aac4be52b6a368e9ba9df524b4f5cf8177d7cfbabe861820c60203393a360017f9b779b17422d0df92223018b32b4d1fa46e071723d6817e2486d003becc55f0055005b600a820192835493680100000000000000008510156105e75784611e0391600160049701815561245c565b81549060031b906001600160a01b0333831b921b19161790559250611d57565b606460405162461bcd60e51b815260206004820152601a60248201527f436f6e747269627574696f6e2062656c6f77206d696e696d756d0000000000006044820152fd5b346101b05760603660031901126101b05760043560243560443567ffffffffffffffff81116101b057611e9e9036906004016121ad565b9180600052600160205260406000206001600160a01b03600282015416330361212b57611ed160ff600883015416612359565b600981015442116120e7576003015482116120a357611ef16005546123a4565b9182600555826000526002602052604060002093838555826001860155600285016001600160a01b0333166001600160a01b031982541617905581600386015560048501815167ffffffffffffffff81116105e757611f54816103d9845461227c565b6020601f821160011461203b5781601e949392611f869260009161203057508160011b916000199060031b1c19161790565b90555b6006860160ff198154169055426007870155604051611fd06040826020810194888652611fbf8151809260208686019101612234565b81010301601f19810183528261216f565b519020066046018060461161201a57602084927fcf394f7701f2b1dae6f328cbc70c1f155122b124431f95bbf4a483bba685455592600583980155604051908152a3604051908152f35b634e487b7160e01b600052601160045260246000fd5b90508401518a6103fa565b601f1982169083600052806000209160005b81811061208b5750918391601e96959460019410612072575b5050811b019055611f89565b85015160001960f88460031b161c191690558980612066565b9192602060018192868a01518155019401920161204d565b606460405162461bcd60e51b815260206004820152601660248201527f436c61696d206578636565647320636f766572616765000000000000000000006044820152fd5b606460405162461bcd60e51b815260206004820152600e60248201527f506f6c69637920657870697265640000000000000000000000000000000000006044820152fd5b606460405162461bcd60e51b815260206004820152601160248201527f4e6f7420706f6c69637920686f6c6465720000000000000000000000000000006044820152fd5b90601f8019910116810190811067ffffffffffffffff8211176105e757604052565b67ffffffffffffffff81116105e757601f01601f191660200190565b81601f820112156101b0576020813591016121c782612191565b926121d5604051948561216f565b828452828201116101b05781600092602092838601378301015290565b60409060031901126101b0576004359060243590565b600435906001600160a01b03821682036101b057565b602435906001600160a01b03821682036101b057565b60005b8381106122475750506000910152565b8181015183820152602001612237565b9060209161227081518092818552858086019101612234565b601f01601f1916010190565b90600182811c921680156122ac575b602083101461229657565b634e487b7160e01b600052602260045260246000fd5b91607f169161228b565b600092918154916122c68361227c565b808352926001811690811561231c57506001146122e257505050565b60009081526020812093945091925b838310612302575060209250010190565b6001816020929493945483858701015201910191906122f1565b915050602093945060ff929192191683830152151560051b010190565b6004111561234357565b634e487b7160e01b600052602160045260246000fd5b1561236057565b606460405162461bcd60e51b815260206004820152601160248201527f506f6c696379206e6f74206163746976650000000000000000000000000000006044820152fd5b600019811461201a5760010190565b8181106123be575050565b600081556001016123b3565b9190601f81116123d957505050565b612405926000526020600020906020601f840160051c83019310612407575b601f0160051c01906123b3565b565b90915081906123f8565b1561241857565b606460405162461bcd60e51b815260206004820152600f60248201527f506f6f6c206e6f742061637469766500000000000000000000000000000000006044820152fd5b80548210156124745760005260206000200190600090565b634e487b7160e01b600052603260045260246000fd5b9190820180921161201a57565b1561249e57565b606460405162461bcd60e51b815260206004820152601160248201527f4e6f74206120706f6f6c206d656d6265720000000000000000000000000000006044820152fd5b8181029291811591840414171561201a57565b9190820391821161201a57565b6001600160a01b03168015612592576001600160a01b037f9016d09d72d40fdae2fd8ceac6b6234c7706214fd39c1cd1e609a0528c19930054826001600160a01b03198216177f9016d09d72d40fdae2fd8ceac6b6234c7706214fd39c1cd1e609a0528c19930055167f8be0079c531659141344cd1fd0a4f28419497f9722a3daafe3b4186f6b6457e0600080a3565b7f1e4fbdf700000000000000000000000000000000000000000000000000000000600052600060045260246000fd5b60027f9b779b17422d0df92223018b32b4d1fa46e071723d6817e2486d003becc55f0054146126105760027f9b779b17422d0df92223018b32b4d1fa46e071723d6817e2486d003becc55f0055565b7f3ee5aeb50000000000000000000000000000000000000000000000000000000060005260046000fd5b9091926001600160a01b036124059481604051957f23b872dd00000000000000000000000000000000000000000000000000000000602088015216602486015216604484015260648301526064825261269460848361216f565b61285a565b6001600160a01b037f9016d09d72d40fdae2fd8ceac6b6234c7706214fd39c1cd1e609a0528c199300541633036126cc57565b7f118cdaa7000000000000000000000000000000000000000000000000000000006000523360045260246000fd5b600081815260026020908152604080832060018082015485528084528285209081015485529284905292209060068301805460ff19166001179055426008840155600482015491600384019384548094106127c657600a93612771916001600160a01b03600281600387015416920154169061280a565b61278260068554920191825461248a565b905501805460ff1916600317905554604051908160409160017f131884885e3b15c22fcaa4e2b49df807c03ab9e54bc149f6447e3c9166ce881494526020820152a2565b606460405162461bcd60e51b815260206004820152601760248201527f496e73756666696369656e7420706f6f6c2066756e64730000000000000000006044820152fd5b612405926001600160a01b03604051937fa9059cbb00000000000000000000000000000000000000000000000000000000602086015216602484015260448301526044825261269460648361216f565b906000602091828151910182855af1156128cb576000513d6128c257506001600160a01b0381163b155b61288b5750565b6001600160a01b03907f5274afe7000000000000000000000000000000000000000000000000000000006000521660045260246000fd5b60011415612884565b6040513d6000823e3d90fd5b60ff7ff0c57e16840df040f15088dc2f81fe391c3923bec73e23a9662efc9c229c6a005460401c161561290657565b7fd7e6bcf80000000000000000000000000000000000000000000000000000000060005260046000fd5b9061296f575080511561294557602081519101fd5b7fd6bda2750000000000000000000000000000000000000000000000000000000060005260046000fd5b815115806129b7575b612980575090565b6001600160a01b03907f9996b315000000000000000000000000000000000000000000000000000000006000521660045260246000fd5b50803b1561297856fea2646970667358221220e4287f414fe66d93258fc11e4923bf9b176f180c5dba35c0998d376af8532f2164736f6c634300081c0033",
  "linkReferences": {},
  "deployedLinkReferences": {}
}