{
  "_format": "hh-sol-artifact-1",
  "contractName": "AIPredictor",
  "sourceName": "contracts/AIPredictor.sol",
  "abi": [
    {
      "inputs": [
        {
          "internalType": "address",
          "name": "target",
          "type": "address"
        }
      ],
      "name": "AddressEmptyCode",
      "type": "error"
    },
    {
      "inputs": [
        {
          "internalType": "address",
          "name": "implementation",
          "type": "address"
        }
      ],
      "name": "ERC1967InvalidImplementation",
      "type": "error"
    },
    {
      "inputs": [],
      "name": "ERC1967NonPayable",
      "type": "error"
    },
    {
      "inputs": [],
      "name": "FailedCall",
      "type": "error"
    },
    {
      "inputs": [],
      "name": "InvalidInitialization",
      "type": "error"
    },
    {
      "inputs": [],
      "name": "NotInitializing",
      "type": "error"
    },
    {
      "inputs": [
        {
          "internalType": "address",
          "name": "owner",
          "type": "address"
        }
      ],
      "name": "OwnableInvalidOwner",
      "type": "error"
    },
    {
      "inputs": [
        {
          "internalType": "address",
          "name": "account",
          "type": "address"
        }
      ],
      "name": "OwnableUnauthorizedAccount",
      "type": "error"
    },
    {
      "inputs": [],
      "name": "ReentrancyGuardReentrantCall",
      "type": "error"
    },
    {
      "inputs": [],
      "name": "UUPSUnauthorizedCallContext",
      "type": "error"
    },
    {
      "inputs": [
        {
          "internalType": "bytes32",
          "name": "slot",
          "type": "bytes32"
        }
      ],
      "name": "UUPSUnsupportedProxiableUUID",
      "type": "error"
    },
    {
      "anonymous": false,
      "inputs": [
        {
          "indexed": true,
          "internalType": "bytes32",
          "name": "modelId",
          "type": "bytes32"
        },
        {
          "indexed": false,
          "internalType": "string",
          "name": "name",
          "type": "string"
        },
        {
          "indexed": false,
          "internalType": "address",
          "name": "maintainer",
          "type": "address"
        }
      ],
      "name": "AIModelRegistered",
      "type": "event"
    },
    {
      "anonymous": false,
      "inputs": [
        {
          "indexed": false,
          "internalType": "uint64",
          "name": "version",
          "type": "uint64"
        }
      ],
      "name": "Initialized",
      "type": "event"
    },
    {
      "anonymous": false,
      "inputs": [
        {
          "indexed": true,
          "internalType": "bytes32",
          "name": "modelId",
          "type": "bytes32"
        },
        {
          "indexed": false,
          "internalType": "uint256",
          "name": "accuracy",
          "type": "uint256"
        }
      ],
      "name": "ModelAccuracyUpdated",
      "type": "event"
    },
    {
      "anonymous": false,
      "inputs": [
        {
          "indexed": true,
          "internalType": "address",
          "name": "previousOwner",
          "type": "address"
        },
        {
          "indexed": true,
          "internalType": "address",
          "name": "newOwner",
          "type": "address"
        }
      ],
      "name": "OwnershipTransferred",
      "type": "event"
    },
    {
      "anonymous": false,
      "inputs": [
        {
          "indexed": true,
          "internalType": "uint256",
          "name": "predictionId",
          "type": "uint256"
        },
        {
          "indexed": true,
          "internalType": "address",
          "name": "user",
          "type": "address"
        },
        {
          "indexed": false,
          "internalType": "string",
          "name": "dataType",
          "type": "string"
        },
        {
          "indexed": false,
          "internalType": "int256",
          "name": "prediction",
          "type": "int256"
        }
      ],
      "name": "PredictionMade",
      "type": "event"
    },
    {
      "anonymous": false,
      "inputs": [
        {
          "indexed": true,
          "internalType": "address",
          "name": "user",
          "type": "address"
        },
        {
          "indexed": false,
          "internalType": "uint256",
          "name": "creditScore",
          "type": "uint256"
        },
        {
          "indexed": false,
          "internalType": "uint256",
          "name": "riskLevel",
          "type": "uint256"
        }
      ],
      "name": "RiskProfileUpdated",
      "type": "event"
    },
    {
      "anonymous": false,
      "inputs": [
        {
          "indexed": true,
          "internalType": "address",
          "name": "implementation",
          "type": "address"
        }
      ],
      "name": "Upgraded",
      "type": "event"
    },
    {
      "inputs": [],
      "name": "UPGRADE_INTERFACE_VERSION",
      "outputs": [
        {
          "internalType": "string",
          "name": "",
          "type": "string"
        }
      ],
      "stateMutability": "view",
      "type": "function"
    },
    {
      "inputs": [
        {
          "internalType": "uint256",
          "name": "",
          "type": "uint256"
        }
      ],
      "name": "activeModels",
      "outputs": [
        {
          "internalType": "bytes32",
          "name": "",
          "type": "bytes32"
        }
      ],
      "stateMutability": "view",
      "type": "function"
    },
    {
      "inputs": [
        {
          "internalType": "bytes32",
          "name": "",
          "type": "bytes32"
        }
      ],
      "name": "aiModels",
      "outputs": [
        {
          "internalType": "string",
          "name": "name",
          "type": "string"
        },
        {
          "internalType": "string",
          "name": "version",
          "type": "string"
        },
        {
          "internalType": "bytes32",
          "name": "modelHash",
          "type": "bytes32"
        },
        {
          "internalType": "uint256",
          "name": "accuracy",
          "type": "uint256"
        },
        {
          "internalType": "uint256",
          "name": "lastUpdated",
          "type": "uint256"
        },
        {
          "internalType": "bool",
          "name": "active",
          "type": "bool"
        },
        {
          "internalType": "address",
          "name": "maintainer",
          "type": "address"
        }
      ],
      "stateMutability": "view",
      "type": "function"
    },
    {
      "inputs": [
        {
          "internalType": "address",
          "name": "_user",
          "type": "address"
        },
        {
          "internalType": "string",
          "name": "_riskType",
          "type": "string"
        }
      ],
      "name": "assessRisk",
      "outputs": [
        {
          "internalType": "uint256",
          "name": "",
          "type": "uint256"
        }
      ],
      "stateMutability": "nonpayable",
      "type": "function"
    },
    {
      "inputs": [
        {
          "internalType": "address",
          "name": "",
          "type": "address"
        }
      ],
      "name": "authorizedModels",
      "outputs": [
        {
          "internalType": "bool",
          "name": "",
          "type": "bool"
        }
      ],
      "stateMutability": "view",
      "type": "function"
    },
    {
      "inputs": [
        {
          "internalType": "bytes32",
          "name": "_modelId",
          "type": "bytes32"
        }
      ],
      "name": "getAIModel",
      "outputs": [
        {
          "components": [
            {
              "internalType": "string",
              "name": "name",
              "type": "string"
            },
            {
              "internalType": "string",
              "name": "version",
              "type": "string"
            },
            {
              "internalType": "bytes32",
              "name": "modelHash",
              "type": "bytes32"
            },
            {
              "internalType": "uint256",
              "name": "accuracy",
              "type": "uint256"
            },
            {
              "internalType": "uint256",
              "name": "lastUpdated",
              "type": "uint256"
            },
            {
              "internalType": "bool",
              "name": "active",
              "type": "bool"
            },
            {
              "internalType": "address",
              "name": "maintainer",
              "type": "address"
            }
          ],
          "internalType": "struct AIPredictor.AIModel",
          "name": "",
          "type": "tuple"
        }
      ],
      "stateMutability": "view",
      "type": "function"
    },
    {
      "inputs": [],
      "name": "getActiveModels",
      "outputs": [
        {
          "internalType": "bytes32[]",
          "name": "",
          "type": "bytes32[]"
        }
      ],
      "stateMutability": "view",
      "type": "function"
    },
    {
      "inputs": [
        {
          "internalType": "uint256",
          "name": "_predictionId",
          "type": "uint256"
        }
      ],
      "name": "getPrediction",
      "outputs": [
        {
          "components": [
            {
              "internalType": "uint256",
              "name": "id",
              "type": "uint256"
            },
            {
              "internalType": "address",
              "name": "user",
              "type": "address"
            },
            {
              "internalType": "string",
              "name": "dataType",
              "type": "string"
            },
            {
              "internalType": "bytes",
              "name": "inputData",
              "type": "bytes"
            },
            {
              "internalType": "int256",
              "name": "prediction",
              "type": "int256"
            },
            {
              "internalType": "uint256",
              "name": "confidence",
              "type": "uint256"
            },
            {
              "internalType": "uint256",
              "name": "timestamp",
              "type": "uint256"
            },
            {
              "internalType": "address",
              "name": "modelUsed",
              "type": "address"
            },
            {
              "internalType": "bool",
              "name": "verified",
              "type": "bool"
            }
          ],
          "internalType": "struct AIPredictor.Prediction",
          "name": "",
          "type": "tuple"
        }
      ],
      "stateMutability": "view",
      "type": "function"
    },
    {
      "inputs": [
        {
          "internalType": "address",
          "name": "_user",
          "type": "address"
        },
        {
          "internalType": "string",
          "name": "_factor",
          "type": "string"
        }
      ],
      "name": "getRiskFactor",
      "outputs": [
        {
          "internalType": "int256",
          "name": "",
          "type": "int256"
        }
      ],
      "stateMutability": "view",
      "type": "function"
    },
    {
      "inputs": [
        {
          "internalType": "address",
          "name": "_user",
          "type": "address"
        }
      ],
      "name": "getRiskProfile",
      "outputs": [
        {
          "internalType": "uint256",
          "name": "creditScore",
          "type": "uint256"
        },
        {
          "internalType": "uint256",
          "name": "riskLevel",
          "type": "uint256"
        },
        {
          "internalType": "uint256",
          "name": "lastAssessment",
          "type": "uint256"
        },
        {
          "internalType": "uint256",
          "name": "predictionCount",
          "type": "uint256"
        }
      ],
      "stateMutability": "view",
      "type": "function"
    },
    {
      "inputs": [
        {
          "internalType": "address",
          "name": "_oracle",
          "type": "address"
        }
      ],
      "name": "initialize",
      "outputs": [],
      "stateMutability": "nonpayable",
      "type": "function"
    },
    {
      "inputs": [],
      "name": "minModelAccuracy",
      "outputs": [
        {
          "internalType": "uint256",
          "name": "",
          "type": "uint256"
        }
      ],
      "stateMutability": "view",
      "type": "function"
    },
    {
      "inputs": [],
      "name": "nextPredictionId",
      "outputs": [
        {
          "internalType": "uint256",
          "name": "",
          "type": "uint256"
        }
      ],
      "stateMutability": "view",
      "type": "function"
    },
    {
      "inputs": [],
      "name": "oracle",
      "outputs": [
        {
          "internalType": "contract DecentralizedOracle",
          "name": "",
          "type": "address"
        }
      ],
      "stateMutability": "view",
      "type": "function"
    },
    {
      "inputs": [],
      "name": "owner",
      "outputs": [
        {
          "internalType": "address",
          "name": "",
          "type": "address"
        }
      ],
      "stateMutability": "view",
      "type": "function"
    },
    {
      "inputs": [
        {
          "internalType": "address",
          "name": "_user",
          "type": "address"
        },
        {
          "internalType": "bytes",
          "name": "_userData",
          "type": "bytes"
        }
      ],
      "name": "predictCreditScore",
      "outputs": [
        {
          "internalType": "uint256",
          "name": "",
          "type": "uint256"
        }
      ],
      "stateMutability": "payable",
      "type": "function"
    },
    {
      "inputs": [
        {
          "internalType": "uint256",
          "name": "_farmSize",
          "type": "uint256"
        },
        {
          "internalType": "string",
          "name": "_cropType",
          "type": "string"
        },
        {
          "internalType": "string",
          "name": "_location",
          "type": "string"
        },
        {
          "internalType": "uint256",
          "name": "_plantingDate",
          "type": "uint256"
        }
      ],
      "name": "predictYield",
      "outputs": [
        {
          "internalType": "uint256",
          "name": "",
          "type": "uint256"
        }
      ],
      "stateMutability": "payable",
      "type": "function"
    },
    {
      "inputs": [],
      "name": "predictionFee",
      "outputs": [
        {
          "internalType": "uint256",
          "name": "",
          "type": "uint256"
        }
      ],
      "stateMutability": "view",
      "type": "function"
    },
    {
      "inputs": [
        {
          "internalType": "uint256",
          "name": "",
          "type": "uint256"
        }
      ],
      "name": "predictions",
      "outputs": [
        {
          "internalType": "uint256",
          "name": "id",
          "type": "uint256"
        },
        {
          "internalType": "address",
          "name": "user",
          "type": "address"
        },
        {
          "internalType": "string",
          "name": "dataType",
          "type": "string"
        },
        {
          "internalType": "bytes",
          "name": "inputData",
          "type": "bytes"
        },
        {
          "internalType": "int256",
          "name": "prediction",
          "type": "int256"
        },
        {
          "internalType": "uint256",
          "name": "confidence",
          "type": "uint256"
        },
        {
          "internalType": "uint256",
          "name": "timestamp",
          "type": "uint256"
        },
        {
          "internalType": "address",
          "name": "modelUsed",
          "type": "address"
        },
        {
          "internalType": "bool",
          "name": "verified",
          "type": "bool"
        }
      ],
      "stateMutability": "view",
      "type": "function"
    },
    {
      "inputs": [],
      "name": "proxiableUUID",
      "outputs": [
        {
          "internalType": "bytes32",
          "name": "",
          "type": "bytes32"
        }
      ],
      "stateMutability": "view",
      "type": "function"
    },
    {
      "inputs": [
        {
          "internalType": "string",
          "name": "_name",
          "type": "string"
        },
        {
          "internalType": "string",
          "name": "_version",
          "type": "string"
        },
        {
          "internalType": "bytes32",
          "name": "_modelHash",
          "type": "bytes32"
        },
        {
          "internalType": "uint256",
          "name": "_accuracy",
          "type": "uint256"
        }
      ],
      "name": "registerAIModel",
      "outputs": [
        {
          "internalType": "bytes32",
          "name": "",
          "type": "bytes32"
        }
      ],
      "stateMutability": "nonpayable",
      "type": "function"
    },
    {
      "inputs": [],
      "name": "renounceOwnership",
      "outputs": [],
      "stateMutability": "nonpayable",
      "type": "function"
    },
    {
      "inputs": [
        {
          "internalType": "address",
          "name": "",
          "type": "address"
        },
        {
          "internalType": "string",
          "name": "",
          "type": "string"
        }
      ],
      "name": "riskFactors",
      "outputs": [
        {
          "internalType": "int256",
          "name": "",
          "type": "int256"
        }
      ],
      "stateMutability": "view",
      "type": "function"
    },
    {
      "inputs": [
        {
          "internalType": "address",
          "name": "",
          "type": "address"
        }
      ],
      "name": "riskProfiles",
      "outputs": [
        {
          "internalType": "address",
          "name": "user",
          "type": "address"
        },
        {
          "internalType": "uint256",
          "name": "creditScore",
          "type": "uint256"
        },
        {
          "internalType": "uint256",
          "name": "riskLevel",
          "type": "uint256"
        },
        {
          "internalType": "uint256",
          "name": "lastAssessment",
          "type": "uint256"
        },
        {
          "internalType": "uint256",
          "name": "predictionCount",
          "type": "uint256"
        }
      ],
      "stateMutability": "view",
      "type": "function"
    },
    {
      "inputs": [],
      "name": "riskUpdateInterval",
      "outputs": [
        {
          "internalType": "uint256",
          "name": "",
          "type": "uint256"
        }
      ],
      "stateMutability": "view",
      "type": "function"
    },
    {
      "inputs": [
        {
          "internalType": "bytes32",
          "name": "_modelId",
          "type": "bytes32"
        },
        {
          "internalType": "bool",
          "name": "_active",
          "type": "bool"
        }
      ],
      "name": "toggleModel",
      "outputs": [],
      "stateMutability": "nonpayable",
      "type": "function"
    },
    {
      "inputs": [
        {
          "internalType": "address",
          "name": "newOwner",
          "type": "address"
        }
      ],
      "name": "transferOwnership",
      "outputs": [],
      "stateMutability": "nonpayable",
      "type": "function"
    },
    {
      "inputs": [
        {
          "internalType": "bytes32",
          "name": "_modelId",
          "type": "bytes32"
        },
        {
          "internalType": "uint256",
          "name": "_newAccuracy",
          "type": "uint256"
        }
      ],
      "name": "updateModelAccuracy",
      "outputs": [],
      "stateMutability": "nonpayable",
      "type": "function"
    },
    {
      "inputs": [
        {
          "internalType": "uint256",
          "name": "_minModelAccuracy",
          "type": "uint256"
        },
        {
          "internalType": "uint256",
          "name": "_predictionFee",
          "type": "uint256"
        },
        {
          "internalType": "uint256",
          "name": "_riskUpdateInterval",
          "type": "uint256"
        }
      ],
      "name": "updateParameters",
      "outputs": [],
      "stateMutability": "nonpayable",
      "type": "function"
    },
    {
      "inputs": [
        {
          "internalType": "address",
          "name": "newImplementation",
          "type": "address"
        },
        {
          "internalType": "bytes",
          "name": "data",
          "type": "bytes"
        }
      ],
      "name": "upgradeToAndCall",
      "outputs": [],
      "stateMutability": "payable",
      "type": "function"
    },
    {
      "inputs": [],
      "name": "withdrawFees",
      "outputs": [],
      "stateMutability": "nonpayable",
      "type": "function"
    },
    {
      "stateMutability": "payable",
      "type": "receive"
    }
  ],
  "bytecode": "0x60a080604052346045573060805260016006556046600855662386f26fc1000060095562278d00600a55613365908161004b8239608051818181611f670152611ff40152f35b600080fdfe608080604052600436101561001d575b50361561001b57600080fd5b005b60003560e01c9081624fbbb0146127d8575080631f096c04146122db578063357e6e57146122bd578063476343ee146122595780634f1ef28614611fe157806352d1902d14611f4c57806355b8bb1b14611f2e5780635d9346bf14611b375780636cf537f8146119f55780636fc06084146119d7578063715018a61461193e57806373300b6c1461051357806378bd23c2146117605780637dc0d1d01461173957806388adc8fd146116755780638da5cb5b1461162f5780638e8690bf146115f75780639948b18d14611588578063aa8f3c7b14611083578063ad3cb1cc14611020578063b351e036146107df578063baf1e57f14610780578063c4d66de814610562578063cf24284414610513578063d13413df14610475578063d8d9292e14610457578063eb91797a14610418578063f2fde38b146103ef578063f76d50ad146103c2578063fd0875d8146103065763fe83bece1461017e573861000f565b346103015760203660031901126103015760006101006040516101a081612971565b828152826020820152606060408201526060808201528260808201528260a08201528260c08201528260e08201520152600435600052600360205260206040600020604051906101ef82612971565b805482526101006001600160a01b03838160018501541693868201948552604051946102298661022281600286016128ee565b03876129aa565b604083019586526102d960405161024e8161024781600388016128ee565b03826129aa565b606085019081526102c660048501549860808701998a528760058701549560a0890196875260ff600760068a01549960c08c019a8b5201549b8a8460e08f9d019c168c52019b60a01c1615158b526040518e819f9e829f835251910152511660408c01525161012060608c01526101408b01906129ef565b9051898203601f190160808b01526129ef565b955160a08801525160c08701525160e086015251166101008401525115156101208301520390f35b600080fd5b3461030157602036600319011261030157600435600052600060205261038c6040600020604051906103438261033c81846128ee565b03836129aa565b6001600160a01b0360405161035f8161024781600187016128ee565b600283015492600381015461039a600560048401549301549360405198899860e08a5260e08a01906129ef565b9088820360208a01526129ef565b9460408701526060860152608085015260ff8116151560a085015260081c1660c08301520390f35b34610301576060366003190112610301576103db612fe3565b600435600855602435600955604435600a55005b346103015760203660031901126103015761001b61040b612a14565b610413612fe3565b612d83565b34610301576020366003190112610301576001600160a01b03610439612a14565b166000526001602052602060ff604060002054166040519015158152f35b34610301576000366003190112610301576020600654604051908152f35b346103015760003660031901126103015760405160025490818152602081018092600260005260206000209060005b8181106104fd57505050816104ba9103826129aa565b6040519182916020830190602084525180915260408301919060005b8181106104e4575050500390f35b82518452859450602093840193909201916001016104d6565b82548452602090930192600192830192016104a4565b34610301576020610550816001600160a01b0361052f36612aec565b911660005260058252604060002082604051948386809551938492016129cc565b82019081520301902054604051908152f35b346103015760203660031901126103015761057b612a14565b7ff0c57e16840df040f15088dc2f81fe391c3923bec73e23a9662efc9c229c6a005460ff8160401c16159167ffffffffffffffff821680159081610778575b600114908161076e575b159081610765575b5061073b5767ffffffffffffffff1982166001177ff0c57e16840df040f15088dc2f81fe391c3923bec73e23a9662efc9c229c6a00556001600160a01b0391836106fc575b5061061a613246565b610622613246565b61062b33612d83565b610633613246565b61063b613246565b60017f9b779b17422d0df92223018b32b4d1fa46e071723d6817e2486d003becc55f0055610667613246565b166001600160a01b0319600754161760075561067f57005b68ff0000000000000000197ff0c57e16840df040f15088dc2f81fe391c3923bec73e23a9662efc9c229c6a0054167ff0c57e16840df040f15088dc2f81fe391c3923bec73e23a9662efc9c229c6a00557fc7f505b2f371ae2175ee4913f4499e1f2633a7b5936321eed1cdaeb6115181d2602060405160018152a1005b68ffffffffffffffffff191668010000000000000001177ff0c57e16840df040f15088dc2f81fe391c3923bec73e23a9662efc9c229c6a005583610611565b7ff92ee8a90000000000000000000000000000000000000000000000000000000060005260046000fd5b905015846105cc565b303b1591506105c4565b8491506105ba565b34610301576020366003190112610301576001600160a01b036107a1612a14565b166000526004602052608060406000206001810154906002810154906004600382015491015491604051938452602084015260408301526060820152f35b34610301576107ed36612aec565b6001600160a01b0382166000526004602052610814600360406000200154600a5490612d76565b421015610c8b575b6006549061082982612bed565b6006556001600160a01b0383166000526005602052604060002060206040518092845161085981848689016129cc565b8201908152030190205490604051907f7269736b5f6173736573736d656e745f0000000000000000000000000000000060208301526108b760308383516108a681848401602088016129cc565b81010301601f1981018452836129aa565b604051946001600160a01b03811660208701526040808701526108ef866108e160608201856129ef565b03601f1981018852876129aa565b604051926108fc84612971565b85845260208401966001600160a01b0383168852604085019182526060850152846080850152605560a08501524260c08501523060e085015260016101008501528560005260036020526001600160a01b036040600020978551895551166001600160a01b036001890191166001600160a01b03198254161790555180519067ffffffffffffffff8211610bf9576109a48261099b60028b01546128b4565b60028b01612bfc565b602090601f8311600114610c1a576109d5929160009183610c0f575b50508160011b916000199060031b1c19161790565b60028701555b60608301519283519667ffffffffffffffff8811610bf957878795610a1260209a610a0960038601546128b4565b60038601612bfc565b8990601f8311600114610b535760076001600160a01b0394610a7785610b3699967f77ca097acc32ebdac0e189a29a011d2371843e4ee2e20d134266166e0430740e9b999661010096600092610b485750508160011b916000199060031b1c19161790565b60038201555b6080840151600482015560a0840151600582015560c084015160068201550191848060e083015116166001600160a01b03198454161783550151151560ff60a01b1960ff60a01b83549260a01b169116179055610b22603060405180957f7269736b5f6173736573736d656e745f000000000000000000000000000000008d830152610b11815180928f86860191016129cc565b81010301601f1981018552846129aa565b6040519384936040855260408501906129ef565b968984015216940390a3604051908152f35b0151905038806109c0565b9060038401600052806000209160005b601f1985168110610bdf57506001600160a01b03946001857f77ca097acc32ebdac0e189a29a011d2371843e4ee2e20d134266166e0430740e9a989561010095600795610b369c99601f19811610610bc6575b505050811b016003820155610a7d565b015160001960f88460031b161c191690558f8080610bb6565b8183015184558b9950600190930192918c01918c01610b63565b634e487b7160e01b600052604160045260246000fd5b0151905089806109c0565b91906002890160005280600020906000935b601f1984168510610c70576001945083601f19811610610c57575b505050811b0160028701556109db565b015160001960f88460031b161c19169055888080610c47565b81810151835560209485019460019093019290910190610c2c565b6001600160a01b03821660005260046020526040600020610cab836131a8565b6001600160a01b0384166000526005602052602c6040600020604051907f6c6f616e5f64656661756c7400000000000000000000000000000000000000008252600c820152205560e460606001600160a01b0360075416604051928380926352ee0b7760e01b825260006004830152846024830152600b60648301527f757365725f726567696f6e000000000000000000000000000000000000000000608483015260a06044830152600f60a48301527f7269736b5f6173736573736d656e74000000000000000000000000000000000060c48301525afa908115610fd257600091610fff575b506001600160a01b0384166000526005602052602c6064604060002092604051937f63726f705f6661696c75726500000000000000000000000000000000000000008552600c8501520691205560e460606001600160a01b0360075416604051928380926352ee0b7760e01b825260036004830152846024830152601860648301527f6167726963756c747572616c5f636f6d6d6f6469746965730000000000000000608483015260a06044830152600a60a48301527f766f6c6174696c6974790000000000000000000000000000000000000000000060c48301525afa908115610fd257600091610fde575b506001600160a01b038416600052600560205260316064604060002092604051937f6d61726b65745f766f6c6174696c697479000000000000000000000000000000855260118501520691205560e460606001600160a01b0360075416604051928380926352ee0b7760e01b8252600480830152846024830152600c60648301527f6661726d5f73656e736f72730000000000000000000000000000000000000000608483015260a06044830152600c60a48301526b776561746865725f7269736b60a01b60c48301525afa908115610fd257600091610fa1575b506001600160a01b0384166000526005602052602c6064604060002092604051936b776561746865725f7269736b60a01b8552600c8501520691205560034291015561081c565b610fc3915060603d606011610fcb575b610fbb81836129aa565b810190612ba8565b505084610f5a565b503d610fb1565b6040513d6000823e3d90fd5b610ff7915060603d606011610fcb57610fbb81836129aa565b505084610e7f565b611018915060603d606011610fcb57610fbb81836129aa565b505084610d92565b346103015760003660031901126103015761107f604080519061104381836129aa565b600582527f352e302e300000000000000000000000000000000000000000000000000000006020830152519182916020835260208301906129ef565b0390f35b60803660031901126103015760243567ffffffffffffffff8111610301576110af903690600401612ad1565b60443567ffffffffffffffff8111610301576110cf903690600401612ad1565b906110de600954341015612b5d565b6001600160a01b0360075416906040516352ee0b7760e01b815260006004820152606060248201526060818061114961111a60648301896129ef565b828103600319016044840152601081526f3cb4b2b6322fb83932b234b1ba34b7b760811b602082015260400190565b0381865afa908115610fd257600091611567575b50606060405180946352ee0b7760e01b82526001600483015282602483015281604061118c606483018a6129ef565b7f736f696c5f616e616c797369730000000000000000000000000000000000000060208483039260031984016044870152600d8152015201915afa8015610fd2576112019461123494600092611540575b5061121390604051968795600435602088015260c0604088015260e08701906129ef565b858103601f19016060870152906129ef565b91606435608085015260a084015260c083015203601f1981018352826129aa565b61124561123f612d48565b82612e42565b906006549161125383612bed565b60065560405161126281612971565b8381526020810190338252611275612d48565b926040820193845260608201968752608082019085825260a0830190815260c083019142835260e08401953087526001600160a01b03610100860196600188528a600052600360205260406000209651875551166001600160a01b036001870191166001600160a01b031982541617905560028501905180519067ffffffffffffffff8211610bf9576113128261130c85546128b4565b85612bfc565b602090601f83116001146114d9576113429291600091836114ce5750508160011b916000199060031b1c19161790565b90555b60038401985198895167ffffffffffffffff8111610bf95760209a61136e8261130c85546128b4565b8b90601f831160011461145857926113ae83600797946001600160a01b039a97948b9a97600092610b485750508160011b916000199060031b1c19161790565b90555b51600484015551600583015551600682015501935116166001600160a01b031983541617825551151560ff60a01b1960ff60a01b83549260a01b169116179055817f77ca097acc32ebdac0e189a29a011d2371843e4ee2e20d134266166e0430740e6040516040815261144560408201604090601081526f3cb4b2b6322fb83932b234b1ba34b7b760811b60208201520190565b93868201528033940390a3604051908152f35b90601f1983169184600052816000209260005b8181106114b75750936001600160a01b039996938a9996936001938360079b981061149e575b505050811b0190556113b1565b015160001960f88460031b161c191690558f8080611491565b92938f60018192878601518155019501930161146b565b015190508d806109c0565b90601f1983169184600052816000209260005b818110611528575090846001959493921061150f575b505050811b019055611345565b015160001960f88460031b161c191690558c8080611502565b929360206001819287860151815501950193016114ec565b61121391925061155e9060603d606011610fcb57610fbb81836129aa565b505091906111dd565b611580915060603d606011610fcb57610fbb81836129aa565b50508461115d565b34610301576020366003190112610301576001600160a01b036115a9612a14565b16600052600460205260a060406000206001600160a01b0381541690600181015490600281015460046003830154920154926040519485526020850152604084015260608301526080820152f35b346103015760203660031901126103015760043560025481101561030157611620602091612b2c565b90549060031b1c604051908152f35b346103015760003660031901126103015760206001600160a01b037f9016d09d72d40fdae2fd8ceac6b6234c7706214fd39c1cd1e609a0528c1993005416604051908152f35b34610301576040366003190112610301576004357f32fb666339873c88a042c4976476ff63b223b763dff430c8991ac6c1d68021776020602435836000526000825260406000206001600160a01b03600582015460081c1633148015611701575b6116df90612cfd565b6116ec6064831115612c4e565b816003820155600442910155604051908152a2005b506116df6001600160a01b037f9016d09d72d40fdae2fd8ceac6b6234c7706214fd39c1cd1e609a0528c1993005416331490506116d6565b346103015760003660031901126103015760206001600160a01b0360075416604051908152f35b346103015760403660031901126103015760043560243580159081158103610301578260005260006020526117c88160056040600020016001600160a01b03815460081c1633148015611906575b6117b790612cfd565b9060ff801983541691151516179055565b806118aa575b156117dd575061001b90612c99565b6117e357005b60005b6002548082101561001b57826117fb83612b2c565b90549060031b1c1461181057506001016117e6565b90915060001981019081116118945761183b61182e61185292612b2c565b90549060031b1c92612b2c565b819391549060031b91821b91600019901b19161790565b9055600254801561187e576000190161186a81612b2c565b8154906000199060031b1b19169055600255005b634e487b7160e01b600052603160045260246000fd5b634e487b7160e01b600052601160045260246000fd5b50604051826002548083526020830190600260005260206000209060005b8181106118ed57505050916118e2816118e79403826129aa565b613044565b156117ce565b82548452879450602090930192600192830192016118c8565b506117b76001600160a01b037f9016d09d72d40fdae2fd8ceac6b6234c7706214fd39c1cd1e609a0528c1993005416331490506117ae565b3461030157600036600319011261030157611957612fe3565b60006001600160a01b037f9016d09d72d40fdae2fd8ceac6b6234c7706214fd39c1cd1e609a0528c199300546001600160a01b031981167f9016d09d72d40fdae2fd8ceac6b6234c7706214fd39c1cd1e609a0528c19930055167f8be0079c531659141344cd1fd0a4f28419497f9722a3daafe3b4186f6b6457e08280a3005b34610301576000366003190112610301576020600954604051908152f35b3461030157602036600319011261030157600060c0604051611a168161298e565b60608152606060208201528260408201528260608201528260808201528260a082015201526004356000526000602052611afe604060002060405190611a5b8261298e565b604051611a6c8161024781856128ee565b82526001600160a01b0360405191611a9283611a8b81600185016128ee565b03846129aa565b602084019283526002810154926040850193845260038201549160608601928352600560048201549160808801928352015492611b1160a088019360ff8616151585528660c08a019660081c168652604051998a9960208b525160e060208c01526101008b01906129ef565b9051898203601f190160408b01526129ef565b955160608801525160808701525160a086015251151560c0850152511660e08301520390f35b346103015760803660031901126103015760043567ffffffffffffffff811161030157611b68903690600401612ad1565b60243567ffffffffffffffff811161030157611b88903690600401612ad1565b90606435906008548210611eea57611ba36064831115612c4e565b6040516020810190611bf260348260208651611bc28188848b016129cc565b8951908301611bd682848301858e016129cc565b01013360601b81524260148201520360148101845201826129aa565b5190209060405192611c038461298e565b8184526020840194855260408401604435815260608501918252608085019442865260a08101926001845260c08201923384528660005260006020526040600020925180519067ffffffffffffffff8211610bf957611c6c82611c6687546128b4565b87612bfc565b602090601f8311600114611e8357611c9c929160009183611e785750508160011b916000199060031b1c19161790565b83555b60018301985198895167ffffffffffffffff8111610bf95760209a611cc88261130c85546128b4565b8b90601f8311600114611de05794611d5794600594611d2b858e9f9596611dd09d9b977f0ff30f8228817ffbe4b5919e588d08fece109126d7d4ad53294acc13735a57119f9d9b600092610b485750508160011b916000199060031b1c19161790565b90555b5160028401555160038301555160048201550192511515839060ff801983541691151516179055565b517fffffffffffffffffffffff0000000000000000000000000000000000000000ff74ffffffffffffffffffffffffffffffffffffffff0083549260081b16911617905533600052600186526040600020600160ff19825416179055611dbc84612c99565b6040519182916040835260408301906129ef565b33878301520390a2604051908152f35b90601f1983169184600052816000209260005b818110611e615750946001858e9f957f0ff30f8228817ffbe4b5919e588d08fece109126d7d4ad53294acc13735a57119e9c9a95611d579a95611dd09f9d9960059b10611e48575b505050811b019055611d2e565b015160001960f88460031b161c19169055388080611e3b565b92938f600181928786015181550195019301611df3565b015190508c806109c0565b90601f1983169186600052816000209260005b818110611ed25750908460019594939210611eb9575b505050811b018355611c9f565b015160001960f88460031b161c191690558b8080611eac565b92936020600181928786015181550195019301611e96565b606460405162461bcd60e51b815260206004820152601660248201527f4d6f64656c20616363757261637920746f6f206c6f77000000000000000000006044820152fd5b34610301576000366003190112610301576020600854604051908152f35b34610301576000366003190112610301576001600160a01b037f0000000000000000000000000000000000000000000000000000000000000000163003611fb75760206040517f360894a13ba1a3210667c828492db98dca3e2076cc3735a920a3ca505d382bbc8152f35b7fe07c8dba0000000000000000000000000000000000000000000000000000000060005260046000fd5b611fea36612a7d565b6001600160a01b037f000000000000000000000000000000000000000000000000000000000000000016803014908115612224575b50611fb75761202c612fe3565b6001600160a01b038216916040517f52d1902d000000000000000000000000000000000000000000000000000000008152602081600481875afa600091816121f0575b506120895783634c9c8ce360e01b60005260045260246000fd5b807f360894a13ba1a3210667c828492db98dca3e2076cc3735a920a3ca505d382bbc8592036121c35750813b156121af57806001600160a01b03197f360894a13ba1a3210667c828492db98dca3e2076cc3735a920a3ca505d382bbc5416177f360894a13ba1a3210667c828492db98dca3e2076cc3735a920a3ca505d382bbc557fbc7cd75a20ee27fd9adebab32041f755214dbc6bffa90cc0225b39da2e5c2d3b600080a281511561217c5760008083602061001b95519101845af43d15612174573d9161215783612a2a565b9261216560405194856129aa565b83523d6000602085013e61329f565b60609161329f565b50503461218557005b7fb398979f0000000000000000000000000000000000000000000000000000000060005260046000fd5b634c9c8ce360e01b60005260045260246000fd5b7faa1d49a40000000000000000000000000000000000000000000000000000000060005260045260246000fd5b9091506020813d60201161221c575b8161220c602093836129aa565b810103126103015751908561206f565b3d91506121ff565b90506001600160a01b037f360894a13ba1a3210667c828492db98dca3e2076cc3735a920a3ca505d382bbc541614158361201f565b3461030157600036600319011261030157612272612fe3565b60008080806001600160a01b037f9016d09d72d40fdae2fd8ceac6b6234c7706214fd39c1cd1e609a0528c199300541647908282156122b4575bf115610fd257005b506108fc6122ac565b34610301576000366003190112610301576020600a54604051908152f35b60e46122e636612a7d565b6122f7600993929354341015612b5d565b60606001600160a01b0360075416604051938480926352ee0b7760e01b825260006004830152846024830152600d60648301527f757365725f6c6f636174696f6e00000000000000000000000000000000000000608483015260a06044830152601160a48301527f6372656469745f6173736573736d656e7400000000000000000000000000000060c48301525afa908115610fd2576123b8926123d1926000916000916127b5575b506040519485936060602086015260808501906129ef565b916040840152606083015203601f1981018352826129aa565b6123dc61123f612bc3565b9290600654926123eb84612bed565b600655604051926123fb84612971565b8484526001600160a01b0360208501911693848252612418612bc3565b9260408201938452606082019081526080820185815260a083019089825260c084019242845260e08501963088526001600160a01b03610100870197600189528c600052600360205260406000209751885551166001600160a01b036001880191166001600160a01b031982541617905560028601905180519067ffffffffffffffff8211610bf9576124af8261130c85546128b4565b602090601f831160011461274e576124df9291600091836127435750508160011b916000199060031b1c19161790565b90555b518051600386019167ffffffffffffffff8211610bf9576125078261130c85546128b4565b602090601f83116001146126cc579261254883600797946001600160a01b039a97948b9a97600092610b485750508160011b916000199060031b1c19161790565b90555b51600484015551600583015551600682015501935116166001600160a01b031983541617825551151560ff60a01b1960ff60a01b83549260a01b1691161790558160005260046020526040600020936001850190815492816064039660648811611894577ffd32c6a7c09bea0525ce461a3ea31ae27b2ae4236b8529f20f70c632d8340c4f60407f77ca097acc32ebdac0e189a29a011d2371843e4ee2e20d134266166e0430740e9560028994606461261f60809960209f8f9d6126199161261291612fd0565b918b612fd0565b90612d76565b04809355426003820155600481016126378154612bed565b90556102ee8310612686576001828201555b015482519182528b820152a26040519060408252600c60408301526b6372656469745f73636f726560a01b606083015287820152a3604051908152f35b61028a8310612699578180820155612649565b61022683106126ad57600382820155612649565b6101c283106126c157600482820155612649565b600582820155612649565b90601f1983169184600052816000209260005b81811061272b5750936001600160a01b039996938a9996936001938360079b9810612712575b505050811b01905561254b565b015160001960f88460031b161c19169055388080612705565b929360206001819287860151815501950193016126df565b015190508f806109c0565b90601f1983169184600052816000209260005b81811061279d5750908460019594939210612784575b505050811b0190556124e2565b015160001960f88460031b161c191690558e8080612777565b92936020600181928786015181550195019301612761565b90506127d0915060603d606011610fcb57610fbb81836129aa565b9050866123a0565b34610301576020366003190112610301576004356000526003602052604060002080549060ff6001600160a01b036001830154169361281e8161024781600287016128ee565b6040519261283a8461283381600385016128ee565b03856129aa565b60048101549361288560058301549161287760076006860154950154956040519a8b9a8b5260208b015261012060408b01526101208a01906129ef565b9088820360608a01526129ef565b94608087015260a086015260c08501526001600160a01b03811660e085015260a01c1615156101008301520390f35b90600182811c921680156128e4575b60208310146128ce57565b634e487b7160e01b600052602260045260246000fd5b91607f16916128c3565b600092918154916128fe836128b4565b8083529260018116908115612954575060011461291a57505050565b60009081526020812093945091925b83831061293a575060209250010190565b600181602092949394548385870101520191019190612929565b915050602093945060ff929192191683830152151560051b010190565b610120810190811067ffffffffffffffff821117610bf957604052565b60e0810190811067ffffffffffffffff821117610bf957604052565b90601f8019910116810190811067ffffffffffffffff821117610bf957604052565b60005b8381106129df5750506000910152565b81810151838201526020016129cf565b90602091612a08815180928185528580860191016129cc565b601f01601f1916010190565b600435906001600160a01b038216820361030157565b67ffffffffffffffff8111610bf957601f01601f191660200190565b929192612a5282612a2a565b91612a6060405193846129aa565b829481845281830111610301578281602093846000960137010152565b906040600319830112610301576004356001600160a01b038116810361030157916024359067ffffffffffffffff8211610301578060238301121561030157816024612ace93600401359101612a46565b90565b9080601f8301121561030157816020612ace93359101612a46565b906040600319830112610301576004356001600160a01b038116810361030157916024359067ffffffffffffffff821161030157612ace91600401612ad1565b600254811015612b4757600260005260206000200190600090565b634e487b7160e01b600052603260045260246000fd5b15612b6457565b606460405162461bcd60e51b815260206004820152601b60248201527f496e73756666696369656e742070726564696374696f6e2066656500000000006044820152fd5b90816060910312610301578051916040602083015192015190565b60405190612bd26040836129aa565b600c82526b6372656469745f73636f726560a01b6020830152565b60001981146118945760010190565b601f8211612c0957505050565b6000526020600020906020601f840160051c83019310612c44575b601f0160051c01905b818110612c38575050565b60008155600101612c2d565b9091508190612c24565b15612c5557565b606460405162461bcd60e51b815260206004820152601060248201527f496e76616c6964206163637572616379000000000000000000000000000000006044820152fd5b60025468010000000000000000811015610bf957600181016002556000600254821015612ce957600290527f405787fa12a823e0f2b7631cc41b3ba8828b3321ca811111fa75cd3aa3bb5ace0155565b80634e487b7160e01b602492526032600452fd5b15612d0457565b606460405162461bcd60e51b815260206004820152600e60248201527f4e6f7420617574686f72697a65640000000000000000000000000000000000006044820152fd5b60405190612d576040836129aa565b601082526f3cb4b2b6322fb83932b234b1ba34b7b760811b6020830152565b9190820180921161189457565b6001600160a01b03168015612e13576001600160a01b037f9016d09d72d40fdae2fd8ceac6b6234c7706214fd39c1cd1e609a0528c19930054826001600160a01b03198216177f9016d09d72d40fdae2fd8ceac6b6234c7706214fd39c1cd1e609a0528c19930055167f8be0079c531659141344cd1fd0a4f28419497f9722a3daafe3b4186f6b6457e0600080a3565b7f1e4fbdf700000000000000000000000000000000000000000000000000000000600052600060045260246000fd5b91909160009060009360008081938290600254945b858310612eb95750505081158015612e73575b50505050509190565b91939650919350612ea357600160ff1b81146000198314166118945705928115612ea35704913880808080612e6a565b634e487b7160e01b600052601260045260246000fd5b9091959392612ec787612b2c565b90549060031b1c60005260006020526040600020604051612ee78161298e565b604051612ef88161024781866128ee565b8152604051612f0e8161024781600187016128ee565b602082015260028201546040820152600382015490600560608201938385526004810154608084015201549060c06001600160a01b0360ff84161593841560a085015260081c16910152612fc357612f67908486613079565b90519182820291600160ff1b841460008212166118945780830584149015171561189457600082820192831291129080158216911516176118945781612fb3600193612fb99397612d76565b96612d76565b965b019190612e57565b5050929395600190612fbb565b8181029291811591840414171561189457565b6001600160a01b037f9016d09d72d40fdae2fd8ceac6b6234c7706214fd39c1cd1e609a0528c1993005416330361301657565b7f118cdaa7000000000000000000000000000000000000000000000000000000006000523360045260246000fd5b9060005b8251811015613071578160208260051b850101511461306957600101613048565b505050600190565b505050600090565b9190916040516130c06020828161309981830196878151938492016129cc565b810195828851818a01986130b0828483018c6129cc565b01019081520380845201826129aa565b5190209160405160208101906130f060208285516130df81878a6129cc565b81010301601f1981018352826129aa565b51902060405160208101906b6372656469745f73636f726560a01b8252600c815261311c602c826129aa565b5190200361313b575050610227900661012c018061012c116118945790565b613157602060405180936130df838301968792519283916129cc565b51902060405160208101906f3cb4b2b6322fb83932b234b1ba34b7b760811b8252601081526131876030826129aa565b519020036131a15760149006600101806001116118945790565b6065900690565b6001600160a01b03166000526004602052604060002060405160a081019080821067ffffffffffffffff831117610bf9576080916040526001600160a01b03835416815260046001840154938460208401526002810154604084015260038101546060840152015491829101521561324057606481029080820460641490151715611894576103529004606403606481116118945790565b50603290565b60ff7ff0c57e16840df040f15088dc2f81fe391c3923bec73e23a9662efc9c229c6a005460401c161561327557565b7fd7e6bcf80000000000000000000000000000000000000000000000000000000060005260046000fd5b906132de57508051156132b457602081519101fd5b7fd6bda2750000000000000000000000000000000000000000000000000000000060005260046000fd5b81511580613326575b6132ef575090565b6001600160a01b03907f9996b315000000000000000000000000000000000000000000000000000000006000521660045260246000fd5b50803b156132e756fea2646970667358221220f46116787edf6d3002f734469da8523707a1da1f78907c792f25ee9752b3457364736f6c634300081c0033",
  "linkReferences": {},
  "deployedLinkReferences": {}
}