{
  "_format": "hh-sol-artifact-1",
  "contractName": "AIPredictor",
  "sourceName": "contracts/AIPredictor.sol",
  "abi": [
    {
      "inputs": [
        {
          "internalType": "address",
          "name": "target",
          "type": "address"
        }
      ],
      "name": "AddressEmptyCode",
      "type": "error"
    },
    {
      "inputs": [
        {
          "internalType": "address",
          "name": "implementation",
          "type": "address"
        }
      ],
      "name": "ERC1967InvalidImplementation",
      "type": "error"
    },
    {
      "inputs": [],
      "name": "ERC1967NonPayable",
      "type": "error"
    },
    {
      "inputs": [],
      "name": "FailedCall",
      "type": "error"
    },
    {
      "inputs": [],
      "name": "InvalidInitialization",
      "type": "error"
    },
    {
      "inputs": [],
      "name": "NotInitializing",
      "type": "error"
    },
    {
      "inputs": [
        {
          "internalType": "address",
          "name": "owner",
          "type": "address"
        }
      ],
      "name": "OwnableInvalidOwner",
      "type": "error"
    },
    {
      "inputs": [
        {
          "internalType": "address",
          "name": "account",
          "type": "address"
        }
      ],
      "name": "OwnableUnauthorizedAccount",
      "type": "error"
    },
    {
      "inputs": [],
      "name": "ReentrancyGuardReentrantCall",
      "type": "error"
    },
    {
      "inputs": [],
      "name": "UUPSUnauthorizedCallContext",
      "type": "error"
    },
    {
      "inputs": [
        {
          "internalType": "bytes32",
          "name": "slot",
          "type": "bytes32"
        }
      ],
      "name": "UUPSUnsupportedProxiableUUID",
      "type": "error"
    },
    {
      "anonymous": false,
      "inputs": [
        {
          "indexed": true,
          "internalType": "bytes32",
          "name": "modelId",
          "type": "bytes32"
        },
        {
          "indexed": false,
          "internalType": "string",
          "name": "name",
          "type": "string"
        },
        {
          "indexed": false,
          "internalType": "address",
          "name": "maintainer",
          "type": "address"
        }
      ],
      "name": "AIModelRegistered",
      "type": "event"
    },
    {
      "anonymous": false,
      "inputs": [
        {
          "indexed": false,
          "internalType": "uint64",
          "name": "version",
          "type": "uint64"
        }
      ],
      "name": "Initialized",
      "type": "event"
    },
    {
      "anonymous": false,
      "inputs": [
        {
          "indexed": true,
          "internalType": "bytes32",
          "name": "modelId",
          "type": "bytes32"
        },
        {
          "indexed": false,
          "internalType": "uint256",
          "name": "accuracy",
          "type": "uint256"
        }
      ],
      "name": "ModelAccuracyUpdated",
      "type": "event"
    },
    {
      "anonymous": false,
      "inputs": [
        {
          "indexed": true,
          "internalType": "address",
          "name": "previousOwner",
          "type": "address"
        },
        {
          "indexed": true,
          "internalType": "address",
          "name": "newOwner",
          "type": "address"
        }
      ],
      "name": "OwnershipTransferred",
      "type": "event"
    },
    {
      "anonymous": false,
      "inputs": [
        {
          "indexed": true,
          "internalType": "uint256",
          "name": "predictionId",
          "type": "uint256"
        },
        {
          "indexed": true,
          "internalType": "address",
          "name": "user",
          "type": "address"
        },
        {
          "indexed": false,
          "internalType": "string",
          "name": "dataType",
          "type": "string"
        },
        {
          "indexed": false,
          "internalType": "int256",
          "name": "prediction",
          "type": "int256"
        }
      ],
      "name": "PredictionMade",
      "type": "event"
    },
    {
      "anonymous": false,
      "inputs": [
        {
          "indexed": true,
          "internalType": "address",
          "name": "user",
          "type": "address"
        },
        {
          "indexed": false,
          "internalType": "uint256",
          "name": "creditScore",
          "type": "uint256"
        },
        {
          "indexed": false,
          "internalType": "uint256",
          "name": "riskLevel",
          "type": "uint256"
        }
      ],
      "name": "RiskProfileUpdated",
      "type": "event"
    },
    {
      "anonymous": false,
      "inputs": [
        {
          "indexed": true,
          "internalType": "address",
          "name": "implementation",
          "type": "address"
        }
      ],
      "name": "Upgraded",
      "type": "event"
    },
    {
      "inputs": [],
      "name": "UPGRADE_INTERFACE_VERSION",
      "outputs": [
        {
          "internalType": "string",
          "name": "",
          "type": "string"
        }
      ],
      "stateMutability": "view",
      "type": "function"
    },
    {
      "inputs": [
        {
          "internalType": "uint256",
          "name": "",
          "type": "uint256"
        }
      ],
      "name": "activeModels",
      "outputs": [
        {
          "internalType": "bytes32",
          "name": "",
          "type": "bytes32"
        }
      ],
      "stateMutability": "view",
      "type": "function"
    },
    {
      "inputs": [
        {
          "internalType": "bytes32",
          "name": "",
          "type": "bytes32"
        }
      ],
      "name": "aiModels",
      "outputs": [
        {
          "internalType": "string",
          "name": "name",
          "type": "string"
        },
        {
          "internalType": "string",
          "name": "version",
          "type": "string"
        },
        {
          "internalType": "bytes32",
          "name": "modelHash",
          "type": "bytes32"
        },
        {
          "internalType": "uint256",
          "name": "accuracy",
          "type": "uint256"
        },
        {
          "internalType": "uint256",
          "name": "lastUpdated",
          "type": "uint256"
        },
        {
          "internalType": "bool",
          "name": "active",
          "type": "bool"
        },
        {
          "internalType": "address",
          "name": "maintainer",
          "type": "address"
        }
      ],
      "stateMutability": "view",
      "type": "function"
    },
    {
      "inputs": [
        {
          "internalType": "address",
          "name": "_user",
          "type": "address"
        },
        {
          "internalType": "string",
          "name": "_riskType",
          "type": "string"
        }
      ],
      "name": "assessRisk",
      "outputs": [
        {
          "internalType": "uint256",
          "name": "",
          "type": "uint256"
        }
      ],
      "stateMutability": "nonpayable",
      "type": "function"
    },
    {
      "inputs": [
        {
          "internalType": "address",
          "name": "",
          "type": "address"
        }
      ],
      "name": "authorizedModels",
      "outputs": [
        {
          "internalType": "bool",
          "name": "",
          "type": "bool"
        }
      ],
      "stateMutability": "view",
      "type": "function"
    },
    {
      "inputs": [
        {
          "internalType": "bytes32",
          "name": "_modelId",
          "type": "bytes32"
        }
      ],
      "name": "getAIModel",
      "outputs": [
        {
          "components": [
            {
              "internalType": "string",
              "name": "name",
              "type": "string"
            },
            {
              "internalType": "string",
              "name": "version",
              "type": "string"
            },
            {
              "internalType": "bytes32",
              "name": "modelHash",
              "type": "bytes32"
            },
            {
              "internalType": "uint256",
              "name": "accuracy",
              "type": "uint256"
            },
            {
              "internalType": "uint256",
              "name": "lastUpdated",
              "type": "uint256"
            },
            {
              "internalType": "bool",
              "name": "active",
              "type": "bool"
            },
            {
              "internalType": "address",
              "name": "maintainer",
              "type": "address"
            }
          ],
          "internalType": "struct AIPredictor.AIModel",
          "name": "",
          "type": "tuple"
        }
      ],
      "stateMutability": "view",
      "type": "function"
    },
    {
      "inputs": [],
      "name": "getActiveModels",
      "outputs": [
        {
          "internalType": "bytes32[]",
          "name": "",
          "type": "bytes32[]"
        }
      ],
      "stateMutability": "view",
      "type": "function"
    },
    {
      "inputs": [
        {
          "internalType": "uint256",
          "name": "_predictionId",
          "type": "uint256"
        }
      ],
      "name": "getPrediction",
      "outputs": [
        {
          "components": [
            {
              "internalType": "uint256",
              "name": "id",
              "type": "uint256"
            },
            {
              "internalType": "address",
              "name": "user",
              "type": "address"
            },
            {
              "internalType": "string",
              "name": "dataType",
              "type": "string"
            },
            {
              "internalType": "bytes",
              "name": "inputData",
              "type": "bytes"
            },
            {
              "internalType": "int256",
              "name": "prediction",
              "type": "int256"
            },
            {
              "internalType": "uint256",
              "name": "confidence",
              "type": "uint256"
            },
            {
              "internalType": "uint256",
              "name": "timestamp",
              "type": "uint256"
            },
            {
              "internalType": "address",
              "name": "modelUsed",
              "type": "address"
            },
            {
              "internalType": "bool",
              "name": "verified",
              "type": "bool"
            }
          ],
          "internalType": "struct AIPredictor.Prediction",
          "name": "",
          "type": "tuple"
        }
      ],
      "stateMutability": "view",
      "type": "function"
    },
    {
      "inputs": [
        {
          "internalType": "address",
          "name": "_user",
          "type": "address"
        },
        {
          "internalType": "string",
          "name": "_factor",
          "type": "string"
        }
      ],
      "name": "getRiskFactor",
      "outputs": [
        {
          "internalType": "int256",
          "name": "",
          "type": "int256"
        }
      ],
      "stateMutability": "view",
      "type": "function"
    },
    {
      "inputs": [
        {
          "internalType": "address",
          "name": "_user",
          "type": "address"
        }
      ],
      "name": "getRiskProfile",
      "outputs": [
        {
          "internalType": "uint256",
          "name": "creditScore",
          "type": "uint256"
        },
        {
          "internalType": "uint256",
          "name": "riskLevel",
          "type": "uint256"
        },
        {
          "internalType": "uint256",
          "name": "lastAssessment",
          "type": "uint256"
        },
        {
          "internalType": "uint256",
          "name": "predictionCount",
          "type": "uint256"
        }
      ],
      "stateMutability": "view",
      "type": "function"
    },
    {
      "inputs": [
        {
          "internalType": "address",
          "name": "_oracle",
          "type": "address"
        }
      ],
      "name": "initialize",
      "outputs": [],
      "stateMutability": "nonpayable",
      "type": "function"
    },
    {
      "inputs": [],
      "name": "minModelAccuracy",
      "outputs": [
        {
          "internalType": "uint256",
          "name": "",
          "type": "uint256"
        }
      ],
      "stateMutability": "view",
      "type": "function"
    },
    {
      "inputs": [],
      "name": "nextPredictionId",
      "outputs": [
        {
          "internalType": "uint256",
          "name": "",
          "type": "uint256"
        }
      ],
      "stateMutability": "view",
      "type": "function"
    },
    {
      "inputs": [],
      "name": "oracle",
      "outputs": [
        {
          "internalType": "contract DecentralizedOracle",
          "name": "",
          "type": "address"
        }
      ],
      "stateMutability": "view",
      "type": "function"
    },
    {
      "inputs": [],
      "name": "owner",
      "outputs": [
        {
          "internalType": "address",
          "name": "",
          "type": "address"
        }
      ],
      "stateMutability": "view",
      "type": "function"
    },
    {
      "inputs": [
        {
          "internalType": "address",
          "name": "_user",
          "type": "address"
        },
        {
          "internalType": "bytes",
          "name": "_userData",
          "type": "bytes"
        }
      ],
      "name": "predictCreditScore",
      "outputs": [
        {
          "internalType": "uint256",
          "name": "",
          "type": "uint256"
        }
      ],
      "stateMutability": "payable",
      "type": "function"
    },
    {
      "inputs": [
        {
          "internalType": "uint256",
          "name": "_farmSize",
          "type": "uint256"
        },
        {
          "internalType": "string",
          "name": "_cropType",
          "type": "string"
        },
        {
          "internalType": "string",
          "name": "_location",
          "type": "string"
        },
        {
          "internalType": "uint256",
          "name": "_plantingDate",
          "type": "uint256"
        }
      ],
      "name": "predictYield",
      "outputs": [
        {
          "internalType": "uint256",
          "name": "",
          "type": "uint256"
        }
      ],
      "stateMutability": "payable",
      "type": "function"
    },
    {
      "inputs": [],
      "name": "predictionFee",
      "outputs": [
        {
          "internalType": "uint256",
          "name": "",
          "type": "uint256"
        }
      ],
      "stateMutability": "view",
      "type": "function"
    },
    {
      "inputs": [
        {
          "internalType": "uint256",
          "name": "",
          "type": "uint256"
        }
      ],
      "name": "predictions",
      "outputs": [
        {
          "internalType": "uint256",
          "name": "id",
          "type": "uint256"
        },
        {
          "internalType": "address",
          "name": "user",
          "type": "address"
        },
        {
          "internalType": "string",
          "name": "dataType",
          "type": "string"
        },
        {
          "internalType": "bytes",
          "name": "inputData",
          "type": "bytes"
        },
        {
          "internalType": "int256",
          "name": "prediction",
          "type": "int256"
        },
        {
          "internalType": "uint256",
          "name": "confidence",
          "type": "uint256"
        },
        {
          "internalType": "uint256",
          "name": "timestamp",
          "type": "uint256"
        },
        {
          "internalType": "address",
          "name": "modelUsed",
          "type": "address"
        },
        {
          "internalType": "bool",
          "name": "verified",
          "type": "bool"
        }
      ],
      "stateMutability": "view",
      "type": "function"
    },
    {
      "inputs": [],
      "name": "proxiableUUID",
      "outputs": [
        {
          "internalType": "bytes32",
          "name": "",
          "type": "bytes32"
        }
      ],
      "stateMutability": "view",
      "type": "function"
    },
    {
      "inputs": [
        {
          "internalType": "string",
          "name": "_name",
          "type": "string"
        },
        {
          "internalType": "string",
          "name": "_version",
          "type": "string"
        },
        {
          "internalType": "bytes32",
          "name": "_modelHash",
          "type": "bytes32"
        },
        {
          "internalType": "uint256",
          "name": "_accuracy",
          "type": "uint256"
        }
      ],
      "name": "registerAIModel",
      "outputs": [
        {
          "internalType": "bytes32",
          "name": "",
          "type": "bytes32"
        }
      ],
      "stateMutability": "nonpayable",
      "type": "function"
    },
    {
      "inputs": [],
      "name": "renounceOwnership",
      "outputs": [],
      "stateMutability": "nonpayable",
      "type": "function"
    },
    {
      "inputs": [
        {
          "internalType": "address",
          "name": "",
          "type": "address"
        },
        {
          "internalType": "string",
          "name": "",
          "type": "string"
        }
      ],
      "name": "riskFactors",
      "outputs": [
        {
          "internalType": "int256",
          "name": "",
          "type": "int256"
        }
      ],
      "stateMutability": "view",
      "type": "function"
    },
    {
      "inputs": [
        {
          "internalType": "address",
          "name": "",
          "type": "address"
        }
      ],
      "name": "riskProfiles",
      "outputs": [
        {
          "internalType": "address",
          "name": "user",
          "type": "address"
        },
        {
          "internalType": "uint256",
          "name": "creditScore",
          "type": "uint256"
        },
        {
          "internalType": "uint256",
          "name": "riskLevel",
          "type": "uint256"
        },
        {
          "internalType": "uint256",
          "name": "lastAssessment",
          "type": "uint256"
        },
        {
          "internalType": "uint256",
          "name": "predictionCount",
          "type": "uint256"
        }
      ],
      "stateMutability": "view",
      "type": "function"
    },
    {
      "inputs": [],
      "name": "riskUpdateInterval",
      "outputs": [
        {
          "internalType": "uint256",
          "name": "",
          "type": "uint256"
        }
      ],
      "stateMutability": "view",
      "type": "function"
    },
    {
      "inputs": [
        {
          "internalType": "bytes32",
          "name": "_modelId",
          "type": "bytes32"
        },
        {
          "internalType": "bool",
          "name": "_active",
          "type": "bool"
        }
      ],
      "name": "toggleModel",
      "outputs": [],
      "stateMutability": "nonpayable",
      "type": "function"
    },
    {
      "inputs": [
        {
          "internalType": "address",
          "name": "newOwner",
          "type": "address"
        }
      ],
      "name": "transferOwnership",
      "outputs": [],
      "stateMutability": "nonpayable",
      "type": "function"
    },
    {
      "inputs": [
        {
          "internalType": "bytes32",
          "name": "_modelId",
          "type": "bytes32"
        },
        {
          "internalType": "uint256",
          "name": "_newAccuracy",
          "type": "uint256"
        }
      ],
      "name": "updateModelAccuracy",
      "outputs": [],
      "stateMutability": "nonpayable",
      "type": "function"
    },
    {
      "inputs": [
        {
          "internalType": "uint256",
          "name": "_minModelAccuracy",
          "type": "uint256"
        },
        {
          "internalType": "uint256",
          "name": "_predictionFee",
          "type": "uint256"
        },
        {
          "internalType": "uint256",
          "name": "_riskUpdateInterval",
          "type": "uint256"
        }
      ],
      "name": "updateParameters",
      "outputs": [],
      "stateMutability": "nonpayable",
      "type": "function"
    },
    {
      "inputs": [
        {
          "internalType": "address",
          "name": "newImplementation",
          "type": "address"
        },
        {
          "internalType": "bytes",
          "name": "data",
          "type": "bytes"
        }
      ],
      "name": "upgradeToAndCall",
      "outputs": [],
      "stateMutability": "payable",
      "type": "function"
    },
    {
      "inputs": [],
      "name": "withdrawFees",
      "outputs": [],
      "stateMutability": "nonpayable",
      "type": "function"
    },
    {
      "stateMutability": "payable",
      "type": "receive"
    }
  ],
  "bytecode": "0x60a080604052346045573060805260016006556046600855662386f26fc1000060095562278d00600a55612fe8908161004b8239608051818181611d6b0152611dd50152f35b600080fdfe608080604052600436101561001d575b50361561001b57600080fd5b005b60003560e01c9081624fbbb0146124cd575080631f096c041461200a578063357e6e5714611fec578063476343ee14611f9b5780634f1ef28614611dc257806352d1902d14611d5857806355b8bb1b14611d3a5780635d9346bf146119625780636cf537f8146118205780636fc0608414611802578063715018a61461179857806373300b6c1461052157806378bd23c2146115d25780637dc0d1d0146115a957806388adc8fd146114fd5780638da5cb5b146114c75780638e8690bf1461148f5780639948b18d14611422578063aa8f3c7b14610f3f578063ad3cb1cc14610ef4578063b351e03614610779578063baf1e57f1461071a578063c4d66de81461056f578063cf24284414610521578063d13413df14610483578063d8d9292e14610465578063eb91797a14610426578063f2fde38b146103fd578063f76d50ad146103d0578063fd0875d8146103195763fe83bece1461017e573861000f565b346103145760203660031901126103145760006101006040516101a081612664565b828152826020820152606060408201526060808201528260808201528260a08201528260c08201528260e08201520152600435600052600360205260406000206040516101ec81612664565b8154815260018201546001600160a01b0316602082019081526040519092906102238161021c81600286016125e1565b038261269b565b60408301908152604051906102468261023f81600387016125e1565b038361269b565b6060840191825260048301549260808501938452600581015460a086019081526102e4600760068401549360c089019485520154946102d160e089019560018060a01b038816875260ff6101008b019860a01c16151588526040519a8b9a60208c525160208c015260018060a01b0390511660408b01525161012060608b01526101408a01906126df565b9051888203601f190160808a01526126df565b945160a08701525160c08601525160e0850152516001600160a01b03166101008401525115156101208301520390f35b600080fd5b3461031457602036600319011261031457600435600052600060205261039060406000206040519061034f8261023f81846125e1565b6040516103638161021c81600186016125e1565b600282015491600381015461039e600560048401549301549360405197889760e0895260e08901906126df565b9087820360208901526126df565b60408601949094526060850152608084015260ff8116151560a084015260081c6001600160a01b031660c08301520390f35b34610314576060366003190112610314576103e9612c6e565b600435600855602435600955604435600a55005b346103145760203660031901126103145761001b610419612704565b610421612c6e565b612a57565b34610314576020366003190112610314576001600160a01b03610447612704565b166000526001602052602060ff604060002054166040519015158152f35b34610314576000366003190112610314576020600654604051908152f35b346103145760003660031901126103145760405160025490818152602081018092600260005260206000209060005b81811061050b57505050816104c891038261269b565b6040519182916020830190602084525180915260408301919060005b8181106104f2575050500390f35b82518452859450602093840193909201916001016104e4565b82548452602090930192600192830192016104b2565b3461031457602061055d81610535366127da565b9060018060a01b031660005260058252604060002082604051948386809551938492016126bc565b82019081520301902054604051908152f35b3461031457602036600319011261031457610588612704565b600080516020612f93833981519152549060ff8260401c1615916001600160401b03811680159081610712575b6001149081610708575b1590816106ff575b506106ee5767ffffffffffffffff198116600117600080516020612f9383398151915255826106c1575b506105fa612ea3565b610602612ea3565b61060b33612a57565b610613612ea3565b61061b612ea3565b60017f9b779b17422d0df92223018b32b4d1fa46e071723d6817e2486d003becc55f0055610647612ea3565b60018060a01b03166001600160601b0360a01b600754161760075561066857005b68ff000000000000000019600080516020612f938339815191525416600080516020612f93833981519152557fc7f505b2f371ae2175ee4913f4499e1f2633a7b5936321eed1cdaeb6115181d2602060405160018152a1005b68ffffffffffffffffff19166801000000000000000117600080516020612f9383398151915255826105f1565b63f92ee8a960e01b60005260046000fd5b905015846105c7565b303b1591506105bf565b8491506105b5565b34610314576020366003190112610314576001600160a01b0361073b612704565b166000526004602052608060406000206001810154906002810154906004600382015491015491604051938452602084015260408301526060820152f35b3461031457610787366127da565b6001600160a01b038216600090815260046020526040902060030154600a546107af91612a4a565b421015610bd7575b600654906107c4826128db565b60065560018060a01b038316600052600560205260406000206020604051809284516107f381848689016126bc565b8201908152030190205490604051906f7269736b5f6173736573736d656e745f60801b6020830152610844603083835161083381848401602088016126bc565b81010301601f19810184528361269b565b604080516001600160a01b0387166020820152808201919091529461087e8661087060608201856126df565b03601f19810188528761269b565b6040519261088b84612664565b8584526001600160a01b0382811660208087019182526040808801948552606088019a909a5260808701889052605560a08801524260c08801523060e08801526001610100880181905260008a8152600390925299902086518155905198810180546001600160a01b03191699909216989098179055518051906001600160401b038211610b455761092d8261092460028b01546125a7565b60028b016128ea565b602090601f8311600114610b665761095e929160009183610b5b575b50508160011b916000199060031b1c19161790565b60028701555b6060830151928351966001600160401b038811610b455787879561099a60209a61099160038601546125a7565b600386016128ea565b8990601f8311600114610ab957610a9295936109e584600080516020612f7383398151915299979561010095600795600092610aae5750508160011b916000199060031b1c19161790565b60038201555b6080840151600482015560a080850151600583015560c0850151600683015560e085015192909101805493909401516001600160a81b03199093166001600160a01b039290921691909117911515901b60ff60a01b161790556040516f7269736b5f6173736573736d656e745f60801b8982015282519092610a7e91603091859190610833908290848601908f016126bc565b6040519283926040845260408401906126df565b828901969096526001600160a01b0316940390a3604051908152f35b015190508f80610949565b9060038401600052806000209160005b601f1985168110610b2b57509360018461010094600794610a929a98600080516020612f738339815191529c9a98601f19811610610b12575b505050811b0160038201556109eb565b015160001960f88460031b161c191690558e8080610b02565b8183015184558b9950600190930192918c01918c01610ac9565b634e487b7160e01b600052604160045260246000fd5b015190508980610949565b91906002890160005280600020906000935b601f1984168510610bbc576001945083601f19811610610ba3575b505050811b016002870155610964565b015160001960f88460031b161c19169055888080610b93565b81810151835560209485019460019093019290910190610b78565b6001600160a01b0382166000908152600460205260409020610bf883612e08565b60018060a01b0384166000526005602052602c6040600020604051906b1b1bd85b97d91959985d5b1d60a21b8252600c820152205560e4606060018060a01b0360075416604051928380926352ee0b7760e01b825260006004830152846024830152600b60648301526a3ab9b2b92fb932b3b4b7b760a91b608483015260a06044830152600f60a48301526e1c9a5cdad7d85cdcd95cdcdb595b9d608a1b60c48301525afa908115610ea657600091610ed3575b5060018060a01b0384166000526005602052602c6064604060002092604051936b63726f705f6661696c75726560a01b8552600c8501520691205560e4606060018060a01b0360075416604051928380926352ee0b7760e01b825260036004830152846024830152601860648301527f6167726963756c747572616c5f636f6d6d6f6469746965730000000000000000608483015260a06044830152600a60a483015269766f6c6174696c69747960b01b60c48301525afa908115610ea657600091610eb2575b5060018060a01b03841660005260056020526031606460406000209260405193706d61726b65745f766f6c6174696c69747960781b855260118501520691205560e4606060018060a01b0360075416604051928380926352ee0b7760e01b8252600480830152846024830152600c60648301526b6661726d5f73656e736f727360a01b608483015260a06044830152600c60a48301526b776561746865725f7269736b60a01b60c48301525afa908115610ea657600091610e75575b5060018060a01b0384166000526005602052602c6064604060002092604051936b776561746865725f7269736b60a01b8552600c850152069120556003429101556107b7565b610e97915060603d606011610e9f575b610e8f818361269b565b810190612896565b505084610e2f565b503d610e85565b6040513d6000823e3d90fd5b610ecb915060603d606011610e9f57610e8f818361269b565b505084610d73565b610eec915060603d606011610e9f57610e8f818361269b565b505084610cac565b3461031457600036600319011261031457610f3b6040805190610f17818361269b565b60058252640352e302e360dc1b6020830152519182916020835260208301906126df565b0390f35b6080366003190112610314576024356001600160401b03811161031457610f6a9036906004016127bf565b6044356001600160401b03811161031457610f899036906004016127bf565b90610f9860095434101561284a565b6007546040516352ee0b7760e01b8152600060048201526060602482018190526001600160a01b0390921692918180611006610fd760648301896126df565b828103600319016044840152601081526f3cb4b2b6322fb83932b234b1ba34b7b760811b602082015260400190565b0381865afa908115610ea657600091611401575b50606060405180946352ee0b7760e01b825260016004830152826024830152816040611049606483018a6126df565b6c736f696c5f616e616c7973697360981b60208483039260031984016044870152600d8152015201915afa8015610ea6576110ae946110e1946000926113da575b506110c090604051968795600435602088015260c0604088015260e08701906126df565b858103601f19016060870152906126df565b91606435608085015260a084015260c083015203601f19810183528261269b565b6110f26110ec612a1c565b82612acd565b919060065490611101826128db565b60065560405161111081612664565b82815260208101338152611122612a1c565b916040810192835260608101958652608081019684885260a0820190815260c082019042825260e08301943086526101008401946001865288600052600360205260406000209451855560018060a01b03905116600185019060018060a01b03166001600160601b0360a01b8254161790556002840190518051906001600160401b038211610b45576111bf826111b985546125a7565b856128ea565b602090601f8311600114611373576111ef9291600091836113685750508160011b916000199060031b1c19161790565b90555b600383019751988951986001600160401b038a11610b455760209a6112218b61121b84546125a7565b846128ea565b8b90601f8c116001146112fc579a80611257926007999a9b9c9d6000926112f15750508160011b916000199060031b1c19161790565b90555b51600484015551600583015551600682015592519201805491516001600160a81b03199092166001600160a01b03939093169290921790151560a01b60ff60a01b16179055604080518181526010918101919091526f3cb4b2b6322fb83932b234b1ba34b7b760811b60608201528290600080516020612f73833981519152906080810193868201528033940390a3604051908152f35b015190508e80610949565b90601f198c169183600052816000209260005b818110611351575091600193918e60079b9c9d9e9f9410611338575b505050811b01905561125a565b015160001960f88460031b161c191690558d808061132b565b92938f60018192878601518155019501930161130f565b015190508d80610949565b90601f1983169184600052816000209260005b8181106113c257509084600195949392106113a9575b505050811b0190556111f2565b015160001960f88460031b161c191690558c808061139c565b92936020600181928786015181550195019301611386565b6110c09192506113f89060603d606011610e9f57610e8f818361269b565b5050919061108a565b61141a915060603d606011610e9f57610e8f818361269b565b50508461101a565b34610314576020366003190112610314576001600160a01b03611443612704565b16600052600460205260a06040600020600180831b0381541690600181015490600281015460046003830154920154926040519485526020850152604084015260608301526080820152f35b3461031457602036600319011261031457600435600254811015610314576114b8602091612819565b90549060031b1c604051908152f35b3461031457600036600319011261031457600080516020612f33833981519152546040516001600160a01b039091168152602090f35b34610314576040366003190112610314576004357f32fb666339873c88a042c4976476ff63b223b763dff430c8991ac6c1d680217760206024358360005260008252604060002060018060a01b03600582015460081c1633148015611588575b611566906129df565b611573606483111561293c565b816003820155600442910155604051908152a2005b50600080516020612f33833981519152546001600160a01b0316331461155d565b34610314576000366003190112610314576007546040516001600160a01b039091168152602090f35b3461031457604036600319011261031457600435602435801590811581036103145782600052600060205261163981600560406000200160018060a01b03815460081c1633148015611777575b611628906129df565b9060ff801983541691151516179055565b8061171b575b1561164e575061001b9061297b565b61165457005b60005b6002548082101561001b578261166c83612819565b90549060031b1c146116815750600101611657565b9091506000198101908111611705576116ac61169f6116c392612819565b90549060031b1c92612819565b819391549060031b91821b91600019901b19161790565b905560025480156116ef57600019016116db81612819565b8154906000199060031b1b19169055600255005b634e487b7160e01b600052603160045260246000fd5b634e487b7160e01b600052601160045260246000fd5b50604051826002548083526020830190600260005260206000209060005b81811061175e57505050916117538161175894038261269b565b612ca4565b1561163f565b8254845287945060209093019260019283019201611739565b50600080516020612f33833981519152546001600160a01b0316331461161f565b34610314576000366003190112610314576117b1612c6e565b600080516020612f3383398151915280546001600160a01b031981169091556000906001600160a01b03167f8be0079c531659141344cd1fd0a4f28419497f9722a3daafe3b4186f6b6457e08280a3005b34610314576000366003190112610314576020600954604051908152f35b3461031457602036600319011261031457600060c060405161184181612680565b60608152606060208201528260408201528260608201528260808201528260a08201520152600435600052600060205261192160406000206040519061188682612680565b6040516118978161021c81856125e1565b8252604051906118ae8261023f81600185016125e1565b60208301918252600281015491604084019283526003820154916060850192835260056004820154916080870192835201549261193460a087019360ff86161515855260c088019560018060a01b039060081c16865260405198899860208a525160e060208b01526101008a01906126df565b9051888203601f190160408a01526126df565b945160608701525160808601525160a085015251151560c0840152516001600160a01b031660e08301520390f35b34610314576080366003190112610314576004356001600160401b038111610314576119929036906004016127bf565b6024356001600160401b038111610314576119b19036906004016127bf565b90606435906008548210611cfc576119cc606483111561293c565b6040516020810190611a1b603482602086516119eb8188848b016126bc565b89519083016119ff82848301858e016126bc565b01013360601b815242601482015203601481018452018261269b565b5190209060405192611a2c84612680565b8184526020840194855260408401604435815260608501918252608085019442865260a08101926001845260c0820192338452866000526000602052604060002092518051906001600160401b038211610b4557611a9482611a8e87546125a7565b876128ea565b602090601f8311600114611c9557611ac4929160009183611c8a5750508160011b916000199060031b1c19161790565b83555b6001830198519889516001600160401b038111610b455760209a611aef826111b985546125a7565b8b90601f8311600114611bf25794611b7e94600594611b52858e9f9596611bd79d9b977f0ff30f8228817ffbe4b5919e588d08fece109126d7d4ad53294acc13735a57119f9d9b600092611be75750508160011b916000199060031b1c19161790565b90555b5160028401555160038301555160048201550192511515839060ff801983541691151516179055565b518154610100600160a81b03191660089190911b610100600160a81b031617905533600090815260018088526040909120805460ff19169091179055611bc38461297b565b6040519182916040835260408301906126df565b33878301520390a2604051908152f35b015190503880610949565b90601f1983169184600052816000209260005b818110611c735750946001858e9f957f0ff30f8228817ffbe4b5919e588d08fece109126d7d4ad53294acc13735a57119e9c9a95611b7e9a95611bd79f9d9960059b10611c5a575b505050811b019055611b55565b015160001960f88460031b161c19169055388080611c4d565b92938f600181928786015181550195019301611c05565b015190508c80610949565b90601f1983169186600052816000209260005b818110611ce45750908460019594939210611ccb575b505050811b018355611ac7565b015160001960f88460031b161c191690558b8080611cbe565b92936020600181928786015181550195019301611ca8565b60405162461bcd60e51b81526020600482015260166024820152754d6f64656c20616363757261637920746f6f206c6f7760501b6044820152606490fd5b34610314576000366003190112610314576020600854604051908152f35b34610314576000366003190112610314577f00000000000000000000000000000000000000000000000000000000000000006001600160a01b03163003611db1576020604051600080516020612f538339815191528152f35b63703e46dd60e11b60005260046000fd5b611dcb3661276c565b6001600160a01b037f000000000000000000000000000000000000000000000000000000000000000016308114908115611f78575b50611db157611e0d612c6e565b6040516352d1902d60e01b81526001600160a01b0383169290602081600481875afa60009181611f44575b50611e525783634c9c8ce360e01b60005260045260246000fd5b80600080516020612f53833981519152859203611f305750813b15611f1c57600080516020612f5383398151915280546001600160a01b031916821790557fbc7cd75a20ee27fd9adebab32041f755214dbc6bffa90cc0225b39da2e5c2d3b600080a2815115611f025760008083602061001b95519101845af43d15611efa573d91611edd8361271a565b92611eeb604051948561269b565b83523d6000602085013e612ed1565b606091612ed1565b505034611f0b57005b63b398979f60e01b60005260046000fd5b634c9c8ce360e01b60005260045260246000fd5b632a87526960e21b60005260045260246000fd5b9091506020813d602011611f70575b81611f606020938361269b565b8101031261031457519085611e38565b3d9150611f53565b600080516020612f53833981519152546001600160a01b03161415905083611e00565b3461031457600036600319011261031457611fb4612c6e565b600080808060018060a01b03600080516020612f3383398151915254164790828215611fe3575bf115610ea657005b506108fc611fdb565b34610314576000366003190112610314576020600a54604051908152f35b60e46120153661276c565b61202660099392935434101561284a565b606060018060a01b0360075416604051938480926352ee0b7760e01b825260006004830152846024830152600d60648301526c3ab9b2b92fb637b1b0ba34b7b760991b608483015260a06044830152601160a48301527018dc99591a5d17d85cdcd95cdcdb595b9d607a1b60c48301525afa908115610ea6576120ca926120e3926000916000916124aa575b506040519485936060602086015260808501906126df565b916040840152606083015203601f19810183528261269b565b6120ee6110ec6128b1565b9290600654926120fd846128db565b6006556040519261210d84612664565b8484526001600160a01b031660208401818152909361212a6128b1565b9260408201938452606082019081526080820185815260a083019089825260c084019242845260e0850196308852610100860196600188528b600052600360205260406000209651875560018060a01b03905116600187019060018060a01b03166001600160601b0360a01b8254161790556002860190518051906001600160401b038211610b45576121c1826111b985546125a7565b602090601f8311600114612443576121f1929160009183610aae5750508160011b916000199060031b1c19161790565b90555b51805160038601916001600160401b038211610b4557612218826111b985546125a7565b602090601f83116001146123d5579180612250926007999897969594600092610aae5750508160011b916000199060031b1c19161790565b90555b516004840155516005830155516006820155019160018060a01b039060018060a01b03905116166001600160601b0360a01b83541617825551151581549060ff60a01b9060a01b169060ff60a01b19161790558160005260046020526040600020936001850190815492816064039660648811611705577ffd32c6a7c09bea0525ce461a3ea31ae27b2ae4236b8529f20f70c632d8340c4f6040600080516020612f738339815191529560028994606461232860809960209f8f9d6123229161231b91612c5b565b918b612c5b565b90612a4a565b048093554260038201556004810161234081546128db565b90556102ee831061238f576001828201555b015482519182528b820152a26040519060408252600c60408301526b6372656469745f73636f726560a01b606083015287820152a3604051908152f35b61028a83106123a2578180820155612352565b61022683106123b657600382820155612352565b6101c283106123ca57600482820155612352565b600582820155612352565b90601f1983169184600052816000209260005b81811061242b575091600193918560079b9a999897969410612412575b505050811b019055612253565b015160001960f88460031b161c191690558e8080612405565b929360206001819287860151815501950193016123e8565b90601f1983169184600052816000209260005b8181106124925750908460019594939210612479575b505050811b0190556121f4565b015160001960f88460031b161c191690558e808061246c565b92936020600181928786015181550195019301612456565b90506124c5915060603d606011610e9f57610e8f818361269b565b9050866120b2565b34610314576020366003190112610314576004356000526003602052604060002080549060ff60018060a01b03600183015416936125128161021c81600287016125e1565b6040519261252e8461252781600385016125e1565b038561269b565b60048101549361257960058301549161256b60076006860154950154956040519a8b9a8b5260208b015261012060408b01526101208a01906126df565b9088820360608a01526126df565b94608087015260a086015260c085015260018060a01b03811660e085015260a01c1615156101008301520390f35b90600182811c921680156125d7575b60208310146125c157565b634e487b7160e01b600052602260045260246000fd5b91607f16916125b6565b600092918154916125f1836125a7565b8083529260018116908115612647575060011461260d57505050565b60009081526020812093945091925b83831061262d575060209250010190565b60018160209294939454838587010152019101919061261c565b915050602093945060ff929192191683830152151560051b010190565b61012081019081106001600160401b03821117610b4557604052565b60e081019081106001600160401b03821117610b4557604052565b90601f801991011681019081106001600160401b03821117610b4557604052565b60005b8381106126cf5750506000910152565b81810151838201526020016126bf565b906020916126f8815180928185528580860191016126bc565b601f01601f1916010190565b600435906001600160a01b038216820361031457565b6001600160401b038111610b4557601f01601f191660200190565b9291926127418261271a565b9161274f604051938461269b565b829481845281830111610314578281602093846000960137010152565b906040600319830112610314576004356001600160a01b03811681036103145791602435906001600160401b0382116103145780602383011215610314578160246127bc93600401359101612735565b90565b9080601f83011215610314578160206127bc93359101612735565b906040600319830112610314576004356001600160a01b03811681036103145791602435906001600160401b038211610314576127bc916004016127bf565b60025481101561283457600260005260206000200190600090565b634e487b7160e01b600052603260045260246000fd5b1561285157565b60405162461bcd60e51b815260206004820152601b60248201527f496e73756666696369656e742070726564696374696f6e2066656500000000006044820152606490fd5b90816060910312610314578051916040602083015192015190565b604051906128c060408361269b565b600c82526b6372656469745f73636f726560a01b6020830152565b60001981146117055760010190565b601f82116128f757505050565b6000526020600020906020601f840160051c83019310612932575b601f0160051c01905b818110612926575050565b6000815560010161291b565b9091508190612912565b1561294357565b60405162461bcd60e51b815260206004820152601060248201526f496e76616c696420616363757261637960801b6044820152606490fd5b60025468010000000000000000811015610b45576001810160025560006002548210156129cb57600290527f405787fa12a823e0f2b7631cc41b3ba8828b3321ca811111fa75cd3aa3bb5ace0155565b634e487b7160e01b81526032600452602490fd5b156129e657565b60405162461bcd60e51b815260206004820152600e60248201526d139bdd08185d5d1a1bdc9a5e995960921b6044820152606490fd5b60405190612a2b60408361269b565b601082526f3cb4b2b6322fb83932b234b1ba34b7b760811b6020830152565b9190820180921161170557565b6001600160a01b03168015612ab757600080516020612f3383398151915280546001600160a01b0319811683179091556001600160a01b03167f8be0079c531659141344cd1fd0a4f28419497f9722a3daafe3b4186f6b6457e0600080a3565b631e4fbdf760e01b600052600060045260246000fd5b91909160009060009360008081938290600254945b858310612b445750505081158015612afe575b50505050509190565b91939650919350612b2e57600160ff1b81146000198314166117055705928115612b2e5704913880808080612af5565b634e487b7160e01b600052601260045260246000fd5b9091959392612b5287612819565b90549060031b1c60005260006020526040600020604051612b7281612680565b604051612b838161021c81866125e1565b8152604051612b998161021c81600187016125e1565b602082015260028201546040820152600382015490600560608201938385526004810154608084015201549060c060ff83161592831560a084015260018060a01b039060081c16910152612c4e57612bf2908486612cd9565b9051918282029160008112600160ff1b8514166117055780830584149015171561170557600082820192831291129080158216911516176117055781612c3e600193612c449397612a4a565b96612a4a565b965b019190612ae2565b5050929395600190612c46565b8181029291811591840414171561170557565b600080516020612f33833981519152546001600160a01b03163303612c8f57565b63118cdaa760e01b6000523360045260246000fd5b9060005b8251811015612cd1578160208260051b8501015114612cc957600101612ca8565b505050600190565b505050600090565b919091604051612d2060208281612cf981830196878151938492016126bc565b810195828851818a0198612d10828483018c6126bc565b010190815203808452018261269b565b519020916040516020810190612d506020828551612d3f81878a6126bc565b81010301601f19810183528261269b565b51902060405160208101906b6372656469745f73636f726560a01b8252600c8152612d7c602c8261269b565b51902003612d9b575050610227900661012c018061012c116117055790565b612db760206040518093612d3f838301968792519283916126bc565b51902060405160208101906f3cb4b2b6322fb83932b234b1ba34b7b760811b825260108152612de760308261269b565b51902003612e015760149006600101806001116117055790565b6065900690565b60018060a01b03166000526004602052604060002060405160a08101908082106001600160401b03831117610b455760809160405260018060a01b038354168152600460018401549384602084015260028101546040840152600381015460608401520154918291015215612e9d57606481029080820460641490151715611705576103529004606403606481116117055790565b50603290565b60ff600080516020612f938339815191525460401c1615612ec057565b631afcd79f60e31b60005260046000fd5b90612ef75750805115612ee657602081519101fd5b63d6bda27560e01b60005260046000fd5b81511580612f29575b612f08575090565b639996b31560e01b60009081526001600160a01b0391909116600452602490fd5b50803b15612f0056fe9016d09d72d40fdae2fd8ceac6b6234c7706214fd39c1cd1e609a0528c199300360894a13ba1a3210667c828492db98dca3e2076cc3735a920a3ca505d382bbc77ca097acc32ebdac0e189a29a011d2371843e4ee2e20d134266166e0430740ef0c57e16840df040f15088dc2f81fe391c3923bec73e23a9662efc9c229c6a00a26469706673582212203b4b62726cbbda1d708d2a699e18b211f222e1f17df2819bdc7bd4691c46e8df64736f6c634300081c0033",
  "linkReferences": {},
  "deployedLinkReferences": {}
}