{"contracts/AgriCredit.sol":{"AgriCredit":{"abi":[{"inputs":[],"name":"AccessControlBadConfirmation","type":"error"},{"inputs":[{"internalType":"address","name":"account","type":"address"},{"internalType":"bytes32","name":"neededRole","type":"bytes32"}],"name":"AccessControlUnauthorizedAccount","type":"error"},{"inputs":[{"internalType":"address","name":"target","type":"address"}],"name":"AddressEmptyCode","type":"error"},{"inputs":[{"internalType":"address","name":"implementation","type":"address"}],"name":"ERC1967InvalidImplementation","type":"error"},{"inputs":[],"name":"ERC1967NonPayable","type":"error"},{"inputs":[{"internalType":"address","name":"spender","type":"address"},{"internalType":"uint256","name":"allowance","type":"uint256"},{"internalType":"uint256","name":"needed","type":"uint256"}],"name":"ERC20InsufficientAllowance","type":"error"},{"inputs":[{"internalType":"address","name":"sender","type":"address"},{"internalType":"uint256","name":"balance","type":"uint256"},{"internalType":"uint256","name":"needed","type":"uint256"}],"name":"ERC20InsufficientBalance","type":"error"},{"inputs":[{"internalType":"address","name":"approver","type":"address"}],"name":"ERC20InvalidApprover","type":"error"},{"inputs":[{"internalType":"address","name":"receiver","type":"address"}],"name":"ERC20InvalidReceiver","type":"error"},{"inputs":[{"internalType":"address","name":"sender","type":"address"}],"name":"ERC20InvalidSender","type":"error"},{"inputs":[{"internalType":"address","name":"spender","type":"address"}],"name":"ERC20InvalidSpender","type":"error"},{"inputs":[],"name":"EnforcedPause","type":"error"},{"inputs":[],"name":"ExpectedPause","type":"error"},{"inputs":[],"name":"FailedCall","type":"error"},{"inputs":[],"name":"InvalidInitialization","type":"error"},{"inputs":[],"name":"NotInitializing","type":"error"},{"inputs":[{"internalType":"address","name":"owner","type":"address"}],"name":"OwnableInvalidOwner","type":"error"},{"inputs":[{"internalType":"address","name":"account","type":"address"}],"name":"OwnableUnauthorizedAccount","type":"error"},{"inputs":[],"name":"ReentrancyGuardReentrantCall","type":"error"},{"inputs":[],"name":"UUPSUnauthorizedCallContext","type":"error"},{"inputs":[{"internalType":"bytes32","name":"slot","type":"bytes32"}],"name":"UUPSUnsupportedProxiableUUID","type":"error"},{"anonymous":false,"inputs":[{"indexed":true,"internalType":"address","name":"owner","type":"address"},{"indexed":true,"internalType":"address","name":"spender","type":"address"},{"indexed":false,"internalType":"uint256","name":"value","type":"uint256"}],"name":"Approval","type":"event"},{"anonymous":false,"inputs":[{"indexed":true,"internalType":"address","name":"account","type":"address"}],"name":"Blacklisted","type":"event"},{"anonymous":false,"inputs":[{"indexed":true,"internalType":"address","name":"by","type":"address"}],"name":"EmergencyPaused","type":"event"},{"anonymous":false,"inputs":[{"indexed":true,"internalType":"address","name":"by","type":"address"}],"name":"EmergencyUnpaused","type":"event"},{"anonymous":false,"inputs":[{"indexed":true,"internalType":"address","name":"governance","type":"address"}],"name":"GovernanceContractUpdated","type":"event"},{"anonymous":false,"inputs":[{"indexed":false,"internalType":"uint64","name":"version","type":"uint64"}],"name":"Initialized","type":"event"},{"anonymous":false,"inputs":[{"indexed":true,"internalType":"address","name":"previousOwner","type":"address"},{"indexed":true,"internalType":"address","name":"newOwner","type":"address"}],"name":"OwnershipTransferred","type":"event"},{"anonymous":false,"inputs":[{"indexed":false,"internalType":"address","name":"account","type":"address"}],"name":"Paused","type":"event"},{"anonymous":false,"inputs":[{"indexed":false,"internalType":"uint256","name":"threshold","type":"uint256"}],"name":"ProposalThresholdUpdated","type":"event"},{"anonymous":false,"inputs":[{"indexed":true,"internalType":"bytes32","name":"role","type":"bytes32"},{"indexed":true,"internalType":"bytes32","name":"previousAdminRole","type":"bytes32"},{"indexed":true,"internalType":"bytes32","name":"newAdminRole","type":"bytes32"}],"name":"RoleAdminChanged","type":"event"},{"anonymous":false,"inputs":[{"indexed":true,"internalType":"bytes32","name":"role","type":"bytes32"},{"indexed":true,"internalType":"address","name":"account","type":"address"},{"indexed":true,"internalType":"address","name":"sender","type":"address"}],"name":"RoleGranted","type":"event"},{"anonymous":false,"inputs":[{"indexed":true,"internalType":"bytes32","name":"role","type":"bytes32"},{"indexed":true,"internalType":"address","name":"account","type":"address"},{"indexed":true,"internalType":"address","name":"sender","type":"address"}],"name":"RoleRevoked","type":"event"},{"anonymous":false,"inputs":[{"indexed":false,"internalType":"uint256","name":"newRate","type":"uint256"}],"name":"StakingRewardRateUpdated","type":"event"},{"anonymous":false,"inputs":[{"indexed":true,"internalType":"address","name":"user","type":"address"},{"indexed":false,"internalType":"uint256","name":"amount","type":"uint256"}],"name":"StakingRewardsClaimed","type":"event"},{"anonymous":false,"inputs":[{"indexed":true,"internalType":"address","name":"burner","type":"address"},{"indexed":false,"internalType":"uint256","name":"amount","type":"uint256"}],"name":"TokensBurned","type":"event"},{"anonymous":false,"inputs":[{"indexed":true,"internalType":"address","name":"user","type":"address"},{"indexed":false,"internalType":"uint256","name":"amount","type":"uint256"},{"indexed":false,"internalType":"uint256","name":"lockPeriod","type":"uint256"}],"name":"TokensStaked","type":"event"},{"anonymous":false,"inputs":[{"indexed":true,"internalType":"address","name":"user","type":"address"},{"indexed":false,"internalType":"uint256","name":"amount","type":"uint256"},{"indexed":false,"internalType":"uint256","name":"rewards","type":"uint256"}],"name":"TokensUnstaked","type":"event"},{"anonymous":false,"inputs":[{"indexed":true,"internalType":"address","name":"from","type":"address"},{"indexed":true,"internalType":"address","name":"to","type":"address"},{"indexed":false,"internalType":"uint256","name":"value","type":"uint256"}],"name":"Transfer","type":"event"},{"anonymous":false,"inputs":[{"indexed":true,"internalType":"address","name":"account","type":"address"},{"indexed":false,"internalType":"uint256","name":"limit","type":"uint256"}],"name":"TransferLimitUpdated","type":"event"},{"anonymous":false,"inputs":[{"indexed":true,"internalType":"address","name":"account","type":"address"}],"name":"Unblacklisted","type":"event"},{"anonymous":false,"inputs":[{"indexed":false,"internalType":"address","name":"account","type":"address"}],"name":"Unpaused","type":"event"},{"anonymous":false,"inputs":[{"indexed":true,"internalType":"address","name":"implementation","type":"address"}],"name":"Upgraded","type":"event"},{"anonymous":false,"inputs":[{"indexed":true,"internalType":"uint256","name":"vestingId","type":"uint256"},{"indexed":true,"internalType":"address","name":"beneficiary","type":"address"},{"indexed":false,"internalType":"uint256","name":"amount","type":"uint256"}],"name":"VestedTokensReleased","type":"event"},{"anonymous":false,"inputs":[{"indexed":true,"internalType":"uint256","name":"vestingId","type":"uint256"},{"indexed":true,"internalType":"address","name":"beneficiary","type":"address"},{"indexed":false,"internalType":"uint256","name":"amount","type":"uint256"}],"name":"VestingRevoked","type":"event"},{"anonymous":false,"inputs":[{"indexed":true,"internalType":"uint256","name":"vestingId","type":"uint256"},{"indexed":true,"internalType":"address","name":"beneficiary","type":"address"},{"indexed":false,"internalType":"uint256","name":"amount","type":"uint256"}],"name":"VestingScheduleCreated","type":"event"},{"anonymous":false,"inputs":[{"indexed":true,"internalType":"address","name":"delegator","type":"address"},{"indexed":true,"internalType":"address","name":"delegate","type":"address"}],"name":"VotingPowerDelegated","type":"event"},{"inputs":[],"name":"BURNER_ROLE","outputs":[{"internalType":"bytes32","name":"","type":"bytes32"}],"stateMutability":"view","type":"function"},{"inputs":[],"name":"DEFAULT_ADMIN_ROLE","outputs":[{"internalType":"bytes32","name":"","type":"bytes32"}],"stateMutability":"view","type":"function"},{"inputs":[],"name":"GOVERNANCE_ROLE","outputs":[{"internalType":"bytes32","name":"","type":"bytes32"}],"stateMutability":"view","type":"function"},{"inputs":[],"name":"INITIAL_SUPPLY","outputs":[{"internalType":"uint256","name":"","type":"uint256"}],"stateMutability":"view","type":"function"},{"inputs":[],"name":"MAX_SUPPLY","outputs":[{"internalType":"uint256","name":"","type":"uint256"}],"stateMutability":"view","type":"function"},{"inputs":[],"name":"MINTER_ROLE","outputs":[{"internalType":"bytes32","name":"","type":"bytes32"}],"stateMutability":"view","type":"function"},{"inputs":[],"name":"PAUSER_ROLE","outputs":[{"internalType":"bytes32","name":"","type":"bytes32"}],"stateMutability":"view","type":"function"},{"inputs":[],"name":"TRANSFER_COOLDOWN","outputs":[{"internalType":"uint256","name":"","type":"uint256"}],"stateMutability":"view","type":"function"},{"inputs":[],"name":"UPGRADE_INTERFACE_VERSION","outputs":[{"internalType":"string","name":"","type":"string"}],"stateMutability":"view","type":"function"},{"inputs":[{"internalType":"address","name":"owner","type":"address"},{"internalType":"address","name":"spender","type":"address"}],"name":"allowance","outputs":[{"internalType":"uint256","name":"","type":"uint256"}],"stateMutability":"view","type":"function"},{"inputs":[{"internalType":"address","name":"spender","type":"address"},{"internalType":"uint256","name":"value","type":"uint256"}],"name":"approve","outputs":[{"internalType":"bool","name":"","type":"bool"}],"stateMutability":"nonpayable","type":"function"},{"inputs":[{"internalType":"address","name":"account","type":"address"}],"name":"balanceOf","outputs":[{"internalType":"uint256","name":"","type":"uint256"}],"stateMutability":"view","type":"function"},{"inputs":[{"internalType":"address[]","name":"recipients","type":"address[]"},{"internalType":"uint256[]","name":"amounts","type":"uint256[]"}],"name":"batchTransfer","outputs":[],"stateMutability":"nonpayable","type":"function"},{"inputs":[{"internalType":"address","name":"account","type":"address"}],"name":"blacklist","outputs":[],"stateMutability":"nonpayable","type":"function"},{"inputs":[{"internalType":"address","name":"","type":"address"}],"name":"blacklisted","outputs":[{"internalType":"bool","name":"","type":"bool"}],"stateMutability":"view","type":"function"},{"inputs":[{"internalType":"uint256","name":"amount","type":"uint256"}],"name":"burn","outputs":[],"stateMutability":"nonpayable","type":"function"},{"inputs":[{"internalType":"address","name":"account","type":"address"},{"internalType":"uint256","name":"amount","type":"uint256"}],"name":"burnFrom","outputs":[],"stateMutability":"nonpayable","type":"function"},{"inputs":[{"internalType":"address","name":"account","type":"address"}],"name":"canPropose","outputs":[{"internalType":"bool","name":"","type":"bool"}],"stateMutability":"view","type":"function"},{"inputs":[],"name":"claimStakingRewards","outputs":[],"stateMutability":"nonpayable","type":"function"},{"inputs":[{"internalType":"address","name":"beneficiary","type":"address"},{"internalType":"uint256","name":"amount","type":"uint256"},{"internalType":"uint256","name":"startTime","type":"uint256"},{"internalType":"uint256","name":"duration","type":"uint256"},{"internalType":"uint256","name":"cliffDuration","type":"uint256"},{"internalType":"bool","name":"revocable","type":"bool"}],"name":"createVestingSchedule","outputs":[{"internalType":"uint256","name":"","type":"uint256"}],"stateMutability":"nonpayable","type":"function"},{"inputs":[],"name":"decimals","outputs":[{"internalType":"uint8","name":"","type":"uint8"}],"stateMutability":"view","type":"function"},{"inputs":[{"internalType":"address","name":"delegate","type":"address"}],"name":"delegateVotingPower","outputs":[],"stateMutability":"nonpayable","type":"function"},{"inputs":[],"name":"emergencyPause","outputs":[],"stateMutability":"nonpayable","type":"function"},{"inputs":[],"name":"emergencyUnpause","outputs":[],"stateMutability":"nonpayable","type":"function"},{"inputs":[{"internalType":"address","name":"token","type":"address"},{"internalType":"uint256","name":"amount","type":"uint256"}],"name":"emergencyWithdraw","outputs":[],"stateMutability":"nonpayable","type":"function"},{"inputs":[{"internalType":"address","name":"account","type":"address"}],"name":"getRemainingTransferLimit","outputs":[{"internalType":"uint256","name":"","type":"uint256"}],"stateMutability":"view","type":"function"},{"inputs":[{"internalType":"bytes32","name":"role","type":"bytes32"}],"name":"getRoleAdmin","outputs":[{"internalType":"bytes32","name":"","type":"bytes32"}],"stateMutability":"view","type":"function"},{"inputs":[{"internalType":"address","name":"user","type":"address"}],"name":"getStakingInfo","outputs":[{"internalType":"uint256","name":"stakedAmount","type":"uint256"},{"internalType":"uint256","name":"lockPeriod","type":"uint256"},{"internalType":"uint256","name":"endTime","type":"uint256"},{"internalType":"uint256","name":"pendingRewards","type":"uint256"}],"stateMutability":"view","type":"function"},{"inputs":[{"internalType":"address","name":"account","type":"address"}],"name":"getTransferLimit","outputs":[{"internalType":"uint256","name":"","type":"uint256"}],"stateMutability":"view","type":"function"},{"inputs":[{"internalType":"address","name":"account","type":"address"}],"name":"getVotingPower","outputs":[{"internalType":"uint256","name":"","type":"uint256"}],"stateMutability":"view","type":"function"},{"inputs":[],"name":"globalTransferLimit","outputs":[{"internalType":"uint256","name":"","type":"uint256"}],"stateMutability":"view","type":"function"},{"inputs":[],"name":"governanceContract","outputs":[{"internalType":"address","name":"","type":"address"}],"stateMutability":"view","type":"function"},{"inputs":[{"internalType":"bytes32","name":"role","type":"bytes32"},{"internalType":"address","name":"account","type":"address"}],"name":"grantRole","outputs":[],"stateMutability":"nonpayable","type":"function"},{"inputs":[{"internalType":"bytes32","name":"role","type":"bytes32"},{"internalType":"address","name":"account","type":"address"}],"name":"hasRole","outputs":[{"internalType":"bool","name":"","type":"bool"}],"stateMutability":"view","type":"function"},{"inputs":[{"internalType":"address","name":"_governanceContract","type":"address"}],"name":"initialize","outputs":[],"stateMutability":"nonpayable","type":"function"},{"inputs":[{"internalType":"address","name":"account","type":"address"}],"name":"isBlacklisted","outputs":[{"internalType":"bool","name":"","type":"bool"}],"stateMutability":"view","type":"function"},{"inputs":[],"name":"lastRewardUpdate","outputs":[{"internalType":"uint256","name":"","type":"uint256"}],"stateMutability":"view","type":"function"},{"inputs":[{"internalType":"address","name":"","type":"address"}],"name":"lastTransferTime","outputs":[{"internalType":"uint256","name":"","type":"uint256"}],"stateMutability":"view","type":"function"},{"inputs":[{"internalType":"address","name":"to","type":"address"},{"internalType":"uint256","name":"amount","type":"uint256"}],"name":"mint","outputs":[],"stateMutability":"nonpayable","type":"function"},{"inputs":[],"name":"name","outputs":[{"internalType":"string","name":"","type":"string"}],"stateMutability":"view","type":"function"},{"inputs":[],"name":"nextVestingId","outputs":[{"internalType":"uint256","name":"","type":"uint256"}],"stateMutability":"view","type":"function"},{"inputs":[],"name":"owner","outputs":[{"internalType":"address","name":"","type":"address"}],"stateMutability":"view","type":"function"},{"inputs":[],"name":"pause","outputs":[],"stateMutability":"nonpayable","type":"function"},{"inputs":[],"name":"paused","outputs":[{"internalType":"bool","name":"","type":"bool"}],"stateMutability":"view","type":"function"},{"inputs":[],"name":"proposalThreshold","outputs":[{"internalType":"uint256","name":"","type":"uint256"}],"stateMutability":"view","type":"function"},{"inputs":[],"name":"proxiableUUID","outputs":[{"internalType":"bytes32","name":"","type":"bytes32"}],"stateMutability":"view","type":"function"},{"inputs":[{"internalType":"uint256","name":"vestingId","type":"uint256"}],"name":"releaseVestedTokens","outputs":[],"stateMutability":"nonpayable","type":"function"},{"inputs":[],"name":"renounceOwnership","outputs":[],"stateMutability":"nonpayable","type":"function"},{"inputs":[{"internalType":"bytes32","name":"role","type":"bytes32"},{"internalType":"address","name":"callerConfirmation","type":"address"}],"name":"renounceRole","outputs":[],"stateMutability":"nonpayable","type":"function"},{"inputs":[{"internalType":"bytes32","name":"role","type":"bytes32"},{"internalType":"address","name":"account","type":"address"}],"name":"revokeRole","outputs":[],"stateMutability":"nonpayable","type":"function"},{"inputs":[{"internalType":"uint256","name":"vestingId","type":"uint256"}],"name":"revokeVesting","outputs":[],"stateMutability":"nonpayable","type":"function"},{"inputs":[],"name":"rewardPerTokenStored","outputs":[{"internalType":"uint256","name":"","type":"uint256"}],"stateMutability":"view","type":"function"},{"inputs":[{"internalType":"uint256","name":"limit","type":"uint256"}],"name":"setGlobalTransferLimit","outputs":[],"stateMutability":"nonpayable","type":"function"},{"inputs":[{"internalType":"address","name":"_governance","type":"address"}],"name":"setGovernanceContract","outputs":[],"stateMutability":"nonpayable","type":"function"},{"inputs":[{"internalType":"uint256","name":"threshold","type":"uint256"}],"name":"setProposalThreshold","outputs":[],"stateMutability":"nonpayable","type":"function"},{"inputs":[{"internalType":"uint256","name":"newRate","type":"uint256"}],"name":"setStakingRewardRate","outputs":[],"stateMutability":"nonpayable","type":"function"},{"inputs":[{"internalType":"address","name":"account","type":"address"},{"internalType":"uint256","name":"limit","type":"uint256"}],"name":"setTransferLimit","outputs":[],"stateMutability":"nonpayable","type":"function"},{"inputs":[{"internalType":"uint256","name":"amount","type":"uint256"},{"internalType":"uint256","name":"lockPeriod","type":"uint256"},{"internalType":"bool","name":"autoCompound","type":"bool"}],"name":"stakeTokens","outputs":[],"stateMutability":"nonpayable","type":"function"},{"inputs":[{"internalType":"address","name":"","type":"address"}],"name":"stakingPositions","outputs":[{"internalType":"uint256","name":"amount","type":"uint256"},{"internalType":"uint256","name":"startTime","type":"uint256"},{"internalType":"uint256","name":"lockPeriod","type":"uint256"},{"internalType":"uint256","name":"rewardDebt","type":"uint256"},{"internalType":"bool","name":"autoCompound","type":"bool"}],"stateMutability":"view","type":"function"},{"inputs":[],"name":"stakingRewardRate","outputs":[{"internalType":"uint256","name":"","type":"uint256"}],"stateMutability":"view","type":"function"},{"inputs":[{"internalType":"bytes4","name":"interfaceId","type":"bytes4"}],"name":"supportsInterface","outputs":[{"internalType":"bool","name":"","type":"bool"}],"stateMutability":"view","type":"function"},{"inputs":[],"name":"symbol","outputs":[{"internalType":"string","name":"","type":"string"}],"stateMutability":"view","type":"function"},{"inputs":[],"name":"totalStaked","outputs":[{"internalType":"uint256","name":"","type":"uint256"}],"stateMutability":"view","type":"function"},{"inputs":[],"name":"totalSupply","outputs":[{"internalType":"uint256","name":"","type":"uint256"}],"stateMutability":"view","type":"function"},{"inputs":[],"name":"totalVested","outputs":[{"internalType":"uint256","name":"","type":"uint256"}],"stateMutability":"view","type":"function"},{"inputs":[{"internalType":"address","name":"to","type":"address"},{"internalType":"uint256","name":"value","type":"uint256"}],"name":"transfer","outputs":[{"internalType":"bool","name":"","type":"bool"}],"stateMutability":"nonpayable","type":"function"},{"inputs":[{"internalType":"address","name":"from","type":"address"},{"internalType":"address","name":"to","type":"address"},{"internalType":"uint256","name":"value","type":"uint256"}],"name":"transferFrom","outputs":[{"internalType":"bool","name":"","type":"bool"}],"stateMutability":"nonpayable","type":"function"},{"inputs":[{"internalType":"address","name":"","type":"address"}],"name":"transferLimits","outputs":[{"internalType":"uint256","name":"","type":"uint256"}],"stateMutability":"view","type":"function"},{"inputs":[{"internalType":"address","name":"newOwner","type":"address"}],"name":"transferOwnership","outputs":[],"stateMutability":"nonpayable","type":"function"},{"inputs":[{"internalType":"address","name":"to","type":"address"},{"internalType":"uint256","name":"amount","type":"uint256"},{"internalType":"string","name":"memo","type":"string"}],"name":"transferWithMemo","outputs":[{"internalType":"bool","name":"","type":"bool"}],"stateMutability":"nonpayable","type":"function"},{"inputs":[{"internalType":"address","name":"account","type":"address"}],"name":"unblacklist","outputs":[],"stateMutability":"nonpayable","type":"function"},{"inputs":[],"name":"unpause","outputs":[],"stateMutability":"nonpayable","type":"function"},{"inputs":[],"name":"unstakeTokens","outputs":[],"stateMutability":"nonpayable","type":"function"},{"inputs":[{"internalType":"address","name":"newImplementation","type":"address"},{"internalType":"bytes","name":"data","type":"bytes"}],"name":"upgradeToAndCall","outputs":[],"stateMutability":"payable","type":"function"},{"inputs":[{"internalType":"uint256","name":"vestingId","type":"uint256"}],"name":"vestedAmount","outputs":[{"internalType":"uint256","name":"","type":"uint256"}],"stateMutability":"view","type":"function"},{"inputs":[{"internalType":"uint256","name":"","type":"uint256"}],"name":"vestingSchedules","outputs":[{"internalType":"address","name":"beneficiary","type":"address"},{"internalType":"uint256","name":"totalAmount","type":"uint256"},{"internalType":"uint256","name":"releasedAmount","type":"uint256"},{"internalType":"uint256","name":"startTime","type":"uint256"},{"internalType":"uint256","name":"duration","type":"uint256"},{"internalType":"uint256","name":"cliffDuration","type":"uint256"},{"internalType":"bool","name":"revocable","type":"bool"},{"internalType":"bool","name":"revoked","type":"bool"}],"stateMutability":"view","type":"function"}],"evm":{"bytecode":{"linkReferences":{},"object":"60a08060405234602957306080526140a0908161002f8239608051818181612291015261240d0152f35b600080fdfe608080604052600436101561001357600080fd5b60003560e01c90816301ffc9a714612c775750806306fdde0314612bb5578063095ea7b314612b085780630d2d8a3114612ace5780631129753f14612a5d57806318160ddd14612a32578063199cbc5414612a145780631bfce853146129f657806323141641146129d357806323b872dd1461299b578063246474551461297a578063248a9ca31461295c578063282c51f3146129215780632f2ff15d146128f05780632ff2e9dc146128cb578063313ce567146128af57806332cb6b0c1461288857806336568abe146128425780633f4ba83a146127d057806340c10f191461271157806342966c68146126c557806342b4632e1461269a578063495f3d271461267c5780634a4e3bd5146125d35780634f1ef286146123be5780634f3fc2df146123a057806351858e271461230657806352820f62146122e857806352d1902d1461227e5780635c975abb1461224e5780635edf9e611461222b57806369efe471146121f15780636b69e05b146121615780636d3cbe21146120d957806370a0823114612092578063715018a61461202857806375e3661e14611fc257806379cc679014611ee85780637a4a341214611ecb5780637d2aeb8a14611d495780638148580d14611cde578063817b1cd214611cc05780638456cb5914611c4c57806388d695b214611a675780638da5cb5b14611a3157806391d14854146119d757806395ccea67146118d557806395d89b41146117e2578063a217fddf146117c6578063a3c2710d146117a8578063a5ce413b14611669578063a9059cbb14611643578063aa4704f3146114c1578063aaad93211461121c578063ad3cb1cc146111d9578063b172b222146111b0578063b58131b014611192578063b7d6851914611044578063b9e2c1e014610e21578063bb4d443614610df6578063c4d66de81461085a578063d53913931461081f578063d547741f146107e9578063dbac26e914610363578063dd128200146106c8578063dd62ed3e1461067f578063df136d6514610661578063e63ab1e914610626578063ece40cc1146105da578063f0b6e33f1461056f578063f2fde38b14610544578063f36c8f5c14610509578063f3ff955a14610474578063f7334ee214610410578063f9f92be4146103a75763fe575a871461036357600080fd5b346103a25760203660031901126103a2576001600160a01b03610384612d13565b166000526000602052602060ff604060002054166040519015158152f35b600080fd5b346103a25760203660031901126103a2576103c0612d13565b6103c86139ea565b6001600160a01b03166000818152602081905260408120805460ff191660011790557fffa4e6181777692565cf28528fc88fd1516ea86b56da075235fa575af6a4b8559080a2005b346103a25760603660031901126103a257610429612d13565b6044359067ffffffffffffffff82116103a257366023830112156103a25761045e610469923690602481600401359101612dd3565b50602435903361376e565b602060405160018152f35b346103a25760203660031901126103a25761048d612d13565b600c546001600160a01b0316156104cf576001600160a01b0316337fbfa9be947969a7d4f47eceedb207379702a5e9e8b82ec09d564da75195f8689e600080a3005b60405162461bcd60e51b815260206004820152601260248201527111dbdd995c9b985b98d9481b9bdd081cd95d60721b6044820152606490fd5b346103a25760003660031901126103a25760206040517f71840dc4906352362b0cdaf79870196c8e42acafade72d5d5a6d59291253ceb18152f35b346103a25760203660031901126103a25761056d610560612d13565b6105686139ea565b6130b1565b005b346103a25760403660031901126103a257610588612d13565b7f19fba008e9d79eb8a8325333a2a40c0eeb1cad9d3db2e3751def35008bc9f78f6020602435926105b76139ea565b6001600160a01b03166000818152600283526040908190208590555193845292a2005b346103a25760203660031901126103a2577f75176781f69c55e26fee85d480452b0b9038b9428704bb7b232fc1c638bbf80360206004356106196131ec565b80600d55604051908152a1005b346103a25760003660031901126103a25760206040517f65d7a28e3265b37a6474929f336521b332c1681b933f6cb9f3376673440d862a8152f35b346103a25760003660031901126103a2576020600854604051908152f35b346103a25760403660031901126103a257610698612d13565b6106a96106a3612d29565b91612d3f565b9060018060a01b03166000526020526020604060002054604051908152f35b346103a25760203660031901126103a2576004356106e46131ec565b80600052600360205260406000209060068201805460ff8116156107b45760ff8160081c1661077d576101009061ff0019161790557f740e00656bffeb4991e0c72cb99c21c504d644c1f90eaff0d75112260f588917602061074f6001850154600286015490612e69565b9361075c85600b54612e69565b600b556107698530613c14565b546040519485526001600160a01b031693a3005b60405162461bcd60e51b815260206004820152600f60248201526e105b1c9958591e481c995d9bdad959608a1b6044820152606490fd5b60405162461bcd60e51b815260206004820152600d60248201526c4e6f74207265766f6361626c6560981b6044820152606490fd5b346103a25760403660031901126103a25761056d600435610808612d29565b9061081a61081582612fb6565b61325e565b613a20565b346103a25760003660031901126103a25760206040517f9f2df0fed2c77648de5860a4cc508cd0818c85b8b8a1ab4ceeef8d981c8956a68152f35b346103a25760203660031901126103a257610873612d13565b60008051602061404b8339815191525460ff8160401c16159067ffffffffffffffff811680159081610dee575b6001149081610de4575b159081610ddb575b50610dca5767ffffffffffffffff19811660011760008051602061404b8339815191525581610d9d575b506040908151926108ed8385612d95565b601084526f20b3b934a1b932b234ba102a37b5b2b760811b60208501528251936109178486612d95565b60048552634147524360e01b6020860152610930613e7b565b610938613e7b565b80519067ffffffffffffffff8211610c7d578190610964600080516020613f2b83398151915254612e22565b601f8111610d20575b50602090601f8311600114610c9e57600092610c93575b50508160011b916000199060031b1c191617600080516020613f2b833981519152555b835167ffffffffffffffff8111610c7d576109d0600080516020613f6b83398151915254612e22565b601f8111610c0b575b50602094601f8211600114610b8a57948192939495600092610b7f575b50508160011b916000199060031b1c191617600080516020613f6b833981519152555b610a21613e7b565b610a29613e7b565b610a31613e7b565b610a39613e7b565b610a42336130b1565b610a4a613e7b565b610a52613e7b565b610a5a613e7b565b600160008051602061402b83398151915255610a74613e7b565b3315610b6957610a8e69d3c21bcecceda100000033613d7d565b610a9733613364565b50610aa1336133fe565b50610aab336134ba565b50610ab533613576565b50610abf816132a8565b5060018060a01b03166bffffffffffffffffffffffff60a01b600c541617600c554260095569152d02c7e14af68000006005556103206006556001600a5569152d02c7e14af6800000600d55610b1157005b60207fc7f505b2f371ae2175ee4913f4499e1f2633a7b5936321eed1cdaeb6115181d29168ff00000000000000001960008051602061404b833981519152541660008051602061404b833981519152555160018152a1005b63ec442f0560e01b600052600060045260246000fd5b0151905085806109f6565b601f19821695600080516020613f6b833981519152600052806000209160005b888110610bf357508360019596979810610bda575b505050811b01600080516020613f6b83398151915255610a19565b015160001960f88460031b161c19169055858080610bbf565b91926020600181928685015181550194019201610baa565b600080516020613f6b8339815191526000527f46a2803e59a4de4e7a4c574b1243f25977ac4c77d5a1a4a609b5394cebb4a2aa601f830160051c81019160208410610c73575b601f0160051c01905b818110610c6757506109d9565b60008155600101610c5a565b9091508190610c51565b634e487b7160e01b600052604160045260246000fd5b015190508680610984565b600080516020613f2b83398151915260009081528281209350601f198516905b818110610d085750908460019594939210610cef575b505050811b01600080516020613f2b833981519152556109a7565b015160001960f88460031b161c19169055868080610cd4565b92936020600181928786015181550195019301610cbe565b600080516020613f2b8339815191526000529091507f2ae08a8e29253f69ac5d979a101956ab8f8d9d7ded63fa7a83b16fc47648eab0601f840160051c81019160208510610d93575b90601f859493920160051c01905b818110610d84575061096d565b60008155849350600101610d77565b9091508190610d69565b68ffffffffffffffffff1916680100000000000000011760008051602061404b83398151915255826108dc565b63f92ee8a960e01b60005260046000fd5b905015846108b2565b303b1591506108aa565b8391506108a0565b346103a25760203660031901126103a2576020610e19610e14612d13565b613077565b604051908152f35b346103a25760603660031901126103a25760043560243560443580151581036103a257610e4c613adb565b610e54613bea565b821561100a5733600052600080516020613f4b8339815191526020528260406000205410610fce5762278d0082101580610fc0575b15610f8557610e9733613b17565b3360005260046020526040600020908154610f4e57610ed490848355426001840155836002840155600483019060ff801983541691151516179055565b6003670de0b6b3a7640000610eeb60085486612e76565b04910155610efb82600754612e5c565b600755610f0982303361376e565b60405191825260208201527fdd2a19c3bdd089cbe77c04f5655f83de0504d6140d12c8667646f55d0557c4dc60403392a2600160008051602061402b83398151915255005b60405162461bcd60e51b815260206004820152600f60248201526e416c7265616479207374616b696e6760881b6044820152606490fd5b60405162461bcd60e51b8152602060048201526013602482015272125b9d985b1a59081b1bd8dac81c195c9a5bd9606a1b6044820152606490fd5b506301e13380821115610e89565b60405162461bcd60e51b8152602060048201526014602482015273496e73756666696369656e742062616c616e636560601b6044820152606490fd5b60405162461bcd60e51b81526020600482015260126024820152710416d6f756e74206d757374206265203e20360741b6044820152606490fd5b346103a25760203660031901126103a257600435611060613127565b611388811161115d5761107560095442612e69565b80151580611152575b6110b8575b7f39c078e0c9be5a018723ae5517e933105b55d82377b3f6b19db1933767a21bdc6020834260095580600655604051908152a1005b9064496cebb8006110d7600754936110d260065486612e76565b612e76565b0490670de0b6b3a7640000820291808304670de0b6b3a7640000149015171561113c5761113261112a7f39c078e0c9be5a018723ae5517e933105b55d82377b3f6b19db1933767a21bdc94602094612e89565b600854612e5c565b6008559150611083565b634e487b7160e01b600052601160045260246000fd5b50600754151561107e565b60405162461bcd60e51b815260206004820152600d60248201526c0a4c2e8ca40e8dede40d0d2ced609b1b6044820152606490fd5b346103a25760003660031901126103a2576020600d54604051908152f35b346103a25760003660031901126103a257600c546040516001600160a01b039091168152602090f35b346103a25760003660031901126103a25761121860408051906111fc8183612d95565b60058252640352e302e360dc1b60208301525191829182612cca565b0390f35b346103a25760c03660031901126103a257611235612d13565b602435906064356084359160a435908115158092036103a2576112566131ec565b6001600160a01b03169182156114865784156114505761129c6b033b2e3c9fd0803ce800000061129587600080516020613fab83398151915254612e5c565b1115612fd7565b8015611418578084116113d357600a5493600019851461113c5760209585937fc5fe10002947d574aa59081d50c74a9a815e093167384ee589a1c827bfd9d3af9361139560068a9560018901600a55604051906112f882612d78565b8a8252878201948786526040830160008152606084019060443582526080850192835260a0850193845260c0850198895260e0850197600089528d60005260038c5260406000209560018060a01b039051166bffffffffffffffffffffffff60a01b8754161786555160018601555160028501555160038401555160048301555160058201550192511515839060ff801983541691151516179055565b51151561ff0082549160081b169061ff0019161790556113b781600b54612e5c565b600b556113c48130613ac0565b604051908152a3604051908152f35b60405162461bcd60e51b815260206004820152601c60248201527f436c6966662063616e6e6f7420657863656564206475726174696f6e000000006044820152606490fd5b60405162461bcd60e51b815260206004820152601060248201526f24b73b30b634b210323ab930ba34b7b760811b6044820152606490fd5b60405162461bcd60e51b815260206004820152600e60248201526d125b9d985b1a5908185b5bdd5b9d60921b6044820152606490fd5b60405162461bcd60e51b8152602060048201526013602482015272496e76616c69642062656e656669636961727960681b6044820152606490fd5b346103a25760203660031901126103a2576001600160a01b036114e2612d13565b16600052600460205260406000206040519060a0820182811067ffffffffffffffff821117610c7d5760405280548083526001820154602084019081526002830154926040850193845260ff60046003830154926060880193845201541615156080860152600092611579575b50611561608094519351809251612e5c565b90604051938452602084015260408301526060820152f35b9391506008549361158c60095442612e69565b80151580611638575b6115c9575b506115c161156191670de0b6b3a76400006115b86080988751612e76565b04905190612e69565b92945061154f565b64496cebb8006115e2600754926110d260065485612e76565b0491670de0b6b3a7640000830292808404670de0b6b3a7640000149015171561113c57670de0b6b3a76400006115b861162d6080996116276115c19661156198612e89565b90612e5c565b98505050915061159a565b506007541515611595565b346103a25760403660031901126103a25761046961165f612d13565b602435903361376e565b346103a25760003660031901126103a257611682613adb565b336000526004602052604060002080541561176d576116aa6001820154600283015490612e5c565b4210611739576116b933613b17565b80549060006003820154916116d084600754612e69565b600755556116df82333061376e565b8061172a575b60405191825260208201527f6f2d3e000c89d37446b7c0374c0125068ff316d1e3ee302336478a8cd03c233660403392a2600160008051602061402b83398151915255005b6117348133613ac0565b6116e5565b60405162461bcd60e51b815260206004820152600c60248201526b14dd1a5b1b081b1bd8dad95960a21b6044820152606490fd5b60405162461bcd60e51b815260206004820152601360248201527227379039ba30b5b4b733903837b9b4ba34b7b760691b6044820152606490fd5b346103a25760003660031901126103a2576020600954604051908152f35b346103a25760003660031901126103a257602060405160008152f35b346103a25760003660031901126103a2576040516000600080516020613f6b8339815191525461181181612e22565b80845290600181169081156118b15750600114611845575b6112188361183981850382612d95565b60405191829182612cca565b600080516020613f6b83398151915260009081527f46a2803e59a4de4e7a4c574b1243f25977ac4c77d5a1a4a609b5394cebb4a2aa939250905b80821061189757509091508101602001611839611829565b91926001816020925483858801015201910190929161187f565b60ff191660208086019190915291151560051b840190910191506118399050611829565b346103a25760403660031901126103a2576118ee612d13565b6118f66139ea565b6001600160a01b0316308114611992576020600091604460018060a01b03600080516020613f8b8339815191525416604051948593849263a9059cbb60e01b8452600484015260243560248401525af180156119865761195257005b6020813d60201161197e575b8161196b60209383612d95565b810103126103a25751801515036103a257005b3d915061195e565b6040513d6000823e3d90fd5b60405162461bcd60e51b815260206004820152601c60248201527f43616e6e6f74207769746864726177206e617469766520746f6b656e000000006044820152606490fd5b346103a25760403660031901126103a2576119f0612d29565b600435600052600080516020613feb83398151915260205260406000209060018060a01b0316600052602052602060ff604060002054166040519015158152f35b346103a25760003660031901126103a257600080516020613f8b833981519152546040516001600160a01b039091168152602090f35b346103a25760403660031901126103a25760043567ffffffffffffffff81116103a257366023820112156103a2578060040135611aa381612e0a565b91611ab16040519384612d95565b8183526024602084019260051b820101903682116103a257602401915b818310611c2c576024358467ffffffffffffffff82116103a257366023830112156103a257816004013591611b0283612e0a565b92611b106040519485612d95565b8084526024602085019160051b830101913683116103a257602401905b828210611c1c57505050611b3f613adb565b8051825103611bde576064815111611ba35760005b8151811015611b8f57600190611b896001600160a01b03611b75838661304d565b5116611b81838761304d565b51903361376e565b01611b54565b600160008051602061402b83398151915255005b60405162461bcd60e51b8152602060048201526013602482015272546f6f206d616e7920726563697069656e747360681b6044820152606490fd5b60405162461bcd60e51b8152602060048201526016602482015275082e4e4c2f2e640d8cadccee8d040dad2e6dac2e8c6d60531b6044820152606490fd5b8135815260209182019101611b2d565b82356001600160a01b03811681036103a257815260209283019201611ace565b346103a25760003660031901126103a257611c6561317a565b611c6d613bea565b600160ff1960008051602061400b83398151915254161760008051602061400b833981519152557f62e78cea01bee320cd4e420270b5ea74000d11b0c9f74754ebdbfc544b05a2586020604051338152a1005b346103a25760003660031901126103a2576020600754604051908152f35b346103a25760203660031901126103a2576001600160a01b03611cff612d13565b16600052600460205260a06040600020805490600181015490600281015460ff60046003840154930154169260405194855260208501526040840152606083015215156080820152f35b346103a25760203660031901126103a257600435611d65613adb565b600081815260036020526040902080549091906001600160a01b03163303611e905760ff600683015460081c16611e58576002611da182612ea9565b9201611daf81548094612e69565b928315611e1c5783611dc091612e5c565b9055611dce82600b54612e69565b600b55611ddc82333061376e565b6040519182527f1eb32ded03bd01f267cc718a1b829201795c275c85563136e8fcce91b6c3c53160203393a3600160008051602061402b83398151915255005b60405162461bcd60e51b81526020600482015260146024820152734e6f20746f6b656e7320746f2072656c6561736560601b6044820152606490fd5b60405162461bcd60e51b815260206004820152601060248201526f14d8da19591d5b19481c995d9bdad95960821b6044820152606490fd5b60405162461bcd60e51b81526020600482015260136024820152724e6f74207468652062656e656669636961727960681b6044820152606490fd5b346103a25760003660031901126103a2576020604051610e108152f35b346103a25760403660031901126103a257611f01612d13565b3360009081527ffcf1b2032b1187d9f2a29150c4a608b3b6f0bdf8dd007801f86a276af50cad926020526040902054602435919060ff1615611f895760207ffd38818f5291bf0bb3a2a48aadc06ba8757865d1dabd804585338aab3009dcb691611f6c8433836136c9565b611f768482613c14565b6040519384526001600160a01b031692a2005b63e2517d3f60e01b600052336004527f3c11d16cbaffd01df69ce1c404f6340ee057498f5f00246190ea54220576a84860245260446000fd5b346103a25760203660031901126103a257611fdb612d13565b611fe36139ea565b6001600160a01b03166000818152602081905260408120805460ff191690557f7534c63860313c46c473e4e98328f37017e9674e2162faf1a3ad7a96236c3b7b9080a2005b346103a25760003660031901126103a2576120416139ea565b600080516020613f8b83398151915280546001600160a01b031981169091556000906001600160a01b03167f8be0079c531659141344cd1fd0a4f28419497f9722a3daafe3b4186f6b6457e08280a3005b346103a25760203660031901126103a2576001600160a01b036120b3612d13565b16600052600080516020613f4b8339815191526020526020604060002054604051908152f35b346103a25760203660031901126103a2576004356000526003602052610100604060002060ff60018060a01b0382541691600181015490600281015460038201546004830154916006600585015494015494604051978852602088015260408701526060860152608085015260a0840152818116151560c084015260081c16151560e0820152f35b346103a25760003660031901126103a25761217a613adb565b61218333613b17565b3360005260046020526003604060002001805490816121b057600160008051602061402b83398151915255005b600090556121be8133613ac0565b6040519081527fc727c17294ad4f040bec78be22159f993ffb0f22f4dfced8daeafc1ec2608a4c60203392a28080611b8f565b346103a25760203660031901126103a2576001600160a01b03612212612d13565b1660005260026020526020604060002054604051908152f35b346103a25760203660031901126103a2576020610e19612249612d13565b613018565b346103a25760003660031901126103a257602060ff60008051602061400b83398151915254166040519015158152f35b346103a25760003660031901126103a2577f00000000000000000000000000000000000000000000000000000000000000006001600160a01b031630036122d7576020604051600080516020613fcb8339815191528152f35b63703e46dd60e11b60005260046000fd5b346103a25760003660031901126103a2576020600554604051908152f35b346103a25760003660031901126103a25761231f613127565b612327613bea565b600160ff1960008051602061400b83398151915254161760008051602061400b833981519152557f62e78cea01bee320cd4e420270b5ea74000d11b0c9f74754ebdbfc544b05a2586020604051338152a1337fb8fad2fa0ed7a383e747c309ef2c4391d7b65592a48893e57ccc1fab70791456600080a2005b346103a25760003660031901126103a2576020600654604051908152f35b60403660031901126103a2576123d2612d13565b60243567ffffffffffffffff81116103a257366023820112156103a257612403903690602481600401359101612dd3565b6001600160a01b037f0000000000000000000000000000000000000000000000000000000000000000163081149081156125b0575b506122d7576124456139ea565b6040516352d1902d60e01b81526001600160a01b0383169290602081600481875afa6000918161257c575b5061248a5783634c9c8ce360e01b60005260045260246000fd5b80600080516020613fcb8339815191528592036125685750813b1561255457600080516020613fcb83398151915280546001600160a01b031916821790557fbc7cd75a20ee27fd9adebab32041f755214dbc6bffa90cc0225b39da2e5c2d3b600080a281511561253a5760008083602061056d95519101845af43d15612532573d9161251583612db7565b926125236040519485612d95565b83523d6000602085013e613ea9565b606091613ea9565b50503461254357005b63b398979f60e01b60005260046000fd5b634c9c8ce360e01b60005260045260246000fd5b632a87526960e21b60005260045260246000fd5b9091506020813d6020116125a8575b8161259860209383612d95565b810103126103a257519085612470565b3d915061258b565b600080516020613fcb833981519152546001600160a01b03161415905083612438565b346103a25760003660031901126103a2576125ec613127565b60008051602061400b8339815191525460ff81161561266b5760ff191660008051602061400b833981519152557f5db9ee0a495bf2e6ff9c91a7834c1ba4fdd244a5e8aa4e537bd38aeae4b073aa6020604051338152a1337ff5cbf596165cc457b2cd92e8d8450827ee314968160a5696402d75766fc52caf600080a2005b638dfc202b60e01b60005260046000fd5b346103a25760003660031901126103a2576020600a54604051908152f35b346103a25760203660031901126103a25760206126b8610e14612d13565b600d541115604051908152f35b346103a25760203660031901126103a2576004356126e38133613c14565b6040519081527ffd38818f5291bf0bb3a2a48aadc06ba8757865d1dabd804585338aab3009dcb660203392a2005b346103a25760403660031901126103a25761272a612d13565b3360009081527f549fe2656c81d2947b3b913f0a53b9ea86c71e049f3a1b8aa23c09a8a05cb8d460205260409020546024359060ff16156127975761056d916127926b033b2e3c9fd0803ce800000061129584600080516020613fab83398151915254612e5c565b613ac0565b63e2517d3f60e01b600052336004527f9f2df0fed2c77648de5860a4cc508cd0818c85b8b8a1ab4ceeef8d981c8956a660245260446000fd5b346103a25760003660031901126103a2576127e961317a565b60008051602061400b8339815191525460ff81161561266b5760ff191660008051602061400b833981519152557f5db9ee0a495bf2e6ff9c91a7834c1ba4fdd244a5e8aa4e537bd38aeae4b073aa6020604051338152a1005b346103a25760403660031901126103a25761285b612d29565b336001600160a01b038216036128775761056d90600435613a20565b63334bd91960e11b60005260046000fd5b346103a25760003660031901126103a25760206040516b033b2e3c9fd0803ce80000008152f35b346103a25760003660031901126103a257602060405160128152f35b346103a25760003660031901126103a257602060405169d3c21bcecceda10000008152f35b346103a25760403660031901126103a25761056d60043561290f612d29565b9061291c61081582612fb6565b613632565b346103a25760003660031901126103a25760206040517f3c11d16cbaffd01df69ce1c404f6340ee057498f5f00246190ea54220576a8488152f35b346103a25760203660031901126103a2576020610e19600435612fb6565b346103a25760203660031901126103a2576129936139ea565b600435600555005b346103a25760603660031901126103a2576104696129b7612d13565b6129bf612d29565b604435916129ce8333836136c9565b61376e565b346103a25760203660031901126103a2576020610e196129f1612d13565b612f7b565b346103a25760203660031901126103a2576020610e19600435612ea9565b346103a25760003660031901126103a2576020600b54604051908152f35b346103a25760003660031901126103a2576020600080516020613fab83398151915254604051908152f35b346103a25760203660031901126103a257612a76612d13565b612a7e613127565b600c80546001600160a01b0319166001600160a01b03831690811790915590612aa6906132a8565b507fe3cf2b71b55b62fc1a6c7b2f6ff944c1b70048908cff22f2e08d1144e7ca7edb600080a2005b346103a25760203660031901126103a2576001600160a01b03612aef612d13565b1660005260016020526020604060002054604051908152f35b346103a25760403660031901126103a257612b21612d13565b602435903315612b9f576001600160a01b0316908115612b8957612b4433612d3f565b82600052602052806040600020556040519081527f8c5be1e5ebec7d5bd14f71427d1e84f3dd0314c0f7b2291e5b200ac8c7c3b92560203392a3602060405160018152f35b634a1406b160e11b600052600060045260246000fd5b63e602df0560e01b600052600060045260246000fd5b346103a25760003660031901126103a2576040516000600080516020613f2b83398151915254612be481612e22565b80845290600181169081156118b15750600114612c0b576112188361183981850382612d95565b600080516020613f2b83398151915260009081527f2ae08a8e29253f69ac5d979a101956ab8f8d9d7ded63fa7a83b16fc47648eab0939250905b808210612c5d57509091508101602001611839611829565b919260018160209254838588010152019101909291612c45565b346103a25760203660031901126103a2576004359063ffffffff60e01b82168092036103a257602091637965db0b60e01b8114908115612cb9575b5015158152f35b6301ffc9a760e01b14905083612cb2565b91909160208152825180602083015260005b818110612cfd575060409293506000838284010152601f8019910116010190565b8060208092870101516040828601015201612cdc565b600435906001600160a01b03821682036103a257565b602435906001600160a01b03821682036103a257565b6001600160a01b031660009081527f52c63247e1f47db19d5ce0460030c497f067ca4cebf71ba98eeadabe20bace016020526040902090565b610100810190811067ffffffffffffffff821117610c7d57604052565b90601f8019910116810190811067ffffffffffffffff821117610c7d57604052565b67ffffffffffffffff8111610c7d57601f01601f191660200190565b929192612ddf82612db7565b91612ded6040519384612d95565b8294818452818301116103a2578281602093846000960137010152565b67ffffffffffffffff8111610c7d5760051b60200190565b90600182811c92168015612e52575b6020831014612e3c57565b634e487b7160e01b600052602260045260246000fd5b91607f1691612e31565b9190820180921161113c57565b9190820391821161113c57565b8181029291811591840414171561113c57565b8115612e93570490565b634e487b7160e01b600052601260045260246000fd5b60005260036020526040600020604051612ec281612d78565b60018060a01b0382541681526001820154916020820192835260028101546040830152612f2f60038201549160608401928084526004820154946080810195865260e060ff60066005860154958660a08601520154818116151560c085015260081c161515910152612e5c565b4210612f7357612f428151835190612e5c565b421015612f6d57612f6a92612f5b612f62925142612e69565b9051612e76565b905190612e89565b90565b50505190565b505050600090565b612f8481613018565b9060018060a01b03166000526001602052604060002054610e10810180911161113c574210612fb05790565b50600090565b600052600080516020613feb83398151915260205260016040600020015490565b15612fde57565b60405162461bcd60e51b815260206004820152601260248201527145786365656473206d617820737570706c7960701b6044820152606490fd5b6001600160a01b03166000818152600260205260409020541561304657600052600260205260406000205490565b5060055490565b80518210156130615760209160051b010190565b634e487b7160e01b600052603260045260246000fd5b6001600160a01b03166000908152600080516020613f4b8339815191526020908152604080832054600490925290912054612f6a91612e5c565b6001600160a01b0316801561311157600080516020613f8b83398151915280546001600160a01b0319811683179091556001600160a01b03167f8be0079c531659141344cd1fd0a4f28419497f9722a3daafe3b4186f6b6457e0600080a3565b631e4fbdf760e01b600052600060045260246000fd5b3360009081527fb7db2dd08fcb62d0c9e08c51941cae53c267786a0b75803fb7960902fc8ef97d602052604090205460ff161561316057565b63e2517d3f60e01b60005233600452600060245260446000fd5b3360009081527f75442b0a96088b5456bc4ed01394c96a4feec0f883c9494257d76b96ab1c9b6b602052604090205460ff16156131b357565b63e2517d3f60e01b600052336004527f65d7a28e3265b37a6474929f336521b332c1681b933f6cb9f3376673440d862a60245260446000fd5b3360009081527f25f7f44d2cbb35948a0ec4a3daca6d9fef225ba74483a7793ae48fcb0272bb0c602052604090205460ff161561322557565b63e2517d3f60e01b600052336004527f71840dc4906352362b0cdaf79870196c8e42acafade72d5d5a6d59291253ceb160245260446000fd5b6000818152600080516020613feb8339815191526020908152604080832033845290915290205460ff16156132905750565b63e2517d3f60e01b6000523360045260245260446000fd5b6001600160a01b03811660009081527f25f7f44d2cbb35948a0ec4a3daca6d9fef225ba74483a7793ae48fcb0272bb0c602052604090205460ff16612fb0576001600160a01b031660008181527f25f7f44d2cbb35948a0ec4a3daca6d9fef225ba74483a7793ae48fcb0272bb0c60205260408120805460ff191660011790553391907f71840dc4906352362b0cdaf79870196c8e42acafade72d5d5a6d59291253ceb190600080516020613f0b8339815191529080a4600190565b6001600160a01b03811660009081527fb7db2dd08fcb62d0c9e08c51941cae53c267786a0b75803fb7960902fc8ef97d602052604090205460ff16612fb0576001600160a01b031660008181527fb7db2dd08fcb62d0c9e08c51941cae53c267786a0b75803fb7960902fc8ef97d60205260408120805460ff19166001179055339190600080516020613f0b8339815191528180a4600190565b6001600160a01b03811660009081527f549fe2656c81d2947b3b913f0a53b9ea86c71e049f3a1b8aa23c09a8a05cb8d4602052604090205460ff16612fb0576001600160a01b031660008181527f549fe2656c81d2947b3b913f0a53b9ea86c71e049f3a1b8aa23c09a8a05cb8d460205260408120805460ff191660011790553391907f9f2df0fed2c77648de5860a4cc508cd0818c85b8b8a1ab4ceeef8d981c8956a690600080516020613f0b8339815191529080a4600190565b6001600160a01b03811660009081527ffcf1b2032b1187d9f2a29150c4a608b3b6f0bdf8dd007801f86a276af50cad92602052604090205460ff16612fb0576001600160a01b031660008181527ffcf1b2032b1187d9f2a29150c4a608b3b6f0bdf8dd007801f86a276af50cad9260205260408120805460ff191660011790553391907f3c11d16cbaffd01df69ce1c404f6340ee057498f5f00246190ea54220576a84890600080516020613f0b8339815191529080a4600190565b6001600160a01b03811660009081527f75442b0a96088b5456bc4ed01394c96a4feec0f883c9494257d76b96ab1c9b6b602052604090205460ff16612fb0576001600160a01b031660008181527f75442b0a96088b5456bc4ed01394c96a4feec0f883c9494257d76b96ab1c9b6b60205260408120805460ff191660011790553391907f65d7a28e3265b37a6474929f336521b332c1681b933f6cb9f3376673440d862a90600080516020613f0b8339815191529080a4600190565b6000818152600080516020613feb833981519152602090815260408083206001600160a01b038616845290915290205460ff166136c2576000818152600080516020613feb833981519152602090815260408083206001600160a01b0395909516808452949091528120805460ff1916600117905533929190600080516020613f0b8339815191529080a4600190565b5050600090565b91906136d483612d3f565b60018060a01b0382166000526020526040600020549260001984106136fa575b50505050565b828410613749576001600160a01b03811615612b9f576001600160a01b03821615612b895761372890612d3f565b9060018060a01b0316600052602052604060002091039055388080806136f4565b508290637dc7a0d960e11b60005260018060a01b031660045260245260445260646000fd5b6001600160a01b03169081156139d4576001600160a01b0316918215610b695781600052600060205260ff604060002054166139975782600052600060205260ff60406000205416613952576000828152600260205260409020541561394a578160005260026020526040600020545b811161390557816000526001602052604060002054610e10810180911161113c5742106138c0578160005260016020524260406000205561381d613bea565b6000828152600080516020613f4b83398151915260205260408120548281106138a65791604082827fddf252ad1be2c89b69c2b068fc378daa952ba7f163c4a11628f55a4df523b3ef958760209652600080516020613f4b83398151915286520382822055868152600080516020613f4b833981519152845220818154019055604051908152a3565b916064928463391434e360e21b8452600452602452604452fd5b60405162461bcd60e51b815260206004820152601860248201527f5472616e7366657220636f6f6c646f776e2061637469766500000000000000006044820152606490fd5b60405162461bcd60e51b815260206004820152601d60248201527f5472616e7366657220616d6f756e742065786365656473206c696d69740000006044820152606490fd5b6005546137de565b60405162461bcd60e51b815260206004820152601860248201527f526563697069656e7420697320626c61636b6c697374656400000000000000006044820152606490fd5b60405162461bcd60e51b815260206004820152601560248201527414d95b99195c881a5cc8189b1858dadb1a5cdd1959605a1b6044820152606490fd5b634b637e8f60e11b600052600060045260246000fd5b600080516020613f8b833981519152546001600160a01b03163303613a0b57565b63118cdaa760e01b6000523360045260246000fd5b6000818152600080516020613feb833981519152602090815260408083206001600160a01b038616845290915290205460ff16156136c2576000818152600080516020613feb833981519152602090815260408083206001600160a01b0395909516808452949091528120805460ff19169055339291907ff6391f5c32d9c69d2a47ea670b442974b53935d1edc7fd64eb21e047a839171b9080a4600190565b906001600160a01b03821615610b6957613ad991613d7d565b565b600260008051602061402b8339815191525414613b0657600260008051602061402b83398151915255565b633ee5aeb560e01b60005260046000fd5b613b2360095442612e69565b80151580613bdf575b613b8e575b50426009556001600160a01b031680613b475750565b60005260046020526040600020805480613b5f575050565b6003670de0b6b3a7640000613b7a613b8a9360085490612e76565b0492019161162783548092612e69565b9055565b64496cebb800613ba7600754926110d260065485612e76565b04670de0b6b3a7640000810290808204670de0b6b3a7640000149015171561113c57613bd69161112a91612e89565b60085538613b31565b506007541515613b2c565b60ff60008051602061400b8339815191525416613c0357565b63d93c066560e01b60005260046000fd5b6001600160a01b031680156139d45780600052600060205260ff604060002054166139975760008080526020527fad3228b676f7d3cd4284a5443f17f1962b36e491b30a40b2405849e597ba5fb55460ff166139525760008181526002602052604090205415613d75578060005260026020526040600020545b821161390557806000526001602052604060002054610e10810180911161113c5742106138c05780600052600160205242604060002055613ccd613bea565b600091818352600080516020613f4b8339815191526020526040832054818110613d5c57817fddf252ad1be2c89b69c2b068fc378daa952ba7f163c4a11628f55a4df523b3ef92602092858752600080516020613f4b833981519152845203604086205580600080516020613fab8339815191525403600080516020613fab83398151915255604051908152a3565b6064939263391434e360e21b8452600452602452604452fd5b600554613c8e565b60008080526020527fad3228b676f7d3cd4284a5443f17f1962b36e491b30a40b2405849e597ba5fb55460ff166139975760018060a01b03169081600052600060205260ff60406000205416613952577fddf252ad1be2c89b69c2b068fc378daa952ba7f163c4a11628f55a4df523b3ef6020600092613dfb613bea565b613e1481600080516020613fab83398151915254612e5c565b600080516020613fab8339815191525584158414613e585780600080516020613fab8339815191525403600080516020613fab833981519152555b604051908152a3565b848452600080516020613f4b833981519152825260408420818154019055613e4f565b60ff60008051602061404b8339815191525460401c1615613e9857565b631afcd79f60e31b60005260046000fd5b90613ecf5750805115613ebe57602081519101fd5b63d6bda27560e01b60005260046000fd5b81511580613f01575b613ee0575090565b639996b31560e01b60009081526001600160a01b0391909116600452602490fd5b50803b15613ed856fe2f8788117e7eff1d82e926ec794901d17c78024a50270940304540a733656f0d52c63247e1f47db19d5ce0460030c497f067ca4cebf71ba98eeadabe20bace0352c63247e1f47db19d5ce0460030c497f067ca4cebf71ba98eeadabe20bace0052c63247e1f47db19d5ce0460030c497f067ca4cebf71ba98eeadabe20bace049016d09d72d40fdae2fd8ceac6b6234c7706214fd39c1cd1e609a0528c19930052c63247e1f47db19d5ce0460030c497f067ca4cebf71ba98eeadabe20bace02360894a13ba1a3210667c828492db98dca3e2076cc3735a920a3ca505d382bbc02dd7bc7dec4dceedda775e58dd541e08a116c6c53815c0bd028192f7b626800cd5ed15c6e187e77e9aee88184c21f4f2182ab5827cb3b7e07fbedcd63f033009b779b17422d0df92223018b32b4d1fa46e071723d6817e2486d003becc55f00f0c57e16840df040f15088dc2f81fe391c3923bec73e23a9662efc9c229c6a00a2646970667358221220872bb34117b1152030b9a2d5f5fe88e15607d11f9001f9b5496cf8a1f246184864736f6c634300081c0033","opcodes":"PUSH1 0xA0 DUP1 PUSH1 0x40 MSTORE CALLVALUE PUSH1 0x29 JUMPI ADDRESS PUSH1 0x80 MSTORE PUSH2 0x40A0 SWAP1 DUP2 PUSH2 0x2F DUP3 CODECOPY PUSH1 0x80 MLOAD DUP2 DUP2 DUP2 PUSH2 0x2291 ADD MSTORE PUSH2 0x240D ADD MSTORE RETURN JUMPDEST PUSH1 0x0 DUP1 REVERT INVALID PUSH1 0x80 DUP1 PUSH1 0x40 MSTORE PUSH1 0x4 CALLDATASIZE LT ISZERO PUSH2 0x13 JUMPI PUSH1 0x0 DUP1 REVERT JUMPDEST PUSH1 0x0 CALLDATALOAD PUSH1 0xE0 SHR SWAP1 DUP2 PUSH4 0x1FFC9A7 EQ PUSH2 0x2C77 JUMPI POP DUP1 PUSH4 0x6FDDE03 EQ PUSH2 0x2BB5 JUMPI DUP1 PUSH4 0x95EA7B3 EQ PUSH2 0x2B08 JUMPI DUP1 PUSH4 0xD2D8A31 EQ PUSH2 0x2ACE JUMPI DUP1 PUSH4 0x1129753F EQ PUSH2 0x2A5D JUMPI DUP1 PUSH4 0x18160DDD EQ PUSH2 0x2A32 JUMPI DUP1 PUSH4 0x199CBC54 EQ PUSH2 0x2A14 JUMPI DUP1 PUSH4 0x1BFCE853 EQ PUSH2 0x29F6 JUMPI DUP1 PUSH4 0x23141641 EQ PUSH2 0x29D3 JUMPI DUP1 PUSH4 0x23B872DD EQ PUSH2 0x299B JUMPI DUP1 PUSH4 0x24647455 EQ PUSH2 0x297A JUMPI DUP1 PUSH4 0x248A9CA3 EQ PUSH2 0x295C JUMPI DUP1 PUSH4 0x282C51F3 EQ PUSH2 0x2921 JUMPI DUP1 PUSH4 0x2F2FF15D EQ PUSH2 0x28F0 JUMPI DUP1 PUSH4 0x2FF2E9DC EQ PUSH2 0x28CB JUMPI DUP1 PUSH4 0x313CE567 EQ PUSH2 0x28AF JUMPI DUP1 PUSH4 0x32CB6B0C EQ PUSH2 0x2888 JUMPI DUP1 PUSH4 0x36568ABE EQ PUSH2 0x2842 JUMPI DUP1 PUSH4 0x3F4BA83A EQ PUSH2 0x27D0 JUMPI DUP1 PUSH4 0x40C10F19 EQ PUSH2 0x2711 JUMPI DUP1 PUSH4 0x42966C68 EQ PUSH2 0x26C5 JUMPI DUP1 PUSH4 0x42B4632E EQ PUSH2 0x269A JUMPI DUP1 PUSH4 0x495F3D27 EQ PUSH2 0x267C JUMPI DUP1 PUSH4 0x4A4E3BD5 EQ PUSH2 0x25D3 JUMPI DUP1 PUSH4 0x4F1EF286 EQ PUSH2 0x23BE JUMPI DUP1 PUSH4 0x4F3FC2DF EQ PUSH2 0x23A0 JUMPI DUP1 PUSH4 0x51858E27 EQ PUSH2 0x2306 JUMPI DUP1 PUSH4 0x52820F62 EQ PUSH2 0x22E8 JUMPI DUP1 PUSH4 0x52D1902D EQ PUSH2 0x227E JUMPI DUP1 PUSH4 0x5C975ABB EQ PUSH2 0x224E JUMPI DUP1 PUSH4 0x5EDF9E61 EQ PUSH2 0x222B JUMPI DUP1 PUSH4 0x69EFE471 EQ PUSH2 0x21F1 JUMPI DUP1 PUSH4 0x6B69E05B EQ PUSH2 0x2161 JUMPI DUP1 PUSH4 0x6D3CBE21 EQ PUSH2 0x20D9 JUMPI DUP1 PUSH4 0x70A08231 EQ PUSH2 0x2092 JUMPI DUP1 PUSH4 0x715018A6 EQ PUSH2 0x2028 JUMPI DUP1 PUSH4 0x75E3661E EQ PUSH2 0x1FC2 JUMPI DUP1 PUSH4 0x79CC6790 EQ PUSH2 0x1EE8 JUMPI DUP1 PUSH4 0x7A4A3412 EQ PUSH2 0x1ECB JUMPI DUP1 PUSH4 0x7D2AEB8A EQ PUSH2 0x1D49 JUMPI DUP1 PUSH4 0x8148580D EQ PUSH2 0x1CDE JUMPI DUP1 PUSH4 0x817B1CD2 EQ PUSH2 0x1CC0 JUMPI DUP1 PUSH4 0x8456CB59 EQ PUSH2 0x1C4C JUMPI DUP1 PUSH4 0x88D695B2 EQ PUSH2 0x1A67 JUMPI DUP1 PUSH4 0x8DA5CB5B EQ PUSH2 0x1A31 JUMPI DUP1 PUSH4 0x91D14854 EQ PUSH2 0x19D7 JUMPI DUP1 PUSH4 0x95CCEA67 EQ PUSH2 0x18D5 JUMPI DUP1 PUSH4 0x95D89B41 EQ PUSH2 0x17E2 JUMPI DUP1 PUSH4 0xA217FDDF EQ PUSH2 0x17C6 JUMPI DUP1 PUSH4 0xA3C2710D EQ PUSH2 0x17A8 JUMPI DUP1 PUSH4 0xA5CE413B EQ PUSH2 0x1669 JUMPI DUP1 PUSH4 0xA9059CBB EQ PUSH2 0x1643 JUMPI DUP1 PUSH4 0xAA4704F3 EQ PUSH2 0x14C1 JUMPI DUP1 PUSH4 0xAAAD9321 EQ PUSH2 0x121C JUMPI DUP1 PUSH4 0xAD3CB1CC EQ PUSH2 0x11D9 JUMPI DUP1 PUSH4 0xB172B222 EQ PUSH2 0x11B0 JUMPI DUP1 PUSH4 0xB58131B0 EQ PUSH2 0x1192 JUMPI DUP1 PUSH4 0xB7D68519 EQ PUSH2 0x1044 JUMPI DUP1 PUSH4 0xB9E2C1E0 EQ PUSH2 0xE21 JUMPI DUP1 PUSH4 0xBB4D4436 EQ PUSH2 0xDF6 JUMPI DUP1 PUSH4 0xC4D66DE8 EQ PUSH2 0x85A JUMPI DUP1 PUSH4 0xD5391393 EQ PUSH2 0x81F JUMPI DUP1 PUSH4 0xD547741F EQ PUSH2 0x7E9 JUMPI DUP1 PUSH4 0xDBAC26E9 EQ PUSH2 0x363 JUMPI DUP1 PUSH4 0xDD128200 EQ PUSH2 0x6C8 JUMPI DUP1 PUSH4 0xDD62ED3E EQ PUSH2 0x67F JUMPI DUP1 PUSH4 0xDF136D65 EQ PUSH2 0x661 JUMPI DUP1 PUSH4 0xE63AB1E9 EQ PUSH2 0x626 JUMPI DUP1 PUSH4 0xECE40CC1 EQ PUSH2 0x5DA JUMPI DUP1 PUSH4 0xF0B6E33F EQ PUSH2 0x56F JUMPI DUP1 PUSH4 0xF2FDE38B EQ PUSH2 0x544 JUMPI DUP1 PUSH4 0xF36C8F5C EQ PUSH2 0x509 JUMPI DUP1 PUSH4 0xF3FF955A EQ PUSH2 0x474 JUMPI DUP1 PUSH4 0xF7334EE2 EQ PUSH2 0x410 JUMPI DUP1 PUSH4 0xF9F92BE4 EQ PUSH2 0x3A7 JUMPI PUSH4 0xFE575A87 EQ PUSH2 0x363 JUMPI PUSH1 0x0 DUP1 REVERT JUMPDEST CALLVALUE PUSH2 0x3A2 JUMPI PUSH1 0x20 CALLDATASIZE PUSH1 0x3 NOT ADD SLT PUSH2 0x3A2 JUMPI PUSH1 0x1 PUSH1 0x1 PUSH1 0xA0 SHL SUB PUSH2 0x384 PUSH2 0x2D13 JUMP JUMPDEST AND PUSH1 0x0 MSTORE PUSH1 0x0 PUSH1 0x20 MSTORE PUSH1 0x20 PUSH1 0xFF PUSH1 0x40 PUSH1 0x0 KECCAK256 SLOAD AND PUSH1 0x40 MLOAD SWAP1 ISZERO ISZERO DUP2 MSTORE RETURN JUMPDEST PUSH1 0x0 DUP1 REVERT JUMPDEST CALLVALUE PUSH2 0x3A2 JUMPI PUSH1 0x20 CALLDATASIZE PUSH1 0x3 NOT ADD SLT PUSH2 0x3A2 JUMPI PUSH2 0x3C0 PUSH2 0x2D13 JUMP JUMPDEST PUSH2 0x3C8 PUSH2 0x39EA JUMP JUMPDEST PUSH1 0x1 PUSH1 0x1 PUSH1 0xA0 SHL SUB AND PUSH1 0x0 DUP2 DUP2 MSTORE PUSH1 0x20 DUP2 SWAP1 MSTORE PUSH1 0x40 DUP2 KECCAK256 DUP1 SLOAD PUSH1 0xFF NOT AND PUSH1 0x1 OR SWAP1 SSTORE PUSH32 0xFFA4E6181777692565CF28528FC88FD1516EA86B56DA075235FA575AF6A4B855 SWAP1 DUP1 LOG2 STOP JUMPDEST CALLVALUE PUSH2 0x3A2 JUMPI PUSH1 0x60 CALLDATASIZE PUSH1 0x3 NOT ADD SLT PUSH2 0x3A2 JUMPI PUSH2 0x429 PUSH2 0x2D13 JUMP JUMPDEST PUSH1 0x44 CALLDATALOAD SWAP1 PUSH8 0xFFFFFFFFFFFFFFFF DUP3 GT PUSH2 0x3A2 JUMPI CALLDATASIZE PUSH1 0x23 DUP4 ADD SLT ISZERO PUSH2 0x3A2 JUMPI PUSH2 0x45E PUSH2 0x469 SWAP3 CALLDATASIZE SWAP1 PUSH1 0x24 DUP2 PUSH1 0x4 ADD CALLDATALOAD SWAP2 ADD PUSH2 0x2DD3 JUMP JUMPDEST POP PUSH1 0x24 CALLDATALOAD SWAP1 CALLER PUSH2 0x376E JUMP JUMPDEST PUSH1 0x20 PUSH1 0x40 MLOAD PUSH1 0x1 DUP2 MSTORE RETURN JUMPDEST CALLVALUE PUSH2 0x3A2 JUMPI PUSH1 0x20 CALLDATASIZE PUSH1 0x3 NOT ADD SLT PUSH2 0x3A2 JUMPI PUSH2 0x48D PUSH2 0x2D13 JUMP JUMPDEST PUSH1 0xC SLOAD PUSH1 0x1 PUSH1 0x1 PUSH1 0xA0 SHL SUB AND ISZERO PUSH2 0x4CF JUMPI PUSH1 0x1 PUSH1 0x1 PUSH1 0xA0 SHL SUB AND CALLER PUSH32 0xBFA9BE947969A7D4F47ECEEDB207379702A5E9E8B82EC09D564DA75195F8689E PUSH1 0x0 DUP1 LOG3 STOP JUMPDEST PUSH1 0x40 MLOAD PUSH3 0x461BCD PUSH1 0xE5 SHL DUP2 MSTORE PUSH1 0x20 PUSH1 0x4 DUP3 ADD MSTORE PUSH1 0x12 PUSH1 0x24 DUP3 ADD MSTORE PUSH18 0x11DBDD995C9B985B98D9481B9BDD081CD95D PUSH1 0x72 SHL PUSH1 0x44 DUP3 ADD MSTORE PUSH1 0x64 SWAP1 REVERT JUMPDEST CALLVALUE PUSH2 0x3A2 JUMPI PUSH1 0x0 CALLDATASIZE PUSH1 0x3 NOT ADD SLT PUSH2 0x3A2 JUMPI PUSH1 0x20 PUSH1 0x40 MLOAD PUSH32 0x71840DC4906352362B0CDAF79870196C8E42ACAFADE72D5D5A6D59291253CEB1 DUP2 MSTORE RETURN JUMPDEST CALLVALUE PUSH2 0x3A2 JUMPI PUSH1 0x20 CALLDATASIZE PUSH1 0x3 NOT ADD SLT PUSH2 0x3A2 JUMPI PUSH2 0x56D PUSH2 0x560 PUSH2 0x2D13 JUMP JUMPDEST PUSH2 0x568 PUSH2 0x39EA JUMP JUMPDEST PUSH2 0x30B1 JUMP JUMPDEST STOP JUMPDEST CALLVALUE PUSH2 0x3A2 JUMPI PUSH1 0x40 CALLDATASIZE PUSH1 0x3 NOT ADD SLT PUSH2 0x3A2 JUMPI PUSH2 0x588 PUSH2 0x2D13 JUMP JUMPDEST PUSH32 0x19FBA008E9D79EB8A8325333A2A40C0EEB1CAD9D3DB2E3751DEF35008BC9F78F PUSH1 0x20 PUSH1 0x24 CALLDATALOAD SWAP3 PUSH2 0x5B7 PUSH2 0x39EA JUMP JUMPDEST PUSH1 0x1 PUSH1 0x1 PUSH1 0xA0 SHL SUB AND PUSH1 0x0 DUP2 DUP2 MSTORE PUSH1 0x2 DUP4 MSTORE PUSH1 0x40 SWAP1 DUP2 SWAP1 KECCAK256 DUP6 SWAP1 SSTORE MLOAD SWAP4 DUP5 MSTORE SWAP3 LOG2 STOP JUMPDEST CALLVALUE PUSH2 0x3A2 JUMPI PUSH1 0x20 CALLDATASIZE PUSH1 0x3 NOT ADD SLT PUSH2 0x3A2 JUMPI PUSH32 0x75176781F69C55E26FEE85D480452B0B9038B9428704BB7B232FC1C638BBF803 PUSH1 0x20 PUSH1 0x4 CALLDATALOAD PUSH2 0x619 PUSH2 0x31EC JUMP JUMPDEST DUP1 PUSH1 0xD SSTORE PUSH1 0x40 MLOAD SWAP1 DUP2 MSTORE LOG1 STOP JUMPDEST CALLVALUE PUSH2 0x3A2 JUMPI PUSH1 0x0 CALLDATASIZE PUSH1 0x3 NOT ADD SLT PUSH2 0x3A2 JUMPI PUSH1 0x20 PUSH1 0x40 MLOAD PUSH32 0x65D7A28E3265B37A6474929F336521B332C1681B933F6CB9F3376673440D862A DUP2 MSTORE RETURN JUMPDEST CALLVALUE PUSH2 0x3A2 JUMPI PUSH1 0x0 CALLDATASIZE PUSH1 0x3 NOT ADD SLT PUSH2 0x3A2 JUMPI PUSH1 0x20 PUSH1 0x8 SLOAD PUSH1 0x40 MLOAD SWAP1 DUP2 MSTORE RETURN JUMPDEST CALLVALUE PUSH2 0x3A2 JUMPI PUSH1 0x40 CALLDATASIZE PUSH1 0x3 NOT ADD SLT PUSH2 0x3A2 JUMPI PUSH2 0x698 PUSH2 0x2D13 JUMP JUMPDEST PUSH2 0x6A9 PUSH2 0x6A3 PUSH2 0x2D29 JUMP JUMPDEST SWAP2 PUSH2 0x2D3F JUMP JUMPDEST SWAP1 PUSH1 0x1 DUP1 PUSH1 0xA0 SHL SUB AND PUSH1 0x0 MSTORE PUSH1 0x20 MSTORE PUSH1 0x20 PUSH1 0x40 PUSH1 0x0 KECCAK256 SLOAD PUSH1 0x40 MLOAD SWAP1 DUP2 MSTORE RETURN JUMPDEST CALLVALUE PUSH2 0x3A2 JUMPI PUSH1 0x20 CALLDATASIZE PUSH1 0x3 NOT ADD SLT PUSH2 0x3A2 JUMPI PUSH1 0x4 CALLDATALOAD PUSH2 0x6E4 PUSH2 0x31EC JUMP JUMPDEST DUP1 PUSH1 0x0 MSTORE PUSH1 0x3 PUSH1 0x20 MSTORE PUSH1 0x40 PUSH1 0x0 KECCAK256 SWAP1 PUSH1 0x6 DUP3 ADD DUP1 SLOAD PUSH1 0xFF DUP2 AND ISZERO PUSH2 0x7B4 JUMPI PUSH1 0xFF DUP2 PUSH1 0x8 SHR AND PUSH2 0x77D JUMPI PUSH2 0x100 SWAP1 PUSH2 0xFF00 NOT AND OR SWAP1 SSTORE PUSH32 0x740E00656BFFEB4991E0C72CB99C21C504D644C1F90EAFF0D75112260F588917 PUSH1 0x20 PUSH2 0x74F PUSH1 0x1 DUP6 ADD SLOAD PUSH1 0x2 DUP7 ADD SLOAD SWAP1 PUSH2 0x2E69 JUMP JUMPDEST SWAP4 PUSH2 0x75C DUP6 PUSH1 0xB SLOAD PUSH2 0x2E69 JUMP JUMPDEST PUSH1 0xB SSTORE PUSH2 0x769 DUP6 ADDRESS PUSH2 0x3C14 JUMP JUMPDEST SLOAD PUSH1 0x40 MLOAD SWAP5 DUP6 MSTORE PUSH1 0x1 PUSH1 0x1 PUSH1 0xA0 SHL SUB AND SWAP4 LOG3 STOP JUMPDEST PUSH1 0x40 MLOAD PUSH3 0x461BCD PUSH1 0xE5 SHL DUP2 MSTORE PUSH1 0x20 PUSH1 0x4 DUP3 ADD MSTORE PUSH1 0xF PUSH1 0x24 DUP3 ADD MSTORE PUSH15 0x105B1C9958591E481C995D9BDAD959 PUSH1 0x8A SHL PUSH1 0x44 DUP3 ADD MSTORE PUSH1 0x64 SWAP1 REVERT JUMPDEST PUSH1 0x40 MLOAD PUSH3 0x461BCD PUSH1 0xE5 SHL DUP2 MSTORE PUSH1 0x20 PUSH1 0x4 DUP3 ADD MSTORE PUSH1 0xD PUSH1 0x24 DUP3 ADD MSTORE PUSH13 0x4E6F74207265766F6361626C65 PUSH1 0x98 SHL PUSH1 0x44 DUP3 ADD MSTORE PUSH1 0x64 SWAP1 REVERT JUMPDEST CALLVALUE PUSH2 0x3A2 JUMPI PUSH1 0x40 CALLDATASIZE PUSH1 0x3 NOT ADD SLT PUSH2 0x3A2 JUMPI PUSH2 0x56D PUSH1 0x4 CALLDATALOAD PUSH2 0x808 PUSH2 0x2D29 JUMP JUMPDEST SWAP1 PUSH2 0x81A PUSH2 0x815 DUP3 PUSH2 0x2FB6 JUMP JUMPDEST PUSH2 0x325E JUMP JUMPDEST PUSH2 0x3A20 JUMP JUMPDEST CALLVALUE PUSH2 0x3A2 JUMPI PUSH1 0x0 CALLDATASIZE PUSH1 0x3 NOT ADD SLT PUSH2 0x3A2 JUMPI PUSH1 0x20 PUSH1 0x40 MLOAD PUSH32 0x9F2DF0FED2C77648DE5860A4CC508CD0818C85B8B8A1AB4CEEEF8D981C8956A6 DUP2 MSTORE RETURN JUMPDEST CALLVALUE PUSH2 0x3A2 JUMPI PUSH1 0x20 CALLDATASIZE PUSH1 0x3 NOT ADD SLT PUSH2 0x3A2 JUMPI PUSH2 0x873 PUSH2 0x2D13 JUMP JUMPDEST PUSH1 0x0 DUP1 MLOAD PUSH1 0x20 PUSH2 0x404B DUP4 CODECOPY DUP2 MLOAD SWAP2 MSTORE SLOAD PUSH1 0xFF DUP2 PUSH1 0x40 SHR AND ISZERO SWAP1 PUSH8 0xFFFFFFFFFFFFFFFF DUP2 AND DUP1 ISZERO SWAP1 DUP2 PUSH2 0xDEE JUMPI JUMPDEST PUSH1 0x1 EQ SWAP1 DUP2 PUSH2 0xDE4 JUMPI JUMPDEST ISZERO SWAP1 DUP2 PUSH2 0xDDB JUMPI JUMPDEST POP PUSH2 0xDCA JUMPI PUSH8 0xFFFFFFFFFFFFFFFF NOT DUP2 AND PUSH1 0x1 OR PUSH1 0x0 DUP1 MLOAD PUSH1 0x20 PUSH2 0x404B DUP4 CODECOPY DUP2 MLOAD SWAP2 MSTORE SSTORE DUP2 PUSH2 0xD9D JUMPI JUMPDEST POP PUSH1 0x40 SWAP1 DUP2 MLOAD SWAP3 PUSH2 0x8ED DUP4 DUP6 PUSH2 0x2D95 JUMP JUMPDEST PUSH1 0x10 DUP5 MSTORE PUSH16 0x20B3B934A1B932B234BA102A37B5B2B7 PUSH1 0x81 SHL PUSH1 0x20 DUP6 ADD MSTORE DUP3 MLOAD SWAP4 PUSH2 0x917 DUP5 DUP7 PUSH2 0x2D95 JUMP JUMPDEST PUSH1 0x4 DUP6 MSTORE PUSH4 0x41475243 PUSH1 0xE0 SHL PUSH1 0x20 DUP7 ADD MSTORE PUSH2 0x930 PUSH2 0x3E7B JUMP JUMPDEST PUSH2 0x938 PUSH2 0x3E7B JUMP JUMPDEST DUP1 MLOAD SWAP1 PUSH8 0xFFFFFFFFFFFFFFFF DUP3 GT PUSH2 0xC7D JUMPI DUP2 SWAP1 PUSH2 0x964 PUSH1 0x0 DUP1 MLOAD PUSH1 0x20 PUSH2 0x3F2B DUP4 CODECOPY DUP2 MLOAD SWAP2 MSTORE SLOAD PUSH2 0x2E22 JUMP JUMPDEST PUSH1 0x1F DUP2 GT PUSH2 0xD20 JUMPI JUMPDEST POP PUSH1 0x20 SWAP1 PUSH1 0x1F DUP4 GT PUSH1 0x1 EQ PUSH2 0xC9E JUMPI PUSH1 0x0 SWAP3 PUSH2 0xC93 JUMPI JUMPDEST POP POP DUP2 PUSH1 0x1 SHL SWAP2 PUSH1 0x0 NOT SWAP1 PUSH1 0x3 SHL SHR NOT AND OR PUSH1 0x0 DUP1 MLOAD PUSH1 0x20 PUSH2 0x3F2B DUP4 CODECOPY DUP2 MLOAD SWAP2 MSTORE SSTORE JUMPDEST DUP4 MLOAD PUSH8 0xFFFFFFFFFFFFFFFF DUP2 GT PUSH2 0xC7D JUMPI PUSH2 0x9D0 PUSH1 0x0 DUP1 MLOAD PUSH1 0x20 PUSH2 0x3F6B DUP4 CODECOPY DUP2 MLOAD SWAP2 MSTORE SLOAD PUSH2 0x2E22 JUMP JUMPDEST PUSH1 0x1F DUP2 GT PUSH2 0xC0B JUMPI JUMPDEST POP PUSH1 0x20 SWAP5 PUSH1 0x1F DUP3 GT PUSH1 0x1 EQ PUSH2 0xB8A JUMPI SWAP5 DUP2 SWAP3 SWAP4 SWAP5 SWAP6 PUSH1 0x0 SWAP3 PUSH2 0xB7F JUMPI JUMPDEST POP POP DUP2 PUSH1 0x1 SHL SWAP2 PUSH1 0x0 NOT SWAP1 PUSH1 0x3 SHL SHR NOT AND OR PUSH1 0x0 DUP1 MLOAD PUSH1 0x20 PUSH2 0x3F6B DUP4 CODECOPY DUP2 MLOAD SWAP2 MSTORE SSTORE JUMPDEST PUSH2 0xA21 PUSH2 0x3E7B JUMP JUMPDEST PUSH2 0xA29 PUSH2 0x3E7B JUMP JUMPDEST PUSH2 0xA31 PUSH2 0x3E7B JUMP JUMPDEST PUSH2 0xA39 PUSH2 0x3E7B JUMP JUMPDEST PUSH2 0xA42 CALLER PUSH2 0x30B1 JUMP JUMPDEST PUSH2 0xA4A PUSH2 0x3E7B JUMP JUMPDEST PUSH2 0xA52 PUSH2 0x3E7B JUMP JUMPDEST PUSH2 0xA5A PUSH2 0x3E7B JUMP JUMPDEST PUSH1 0x1 PUSH1 0x0 DUP1 MLOAD PUSH1 0x20 PUSH2 0x402B DUP4 CODECOPY DUP2 MLOAD SWAP2 MSTORE SSTORE PUSH2 0xA74 PUSH2 0x3E7B JUMP JUMPDEST CALLER ISZERO PUSH2 0xB69 JUMPI PUSH2 0xA8E PUSH10 0xD3C21BCECCEDA1000000 CALLER PUSH2 0x3D7D JUMP JUMPDEST PUSH2 0xA97 CALLER PUSH2 0x3364 JUMP JUMPDEST POP PUSH2 0xAA1 CALLER PUSH2 0x33FE JUMP JUMPDEST POP PUSH2 0xAAB CALLER PUSH2 0x34BA JUMP JUMPDEST POP PUSH2 0xAB5 CALLER PUSH2 0x3576 JUMP JUMPDEST POP PUSH2 0xABF DUP2 PUSH2 0x32A8 JUMP JUMPDEST POP PUSH1 0x1 DUP1 PUSH1 0xA0 SHL SUB AND PUSH12 0xFFFFFFFFFFFFFFFFFFFFFFFF PUSH1 0xA0 SHL PUSH1 0xC SLOAD AND OR PUSH1 0xC SSTORE TIMESTAMP PUSH1 0x9 SSTORE PUSH10 0x152D02C7E14AF6800000 PUSH1 0x5 SSTORE PUSH2 0x320 PUSH1 0x6 SSTORE PUSH1 0x1 PUSH1 0xA SSTORE PUSH10 0x152D02C7E14AF6800000 PUSH1 0xD SSTORE PUSH2 0xB11 JUMPI STOP JUMPDEST PUSH1 0x20 PUSH32 0xC7F505B2F371AE2175EE4913F4499E1F2633A7B5936321EED1CDAEB6115181D2 SWAP2 PUSH9 0xFF0000000000000000 NOT PUSH1 0x0 DUP1 MLOAD PUSH1 0x20 PUSH2 0x404B DUP4 CODECOPY DUP2 MLOAD SWAP2 MSTORE SLOAD AND PUSH1 0x0 DUP1 MLOAD PUSH1 0x20 PUSH2 0x404B DUP4 CODECOPY DUP2 MLOAD SWAP2 MSTORE SSTORE MLOAD PUSH1 0x1 DUP2 MSTORE LOG1 STOP JUMPDEST PUSH4 0xEC442F05 PUSH1 0xE0 SHL PUSH1 0x0 MSTORE PUSH1 0x0 PUSH1 0x4 MSTORE PUSH1 0x24 PUSH1 0x0 REVERT JUMPDEST ADD MLOAD SWAP1 POP DUP6 DUP1 PUSH2 0x9F6 JUMP JUMPDEST PUSH1 0x1F NOT DUP3 AND SWAP6 PUSH1 0x0 DUP1 MLOAD PUSH1 0x20 PUSH2 0x3F6B DUP4 CODECOPY DUP2 MLOAD SWAP2 MSTORE PUSH1 0x0 MSTORE DUP1 PUSH1 0x0 KECCAK256 SWAP2 PUSH1 0x0 JUMPDEST DUP9 DUP2 LT PUSH2 0xBF3 JUMPI POP DUP4 PUSH1 0x1 SWAP6 SWAP7 SWAP8 SWAP9 LT PUSH2 0xBDA JUMPI JUMPDEST POP POP POP DUP2 SHL ADD PUSH1 0x0 DUP1 MLOAD PUSH1 0x20 PUSH2 0x3F6B DUP4 CODECOPY DUP2 MLOAD SWAP2 MSTORE SSTORE PUSH2 0xA19 JUMP JUMPDEST ADD MLOAD PUSH1 0x0 NOT PUSH1 0xF8 DUP5 PUSH1 0x3 SHL AND SHR NOT AND SWAP1 SSTORE DUP6 DUP1 DUP1 PUSH2 0xBBF JUMP JUMPDEST SWAP2 SWAP3 PUSH1 0x20 PUSH1 0x1 DUP2 SWAP3 DUP7 DUP6 ADD MLOAD DUP2 SSTORE ADD SWAP5 ADD SWAP3 ADD PUSH2 0xBAA JUMP JUMPDEST PUSH1 0x0 DUP1 MLOAD PUSH1 0x20 PUSH2 0x3F6B DUP4 CODECOPY DUP2 MLOAD SWAP2 MSTORE PUSH1 0x0 MSTORE PUSH32 0x46A2803E59A4DE4E7A4C574B1243F25977AC4C77D5A1A4A609B5394CEBB4A2AA PUSH1 0x1F DUP4 ADD PUSH1 0x5 SHR DUP2 ADD SWAP2 PUSH1 0x20 DUP5 LT PUSH2 0xC73 JUMPI JUMPDEST PUSH1 0x1F ADD PUSH1 0x5 SHR ADD SWAP1 JUMPDEST DUP2 DUP2 LT PUSH2 0xC67 JUMPI POP PUSH2 0x9D9 JUMP JUMPDEST PUSH1 0x0 DUP2 SSTORE PUSH1 0x1 ADD PUSH2 0xC5A JUMP JUMPDEST SWAP1 SWAP2 POP DUP2 SWAP1 PUSH2 0xC51 JUMP JUMPDEST PUSH4 0x4E487B71 PUSH1 0xE0 SHL PUSH1 0x0 MSTORE PUSH1 0x41 PUSH1 0x4 MSTORE PUSH1 0x24 PUSH1 0x0 REVERT JUMPDEST ADD MLOAD SWAP1 POP DUP7 DUP1 PUSH2 0x984 JUMP JUMPDEST PUSH1 0x0 DUP1 MLOAD PUSH1 0x20 PUSH2 0x3F2B DUP4 CODECOPY DUP2 MLOAD SWAP2 MSTORE PUSH1 0x0 SWAP1 DUP2 MSTORE DUP3 DUP2 KECCAK256 SWAP4 POP PUSH1 0x1F NOT DUP6 AND SWAP1 JUMPDEST DUP2 DUP2 LT PUSH2 0xD08 JUMPI POP SWAP1 DUP5 PUSH1 0x1 SWAP6 SWAP5 SWAP4 SWAP3 LT PUSH2 0xCEF JUMPI JUMPDEST POP POP POP DUP2 SHL ADD PUSH1 0x0 DUP1 MLOAD PUSH1 0x20 PUSH2 0x3F2B DUP4 CODECOPY DUP2 MLOAD SWAP2 MSTORE SSTORE PUSH2 0x9A7 JUMP JUMPDEST ADD MLOAD PUSH1 0x0 NOT PUSH1 0xF8 DUP5 PUSH1 0x3 SHL AND SHR NOT AND SWAP1 SSTORE DUP7 DUP1 DUP1 PUSH2 0xCD4 JUMP JUMPDEST SWAP3 SWAP4 PUSH1 0x20 PUSH1 0x1 DUP2 SWAP3 DUP8 DUP7 ADD MLOAD DUP2 SSTORE ADD SWAP6 ADD SWAP4 ADD PUSH2 0xCBE JUMP JUMPDEST PUSH1 0x0 DUP1 MLOAD PUSH1 0x20 PUSH2 0x3F2B DUP4 CODECOPY DUP2 MLOAD SWAP2 MSTORE PUSH1 0x0 MSTORE SWAP1 SWAP2 POP PUSH32 0x2AE08A8E29253F69AC5D979A101956AB8F8D9D7DED63FA7A83B16FC47648EAB0 PUSH1 0x1F DUP5 ADD PUSH1 0x5 SHR DUP2 ADD SWAP2 PUSH1 0x20 DUP6 LT PUSH2 0xD93 JUMPI JUMPDEST SWAP1 PUSH1 0x1F DUP6 SWAP5 SWAP4 SWAP3 ADD PUSH1 0x5 SHR ADD SWAP1 JUMPDEST DUP2 DUP2 LT PUSH2 0xD84 JUMPI POP PUSH2 0x96D JUMP JUMPDEST PUSH1 0x0 DUP2 SSTORE DUP5 SWAP4 POP PUSH1 0x1 ADD PUSH2 0xD77 JUMP JUMPDEST SWAP1 SWAP2 POP DUP2 SWAP1 PUSH2 0xD69 JUMP JUMPDEST PUSH9 0xFFFFFFFFFFFFFFFFFF NOT AND PUSH9 0x10000000000000001 OR PUSH1 0x0 DUP1 MLOAD PUSH1 0x20 PUSH2 0x404B DUP4 CODECOPY DUP2 MLOAD SWAP2 MSTORE SSTORE DUP3 PUSH2 0x8DC JUMP JUMPDEST PUSH4 0xF92EE8A9 PUSH1 0xE0 SHL PUSH1 0x0 MSTORE PUSH1 0x4 PUSH1 0x0 REVERT JUMPDEST SWAP1 POP ISZERO DUP5 PUSH2 0x8B2 JUMP JUMPDEST ADDRESS EXTCODESIZE ISZERO SWAP2 POP PUSH2 0x8AA JUMP JUMPDEST DUP4 SWAP2 POP PUSH2 0x8A0 JUMP JUMPDEST CALLVALUE PUSH2 0x3A2 JUMPI PUSH1 0x20 CALLDATASIZE PUSH1 0x3 NOT ADD SLT PUSH2 0x3A2 JUMPI PUSH1 0x20 PUSH2 0xE19 PUSH2 0xE14 PUSH2 0x2D13 JUMP JUMPDEST PUSH2 0x3077 JUMP JUMPDEST PUSH1 0x40 MLOAD SWAP1 DUP2 MSTORE RETURN JUMPDEST CALLVALUE PUSH2 0x3A2 JUMPI PUSH1 0x60 CALLDATASIZE PUSH1 0x3 NOT ADD SLT PUSH2 0x3A2 JUMPI PUSH1 0x4 CALLDATALOAD PUSH1 0x24 CALLDATALOAD PUSH1 0x44 CALLDATALOAD DUP1 ISZERO ISZERO DUP2 SUB PUSH2 0x3A2 JUMPI PUSH2 0xE4C PUSH2 0x3ADB JUMP JUMPDEST PUSH2 0xE54 PUSH2 0x3BEA JUMP JUMPDEST DUP3 ISZERO PUSH2 0x100A JUMPI CALLER PUSH1 0x0 MSTORE PUSH1 0x0 DUP1 MLOAD PUSH1 0x20 PUSH2 0x3F4B DUP4 CODECOPY DUP2 MLOAD SWAP2 MSTORE PUSH1 0x20 MSTORE DUP3 PUSH1 0x40 PUSH1 0x0 KECCAK256 SLOAD LT PUSH2 0xFCE JUMPI PUSH3 0x278D00 DUP3 LT ISZERO DUP1 PUSH2 0xFC0 JUMPI JUMPDEST ISZERO PUSH2 0xF85 JUMPI PUSH2 0xE97 CALLER PUSH2 0x3B17 JUMP JUMPDEST CALLER PUSH1 0x0 MSTORE PUSH1 0x4 PUSH1 0x20 MSTORE PUSH1 0x40 PUSH1 0x0 KECCAK256 SWAP1 DUP2 SLOAD PUSH2 0xF4E JUMPI PUSH2 0xED4 SWAP1 DUP5 DUP4 SSTORE TIMESTAMP PUSH1 0x1 DUP5 ADD SSTORE DUP4 PUSH1 0x2 DUP5 ADD SSTORE PUSH1 0x4 DUP4 ADD SWAP1 PUSH1 0xFF DUP1 NOT DUP4 SLOAD AND SWAP2 ISZERO ISZERO AND OR SWAP1 SSTORE JUMP JUMPDEST PUSH1 0x3 PUSH8 0xDE0B6B3A7640000 PUSH2 0xEEB PUSH1 0x8 SLOAD DUP7 PUSH2 0x2E76 JUMP JUMPDEST DIV SWAP2 ADD SSTORE PUSH2 0xEFB DUP3 PUSH1 0x7 SLOAD PUSH2 0x2E5C JUMP JUMPDEST PUSH1 0x7 SSTORE PUSH2 0xF09 DUP3 ADDRESS CALLER PUSH2 0x376E JUMP JUMPDEST PUSH1 0x40 MLOAD SWAP2 DUP3 MSTORE PUSH1 0x20 DUP3 ADD MSTORE PUSH32 0xDD2A19C3BDD089CBE77C04F5655F83DE0504D6140D12C8667646F55D0557C4DC PUSH1 0x40 CALLER SWAP3 LOG2 PUSH1 0x1 PUSH1 0x0 DUP1 MLOAD PUSH1 0x20 PUSH2 0x402B DUP4 CODECOPY DUP2 MLOAD SWAP2 MSTORE SSTORE STOP JUMPDEST PUSH1 0x40 MLOAD PUSH3 0x461BCD PUSH1 0xE5 SHL DUP2 MSTORE PUSH1 0x20 PUSH1 0x4 DUP3 ADD MSTORE PUSH1 0xF PUSH1 0x24 DUP3 ADD MSTORE PUSH15 0x416C7265616479207374616B696E67 PUSH1 0x88 SHL PUSH1 0x44 DUP3 ADD MSTORE PUSH1 0x64 SWAP1 REVERT JUMPDEST PUSH1 0x40 MLOAD PUSH3 0x461BCD PUSH1 0xE5 SHL DUP2 MSTORE PUSH1 0x20 PUSH1 0x4 DUP3 ADD MSTORE PUSH1 0x13 PUSH1 0x24 DUP3 ADD MSTORE PUSH19 0x125B9D985B1A59081B1BD8DAC81C195C9A5BD9 PUSH1 0x6A SHL PUSH1 0x44 DUP3 ADD MSTORE PUSH1 0x64 SWAP1 REVERT JUMPDEST POP PUSH4 0x1E13380 DUP3 GT ISZERO PUSH2 0xE89 JUMP JUMPDEST PUSH1 0x40 MLOAD PUSH3 0x461BCD PUSH1 0xE5 SHL DUP2 MSTORE PUSH1 0x20 PUSH1 0x4 DUP3 ADD MSTORE PUSH1 0x14 PUSH1 0x24 DUP3 ADD MSTORE PUSH20 0x496E73756666696369656E742062616C616E6365 PUSH1 0x60 SHL PUSH1 0x44 DUP3 ADD MSTORE PUSH1 0x64 SWAP1 REVERT JUMPDEST PUSH1 0x40 MLOAD PUSH3 0x461BCD PUSH1 0xE5 SHL DUP2 MSTORE PUSH1 0x20 PUSH1 0x4 DUP3 ADD MSTORE PUSH1 0x12 PUSH1 0x24 DUP3 ADD MSTORE PUSH18 0x416D6F756E74206D757374206265203E203 PUSH1 0x74 SHL PUSH1 0x44 DUP3 ADD MSTORE PUSH1 0x64 SWAP1 REVERT JUMPDEST CALLVALUE PUSH2 0x3A2 JUMPI PUSH1 0x20 CALLDATASIZE PUSH1 0x3 NOT ADD SLT PUSH2 0x3A2 JUMPI PUSH1 0x4 CALLDATALOAD PUSH2 0x1060 PUSH2 0x3127 JUMP JUMPDEST PUSH2 0x1388 DUP2 GT PUSH2 0x115D JUMPI PUSH2 0x1075 PUSH1 0x9 SLOAD TIMESTAMP PUSH2 0x2E69 JUMP JUMPDEST DUP1 ISZERO ISZERO DUP1 PUSH2 0x1152 JUMPI JUMPDEST PUSH2 0x10B8 JUMPI JUMPDEST PUSH32 0x39C078E0C9BE5A018723AE5517E933105B55D82377B3F6B19DB1933767A21BDC PUSH1 0x20 DUP4 TIMESTAMP PUSH1 0x9 SSTORE DUP1 PUSH1 0x6 SSTORE PUSH1 0x40 MLOAD SWAP1 DUP2 MSTORE LOG1 STOP JUMPDEST SWAP1 PUSH5 0x496CEBB800 PUSH2 0x10D7 PUSH1 0x7 SLOAD SWAP4 PUSH2 0x10D2 PUSH1 0x6 SLOAD DUP7 PUSH2 0x2E76 JUMP JUMPDEST PUSH2 0x2E76 JUMP JUMPDEST DIV SWAP1 PUSH8 0xDE0B6B3A7640000 DUP3 MUL SWAP2 DUP1 DUP4 DIV PUSH8 0xDE0B6B3A7640000 EQ SWAP1 ISZERO OR ISZERO PUSH2 0x113C JUMPI PUSH2 0x1132 PUSH2 0x112A PUSH32 0x39C078E0C9BE5A018723AE5517E933105B55D82377B3F6B19DB1933767A21BDC SWAP5 PUSH1 0x20 SWAP5 PUSH2 0x2E89 JUMP JUMPDEST PUSH1 0x8 SLOAD PUSH2 0x2E5C JUMP JUMPDEST PUSH1 0x8 SSTORE SWAP2 POP PUSH2 0x1083 JUMP JUMPDEST PUSH4 0x4E487B71 PUSH1 0xE0 SHL PUSH1 0x0 MSTORE PUSH1 0x11 PUSH1 0x4 MSTORE PUSH1 0x24 PUSH1 0x0 REVERT JUMPDEST POP PUSH1 0x7 SLOAD ISZERO ISZERO PUSH2 0x107E JUMP JUMPDEST PUSH1 0x40 MLOAD PUSH3 0x461BCD PUSH1 0xE5 SHL DUP2 MSTORE PUSH1 0x20 PUSH1 0x4 DUP3 ADD MSTORE PUSH1 0xD PUSH1 0x24 DUP3 ADD MSTORE PUSH13 0xA4C2E8CA40E8DEDE40D0D2CED PUSH1 0x9B SHL PUSH1 0x44 DUP3 ADD MSTORE PUSH1 0x64 SWAP1 REVERT JUMPDEST CALLVALUE PUSH2 0x3A2 JUMPI PUSH1 0x0 CALLDATASIZE PUSH1 0x3 NOT ADD SLT PUSH2 0x3A2 JUMPI PUSH1 0x20 PUSH1 0xD SLOAD PUSH1 0x40 MLOAD SWAP1 DUP2 MSTORE RETURN JUMPDEST CALLVALUE PUSH2 0x3A2 JUMPI PUSH1 0x0 CALLDATASIZE PUSH1 0x3 NOT ADD SLT PUSH2 0x3A2 JUMPI PUSH1 0xC SLOAD PUSH1 0x40 MLOAD PUSH1 0x1 PUSH1 0x1 PUSH1 0xA0 SHL SUB SWAP1 SWAP2 AND DUP2 MSTORE PUSH1 0x20 SWAP1 RETURN JUMPDEST CALLVALUE PUSH2 0x3A2 JUMPI PUSH1 0x0 CALLDATASIZE PUSH1 0x3 NOT ADD SLT PUSH2 0x3A2 JUMPI PUSH2 0x1218 PUSH1 0x40 DUP1 MLOAD SWAP1 PUSH2 0x11FC DUP2 DUP4 PUSH2 0x2D95 JUMP JUMPDEST PUSH1 0x5 DUP3 MSTORE PUSH5 0x352E302E3 PUSH1 0xDC SHL PUSH1 0x20 DUP4 ADD MSTORE MLOAD SWAP2 DUP3 SWAP2 DUP3 PUSH2 0x2CCA JUMP JUMPDEST SUB SWAP1 RETURN JUMPDEST CALLVALUE PUSH2 0x3A2 JUMPI PUSH1 0xC0 CALLDATASIZE PUSH1 0x3 NOT ADD SLT PUSH2 0x3A2 JUMPI PUSH2 0x1235 PUSH2 0x2D13 JUMP JUMPDEST PUSH1 0x24 CALLDATALOAD SWAP1 PUSH1 0x64 CALLDATALOAD PUSH1 0x84 CALLDATALOAD SWAP2 PUSH1 0xA4 CALLDATALOAD SWAP1 DUP2 ISZERO ISZERO DUP1 SWAP3 SUB PUSH2 0x3A2 JUMPI PUSH2 0x1256 PUSH2 0x31EC JUMP JUMPDEST PUSH1 0x1 PUSH1 0x1 PUSH1 0xA0 SHL SUB AND SWAP2 DUP3 ISZERO PUSH2 0x1486 JUMPI DUP5 ISZERO PUSH2 0x1450 JUMPI PUSH2 0x129C PUSH12 0x33B2E3C9FD0803CE8000000 PUSH2 0x1295 DUP8 PUSH1 0x0 DUP1 MLOAD PUSH1 0x20 PUSH2 0x3FAB DUP4 CODECOPY DUP2 MLOAD SWAP2 MSTORE SLOAD PUSH2 0x2E5C JUMP JUMPDEST GT ISZERO PUSH2 0x2FD7 JUMP JUMPDEST DUP1 ISZERO PUSH2 0x1418 JUMPI DUP1 DUP5 GT PUSH2 0x13D3 JUMPI PUSH1 0xA SLOAD SWAP4 PUSH1 0x0 NOT DUP6 EQ PUSH2 0x113C JUMPI PUSH1 0x20 SWAP6 DUP6 SWAP4 PUSH32 0xC5FE10002947D574AA59081D50C74A9A815E093167384EE589A1C827BFD9D3AF SWAP4 PUSH2 0x1395 PUSH1 0x6 DUP11 SWAP6 PUSH1 0x1 DUP10 ADD PUSH1 0xA SSTORE PUSH1 0x40 MLOAD SWAP1 PUSH2 0x12F8 DUP3 PUSH2 0x2D78 JUMP JUMPDEST DUP11 DUP3 MSTORE DUP8 DUP3 ADD SWAP5 DUP8 DUP7 MSTORE PUSH1 0x40 DUP4 ADD PUSH1 0x0 DUP2 MSTORE PUSH1 0x60 DUP5 ADD SWAP1 PUSH1 0x44 CALLDATALOAD DUP3 MSTORE PUSH1 0x80 DUP6 ADD SWAP3 DUP4 MSTORE PUSH1 0xA0 DUP6 ADD SWAP4 DUP5 MSTORE PUSH1 0xC0 DUP6 ADD SWAP9 DUP10 MSTORE PUSH1 0xE0 DUP6 ADD SWAP8 PUSH1 0x0 DUP10 MSTORE DUP14 PUSH1 0x0 MSTORE PUSH1 0x3 DUP13 MSTORE PUSH1 0x40 PUSH1 0x0 KECCAK256 SWAP6 PUSH1 0x1 DUP1 PUSH1 0xA0 SHL SUB SWAP1 MLOAD AND PUSH12 0xFFFFFFFFFFFFFFFFFFFFFFFF PUSH1 0xA0 SHL DUP8 SLOAD AND OR DUP7 SSTORE MLOAD PUSH1 0x1 DUP7 ADD SSTORE MLOAD PUSH1 0x2 DUP6 ADD SSTORE MLOAD PUSH1 0x3 DUP5 ADD SSTORE MLOAD PUSH1 0x4 DUP4 ADD SSTORE MLOAD PUSH1 0x5 DUP3 ADD SSTORE ADD SWAP3 MLOAD ISZERO ISZERO DUP4 SWAP1 PUSH1 0xFF DUP1 NOT DUP4 SLOAD AND SWAP2 ISZERO ISZERO AND OR SWAP1 SSTORE JUMP JUMPDEST MLOAD ISZERO ISZERO PUSH2 0xFF00 DUP3 SLOAD SWAP2 PUSH1 0x8 SHL AND SWAP1 PUSH2 0xFF00 NOT AND OR SWAP1 SSTORE PUSH2 0x13B7 DUP2 PUSH1 0xB SLOAD PUSH2 0x2E5C JUMP JUMPDEST PUSH1 0xB SSTORE PUSH2 0x13C4 DUP2 ADDRESS PUSH2 0x3AC0 JUMP JUMPDEST PUSH1 0x40 MLOAD SWAP1 DUP2 MSTORE LOG3 PUSH1 0x40 MLOAD SWAP1 DUP2 MSTORE RETURN JUMPDEST PUSH1 0x40 MLOAD PUSH3 0x461BCD PUSH1 0xE5 SHL DUP2 MSTORE PUSH1 0x20 PUSH1 0x4 DUP3 ADD MSTORE PUSH1 0x1C PUSH1 0x24 DUP3 ADD MSTORE PUSH32 0x436C6966662063616E6E6F7420657863656564206475726174696F6E00000000 PUSH1 0x44 DUP3 ADD MSTORE PUSH1 0x64 SWAP1 REVERT JUMPDEST PUSH1 0x40 MLOAD PUSH3 0x461BCD PUSH1 0xE5 SHL DUP2 MSTORE PUSH1 0x20 PUSH1 0x4 DUP3 ADD MSTORE PUSH1 0x10 PUSH1 0x24 DUP3 ADD MSTORE PUSH16 0x24B73B30B634B210323AB930BA34B7B7 PUSH1 0x81 SHL PUSH1 0x44 DUP3 ADD MSTORE PUSH1 0x64 SWAP1 REVERT JUMPDEST PUSH1 0x40 MLOAD PUSH3 0x461BCD PUSH1 0xE5 SHL DUP2 MSTORE PUSH1 0x20 PUSH1 0x4 DUP3 ADD MSTORE PUSH1 0xE PUSH1 0x24 DUP3 ADD MSTORE PUSH14 0x125B9D985B1A5908185B5BDD5B9D PUSH1 0x92 SHL PUSH1 0x44 DUP3 ADD MSTORE PUSH1 0x64 SWAP1 REVERT JUMPDEST PUSH1 0x40 MLOAD PUSH3 0x461BCD PUSH1 0xE5 SHL DUP2 MSTORE PUSH1 0x20 PUSH1 0x4 DUP3 ADD MSTORE PUSH1 0x13 PUSH1 0x24 DUP3 ADD MSTORE PUSH19 0x496E76616C69642062656E6566696369617279 PUSH1 0x68 SHL PUSH1 0x44 DUP3 ADD MSTORE PUSH1 0x64 SWAP1 REVERT JUMPDEST CALLVALUE PUSH2 0x3A2 JUMPI PUSH1 0x20 CALLDATASIZE PUSH1 0x3 NOT ADD SLT PUSH2 0x3A2 JUMPI PUSH1 0x1 PUSH1 0x1 PUSH1 0xA0 SHL SUB PUSH2 0x14E2 PUSH2 0x2D13 JUMP JUMPDEST AND PUSH1 0x0 MSTORE PUSH1 0x4 PUSH1 0x20 MSTORE PUSH1 0x40 PUSH1 0x0 KECCAK256 PUSH1 0x40 MLOAD SWAP1 PUSH1 0xA0 DUP3 ADD DUP3 DUP2 LT PUSH8 0xFFFFFFFFFFFFFFFF DUP3 GT OR PUSH2 0xC7D JUMPI PUSH1 0x40 MSTORE DUP1 SLOAD DUP1 DUP4 MSTORE PUSH1 0x1 DUP3 ADD SLOAD PUSH1 0x20 DUP5 ADD SWAP1 DUP2 MSTORE PUSH1 0x2 DUP4 ADD SLOAD SWAP3 PUSH1 0x40 DUP6 ADD SWAP4 DUP5 MSTORE PUSH1 0xFF PUSH1 0x4 PUSH1 0x3 DUP4 ADD SLOAD SWAP3 PUSH1 0x60 DUP9 ADD SWAP4 DUP5 MSTORE ADD SLOAD AND ISZERO ISZERO PUSH1 0x80 DUP7 ADD MSTORE PUSH1 0x0 SWAP3 PUSH2 0x1579 JUMPI JUMPDEST POP PUSH2 0x1561 PUSH1 0x80 SWAP5 MLOAD SWAP4 MLOAD DUP1 SWAP3 MLOAD PUSH2 0x2E5C JUMP JUMPDEST SWAP1 PUSH1 0x40 MLOAD SWAP4 DUP5 MSTORE PUSH1 0x20 DUP5 ADD MSTORE PUSH1 0x40 DUP4 ADD MSTORE PUSH1 0x60 DUP3 ADD MSTORE RETURN JUMPDEST SWAP4 SWAP2 POP PUSH1 0x8 SLOAD SWAP4 PUSH2 0x158C PUSH1 0x9 SLOAD TIMESTAMP PUSH2 0x2E69 JUMP JUMPDEST DUP1 ISZERO ISZERO DUP1 PUSH2 0x1638 JUMPI JUMPDEST PUSH2 0x15C9 JUMPI JUMPDEST POP PUSH2 0x15C1 PUSH2 0x1561 SWAP2 PUSH8 0xDE0B6B3A7640000 PUSH2 0x15B8 PUSH1 0x80 SWAP9 DUP8 MLOAD PUSH2 0x2E76 JUMP JUMPDEST DIV SWAP1 MLOAD SWAP1 PUSH2 0x2E69 JUMP JUMPDEST SWAP3 SWAP5 POP PUSH2 0x154F JUMP JUMPDEST PUSH5 0x496CEBB800 PUSH2 0x15E2 PUSH1 0x7 SLOAD SWAP3 PUSH2 0x10D2 PUSH1 0x6 SLOAD DUP6 PUSH2 0x2E76 JUMP JUMPDEST DIV SWAP2 PUSH8 0xDE0B6B3A7640000 DUP4 MUL SWAP3 DUP1 DUP5 DIV PUSH8 0xDE0B6B3A7640000 EQ SWAP1 ISZERO OR ISZERO PUSH2 0x113C JUMPI PUSH8 0xDE0B6B3A7640000 PUSH2 0x15B8 PUSH2 0x162D PUSH1 0x80 SWAP10 PUSH2 0x1627 PUSH2 0x15C1 SWAP7 PUSH2 0x1561 SWAP9 PUSH2 0x2E89 JUMP JUMPDEST SWAP1 PUSH2 0x2E5C JUMP JUMPDEST SWAP9 POP POP POP SWAP2 POP PUSH2 0x159A JUMP JUMPDEST POP PUSH1 0x7 SLOAD ISZERO ISZERO PUSH2 0x1595 JUMP JUMPDEST CALLVALUE PUSH2 0x3A2 JUMPI PUSH1 0x40 CALLDATASIZE PUSH1 0x3 NOT ADD SLT PUSH2 0x3A2 JUMPI PUSH2 0x469 PUSH2 0x165F PUSH2 0x2D13 JUMP JUMPDEST PUSH1 0x24 CALLDATALOAD SWAP1 CALLER PUSH2 0x376E JUMP JUMPDEST CALLVALUE PUSH2 0x3A2 JUMPI PUSH1 0x0 CALLDATASIZE PUSH1 0x3 NOT ADD SLT PUSH2 0x3A2 JUMPI PUSH2 0x1682 PUSH2 0x3ADB JUMP JUMPDEST CALLER PUSH1 0x0 MSTORE PUSH1 0x4 PUSH1 0x20 MSTORE PUSH1 0x40 PUSH1 0x0 KECCAK256 DUP1 SLOAD ISZERO PUSH2 0x176D JUMPI PUSH2 0x16AA PUSH1 0x1 DUP3 ADD SLOAD PUSH1 0x2 DUP4 ADD SLOAD SWAP1 PUSH2 0x2E5C JUMP JUMPDEST TIMESTAMP LT PUSH2 0x1739 JUMPI PUSH2 0x16B9 CALLER PUSH2 0x3B17 JUMP JUMPDEST DUP1 SLOAD SWAP1 PUSH1 0x0 PUSH1 0x3 DUP3 ADD SLOAD SWAP2 PUSH2 0x16D0 DUP5 PUSH1 0x7 SLOAD PUSH2 0x2E69 JUMP JUMPDEST PUSH1 0x7 SSTORE SSTORE PUSH2 0x16DF DUP3 CALLER ADDRESS PUSH2 0x376E JUMP JUMPDEST DUP1 PUSH2 0x172A JUMPI JUMPDEST PUSH1 0x40 MLOAD SWAP2 DUP3 MSTORE PUSH1 0x20 DUP3 ADD MSTORE PUSH32 0x6F2D3E000C89D37446B7C0374C0125068FF316D1E3EE302336478A8CD03C2336 PUSH1 0x40 CALLER SWAP3 LOG2 PUSH1 0x1 PUSH1 0x0 DUP1 MLOAD PUSH1 0x20 PUSH2 0x402B DUP4 CODECOPY DUP2 MLOAD SWAP2 MSTORE SSTORE STOP JUMPDEST PUSH2 0x1734 DUP2 CALLER PUSH2 0x3AC0 JUMP JUMPDEST PUSH2 0x16E5 JUMP JUMPDEST PUSH1 0x40 MLOAD PUSH3 0x461BCD PUSH1 0xE5 SHL DUP2 MSTORE PUSH1 0x20 PUSH1 0x4 DUP3 ADD MSTORE PUSH1 0xC PUSH1 0x24 DUP3 ADD MSTORE PUSH12 0x14DD1A5B1B081B1BD8DAD959 PUSH1 0xA2 SHL PUSH1 0x44 DUP3 ADD MSTORE PUSH1 0x64 SWAP1 REVERT JUMPDEST PUSH1 0x40 MLOAD PUSH3 0x461BCD PUSH1 0xE5 SHL DUP2 MSTORE PUSH1 0x20 PUSH1 0x4 DUP3 ADD MSTORE PUSH1 0x13 PUSH1 0x24 DUP3 ADD MSTORE PUSH19 0x27379039BA30B5B4B733903837B9B4BA34B7B7 PUSH1 0x69 SHL PUSH1 0x44 DUP3 ADD MSTORE PUSH1 0x64 SWAP1 REVERT JUMPDEST CALLVALUE PUSH2 0x3A2 JUMPI PUSH1 0x0 CALLDATASIZE PUSH1 0x3 NOT ADD SLT PUSH2 0x3A2 JUMPI PUSH1 0x20 PUSH1 0x9 SLOAD PUSH1 0x40 MLOAD SWAP1 DUP2 MSTORE RETURN JUMPDEST CALLVALUE PUSH2 0x3A2 JUMPI PUSH1 0x0 CALLDATASIZE PUSH1 0x3 NOT ADD SLT PUSH2 0x3A2 JUMPI PUSH1 0x20 PUSH1 0x40 MLOAD PUSH1 0x0 DUP2 MSTORE RETURN JUMPDEST CALLVALUE PUSH2 0x3A2 JUMPI PUSH1 0x0 CALLDATASIZE PUSH1 0x3 NOT ADD SLT PUSH2 0x3A2 JUMPI PUSH1 0x40 MLOAD PUSH1 0x0 PUSH1 0x0 DUP1 MLOAD PUSH1 0x20 PUSH2 0x3F6B DUP4 CODECOPY DUP2 MLOAD SWAP2 MSTORE SLOAD PUSH2 0x1811 DUP2 PUSH2 0x2E22 JUMP JUMPDEST DUP1 DUP5 MSTORE SWAP1 PUSH1 0x1 DUP2 AND SWAP1 DUP2 ISZERO PUSH2 0x18B1 JUMPI POP PUSH1 0x1 EQ PUSH2 0x1845 JUMPI JUMPDEST PUSH2 0x1218 DUP4 PUSH2 0x1839 DUP2 DUP6 SUB DUP3 PUSH2 0x2D95 JUMP JUMPDEST PUSH1 0x40 MLOAD SWAP2 DUP3 SWAP2 DUP3 PUSH2 0x2CCA JUMP JUMPDEST PUSH1 0x0 DUP1 MLOAD PUSH1 0x20 PUSH2 0x3F6B DUP4 CODECOPY DUP2 MLOAD SWAP2 MSTORE PUSH1 0x0 SWAP1 DUP2 MSTORE PUSH32 0x46A2803E59A4DE4E7A4C574B1243F25977AC4C77D5A1A4A609B5394CEBB4A2AA SWAP4 SWAP3 POP SWAP1 JUMPDEST DUP1 DUP3 LT PUSH2 0x1897 JUMPI POP SWAP1 SWAP2 POP DUP2 ADD PUSH1 0x20 ADD PUSH2 0x1839 PUSH2 0x1829 JUMP JUMPDEST SWAP2 SWAP3 PUSH1 0x1 DUP2 PUSH1 0x20 SWAP3 SLOAD DUP4 DUP6 DUP9 ADD ADD MSTORE ADD SWAP2 ADD SWAP1 SWAP3 SWAP2 PUSH2 0x187F JUMP JUMPDEST PUSH1 0xFF NOT AND PUSH1 0x20 DUP1 DUP7 ADD SWAP2 SWAP1 SWAP2 MSTORE SWAP2 ISZERO ISZERO PUSH1 0x5 SHL DUP5 ADD SWAP1 SWAP2 ADD SWAP2 POP PUSH2 0x1839 SWAP1 POP PUSH2 0x1829 JUMP JUMPDEST CALLVALUE PUSH2 0x3A2 JUMPI PUSH1 0x40 CALLDATASIZE PUSH1 0x3 NOT ADD SLT PUSH2 0x3A2 JUMPI PUSH2 0x18EE PUSH2 0x2D13 JUMP JUMPDEST PUSH2 0x18F6 PUSH2 0x39EA JUMP JUMPDEST PUSH1 0x1 PUSH1 0x1 PUSH1 0xA0 SHL SUB AND ADDRESS DUP2 EQ PUSH2 0x1992 JUMPI PUSH1 0x20 PUSH1 0x0 SWAP2 PUSH1 0x44 PUSH1 0x1 DUP1 PUSH1 0xA0 SHL SUB PUSH1 0x0 DUP1 MLOAD PUSH1 0x20 PUSH2 0x3F8B DUP4 CODECOPY DUP2 MLOAD SWAP2 MSTORE SLOAD AND PUSH1 0x40 MLOAD SWAP5 DUP6 SWAP4 DUP5 SWAP3 PUSH4 0xA9059CBB PUSH1 0xE0 SHL DUP5 MSTORE PUSH1 0x4 DUP5 ADD MSTORE PUSH1 0x24 CALLDATALOAD PUSH1 0x24 DUP5 ADD MSTORE GAS CALL DUP1 ISZERO PUSH2 0x1986 JUMPI PUSH2 0x1952 JUMPI STOP JUMPDEST PUSH1 0x20 DUP2 RETURNDATASIZE PUSH1 0x20 GT PUSH2 0x197E JUMPI JUMPDEST DUP2 PUSH2 0x196B PUSH1 0x20 SWAP4 DUP4 PUSH2 0x2D95 JUMP JUMPDEST DUP2 ADD SUB SLT PUSH2 0x3A2 JUMPI MLOAD DUP1 ISZERO ISZERO SUB PUSH2 0x3A2 JUMPI STOP JUMPDEST RETURNDATASIZE SWAP2 POP PUSH2 0x195E JUMP JUMPDEST PUSH1 0x40 MLOAD RETURNDATASIZE PUSH1 0x0 DUP3 RETURNDATACOPY RETURNDATASIZE SWAP1 REVERT JUMPDEST PUSH1 0x40 MLOAD PUSH3 0x461BCD PUSH1 0xE5 SHL DUP2 MSTORE PUSH1 0x20 PUSH1 0x4 DUP3 ADD MSTORE PUSH1 0x1C PUSH1 0x24 DUP3 ADD MSTORE PUSH32 0x43616E6E6F74207769746864726177206E617469766520746F6B656E00000000 PUSH1 0x44 DUP3 ADD MSTORE PUSH1 0x64 SWAP1 REVERT JUMPDEST CALLVALUE PUSH2 0x3A2 JUMPI PUSH1 0x40 CALLDATASIZE PUSH1 0x3 NOT ADD SLT PUSH2 0x3A2 JUMPI PUSH2 0x19F0 PUSH2 0x2D29 JUMP JUMPDEST PUSH1 0x4 CALLDATALOAD PUSH1 0x0 MSTORE PUSH1 0x0 DUP1 MLOAD PUSH1 0x20 PUSH2 0x3FEB DUP4 CODECOPY DUP2 MLOAD SWAP2 MSTORE PUSH1 0x20 MSTORE PUSH1 0x40 PUSH1 0x0 KECCAK256 SWAP1 PUSH1 0x1 DUP1 PUSH1 0xA0 SHL SUB AND PUSH1 0x0 MSTORE PUSH1 0x20 MSTORE PUSH1 0x20 PUSH1 0xFF PUSH1 0x40 PUSH1 0x0 KECCAK256 SLOAD AND PUSH1 0x40 MLOAD SWAP1 ISZERO ISZERO DUP2 MSTORE RETURN JUMPDEST CALLVALUE PUSH2 0x3A2 JUMPI PUSH1 0x0 CALLDATASIZE PUSH1 0x3 NOT ADD SLT PUSH2 0x3A2 JUMPI PUSH1 0x0 DUP1 MLOAD PUSH1 0x20 PUSH2 0x3F8B DUP4 CODECOPY DUP2 MLOAD SWAP2 MSTORE SLOAD PUSH1 0x40 MLOAD PUSH1 0x1 PUSH1 0x1 PUSH1 0xA0 SHL SUB SWAP1 SWAP2 AND DUP2 MSTORE PUSH1 0x20 SWAP1 RETURN JUMPDEST CALLVALUE PUSH2 0x3A2 JUMPI PUSH1 0x40 CALLDATASIZE PUSH1 0x3 NOT ADD SLT PUSH2 0x3A2 JUMPI PUSH1 0x4 CALLDATALOAD PUSH8 0xFFFFFFFFFFFFFFFF DUP2 GT PUSH2 0x3A2 JUMPI CALLDATASIZE PUSH1 0x23 DUP3 ADD SLT ISZERO PUSH2 0x3A2 JUMPI DUP1 PUSH1 0x4 ADD CALLDATALOAD PUSH2 0x1AA3 DUP2 PUSH2 0x2E0A JUMP JUMPDEST SWAP2 PUSH2 0x1AB1 PUSH1 0x40 MLOAD SWAP4 DUP5 PUSH2 0x2D95 JUMP JUMPDEST DUP2 DUP4 MSTORE PUSH1 0x24 PUSH1 0x20 DUP5 ADD SWAP3 PUSH1 0x5 SHL DUP3 ADD ADD SWAP1 CALLDATASIZE DUP3 GT PUSH2 0x3A2 JUMPI PUSH1 0x24 ADD SWAP2 JUMPDEST DUP2 DUP4 LT PUSH2 0x1C2C JUMPI PUSH1 0x24 CALLDATALOAD DUP5 PUSH8 0xFFFFFFFFFFFFFFFF DUP3 GT PUSH2 0x3A2 JUMPI CALLDATASIZE PUSH1 0x23 DUP4 ADD SLT ISZERO PUSH2 0x3A2 JUMPI DUP2 PUSH1 0x4 ADD CALLDATALOAD SWAP2 PUSH2 0x1B02 DUP4 PUSH2 0x2E0A JUMP JUMPDEST SWAP3 PUSH2 0x1B10 PUSH1 0x40 MLOAD SWAP5 DUP6 PUSH2 0x2D95 JUMP JUMPDEST DUP1 DUP5 MSTORE PUSH1 0x24 PUSH1 0x20 DUP6 ADD SWAP2 PUSH1 0x5 SHL DUP4 ADD ADD SWAP2 CALLDATASIZE DUP4 GT PUSH2 0x3A2 JUMPI PUSH1 0x24 ADD SWAP1 JUMPDEST DUP3 DUP3 LT PUSH2 0x1C1C JUMPI POP POP POP PUSH2 0x1B3F PUSH2 0x3ADB JUMP JUMPDEST DUP1 MLOAD DUP3 MLOAD SUB PUSH2 0x1BDE JUMPI PUSH1 0x64 DUP2 MLOAD GT PUSH2 0x1BA3 JUMPI PUSH1 0x0 JUMPDEST DUP2 MLOAD DUP2 LT ISZERO PUSH2 0x1B8F JUMPI PUSH1 0x1 SWAP1 PUSH2 0x1B89 PUSH1 0x1 PUSH1 0x1 PUSH1 0xA0 SHL SUB PUSH2 0x1B75 DUP4 DUP7 PUSH2 0x304D JUMP JUMPDEST MLOAD AND PUSH2 0x1B81 DUP4 DUP8 PUSH2 0x304D JUMP JUMPDEST MLOAD SWAP1 CALLER PUSH2 0x376E JUMP JUMPDEST ADD PUSH2 0x1B54 JUMP JUMPDEST PUSH1 0x1 PUSH1 0x0 DUP1 MLOAD PUSH1 0x20 PUSH2 0x402B DUP4 CODECOPY DUP2 MLOAD SWAP2 MSTORE SSTORE STOP JUMPDEST PUSH1 0x40 MLOAD PUSH3 0x461BCD PUSH1 0xE5 SHL DUP2 MSTORE PUSH1 0x20 PUSH1 0x4 DUP3 ADD MSTORE PUSH1 0x13 PUSH1 0x24 DUP3 ADD MSTORE PUSH19 0x546F6F206D616E7920726563697069656E7473 PUSH1 0x68 SHL PUSH1 0x44 DUP3 ADD MSTORE PUSH1 0x64 SWAP1 REVERT JUMPDEST PUSH1 0x40 MLOAD PUSH3 0x461BCD PUSH1 0xE5 SHL DUP2 MSTORE PUSH1 0x20 PUSH1 0x4 DUP3 ADD MSTORE PUSH1 0x16 PUSH1 0x24 DUP3 ADD MSTORE PUSH22 0x82E4E4C2F2E640D8CADCCEE8D040DAD2E6DAC2E8C6D PUSH1 0x53 SHL PUSH1 0x44 DUP3 ADD MSTORE PUSH1 0x64 SWAP1 REVERT JUMPDEST DUP2 CALLDATALOAD DUP2 MSTORE PUSH1 0x20 SWAP2 DUP3 ADD SWAP2 ADD PUSH2 0x1B2D JUMP JUMPDEST DUP3 CALLDATALOAD PUSH1 0x1 PUSH1 0x1 PUSH1 0xA0 SHL SUB DUP2 AND DUP2 SUB PUSH2 0x3A2 JUMPI DUP2 MSTORE PUSH1 0x20 SWAP3 DUP4 ADD SWAP3 ADD PUSH2 0x1ACE JUMP JUMPDEST CALLVALUE PUSH2 0x3A2 JUMPI PUSH1 0x0 CALLDATASIZE PUSH1 0x3 NOT ADD SLT PUSH2 0x3A2 JUMPI PUSH2 0x1C65 PUSH2 0x317A JUMP JUMPDEST PUSH2 0x1C6D PUSH2 0x3BEA JUMP JUMPDEST PUSH1 0x1 PUSH1 0xFF NOT PUSH1 0x0 DUP1 MLOAD PUSH1 0x20 PUSH2 0x400B DUP4 CODECOPY DUP2 MLOAD SWAP2 MSTORE SLOAD AND OR PUSH1 0x0 DUP1 MLOAD PUSH1 0x20 PUSH2 0x400B DUP4 CODECOPY DUP2 MLOAD SWAP2 MSTORE SSTORE PUSH32 0x62E78CEA01BEE320CD4E420270B5EA74000D11B0C9F74754EBDBFC544B05A258 PUSH1 0x20 PUSH1 0x40 MLOAD CALLER DUP2 MSTORE LOG1 STOP JUMPDEST CALLVALUE PUSH2 0x3A2 JUMPI PUSH1 0x0 CALLDATASIZE PUSH1 0x3 NOT ADD SLT PUSH2 0x3A2 JUMPI PUSH1 0x20 PUSH1 0x7 SLOAD PUSH1 0x40 MLOAD SWAP1 DUP2 MSTORE RETURN JUMPDEST CALLVALUE PUSH2 0x3A2 JUMPI PUSH1 0x20 CALLDATASIZE PUSH1 0x3 NOT ADD SLT PUSH2 0x3A2 JUMPI PUSH1 0x1 PUSH1 0x1 PUSH1 0xA0 SHL SUB PUSH2 0x1CFF PUSH2 0x2D13 JUMP JUMPDEST AND PUSH1 0x0 MSTORE PUSH1 0x4 PUSH1 0x20 MSTORE PUSH1 0xA0 PUSH1 0x40 PUSH1 0x0 KECCAK256 DUP1 SLOAD SWAP1 PUSH1 0x1 DUP2 ADD SLOAD SWAP1 PUSH1 0x2 DUP2 ADD SLOAD PUSH1 0xFF PUSH1 0x4 PUSH1 0x3 DUP5 ADD SLOAD SWAP4 ADD SLOAD AND SWAP3 PUSH1 0x40 MLOAD SWAP5 DUP6 MSTORE PUSH1 0x20 DUP6 ADD MSTORE PUSH1 0x40 DUP5 ADD MSTORE PUSH1 0x60 DUP4 ADD MSTORE ISZERO ISZERO PUSH1 0x80 DUP3 ADD MSTORE RETURN JUMPDEST CALLVALUE PUSH2 0x3A2 JUMPI PUSH1 0x20 CALLDATASIZE PUSH1 0x3 NOT ADD SLT PUSH2 0x3A2 JUMPI PUSH1 0x4 CALLDATALOAD PUSH2 0x1D65 PUSH2 0x3ADB JUMP JUMPDEST PUSH1 0x0 DUP2 DUP2 MSTORE PUSH1 0x3 PUSH1 0x20 MSTORE PUSH1 0x40 SWAP1 KECCAK256 DUP1 SLOAD SWAP1 SWAP2 SWAP1 PUSH1 0x1 PUSH1 0x1 PUSH1 0xA0 SHL SUB AND CALLER SUB PUSH2 0x1E90 JUMPI PUSH1 0xFF PUSH1 0x6 DUP4 ADD SLOAD PUSH1 0x8 SHR AND PUSH2 0x1E58 JUMPI PUSH1 0x2 PUSH2 0x1DA1 DUP3 PUSH2 0x2EA9 JUMP JUMPDEST SWAP3 ADD PUSH2 0x1DAF DUP2 SLOAD DUP1 SWAP5 PUSH2 0x2E69 JUMP JUMPDEST SWAP3 DUP4 ISZERO PUSH2 0x1E1C JUMPI DUP4 PUSH2 0x1DC0 SWAP2 PUSH2 0x2E5C JUMP JUMPDEST SWAP1 SSTORE PUSH2 0x1DCE DUP3 PUSH1 0xB SLOAD PUSH2 0x2E69 JUMP JUMPDEST PUSH1 0xB SSTORE PUSH2 0x1DDC DUP3 CALLER ADDRESS PUSH2 0x376E JUMP JUMPDEST PUSH1 0x40 MLOAD SWAP2 DUP3 MSTORE PUSH32 0x1EB32DED03BD01F267CC718A1B829201795C275C85563136E8FCCE91B6C3C531 PUSH1 0x20 CALLER SWAP4 LOG3 PUSH1 0x1 PUSH1 0x0 DUP1 MLOAD PUSH1 0x20 PUSH2 0x402B DUP4 CODECOPY DUP2 MLOAD SWAP2 MSTORE SSTORE STOP JUMPDEST PUSH1 0x40 MLOAD PUSH3 0x461BCD PUSH1 0xE5 SHL DUP2 MSTORE PUSH1 0x20 PUSH1 0x4 DUP3 ADD MSTORE PUSH1 0x14 PUSH1 0x24 DUP3 ADD MSTORE PUSH20 0x4E6F20746F6B656E7320746F2072656C65617365 PUSH1 0x60 SHL PUSH1 0x44 DUP3 ADD MSTORE PUSH1 0x64 SWAP1 REVERT JUMPDEST PUSH1 0x40 MLOAD PUSH3 0x461BCD PUSH1 0xE5 SHL DUP2 MSTORE PUSH1 0x20 PUSH1 0x4 DUP3 ADD MSTORE PUSH1 0x10 PUSH1 0x24 DUP3 ADD MSTORE PUSH16 0x14D8DA19591D5B19481C995D9BDAD959 PUSH1 0x82 SHL PUSH1 0x44 DUP3 ADD MSTORE PUSH1 0x64 SWAP1 REVERT JUMPDEST PUSH1 0x40 MLOAD PUSH3 0x461BCD PUSH1 0xE5 SHL DUP2 MSTORE PUSH1 0x20 PUSH1 0x4 DUP3 ADD MSTORE PUSH1 0x13 PUSH1 0x24 DUP3 ADD MSTORE PUSH19 0x4E6F74207468652062656E6566696369617279 PUSH1 0x68 SHL PUSH1 0x44 DUP3 ADD MSTORE PUSH1 0x64 SWAP1 REVERT JUMPDEST CALLVALUE PUSH2 0x3A2 JUMPI PUSH1 0x0 CALLDATASIZE PUSH1 0x3 NOT ADD SLT PUSH2 0x3A2 JUMPI PUSH1 0x20 PUSH1 0x40 MLOAD PUSH2 0xE10 DUP2 MSTORE RETURN JUMPDEST CALLVALUE PUSH2 0x3A2 JUMPI PUSH1 0x40 CALLDATASIZE PUSH1 0x3 NOT ADD SLT PUSH2 0x3A2 JUMPI PUSH2 0x1F01 PUSH2 0x2D13 JUMP JUMPDEST CALLER PUSH1 0x0 SWAP1 DUP2 MSTORE PUSH32 0xFCF1B2032B1187D9F2A29150C4A608B3B6F0BDF8DD007801F86A276AF50CAD92 PUSH1 0x20 MSTORE PUSH1 0x40 SWAP1 KECCAK256 SLOAD PUSH1 0x24 CALLDATALOAD SWAP2 SWAP1 PUSH1 0xFF AND ISZERO PUSH2 0x1F89 JUMPI PUSH1 0x20 PUSH32 0xFD38818F5291BF0BB3A2A48AADC06BA8757865D1DABD804585338AAB3009DCB6 SWAP2 PUSH2 0x1F6C DUP5 CALLER DUP4 PUSH2 0x36C9 JUMP JUMPDEST PUSH2 0x1F76 DUP5 DUP3 PUSH2 0x3C14 JUMP JUMPDEST PUSH1 0x40 MLOAD SWAP4 DUP5 MSTORE PUSH1 0x1 PUSH1 0x1 PUSH1 0xA0 SHL SUB AND SWAP3 LOG2 STOP JUMPDEST PUSH4 0xE2517D3F PUSH1 0xE0 SHL PUSH1 0x0 MSTORE CALLER PUSH1 0x4 MSTORE PUSH32 0x3C11D16CBAFFD01DF69CE1C404F6340EE057498F5F00246190EA54220576A848 PUSH1 0x24 MSTORE PUSH1 0x44 PUSH1 0x0 REVERT JUMPDEST CALLVALUE PUSH2 0x3A2 JUMPI PUSH1 0x20 CALLDATASIZE PUSH1 0x3 NOT ADD SLT PUSH2 0x3A2 JUMPI PUSH2 0x1FDB PUSH2 0x2D13 JUMP JUMPDEST PUSH2 0x1FE3 PUSH2 0x39EA JUMP JUMPDEST PUSH1 0x1 PUSH1 0x1 PUSH1 0xA0 SHL SUB AND PUSH1 0x0 DUP2 DUP2 MSTORE PUSH1 0x20 DUP2 SWAP1 MSTORE PUSH1 0x40 DUP2 KECCAK256 DUP1 SLOAD PUSH1 0xFF NOT AND SWAP1 SSTORE PUSH32 0x7534C63860313C46C473E4E98328F37017E9674E2162FAF1A3AD7A96236C3B7B SWAP1 DUP1 LOG2 STOP JUMPDEST CALLVALUE PUSH2 0x3A2 JUMPI PUSH1 0x0 CALLDATASIZE PUSH1 0x3 NOT ADD SLT PUSH2 0x3A2 JUMPI PUSH2 0x2041 PUSH2 0x39EA JUMP JUMPDEST PUSH1 0x0 DUP1 MLOAD PUSH1 0x20 PUSH2 0x3F8B DUP4 CODECOPY DUP2 MLOAD SWAP2 MSTORE DUP1 SLOAD PUSH1 0x1 PUSH1 0x1 PUSH1 0xA0 SHL SUB NOT DUP2 AND SWAP1 SWAP2 SSTORE PUSH1 0x0 SWAP1 PUSH1 0x1 PUSH1 0x1 PUSH1 0xA0 SHL SUB AND PUSH32 0x8BE0079C531659141344CD1FD0A4F28419497F9722A3DAAFE3B4186F6B6457E0 DUP3 DUP1 LOG3 STOP JUMPDEST CALLVALUE PUSH2 0x3A2 JUMPI PUSH1 0x20 CALLDATASIZE PUSH1 0x3 NOT ADD SLT PUSH2 0x3A2 JUMPI PUSH1 0x1 PUSH1 0x1 PUSH1 0xA0 SHL SUB PUSH2 0x20B3 PUSH2 0x2D13 JUMP JUMPDEST AND PUSH1 0x0 MSTORE PUSH1 0x0 DUP1 MLOAD PUSH1 0x20 PUSH2 0x3F4B DUP4 CODECOPY DUP2 MLOAD SWAP2 MSTORE PUSH1 0x20 MSTORE PUSH1 0x20 PUSH1 0x40 PUSH1 0x0 KECCAK256 SLOAD PUSH1 0x40 MLOAD SWAP1 DUP2 MSTORE RETURN JUMPDEST CALLVALUE PUSH2 0x3A2 JUMPI PUSH1 0x20 CALLDATASIZE PUSH1 0x3 NOT ADD SLT PUSH2 0x3A2 JUMPI PUSH1 0x4 CALLDATALOAD PUSH1 0x0 MSTORE PUSH1 0x3 PUSH1 0x20 MSTORE PUSH2 0x100 PUSH1 0x40 PUSH1 0x0 KECCAK256 PUSH1 0xFF PUSH1 0x1 DUP1 PUSH1 0xA0 SHL SUB DUP3 SLOAD AND SWAP2 PUSH1 0x1 DUP2 ADD SLOAD SWAP1 PUSH1 0x2 DUP2 ADD SLOAD PUSH1 0x3 DUP3 ADD SLOAD PUSH1 0x4 DUP4 ADD SLOAD SWAP2 PUSH1 0x6 PUSH1 0x5 DUP6 ADD SLOAD SWAP5 ADD SLOAD SWAP5 PUSH1 0x40 MLOAD SWAP8 DUP9 MSTORE PUSH1 0x20 DUP9 ADD MSTORE PUSH1 0x40 DUP8 ADD MSTORE PUSH1 0x60 DUP7 ADD MSTORE PUSH1 0x80 DUP6 ADD MSTORE PUSH1 0xA0 DUP5 ADD MSTORE DUP2 DUP2 AND ISZERO ISZERO PUSH1 0xC0 DUP5 ADD MSTORE PUSH1 0x8 SHR AND ISZERO ISZERO PUSH1 0xE0 DUP3 ADD MSTORE RETURN JUMPDEST CALLVALUE PUSH2 0x3A2 JUMPI PUSH1 0x0 CALLDATASIZE PUSH1 0x3 NOT ADD SLT PUSH2 0x3A2 JUMPI PUSH2 0x217A PUSH2 0x3ADB JUMP JUMPDEST PUSH2 0x2183 CALLER PUSH2 0x3B17 JUMP JUMPDEST CALLER PUSH1 0x0 MSTORE PUSH1 0x4 PUSH1 0x20 MSTORE PUSH1 0x3 PUSH1 0x40 PUSH1 0x0 KECCAK256 ADD DUP1 SLOAD SWAP1 DUP2 PUSH2 0x21B0 JUMPI PUSH1 0x1 PUSH1 0x0 DUP1 MLOAD PUSH1 0x20 PUSH2 0x402B DUP4 CODECOPY DUP2 MLOAD SWAP2 MSTORE SSTORE STOP JUMPDEST PUSH1 0x0 SWAP1 SSTORE PUSH2 0x21BE DUP2 CALLER PUSH2 0x3AC0 JUMP JUMPDEST PUSH1 0x40 MLOAD SWAP1 DUP2 MSTORE PUSH32 0xC727C17294AD4F040BEC78BE22159F993FFB0F22F4DFCED8DAEAFC1EC2608A4C PUSH1 0x20 CALLER SWAP3 LOG2 DUP1 DUP1 PUSH2 0x1B8F JUMP JUMPDEST CALLVALUE PUSH2 0x3A2 JUMPI PUSH1 0x20 CALLDATASIZE PUSH1 0x3 NOT ADD SLT PUSH2 0x3A2 JUMPI PUSH1 0x1 PUSH1 0x1 PUSH1 0xA0 SHL SUB PUSH2 0x2212 PUSH2 0x2D13 JUMP JUMPDEST AND PUSH1 0x0 MSTORE PUSH1 0x2 PUSH1 0x20 MSTORE PUSH1 0x20 PUSH1 0x40 PUSH1 0x0 KECCAK256 SLOAD PUSH1 0x40 MLOAD SWAP1 DUP2 MSTORE RETURN JUMPDEST CALLVALUE PUSH2 0x3A2 JUMPI PUSH1 0x20 CALLDATASIZE PUSH1 0x3 NOT ADD SLT PUSH2 0x3A2 JUMPI PUSH1 0x20 PUSH2 0xE19 PUSH2 0x2249 PUSH2 0x2D13 JUMP JUMPDEST PUSH2 0x3018 JUMP JUMPDEST CALLVALUE PUSH2 0x3A2 JUMPI PUSH1 0x0 CALLDATASIZE PUSH1 0x3 NOT ADD SLT PUSH2 0x3A2 JUMPI PUSH1 0x20 PUSH1 0xFF PUSH1 0x0 DUP1 MLOAD PUSH1 0x20 PUSH2 0x400B DUP4 CODECOPY DUP2 MLOAD SWAP2 MSTORE SLOAD AND PUSH1 0x40 MLOAD SWAP1 ISZERO ISZERO DUP2 MSTORE RETURN JUMPDEST CALLVALUE PUSH2 0x3A2 JUMPI PUSH1 0x0 CALLDATASIZE PUSH1 0x3 NOT ADD SLT PUSH2 0x3A2 JUMPI PUSH32 0x0 PUSH1 0x1 PUSH1 0x1 PUSH1 0xA0 SHL SUB AND ADDRESS SUB PUSH2 0x22D7 JUMPI PUSH1 0x20 PUSH1 0x40 MLOAD PUSH1 0x0 DUP1 MLOAD PUSH1 0x20 PUSH2 0x3FCB DUP4 CODECOPY DUP2 MLOAD SWAP2 MSTORE DUP2 MSTORE RETURN JUMPDEST PUSH4 0x703E46DD PUSH1 0xE1 SHL PUSH1 0x0 MSTORE PUSH1 0x4 PUSH1 0x0 REVERT JUMPDEST CALLVALUE PUSH2 0x3A2 JUMPI PUSH1 0x0 CALLDATASIZE PUSH1 0x3 NOT ADD SLT PUSH2 0x3A2 JUMPI PUSH1 0x20 PUSH1 0x5 SLOAD PUSH1 0x40 MLOAD SWAP1 DUP2 MSTORE RETURN JUMPDEST CALLVALUE PUSH2 0x3A2 JUMPI PUSH1 0x0 CALLDATASIZE PUSH1 0x3 NOT ADD SLT PUSH2 0x3A2 JUMPI PUSH2 0x231F PUSH2 0x3127 JUMP JUMPDEST PUSH2 0x2327 PUSH2 0x3BEA JUMP JUMPDEST PUSH1 0x1 PUSH1 0xFF NOT PUSH1 0x0 DUP1 MLOAD PUSH1 0x20 PUSH2 0x400B DUP4 CODECOPY DUP2 MLOAD SWAP2 MSTORE SLOAD AND OR PUSH1 0x0 DUP1 MLOAD PUSH1 0x20 PUSH2 0x400B DUP4 CODECOPY DUP2 MLOAD SWAP2 MSTORE SSTORE PUSH32 0x62E78CEA01BEE320CD4E420270B5EA74000D11B0C9F74754EBDBFC544B05A258 PUSH1 0x20 PUSH1 0x40 MLOAD CALLER DUP2 MSTORE LOG1 CALLER PUSH32 0xB8FAD2FA0ED7A383E747C309EF2C4391D7B65592A48893E57CCC1FAB70791456 PUSH1 0x0 DUP1 LOG2 STOP JUMPDEST CALLVALUE PUSH2 0x3A2 JUMPI PUSH1 0x0 CALLDATASIZE PUSH1 0x3 NOT ADD SLT PUSH2 0x3A2 JUMPI PUSH1 0x20 PUSH1 0x6 SLOAD PUSH1 0x40 MLOAD SWAP1 DUP2 MSTORE RETURN JUMPDEST PUSH1 0x40 CALLDATASIZE PUSH1 0x3 NOT ADD SLT PUSH2 0x3A2 JUMPI PUSH2 0x23D2 PUSH2 0x2D13 JUMP JUMPDEST PUSH1 0x24 CALLDATALOAD PUSH8 0xFFFFFFFFFFFFFFFF DUP2 GT PUSH2 0x3A2 JUMPI CALLDATASIZE PUSH1 0x23 DUP3 ADD SLT ISZERO PUSH2 0x3A2 JUMPI PUSH2 0x2403 SWAP1 CALLDATASIZE SWAP1 PUSH1 0x24 DUP2 PUSH1 0x4 ADD CALLDATALOAD SWAP2 ADD PUSH2 0x2DD3 JUMP JUMPDEST PUSH1 0x1 PUSH1 0x1 PUSH1 0xA0 SHL SUB PUSH32 0x0 AND ADDRESS DUP2 EQ SWAP1 DUP2 ISZERO PUSH2 0x25B0 JUMPI JUMPDEST POP PUSH2 0x22D7 JUMPI PUSH2 0x2445 PUSH2 0x39EA JUMP JUMPDEST PUSH1 0x40 MLOAD PUSH4 0x52D1902D PUSH1 0xE0 SHL DUP2 MSTORE PUSH1 0x1 PUSH1 0x1 PUSH1 0xA0 SHL SUB DUP4 AND SWAP3 SWAP1 PUSH1 0x20 DUP2 PUSH1 0x4 DUP2 DUP8 GAS STATICCALL PUSH1 0x0 SWAP2 DUP2 PUSH2 0x257C JUMPI JUMPDEST POP PUSH2 0x248A JUMPI DUP4 PUSH4 0x4C9C8CE3 PUSH1 0xE0 SHL PUSH1 0x0 MSTORE PUSH1 0x4 MSTORE PUSH1 0x24 PUSH1 0x0 REVERT JUMPDEST DUP1 PUSH1 0x0 DUP1 MLOAD PUSH1 0x20 PUSH2 0x3FCB DUP4 CODECOPY DUP2 MLOAD SWAP2 MSTORE DUP6 SWAP3 SUB PUSH2 0x2568 JUMPI POP DUP2 EXTCODESIZE ISZERO PUSH2 0x2554 JUMPI PUSH1 0x0 DUP1 MLOAD PUSH1 0x20 PUSH2 0x3FCB DUP4 CODECOPY DUP2 MLOAD SWAP2 MSTORE DUP1 SLOAD PUSH1 0x1 PUSH1 0x1 PUSH1 0xA0 SHL SUB NOT AND DUP3 OR SWAP1 SSTORE PUSH32 0xBC7CD75A20EE27FD9ADEBAB32041F755214DBC6BFFA90CC0225B39DA2E5C2D3B PUSH1 0x0 DUP1 LOG2 DUP2 MLOAD ISZERO PUSH2 0x253A JUMPI PUSH1 0x0 DUP1 DUP4 PUSH1 0x20 PUSH2 0x56D SWAP6 MLOAD SWAP2 ADD DUP5 GAS DELEGATECALL RETURNDATASIZE ISZERO PUSH2 0x2532 JUMPI RETURNDATASIZE SWAP2 PUSH2 0x2515 DUP4 PUSH2 0x2DB7 JUMP JUMPDEST SWAP3 PUSH2 0x2523 PUSH1 0x40 MLOAD SWAP5 DUP6 PUSH2 0x2D95 JUMP JUMPDEST DUP4 MSTORE RETURNDATASIZE PUSH1 0x0 PUSH1 0x20 DUP6 ADD RETURNDATACOPY PUSH2 0x3EA9 JUMP JUMPDEST PUSH1 0x60 SWAP2 PUSH2 0x3EA9 JUMP JUMPDEST POP POP CALLVALUE PUSH2 0x2543 JUMPI STOP JUMPDEST PUSH4 0xB398979F PUSH1 0xE0 SHL PUSH1 0x0 MSTORE PUSH1 0x4 PUSH1 0x0 REVERT JUMPDEST PUSH4 0x4C9C8CE3 PUSH1 0xE0 SHL PUSH1 0x0 MSTORE PUSH1 0x4 MSTORE PUSH1 0x24 PUSH1 0x0 REVERT JUMPDEST PUSH4 0x2A875269 PUSH1 0xE2 SHL PUSH1 0x0 MSTORE PUSH1 0x4 MSTORE PUSH1 0x24 PUSH1 0x0 REVERT JUMPDEST SWAP1 SWAP2 POP PUSH1 0x20 DUP2 RETURNDATASIZE PUSH1 0x20 GT PUSH2 0x25A8 JUMPI JUMPDEST DUP2 PUSH2 0x2598 PUSH1 0x20 SWAP4 DUP4 PUSH2 0x2D95 JUMP JUMPDEST DUP2 ADD SUB SLT PUSH2 0x3A2 JUMPI MLOAD SWAP1 DUP6 PUSH2 0x2470 JUMP JUMPDEST RETURNDATASIZE SWAP2 POP PUSH2 0x258B JUMP JUMPDEST PUSH1 0x0 DUP1 MLOAD PUSH1 0x20 PUSH2 0x3FCB DUP4 CODECOPY DUP2 MLOAD SWAP2 MSTORE SLOAD PUSH1 0x1 PUSH1 0x1 PUSH1 0xA0 SHL SUB AND EQ ISZERO SWAP1 POP DUP4 PUSH2 0x2438 JUMP JUMPDEST CALLVALUE PUSH2 0x3A2 JUMPI PUSH1 0x0 CALLDATASIZE PUSH1 0x3 NOT ADD SLT PUSH2 0x3A2 JUMPI PUSH2 0x25EC PUSH2 0x3127 JUMP JUMPDEST PUSH1 0x0 DUP1 MLOAD PUSH1 0x20 PUSH2 0x400B DUP4 CODECOPY DUP2 MLOAD SWAP2 MSTORE SLOAD PUSH1 0xFF DUP2 AND ISZERO PUSH2 0x266B JUMPI PUSH1 0xFF NOT AND PUSH1 0x0 DUP1 MLOAD PUSH1 0x20 PUSH2 0x400B DUP4 CODECOPY DUP2 MLOAD SWAP2 MSTORE SSTORE PUSH32 0x5DB9EE0A495BF2E6FF9C91A7834C1BA4FDD244A5E8AA4E537BD38AEAE4B073AA PUSH1 0x20 PUSH1 0x40 MLOAD CALLER DUP2 MSTORE LOG1 CALLER PUSH32 0xF5CBF596165CC457B2CD92E8D8450827EE314968160A5696402D75766FC52CAF PUSH1 0x0 DUP1 LOG2 STOP JUMPDEST PUSH4 0x8DFC202B PUSH1 0xE0 SHL PUSH1 0x0 MSTORE PUSH1 0x4 PUSH1 0x0 REVERT JUMPDEST CALLVALUE PUSH2 0x3A2 JUMPI PUSH1 0x0 CALLDATASIZE PUSH1 0x3 NOT ADD SLT PUSH2 0x3A2 JUMPI PUSH1 0x20 PUSH1 0xA SLOAD PUSH1 0x40 MLOAD SWAP1 DUP2 MSTORE RETURN JUMPDEST CALLVALUE PUSH2 0x3A2 JUMPI PUSH1 0x20 CALLDATASIZE PUSH1 0x3 NOT ADD SLT PUSH2 0x3A2 JUMPI PUSH1 0x20 PUSH2 0x26B8 PUSH2 0xE14 PUSH2 0x2D13 JUMP JUMPDEST PUSH1 0xD SLOAD GT ISZERO PUSH1 0x40 MLOAD SWAP1 DUP2 MSTORE RETURN JUMPDEST CALLVALUE PUSH2 0x3A2 JUMPI PUSH1 0x20 CALLDATASIZE PUSH1 0x3 NOT ADD SLT PUSH2 0x3A2 JUMPI PUSH1 0x4 CALLDATALOAD PUSH2 0x26E3 DUP2 CALLER PUSH2 0x3C14 JUMP JUMPDEST PUSH1 0x40 MLOAD SWAP1 DUP2 MSTORE PUSH32 0xFD38818F5291BF0BB3A2A48AADC06BA8757865D1DABD804585338AAB3009DCB6 PUSH1 0x20 CALLER SWAP3 LOG2 STOP JUMPDEST CALLVALUE PUSH2 0x3A2 JUMPI PUSH1 0x40 CALLDATASIZE PUSH1 0x3 NOT ADD SLT PUSH2 0x3A2 JUMPI PUSH2 0x272A PUSH2 0x2D13 JUMP JUMPDEST CALLER PUSH1 0x0 SWAP1 DUP2 MSTORE PUSH32 0x549FE2656C81D2947B3B913F0A53B9EA86C71E049F3A1B8AA23C09A8A05CB8D4 PUSH1 0x20 MSTORE PUSH1 0x40 SWAP1 KECCAK256 SLOAD PUSH1 0x24 CALLDATALOAD SWAP1 PUSH1 0xFF AND ISZERO PUSH2 0x2797 JUMPI PUSH2 0x56D SWAP2 PUSH2 0x2792 PUSH12 0x33B2E3C9FD0803CE8000000 PUSH2 0x1295 DUP5 PUSH1 0x0 DUP1 MLOAD PUSH1 0x20 PUSH2 0x3FAB DUP4 CODECOPY DUP2 MLOAD SWAP2 MSTORE SLOAD PUSH2 0x2E5C JUMP JUMPDEST PUSH2 0x3AC0 JUMP JUMPDEST PUSH4 0xE2517D3F PUSH1 0xE0 SHL PUSH1 0x0 MSTORE CALLER PUSH1 0x4 MSTORE PUSH32 0x9F2DF0FED2C77648DE5860A4CC508CD0818C85B8B8A1AB4CEEEF8D981C8956A6 PUSH1 0x24 MSTORE PUSH1 0x44 PUSH1 0x0 REVERT JUMPDEST CALLVALUE PUSH2 0x3A2 JUMPI PUSH1 0x0 CALLDATASIZE PUSH1 0x3 NOT ADD SLT PUSH2 0x3A2 JUMPI PUSH2 0x27E9 PUSH2 0x317A JUMP JUMPDEST PUSH1 0x0 DUP1 MLOAD PUSH1 0x20 PUSH2 0x400B DUP4 CODECOPY DUP2 MLOAD SWAP2 MSTORE SLOAD PUSH1 0xFF DUP2 AND ISZERO PUSH2 0x266B JUMPI PUSH1 0xFF NOT AND PUSH1 0x0 DUP1 MLOAD PUSH1 0x20 PUSH2 0x400B DUP4 CODECOPY DUP2 MLOAD SWAP2 MSTORE SSTORE PUSH32 0x5DB9EE0A495BF2E6FF9C91A7834C1BA4FDD244A5E8AA4E537BD38AEAE4B073AA PUSH1 0x20 PUSH1 0x40 MLOAD CALLER DUP2 MSTORE LOG1 STOP JUMPDEST CALLVALUE PUSH2 0x3A2 JUMPI PUSH1 0x40 CALLDATASIZE PUSH1 0x3 NOT ADD SLT PUSH2 0x3A2 JUMPI PUSH2 0x285B PUSH2 0x2D29 JUMP JUMPDEST CALLER PUSH1 0x1 PUSH1 0x1 PUSH1 0xA0 SHL SUB DUP3 AND SUB PUSH2 0x2877 JUMPI PUSH2 0x56D SWAP1 PUSH1 0x4 CALLDATALOAD PUSH2 0x3A20 JUMP JUMPDEST PUSH4 0x334BD919 PUSH1 0xE1 SHL PUSH1 0x0 MSTORE PUSH1 0x4 PUSH1 0x0 REVERT JUMPDEST CALLVALUE PUSH2 0x3A2 JUMPI PUSH1 0x0 CALLDATASIZE PUSH1 0x3 NOT ADD SLT PUSH2 0x3A2 JUMPI PUSH1 0x20 PUSH1 0x40 MLOAD PUSH12 0x33B2E3C9FD0803CE8000000 DUP2 MSTORE RETURN JUMPDEST CALLVALUE PUSH2 0x3A2 JUMPI PUSH1 0x0 CALLDATASIZE PUSH1 0x3 NOT ADD SLT PUSH2 0x3A2 JUMPI PUSH1 0x20 PUSH1 0x40 MLOAD PUSH1 0x12 DUP2 MSTORE RETURN JUMPDEST CALLVALUE PUSH2 0x3A2 JUMPI PUSH1 0x0 CALLDATASIZE PUSH1 0x3 NOT ADD SLT PUSH2 0x3A2 JUMPI PUSH1 0x20 PUSH1 0x40 MLOAD PUSH10 0xD3C21BCECCEDA1000000 DUP2 MSTORE RETURN JUMPDEST CALLVALUE PUSH2 0x3A2 JUMPI PUSH1 0x40 CALLDATASIZE PUSH1 0x3 NOT ADD SLT PUSH2 0x3A2 JUMPI PUSH2 0x56D PUSH1 0x4 CALLDATALOAD PUSH2 0x290F PUSH2 0x2D29 JUMP JUMPDEST SWAP1 PUSH2 0x291C PUSH2 0x815 DUP3 PUSH2 0x2FB6 JUMP JUMPDEST PUSH2 0x3632 JUMP JUMPDEST CALLVALUE PUSH2 0x3A2 JUMPI PUSH1 0x0 CALLDATASIZE PUSH1 0x3 NOT ADD SLT PUSH2 0x3A2 JUMPI PUSH1 0x20 PUSH1 0x40 MLOAD PUSH32 0x3C11D16CBAFFD01DF69CE1C404F6340EE057498F5F00246190EA54220576A848 DUP2 MSTORE RETURN JUMPDEST CALLVALUE PUSH2 0x3A2 JUMPI PUSH1 0x20 CALLDATASIZE PUSH1 0x3 NOT ADD SLT PUSH2 0x3A2 JUMPI PUSH1 0x20 PUSH2 0xE19 PUSH1 0x4 CALLDATALOAD PUSH2 0x2FB6 JUMP JUMPDEST CALLVALUE PUSH2 0x3A2 JUMPI PUSH1 0x20 CALLDATASIZE PUSH1 0x3 NOT ADD SLT PUSH2 0x3A2 JUMPI PUSH2 0x2993 PUSH2 0x39EA JUMP JUMPDEST PUSH1 0x4 CALLDATALOAD PUSH1 0x5 SSTORE STOP JUMPDEST CALLVALUE PUSH2 0x3A2 JUMPI PUSH1 0x60 CALLDATASIZE PUSH1 0x3 NOT ADD SLT PUSH2 0x3A2 JUMPI PUSH2 0x469 PUSH2 0x29B7 PUSH2 0x2D13 JUMP JUMPDEST PUSH2 0x29BF PUSH2 0x2D29 JUMP JUMPDEST PUSH1 0x44 CALLDATALOAD SWAP2 PUSH2 0x29CE DUP4 CALLER DUP4 PUSH2 0x36C9 JUMP JUMPDEST PUSH2 0x376E JUMP JUMPDEST CALLVALUE PUSH2 0x3A2 JUMPI PUSH1 0x20 CALLDATASIZE PUSH1 0x3 NOT ADD SLT PUSH2 0x3A2 JUMPI PUSH1 0x20 PUSH2 0xE19 PUSH2 0x29F1 PUSH2 0x2D13 JUMP JUMPDEST PUSH2 0x2F7B JUMP JUMPDEST CALLVALUE PUSH2 0x3A2 JUMPI PUSH1 0x20 CALLDATASIZE PUSH1 0x3 NOT ADD SLT PUSH2 0x3A2 JUMPI PUSH1 0x20 PUSH2 0xE19 PUSH1 0x4 CALLDATALOAD PUSH2 0x2EA9 JUMP JUMPDEST CALLVALUE PUSH2 0x3A2 JUMPI PUSH1 0x0 CALLDATASIZE PUSH1 0x3 NOT ADD SLT PUSH2 0x3A2 JUMPI PUSH1 0x20 PUSH1 0xB SLOAD PUSH1 0x40 MLOAD SWAP1 DUP2 MSTORE RETURN JUMPDEST CALLVALUE PUSH2 0x3A2 JUMPI PUSH1 0x0 CALLDATASIZE PUSH1 0x3 NOT ADD SLT PUSH2 0x3A2 JUMPI PUSH1 0x20 PUSH1 0x0 DUP1 MLOAD PUSH1 0x20 PUSH2 0x3FAB DUP4 CODECOPY DUP2 MLOAD SWAP2 MSTORE SLOAD PUSH1 0x40 MLOAD SWAP1 DUP2 MSTORE RETURN JUMPDEST CALLVALUE PUSH2 0x3A2 JUMPI PUSH1 0x20 CALLDATASIZE PUSH1 0x3 NOT ADD SLT PUSH2 0x3A2 JUMPI PUSH2 0x2A76 PUSH2 0x2D13 JUMP JUMPDEST PUSH2 0x2A7E PUSH2 0x3127 JUMP JUMPDEST PUSH1 0xC DUP1 SLOAD PUSH1 0x1 PUSH1 0x1 PUSH1 0xA0 SHL SUB NOT AND PUSH1 0x1 PUSH1 0x1 PUSH1 0xA0 SHL SUB DUP4 AND SWAP1 DUP2 OR SWAP1 SWAP2 SSTORE SWAP1 PUSH2 0x2AA6 SWAP1 PUSH2 0x32A8 JUMP JUMPDEST POP PUSH32 0xE3CF2B71B55B62FC1A6C7B2F6FF944C1B70048908CFF22F2E08D1144E7CA7EDB PUSH1 0x0 DUP1 LOG2 STOP JUMPDEST CALLVALUE PUSH2 0x3A2 JUMPI PUSH1 0x20 CALLDATASIZE PUSH1 0x3 NOT ADD SLT PUSH2 0x3A2 JUMPI PUSH1 0x1 PUSH1 0x1 PUSH1 0xA0 SHL SUB PUSH2 0x2AEF PUSH2 0x2D13 JUMP JUMPDEST AND PUSH1 0x0 MSTORE PUSH1 0x1 PUSH1 0x20 MSTORE PUSH1 0x20 PUSH1 0x40 PUSH1 0x0 KECCAK256 SLOAD PUSH1 0x40 MLOAD SWAP1 DUP2 MSTORE RETURN JUMPDEST CALLVALUE PUSH2 0x3A2 JUMPI PUSH1 0x40 CALLDATASIZE PUSH1 0x3 NOT ADD SLT PUSH2 0x3A2 JUMPI PUSH2 0x2B21 PUSH2 0x2D13 JUMP JUMPDEST PUSH1 0x24 CALLDATALOAD SWAP1 CALLER ISZERO PUSH2 0x2B9F JUMPI PUSH1 0x1 PUSH1 0x1 PUSH1 0xA0 SHL SUB AND SWAP1 DUP2 ISZERO PUSH2 0x2B89 JUMPI PUSH2 0x2B44 CALLER PUSH2 0x2D3F JUMP JUMPDEST DUP3 PUSH1 0x0 MSTORE PUSH1 0x20 MSTORE DUP1 PUSH1 0x40 PUSH1 0x0 KECCAK256 SSTORE PUSH1 0x40 MLOAD SWAP1 DUP2 MSTORE PUSH32 0x8C5BE1E5EBEC7D5BD14F71427D1E84F3DD0314C0F7B2291E5B200AC8C7C3B925 PUSH1 0x20 CALLER SWAP3 LOG3 PUSH1 0x20 PUSH1 0x40 MLOAD PUSH1 0x1 DUP2 MSTORE RETURN JUMPDEST PUSH4 0x4A1406B1 PUSH1 0xE1 SHL PUSH1 0x0 MSTORE PUSH1 0x0 PUSH1 0x4 MSTORE PUSH1 0x24 PUSH1 0x0 REVERT JUMPDEST PUSH4 0xE602DF05 PUSH1 0xE0 SHL PUSH1 0x0 MSTORE PUSH1 0x0 PUSH1 0x4 MSTORE PUSH1 0x24 PUSH1 0x0 REVERT JUMPDEST CALLVALUE PUSH2 0x3A2 JUMPI PUSH1 0x0 CALLDATASIZE PUSH1 0x3 NOT ADD SLT PUSH2 0x3A2 JUMPI PUSH1 0x40 MLOAD PUSH1 0x0 PUSH1 0x0 DUP1 MLOAD PUSH1 0x20 PUSH2 0x3F2B DUP4 CODECOPY DUP2 MLOAD SWAP2 MSTORE SLOAD PUSH2 0x2BE4 DUP2 PUSH2 0x2E22 JUMP JUMPDEST DUP1 DUP5 MSTORE SWAP1 PUSH1 0x1 DUP2 AND SWAP1 DUP2 ISZERO PUSH2 0x18B1 JUMPI POP PUSH1 0x1 EQ PUSH2 0x2C0B JUMPI PUSH2 0x1218 DUP4 PUSH2 0x1839 DUP2 DUP6 SUB DUP3 PUSH2 0x2D95 JUMP JUMPDEST PUSH1 0x0 DUP1 MLOAD PUSH1 0x20 PUSH2 0x3F2B DUP4 CODECOPY DUP2 MLOAD SWAP2 MSTORE PUSH1 0x0 SWAP1 DUP2 MSTORE PUSH32 0x2AE08A8E29253F69AC5D979A101956AB8F8D9D7DED63FA7A83B16FC47648EAB0 SWAP4 SWAP3 POP SWAP1 JUMPDEST DUP1 DUP3 LT PUSH2 0x2C5D JUMPI POP SWAP1 SWAP2 POP DUP2 ADD PUSH1 0x20 ADD PUSH2 0x1839 PUSH2 0x1829 JUMP JUMPDEST SWAP2 SWAP3 PUSH1 0x1 DUP2 PUSH1 0x20 SWAP3 SLOAD DUP4 DUP6 DUP9 ADD ADD MSTORE ADD SWAP2 ADD SWAP1 SWAP3 SWAP2 PUSH2 0x2C45 JUMP JUMPDEST CALLVALUE PUSH2 0x3A2 JUMPI PUSH1 0x20 CALLDATASIZE PUSH1 0x3 NOT ADD SLT PUSH2 0x3A2 JUMPI PUSH1 0x4 CALLDATALOAD SWAP1 PUSH4 0xFFFFFFFF PUSH1 0xE0 SHL DUP3 AND DUP1 SWAP3 SUB PUSH2 0x3A2 JUMPI PUSH1 0x20 SWAP2 PUSH4 0x7965DB0B PUSH1 0xE0 SHL DUP2 EQ SWAP1 DUP2 ISZERO PUSH2 0x2CB9 JUMPI JUMPDEST POP ISZERO ISZERO DUP2 MSTORE RETURN JUMPDEST PUSH4 0x1FFC9A7 PUSH1 0xE0 SHL EQ SWAP1 POP DUP4 PUSH2 0x2CB2 JUMP JUMPDEST SWAP2 SWAP1 SWAP2 PUSH1 0x20 DUP2 MSTORE DUP3 MLOAD DUP1 PUSH1 0x20 DUP4 ADD MSTORE PUSH1 0x0 JUMPDEST DUP2 DUP2 LT PUSH2 0x2CFD JUMPI POP PUSH1 0x40 SWAP3 SWAP4 POP PUSH1 0x0 DUP4 DUP3 DUP5 ADD ADD MSTORE PUSH1 0x1F DUP1 NOT SWAP2 ADD AND ADD ADD SWAP1 JUMP JUMPDEST DUP1 PUSH1 0x20 DUP1 SWAP3 DUP8 ADD ADD MLOAD PUSH1 0x40 DUP3 DUP7 ADD ADD MSTORE ADD PUSH2 0x2CDC JUMP JUMPDEST PUSH1 0x4 CALLDATALOAD SWAP1 PUSH1 0x1 PUSH1 0x1 PUSH1 0xA0 SHL SUB DUP3 AND DUP3 SUB PUSH2 0x3A2 JUMPI JUMP JUMPDEST PUSH1 0x24 CALLDATALOAD SWAP1 PUSH1 0x1 PUSH1 0x1 PUSH1 0xA0 SHL SUB DUP3 AND DUP3 SUB PUSH2 0x3A2 JUMPI JUMP JUMPDEST PUSH1 0x1 PUSH1 0x1 PUSH1 0xA0 SHL SUB AND PUSH1 0x0 SWAP1 DUP2 MSTORE PUSH32 0x52C63247E1F47DB19D5CE0460030C497F067CA4CEBF71BA98EEADABE20BACE01 PUSH1 0x20 MSTORE PUSH1 0x40 SWAP1 KECCAK256 SWAP1 JUMP JUMPDEST PUSH2 0x100 DUP2 ADD SWAP1 DUP2 LT PUSH8 0xFFFFFFFFFFFFFFFF DUP3 GT OR PUSH2 0xC7D JUMPI PUSH1 0x40 MSTORE JUMP JUMPDEST SWAP1 PUSH1 0x1F DUP1 NOT SWAP2 ADD AND DUP2 ADD SWAP1 DUP2 LT PUSH8 0xFFFFFFFFFFFFFFFF DUP3 GT OR PUSH2 0xC7D JUMPI PUSH1 0x40 MSTORE JUMP JUMPDEST PUSH8 0xFFFFFFFFFFFFFFFF DUP2 GT PUSH2 0xC7D JUMPI PUSH1 0x1F ADD PUSH1 0x1F NOT AND PUSH1 0x20 ADD SWAP1 JUMP JUMPDEST SWAP3 SWAP2 SWAP3 PUSH2 0x2DDF DUP3 PUSH2 0x2DB7 JUMP JUMPDEST SWAP2 PUSH2 0x2DED PUSH1 0x40 MLOAD SWAP4 DUP5 PUSH2 0x2D95 JUMP JUMPDEST DUP3 SWAP5 DUP2 DUP5 MSTORE DUP2 DUP4 ADD GT PUSH2 0x3A2 JUMPI DUP3 DUP2 PUSH1 0x20 SWAP4 DUP5 PUSH1 0x0 SWAP7 ADD CALLDATACOPY ADD ADD MSTORE JUMP JUMPDEST PUSH8 0xFFFFFFFFFFFFFFFF DUP2 GT PUSH2 0xC7D JUMPI PUSH1 0x5 SHL PUSH1 0x20 ADD SWAP1 JUMP JUMPDEST SWAP1 PUSH1 0x1 DUP3 DUP2 SHR SWAP3 AND DUP1 ISZERO PUSH2 0x2E52 JUMPI JUMPDEST PUSH1 0x20 DUP4 LT EQ PUSH2 0x2E3C JUMPI JUMP JUMPDEST PUSH4 0x4E487B71 PUSH1 0xE0 SHL PUSH1 0x0 MSTORE PUSH1 0x22 PUSH1 0x4 MSTORE PUSH1 0x24 PUSH1 0x0 REVERT JUMPDEST SWAP2 PUSH1 0x7F AND SWAP2 PUSH2 0x2E31 JUMP JUMPDEST SWAP2 SWAP1 DUP3 ADD DUP1 SWAP3 GT PUSH2 0x113C JUMPI JUMP JUMPDEST SWAP2 SWAP1 DUP3 SUB SWAP2 DUP3 GT PUSH2 0x113C JUMPI JUMP JUMPDEST DUP2 DUP2 MUL SWAP3 SWAP2 DUP2 ISZERO SWAP2 DUP5 DIV EQ OR ISZERO PUSH2 0x113C JUMPI JUMP JUMPDEST DUP2 ISZERO PUSH2 0x2E93 JUMPI DIV SWAP1 JUMP JUMPDEST PUSH4 0x4E487B71 PUSH1 0xE0 SHL PUSH1 0x0 MSTORE PUSH1 0x12 PUSH1 0x4 MSTORE PUSH1 0x24 PUSH1 0x0 REVERT JUMPDEST PUSH1 0x0 MSTORE PUSH1 0x3 PUSH1 0x20 MSTORE PUSH1 0x40 PUSH1 0x0 KECCAK256 PUSH1 0x40 MLOAD PUSH2 0x2EC2 DUP2 PUSH2 0x2D78 JUMP JUMPDEST PUSH1 0x1 DUP1 PUSH1 0xA0 SHL SUB DUP3 SLOAD AND DUP2 MSTORE PUSH1 0x1 DUP3 ADD SLOAD SWAP2 PUSH1 0x20 DUP3 ADD SWAP3 DUP4 MSTORE PUSH1 0x2 DUP2 ADD SLOAD PUSH1 0x40 DUP4 ADD MSTORE PUSH2 0x2F2F PUSH1 0x3 DUP3 ADD SLOAD SWAP2 PUSH1 0x60 DUP5 ADD SWAP3 DUP1 DUP5 MSTORE PUSH1 0x4 DUP3 ADD SLOAD SWAP5 PUSH1 0x80 DUP2 ADD SWAP6 DUP7 MSTORE PUSH1 0xE0 PUSH1 0xFF PUSH1 0x6 PUSH1 0x5 DUP7 ADD SLOAD SWAP6 DUP7 PUSH1 0xA0 DUP7 ADD MSTORE ADD SLOAD DUP2 DUP2 AND ISZERO ISZERO PUSH1 0xC0 DUP6 ADD MSTORE PUSH1 0x8 SHR AND ISZERO ISZERO SWAP2 ADD MSTORE PUSH2 0x2E5C JUMP JUMPDEST TIMESTAMP LT PUSH2 0x2F73 JUMPI PUSH2 0x2F42 DUP2 MLOAD DUP4 MLOAD SWAP1 PUSH2 0x2E5C JUMP JUMPDEST TIMESTAMP LT ISZERO PUSH2 0x2F6D JUMPI PUSH2 0x2F6A SWAP3 PUSH2 0x2F5B PUSH2 0x2F62 SWAP3 MLOAD TIMESTAMP PUSH2 0x2E69 JUMP JUMPDEST SWAP1 MLOAD PUSH2 0x2E76 JUMP JUMPDEST SWAP1 MLOAD SWAP1 PUSH2 0x2E89 JUMP JUMPDEST SWAP1 JUMP JUMPDEST POP POP MLOAD SWAP1 JUMP JUMPDEST POP POP POP PUSH1 0x0 SWAP1 JUMP JUMPDEST PUSH2 0x2F84 DUP2 PUSH2 0x3018 JUMP JUMPDEST SWAP1 PUSH1 0x1 DUP1 PUSH1 0xA0 SHL SUB AND PUSH1 0x0 MSTORE PUSH1 0x1 PUSH1 0x20 MSTORE PUSH1 0x40 PUSH1 0x0 KECCAK256 SLOAD PUSH2 0xE10 DUP2 ADD DUP1 SWAP2 GT PUSH2 0x113C JUMPI TIMESTAMP LT PUSH2 0x2FB0 JUMPI SWAP1 JUMP JUMPDEST POP PUSH1 0x0 SWAP1 JUMP JUMPDEST PUSH1 0x0 MSTORE PUSH1 0x0 DUP1 MLOAD PUSH1 0x20 PUSH2 0x3FEB DUP4 CODECOPY DUP2 MLOAD SWAP2 MSTORE PUSH1 0x20 MSTORE PUSH1 0x1 PUSH1 0x40 PUSH1 0x0 KECCAK256 ADD SLOAD SWAP1 JUMP JUMPDEST ISZERO PUSH2 0x2FDE JUMPI JUMP JUMPDEST PUSH1 0x40 MLOAD PUSH3 0x461BCD PUSH1 0xE5 SHL DUP2 MSTORE PUSH1 0x20 PUSH1 0x4 DUP3 ADD MSTORE PUSH1 0x12 PUSH1 0x24 DUP3 ADD MSTORE PUSH18 0x45786365656473206D617820737570706C79 PUSH1 0x70 SHL PUSH1 0x44 DUP3 ADD MSTORE PUSH1 0x64 SWAP1 REVERT JUMPDEST PUSH1 0x1 PUSH1 0x1 PUSH1 0xA0 SHL SUB AND PUSH1 0x0 DUP2 DUP2 MSTORE PUSH1 0x2 PUSH1 0x20 MSTORE PUSH1 0x40 SWAP1 KECCAK256 SLOAD ISZERO PUSH2 0x3046 JUMPI PUSH1 0x0 MSTORE PUSH1 0x2 PUSH1 0x20 MSTORE PUSH1 0x40 PUSH1 0x0 KECCAK256 SLOAD SWAP1 JUMP JUMPDEST POP PUSH1 0x5 SLOAD SWAP1 JUMP JUMPDEST DUP1 MLOAD DUP3 LT ISZERO PUSH2 0x3061 JUMPI PUSH1 0x20 SWAP2 PUSH1 0x5 SHL ADD ADD SWAP1 JUMP JUMPDEST PUSH4 0x4E487B71 PUSH1 0xE0 SHL PUSH1 0x0 MSTORE PUSH1 0x32 PUSH1 0x4 MSTORE PUSH1 0x24 PUSH1 0x0 REVERT JUMPDEST PUSH1 0x1 PUSH1 0x1 PUSH1 0xA0 SHL SUB AND PUSH1 0x0 SWAP1 DUP2 MSTORE PUSH1 0x0 DUP1 MLOAD PUSH1 0x20 PUSH2 0x3F4B DUP4 CODECOPY DUP2 MLOAD SWAP2 MSTORE PUSH1 0x20 SWAP1 DUP2 MSTORE PUSH1 0x40 DUP1 DUP4 KECCAK256 SLOAD PUSH1 0x4 SWAP1 SWAP3 MSTORE SWAP1 SWAP2 KECCAK256 SLOAD PUSH2 0x2F6A SWAP2 PUSH2 0x2E5C JUMP JUMPDEST PUSH1 0x1 PUSH1 0x1 PUSH1 0xA0 SHL SUB AND DUP1 ISZERO PUSH2 0x3111 JUMPI PUSH1 0x0 DUP1 MLOAD PUSH1 0x20 PUSH2 0x3F8B DUP4 CODECOPY DUP2 MLOAD SWAP2 MSTORE DUP1 SLOAD PUSH1 0x1 PUSH1 0x1 PUSH1 0xA0 SHL SUB NOT DUP2 AND DUP4 OR SWAP1 SWAP2 SSTORE PUSH1 0x1 PUSH1 0x1 PUSH1 0xA0 SHL SUB AND PUSH32 0x8BE0079C531659141344CD1FD0A4F28419497F9722A3DAAFE3B4186F6B6457E0 PUSH1 0x0 DUP1 LOG3 JUMP JUMPDEST PUSH4 0x1E4FBDF7 PUSH1 0xE0 SHL PUSH1 0x0 MSTORE PUSH1 0x0 PUSH1 0x4 MSTORE PUSH1 0x24 PUSH1 0x0 REVERT JUMPDEST CALLER PUSH1 0x0 SWAP1 DUP2 MSTORE PUSH32 0xB7DB2DD08FCB62D0C9E08C51941CAE53C267786A0B75803FB7960902FC8EF97D PUSH1 0x20 MSTORE PUSH1 0x40 SWAP1 KECCAK256 SLOAD PUSH1 0xFF AND ISZERO PUSH2 0x3160 JUMPI JUMP JUMPDEST PUSH4 0xE2517D3F PUSH1 0xE0 SHL PUSH1 0x0 MSTORE CALLER PUSH1 0x4 MSTORE PUSH1 0x0 PUSH1 0x24 MSTORE PUSH1 0x44 PUSH1 0x0 REVERT JUMPDEST CALLER PUSH1 0x0 SWAP1 DUP2 MSTORE PUSH32 0x75442B0A96088B5456BC4ED01394C96A4FEEC0F883C9494257D76B96AB1C9B6B PUSH1 0x20 MSTORE PUSH1 0x40 SWAP1 KECCAK256 SLOAD PUSH1 0xFF AND ISZERO PUSH2 0x31B3 JUMPI JUMP JUMPDEST PUSH4 0xE2517D3F PUSH1 0xE0 SHL PUSH1 0x0 MSTORE CALLER PUSH1 0x4 MSTORE PUSH32 0x65D7A28E3265B37A6474929F336521B332C1681B933F6CB9F3376673440D862A PUSH1 0x24 MSTORE PUSH1 0x44 PUSH1 0x0 REVERT JUMPDEST CALLER PUSH1 0x0 SWAP1 DUP2 MSTORE PUSH32 0x25F7F44D2CBB35948A0EC4A3DACA6D9FEF225BA74483A7793AE48FCB0272BB0C PUSH1 0x20 MSTORE PUSH1 0x40 SWAP1 KECCAK256 SLOAD PUSH1 0xFF AND ISZERO PUSH2 0x3225 JUMPI JUMP JUMPDEST PUSH4 0xE2517D3F PUSH1 0xE0 SHL PUSH1 0x0 MSTORE CALLER PUSH1 0x4 MSTORE PUSH32 0x71840DC4906352362B0CDAF79870196C8E42ACAFADE72D5D5A6D59291253CEB1 PUSH1 0x24 MSTORE PUSH1 0x44 PUSH1 0x0 REVERT JUMPDEST PUSH1 0x0 DUP2 DUP2 MSTORE PUSH1 0x0 DUP1 MLOAD PUSH1 0x20 PUSH2 0x3FEB DUP4 CODECOPY DUP2 MLOAD SWAP2 MSTORE PUSH1 0x20 SWAP1 DUP2 MSTORE PUSH1 0x40 DUP1 DUP4 KECCAK256 CALLER DUP5 MSTORE SWAP1 SWAP2 MSTORE SWAP1 KECCAK256 SLOAD PUSH1 0xFF AND ISZERO PUSH2 0x3290 JUMPI POP JUMP JUMPDEST PUSH4 0xE2517D3F PUSH1 0xE0 SHL PUSH1 0x0 MSTORE CALLER PUSH1 0x4 MSTORE PUSH1 0x24 MSTORE PUSH1 0x44 PUSH1 0x0 REVERT JUMPDEST PUSH1 0x1 PUSH1 0x1 PUSH1 0xA0 SHL SUB DUP2 AND PUSH1 0x0 SWAP1 DUP2 MSTORE PUSH32 0x25F7F44D2CBB35948A0EC4A3DACA6D9FEF225BA74483A7793AE48FCB0272BB0C PUSH1 0x20 MSTORE PUSH1 0x40 SWAP1 KECCAK256 SLOAD PUSH1 0xFF AND PUSH2 0x2FB0 JUMPI PUSH1 0x1 PUSH1 0x1 PUSH1 0xA0 SHL SUB AND PUSH1 0x0 DUP2 DUP2 MSTORE PUSH32 0x25F7F44D2CBB35948A0EC4A3DACA6D9FEF225BA74483A7793AE48FCB0272BB0C PUSH1 0x20 MSTORE PUSH1 0x40 DUP2 KECCAK256 DUP1 SLOAD PUSH1 0xFF NOT AND PUSH1 0x1 OR SWAP1 SSTORE CALLER SWAP2 SWAP1 PUSH32 0x71840DC4906352362B0CDAF79870196C8E42ACAFADE72D5D5A6D59291253CEB1 SWAP1 PUSH1 0x0 DUP1 MLOAD PUSH1 0x20 PUSH2 0x3F0B DUP4 CODECOPY DUP2 MLOAD SWAP2 MSTORE SWAP1 DUP1 LOG4 PUSH1 0x1 SWAP1 JUMP JUMPDEST PUSH1 0x1 PUSH1 0x1 PUSH1 0xA0 SHL SUB DUP2 AND PUSH1 0x0 SWAP1 DUP2 MSTORE PUSH32 0xB7DB2DD08FCB62D0C9E08C51941CAE53C267786A0B75803FB7960902FC8EF97D PUSH1 0x20 MSTORE PUSH1 0x40 SWAP1 KECCAK256 SLOAD PUSH1 0xFF AND PUSH2 0x2FB0 JUMPI PUSH1 0x1 PUSH1 0x1 PUSH1 0xA0 SHL SUB AND PUSH1 0x0 DUP2 DUP2 MSTORE PUSH32 0xB7DB2DD08FCB62D0C9E08C51941CAE53C267786A0B75803FB7960902FC8EF97D PUSH1 0x20 MSTORE PUSH1 0x40 DUP2 KECCAK256 DUP1 SLOAD PUSH1 0xFF NOT AND PUSH1 0x1 OR SWAP1 SSTORE CALLER SWAP2 SWAP1 PUSH1 0x0 DUP1 MLOAD PUSH1 0x20 PUSH2 0x3F0B DUP4 CODECOPY DUP2 MLOAD SWAP2 MSTORE DUP2 DUP1 LOG4 PUSH1 0x1 SWAP1 JUMP JUMPDEST PUSH1 0x1 PUSH1 0x1 PUSH1 0xA0 SHL SUB DUP2 AND PUSH1 0x0 SWAP1 DUP2 MSTORE PUSH32 0x549FE2656C81D2947B3B913F0A53B9EA86C71E049F3A1B8AA23C09A8A05CB8D4 PUSH1 0x20 MSTORE PUSH1 0x40 SWAP1 KECCAK256 SLOAD PUSH1 0xFF AND PUSH2 0x2FB0 JUMPI PUSH1 0x1 PUSH1 0x1 PUSH1 0xA0 SHL SUB AND PUSH1 0x0 DUP2 DUP2 MSTORE PUSH32 0x549FE2656C81D2947B3B913F0A53B9EA86C71E049F3A1B8AA23C09A8A05CB8D4 PUSH1 0x20 MSTORE PUSH1 0x40 DUP2 KECCAK256 DUP1 SLOAD PUSH1 0xFF NOT AND PUSH1 0x1 OR SWAP1 SSTORE CALLER SWAP2 SWAP1 PUSH32 0x9F2DF0FED2C77648DE5860A4CC508CD0818C85B8B8A1AB4CEEEF8D981C8956A6 SWAP1 PUSH1 0x0 DUP1 MLOAD PUSH1 0x20 PUSH2 0x3F0B DUP4 CODECOPY DUP2 MLOAD SWAP2 MSTORE SWAP1 DUP1 LOG4 PUSH1 0x1 SWAP1 JUMP JUMPDEST PUSH1 0x1 PUSH1 0x1 PUSH1 0xA0 SHL SUB DUP2 AND PUSH1 0x0 SWAP1 DUP2 MSTORE PUSH32 0xFCF1B2032B1187D9F2A29150C4A608B3B6F0BDF8DD007801F86A276AF50CAD92 PUSH1 0x20 MSTORE PUSH1 0x40 SWAP1 KECCAK256 SLOAD PUSH1 0xFF AND PUSH2 0x2FB0 JUMPI PUSH1 0x1 PUSH1 0x1 PUSH1 0xA0 SHL SUB AND PUSH1 0x0 DUP2 DUP2 MSTORE PUSH32 0xFCF1B2032B1187D9F2A29150C4A608B3B6F0BDF8DD007801F86A276AF50CAD92 PUSH1 0x20 MSTORE PUSH1 0x40 DUP2 KECCAK256 DUP1 SLOAD PUSH1 0xFF NOT AND PUSH1 0x1 OR SWAP1 SSTORE CALLER SWAP2 SWAP1 PUSH32 0x3C11D16CBAFFD01DF69CE1C404F6340EE057498F5F00246190EA54220576A848 SWAP1 PUSH1 0x0 DUP1 MLOAD PUSH1 0x20 PUSH2 0x3F0B DUP4 CODECOPY DUP2 MLOAD SWAP2 MSTORE SWAP1 DUP1 LOG4 PUSH1 0x1 SWAP1 JUMP JUMPDEST PUSH1 0x1 PUSH1 0x1 PUSH1 0xA0 SHL SUB DUP2 AND PUSH1 0x0 SWAP1 DUP2 MSTORE PUSH32 0x75442B0A96088B5456BC4ED01394C96A4FEEC0F883C9494257D76B96AB1C9B6B PUSH1 0x20 MSTORE PUSH1 0x40 SWAP1 KECCAK256 SLOAD PUSH1 0xFF AND PUSH2 0x2FB0 JUMPI PUSH1 0x1 PUSH1 0x1 PUSH1 0xA0 SHL SUB AND PUSH1 0x0 DUP2 DUP2 MSTORE PUSH32 0x75442B0A96088B5456BC4ED01394C96A4FEEC0F883C9494257D76B96AB1C9B6B PUSH1 0x20 MSTORE PUSH1 0x40 DUP2 KECCAK256 DUP1 SLOAD PUSH1 0xFF NOT AND PUSH1 0x1 OR SWAP1 SSTORE CALLER SWAP2 SWAP1 PUSH32 0x65D7A28E3265B37A6474929F336521B332C1681B933F6CB9F3376673440D862A SWAP1 PUSH1 0x0 DUP1 MLOAD PUSH1 0x20 PUSH2 0x3F0B DUP4 CODECOPY DUP2 MLOAD SWAP2 MSTORE SWAP1 DUP1 LOG4 PUSH1 0x1 SWAP1 JUMP JUMPDEST PUSH1 0x0 DUP2 DUP2 MSTORE PUSH1 0x0 DUP1 MLOAD PUSH1 0x20 PUSH2 0x3FEB DUP4 CODECOPY DUP2 MLOAD SWAP2 MSTORE PUSH1 0x20 SWAP1 DUP2 MSTORE PUSH1 0x40 DUP1 DUP4 KECCAK256 PUSH1 0x1 PUSH1 0x1 PUSH1 0xA0 SHL SUB DUP7 AND DUP5 MSTORE SWAP1 SWAP2 MSTORE SWAP1 KECCAK256 SLOAD PUSH1 0xFF AND PUSH2 0x36C2 JUMPI PUSH1 0x0 DUP2 DUP2 MSTORE PUSH1 0x0 DUP1 MLOAD PUSH1 0x20 PUSH2 0x3FEB DUP4 CODECOPY DUP2 MLOAD SWAP2 MSTORE PUSH1 0x20 SWAP1 DUP2 MSTORE PUSH1 0x40 DUP1 DUP4 KECCAK256 PUSH1 0x1 PUSH1 0x1 PUSH1 0xA0 SHL SUB SWAP6 SWAP1 SWAP6 AND DUP1 DUP5 MSTORE SWAP5 SWAP1 SWAP2 MSTORE DUP2 KECCAK256 DUP1 SLOAD PUSH1 0xFF NOT AND PUSH1 0x1 OR SWAP1 SSTORE CALLER SWAP3 SWAP2 SWAP1 PUSH1 0x0 DUP1 MLOAD PUSH1 0x20 PUSH2 0x3F0B DUP4 CODECOPY DUP2 MLOAD SWAP2 MSTORE SWAP1 DUP1 LOG4 PUSH1 0x1 SWAP1 JUMP JUMPDEST POP POP PUSH1 0x0 SWAP1 JUMP JUMPDEST SWAP2 SWAP1 PUSH2 0x36D4 DUP4 PUSH2 0x2D3F JUMP JUMPDEST PUSH1 0x1 DUP1 PUSH1 0xA0 SHL SUB DUP3 AND PUSH1 0x0 MSTORE PUSH1 0x20 MSTORE PUSH1 0x40 PUSH1 0x0 KECCAK256 SLOAD SWAP3 PUSH1 0x0 NOT DUP5 LT PUSH2 0x36FA JUMPI JUMPDEST POP POP POP POP JUMP JUMPDEST DUP3 DUP5 LT PUSH2 0x3749 JUMPI PUSH1 0x1 PUSH1 0x1 PUSH1 0xA0 SHL SUB DUP2 AND ISZERO PUSH2 0x2B9F JUMPI PUSH1 0x1 PUSH1 0x1 PUSH1 0xA0 SHL SUB DUP3 AND ISZERO PUSH2 0x2B89 JUMPI PUSH2 0x3728 SWAP1 PUSH2 0x2D3F JUMP JUMPDEST SWAP1 PUSH1 0x1 DUP1 PUSH1 0xA0 SHL SUB AND PUSH1 0x0 MSTORE PUSH1 0x20 MSTORE PUSH1 0x40 PUSH1 0x0 KECCAK256 SWAP2 SUB SWAP1 SSTORE CODESIZE DUP1 DUP1 DUP1 PUSH2 0x36F4 JUMP JUMPDEST POP DUP3 SWAP1 PUSH4 0x7DC7A0D9 PUSH1 0xE1 SHL PUSH1 0x0 MSTORE PUSH1 0x1 DUP1 PUSH1 0xA0 SHL SUB AND PUSH1 0x4 MSTORE PUSH1 0x24 MSTORE PUSH1 0x44 MSTORE PUSH1 0x64 PUSH1 0x0 REVERT JUMPDEST PUSH1 0x1 PUSH1 0x1 PUSH1 0xA0 SHL SUB AND SWAP1 DUP2 ISZERO PUSH2 0x39D4 JUMPI PUSH1 0x1 PUSH1 0x1 PUSH1 0xA0 SHL SUB AND SWAP2 DUP3 ISZERO PUSH2 0xB69 JUMPI DUP2 PUSH1 0x0 MSTORE PUSH1 0x0 PUSH1 0x20 MSTORE PUSH1 0xFF PUSH1 0x40 PUSH1 0x0 KECCAK256 SLOAD AND PUSH2 0x3997 JUMPI DUP3 PUSH1 0x0 MSTORE PUSH1 0x0 PUSH1 0x20 MSTORE PUSH1 0xFF PUSH1 0x40 PUSH1 0x0 KECCAK256 SLOAD AND PUSH2 0x3952 JUMPI PUSH1 0x0 DUP3 DUP2 MSTORE PUSH1 0x2 PUSH1 0x20 MSTORE PUSH1 0x40 SWAP1 KECCAK256 SLOAD ISZERO PUSH2 0x394A JUMPI DUP2 PUSH1 0x0 MSTORE PUSH1 0x2 PUSH1 0x20 MSTORE PUSH1 0x40 PUSH1 0x0 KECCAK256 SLOAD JUMPDEST DUP2 GT PUSH2 0x3905 JUMPI DUP2 PUSH1 0x0 MSTORE PUSH1 0x1 PUSH1 0x20 MSTORE PUSH1 0x40 PUSH1 0x0 KECCAK256 SLOAD PUSH2 0xE10 DUP2 ADD DUP1 SWAP2 GT PUSH2 0x113C JUMPI TIMESTAMP LT PUSH2 0x38C0 JUMPI DUP2 PUSH1 0x0 MSTORE PUSH1 0x1 PUSH1 0x20 MSTORE TIMESTAMP PUSH1 0x40 PUSH1 0x0 KECCAK256 SSTORE PUSH2 0x381D PUSH2 0x3BEA JUMP JUMPDEST PUSH1 0x0 DUP3 DUP2 MSTORE PUSH1 0x0 DUP1 MLOAD PUSH1 0x20 PUSH2 0x3F4B DUP4 CODECOPY DUP2 MLOAD SWAP2 MSTORE PUSH1 0x20 MSTORE PUSH1 0x40 DUP2 KECCAK256 SLOAD DUP3 DUP2 LT PUSH2 0x38A6 JUMPI SWAP2 PUSH1 0x40 DUP3 DUP3 PUSH32 0xDDF252AD1BE2C89B69C2B068FC378DAA952BA7F163C4A11628F55A4DF523B3EF SWAP6 DUP8 PUSH1 0x20 SWAP7 MSTORE PUSH1 0x0 DUP1 MLOAD PUSH1 0x20 PUSH2 0x3F4B DUP4 CODECOPY DUP2 MLOAD SWAP2 MSTORE DUP7 MSTORE SUB DUP3 DUP3 KECCAK256 SSTORE DUP7 DUP2 MSTORE PUSH1 0x0 DUP1 MLOAD PUSH1 0x20 PUSH2 0x3F4B DUP4 CODECOPY DUP2 MLOAD SWAP2 MSTORE DUP5 MSTORE KECCAK256 DUP2 DUP2 SLOAD ADD SWAP1 SSTORE PUSH1 0x40 MLOAD SWAP1 DUP2 MSTORE LOG3 JUMP JUMPDEST SWAP2 PUSH1 0x64 SWAP3 DUP5 PUSH4 0x391434E3 PUSH1 0xE2 SHL DUP5 MSTORE PUSH1 0x4 MSTORE PUSH1 0x24 MSTORE PUSH1 0x44 MSTORE REVERT JUMPDEST PUSH1 0x40 MLOAD PUSH3 0x461BCD PUSH1 0xE5 SHL DUP2 MSTORE PUSH1 0x20 PUSH1 0x4 DUP3 ADD MSTORE PUSH1 0x18 PUSH1 0x24 DUP3 ADD MSTORE PUSH32 0x5472616E7366657220636F6F6C646F776E206163746976650000000000000000 PUSH1 0x44 DUP3 ADD MSTORE PUSH1 0x64 SWAP1 REVERT JUMPDEST PUSH1 0x40 MLOAD PUSH3 0x461BCD PUSH1 0xE5 SHL DUP2 MSTORE PUSH1 0x20 PUSH1 0x4 DUP3 ADD MSTORE PUSH1 0x1D PUSH1 0x24 DUP3 ADD MSTORE PUSH32 0x5472616E7366657220616D6F756E742065786365656473206C696D6974000000 PUSH1 0x44 DUP3 ADD MSTORE PUSH1 0x64 SWAP1 REVERT JUMPDEST PUSH1 0x5 SLOAD PUSH2 0x37DE JUMP JUMPDEST PUSH1 0x40 MLOAD PUSH3 0x461BCD PUSH1 0xE5 SHL DUP2 MSTORE PUSH1 0x20 PUSH1 0x4 DUP3 ADD MSTORE PUSH1 0x18 PUSH1 0x24 DUP3 ADD MSTORE PUSH32 0x526563697069656E7420697320626C61636B6C69737465640000000000000000 PUSH1 0x44 DUP3 ADD MSTORE PUSH1 0x64 SWAP1 REVERT JUMPDEST PUSH1 0x40 MLOAD PUSH3 0x461BCD PUSH1 0xE5 SHL DUP2 MSTORE PUSH1 0x20 PUSH1 0x4 DUP3 ADD MSTORE PUSH1 0x15 PUSH1 0x24 DUP3 ADD MSTORE PUSH21 0x14D95B99195C881A5CC8189B1858DADB1A5CDD1959 PUSH1 0x5A SHL PUSH1 0x44 DUP3 ADD MSTORE PUSH1 0x64 SWAP1 REVERT JUMPDEST PUSH4 0x4B637E8F PUSH1 0xE1 SHL PUSH1 0x0 MSTORE PUSH1 0x0 PUSH1 0x4 MSTORE PUSH1 0x24 PUSH1 0x0 REVERT JUMPDEST PUSH1 0x0 DUP1 MLOAD PUSH1 0x20 PUSH2 0x3F8B DUP4 CODECOPY DUP2 MLOAD SWAP2 MSTORE SLOAD PUSH1 0x1 PUSH1 0x1 PUSH1 0xA0 SHL SUB AND CALLER SUB PUSH2 0x3A0B JUMPI JUMP JUMPDEST PUSH4 0x118CDAA7 PUSH1 0xE0 SHL PUSH1 0x0 MSTORE CALLER PUSH1 0x4 MSTORE PUSH1 0x24 PUSH1 0x0 REVERT JUMPDEST PUSH1 0x0 DUP2 DUP2 MSTORE PUSH1 0x0 DUP1 MLOAD PUSH1 0x20 PUSH2 0x3FEB DUP4 CODECOPY DUP2 MLOAD SWAP2 MSTORE PUSH1 0x20 SWAP1 DUP2 MSTORE PUSH1 0x40 DUP1 DUP4 KECCAK256 PUSH1 0x1 PUSH1 0x1 PUSH1 0xA0 SHL SUB DUP7 AND DUP5 MSTORE SWAP1 SWAP2 MSTORE SWAP1 KECCAK256 SLOAD PUSH1 0xFF AND ISZERO PUSH2 0x36C2 JUMPI PUSH1 0x0 DUP2 DUP2 MSTORE PUSH1 0x0 DUP1 MLOAD PUSH1 0x20 PUSH2 0x3FEB DUP4 CODECOPY DUP2 MLOAD SWAP2 MSTORE PUSH1 0x20 SWAP1 DUP2 MSTORE PUSH1 0x40 DUP1 DUP4 KECCAK256 PUSH1 0x1 PUSH1 0x1 PUSH1 0xA0 SHL SUB SWAP6 SWAP1 SWAP6 AND DUP1 DUP5 MSTORE SWAP5 SWAP1 SWAP2 MSTORE DUP2 KECCAK256 DUP1 SLOAD PUSH1 0xFF NOT AND SWAP1 SSTORE CALLER SWAP3 SWAP2 SWAP1 PUSH32 0xF6391F5C32D9C69D2A47EA670B442974B53935D1EDC7FD64EB21E047A839171B SWAP1 DUP1 LOG4 PUSH1 0x1 SWAP1 JUMP JUMPDEST SWAP1 PUSH1 0x1 PUSH1 0x1 PUSH1 0xA0 SHL SUB DUP3 AND ISZERO PUSH2 0xB69 JUMPI PUSH2 0x3AD9 SWAP2 PUSH2 0x3D7D JUMP JUMPDEST JUMP JUMPDEST PUSH1 0x2 PUSH1 0x0 DUP1 MLOAD PUSH1 0x20 PUSH2 0x402B DUP4 CODECOPY DUP2 MLOAD SWAP2 MSTORE SLOAD EQ PUSH2 0x3B06 JUMPI PUSH1 0x2 PUSH1 0x0 DUP1 MLOAD PUSH1 0x20 PUSH2 0x402B DUP4 CODECOPY DUP2 MLOAD SWAP2 MSTORE SSTORE JUMP JUMPDEST PUSH4 0x3EE5AEB5 PUSH1 0xE0 SHL PUSH1 0x0 MSTORE PUSH1 0x4 PUSH1 0x0 REVERT JUMPDEST PUSH2 0x3B23 PUSH1 0x9 SLOAD TIMESTAMP PUSH2 0x2E69 JUMP JUMPDEST DUP1 ISZERO ISZERO DUP1 PUSH2 0x3BDF JUMPI JUMPDEST PUSH2 0x3B8E JUMPI JUMPDEST POP TIMESTAMP PUSH1 0x9 SSTORE PUSH1 0x1 PUSH1 0x1 PUSH1 0xA0 SHL SUB AND DUP1 PUSH2 0x3B47 JUMPI POP JUMP JUMPDEST PUSH1 0x0 MSTORE PUSH1 0x4 PUSH1 0x20 MSTORE PUSH1 0x40 PUSH1 0x0 KECCAK256 DUP1 SLOAD DUP1 PUSH2 0x3B5F JUMPI POP POP JUMP JUMPDEST PUSH1 0x3 PUSH8 0xDE0B6B3A7640000 PUSH2 0x3B7A PUSH2 0x3B8A SWAP4 PUSH1 0x8 SLOAD SWAP1 PUSH2 0x2E76 JUMP JUMPDEST DIV SWAP3 ADD SWAP2 PUSH2 0x1627 DUP4 SLOAD DUP1 SWAP3 PUSH2 0x2E69 JUMP JUMPDEST SWAP1 SSTORE JUMP JUMPDEST PUSH5 0x496CEBB800 PUSH2 0x3BA7 PUSH1 0x7 SLOAD SWAP3 PUSH2 0x10D2 PUSH1 0x6 SLOAD DUP6 PUSH2 0x2E76 JUMP JUMPDEST DIV PUSH8 0xDE0B6B3A7640000 DUP2 MUL SWAP1 DUP1 DUP3 DIV PUSH8 0xDE0B6B3A7640000 EQ SWAP1 ISZERO OR ISZERO PUSH2 0x113C JUMPI PUSH2 0x3BD6 SWAP2 PUSH2 0x112A SWAP2 PUSH2 0x2E89 JUMP JUMPDEST PUSH1 0x8 SSTORE CODESIZE PUSH2 0x3B31 JUMP JUMPDEST POP PUSH1 0x7 SLOAD ISZERO ISZERO PUSH2 0x3B2C JUMP JUMPDEST PUSH1 0xFF PUSH1 0x0 DUP1 MLOAD PUSH1 0x20 PUSH2 0x400B DUP4 CODECOPY DUP2 MLOAD SWAP2 MSTORE SLOAD AND PUSH2 0x3C03 JUMPI JUMP JUMPDEST PUSH4 0xD93C0665 PUSH1 0xE0 SHL PUSH1 0x0 MSTORE PUSH1 0x4 PUSH1 0x0 REVERT JUMPDEST PUSH1 0x1 PUSH1 0x1 PUSH1 0xA0 SHL SUB AND DUP1 ISZERO PUSH2 0x39D4 JUMPI DUP1 PUSH1 0x0 MSTORE PUSH1 0x0 PUSH1 0x20 MSTORE PUSH1 0xFF PUSH1 0x40 PUSH1 0x0 KECCAK256 SLOAD AND PUSH2 0x3997 JUMPI PUSH1 0x0 DUP1 DUP1 MSTORE PUSH1 0x20 MSTORE PUSH32 0xAD3228B676F7D3CD4284A5443F17F1962B36E491B30A40B2405849E597BA5FB5 SLOAD PUSH1 0xFF AND PUSH2 0x3952 JUMPI PUSH1 0x0 DUP2 DUP2 MSTORE PUSH1 0x2 PUSH1 0x20 MSTORE PUSH1 0x40 SWAP1 KECCAK256 SLOAD ISZERO PUSH2 0x3D75 JUMPI DUP1 PUSH1 0x0 MSTORE PUSH1 0x2 PUSH1 0x20 MSTORE PUSH1 0x40 PUSH1 0x0 KECCAK256 SLOAD JUMPDEST DUP3 GT PUSH2 0x3905 JUMPI DUP1 PUSH1 0x0 MSTORE PUSH1 0x1 PUSH1 0x20 MSTORE PUSH1 0x40 PUSH1 0x0 KECCAK256 SLOAD PUSH2 0xE10 DUP2 ADD DUP1 SWAP2 GT PUSH2 0x113C JUMPI TIMESTAMP LT PUSH2 0x38C0 JUMPI DUP1 PUSH1 0x0 MSTORE PUSH1 0x1 PUSH1 0x20 MSTORE TIMESTAMP PUSH1 0x40 PUSH1 0x0 KECCAK256 SSTORE PUSH2 0x3CCD PUSH2 0x3BEA JUMP JUMPDEST PUSH1 0x0 SWAP2 DUP2 DUP4 MSTORE PUSH1 0x0 DUP1 MLOAD PUSH1 0x20 PUSH2 0x3F4B DUP4 CODECOPY DUP2 MLOAD SWAP2 MSTORE PUSH1 0x20 MSTORE PUSH1 0x40 DUP4 KECCAK256 SLOAD DUP2 DUP2 LT PUSH2 0x3D5C JUMPI DUP2 PUSH32 0xDDF252AD1BE2C89B69C2B068FC378DAA952BA7F163C4A11628F55A4DF523B3EF SWAP3 PUSH1 0x20 SWAP3 DUP6 DUP8 MSTORE PUSH1 0x0 DUP1 MLOAD PUSH1 0x20 PUSH2 0x3F4B DUP4 CODECOPY DUP2 MLOAD SWAP2 MSTORE DUP5 MSTORE SUB PUSH1 0x40 DUP7 KECCAK256 SSTORE DUP1 PUSH1 0x0 DUP1 MLOAD PUSH1 0x20 PUSH2 0x3FAB DUP4 CODECOPY DUP2 MLOAD SWAP2 MSTORE SLOAD SUB PUSH1 0x0 DUP1 MLOAD PUSH1 0x20 PUSH2 0x3FAB DUP4 CODECOPY DUP2 MLOAD SWAP2 MSTORE SSTORE PUSH1 0x40 MLOAD SWAP1 DUP2 MSTORE LOG3 JUMP JUMPDEST PUSH1 0x64 SWAP4 SWAP3 PUSH4 0x391434E3 PUSH1 0xE2 SHL DUP5 MSTORE PUSH1 0x4 MSTORE PUSH1 0x24 MSTORE PUSH1 0x44 MSTORE REVERT JUMPDEST PUSH1 0x5 SLOAD PUSH2 0x3C8E JUMP JUMPDEST PUSH1 0x0 DUP1 DUP1 MSTORE PUSH1 0x20 MSTORE PUSH32 0xAD3228B676F7D3CD4284A5443F17F1962B36E491B30A40B2405849E597BA5FB5 SLOAD PUSH1 0xFF AND PUSH2 0x3997 JUMPI PUSH1 0x1 DUP1 PUSH1 0xA0 SHL SUB AND SWAP1 DUP2 PUSH1 0x0 MSTORE PUSH1 0x0 PUSH1 0x20 MSTORE PUSH1 0xFF PUSH1 0x40 PUSH1 0x0 KECCAK256 SLOAD AND PUSH2 0x3952 JUMPI PUSH32 0xDDF252AD1BE2C89B69C2B068FC378DAA952BA7F163C4A11628F55A4DF523B3EF PUSH1 0x20 PUSH1 0x0 SWAP3 PUSH2 0x3DFB PUSH2 0x3BEA JUMP JUMPDEST PUSH2 0x3E14 DUP2 PUSH1 0x0 DUP1 MLOAD PUSH1 0x20 PUSH2 0x3FAB DUP4 CODECOPY DUP2 MLOAD SWAP2 MSTORE SLOAD PUSH2 0x2E5C JUMP JUMPDEST PUSH1 0x0 DUP1 MLOAD PUSH1 0x20 PUSH2 0x3FAB DUP4 CODECOPY DUP2 MLOAD SWAP2 MSTORE SSTORE DUP5 ISZERO DUP5 EQ PUSH2 0x3E58 JUMPI DUP1 PUSH1 0x0 DUP1 MLOAD PUSH1 0x20 PUSH2 0x3FAB DUP4 CODECOPY DUP2 MLOAD SWAP2 MSTORE SLOAD SUB PUSH1 0x0 DUP1 MLOAD PUSH1 0x20 PUSH2 0x3FAB DUP4 CODECOPY DUP2 MLOAD SWAP2 MSTORE SSTORE JUMPDEST PUSH1 0x40 MLOAD SWAP1 DUP2 MSTORE LOG3 JUMP JUMPDEST DUP5 DUP5 MSTORE PUSH1 0x0 DUP1 MLOAD PUSH1 0x20 PUSH2 0x3F4B DUP4 CODECOPY DUP2 MLOAD SWAP2 MSTORE DUP3 MSTORE PUSH1 0x40 DUP5 KECCAK256 DUP2 DUP2 SLOAD ADD SWAP1 SSTORE PUSH2 0x3E4F JUMP JUMPDEST PUSH1 0xFF PUSH1 0x0 DUP1 MLOAD PUSH1 0x20 PUSH2 0x404B DUP4 CODECOPY DUP2 MLOAD SWAP2 MSTORE SLOAD PUSH1 0x40 SHR AND ISZERO PUSH2 0x3E98 JUMPI JUMP JUMPDEST PUSH4 0x1AFCD79F PUSH1 0xE3 SHL PUSH1 0x0 MSTORE PUSH1 0x4 PUSH1 0x0 REVERT JUMPDEST SWAP1 PUSH2 0x3ECF JUMPI POP DUP1 MLOAD ISZERO PUSH2 0x3EBE JUMPI PUSH1 0x20 DUP2 MLOAD SWAP2 ADD REVERT JUMPDEST PUSH4 0xD6BDA275 PUSH1 0xE0 SHL PUSH1 0x0 MSTORE PUSH1 0x4 PUSH1 0x0 REVERT JUMPDEST DUP2 MLOAD ISZERO DUP1 PUSH2 0x3F01 JUMPI JUMPDEST PUSH2 0x3EE0 JUMPI POP SWAP1 JUMP JUMPDEST PUSH4 0x9996B315 PUSH1 0xE0 SHL PUSH1 0x0 SWAP1 DUP2 MSTORE PUSH1 0x1 PUSH1 0x1 PUSH1 0xA0 SHL SUB SWAP2 SWAP1 SWAP2 AND PUSH1 0x4 MSTORE PUSH1 0x24 SWAP1 REVERT JUMPDEST POP DUP1 EXTCODESIZE ISZERO PUSH2 0x3ED8 JUMP INVALID 0x2F DUP8 DUP9 GT PUSH31 0x7EFF1D82E926EC794901D17C78024A50270940304540A733656F0D52C63247 0xE1 DELEGATECALL PUSH30 0xB19D5CE0460030C497F067CA4CEBF71BA98EEADABE20BACE0352C63247E1 DELEGATECALL PUSH30 0xB19D5CE0460030C497F067CA4CEBF71BA98EEADABE20BACE0052C63247E1 DELEGATECALL PUSH30 0xB19D5CE0460030C497F067CA4CEBF71BA98EEADABE20BACE049016D09D72 0xD4 0xF 0xDA 0xE2 REVERT DUP13 0xEA 0xC6 0xB6 0x23 0x4C PUSH24 0x6214FD39C1CD1E609A0528C19930052C63247E1F47DB19D TLOAD 0xE0 CHAINID STOP ADDRESS 0xC4 SWAP8 CREATE PUSH8 0xCA4CEBF71BA98EEA 0xDA 0xBE KECCAK256 0xBA 0xCE MUL CALLDATASIZE ADDMOD SWAP5 LOG1 EXTCODESIZE LOG1 LOG3 0x21 MOD PUSH8 0xC828492DB98DCA3E KECCAK256 PUSH23 0xCC3735A920A3CA505D382BBC02DD7BC7DEC4DCEEDDA775 0xE5 DUP14 0xD5 COINBASE 0xE0 DUP11 GT PUSH13 0x6C53815C0BD028192F7B626800 0xCD MCOPY 0xD1 TLOAD PUSH15 0x187E77E9AEE88184C21F4F2182AB58 0x27 0xCB EXTCODESIZE PUSH31 0x7FBEDCD63F033009B779B17422D0DF92223018B32B4D1FA46E071723D6817 0xE2 BASEFEE PUSH14 0x3BECC55F00F0C57E16840DF040 CALL POP DUP9 0xDC 0x2F DUP2 INVALID CODECOPY SHR CODECOPY 0x23 0xBE 0xC7 RETURNDATACOPY 0x23 0xA9 PUSH7 0x2EFC9C229C6A00 LOG2 PUSH5 0x6970667358 0x22 SLT KECCAK256 DUP8 0x2B 0xB3 COINBASE OR 0xB1 ISZERO KECCAK256 ADDRESS 0xB9 LOG2 0xD5 CREATE2 INVALID DUP9 0xE1 JUMP SMOD 0xD1 0x1F SWAP1 ADD 0xF9 0xB5 BLOBHASH PUSH13 0xF8A1F246184864736F6C634300 ADDMOD SHR STOP CALLER "},"methodIdentifiers":{"BURNER_ROLE()":"282c51f3","DEFAULT_ADMIN_ROLE()":"a217fddf","GOVERNANCE_ROLE()":"f36c8f5c","INITIAL_SUPPLY()":"2ff2e9dc","MAX_SUPPLY()":"32cb6b0c","MINTER_ROLE()":"d5391393","PAUSER_ROLE()":"e63ab1e9","TRANSFER_COOLDOWN()":"7a4a3412","UPGRADE_INTERFACE_VERSION()":"ad3cb1cc","allowance(address,address)":"dd62ed3e","approve(address,uint256)":"095ea7b3","balanceOf(address)":"70a08231","batchTransfer(address[],uint256[])":"88d695b2","blacklist(address)":"f9f92be4","blacklisted(address)":"dbac26e9","burn(uint256)":"42966c68","burnFrom(address,uint256)":"79cc6790","canPropose(address)":"42b4632e","claimStakingRewards()":"6b69e05b","createVestingSchedule(address,uint256,uint256,uint256,uint256,bool)":"aaad9321","decimals()":"313ce567","delegateVotingPower(address)":"f3ff955a","emergencyPause()":"51858e27","emergencyUnpause()":"4a4e3bd5","emergencyWithdraw(address,uint256)":"95ccea67","getRemainingTransferLimit(address)":"23141641","getRoleAdmin(bytes32)":"248a9ca3","getStakingInfo(address)":"aa4704f3","getTransferLimit(address)":"5edf9e61","getVotingPower(address)":"bb4d4436","globalTransferLimit()":"52820f62","governanceContract()":"b172b222","grantRole(bytes32,address)":"2f2ff15d","hasRole(bytes32,address)":"91d14854","initialize(address)":"c4d66de8","isBlacklisted(address)":"fe575a87","lastRewardUpdate()":"a3c2710d","lastTransferTime(address)":"0d2d8a31","mint(address,uint256)":"40c10f19","name()":"06fdde03","nextVestingId()":"495f3d27","owner()":"8da5cb5b","pause()":"8456cb59","paused()":"5c975abb","proposalThreshold()":"b58131b0","proxiableUUID()":"52d1902d","releaseVestedTokens(uint256)":"7d2aeb8a","renounceOwnership()":"715018a6","renounceRole(bytes32,address)":"36568abe","revokeRole(bytes32,address)":"d547741f","revokeVesting(uint256)":"dd128200","rewardPerTokenStored()":"df136d65","setGlobalTransferLimit(uint256)":"24647455","setGovernanceContract(address)":"1129753f","setProposalThreshold(uint256)":"ece40cc1","setStakingRewardRate(uint256)":"b7d68519","setTransferLimit(address,uint256)":"f0b6e33f","stakeTokens(uint256,uint256,bool)":"b9e2c1e0","stakingPositions(address)":"8148580d","stakingRewardRate()":"4f3fc2df","supportsInterface(bytes4)":"01ffc9a7","symbol()":"95d89b41","totalStaked()":"817b1cd2","totalSupply()":"18160ddd","totalVested()":"199cbc54","transfer(address,uint256)":"a9059cbb","transferFrom(address,address,uint256)":"23b872dd","transferLimits(address)":"69efe471","transferOwnership(address)":"f2fde38b","transferWithMemo(address,uint256,string)":"f7334ee2","unblacklist(address)":"75e3661e","unpause()":"3f4ba83a","unstakeTokens()":"a5ce413b","upgradeToAndCall(address,bytes)":"4f1ef286","vestedAmount(uint256)":"1bfce853","vestingSchedules(uint256)":"6d3cbe21"}},"storageLayout":{"storage":[{"astId":6721,"contract":"contracts/AgriCredit.sol:AgriCredit","label":"blacklisted","offset":0,"slot":"0","type":"t_mapping(t_address,t_bool)"},{"astId":6725,"contract":"contracts/AgriCredit.sol:AgriCredit","label":"lastTransferTime","offset":0,"slot":"1","type":"t_mapping(t_address,t_uint256)"},{"astId":6729,"contract":"contracts/AgriCredit.sol:AgriCredit","label":"transferLimits","offset":0,"slot":"2","type":"t_mapping(t_address,t_uint256)"},{"astId":6734,"contract":"contracts/AgriCredit.sol:AgriCredit","label":"vestingSchedules","offset":0,"slot":"3","type":"t_mapping(t_uint256,t_struct(VestingSchedule)6706_storage)"},{"astId":6739,"contract":"contracts/AgriCredit.sol:AgriCredit","label":"stakingPositions","offset":0,"slot":"4","type":"t_mapping(t_address,t_struct(StakingPosition)6717_storage)"},{"astId":6741,"contract":"contracts/AgriCredit.sol:AgriCredit","label":"globalTransferLimit","offset":0,"slot":"5","type":"t_uint256"},{"astId":6746,"contract":"contracts/AgriCredit.sol:AgriCredit","label":"stakingRewardRate","offset":0,"slot":"6","type":"t_uint256"},{"astId":6748,"contract":"contracts/AgriCredit.sol:AgriCredit","label":"totalStaked","offset":0,"slot":"7","type":"t_uint256"},{"astId":6750,"contract":"contracts/AgriCredit.sol:AgriCredit","label":"rewardPerTokenStored","offset":0,"slot":"8","type":"t_uint256"},{"astId":6752,"contract":"contracts/AgriCredit.sol:AgriCredit","label":"lastRewardUpdate","offset":0,"slot":"9","type":"t_uint256"},{"astId":6754,"contract":"contracts/AgriCredit.sol:AgriCredit","label":"nextVestingId","offset":0,"slot":"10","type":"t_uint256"},{"astId":6756,"contract":"contracts/AgriCredit.sol:AgriCredit","label":"totalVested","offset":0,"slot":"11","type":"t_uint256"},{"astId":6758,"contract":"contracts/AgriCredit.sol:AgriCredit","label":"governanceContract","offset":0,"slot":"12","type":"t_address"},{"astId":6760,"contract":"contracts/AgriCredit.sol:AgriCredit","label":"proposalThreshold","offset":0,"slot":"13","type":"t_uint256"}],"types":{"t_address":{"encoding":"inplace","label":"address","numberOfBytes":"20"},"t_bool":{"encoding":"inplace","label":"bool","numberOfBytes":"1"},"t_mapping(t_address,t_bool)":{"encoding":"mapping","key":"t_address","label":"mapping(address => bool)","numberOfBytes":"32","value":"t_bool"},"t_mapping(t_address,t_struct(StakingPosition)6717_storage)":{"encoding":"mapping","key":"t_address","label":"mapping(address => struct AgriCredit.StakingPosition)","numberOfBytes":"32","value":"t_struct(StakingPosition)6717_storage"},"t_mapping(t_address,t_uint256)":{"encoding":"mapping","key":"t_address","label":"mapping(address => uint256)","numberOfBytes":"32","value":"t_uint256"},"t_mapping(t_uint256,t_struct(VestingSchedule)6706_storage)":{"encoding":"mapping","key":"t_uint256","label":"mapping(uint256 => struct AgriCredit.VestingSchedule)","numberOfBytes":"32","value":"t_struct(VestingSchedule)6706_storage"},"t_struct(StakingPosition)6717_storage":{"encoding":"inplace","label":"struct AgriCredit.StakingPosition","members":[{"astId":6708,"contract":"contracts/AgriCredit.sol:AgriCredit","label":"amount","offset":0,"slot":"0","type":"t_uint256"},{"astId":6710,"contract":"contracts/AgriCredit.sol:AgriCredit","label":"startTime","offset":0,"slot":"1","type":"t_uint256"},{"astId":6712,"contract":"contracts/AgriCredit.sol:AgriCredit","label":"lockPeriod","offset":0,"slot":"2","type":"t_uint256"},{"astId":6714,"contract":"contracts/AgriCredit.sol:AgriCredit","label":"rewardDebt","offset":0,"slot":"3","type":"t_uint256"},{"astId":6716,"contract":"contracts/AgriCredit.sol:AgriCredit","label":"autoCompound","offset":0,"slot":"4","type":"t_bool"}],"numberOfBytes":"160"},"t_struct(VestingSchedule)6706_storage":{"encoding":"inplace","label":"struct AgriCredit.VestingSchedule","members":[{"astId":6691,"contract":"contracts/AgriCredit.sol:AgriCredit","label":"beneficiary","offset":0,"slot":"0","type":"t_address"},{"astId":6693,"contract":"contracts/AgriCredit.sol:AgriCredit","label":"totalAmount","offset":0,"slot":"1","type":"t_uint256"},{"astId":6695,"contract":"contracts/AgriCredit.sol:AgriCredit","label":"releasedAmount","offset":0,"slot":"2","type":"t_uint256"},{"astId":6697,"contract":"contracts/AgriCredit.sol:AgriCredit","label":"startTime","offset":0,"slot":"3","type":"t_uint256"},{"astId":6699,"contract":"contracts/AgriCredit.sol:AgriCredit","label":"duration","offset":0,"slot":"4","type":"t_uint256"},{"astId":6701,"contract":"contracts/AgriCredit.sol:AgriCredit","label":"cliffDuration","offset":0,"slot":"5","type":"t_uint256"},{"astId":6703,"contract":"contracts/AgriCredit.sol:AgriCredit","label":"revocable","offset":0,"slot":"6","type":"t_bool"},{"astId":6705,"contract":"contracts/AgriCredit.sol:AgriCredit","label":"revoked","offset":1,"slot":"6","type":"t_bool"}],"numberOfBytes":"224"},"t_uint256":{"encoding":"inplace","label":"uint256","numberOfBytes":"32"}}}}}}