{
  "_format": "hh-sol-artifact-1",
  "contractName": "IdentityRegistry",
  "sourceName": "contracts/IdentityRegistry.sol",
  "abi": [
    {
      "inputs": [
        {
          "internalType": "address",
          "name": "target",
          "type": "address"
        }
      ],
      "name": "AddressEmptyCode",
      "type": "error"
    },
    {
      "inputs": [],
      "name": "ECDSAInvalidSignature",
      "type": "error"
    },
    {
      "inputs": [
        {
          "internalType": "uint256",
          "name": "length",
          "type": "uint256"
        }
      ],
      "name": "ECDSAInvalidSignatureLength",
      "type": "error"
    },
    {
      "inputs": [
        {
          "internalType": "bytes32",
          "name": "s",
          "type": "bytes32"
        }
      ],
      "name": "ECDSAInvalidSignatureS",
      "type": "error"
    },
    {
      "inputs": [
        {
          "internalType": "address",
          "name": "implementation",
          "type": "address"
        }
      ],
      "name": "ERC1967InvalidImplementation",
      "type": "error"
    },
    {
      "inputs": [],
      "name": "ERC1967NonPayable",
      "type": "error"
    },
    {
      "inputs": [],
      "name": "FailedCall",
      "type": "error"
    },
    {
      "inputs": [],
      "name": "InvalidInitialization",
      "type": "error"
    },
    {
      "inputs": [],
      "name": "NotInitializing",
      "type": "error"
    },
    {
      "inputs": [
        {
          "internalType": "address",
          "name": "owner",
          "type": "address"
        }
      ],
      "name": "OwnableInvalidOwner",
      "type": "error"
    },
    {
      "inputs": [
        {
          "internalType": "address",
          "name": "account",
          "type": "address"
        }
      ],
      "name": "OwnableUnauthorizedAccount",
      "type": "error"
    },
    {
      "inputs": [
        {
          "internalType": "uint256",
          "name": "value",
          "type": "uint256"
        },
        {
          "internalType": "uint256",
          "name": "length",
          "type": "uint256"
        }
      ],
      "name": "StringsInsufficientHexLength",
      "type": "error"
    },
    {
      "inputs": [],
      "name": "UUPSUnauthorizedCallContext",
      "type": "error"
    },
    {
      "inputs": [
        {
          "internalType": "bytes32",
          "name": "slot",
          "type": "bytes32"
        }
      ],
      "name": "UUPSUnsupportedProxiableUUID",
      "type": "error"
    },
    {
      "anonymous": false,
      "inputs": [
        {
          "indexed": true,
          "internalType": "address",
          "name": "user",
          "type": "address"
        },
        {
          "indexed": false,
          "internalType": "bool",
          "name": "passed",
          "type": "bool"
        },
        {
          "indexed": false,
          "internalType": "uint256",
          "name": "confidenceScore",
          "type": "uint256"
        }
      ],
      "name": "AIKYCCompleted",
      "type": "event"
    },
    {
      "anonymous": false,
      "inputs": [
        {
          "indexed": true,
          "internalType": "address",
          "name": "subject",
          "type": "address"
        },
        {
          "indexed": false,
          "internalType": "bytes32",
          "name": "credentialHash",
          "type": "bytes32"
        }
      ],
      "name": "CredentialIssued",
      "type": "event"
    },
    {
      "anonymous": false,
      "inputs": [
        {
          "indexed": false,
          "internalType": "bytes32",
          "name": "credentialHash",
          "type": "bytes32"
        }
      ],
      "name": "CredentialRevoked",
      "type": "event"
    },
    {
      "anonymous": false,
      "inputs": [
        {
          "indexed": true,
          "internalType": "address",
          "name": "identity",
          "type": "address"
        },
        {
          "indexed": false,
          "internalType": "uint256",
          "name": "sourceChainId",
          "type": "uint256"
        },
        {
          "indexed": false,
          "internalType": "bytes32",
          "name": "verificationHash",
          "type": "bytes32"
        }
      ],
      "name": "CrossChainIdentityVerified",
      "type": "event"
    },
    {
      "anonymous": false,
      "inputs": [
        {
          "indexed": true,
          "internalType": "bytes32",
          "name": "key",
          "type": "bytes32"
        },
        {
          "indexed": false,
          "internalType": "bytes",
          "name": "value",
          "type": "bytes"
        }
      ],
      "name": "DataChanged",
      "type": "event"
    },
    {
      "anonymous": false,
      "inputs": [
        {
          "indexed": true,
          "internalType": "address",
          "name": "identity",
          "type": "address"
        },
        {
          "indexed": false,
          "internalType": "address[]",
          "name": "guardians",
          "type": "address[]"
        },
        {
          "indexed": false,
          "internalType": "uint256",
          "name": "signaturesRequired",
          "type": "uint256"
        }
      ],
      "name": "GuardiansSetup",
      "type": "event"
    },
    {
      "anonymous": false,
      "inputs": [
        {
          "indexed": true,
          "internalType": "address",
          "name": "user",
          "type": "address"
        },
        {
          "indexed": false,
          "internalType": "string",
          "name": "did",
          "type": "string"
        }
      ],
      "name": "IdentityCreated",
      "type": "event"
    },
    {
      "anonymous": false,
      "inputs": [
        {
          "indexed": true,
          "internalType": "address",
          "name": "identity",
          "type": "address"
        },
        {
          "indexed": true,
          "internalType": "bytes32",
          "name": "key",
          "type": "bytes32"
        },
        {
          "indexed": false,
          "internalType": "bytes",
          "name": "value",
          "type": "bytes"
        }
      ],
      "name": "IdentityDataChanged",
      "type": "event"
    },
    {
      "anonymous": false,
      "inputs": [
        {
          "indexed": true,
          "internalType": "address",
          "name": "user",
          "type": "address"
        },
        {
          "indexed": false,
          "internalType": "string",
          "name": "did",
          "type": "string"
        }
      ],
      "name": "IdentityUpdated",
      "type": "event"
    },
    {
      "anonymous": false,
      "inputs": [
        {
          "indexed": false,
          "internalType": "uint64",
          "name": "version",
          "type": "uint64"
        }
      ],
      "name": "Initialized",
      "type": "event"
    },
    {
      "anonymous": false,
      "inputs": [
        {
          "indexed": true,
          "internalType": "address",
          "name": "previousOwner",
          "type": "address"
        },
        {
          "indexed": true,
          "internalType": "address",
          "name": "newOwner",
          "type": "address"
        }
      ],
      "name": "OwnershipTransferred",
      "type": "event"
    },
    {
      "anonymous": false,
      "inputs": [
        {
          "indexed": true,
          "internalType": "address",
          "name": "originalAddress",
          "type": "address"
        },
        {
          "indexed": true,
          "internalType": "address",
          "name": "newAddress",
          "type": "address"
        }
      ],
      "name": "RecoveryExecuted",
      "type": "event"
    },
    {
      "anonymous": false,
      "inputs": [
        {
          "indexed": true,
          "internalType": "address",
          "name": "originalAddress",
          "type": "address"
        },
        {
          "indexed": true,
          "internalType": "address",
          "name": "newAddress",
          "type": "address"
        }
      ],
      "name": "RecoveryInitiated",
      "type": "event"
    },
    {
      "anonymous": false,
      "inputs": [
        {
          "indexed": true,
          "internalType": "address",
          "name": "originalAddress",
          "type": "address"
        },
        {
          "indexed": true,
          "internalType": "address",
          "name": "signer",
          "type": "address"
        }
      ],
      "name": "RecoverySigned",
      "type": "event"
    },
    {
      "anonymous": false,
      "inputs": [
        {
          "indexed": true,
          "internalType": "address",
          "name": "user",
          "type": "address"
        },
        {
          "indexed": false,
          "internalType": "uint256",
          "name": "newScore",
          "type": "uint256"
        }
      ],
      "name": "ReputationUpdated",
      "type": "event"
    },
    {
      "anonymous": false,
      "inputs": [
        {
          "indexed": true,
          "internalType": "address",
          "name": "to",
          "type": "address"
        },
        {
          "indexed": true,
          "internalType": "uint256",
          "name": "tokenId",
          "type": "uint256"
        },
        {
          "indexed": false,
          "internalType": "string",
          "name": "tokenURI",
          "type": "string"
        }
      ],
      "name": "SoulboundCredentialIssued",
      "type": "event"
    },
    {
      "anonymous": false,
      "inputs": [
        {
          "indexed": true,
          "internalType": "address",
          "name": "from",
          "type": "address"
        },
        {
          "indexed": true,
          "internalType": "uint256",
          "name": "tokenId",
          "type": "uint256"
        }
      ],
      "name": "SoulboundCredentialRevoked",
      "type": "event"
    },
    {
      "anonymous": false,
      "inputs": [
        {
          "indexed": true,
          "internalType": "address",
          "name": "implementation",
          "type": "address"
        }
      ],
      "name": "Upgraded",
      "type": "event"
    },
    {
      "inputs": [],
      "name": "UPGRADE_INTERFACE_VERSION",
      "outputs": [
        {
          "internalType": "string",
          "name": "",
          "type": "string"
        }
      ],
      "stateMutability": "view",
      "type": "function"
    },
    {
      "inputs": [
        {
          "internalType": "address",
          "name": "",
          "type": "address"
        },
        {
          "internalType": "uint256",
          "name": "",
          "type": "uint256"
        }
      ],
      "name": "aiKYCResults",
      "outputs": [
        {
          "internalType": "address",
          "name": "user",
          "type": "address"
        },
        {
          "internalType": "uint256",
          "name": "confidenceScore",
          "type": "uint256"
        },
        {
          "internalType": "bool",
          "name": "passed",
          "type": "bool"
        },
        {
          "internalType": "uint256",
          "name": "timestamp",
          "type": "uint256"
        },
        {
          "internalType": "string",
          "name": "verificationMethod",
          "type": "string"
        },
        {
          "internalType": "bytes32",
          "name": "resultHash",
          "type": "bytes32"
        }
      ],
      "stateMutability": "view",
      "type": "function"
    },
    {
      "inputs": [
        {
          "internalType": "string",
          "name": "_did",
          "type": "string"
        },
        {
          "internalType": "bytes32",
          "name": "_messageHash",
          "type": "bytes32"
        },
        {
          "internalType": "bytes",
          "name": "_signature",
          "type": "bytes"
        }
      ],
      "name": "authenticateDID",
      "outputs": [
        {
          "internalType": "bool",
          "name": "",
          "type": "bool"
        }
      ],
      "stateMutability": "view",
      "type": "function"
    },
    {
      "inputs": [
        {
          "internalType": "string",
          "name": "_did",
          "type": "string"
        },
        {
          "internalType": "address",
          "name": "_user",
          "type": "address"
        },
        {
          "internalType": "string",
          "name": "_publicKey",
          "type": "string"
        }
      ],
      "name": "createIdentity",
      "outputs": [],
      "stateMutability": "nonpayable",
      "type": "function"
    },
    {
      "inputs": [
        {
          "internalType": "address",
          "name": "",
          "type": "address"
        },
        {
          "internalType": "uint256",
          "name": "",
          "type": "uint256"
        }
      ],
      "name": "crossChainVerifications",
      "outputs": [
        {
          "internalType": "uint256",
          "name": "sourceChainId",
          "type": "uint256"
        },
        {
          "internalType": "address",
          "name": "sourceContract",
          "type": "address"
        },
        {
          "internalType": "bytes32",
          "name": "verificationHash",
          "type": "bytes32"
        },
        {
          "internalType": "uint256",
          "name": "verifiedAt",
          "type": "uint256"
        },
        {
          "internalType": "bool",
          "name": "isValid",
          "type": "bool"
        }
      ],
      "stateMutability": "view",
      "type": "function"
    },
    {
      "inputs": [
        {
          "internalType": "bytes32",
          "name": "",
          "type": "bytes32"
        }
      ],
      "name": "dataStore",
      "outputs": [
        {
          "internalType": "bytes",
          "name": "",
          "type": "bytes"
        }
      ],
      "stateMutability": "view",
      "type": "function"
    },
    {
      "inputs": [
        {
          "internalType": "string",
          "name": "",
          "type": "string"
        }
      ],
      "name": "didToAddress",
      "outputs": [
        {
          "internalType": "address",
          "name": "",
          "type": "address"
        }
      ],
      "stateMutability": "view",
      "type": "function"
    },
    {
      "inputs": [
        {
          "internalType": "address",
          "name": "_user",
          "type": "address"
        }
      ],
      "name": "getAIKYCResults",
      "outputs": [
        {
          "components": [
            {
              "internalType": "address",
              "name": "user",
              "type": "address"
            },
            {
              "internalType": "uint256",
              "name": "confidenceScore",
              "type": "uint256"
            },
            {
              "internalType": "bool",
              "name": "passed",
              "type": "bool"
            },
            {
              "internalType": "uint256",
              "name": "timestamp",
              "type": "uint256"
            },
            {
              "internalType": "string",
              "name": "verificationMethod",
              "type": "string"
            },
            {
              "internalType": "bytes32",
              "name": "resultHash",
              "type": "bytes32"
            }
          ],
          "internalType": "struct IdentityRegistry.AIKYCResult[]",
          "name": "",
          "type": "tuple[]"
        }
      ],
      "stateMutability": "view",
      "type": "function"
    },
    {
      "inputs": [
        {
          "internalType": "bytes32[]",
          "name": "keys",
          "type": "bytes32[]"
        }
      ],
      "name": "getData",
      "outputs": [
        {
          "internalType": "bytes[]",
          "name": "values",
          "type": "bytes[]"
        }
      ],
      "stateMutability": "view",
      "type": "function"
    },
    {
      "inputs": [
        {
          "internalType": "address",
          "name": "_user",
          "type": "address"
        }
      ],
      "name": "getIdentity",
      "outputs": [
        {
          "internalType": "string",
          "name": "did",
          "type": "string"
        },
        {
          "internalType": "address",
          "name": "wallet",
          "type": "address"
        },
        {
          "internalType": "uint256",
          "name": "reputationScore",
          "type": "uint256"
        },
        {
          "internalType": "bool",
          "name": "isVerified",
          "type": "bool"
        },
        {
          "internalType": "uint256",
          "name": "createdAt",
          "type": "uint256"
        },
        {
          "internalType": "string",
          "name": "publicKey",
          "type": "string"
        }
      ],
      "stateMutability": "view",
      "type": "function"
    },
    {
      "inputs": [
        {
          "internalType": "address",
          "name": "identity",
          "type": "address"
        },
        {
          "internalType": "bytes32",
          "name": "key",
          "type": "bytes32"
        }
      ],
      "name": "getIdentityData",
      "outputs": [
        {
          "internalType": "bytes",
          "name": "",
          "type": "bytes"
        }
      ],
      "stateMutability": "view",
      "type": "function"
    },
    {
      "inputs": [
        {
          "internalType": "address",
          "name": "_user",
          "type": "address"
        }
      ],
      "name": "getReputationScore",
      "outputs": [
        {
          "internalType": "uint256",
          "name": "",
          "type": "uint256"
        }
      ],
      "stateMutability": "view",
      "type": "function"
    },
    {
      "inputs": [
        {
          "internalType": "address",
          "name": "owner",
          "type": "address"
        }
      ],
      "name": "getSoulboundCredential",
      "outputs": [
        {
          "internalType": "uint256",
          "name": "",
          "type": "uint256"
        }
      ],
      "stateMutability": "view",
      "type": "function"
    },
    {
      "inputs": [
        {
          "internalType": "address",
          "name": "_user",
          "type": "address"
        }
      ],
      "name": "getUserCredentials",
      "outputs": [
        {
          "components": [
            {
              "internalType": "string",
              "name": "credentialType",
              "type": "string"
            },
            {
              "internalType": "string",
              "name": "issuer",
              "type": "string"
            },
            {
              "internalType": "string",
              "name": "subject",
              "type": "string"
            },
            {
              "internalType": "uint256",
              "name": "issuanceDate",
              "type": "uint256"
            },
            {
              "internalType": "uint256",
              "name": "expirationDate",
              "type": "uint256"
            },
            {
              "internalType": "bool",
              "name": "isValid",
              "type": "bool"
            },
            {
              "internalType": "bytes32",
              "name": "credentialHash",
              "type": "bytes32"
            },
            {
              "internalType": "string",
              "name": "metadataURI",
              "type": "string"
            }
          ],
          "internalType": "struct IdentityRegistry.VerifiableCredential[]",
          "name": "",
          "type": "tuple[]"
        }
      ],
      "stateMutability": "view",
      "type": "function"
    },
    {
      "inputs": [
        {
          "internalType": "address",
          "name": "",
          "type": "address"
        },
        {
          "internalType": "uint256",
          "name": "",
          "type": "uint256"
        }
      ],
      "name": "guardians",
      "outputs": [
        {
          "internalType": "address",
          "name": "",
          "type": "address"
        }
      ],
      "stateMutability": "view",
      "type": "function"
    },
    {
      "inputs": [
        {
          "internalType": "address",
          "name": "",
          "type": "address"
        }
      ],
      "name": "identities",
      "outputs": [
        {
          "internalType": "string",
          "name": "did",
          "type": "string"
        },
        {
          "internalType": "address",
          "name": "wallet",
          "type": "address"
        },
        {
          "internalType": "uint256",
          "name": "reputationScore",
          "type": "uint256"
        },
        {
          "internalType": "bool",
          "name": "isVerified",
          "type": "bool"
        },
        {
          "internalType": "uint256",
          "name": "createdAt",
          "type": "uint256"
        },
        {
          "internalType": "uint256",
          "name": "lastUpdated",
          "type": "uint256"
        },
        {
          "internalType": "string",
          "name": "publicKey",
          "type": "string"
        },
        {
          "internalType": "bytes32",
          "name": "zkProof",
          "type": "bytes32"
        },
        {
          "internalType": "uint256",
          "name": "chainId",
          "type": "uint256"
        },
        {
          "internalType": "address",
          "name": "recoveryAddress",
          "type": "address"
        }
      ],
      "stateMutability": "view",
      "type": "function"
    },
    {
      "inputs": [
        {
          "internalType": "address",
          "name": "",
          "type": "address"
        },
        {
          "internalType": "bytes32",
          "name": "",
          "type": "bytes32"
        }
      ],
      "name": "identityData",
      "outputs": [
        {
          "internalType": "bytes",
          "name": "",
          "type": "bytes"
        }
      ],
      "stateMutability": "view",
      "type": "function"
    },
    {
      "inputs": [
        {
          "internalType": "address",
          "name": "_soulboundCredential",
          "type": "address"
        }
      ],
      "name": "initialize",
      "outputs": [],
      "stateMutability": "nonpayable",
      "type": "function"
    },
    {
      "inputs": [
        {
          "internalType": "address",
          "name": "newAddress",
          "type": "address"
        }
      ],
      "name": "initiateRecovery",
      "outputs": [],
      "stateMutability": "nonpayable",
      "type": "function"
    },
    {
      "inputs": [
        {
          "internalType": "bytes32",
          "name": "_credentialHash",
          "type": "bytes32"
        }
      ],
      "name": "isCredentialValid",
      "outputs": [
        {
          "internalType": "bool",
          "name": "",
          "type": "bool"
        }
      ],
      "stateMutability": "view",
      "type": "function"
    },
    {
      "inputs": [
        {
          "internalType": "address",
          "name": "_user",
          "type": "address"
        }
      ],
      "name": "isIdentityVerified",
      "outputs": [
        {
          "internalType": "bool",
          "name": "",
          "type": "bool"
        }
      ],
      "stateMutability": "view",
      "type": "function"
    },
    {
      "inputs": [
        {
          "internalType": "address",
          "name": "_subject",
          "type": "address"
        },
        {
          "internalType": "string",
          "name": "_credentialType",
          "type": "string"
        },
        {
          "internalType": "string",
          "name": "_issuer",
          "type": "string"
        },
        {
          "internalType": "uint256",
          "name": "_expirationDate",
          "type": "uint256"
        },
        {
          "internalType": "bytes32",
          "name": "_credentialHash",
          "type": "bytes32"
        },
        {
          "internalType": "string",
          "name": "_metadataURI",
          "type": "string"
        }
      ],
      "name": "issueCredential",
      "outputs": [],
      "stateMutability": "nonpayable",
      "type": "function"
    },
    {
      "inputs": [
        {
          "internalType": "address",
          "name": "to",
          "type": "address"
        },
        {
          "internalType": "string",
          "name": "tokenURI",
          "type": "string"
        }
      ],
      "name": "issueSoulboundCredential",
      "outputs": [
        {
          "internalType": "uint256",
          "name": "",
          "type": "uint256"
        }
      ],
      "stateMutability": "nonpayable",
      "type": "function"
    },
    {
      "inputs": [],
      "name": "owner",
      "outputs": [
        {
          "internalType": "address",
          "name": "",
          "type": "address"
        }
      ],
      "stateMutability": "view",
      "type": "function"
    },
    {
      "inputs": [],
      "name": "proxiableUUID",
      "outputs": [
        {
          "internalType": "bytes32",
          "name": "",
          "type": "bytes32"
        }
      ],
      "stateMutability": "view",
      "type": "function"
    },
    {
      "inputs": [
        {
          "internalType": "address",
          "name": "",
          "type": "address"
        }
      ],
      "name": "recoveryRequests",
      "outputs": [
        {
          "internalType": "address",
          "name": "newAddress",
          "type": "address"
        },
        {
          "internalType": "uint256",
          "name": "signaturesRequired",
          "type": "uint256"
        },
        {
          "internalType": "uint256",
          "name": "signaturesCollected",
          "type": "uint256"
        },
        {
          "internalType": "uint256",
          "name": "deadline",
          "type": "uint256"
        },
        {
          "internalType": "bool",
          "name": "executed",
          "type": "bool"
        }
      ],
      "stateMutability": "view",
      "type": "function"
    },
    {
      "inputs": [],
      "name": "renounceOwnership",
      "outputs": [],
      "stateMutability": "nonpayable",
      "type": "function"
    },
    {
      "inputs": [
        {
          "internalType": "bytes32",
          "name": "_credentialHash",
          "type": "bytes32"
        }
      ],
      "name": "revokeCredential",
      "outputs": [],
      "stateMutability": "nonpayable",
      "type": "function"
    },
    {
      "inputs": [
        {
          "internalType": "uint256",
          "name": "tokenId",
          "type": "uint256"
        }
      ],
      "name": "revokeSoulboundCredential",
      "outputs": [],
      "stateMutability": "nonpayable",
      "type": "function"
    },
    {
      "inputs": [
        {
          "internalType": "bytes32",
          "name": "",
          "type": "bytes32"
        }
      ],
      "name": "revokedCredentials",
      "outputs": [
        {
          "internalType": "bool",
          "name": "",
          "type": "bool"
        }
      ],
      "stateMutability": "view",
      "type": "function"
    },
    {
      "inputs": [
        {
          "internalType": "bytes32[]",
          "name": "keys",
          "type": "bytes32[]"
        },
        {
          "internalType": "bytes[]",
          "name": "values",
          "type": "bytes[]"
        }
      ],
      "name": "setData",
      "outputs": [],
      "stateMutability": "nonpayable",
      "type": "function"
    },
    {
      "inputs": [
        {
          "internalType": "address",
          "name": "identity",
          "type": "address"
        },
        {
          "internalType": "bytes32",
          "name": "key",
          "type": "bytes32"
        },
        {
          "internalType": "bytes",
          "name": "value",
          "type": "bytes"
        }
      ],
      "name": "setIdentityData",
      "outputs": [],
      "stateMutability": "nonpayable",
      "type": "function"
    },
    {
      "inputs": [
        {
          "internalType": "address[]",
          "name": "_guardians",
          "type": "address[]"
        },
        {
          "internalType": "uint256",
          "name": "_signaturesRequired",
          "type": "uint256"
        }
      ],
      "name": "setupGuardians",
      "outputs": [],
      "stateMutability": "nonpayable",
      "type": "function"
    },
    {
      "inputs": [
        {
          "internalType": "address",
          "name": "originalAddress",
          "type": "address"
        }
      ],
      "name": "signRecovery",
      "outputs": [],
      "stateMutability": "nonpayable",
      "type": "function"
    },
    {
      "inputs": [],
      "name": "soulboundCredential",
      "outputs": [
        {
          "internalType": "contract SoulboundCredential",
          "name": "",
          "type": "address"
        }
      ],
      "stateMutability": "view",
      "type": "function"
    },
    {
      "inputs": [
        {
          "internalType": "address",
          "name": "_user",
          "type": "address"
        },
        {
          "internalType": "uint256",
          "name": "_confidenceScore",
          "type": "uint256"
        },
        {
          "internalType": "bool",
          "name": "_passed",
          "type": "bool"
        },
        {
          "internalType": "string",
          "name": "_verificationMethod",
          "type": "string"
        },
        {
          "internalType": "bytes32",
          "name": "_resultHash",
          "type": "bytes32"
        }
      ],
      "name": "submitAIKYCResult",
      "outputs": [],
      "stateMutability": "nonpayable",
      "type": "function"
    },
    {
      "inputs": [
        {
          "internalType": "address",
          "name": "_user",
          "type": "address"
        },
        {
          "internalType": "bytes32",
          "name": "_proof",
          "type": "bytes32"
        }
      ],
      "name": "submitZKProof",
      "outputs": [],
      "stateMutability": "nonpayable",
      "type": "function"
    },
    {
      "inputs": [
        {
          "internalType": "address",
          "name": "newOwner",
          "type": "address"
        }
      ],
      "name": "transferOwnership",
      "outputs": [],
      "stateMutability": "nonpayable",
      "type": "function"
    },
    {
      "inputs": [
        {
          "internalType": "address",
          "name": "_user",
          "type": "address"
        },
        {
          "internalType": "uint256",
          "name": "_newScore",
          "type": "uint256"
        }
      ],
      "name": "updateReputation",
      "outputs": [],
      "stateMutability": "nonpayable",
      "type": "function"
    },
    {
      "inputs": [
        {
          "internalType": "address",
          "name": "newImplementation",
          "type": "address"
        },
        {
          "internalType": "bytes",
          "name": "data",
          "type": "bytes"
        }
      ],
      "name": "upgradeToAndCall",
      "outputs": [],
      "stateMutability": "payable",
      "type": "function"
    },
    {
      "inputs": [
        {
          "internalType": "bytes32",
          "name": "",
          "type": "bytes32"
        }
      ],
      "name": "usedZKProofs",
      "outputs": [
        {
          "internalType": "bool",
          "name": "",
          "type": "bool"
        }
      ],
      "stateMutability": "view",
      "type": "function"
    },
    {
      "inputs": [
        {
          "internalType": "address",
          "name": "",
          "type": "address"
        },
        {
          "internalType": "uint256",
          "name": "",
          "type": "uint256"
        }
      ],
      "name": "userCredentials",
      "outputs": [
        {
          "internalType": "string",
          "name": "credentialType",
          "type": "string"
        },
        {
          "internalType": "string",
          "name": "issuer",
          "type": "string"
        },
        {
          "internalType": "string",
          "name": "subject",
          "type": "string"
        },
        {
          "internalType": "uint256",
          "name": "issuanceDate",
          "type": "uint256"
        },
        {
          "internalType": "uint256",
          "name": "expirationDate",
          "type": "uint256"
        },
        {
          "internalType": "bool",
          "name": "isValid",
          "type": "bool"
        },
        {
          "internalType": "bytes32",
          "name": "credentialHash",
          "type": "bytes32"
        },
        {
          "internalType": "string",
          "name": "metadataURI",
          "type": "string"
        }
      ],
      "stateMutability": "view",
      "type": "function"
    },
    {
      "inputs": [
        {
          "internalType": "address",
          "name": "identity",
          "type": "address"
        },
        {
          "internalType": "uint256",
          "name": "sourceChainId",
          "type": "uint256"
        },
        {
          "internalType": "address",
          "name": "sourceContract",
          "type": "address"
        },
        {
          "internalType": "bytes32",
          "name": "verificationHash",
          "type": "bytes32"
        },
        {
          "internalType": "bytes",
          "name": "signature",
          "type": "bytes"
        }
      ],
      "name": "verifyCrossChainIdentity",
      "outputs": [],
      "stateMutability": "nonpayable",
      "type": "function"
    }
  ],
  "bytecode": "0x60a0806040523460295730608052613eab908161002f82396080518181816129670152612a1f0152f35b600080fdfe608080604052600436101561001357600080fd5b60003560e01c9081630cdc091e146137185750806314a6e293146134b15780631ed96e0e14613425578063212162d014611a88578063249b92a0146133f45780632fea7b81146132dd5780633f2d967b146132b6578063401ac1cc1461328a5780634694d4bb14612e0957806347d05bf814612daf5780634e3e6e9c14612c845780634f1ef286146129e157806352d1902d1461294c5780636ba1f4a4146128e65780636dc158eb146128b65780636f89ce441461214e578063715018a6146120b557806375a67d5c146120785780637b12e5ae14611d1b57806382e1c6ce14611ae457806385e6afb614611a8857806388ce07ce146119a05780638da5cb5b1461195a5780639364ace91461186857806399fab846146118375780639b1d233a146117885780639e7d11c214611666578063a1b097c5146115f2578063ad3cb1cc1461158f578063bc0cbf8a146112e8578063c4d66de8146110fe578063c76d291914610f32578063ca6eec7814610ed2578063d5ce9aad14610d31578063d5d9f65814610ade578063e47a46d414610803578063e9c2c67d146106ae578063ee833ba3146105b4578063ef7af65c14610438578063f2fde38b1461040d578063f5c91a0814610322578063f63ac762146102e05763f653b81e146101f857600080fd5b346102db5760203660031901126102db576001600160a01b0361021961373b565b16600052600360205261029c6040600020610233816138f5565b906001600160a01b03600182015416906002810154906102c560ff600383015416936004830154600584015461026b600686016138f5565b916007860154976001600160a01b036009600889015498015416976040519b8c9b6101408d526101408d01906139bc565b9560208c015260408b0152151560608a0152608089015260a088015286820360c08801526139bc565b9260e08501526101008401526101208301520390f35b600080fd5b346102db5760203660031901126102db576001600160a01b0361030161373b565b166000526003602052602060ff600360406000200154166040519015158152f35b346102db5760403660031901126102db5761033b61373b565b6001600160a01b036024359161034f613b93565b16908160005260036020526103766001600160a01b03600160406000200154161515613a89565b6103e881116103c957600082815260036020908152604091829020600281018490554260059091015590519182527ffc577563f1b9a0461e24abef1e1fcc0d33d3d881f20b5df6dda59de4aae2c82191a2005b606460405162461bcd60e51b815260206004820152601560248201527f53636f7265206d757374206265203c3d203130303000000000000000000000006044820152fd5b346102db5760203660031901126102db5761043661042961373b565b610431613b93565b613ad4565b005b346102db5760203660031901126102db576001600160a01b0361045961373b565b16600052600b6020526040600020805490610473826137c9565b9161048160405193846137a7565b80835260208301809260005260206000206000915b83831061054a57848660405191829160208301906020845251809152604083019060408160051b85010192916000905b8282106104d557505050500390f35b919360019193955060208091603f198982030185528751906001600160a01b03825116815282820151838201526040820151151560408201526060820151606082015260a080610534608085015160c0608086015260c08501906139bc565b93015191015296019201920185949391926104c6565b6006602060019260405161055d8161378b565b6001600160a01b038654168152848601548382015260ff6002870154161515604082015260038601546060820152610597600487016138f5565b6080820152600586015460a0820152815201920192019190610496565b346102db5760203660031901126102db576004356105d0613b93565b602460206001600160a01b0360065416604051928380927f6352211e0000000000000000000000000000000000000000000000000000000082528660048301525afa9081156106a257600091610652575b506001600160a01b03167fbeecc4c259314eb1d1c1c0484a244b3462ec6b40de6b47e8805338a719a5749d600080a3005b6020813d60201161069a575b8161066b602093836137a7565b810103126106965751906001600160a01b038216820361069357506001600160a01b03610621565b80fd5b5080fd5b3d915061065e565b6040513d6000823e3d90fd5b346102db5760403660031901126102db576106c761373b565b60243567ffffffffffffffff81116102db576106ef6001600160a01b0391369060040161385a565b916106f8613b93565b169081600052600360205261071f6001600160a01b03600160406000200154161515613a89565b6001600160a01b036006541690602060405180937fd204c45e000000000000000000000000000000000000000000000000000000008252856004830152604060248301528160008161077460448201886139bc565b03925af19182156106a2576000926107ce575b506020927fe3bcd6da3cc3c7fa2da06b02281692d33b6cba2bcbffdd237f1e0444a6915c4d6107c38493604051918291888352888301906139bc565b0390a3604051908152f35b91506020823d6020116107fb575b816107e9602093836137a7565b810103126102db579051906020610787565b3d91506107dc565b346102db5760a03660031901126102db5761081c61373b565b60243560443590811515918281036102db5760643567ffffffffffffffff81116102db576108566001600160a01b0391369060040161385a565b9461085f613b93565b16938460005260036020526108866001600160a01b03600160406000200154161515613a89565b6040516108928161378b565b8581526020810191848352604082019186835260608101904282526080810192835260a0810193608435855289600052600b6020526040600020805468010000000000000000811015610ab2576108ee916001820181556139fd565b969096610ac8576001600160a01b0380610932945116166001600160a01b0319885416178755516001870155511515600286019060ff801983541691151516179055565b516003840155518051600484019167ffffffffffffffff8211610ab2576109638261095d85546138bb565b85613a44565b602090601f8311600114610a2057926109c0836005947fefca132702ac26182a3fb8e316204e635bed55c2fa963f62b341b331b69d322f9b99979460409b9997600092610a15575b50508160011b916000199060031b1c19161790565b90555b5191015580610a0a575b6109df575b82519182526020820152a2005b60008581526003602081905284822001805460ff1916600117905583902042600591909101556109d2565b5060558110156109cd565b015190508d806109ab565b90601f1983169184600052816000209260005b818110610a9a5750937fefca132702ac26182a3fb8e316204e635bed55c2fa963f62b341b331b69d322f9a98969360409a9896936001938360059810610a81575b505050811b0190556109c3565b015160001960f88460031b161c191690558c8080610a74565b92936020600181928786015181550195019301610a33565b634e487b7160e01b600052604160045260246000fd5b634e487b7160e01b600052600060045260246000fd5b346102db5760403660031901126102db5760043567ffffffffffffffff81116102db57366023820112156102db57806004013590610b1b826137c9565b90610b2960405192836137a7565b82825260208201906024829460051b820101903682116102db57602401915b818310610d1157505050602435336000526003602052610b7a6001600160a01b03600160406000200154161515613a89565b80825110610ccd578015610c8957336000526008602052604060002082519067ffffffffffffffff8211610ab257680100000000000000008211610ab2578054828255808310610c6b575b508490600052602060002060005b838110610c4e5750505050604051916040830190604084525180915260608301939060005b818110610c2f5760208501849052337f5df4fa3f00b5856d2842d22429511ac802af4d6805539de0cc4b7d8040dcf99586880387a2005b82516001600160a01b0316865260209586019590920191600101610bf8565b60019060206001600160a01b038551169401938184015501610bd3565b610c8390826000528360206000209182019101613a2d565b85610bc5565b606460405162461bcd60e51b815260206004820152601f60248201527f5369676e617475726573207265717569726564206d757374206265203e2030006044820152fd5b606460405162461bcd60e51b815260206004820152601660248201527f496e73756666696369656e7420677561726469616e73000000000000000000006044820152fd5b82356001600160a01b03811681036102db57815260209283019201610b48565b346102db5760203660031901126102db57610d4a61373b565b336000526003602052610d6f6001600160a01b03600160406000200154161515613a89565b33600052600860205260406000206040518082602082945493848152019060005260206000209260005b818110610eb0575050610dae925003826137a7565b805115610e6c5733600090815260076020526040812080546001600160a01b0319166001600160a01b038516178155915160018301556002909101554262093a80810191908210610e56576001600160a01b0391336000526007602052600360406000200155336000526007602052600560406000200160ff19815416905516337fe7eb1bf44bc7e6084d5d89f19e76a2b46fed60ff3eb9e650f3db79a386391c61600080a3005b634e487b7160e01b600052601160045260246000fd5b606460405162461bcd60e51b815260206004820152601260248201527f4e6f20677561726469616e7320736574757000000000000000000000000000006044820152fd5b84546001600160a01b0316835260019485019486945060209093019201610d99565b346102db5760203660031901126102db577f3cc2375f3fc7711ba27361cde93880f578742f9f050acee766bed662d117ba726020600435610f11613b93565b80600052600a82526040600020600160ff19825416179055604051908152a1005b346102db5760203660031901126102db576001600160a01b03610f5361373b565b1660005260096020526040600020805490610f6d826137c9565b91610f7b60405193846137a7565b80835260208301809260005260206000206000915b83831061107457848660405191829160208301906020845251809152604083019060408160051b85010192916000905b828210610fcf57505050500390f35b919360019193955060206110648192603f198a820301865288519060e0611029611017611007855161010086526101008601906139bc565b87860151858203898701526139bc565b604085015184820360408601526139bc565b92606081015160608401526080810151608084015260a0810151151560a084015260c081015160c084015201519060e08184039101526139bc565b9601920192018594939192610fc0565b600860206001926040516110878161376e565b611090866138f5565b815261109d8587016138f5565b838201526110ad600287016138f5565b6040820152600386015460608201526004860154608082015260ff600587015416151560a0820152600686015460c08201526110eb600787016138f5565b60e0820152815201920192019190610f90565b346102db5760203660031901126102db5761111761373b565b7ff0c57e16840df040f15088dc2f81fe391c3923bec73e23a9662efc9c229c6a005460ff8160401c16159167ffffffffffffffff8216801590816112e0575b60011490816112d6575b1590816112cd575b506112a35767ffffffffffffffff1982166001177ff0c57e16840df040f15088dc2f81fe391c3923bec73e23a9662efc9c229c6a00556001600160a01b039183611264575b506111b6613d03565b6111be613d03565b6111c733613ad4565b6111cf613d03565b166001600160a01b031960065416176006556111e757005b68ff0000000000000000197ff0c57e16840df040f15088dc2f81fe391c3923bec73e23a9662efc9c229c6a0054167ff0c57e16840df040f15088dc2f81fe391c3923bec73e23a9662efc9c229c6a00557fc7f505b2f371ae2175ee4913f4499e1f2633a7b5936321eed1cdaeb6115181d2602060405160018152a1005b68ffffffffffffffffff191668010000000000000001177ff0c57e16840df040f15088dc2f81fe391c3923bec73e23a9662efc9c229c6a0055836111ad565b7ff92ee8a90000000000000000000000000000000000000000000000000000000060005260046000fd5b90501584611168565b303b159150611160565b849150611156565b346102db5760a03660031901126102db5761130161373b565b604435906024356001600160a01b0383168084036102db576064359260843567ffffffffffffffff81116102db576113e9916001600160a01b0361134c6113e093369060040161385a565b9116968760005260036020526113746001600160a01b03600160406000200154161515613a89565b60405160208101918783526bffffffffffffffffffffffff199060601b166040820152876054820152605481526113ac6074826137a7565b5190207f19457468657265756d205369676e6564204d6573736167653a0a333200000000600052601c52603c600020613bf4565b90929192613c30565b6001600160a01b03807f9016d09d72d40fdae2fd8ceac6b6234c7706214fd39c1cd1e609a0528c199300541691160361154b576040519060a0820182811067ffffffffffffffff821117610ab257604052828252602082019081526040820190848252606083014281526080840190600182528760005260026020526040600020805468010000000000000000811015610ab25761148c9160018201815561389f565b949094610ac8576001600160a01b036004946114e69751875551166001600160a01b036001870191166001600160a01b031982541617905551600285015551600384015551151591019060ff801983541691151516179055565b82600052600360205260026040600020019081549260328401809411610e56577fedb9c27b4cf5da6dcddffb9cf9b904270812cdd5b150b6d60a7f84d80191fb7f936040935584600052600360205242600584600020015582519182526020820152a2005b606460405162461bcd60e51b815260206004820152601d60248201527f496e76616c69642063726f73732d636861696e207369676e61747572650000006044820152fd5b346102db5760003660031901126102db576115ee60408051906115b281836137a7565b600582527f352e302e300000000000000000000000000000000000000000000000000000006020830152519182916020835260208301906139bc565b0390f35b346102db5760203660031901126102db576001600160a01b0361161361373b565b16600052600760205260a060406000206001600160a01b0381541690600181015490600281015460ff60056003840154930154169260405194855260208501526040840152606083015215156080820152f35b346102db5760603660031901126102db5760043567ffffffffffffffff81116102db5761169790369060040161385a565b60443567ffffffffffffffff81116102db576116d860206116c46001600160a01b0393369060040161385a565b938160405193828580945193849201613999565b81016004815203019020541690811561174457602091611729611732927f19457468657265756d205369676e6564204d6573736167653a0a333200000000600052602435601c52603c600020613bf4565b90939193613c30565b6001600160a01b036040519216148152f35b606460405162461bcd60e51b815260206004820152600d60248201527f444944206e6f7420666f756e64000000000000000000000000000000000000006044820152fd5b346102db5760403660031901126102db576117a161373b565b6001600160a01b036024359116600052600b60205260406000209081548110156102db576117ce916139fd565b506001600160a01b0381541660018201549161182d60ff60028301541691600381015460056117ff600484016138f5565b920154936040519687968752602087015215156040860152606085015260c0608085015260c08401906139bc565b9060a08301520390f35b346102db5760203660031901126102db576004356000526005602052602060ff604060002054166040519015158152f35b346102db5760403660031901126102db5761188161373b565b6001600160a01b0360243591166000526009602052604060002080548210156102db5761191a916118b1916139e1565b506115ee6118be826138f5565b916118cb600182016138f5565b6118d7600283016138f5565b91600381015492600482015461193660ff600585015416926119286119036007600688015497016138f5565b966040519b8c9b6101008d526101008d01906139bc565b908b820360208d01526139bc565b9089820360408b01526139bc565b9460608801526080870152151560a086015260c085015283820360e08501526139bc565b346102db5760003660031901126102db5760206001600160a01b037f9016d09d72d40fdae2fd8ceac6b6234c7706214fd39c1cd1e609a0528c1993005416604051908152f35b346102db5760403660031901126102db576119b961373b565b6001600160a01b036024359116908160005260036020526119ec6001600160a01b03600160406000200154161515613a89565b80600052600560205260ff60406000205416611a44578160005260036020528060076040600020015560005260056020526040600020600160ff19825416179055600052600360205242600560406000200155600080f35b606460405162461bcd60e51b815260206004820152601560248201527f5a4b2070726f6f6620616c7265616479207573656400000000000000000000006044820152fd5b346102db5760403660031901126102db576001600160a01b03611aa961373b565b16600052600160205260406000206024356000526020526115ee611ad060406000206138f5565b6040519182916020835260208301906139bc565b346102db5760603660031901126102db57611afd61373b565b6024359060443567ffffffffffffffff81116102db57611b296001600160a01b0391369060040161385a565b9116908133148015611ce8575b15611ca457816000526003602052611b606001600160a01b03600160406000200154161515613a89565b8160005260016020526040600020836000526020526040600020815167ffffffffffffffff8111610ab257611b9f81611b9984546138bb565b84613a44565b6020601f8211600114611c1a5791611bf4827f181b4896f98c40eec3a43c1852dd215f3b2cde43024cd1e036b1e558f8852bd39593611c0a95600091611c0f575b508160011b916000199060031b1c19161790565b90556040519182916020835260208301906139bc565b0390a3005b905084015189611be0565b601f1982169083600052806000209160005b818110611c8c575092611c0a9492600192827f181b4896f98c40eec3a43c1852dd215f3b2cde43024cd1e036b1e558f8852bd3989610611c73575b5050811b019055611ad0565b85015160001960f88460031b161c191690558880611c67565b9192602060018192868a015181550194019201611c2c565b606460405162461bcd60e51b815260206004820152600e60248201527f4e6f7420617574686f72697a65640000000000000000000000000000000000006044820152fd5b506001600160a01b037f9016d09d72d40fdae2fd8ceac6b6234c7706214fd39c1cd1e609a0528c19930054163314611b36565b346102db5760203660031901126102db576001600160a01b03611d3c61373b565b1680600052600760205260406000209060ff6005830154166120345760038201544211611ff05760048201906001600160a01b0333166000528160205260ff60406000205416611fac578060005260086020526040600020916040518084602082965493848152019060005260206000209260005b818110611f8a575050611dc6925003846137a7565b60009260005b8151811015611f8157336001600160a01b03611de88385613a19565b511614611df757600101611dcc565b505090915060015b15611f3d576001600160a01b0333166000526020526040600020600160ff198254161790556002820180546000198114610e565760010180915560016040519333847fe41a84cc3643fa1551d6f7b5b99ec134140a1ee71371506540f2f98b36092da9600080a301541115611e7057005b80600052600760205260406000206005810160ff815416611efb5781546000848152600360205260408120600181810180546001600160a01b0319166001600160a01b0395861617905542600590920191909155835460ff191617909255915490911692507f60f9f98be64687700419cfa6fdd7877bc88c6daeb10bc664a2be9fdd6b0c79219080a3005b60648462461bcd60e51b815260206004820152601060248201527f416c7265616479206578656375746564000000000000000000000000000000006044820152fd5b606460405162461bcd60e51b815260206004820152600e60248201527f4e6f74206120677561726469616e0000000000000000000000000000000000006044820152fd5b50509091611dff565b84546001600160a01b0316835260019485019488945060209093019201611db1565b606460405162461bcd60e51b815260206004820152600e60248201527f416c7265616479207369676e65640000000000000000000000000000000000006044820152fd5b606460405162461bcd60e51b815260206004820152601860248201527f5265636f7665727920646561646c696e652070617373656400000000000000006044820152fd5b606460405162461bcd60e51b815260206004820152601960248201527f5265636f7665727920616c7265616479206578656375746564000000000000006044820152fd5b346102db5760203660031901126102db576001600160a01b0361209961373b565b1660005260036020526020600260406000200154604051908152f35b346102db5760003660031901126102db576120ce613b93565b60006001600160a01b037f9016d09d72d40fdae2fd8ceac6b6234c7706214fd39c1cd1e609a0528c199300546001600160a01b031981167f9016d09d72d40fdae2fd8ceac6b6234c7706214fd39c1cd1e609a0528c19930055167f8be0079c531659141344cd1fd0a4f28419497f9722a3daafe3b4186f6b6457e08280a3005b346102db5760c03660031901126102db5761216761373b565b60243567ffffffffffffffff81116102db5761218790369060040161385a565b60443567ffffffffffffffff81116102db576121a790369060040161385a565b916084359060a43567ffffffffffffffff81116102db576121d46001600160a01b0391369060040161385a565b916121dd613b93565b16928360005260036020526001600160a01b0360016040600020015416156128725782600052600a60205260ff6040600020541661282e5760016fffffffffffffffffffffffffffffffff851160071b67ffffffffffffffff86821c1160061b1763ffffffff86821c1160051b1761ffff86821c1160041b1760ff86821c119060031c170194848660011b967f7fffffffffffffffffffffffffffffffffffffffffffffffffffffffffffffff81168103610e56576002880191828911610e56576122c06122aa8461383e565b936122b860405195866137a7565b80855261383e565b6020840190601f190136823783511561281857603090538251600110156128185760786021840153600098600181018091116127f0575b6001811161279c575061276c5750604051926123128461376e565b83526020830191825260408301908152606083014281526080840190606435825260a08501926001845260c086019488865260e08701978852898b52600960205260408b20805490680100000000000000008210156126e2579061237b916001820181556139e1565b9790976127595751805167ffffffffffffffff81116126e2576123a8816123a28b546138bb565b8b613a44565b60208d601f83116001146126f657906123d593836126745750508160011b916000199060031b1c19161790565b87555b600187019051805167ffffffffffffffff81116126e2576123fd8161095d85546138bb565b60208d601f831160011461267f579061242a93836126745750508160011b916000199060031b1c19161790565b90555b518051600287019167ffffffffffffffff8211612660576124528261095d85546138bb565b6020908c601f84116001146125f25792806124b597959361248e9360079c9b9a9896926125e75750508160011b916000199060031b1c19161790565b90555b516003860155516004850155511515600584019060ff801983541691151516179055565b51600682015501905180519067ffffffffffffffff82116125d3576124de8261095d85546138bb565b602090601f831160011461254b57827fac0767d2c4fca833768eb93ee25874bc4e896c397d95026f242d51d3e14c5a6f959360209593612533938a926125405750508160011b916000199060031b1c19161790565b90555b604051908152a280f35b0151905089806109ab565b8387528187209190601f198416885b8181106125bb57509260019285927fac0767d2c4fca833768eb93ee25874bc4e896c397d95026f242d51d3e14c5a6f989660209896106125a2575b505050811b019055612536565b015160001960f88460031b161c19169055888080612595565b9293602060018192878601518155019501930161255a565b602486634e487b7160e01b81526041600452fd5b015190508f806109ab565b9190601f198416858452828420935b818110612648575092600192859260079c9b9a98966124b59a98961061262f575b505050811b019055612491565b015160001960f88460031b161c191690558e8080612622565b92936020600181928786015181550195019301612601565b60248c634e487b7160e01b81526041600452fd5b015190508e806109ab565b9192601f198416858452828420935b8181106126ca57509084600195949392106126b1575b505050811b01905561242d565b015160001960f88460031b161c191690558d80806126a4565b9293602060018192878601518155019501930161268e565b60248d634e487b7160e01b81526041600452fd5b9192601f1984168b8452828420935b8181106127415750908460019594939210612728575b505050811b0187556123d8565b015160001960f88460031b161c191690558d808061271b565b92936020600181928786015181550195019301612705565b60248c634e487b7160e01b815280600452fd5b87604491887fe22e27eb000000000000000000000000000000000000000000000000000000008352600452602452fd5b90600f81166010811015612804578451831015612804577f3031323334353637383961626364656600000000000000000000000000000000901a8483016020015360041c9080156127f057600019016122f7565b60248a634e487b7160e01b81526011600452fd5b60248b634e487b7160e01b81526032600452fd5b634e487b7160e01b600052603260045260246000fd5b606460405162461bcd60e51b815260206004820152601c60248201527f43726564656e7469616c206861736820616c72656164792075736564000000006044820152fd5b606460405162461bcd60e51b815260206004820152601f60248201527f5375626a656374206964656e7469747920646f6573206e6f74206578697374006044820152fd5b346102db5760203660031901126102db57600435600052600a602052602060ff6040600020541615604051908152f35b346102db5760203660031901126102db5760043567ffffffffffffffff81116102db576001600160a01b0361293860206129258194369060040161385a565b8160405193828580945193849201613999565b810160048152030190205416604051908152f35b346102db5760003660031901126102db576001600160a01b037f00000000000000000000000000000000000000000000000000000000000000001630036129b75760206040517f360894a13ba1a3210667c828492db98dca3e2076cc3735a920a3ca505d382bbc8152f35b7fe07c8dba0000000000000000000000000000000000000000000000000000000060005260046000fd5b60403660031901126102db576129f561373b565b60243567ffffffffffffffff81116102db57612a1590369060040161385a565b6001600160a01b037f000000000000000000000000000000000000000000000000000000000000000016803014908115612c4f575b506129b757612a57613b93565b6001600160a01b038216916040517f52d1902d000000000000000000000000000000000000000000000000000000008152602081600481875afa60009181612c1b575b50612ab45783634c9c8ce360e01b60005260045260246000fd5b807f360894a13ba1a3210667c828492db98dca3e2076cc3735a920a3ca505d382bbc859203612bee5750813b15612bda57806001600160a01b03197f360894a13ba1a3210667c828492db98dca3e2076cc3735a920a3ca505d382bbc5416177f360894a13ba1a3210667c828492db98dca3e2076cc3735a920a3ca505d382bbc557fbc7cd75a20ee27fd9adebab32041f755214dbc6bffa90cc0225b39da2e5c2d3b600080a2815115612ba75760008083602061043695519101845af43d15612b9f573d91612b828361383e565b92612b9060405194856137a7565b83523d6000602085013e613de5565b606091613de5565b505034612bb057005b7fb398979f0000000000000000000000000000000000000000000000000000000060005260046000fd5b634c9c8ce360e01b60005260045260246000fd5b7faa1d49a40000000000000000000000000000000000000000000000000000000060005260045260246000fd5b9091506020813d602011612c47575b81612c37602093836137a7565b810103126102db57519085612a9a565b3d9150612c2a565b90506001600160a01b037f360894a13ba1a3210667c828492db98dca3e2076cc3735a920a3ca505d382bbc5416141583612a4a565b346102db5760203660031901126102db5760043567ffffffffffffffff81116102db57612cb59036906004016137e1565b805190612cc1826137c9565b91612ccf60405193846137a7565b808352612cde601f19916137c9565b0160005b818110612d9e57505060005b8151811015612d365780612d0460019284613a19565b516000526000602052612d1a60406000206138f5565b612d248286613a19565b52612d2f8185613a19565b5001612cee565b826040518091602082016020835281518091526040830190602060408260051b8601019301916000905b828210612d6f57505050500390f35b91936001919395506020612d8e8192603f198a820301865288516139bc565b9601920192018594939192612d60565b806060602080938701015201612ce2565b346102db5760403660031901126102db57612dc861373b565b6001600160a01b0360243591166000526008602052604060002080548210156102db576020916001600160a01b039160005282600020015416604051908152f35b346102db5760603660031901126102db5760043567ffffffffffffffff81116102db57612e3a90369060040161385a565b602435906001600160a01b0382168092036102db5760443567ffffffffffffffff81116102db57612e6f90369060040161385a565b612e77613b93565b8260005260036020526001600160a01b036001604060002001541661324657604051906001600160a01b0383519260208181870195612eb7818389613999565b8101600481520301902054166132025760405190612ed482613751565b838252602082019085825260408301906101f482526060840190600082526080850142815260a086019042825260c0870192835260e087019360008552610100880195468752610120890197600089528c60005260036020526040600020995180519067ffffffffffffffff8211610ab257612f5b828d612f5581546138bb565b90613a44565b602090601f831160011461318d57826001600160a01b0393612fda97969593612f9a936000926130df5750508160011b916000199060031b1c19161790565b8c555b51166001600160a01b0360018c0191166001600160a01b03198254161790555160028a0155511515600389019060ff801983541691151516179055565b516004870155516005860155518051600686019167ffffffffffffffff8211610ab25761300b8261095d85546138bb565b602090601f83116001146130ea576130ac966020966130da9a967fc935904fde3b784f003631fba58f14c99e3135ec5e11d22997ff5aca198f94749c9a96613077876001600160a01b03986009988a986000926130df5750508160011b916000199060031b1c19161790565b90555b5160078701555160088601555116920191166001600160a01b0319825416179055604051809381928651928391613999565b81016004815203019020846001600160a01b03198254161790556040519182916020835260208301906139bc565b0390a2005b0151905038806109ab565b90601f1983169184600052816000209260005b8181106131755750966130da9a967fc935904fde3b784f003631fba58f14c99e3135ec5e11d22997ff5aca198f94749c9a966001876009976001600160a01b0399976130ac9e978b9960209f1061315c575b505050811b01905561307a565b015160001960f88460031b161c1916905538808061314f565b929360206001819287860151815501950193016130fd565b90601f198316918d600052816000209260005b8181106131ea57509260019285926001600160a01b0396612fda9a999896106131d1575b505050811b018c55612f9d565b015160001960f88460031b161c191690553880806131c4565b929360206001819287860151815501950193016131a0565b606460405162461bcd60e51b815260206004820152601660248201527f44494420616c72656164792072656769737465726564000000000000000000006044820152fd5b606460405162461bcd60e51b815260206004820152601760248201527f4964656e7469747920616c7265616479206578697374730000000000000000006044820152fd5b346102db5760203660031901126102db5760043560005260006020526115ee611ad060406000206138f5565b346102db5760003660031901126102db5760206001600160a01b0360065416604051908152f35b346102db5760203660031901126102db576001600160a01b036132fe61373b565b1660005260036020526133d260406000206115ee60405161331e81613751565b613327836138f5565b81526001600160a01b0360018401541692602082019384526002810154916040810192835260ff600383015416906060810191151582526001600160a01b0360048401549160808101928352600585015460a082015281600961338c600688016138f5565b968760c0850152600781015460e085015260088101546101008501520154166101208201525196511693519151151590519160405197889760c0895260c08901906139bc565b94602088015260408701526060860152608085015283820360a08501526139bc565b346102db5760203660031901126102db57600435600052600a602052602060ff604060002054166040519015158152f35b346102db5760403660031901126102db5761343e61373b565b6001600160a01b0360243591166000526002602052604060002080548210156102db5760a09161346d9161389f565b508054906001600160a01b0360018201541690600281015460ff60046003840154930154169260405194855260208501526040840152606083015215156080820152f35b346102db5760403660031901126102db5760043567ffffffffffffffff81116102db576134e29036906004016137e1565b60243567ffffffffffffffff81116102db57366023820112156102db57806004013561350d816137c9565b9161351b60405193846137a7565b8183526024602084019260051b820101903682116102db5760248101925b8284106136e857858581518151036136a4576000905b8251821015610436576135628282613a19565b5161356d8385613a19565b51600052600060205260406000209080519067ffffffffffffffff8211610ab25761359c8261095d85546138bb565b602090601f83116001146136385791806135d29260019697959460009261362d5750508160011b916000199060031b1c19161790565b90555b6135df8185613a19565b517fece574603820d07bc9b91f2a932baadf4628aabcb8afba49776529c14a6104b261362361360e8487613a19565b516040519182916020835260208301906139bc565b0390a2019061354f565b0151905088806109ab565b90601f1983169184600052816000209260005b81811061368c57509160019697959492918388959310613673575b505050811b0190556135d5565b015160001960f88460031b161c19169055878080613666565b9293602060018192878601518155019501930161364b565b606460405162461bcd60e51b815260206004820152601f60248201527f4b65797320616e642076616c756573206c656e677468206d69736d61746368006044820152fd5b833567ffffffffffffffff81116102db5760209161370d83926024369187010161385a565b815201930192613539565b346102db5760203660031901126102db5760209061373461373b565b5060008152f35b600435906001600160a01b03821682036102db57565b610140810190811067ffffffffffffffff821117610ab257604052565b610100810190811067ffffffffffffffff821117610ab257604052565b60c0810190811067ffffffffffffffff821117610ab257604052565b90601f8019910116810190811067ffffffffffffffff821117610ab257604052565b67ffffffffffffffff8111610ab25760051b60200190565b9080601f830112156102db5781356137f8816137c9565b9261380660405194856137a7565b81845260208085019260051b8201019283116102db57602001905b82821061382e5750505090565b8135815260209182019101613821565b67ffffffffffffffff8111610ab257601f01601f191660200190565b81601f820112156102db576020813591016138748261383e565b9261388260405194856137a7565b828452828201116102db5781600092602092838601378301015290565b8054821015612818576000526005602060002091020190600090565b90600182811c921680156138eb575b60208310146138d557565b634e487b7160e01b600052602260045260246000fd5b91607f16916138ca565b9060405191826000825492613909846138bb565b80845293600181169081156139775750600114613930575b5061392e925003836137a7565b565b90506000929192526020600020906000915b81831061395b57505090602061392e9282010138613921565b6020919350806001915483858901015201910190918492613942565b90506020925061392e94915060ff191682840152151560051b82010138613921565b60005b8381106139ac5750506000910152565b818101518382015260200161399c565b906020916139d581518092818552858086019101613999565b601f01601f1916010190565b80548210156128185760005260206000209060031b0190600090565b8054821015612818576000526006602060002091020190600090565b80518210156128185760209160051b010190565b818110613a38575050565b60008155600101613a2d565b9190601f8111613a5357505050565b61392e926000526020600020906020601f840160051c83019310613a7f575b601f0160051c0190613a2d565b9091508190613a72565b15613a9057565b606460405162461bcd60e51b815260206004820152601760248201527f4964656e7469747920646f6573206e6f742065786973740000000000000000006044820152fd5b6001600160a01b03168015613b64576001600160a01b037f9016d09d72d40fdae2fd8ceac6b6234c7706214fd39c1cd1e609a0528c19930054826001600160a01b03198216177f9016d09d72d40fdae2fd8ceac6b6234c7706214fd39c1cd1e609a0528c19930055167f8be0079c531659141344cd1fd0a4f28419497f9722a3daafe3b4186f6b6457e0600080a3565b7f1e4fbdf700000000000000000000000000000000000000000000000000000000600052600060045260246000fd5b6001600160a01b037f9016d09d72d40fdae2fd8ceac6b6234c7706214fd39c1cd1e609a0528c19930054163303613bc657565b7f118cdaa7000000000000000000000000000000000000000000000000000000006000523360045260246000fd5b8151919060418303613c2557613c1e92506020820151906060604084015193015160001a90613d5c565b9192909190565b505060009160029190565b9190916004811015613ced5780613c4657509050565b600060018203613c7a577ff645eedf0000000000000000000000000000000000000000000000000000000060005260046000fd5b5060028103613cb157827ffce698f70000000000000000000000000000000000000000000000000000000060005260045260246000fd5b9091600360009214613cc1575050565b602492507fd78bce0c000000000000000000000000000000000000000000000000000000008252600452fd5b634e487b7160e01b600052602160045260246000fd5b60ff7ff0c57e16840df040f15088dc2f81fe391c3923bec73e23a9662efc9c229c6a005460401c1615613d3257565b7fd7e6bcf80000000000000000000000000000000000000000000000000000000060005260046000fd5b91907f7fffffffffffffffffffffffffffffff5d576e7357a4501ddfe92f46681b20a08411613dd9579160209360809260ff60009560405194855216868401526040830152606082015282805260015afa156106a2576000516001600160a01b03811615613dcd5790600090600090565b50600090600190600090565b50505060009160039190565b90613e245750805115613dfa57602081519101fd5b7fd6bda2750000000000000000000000000000000000000000000000000000000060005260046000fd5b81511580613e6c575b613e35575090565b6001600160a01b03907f9996b315000000000000000000000000000000000000000000000000000000006000521660045260246000fd5b50803b15613e2d56fea26469706673582212202aa03e279392cd2b85c31b6c0e311af77e6dd4da92a9ab6c31e28dc1ff7fcd7d64736f6c634300081c0033",
  "linkReferences": {},
  "deployedLinkReferences": {}
}