{
  "_format": "hh-sol-artifact-1",
  "contractName": "IdentityRegistry",
  "sourceName": "contracts/IdentityRegistry.sol",
  "abi": [
    {
      "inputs": [
        {
          "internalType": "address",
          "name": "target",
          "type": "address"
        }
      ],
      "name": "AddressEmptyCode",
      "type": "error"
    },
    {
      "inputs": [],
      "name": "ECDSAInvalidSignature",
      "type": "error"
    },
    {
      "inputs": [
        {
          "internalType": "uint256",
          "name": "length",
          "type": "uint256"
        }
      ],
      "name": "ECDSAInvalidSignatureLength",
      "type": "error"
    },
    {
      "inputs": [
        {
          "internalType": "bytes32",
          "name": "s",
          "type": "bytes32"
        }
      ],
      "name": "ECDSAInvalidSignatureS",
      "type": "error"
    },
    {
      "inputs": [
        {
          "internalType": "address",
          "name": "implementation",
          "type": "address"
        }
      ],
      "name": "ERC1967InvalidImplementation",
      "type": "error"
    },
    {
      "inputs": [],
      "name": "ERC1967NonPayable",
      "type": "error"
    },
    {
      "inputs": [],
      "name": "FailedCall",
      "type": "error"
    },
    {
      "inputs": [],
      "name": "InvalidInitialization",
      "type": "error"
    },
    {
      "inputs": [],
      "name": "NotInitializing",
      "type": "error"
    },
    {
      "inputs": [
        {
          "internalType": "address",
          "name": "owner",
          "type": "address"
        }
      ],
      "name": "OwnableInvalidOwner",
      "type": "error"
    },
    {
      "inputs": [
        {
          "internalType": "address",
          "name": "account",
          "type": "address"
        }
      ],
      "name": "OwnableUnauthorizedAccount",
      "type": "error"
    },
    {
      "inputs": [
        {
          "internalType": "uint256",
          "name": "value",
          "type": "uint256"
        },
        {
          "internalType": "uint256",
          "name": "length",
          "type": "uint256"
        }
      ],
      "name": "StringsInsufficientHexLength",
      "type": "error"
    },
    {
      "inputs": [],
      "name": "UUPSUnauthorizedCallContext",
      "type": "error"
    },
    {
      "inputs": [
        {
          "internalType": "bytes32",
          "name": "slot",
          "type": "bytes32"
        }
      ],
      "name": "UUPSUnsupportedProxiableUUID",
      "type": "error"
    },
    {
      "anonymous": false,
      "inputs": [
        {
          "indexed": true,
          "internalType": "address",
          "name": "user",
          "type": "address"
        },
        {
          "indexed": false,
          "internalType": "bool",
          "name": "passed",
          "type": "bool"
        },
        {
          "indexed": false,
          "internalType": "uint256",
          "name": "confidenceScore",
          "type": "uint256"
        }
      ],
      "name": "AIKYCCompleted",
      "type": "event"
    },
    {
      "anonymous": false,
      "inputs": [
        {
          "indexed": true,
          "internalType": "address",
          "name": "subject",
          "type": "address"
        },
        {
          "indexed": false,
          "internalType": "bytes32",
          "name": "credentialHash",
          "type": "bytes32"
        }
      ],
      "name": "CredentialIssued",
      "type": "event"
    },
    {
      "anonymous": false,
      "inputs": [
        {
          "indexed": false,
          "internalType": "bytes32",
          "name": "credentialHash",
          "type": "bytes32"
        }
      ],
      "name": "CredentialRevoked",
      "type": "event"
    },
    {
      "anonymous": false,
      "inputs": [
        {
          "indexed": true,
          "internalType": "address",
          "name": "identity",
          "type": "address"
        },
        {
          "indexed": false,
          "internalType": "uint256",
          "name": "sourceChainId",
          "type": "uint256"
        },
        {
          "indexed": false,
          "internalType": "bytes32",
          "name": "verificationHash",
          "type": "bytes32"
        }
      ],
      "name": "CrossChainIdentityVerified",
      "type": "event"
    },
    {
      "anonymous": false,
      "inputs": [
        {
          "indexed": true,
          "internalType": "bytes32",
          "name": "key",
          "type": "bytes32"
        },
        {
          "indexed": false,
          "internalType": "bytes",
          "name": "value",
          "type": "bytes"
        }
      ],
      "name": "DataChanged",
      "type": "event"
    },
    {
      "anonymous": false,
      "inputs": [
        {
          "indexed": true,
          "internalType": "address",
          "name": "identity",
          "type": "address"
        },
        {
          "indexed": false,
          "internalType": "address[]",
          "name": "guardians",
          "type": "address[]"
        },
        {
          "indexed": false,
          "internalType": "uint256",
          "name": "signaturesRequired",
          "type": "uint256"
        }
      ],
      "name": "GuardiansSetup",
      "type": "event"
    },
    {
      "anonymous": false,
      "inputs": [
        {
          "indexed": true,
          "internalType": "address",
          "name": "user",
          "type": "address"
        },
        {
          "indexed": false,
          "internalType": "string",
          "name": "did",
          "type": "string"
        }
      ],
      "name": "IdentityCreated",
      "type": "event"
    },
    {
      "anonymous": false,
      "inputs": [
        {
          "indexed": true,
          "internalType": "address",
          "name": "identity",
          "type": "address"
        },
        {
          "indexed": true,
          "internalType": "bytes32",
          "name": "key",
          "type": "bytes32"
        },
        {
          "indexed": false,
          "internalType": "bytes",
          "name": "value",
          "type": "bytes"
        }
      ],
      "name": "IdentityDataChanged",
      "type": "event"
    },
    {
      "anonymous": false,
      "inputs": [
        {
          "indexed": true,
          "internalType": "address",
          "name": "user",
          "type": "address"
        },
        {
          "indexed": false,
          "internalType": "string",
          "name": "did",
          "type": "string"
        }
      ],
      "name": "IdentityUpdated",
      "type": "event"
    },
    {
      "anonymous": false,
      "inputs": [
        {
          "indexed": false,
          "internalType": "uint64",
          "name": "version",
          "type": "uint64"
        }
      ],
      "name": "Initialized",
      "type": "event"
    },
    {
      "anonymous": false,
      "inputs": [
        {
          "indexed": true,
          "internalType": "address",
          "name": "previousOwner",
          "type": "address"
        },
        {
          "indexed": true,
          "internalType": "address",
          "name": "newOwner",
          "type": "address"
        }
      ],
      "name": "OwnershipTransferred",
      "type": "event"
    },
    {
      "anonymous": false,
      "inputs": [
        {
          "indexed": true,
          "internalType": "address",
          "name": "originalAddress",
          "type": "address"
        },
        {
          "indexed": true,
          "internalType": "address",
          "name": "newAddress",
          "type": "address"
        }
      ],
      "name": "RecoveryExecuted",
      "type": "event"
    },
    {
      "anonymous": false,
      "inputs": [
        {
          "indexed": true,
          "internalType": "address",
          "name": "originalAddress",
          "type": "address"
        },
        {
          "indexed": true,
          "internalType": "address",
          "name": "newAddress",
          "type": "address"
        }
      ],
      "name": "RecoveryInitiated",
      "type": "event"
    },
    {
      "anonymous": false,
      "inputs": [
        {
          "indexed": true,
          "internalType": "address",
          "name": "originalAddress",
          "type": "address"
        },
        {
          "indexed": true,
          "internalType": "address",
          "name": "signer",
          "type": "address"
        }
      ],
      "name": "RecoverySigned",
      "type": "event"
    },
    {
      "anonymous": false,
      "inputs": [
        {
          "indexed": true,
          "internalType": "address",
          "name": "user",
          "type": "address"
        },
        {
          "indexed": false,
          "internalType": "uint256",
          "name": "newScore",
          "type": "uint256"
        }
      ],
      "name": "ReputationUpdated",
      "type": "event"
    },
    {
      "anonymous": false,
      "inputs": [
        {
          "indexed": true,
          "internalType": "address",
          "name": "to",
          "type": "address"
        },
        {
          "indexed": true,
          "internalType": "uint256",
          "name": "tokenId",
          "type": "uint256"
        },
        {
          "indexed": false,
          "internalType": "string",
          "name": "tokenURI",
          "type": "string"
        }
      ],
      "name": "SoulboundCredentialIssued",
      "type": "event"
    },
    {
      "anonymous": false,
      "inputs": [
        {
          "indexed": true,
          "internalType": "address",
          "name": "from",
          "type": "address"
        },
        {
          "indexed": true,
          "internalType": "uint256",
          "name": "tokenId",
          "type": "uint256"
        }
      ],
      "name": "SoulboundCredentialRevoked",
      "type": "event"
    },
    {
      "anonymous": false,
      "inputs": [
        {
          "indexed": true,
          "internalType": "address",
          "name": "implementation",
          "type": "address"
        }
      ],
      "name": "Upgraded",
      "type": "event"
    },
    {
      "inputs": [],
      "name": "UPGRADE_INTERFACE_VERSION",
      "outputs": [
        {
          "internalType": "string",
          "name": "",
          "type": "string"
        }
      ],
      "stateMutability": "view",
      "type": "function"
    },
    {
      "inputs": [
        {
          "internalType": "address",
          "name": "",
          "type": "address"
        },
        {
          "internalType": "uint256",
          "name": "",
          "type": "uint256"
        }
      ],
      "name": "aiKYCResults",
      "outputs": [
        {
          "internalType": "address",
          "name": "user",
          "type": "address"
        },
        {
          "internalType": "uint256",
          "name": "confidenceScore",
          "type": "uint256"
        },
        {
          "internalType": "bool",
          "name": "passed",
          "type": "bool"
        },
        {
          "internalType": "uint256",
          "name": "timestamp",
          "type": "uint256"
        },
        {
          "internalType": "string",
          "name": "verificationMethod",
          "type": "string"
        },
        {
          "internalType": "bytes32",
          "name": "resultHash",
          "type": "bytes32"
        }
      ],
      "stateMutability": "view",
      "type": "function"
    },
    {
      "inputs": [
        {
          "internalType": "string",
          "name": "_did",
          "type": "string"
        },
        {
          "internalType": "bytes32",
          "name": "_messageHash",
          "type": "bytes32"
        },
        {
          "internalType": "bytes",
          "name": "_signature",
          "type": "bytes"
        }
      ],
      "name": "authenticateDID",
      "outputs": [
        {
          "internalType": "bool",
          "name": "",
          "type": "bool"
        }
      ],
      "stateMutability": "view",
      "type": "function"
    },
    {
      "inputs": [
        {
          "internalType": "string",
          "name": "_did",
          "type": "string"
        },
        {
          "internalType": "address",
          "name": "_user",
          "type": "address"
        },
        {
          "internalType": "string",
          "name": "_publicKey",
          "type": "string"
        }
      ],
      "name": "createIdentity",
      "outputs": [],
      "stateMutability": "nonpayable",
      "type": "function"
    },
    {
      "inputs": [
        {
          "internalType": "address",
          "name": "",
          "type": "address"
        },
        {
          "internalType": "uint256",
          "name": "",
          "type": "uint256"
        }
      ],
      "name": "crossChainVerifications",
      "outputs": [
        {
          "internalType": "uint256",
          "name": "sourceChainId",
          "type": "uint256"
        },
        {
          "internalType": "address",
          "name": "sourceContract",
          "type": "address"
        },
        {
          "internalType": "bytes32",
          "name": "verificationHash",
          "type": "bytes32"
        },
        {
          "internalType": "uint256",
          "name": "verifiedAt",
          "type": "uint256"
        },
        {
          "internalType": "bool",
          "name": "isValid",
          "type": "bool"
        }
      ],
      "stateMutability": "view",
      "type": "function"
    },
    {
      "inputs": [
        {
          "internalType": "bytes32",
          "name": "",
          "type": "bytes32"
        }
      ],
      "name": "dataStore",
      "outputs": [
        {
          "internalType": "bytes",
          "name": "",
          "type": "bytes"
        }
      ],
      "stateMutability": "view",
      "type": "function"
    },
    {
      "inputs": [
        {
          "internalType": "string",
          "name": "",
          "type": "string"
        }
      ],
      "name": "didToAddress",
      "outputs": [
        {
          "internalType": "address",
          "name": "",
          "type": "address"
        }
      ],
      "stateMutability": "view",
      "type": "function"
    },
    {
      "inputs": [
        {
          "internalType": "address",
          "name": "_user",
          "type": "address"
        }
      ],
      "name": "getAIKYCResults",
      "outputs": [
        {
          "components": [
            {
              "internalType": "address",
              "name": "user",
              "type": "address"
            },
            {
              "internalType": "uint256",
              "name": "confidenceScore",
              "type": "uint256"
            },
            {
              "internalType": "bool",
              "name": "passed",
              "type": "bool"
            },
            {
              "internalType": "uint256",
              "name": "timestamp",
              "type": "uint256"
            },
            {
              "internalType": "string",
              "name": "verificationMethod",
              "type": "string"
            },
            {
              "internalType": "bytes32",
              "name": "resultHash",
              "type": "bytes32"
            }
          ],
          "internalType": "struct IdentityRegistry.AIKYCResult[]",
          "name": "",
          "type": "tuple[]"
        }
      ],
      "stateMutability": "view",
      "type": "function"
    },
    {
      "inputs": [
        {
          "internalType": "bytes32[]",
          "name": "keys",
          "type": "bytes32[]"
        }
      ],
      "name": "getData",
      "outputs": [
        {
          "internalType": "bytes[]",
          "name": "values",
          "type": "bytes[]"
        }
      ],
      "stateMutability": "view",
      "type": "function"
    },
    {
      "inputs": [
        {
          "internalType": "address",
          "name": "_user",
          "type": "address"
        }
      ],
      "name": "getIdentity",
      "outputs": [
        {
          "internalType": "string",
          "name": "did",
          "type": "string"
        },
        {
          "internalType": "address",
          "name": "wallet",
          "type": "address"
        },
        {
          "internalType": "uint256",
          "name": "reputationScore",
          "type": "uint256"
        },
        {
          "internalType": "bool",
          "name": "isVerified",
          "type": "bool"
        },
        {
          "internalType": "uint256",
          "name": "createdAt",
          "type": "uint256"
        },
        {
          "internalType": "string",
          "name": "publicKey",
          "type": "string"
        }
      ],
      "stateMutability": "view",
      "type": "function"
    },
    {
      "inputs": [
        {
          "internalType": "address",
          "name": "identity",
          "type": "address"
        },
        {
          "internalType": "bytes32",
          "name": "key",
          "type": "bytes32"
        }
      ],
      "name": "getIdentityData",
      "outputs": [
        {
          "internalType": "bytes",
          "name": "",
          "type": "bytes"
        }
      ],
      "stateMutability": "view",
      "type": "function"
    },
    {
      "inputs": [
        {
          "internalType": "address",
          "name": "_user",
          "type": "address"
        }
      ],
      "name": "getReputationScore",
      "outputs": [
        {
          "internalType": "uint256",
          "name": "",
          "type": "uint256"
        }
      ],
      "stateMutability": "view",
      "type": "function"
    },
    {
      "inputs": [
        {
          "internalType": "address",
          "name": "owner",
          "type": "address"
        }
      ],
      "name": "getSoulboundCredential",
      "outputs": [
        {
          "internalType": "uint256",
          "name": "",
          "type": "uint256"
        }
      ],
      "stateMutability": "view",
      "type": "function"
    },
    {
      "inputs": [
        {
          "internalType": "address",
          "name": "_user",
          "type": "address"
        }
      ],
      "name": "getUserCredentials",
      "outputs": [
        {
          "components": [
            {
              "internalType": "string",
              "name": "credentialType",
              "type": "string"
            },
            {
              "internalType": "string",
              "name": "issuer",
              "type": "string"
            },
            {
              "internalType": "string",
              "name": "subject",
              "type": "string"
            },
            {
              "internalType": "uint256",
              "name": "issuanceDate",
              "type": "uint256"
            },
            {
              "internalType": "uint256",
              "name": "expirationDate",
              "type": "uint256"
            },
            {
              "internalType": "bool",
              "name": "isValid",
              "type": "bool"
            },
            {
              "internalType": "bytes32",
              "name": "credentialHash",
              "type": "bytes32"
            },
            {
              "internalType": "string",
              "name": "metadataURI",
              "type": "string"
            }
          ],
          "internalType": "struct IdentityRegistry.VerifiableCredential[]",
          "name": "",
          "type": "tuple[]"
        }
      ],
      "stateMutability": "view",
      "type": "function"
    },
    {
      "inputs": [
        {
          "internalType": "address",
          "name": "",
          "type": "address"
        },
        {
          "internalType": "uint256",
          "name": "",
          "type": "uint256"
        }
      ],
      "name": "guardians",
      "outputs": [
        {
          "internalType": "address",
          "name": "",
          "type": "address"
        }
      ],
      "stateMutability": "view",
      "type": "function"
    },
    {
      "inputs": [
        {
          "internalType": "address",
          "name": "",
          "type": "address"
        }
      ],
      "name": "identities",
      "outputs": [
        {
          "internalType": "string",
          "name": "did",
          "type": "string"
        },
        {
          "internalType": "address",
          "name": "wallet",
          "type": "address"
        },
        {
          "internalType": "uint256",
          "name": "reputationScore",
          "type": "uint256"
        },
        {
          "internalType": "bool",
          "name": "isVerified",
          "type": "bool"
        },
        {
          "internalType": "uint256",
          "name": "createdAt",
          "type": "uint256"
        },
        {
          "internalType": "uint256",
          "name": "lastUpdated",
          "type": "uint256"
        },
        {
          "internalType": "string",
          "name": "publicKey",
          "type": "string"
        },
        {
          "internalType": "bytes32",
          "name": "zkProof",
          "type": "bytes32"
        },
        {
          "internalType": "uint256",
          "name": "chainId",
          "type": "uint256"
        },
        {
          "internalType": "address",
          "name": "recoveryAddress",
          "type": "address"
        }
      ],
      "stateMutability": "view",
      "type": "function"
    },
    {
      "inputs": [
        {
          "internalType": "address",
          "name": "",
          "type": "address"
        },
        {
          "internalType": "bytes32",
          "name": "",
          "type": "bytes32"
        }
      ],
      "name": "identityData",
      "outputs": [
        {
          "internalType": "bytes",
          "name": "",
          "type": "bytes"
        }
      ],
      "stateMutability": "view",
      "type": "function"
    },
    {
      "inputs": [
        {
          "internalType": "address",
          "name": "_soulboundCredential",
          "type": "address"
        }
      ],
      "name": "initialize",
      "outputs": [],
      "stateMutability": "nonpayable",
      "type": "function"
    },
    {
      "inputs": [
        {
          "internalType": "address",
          "name": "newAddress",
          "type": "address"
        }
      ],
      "name": "initiateRecovery",
      "outputs": [],
      "stateMutability": "nonpayable",
      "type": "function"
    },
    {
      "inputs": [
        {
          "internalType": "bytes32",
          "name": "_credentialHash",
          "type": "bytes32"
        }
      ],
      "name": "isCredentialValid",
      "outputs": [
        {
          "internalType": "bool",
          "name": "",
          "type": "bool"
        }
      ],
      "stateMutability": "view",
      "type": "function"
    },
    {
      "inputs": [
        {
          "internalType": "address",
          "name": "_user",
          "type": "address"
        }
      ],
      "name": "isIdentityVerified",
      "outputs": [
        {
          "internalType": "bool",
          "name": "",
          "type": "bool"
        }
      ],
      "stateMutability": "view",
      "type": "function"
    },
    {
      "inputs": [
        {
          "internalType": "address",
          "name": "_subject",
          "type": "address"
        },
        {
          "internalType": "string",
          "name": "_credentialType",
          "type": "string"
        },
        {
          "internalType": "string",
          "name": "_issuer",
          "type": "string"
        },
        {
          "internalType": "uint256",
          "name": "_expirationDate",
          "type": "uint256"
        },
        {
          "internalType": "bytes32",
          "name": "_credentialHash",
          "type": "bytes32"
        },
        {
          "internalType": "string",
          "name": "_metadataURI",
          "type": "string"
        }
      ],
      "name": "issueCredential",
      "outputs": [],
      "stateMutability": "nonpayable",
      "type": "function"
    },
    {
      "inputs": [
        {
          "internalType": "address",
          "name": "to",
          "type": "address"
        },
        {
          "internalType": "string",
          "name": "tokenURI",
          "type": "string"
        }
      ],
      "name": "issueSoulboundCredential",
      "outputs": [
        {
          "internalType": "uint256",
          "name": "",
          "type": "uint256"
        }
      ],
      "stateMutability": "nonpayable",
      "type": "function"
    },
    {
      "inputs": [],
      "name": "owner",
      "outputs": [
        {
          "internalType": "address",
          "name": "",
          "type": "address"
        }
      ],
      "stateMutability": "view",
      "type": "function"
    },
    {
      "inputs": [],
      "name": "proxiableUUID",
      "outputs": [
        {
          "internalType": "bytes32",
          "name": "",
          "type": "bytes32"
        }
      ],
      "stateMutability": "view",
      "type": "function"
    },
    {
      "inputs": [
        {
          "internalType": "address",
          "name": "",
          "type": "address"
        }
      ],
      "name": "recoveryRequests",
      "outputs": [
        {
          "internalType": "address",
          "name": "newAddress",
          "type": "address"
        },
        {
          "internalType": "uint256",
          "name": "signaturesRequired",
          "type": "uint256"
        },
        {
          "internalType": "uint256",
          "name": "signaturesCollected",
          "type": "uint256"
        },
        {
          "internalType": "uint256",
          "name": "deadline",
          "type": "uint256"
        },
        {
          "internalType": "bool",
          "name": "executed",
          "type": "bool"
        }
      ],
      "stateMutability": "view",
      "type": "function"
    },
    {
      "inputs": [],
      "name": "renounceOwnership",
      "outputs": [],
      "stateMutability": "nonpayable",
      "type": "function"
    },
    {
      "inputs": [
        {
          "internalType": "bytes32",
          "name": "_credentialHash",
          "type": "bytes32"
        }
      ],
      "name": "revokeCredential",
      "outputs": [],
      "stateMutability": "nonpayable",
      "type": "function"
    },
    {
      "inputs": [
        {
          "internalType": "uint256",
          "name": "tokenId",
          "type": "uint256"
        }
      ],
      "name": "revokeSoulboundCredential",
      "outputs": [],
      "stateMutability": "nonpayable",
      "type": "function"
    },
    {
      "inputs": [
        {
          "internalType": "bytes32",
          "name": "",
          "type": "bytes32"
        }
      ],
      "name": "revokedCredentials",
      "outputs": [
        {
          "internalType": "bool",
          "name": "",
          "type": "bool"
        }
      ],
      "stateMutability": "view",
      "type": "function"
    },
    {
      "inputs": [
        {
          "internalType": "bytes32[]",
          "name": "keys",
          "type": "bytes32[]"
        },
        {
          "internalType": "bytes[]",
          "name": "values",
          "type": "bytes[]"
        }
      ],
      "name": "setData",
      "outputs": [],
      "stateMutability": "nonpayable",
      "type": "function"
    },
    {
      "inputs": [
        {
          "internalType": "address",
          "name": "identity",
          "type": "address"
        },
        {
          "internalType": "bytes32",
          "name": "key",
          "type": "bytes32"
        },
        {
          "internalType": "bytes",
          "name": "value",
          "type": "bytes"
        }
      ],
      "name": "setIdentityData",
      "outputs": [],
      "stateMutability": "nonpayable",
      "type": "function"
    },
    {
      "inputs": [
        {
          "internalType": "address[]",
          "name": "_guardians",
          "type": "address[]"
        },
        {
          "internalType": "uint256",
          "name": "_signaturesRequired",
          "type": "uint256"
        }
      ],
      "name": "setupGuardians",
      "outputs": [],
      "stateMutability": "nonpayable",
      "type": "function"
    },
    {
      "inputs": [
        {
          "internalType": "address",
          "name": "originalAddress",
          "type": "address"
        }
      ],
      "name": "signRecovery",
      "outputs": [],
      "stateMutability": "nonpayable",
      "type": "function"
    },
    {
      "inputs": [],
      "name": "soulboundCredential",
      "outputs": [
        {
          "internalType": "contract SoulboundCredential",
          "name": "",
          "type": "address"
        }
      ],
      "stateMutability": "view",
      "type": "function"
    },
    {
      "inputs": [
        {
          "internalType": "address",
          "name": "_user",
          "type": "address"
        },
        {
          "internalType": "uint256",
          "name": "_confidenceScore",
          "type": "uint256"
        },
        {
          "internalType": "bool",
          "name": "_passed",
          "type": "bool"
        },
        {
          "internalType": "string",
          "name": "_verificationMethod",
          "type": "string"
        },
        {
          "internalType": "bytes32",
          "name": "_resultHash",
          "type": "bytes32"
        }
      ],
      "name": "submitAIKYCResult",
      "outputs": [],
      "stateMutability": "nonpayable",
      "type": "function"
    },
    {
      "inputs": [
        {
          "internalType": "address",
          "name": "_user",
          "type": "address"
        },
        {
          "internalType": "bytes32",
          "name": "_proof",
          "type": "bytes32"
        }
      ],
      "name": "submitZKProof",
      "outputs": [],
      "stateMutability": "nonpayable",
      "type": "function"
    },
    {
      "inputs": [
        {
          "internalType": "address",
          "name": "newOwner",
          "type": "address"
        }
      ],
      "name": "transferOwnership",
      "outputs": [],
      "stateMutability": "nonpayable",
      "type": "function"
    },
    {
      "inputs": [
        {
          "internalType": "address",
          "name": "_user",
          "type": "address"
        },
        {
          "internalType": "uint256",
          "name": "_newScore",
          "type": "uint256"
        }
      ],
      "name": "updateReputation",
      "outputs": [],
      "stateMutability": "nonpayable",
      "type": "function"
    },
    {
      "inputs": [
        {
          "internalType": "address",
          "name": "newImplementation",
          "type": "address"
        },
        {
          "internalType": "bytes",
          "name": "data",
          "type": "bytes"
        }
      ],
      "name": "upgradeToAndCall",
      "outputs": [],
      "stateMutability": "payable",
      "type": "function"
    },
    {
      "inputs": [
        {
          "internalType": "bytes32",
          "name": "",
          "type": "bytes32"
        }
      ],
      "name": "usedZKProofs",
      "outputs": [
        {
          "internalType": "bool",
          "name": "",
          "type": "bool"
        }
      ],
      "stateMutability": "view",
      "type": "function"
    },
    {
      "inputs": [
        {
          "internalType": "address",
          "name": "",
          "type": "address"
        },
        {
          "internalType": "uint256",
          "name": "",
          "type": "uint256"
        }
      ],
      "name": "userCredentials",
      "outputs": [
        {
          "internalType": "string",
          "name": "credentialType",
          "type": "string"
        },
        {
          "internalType": "string",
          "name": "issuer",
          "type": "string"
        },
        {
          "internalType": "string",
          "name": "subject",
          "type": "string"
        },
        {
          "internalType": "uint256",
          "name": "issuanceDate",
          "type": "uint256"
        },
        {
          "internalType": "uint256",
          "name": "expirationDate",
          "type": "uint256"
        },
        {
          "internalType": "bool",
          "name": "isValid",
          "type": "bool"
        },
        {
          "internalType": "bytes32",
          "name": "credentialHash",
          "type": "bytes32"
        },
        {
          "internalType": "string",
          "name": "metadataURI",
          "type": "string"
        }
      ],
      "stateMutability": "view",
      "type": "function"
    },
    {
      "inputs": [
        {
          "internalType": "address",
          "name": "identity",
          "type": "address"
        },
        {
          "internalType": "uint256",
          "name": "sourceChainId",
          "type": "uint256"
        },
        {
          "internalType": "address",
          "name": "sourceContract",
          "type": "address"
        },
        {
          "internalType": "bytes32",
          "name": "verificationHash",
          "type": "bytes32"
        },
        {
          "internalType": "bytes",
          "name": "signature",
          "type": "bytes"
        }
      ],
      "name": "verifyCrossChainIdentity",
      "outputs": [],
      "stateMutability": "nonpayable",
      "type": "function"
    }
  ],
  "bytecode": "0x60a0806040523460295730608052613b0d908161002f823960805181818161275701526127eb0152f35b600080fdfe608080604052600436101561001357600080fd5b60003560e01c9081630cdc091e146134385750806314a6e293146131d45780631ed96e0e14613148578063212162d014611946578063249b92a0146131175780632fea7b8114612ffa5780633f2d967b14612fd1578063401ac1cc14612fa55780634694d4bb14612b3757806347d05bf814612adb5780634e3e6e9c146129b15780634f1ef286146127ae57806352d1902d146127445780636ba1f4a4146126dc5780636dc158eb146126ac5780636f89ce4414611f92578063715018a614611f2857806375a67d5c14611eeb5780637b12e5ae14611bb957806382e1c6ce146119a257806385e6afb61461194657806388ce07ce146118695780638da5cb5b146118335780639364ace91461173f57806399fab8461461170e5780639b1d233a146116605780639e7d11c21461154b578063a1b097c5146114d9578063ad3cb1cc1461148e578063bc0cbf8a14611206578063c4d66de81461108f578063c76d291914610ec3578063ca6eec7814610e63578063d5ce9aad14610cd0578063d5d9f65814610a8a578063e47a46d4146107ba578063e9c2c67d14610683578063ee833ba3146105a5578063ef7af65c1461042d578063f2fde38b14610402578063f5c91a0814610321578063f63ac762146102df5763f653b81e146101f857600080fd5b346102da5760203660031901126102da576001600160a01b0361021961345b565b16600052600360205261029b60406000206102338161360f565b9060018060a01b03600182015416906002810154906102c460ff600383015416936004830154600584015461026a6006860161360f565b91600786015497600887015496600960018060a01b0391015416976040519b8c9b6101408d526101408d01906136d6565b9560208c015260408b0152151560608a0152608089015260a088015286820360c08801526136d6565b9260e08501526101008401526101208301520390f35b600080fd5b346102da5760203660031901126102da576001600160a01b0361030061345b565b166000526003602052602060ff600360406000200154166040519015158152f35b346102da5760403660031901126102da5761033a61345b565b60243590610346613865565b6001600160a01b03908116600081815260036020526040902060010154909291610372911615156137a3565b6103e881116103c557600082815260036020908152604091829020600281018490554260059091015590519182527ffc577563f1b9a0461e24abef1e1fcc0d33d3d881f20b5df6dda59de4aae2c82191a2005b60405162461bcd60e51b8152602060048201526015602482015274053636f7265206d757374206265203c3d203130303605c1b6044820152606490fd5b346102da5760203660031901126102da5761042b61041e61345b565b610426613865565b6137ef565b005b346102da5760203660031901126102da576001600160a01b0361044e61345b565b16600052600b6020526040600020805490610468826134e5565b9161047660405193846134c4565b80835260208301809260005260206000206000915b83831061053d57848660405191829160208301906020845251809152604083019060408160051b85010192916000905b8282106104ca57505050500390f35b919360019193955060208091603f19898203018552875190848060a01b03825116815282820151838201526040820151151560408201526060820151606082015260a080610527608085015160c0608086015260c08501906136d6565b93015191015296019201920185949391926104bb565b60066020600192604051610550816134a9565b848060a01b038654168152848601548382015260ff60028701541615156040820152600386015460608201526105886004870161360f565b6080820152600586015460a082015281520192019201919061048b565b346102da5760203660031901126102da576004356105c1613865565b6006546040516331a9108f60e11b81526004810183905290602090829060249082906001600160a01b03165afa9081156106775760009161062e575b506001600160a01b03167fbeecc4c259314eb1d1c1c0484a244b3462ec6b40de6b47e8805338a719a5749d600080a3005b6020813d60201161066f575b81610647602093836134c4565b8101031261066b5751906001600160a01b03821682036106685750826105fd565b80fd5b5080fd5b3d915061063a565b6040513d6000823e3d90fd5b346102da5760403660031901126102da5761069c61345b565b6024356001600160401b0381116102da576106bb903690600401613574565b906106c4613865565b6001600160a01b039081166000818152600360205260409020600101549092916106f0911615156137a3565b60018060a01b03600654169060206040518093636902622f60e11b8252856004830152604060248301528160008161072b60448201886136d6565b03925af191821561067757600092610785575b506020927fe3bcd6da3cc3c7fa2da06b02281692d33b6cba2bcbffdd237f1e0444a6915c4d61077a8493604051918291888352888301906136d6565b0390a3604051908152f35b91506020823d6020116107b2575b816107a0602093836134c4565b810103126102da57905190602061073e565b3d9150610793565b346102da5760a03660031901126102da576107d361345b565b60243560443590811515918281036102da576064356001600160401b0381116102da57610804903690600401613574565b9361080d613865565b6001600160a01b03908116600081815260036020526040902060010154909591610839911615156137a3565b604051610845816134a9565b8581526020810191848352604082019186835260608101904282526080810192835260a0810193608435855289600052600b60205260406000208054600160401b811015610a5e5761089c91600182018155613717565b969096610a7457915186546001600160a01b039091166001600160a01b0319909116178655905160018601555160028501805460ff191691151560ff1691909117905551600384015551805160048401916001600160401b038211610a5e5761090f8261090985546135d5565b8561375e565b602090601f83116001146109cc579261096c836005947fefca132702ac26182a3fb8e316204e635bed55c2fa963f62b341b331b69d322f9b99979460409b99976000926109c1575b50508160011b916000199060031b1c19161790565b90555b51910155806109b6575b61098b575b82519182526020820152a2005b60008581526003602081905284822001805460ff19166001179055839020426005919091015561097e565b506055811015610979565b015190508d80610957565b90601f1983169184600052816000209260005b818110610a465750937fefca132702ac26182a3fb8e316204e635bed55c2fa963f62b341b331b69d322f9a98969360409a9896936001938360059810610a2d575b505050811b01905561096f565b015160001960f88460031b161c191690558c8080610a20565b929360206001819287860151815501950193016109df565b634e487b7160e01b600052604160045260246000fd5b634e487b7160e01b600052600060045260246000fd5b346102da5760403660031901126102da576004356001600160401b0381116102da57366023820112156102da57806004013590610ac6826134e5565b90610ad460405192836134c4565b82825260208201906024829460051b820101903682116102da57602401915b818310610cb057505050602435336000526003602052610b2460018060a01b036001604060002001541615156137a3565b80825110610c72578015610c2d5733600052600860205260406000208251906001600160401b038211610a5e57600160401b8211610a5e578054828255808310610c0f575b508490600052602060002060005b838110610bf25750505050604051916040830190604084525180915260608301939060005b818110610bd35760208501849052337f5df4fa3f00b5856d2842d22429511ac802af4d6805539de0cc4b7d8040dcf99586880387a2005b82516001600160a01b0316865260209586019590920191600101610b9c565b82516001600160a01b031681830155602090920191600101610b77565b610c2790826000528360206000209182019101613747565b85610b69565b60405162461bcd60e51b815260206004820152601f60248201527f5369676e617475726573207265717569726564206d757374206265203e2030006044820152606490fd5b60405162461bcd60e51b8152602060048201526016602482015275496e73756666696369656e7420677561726469616e7360501b6044820152606490fd5b82356001600160a01b03811681036102da57815260209283019201610af3565b346102da5760203660031901126102da57610ce961345b565b33600090815260036020526040902060010154610d10906001600160a01b031615156137a3565b33600052600860205260406000206040518082602082945493848152019060005260206000209260005b818110610e41575050610d4f925003826134c4565b805115610e075733600090815260076020526040812080546001600160a01b0319166001600160a01b038516178155915160018301556002909101554262093a808101908110610df15733600081815260076020526040812060038101939093556005909201805460ff191690556001600160a01b039290921691907fe7eb1bf44bc7e6084d5d89f19e76a2b46fed60ff3eb9e650f3db79a386391c619080a3005b634e487b7160e01b600052601160045260246000fd5b60405162461bcd60e51b815260206004820152601260248201527104e6f20677561726469616e732073657475760741b6044820152606490fd5b84546001600160a01b0316835260019485019486945060209093019201610d3a565b346102da5760203660031901126102da577f3cc2375f3fc7711ba27361cde93880f578742f9f050acee766bed662d117ba726020600435610ea2613865565b80600052600a82526040600020600160ff19825416179055604051908152a1005b346102da5760203660031901126102da576001600160a01b03610ee461345b565b1660005260096020526040600020805490610efe826134e5565b91610f0c60405193846134c4565b80835260208301809260005260206000206000915b83831061100557848660405191829160208301906020845251809152604083019060408160051b85010192916000905b828210610f6057505050500390f35b91936001919395506020610ff58192603f198a820301865288519060e0610fba610fa8610f98855161010086526101008601906136d6565b87860151858203898701526136d6565b604085015184820360408601526136d6565b92606081015160608401526080810151608084015260a0810151151560a084015260c081015160c084015201519060e08184039101526136d6565b9601920192018594939192610f51565b600860206001926040516110188161348d565b6110218661360f565b815261102e85870161360f565b8382015261103e6002870161360f565b6040820152600386015460608201526004860154608082015260ff600587015416151560a0820152600686015460c082015261107c6007870161360f565b60e0820152815201920192019190610f21565b346102da5760203660031901126102da576110a861345b565b600080516020613ab8833981519152549060ff8260401c1615916001600160401b038116801590816111fe575b60011490816111f4575b1590816111eb575b506111da5767ffffffffffffffff198116600117600080516020613ab883398151915255826111ad575b5061111a61395f565b61112261395f565b61112b336137ef565b61113361395f565b60018060a01b03166001600160601b0360a01b600654161760065561115457005b68ff000000000000000019600080516020613ab88339815191525416600080516020613ab8833981519152557fc7f505b2f371ae2175ee4913f4499e1f2633a7b5936321eed1cdaeb6115181d2602060405160018152a1005b68ffffffffffffffffff19166801000000000000000117600080516020613ab88339815191525582611111565b63f92ee8a960e01b60005260046000fd5b905015846110e7565b303b1591506110df565b8491506110d5565b346102da5760a03660031901126102da5761121f61345b565b604435906024356001600160a01b0383168084036102da57606435926084356001600160401b0381116102da576112fe916112616112f5923690600401613574565b6001600160a01b039182166000818152600360205260409020600101549098919261128e911615156137a3565b60405160208101918783526001600160601b03199060601b166040820152876054820152605481526112c16074826134c4565b5190207f19457468657265756d205369676e6564204d6573736167653a0a333200000000600052601c52603c60002061389b565b909291926138d7565b600080516020613a78833981519152546001600160a01b039081169116036114495760405160a081018181106001600160401b03821117610a5e576040528281526020810191825260408101908482526060810142815260808201906001825287600052600260205260406000208054600160401b811015610a5e57611389916001820181556135b9565b949094610a74576113e49560049451865560018060a01b03905116600186019060018060a01b03166001600160601b0360a01b82541617905551600285015551600384015551151591019060ff801983541691151516179055565b82600052600360205260026040600020019081549260328401809411610df1577fedb9c27b4cf5da6dcddffb9cf9b904270812cdd5b150b6d60a7f84d80191fb7f936040935584600052600360205242600584600020015582519182526020820152a2005b60405162461bcd60e51b815260206004820152601d60248201527f496e76616c69642063726f73732d636861696e207369676e61747572650000006044820152606490fd5b346102da5760003660031901126102da576114d560408051906114b181836134c4565b60058252640352e302e360dc1b6020830152519182916020835260208301906136d6565b0390f35b346102da5760203660031901126102da576001600160a01b036114fa61345b565b16600052600760205260a06040600020600180831b0381541690600181015490600281015460ff60056003840154930154169260405194855260208501526040840152606083015215156080820152f35b346102da5760603660031901126102da576004356001600160401b0381116102da5761157b903690600401613574565b6044356001600160401b0381116102da5761159a903690600401613574565b9060206115b060405192838151938492016136b3565b60049082019081528190036020019020546001600160a01b031690811561162b5760209161160f611618927f19457468657265756d205369676e6564204d6573736167653a0a333200000000600052602435601c52603c60002061389b565b909391936138d7565b6040516001600160a01b03909216148152f35b60405162461bcd60e51b815260206004820152600d60248201526c111251081b9bdd08199bdd5b99609a1b6044820152606490fd5b346102da5760403660031901126102da5761167961345b565b6001600160a01b03166000908152600b602052604090208054602435908110156102da576116a691613717565b5060018060a01b0381541660018201549161170460ff60028301541691600381015460056116d66004840161360f565b920154936040519687968752602087015215156040860152606085015260c0608085015260c08401906136d6565b9060a08301520390f35b346102da5760203660031901126102da576004356000526005602052602060ff604060002054166040519015158152f35b346102da5760403660031901126102da5761175861345b565b6001600160a01b03166000908152600960205260409020805460243591908210156102da576117f39161178a916136fb565b506114d56117978261360f565b916117a46001820161360f565b6117b06002830161360f565b91600381015492600482015461180f60ff600585015416926118016117dc60076006880154970161360f565b966040519b8c9b6101008d526101008d01906136d6565b908b820360208d01526136d6565b9089820360408b01526136d6565b9460608801526080870152151560a086015260c085015283820360e08501526136d6565b346102da5760003660031901126102da57600080516020613a78833981519152546040516001600160a01b039091168152602090f35b346102da5760403660031901126102da5761188261345b565b6001600160a01b039081166000818152600360205260409020600101549091602435916118b1911615156137a3565b80600052600560205260ff60406000205416611909578160005260036020528060076040600020015560005260056020526040600020600160ff19825416179055600052600360205242600560406000200155600080f35b60405162461bcd60e51b81526020600482015260156024820152741692c81c1c9bdbd988185b1c9958591e481d5cd959605a1b6044820152606490fd5b346102da5760403660031901126102da576001600160a01b0361196761345b565b16600052600160205260406000206024356000526020526114d561198e604060002061360f565b6040519182916020835260208301906136d6565b346102da5760603660031901126102da576119bb61345b565b602435906044356001600160401b0381116102da576119de903690600401613574565b6001600160a01b03909116903382148015611b98575b15611b6257600082815260036020526040902060010154611a1f906001600160a01b031615156137a3565b816000526001602052604060002083600052602052604060002081516001600160401b038111610a5e57611a5d81611a5784546135d5565b8461375e565b6020601f8211600114611ad85791611ab2827f181b4896f98c40eec3a43c1852dd215f3b2cde43024cd1e036b1e558f8852bd39593611ac895600091611acd575b508160011b916000199060031b1c19161790565b90556040519182916020835260208301906136d6565b0390a3005b905084015189611a9e565b601f1982169083600052806000209160005b818110611b4a575092611ac89492600192827f181b4896f98c40eec3a43c1852dd215f3b2cde43024cd1e036b1e558f8852bd3989610611b31575b5050811b01905561198e565b85015160001960f88460031b161c191690558880611b25565b9192602060018192868a015181550194019201611aea565b60405162461bcd60e51b815260206004820152600e60248201526d139bdd08185d5d1a1bdc9a5e995960921b6044820152606490fd5b50600080516020613a78833981519152546001600160a01b031633146119f4565b346102da5760203660031901126102da576001600160a01b03611bda61345b565b16806000526007602052604060002060ff600582015416611ea65760038101544211611e6157600481019060018060a01b0333166000528160205260ff60406000205416611e2b578260005260086020526040600020916040518084602082965493848152019060005260206000209260005b818110611e09575050611c62925003846134c4565b60009260005b8151811015611e0057336001600160a01b03611c848385613733565b511614611c9357600101611c68565b505090915060015b15611dca5733600090815260209190915260409020805460ff191660011790556002810180546000198114610df15760010180915560016040519233857fe41a84cc3643fa1551d6f7b5b99ec134140a1ee71371506540f2f98b36092da9600080a301541115611d0757005b816000526007602052604060002090600582019060ff825416611d95575081546000848152600360205260408120600181810180546001600160a01b0319166001600160a01b0395861617905542600590920191909155835460ff191617909255915490911691907f60f9f98be64687700419cfa6fdd7877bc88c6daeb10bc664a2be9fdd6b0c79219080a3005b62461bcd60e51b815260206004820152601060248201526f105b1c9958591e48195e1958dd5d195960821b6044820152606490fd5b60405162461bcd60e51b815260206004820152600e60248201526d2737ba10309033bab0b93234b0b760911b6044820152606490fd5b50509091611c9b565b84546001600160a01b0316835260019485019488945060209093019201611c4d565b60405162461bcd60e51b815260206004820152600e60248201526d105b1c9958591e481cda59db995960921b6044820152606490fd5b60405162461bcd60e51b815260206004820152601860248201527f5265636f7665727920646561646c696e652070617373656400000000000000006044820152606490fd5b60405162461bcd60e51b815260206004820152601960248201527f5265636f7665727920616c7265616479206578656375746564000000000000006044820152606490fd5b346102da5760203660031901126102da576001600160a01b03611f0c61345b565b1660005260036020526020600260406000200154604051908152f35b346102da5760003660031901126102da57611f41613865565b600080516020613a7883398151915280546001600160a01b031981169091556000906001600160a01b03167f8be0079c531659141344cd1fd0a4f28419497f9722a3daafe3b4186f6b6457e08280a3005b346102da5760c03660031901126102da57611fab61345b565b6024356001600160401b0381116102da57611fca903690600401613574565b6044356001600160401b0381116102da57611fe9903690600401613574565b916084359060a4356001600160401b0381116102da5761200d903690600401613574565b90612016613865565b6001600160a01b0390811660008181526003602052604090206001015490949116156126675782600052600a60205260ff604060002054166126225760016fffffffffffffffffffffffffffffffff851160071b6001600160401b0386821c1160061b1763ffffffff86821c1160051b1761ffff86821c1160041b1760ff86821c119060031c170194848660011b9660018060ff1b0381168103610df1576002880191828911610df1576120e26120cc84613559565b936120da60405195866134c4565b808552613559565b6020840190601f190136823783511561260c576030905382516001101561260c5760786021840153600098600181018091116125e4575b6001811161259d57506125865750604051926121348461348d565b83526020830191825260408301908152606083014281526080840190606435825260a08501926001845260c086019488865260e08701978852898b52600960205260408b20805490600160401b8210156124fb5790612198916001820181556136fb565b979097612572575180516001600160401b0381116124fb576121c4816121be8b546135d5565b8b61375e565b60208d601f831160011461250f57906121f1938361248d5750508160011b916000199060031b1c19161790565b87555b60018701905180516001600160401b0381116124fb576122188161090985546135d5565b60208d601f83116001146124985790612245938361248d5750508160011b916000199060031b1c19161790565b90555b51805160028701916001600160401b0382116124795761226c8261090985546135d5565b6020908c601f841160011461240b5792806122cf9795936122a89360079c9b9a9896926124005750508160011b916000199060031b1c19161790565b90555b516003860155516004850155511515600584019060ff801983541691151516179055565b5160068201550190518051906001600160401b0382116123ec576122f78261090985546135d5565b602090601f831160011461236457827fac0767d2c4fca833768eb93ee25874bc4e896c397d95026f242d51d3e14c5a6f95936020959361234c938a926123595750508160011b916000199060031b1c19161790565b90555b604051908152a280f35b015190508980610957565b8387528187209190601f198416885b8181106123d457509260019285927fac0767d2c4fca833768eb93ee25874bc4e896c397d95026f242d51d3e14c5a6f989660209896106123bb575b505050811b01905561234f565b015160001960f88460031b161c191690558880806123ae565b92936020600181928786015181550195019301612373565b634e487b7160e01b86526041600452602486fd5b015190508f80610957565b9190601f198416858452828420935b818110612461575092600192859260079c9b9a98966122cf9a989610612448575b505050811b0190556122ab565b015160001960f88460031b161c191690558e808061243b565b9293602060018192878601518155019501930161241a565b634e487b7160e01b8c52604160045260248cfd5b015190508e80610957565b9192601f198416858452828420935b8181106124e357509084600195949392106124ca575b505050811b019055612248565b015160001960f88460031b161c191690558d80806124bd565b929360206001819287860151815501950193016124a7565b634e487b7160e01b8d52604160045260248dfd5b9192601f1984168b8452828420935b81811061255a5750908460019594939210612541575b505050811b0187556121f4565b015160001960f88460031b161c191690558d8080612534565b9293602060018192878601518155019501930161251e565b634e487b7160e01b8c5260048c905260248cfd5b63e22e27eb60e01b88526004879052602452604487fd5b90600f811660108110156125f85784518310156125f8576f181899199a1a9b1b9c1cb0b131b232b360811b901a8483016020015360041c9080156125e45760001901612119565b634e487b7160e01b8a52601160045260248afd5b634e487b7160e01b8b52603260045260248bfd5b634e487b7160e01b600052603260045260246000fd5b60405162461bcd60e51b815260206004820152601c60248201527f43726564656e7469616c206861736820616c72656164792075736564000000006044820152606490fd5b60405162461bcd60e51b815260206004820152601f60248201527f5375626a656374206964656e7469747920646f6573206e6f74206578697374006044820152606490fd5b346102da5760203660031901126102da57600435600052600a602052602060ff6040600020541615604051908152f35b346102da5760203660031901126102da576004356001600160401b0381116102da5761270e6020913690600401613574565b8161272260405192838151938492016136b3565b600490820190815281900382019020546040516001600160a01b039091168152f35b346102da5760003660031901126102da577f00000000000000000000000000000000000000000000000000000000000000006001600160a01b0316300361279d576020604051600080516020613a988339815191528152f35b63703e46dd60e11b60005260046000fd5b60403660031901126102da576127c261345b565b6024356001600160401b0381116102da576127e1903690600401613574565b6001600160a01b037f00000000000000000000000000000000000000000000000000000000000000001630811490811561298e575b5061279d57612823613865565b6040516352d1902d60e01b81526001600160a01b0383169290602081600481875afa6000918161295a575b506128685783634c9c8ce360e01b60005260045260246000fd5b80600080516020613a988339815191528592036129465750813b1561293257600080516020613a9883398151915280546001600160a01b031916821790557fbc7cd75a20ee27fd9adebab32041f755214dbc6bffa90cc0225b39da2e5c2d3b600080a28151156129185760008083602061042b95519101845af43d15612910573d916128f383613559565b9261290160405194856134c4565b83523d6000602085013e613a16565b606091613a16565b50503461292157005b63b398979f60e01b60005260046000fd5b634c9c8ce360e01b60005260045260246000fd5b632a87526960e21b60005260045260246000fd5b9091506020813d602011612986575b81612976602093836134c4565b810103126102da5751908561284e565b3d9150612969565b600080516020613a98833981519152546001600160a01b03161415905083612816565b346102da5760203660031901126102da576004356001600160401b0381116102da576129e19036906004016134fc565b8051906129ed826134e5565b916129fb60405193846134c4565b808352612a0a601f19916134e5565b0160005b818110612aca57505060005b8151811015612a625780612a3060019284613733565b516000526000602052612a46604060002061360f565b612a508286613733565b52612a5b8185613733565b5001612a1a565b826040518091602082016020835281518091526040830190602060408260051b8601019301916000905b828210612a9b57505050500390f35b91936001919395506020612aba8192603f198a820301865288516136d6565b9601920192018594939192612a8c565b806060602080938701015201612a0e565b346102da5760403660031901126102da57612af461345b565b6001600160a01b031660009081526008602052604090208054602435908110156102da57600091825260209182902001546040516001600160a01b039091168152f35b346102da5760603660031901126102da576004356001600160401b0381116102da57612b67903690600401613574565b6024356001600160a01b038116908190036102da576044356001600160401b0381116102da57612b9b903690600401613574565b91612ba4613865565b6000828152600360205260409020600101546001600160a01b0316612f60576040518151906020830191612bd98183856136b3565b60049082019081528190036020019020546001600160a01b0316612f2257604051612c0381613471565b828152602081019484865260408201906101f482526060830190600082526080840142815260a085019042825260c0860192835260e08601936000855261010087019546875261012088019b60008d528b6000526003602052604060002098518051906001600160401b038211610a5e57612c8882612c828d546135d5565b8d61375e565b602090601f8311600114612eb5579180612cbf92612d0597969594600092612e105750508160011b916000199060031b1c19161790565b8a555b5160018a0180546001600160a01b039092166001600160a01b03199092169190911790555160028901555160038801805460ff191691151560ff16919091179055565b51600486015551600585015551805160068501916001600160401b038211610a5e57612d358261090985546135d5565b602090601f8311600114612e1b5794612e0b989794612ddb9794612d99856009967fc935904fde3b784f003631fba58f14c99e3135ec5e11d22997ff5aca198f94749e9f9660209b600092612e105750508160011b916000199060031b1c19161790565b90555b51600785015551600884015551910180546001600160a01b0319166001600160a01b0392909216919091179055604051845190938492829084906136b3565b81016004815203019020846001600160601b0360a01b8254161790556040519182916020835260208301906136d6565b0390a2005b015190503880610957565b90601f1983169184600052816000209260005b818110612e9d5750946001857fc935904fde3b784f003631fba58f14c99e3135ec5e11d22997ff5aca198f94749d9e9560209a95612e0b9e9d9a95600999612ddb9e9b10612e84575b505050811b019055612d9c565b015160001960f88460031b161c191690558f8080612e77565b92936020600181928786015181550195019301612e2e565b90601f198316918c600052816000209260005b818110612f0a5750916001939185612d05999897969410612ef1575b505050811b018a55612cc2565b015160001960f88460031b161c19169055388080612ee4565b92936020600181928786015181550195019301612ec8565b60405162461bcd60e51b815260206004820152601660248201527511125108185b1c9958591e481c9959da5cdd195c995960521b6044820152606490fd5b60405162461bcd60e51b815260206004820152601760248201527f4964656e7469747920616c7265616479206578697374730000000000000000006044820152606490fd5b346102da5760203660031901126102da5760043560005260006020526114d561198e604060002061360f565b346102da5760003660031901126102da576006546040516001600160a01b039091168152602090f35b346102da5760203660031901126102da576001600160a01b0361301b61345b565b1660005260036020526130f560406000206114d560405161303b81613471565b6130448361360f565b815260018060a01b0360018401541692602082019384526002810154916040810192835260ff6003830154169060608101911515825260048301549060808101918252600584015460a082015261309d6006850161360f565b938460c0830152600781015460e08301526008810154610100830152600960018060a01b0391015416610120820152519560018060a01b0390511693519151151590519160405197889760c0895260c08901906136d6565b94602088015260408701526060860152608085015283820360a08501526136d6565b346102da5760203660031901126102da57600435600052600a602052602060ff604060002054166040519015158152f35b346102da5760403660031901126102da5761316161345b565b6001600160a01b03166000908152600260205260409020805460243591908210156102da5760a091613192916135b9565b50805490600180841b0360018201541690600281015460ff60046003840154930154169260405194855260208501526040840152606083015215156080820152f35b346102da5760403660031901126102da576004356001600160401b0381116102da576132049036906004016134fc565b6024356001600160401b0381116102da57366023820112156102da57806004013561322e816134e5565b9161323c60405193846134c4565b8183526024602084019260051b820101903682116102da5760248101925b82841061340957858581518151036133c4576000905b825182101561042b576132838282613733565b5161328e8385613733565b5160005260006020526040600020908051906001600160401b038211610a5e576132bc8261090985546135d5565b602090601f83116001146133585791806132f29260019697959460009261334d5750508160011b916000199060031b1c19161790565b90555b6132ff8185613733565b517fece574603820d07bc9b91f2a932baadf4628aabcb8afba49776529c14a6104b261334361332e8487613733565b516040519182916020835260208301906136d6565b0390a20190613270565b015190508880610957565b90601f1983169184600052816000209260005b8181106133ac57509160019697959492918388959310613393575b505050811b0190556132f5565b015160001960f88460031b161c19169055878080613386565b9293602060018192878601518155019501930161336b565b60405162461bcd60e51b815260206004820152601f60248201527f4b65797320616e642076616c756573206c656e677468206d69736d61746368006044820152606490fd5b83356001600160401b0381116102da5760209161342d839260243691870101613574565b81520193019261325a565b346102da5760203660031901126102da5760209061345461345b565b5060008152f35b600435906001600160a01b03821682036102da57565b61014081019081106001600160401b03821117610a5e57604052565b61010081019081106001600160401b03821117610a5e57604052565b60c081019081106001600160401b03821117610a5e57604052565b90601f801991011681019081106001600160401b03821117610a5e57604052565b6001600160401b038111610a5e5760051b60200190565b9080601f830112156102da578135613513816134e5565b9261352160405194856134c4565b81845260208085019260051b8201019283116102da57602001905b8282106135495750505090565b813581526020918201910161353c565b6001600160401b038111610a5e57601f01601f191660200190565b81601f820112156102da5760208135910161358e82613559565b9261359c60405194856134c4565b828452828201116102da5781600092602092838601378301015290565b805482101561260c576000526005602060002091020190600090565b90600182811c92168015613605575b60208310146135ef57565b634e487b7160e01b600052602260045260246000fd5b91607f16916135e4565b9060405191826000825492613623846135d5565b8084529360018116908115613691575060011461364a575b50613648925003836134c4565b565b90506000929192526020600020906000915b818310613675575050906020613648928201013861363b565b602091935080600191548385890101520191019091849261365c565b90506020925061364894915060ff191682840152151560051b8201013861363b565b60005b8381106136c65750506000910152565b81810151838201526020016136b6565b906020916136ef815180928185528580860191016136b3565b601f01601f1916010190565b805482101561260c5760005260206000209060031b0190600090565b805482101561260c576000526006602060002091020190600090565b805182101561260c5760209160051b010190565b818110613752575050565b60008155600101613747565b9190601f811161376d57505050565b613648926000526020600020906020601f840160051c83019310613799575b601f0160051c0190613747565b909150819061378c565b156137aa57565b60405162461bcd60e51b815260206004820152601760248201527f4964656e7469747920646f6573206e6f742065786973740000000000000000006044820152606490fd5b6001600160a01b0316801561384f57600080516020613a7883398151915280546001600160a01b0319811683179091556001600160a01b03167f8be0079c531659141344cd1fd0a4f28419497f9722a3daafe3b4186f6b6457e0600080a3565b631e4fbdf760e01b600052600060045260246000fd5b600080516020613a78833981519152546001600160a01b0316330361388657565b63118cdaa760e01b6000523360045260246000fd5b81519190604183036138cc576138c592506020820151906060604084015193015160001a9061398d565b9192909190565b505060009160029190565b919091600481101561394957806138ed57509050565b6000600182036139085763f645eedf60e01b60005260046000fd5b5060028103613926578263fce698f760e01b60005260045260246000fd5b9091600360009214613936575050565b6335e2f38360e21b825260045260249150fd5b634e487b7160e01b600052602160045260246000fd5b60ff600080516020613ab88339815191525460401c161561397c57565b631afcd79f60e31b60005260046000fd5b91907f7fffffffffffffffffffffffffffffff5d576e7357a4501ddfe92f46681b20a08411613a0a579160209360809260ff60009560405194855216868401526040830152606082015282805260015afa15610677576000516001600160a01b038116156139fe5790600090600090565b50600090600190600090565b50505060009160039190565b90613a3c5750805115613a2b57602081519101fd5b63d6bda27560e01b60005260046000fd5b81511580613a6e575b613a4d575090565b639996b31560e01b60009081526001600160a01b0391909116600452602490fd5b50803b15613a4556fe9016d09d72d40fdae2fd8ceac6b6234c7706214fd39c1cd1e609a0528c199300360894a13ba1a3210667c828492db98dca3e2076cc3735a920a3ca505d382bbcf0c57e16840df040f15088dc2f81fe391c3923bec73e23a9662efc9c229c6a00a2646970667358221220a2ba8feb70d42afed77492cc71c37199187cde8d1989d192f5451c153e25c39b64736f6c634300081c0033",
  "linkReferences": {},
  "deployedLinkReferences": {}
}