{
  "_format": "hh-sol-artifact-1",
  "contractName": "SoulboundCredential",
  "sourceName": "contracts/IdentityRegistry.sol",
  "abi": [
    {
      "inputs": [
        {
          "internalType": "address",
          "name": "target",
          "type": "address"
        }
      ],
      "name": "AddressEmptyCode",
      "type": "error"
    },
    {
      "inputs": [
        {
          "internalType": "address",
          "name": "implementation",
          "type": "address"
        }
      ],
      "name": "ERC1967InvalidImplementation",
      "type": "error"
    },
    {
      "inputs": [],
      "name": "ERC1967NonPayable",
      "type": "error"
    },
    {
      "inputs": [
        {
          "internalType": "address",
          "name": "sender",
          "type": "address"
        },
        {
          "internalType": "uint256",
          "name": "tokenId",
          "type": "uint256"
        },
        {
          "internalType": "address",
          "name": "owner",
          "type": "address"
        }
      ],
      "name": "ERC721IncorrectOwner",
      "type": "error"
    },
    {
      "inputs": [
        {
          "internalType": "address",
          "name": "operator",
          "type": "address"
        },
        {
          "internalType": "uint256",
          "name": "tokenId",
          "type": "uint256"
        }
      ],
      "name": "ERC721InsufficientApproval",
      "type": "error"
    },
    {
      "inputs": [
        {
          "internalType": "address",
          "name": "approver",
          "type": "address"
        }
      ],
      "name": "ERC721InvalidApprover",
      "type": "error"
    },
    {
      "inputs": [
        {
          "internalType": "address",
          "name": "operator",
          "type": "address"
        }
      ],
      "name": "ERC721InvalidOperator",
      "type": "error"
    },
    {
      "inputs": [
        {
          "internalType": "address",
          "name": "owner",
          "type": "address"
        }
      ],
      "name": "ERC721InvalidOwner",
      "type": "error"
    },
    {
      "inputs": [
        {
          "internalType": "address",
          "name": "receiver",
          "type": "address"
        }
      ],
      "name": "ERC721InvalidReceiver",
      "type": "error"
    },
    {
      "inputs": [
        {
          "internalType": "address",
          "name": "sender",
          "type": "address"
        }
      ],
      "name": "ERC721InvalidSender",
      "type": "error"
    },
    {
      "inputs": [
        {
          "internalType": "uint256",
          "name": "tokenId",
          "type": "uint256"
        }
      ],
      "name": "ERC721NonexistentToken",
      "type": "error"
    },
    {
      "inputs": [],
      "name": "FailedCall",
      "type": "error"
    },
    {
      "inputs": [],
      "name": "InvalidInitialization",
      "type": "error"
    },
    {
      "inputs": [],
      "name": "NotInitializing",
      "type": "error"
    },
    {
      "inputs": [
        {
          "internalType": "address",
          "name": "owner",
          "type": "address"
        }
      ],
      "name": "OwnableInvalidOwner",
      "type": "error"
    },
    {
      "inputs": [
        {
          "internalType": "address",
          "name": "account",
          "type": "address"
        }
      ],
      "name": "OwnableUnauthorizedAccount",
      "type": "error"
    },
    {
      "inputs": [],
      "name": "UUPSUnauthorizedCallContext",
      "type": "error"
    },
    {
      "inputs": [
        {
          "internalType": "bytes32",
          "name": "slot",
          "type": "bytes32"
        }
      ],
      "name": "UUPSUnsupportedProxiableUUID",
      "type": "error"
    },
    {
      "anonymous": false,
      "inputs": [
        {
          "indexed": true,
          "internalType": "address",
          "name": "owner",
          "type": "address"
        },
        {
          "indexed": true,
          "internalType": "address",
          "name": "approved",
          "type": "address"
        },
        {
          "indexed": true,
          "internalType": "uint256",
          "name": "tokenId",
          "type": "uint256"
        }
      ],
      "name": "Approval",
      "type": "event"
    },
    {
      "anonymous": false,
      "inputs": [
        {
          "indexed": true,
          "internalType": "address",
          "name": "owner",
          "type": "address"
        },
        {
          "indexed": true,
          "internalType": "address",
          "name": "operator",
          "type": "address"
        },
        {
          "indexed": false,
          "internalType": "bool",
          "name": "approved",
          "type": "bool"
        }
      ],
      "name": "ApprovalForAll",
      "type": "event"
    },
    {
      "anonymous": false,
      "inputs": [
        {
          "indexed": false,
          "internalType": "uint256",
          "name": "_fromTokenId",
          "type": "uint256"
        },
        {
          "indexed": false,
          "internalType": "uint256",
          "name": "_toTokenId",
          "type": "uint256"
        }
      ],
      "name": "BatchMetadataUpdate",
      "type": "event"
    },
    {
      "anonymous": false,
      "inputs": [
        {
          "indexed": false,
          "internalType": "uint64",
          "name": "version",
          "type": "uint64"
        }
      ],
      "name": "Initialized",
      "type": "event"
    },
    {
      "anonymous": false,
      "inputs": [
        {
          "indexed": false,
          "internalType": "uint256",
          "name": "_tokenId",
          "type": "uint256"
        }
      ],
      "name": "MetadataUpdate",
      "type": "event"
    },
    {
      "anonymous": false,
      "inputs": [
        {
          "indexed": true,
          "internalType": "address",
          "name": "previousOwner",
          "type": "address"
        },
        {
          "indexed": true,
          "internalType": "address",
          "name": "newOwner",
          "type": "address"
        }
      ],
      "name": "OwnershipTransferred",
      "type": "event"
    },
    {
      "anonymous": false,
      "inputs": [
        {
          "indexed": true,
          "internalType": "address",
          "name": "from",
          "type": "address"
        },
        {
          "indexed": true,
          "internalType": "address",
          "name": "to",
          "type": "address"
        },
        {
          "indexed": true,
          "internalType": "uint256",
          "name": "tokenId",
          "type": "uint256"
        }
      ],
      "name": "Transfer",
      "type": "event"
    },
    {
      "anonymous": false,
      "inputs": [
        {
          "indexed": true,
          "internalType": "address",
          "name": "implementation",
          "type": "address"
        }
      ],
      "name": "Upgraded",
      "type": "event"
    },
    {
      "inputs": [],
      "name": "UPGRADE_INTERFACE_VERSION",
      "outputs": [
        {
          "internalType": "string",
          "name": "",
          "type": "string"
        }
      ],
      "stateMutability": "view",
      "type": "function"
    },
    {
      "inputs": [
        {
          "internalType": "address",
          "name": "to",
          "type": "address"
        },
        {
          "internalType": "uint256",
          "name": "tokenId",
          "type": "uint256"
        }
      ],
      "name": "approve",
      "outputs": [],
      "stateMutability": "nonpayable",
      "type": "function"
    },
    {
      "inputs": [
        {
          "internalType": "address",
          "name": "owner",
          "type": "address"
        }
      ],
      "name": "balanceOf",
      "outputs": [
        {
          "internalType": "uint256",
          "name": "",
          "type": "uint256"
        }
      ],
      "stateMutability": "view",
      "type": "function"
    },
    {
      "inputs": [
        {
          "internalType": "uint256",
          "name": "tokenId",
          "type": "uint256"
        }
      ],
      "name": "getApproved",
      "outputs": [
        {
          "internalType": "address",
          "name": "",
          "type": "address"
        }
      ],
      "stateMutability": "view",
      "type": "function"
    },
    {
      "inputs": [],
      "name": "initialize",
      "outputs": [],
      "stateMutability": "nonpayable",
      "type": "function"
    },
    {
      "inputs": [
        {
          "internalType": "address",
          "name": "owner",
          "type": "address"
        },
        {
          "internalType": "address",
          "name": "operator",
          "type": "address"
        }
      ],
      "name": "isApprovedForAll",
      "outputs": [
        {
          "internalType": "bool",
          "name": "",
          "type": "bool"
        }
      ],
      "stateMutability": "view",
      "type": "function"
    },
    {
      "inputs": [],
      "name": "name",
      "outputs": [
        {
          "internalType": "string",
          "name": "",
          "type": "string"
        }
      ],
      "stateMutability": "view",
      "type": "function"
    },
    {
      "inputs": [],
      "name": "owner",
      "outputs": [
        {
          "internalType": "address",
          "name": "",
          "type": "address"
        }
      ],
      "stateMutability": "view",
      "type": "function"
    },
    {
      "inputs": [
        {
          "internalType": "uint256",
          "name": "tokenId",
          "type": "uint256"
        }
      ],
      "name": "ownerOf",
      "outputs": [
        {
          "internalType": "address",
          "name": "",
          "type": "address"
        }
      ],
      "stateMutability": "view",
      "type": "function"
    },
    {
      "inputs": [],
      "name": "proxiableUUID",
      "outputs": [
        {
          "internalType": "bytes32",
          "name": "",
          "type": "bytes32"
        }
      ],
      "stateMutability": "view",
      "type": "function"
    },
    {
      "inputs": [],
      "name": "renounceOwnership",
      "outputs": [],
      "stateMutability": "nonpayable",
      "type": "function"
    },
    {
      "inputs": [
        {
          "internalType": "address",
          "name": "to",
          "type": "address"
        },
        {
          "internalType": "string",
          "name": "uri",
          "type": "string"
        }
      ],
      "name": "safeMint",
      "outputs": [
        {
          "internalType": "uint256",
          "name": "",
          "type": "uint256"
        }
      ],
      "stateMutability": "nonpayable",
      "type": "function"
    },
    {
      "inputs": [
        {
          "internalType": "address",
          "name": "from",
          "type": "address"
        },
        {
          "internalType": "address",
          "name": "to",
          "type": "address"
        },
        {
          "internalType": "uint256",
          "name": "tokenId",
          "type": "uint256"
        }
      ],
      "name": "safeTransferFrom",
      "outputs": [],
      "stateMutability": "nonpayable",
      "type": "function"
    },
    {
      "inputs": [
        {
          "internalType": "address",
          "name": "from",
          "type": "address"
        },
        {
          "internalType": "address",
          "name": "to",
          "type": "address"
        },
        {
          "internalType": "uint256",
          "name": "tokenId",
          "type": "uint256"
        },
        {
          "internalType": "bytes",
          "name": "data",
          "type": "bytes"
        }
      ],
      "name": "safeTransferFrom",
      "outputs": [],
      "stateMutability": "nonpayable",
      "type": "function"
    },
    {
      "inputs": [
        {
          "internalType": "address",
          "name": "operator",
          "type": "address"
        },
        {
          "internalType": "bool",
          "name": "approved",
          "type": "bool"
        }
      ],
      "name": "setApprovalForAll",
      "outputs": [],
      "stateMutability": "nonpayable",
      "type": "function"
    },
    {
      "inputs": [
        {
          "internalType": "uint256",
          "name": "",
          "type": "uint256"
        }
      ],
      "name": "soulbound",
      "outputs": [
        {
          "internalType": "bool",
          "name": "",
          "type": "bool"
        }
      ],
      "stateMutability": "view",
      "type": "function"
    },
    {
      "inputs": [
        {
          "internalType": "bytes4",
          "name": "interfaceId",
          "type": "bytes4"
        }
      ],
      "name": "supportsInterface",
      "outputs": [
        {
          "internalType": "bool",
          "name": "",
          "type": "bool"
        }
      ],
      "stateMutability": "view",
      "type": "function"
    },
    {
      "inputs": [],
      "name": "symbol",
      "outputs": [
        {
          "internalType": "string",
          "name": "",
          "type": "string"
        }
      ],
      "stateMutability": "view",
      "type": "function"
    },
    {
      "inputs": [
        {
          "internalType": "uint256",
          "name": "tokenId",
          "type": "uint256"
        }
      ],
      "name": "tokenURI",
      "outputs": [
        {
          "internalType": "string",
          "name": "",
          "type": "string"
        }
      ],
      "stateMutability": "view",
      "type": "function"
    },
    {
      "inputs": [
        {
          "internalType": "address",
          "name": "from",
          "type": "address"
        },
        {
          "internalType": "address",
          "name": "to",
          "type": "address"
        },
        {
          "internalType": "uint256",
          "name": "tokenId",
          "type": "uint256"
        }
      ],
      "name": "transferFrom",
      "outputs": [],
      "stateMutability": "nonpayable",
      "type": "function"
    },
    {
      "inputs": [
        {
          "internalType": "address",
          "name": "newOwner",
          "type": "address"
        }
      ],
      "name": "transferOwnership",
      "outputs": [],
      "stateMutability": "nonpayable",
      "type": "function"
    },
    {
      "inputs": [
        {
          "internalType": "address",
          "name": "newImplementation",
          "type": "address"
        },
        {
          "internalType": "bytes",
          "name": "data",
          "type": "bytes"
        }
      ],
      "name": "upgradeToAndCall",
      "outputs": [],
      "stateMutability": "payable",
      "type": "function"
    }
  ],
  "bytecode": "0x60a08060405234602957306080526121ed908161002f82396080518181816111d4015261128c0152f35b600080fdfe608080604052600436101561001357600080fd5b60003560e01c90816301ffc9a7146117a55750806306fdde03146116bf578063081812fc14611663578063095ea7b31461151057806323b872dd146114f957806342842e0e146114c95780634f1ef2861461124e57806352d1902d146111b95780636352211e1461118a57806370a08231146110ec578063715018a6146110535780637a181597146110225780638129fc1c146109e75780638da5cb5b146109a157806395d89b4114610896578063a22cb465146107bc578063ad3cb1cc1461075d578063b88d4fde14610702578063c87b56dd146106cb578063d204c45e146101c3578063e985e9c5146101415763f2fde38b1461011157600080fd5b3461013c57602036600319011261013c5761013a61012d6118ce565b610135611e51565b611d2d565b005b600080fd5b3461013c57604036600319011261013c5761015a6118ce565b6001600160a01b036101a661016d6118e4565b926001600160a01b03166000527f80bb2b638cc20bc4d0a60d66940f3ab4a00c1d7b313497ca82fb0b4ab0079305602052604060002090565b9116600052602052602060ff604060002054166040519015158152f35b3461013c57604036600319011261013c576101dc6118ce565b60243567ffffffffffffffff811161013c573660238201121561013c5761020d903690602481600401359101611972565b610215611e51565b60005460001981146106b55760010190816000556020916040516102398482611934565b600081526001600160a01b03851694851561069f5761028b836000527f80bb2b638cc20bc4d0a60d66940f3ab4a00c1d7b313497ca82fb0b4ab00793026020526001600160a01b036040600020541690565b6001600160a01b0381169084888315159384610616575b6102de866001600160a01b03166000527f80bb2b638cc20bc4d0a60d66940f3ab4a00c1d7b313497ca82fb0b4ab0079303602052604060002090565b60018154019055826000527f80bb2b638cc20bc4d0a60d66940f3ab4a00c1d7b313497ca82fb0b4ab00793028a526040600020826001600160a01b03198254161790557fddf252ad1be2c89b69c2b068fc378daa952ba7f163c4a11628f55a4df523b3ef600080a4506105e7573b6104ea575b5080919293506000527f0542a41881ee128a365a727b282c86fa859579490b9bb45aab8503648c8e790083526040600020825167ffffffffffffffff81116104d45761039d82546119c7565b601f811161048e575b508493601f821160011461042a57938192939460009261041f575b50508160011b916000199060031b1c19161790555b7ff8e1a15aba9398e019f0b49df1a4fde98ee17ae345cb5f6b5e2c27f5033e8ce782604051838152a180600052600182526040600020600160ff19825416179055604051908152f35b0151905085806103c1565b601f1982169483600052866000209160005b888882106104785750508360019596971061045f575b505050811b0190556103d6565b015160001960f88460031b161c19169055858080610452565b600184958293958501518155019401920161043c565b8260005285600020601f830160051c8101918784106104ca575b601f0160051c01905b8181106104be57506103a6565b600081556001016104b1565b90915081906104a8565b634e487b7160e01b600052604160045260246000fd5b836105249160405180938192630a85bd0160e11b83523360048401526000602484015286604484015260806064840152608483019061188f565b03816000895af180916000916105a2575b509061056757505050610546611eb2565b80519190826105645783633250574960e11b60005260045260246000fd5b01fd5b6001600160e01b0319630a85bd0160e11b919592939495160361058e575090829184610351565b633250574960e11b60005260045260246000fd5b8581813d83116105e0575b6105b78183611934565b810103126105dc5751906001600160e01b0319821682036105d9575086610535565b80fd5b5080fd5b503d6105ad565b7f73c6ac6e00000000000000000000000000000000000000000000000000000000600052600060045260246000fd5b610656836000527f80bb2b638cc20bc4d0a60d66940f3ab4a00c1d7b313497ca82fb0b4ab007930460205260406000206001600160a01b03198154169055565b610692846001600160a01b03166000527f80bb2b638cc20bc4d0a60d66940f3ab4a00c1d7b313497ca82fb0b4ab0079303602052604060002090565b80546000190190556102a2565b633250574960e11b600052600060045260246000fd5b634e487b7160e01b600052601160045260246000fd5b3461013c57602036600319011261013c576106fe6106ea600435611fe3565b60405191829160208352602083019061188f565b0390f35b3461013c57608036600319011261013c5761071b6118ce565b6107236118e4565b906044356064359267ffffffffffffffff841161013c5761074b61013a9436906004016119a9565b92610757838383611a01565b33611ee2565b3461013c57600036600319011261013c576106fe60408051906107808183611934565b600582527f352e302e3000000000000000000000000000000000000000000000000000000060208301525191829160208352602083019061188f565b3461013c57604036600319011261013c576107d56118ce565b6024359081151580920361013c576001600160a01b0316908115610868573360009081527f80bb2b638cc20bc4d0a60d66940f3ab4a00c1d7b313497ca82fb0b4ab00793056020526040902082600052602052604060002060ff1981541660ff83161790556040519081527f17307eab39ab6107e8899845ad3d59bd9653f200f220920489ca2b5937696c3160203392a3005b507f5b08ba180000000000000000000000000000000000000000000000000000000060005260045260246000fd5b3461013c57600036600319011261013c5760405160007f80bb2b638cc20bc4d0a60d66940f3ab4a00c1d7b313497ca82fb0b4ab0079301546108d7816119c7565b808452906001811690811561097d57506001146108ff575b6106fe836106ea81850382611934565b7f80bb2b638cc20bc4d0a60d66940f3ab4a00c1d7b313497ca82fb0b4ab007930160009081527ff4bad0a69248f59680a4f2b3000328cec71a413447c96781cfe5996daa8c456e939250905b808210610963575090915081016020016106ea6108ef565b91926001816020925483858801015201910190929161094b565b60ff191660208086019190915291151560051b840190910191506106ea90506108ef565b3461013c57600036600319011261013c5760206001600160a01b037f9016d09d72d40fdae2fd8ceac6b6234c7706214fd39c1cd1e609a0528c1993005416604051908152f35b3461013c57600036600319011261013c577ff0c57e16840df040f15088dc2f81fe391c3923bec73e23a9662efc9c229c6a005460ff8160401c16159067ffffffffffffffff81168015908161101a575b6001149081611010575b159081611007575b50610fdd5767ffffffffffffffff1981166001177ff0c57e16840df040f15088dc2f81fe391c3923bec73e23a9662efc9c229c6a005581610f9e575b50604090815191610a968184611934565b601f83527f4167726943726564697420536f756c626f756e642043726564656e7469616c006020840152805191610acd8284611934565b600383527f41534300000000000000000000000000000000000000000000000000000000006020840152610aff6120ce565b610b076120ce565b835167ffffffffffffffff81116104d457610b427f80bb2b638cc20bc4d0a60d66940f3ab4a00c1d7b313497ca82fb0b4ab0079300546119c7565b601f8111610edc575b50602094601f8211600114610e1a57948192939495600092610e0f575b50508160011b916000199060031b1c1916177f80bb2b638cc20bc4d0a60d66940f3ab4a00c1d7b313497ca82fb0b4ab0079300555b825167ffffffffffffffff81116104d457610bd87f80bb2b638cc20bc4d0a60d66940f3ab4a00c1d7b313497ca82fb0b4ab0079301546119c7565b601f8111610d8b575b506020601f8211600114610ce65781929394600092610cdb575b50508160011b916000199060031b1c1916177f80bb2b638cc20bc4d0a60d66940f3ab4a00c1d7b313497ca82fb0b4ab0079301555b610c386120ce565b610c406120ce565b610c486120ce565b610c5133611d2d565b610c596120ce565b610c5f57005b60207fc7f505b2f371ae2175ee4913f4499e1f2633a7b5936321eed1cdaeb6115181d29168ff0000000000000000197ff0c57e16840df040f15088dc2f81fe391c3923bec73e23a9662efc9c229c6a0054167ff0c57e16840df040f15088dc2f81fe391c3923bec73e23a9662efc9c229c6a00555160018152a1005b015190508480610bfb565b601f198216907f80bb2b638cc20bc4d0a60d66940f3ab4a00c1d7b313497ca82fb0b4ab0079301600052806000209160005b818110610d7357509583600195969710610d5a575b505050811b017f80bb2b638cc20bc4d0a60d66940f3ab4a00c1d7b313497ca82fb0b4ab007930155610c30565b015160001960f88460031b161c19169055848080610d2d565b9192602060018192868b015181550194019201610d18565b7f80bb2b638cc20bc4d0a60d66940f3ab4a00c1d7b313497ca82fb0b4ab00793016000527ff4bad0a69248f59680a4f2b3000328cec71a413447c96781cfe5996daa8c456e601f830160051c81019160208410610e05575b601f0160051c01905b818110610df95750610be1565b60008155600101610dec565b9091508190610de3565b015190508580610b68565b601f198216957f80bb2b638cc20bc4d0a60d66940f3ab4a00c1d7b313497ca82fb0b4ab00793006000527f37c58c799b6609234b945e882912ee9ad34948a1dfaa20a97485e1a7752bbf819160005b888110610ec457508360019596979810610eab575b505050811b017f80bb2b638cc20bc4d0a60d66940f3ab4a00c1d7b313497ca82fb0b4ab007930055610b9d565b015160001960f88460031b161c19169055858080610e7e565b91926020600181928685015181550194019201610e69565b7f80bb2b638cc20bc4d0a60d66940f3ab4a00c1d7b313497ca82fb0b4ab0079300600052601f820160051c7f37c58c799b6609234b945e882912ee9ad34948a1dfaa20a97485e1a7752bbf81019060208310610f76575b601f0160051c7f37c58c799b6609234b945e882912ee9ad34948a1dfaa20a97485e1a7752bbf8101905b818110610f6a5750610b4b565b60008155600101610f5d565b7f37c58c799b6609234b945e882912ee9ad34948a1dfaa20a97485e1a7752bbf819150610f33565b68ffffffffffffffffff191668010000000000000001177ff0c57e16840df040f15088dc2f81fe391c3923bec73e23a9662efc9c229c6a005581610a85565b7ff92ee8a90000000000000000000000000000000000000000000000000000000060005260046000fd5b90501583610a49565b303b159150610a41565b839150610a37565b3461013c57602036600319011261013c576004356000526001602052602060ff604060002054166040519015158152f35b3461013c57600036600319011261013c5761106c611e51565b60006001600160a01b037f9016d09d72d40fdae2fd8ceac6b6234c7706214fd39c1cd1e609a0528c199300546001600160a01b031981167f9016d09d72d40fdae2fd8ceac6b6234c7706214fd39c1cd1e609a0528c19930055167f8be0079c531659141344cd1fd0a4f28419497f9722a3daafe3b4186f6b6457e08280a3005b3461013c57602036600319011261013c576111056118ce565b6001600160a01b0381161561115b576111526020916001600160a01b03166000527f80bb2b638cc20bc4d0a60d66940f3ab4a00c1d7b313497ca82fb0b4ab0079303602052604060002090565b54604051908152f35b7f89c62b6400000000000000000000000000000000000000000000000000000000600052600060045260246000fd5b3461013c57602036600319011261013c5760206111a8600435611dec565b6001600160a01b0360405191168152f35b3461013c57600036600319011261013c576001600160a01b037f00000000000000000000000000000000000000000000000000000000000000001630036112245760206040517f360894a13ba1a3210667c828492db98dca3e2076cc3735a920a3ca505d382bbc8152f35b7fe07c8dba0000000000000000000000000000000000000000000000000000000060005260046000fd5b604036600319011261013c576112626118ce565b60243567ffffffffffffffff811161013c576112829036906004016119a9565b6001600160a01b037f000000000000000000000000000000000000000000000000000000000000000016803014908115611494575b50611224576112c4611e51565b6001600160a01b038216916040517f52d1902d000000000000000000000000000000000000000000000000000000008152602081600481875afa60009181611460575b506113215783634c9c8ce360e01b60005260045260246000fd5b807f360894a13ba1a3210667c828492db98dca3e2076cc3735a920a3ca505d382bbc8592036114335750813b1561141f57806001600160a01b03197f360894a13ba1a3210667c828492db98dca3e2076cc3735a920a3ca505d382bbc5416177f360894a13ba1a3210667c828492db98dca3e2076cc3735a920a3ca505d382bbc557fbc7cd75a20ee27fd9adebab32041f755214dbc6bffa90cc0225b39da2e5c2d3b600080a28151156113ec5760008083602061013a95519101845af46113e6611eb2565b91612127565b5050346113f557005b7fb398979f0000000000000000000000000000000000000000000000000000000060005260046000fd5b634c9c8ce360e01b60005260045260246000fd5b7faa1d49a40000000000000000000000000000000000000000000000000000000060005260045260246000fd5b9091506020813d60201161148c575b8161147c60209383611934565b8101031261013c57519085611307565b3d915061146f565b90506001600160a01b037f360894a13ba1a3210667c828492db98dca3e2076cc3735a920a3ca505d382bbc54161415836112b7565b3461013c5761013a6114da366118fa565b90604051926114ea602085611934565b60008452610757838383611a01565b3461013c5761013a61150a366118fa565b91611a01565b3461013c57604036600319011261013c576115296118ce565b60243561153581611dec565b33151580611650575b806115f4575b6115c65781906001600160a01b0380851691167f8c5be1e5ebec7d5bd14f71427d1e84f3dd0314c0f7b2291e5b200ac8c7c3b925600080a46000527f80bb2b638cc20bc4d0a60d66940f3ab4a00c1d7b313497ca82fb0b4ab00793046020526001600160a01b03604060002091166001600160a01b0319825416179055600080f35b7fa9fbf51f000000000000000000000000000000000000000000000000000000006000523360045260246000fd5b50611631816001600160a01b03166000527f80bb2b638cc20bc4d0a60d66940f3ab4a00c1d7b313497ca82fb0b4ab0079305602052604060002090565b6001600160a01b03331660005260205260ff6040600020541615611544565b50336001600160a01b038216141561153e565b3461013c57602036600319011261013c5760206111a860043561168581611dec565b506000527f80bb2b638cc20bc4d0a60d66940f3ab4a00c1d7b313497ca82fb0b4ab00793046020526001600160a01b036040600020541690565b3461013c57600036600319011261013c5760405160007f80bb2b638cc20bc4d0a60d66940f3ab4a00c1d7b313497ca82fb0b4ab007930054611700816119c7565b808452906001811690811561097d5750600114611727576106fe836106ea81850382611934565b7f80bb2b638cc20bc4d0a60d66940f3ab4a00c1d7b313497ca82fb0b4ab007930060009081527f37c58c799b6609234b945e882912ee9ad34948a1dfaa20a97485e1a7752bbf81939250905b80821061178b575090915081016020016106ea6108ef565b919260018160209254838588010152019101909291611773565b3461013c57602036600319011261013c57600435906001600160e01b0319821680920361013c57817f490649060000000000000000000000000000000000000000000000000000000060209314908115611801575b5015158152f35b7f80ac58cd00000000000000000000000000000000000000000000000000000000811491508115611865575b811561183b575b50836117fa565b7f01ffc9a70000000000000000000000000000000000000000000000000000000091501483611834565b7f5b5e139f000000000000000000000000000000000000000000000000000000008114915061182d565b919082518082526020808301940160005b8281106118be575050600081602094950152601f8019910116010190565b81810151868201526020016118a0565b600435906001600160a01b038216820361013c57565b602435906001600160a01b038216820361013c57565b606090600319011261013c576004356001600160a01b038116810361013c57906024356001600160a01b038116810361013c579060443590565b90601f8019910116810190811067ffffffffffffffff8211176104d457604052565b67ffffffffffffffff81116104d457601f01601f191660200190565b92919261197e82611956565b9161198c6040519384611934565b82948184528183011161013c578281602093846000960137010152565b9080601f8301121561013c578160206119c493359101611972565b90565b90600182811c921680156119f7575b60208310146119e157565b634e487b7160e01b600052602260045260246000fd5b91607f16916119d6565b906001600160a01b038116801561069f57600091611a52856000527f80bb2b638cc20bc4d0a60d66940f3ab4a00c1d7b313497ca82fb0b4ab00793026020526001600160a01b036040600020541690565b9233151580611c14575b509480949284927fddf252ad1be2c89b69c2b068fc378daa952ba7f163c4a11628f55a4df523b3ef611ad3986001600160a01b03809816998a9384611b58576001600160a01b03166000527f80bb2b638cc20bc4d0a60d66940f3ab4a00c1d7b313497ca82fb0b4ab0079303602052604060002090565b600181540190558481527f80bb2b638cc20bc4d0a60d66940f3ab4a00c1d7b313497ca82fb0b4ab007930260205260408120846001600160a01b031982541617905580a45016808303611b2557505050565b7f64283d7b0000000000000000000000000000000000000000000000000000000060005260045260245260445260646000fd5b611b98876000527f80bb2b638cc20bc4d0a60d66940f3ab4a00c1d7b313497ca82fb0b4ab007930460205260406000206001600160a01b03198154169055565b611bd4886001600160a01b03166000527f80bb2b638cc20bc4d0a60d66940f3ab4a00c1d7b313497ca82fb0b4ab0079303602052604060002090565b80546000190190556001600160a01b03166000527f80bb2b638cc20bc4d0a60d66940f3ab4a00c1d7b313497ca82fb0b4ab0079303602052604060002090565b80611c76575b15611c255738611a5c565b85906001600160a01b038516611c4757602491637e27328960e01b8252600452fd5b6044917f177e802f00000000000000000000000000000000000000000000000000000000825233600452602452fd5b50336001600160a01b038516148015611cdd575b80611c1a5750336001600160a01b03611cd6886000527f80bb2b638cc20bc4d0a60d66940f3ab4a00c1d7b313497ca82fb0b4ab00793046020526001600160a01b036040600020541690565b1614611c1a565b50611d1a846001600160a01b03166000527f80bb2b638cc20bc4d0a60d66940f3ab4a00c1d7b313497ca82fb0b4ab0079305602052604060002090565b338252602052604081205460ff16611c8a565b6001600160a01b03168015611dbd576001600160a01b037f9016d09d72d40fdae2fd8ceac6b6234c7706214fd39c1cd1e609a0528c19930054826001600160a01b03198216177f9016d09d72d40fdae2fd8ceac6b6234c7706214fd39c1cd1e609a0528c19930055167f8be0079c531659141344cd1fd0a4f28419497f9722a3daafe3b4186f6b6457e0600080a3565b7f1e4fbdf700000000000000000000000000000000000000000000000000000000600052600060045260246000fd5b611e29816000527f80bb2b638cc20bc4d0a60d66940f3ab4a00c1d7b313497ca82fb0b4ab00793026020526001600160a01b036040600020541690565b906001600160a01b03821615611e3d575090565b637e27328960e01b60005260045260246000fd5b6001600160a01b037f9016d09d72d40fdae2fd8ceac6b6234c7706214fd39c1cd1e609a0528c19930054163303611e8457565b7f118cdaa7000000000000000000000000000000000000000000000000000000006000523360045260246000fd5b3d15611edd573d90611ec382611956565b91611ed16040519384611934565b82523d6000602084013e565b606090565b93909293823b611ef4575b5050505050565b611f3b6001600160a01b0392836020951696846040519788968796630a85bd0160e11b8852166004870152166024850152604484015260806064840152608483019061188f565b03816000865af18091600091611fa0575b5090611f7d5750611f5b611eb2565b80519081611f785782633250574960e11b60005260045260246000fd5b602001fd5b6001600160e01b0319630a85bd0160e11b91160361058e57503880808080611eed565b6020813d602011611fdb575b81611fb960209383611934565b810103126105dc5751906001600160e01b0319821682036105d9575038611f4c565b3d9150611fac565b611fec81611dec565b506000527f0542a41881ee128a365a727b282c86fa859579490b9bb45aab8503648c8e790060205260406000206040519081600082549261202c846119c7565b80845293600181169081156120ac5750600114612065575b5061205192500382611934565b6000604051612061602082611934565b5290565b90506000929192526020600020906000915b8183106120905750509060206120519282010138612044565b6020919350806001915483858801015201910190918392612077565b90506020925061205194915060ff191682840152151560051b82010138612044565b60ff7ff0c57e16840df040f15088dc2f81fe391c3923bec73e23a9662efc9c229c6a005460401c16156120fd57565b7fd7e6bcf80000000000000000000000000000000000000000000000000000000060005260046000fd5b90612166575080511561213c57602081519101fd5b7fd6bda2750000000000000000000000000000000000000000000000000000000060005260046000fd5b815115806121ae575b612177575090565b6001600160a01b03907f9996b315000000000000000000000000000000000000000000000000000000006000521660045260246000fd5b50803b1561216f56fea264697066735822122086a67ee7e2f8899e4f6b4e08ab5db9c6cd76c98d9486e1ed0d20be5c4cf02f1664736f6c634300081c0033",
  "linkReferences": {},
  "deployedLinkReferences": {}
}