{
  "_format": "hh-sol-artifact-1",
  "contractName": "SoulboundCredential",
  "sourceName": "contracts/IdentityRegistry.sol",
  "abi": [
    {
      "inputs": [
        {
          "internalType": "address",
          "name": "target",
          "type": "address"
        }
      ],
      "name": "AddressEmptyCode",
      "type": "error"
    },
    {
      "inputs": [
        {
          "internalType": "address",
          "name": "implementation",
          "type": "address"
        }
      ],
      "name": "ERC1967InvalidImplementation",
      "type": "error"
    },
    {
      "inputs": [],
      "name": "ERC1967NonPayable",
      "type": "error"
    },
    {
      "inputs": [
        {
          "internalType": "address",
          "name": "sender",
          "type": "address"
        },
        {
          "internalType": "uint256",
          "name": "tokenId",
          "type": "uint256"
        },
        {
          "internalType": "address",
          "name": "owner",
          "type": "address"
        }
      ],
      "name": "ERC721IncorrectOwner",
      "type": "error"
    },
    {
      "inputs": [
        {
          "internalType": "address",
          "name": "operator",
          "type": "address"
        },
        {
          "internalType": "uint256",
          "name": "tokenId",
          "type": "uint256"
        }
      ],
      "name": "ERC721InsufficientApproval",
      "type": "error"
    },
    {
      "inputs": [
        {
          "internalType": "address",
          "name": "approver",
          "type": "address"
        }
      ],
      "name": "ERC721InvalidApprover",
      "type": "error"
    },
    {
      "inputs": [
        {
          "internalType": "address",
          "name": "operator",
          "type": "address"
        }
      ],
      "name": "ERC721InvalidOperator",
      "type": "error"
    },
    {
      "inputs": [
        {
          "internalType": "address",
          "name": "owner",
          "type": "address"
        }
      ],
      "name": "ERC721InvalidOwner",
      "type": "error"
    },
    {
      "inputs": [
        {
          "internalType": "address",
          "name": "receiver",
          "type": "address"
        }
      ],
      "name": "ERC721InvalidReceiver",
      "type": "error"
    },
    {
      "inputs": [
        {
          "internalType": "address",
          "name": "sender",
          "type": "address"
        }
      ],
      "name": "ERC721InvalidSender",
      "type": "error"
    },
    {
      "inputs": [
        {
          "internalType": "uint256",
          "name": "tokenId",
          "type": "uint256"
        }
      ],
      "name": "ERC721NonexistentToken",
      "type": "error"
    },
    {
      "inputs": [],
      "name": "FailedCall",
      "type": "error"
    },
    {
      "inputs": [],
      "name": "InvalidInitialization",
      "type": "error"
    },
    {
      "inputs": [],
      "name": "NotInitializing",
      "type": "error"
    },
    {
      "inputs": [
        {
          "internalType": "address",
          "name": "owner",
          "type": "address"
        }
      ],
      "name": "OwnableInvalidOwner",
      "type": "error"
    },
    {
      "inputs": [
        {
          "internalType": "address",
          "name": "account",
          "type": "address"
        }
      ],
      "name": "OwnableUnauthorizedAccount",
      "type": "error"
    },
    {
      "inputs": [],
      "name": "UUPSUnauthorizedCallContext",
      "type": "error"
    },
    {
      "inputs": [
        {
          "internalType": "bytes32",
          "name": "slot",
          "type": "bytes32"
        }
      ],
      "name": "UUPSUnsupportedProxiableUUID",
      "type": "error"
    },
    {
      "anonymous": false,
      "inputs": [
        {
          "indexed": true,
          "internalType": "address",
          "name": "owner",
          "type": "address"
        },
        {
          "indexed": true,
          "internalType": "address",
          "name": "approved",
          "type": "address"
        },
        {
          "indexed": true,
          "internalType": "uint256",
          "name": "tokenId",
          "type": "uint256"
        }
      ],
      "name": "Approval",
      "type": "event"
    },
    {
      "anonymous": false,
      "inputs": [
        {
          "indexed": true,
          "internalType": "address",
          "name": "owner",
          "type": "address"
        },
        {
          "indexed": true,
          "internalType": "address",
          "name": "operator",
          "type": "address"
        },
        {
          "indexed": false,
          "internalType": "bool",
          "name": "approved",
          "type": "bool"
        }
      ],
      "name": "ApprovalForAll",
      "type": "event"
    },
    {
      "anonymous": false,
      "inputs": [
        {
          "indexed": false,
          "internalType": "uint256",
          "name": "_fromTokenId",
          "type": "uint256"
        },
        {
          "indexed": false,
          "internalType": "uint256",
          "name": "_toTokenId",
          "type": "uint256"
        }
      ],
      "name": "BatchMetadataUpdate",
      "type": "event"
    },
    {
      "anonymous": false,
      "inputs": [
        {
          "indexed": false,
          "internalType": "uint64",
          "name": "version",
          "type": "uint64"
        }
      ],
      "name": "Initialized",
      "type": "event"
    },
    {
      "anonymous": false,
      "inputs": [
        {
          "indexed": false,
          "internalType": "uint256",
          "name": "_tokenId",
          "type": "uint256"
        }
      ],
      "name": "MetadataUpdate",
      "type": "event"
    },
    {
      "anonymous": false,
      "inputs": [
        {
          "indexed": true,
          "internalType": "address",
          "name": "previousOwner",
          "type": "address"
        },
        {
          "indexed": true,
          "internalType": "address",
          "name": "newOwner",
          "type": "address"
        }
      ],
      "name": "OwnershipTransferred",
      "type": "event"
    },
    {
      "anonymous": false,
      "inputs": [
        {
          "indexed": true,
          "internalType": "address",
          "name": "from",
          "type": "address"
        },
        {
          "indexed": true,
          "internalType": "address",
          "name": "to",
          "type": "address"
        },
        {
          "indexed": true,
          "internalType": "uint256",
          "name": "tokenId",
          "type": "uint256"
        }
      ],
      "name": "Transfer",
      "type": "event"
    },
    {
      "anonymous": false,
      "inputs": [
        {
          "indexed": true,
          "internalType": "address",
          "name": "implementation",
          "type": "address"
        }
      ],
      "name": "Upgraded",
      "type": "event"
    },
    {
      "inputs": [],
      "name": "UPGRADE_INTERFACE_VERSION",
      "outputs": [
        {
          "internalType": "string",
          "name": "",
          "type": "string"
        }
      ],
      "stateMutability": "view",
      "type": "function"
    },
    {
      "inputs": [
        {
          "internalType": "address",
          "name": "to",
          "type": "address"
        },
        {
          "internalType": "uint256",
          "name": "tokenId",
          "type": "uint256"
        }
      ],
      "name": "approve",
      "outputs": [],
      "stateMutability": "nonpayable",
      "type": "function"
    },
    {
      "inputs": [
        {
          "internalType": "address",
          "name": "owner",
          "type": "address"
        }
      ],
      "name": "balanceOf",
      "outputs": [
        {
          "internalType": "uint256",
          "name": "",
          "type": "uint256"
        }
      ],
      "stateMutability": "view",
      "type": "function"
    },
    {
      "inputs": [
        {
          "internalType": "uint256",
          "name": "tokenId",
          "type": "uint256"
        }
      ],
      "name": "getApproved",
      "outputs": [
        {
          "internalType": "address",
          "name": "",
          "type": "address"
        }
      ],
      "stateMutability": "view",
      "type": "function"
    },
    {
      "inputs": [],
      "name": "initialize",
      "outputs": [],
      "stateMutability": "nonpayable",
      "type": "function"
    },
    {
      "inputs": [
        {
          "internalType": "address",
          "name": "owner",
          "type": "address"
        },
        {
          "internalType": "address",
          "name": "operator",
          "type": "address"
        }
      ],
      "name": "isApprovedForAll",
      "outputs": [
        {
          "internalType": "bool",
          "name": "",
          "type": "bool"
        }
      ],
      "stateMutability": "view",
      "type": "function"
    },
    {
      "inputs": [],
      "name": "name",
      "outputs": [
        {
          "internalType": "string",
          "name": "",
          "type": "string"
        }
      ],
      "stateMutability": "view",
      "type": "function"
    },
    {
      "inputs": [],
      "name": "owner",
      "outputs": [
        {
          "internalType": "address",
          "name": "",
          "type": "address"
        }
      ],
      "stateMutability": "view",
      "type": "function"
    },
    {
      "inputs": [
        {
          "internalType": "uint256",
          "name": "tokenId",
          "type": "uint256"
        }
      ],
      "name": "ownerOf",
      "outputs": [
        {
          "internalType": "address",
          "name": "",
          "type": "address"
        }
      ],
      "stateMutability": "view",
      "type": "function"
    },
    {
      "inputs": [],
      "name": "proxiableUUID",
      "outputs": [
        {
          "internalType": "bytes32",
          "name": "",
          "type": "bytes32"
        }
      ],
      "stateMutability": "view",
      "type": "function"
    },
    {
      "inputs": [],
      "name": "renounceOwnership",
      "outputs": [],
      "stateMutability": "nonpayable",
      "type": "function"
    },
    {
      "inputs": [
        {
          "internalType": "address",
          "name": "to",
          "type": "address"
        },
        {
          "internalType": "string",
          "name": "uri",
          "type": "string"
        }
      ],
      "name": "safeMint",
      "outputs": [
        {
          "internalType": "uint256",
          "name": "",
          "type": "uint256"
        }
      ],
      "stateMutability": "nonpayable",
      "type": "function"
    },
    {
      "inputs": [
        {
          "internalType": "address",
          "name": "from",
          "type": "address"
        },
        {
          "internalType": "address",
          "name": "to",
          "type": "address"
        },
        {
          "internalType": "uint256",
          "name": "tokenId",
          "type": "uint256"
        }
      ],
      "name": "safeTransferFrom",
      "outputs": [],
      "stateMutability": "nonpayable",
      "type": "function"
    },
    {
      "inputs": [
        {
          "internalType": "address",
          "name": "from",
          "type": "address"
        },
        {
          "internalType": "address",
          "name": "to",
          "type": "address"
        },
        {
          "internalType": "uint256",
          "name": "tokenId",
          "type": "uint256"
        },
        {
          "internalType": "bytes",
          "name": "data",
          "type": "bytes"
        }
      ],
      "name": "safeTransferFrom",
      "outputs": [],
      "stateMutability": "nonpayable",
      "type": "function"
    },
    {
      "inputs": [
        {
          "internalType": "address",
          "name": "operator",
          "type": "address"
        },
        {
          "internalType": "bool",
          "name": "approved",
          "type": "bool"
        }
      ],
      "name": "setApprovalForAll",
      "outputs": [],
      "stateMutability": "nonpayable",
      "type": "function"
    },
    {
      "inputs": [
        {
          "internalType": "uint256",
          "name": "",
          "type": "uint256"
        }
      ],
      "name": "soulbound",
      "outputs": [
        {
          "internalType": "bool",
          "name": "",
          "type": "bool"
        }
      ],
      "stateMutability": "view",
      "type": "function"
    },
    {
      "inputs": [
        {
          "internalType": "bytes4",
          "name": "interfaceId",
          "type": "bytes4"
        }
      ],
      "name": "supportsInterface",
      "outputs": [
        {
          "internalType": "bool",
          "name": "",
          "type": "bool"
        }
      ],
      "stateMutability": "view",
      "type": "function"
    },
    {
      "inputs": [],
      "name": "symbol",
      "outputs": [
        {
          "internalType": "string",
          "name": "",
          "type": "string"
        }
      ],
      "stateMutability": "view",
      "type": "function"
    },
    {
      "inputs": [
        {
          "internalType": "uint256",
          "name": "tokenId",
          "type": "uint256"
        }
      ],
      "name": "tokenURI",
      "outputs": [
        {
          "internalType": "string",
          "name": "",
          "type": "string"
        }
      ],
      "stateMutability": "view",
      "type": "function"
    },
    {
      "inputs": [
        {
          "internalType": "address",
          "name": "from",
          "type": "address"
        },
        {
          "internalType": "address",
          "name": "to",
          "type": "address"
        },
        {
          "internalType": "uint256",
          "name": "tokenId",
          "type": "uint256"
        }
      ],
      "name": "transferFrom",
      "outputs": [],
      "stateMutability": "nonpayable",
      "type": "function"
    },
    {
      "inputs": [
        {
          "internalType": "address",
          "name": "newOwner",
          "type": "address"
        }
      ],
      "name": "transferOwnership",
      "outputs": [],
      "stateMutability": "nonpayable",
      "type": "function"
    },
    {
      "inputs": [
        {
          "internalType": "address",
          "name": "newImplementation",
          "type": "address"
        },
        {
          "internalType": "bytes",
          "name": "data",
          "type": "bytes"
        }
      ],
      "name": "upgradeToAndCall",
      "outputs": [],
      "stateMutability": "payable",
      "type": "function"
    }
  ],
  "bytecode": "0x60a0806040523460295730608052611bb5908161002f8239608051818181610e430152610ed80152f35b600080fdfe608080604052600436101561001357600080fd5b60003560e01c90816301ffc9a7146112aa5750806306fdde03146111fa578063081812fc146111af578063095ea7b3146110bd57806323b872dd146110a657806342842e0e146110765780634f1ef28614610e9a57806352d1902d14610e305780636352211e14610e0057806370a0823114610dae578063715018a614610d445780637a18159714610d135780638129fc1c146108615780638da5cb5b1461082b57806395d89b4114610744578063a22cb465146106a8578063ad3cb1cc14610661578063b88d4fde14610606578063c87b56dd146105cf578063d204c45e1461018f578063e985e9c5146101415763f2fde38b1461011157600080fd5b3461013c57602036600319011261013c5761013a61012d61136e565b610135611784565b6116dd565b005b600080fd5b3461013c57604036600319011261013c5761015a61136e565b61016b610165611384565b916116a4565b9060018060a01b0316600052602052602060ff604060002054166040519015158152f35b3461013c57604036600319011261013c576101a861136e565b60243567ffffffffffffffff811161013c573660238201121561013c576101d9903690602481600401359101611412565b6101e1611784565b60005460001981146105b957600101908160005560209160405161020584826113d4565b600081526001600160a01b0385169485156105a357610223836119d6565b6001600160a01b03811680151591908590899084610564575b6102458661166b565b8054600101905560008381527f80bb2b638cc20bc4d0a60d66940f3ab4a00c1d7b313497ca82fb0b4ab00793028b526040812080546001600160a01b031916841790557fddf252ad1be2c89b69c2b068fc378daa952ba7f163c4a11628f55a4df523b3ef9080a45061054e573b610450575b5080919293506000527f0542a41881ee128a365a727b282c86fa859579490b9bb45aab8503648c8e790083526040600020825167ffffffffffffffff811161043a576103038254611467565b601f81116103f4575b508493601f8211600114610390579381929394600092610385575b50508160011b916000199060031b1c19161790555b7ff8e1a15aba9398e019f0b49df1a4fde98ee17ae345cb5f6b5e2c27f5033e8ce782604051838152a180600052600182526040600020600160ff19825416179055604051908152f35b015190508580610327565b601f1982169483600052866000209160005b888882106103de575050836001959697106103c5575b505050811b01905561033c565b015160001960f88460031b161c191690558580806103b8565b60018495829395850151815501940192016103a2565b8260005285600020601f830160051c810191878410610430575b601f0160051c01905b818110610424575061030c565b60008155600101610417565b909150819061040e565b634e487b7160e01b600052604160045260246000fd5b8361048a9160405180938192630a85bd0160e11b83523360048401526000602484015286604484015260806064840152608483019061132f565b03816000895af18091600091610509575b50906104cd575050506104ac6117ba565b80519190826104ca5783633250574960e11b60005260045260246000fd5b01fd5b929391929091906001600160e01b03191663757a42ff60e11b016104f55750908291846102b7565b633250574960e11b60005260045260246000fd5b8581813d8311610547575b61051e81836113d4565b810103126105435751906001600160e01b03198216820361054057508661049b565b80fd5b5080fd5b503d610514565b6339e3563760e11b600052600060045260246000fd5b6000838152600080516020611b008339815191526020526040902080546001600160a01b03191690556105968461166b565b805460001901905561023c565b633250574960e11b600052600060045260246000fd5b634e487b7160e01b600052601160045260246000fd5b3461013c57602036600319011261013c576106026105ee6004356118eb565b60405191829160208352602083019061132f565b0390f35b3461013c57608036600319011261013c5761061f61136e565b610627611384565b906044356064359267ffffffffffffffff841161013c5761064f61013a943690600401611449565b9261065b8383836114a1565b336117ea565b3461013c57600036600319011261013c57610602604080519061068481836113d4565b60058252640352e302e360dc1b60208301525191829160208352602083019061132f565b3461013c57604036600319011261013c576106c161136e565b6024359081151580920361013c576001600160a01b031690811561072f576106e8336116a4565b82600052602052604060002060ff1981541660ff83161790556040519081527f17307eab39ab6107e8899845ad3d59bd9653f200f220920489ca2b5937696c3160203392a3005b50630b61174360e31b60005260045260246000fd5b3461013c57600036600319011261013c576040516000600080516020611b408339815191525461077381611467565b8084529060018116908115610807575060011461079b575b610602836105ee818503826113d4565b600080516020611b4083398151915260009081527ff4bad0a69248f59680a4f2b3000328cec71a413447c96781cfe5996daa8c456e939250905b8082106107ed575090915081016020016105ee61078b565b9192600181602092548385880101520191019092916107d5565b60ff191660208086019190915291151560051b840190910191506105ee905061078b565b3461013c57600036600319011261013c57600080516020611ac0833981519152546040516001600160a01b039091168152602090f35b3461013c57600036600319011261013c57600080516020611b208339815191525460ff8160401c16159067ffffffffffffffff811680159081610d0b575b6001149081610d01575b159081610cf8575b50610ce75767ffffffffffffffff198116600117600080516020611b208339815191525581610cba575b506040908151916108ec81846113d4565b601f83527f4167726943726564697420536f756c626f756e642043726564656e7469616c00602084015280519161092382846113d4565b600383526241534360e81b602084015261093b611a10565b610943611a10565b835167ffffffffffffffff811161043a5761096c600080516020611aa083398151915254611467565b601f8111610c40575b50602094601f8211600114610bb457948192939495600092610ba9575b50508160011b916000199060031b1c191617600080516020611aa0833981519152555b825167ffffffffffffffff811161043a576109de600080516020611b4083398151915254611467565b601f8111610b37575b506020601f8211600114610ab65781929394600092610aab575b50508160011b916000199060031b1c191617600080516020611b40833981519152555b610a2c611a10565b610a34611a10565b610a3c611a10565b610a45336116dd565b610a4d611a10565b610a5357005b60207fc7f505b2f371ae2175ee4913f4499e1f2633a7b5936321eed1cdaeb6115181d29168ff000000000000000019600080516020611b208339815191525416600080516020611b20833981519152555160018152a1005b015190508480610a01565b601f19821690600080516020611b40833981519152600052806000209160005b818110610b1f57509583600195969710610b06575b505050811b01600080516020611b4083398151915255610a24565b015160001960f88460031b161c19169055848080610aeb565b9192602060018192868b015181550194019201610ad6565b600080516020611b408339815191526000527ff4bad0a69248f59680a4f2b3000328cec71a413447c96781cfe5996daa8c456e601f830160051c81019160208410610b9f575b601f0160051c01905b818110610b9357506109e7565b60008155600101610b86565b9091508190610b7d565b015190508580610992565b601f19821695600080516020611aa0833981519152600052600080516020611b608339815191529160005b888110610c2857508360019596979810610c0f575b505050811b01600080516020611aa0833981519152556109b5565b015160001960f88460031b161c19169055858080610bf4565b91926020600181928685015181550194019201610bdf565b600080516020611aa0833981519152600052601f820160051c600080516020611b60833981519152019060208310610ca4575b601f0160051c600080516020611b6083398151915201905b818110610c985750610975565b60008155600101610c8b565b600080516020611b608339815191529150610c73565b68ffffffffffffffffff19166801000000000000000117600080516020611b2083398151915255816108db565b63f92ee8a960e01b60005260046000fd5b905015836108b1565b303b1591506108a9565b83915061089f565b3461013c57602036600319011261013c576004356000526001602052602060ff604060002054166040519015158152f35b3461013c57600036600319011261013c57610d5d611784565b600080516020611ac083398151915280546001600160a01b031981169091556000906001600160a01b03167f8be0079c531659141344cd1fd0a4f28419497f9722a3daafe3b4186f6b6457e08280a3005b3461013c57602036600319011261013c57610dc761136e565b6001600160a01b03811615610dea57610de160209161166b565b54604051908152f35b6322718ad960e21b600052600060045260246000fd5b3461013c57602036600319011261013c576020610e1e600435611753565b6040516001600160a01b039091168152f35b3461013c57600036600319011261013c577f00000000000000000000000000000000000000000000000000000000000000006001600160a01b03163003610e89576020604051600080516020611ae08339815191528152f35b63703e46dd60e11b60005260046000fd5b604036600319011261013c57610eae61136e565b60243567ffffffffffffffff811161013c57610ece903690600401611449565b6001600160a01b037f000000000000000000000000000000000000000000000000000000000000000016308114908115611053575b50610e8957610f10611784565b6040516352d1902d60e01b81526001600160a01b0383169290602081600481875afa6000918161101f575b50610f555783634c9c8ce360e01b60005260045260246000fd5b80600080516020611ae083398151915285920361100b5750813b15610ff757600080516020611ae083398151915280546001600160a01b031916821790557fbc7cd75a20ee27fd9adebab32041f755214dbc6bffa90cc0225b39da2e5c2d3b600080a2815115610fdd5760008083602061013a95519101845af4610fd76117ba565b91611a3e565b505034610fe657005b63b398979f60e01b60005260046000fd5b634c9c8ce360e01b60005260045260246000fd5b632a87526960e21b60005260045260246000fd5b9091506020813d60201161104b575b8161103b602093836113d4565b8101031261013c57519085610f3b565b3d915061102e565b600080516020611ae0833981519152546001600160a01b03161415905083610f03565b3461013c5761013a6110873661139a565b90604051926110976020856113d4565b6000845261065b8383836114a1565b3461013c5761013a6110b73661139a565b916114a1565b3461013c57604036600319011261013c576110d661136e565b6024356110e281611753565b3315158061119c575b80611178575b6111635781906001600160a01b0384811691167f8c5be1e5ebec7d5bd14f71427d1e84f3dd0314c0f7b2291e5b200ac8c7c3b925600080a46000908152600080516020611b008339815191526020526040902080546001600160a01b0319166001600160a01b03909216919091179055005b63a9fbf51f60e01b6000523360045260246000fd5b50611182816116a4565b336000908152602091909152604090205460ff16156110f1565b506001600160a01b0381163314156110eb565b3461013c57602036600319011261013c576020610e1e6004356111d181611753565b506000908152600080516020611b0083398151915260205260409020546001600160a01b031690565b3461013c57600036600319011261013c576040516000600080516020611aa08339815191525461122981611467565b8084529060018116908115610807575060011461125057610602836105ee818503826113d4565b600080516020611aa08339815191526000908152600080516020611b60833981519152939250905b808210611290575090915081016020016105ee61078b565b919260018160209254838588010152019101909291611278565b3461013c57602036600319011261013c576004359063ffffffff60e01b821680920361013c57602091632483248360e11b81149081156112ec575b5015158152f35b6380ac58cd60e01b81149150811561131e575b811561130d575b50836112e5565b6301ffc9a760e01b14905083611306565b635b5e139f60e01b811491506112ff565b919082518082526020808301940160005b82811061135e575050600081602094950152601f8019910116010190565b8181015186820152602001611340565b600435906001600160a01b038216820361013c57565b602435906001600160a01b038216820361013c57565b606090600319011261013c576004356001600160a01b038116810361013c57906024356001600160a01b038116810361013c579060443590565b90601f8019910116810190811067ffffffffffffffff82111761043a57604052565b67ffffffffffffffff811161043a57601f01601f191660200190565b92919261141e826113f6565b9161142c60405193846113d4565b82948184528183011161013c578281602093846000960137010152565b9080601f8301121561013c5781602061146493359101611412565b90565b90600182811c92168015611497575b602083101461148157565b634e487b7160e01b600052602260045260246000fd5b91607f1691611476565b909291906001600160a01b03841680156105a3576000946114c1846119d6565b95331515806115bf575b509184917fddf252ad1be2c89b69c2b068fc378daa952ba7f163c4a11628f55a4df523b3ef61150c97989460018060a01b038616988993846115805761166b565b805460010190558481527f80bb2b638cc20bc4d0a60d66940f3ab4a00c1d7b313497ca82fb0b4ab00793026020526040812080546001600160a01b0319168517905580a4506001600160a01b031680830361156657505050565b6364283d7b60e01b60005260045260245260445260646000fd5b6000878152600080516020611b008339815191526020526040902080546001600160a01b03191690556115b28861166b565b805460001901905561166b565b80611608575b156115d057386114cb565b84906001600160a01b0388166115f257602491637e27328960e01b8252600452fd5b60449163177e802f60e01b825233600452602452fd5b506001600160a01b0387163314801561164e575b806115c557506000858152600080516020611b0083398151915260205260409020546001600160a01b031633146115c5565b50611658876116a4565b338252602052604081205460ff1661161c565b6001600160a01b031660009081527f80bb2b638cc20bc4d0a60d66940f3ab4a00c1d7b313497ca82fb0b4ab00793036020526040902090565b6001600160a01b031660009081527f80bb2b638cc20bc4d0a60d66940f3ab4a00c1d7b313497ca82fb0b4ab00793056020526040902090565b6001600160a01b0316801561173d57600080516020611ac083398151915280546001600160a01b0319811683179091556001600160a01b03167f8be0079c531659141344cd1fd0a4f28419497f9722a3daafe3b4186f6b6457e0600080a3565b631e4fbdf760e01b600052600060045260246000fd5b61175c816119d6565b906001600160a01b03821615611770575090565b637e27328960e01b60005260045260246000fd5b600080516020611ac0833981519152546001600160a01b031633036117a557565b63118cdaa760e01b6000523360045260246000fd5b3d156117e5573d906117cb826113f6565b916117d960405193846113d4565b82523d6000602084013e565b606090565b823b6117f8575b5050505050565b604051630a85bd0160e11b81526001600160a01b03918216600482015291811660248301526044820193909352608060648201529116916020908290819061184490608483019061132f565b03816000865af180916000916118a8575b509061188657506118646117ba565b805190816118815782633250574960e11b60005260045260246000fd5b602001fd5b6001600160e01b03191663757a42ff60e11b016104f5575038808080806117f1565b6020813d6020116118e3575b816118c1602093836113d4565b810103126105435751906001600160e01b031982168203610540575038611855565b3d91506118b4565b6118f481611753565b506000527f0542a41881ee128a365a727b282c86fa859579490b9bb45aab8503648c8e790060205260406000206040519081600082549261193484611467565b80845293600181169081156119b4575060011461196d575b50611959925003826113d4565b60006040516119696020826113d4565b5290565b90506000929192526020600020906000915b818310611998575050906020611959928201013861194c565b602091935080600191548385880101520191019091839261197f565b90506020925061195994915060ff191682840152151560051b8201013861194c565b60009081527f80bb2b638cc20bc4d0a60d66940f3ab4a00c1d7b313497ca82fb0b4ab007930260205260409020546001600160a01b031690565b60ff600080516020611b208339815191525460401c1615611a2d57565b631afcd79f60e31b60005260046000fd5b90611a645750805115611a5357602081519101fd5b63d6bda27560e01b60005260046000fd5b81511580611a96575b611a75575090565b639996b31560e01b60009081526001600160a01b0391909116600452602490fd5b50803b15611a6d56fe80bb2b638cc20bc4d0a60d66940f3ab4a00c1d7b313497ca82fb0b4ab00793009016d09d72d40fdae2fd8ceac6b6234c7706214fd39c1cd1e609a0528c199300360894a13ba1a3210667c828492db98dca3e2076cc3735a920a3ca505d382bbc80bb2b638cc20bc4d0a60d66940f3ab4a00c1d7b313497ca82fb0b4ab0079304f0c57e16840df040f15088dc2f81fe391c3923bec73e23a9662efc9c229c6a0080bb2b638cc20bc4d0a60d66940f3ab4a00c1d7b313497ca82fb0b4ab007930137c58c799b6609234b945e882912ee9ad34948a1dfaa20a97485e1a7752bbf81a2646970667358221220e5726174e94d3b516ef916c35d6e49e4e49784636b530075bfb4d0da9c1bf2df64736f6c634300081c0033",
  "linkReferences": {},
  "deployedLinkReferences": {}
}