{
  "_format": "hh-sol-artifact-1",
  "contractName": "DecentralizedOracle",
  "sourceName": "contracts/DecentralizedOracle.sol",
  "abi": [
    {
      "inputs": [
        {
          "internalType": "address",
          "name": "target",
          "type": "address"
        }
      ],
      "name": "AddressEmptyCode",
      "type": "error"
    },
    {
      "inputs": [],
      "name": "ECDSAInvalidSignature",
      "type": "error"
    },
    {
      "inputs": [
        {
          "internalType": "uint256",
          "name": "length",
          "type": "uint256"
        }
      ],
      "name": "ECDSAInvalidSignatureLength",
      "type": "error"
    },
    {
      "inputs": [
        {
          "internalType": "bytes32",
          "name": "s",
          "type": "bytes32"
        }
      ],
      "name": "ECDSAInvalidSignatureS",
      "type": "error"
    },
    {
      "inputs": [
        {
          "internalType": "address",
          "name": "implementation",
          "type": "address"
        }
      ],
      "name": "ERC1967InvalidImplementation",
      "type": "error"
    },
    {
      "inputs": [],
      "name": "ERC1967NonPayable",
      "type": "error"
    },
    {
      "inputs": [],
      "name": "FailedCall",
      "type": "error"
    },
    {
      "inputs": [],
      "name": "InvalidInitialization",
      "type": "error"
    },
    {
      "inputs": [],
      "name": "NotInitializing",
      "type": "error"
    },
    {
      "inputs": [
        {
          "internalType": "address",
          "name": "owner",
          "type": "address"
        }
      ],
      "name": "OwnableInvalidOwner",
      "type": "error"
    },
    {
      "inputs": [
        {
          "internalType": "address",
          "name": "account",
          "type": "address"
        }
      ],
      "name": "OwnableUnauthorizedAccount",
      "type": "error"
    },
    {
      "inputs": [],
      "name": "ReentrancyGuardReentrantCall",
      "type": "error"
    },
    {
      "inputs": [],
      "name": "UUPSUnauthorizedCallContext",
      "type": "error"
    },
    {
      "inputs": [
        {
          "internalType": "bytes32",
          "name": "slot",
          "type": "bytes32"
        }
      ],
      "name": "UUPSUnsupportedProxiableUUID",
      "type": "error"
    },
    {
      "anonymous": false,
      "inputs": [
        {
          "indexed": true,
          "internalType": "bytes32",
          "name": "modelId",
          "type": "bytes32"
        }
      ],
      "name": "AIModelDeactivated",
      "type": "event"
    },
    {
      "anonymous": false,
      "inputs": [
        {
          "indexed": true,
          "internalType": "bytes32",
          "name": "modelId",
          "type": "bytes32"
        },
        {
          "indexed": false,
          "internalType": "string",
          "name": "name",
          "type": "string"
        },
        {
          "indexed": false,
          "internalType": "string",
          "name": "version",
          "type": "string"
        },
        {
          "indexed": false,
          "internalType": "address",
          "name": "maintainer",
          "type": "address"
        }
      ],
      "name": "AIModelRegistered",
      "type": "event"
    },
    {
      "anonymous": false,
      "inputs": [
        {
          "indexed": true,
          "internalType": "bytes32",
          "name": "modelId",
          "type": "bytes32"
        },
        {
          "indexed": true,
          "internalType": "bytes32",
          "name": "feedId",
          "type": "bytes32"
        },
        {
          "indexed": false,
          "internalType": "uint256",
          "name": "predictedValue",
          "type": "uint256"
        },
        {
          "indexed": false,
          "internalType": "uint256",
          "name": "confidence",
          "type": "uint256"
        }
      ],
      "name": "AIPredictionSubmitted",
      "type": "event"
    },
    {
      "anonymous": false,
      "inputs": [
        {
          "indexed": true,
          "internalType": "bytes32",
          "name": "modelId",
          "type": "bytes32"
        },
        {
          "indexed": false,
          "internalType": "uint256",
          "name": "predictionIndex",
          "type": "uint256"
        },
        {
          "indexed": false,
          "internalType": "uint256",
          "name": "accuracy",
          "type": "uint256"
        }
      ],
      "name": "AIPredictionValidated",
      "type": "event"
    },
    {
      "anonymous": false,
      "inputs": [
        {
          "indexed": true,
          "internalType": "bytes32",
          "name": "decisionId",
          "type": "bytes32"
        },
        {
          "indexed": false,
          "internalType": "uint256",
          "name": "action",
          "type": "uint256"
        }
      ],
      "name": "AutomatedDecisionExecuted",
      "type": "event"
    },
    {
      "anonymous": false,
      "inputs": [
        {
          "indexed": true,
          "internalType": "bytes32",
          "name": "decisionId",
          "type": "bytes32"
        },
        {
          "indexed": false,
          "internalType": "string",
          "name": "decisionType",
          "type": "string"
        },
        {
          "indexed": true,
          "internalType": "address",
          "name": "farmer",
          "type": "address"
        },
        {
          "indexed": false,
          "internalType": "uint256",
          "name": "recommendedAction",
          "type": "uint256"
        },
        {
          "indexed": false,
          "internalType": "uint256",
          "name": "confidence",
          "type": "uint256"
        }
      ],
      "name": "AutomatedDecisionMade",
      "type": "event"
    },
    {
      "anonymous": false,
      "inputs": [
        {
          "indexed": true,
          "internalType": "uint256",
          "name": "chainId",
          "type": "uint256"
        },
        {
          "indexed": true,
          "internalType": "bytes32",
          "name": "modelId",
          "type": "bytes32"
        },
        {
          "indexed": false,
          "internalType": "uint256",
          "name": "timestamp",
          "type": "uint256"
        }
      ],
      "name": "CrossChainAISynced",
      "type": "event"
    },
    {
      "anonymous": false,
      "inputs": [
        {
          "indexed": true,
          "internalType": "uint256",
          "name": "chainId",
          "type": "uint256"
        },
        {
          "indexed": true,
          "internalType": "bytes32",
          "name": "feedId",
          "type": "bytes32"
        },
        {
          "indexed": false,
          "internalType": "uint256",
          "name": "value",
          "type": "uint256"
        },
        {
          "indexed": false,
          "internalType": "uint256",
          "name": "confidence",
          "type": "uint256"
        }
      ],
      "name": "CrossChainDataSynced",
      "type": "event"
    },
    {
      "anonymous": false,
      "inputs": [
        {
          "indexed": true,
          "internalType": "uint256",
          "name": "chainId",
          "type": "uint256"
        },
        {
          "indexed": true,
          "internalType": "address",
          "name": "remoteOracle",
          "type": "address"
        }
      ],
      "name": "CrossChainOracleAdded",
      "type": "event"
    },
    {
      "anonymous": false,
      "inputs": [
        {
          "indexed": true,
          "internalType": "bytes32",
          "name": "feedId",
          "type": "bytes32"
        },
        {
          "indexed": false,
          "internalType": "uint256",
          "name": "finalValue",
          "type": "uint256"
        },
        {
          "indexed": false,
          "internalType": "uint256",
          "name": "confidence",
          "type": "uint256"
        }
      ],
      "name": "DataFinalized",
      "type": "event"
    },
    {
      "anonymous": false,
      "inputs": [
        {
          "indexed": true,
          "internalType": "bytes32",
          "name": "feedId",
          "type": "bytes32"
        },
        {
          "indexed": true,
          "internalType": "address",
          "name": "submitter",
          "type": "address"
        },
        {
          "indexed": false,
          "internalType": "enum DecentralizedOracle.DataType",
          "name": "dataType",
          "type": "uint8"
        },
        {
          "indexed": false,
          "internalType": "uint256",
          "name": "value",
          "type": "uint256"
        }
      ],
      "name": "DataSubmitted",
      "type": "event"
    },
    {
      "anonymous": false,
      "inputs": [
        {
          "indexed": true,
          "internalType": "bytes32",
          "name": "feedId",
          "type": "bytes32"
        },
        {
          "indexed": true,
          "internalType": "address",
          "name": "validator",
          "type": "address"
        },
        {
          "indexed": false,
          "internalType": "uint256",
          "name": "value",
          "type": "uint256"
        }
      ],
      "name": "DataValidated",
      "type": "event"
    },
    {
      "anonymous": false,
      "inputs": [
        {
          "indexed": false,
          "internalType": "uint64",
          "name": "version",
          "type": "uint64"
        }
      ],
      "name": "Initialized",
      "type": "event"
    },
    {
      "anonymous": false,
      "inputs": [
        {
          "indexed": true,
          "internalType": "address",
          "name": "node",
          "type": "address"
        },
        {
          "indexed": false,
          "internalType": "uint256",
          "name": "amount",
          "type": "uint256"
        }
      ],
      "name": "NodeSlashed",
      "type": "event"
    },
    {
      "anonymous": false,
      "inputs": [
        {
          "indexed": true,
          "internalType": "address",
          "name": "node",
          "type": "address"
        },
        {
          "indexed": false,
          "internalType": "uint256",
          "name": "stakeAmount",
          "type": "uint256"
        }
      ],
      "name": "OracleNodeRegistered",
      "type": "event"
    },
    {
      "anonymous": false,
      "inputs": [
        {
          "indexed": true,
          "internalType": "address",
          "name": "node",
          "type": "address"
        },
        {
          "indexed": false,
          "internalType": "uint256",
          "name": "penalty",
          "type": "uint256"
        }
      ],
      "name": "OracleNodeSlashed",
      "type": "event"
    },
    {
      "anonymous": false,
      "inputs": [
        {
          "indexed": true,
          "internalType": "address",
          "name": "previousOwner",
          "type": "address"
        },
        {
          "indexed": true,
          "internalType": "address",
          "name": "newOwner",
          "type": "address"
        }
      ],
      "name": "OwnershipTransferred",
      "type": "event"
    },
    {
      "anonymous": false,
      "inputs": [
        {
          "indexed": true,
          "internalType": "address",
          "name": "farmer",
          "type": "address"
        },
        {
          "indexed": true,
          "internalType": "bytes32",
          "name": "analyticsId",
          "type": "bytes32"
        },
        {
          "indexed": false,
          "internalType": "uint256",
          "name": "predictedYield",
          "type": "uint256"
        },
        {
          "indexed": false,
          "internalType": "uint256",
          "name": "confidence",
          "type": "uint256"
        }
      ],
      "name": "PredictiveAnalyticsGenerated",
      "type": "event"
    },
    {
      "anonymous": false,
      "inputs": [
        {
          "indexed": true,
          "internalType": "address",
          "name": "recipient",
          "type": "address"
        },
        {
          "indexed": false,
          "internalType": "uint256",
          "name": "amount",
          "type": "uint256"
        }
      ],
      "name": "RewardMinted",
      "type": "event"
    },
    {
      "anonymous": false,
      "inputs": [
        {
          "indexed": true,
          "internalType": "address",
          "name": "token",
          "type": "address"
        }
      ],
      "name": "RewardTokenSet",
      "type": "event"
    },
    {
      "anonymous": false,
      "inputs": [
        {
          "indexed": true,
          "internalType": "address",
          "name": "implementation",
          "type": "address"
        }
      ],
      "name": "Upgraded",
      "type": "event"
    },
    {
      "inputs": [],
      "name": "UPGRADE_INTERFACE_VERSION",
      "outputs": [
        {
          "internalType": "string",
          "name": "",
          "type": "string"
        }
      ],
      "stateMutability": "view",
      "type": "function"
    },
    {
      "inputs": [
        {
          "internalType": "uint256",
          "name": "",
          "type": "uint256"
        }
      ],
      "name": "activeModels",
      "outputs": [
        {
          "internalType": "bytes32",
          "name": "",
          "type": "bytes32"
        }
      ],
      "stateMutability": "view",
      "type": "function"
    },
    {
      "inputs": [
        {
          "internalType": "uint256",
          "name": "",
          "type": "uint256"
        }
      ],
      "name": "activeNodes",
      "outputs": [
        {
          "internalType": "address",
          "name": "",
          "type": "address"
        }
      ],
      "stateMutability": "view",
      "type": "function"
    },
    {
      "inputs": [
        {
          "internalType": "uint256",
          "name": "chainId",
          "type": "uint256"
        },
        {
          "internalType": "address",
          "name": "remoteOracle",
          "type": "address"
        }
      ],
      "name": "addCrossChainOracle",
      "outputs": [],
      "stateMutability": "nonpayable",
      "type": "function"
    },
    {
      "inputs": [
        {
          "internalType": "bytes32",
          "name": "",
          "type": "bytes32"
        }
      ],
      "name": "aiModels",
      "outputs": [
        {
          "internalType": "string",
          "name": "name",
          "type": "string"
        },
        {
          "internalType": "string",
          "name": "version",
          "type": "string"
        },
        {
          "internalType": "bytes32",
          "name": "modelHash",
          "type": "bytes32"
        },
        {
          "internalType": "uint256",
          "name": "accuracy",
          "type": "uint256"
        },
        {
          "internalType": "uint256",
          "name": "lastUpdated",
          "type": "uint256"
        },
        {
          "internalType": "address",
          "name": "maintainer",
          "type": "address"
        },
        {
          "internalType": "bool",
          "name": "active",
          "type": "bool"
        },
        {
          "internalType": "uint256",
          "name": "totalPredictions",
          "type": "uint256"
        },
        {
          "internalType": "uint256",
          "name": "successfulPredictions",
          "type": "uint256"
        }
      ],
      "stateMutability": "view",
      "type": "function"
    },
    {
      "inputs": [
        {
          "internalType": "bytes32",
          "name": "",
          "type": "bytes32"
        }
      ],
      "name": "automatedDecisions",
      "outputs": [
        {
          "internalType": "bytes32",
          "name": "decisionId",
          "type": "bytes32"
        },
        {
          "internalType": "string",
          "name": "decisionType",
          "type": "string"
        },
        {
          "internalType": "uint256",
          "name": "confidence",
          "type": "uint256"
        },
        {
          "internalType": "uint256",
          "name": "riskLevel",
          "type": "uint256"
        },
        {
          "internalType": "uint256",
          "name": "recommendedAction",
          "type": "uint256"
        },
        {
          "internalType": "uint256",
          "name": "timestamp",
          "type": "uint256"
        },
        {
          "internalType": "address",
          "name": "farmer",
          "type": "address"
        },
        {
          "internalType": "bool",
          "name": "executed",
          "type": "bool"
        }
      ],
      "stateMutability": "view",
      "type": "function"
    },
    {
      "inputs": [
        {
          "internalType": "address",
          "name": "node",
          "type": "address"
        }
      ],
      "name": "calculateNodeReputation",
      "outputs": [
        {
          "internalType": "uint256",
          "name": "",
          "type": "uint256"
        }
      ],
      "stateMutability": "view",
      "type": "function"
    },
    {
      "inputs": [],
      "name": "consensusThreshold",
      "outputs": [
        {
          "internalType": "uint256",
          "name": "",
          "type": "uint256"
        }
      ],
      "stateMutability": "view",
      "type": "function"
    },
    {
      "inputs": [
        {
          "internalType": "uint256",
          "name": "",
          "type": "uint256"
        }
      ],
      "name": "crossChainOracles",
      "outputs": [
        {
          "internalType": "uint256",
          "name": "chainId",
          "type": "uint256"
        },
        {
          "internalType": "address",
          "name": "remoteOracle",
          "type": "address"
        },
        {
          "internalType": "uint256",
          "name": "trustScore",
          "type": "uint256"
        },
        {
          "internalType": "bool",
          "name": "active",
          "type": "bool"
        },
        {
          "internalType": "uint256",
          "name": "lastSyncTime",
          "type": "uint256"
        }
      ],
      "stateMutability": "view",
      "type": "function"
    },
    {
      "inputs": [
        {
          "internalType": "bytes32",
          "name": "",
          "type": "bytes32"
        }
      ],
      "name": "dataFeeds",
      "outputs": [
        {
          "internalType": "enum DecentralizedOracle.DataType",
          "name": "dataType",
          "type": "uint8"
        },
        {
          "internalType": "string",
          "name": "location",
          "type": "string"
        },
        {
          "internalType": "string",
          "name": "parameters",
          "type": "string"
        },
        {
          "internalType": "uint256",
          "name": "timestamp",
          "type": "uint256"
        },
        {
          "internalType": "uint256",
          "name": "value",
          "type": "uint256"
        },
        {
          "internalType": "uint256",
          "name": "confidence",
          "type": "uint256"
        },
        {
          "internalType": "address",
          "name": "submittedBy",
          "type": "address"
        },
        {
          "internalType": "uint256",
          "name": "validations",
          "type": "uint256"
        },
        {
          "internalType": "uint256",
          "name": "totalReputation",
          "type": "uint256"
        },
        {
          "internalType": "bool",
          "name": "finalized",
          "type": "bool"
        }
      ],
      "stateMutability": "view",
      "type": "function"
    },
    {
      "inputs": [
        {
          "internalType": "bytes32",
          "name": "modelId",
          "type": "bytes32"
        }
      ],
      "name": "deactivateAIModel",
      "outputs": [],
      "stateMutability": "nonpayable",
      "type": "function"
    },
    {
      "inputs": [],
      "name": "emergencyPause",
      "outputs": [],
      "stateMutability": "nonpayable",
      "type": "function"
    },
    {
      "inputs": [],
      "name": "emergencyUnpause",
      "outputs": [],
      "stateMutability": "nonpayable",
      "type": "function"
    },
    {
      "inputs": [
        {
          "internalType": "bytes32",
          "name": "_decisionId",
          "type": "bytes32"
        }
      ],
      "name": "executeAutomatedDecision",
      "outputs": [],
      "stateMutability": "nonpayable",
      "type": "function"
    },
    {
      "inputs": [
        {
          "internalType": "address",
          "name": "",
          "type": "address"
        },
        {
          "internalType": "uint256",
          "name": "",
          "type": "uint256"
        }
      ],
      "name": "farmerAnalytics",
      "outputs": [
        {
          "internalType": "bytes32",
          "name": "analyticsId",
          "type": "bytes32"
        },
        {
          "internalType": "string",
          "name": "cropType",
          "type": "string"
        },
        {
          "internalType": "string",
          "name": "location",
          "type": "string"
        },
        {
          "internalType": "uint256",
          "name": "predictedYield",
          "type": "uint256"
        },
        {
          "internalType": "uint256",
          "name": "weatherRisk",
          "type": "uint256"
        },
        {
          "internalType": "uint256",
          "name": "marketPrice",
          "type": "uint256"
        },
        {
          "internalType": "uint256",
          "name": "optimalHarvestTime",
          "type": "uint256"
        },
        {
          "internalType": "uint256",
          "name": "confidence",
          "type": "uint256"
        },
        {
          "internalType": "uint256",
          "name": "timestamp",
          "type": "uint256"
        }
      ],
      "stateMutability": "view",
      "type": "function"
    },
    {
      "inputs": [
        {
          "internalType": "bytes32",
          "name": "",
          "type": "bytes32"
        },
        {
          "internalType": "uint256",
          "name": "",
          "type": "uint256"
        }
      ],
      "name": "feedValidations",
      "outputs": [
        {
          "internalType": "address",
          "name": "validator",
          "type": "address"
        },
        {
          "internalType": "uint256",
          "name": "value",
          "type": "uint256"
        },
        {
          "internalType": "uint256",
          "name": "timestamp",
          "type": "uint256"
        },
        {
          "internalType": "uint256",
          "name": "reputation",
          "type": "uint256"
        }
      ],
      "stateMutability": "view",
      "type": "function"
    },
    {
      "inputs": [
        {
          "internalType": "address",
          "name": "_farmer",
          "type": "address"
        },
        {
          "internalType": "string",
          "name": "_cropType",
          "type": "string"
        },
        {
          "internalType": "string",
          "name": "_location",
          "type": "string"
        }
      ],
      "name": "generatePredictiveAnalytics",
      "outputs": [
        {
          "internalType": "bytes32",
          "name": "analyticsId",
          "type": "bytes32"
        }
      ],
      "stateMutability": "nonpayable",
      "type": "function"
    },
    {
      "inputs": [
        {
          "internalType": "bytes32",
          "name": "modelId",
          "type": "bytes32"
        }
      ],
      "name": "getAIModel",
      "outputs": [
        {
          "components": [
            {
              "internalType": "string",
              "name": "name",
              "type": "string"
            },
            {
              "internalType": "string",
              "name": "version",
              "type": "string"
            },
            {
              "internalType": "bytes32",
              "name": "modelHash",
              "type": "bytes32"
            },
            {
              "internalType": "uint256",
              "name": "accuracy",
              "type": "uint256"
            },
            {
              "internalType": "uint256",
              "name": "lastUpdated",
              "type": "uint256"
            },
            {
              "internalType": "address",
              "name": "maintainer",
              "type": "address"
            },
            {
              "internalType": "bool",
              "name": "active",
              "type": "bool"
            },
            {
              "internalType": "uint256",
              "name": "totalPredictions",
              "type": "uint256"
            },
            {
              "internalType": "uint256",
              "name": "successfulPredictions",
              "type": "uint256"
            }
          ],
          "internalType": "struct DecentralizedOracle.AIModel",
          "name": "",
          "type": "tuple"
        }
      ],
      "stateMutability": "view",
      "type": "function"
    },
    {
      "inputs": [],
      "name": "getActiveNodes",
      "outputs": [
        {
          "internalType": "address[]",
          "name": "",
          "type": "address[]"
        }
      ],
      "stateMutability": "view",
      "type": "function"
    },
    {
      "inputs": [
        {
          "internalType": "bytes32",
          "name": "_decisionId",
          "type": "bytes32"
        }
      ],
      "name": "getAutomatedDecision",
      "outputs": [
        {
          "components": [
            {
              "internalType": "bytes32",
              "name": "decisionId",
              "type": "bytes32"
            },
            {
              "internalType": "string",
              "name": "decisionType",
              "type": "string"
            },
            {
              "internalType": "uint256",
              "name": "confidence",
              "type": "uint256"
            },
            {
              "internalType": "uint256",
              "name": "riskLevel",
              "type": "uint256"
            },
            {
              "internalType": "uint256",
              "name": "recommendedAction",
              "type": "uint256"
            },
            {
              "internalType": "uint256",
              "name": "timestamp",
              "type": "uint256"
            },
            {
              "internalType": "address",
              "name": "farmer",
              "type": "address"
            },
            {
              "internalType": "bool",
              "name": "executed",
              "type": "bool"
            }
          ],
          "internalType": "struct DecentralizedOracle.AutomatedDecision",
          "name": "",
          "type": "tuple"
        }
      ],
      "stateMutability": "view",
      "type": "function"
    },
    {
      "inputs": [
        {
          "internalType": "uint256",
          "name": "chainId",
          "type": "uint256"
        }
      ],
      "name": "getCrossChainOracle",
      "outputs": [
        {
          "components": [
            {
              "internalType": "uint256",
              "name": "chainId",
              "type": "uint256"
            },
            {
              "internalType": "address",
              "name": "remoteOracle",
              "type": "address"
            },
            {
              "internalType": "uint256",
              "name": "trustScore",
              "type": "uint256"
            },
            {
              "internalType": "bool",
              "name": "active",
              "type": "bool"
            },
            {
              "internalType": "uint256",
              "name": "lastSyncTime",
              "type": "uint256"
            }
          ],
          "internalType": "struct DecentralizedOracle.CrossChainOracle",
          "name": "",
          "type": "tuple"
        }
      ],
      "stateMutability": "view",
      "type": "function"
    },
    {
      "inputs": [
        {
          "internalType": "bytes32",
          "name": "_feedId",
          "type": "bytes32"
        }
      ],
      "name": "getDataFeed",
      "outputs": [
        {
          "components": [
            {
              "internalType": "enum DecentralizedOracle.DataType",
              "name": "dataType",
              "type": "uint8"
            },
            {
              "internalType": "string",
              "name": "location",
              "type": "string"
            },
            {
              "internalType": "string",
              "name": "parameters",
              "type": "string"
            },
            {
              "internalType": "uint256",
              "name": "timestamp",
              "type": "uint256"
            },
            {
              "internalType": "uint256",
              "name": "value",
              "type": "uint256"
            },
            {
              "internalType": "uint256",
              "name": "confidence",
              "type": "uint256"
            },
            {
              "internalType": "address",
              "name": "submittedBy",
              "type": "address"
            },
            {
              "internalType": "uint256",
              "name": "validations",
              "type": "uint256"
            },
            {
              "internalType": "uint256",
              "name": "totalReputation",
              "type": "uint256"
            },
            {
              "internalType": "bool",
              "name": "finalized",
              "type": "bool"
            }
          ],
          "internalType": "struct DecentralizedOracle.DataFeed",
          "name": "",
          "type": "tuple"
        }
      ],
      "stateMutability": "view",
      "type": "function"
    },
    {
      "inputs": [
        {
          "internalType": "bytes32",
          "name": "_feedId",
          "type": "bytes32"
        }
      ],
      "name": "getDataValidations",
      "outputs": [
        {
          "components": [
            {
              "internalType": "address",
              "name": "validator",
              "type": "address"
            },
            {
              "internalType": "uint256",
              "name": "value",
              "type": "uint256"
            },
            {
              "internalType": "uint256",
              "name": "timestamp",
              "type": "uint256"
            },
            {
              "internalType": "uint256",
              "name": "reputation",
              "type": "uint256"
            }
          ],
          "internalType": "struct DecentralizedOracle.Validation[]",
          "name": "",
          "type": "tuple[]"
        }
      ],
      "stateMutability": "view",
      "type": "function"
    },
    {
      "inputs": [
        {
          "internalType": "address",
          "name": "_farmer",
          "type": "address"
        }
      ],
      "name": "getFarmerAnalytics",
      "outputs": [
        {
          "components": [
            {
              "internalType": "bytes32",
              "name": "analyticsId",
              "type": "bytes32"
            },
            {
              "internalType": "string",
              "name": "cropType",
              "type": "string"
            },
            {
              "internalType": "string",
              "name": "location",
              "type": "string"
            },
            {
              "internalType": "uint256",
              "name": "predictedYield",
              "type": "uint256"
            },
            {
              "internalType": "uint256",
              "name": "weatherRisk",
              "type": "uint256"
            },
            {
              "internalType": "uint256",
              "name": "marketPrice",
              "type": "uint256"
            },
            {
              "internalType": "uint256",
              "name": "optimalHarvestTime",
              "type": "uint256"
            },
            {
              "internalType": "uint256",
              "name": "confidence",
              "type": "uint256"
            },
            {
              "internalType": "uint256",
              "name": "timestamp",
              "type": "uint256"
            }
          ],
          "internalType": "struct DecentralizedOracle.PredictiveAnalytics[]",
          "name": "",
          "type": "tuple[]"
        }
      ],
      "stateMutability": "view",
      "type": "function"
    },
    {
      "inputs": [
        {
          "internalType": "address",
          "name": "_farmer",
          "type": "address"
        }
      ],
      "name": "getLatestAnalytics",
      "outputs": [
        {
          "components": [
            {
              "internalType": "bytes32",
              "name": "analyticsId",
              "type": "bytes32"
            },
            {
              "internalType": "string",
              "name": "cropType",
              "type": "string"
            },
            {
              "internalType": "string",
              "name": "location",
              "type": "string"
            },
            {
              "internalType": "uint256",
              "name": "predictedYield",
              "type": "uint256"
            },
            {
              "internalType": "uint256",
              "name": "weatherRisk",
              "type": "uint256"
            },
            {
              "internalType": "uint256",
              "name": "marketPrice",
              "type": "uint256"
            },
            {
              "internalType": "uint256",
              "name": "optimalHarvestTime",
              "type": "uint256"
            },
            {
              "internalType": "uint256",
              "name": "confidence",
              "type": "uint256"
            },
            {
              "internalType": "uint256",
              "name": "timestamp",
              "type": "uint256"
            }
          ],
          "internalType": "struct DecentralizedOracle.PredictiveAnalytics",
          "name": "",
          "type": "tuple"
        }
      ],
      "stateMutability": "view",
      "type": "function"
    },
    {
      "inputs": [
        {
          "internalType": "enum DecentralizedOracle.DataType",
          "name": "_dataType",
          "type": "uint8"
        },
        {
          "internalType": "string",
          "name": "_location",
          "type": "string"
        },
        {
          "internalType": "string",
          "name": "_parameters",
          "type": "string"
        }
      ],
      "name": "getLatestData",
      "outputs": [
        {
          "internalType": "uint256",
          "name": "value",
          "type": "uint256"
        },
        {
          "internalType": "uint256",
          "name": "confidence",
          "type": "uint256"
        },
        {
          "internalType": "uint256",
          "name": "timestamp",
          "type": "uint256"
        }
      ],
      "stateMutability": "view",
      "type": "function"
    },
    {
      "inputs": [
        {
          "internalType": "bytes32",
          "name": "modelId",
          "type": "bytes32"
        }
      ],
      "name": "getModelPredictions",
      "outputs": [
        {
          "components": [
            {
              "internalType": "bytes32",
              "name": "feedId",
              "type": "bytes32"
            },
            {
              "internalType": "uint256",
              "name": "predictedValue",
              "type": "uint256"
            },
            {
              "internalType": "uint256",
              "name": "confidence",
              "type": "uint256"
            },
            {
              "internalType": "uint256",
              "name": "timestamp",
              "type": "uint256"
            },
            {
              "internalType": "address",
              "name": "modelUsed",
              "type": "address"
            },
            {
              "internalType": "bool",
              "name": "validated",
              "type": "bool"
            },
            {
              "internalType": "uint256",
              "name": "actualValue",
              "type": "uint256"
            }
          ],
          "internalType": "struct DecentralizedOracle.Prediction[]",
          "name": "",
          "type": "tuple[]"
        }
      ],
      "stateMutability": "view",
      "type": "function"
    },
    {
      "inputs": [
        {
          "internalType": "address",
          "name": "_node",
          "type": "address"
        }
      ],
      "name": "getNodeReputation",
      "outputs": [
        {
          "internalType": "uint256",
          "name": "",
          "type": "uint256"
        }
      ],
      "stateMutability": "view",
      "type": "function"
    },
    {
      "inputs": [
        {
          "internalType": "address",
          "name": "_node",
          "type": "address"
        }
      ],
      "name": "getOracleNode",
      "outputs": [
        {
          "components": [
            {
              "internalType": "address",
              "name": "nodeAddress",
              "type": "address"
            },
            {
              "internalType": "uint256",
              "name": "reputation",
              "type": "uint256"
            },
            {
              "internalType": "uint256",
              "name": "totalSubmissions",
              "type": "uint256"
            },
            {
              "internalType": "uint256",
              "name": "successfulSubmissions",
              "type": "uint256"
            },
            {
              "internalType": "bool",
              "name": "active",
              "type": "bool"
            },
            {
              "internalType": "uint256",
              "name": "stakeAmount",
              "type": "uint256"
            },
            {
              "internalType": "uint256",
              "name": "lastSubmissionTime",
              "type": "uint256"
            }
          ],
          "internalType": "struct DecentralizedOracle.OracleNode",
          "name": "",
          "type": "tuple"
        }
      ],
      "stateMutability": "view",
      "type": "function"
    },
    {
      "inputs": [],
      "name": "getSupportedChains",
      "outputs": [
        {
          "internalType": "uint256[]",
          "name": "",
          "type": "uint256[]"
        }
      ],
      "stateMutability": "view",
      "type": "function"
    },
    {
      "inputs": [
        {
          "internalType": "address",
          "name": "_rewardToken",
          "type": "address"
        }
      ],
      "name": "initialize",
      "outputs": [],
      "stateMutability": "nonpayable",
      "type": "function"
    },
    {
      "inputs": [
        {
          "internalType": "string",
          "name": "_decisionType",
          "type": "string"
        },
        {
          "internalType": "address",
          "name": "_farmer",
          "type": "address"
        },
        {
          "internalType": "bytes32",
          "name": "_feedId",
          "type": "bytes32"
        }
      ],
      "name": "makeAutomatedDecision",
      "outputs": [
        {
          "internalType": "bytes32",
          "name": "decisionId",
          "type": "bytes32"
        }
      ],
      "stateMutability": "nonpayable",
      "type": "function"
    },
    {
      "inputs": [],
      "name": "maxReputation",
      "outputs": [
        {
          "internalType": "uint256",
          "name": "",
          "type": "uint256"
        }
      ],
      "stateMutability": "view",
      "type": "function"
    },
    {
      "inputs": [],
      "name": "minReputation",
      "outputs": [
        {
          "internalType": "uint256",
          "name": "",
          "type": "uint256"
        }
      ],
      "stateMutability": "view",
      "type": "function"
    },
    {
      "inputs": [],
      "name": "minStakeAmount",
      "outputs": [
        {
          "internalType": "uint256",
          "name": "",
          "type": "uint256"
        }
      ],
      "stateMutability": "view",
      "type": "function"
    },
    {
      "inputs": [],
      "name": "minValidations",
      "outputs": [
        {
          "internalType": "uint256",
          "name": "",
          "type": "uint256"
        }
      ],
      "stateMutability": "view",
      "type": "function"
    },
    {
      "inputs": [
        {
          "internalType": "bytes32",
          "name": "",
          "type": "bytes32"
        },
        {
          "internalType": "uint256",
          "name": "",
          "type": "uint256"
        }
      ],
      "name": "modelPredictions",
      "outputs": [
        {
          "internalType": "bytes32",
          "name": "feedId",
          "type": "bytes32"
        },
        {
          "internalType": "uint256",
          "name": "predictedValue",
          "type": "uint256"
        },
        {
          "internalType": "uint256",
          "name": "confidence",
          "type": "uint256"
        },
        {
          "internalType": "uint256",
          "name": "timestamp",
          "type": "uint256"
        },
        {
          "internalType": "address",
          "name": "modelUsed",
          "type": "address"
        },
        {
          "internalType": "bool",
          "name": "validated",
          "type": "bool"
        },
        {
          "internalType": "uint256",
          "name": "actualValue",
          "type": "uint256"
        }
      ],
      "stateMutability": "view",
      "type": "function"
    },
    {
      "inputs": [
        {
          "internalType": "address",
          "name": "",
          "type": "address"
        }
      ],
      "name": "nodeStakes",
      "outputs": [
        {
          "internalType": "uint256",
          "name": "",
          "type": "uint256"
        }
      ],
      "stateMutability": "view",
      "type": "function"
    },
    {
      "inputs": [
        {
          "internalType": "address",
          "name": "",
          "type": "address"
        }
      ],
      "name": "oracleNodes",
      "outputs": [
        {
          "internalType": "address",
          "name": "nodeAddress",
          "type": "address"
        },
        {
          "internalType": "uint256",
          "name": "reputation",
          "type": "uint256"
        },
        {
          "internalType": "uint256",
          "name": "totalSubmissions",
          "type": "uint256"
        },
        {
          "internalType": "uint256",
          "name": "successfulSubmissions",
          "type": "uint256"
        },
        {
          "internalType": "bool",
          "name": "active",
          "type": "bool"
        },
        {
          "internalType": "uint256",
          "name": "stakeAmount",
          "type": "uint256"
        },
        {
          "internalType": "uint256",
          "name": "lastSubmissionTime",
          "type": "uint256"
        }
      ],
      "stateMutability": "view",
      "type": "function"
    },
    {
      "inputs": [],
      "name": "owner",
      "outputs": [
        {
          "internalType": "address",
          "name": "",
          "type": "address"
        }
      ],
      "stateMutability": "view",
      "type": "function"
    },
    {
      "inputs": [],
      "name": "predictionReward",
      "outputs": [
        {
          "internalType": "uint256",
          "name": "",
          "type": "uint256"
        }
      ],
      "stateMutability": "view",
      "type": "function"
    },
    {
      "inputs": [],
      "name": "proxiableUUID",
      "outputs": [
        {
          "internalType": "bytes32",
          "name": "",
          "type": "bytes32"
        }
      ],
      "stateMutability": "view",
      "type": "function"
    },
    {
      "inputs": [
        {
          "internalType": "string",
          "name": "name",
          "type": "string"
        },
        {
          "internalType": "string",
          "name": "version",
          "type": "string"
        },
        {
          "internalType": "bytes32",
          "name": "modelHash",
          "type": "bytes32"
        },
        {
          "internalType": "uint256",
          "name": "initialAccuracy",
          "type": "uint256"
        }
      ],
      "name": "registerAIModel",
      "outputs": [
        {
          "internalType": "bytes32",
          "name": "",
          "type": "bytes32"
        }
      ],
      "stateMutability": "nonpayable",
      "type": "function"
    },
    {
      "inputs": [],
      "name": "registerOracleNode",
      "outputs": [],
      "stateMutability": "payable",
      "type": "function"
    },
    {
      "inputs": [],
      "name": "renounceOwnership",
      "outputs": [],
      "stateMutability": "nonpayable",
      "type": "function"
    },
    {
      "inputs": [],
      "name": "reputationThreshold",
      "outputs": [
        {
          "internalType": "uint256",
          "name": "",
          "type": "uint256"
        }
      ],
      "stateMutability": "view",
      "type": "function"
    },
    {
      "inputs": [],
      "name": "rewardToken",
      "outputs": [
        {
          "internalType": "address",
          "name": "",
          "type": "address"
        }
      ],
      "stateMutability": "view",
      "type": "function"
    },
    {
      "inputs": [
        {
          "internalType": "address",
          "name": "_token",
          "type": "address"
        }
      ],
      "name": "setRewardToken",
      "outputs": [],
      "stateMutability": "nonpayable",
      "type": "function"
    },
    {
      "inputs": [],
      "name": "slashingPenalty",
      "outputs": [
        {
          "internalType": "uint256",
          "name": "",
          "type": "uint256"
        }
      ],
      "stateMutability": "view",
      "type": "function"
    },
    {
      "inputs": [
        {
          "internalType": "bytes32",
          "name": "modelId",
          "type": "bytes32"
        },
        {
          "internalType": "enum DecentralizedOracle.DataType",
          "name": "dataType",
          "type": "uint8"
        },
        {
          "internalType": "string",
          "name": "location",
          "type": "string"
        },
        {
          "internalType": "string",
          "name": "parameters",
          "type": "string"
        },
        {
          "internalType": "uint256",
          "name": "predictedValue",
          "type": "uint256"
        },
        {
          "internalType": "uint256",
          "name": "confidence",
          "type": "uint256"
        }
      ],
      "name": "submitAIPrediction",
      "outputs": [],
      "stateMutability": "nonpayable",
      "type": "function"
    },
    {
      "inputs": [
        {
          "internalType": "enum DecentralizedOracle.DataType",
          "name": "_dataType",
          "type": "uint8"
        },
        {
          "internalType": "string",
          "name": "_location",
          "type": "string"
        },
        {
          "internalType": "string",
          "name": "_parameters",
          "type": "string"
        },
        {
          "internalType": "uint256",
          "name": "_value",
          "type": "uint256"
        },
        {
          "internalType": "uint256",
          "name": "_confidence",
          "type": "uint256"
        }
      ],
      "name": "submitData",
      "outputs": [
        {
          "internalType": "bytes32",
          "name": "",
          "type": "bytes32"
        }
      ],
      "stateMutability": "nonpayable",
      "type": "function"
    },
    {
      "inputs": [
        {
          "internalType": "string",
          "name": "_deviceId",
          "type": "string"
        },
        {
          "internalType": "enum DecentralizedOracle.DataType",
          "name": "_dataType",
          "type": "uint8"
        },
        {
          "internalType": "string",
          "name": "_location",
          "type": "string"
        },
        {
          "internalType": "string",
          "name": "_sensorData",
          "type": "string"
        },
        {
          "internalType": "bytes",
          "name": "_signature",
          "type": "bytes"
        }
      ],
      "name": "submitIoTData",
      "outputs": [
        {
          "internalType": "bytes32",
          "name": "",
          "type": "bytes32"
        }
      ],
      "stateMutability": "nonpayable",
      "type": "function"
    },
    {
      "inputs": [
        {
          "internalType": "uint256",
          "name": "",
          "type": "uint256"
        }
      ],
      "name": "supportedChains",
      "outputs": [
        {
          "internalType": "uint256",
          "name": "",
          "type": "uint256"
        }
      ],
      "stateMutability": "view",
      "type": "function"
    },
    {
      "inputs": [
        {
          "internalType": "uint256",
          "name": "_chainId",
          "type": "uint256"
        },
        {
          "internalType": "bytes32",
          "name": "_modelId",
          "type": "bytes32"
        },
        {
          "internalType": "bytes",
          "name": "_data",
          "type": "bytes"
        }
      ],
      "name": "syncCrossChainAIData",
      "outputs": [],
      "stateMutability": "nonpayable",
      "type": "function"
    },
    {
      "inputs": [
        {
          "internalType": "uint256",
          "name": "chainId",
          "type": "uint256"
        },
        {
          "internalType": "bytes32",
          "name": "feedId",
          "type": "bytes32"
        },
        {
          "internalType": "uint256",
          "name": "value",
          "type": "uint256"
        },
        {
          "internalType": "uint256",
          "name": "confidence",
          "type": "uint256"
        }
      ],
      "name": "syncCrossChainData",
      "outputs": [],
      "stateMutability": "nonpayable",
      "type": "function"
    },
    {
      "inputs": [],
      "name": "totalStaked",
      "outputs": [
        {
          "internalType": "uint256",
          "name": "",
          "type": "uint256"
        }
      ],
      "stateMutability": "view",
      "type": "function"
    },
    {
      "inputs": [
        {
          "internalType": "address",
          "name": "newOwner",
          "type": "address"
        }
      ],
      "name": "transferOwnership",
      "outputs": [],
      "stateMutability": "nonpayable",
      "type": "function"
    },
    {
      "inputs": [],
      "name": "unregisterOracleNode",
      "outputs": [],
      "stateMutability": "nonpayable",
      "type": "function"
    },
    {
      "inputs": [
        {
          "internalType": "uint256",
          "name": "_predictionReward",
          "type": "uint256"
        },
        {
          "internalType": "uint256",
          "name": "_validationReward",
          "type": "uint256"
        }
      ],
      "name": "updateAIParameters",
      "outputs": [],
      "stateMutability": "nonpayable",
      "type": "function"
    },
    {
      "inputs": [
        {
          "internalType": "uint256",
          "name": "_consensusThreshold",
          "type": "uint256"
        },
        {
          "internalType": "uint256",
          "name": "_minValidations",
          "type": "uint256"
        },
        {
          "internalType": "uint256",
          "name": "_validationPeriod",
          "type": "uint256"
        }
      ],
      "name": "updateConsensusParameters",
      "outputs": [],
      "stateMutability": "nonpayable",
      "type": "function"
    },
    {
      "inputs": [
        {
          "internalType": "uint256",
          "name": "_maxReputation",
          "type": "uint256"
        },
        {
          "internalType": "uint256",
          "name": "_minReputation",
          "type": "uint256"
        }
      ],
      "name": "updateReputationParameters",
      "outputs": [],
      "stateMutability": "nonpayable",
      "type": "function"
    },
    {
      "inputs": [
        {
          "internalType": "uint256",
          "name": "_minStakeAmount",
          "type": "uint256"
        },
        {
          "internalType": "uint256",
          "name": "_slashingPenalty",
          "type": "uint256"
        }
      ],
      "name": "updateStakingParameters",
      "outputs": [],
      "stateMutability": "nonpayable",
      "type": "function"
    },
    {
      "inputs": [
        {
          "internalType": "address",
          "name": "newImplementation",
          "type": "address"
        },
        {
          "internalType": "bytes",
          "name": "data",
          "type": "bytes"
        }
      ],
      "name": "upgradeToAndCall",
      "outputs": [],
      "stateMutability": "payable",
      "type": "function"
    },
    {
      "inputs": [
        {
          "internalType": "bytes32",
          "name": "modelId",
          "type": "bytes32"
        },
        {
          "internalType": "uint256",
          "name": "predictionIndex",
          "type": "uint256"
        },
        {
          "internalType": "uint256",
          "name": "actualValue",
          "type": "uint256"
        }
      ],
      "name": "validateAIPrediction",
      "outputs": [],
      "stateMutability": "nonpayable",
      "type": "function"
    },
    {
      "inputs": [],
      "name": "validationPeriod",
      "outputs": [
        {
          "internalType": "uint256",
          "name": "",
          "type": "uint256"
        }
      ],
      "stateMutability": "view",
      "type": "function"
    },
    {
      "inputs": [],
      "name": "validationReward",
      "outputs": [
        {
          "internalType": "uint256",
          "name": "",
          "type": "uint256"
        }
      ],
      "stateMutability": "view",
      "type": "function"
    }
  ],
  "bytecode": "0x60a0806040523460735730608052683635c9adc5dea000006009556064600a556032600b55678ac7230489e80000600c55674563918244f40000600d556103e8601155606460125560466013556003601455610e10601555616b79908161007982396080518181816138750152613a510152f35b600080fdfe6080604052600436101561001257600080fd5b60003560e01c806310b14a8d146140a457806311edb679146140855780631d22899b1461406757806324f1055214613fde57806326fb7e3414613fc05780632849463e14613f375780632ff02e1b14613e615780634637de0b14613cb65780634a4e3bd5146139fa5780634f1ef28614613a1357806351858e27146139fa57806351de39f1146138ef57806352d1902d1461385a57806352ee0b77146137dc578063548d496f146137b35780635a03452a146136875780635bb4f7b61461364f5780635d9346bf146131f65780636338798c146131855780636357365b1461311f57806367a7cfb71461304a578063680038c71461302c5780636b51e91914612f605780636cf537f814612dff578063702e1fc114612dc25780637103029714612d06578063715018a614612c6d5780637199fe5b14612b4857806374339097146129e957806376222663146129ca5780637f9a9fc31461287c578063817b1cd21461285e578063846f3a8f1461274e57806389f1ea64146127305780638aee8127146126cd5780638cf86deb146126af5780638da5cb5b146126695780638dee95e61461245a5780638e8690bf1461242257806391a045521461240457806396f9d983146123c357806399c5b5bd1461227157806399cb1f1214611afb578063a302a39914611a35578063a8aac0fa146119fb578063a8d4c232146119d0578063a8ecc0bd146119a3578063aae91b041461115d578063ad3cb1cc146110fa578063ad70fa591461105b578063b375afb514610f5f578063bb33ce7114610d4b578063c4bffe2b14610c91578063c4d66de814610a73578063cffbb35214610774578063d410e8ba14610756578063d91ef54414610737578063e3958250146106d1578063ef7f0ab6146106b3578063f01d0e2714610571578063f188768414610553578063f2fde38b14610528578063f7c618c114610501578063f9b0b5b9146104e3578063fbf3a539146103b45763fd0875d8146102f257600080fd5b346103af5760203660031901126103af576004356000526004602052610368604060002061031f81614526565b9061032c60018201614526565b60028201549160ff6003820154600483015460058401549161037660076006870154960154966040519a8b9a6101208c526101208c01906145ed565b908a820360208c01526145ed565b966040890152606088015260808701526001600160a01b03811660a087015260a01c16151560c085015260e08401526101008301520390f35b600080fd5b346103af5760603660031901126103af5760243560043560443567ffffffffffffffff81116103af576103eb903690600401614417565b5033600052600060205261040960ff60046040600020015416614b1c565b80600052600760205260ff600360406000200154161561049f57816000526004602052604060002060ff600582015460a01c1661046e575b507f7925e5273f9e2c8234b6b8e14997531fc01b413290f3b63451a90cbf131c13156020604051428152a3005b6003018054600181018091116104895760011c905582610441565b634e487b7160e01b600052601160045260246000fd5b606460405162461bcd60e51b815260206004820152601860248201527f52656d6f7465206f7261636c65206e6f742061637469766500000000000000006044820152fd5b346103af5760003660031901126103af576020601354604051908152f35b346103af5760003660031901126103af5760206001600160a01b03600e5416604051908152f35b346103af5760203660031901126103af576105516105446144a4565b61054c616474565b6163b5565b005b346103af5760003660031901126103af576020600954604051908152f35b346103af5760203660031901126103af5760043580600052601660205260406000206006810180546105ad336001600160a01b038316146161f2565b60ff8160a01c1661066f5760466002840154106106055760ff60a01b1916600160a01b179055600401546040519081527f999dcca0465b5b4833d6037a67f7f1c37fcfdac0afb8d9818070d766b000b10090602090a2005b608460405162461bcd60e51b815260206004820152602560248201527f436f6e666964656e636520746f6f206c6f7720666f72206175746f2d6578656360448201527f7574696f6e0000000000000000000000000000000000000000000000000000006064820152fd5b606460405162461bcd60e51b815260206004820152601060248201527f416c7265616479206578656375746564000000000000000000000000000000006044820152fd5b346103af5760003660031901126103af576020601254604051908152f35b346103af576106df3661445c565b906000526003602052604060002080548210156103af57608091610702916146e4565b506001600160a01b03815416906001810154906003600282015491015491604051938452602084015260408301526060820152f35b346103af576107453661445c565b9061074e616474565b601155601255005b346103af5760003660031901126103af576020600b54604051908152f35b346103af5760c03660031901126103af5760243560043560068210156103af5760443567ffffffffffffffff81116103af576107b4903690600401614417565b60643567ffffffffffffffff81116103af576107d4903690600401614417565b906084359360a435926107e56165d2565b84600052600460205260ff60056040600020015460a01c1615610a2f578460005260046020526001600160a01b036005604060002001541633036109eb5761086c9033600052600060205261084460ff60046040600020015416614b1c565b61085e6040519384926020840196610e104204928861473c565b03601f1981018352826143d9565b519020926040519061087d826143bd565b8482526020820192818452604083019281845260608101944286526080820133815260a08301926000845260c08101916000835289600052600660205260406000208054600160401b8110156109d5576108dc91600182018155614472565b9590956109bf577f41c0e8ae785b827542554655b98495069caa24bbedfe9e4e96539492557ace4999604099600596610962955189555160018901555160028801555160038701556001600160a01b038060048801935116166001600160a01b031983541617825551151560ff60a01b1960ff60a01b835492151560a01b169116179055565b51910155846000526004602052600683600020016109808154614b74565b905561098e600c543361654e565b82519182526020820152a360017f9b779b17422d0df92223018b32b4d1fa46e071723d6817e2486d003becc55f0055005b634e487b7160e01b600052600060045260246000fd5b634e487b7160e01b600052604160045260246000fd5b606460405162461bcd60e51b815260206004820152601460248201527f4e6f74206d6f64656c206d61696e7461696e65720000000000000000000000006044820152fd5b606460405162461bcd60e51b815260206004820152601060248201527f4d6f64656c206e6f7420616374697665000000000000000000000000000000006044820152fd5b346103af5760203660031901126103af57610a8c6144a4565b7ff0c57e16840df040f15088dc2f81fe391c3923bec73e23a9662efc9c229c6a005460ff8160401c16159167ffffffffffffffff821680159081610c89575b6001149081610c7f575b159081610c76575b50610c4c5767ffffffffffffffff1982166001177ff0c57e16840df040f15088dc2f81fe391c3923bec73e23a9662efc9c229c6a00556001600160a01b039183610c0d575b50610b2b61699e565b610b3361699e565b610b3c336163b5565b610b4461699e565b610b4c61699e565b60017f9b779b17422d0df92223018b32b4d1fa46e071723d6817e2486d003becc55f0055610b7861699e565b166001600160a01b0319600e541617600e55610b9057005b68ff0000000000000000197ff0c57e16840df040f15088dc2f81fe391c3923bec73e23a9662efc9c229c6a0054167ff0c57e16840df040f15088dc2f81fe391c3923bec73e23a9662efc9c229c6a00557fc7f505b2f371ae2175ee4913f4499e1f2633a7b5936321eed1cdaeb6115181d2602060405160018152a1005b68ffffffffffffffffff191668010000000000000001177ff0c57e16840df040f15088dc2f81fe391c3923bec73e23a9662efc9c229c6a005583610b22565b7ff92ee8a90000000000000000000000000000000000000000000000000000000060005260046000fd5b90501584610add565b303b159150610ad5565b849150610acb565b346103af5760003660031901126103af576040518060206008549283815201809260086000527ff3f7a9fe364faab93b216da50a3214154f22a0a2b415b23a84c8169e8b636ee39060005b818110610d355750505081610cf29103826143d9565b6040519182916020830190602084525180915260408301919060005b818110610d1c575050500390f35b8251845285945060209384019390920191600101610d0e565b8254845260209093019260019283019201610cdc565b60003660031901126103af57610d5f6165d2565b6009543410610f1b5733600052600060205260ff60046040600020015416610ed757604051610d8d816143bd565b3381526006602082016101f481526040830160008152610e1c606085016000815260808601906001825260a087019334855260c0880195600087523360005260006020526001600160a01b038060406000209a5116166001600160a01b03198a5416178955516001890155516002880155516003870155511515600486019060ff801983541691151516179055565b5160058401555191015533600052600f60205234604060002055610e4234601054614b67565b601055600154600160401b8110156109d557610e67816001610e859301600155614655565b33906001600160a01b038084549260031b9316831b921b1916179055565b6040513481527f71a74251cbe39166997284a33fe4cbd6804961b31e312765f32c834e6be8fbab60203392a260017f9b779b17422d0df92223018b32b4d1fa46e071723d6817e2486d003becc55f0055005b606460405162461bcd60e51b815260206004820152601260248201527f416c7265616479207265676973746572656400000000000000000000000000006044820152fd5b606460405162461bcd60e51b815260206004820152601260248201527f496e73756666696369656e74207374616b6500000000000000000000000000006044820152fd5b346103af5760203660031901126103af576001600160a01b03610f806144a4565b600060c0604051610f90816143bd565b8281528260208201528260408201528260608201528260808201528260a0820152015216600052600060205260e06040600020604051610fcf816143bd565b6001600160a01b03825416918282526001810154602083019081526002820154604084019081526003830154906060850191825260ff6004850154169260808601931515845260c0600660058701549660a089019788520154960195865260405196875251602087015251604086015251606085015251151560808401525160a08301525160c0820152f35b346103af5760203660031901126103af5760043560005260166020526040600020805461108a60018301614526565b9160ff600282015491600381015490600481015460066005830154920154926110c7604051988998895261010060208a01526101008901906145ed565b9560408801526060870152608086015260a08501526001600160a01b03811660c085015260a01c16151560e08301520390f35b346103af5760003660031901126103af57611159604080519061111d81836143d9565b600582527f352e302e300000000000000000000000000000000000000000000000000000006020830152519182916020835260208301906145ed565b0390f35b346103af5760603660031901126103af576111766144a4565b60243567ffffffffffffffff81116103af57611196903690600401614417565b60443567ffffffffffffffff81116103af576111b6903690600401614417565b3360005260006020526111d360ff60046040600020015416614b1c565b604051906020820160008152815192611233600860218360208701976111fc818484018b6145ca565b81017f666f7265636173740000000000000000000000000000000000000000000000008382015203016017198101845201826143d9565b5190209360405160208101600160f81b815283516112558160218501886145ca565b820191611282816021895160208b0196611272828483018a6145ca565b010103601f1981018352826143d9565b519020926040516020810190600360f81b82526519db1bd8985b60d21b60218201526112ca6027828a516112b9818484018a6145ca565b81010301601f1981018352826143d9565b519020966000526002602052604060002094604051946112e98661432e565b6112f760ff88541687614710565b61130360018801614526565b602087015261131460028801614526565b6040870152600387015460608701526004870154956080810196875261012060ff600960058b01549a60a085019b8c526001600160a01b0360068201541660c0860152600781015460e08601526008810154610100860152015416151591015260005260026020526040600020916040519861138f8a61432e565b61139d60ff8554168b614710565b6113a960018501614526565b60208b01526113ba60028501614526565b60408b0152600384015460608b0152600484015499608081019a8b5261012060ff600960058801549760a085019889526001600160a01b0360068201541660c0860152600781015460e08601526008810154610100860152015416151591015260005260026020526040600020916040516114348161432e565b61144260ff85541682614710565b61144e60018501614526565b602082015261145f60028501614526565b60408201526003840154606082015261012060ff600960048701549660808501978852600581015460a08601526001600160a01b0360068201541660c0860152600781015460e08601526008810154610100860152015416151591015260405160208101907f7969656c645f70726564696374696f6e5f6d6f64656c000000000000000000008252601681526114f66036826143d9565b519020600052600460205286518a519060011c60320190816032116104895760011c603201908160321161048957806103e802906103e88204036104895761271091611541916162d3565b04965161154d816167ae565b93519a5191624f1a00420191824211610489578060640390606482116104895762015180820291820462015180149060641417156104895760311984019384116104895761a8c084029380850461a8c01490151715610489578b6034611618936115c68c976115c16020966115f699614b67565b614b67565b9d5199519a604051968794868601996bffffffffffffffffffffffff199060601b168a52518092858701906145ca565b830161160889518093858401906145ca565b01014281520380845201826143d9565b519020966040519261162984614384565b88845260208401998a5260408401928352606084019a888c526080850191825260a085015260c0840191825260e08401928686108787180287188452426101008601526001600160a01b038816600052601760205260406000208054600160401b8110156109d5576116a0916001820181556144d0565b9b909b6109bf5785518c5551805160018d019167ffffffffffffffff82116109d55781906116ce84546144ec565b601f8111611950575b50602090601f83116001146118eb576000926118e0575b50508160011b916000199060031b1c19161790555b519a8b5167ffffffffffffffff81116109d557601f9c61172660028e01546144ec565b9d8e11611894575b60209d508d90601f83116001146117eb57956001600160a01b0398958d9e9560089585610100967f6f94bec68de756db80a1254d990710ebfbe11e9ff18c39a8e27032abec9ddba89f9c9660409f9c6000926117e0575b50508160011b916000199060031b1c19161760028901555b51600388015551600487015560a08301516005870155516006860155516007850155015191015584519687528180821091180218888601521692a3604051908152f35b015190503880611785565b9060028e01600052806000209160005b601f198516811061187c5750958d9e956008956001867f6f94bec68de756db80a1254d990710ebfbe11e9ff18c39a8e27032abec9ddba89f9c9660409f9c966001600160a01b039f9c6101009a601f19811610611863575b505050811b01600289015561179d565b015160001960f88460031b161c19169055388080611853565b919260206001819286850151815501940192016117fb565b60028d016000526020600020601f830160051c81019e602084106118d6575b601f0160051c019d8e5b81106118c9575061172e565b600081556001018e6118bd565b909e508e906118b3565b015190508f806116ee565b60008581528281209350601f198516905b818110611938575090846001959493921061191f575b505050811b019055611703565b015160001960f88460031b161c191690558f8080611912565b929360206001819287860151815501950193016118fc565b909150836000526020600020601f840160051c81019160208510611999575b90601f859493920160051c01905b81811061198a57506116d7565b6000815584935060010161197d565b909150819061196f565b346103af5760603660031901126103af576119bc616474565b600435601355602435601455604435601555005b346103af5760203660031901126103af5760206119f36119ee6144a4565b6162e6565b604051908152f35b346103af5760203660031901126103af576001600160a01b03611a1c6144a4565b16600052600f6020526020604060002054604051908152f35b346103af5760203660031901126103af5760006080604051611a568161434b565b8281528260208201528260408201528260608201520152600435600052600760205260a06040600020604051611a8b8161434b565b8154918282526001600160a01b03600182015416602083019081526001600160a01b03600283015491604085019283526080600460ff6003870154169560608801961515875201549501948552604051958652511660208501525160408401525115156060830152516080820152f35b346103af5760603660031901126103af5760043567ffffffffffffffff81116103af57611b2c903690600401614417565b611b346144ba565b336000526000602052611b5160ff60046040600020015416614b1c565b604051602081019060008252673637b1b0ba34b7b760c11b60218201527f63757272656e7400000000000000000000000000000000000000000000000000602982015260108152611ba36030826143d9565b5190206000526002602052602060406000209160405192611bc38461432e565b611bd160ff82541685614710565b611bdd60018201614526565b83850152611bed60028201614526565b6040850152600381015460608501526004810154936080810194855261012060ff600960058501549460a085019586526001600160a01b0360068201541660c0860152600781015460e08601526008810154610100860152015416151591015260405183810190600160f81b8252673637b1b0ba34b7b760c11b60218201527f6865616c746800000000000000000000000000000000000000000000000000006029820152600f8152611ca1602f826143d9565b51902060005260028352604060002060405191611cbd8361432e565b611ccb60ff83541684614710565b611cd760018301614526565b85840152611ce760028301614526565b6040840152600382015460608401526004820154926080810193845261012060ff600960058601549560a085019687526001600160a01b0360068201541660c0860152600781015460e08601526008810154610100860152015416151591015260405185810190600360f81b82526519db1bd8985b60d21b60218201527f70726963650000000000000000000000000000000000000000000000000000006027820152600c8152611d99602c826143d9565b5190206000526002855260406000209260405193611db68561432e565b611dc460ff82541686614710565b611dd060018201614526565b87860152611de060028201614526565b6040860152600381015460608601526004810154946080810195865261012060ff600960058501549460a085019586526001600160a01b0360068201541660c0860152600781015460e086015260088101546101008601520154161515910152604051878101907f6465636973696f6e5f6d6f64656c0000000000000000000000000000000000008252611e85602e828d6112b981519d8e92019d8e858501906145ca565b519020600052600460205260ff60056040600020015460a01c161561222d57611eff600391611f0b945195519051908180821091180218956115c18a51918551905192605081116000146122155750601e905b60328110156121f9575060326028935b10156121ee5760ff8080601e5b1694169116614b67565b0496519051908861664b565b93604051611f5760346020838b611f2a838301978892519283916145ca565b81016bffffffffffffffffffffffff198a60601b16838201524284820152030160148101845201826143d9565b5190209460405190611f6882614367565b8682526020820190888252848410858518028518604084015260608301528560808301524260a08301526001600160a01b03851660c0830152600060e0830152866000526016602052604060002090825182555180519067ffffffffffffffff82116109d557611fdb60018401546144ec565b601f81116121a3575b5091602099959391899795938b90601f83116001146120f9579360e060067fa9d1b514cbfad10325edb6f7855accf5d986ad4dba2c49ad9220855c2bf3d85e9a9895856001600160a01b0399966120bb966120cf9d9a6000926120ee575b50508160011b916000199060031b1c19161760018201555b60408401516002820155606084015160038201556080840151600482015560a084015160058201550191878060c083015116166001600160a01b03198454161783550151151560ff60a01b1960ff60a01b835492151560a01b169116179055565b6040519586956060875260608701906145ed565b988b8601528180821091180218604084015216940390a3604051908152f35b015190503880612042565b9060018401600052806000209160005b601f1985168110612189575060067fa9d1b514cbfad10325edb6f7855accf5d986ad4dba2c49ad9220855c2bf3d85e9a98956001866120bb966120cf9d9a9660e0966001600160a01b039d9a601f19811610612170575b505050811b01600182015561205a565b015160001960f88460031b161c19169055388080612160565b8183015184558d9b50600190930192918e01918e01612109565b600184016000526020600020601f840160051c810191602085106121e4575b601f0160051c01905b8181106121d85750611fe4565b600081556001016121cb565b90915081906121c2565b60ff8080600a611ef5565b6046111561220c57603260145b93611ee8565b60326005612206565b603c10156122265760145b90611ed8565b600a612220565b606460405162461bcd60e51b815260206004820152601660248201527f4149206d6f64656c206e6f7420617661696c61626c65000000000000000000006044820152fd5b346103af5760203660031901126103af576004356000526006602052604060002080549061229e82614947565b916122ac60405193846143d9565b80835260208301809260005260206000206000915b8383106123575784866040519182916020830190602084525180915260408301919060005b8181106122f4575050500390f35b91935091602060e060019260c0875180518352848101518584015260408101516040840152606081015160608401526001600160a01b03608082015116608084015260a0810151151560a0840152015160c08201520194019101918493926122e6565b6006602060019260405161236a816143bd565b855481528486015483820152600286015460408201526003860154606082015260ff60048701546001600160a01b038116608084015260a01c16151560a0820152600586015460c08201528152019201920191906122c1565b346103af5760203660031901126103af576004356001548110156103af576001600160a01b036123f4602092614655565b90549060031b1c16604051908152f35b346103af5760003660031901126103af576020601554604051908152f35b346103af5760203660031901126103af576004356005548110156103af5761244b60209161463a565b90549060031b1c604051908152f35b346103af5760003660031901126103af576124736165d2565b3360005260006020526040600020600481019081549060ff8216156126255760050180549283156125e15760009260ff191690555533600052600f602052600060408120556124c48160105461477c565b60105560005b60015490818110156125d4576001600160a01b036124e782614655565b905460039190911b1c1633146125015760019150016124ca565b6000198201918211610489576125326001600160a01b0361252461255194614655565b90549060031b1c1691614655565b9091906001600160a01b038084549260031b9316831b921b1916179055565b60015480156125be576000808093819382190161256d81614655565b6001600160a01b0382549160031b1b191690556001555b3382f1156125b25760017f9b779b17422d0df92223018b32b4d1fa46e071723d6817e2486d003becc55f0055005b6040513d6000823e3d90fd5b634e487b7160e01b600052603160045260246000fd5b5050600080808093612584565b606460405162461bcd60e51b815260206004820152601460248201527f4e6f207374616b6520746f2077697468647261770000000000000000000000006044820152fd5b606460405162461bcd60e51b815260206004820152600e60248201527f4e6f7420726567697374657265640000000000000000000000000000000000006044820152fd5b346103af5760003660031901126103af5760206001600160a01b037f9016d09d72d40fdae2fd8ceac6b6234c7706214fd39c1cd1e609a0528c1993005416604051908152f35b346103af5760003660031901126103af576020600d54604051908152f35b346103af5760203660031901126103af576001600160a01b036126ee6144a4565b6126f6616474565b16806001600160a01b0319600e541617600e557f2d6b04df9b7d358407d1a014f1114b064add34c19d63d395db155a7e533e967a600080a2005b346103af5760003660031901126103af576020600a54604051908152f35b346103af5760203660031901126103af576004356000526003602052604060002080549061277b82614947565b9161278960405193846143d9565b80835260208301809260005260206000206000915b8383106128145784866040519182916020830190602084525180915260408301919060005b8181106127d1575050500390f35b9193509160206080600192606087516001600160a01b038151168352848101518584015260408101516040840152015160608201520194019101918493926127c3565b60046020600192604051612827816143a1565b6001600160a01b0386541681528486015483820152600286015460408201526003860154606082015281520192019201919061279e565b346103af5760003660031901126103af576020601054604051908152f35b346103af5760203660031901126103af576001600160a01b0361289d6144a4565b16600052601760205260406000208054906128b782614947565b916128c560405193846143d9565b80835260208301809260005260206000206000915b83831061294857848660405191829160208301906020845251809152604083019060408160051b85010192916000905b82821061291957505050500390f35b919360019193955060206129388192603f198a82030186528851614670565b960192019201859493919261290a565b6009602060019260405161295b81614384565b8554815261296a858701614526565b8382015261297a60028701614526565b60408201526003860154606082015260048601546080820152600586015460a0820152600686015460c0820152600786015460e082015260088601546101008201528152019201920191906128da565b346103af576129d83661445c565b906129e1616474565b600c55600d55005b346103af5760803660031901126103af576004356024359060443581600052600760205260ff6003604060002001541615612b0457336000526000602052612a3b60ff600460406000200154166161f2565b8160005260076020526040600020836000526002602052604060002060ff600982015416612aa0575b507f29b9415cd75392ee16fd5096851fa8bd363acd568523948a24606eae0695a3a49160409160044291015581519081526064356020820152a3005b826004612aae920154616585565b91600282019182549260098402938085046009149015171561048957600a612af97f29b9415cd75392ee16fd5096851fa8bd363acd568523948a24606eae0695a3a496604096614b67565b049055915091612a64565b606460405162461bcd60e51b815260206004820152601360248201527f436861696e206e6f7420737570706f72746564000000000000000000000000006044820152fd5b346103af5760603660031901126103af57600435602435612bce604435336000526000602052612b8260ff6004604060002001541661623d565b8360005260066020526001612b9b846040600020614472565b5060048101600160a01b60ff60a01b198254612bbd60ff8260a01c1615616288565b1617905582600582015501546164d5565b908260005260046020526040600020906003820192835492612bf9826115c1600684015480976162d3565b946001850180951161048957612c326040957fec90244061b743db8cf254e7d18e10915355558ddf645fb6843c10aaeca2ec459761471c565b90556050821015612c58575b50612c4b600d543361654e565b82519182526020820152a2005b600701612c658154614b74565b905585612c3e565b346103af5760003660031901126103af57612c86616474565b60006001600160a01b037f9016d09d72d40fdae2fd8ceac6b6234c7706214fd39c1cd1e609a0528c199300546001600160a01b031981167f9016d09d72d40fdae2fd8ceac6b6234c7706214fd39c1cd1e609a0528c19930055167f8be0079c531659141344cd1fd0a4f28419497f9722a3daafe3b4186f6b6457e08280a3005b346103af5760203660031901126103af576004358060005260046020526001600160a01b036005604060002001541633148015612d8a575b612d47906161f2565b806000526004602052600560406000200160ff60a01b1981541690557fe1a7584bc47bf212499b02655f0279325c21b0b3a5996e6f68d267fbcabded53600080a2005b50612d476001600160a01b037f9016d09d72d40fdae2fd8ceac6b6234c7706214fd39c1cd1e609a0528c199300541633149050612d3e565b346103af5760203660031901126103af576001600160a01b03612de36144a4565b1660005260006020526020600160406000200154604051908152f35b346103af5760203660031901126103af576000610100604051612e2181614384565b60608152606060208201528260408201528260608201528260808201528260a08201528260c08201528260e08201520152600435600052600460205261012060206040600020604051612e7381614384565b612e7c82614526565b8152612e8a60018301614526565b91838201928352600281015492604083019384526001600160a01b0360038301549160608501928352600484015460808601908152600585015493612f2c60a0880193858716855260ff60c08a019760a01c1615158752612f19600760068a01549960e08c019a8b5201549961010081019a8b526040519d8d8f9e928f938452519201526101408d01906145ed565b90518b8203601f190160408d01526145ed565b975160608a01525160808901525160a0880152511660c086015251151560e085015251610100840152516101208301520390f35b346103af5760003660031901126103af576040518060206001549283815201809260016000527fb10e2d527612073b26eecdfd717e6a320cf44b4afac2b0732d9fcbe2b7fa0cf69060005b81811061300d5750505081612fc19103826143d9565b6040519182916020830190602084525180915260408301919060005b818110612feb575050500390f35b82516001600160a01b0316845285945060209384019390920191600101612fdd565b82546001600160a01b0316845260209093019260019283019201612fab565b346103af5760003660031901126103af576020601454604051908152f35b346103af5760203660031901126103af5760043560005260026020526130d2604060002060ff8154169061308060018201614526565b61308c60028301614526565b91600381015492600482015460058301546001600160a01b03600685015416916130f36007860154946130e560ff600960088a015499015416986040519c8d809d614612565b61014060208d01526101408c01906145ed565b908a820360408c01526145ed565b966060890152608088015260a087015260c086015260e085015261010084015215156101208301520390f35b346103af5760203660031901126103af57600435600052600760205260a060406000208054906001600160a01b03600182015416906002810154600460ff6003840154169201549260405194855260208501526040840152151560608301526080820152f35b346103af5760a03660031901126103af5760043560068110156103af5760243567ffffffffffffffff81116103af576131c2903690600401614417565b6044359067ffffffffffffffff82116103af576020926131e96119f3933690600401614417565b6084359260643592615741565b346103af5760803660031901126103af5760043567ffffffffffffffff81116103af57613227903690600401614417565b60243567ffffffffffffffff81116103af57613247903690600401614417565b9033600052600060205261326560ff60046040600020015416614b1c565b60405160208101906132af601482602086516132848188848b016145ca565b820188519061329882848301858d016145ca565b01013360601b815203600b198101845201826143d9565b519020906040516132bf81614384565b81815260208101848152604082016044358152606083016064358152608084019042825260a085019133835260c08601916001835260e087019460008652610100880196600088528a60005260046020526040600020985180519067ffffffffffffffff82116109d55781906133358c546144ec565b601f81116135fc575b50602090601f83116001146135975760009261358c575b50508160011b916000199060031b1c19161789555b51805160018a019167ffffffffffffffff82116109d55761338b83546144ec565b601f8111613544575b50602090601f83116001146134d05791806134219896949260079c9b9a9896946000926134c5575b50508160011b916000199060031b1c19161790555b5160028a01555160038901555160048801556001600160a01b038060058901935116166001600160a01b031983541617825551151560ff60a01b1960ff60a01b835492151560a01b169116179055565b51600684015551910155600554600160401b8110156109d5576134a783926134b46020968561349161347a8760017fad2d0d300ea8224ddd3df6ce18ac63266d3c4c213d408df4b65ef231475db911990160055561463a565b819391549060031b91821b91600019901b19161790565b90556040519384936060855260608501906145ed565b90838203898501526145ed565b3360408301520390a2604051908152f35b0151905038806133bc565b90601f1983169184600052816000209260005b81811061352c575092600192859260079e9d9c9a98966134219c9a989610613513575b505050811b0190556133d1565b015160001960f88460031b161c19169055388080613506565b929360206001819287860151815501950193016134e3565b836000526020600020601f840160051c81019160208510613582575b601f0160051c01905b8181106135765750613394565b60008155600101613569565b9091508190613560565b015190508e80613355565b60008d81528281209350601f198516905b8181106135e457509084600195949392106135cb575b505050811b01895561336a565b015160001960f88460031b161c191690558e80806135be565b929360206001819287860151815501950193016135a8565b9091508b6000526020600020601f840160051c81019160208510613645575b90601f859493920160051c01905b818110613636575061333e565b60008155849350600101613629565b909150819061361b565b346103af5760203660031901126103af5761115961367361366e6144a4565b614973565b604051918291602083526020830190614670565b346103af5760203660031901126103af57600060e06040516136a881614367565b828152606060208201528260408201528260608201528260808201528260a08201528260c08201520152600435600052601660205260406000206040516136ee81614367565b815481526136fe60018301614526565b9160208201928352600281015490604083019182526001600160a01b0360038201546060850190815260048301549260808601938452600660058201549160a0880192835201549360c0870192848616845260ff60e089019660a01c1615158652613786604051998a9960208b525160208b01525161010060408b01526101208a01906145ed565b965160608901525160808801525160a08701525160c0860152511660e08401525115156101008301520390f35b346103af5760203660031901126103af576004356008548110156103af5761244b60209161461f565b346103af5760603660031901126103af5760043560068110156103af5760243567ffffffffffffffff81116103af57613819903690600401614417565b906044359067ffffffffffffffff82116103af57606092613841613847933690600401614417565b91614789565b9060405192835260208301526040820152f35b346103af5760003660031901126103af576001600160a01b037f00000000000000000000000000000000000000000000000000000000000000001630036138c55760206040517f360894a13ba1a3210667c828492db98dca3e2076cc3735a920a3ca505d382bbc8152f35b7fe07c8dba0000000000000000000000000000000000000000000000000000000060005260046000fd5b346103af5760403660031901126103af5760043561390b6144ba565b90613914616474565b6040516139208161434b565b81815260046001600160a01b03602083019416938481526139aa60408401606481526060850190600182526001600160a01b03608087019442865288600052600760205260406000209751885551166001600160a01b036001880191166001600160a01b0319825416179055516002860155511515600385019060ff801983541691151516179055565b51910155600854600160401b8110156109d5576139d161347a82600185940160085561461f565b90557fd8492bd35d7935ba341574fece313d1a214ff3be4be44238d1fed8f2d13b3aab600080a3005b346103af5760003660031901126103af57610551616474565b60403660031901126103af57613a276144a4565b60243567ffffffffffffffff81116103af57613a47903690600401614417565b6001600160a01b037f000000000000000000000000000000000000000000000000000000000000000016803014908115613c81575b506138c557613a89616474565b6001600160a01b038216916040517f52d1902d000000000000000000000000000000000000000000000000000000008152602081600481875afa60009181613c4d575b50613ae65783634c9c8ce360e01b60005260045260246000fd5b807f360894a13ba1a3210667c828492db98dca3e2076cc3735a920a3ca505d382bbc859203613c205750813b15613c0c57806001600160a01b03197f360894a13ba1a3210667c828492db98dca3e2076cc3735a920a3ca505d382bbc5416177f360894a13ba1a3210667c828492db98dca3e2076cc3735a920a3ca505d382bbc557fbc7cd75a20ee27fd9adebab32041f755214dbc6bffa90cc0225b39da2e5c2d3b600080a2815115613bd95760008083602061055195519101845af43d15613bd1573d91613bb4836143fb565b92613bc260405194856143d9565b83523d6000602085013e616a80565b606091616a80565b505034613be257005b7fb398979f0000000000000000000000000000000000000000000000000000000060005260046000fd5b634c9c8ce360e01b60005260045260246000fd5b7faa1d49a40000000000000000000000000000000000000000000000000000000060005260045260246000fd5b9091506020813d602011613c79575b81613c69602093836143d9565b810103126103af57519085613acc565b3d9150613c5c565b90506001600160a01b037f360894a13ba1a3210667c828492db98dca3e2076cc3735a920a3ca505d382bbc5416141583613a7c565b346103af5760203660031901126103af57604051613cd38161432e565b60008152602081016060905260408101606090526060810160009052608081016000905260a081016000905260c081016000905260e0810160009052610100810160009052610120016000905260043560005260026020526040600020604051613d3c8161432e565b815460ff16613d4b9082614710565b613d5760018301614526565b6020820190815291613d6b60028201614526565b6040830190815260038201549160608401928352600481015460808501908152600582015460a0860190815260068301546001600160a01b03169060c0870191825260078401549260e0880193845260088501549461010089019586526009015460ff169561012089019615158752604051998a9960208b5260208b01905190613df491614612565b5160408a0161014090526101608a01613e0c916145ed565b9051898203601f190160608b0152613e2491906145ed565b965160808901525160a08801525160c0870152516001600160a01b031660e086015251610100850152516101208401525115156101408301520390f35b346103af5760403660031901126103af57613e7a6144a4565b6001600160a01b036024359116600052601760205260406000209081548110156103af57613ea7916144d0565b508054613eb660018301614526565b91613ec360028201614526565b60038201549160048101546005820154600683015491613f136008600786015495015495613f056040519a8b9a8b5261012060208c01526101208b01906145ed565b9089820360408b01526145ed565b956060880152608087015260a086015260c085015260e08401526101008301520390f35b346103af5760203660031901126103af576001600160a01b03613f586144a4565b16600052600060205260e060406000206001600160a01b03815416906001810154906002810154600382015460ff6004840154169160066005850154940154946040519687526020870152604086015260608501521515608084015260a083015260c0820152f35b346103af5760003660031901126103af576020600c54604051908152f35b346103af57613fec3661445c565b906000526006602052604060002080548210156103af5760e09161400f91614472565b5080549060ff600182015491600281015460038201549060056004840154930154946040519687526020870152604086015260608501526001600160a01b038116608085015260a01c16151560a083015260c0820152f35b346103af5760003660031901126103af576020601154604051908152f35b346103af576140933661445c565b9061409c616474565b600955600a55005b346103af5760a03660031901126103af5760043567ffffffffffffffff81116103af576140d5903690600401614417565b60243560068110156103af5760443567ffffffffffffffff81116103af57614101903690600401614417565b60643567ffffffffffffffff81116103af57614121903690600401614417565b9260843567ffffffffffffffff81116103af57614142903690600401614417565b91831560008115614321575b81156142fb575b50156142b75760405193602085019383519460208501956141778183896145ca565b87016141866020820185614700565b84519061419a8260218301602089016145ca565b016020019680895160208b01998160018201906141b7918d6145ca565b01600101428152038082526020016141cf90826143d9565b519020906141dc916167cd565b6141e591616809565b6001600160a01b0316156142735761426e602761425d946103e86119f39860209a6142218c60405180936112b9838301968792519283916145ca565b51902006966040519687927f6465766963653a000000000000000000000000000000000000000000000000008c850152518092858501906145ca565b81010301601f1981018552846143d9565b614b83565b606460405162461bcd60e51b815260206004820152601860248201527f496e76616c696420646576696365207369676e617475726500000000000000006044820152fd5b606460405162461bcd60e51b815260206004820152601960248201527f496e76616c69642064617461207479706520666f7220496f54000000000000006044820152fd5b905061430b576004841486614155565b634e487b7160e01b600052602160045260246000fd5b505060018414600061414e565b610140810190811067ffffffffffffffff8211176109d557604052565b60a0810190811067ffffffffffffffff8211176109d557604052565b610100810190811067ffffffffffffffff8211176109d557604052565b610120810190811067ffffffffffffffff8211176109d557604052565b6080810190811067ffffffffffffffff8211176109d557604052565b60e0810190811067ffffffffffffffff8211176109d557604052565b90601f8019910116810190811067ffffffffffffffff8211176109d557604052565b67ffffffffffffffff81116109d557601f01601f191660200190565b81601f820112156103af57602081359101614431826143fb565b9261443f60405194856143d9565b828452828201116103af5781600092602092838601378301015290565b60409060031901126103af576004359060243590565b805482101561448e576000526006602060002091020190600090565b634e487b7160e01b600052603260045260246000fd5b600435906001600160a01b03821682036103af57565b602435906001600160a01b03821682036103af57565b805482101561448e576000526009602060002091020190600090565b90600182811c9216801561451c575b602083101461450657565b634e487b7160e01b600052602260045260246000fd5b91607f16916144fb565b906040519182600082549261453a846144ec565b80845293600181169081156145a85750600114614561575b5061455f925003836143d9565b565b90506000929192526020600020906000915b81831061458c57505090602061455f9282010138614552565b6020919350806001915483858901015201910190918492614573565b90506020925061455f94915060ff191682840152151560051b82010138614552565b60005b8381106145dd5750506000910152565b81810151838201526020016145cd565b90602091614606815180928185528580860191016145ca565b601f01601f1916010190565b90600682101561430b5752565b60085481101561448e57600860005260206000200190600090565b60055481101561448e57600560005260206000200190600090565b60015481101561448e57600160005260206000200190600090565b9081518152610100806146a9614697602086015161012060208701526101208601906145ed565b604086015185820360408701526145ed565b93606081015160608501526080810151608085015260a081015160a085015260c081015160c085015260e081015160e0850152015191015290565b805482101561448e5760005260206000209060021b0190600090565b600681101561430b5760f81b9052565b600682101561430b5752565b8115614726570490565b634e487b7160e01b600052601260045260246000fd5b918261474e6001946020979694614700565b614760825180938887850191016145ca565b01614773825180938786850191016145ca565b01019081520190565b9190820391821161048957565b9190610e1042049060405160208101906147aa8161085e8688878b8861473c565b519020600052600260205260406000206040516147c68161432e565b6147d460ff83541682614710565b6147e060018301614526565b60208201526147f160028301614526565b604082015260038201549081606082015261012060048401549182608082015260ff60096005870154968760a08501526001600160a01b0360068201541660c0850152600781015460e085015260088101546101008501520154161515918291015261493c5750505060001982019182116104895761085e61487e9260405194859360208501978861473c565b5190206000526002602052604060002060405161489a8161432e565b6148a860ff83541682614710565b6148b460018301614526565b60208201526148c560028301614526565b604082015260038201549081606082015261012060048401549182608082015260ff60096005870154968760a08501526001600160a01b0360068201541660c0850152600781015460e085015260088101546101008501520154161515918291015261493957505050600090600090600090565b92565b969195509350915050565b67ffffffffffffffff81116109d55760051b60200190565b805182101561448e5760209160051b010190565b6001600160a01b039060405161498881614384565b6000815260606020820152606060408201526000606082015260006080820152600060a0820152600060c0820152600060e0820152600061010082015250166000526017602052604060002080546149df81614947565b916149ed60405193846143d9565b818352602083019060005260206000206000915b838310614a9a5750505050805115614a2e578051600019810190811161048957614a2a9161495f565b5190565b50604051614a3b81614384565b600081526020604051614a4e82826143d9565b6000815281830152614a6360405191826143d9565b6000815260408201526000606082015260006080820152600060a0820152600060c0820152600060e0820152600061010082015290565b60096020600192604051614aad81614384565b85548152614abc858701614526565b83820152614acc60028701614526565b60408201526003860154606082015260048601546080820152600586015460a0820152600686015460c0820152600786015460e08201526008860154610100820152815201920192019190614a01565b15614b2357565b606460405162461bcd60e51b815260206004820152601960248201527f4e6f7420616e20616374697665206f7261636c65206e6f6465000000000000006044820152fd5b9190820180921161048957565b60001981146104895760010190565b919290926000338152806020526040812090614ba560ff600484015416614b1c565b506006810191825461012c81018091116104895742106156fd576040516020810190614bdc8161085e610e104204868c8c8861473c565b51902080968160005260026020526001600160a01b036006604060002001541615600014614faf5760018401549060405193614c178561432e565b614c218986614710565b6020850191825260408501908152606085014281526080860189815260a0870191605f835260c088019333855260e0890195600087526101008a019788526101208a019860008a5260005260026020526040600020995190600682101561430b5760009160ff80198d54169116178b5560018b01905180519067ffffffffffffffff8211614f9b578190614cb584546144ec565b601f8111614f4b575b50602090601f8311600114614ee8578592614edd575b50508160011b916000199060031b1c19161790555b60028a0191519081519167ffffffffffffffff8311614ec957614d0c84546144ec565b601f8111614e84575b50602091601f8411600114614e0757938360029e9d9b989460099b98946001600160a01b039894614db09f9c9892614dfc575b50508160011b916000199060031b1c19161790555b5160038a015551600489015551600588015551166001600160a01b036006870191166001600160a01b031982541617905551600785015551600884015551151591019060ff801983541691151516179055565b01614dbb8154614b74565b9055429055614dcd6040518093614612565b6020820152817f2f96b1206c1b3fa534289e70d1b865ead64221fba828fd527a0e45282e1c318860403393a390565b015190503880614d48565b9190601f198416858452828420935b818110614e6c57508460029f9e9c9995946001600160a01b039894614db09f9c989460099e9b9760019510614e53575b505050811b019055614d5d565b015160001960f88460031b161c19169055388080614e46565b92936020600181928786015181550195019301614e16565b84835260208320601f850160051c81019160208610614ebf575b601f0160051c01905b818110614eb45750614d15565b838155600101614ea7565b9091508190614e9e565b602482634e487b7160e01b81526041600452fd5b015190503880614cd4565b8486528186209250601f198416865b818110614f335750908460019594939210614f1a575b505050811b019055614ce9565b015160001960f88460031b161c19169055388080614f0d565b92936020600181928786015181550195019301614ef7565b90915083855260208520601f840160051c81019160208510614f91575b90601f859493920160051c01905b818110614f835750614cbe565b868155849350600101614f76565b9091508190614f68565b602484634e487b7160e01b81526041600452fd5b509394505050506000526002602052604060002090336000526000602052604060002090614fe360ff60048401541661623d565b614ff6614ff033866168c6565b15616288565b60018201918254906040519161500b836143a1565b338352602083019284845260408101914283526060820190815288600052600360205260406000208054600160401b8110156109d557615050916001820181556146e4565b9390936109bf576002956001600160a01b03806003955116166001600160a01b031986541617855551600185015551858401555191015560078501936150968554614b74565b8555546150a860088701918254614b67565b9055016150b58154614b74565b9055604051908152837fb3ade034ef79014710415a66ee77fbbbabb8a741fc94740b25bd3f945196ebd660203393a354601454111590816156e2575b506150f95790565b9081600052600260205260406000208260005260036020526040600020805461512181614947565b9161512f60405193846143d9565b818352602083019060005260206000206000915b83831061569257505050506004820180549261517f6001600160a01b0360068301541694856000526000602052600160406000200154906162d3565b936000526000602052600160406000200154956000945b84518610156151f4576151eb6151d56001926151cf60206151b78b8b61495f565b51015160606151c68c8c61495f565b510151906162d3565b90614b67565b9860606151e2898961495f565b51015190614b67565b95019496615196565b90945061520592969195935061471c565b826000526003602052604060002091825461521f81614947565b9361522d60405195866143d9565b818552602085019060005260206000206000915b83831061564857505050506000936014830491855b85518110156152c257602061526b828861495f565b510151615278858761477c565b1115806152a1575b61528d575b600101615256565b95615299600191614b74565b969050615285565b5060206152ae828861495f565b5101516152bb8587614b67565b1015615280565b5093929490959150606481029080820460641490151715610489576152ec8591600994519061471c565b6064808210911802606418965585600582015501600160ff198254161790558260005260026020526040600020926040516153268161432e565b61533460ff86541682614710565b61534060018601614526565b602082015261535160028601614526565b60408201526003850154606082015260048501549060808101918252600586015460a082015261012060ff60096001600160a01b0360068a0154169860c08501998a52600781015460e08601526008810154610100860152015416151591015281600052600360205260406000209485546153cb81614947565b966153d960405198896143d9565b818852602088019060005260206000206000915b8383106155fe5750505050906001600160a01b036001925116600052600060205261541e8560406000209251616b10565b156155dc57600381016154318154614b74565b9055018054600a81018091116104895760115490818082109118021890555b60005b84518110156155a4576001600160a01b0361546e828761495f565b5151166000526000602052604060002061549685602061548e858a61495f565b510151616b10565b156154d657806003600192016154ac8154614b74565b90550190815491600583018093116104895760019260115490818082109118021890555b01615453565b6001810180549092916009198201918211610489576001936001600160a01b039260125490818082119118021890555416600a5481600052600060205260056040600020019061271061552b835492836162d3565b048061553b575b505050506154d0565b7f51cf713376ddb1e5f5828bb6aa39d99de812176d62c3d3550bdc4e0b5e86e1a5926155698260209461477c565b905583600052600f8252604060002061558382825461477c565b90556155918160105461477c565b601055604051908152a238808080615532565b50925092604083927fc36c7394f56b898f4eb515cad09f3382ddc89b6fca013fa707e1f9afa4d2d8ae9282519182526020820152a290565b0180546013198101908111610489576012549081808211911802189055615450565b60046020600192604051615611816143a1565b6001600160a01b038654168152848601548382015260028601546040820152600386015460608201528152019201920191906153ed565b6004602060019260405161565b816143a1565b6001600160a01b03865416815284860154838201526002860154604082015260038601546060820152815201920192019190615241565b6004602060019260409a989a516156a8816143a1565b6001600160a01b03865416815284860154838201526002860154604082015260038601546060820152815201920192019190969496615143565b6156f491506003015460155490614b67565b421015386150f1565b606460405162461bcd60e51b815260206004820152601360248201527f5375626d697373696f6e20636f6f6c646f776e000000000000000000000000006044820152fd5b92919333600052600060205260406000209061576360ff600484015416614b1c565b606481116161ae576006820192835461012c81018091116104895742106156fd5760405160208101906157a18161085e610e1042048c878d8861473c565b5190209687918260005260026020526001600160a01b036006604060002001541615600014615ad957600185015491604051946157dd8661432e565b6157e78a87614710565b60208601928352604086019182526060860142815260808701908a825260a0880192835260c088019333855260e0890195600087526101008a019788526101208a019860008a5260005260026020526040600020995190600682101561430b5760009160ff80198d54169116178b5560018b01905180519067ffffffffffffffff8211614f9b57819061587a84546144ec565b601f8111615a89575b50602090601f8311600114615a26578592615a1b575b50508160011b916000199060031b1c19161790555b60028a0191519081519167ffffffffffffffff8311614ec9576158d184546144ec565b601f81116159d6575b50602091601f841160011461597357938360029e9d9b989460099b98946001600160a01b039894614db09f9c9892614dfc5750508160011b916000199060031b1c19161790555160038a015551600489015551600588015551166001600160a01b036006870191166001600160a01b031982541617905551600785015551600884015551151591019060ff801983541691151516179055565b9190601f198416858452828420935b8181106159be57508460029f9e9c9995946001600160a01b039894614db09f9c989460099e9b9760019510614e5357505050811b019055614d5d565b92936020600181928786015181550195019301615982565b84835260208320601f850160051c81019160208610615a11575b601f0160051c01905b818110615a0657506158da565b8381556001016159f9565b90915081906159f0565b015190503880615899565b8486528186209250601f198416865b818110615a715750908460019594939210615a58575b505050811b0190556158ae565b015160001960f88460031b161c19169055388080615a4b565b92936020600181928786015181550195019301615a35565b90915083855260208520601f840160051c81019160208510615acf575b90601f859493920160051c01905b818110615ac15750615883565b868155849350600101615ab4565b9091508190615aa6565b50509394505050506000526002602052604060002090336000526000602052604060002090615b0e60ff60048401541661623d565b615b1b614ff033866168c6565b600182019182549060405191615b30836143a1565b338352602083019284845260408101914283526060820190815288600052600360205260406000208054600160401b8110156109d557615b75916001820181556146e4565b9390936109bf576002956001600160a01b03806003955116166001600160a01b03198654161785555160018501555185840155519101556007850193615bbb8554614b74565b855554615bcd60088701918254614b67565b905501615bda8154614b74565b9055604051908152837fb3ade034ef79014710415a66ee77fbbbabb8a741fc94740b25bd3f945196ebd660203393a35460145411159081616193575b50615c1e5790565b90816000526002602052604060002082600052600360205260406000208054615c4681614947565b91615c5460405193846143d9565b818352602083019060005260206000206000915b838310616143575050505060048201805492615ca46001600160a01b0360068301541694856000526000602052600160406000200154906162d3565b936000526000602052600160406000200154956000945b8451861015615ce557615cdc6151d56001926151cf60206151b78b8b61495f565b95019496615cbb565b909450615cf692969195935061471c565b8260005260036020526040600020918254615d1081614947565b93615d1e60405195866143d9565b818552602085019060005260206000206000915b8383106160f957505050506000936014830491855b8551811015615db3576020615d5c828861495f565b510151615d69858761477c565b111580615d92575b615d7e575b600101615d47565b95615d8a600191614b74565b969050615d76565b506020615d9f828861495f565b510151615dac8587614b67565b1015615d71565b509392949095915060648102908082046064149015171561048957615ddd8591600994519061471c565b6064808210911802606418965585600582015501600160ff19825416179055826000526002602052604060002092604051615e178161432e565b615e2560ff86541682614710565b615e3160018601614526565b6020820152615e4260028601614526565b60408201526003850154606082015260048501549060808101918252600586015460a082015261012060ff60096001600160a01b0360068a0154169860c08501998a52600781015460e0860152600881015461010086015201541615159101528160005260036020526040600020948554615ebc81614947565b96615eca60405198896143d9565b818852602088019060005260206000206000915b8383106160af5750505050906001600160a01b0360019251166000526000602052615f0f8560406000209251616b10565b1561608d5760038101615f228154614b74565b9055018054600a81018091116104895760115490818082109118021890555b60005b84518110156155a4576001600160a01b03615f5f828761495f565b51511660005260006020526040600020615f7f85602061548e858a61495f565b15615fbf5780600360019201615f958154614b74565b90550190815491600583018093116104895760019260115490818082109118021890555b01615f44565b6001810180549092916009198201918211610489576001936001600160a01b039260125490818082119118021890555416600a54816000526000602052600560406000200190612710616014835492836162d3565b0480616024575b50505050615fb9565b7f51cf713376ddb1e5f5828bb6aa39d99de812176d62c3d3550bdc4e0b5e86e1a5926160528260209461477c565b905583600052600f8252604060002061606c82825461477c565b905561607a8160105461477c565b601055604051908152a23880808061601b565b0180546013198101908111610489576012549081808211911802189055615f41565b600460206001926040516160c2816143a1565b6001600160a01b03865416815284860154838201526002860154604082015260038601546060820152815201920192019190615ede565b6004602060019260405161610c816143a1565b6001600160a01b03865416815284860154838201526002860154604082015260038601546060820152815201920192019190615d32565b6004602060019260409a989a51616159816143a1565b6001600160a01b03865416815284860154838201526002860154604082015260038601546060820152815201920192019190969496615c68565b6161a591506003015460155490614b67565b42101538615c16565b606460405162461bcd60e51b815260206004820152601260248201527f496e76616c696420636f6e666964656e636500000000000000000000000000006044820152fd5b156161f957565b606460405162461bcd60e51b815260206004820152600e60248201527f4e6f7420617574686f72697a65640000000000000000000000000000000000006044820152fd5b1561624457565b606460405162461bcd60e51b815260206004820152601760248201527f4e6f7420616e206163746976652076616c696461746f720000000000000000006044820152fd5b1561628f57565b606460405162461bcd60e51b815260206004820152601160248201527f416c72656164792076616c6964617465640000000000000000000000000000006044820152fd5b8181029291811591840414171561048957565b6001600160a01b03166000526000602052604060002060405190616309826143bd565b6001600160a01b03815416825260018101546020830152600281015490604083019180835260038201549384606082015260ff6004840154161515608082015260c0600660058501549460a084019586520154910152156163ac576064830292808404606414901517156104895761639661638b60649461639c94519061471c565b91516009549061471c565b906162d3565b0460115490818082109118021890565b50505060125490565b6001600160a01b03168015616445576001600160a01b037f9016d09d72d40fdae2fd8ceac6b6234c7706214fd39c1cd1e609a0528c19930054826001600160a01b03198216177f9016d09d72d40fdae2fd8ceac6b6234c7706214fd39c1cd1e609a0528c19930055167f8be0079c531659141344cd1fd0a4f28419497f9722a3daafe3b4186f6b6457e0600080a3565b7f1e4fbdf700000000000000000000000000000000000000000000000000000000600052600060045260246000fd5b6001600160a01b037f9016d09d72d40fdae2fd8ceac6b6234c7706214fd39c1cd1e609a0528c199300541633036164a757565b7f118cdaa7000000000000000000000000000000000000000000000000000000006000523360045260246000fd5b801580616546575b61653f5781811191821561652f576164f5818361477c565b925b1561652857505b6064820291808304606414901517156104895761651a9161471c565b606403606481116104895790565b90506164fe565b616539828261477c565b926164f7565b5050606490565b5081156164dd565b60206001600160a01b037fe8ea3d4dd0a2eaaf3f7532ad391255544f8a4bcf78f850bbff61d5bac9f77552926040519485521692a2565b9080821461653f576165a990808311156165c8576165a3818461477c565b92614b67565b60011c6064820291808304606414901517156104895761651a9161471c565b6165a3838261477c565b60027f9b779b17422d0df92223018b32b4d1fa46e071723d6817e2486d003becc55f0054146166215760027f9b779b17422d0df92223018b32b4d1fa46e071723d6817e2486d003becc55f0055565b7f3ee5aeb50000000000000000000000000000000000000000000000000000000060005260046000fd5b604051906020820181519261666b602082818601966112b981878a6145ca565b51902060405160208101907f69727269676174696f6e000000000000000000000000000000000000000000008252600a81526166a8602a826143d9565b519020036166c8575050603c9150106000146166c357600190565b600090565b90915060405160208101906166e660208285516112b981878a6145ca565b51902060405160208101907f70657374696369646500000000000000000000000000000000000000000000008252600981526167236029826143d9565b5190200361673a575050604611156166c357600190565b616756602060405180936112b9838301968792519283916145ca565b51902060405160208101907f68617276657374000000000000000000000000000000000000000000000000008252600781526167936027826143d9565b519020146167a15750600090565b605510156166c357600190565b602881106167c7576050106167c257601490565b604690565b50605090565b81519190604183036167fe576167f792506020820151906060604084015193015160001a906169f7565b9192909190565b505060009160029190565b919091600481101561430b578061681f57509050565b600060018203616853577ff645eedf0000000000000000000000000000000000000000000000000000000060005260046000fd5b506002810361688a57827ffce698f70000000000000000000000000000000000000000000000000000000060005260045260246000fd5b909160036000921461689a575050565b602492507fd78bce0c000000000000000000000000000000000000000000000000000000008252600452fd5b600052600360205260406000209081546168df81614947565b926168ed60405194856143d9565b818452602084019060005260206000206000915b838310616954575050505060005b825181101561694c576001600160a01b0361692a828561495f565b5151166001600160a01b038316146169445760010161690f565b505050600190565b505050600090565b60046020600192604051616967816143a1565b6001600160a01b03865416815284860154838201526002860154604082015260038601546060820152815201920192019190616901565b60ff7ff0c57e16840df040f15088dc2f81fe391c3923bec73e23a9662efc9c229c6a005460401c16156169cd57565b7fd7e6bcf80000000000000000000000000000000000000000000000000000000060005260046000fd5b91907f7fffffffffffffffffffffffffffffff5d576e7357a4501ddfe92f46681b20a08411616a74579160209360809260ff60009560405194855216868401526040830152606082015282805260015afa156125b2576000516001600160a01b03811615616a685790600090600090565b50600090600190600090565b50505060009160039190565b90616abf5750805115616a9557602081519101fd5b7fd6bda2750000000000000000000000000000000000000000000000000000000060005260046000fd5b81511580616b07575b616ad0575090565b6001600160a01b03907f9996b315000000000000000000000000000000000000000000000000000000006000521660045260246000fd5b50803b15616ac8565b600a8204616b1e818461477c565b8210159283616b2e575b50505090565b616b39929350614b67565b1015388080616b2856fea264697066735822122070af21fdb70860585c09a8c026bb2e8aaf532ccaa502b36c440de73d752a49dd64736f6c634300081c0033",
  "linkReferences": {},
  "deployedLinkReferences": {}
}