{
  "_format": "hh-sol-artifact-1",
  "contractName": "DecentralizedOracle",
  "sourceName": "contracts/DecentralizedOracle.sol",
  "abi": [
    {
      "inputs": [
        {
          "internalType": "address",
          "name": "target",
          "type": "address"
        }
      ],
      "name": "AddressEmptyCode",
      "type": "error"
    },
    {
      "inputs": [],
      "name": "ECDSAInvalidSignature",
      "type": "error"
    },
    {
      "inputs": [
        {
          "internalType": "uint256",
          "name": "length",
          "type": "uint256"
        }
      ],
      "name": "ECDSAInvalidSignatureLength",
      "type": "error"
    },
    {
      "inputs": [
        {
          "internalType": "bytes32",
          "name": "s",
          "type": "bytes32"
        }
      ],
      "name": "ECDSAInvalidSignatureS",
      "type": "error"
    },
    {
      "inputs": [
        {
          "internalType": "address",
          "name": "implementation",
          "type": "address"
        }
      ],
      "name": "ERC1967InvalidImplementation",
      "type": "error"
    },
    {
      "inputs": [],
      "name": "ERC1967NonPayable",
      "type": "error"
    },
    {
      "inputs": [],
      "name": "FailedCall",
      "type": "error"
    },
    {
      "inputs": [],
      "name": "InvalidInitialization",
      "type": "error"
    },
    {
      "inputs": [],
      "name": "NotInitializing",
      "type": "error"
    },
    {
      "inputs": [
        {
          "internalType": "address",
          "name": "owner",
          "type": "address"
        }
      ],
      "name": "OwnableInvalidOwner",
      "type": "error"
    },
    {
      "inputs": [
        {
          "internalType": "address",
          "name": "account",
          "type": "address"
        }
      ],
      "name": "OwnableUnauthorizedAccount",
      "type": "error"
    },
    {
      "inputs": [],
      "name": "ReentrancyGuardReentrantCall",
      "type": "error"
    },
    {
      "inputs": [],
      "name": "UUPSUnauthorizedCallContext",
      "type": "error"
    },
    {
      "inputs": [
        {
          "internalType": "bytes32",
          "name": "slot",
          "type": "bytes32"
        }
      ],
      "name": "UUPSUnsupportedProxiableUUID",
      "type": "error"
    },
    {
      "anonymous": false,
      "inputs": [
        {
          "indexed": true,
          "internalType": "bytes32",
          "name": "modelId",
          "type": "bytes32"
        }
      ],
      "name": "AIModelDeactivated",
      "type": "event"
    },
    {
      "anonymous": false,
      "inputs": [
        {
          "indexed": true,
          "internalType": "bytes32",
          "name": "modelId",
          "type": "bytes32"
        },
        {
          "indexed": false,
          "internalType": "string",
          "name": "name",
          "type": "string"
        },
        {
          "indexed": false,
          "internalType": "string",
          "name": "version",
          "type": "string"
        },
        {
          "indexed": false,
          "internalType": "address",
          "name": "maintainer",
          "type": "address"
        }
      ],
      "name": "AIModelRegistered",
      "type": "event"
    },
    {
      "anonymous": false,
      "inputs": [
        {
          "indexed": true,
          "internalType": "bytes32",
          "name": "modelId",
          "type": "bytes32"
        },
        {
          "indexed": true,
          "internalType": "bytes32",
          "name": "feedId",
          "type": "bytes32"
        },
        {
          "indexed": false,
          "internalType": "uint256",
          "name": "predictedValue",
          "type": "uint256"
        },
        {
          "indexed": false,
          "internalType": "uint256",
          "name": "confidence",
          "type": "uint256"
        }
      ],
      "name": "AIPredictionSubmitted",
      "type": "event"
    },
    {
      "anonymous": false,
      "inputs": [
        {
          "indexed": true,
          "internalType": "bytes32",
          "name": "modelId",
          "type": "bytes32"
        },
        {
          "indexed": false,
          "internalType": "uint256",
          "name": "predictionIndex",
          "type": "uint256"
        },
        {
          "indexed": false,
          "internalType": "uint256",
          "name": "accuracy",
          "type": "uint256"
        }
      ],
      "name": "AIPredictionValidated",
      "type": "event"
    },
    {
      "anonymous": false,
      "inputs": [
        {
          "indexed": true,
          "internalType": "bytes32",
          "name": "decisionId",
          "type": "bytes32"
        },
        {
          "indexed": false,
          "internalType": "uint256",
          "name": "action",
          "type": "uint256"
        }
      ],
      "name": "AutomatedDecisionExecuted",
      "type": "event"
    },
    {
      "anonymous": false,
      "inputs": [
        {
          "indexed": true,
          "internalType": "bytes32",
          "name": "decisionId",
          "type": "bytes32"
        },
        {
          "indexed": false,
          "internalType": "string",
          "name": "decisionType",
          "type": "string"
        },
        {
          "indexed": true,
          "internalType": "address",
          "name": "farmer",
          "type": "address"
        },
        {
          "indexed": false,
          "internalType": "uint256",
          "name": "recommendedAction",
          "type": "uint256"
        },
        {
          "indexed": false,
          "internalType": "uint256",
          "name": "confidence",
          "type": "uint256"
        }
      ],
      "name": "AutomatedDecisionMade",
      "type": "event"
    },
    {
      "anonymous": false,
      "inputs": [
        {
          "indexed": true,
          "internalType": "uint256",
          "name": "chainId",
          "type": "uint256"
        },
        {
          "indexed": true,
          "internalType": "bytes32",
          "name": "modelId",
          "type": "bytes32"
        },
        {
          "indexed": false,
          "internalType": "uint256",
          "name": "timestamp",
          "type": "uint256"
        }
      ],
      "name": "CrossChainAISynced",
      "type": "event"
    },
    {
      "anonymous": false,
      "inputs": [
        {
          "indexed": true,
          "internalType": "uint256",
          "name": "chainId",
          "type": "uint256"
        },
        {
          "indexed": true,
          "internalType": "bytes32",
          "name": "feedId",
          "type": "bytes32"
        },
        {
          "indexed": false,
          "internalType": "uint256",
          "name": "value",
          "type": "uint256"
        },
        {
          "indexed": false,
          "internalType": "uint256",
          "name": "confidence",
          "type": "uint256"
        }
      ],
      "name": "CrossChainDataSynced",
      "type": "event"
    },
    {
      "anonymous": false,
      "inputs": [
        {
          "indexed": true,
          "internalType": "uint256",
          "name": "chainId",
          "type": "uint256"
        },
        {
          "indexed": true,
          "internalType": "address",
          "name": "remoteOracle",
          "type": "address"
        }
      ],
      "name": "CrossChainOracleAdded",
      "type": "event"
    },
    {
      "anonymous": false,
      "inputs": [
        {
          "indexed": true,
          "internalType": "bytes32",
          "name": "feedId",
          "type": "bytes32"
        },
        {
          "indexed": false,
          "internalType": "uint256",
          "name": "finalValue",
          "type": "uint256"
        },
        {
          "indexed": false,
          "internalType": "uint256",
          "name": "confidence",
          "type": "uint256"
        }
      ],
      "name": "DataFinalized",
      "type": "event"
    },
    {
      "anonymous": false,
      "inputs": [
        {
          "indexed": true,
          "internalType": "bytes32",
          "name": "feedId",
          "type": "bytes32"
        },
        {
          "indexed": true,
          "internalType": "address",
          "name": "submitter",
          "type": "address"
        },
        {
          "indexed": false,
          "internalType": "enum DecentralizedOracle.DataType",
          "name": "dataType",
          "type": "uint8"
        },
        {
          "indexed": false,
          "internalType": "uint256",
          "name": "value",
          "type": "uint256"
        }
      ],
      "name": "DataSubmitted",
      "type": "event"
    },
    {
      "anonymous": false,
      "inputs": [
        {
          "indexed": true,
          "internalType": "bytes32",
          "name": "feedId",
          "type": "bytes32"
        },
        {
          "indexed": true,
          "internalType": "address",
          "name": "validator",
          "type": "address"
        },
        {
          "indexed": false,
          "internalType": "uint256",
          "name": "value",
          "type": "uint256"
        }
      ],
      "name": "DataValidated",
      "type": "event"
    },
    {
      "anonymous": false,
      "inputs": [
        {
          "indexed": false,
          "internalType": "uint64",
          "name": "version",
          "type": "uint64"
        }
      ],
      "name": "Initialized",
      "type": "event"
    },
    {
      "anonymous": false,
      "inputs": [
        {
          "indexed": true,
          "internalType": "address",
          "name": "node",
          "type": "address"
        },
        {
          "indexed": false,
          "internalType": "uint256",
          "name": "amount",
          "type": "uint256"
        }
      ],
      "name": "NodeSlashed",
      "type": "event"
    },
    {
      "anonymous": false,
      "inputs": [
        {
          "indexed": true,
          "internalType": "address",
          "name": "node",
          "type": "address"
        },
        {
          "indexed": false,
          "internalType": "uint256",
          "name": "stakeAmount",
          "type": "uint256"
        }
      ],
      "name": "OracleNodeRegistered",
      "type": "event"
    },
    {
      "anonymous": false,
      "inputs": [
        {
          "indexed": true,
          "internalType": "address",
          "name": "node",
          "type": "address"
        },
        {
          "indexed": false,
          "internalType": "uint256",
          "name": "penalty",
          "type": "uint256"
        }
      ],
      "name": "OracleNodeSlashed",
      "type": "event"
    },
    {
      "anonymous": false,
      "inputs": [
        {
          "indexed": true,
          "internalType": "address",
          "name": "previousOwner",
          "type": "address"
        },
        {
          "indexed": true,
          "internalType": "address",
          "name": "newOwner",
          "type": "address"
        }
      ],
      "name": "OwnershipTransferred",
      "type": "event"
    },
    {
      "anonymous": false,
      "inputs": [
        {
          "indexed": true,
          "internalType": "address",
          "name": "farmer",
          "type": "address"
        },
        {
          "indexed": true,
          "internalType": "bytes32",
          "name": "analyticsId",
          "type": "bytes32"
        },
        {
          "indexed": false,
          "internalType": "uint256",
          "name": "predictedYield",
          "type": "uint256"
        },
        {
          "indexed": false,
          "internalType": "uint256",
          "name": "confidence",
          "type": "uint256"
        }
      ],
      "name": "PredictiveAnalyticsGenerated",
      "type": "event"
    },
    {
      "anonymous": false,
      "inputs": [
        {
          "indexed": true,
          "internalType": "address",
          "name": "recipient",
          "type": "address"
        },
        {
          "indexed": false,
          "internalType": "uint256",
          "name": "amount",
          "type": "uint256"
        }
      ],
      "name": "RewardMinted",
      "type": "event"
    },
    {
      "anonymous": false,
      "inputs": [
        {
          "indexed": true,
          "internalType": "address",
          "name": "token",
          "type": "address"
        }
      ],
      "name": "RewardTokenSet",
      "type": "event"
    },
    {
      "anonymous": false,
      "inputs": [
        {
          "indexed": true,
          "internalType": "address",
          "name": "implementation",
          "type": "address"
        }
      ],
      "name": "Upgraded",
      "type": "event"
    },
    {
      "inputs": [],
      "name": "UPGRADE_INTERFACE_VERSION",
      "outputs": [
        {
          "internalType": "string",
          "name": "",
          "type": "string"
        }
      ],
      "stateMutability": "view",
      "type": "function"
    },
    {
      "inputs": [
        {
          "internalType": "uint256",
          "name": "",
          "type": "uint256"
        }
      ],
      "name": "activeModels",
      "outputs": [
        {
          "internalType": "bytes32",
          "name": "",
          "type": "bytes32"
        }
      ],
      "stateMutability": "view",
      "type": "function"
    },
    {
      "inputs": [
        {
          "internalType": "uint256",
          "name": "",
          "type": "uint256"
        }
      ],
      "name": "activeNodes",
      "outputs": [
        {
          "internalType": "address",
          "name": "",
          "type": "address"
        }
      ],
      "stateMutability": "view",
      "type": "function"
    },
    {
      "inputs": [
        {
          "internalType": "uint256",
          "name": "chainId",
          "type": "uint256"
        },
        {
          "internalType": "address",
          "name": "remoteOracle",
          "type": "address"
        }
      ],
      "name": "addCrossChainOracle",
      "outputs": [],
      "stateMutability": "nonpayable",
      "type": "function"
    },
    {
      "inputs": [
        {
          "internalType": "bytes32",
          "name": "",
          "type": "bytes32"
        }
      ],
      "name": "aiModels",
      "outputs": [
        {
          "internalType": "string",
          "name": "name",
          "type": "string"
        },
        {
          "internalType": "string",
          "name": "version",
          "type": "string"
        },
        {
          "internalType": "bytes32",
          "name": "modelHash",
          "type": "bytes32"
        },
        {
          "internalType": "uint256",
          "name": "accuracy",
          "type": "uint256"
        },
        {
          "internalType": "uint256",
          "name": "lastUpdated",
          "type": "uint256"
        },
        {
          "internalType": "address",
          "name": "maintainer",
          "type": "address"
        },
        {
          "internalType": "bool",
          "name": "active",
          "type": "bool"
        },
        {
          "internalType": "uint256",
          "name": "totalPredictions",
          "type": "uint256"
        },
        {
          "internalType": "uint256",
          "name": "successfulPredictions",
          "type": "uint256"
        }
      ],
      "stateMutability": "view",
      "type": "function"
    },
    {
      "inputs": [
        {
          "internalType": "bytes32",
          "name": "",
          "type": "bytes32"
        }
      ],
      "name": "automatedDecisions",
      "outputs": [
        {
          "internalType": "bytes32",
          "name": "decisionId",
          "type": "bytes32"
        },
        {
          "internalType": "string",
          "name": "decisionType",
          "type": "string"
        },
        {
          "internalType": "uint256",
          "name": "confidence",
          "type": "uint256"
        },
        {
          "internalType": "uint256",
          "name": "riskLevel",
          "type": "uint256"
        },
        {
          "internalType": "uint256",
          "name": "recommendedAction",
          "type": "uint256"
        },
        {
          "internalType": "uint256",
          "name": "timestamp",
          "type": "uint256"
        },
        {
          "internalType": "address",
          "name": "farmer",
          "type": "address"
        },
        {
          "internalType": "bool",
          "name": "executed",
          "type": "bool"
        }
      ],
      "stateMutability": "view",
      "type": "function"
    },
    {
      "inputs": [
        {
          "internalType": "address",
          "name": "node",
          "type": "address"
        }
      ],
      "name": "calculateNodeReputation",
      "outputs": [
        {
          "internalType": "uint256",
          "name": "",
          "type": "uint256"
        }
      ],
      "stateMutability": "view",
      "type": "function"
    },
    {
      "inputs": [],
      "name": "consensusThreshold",
      "outputs": [
        {
          "internalType": "uint256",
          "name": "",
          "type": "uint256"
        }
      ],
      "stateMutability": "view",
      "type": "function"
    },
    {
      "inputs": [
        {
          "internalType": "uint256",
          "name": "",
          "type": "uint256"
        }
      ],
      "name": "crossChainOracles",
      "outputs": [
        {
          "internalType": "uint256",
          "name": "chainId",
          "type": "uint256"
        },
        {
          "internalType": "address",
          "name": "remoteOracle",
          "type": "address"
        },
        {
          "internalType": "uint256",
          "name": "trustScore",
          "type": "uint256"
        },
        {
          "internalType": "bool",
          "name": "active",
          "type": "bool"
        },
        {
          "internalType": "uint256",
          "name": "lastSyncTime",
          "type": "uint256"
        }
      ],
      "stateMutability": "view",
      "type": "function"
    },
    {
      "inputs": [
        {
          "internalType": "bytes32",
          "name": "",
          "type": "bytes32"
        }
      ],
      "name": "dataFeeds",
      "outputs": [
        {
          "internalType": "enum DecentralizedOracle.DataType",
          "name": "dataType",
          "type": "uint8"
        },
        {
          "internalType": "string",
          "name": "location",
          "type": "string"
        },
        {
          "internalType": "string",
          "name": "parameters",
          "type": "string"
        },
        {
          "internalType": "uint256",
          "name": "timestamp",
          "type": "uint256"
        },
        {
          "internalType": "uint256",
          "name": "value",
          "type": "uint256"
        },
        {
          "internalType": "uint256",
          "name": "confidence",
          "type": "uint256"
        },
        {
          "internalType": "address",
          "name": "submittedBy",
          "type": "address"
        },
        {
          "internalType": "uint256",
          "name": "validations",
          "type": "uint256"
        },
        {
          "internalType": "uint256",
          "name": "totalReputation",
          "type": "uint256"
        },
        {
          "internalType": "bool",
          "name": "finalized",
          "type": "bool"
        }
      ],
      "stateMutability": "view",
      "type": "function"
    },
    {
      "inputs": [
        {
          "internalType": "bytes32",
          "name": "modelId",
          "type": "bytes32"
        }
      ],
      "name": "deactivateAIModel",
      "outputs": [],
      "stateMutability": "nonpayable",
      "type": "function"
    },
    {
      "inputs": [],
      "name": "emergencyPause",
      "outputs": [],
      "stateMutability": "nonpayable",
      "type": "function"
    },
    {
      "inputs": [],
      "name": "emergencyUnpause",
      "outputs": [],
      "stateMutability": "nonpayable",
      "type": "function"
    },
    {
      "inputs": [
        {
          "internalType": "bytes32",
          "name": "_decisionId",
          "type": "bytes32"
        }
      ],
      "name": "executeAutomatedDecision",
      "outputs": [],
      "stateMutability": "nonpayable",
      "type": "function"
    },
    {
      "inputs": [
        {
          "internalType": "address",
          "name": "",
          "type": "address"
        },
        {
          "internalType": "uint256",
          "name": "",
          "type": "uint256"
        }
      ],
      "name": "farmerAnalytics",
      "outputs": [
        {
          "internalType": "bytes32",
          "name": "analyticsId",
          "type": "bytes32"
        },
        {
          "internalType": "string",
          "name": "cropType",
          "type": "string"
        },
        {
          "internalType": "string",
          "name": "location",
          "type": "string"
        },
        {
          "internalType": "uint256",
          "name": "predictedYield",
          "type": "uint256"
        },
        {
          "internalType": "uint256",
          "name": "weatherRisk",
          "type": "uint256"
        },
        {
          "internalType": "uint256",
          "name": "marketPrice",
          "type": "uint256"
        },
        {
          "internalType": "uint256",
          "name": "optimalHarvestTime",
          "type": "uint256"
        },
        {
          "internalType": "uint256",
          "name": "confidence",
          "type": "uint256"
        },
        {
          "internalType": "uint256",
          "name": "timestamp",
          "type": "uint256"
        }
      ],
      "stateMutability": "view",
      "type": "function"
    },
    {
      "inputs": [
        {
          "internalType": "bytes32",
          "name": "",
          "type": "bytes32"
        },
        {
          "internalType": "uint256",
          "name": "",
          "type": "uint256"
        }
      ],
      "name": "feedValidations",
      "outputs": [
        {
          "internalType": "address",
          "name": "validator",
          "type": "address"
        },
        {
          "internalType": "uint256",
          "name": "value",
          "type": "uint256"
        },
        {
          "internalType": "uint256",
          "name": "timestamp",
          "type": "uint256"
        },
        {
          "internalType": "uint256",
          "name": "reputation",
          "type": "uint256"
        }
      ],
      "stateMutability": "view",
      "type": "function"
    },
    {
      "inputs": [
        {
          "internalType": "address",
          "name": "_farmer",
          "type": "address"
        },
        {
          "internalType": "string",
          "name": "_cropType",
          "type": "string"
        },
        {
          "internalType": "string",
          "name": "_location",
          "type": "string"
        }
      ],
      "name": "generatePredictiveAnalytics",
      "outputs": [
        {
          "internalType": "bytes32",
          "name": "analyticsId",
          "type": "bytes32"
        }
      ],
      "stateMutability": "nonpayable",
      "type": "function"
    },
    {
      "inputs": [
        {
          "internalType": "bytes32",
          "name": "modelId",
          "type": "bytes32"
        }
      ],
      "name": "getAIModel",
      "outputs": [
        {
          "components": [
            {
              "internalType": "string",
              "name": "name",
              "type": "string"
            },
            {
              "internalType": "string",
              "name": "version",
              "type": "string"
            },
            {
              "internalType": "bytes32",
              "name": "modelHash",
              "type": "bytes32"
            },
            {
              "internalType": "uint256",
              "name": "accuracy",
              "type": "uint256"
            },
            {
              "internalType": "uint256",
              "name": "lastUpdated",
              "type": "uint256"
            },
            {
              "internalType": "address",
              "name": "maintainer",
              "type": "address"
            },
            {
              "internalType": "bool",
              "name": "active",
              "type": "bool"
            },
            {
              "internalType": "uint256",
              "name": "totalPredictions",
              "type": "uint256"
            },
            {
              "internalType": "uint256",
              "name": "successfulPredictions",
              "type": "uint256"
            }
          ],
          "internalType": "struct DecentralizedOracle.AIModel",
          "name": "",
          "type": "tuple"
        }
      ],
      "stateMutability": "view",
      "type": "function"
    },
    {
      "inputs": [],
      "name": "getActiveNodes",
      "outputs": [
        {
          "internalType": "address[]",
          "name": "",
          "type": "address[]"
        }
      ],
      "stateMutability": "view",
      "type": "function"
    },
    {
      "inputs": [
        {
          "internalType": "bytes32",
          "name": "_decisionId",
          "type": "bytes32"
        }
      ],
      "name": "getAutomatedDecision",
      "outputs": [
        {
          "components": [
            {
              "internalType": "bytes32",
              "name": "decisionId",
              "type": "bytes32"
            },
            {
              "internalType": "string",
              "name": "decisionType",
              "type": "string"
            },
            {
              "internalType": "uint256",
              "name": "confidence",
              "type": "uint256"
            },
            {
              "internalType": "uint256",
              "name": "riskLevel",
              "type": "uint256"
            },
            {
              "internalType": "uint256",
              "name": "recommendedAction",
              "type": "uint256"
            },
            {
              "internalType": "uint256",
              "name": "timestamp",
              "type": "uint256"
            },
            {
              "internalType": "address",
              "name": "farmer",
              "type": "address"
            },
            {
              "internalType": "bool",
              "name": "executed",
              "type": "bool"
            }
          ],
          "internalType": "struct DecentralizedOracle.AutomatedDecision",
          "name": "",
          "type": "tuple"
        }
      ],
      "stateMutability": "view",
      "type": "function"
    },
    {
      "inputs": [
        {
          "internalType": "uint256",
          "name": "chainId",
          "type": "uint256"
        }
      ],
      "name": "getCrossChainOracle",
      "outputs": [
        {
          "components": [
            {
              "internalType": "uint256",
              "name": "chainId",
              "type": "uint256"
            },
            {
              "internalType": "address",
              "name": "remoteOracle",
              "type": "address"
            },
            {
              "internalType": "uint256",
              "name": "trustScore",
              "type": "uint256"
            },
            {
              "internalType": "bool",
              "name": "active",
              "type": "bool"
            },
            {
              "internalType": "uint256",
              "name": "lastSyncTime",
              "type": "uint256"
            }
          ],
          "internalType": "struct DecentralizedOracle.CrossChainOracle",
          "name": "",
          "type": "tuple"
        }
      ],
      "stateMutability": "view",
      "type": "function"
    },
    {
      "inputs": [
        {
          "internalType": "bytes32",
          "name": "_feedId",
          "type": "bytes32"
        }
      ],
      "name": "getDataFeed",
      "outputs": [
        {
          "components": [
            {
              "internalType": "enum DecentralizedOracle.DataType",
              "name": "dataType",
              "type": "uint8"
            },
            {
              "internalType": "string",
              "name": "location",
              "type": "string"
            },
            {
              "internalType": "string",
              "name": "parameters",
              "type": "string"
            },
            {
              "internalType": "uint256",
              "name": "timestamp",
              "type": "uint256"
            },
            {
              "internalType": "uint256",
              "name": "value",
              "type": "uint256"
            },
            {
              "internalType": "uint256",
              "name": "confidence",
              "type": "uint256"
            },
            {
              "internalType": "address",
              "name": "submittedBy",
              "type": "address"
            },
            {
              "internalType": "uint256",
              "name": "validations",
              "type": "uint256"
            },
            {
              "internalType": "uint256",
              "name": "totalReputation",
              "type": "uint256"
            },
            {
              "internalType": "bool",
              "name": "finalized",
              "type": "bool"
            }
          ],
          "internalType": "struct DecentralizedOracle.DataFeed",
          "name": "",
          "type": "tuple"
        }
      ],
      "stateMutability": "view",
      "type": "function"
    },
    {
      "inputs": [
        {
          "internalType": "bytes32",
          "name": "_feedId",
          "type": "bytes32"
        }
      ],
      "name": "getDataValidations",
      "outputs": [
        {
          "components": [
            {
              "internalType": "address",
              "name": "validator",
              "type": "address"
            },
            {
              "internalType": "uint256",
              "name": "value",
              "type": "uint256"
            },
            {
              "internalType": "uint256",
              "name": "timestamp",
              "type": "uint256"
            },
            {
              "internalType": "uint256",
              "name": "reputation",
              "type": "uint256"
            }
          ],
          "internalType": "struct DecentralizedOracle.Validation[]",
          "name": "",
          "type": "tuple[]"
        }
      ],
      "stateMutability": "view",
      "type": "function"
    },
    {
      "inputs": [
        {
          "internalType": "address",
          "name": "_farmer",
          "type": "address"
        }
      ],
      "name": "getFarmerAnalytics",
      "outputs": [
        {
          "components": [
            {
              "internalType": "bytes32",
              "name": "analyticsId",
              "type": "bytes32"
            },
            {
              "internalType": "string",
              "name": "cropType",
              "type": "string"
            },
            {
              "internalType": "string",
              "name": "location",
              "type": "string"
            },
            {
              "internalType": "uint256",
              "name": "predictedYield",
              "type": "uint256"
            },
            {
              "internalType": "uint256",
              "name": "weatherRisk",
              "type": "uint256"
            },
            {
              "internalType": "uint256",
              "name": "marketPrice",
              "type": "uint256"
            },
            {
              "internalType": "uint256",
              "name": "optimalHarvestTime",
              "type": "uint256"
            },
            {
              "internalType": "uint256",
              "name": "confidence",
              "type": "uint256"
            },
            {
              "internalType": "uint256",
              "name": "timestamp",
              "type": "uint256"
            }
          ],
          "internalType": "struct DecentralizedOracle.PredictiveAnalytics[]",
          "name": "",
          "type": "tuple[]"
        }
      ],
      "stateMutability": "view",
      "type": "function"
    },
    {
      "inputs": [
        {
          "internalType": "address",
          "name": "_farmer",
          "type": "address"
        }
      ],
      "name": "getLatestAnalytics",
      "outputs": [
        {
          "components": [
            {
              "internalType": "bytes32",
              "name": "analyticsId",
              "type": "bytes32"
            },
            {
              "internalType": "string",
              "name": "cropType",
              "type": "string"
            },
            {
              "internalType": "string",
              "name": "location",
              "type": "string"
            },
            {
              "internalType": "uint256",
              "name": "predictedYield",
              "type": "uint256"
            },
            {
              "internalType": "uint256",
              "name": "weatherRisk",
              "type": "uint256"
            },
            {
              "internalType": "uint256",
              "name": "marketPrice",
              "type": "uint256"
            },
            {
              "internalType": "uint256",
              "name": "optimalHarvestTime",
              "type": "uint256"
            },
            {
              "internalType": "uint256",
              "name": "confidence",
              "type": "uint256"
            },
            {
              "internalType": "uint256",
              "name": "timestamp",
              "type": "uint256"
            }
          ],
          "internalType": "struct DecentralizedOracle.PredictiveAnalytics",
          "name": "",
          "type": "tuple"
        }
      ],
      "stateMutability": "view",
      "type": "function"
    },
    {
      "inputs": [
        {
          "internalType": "enum DecentralizedOracle.DataType",
          "name": "_dataType",
          "type": "uint8"
        },
        {
          "internalType": "string",
          "name": "_location",
          "type": "string"
        },
        {
          "internalType": "string",
          "name": "_parameters",
          "type": "string"
        }
      ],
      "name": "getLatestData",
      "outputs": [
        {
          "internalType": "uint256",
          "name": "value",
          "type": "uint256"
        },
        {
          "internalType": "uint256",
          "name": "confidence",
          "type": "uint256"
        },
        {
          "internalType": "uint256",
          "name": "timestamp",
          "type": "uint256"
        }
      ],
      "stateMutability": "view",
      "type": "function"
    },
    {
      "inputs": [
        {
          "internalType": "bytes32",
          "name": "modelId",
          "type": "bytes32"
        }
      ],
      "name": "getModelPredictions",
      "outputs": [
        {
          "components": [
            {
              "internalType": "bytes32",
              "name": "feedId",
              "type": "bytes32"
            },
            {
              "internalType": "uint256",
              "name": "predictedValue",
              "type": "uint256"
            },
            {
              "internalType": "uint256",
              "name": "confidence",
              "type": "uint256"
            },
            {
              "internalType": "uint256",
              "name": "timestamp",
              "type": "uint256"
            },
            {
              "internalType": "address",
              "name": "modelUsed",
              "type": "address"
            },
            {
              "internalType": "bool",
              "name": "validated",
              "type": "bool"
            },
            {
              "internalType": "uint256",
              "name": "actualValue",
              "type": "uint256"
            }
          ],
          "internalType": "struct DecentralizedOracle.Prediction[]",
          "name": "",
          "type": "tuple[]"
        }
      ],
      "stateMutability": "view",
      "type": "function"
    },
    {
      "inputs": [
        {
          "internalType": "address",
          "name": "_node",
          "type": "address"
        }
      ],
      "name": "getNodeReputation",
      "outputs": [
        {
          "internalType": "uint256",
          "name": "",
          "type": "uint256"
        }
      ],
      "stateMutability": "view",
      "type": "function"
    },
    {
      "inputs": [
        {
          "internalType": "address",
          "name": "_node",
          "type": "address"
        }
      ],
      "name": "getOracleNode",
      "outputs": [
        {
          "components": [
            {
              "internalType": "address",
              "name": "nodeAddress",
              "type": "address"
            },
            {
              "internalType": "uint256",
              "name": "reputation",
              "type": "uint256"
            },
            {
              "internalType": "uint256",
              "name": "totalSubmissions",
              "type": "uint256"
            },
            {
              "internalType": "uint256",
              "name": "successfulSubmissions",
              "type": "uint256"
            },
            {
              "internalType": "bool",
              "name": "active",
              "type": "bool"
            },
            {
              "internalType": "uint256",
              "name": "stakeAmount",
              "type": "uint256"
            },
            {
              "internalType": "uint256",
              "name": "lastSubmissionTime",
              "type": "uint256"
            }
          ],
          "internalType": "struct DecentralizedOracle.OracleNode",
          "name": "",
          "type": "tuple"
        }
      ],
      "stateMutability": "view",
      "type": "function"
    },
    {
      "inputs": [],
      "name": "getSupportedChains",
      "outputs": [
        {
          "internalType": "uint256[]",
          "name": "",
          "type": "uint256[]"
        }
      ],
      "stateMutability": "view",
      "type": "function"
    },
    {
      "inputs": [
        {
          "internalType": "address",
          "name": "_rewardToken",
          "type": "address"
        }
      ],
      "name": "initialize",
      "outputs": [],
      "stateMutability": "nonpayable",
      "type": "function"
    },
    {
      "inputs": [
        {
          "internalType": "string",
          "name": "_decisionType",
          "type": "string"
        },
        {
          "internalType": "address",
          "name": "_farmer",
          "type": "address"
        },
        {
          "internalType": "bytes32",
          "name": "_feedId",
          "type": "bytes32"
        }
      ],
      "name": "makeAutomatedDecision",
      "outputs": [
        {
          "internalType": "bytes32",
          "name": "decisionId",
          "type": "bytes32"
        }
      ],
      "stateMutability": "nonpayable",
      "type": "function"
    },
    {
      "inputs": [],
      "name": "maxReputation",
      "outputs": [
        {
          "internalType": "uint256",
          "name": "",
          "type": "uint256"
        }
      ],
      "stateMutability": "view",
      "type": "function"
    },
    {
      "inputs": [],
      "name": "minReputation",
      "outputs": [
        {
          "internalType": "uint256",
          "name": "",
          "type": "uint256"
        }
      ],
      "stateMutability": "view",
      "type": "function"
    },
    {
      "inputs": [],
      "name": "minStakeAmount",
      "outputs": [
        {
          "internalType": "uint256",
          "name": "",
          "type": "uint256"
        }
      ],
      "stateMutability": "view",
      "type": "function"
    },
    {
      "inputs": [],
      "name": "minValidations",
      "outputs": [
        {
          "internalType": "uint256",
          "name": "",
          "type": "uint256"
        }
      ],
      "stateMutability": "view",
      "type": "function"
    },
    {
      "inputs": [
        {
          "internalType": "bytes32",
          "name": "",
          "type": "bytes32"
        },
        {
          "internalType": "uint256",
          "name": "",
          "type": "uint256"
        }
      ],
      "name": "modelPredictions",
      "outputs": [
        {
          "internalType": "bytes32",
          "name": "feedId",
          "type": "bytes32"
        },
        {
          "internalType": "uint256",
          "name": "predictedValue",
          "type": "uint256"
        },
        {
          "internalType": "uint256",
          "name": "confidence",
          "type": "uint256"
        },
        {
          "internalType": "uint256",
          "name": "timestamp",
          "type": "uint256"
        },
        {
          "internalType": "address",
          "name": "modelUsed",
          "type": "address"
        },
        {
          "internalType": "bool",
          "name": "validated",
          "type": "bool"
        },
        {
          "internalType": "uint256",
          "name": "actualValue",
          "type": "uint256"
        }
      ],
      "stateMutability": "view",
      "type": "function"
    },
    {
      "inputs": [
        {
          "internalType": "address",
          "name": "",
          "type": "address"
        }
      ],
      "name": "nodeStakes",
      "outputs": [
        {
          "internalType": "uint256",
          "name": "",
          "type": "uint256"
        }
      ],
      "stateMutability": "view",
      "type": "function"
    },
    {
      "inputs": [
        {
          "internalType": "address",
          "name": "",
          "type": "address"
        }
      ],
      "name": "oracleNodes",
      "outputs": [
        {
          "internalType": "address",
          "name": "nodeAddress",
          "type": "address"
        },
        {
          "internalType": "uint256",
          "name": "reputation",
          "type": "uint256"
        },
        {
          "internalType": "uint256",
          "name": "totalSubmissions",
          "type": "uint256"
        },
        {
          "internalType": "uint256",
          "name": "successfulSubmissions",
          "type": "uint256"
        },
        {
          "internalType": "bool",
          "name": "active",
          "type": "bool"
        },
        {
          "internalType": "uint256",
          "name": "stakeAmount",
          "type": "uint256"
        },
        {
          "internalType": "uint256",
          "name": "lastSubmissionTime",
          "type": "uint256"
        }
      ],
      "stateMutability": "view",
      "type": "function"
    },
    {
      "inputs": [],
      "name": "owner",
      "outputs": [
        {
          "internalType": "address",
          "name": "",
          "type": "address"
        }
      ],
      "stateMutability": "view",
      "type": "function"
    },
    {
      "inputs": [],
      "name": "predictionReward",
      "outputs": [
        {
          "internalType": "uint256",
          "name": "",
          "type": "uint256"
        }
      ],
      "stateMutability": "view",
      "type": "function"
    },
    {
      "inputs": [],
      "name": "proxiableUUID",
      "outputs": [
        {
          "internalType": "bytes32",
          "name": "",
          "type": "bytes32"
        }
      ],
      "stateMutability": "view",
      "type": "function"
    },
    {
      "inputs": [
        {
          "internalType": "string",
          "name": "name",
          "type": "string"
        },
        {
          "internalType": "string",
          "name": "version",
          "type": "string"
        },
        {
          "internalType": "bytes32",
          "name": "modelHash",
          "type": "bytes32"
        },
        {
          "internalType": "uint256",
          "name": "initialAccuracy",
          "type": "uint256"
        }
      ],
      "name": "registerAIModel",
      "outputs": [
        {
          "internalType": "bytes32",
          "name": "",
          "type": "bytes32"
        }
      ],
      "stateMutability": "nonpayable",
      "type": "function"
    },
    {
      "inputs": [],
      "name": "registerOracleNode",
      "outputs": [],
      "stateMutability": "payable",
      "type": "function"
    },
    {
      "inputs": [],
      "name": "renounceOwnership",
      "outputs": [],
      "stateMutability": "nonpayable",
      "type": "function"
    },
    {
      "inputs": [],
      "name": "reputationThreshold",
      "outputs": [
        {
          "internalType": "uint256",
          "name": "",
          "type": "uint256"
        }
      ],
      "stateMutability": "view",
      "type": "function"
    },
    {
      "inputs": [],
      "name": "rewardToken",
      "outputs": [
        {
          "internalType": "address",
          "name": "",
          "type": "address"
        }
      ],
      "stateMutability": "view",
      "type": "function"
    },
    {
      "inputs": [
        {
          "internalType": "address",
          "name": "_token",
          "type": "address"
        }
      ],
      "name": "setRewardToken",
      "outputs": [],
      "stateMutability": "nonpayable",
      "type": "function"
    },
    {
      "inputs": [],
      "name": "slashingPenalty",
      "outputs": [
        {
          "internalType": "uint256",
          "name": "",
          "type": "uint256"
        }
      ],
      "stateMutability": "view",
      "type": "function"
    },
    {
      "inputs": [
        {
          "internalType": "bytes32",
          "name": "modelId",
          "type": "bytes32"
        },
        {
          "internalType": "enum DecentralizedOracle.DataType",
          "name": "dataType",
          "type": "uint8"
        },
        {
          "internalType": "string",
          "name": "location",
          "type": "string"
        },
        {
          "internalType": "string",
          "name": "parameters",
          "type": "string"
        },
        {
          "internalType": "uint256",
          "name": "predictedValue",
          "type": "uint256"
        },
        {
          "internalType": "uint256",
          "name": "confidence",
          "type": "uint256"
        }
      ],
      "name": "submitAIPrediction",
      "outputs": [],
      "stateMutability": "nonpayable",
      "type": "function"
    },
    {
      "inputs": [
        {
          "internalType": "enum DecentralizedOracle.DataType",
          "name": "_dataType",
          "type": "uint8"
        },
        {
          "internalType": "string",
          "name": "_location",
          "type": "string"
        },
        {
          "internalType": "string",
          "name": "_parameters",
          "type": "string"
        },
        {
          "internalType": "uint256",
          "name": "_value",
          "type": "uint256"
        },
        {
          "internalType": "uint256",
          "name": "_confidence",
          "type": "uint256"
        }
      ],
      "name": "submitData",
      "outputs": [
        {
          "internalType": "bytes32",
          "name": "",
          "type": "bytes32"
        }
      ],
      "stateMutability": "nonpayable",
      "type": "function"
    },
    {
      "inputs": [
        {
          "internalType": "string",
          "name": "_deviceId",
          "type": "string"
        },
        {
          "internalType": "enum DecentralizedOracle.DataType",
          "name": "_dataType",
          "type": "uint8"
        },
        {
          "internalType": "string",
          "name": "_location",
          "type": "string"
        },
        {
          "internalType": "string",
          "name": "_sensorData",
          "type": "string"
        },
        {
          "internalType": "bytes",
          "name": "_signature",
          "type": "bytes"
        }
      ],
      "name": "submitIoTData",
      "outputs": [
        {
          "internalType": "bytes32",
          "name": "",
          "type": "bytes32"
        }
      ],
      "stateMutability": "nonpayable",
      "type": "function"
    },
    {
      "inputs": [
        {
          "internalType": "uint256",
          "name": "",
          "type": "uint256"
        }
      ],
      "name": "supportedChains",
      "outputs": [
        {
          "internalType": "uint256",
          "name": "",
          "type": "uint256"
        }
      ],
      "stateMutability": "view",
      "type": "function"
    },
    {
      "inputs": [
        {
          "internalType": "uint256",
          "name": "_chainId",
          "type": "uint256"
        },
        {
          "internalType": "bytes32",
          "name": "_modelId",
          "type": "bytes32"
        },
        {
          "internalType": "bytes",
          "name": "_data",
          "type": "bytes"
        }
      ],
      "name": "syncCrossChainAIData",
      "outputs": [],
      "stateMutability": "nonpayable",
      "type": "function"
    },
    {
      "inputs": [
        {
          "internalType": "uint256",
          "name": "chainId",
          "type": "uint256"
        },
        {
          "internalType": "bytes32",
          "name": "feedId",
          "type": "bytes32"
        },
        {
          "internalType": "uint256",
          "name": "value",
          "type": "uint256"
        },
        {
          "internalType": "uint256",
          "name": "confidence",
          "type": "uint256"
        }
      ],
      "name": "syncCrossChainData",
      "outputs": [],
      "stateMutability": "nonpayable",
      "type": "function"
    },
    {
      "inputs": [],
      "name": "totalStaked",
      "outputs": [
        {
          "internalType": "uint256",
          "name": "",
          "type": "uint256"
        }
      ],
      "stateMutability": "view",
      "type": "function"
    },
    {
      "inputs": [
        {
          "internalType": "address",
          "name": "newOwner",
          "type": "address"
        }
      ],
      "name": "transferOwnership",
      "outputs": [],
      "stateMutability": "nonpayable",
      "type": "function"
    },
    {
      "inputs": [],
      "name": "unregisterOracleNode",
      "outputs": [],
      "stateMutability": "nonpayable",
      "type": "function"
    },
    {
      "inputs": [
        {
          "internalType": "uint256",
          "name": "_predictionReward",
          "type": "uint256"
        },
        {
          "internalType": "uint256",
          "name": "_validationReward",
          "type": "uint256"
        }
      ],
      "name": "updateAIParameters",
      "outputs": [],
      "stateMutability": "nonpayable",
      "type": "function"
    },
    {
      "inputs": [
        {
          "internalType": "uint256",
          "name": "_consensusThreshold",
          "type": "uint256"
        },
        {
          "internalType": "uint256",
          "name": "_minValidations",
          "type": "uint256"
        },
        {
          "internalType": "uint256",
          "name": "_validationPeriod",
          "type": "uint256"
        }
      ],
      "name": "updateConsensusParameters",
      "outputs": [],
      "stateMutability": "nonpayable",
      "type": "function"
    },
    {
      "inputs": [
        {
          "internalType": "uint256",
          "name": "_maxReputation",
          "type": "uint256"
        },
        {
          "internalType": "uint256",
          "name": "_minReputation",
          "type": "uint256"
        }
      ],
      "name": "updateReputationParameters",
      "outputs": [],
      "stateMutability": "nonpayable",
      "type": "function"
    },
    {
      "inputs": [
        {
          "internalType": "uint256",
          "name": "_minStakeAmount",
          "type": "uint256"
        },
        {
          "internalType": "uint256",
          "name": "_slashingPenalty",
          "type": "uint256"
        }
      ],
      "name": "updateStakingParameters",
      "outputs": [],
      "stateMutability": "nonpayable",
      "type": "function"
    },
    {
      "inputs": [
        {
          "internalType": "address",
          "name": "newImplementation",
          "type": "address"
        },
        {
          "internalType": "bytes",
          "name": "data",
          "type": "bytes"
        }
      ],
      "name": "upgradeToAndCall",
      "outputs": [],
      "stateMutability": "payable",
      "type": "function"
    },
    {
      "inputs": [
        {
          "internalType": "bytes32",
          "name": "modelId",
          "type": "bytes32"
        },
        {
          "internalType": "uint256",
          "name": "predictionIndex",
          "type": "uint256"
        },
        {
          "internalType": "uint256",
          "name": "actualValue",
          "type": "uint256"
        }
      ],
      "name": "validateAIPrediction",
      "outputs": [],
      "stateMutability": "nonpayable",
      "type": "function"
    },
    {
      "inputs": [],
      "name": "validationPeriod",
      "outputs": [
        {
          "internalType": "uint256",
          "name": "",
          "type": "uint256"
        }
      ],
      "stateMutability": "view",
      "type": "function"
    },
    {
      "inputs": [],
      "name": "validationReward",
      "outputs": [
        {
          "internalType": "uint256",
          "name": "",
          "type": "uint256"
        }
      ],
      "stateMutability": "view",
      "type": "function"
    }
  ],
  "bytecode": "0x60a0806040523460735730608052683635c9adc5dea000006009556064600a556032600b55678ac7230489e80000600c55674563918244f40000600d556103e8601155606460125560466013556003601455610e106015556166e79081610079823960805181818161363d01526137f50152f35b600080fdfe6080604052600436101561001257600080fd5b60003560e01c806310b14a8d14613d9157806311edb67914613d725780631d22899b14613d5457806324f1055214613ccc57806326fb7e3414613cae5780632849463e14613c265780632ff02e1b14613b505780634637de0b146139bb5780634a4e3bd51461379f5780634f1ef286146137b857806351858e271461379f57806351de39f11461369457806352d1902d1461362a57806352ee0b77146135ae578063548d496f146135855780635a03452a146134535780635bb4f7b61461341b5780635d9346bf14612fce5780636338798c14612f5f5780636357365b14612efb57806367a7cfb714612e27578063680038c714612e095780636b51e91914612d3d5780636cf537f814612bd7578063702e1fc114612b9a5780637103029714612af7578063715018a614612a8d5780637199fe5b14612967578063743390971461281157806376222663146127f25780637f9a9fc3146126a4578063817b1cd214612686578063846f3a8f1461257a57806389f1ea641461255c5780638aee8127146124f55780638cf86deb146124d75780638da5cb5b146124a15780638dee95e6146122b35780638e8690bf1461227b57806391a045521461225d57806396f9d9831461221b57806399c5b5bd146120cd57806399cb1f12146119be578063a302a399146118fb578063a8aac0fa146118c1578063a8d4c23214611896578063a8ecc0bd14611869578063aae91b041461104c578063ad3cb1cc14611001578063ad70fa5914610f63578063b375afb514610e69578063bb33ce7114610c72578063c4bffe2b14610bb8578063c4d66de814610a1f578063cffbb35214610751578063d410e8ba14610733578063d91ef54414610714578063e3958250146106af578063ef7f0ab614610691578063f01d0e2714610572578063f188768414610554578063f2fde38b14610529578063f7c618c114610500578063f9b0b5b9146104e2578063fbf3a539146103b35763fd0875d8146102f257600080fd5b346103ae5760203660031901126103ae576004356000526004602052610368604060002061031f816141f3565b9061032c600182016141f3565b60028201549160ff6003820154600483015460058401549161037660076006870154960154966040519a8b9a6101208c526101208c01906142ba565b908a820360208c01526142ba565b9660408901526060880152608087015260018060a01b03811660a087015260a01c16151560c085015260e08401526101008301520390f35b600080fd5b346103ae5760603660031901126103ae576024356004356044356001600160401b0381116103ae576103e99036906004016140e4565b5033600052600060205261040760ff600460406000200154166147e4565b80600052600760205260ff600360406000200154161561049d57816000526004602052604060002060ff600582015460a01c1661046c575b507f7925e5273f9e2c8234b6b8e14997531fc01b413290f3b63451a90cbf131c13156020604051428152a3005b6003018054600181018091116104875760011c90558261043f565b634e487b7160e01b600052601160045260246000fd5b60405162461bcd60e51b815260206004820152601860248201527f52656d6f7465206f7261636c65206e6f742061637469766500000000000000006044820152606490fd5b346103ae5760003660031901126103ae576020601354604051908152f35b346103ae5760003660031901126103ae57600e546040516001600160a01b039091168152602090f35b346103ae5760203660031901126103ae57610552610545614171565b61054d6160ad565b616037565b005b346103ae5760003660031901126103ae576020600954604051908152f35b346103ae5760203660031901126103ae5760043560008181526016602052604090206006810180546105ae6001600160a01b0382163314615e8e565b60ff8160a01c166106595760466002840154106106065760ff60a01b1916600160a01b179055600401546040519081527f999dcca0465b5b4833d6037a67f7f1c37fcfdac0afb8d9818070d766b000b10090602090a2005b60405162461bcd60e51b815260206004820152602560248201527f436f6e666964656e636520746f6f206c6f7720666f72206175746f2d657865636044820152643aba34b7b760d91b6064820152608490fd5b60405162461bcd60e51b815260206004820152601060248201526f105b1c9958591e48195e1958dd5d195960821b6044820152606490fd5b346103ae5760003660031901126103ae576020601254604051908152f35b346103ae576106bd36614129565b906000526003602052604060002080548210156103ae576080916106e0916143b1565b5060018060a01b03815416906001810154906003600282015491015491604051938452602084015260408301526060820152f35b346103ae5761072236614129565b9061072b6160ad565b601155601255005b346103ae5760003660031901126103ae576020600b54604051908152f35b346103ae5760c03660031901126103ae5760243560043560068210156103ae576044356001600160401b0381116103ae576107909036906004016140e4565b6064356001600160401b0381116103ae576107af9036906004016140e4565b906084359360a435926107c06161e1565b84600052600460205260ff60056040600020015460a01c16156109e7576000858152600460205260409020600501546001600160a01b031633036109ab576108479033600052600060205261081f60ff600460406000200154166147e4565b6108396040519384926020840196610e1042049288614409565b03601f1981018352826140a8565b51902092604051906108588261408d565b8482526020820192818452604083019281845260608101944286526080820133815260a08301926000845260c08101916000835289600052600660205260406000208054600160401b811015610995576108b79160018201815561413f565b95909561097f579151855592516001850155955160028401559551600383015551600482018054955160ff60a01b90151560a01b166001600160a01b039092166001600160a81b031990961695909517179093557f41c0e8ae785b827542554655b98495069caa24bbedfe9e4e96539492557ace4993604093906005905191015584600052600460205260068360002001610952815461483d565b9055610960600c543361615c565b82519182526020820152a3600160008051602061667283398151915255005b634e487b7160e01b600052600060045260246000fd5b634e487b7160e01b600052604160045260246000fd5b60405162461bcd60e51b81526020600482015260146024820152732737ba1036b7b232b61036b0b4b73a30b4b732b960611b6044820152606490fd5b60405162461bcd60e51b815260206004820152601060248201526f4d6f64656c206e6f742061637469766560801b6044820152606490fd5b346103ae5760203660031901126103ae57610a38614171565b600080516020616692833981519152549060ff8260401c1615916001600160401b03811680159081610bb0575b6001149081610ba6575b159081610b9d575b50610b8c5767ffffffffffffffff1981166001176000805160206166928339815191525582610b5f575b50610aaa6164e6565b610ab26164e6565b610abb33616037565b610ac36164e6565b610acb6164e6565b600160008051602061667283398151915255610ae56164e6565b60018060a01b03166001600160601b0360a01b600e541617600e55610b0657005b68ff0000000000000000196000805160206166928339815191525416600080516020616692833981519152557fc7f505b2f371ae2175ee4913f4499e1f2633a7b5936321eed1cdaeb6115181d2602060405160018152a1005b68ffffffffffffffffff191668010000000000000001176000805160206166928339815191525582610aa1565b63f92ee8a960e01b60005260046000fd5b90501584610a77565b303b159150610a6f565b849150610a65565b346103ae5760003660031901126103ae576040518060206008549283815201809260086000527ff3f7a9fe364faab93b216da50a3214154f22a0a2b415b23a84c8169e8b636ee39060005b818110610c5c5750505081610c199103826140a8565b6040519182916020830190602084525180915260408301919060005b818110610c43575050500390f35b8251845285945060209384019390920191600101610c35565b8254845260209093019260019283019201610c03565b60003660031901126103ae57610c866161e1565b6009543410610e2f5733600052600060205260ff60046040600020015416610df557604051610cb48161408d565b3381526006602082016101f481526040830160008152610d4c606085016000815260808601906001825260a087019334855260c08801956000875233600052600060205260406000209860018060a01b039060018060a01b03905116166001600160601b0360a01b8a5416178955516001890155516002880155516003870155511515600486019060ff801983541691151516179055565b5160058401555191015533600052600f60205234604060002055610d7234601054614830565b601055600154600160401b81101561099557610d97816001610db59301600155614322565b81546001600160a01b0360039290921b91821b19163390911b179055565b6040513481527f71a74251cbe39166997284a33fe4cbd6804961b31e312765f32c834e6be8fbab60203392a2600160008051602061667283398151915255005b60405162461bcd60e51b8152602060048201526012602482015271105b1c9958591e481c9959da5cdd195c995960721b6044820152606490fd5b60405162461bcd60e51b8152602060048201526012602482015271496e73756666696369656e74207374616b6560701b6044820152606490fd5b346103ae5760203660031901126103ae57610e82614171565b600060c0604051610e928161408d565b8281528260208201528260408201528260608201528260808201528260a0820152015260018060a01b0316600052600060205260e06040600020604051610ed88161408d565b60018060a01b03825416918282526001810154602083019081526002820154604084019081526003830154906060850191825260ff6004850154169260808601931515845260c0600660058701549660a089019788520154960195865260405196875251602087015251604086015251606085015251151560808401525160a08301525160c0820152f35b346103ae5760203660031901126103ae57600435600052601660205260406000208054610f92600183016141f3565b9160ff60028201549160038101549060048101546006600583015492015492610fcf604051988998895261010060208a01526101008901906142ba565b9560408801526060870152608086015260a085015260018060a01b03811660c085015260a01c16151560e08301520390f35b346103ae5760003660031901126103ae57611048604080519061102481836140a8565b60058252640352e302e360dc1b6020830152519182916020835260208301906142ba565b0390f35b346103ae5760603660031901126103ae57611065614171565b6024356001600160401b0381116103ae576110849036906004016140e4565b906044356001600160401b0381116103ae576110a49036906004016140e4565b3360005260006020526110c160ff600460406000200154166147e4565b60405192602084016000815282519461110c600860218360208801996110ea818484018d614297565b810167199bdc9958d85cdd60c21b8382015203016017198101845201826140a8565b519020926040519460208601600160f81b8152845161112f8160218a0185614297565b87019661115e8160218751809b61114e60208b019d8e85840190614297565b010103601f1981018352826140a8565b519020926040516020810190600360f81b82526519db1bd8985b60d21b60218201526111a86027828b6111978751809285850190614297565b81010301601f1981018352826140a8565b519020956000526002602052604060002090604051946111c786614003565b6111d560ff845416876143dd565b6111e1600184016141f3565b60208701526111f2600284016141f3565b6040870152600383015460608701526004830154956080810196875261012060ff600960058701549660a0850197885260018060a01b0360068201541660c0860152600781015460e08601526008810154610100860152015416151591015260005260026020526040600020916040519761126c89614003565b61127a60ff8554168a6143dd565b611286600185016141f3565b60208a0152611297600285016141f3565b60408a0152600384015460608a015260048401549860808101998a5261012060ff600960058801549760a0850198895260018060a01b0360068201541660c0860152600781015460e08601526008810154610100860152015416151591015260005260026020526040600020988961012060ff600960046040519461131b86614003565b61132884825416876143dd565b611334600182016141f3565b6020870152611345600282016141f3565b60408701526003810154606087015201549d608085019e8f52600581015460a086015260018060a01b0360068201541660c0860152600781015460e0860152600881015461010086015201541615159101526040516020810190751e5a595b1917dc1c99591a58dd1a5bdb97db5bd9195b60521b8252601681526113ca6036826140a8565b5190206000526004602052865189519060011c60320190816032116104875760011c603201908160321161048757806103e802906103e8820403610487576127109161141591615f57565b04965161142181616343565b9a51995190624f1a00420191824211610487578160640391606483116104875762015180830292830462015180149060641417156104875760311981019081116104875761a8c081029080820461a8c0149015171561048757889360346114996020936114946114e8966114d898614830565b614830565b96519851998d604051968794868601996001600160601b03199060601b168a526114c98c51809287890190614297565b85019151809385840190614297565b01014281520380845201826140a8565b51902096604051916114f983614056565b88835260208301938452604083019182526060830199888b52608084019b8c5260a084015260c0830190815260e083019186861087871802871883524261010085015260018060a01b038816600052601760205260406000208054600160401b8110156109955761156f9160018201815561419d565b95909561097f578451865551805160018701916001600160401b03821161099557819061159c84546141b9565b601f8111611816575b50602090601f83116001146117b1576000926117a6575b50508160011b916000199060031b1c19161790555b519a8b516001600160401b03811161099557601f9c6115f360028801546141b9565b9d8e1161175a575b60209d508d90601f83116001146116b85793610100938d9e847f6f94bec68de756db80a1254d990710ebfbe11e9ff18c39a8e27032abec9ddba89d9b999560409d9b99956008996000926116ad575b50508160011b916000199060031b1c19161760028901555b51600388015551600487015560a08301516005870155516006860155516007850155015191015583519586528082189082110218878501526001600160a01b031692a3604051908152f35b01519050388061164a565b9060028801600052806000209160005b601f19851681106117425750938d9e60018560409d9b99957f6f94bec68de756db80a1254d990710ebfbe11e9ff18c39a8e27032abec9ddba89f9d9b97956101009960089b97601f19811610611729575b505050811b016002890155611662565b015160001960f88460031b161c19169055388080611719565b919260206001819286850151815501940192016116c8565b600287016000526020600020601f830160051c81019e6020841061179c575b601f0160051c019d8e5b811061178f57506115fb565b600081556001018e611783565b909e508e90611779565b015190508f806115bc565b60008581528281209350601f198516905b8181106117fe57509084600195949392106117e5575b505050811b0190556115d1565b015160001960f88460031b161c191690558f80806117d8565b929360206001819287860151815501950193016117c2565b909150836000526020600020601f840160051c8101916020851061185f575b90601f859493920160051c01905b81811061185057506115a5565b60008155849350600101611843565b9091508190611835565b346103ae5760603660031901126103ae576118826160ad565b600435601355602435601455604435601555005b346103ae5760203660031901126103ae5760206118b96118b4614171565b615f6a565b604051908152f35b346103ae5760203660031901126103ae576001600160a01b036118e2614171565b16600052600f6020526020604060002054604051908152f35b346103ae5760203660031901126103ae576000608060405161191c8161401f565b8281528260208201528260408201528260608201520152600435600052600760205260a060406000206040516119518161401f565b815491828252600180851b0360018201541660208301908152600282015490604084019182526080600460ff6003860154169460608701951515865201549401938452604051948552600180871b0390511660208501525160408401525115156060830152516080820152f35b346103ae5760603660031901126103ae576004356001600160401b0381116103ae576119ee9036906004016140e4565b6119f6614187565b336000526000602052611a1360ff600460406000200154166147e4565b604051602081019060008252673637b1b0ba34b7b760c11b60218201526618dd5c9c995b9d60ca1b602982015260108152611a4f6030826140a8565b5190206000526002602052602060406000209160405192611a6f84614003565b611a7d60ff825416856143dd565b611a89600182016141f3565b83850152611a99600282016141f3565b6040850152600381015460608501526004810154936080810194855261012060ff600960058501549460a0850195865260018060a01b0360068201541660c0860152600781015460e08601526008810154610100860152015416151591015260405183810190600160f81b8252673637b1b0ba34b7b760c11b6021820152650d0cac2d8e8d60d31b6029820152600f8152611b35602f826140a8565b51902060005260028352604060002060405191611b5183614003565b611b5f60ff835416846143dd565b611b6b600183016141f3565b85840152611b7b600283016141f3565b6040840152600382015460608401526004820154926080810193845261012060ff600960058601549560a0850196875260018060a01b0360068201541660c0860152600781015460e08601526008810154610100860152015416151591015260405185810190600360f81b82526519db1bd8985b60d21b602182015264707269636560d81b6027820152600c8152611c14602c826140a8565b5190206000526002855260406000209260405193611c3185614003565b611c3f60ff825416866143dd565b611c4b600182016141f3565b87860152611c5b600282016141f3565b6040860152600381015460608601526004810154946080810195865261012060ff600960058501549460a0850195865260018060a01b0360068201541660c0860152600781015460e086015260088101546101008601520154161515910152604051878101906d191958da5cda5bdb97db5bd9195b60921b8252611cf0602e828d61119781519d8e92019d8e85850190614297565b519020600052600460205260ff60056040600020015460a01c161561208f57611d6a600391611d76945195519051908180821091180218956114948a51918551905192605081116000146120775750601e905b603281101561205b575060326028935b10156120505760ff8080601e5b1694169116614830565b0496519051908861621d565b93604051611dbd60346020838b611d9583830197889251928391614297565b81016001600160601b03198a60601b16838201524284820152030160148101845201826140a8565b5190209460405190611dce8261403a565b8682526020820190888252848410858518028518604084015260608301528560808301524260a083015260018060a01b03851660c0830152600060e083015286600052601660205260406000209082518255518051906001600160401b03821161099557611e3f60018401546141b9565b601f8111612005575b5091602099959391899795938b90601f8311600114611f63576006611f2f98969484611f1b957fa9d1b514cbfad10325edb6f7855accf5d986ad4dba2c49ad9220855c2bf3d85e9c9a989560e095600092611f58575b50508160011b916000199060031b1c19161760018201555b60408401516002820155606084015160038201556080840151600482015560a080850151600583015560c085015192909101805493909401516001600160a81b03199093166001600160a01b039290921691909117911515901b60ff60a01b16179055565b6040519485946060865260608601906142ba565b848b0198909852808218908211021860408301526001600160a01b0316940390a3604051908152f35b015190503880611e9e565b9060018401600052806000209160005b601f1985168110611feb5750611f2f9896946001857fa9d1b514cbfad10325edb6f7855accf5d986ad4dba2c49ad9220855c2bf3d85e9c9a989560e095600695611f1b99601f19811610611fd2575b505050811b016001820155611eb6565b015160001960f88460031b161c19169055388080611fc2565b8183015184558d9b50600190930192918e01918e01611f73565b600184016000526020600020601f840160051c81019160208510612046575b601f0160051c01905b81811061203a5750611e48565b6000815560010161202d565b9091508190612024565b60ff8080600a611d60565b6046111561206e57603260145b93611d53565b60326005612068565b603c10156120885760145b90611d43565b600a612082565b60405162461bcd60e51b81526020600482015260166024820152754149206d6f64656c206e6f7420617661696c61626c6560501b6044820152606490fd5b346103ae5760203660031901126103ae57600435600052600660205260406000208054906120fa82614612565b9161210860405193846140a8565b80835260208301809260005260206000206000915b8383106121b15784866040519182916020830190602084525180915260408301919060005b818110612150575050500390f35b91935091602060e060019260c087518051835284810151858401526040810151604084015260608101516060840152858060a01b03608082015116608084015260a0810151151560a0840152015160c0820152019401910191849392612142565b600660206001926040516121c48161408d565b855481528486015483820152600286015460408201526003860154606082015260ff6004870154868060a01b038116608084015260a01c16151560a0820152600586015460c082015281520192019201919061211d565b346103ae5760203660031901126103ae576004356001548110156103ae57612244602091614322565b905460405160039290921b1c6001600160a01b03168152f35b346103ae5760003660031901126103ae576020601554604051908152f35b346103ae5760203660031901126103ae576004356005548110156103ae576122a4602091614307565b90549060031b1c604051908152f35b346103ae5760003660031901126103ae576122cc6161e1565b3360005260006020526040600020600481019081549060ff82161561246b57600501805492831561242f5760009260ff191690555533600052600f6020526000604081205561231d81601054614449565b60105560005b60015490818110156124225761233881614322565b905460039190911b1c6001600160a01b0316331461235a576001915001612323565b60001982019182116104875761238d6123756123b193614322565b905460039190911b1c6001600160a01b031691614322565b81546001600160a01b0393841660039290921b91821b9390911b1916919091179055565b600154801561240c57600080809381938219016123cd81614322565b81549060018060a01b039060031b1b191690556001555b3382f11561240057600160008051602061667283398151915255005b6040513d6000823e3d90fd5b634e487b7160e01b600052603160045260246000fd5b50506000808080936123e4565b60405162461bcd60e51b81526020600482015260146024820152734e6f207374616b6520746f20776974686472617760601b6044820152606490fd5b60405162461bcd60e51b815260206004820152600e60248201526d139bdd081c9959da5cdd195c995960921b6044820152606490fd5b346103ae5760003660031901126103ae57600080516020616632833981519152546040516001600160a01b039091168152602090f35b346103ae5760003660031901126103ae576020600d54604051908152f35b346103ae5760203660031901126103ae5761250e614171565b6125166160ad565b600e80546001600160a01b0319166001600160a01b039290921691821790557f2d6b04df9b7d358407d1a014f1114b064add34c19d63d395db155a7e533e967a600080a2005b346103ae5760003660031901126103ae576020600a54604051908152f35b346103ae5760203660031901126103ae57600435600052600360205260406000208054906125a782614612565b916125b560405193846140a8565b80835260208301809260005260206000206000915b83831061263e5784866040519182916020830190602084525180915260408301919060005b8181106125fd575050500390f35b919350916020608060019260608751858060a01b038151168352848101518584015260408101516040840152015160608201520194019101918493926125ef565b6004602060019260405161265181614072565b848060a01b038654168152848601548382015260028601546040820152600386015460608201528152019201920191906125ca565b346103ae5760003660031901126103ae576020601054604051908152f35b346103ae5760203660031901126103ae576001600160a01b036126c5614171565b16600052601760205260406000208054906126df82614612565b916126ed60405193846140a8565b80835260208301809260005260206000206000915b83831061277057848660405191829160208301906020845251809152604083019060408160051b85010192916000905b82821061274157505050500390f35b919360019193955060206127608192603f198a8203018652885161433d565b9601920192018594939192612732565b6009602060019260405161278381614056565b855481526127928587016141f3565b838201526127a2600287016141f3565b60408201526003860154606082015260048601546080820152600586015460a0820152600686015460c0820152600786015460e08201526008860154610100820152815201920192019190612702565b346103ae5761280036614129565b906128096160ad565b600c55600d55005b346103ae5760803660031901126103ae576004356024359060443581600052600760205260ff600360406000200154161561292c5733600052600060205261286360ff60046040600020015416615e8e565b8160005260076020526040600020836000526002602052604060002060ff6009820154166128c8575b507f29b9415cd75392ee16fd5096851fa8bd363acd568523948a24606eae0695a3a49160409160044291015581519081526064356020820152a3005b8260046128d6920154616194565b91600282019182549260098402938085046009149015171561048757600a6129217f29b9415cd75392ee16fd5096851fa8bd363acd568523948a24606eae0695a3a496604096614830565b04905591509161288c565b60405162461bcd60e51b815260206004820152601360248201527210da185a5b881b9bdd081cdd5c1c1bdc9d1959606a1b6044820152606490fd5b346103ae5760603660031901126103ae576004356024356129ee6044353360005260006020526129a160ff60046040600020015416615ecb565b83600052600660205260016129ba84604060002061413f565b506004810180546129d160ff8260a01c1615615f17565b60ff60a01b191660a084901b1790556005810183905501546160e3565b908260005260046020526040600020906003820192835492612a198261149460068401548097615f57565b946001850180951161048757612a526040957fec90244061b743db8cf254e7d18e10915355558ddf645fb6843c10aaeca2ec45976143e9565b90556050821015612a78575b50612a6b600d543361615c565b82519182526020820152a2005b600701612a85815461483d565b905585612a5e565b346103ae5760003660031901126103ae57612aa66160ad565b60008051602061663283398151915280546001600160a01b031981169091556000906001600160a01b03167f8be0079c531659141344cd1fd0a4f28419497f9722a3daafe3b4186f6b6457e08280a3005b346103ae5760203660031901126103ae5760043580600052600460205260018060a01b036005604060002001541633148015612b79575b612b3790615e8e565b6000818152600460205260408120600501805460ff60a01b191690557fe1a7584bc47bf212499b02655f0279325c21b0b3a5996e6f68d267fbcabded539080a2005b50600080516020616632833981519152546001600160a01b03163314612b2e565b346103ae5760203660031901126103ae576001600160a01b03612bbb614171565b1660005260006020526020600160406000200154604051908152f35b346103ae5760203660031901126103ae576000610100604051612bf981614056565b60608152606060208201528260408201528260608201528260808201528260a08201528260c08201528260e082015201526004356000526004602052612cee604060002060405190612c4a82614056565b612c53816141f3565b8252612c61600182016141f3565b60208301908152600282015491604084019283526003810154606085019081526004820154906080860191825260058301549160a087019160018060a01b038416835260ff60c089019460a01c1615158452612d01600760068701549660e08b019788520154966101008a019788526040519a8b9a60208c525161012060208d01526101408c01906142ba565b90518a8203601f190160408c01526142ba565b965160608901525160808801525160a0870152516001600160a01b031660c086015251151560e085015251610100840152516101208301520390f35b346103ae5760003660031901126103ae576040518060206001549283815201809260016000527fb10e2d527612073b26eecdfd717e6a320cf44b4afac2b0732d9fcbe2b7fa0cf69060005b818110612dea5750505081612d9e9103826140a8565b6040519182916020830190602084525180915260408301919060005b818110612dc8575050500390f35b82516001600160a01b0316845285945060209384019390920191600101612dba565b82546001600160a01b0316845260209093019260019283019201612d88565b346103ae5760003660031901126103ae576020601454604051908152f35b346103ae5760203660031901126103ae576004356000526002602052612eae604060002060ff81541690612e5d600182016141f3565b612e69600283016141f3565b916003810154926004820154600583015460018060a01b0360068501541691612ecf600786015494612ec160ff600960088a015499015416986040519c8d809d6142df565b61014060208d01526101408c01906142ba565b908a820360408c01526142ba565b966060890152608088015260a087015260c086015260e085015261010084015215156101208301520390f35b346103ae5760203660031901126103ae57600435600052600760205260a06040600020805490600180841b03600182015416906002810154600460ff6003840154169201549260405194855260208501526040840152151560608301526080820152f35b346103ae5760a03660031901126103ae5760043560068110156103ae576024356001600160401b0381116103ae57612f9b9036906004016140e4565b604435906001600160401b0382116103ae57602092612fc16118b99336906004016140e4565b60843592606435926153f1565b346103ae5760803660031901126103ae576004356001600160401b0381116103ae57612ffe9036906004016140e4565b6024356001600160401b0381116103ae5761301d9036906004016140e4565b9033600052600060205261303b60ff600460406000200154166147e4565b60405160208101906130856014826020865161305a8188848b01614297565b820188519061306e82848301858d01614297565b01013360601b815203600b198101845201826140a8565b5190209060405161309581614056565b81815260208101848152604082016044358152606083016064358152608084019042825260a085019133835260c08601916001835260e087019460008652610100880196600088528a6000526004602052604060002098518051906001600160401b03821161099557819061310a8c546141b9565b601f81116133c8575b50602090601f831160011461336357600092613358575b50508160011b916000199060031b1c19161789555b51805160018a01916001600160401b0382116109955761315f83546141b9565b601f8111613310575b50602090601f831160011461329c5791806131ed9896949260079c9b9a989694600092613291575b50508160011b916000199060031b1c19161790555b5160028a01555160038901555160048801559051600587018054925160ff60a01b90151560a01b166001600160a01b039092166001600160a81b031990931692909217179055565b51600684015551910155600554600160401b8110156109955761327383926132806020968561325d6132468760017fad2d0d300ea8224ddd3df6ce18ac63266d3c4c213d408df4b65ef231475db9119901600555614307565b819391549060031b91821b91600019901b19161790565b90556040519384936060855260608501906142ba565b90838203898501526142ba565b3360408301520390a2604051908152f35b015190503880613190565b90601f1983169184600052816000209260005b8181106132f8575092600192859260079e9d9c9a98966131ed9c9a9896106132df575b505050811b0190556131a5565b015160001960f88460031b161c191690553880806132d2565b929360206001819287860151815501950193016132af565b836000526020600020601f840160051c8101916020851061334e575b601f0160051c01905b8181106133425750613168565b60008155600101613335565b909150819061332c565b015190508e8061312a565b60008d81528281209350601f198516905b8181106133b05750908460019594939210613397575b505050811b01895561313f565b015160001960f88460031b161c191690558e808061338a565b92936020600181928786015181550195019301613374565b9091508b6000526020600020601f840160051c81019160208510613411575b90601f859493920160051c01905b8181106134025750613113565b600081558493506001016133f5565b90915081906133e7565b346103ae5760203660031901126103ae5761104861343f61343a614171565b61463d565b60405191829160208352602083019061433d565b346103ae5760203660031901126103ae57600060e06040516134748161403a565b828152606060208201528260408201528260608201528260808201528260a08201528260c08201520152600435600052601660205260406000206040516134ba8161403a565b815481526134ca600183016141f3565b91602082019283526002810154906040830191825260038101546060840190815260048201549160808501928352600660058201549160a0870192835201549260c086019260018060a01b038516845260ff60e088019560a01c161515855261355060405198899860208a525160208a01525161010060408a01526101208901906142ba565b955160608801525160808701525160a08601525160c0850152516001600160a01b031660e08401525115156101008301520390f35b346103ae5760203660031901126103ae576004356008548110156103ae576122a46020916142ec565b346103ae5760603660031901126103ae5760043560068110156103ae576024356001600160401b0381116103ae576135ea9036906004016140e4565b90604435906001600160401b0382116103ae576060926136116136179336906004016140e4565b91614456565b9060405192835260208301526040820152f35b346103ae5760003660031901126103ae577f00000000000000000000000000000000000000000000000000000000000000006001600160a01b031630036136835760206040516000805160206166528339815191528152f35b63703e46dd60e11b60005260046000fd5b346103ae5760403660031901126103ae576004356136b0614187565b906136b96160ad565b6040516136c58161401f565b8181526004602082019360018060a01b03169384815261374f6040840160648152606085019060018252608086019342855287600052600760205260406000209651875560018060a01b03905116600187019060018060a01b03166001600160601b0360a01b825416179055516002860155511515600385019060ff801983541691151516179055565b51910155600854600160401b811015610995576137766132468260018594016008556142ec565b90557fd8492bd35d7935ba341574fece313d1a214ff3be4be44238d1fed8f2d13b3aab600080a3005b346103ae5760003660031901126103ae576105526160ad565b60403660031901126103ae576137cc614171565b6024356001600160401b0381116103ae576137eb9036906004016140e4565b6001600160a01b037f000000000000000000000000000000000000000000000000000000000000000016308114908115613998575b506136835761382d6160ad565b6040516352d1902d60e01b81526001600160a01b0383169290602081600481875afa60009181613964575b506138725783634c9c8ce360e01b60005260045260246000fd5b806000805160206166528339815191528592036139505750813b1561393c5760008051602061665283398151915280546001600160a01b031916821790557fbc7cd75a20ee27fd9adebab32041f755214dbc6bffa90cc0225b39da2e5c2d3b600080a28151156139225760008083602061055295519101845af43d1561391a573d916138fd836140c9565b9261390b60405194856140a8565b83523d6000602085013e61659d565b60609161659d565b50503461392b57005b63b398979f60e01b60005260046000fd5b634c9c8ce360e01b60005260045260246000fd5b632a87526960e21b60005260045260246000fd5b9091506020813d602011613990575b81613980602093836140a8565b810103126103ae57519085613858565b3d9150613973565b600080516020616652833981519152546001600160a01b03161415905083613820565b346103ae5760203660031901126103ae5760006101206040516139dd81614003565b82815260606020820152606060408201528260608201528260808201528260a08201528260c08201528260e082015282610100820152015260043560005260026020526040600020602060405191613a3483614003565b613a4260ff825416846143dd565b613a4e600182016141f3565b82840190815283613a61600284016141f3565b92604082019384526003810154936060830194855260048201546080840190815260058301549060a08501918252613b1360018060a01b036006860154169360c08701948552613b0060ff600960078901549860e08b01998a5261010060088201549b019a8b52015416986101208d019915158a52613aec6040519d8d8f9e8f9081520190516142df565b5161014060408d01526101608c01906142ba565b90518a8203601f190160608c01526142ba565b965160808901525160a08801525160c0870152516001600160a01b031660e086015251610100850152516101208401525115156101408301520390f35b346103ae5760403660031901126103ae57613b69614171565b6001600160a01b031660009081526017602052604090208054602435908110156103ae57613b969161419d565b508054613ba5600183016141f3565b91613bb2600282016141f3565b60038201549160048101546005820154600683015491613c026008600786015495015495613bf46040519a8b9a8b5261012060208c01526101208b01906142ba565b9089820360408b01526142ba565b956060880152608087015260a086015260c085015260e08401526101008301520390f35b346103ae5760203660031901126103ae576001600160a01b03613c47614171565b16600052600060205260e0604060002060018060a01b03815416906001810154906002810154600382015460ff6004840154169160066005850154940154946040519687526020870152604086015260608501521515608084015260a083015260c0820152f35b346103ae5760003660031901126103ae576020600c54604051908152f35b346103ae57613cda36614129565b906000526006602052604060002080548210156103ae5760e091613cfd9161413f565b5080549060ff6001820154916002810154600382015490600560048401549301549460405196875260208701526040860152606085015260018060a01b038116608085015260a01c16151560a083015260c0820152f35b346103ae5760003660031901126103ae576020601154604051908152f35b346103ae57613d8036614129565b90613d896160ad565b600955600a55005b346103ae5760a03660031901126103ae576004356001600160401b0381116103ae57613dc19036906004016140e4565b60243560068110156103ae576044356001600160401b0381116103ae57613dec9036906004016140e4565b6064356001600160401b0381116103ae57613e0b9036906004016140e4565b926084356001600160401b0381116103ae57613e2b9036906004016140e4565b91831560008115613ff6575b8115613fd0575b5015613f8b576040519360208501938351946020850195613e60818389614297565b8701613e6f60208201856143cd565b845190613e83826021830160208901614297565b016020019680895160208b0199816001820190613ea0918d614297565b0160010142815203808252602001613eb890826140a8565b51902090613ec591616362565b613ece9161639e565b6001600160a01b031615613f4657613f416027613f30946103e86118b99860209a613f0a8c604051809361119783830196879251928391614297565b5190200696604051968792663232bb34b1b29d60c91b8c85015251809285850190614297565b81010301601f1981018552846140a8565b61484c565b60405162461bcd60e51b815260206004820152601860248201527f496e76616c696420646576696365207369676e617475726500000000000000006044820152606490fd5b60405162461bcd60e51b815260206004820152601960248201527f496e76616c69642064617461207479706520666f7220496f54000000000000006044820152606490fd5b9050613fe0576004841486613e3e565b634e487b7160e01b600052602160045260246000fd5b5050600184146000613e37565b61014081019081106001600160401b0382111761099557604052565b60a081019081106001600160401b0382111761099557604052565b61010081019081106001600160401b0382111761099557604052565b61012081019081106001600160401b0382111761099557604052565b608081019081106001600160401b0382111761099557604052565b60e081019081106001600160401b0382111761099557604052565b90601f801991011681019081106001600160401b0382111761099557604052565b6001600160401b03811161099557601f01601f191660200190565b81601f820112156103ae576020813591016140fe826140c9565b9261410c60405194856140a8565b828452828201116103ae5781600092602092838601378301015290565b60409060031901126103ae576004359060243590565b805482101561415b576000526006602060002091020190600090565b634e487b7160e01b600052603260045260246000fd5b600435906001600160a01b03821682036103ae57565b602435906001600160a01b03821682036103ae57565b805482101561415b576000526009602060002091020190600090565b90600182811c921680156141e9575b60208310146141d357565b634e487b7160e01b600052602260045260246000fd5b91607f16916141c8565b9060405191826000825492614207846141b9565b8084529360018116908115614275575060011461422e575b5061422c925003836140a8565b565b90506000929192526020600020906000915b81831061425957505090602061422c928201013861421f565b6020919350806001915483858901015201910190918492614240565b90506020925061422c94915060ff191682840152151560051b8201013861421f565b60005b8381106142aa5750506000910152565b818101518382015260200161429a565b906020916142d381518092818552858086019101614297565b601f01601f1916010190565b906006821015613fe05752565b60085481101561415b57600860005260206000200190600090565b60055481101561415b57600560005260206000200190600090565b60015481101561415b57600160005260206000200190600090565b908151815261010080614376614364602086015161012060208701526101208601906142ba565b604086015185820360408701526142ba565b93606081015160608501526080810151608085015260a081015160a085015260c081015160c085015260e081015160e0850152015191015290565b805482101561415b5760005260206000209060021b0190600090565b6006811015613fe05760f81b9052565b6006821015613fe05752565b81156143f3570490565b634e487b7160e01b600052601260045260246000fd5b918261441b60019460209796946143cd565b61442d82518093888785019101614297565b0161444082518093878685019101614297565b01019081520190565b9190820391821161048757565b9190610e104204906040516020810190614477816108398688878b88614409565b5190206000526002602052604060002060405161449381614003565b6144a160ff835416826143dd565b6144ad600183016141f3565b60208201526144be600283016141f3565b604082015260038201549081606082015261012060048401549182608082015260ff60096005870154968760a085015260018060a01b0360068201541660c0850152600781015460e08501526008810154610100850152015416151591829101526146075750505060001982019182116104875761083961454a92604051948593602085019788614409565b5190206000526002602052604060002060405161456681614003565b61457460ff835416826143dd565b614580600183016141f3565b6020820152614591600283016141f3565b604082015260038201549081606082015261012060048401549182608082015260ff60096005870154968760a085015260018060a01b0360068201541660c0850152600781015460e085015260088101546101008501520154161515918291015261460457505050600090600090600090565b92565b969195509350915050565b6001600160401b0381116109955760051b60200190565b805182101561415b5760209160051b010190565b60405161464981614056565b6000815260606020820152606060408201526000606082015260006080820152600060a0820152600060c0820152600060e082015260006101008201525060018060a01b03166000526017602052604060002080546146a781614612565b916146b560405193846140a8565b818352602083019060005260206000206000915b83831061476257505050508051156146f65780516000198101908111610487576146f291614629565b5190565b5060405161470381614056565b60008152602060405161471682826140a8565b600081528183015261472b60405191826140a8565b6000815260408201526000606082015260006080820152600060a0820152600060c0820152600060e0820152600061010082015290565b6009602060019260405161477581614056565b855481526147848587016141f3565b83820152614794600287016141f3565b60408201526003860154606082015260048601546080820152600586015460a0820152600686015460c0820152600786015460e082015260088601546101008201528152019201920191906146c9565b156147eb57565b60405162461bcd60e51b815260206004820152601960248201527f4e6f7420616e20616374697665206f7261636c65206e6f6465000000000000006044820152606490fd5b9190820180921161048757565b60001981146104875760010190565b91929092600033815280602052604081209061486e60ff6004840154166147e4565b506006810191825461012c81018091116104875742106153b65760405160208101906148a581610839610e104204868c8c88614409565b519020600081815260026020526040902060060154909687916001600160a01b0316614c6957600184015490604051936148de85614003565b6148e889866143dd565b6020850191825260408501908152606085014281526080860189815260a0870191605f835260c088019333855260e0890195600087526101008a019788526101208a019860008a52600052600260205260406000209951906006821015613fe05760009160ff80198d54169116178b5560018b0190518051906001600160401b038211614c5557819061497b84546141b9565b601f8111614c05575b50602090601f8311600114614ba2578592614b97575b50508160011b916000199060031b1c19161790555b60028a019151908151916001600160401b038311614b83576149d184546141b9565b601f8111614b3e575b50602091601f8411600114614aca579280614a739c99969360029f9e9c99969360099c999692614abf575b50508160011b916000199060031b1c19161790555b516003890155516004880155516005870155516006860180546001600160a01b039092166001600160a01b0319909216919091179055516007850155516008840155519101805460ff191691151560ff16919091179055565b01614a7e815461483d565b9055429055614a9060405180936142df565b6020820152817f2f96b1206c1b3fa534289e70d1b865ead64221fba828fd527a0e45282e1c318860403393a390565b015190503880614a05565b9190601f198416858452828420935b818110614b26575093614a739c99969360029f9e9c9996936001938360099e9b9810614b0d575b505050811b019055614a1a565b015160001960f88460031b161c19169055388080614b00565b92936020600181928786015181550195019301614ad9565b84835260208320601f850160051c81019160208610614b79575b601f0160051c01905b818110614b6e57506149da565b838155600101614b61565b9091508190614b58565b634e487b7160e01b82526041600452602482fd5b01519050388061499a565b8486528186209250601f198416865b818110614bed5750908460019594939210614bd4575b505050811b0190556149af565b015160001960f88460031b161c19169055388080614bc7565b92936020600181928786015181550195019301614bb1565b90915083855260208520601f840160051c81019160208510614c4b575b90601f859493920160051c01905b818110614c3d5750614984565b868155849350600101614c30565b9091508190614c22565b634e487b7160e01b84526041600452602484fd5b509394505050506000526002602052604060002090336000526000602052604060002090614c9d60ff600484015416615ecb565b614cb0614caa3386616410565b15615f17565b600182019182549060405191614cc583614072565b338352602083019284845260408101914283526060820190815288600052600360205260406000208054600160401b81101561099557614d0a916001820181556143b1565b93909361097f57915183546001600160a01b0319166001600160a01b03919091161783559351600183015551600282810191909155925160039190910155600785018054909490614d5a9061483d565b855554614d6c60088701918254614830565b905501614d79815461483d565b9055604051908152837fb3ade034ef79014710415a66ee77fbbbabb8a741fc94740b25bd3f945196ebd660203393a3546014541115908161539b575b50614dbd5790565b90816000526002602052604060002082600052600360205260406000208054614de581614612565b91614df360405193846140a8565b818352602083019060005260206000206000915b83831061534d575050505060048201805492614e4260018060a01b036006830154169485600052600060205260016040600020015490615f57565b936000526000602052600160406000200154956000945b8451861015614eb757614eae614e98600192614e926020614e7a8b8b614629565b5101516060614e898c8c614629565b51015190615f57565b90614830565b986060614ea58989614629565b51015190614830565b95019496614e59565b909450614ec89296919593506143e9565b8260005260036020526040600020918254614ee281614612565b93614ef060405195866140a8565b818552602085019060005260206000206000915b83831061530557505050506000936014830491855b8551811015614f85576020614f2e8288614629565b510151614f3b8587614449565b111580614f64575b614f50575b600101614f19565b95614f5c60019161483d565b969050614f48565b506020614f718288614629565b510151614f7e8587614830565b1015614f43565b509392949095915060648102908082046064149015171561048757614faf859160099451906143e9565b6064808210911802606418965585600582015501600160ff19825416179055826000526002602052604060002092604051614fe981614003565b614ff760ff865416826143dd565b615003600186016141f3565b6020820152615014600286016141f3565b60408201526003850154606082015260048501549060808101918252600586015460a082015261012060ff600960018060a01b0360068a0154169860c08501998a52600781015460e086015260088101546101008601520154161515910152816000526003602052604060002094855461508d81614612565b9661509b60405198896140a8565b818852602088019060005260206000206000915b8383106152bd575050505090600191828060a01b0390511660005260006020526150df85604060002092516165fe565b1561529b57600381016150f2815461483d565b9055018054600a81018091116104875760115490818082109118021890555b60005b8451811015615263576001600160a01b0361512f8287614629565b5151166000526000602052604060002061515785602061514f858a614629565b5101516165fe565b15615197578060036001920161516d815461483d565b90550190815491600583018093116104875760019260115490818082109118021890555b01615114565b6001810180546009198101939291908411610487576001936012549081808211911802189055828060a01b03905416600a548160005260006020526005604060002001906127106151ea83549283615f57565b04806151fa575b50505050615191565b7f51cf713376ddb1e5f5828bb6aa39d99de812176d62c3d3550bdc4e0b5e86e1a59261522882602094614449565b905583600052600f82526040600020615242828254614449565b905561525081601054614449565b601055604051908152a2388080806151f1565b50925092604083927fc36c7394f56b898f4eb515cad09f3382ddc89b6fca013fa707e1f9afa4d2d8ae9282519182526020820152a290565b0180546013198101908111610487576012549081808211911802189055615111565b600460206001926040516152d081614072565b848060a01b038654168152848601548382015260028601546040820152600386015460608201528152019201920191906150af565b6004602060019260405161531881614072565b848060a01b03865416815284860154838201526002860154604082015260038601546060820152815201920192019190614f04565b6004602060019260409a989a5161536381614072565b848060a01b03865416815284860154838201526002860154604082015260038601546060820152815201920192019190969496614e07565b6153ad91506003015460155490614830565b42101538614db5565b60405162461bcd60e51b815260206004820152601360248201527229bab136b4b9b9b4b7b71031b7b7b63237bbb760691b6044820152606490fd5b92919333600052600060205260406000209061541360ff6004840154166147e4565b60648111615e54576006820192835461012c81018091116104875742106153b657604051602081019061545181610839610e1042048c878d88614409565b5190206000818152600260205260409020600601549097889290916001600160a01b0316615780576001850154916040519461548c86614003565b6154968a876143dd565b60208601928352604086019182526060860142815260808701908a825260a0880192835260c088019333855260e0890195600087526101008a019788526101208a019860008a52600052600260205260406000209951906006821015613fe05760009160ff80198d54169116178b5560018b0190518051906001600160401b038211614c5557819061552884546141b9565b601f8111615730575b50602090601f83116001146156cd5785926156c2575b50508160011b916000199060031b1c19161790555b60028a019151908151916001600160401b038311614b835761557e84546141b9565b601f811161567d575b50602091601f8411600114615623579280614a739c99969360029f9e9c99969360099c999692614abf5750508160011b916000199060031b1c1916179055516003890155516004880155516005870155516006860180546001600160a01b0319166001600160a01b0392909216919091179055516007850155516008840155519101805460ff9215159290921660ff1992909216919091179055565b9190601f198416858452828420935b818110615665575093614a739c99969360029f9e9c9996936001938360099e9b9810614b0d57505050811b019055614a1a565b92936020600181928786015181550195019301615632565b84835260208320601f850160051c810191602086106156b8575b601f0160051c01905b8181106156ad5750615587565b8381556001016156a0565b9091508190615697565b015190503880615547565b8486528186209250601f198416865b81811061571857509084600195949392106156ff575b505050811b01905561555c565b015160001960f88460031b161c191690553880806156f2565b929360206001819287860151815501950193016156dc565b90915083855260208520601f840160051c81019160208510615776575b90601f859493920160051c01905b8181106157685750615531565b86815584935060010161575b565b909150819061574d565b505093945050505060005260026020526040600020903360005260006020526040600020906157b560ff600484015416615ecb565b6157c2614caa3386616410565b6001820191825490604051916157d783614072565b338352602083019284845260408101914283526060820190815288600052600360205260406000208054600160401b8110156109955761581c916001820181556143b1565b93909361097f57915183546001600160a01b0319166001600160a01b0391909116178355935160018301555160028281019190915592516003919091015560078501805490949061586c9061483d565b85555461587e60088701918254614830565b90550161588b815461483d565b9055604051908152837fb3ade034ef79014710415a66ee77fbbbabb8a741fc94740b25bd3f945196ebd660203393a35460145411159081615e39575b506158cf5790565b908160005260026020526040600020826000526003602052604060002080546158f781614612565b9161590560405193846140a8565b818352602083019060005260206000206000915b838310615deb57505050506004820180549261595460018060a01b036006830154169485600052600060205260016040600020015490615f57565b936000526000602052600160406000200154956000945b84518610156159955761598c614e98600192614e926020614e7a8b8b614629565b9501949661596b565b9094506159a69296919593506143e9565b82600052600360205260406000209182546159c081614612565b936159ce60405195866140a8565b818552602085019060005260206000206000915b838310615da357505050506000936014830491855b8551811015615a63576020615a0c8288614629565b510151615a198587614449565b111580615a42575b615a2e575b6001016159f7565b95615a3a60019161483d565b969050615a26565b506020615a4f8288614629565b510151615a5c8587614830565b1015615a21565b509392949095915060648102908082046064149015171561048757615a8d859160099451906143e9565b6064808210911802606418965585600582015501600160ff19825416179055826000526002602052604060002092604051615ac781614003565b615ad560ff865416826143dd565b615ae1600186016141f3565b6020820152615af2600286016141f3565b60408201526003850154606082015260048501549060808101918252600586015460a082015261012060ff600960018060a01b0360068a0154169860c08501998a52600781015460e0860152600881015461010086015201541615159101528160005260036020526040600020948554615b6b81614612565b96615b7960405198896140a8565b818852602088019060005260206000206000915b838310615d5b575050505090600191828060a01b039051166000526000602052615bbd85604060002092516165fe565b15615d395760038101615bd0815461483d565b9055018054600a81018091116104875760115490818082109118021890555b60005b8451811015615263576001600160a01b03615c0d8287614629565b51511660005260006020526040600020615c2d85602061514f858a614629565b15615c6d5780600360019201615c43815461483d565b90550190815491600583018093116104875760019260115490818082109118021890555b01615bf2565b6001810180546009198101939291908411610487576001936012549081808211911802189055828060a01b03905416600a54816000526000602052600560406000200190612710615cc083549283615f57565b0480615cd0575b50505050615c67565b7f51cf713376ddb1e5f5828bb6aa39d99de812176d62c3d3550bdc4e0b5e86e1a592615cfe82602094614449565b905583600052600f82526040600020615d18828254614449565b9055615d2681601054614449565b601055604051908152a238808080615cc7565b0180546013198101908111610487576012549081808211911802189055615bef565b60046020600192604051615d6e81614072565b848060a01b03865416815284860154838201526002860154604082015260038601546060820152815201920192019190615b8d565b60046020600192604051615db681614072565b848060a01b038654168152848601548382015260028601546040820152600386015460608201528152019201920191906159e2565b6004602060019260409a989a51615e0181614072565b848060a01b03865416815284860154838201526002860154604082015260038601546060820152815201920192019190969496615919565b615e4b91506003015460155490614830565b421015386158c7565b60405162461bcd60e51b8152602060048201526012602482015271496e76616c696420636f6e666964656e636560701b6044820152606490fd5b15615e9557565b60405162461bcd60e51b815260206004820152600e60248201526d139bdd08185d5d1a1bdc9a5e995960921b6044820152606490fd5b15615ed257565b60405162461bcd60e51b815260206004820152601760248201527f4e6f7420616e206163746976652076616c696461746f720000000000000000006044820152606490fd5b15615f1e57565b60405162461bcd60e51b8152602060048201526011602482015270105b1c9958591e481d985b1a59185d1959607a1b6044820152606490fd5b8181029291811591840414171561048757565b60018060a01b03166000526000602052604060002060405190615f8c8261408d565b60018060a01b03815416825260018101546020830152600281015490604083019180835260038201549384606082015260ff6004840154161515608082015260c0600660058501549460a0840195865201549101521561602e576064830292808404606414901517156104875761601861600d60649461601e9451906143e9565b9151600954906143e9565b90615f57565b0460115490818082109118021890565b50505060125490565b6001600160a01b031680156160975760008051602061663283398151915280546001600160a01b0319811683179091556001600160a01b03167f8be0079c531659141344cd1fd0a4f28419497f9722a3daafe3b4186f6b6457e0600080a3565b631e4fbdf760e01b600052600060045260246000fd5b600080516020616632833981519152546001600160a01b031633036160ce57565b63118cdaa760e01b6000523360045260246000fd5b801580616154575b61614d5781811191821561613d576161038183614449565b925b1561613657505b60648202918083046064149015171561048757616128916143e9565b606403606481116104875790565b905061610c565b6161478282614449565b92616105565b5050606490565b5081156160eb565b6040519182526001600160a01b0316907fe8ea3d4dd0a2eaaf3f7532ad391255544f8a4bcf78f850bbff61d5bac9f7755290602090a2565b9080821461614d576161b890808311156161d7576161b28184614449565b92614830565b60011c60648202918083046064149015171561048757616128916143e9565b6161b28382614449565b6002600080516020616672833981519152541461620c57600260008051602061667283398151915255565b633ee5aeb560e01b60005260046000fd5b604051906020820181519261623d6020828186019661119781878a614297565b51902060405160208101906934b93934b3b0ba34b7b760b11b8252600a8152616267602a826140a8565b51902003616287575050603c91501060001461628257600190565b600090565b90915060405160208101906162a5602082855161119781878a614297565b51902060405160208101906870657374696369646560b81b8252600981526162ce6029826140a8565b519020036162e55750506046111561628257600190565b6163016020604051809361119783830196879251928391614297565b5190206040516020810190661a185c9d995cdd60ca1b8252600781526163286027826140a8565b519020146163365750600090565b6055101561628257600190565b6028811061635c5760501061635757601490565b604690565b50605090565b81519190604183036163935761638c92506020820151906060604084015193015160001a90616514565b9192909190565b505060009160029190565b9190916004811015613fe057806163b457509050565b6000600182036163cf5763f645eedf60e01b60005260046000fd5b50600281036163ed578263fce698f760e01b60005260045260246000fd5b90916003600092146163fd575050565b6335e2f38360e21b825260045260249150fd5b6000526003602052604060002090815461642981614612565b9261643760405194856140a8565b818452602084019060005260206000206000915b83831061649e575050505060005b8251811015616496576001600160a01b036164748285614629565b5151166001600160a01b0383161461648e57600101616459565b505050600190565b505050600090565b600460206001926040516164b181614072565b848060a01b0386541681528486015483820152600286015460408201526003860154606082015281520192019201919061644b565b60ff6000805160206166928339815191525460401c161561650357565b631afcd79f60e31b60005260046000fd5b91907f7fffffffffffffffffffffffffffffff5d576e7357a4501ddfe92f46681b20a08411616591579160209360809260ff60009560405194855216868401526040830152606082015282805260015afa15612400576000516001600160a01b038116156165855790600090600090565b50600090600190600090565b50505060009160039190565b906165c357508051156165b257602081519101fd5b63d6bda27560e01b60005260046000fd5b815115806165f5575b6165d4575090565b639996b31560e01b60009081526001600160a01b0391909116600452602490fd5b50803b156165cc565b600a820461660c8184614449565b821015928361661c575b50505090565b616627929350614830565b101538808061661656fe9016d09d72d40fdae2fd8ceac6b6234c7706214fd39c1cd1e609a0528c199300360894a13ba1a3210667c828492db98dca3e2076cc3735a920a3ca505d382bbc9b779b17422d0df92223018b32b4d1fa46e071723d6817e2486d003becc55f00f0c57e16840df040f15088dc2f81fe391c3923bec73e23a9662efc9c229c6a00a2646970667358221220b761ed09a03be10cd496bf3332236e3e1d4f4011fc752b9d9bdec7fd9c4fbc1e64736f6c634300081c0033",
  "linkReferences": {},
  "deployedLinkReferences": {}
}