{
  "_format": "hh-sol-artifact-1",
  "contractName": "LendingProtocol",
  "sourceName": "contracts/LendingProtocol.sol",
  "abi": [
    {
      "inputs": [
        {
          "internalType": "address",
          "name": "target",
          "type": "address"
        }
      ],
      "name": "AddressEmptyCode",
      "type": "error"
    },
    {
      "inputs": [
        {
          "internalType": "address",
          "name": "implementation",
          "type": "address"
        }
      ],
      "name": "ERC1967InvalidImplementation",
      "type": "error"
    },
    {
      "inputs": [],
      "name": "ERC1967NonPayable",
      "type": "error"
    },
    {
      "inputs": [],
      "name": "FailedCall",
      "type": "error"
    },
    {
      "inputs": [],
      "name": "InvalidInitialization",
      "type": "error"
    },
    {
      "inputs": [],
      "name": "NotInitializing",
      "type": "error"
    },
    {
      "inputs": [
        {
          "internalType": "address",
          "name": "owner",
          "type": "address"
        }
      ],
      "name": "OwnableInvalidOwner",
      "type": "error"
    },
    {
      "inputs": [
        {
          "internalType": "address",
          "name": "account",
          "type": "address"
        }
      ],
      "name": "OwnableUnauthorizedAccount",
      "type": "error"
    },
    {
      "inputs": [],
      "name": "ReentrancyGuardReentrantCall",
      "type": "error"
    },
    {
      "inputs": [
        {
          "internalType": "address",
          "name": "token",
          "type": "address"
        }
      ],
      "name": "SafeERC20FailedOperation",
      "type": "error"
    },
    {
      "inputs": [],
      "name": "UUPSUnauthorizedCallContext",
      "type": "error"
    },
    {
      "inputs": [
        {
          "internalType": "bytes32",
          "name": "slot",
          "type": "bytes32"
        }
      ],
      "name": "UUPSUnsupportedProxiableUUID",
      "type": "error"
    },
    {
      "anonymous": false,
      "inputs": [
        {
          "indexed": true,
          "internalType": "address",
          "name": "user",
          "type": "address"
        },
        {
          "indexed": true,
          "internalType": "address",
          "name": "token",
          "type": "address"
        },
        {
          "indexed": false,
          "internalType": "uint256",
          "name": "amount",
          "type": "uint256"
        }
      ],
      "name": "CollateralDeposited",
      "type": "event"
    },
    {
      "anonymous": false,
      "inputs": [
        {
          "indexed": true,
          "internalType": "address",
          "name": "user",
          "type": "address"
        },
        {
          "indexed": true,
          "internalType": "address",
          "name": "token",
          "type": "address"
        },
        {
          "indexed": false,
          "internalType": "uint256",
          "name": "amount",
          "type": "uint256"
        }
      ],
      "name": "CollateralWithdrawn",
      "type": "event"
    },
    {
      "anonymous": false,
      "inputs": [
        {
          "indexed": true,
          "internalType": "address",
          "name": "user",
          "type": "address"
        },
        {
          "indexed": false,
          "internalType": "uint256",
          "name": "newScore",
          "type": "uint256"
        }
      ],
      "name": "CreditScoreUpdated",
      "type": "event"
    },
    {
      "anonymous": false,
      "inputs": [
        {
          "indexed": false,
          "internalType": "uint64",
          "name": "version",
          "type": "uint64"
        }
      ],
      "name": "Initialized",
      "type": "event"
    },
    {
      "anonymous": false,
      "inputs": [
        {
          "indexed": true,
          "internalType": "address",
          "name": "token",
          "type": "address"
        },
        {
          "indexed": false,
          "internalType": "uint256",
          "name": "newRate",
          "type": "uint256"
        }
      ],
      "name": "LendingPoolUpdated",
      "type": "event"
    },
    {
      "anonymous": false,
      "inputs": [
        {
          "indexed": true,
          "internalType": "uint256",
          "name": "loanId",
          "type": "uint256"
        },
        {
          "indexed": true,
          "internalType": "address",
          "name": "borrower",
          "type": "address"
        },
        {
          "indexed": true,
          "internalType": "address",
          "name": "lender",
          "type": "address"
        },
        {
          "indexed": false,
          "internalType": "uint256",
          "name": "amount",
          "type": "uint256"
        }
      ],
      "name": "LoanCreated",
      "type": "event"
    },
    {
      "anonymous": false,
      "inputs": [
        {
          "indexed": true,
          "internalType": "uint256",
          "name": "loanId",
          "type": "uint256"
        },
        {
          "indexed": true,
          "internalType": "address",
          "name": "liquidator",
          "type": "address"
        },
        {
          "indexed": false,
          "internalType": "uint256",
          "name": "collateralSeized",
          "type": "uint256"
        }
      ],
      "name": "LoanLiquidated",
      "type": "event"
    },
    {
      "anonymous": false,
      "inputs": [
        {
          "indexed": true,
          "internalType": "uint256",
          "name": "loanId",
          "type": "uint256"
        },
        {
          "indexed": false,
          "internalType": "uint256",
          "name": "amount",
          "type": "uint256"
        }
      ],
      "name": "LoanRepaid",
      "type": "event"
    },
    {
      "anonymous": false,
      "inputs": [
        {
          "indexed": true,
          "internalType": "address",
          "name": "previousOwner",
          "type": "address"
        },
        {
          "indexed": true,
          "internalType": "address",
          "name": "newOwner",
          "type": "address"
        }
      ],
      "name": "OwnershipTransferred",
      "type": "event"
    },
    {
      "anonymous": false,
      "inputs": [
        {
          "indexed": true,
          "internalType": "address",
          "name": "implementation",
          "type": "address"
        }
      ],
      "name": "Upgraded",
      "type": "event"
    },
    {
      "inputs": [],
      "name": "UPGRADE_INTERFACE_VERSION",
      "outputs": [
        {
          "internalType": "string",
          "name": "",
          "type": "string"
        }
      ],
      "stateMutability": "view",
      "type": "function"
    },
    {
      "inputs": [
        {
          "internalType": "address",
          "name": "_admin",
          "type": "address"
        }
      ],
      "name": "addEmergencyAdmin",
      "outputs": [],
      "stateMutability": "nonpayable",
      "type": "function"
    },
    {
      "inputs": [],
      "name": "collectProtocolFees",
      "outputs": [],
      "stateMutability": "nonpayable",
      "type": "function"
    },
    {
      "inputs": [],
      "name": "collectedFees",
      "outputs": [
        {
          "internalType": "uint256",
          "name": "",
          "type": "uint256"
        }
      ],
      "stateMutability": "view",
      "type": "function"
    },
    {
      "inputs": [
        {
          "internalType": "address",
          "name": "_token",
          "type": "address"
        },
        {
          "internalType": "uint256",
          "name": "_initialRate",
          "type": "uint256"
        }
      ],
      "name": "createLendingPool",
      "outputs": [],
      "stateMutability": "nonpayable",
      "type": "function"
    },
    {
      "inputs": [
        {
          "internalType": "address",
          "name": "_collateralToken",
          "type": "address"
        },
        {
          "internalType": "address",
          "name": "_loanToken",
          "type": "address"
        },
        {
          "internalType": "uint256",
          "name": "_collateralAmount",
          "type": "uint256"
        },
        {
          "internalType": "uint256",
          "name": "_loanAmount",
          "type": "uint256"
        },
        {
          "internalType": "uint256",
          "name": "_duration",
          "type": "uint256"
        }
      ],
      "name": "createLoan",
      "outputs": [
        {
          "internalType": "uint256",
          "name": "",
          "type": "uint256"
        }
      ],
      "stateMutability": "nonpayable",
      "type": "function"
    },
    {
      "inputs": [
        {
          "internalType": "address",
          "name": "",
          "type": "address"
        }
      ],
      "name": "creditProfiles",
      "outputs": [
        {
          "internalType": "uint256",
          "name": "creditScore",
          "type": "uint256"
        },
        {
          "internalType": "uint256",
          "name": "totalBorrowed",
          "type": "uint256"
        },
        {
          "internalType": "uint256",
          "name": "totalRepaid",
          "type": "uint256"
        },
        {
          "internalType": "uint256",
          "name": "activeLoans",
          "type": "uint256"
        },
        {
          "internalType": "uint256",
          "name": "defaultedLoans",
          "type": "uint256"
        },
        {
          "internalType": "uint256",
          "name": "lastActivity",
          "type": "uint256"
        },
        {
          "internalType": "bool",
          "name": "isActive",
          "type": "bool"
        }
      ],
      "stateMutability": "view",
      "type": "function"
    },
    {
      "inputs": [],
      "name": "creditScoreUpdatePeriod",
      "outputs": [
        {
          "internalType": "uint256",
          "name": "",
          "type": "uint256"
        }
      ],
      "stateMutability": "view",
      "type": "function"
    },
    {
      "inputs": [
        {
          "internalType": "address",
          "name": "_token",
          "type": "address"
        },
        {
          "internalType": "uint256",
          "name": "_amount",
          "type": "uint256"
        }
      ],
      "name": "depositToPool",
      "outputs": [],
      "stateMutability": "nonpayable",
      "type": "function"
    },
    {
      "inputs": [
        {
          "internalType": "address",
          "name": "",
          "type": "address"
        }
      ],
      "name": "emergencyAdmins",
      "outputs": [
        {
          "internalType": "bool",
          "name": "",
          "type": "bool"
        }
      ],
      "stateMutability": "view",
      "type": "function"
    },
    {
      "inputs": [],
      "name": "emergencyPause",
      "outputs": [
        {
          "internalType": "bool",
          "name": "",
          "type": "bool"
        }
      ],
      "stateMutability": "view",
      "type": "function"
    },
    {
      "inputs": [
        {
          "internalType": "address",
          "name": "_user",
          "type": "address"
        }
      ],
      "name": "getCreditProfile",
      "outputs": [
        {
          "internalType": "uint256",
          "name": "creditScore",
          "type": "uint256"
        },
        {
          "internalType": "uint256",
          "name": "totalBorrowed",
          "type": "uint256"
        },
        {
          "internalType": "uint256",
          "name": "totalRepaid",
          "type": "uint256"
        },
        {
          "internalType": "uint256",
          "name": "activeLoans",
          "type": "uint256"
        },
        {
          "internalType": "uint256",
          "name": "defaultedLoans",
          "type": "uint256"
        }
      ],
      "stateMutability": "view",
      "type": "function"
    },
    {
      "inputs": [
        {
          "internalType": "address",
          "name": "_token",
          "type": "address"
        }
      ],
      "name": "getLendingPool",
      "outputs": [
        {
          "components": [
            {
              "internalType": "address",
              "name": "token",
              "type": "address"
            },
            {
              "internalType": "uint256",
              "name": "totalSupplied",
              "type": "uint256"
            },
            {
              "internalType": "uint256",
              "name": "totalBorrowed",
              "type": "uint256"
            },
            {
              "internalType": "uint256",
              "name": "interestRate",
              "type": "uint256"
            },
            {
              "internalType": "uint256",
              "name": "utilizationRate",
              "type": "uint256"
            },
            {
              "internalType": "uint256",
              "name": "lastUpdateTime",
              "type": "uint256"
            },
            {
              "internalType": "bool",
              "name": "active",
              "type": "bool"
            }
          ],
          "internalType": "struct LendingProtocol.LendingPool",
          "name": "",
          "type": "tuple"
        }
      ],
      "stateMutability": "view",
      "type": "function"
    },
    {
      "inputs": [
        {
          "internalType": "uint256",
          "name": "_loanId",
          "type": "uint256"
        }
      ],
      "name": "getLoan",
      "outputs": [
        {
          "components": [
            {
              "internalType": "uint256",
              "name": "id",
              "type": "uint256"
            },
            {
              "internalType": "address",
              "name": "borrower",
              "type": "address"
            },
            {
              "internalType": "address",
              "name": "lender",
              "type": "address"
            },
            {
              "internalType": "address",
              "name": "collateralToken",
              "type": "address"
            },
            {
              "internalType": "address",
              "name": "loanToken",
              "type": "address"
            },
            {
              "internalType": "uint256",
              "name": "collateralAmount",
              "type": "uint256"
            },
            {
              "internalType": "uint256",
              "name": "loanAmount",
              "type": "uint256"
            },
            {
              "internalType": "uint256",
              "name": "interestRate",
              "type": "uint256"
            },
            {
              "internalType": "uint256",
              "name": "duration",
              "type": "uint256"
            },
            {
              "internalType": "uint256",
              "name": "startTime",
              "type": "uint256"
            },
            {
              "internalType": "uint256",
              "name": "lastPaymentTime",
              "type": "uint256"
            },
            {
              "internalType": "uint256",
              "name": "totalPaid",
              "type": "uint256"
            },
            {
              "internalType": "uint256",
              "name": "liquidationPrice",
              "type": "uint256"
            },
            {
              "internalType": "enum LendingProtocol.LoanStatus",
              "name": "status",
              "type": "uint8"
            }
          ],
          "internalType": "struct LendingProtocol.Loan",
          "name": "",
          "type": "tuple"
        }
      ],
      "stateMutability": "view",
      "type": "function"
    },
    {
      "inputs": [
        {
          "internalType": "uint256",
          "name": "_loanId",
          "type": "uint256"
        }
      ],
      "name": "getOutstandingLoanAmount",
      "outputs": [
        {
          "internalType": "uint256",
          "name": "",
          "type": "uint256"
        }
      ],
      "stateMutability": "view",
      "type": "function"
    },
    {
      "inputs": [],
      "name": "getSupportedTokens",
      "outputs": [
        {
          "internalType": "address[]",
          "name": "",
          "type": "address[]"
        }
      ],
      "stateMutability": "view",
      "type": "function"
    },
    {
      "inputs": [],
      "name": "identityRegistry",
      "outputs": [
        {
          "internalType": "contract IdentityRegistry",
          "name": "",
          "type": "address"
        }
      ],
      "stateMutability": "view",
      "type": "function"
    },
    {
      "inputs": [
        {
          "internalType": "address",
          "name": "_oracle",
          "type": "address"
        },
        {
          "internalType": "address",
          "name": "_identityRegistry",
          "type": "address"
        }
      ],
      "name": "initialize",
      "outputs": [],
      "stateMutability": "nonpayable",
      "type": "function"
    },
    {
      "inputs": [],
      "name": "interestRateUpdatePeriod",
      "outputs": [
        {
          "internalType": "uint256",
          "name": "",
          "type": "uint256"
        }
      ],
      "stateMutability": "view",
      "type": "function"
    },
    {
      "inputs": [
        {
          "internalType": "uint256",
          "name": "_loanId",
          "type": "uint256"
        }
      ],
      "name": "isLoanHealthy",
      "outputs": [
        {
          "internalType": "bool",
          "name": "",
          "type": "bool"
        }
      ],
      "stateMutability": "view",
      "type": "function"
    },
    {
      "inputs": [
        {
          "internalType": "address",
          "name": "",
          "type": "address"
        }
      ],
      "name": "lendingPools",
      "outputs": [
        {
          "internalType": "address",
          "name": "token",
          "type": "address"
        },
        {
          "internalType": "uint256",
          "name": "totalSupplied",
          "type": "uint256"
        },
        {
          "internalType": "uint256",
          "name": "totalBorrowed",
          "type": "uint256"
        },
        {
          "internalType": "uint256",
          "name": "interestRate",
          "type": "uint256"
        },
        {
          "internalType": "uint256",
          "name": "utilizationRate",
          "type": "uint256"
        },
        {
          "internalType": "uint256",
          "name": "lastUpdateTime",
          "type": "uint256"
        },
        {
          "internalType": "bool",
          "name": "active",
          "type": "bool"
        }
      ],
      "stateMutability": "view",
      "type": "function"
    },
    {
      "inputs": [
        {
          "internalType": "uint256",
          "name": "_loanId",
          "type": "uint256"
        }
      ],
      "name": "liquidateLoan",
      "outputs": [],
      "stateMutability": "nonpayable",
      "type": "function"
    },
    {
      "inputs": [],
      "name": "liquidationBonus",
      "outputs": [
        {
          "internalType": "uint256",
          "name": "",
          "type": "uint256"
        }
      ],
      "stateMutability": "view",
      "type": "function"
    },
    {
      "inputs": [
        {
          "internalType": "uint256",
          "name": "",
          "type": "uint256"
        }
      ],
      "name": "liquidations",
      "outputs": [
        {
          "internalType": "uint256",
          "name": "loanId",
          "type": "uint256"
        },
        {
          "internalType": "address",
          "name": "liquidator",
          "type": "address"
        },
        {
          "internalType": "uint256",
          "name": "collateralSeized",
          "type": "uint256"
        },
        {
          "internalType": "uint256",
          "name": "debtRepaid",
          "type": "uint256"
        },
        {
          "internalType": "uint256",
          "name": "liquidationBonus",
          "type": "uint256"
        },
        {
          "internalType": "uint256",
          "name": "timestamp",
          "type": "uint256"
        }
      ],
      "stateMutability": "view",
      "type": "function"
    },
    {
      "inputs": [
        {
          "internalType": "uint256",
          "name": "",
          "type": "uint256"
        }
      ],
      "name": "loans",
      "outputs": [
        {
          "internalType": "uint256",
          "name": "id",
          "type": "uint256"
        },
        {
          "internalType": "address",
          "name": "borrower",
          "type": "address"
        },
        {
          "internalType": "address",
          "name": "lender",
          "type": "address"
        },
        {
          "internalType": "address",
          "name": "collateralToken",
          "type": "address"
        },
        {
          "internalType": "address",
          "name": "loanToken",
          "type": "address"
        },
        {
          "internalType": "uint256",
          "name": "collateralAmount",
          "type": "uint256"
        },
        {
          "internalType": "uint256",
          "name": "loanAmount",
          "type": "uint256"
        },
        {
          "internalType": "uint256",
          "name": "interestRate",
          "type": "uint256"
        },
        {
          "internalType": "uint256",
          "name": "duration",
          "type": "uint256"
        },
        {
          "internalType": "uint256",
          "name": "startTime",
          "type": "uint256"
        },
        {
          "internalType": "uint256",
          "name": "lastPaymentTime",
          "type": "uint256"
        },
        {
          "internalType": "uint256",
          "name": "totalPaid",
          "type": "uint256"
        },
        {
          "internalType": "uint256",
          "name": "liquidationPrice",
          "type": "uint256"
        },
        {
          "internalType": "enum LendingProtocol.LoanStatus",
          "name": "status",
          "type": "uint8"
        }
      ],
      "stateMutability": "view",
      "type": "function"
    },
    {
      "inputs": [],
      "name": "maxLoanToValue",
      "outputs": [
        {
          "internalType": "uint256",
          "name": "",
          "type": "uint256"
        }
      ],
      "stateMutability": "view",
      "type": "function"
    },
    {
      "inputs": [],
      "name": "minCollateralRatio",
      "outputs": [
        {
          "internalType": "uint256",
          "name": "",
          "type": "uint256"
        }
      ],
      "stateMutability": "view",
      "type": "function"
    },
    {
      "inputs": [],
      "name": "nextLiquidationId",
      "outputs": [
        {
          "internalType": "uint256",
          "name": "",
          "type": "uint256"
        }
      ],
      "stateMutability": "view",
      "type": "function"
    },
    {
      "inputs": [],
      "name": "nextLoanId",
      "outputs": [
        {
          "internalType": "uint256",
          "name": "",
          "type": "uint256"
        }
      ],
      "stateMutability": "view",
      "type": "function"
    },
    {
      "inputs": [],
      "name": "oracle",
      "outputs": [
        {
          "internalType": "contract DecentralizedOracle",
          "name": "",
          "type": "address"
        }
      ],
      "stateMutability": "view",
      "type": "function"
    },
    {
      "inputs": [],
      "name": "owner",
      "outputs": [
        {
          "internalType": "address",
          "name": "",
          "type": "address"
        }
      ],
      "stateMutability": "view",
      "type": "function"
    },
    {
      "inputs": [],
      "name": "protocolFee",
      "outputs": [
        {
          "internalType": "uint256",
          "name": "",
          "type": "uint256"
        }
      ],
      "stateMutability": "view",
      "type": "function"
    },
    {
      "inputs": [],
      "name": "proxiableUUID",
      "outputs": [
        {
          "internalType": "bytes32",
          "name": "",
          "type": "bytes32"
        }
      ],
      "stateMutability": "view",
      "type": "function"
    },
    {
      "inputs": [],
      "name": "renounceOwnership",
      "outputs": [],
      "stateMutability": "nonpayable",
      "type": "function"
    },
    {
      "inputs": [
        {
          "internalType": "uint256",
          "name": "_loanId",
          "type": "uint256"
        },
        {
          "internalType": "uint256",
          "name": "_amount",
          "type": "uint256"
        }
      ],
      "name": "repayLoan",
      "outputs": [],
      "stateMutability": "nonpayable",
      "type": "function"
    },
    {
      "inputs": [
        {
          "internalType": "bool",
          "name": "_paused",
          "type": "bool"
        }
      ],
      "name": "setEmergencyPause",
      "outputs": [],
      "stateMutability": "nonpayable",
      "type": "function"
    },
    {
      "inputs": [
        {
          "internalType": "uint256",
          "name": "_minCollateralRatio",
          "type": "uint256"
        },
        {
          "internalType": "uint256",
          "name": "_liquidationBonus",
          "type": "uint256"
        },
        {
          "internalType": "uint256",
          "name": "_maxLoanToValue",
          "type": "uint256"
        },
        {
          "internalType": "uint256",
          "name": "_protocolFee",
          "type": "uint256"
        }
      ],
      "name": "setProtocolParameters",
      "outputs": [],
      "stateMutability": "nonpayable",
      "type": "function"
    },
    {
      "inputs": [
        {
          "internalType": "uint256",
          "name": "",
          "type": "uint256"
        }
      ],
      "name": "supportedTokens",
      "outputs": [
        {
          "internalType": "address",
          "name": "",
          "type": "address"
        }
      ],
      "stateMutability": "view",
      "type": "function"
    },
    {
      "inputs": [
        {
          "internalType": "address",
          "name": "newOwner",
          "type": "address"
        }
      ],
      "name": "transferOwnership",
      "outputs": [],
      "stateMutability": "nonpayable",
      "type": "function"
    },
    {
      "inputs": [
        {
          "internalType": "address",
          "name": "_user",
          "type": "address"
        }
      ],
      "name": "updateCreditScore",
      "outputs": [],
      "stateMutability": "nonpayable",
      "type": "function"
    },
    {
      "inputs": [
        {
          "internalType": "address",
          "name": "newImplementation",
          "type": "address"
        },
        {
          "internalType": "bytes",
          "name": "data",
          "type": "bytes"
        }
      ],
      "name": "upgradeToAndCall",
      "outputs": [],
      "stateMutability": "payable",
      "type": "function"
    },
    {
      "inputs": [
        {
          "internalType": "address",
          "name": "_token",
          "type": "address"
        },
        {
          "internalType": "uint256",
          "name": "_amount",
          "type": "uint256"
        }
      ],
      "name": "withdrawFromPool",
      "outputs": [],
      "stateMutability": "nonpayable",
      "type": "function"
    }
  ],
  "bytecode": "0x60a080604052346057573060805260016003556001600855613a986009556101f4600a55611d4c600b55610e10600c5562093a80600d556064600e5561301d908161005d82396080518181816117eb0152611b140152f35b600080fdfe608080604052600436101561001357600080fd5b60003560e01c9081630572bf5f1461221e57508063079bafe3146121b8578063134e18f41461219157806316b7077114612173578063179efb091461212e5780631c02cc3e146121085780632f6d58dc1461204c57806345171f2614611fcc578063485cc95514611d775780634f1ef28614611a97578063504006ca1461188857806351858e271461186557806352d1902d146117d057806362d0ba7a146117b2578063715018a614611719578063737c5617146116f15780637b7c1f4c146116d35780637dc0d1d0146116ac57806384da26661461168e57806387c51459146116705780638a700b531461142d5780638da5cb5b146113e75780639003adfe146113c95780639774d946146113ab5780639d0938fa14611216578063a1af5b9a14611166578063a41bfcfc14611133578063a5b6ee79146110aa578063a66c84f41461103e578063ad3cb1cc14610fdb578063b0e21e8a14610fbd578063bc5e9ebe14610f7e578063c1bf9e5814610e61578063c625562614610e20578063ccdd9f5d14610b01578063d3c7c2c714610a35578063d8d1a657146109a9578063e1ec3c68146108bb578063e3d7b24d1461025c578063ed5611fb1461023e578063f1e25a9e1461021d5763f2fde38b146101ed57600080fd5b3461021857602036600319011261021857610216610209612319565b61021161294d565b61288e565b005b600080fd5b3461021857602036600319011261021857610216610239612319565b61268f565b34610218576000366003190112610218576020600b54604051908152f35b346102185760a036600319011261021857610275612319565b61027d61232f565b906064356084359161028d612acb565b60ff60105416610877576001600160a01b038416600052600560205260ff6006604060002001541615610833576201518083101580610825575b156107e1576102d53361268f565b33600052600460205260406000209361012c85541061079d57670de0b6b3a764000061030b61030384612c88565b60443561249f565b0490670de0b6b3a764000061032861032283612c88565b8661249f565b04916127106103396009548561249f565b0481106107595761035061271091600b549061249f565b048211610715576001600160a01b03811660005260056020526040600020956001870154938561038660028a0196875490612666565b106106d15760036001600160a01b038216986103a660443530338d612b44565b015482546103e8036103e881116106b0576103de916103d9906276a7008b106106c657600a60ff60005b16930490612486565b612666565b93612ee0810290808204612ee014901517156106b0576127109004670de0b6b3a7640000810290808204670de0b6b3a764000014901517156106b05761042661042c92612c88565b906124b2565b6003549661043988612680565b6003556040519461044986612361565b8886523360208701523060408701528960608701526001600160a01b038516608087015260443560a08701528760c087015260e08601526101008501524261012085015242610140850152600061016085015261018084015260006101a08401528560005260026020526101a0600d6040600020855181556001600160a01b036020870151166001600160a01b036001830191166001600160a01b03198254161790556001600160a01b036040870151166001600160a01b036002830191166001600160a01b03198254161790556001600160a01b036060870151166001600160a01b036003830191166001600160a01b03198254161790556001600160a01b036080870151166001600160a01b036004830191166001600160a01b031982541617905560a0860151600582015560c0860151600682015560e0860151600782015561010086015160088201556101208601516009820155610140860151600a820155610160860151600b820155610180860151600c8201550193015190600482101561069a5760209761064095879560079460ff801983541691161790556105f3868254612486565b905560018201610604868254612486565b9055600382016106148154612680565b9055600052018652604060002061062e6044358254612486565b90556001600160a01b03339116612db3565b6040519081523090827f74b3e97b2a36ecfc8a1c59a0f98862174d98f86769a3420cf68024a054f87b6d853393a460017f9b779b17422d0df92223018b32b4d1fa46e071723d6817e2486d003becc55f0055604051908152f35b634e487b7160e01b600052602160045260246000fd5b634e487b7160e01b600052601160045260246000fd5b600a60ff60326103d0565b606460405162461bcd60e51b815260206004820152601b60248201527f496e73756666696369656e7420706f6f6c206c697175696469747900000000006044820152fd5b606460405162461bcd60e51b815260206004820152600e60248201527f4c6f616e20746f6f206c617267650000000000000000000000000000000000006044820152fd5b606460405162461bcd60e51b815260206004820152601760248201527f496e73756666696369656e7420636f6c6c61746572616c0000000000000000006044820152fd5b606460405162461bcd60e51b815260206004820152601460248201527f4372656469742073636f726520746f6f206c6f770000000000000000000000006044820152fd5b606460405162461bcd60e51b815260206004820152601060248201527f496e76616c6964206475726174696f6e000000000000000000000000000000006044820152fd5b506301e133808311156102c7565b606460405162461bcd60e51b815260206004820152601860248201527f4c6f616e20746f6b656e206e6f7420737570706f7274656400000000000000006044820152fd5b606460405162461bcd60e51b815260206004820152600f60248201527f50726f746f636f6c2070617573656400000000000000000000000000000000006044820152fd5b34610218576020366003190112610218576004356000526002602052604060002080549060018101546001600160a01b03169060028101546001600160a01b031660038201546001600160a01b031660048301546001600160a01b031660058401546006850154600786015490600887015492600988015494600a89015496600b8a015498600c8b01549a600d015460ff169b604051809e81526020015260408d015260608c015260808b015260a08a015260c089015260e08801526101008701526101208601526101408501526101608401526101808301526101a082016109a3916123bc565b6101c090f35b34610218576020366003190112610218576004358015158091036102185733600052601160205260ff60406000205416156109f15760ff801960105416911617601055600080f35b606460405162461bcd60e51b815260206004820152601360248201527f4e6f7420656d657267656e63792061646d696e000000000000000000000000006044820152fd5b34610218576000366003190112610218576040518060206006549283815201809260066000527ff652222313e28459528d920b65115c16c04f3efc82aaedc97be59f3f377c0d3f9060005b818110610ae25750505081610a9691038261237e565b6040519182916020830190602084525180915260408301919060005b818110610ac0575050500390f35b82516001600160a01b0316845285945060209384019390920191600101610ab2565b82546001600160a01b0316845260209093019260019283019201610a80565b3461021857602036600319011261021857600435610b1d612acb565b806000526002602052604060002090600d82019160ff835416600481101561069a57610b49901561261b565b60058101908154916003820191670de0b6b3a7640000610b756103226001600160a01b03865416612c88565b0493610b80866129ae565b9461271081029080820461271014901517156106b05785610ba0916124b2565b6009541115610ddc57600a54612710019182612710116106b0576001600160a01b03600192612710610bd383968a61249f565b048180821091180218986004830190610bf3898484541630903390612b44565b610c018b33858b5416612db3565b600360ff19825416179055541660005260056020526040600020610c2f600260068401549201918254612666565b90550154166000526004602052600760406000209160038301610c528154612673565b905560048301610c628154612680565b905554916001600160a01b03808554161660005201602052610c8a6040600020918254612666565b9055670de0b6b3a7640000820290828204670de0b6b3a764000014831517156106b057610ccd916104266001600160a01b03610cc7935416612c88565b84612666565b6040519160c083019183831067ffffffffffffffff841117610dc65760059260405284845260208401913383526040850187815260608601918252608086019283526001600160a01b0360a0870194428652600854610d2b81612680565b600855600052600760205260406000209751885551166001600160a01b036001880191166001600160a01b0319825416179055516002860155516003850155516004840155519101556040519182527f0256bdf47e9aff5784070d6cab332d79f81fc6b8c8ed875565982a423a389e3a60203393a360017f9b779b17422d0df92223018b32b4d1fa46e071723d6817e2486d003becc55f0055005b634e487b7160e01b600052604160045260246000fd5b606460405162461bcd60e51b815260206004820152601c60248201527f4c6f616e206e6f7420756e646572636f6c6c61746572616c697a6564000000006044820152fd5b3461021857602036600319011261021857600435600654811015610218576001600160a01b03610e5160209261240a565b90549060031b1c16604051908152f35b3461021857604036600319011261021857610e7a612319565b602435610e85612acb565b6001600160a01b03821691826000526005602052604060002090610eaf60ff60068401541661243b565b6001820183610ec46002835495015485612666565b10610f3a57610ed684610edd94612666565b9055612ba5565b610ee8813384612db3565b6040519081527f45892a46e6cef329bb642da6d69846d324db43d19008edc141ed82382eda1bee60203392a360017f9b779b17422d0df92223018b32b4d1fa46e071723d6817e2486d003becc55f0055005b606460405162461bcd60e51b815260206004820152601660248201527f496e73756666696369656e74206c6971756964697479000000000000000000006044820152fd5b34610218576020366003190112610218576001600160a01b03610f9f612319565b166000526011602052602060ff604060002054166040519015158152f35b34610218576000366003190112610218576020600e54604051908152f35b346102185760003660031901126102185761103a6040805190610ffe818361237e565b600582527f352e302e300000000000000000000000000000000000000000000000000000006020830152519182916020835260208301906123c9565b0390f35b3461021857602036600319011261021857600435600052600760205260c060406000208054906001600160a01b036001820154169060028101546003820154906005600484015493015493604051958652602086015260408501526060840152608083015260a0820152f35b34610218576020366003190112610218576001600160a01b036110cb612319565b16600052600560205260e060406000206001600160a01b03815416906001810154906002810154600382015460048301549160ff600660058601549501541694604051968752602087015260408601526060850152608084015260a0830152151560c0820152f35b346102185760803660031901126102185761114c61294d565b600435600955602435600a55604435600b55606435600e55005b346102185760003660031901126102185761117f61294d565b600f5480156111d25760008080809381600f556001600160a01b037f9016d09d72d40fdae2fd8ceac6b6234c7706214fd39c1cd1e609a0528c199300541682f1156111c657005b6040513d6000823e3d90fd5b606460405162461bcd60e51b815260206004820152601260248201527f4e6f206665657320746f20636f6c6c65637400000000000000000000000000006044820152fd5b346102185760403660031901126102185761122f612319565b6001600160a01b036024359161124361294d565b16908160005260056020526001600160a01b03604060002054166113675760405161126d81612345565b828152600660208201916000835260408101600081526060820185815260808301906000825260a084019242845260c0850196600188528960005260056020526001600160a01b03806040600020975116166001600160a01b0319875416178655516001860155516002850155516003840155516004830155516005820155019051151560ff8019835416911617905560065468010000000000000000811015610dc6577f81cd083a3296187d42bd7efd7124373051a2ad01d03ca7c4c5326465cbceffc4916113458260016020940160065561240a565b81549060031b906001600160a01b0387831b921b1916179055604051908152a2005b606460405162461bcd60e51b815260206004820152601360248201527f506f6f6c20616c726561647920657869737473000000000000000000000000006044820152fd5b34610218576000366003190112610218576020600c54604051908152f35b34610218576000366003190112610218576020600f54604051908152f35b346102185760003660031901126102185760206001600160a01b037f9016d09d72d40fdae2fd8ceac6b6234c7706214fd39c1cd1e609a0528c1993005416604051908152f35b346102185760403660031901126102185760043560243561144c612acb565b8160005260026020526040600020600d81019160ff835416600481101561069a57611477901561261b565b6001600160a01b03600183015416330361162c57611494846129ae565b918282116115e8577f040cee90ee4799897c30ca04e5feb6fa43dbba9b6d084b4b257cdafd84ba013e9360209360048301906114de856001600160a01b0384541630903390612b44565b6001600160a01b03600b8501926114f6878554612486565b845542600a87015554166000526005865260406000206115286002600687015492019180881081891802188254612666565b9055336000526004865260406000209160028301611547878254612486565b9055541015611581575b505050604051908152a260017f9b779b17422d0df92223018b32b4d1fa46e071723d6817e2486d003becc55f0055005b600791600160ff198254161790556001600160a01b038060038501946115b36005838854169201918254903390612db3565b600384016115c18154612673565b905554945416166000520183526115de6040600020918254612666565b9055848080611551565b606460405162461bcd60e51b815260206004820152600b60248201527f4f7665727061796d656e740000000000000000000000000000000000000000006044820152fd5b606460405162461bcd60e51b815260206004820152601160248201527f4e6f74206c6f616e20626f72726f7765720000000000000000000000000000006044820152fd5b34610218576000366003190112610218576020600354604051908152f35b34610218576000366003190112610218576020600954604051908152f35b346102185760003660031901126102185760206001600160a01b0360005416604051908152f35b34610218576000366003190112610218576020600a54604051908152f35b3461021857602036600319011261021857602061170f6004356124d2565b6040519015158152f35b346102185760003660031901126102185761173261294d565b60006001600160a01b037f9016d09d72d40fdae2fd8ceac6b6234c7706214fd39c1cd1e609a0528c199300546001600160a01b031981167f9016d09d72d40fdae2fd8ceac6b6234c7706214fd39c1cd1e609a0528c19930055167f8be0079c531659141344cd1fd0a4f28419497f9722a3daafe3b4186f6b6457e08280a3005b34610218576000366003190112610218576020600d54604051908152f35b34610218576000366003190112610218576001600160a01b037f000000000000000000000000000000000000000000000000000000000000000016300361183b5760206040517f360894a13ba1a3210667c828492db98dca3e2076cc3735a920a3ca505d382bbc8152f35b7fe07c8dba0000000000000000000000000000000000000000000000000000000060005260046000fd5b3461021857600036600319011261021857602060ff601054166040519015158152f35b34610218576020366003190112610218576040516118a581612361565b60008152602081016000905260408101600090526060810160009052608081016000905260a081016000905260c081016000905260e08101600090526101008101600090526101208101600090526101408101600090526101608101600090526101808101600090526101a001600090526004356000526002602052604060002060405161193281612361565b8154815260018201546001600160a01b0316916020820192835260028101546001600160a01b03166040830190815260038201546001600160a01b03166060840190815260048301546001600160a01b031660808501908152600584015460a08601908152600685015460c0870190815260078601549060e0880191825260088701549261010089019384526009880154946101208a01958652600a890154966101408b01978852600b8a0154986101608c01998a52600c8b01549a6101808d019b8c52600d015460ff169b6101a081019c611a0e908e612493565b6040519d8e91518252516001600160a01b03169060200152516001600160a01b031660408d0152516001600160a01b031660608c0152516001600160a01b031660808b01525160a08a01525160c08901525160e08801525161010087015251610120860152516101408501525161016084015251610180830152516101a082016109a3916123bc565b604036600319011261021857611aab612319565b6024359067ffffffffffffffff8211610218573660238301121561021857816004013590611ad8826123a0565b91611ae6604051938461237e565b8083526020830193366024838301011161021857816000926024602093018737840101526001600160a01b037f000000000000000000000000000000000000000000000000000000000000000016803014908115611d42575b5061183b57611b4c61294d565b6001600160a01b038116926040517f52d1902d000000000000000000000000000000000000000000000000000000008152602081600481885afa60009181611d0e575b50611ba95784634c9c8ce360e01b60005260045260246000fd5b807f360894a13ba1a3210667c828492db98dca3e2076cc3735a920a3ca505d382bbc869203611ce15750823b15611ccd57806001600160a01b03197f360894a13ba1a3210667c828492db98dca3e2076cc3735a920a3ca505d382bbc5416177f360894a13ba1a3210667c828492db98dca3e2076cc3735a920a3ca505d382bbc557fbc7cd75a20ee27fd9adebab32041f755214dbc6bffa90cc0225b39da2e5c2d3b600080a2825115611c995760008091610216945190845af43d15611c91573d91611c74836123a0565b92611c82604051948561237e565b83523d6000602085013e612f57565b606091612f57565b50505034611ca357005b7fb398979f0000000000000000000000000000000000000000000000000000000060005260046000fd5b634c9c8ce360e01b60005260045260246000fd5b7faa1d49a40000000000000000000000000000000000000000000000000000000060005260045260246000fd5b9091506020813d602011611d3a575b81611d2a6020938361237e565b8101031261021857519086611b8f565b3d9150611d1d565b90506001600160a01b037f360894a13ba1a3210667c828492db98dca3e2076cc3735a920a3ca505d382bbc5416141584611b3f565b3461021857604036600319011261021857611d90612319565b611d9861232f565b907ff0c57e16840df040f15088dc2f81fe391c3923bec73e23a9662efc9c229c6a00549160ff8360401c16159267ffffffffffffffff811680159081611fc4575b6001149081611fba575b159081611fb1575b50611f875767ffffffffffffffff1981166001177ff0c57e16840df040f15088dc2f81fe391c3923bec73e23a9662efc9c229c6a00556001600160a01b0392839185611f48575b50611e3b612efe565b611e43612efe565b611e4c3361288e565b611e54612efe565b611e5c612efe565b60017f9b779b17422d0df92223018b32b4d1fa46e071723d6817e2486d003becc55f0055611e88612efe565b166001600160a01b03196000541617600055166001600160a01b031960015416176001553360005260116020526040600020600160ff19825416179055611ecb57005b68ff0000000000000000197ff0c57e16840df040f15088dc2f81fe391c3923bec73e23a9662efc9c229c6a0054167ff0c57e16840df040f15088dc2f81fe391c3923bec73e23a9662efc9c229c6a00557fc7f505b2f371ae2175ee4913f4499e1f2633a7b5936321eed1cdaeb6115181d2602060405160018152a1005b68ffffffffffffffffff191668010000000000000001177ff0c57e16840df040f15088dc2f81fe391c3923bec73e23a9662efc9c229c6a005585611e32565b7ff92ee8a90000000000000000000000000000000000000000000000000000000060005260046000fd5b90501585611deb565b303b159150611de3565b859150611dd9565b34610218576020366003190112610218576001600160a01b03611fed612319565b16600052600460205260e060406000208054906001810154906002810154600382015460048301549160ff600660058601549501541694604051968752602087015260408601526060850152608084015260a0830152151560c0820152f35b3461021857604036600319011261021857612065612319565b602435612070612acb565b6120b66001600160a01b038316928360005260056020526001604060002061209e60ff60068301541661243b565b6120aa85303389612b44565b01610ed6848254612486565b6040519081527ff1c0dd7e9b98bbff859029005ef89b127af049cd18df1a8d79f0b7e019911e5660203392a360017f9b779b17422d0df92223018b32b4d1fa46e071723d6817e2486d003becc55f0055005b346102185760203660031901126102185760206121266004356129ae565b604051908152f35b34610218576020366003190112610218576001600160a01b0361214f612319565b61215761294d565b166000908152601160205260409020805460ff19166001179055005b34610218576000366003190112610218576020600854604051908152f35b346102185760003660031901126102185760206001600160a01b0360015416604051908152f35b34610218576020366003190112610218576001600160a01b036121d9612319565b16600052600460205260a06040600020805490600181015490600281015460046003830154920154926040519485526020850152604084015260608301526080820152f35b34610218576020366003190112610218576001600160a01b0390600060c0612244612319565b9261224e81612345565b8281528260208201528260408201528260608201528260808201528260a0820152015216600052600560205260e0604060002060405161228d81612345565b6001600160a01b0382541691828252600181015460208301908152600282015460408401908152600383015490606085019182526004840154926080860193845260c060ff600660058801549760a08a01988952015416960195151586526040519687525160208701525160408601525160608501525160808401525160a083015251151560c0820152f35b600435906001600160a01b038216820361021857565b602435906001600160a01b038216820361021857565b60e0810190811067ffffffffffffffff821117610dc657604052565b6101c0810190811067ffffffffffffffff821117610dc657604052565b90601f8019910116810190811067ffffffffffffffff821117610dc657604052565b67ffffffffffffffff8111610dc657601f01601f191660200190565b90600482101561069a5752565b919082519283825260005b8481106123f5575050826000602080949584010152601f8019910116010190565b806020809284010151828286010152016123d4565b60065481101561242557600660005260206000200190600090565b634e487b7160e01b600052603260045260246000fd5b1561244257565b606460405162461bcd60e51b815260206004820152600f60248201527f506f6f6c206e6f742061637469766500000000000000000000000000000000006044820152fd5b919082018092116106b057565b600482101561069a5752565b818102929181159184041417156106b057565b81156124bc570490565b634e487b7160e01b600052601260045260246000fd5b80600052600260205260406000206040516124ec81612361565b815481526001600160a01b0360018301541660208201526001600160a01b0360028301541660408201526001600160a01b0360038301541690606081019182526001600160a01b0360048401541660808201526125ad6101a060ff600d60058701549660a08601978852600681015460c0870152600781015460e087015260088101546101008701526009810154610120870152600a810154610140870152600b810154610160870152600c81015461018087015201541692019182612493565b51600481101561069a57612613576125e6670de0b6b3a7640000916125e06001600160a01b036125ed9551925116612c88565b9061249f565b04916129ae565b61271082029180830461271014901517156106b05761260b916124b2565b600954111590565b505050600090565b1561262257565b606460405162461bcd60e51b815260206004820152600f60248201527f4c6f616e206e6f742061637469766500000000000000000000000000000000006044820152fd5b919082039182116106b057565b80156106b0576000190190565b60001981146106b05760010190565b6001600160a01b03811690816000526004602052604060002060058101916126bb8354600d5490612486565b4210612888576101f460ff60068401541661287f575b600283015480158015612831575b5050600483015480158015612811575b5050908460005260046020526040600020600090600060076006549201905b8281106127a55750505080612780575b5061272890612e03565b61276e575b907f79c012a0cfae660e09134956bc432c8497ec80e86a3a108d130e8b3fca52b3ad92826020936103e810816103e8180218809255429055604051908152a2565b90603282018092116106b0579061272d565b61272891926103e861279e9204606480821091180260641890612486565b919061271e565b6001600160a01b036127b68261240a565b90549060031b1c16604060006001600160a01b038316815284602052205490816127e5575b505060010161270e565b94670de0b6b3a7640000612802612809936125e060019699612c88565b0490612486565b9390386127db565b6064820291820460641417156106b05761282a91612666565b38806126ef565b6127108202908282046127101417156106b05761042661285692600187015490612486565b9060c882029180830460c814901517156106b057612710612878920490612486565b38806126df565b506102266126d1565b50505050565b6001600160a01b0316801561291e576001600160a01b037f9016d09d72d40fdae2fd8ceac6b6234c7706214fd39c1cd1e609a0528c19930054826001600160a01b03198216177f9016d09d72d40fdae2fd8ceac6b6234c7706214fd39c1cd1e609a0528c19930055167f8be0079c531659141344cd1fd0a4f28419497f9722a3daafe3b4186f6b6457e0600080a3565b7f1e4fbdf700000000000000000000000000000000000000000000000000000000600052600060045260246000fd5b6001600160a01b037f9016d09d72d40fdae2fd8ceac6b6234c7706214fd39c1cd1e609a0528c1993005416330361298057565b7f118cdaa7000000000000000000000000000000000000000000000000000000006000523360045260246000fd5b6000526002602052612ac86040600020612ac06040516129cd81612361565b825481526001600160a01b0360018401541660208201526001600160a01b0360028401541660408201526001600160a01b0360038401541660608201526001600160a01b036004840154166080820152600583015460a082015264496cebb800612ab860068501549260c08101938452612ab3612aa887612aa160078201549460e0810195865260088301546101008201526101a060ff600d600b6009870154966101208601978852600a81015461014087015201549d61016085019e8f52600c8101546101808601520154169101612493565b5142612666565b91855190519061249f565b61249f565b049051612486565b905190612666565b90565b60027f9b779b17422d0df92223018b32b4d1fa46e071723d6817e2486d003becc55f005414612b1a5760027f9b779b17422d0df92223018b32b4d1fa46e071723d6817e2486d003becc55f0055565b7f3ee5aeb50000000000000000000000000000000000000000000000000000000060005260046000fd5b9091926001600160a01b03612ba39481604051957f23b872dd000000000000000000000000000000000000000000000000000000006020880152166024860152166044840152606483015260648252612b9e60848361237e565b612e8d565b565b6001600160a01b031680600052600560205260406000206005810190612bcf8254600c5490612486565b4210612c8357600181015460008115612c7c575060028201549061271082029180830461271014901517156106b057612c07916124b2565b806004830155611f408111600014612c5f57506101905b60c8018060c8116106b0577f81cd083a3296187d42bd7efd7124373051a2ad01d03ca7c4c5326465cbceffc4928160036020940155429055604051908152a2565b6032810290808204603214901517156106b0576127109004612c1e565b9050612c07565b505050565b600054604051606092831b6bffffffffffffffffffffffff191660208201527f5f707269636500000000000000000000000000000000000000000000000000006034820152601a8152612d6092916001600160a01b0316612cea603a8361237e565b60405180809581947f52ee0b7700000000000000000000000000000000000000000000000000000000835260036004840152866024840152600660648401527f676c6f62616c0000000000000000000000000000000000000000000000000000608484015260a0604484015260a48301906123c9565b03915afa60009181612d7f575b50612ac85750670de0b6b3a764000090565b9091506060813d606011612dab575b81612d9b6060938361237e565b8101031261021857519038612d6d565b3d9150612d8e565b612ba3926001600160a01b03604051937fa9059cbb000000000000000000000000000000000000000000000000000000006020860152166024840152604483015260448252612b9e60648361237e565b60206001600160a01b03602481600154169360405194859384927f0cdc091e0000000000000000000000000000000000000000000000000000000084521660048301525afa9081612e5e575b50612e5957600090565b600190565b6020813d602011612e85575b81612e776020938361237e565b810103126102185751612e4f565b3d9150612e6a565b906000602091828151910182855af1156111c6576000513d612ef557506001600160a01b0381163b155b612ebe5750565b6001600160a01b03907f5274afe7000000000000000000000000000000000000000000000000000000006000521660045260246000fd5b60011415612eb7565b60ff7ff0c57e16840df040f15088dc2f81fe391c3923bec73e23a9662efc9c229c6a005460401c1615612f2d57565b7fd7e6bcf80000000000000000000000000000000000000000000000000000000060005260046000fd5b90612f965750805115612f6c57602081519101fd5b7fd6bda2750000000000000000000000000000000000000000000000000000000060005260046000fd5b81511580612fde575b612fa7575090565b6001600160a01b03907f9996b315000000000000000000000000000000000000000000000000000000006000521660045260246000fd5b50803b15612f9f56fea26469706673582212208211719290f5f39e033f4f66582c12486be5efa9d0e2eda0ce929626c1adf03a64736f6c634300081c0033",
  "linkReferences": {},
  "deployedLinkReferences": {}
}