{
  "_format": "hh-sol-artifact-1",
  "contractName": "AgriDEX",
  "sourceName": "contracts/AgriDEX.sol",
  "abi": [
    {
      "inputs": [
        {
          "internalType": "address",
          "name": "target",
          "type": "address"
        }
      ],
      "name": "AddressEmptyCode",
      "type": "error"
    },
    {
      "inputs": [
        {
          "internalType": "address",
          "name": "implementation",
          "type": "address"
        }
      ],
      "name": "ERC1967InvalidImplementation",
      "type": "error"
    },
    {
      "inputs": [],
      "name": "ERC1967NonPayable",
      "type": "error"
    },
    {
      "inputs": [],
      "name": "FailedCall",
      "type": "error"
    },
    {
      "inputs": [],
      "name": "InvalidInitialization",
      "type": "error"
    },
    {
      "inputs": [],
      "name": "NotInitializing",
      "type": "error"
    },
    {
      "inputs": [
        {
          "internalType": "address",
          "name": "owner",
          "type": "address"
        }
      ],
      "name": "OwnableInvalidOwner",
      "type": "error"
    },
    {
      "inputs": [
        {
          "internalType": "address",
          "name": "account",
          "type": "address"
        }
      ],
      "name": "OwnableUnauthorizedAccount",
      "type": "error"
    },
    {
      "inputs": [],
      "name": "ReentrancyGuardReentrantCall",
      "type": "error"
    },
    {
      "inputs": [
        {
          "internalType": "address",
          "name": "token",
          "type": "address"
        }
      ],
      "name": "SafeERC20FailedOperation",
      "type": "error"
    },
    {
      "inputs": [],
      "name": "UUPSUnauthorizedCallContext",
      "type": "error"
    },
    {
      "inputs": [
        {
          "internalType": "bytes32",
          "name": "slot",
          "type": "bytes32"
        }
      ],
      "name": "UUPSUnsupportedProxiableUUID",
      "type": "error"
    },
    {
      "anonymous": false,
      "inputs": [
        {
          "indexed": true,
          "internalType": "uint256",
          "name": "orderId",
          "type": "uint256"
        },
        {
          "indexed": true,
          "internalType": "address",
          "name": "executor",
          "type": "address"
        },
        {
          "indexed": false,
          "internalType": "uint256",
          "name": "executedAmount",
          "type": "uint256"
        }
      ],
      "name": "AdvancedOrderExecuted",
      "type": "event"
    },
    {
      "anonymous": false,
      "inputs": [
        {
          "indexed": true,
          "internalType": "address",
          "name": "borrower",
          "type": "address"
        },
        {
          "indexed": false,
          "internalType": "address",
          "name": "token",
          "type": "address"
        },
        {
          "indexed": false,
          "internalType": "uint256",
          "name": "amount",
          "type": "uint256"
        },
        {
          "indexed": false,
          "internalType": "uint256",
          "name": "fee",
          "type": "uint256"
        }
      ],
      "name": "FlashLoanExecuted",
      "type": "event"
    },
    {
      "anonymous": false,
      "inputs": [
        {
          "indexed": false,
          "internalType": "uint256",
          "name": "newFee",
          "type": "uint256"
        }
      ],
      "name": "FlashLoanFeeUpdated",
      "type": "event"
    },
    {
      "anonymous": false,
      "inputs": [
        {
          "indexed": false,
          "internalType": "uint64",
          "name": "version",
          "type": "uint64"
        }
      ],
      "name": "Initialized",
      "type": "event"
    },
    {
      "anonymous": false,
      "inputs": [
        {
          "indexed": true,
          "internalType": "uint256",
          "name": "positionId",
          "type": "uint256"
        },
        {
          "indexed": true,
          "internalType": "address",
          "name": "provider",
          "type": "address"
        },
        {
          "indexed": false,
          "internalType": "uint256",
          "name": "poolId",
          "type": "uint256"
        },
        {
          "indexed": false,
          "internalType": "uint256",
          "name": "liquidityAmount",
          "type": "uint256"
        }
      ],
      "name": "LiquidityAdded",
      "type": "event"
    },
    {
      "anonymous": false,
      "inputs": [
        {
          "indexed": true,
          "internalType": "uint256",
          "name": "poolId",
          "type": "uint256"
        },
        {
          "indexed": false,
          "internalType": "address",
          "name": "tokenA",
          "type": "address"
        },
        {
          "indexed": false,
          "internalType": "address",
          "name": "tokenB",
          "type": "address"
        }
      ],
      "name": "LiquidityPoolCreated",
      "type": "event"
    },
    {
      "anonymous": false,
      "inputs": [
        {
          "indexed": true,
          "internalType": "uint256",
          "name": "positionId",
          "type": "uint256"
        },
        {
          "indexed": true,
          "internalType": "address",
          "name": "provider",
          "type": "address"
        },
        {
          "indexed": false,
          "internalType": "uint256",
          "name": "poolId",
          "type": "uint256"
        },
        {
          "indexed": false,
          "internalType": "uint256",
          "name": "liquidityAmount",
          "type": "uint256"
        }
      ],
      "name": "LiquidityRemoved",
      "type": "event"
    },
    {
      "anonymous": false,
      "inputs": [
        {
          "indexed": true,
          "internalType": "uint256",
          "name": "orderId",
          "type": "uint256"
        }
      ],
      "name": "OrderCancelled",
      "type": "event"
    },
    {
      "anonymous": false,
      "inputs": [
        {
          "indexed": true,
          "internalType": "uint256",
          "name": "orderId",
          "type": "uint256"
        },
        {
          "indexed": true,
          "internalType": "address",
          "name": "taker",
          "type": "address"
        },
        {
          "indexed": false,
          "internalType": "uint256",
          "name": "filledAmount",
          "type": "uint256"
        }
      ],
      "name": "OrderFilled",
      "type": "event"
    },
    {
      "anonymous": false,
      "inputs": [
        {
          "indexed": true,
          "internalType": "uint256",
          "name": "orderId",
          "type": "uint256"
        },
        {
          "indexed": true,
          "internalType": "address",
          "name": "maker",
          "type": "address"
        },
        {
          "indexed": false,
          "internalType": "address",
          "name": "tokenIn",
          "type": "address"
        },
        {
          "indexed": false,
          "internalType": "address",
          "name": "tokenOut",
          "type": "address"
        },
        {
          "indexed": false,
          "internalType": "uint256",
          "name": "amountIn",
          "type": "uint256"
        },
        {
          "indexed": false,
          "internalType": "uint256",
          "name": "amountOut",
          "type": "uint256"
        }
      ],
      "name": "OrderPlaced",
      "type": "event"
    },
    {
      "anonymous": false,
      "inputs": [
        {
          "indexed": true,
          "internalType": "address",
          "name": "previousOwner",
          "type": "address"
        },
        {
          "indexed": true,
          "internalType": "address",
          "name": "newOwner",
          "type": "address"
        }
      ],
      "name": "OwnershipTransferred",
      "type": "event"
    },
    {
      "anonymous": false,
      "inputs": [
        {
          "indexed": true,
          "internalType": "address",
          "name": "user",
          "type": "address"
        },
        {
          "indexed": false,
          "internalType": "uint256",
          "name": "amount",
          "type": "uint256"
        }
      ],
      "name": "RewardsClaimed",
      "type": "event"
    },
    {
      "anonymous": false,
      "inputs": [
        {
          "indexed": true,
          "internalType": "uint256",
          "name": "orderId",
          "type": "uint256"
        },
        {
          "indexed": true,
          "internalType": "address",
          "name": "maker",
          "type": "address"
        },
        {
          "indexed": false,
          "internalType": "address",
          "name": "tokenIn",
          "type": "address"
        },
        {
          "indexed": false,
          "internalType": "address",
          "name": "tokenOut",
          "type": "address"
        },
        {
          "indexed": false,
          "internalType": "uint256",
          "name": "amountIn",
          "type": "uint256"
        },
        {
          "indexed": false,
          "internalType": "uint256",
          "name": "triggerPrice",
          "type": "uint256"
        },
        {
          "indexed": false,
          "internalType": "bool",
          "name": "isAbove",
          "type": "bool"
        }
      ],
      "name": "StopLossOrderCreated",
      "type": "event"
    },
    {
      "anonymous": false,
      "inputs": [
        {
          "indexed": true,
          "internalType": "address",
          "name": "user",
          "type": "address"
        },
        {
          "indexed": false,
          "internalType": "address",
          "name": "tokenIn",
          "type": "address"
        },
        {
          "indexed": false,
          "internalType": "address",
          "name": "tokenOut",
          "type": "address"
        },
        {
          "indexed": false,
          "internalType": "uint256",
          "name": "amountIn",
          "type": "uint256"
        },
        {
          "indexed": false,
          "internalType": "uint256",
          "name": "amountOut",
          "type": "uint256"
        },
        {
          "indexed": false,
          "internalType": "uint256",
          "name": "fee",
          "type": "uint256"
        }
      ],
      "name": "SwapExecuted",
      "type": "event"
    },
    {
      "anonymous": false,
      "inputs": [
        {
          "indexed": true,
          "internalType": "uint256",
          "name": "orderId",
          "type": "uint256"
        },
        {
          "indexed": true,
          "internalType": "address",
          "name": "maker",
          "type": "address"
        },
        {
          "indexed": false,
          "internalType": "address",
          "name": "tokenIn",
          "type": "address"
        },
        {
          "indexed": false,
          "internalType": "address",
          "name": "tokenOut",
          "type": "address"
        },
        {
          "indexed": false,
          "internalType": "uint256",
          "name": "amountIn",
          "type": "uint256"
        },
        {
          "indexed": false,
          "internalType": "uint256",
          "name": "triggerPrice",
          "type": "uint256"
        },
        {
          "indexed": false,
          "internalType": "bool",
          "name": "isAbove",
          "type": "bool"
        }
      ],
      "name": "TakeProfitOrderCreated",
      "type": "event"
    },
    {
      "anonymous": false,
      "inputs": [
        {
          "indexed": true,
          "internalType": "address",
          "name": "implementation",
          "type": "address"
        }
      ],
      "name": "Upgraded",
      "type": "event"
    },
    {
      "inputs": [],
      "name": "UPGRADE_INTERFACE_VERSION",
      "outputs": [
        {
          "internalType": "string",
          "name": "",
          "type": "string"
        }
      ],
      "stateMutability": "view",
      "type": "function"
    },
    {
      "inputs": [
        {
          "internalType": "uint256",
          "name": "_poolId",
          "type": "uint256"
        },
        {
          "internalType": "uint256",
          "name": "_amountA",
          "type": "uint256"
        },
        {
          "internalType": "uint256",
          "name": "_amountB",
          "type": "uint256"
        }
      ],
      "name": "addLiquidity",
      "outputs": [
        {
          "internalType": "uint256",
          "name": "",
          "type": "uint256"
        }
      ],
      "stateMutability": "nonpayable",
      "type": "function"
    },
    {
      "inputs": [
        {
          "internalType": "address",
          "name": "_token",
          "type": "address"
        }
      ],
      "name": "addSupportedToken",
      "outputs": [],
      "stateMutability": "nonpayable",
      "type": "function"
    },
    {
      "inputs": [
        {
          "internalType": "uint256",
          "name": "_orderId",
          "type": "uint256"
        }
      ],
      "name": "cancelOrder",
      "outputs": [],
      "stateMutability": "nonpayable",
      "type": "function"
    },
    {
      "inputs": [
        {
          "internalType": "address",
          "name": "tokenA",
          "type": "address"
        },
        {
          "internalType": "address",
          "name": "tokenB",
          "type": "address"
        },
        {
          "internalType": "uint256",
          "name": "currentPrice",
          "type": "uint256"
        }
      ],
      "name": "checkAndExecuteOrders",
      "outputs": [],
      "stateMutability": "nonpayable",
      "type": "function"
    },
    {
      "inputs": [
        {
          "internalType": "uint256",
          "name": "_positionId",
          "type": "uint256"
        }
      ],
      "name": "claimLiquidityRewards",
      "outputs": [],
      "stateMutability": "nonpayable",
      "type": "function"
    },
    {
      "inputs": [
        {
          "internalType": "address",
          "name": "_tokenA",
          "type": "address"
        },
        {
          "internalType": "address",
          "name": "_tokenB",
          "type": "address"
        },
        {
          "internalType": "uint256",
          "name": "_fee",
          "type": "uint256"
        }
      ],
      "name": "createLiquidityPool",
      "outputs": [
        {
          "internalType": "uint256",
          "name": "",
          "type": "uint256"
        }
      ],
      "stateMutability": "nonpayable",
      "type": "function"
    },
    {
      "inputs": [
        {
          "internalType": "address",
          "name": "tokenIn",
          "type": "address"
        },
        {
          "internalType": "address",
          "name": "tokenOut",
          "type": "address"
        },
        {
          "internalType": "uint256",
          "name": "amountIn",
          "type": "uint256"
        },
        {
          "internalType": "uint256",
          "name": "triggerPrice",
          "type": "uint256"
        },
        {
          "internalType": "bool",
          "name": "isAbove",
          "type": "bool"
        },
        {
          "internalType": "uint256",
          "name": "expiry",
          "type": "uint256"
        }
      ],
      "name": "createStopLossOrder",
      "outputs": [
        {
          "internalType": "uint256",
          "name": "",
          "type": "uint256"
        }
      ],
      "stateMutability": "nonpayable",
      "type": "function"
    },
    {
      "inputs": [
        {
          "internalType": "address",
          "name": "tokenIn",
          "type": "address"
        },
        {
          "internalType": "address",
          "name": "tokenOut",
          "type": "address"
        },
        {
          "internalType": "uint256",
          "name": "amountIn",
          "type": "uint256"
        },
        {
          "internalType": "uint256",
          "name": "triggerPrice",
          "type": "uint256"
        },
        {
          "internalType": "bool",
          "name": "isAbove",
          "type": "bool"
        },
        {
          "internalType": "uint256",
          "name": "expiry",
          "type": "uint256"
        }
      ],
      "name": "createTakeProfitOrder",
      "outputs": [
        {
          "internalType": "uint256",
          "name": "",
          "type": "uint256"
        }
      ],
      "stateMutability": "nonpayable",
      "type": "function"
    },
    {
      "inputs": [
        {
          "internalType": "address",
          "name": "token",
          "type": "address"
        },
        {
          "internalType": "uint256",
          "name": "amount",
          "type": "uint256"
        },
        {
          "internalType": "uint256",
          "name": "fee",
          "type": "uint256"
        },
        {
          "internalType": "address",
          "name": "initiator",
          "type": "address"
        },
        {
          "internalType": "bytes",
          "name": "params",
          "type": "bytes"
        }
      ],
      "name": "executeOperation",
      "outputs": [
        {
          "internalType": "bool",
          "name": "",
          "type": "bool"
        }
      ],
      "stateMutability": "nonpayable",
      "type": "function"
    },
    {
      "inputs": [
        {
          "internalType": "uint256",
          "name": "_orderId",
          "type": "uint256"
        },
        {
          "internalType": "uint256",
          "name": "_fillAmount",
          "type": "uint256"
        }
      ],
      "name": "fillOrder",
      "outputs": [],
      "stateMutability": "nonpayable",
      "type": "function"
    },
    {
      "inputs": [
        {
          "internalType": "uint256",
          "name": "_poolId",
          "type": "uint256"
        },
        {
          "internalType": "address",
          "name": "_token",
          "type": "address"
        },
        {
          "internalType": "uint256",
          "name": "_amount",
          "type": "uint256"
        },
        {
          "internalType": "bytes",
          "name": "_params",
          "type": "bytes"
        }
      ],
      "name": "flashLoan",
      "outputs": [],
      "stateMutability": "nonpayable",
      "type": "function"
    },
    {
      "inputs": [
        {
          "internalType": "address",
          "name": "token",
          "type": "address"
        },
        {
          "internalType": "uint256",
          "name": "amount",
          "type": "uint256"
        },
        {
          "internalType": "bytes",
          "name": "params",
          "type": "bytes"
        }
      ],
      "name": "flashLoan",
      "outputs": [],
      "stateMutability": "nonpayable",
      "type": "function"
    },
    {
      "inputs": [],
      "name": "flashLoanFee",
      "outputs": [
        {
          "internalType": "uint256",
          "name": "",
          "type": "uint256"
        }
      ],
      "stateMutability": "view",
      "type": "function"
    },
    {
      "inputs": [
        {
          "internalType": "uint256",
          "name": "_poolId",
          "type": "uint256"
        },
        {
          "internalType": "address",
          "name": "_tokenIn",
          "type": "address"
        },
        {
          "internalType": "uint256",
          "name": "_amountIn",
          "type": "uint256"
        }
      ],
      "name": "getExpectedSwapAmount",
      "outputs": [
        {
          "internalType": "uint256",
          "name": "",
          "type": "uint256"
        }
      ],
      "stateMutability": "view",
      "type": "function"
    },
    {
      "inputs": [
        {
          "internalType": "uint256",
          "name": "_poolId",
          "type": "uint256"
        }
      ],
      "name": "getLiquidityPool",
      "outputs": [
        {
          "components": [
            {
              "internalType": "address",
              "name": "tokenA",
              "type": "address"
            },
            {
              "internalType": "address",
              "name": "tokenB",
              "type": "address"
            },
            {
              "internalType": "uint256",
              "name": "reserveA",
              "type": "uint256"
            },
            {
              "internalType": "uint256",
              "name": "reserveB",
              "type": "uint256"
            },
            {
              "internalType": "uint256",
              "name": "totalLiquidity",
              "type": "uint256"
            },
            {
              "internalType": "uint256",
              "name": "fee",
              "type": "uint256"
            },
            {
              "internalType": "bool",
              "name": "active",
              "type": "bool"
            }
          ],
          "internalType": "struct AgriDEX.LiquidityPool",
          "name": "",
          "type": "tuple"
        }
      ],
      "stateMutability": "view",
      "type": "function"
    },
    {
      "inputs": [
        {
          "internalType": "uint256",
          "name": "_positionId",
          "type": "uint256"
        }
      ],
      "name": "getLiquidityPosition",
      "outputs": [
        {
          "components": [
            {
              "internalType": "uint256",
              "name": "poolId",
              "type": "uint256"
            },
            {
              "internalType": "address",
              "name": "provider",
              "type": "address"
            },
            {
              "internalType": "uint256",
              "name": "liquidityAmount",
              "type": "uint256"
            },
            {
              "internalType": "uint256",
              "name": "tokenAAmount",
              "type": "uint256"
            },
            {
              "internalType": "uint256",
              "name": "tokenBAmount",
              "type": "uint256"
            },
            {
              "internalType": "uint256",
              "name": "rewards",
              "type": "uint256"
            }
          ],
          "internalType": "struct AgriDEX.LiquidityPosition",
          "name": "",
          "type": "tuple"
        }
      ],
      "stateMutability": "view",
      "type": "function"
    },
    {
      "inputs": [
        {
          "internalType": "uint256",
          "name": "_orderId",
          "type": "uint256"
        }
      ],
      "name": "getOrder",
      "outputs": [
        {
          "components": [
            {
              "internalType": "uint256",
              "name": "id",
              "type": "uint256"
            },
            {
              "internalType": "address",
              "name": "maker",
              "type": "address"
            },
            {
              "internalType": "address",
              "name": "tokenIn",
              "type": "address"
            },
            {
              "internalType": "address",
              "name": "tokenOut",
              "type": "address"
            },
            {
              "internalType": "uint256",
              "name": "amountIn",
              "type": "uint256"
            },
            {
              "internalType": "uint256",
              "name": "amountOut",
              "type": "uint256"
            },
            {
              "internalType": "uint256",
              "name": "filledAmount",
              "type": "uint256"
            },
            {
              "internalType": "uint256",
              "name": "price",
              "type": "uint256"
            },
            {
              "internalType": "uint256",
              "name": "expiry",
              "type": "uint256"
            },
            {
              "internalType": "bool",
              "name": "active",
              "type": "bool"
            },
            {
              "internalType": "enum AgriDEX.OrderType",
              "name": "orderType",
              "type": "uint8"
            }
          ],
          "internalType": "struct AgriDEX.Order",
          "name": "",
          "type": "tuple"
        }
      ],
      "stateMutability": "view",
      "type": "function"
    },
    {
      "inputs": [
        {
          "internalType": "address",
          "name": "_tokenA",
          "type": "address"
        },
        {
          "internalType": "address",
          "name": "_tokenB",
          "type": "address"
        }
      ],
      "name": "getPoolId",
      "outputs": [
        {
          "internalType": "uint256",
          "name": "",
          "type": "uint256"
        }
      ],
      "stateMutability": "view",
      "type": "function"
    },
    {
      "inputs": [
        {
          "internalType": "address",
          "name": "_user",
          "type": "address"
        }
      ],
      "name": "getUserOrders",
      "outputs": [
        {
          "internalType": "uint256[]",
          "name": "",
          "type": "uint256[]"
        }
      ],
      "stateMutability": "view",
      "type": "function"
    },
    {
      "inputs": [
        {
          "internalType": "address",
          "name": "_user",
          "type": "address"
        }
      ],
      "name": "getUserPositions",
      "outputs": [
        {
          "internalType": "uint256[]",
          "name": "",
          "type": "uint256[]"
        }
      ],
      "stateMutability": "view",
      "type": "function"
    },
    {
      "inputs": [],
      "name": "initialize",
      "outputs": [],
      "stateMutability": "nonpayable",
      "type": "function"
    },
    {
      "inputs": [
        {
          "internalType": "uint256",
          "name": "",
          "type": "uint256"
        }
      ],
      "name": "liquidityPools",
      "outputs": [
        {
          "internalType": "address",
          "name": "tokenA",
          "type": "address"
        },
        {
          "internalType": "address",
          "name": "tokenB",
          "type": "address"
        },
        {
          "internalType": "uint256",
          "name": "reserveA",
          "type": "uint256"
        },
        {
          "internalType": "uint256",
          "name": "reserveB",
          "type": "uint256"
        },
        {
          "internalType": "uint256",
          "name": "totalLiquidity",
          "type": "uint256"
        },
        {
          "internalType": "uint256",
          "name": "fee",
          "type": "uint256"
        },
        {
          "internalType": "bool",
          "name": "active",
          "type": "bool"
        }
      ],
      "stateMutability": "view",
      "type": "function"
    },
    {
      "inputs": [
        {
          "internalType": "uint256",
          "name": "",
          "type": "uint256"
        }
      ],
      "name": "liquidityPositions",
      "outputs": [
        {
          "internalType": "uint256",
          "name": "poolId",
          "type": "uint256"
        },
        {
          "internalType": "address",
          "name": "provider",
          "type": "address"
        },
        {
          "internalType": "uint256",
          "name": "liquidityAmount",
          "type": "uint256"
        },
        {
          "internalType": "uint256",
          "name": "tokenAAmount",
          "type": "uint256"
        },
        {
          "internalType": "uint256",
          "name": "tokenBAmount",
          "type": "uint256"
        },
        {
          "internalType": "uint256",
          "name": "rewards",
          "type": "uint256"
        }
      ],
      "stateMutability": "view",
      "type": "function"
    },
    {
      "inputs": [],
      "name": "maxSlippage",
      "outputs": [
        {
          "internalType": "uint256",
          "name": "",
          "type": "uint256"
        }
      ],
      "stateMutability": "view",
      "type": "function"
    },
    {
      "inputs": [],
      "name": "nextOrderId",
      "outputs": [
        {
          "internalType": "uint256",
          "name": "",
          "type": "uint256"
        }
      ],
      "stateMutability": "view",
      "type": "function"
    },
    {
      "inputs": [],
      "name": "nextPoolId",
      "outputs": [
        {
          "internalType": "uint256",
          "name": "",
          "type": "uint256"
        }
      ],
      "stateMutability": "view",
      "type": "function"
    },
    {
      "inputs": [],
      "name": "nextPositionId",
      "outputs": [
        {
          "internalType": "uint256",
          "name": "",
          "type": "uint256"
        }
      ],
      "stateMutability": "view",
      "type": "function"
    },
    {
      "inputs": [],
      "name": "orderCount",
      "outputs": [
        {
          "internalType": "uint256",
          "name": "",
          "type": "uint256"
        }
      ],
      "stateMutability": "view",
      "type": "function"
    },
    {
      "inputs": [],
      "name": "orderExpiry",
      "outputs": [
        {
          "internalType": "uint256",
          "name": "",
          "type": "uint256"
        }
      ],
      "stateMutability": "view",
      "type": "function"
    },
    {
      "inputs": [
        {
          "internalType": "uint256",
          "name": "",
          "type": "uint256"
        }
      ],
      "name": "orders",
      "outputs": [
        {
          "internalType": "uint256",
          "name": "id",
          "type": "uint256"
        },
        {
          "internalType": "address",
          "name": "maker",
          "type": "address"
        },
        {
          "internalType": "address",
          "name": "tokenIn",
          "type": "address"
        },
        {
          "internalType": "address",
          "name": "tokenOut",
          "type": "address"
        },
        {
          "internalType": "uint256",
          "name": "amountIn",
          "type": "uint256"
        },
        {
          "internalType": "uint256",
          "name": "amountOut",
          "type": "uint256"
        },
        {
          "internalType": "uint256",
          "name": "filledAmount",
          "type": "uint256"
        },
        {
          "internalType": "uint256",
          "name": "price",
          "type": "uint256"
        },
        {
          "internalType": "uint256",
          "name": "expiry",
          "type": "uint256"
        },
        {
          "internalType": "bool",
          "name": "active",
          "type": "bool"
        },
        {
          "internalType": "enum AgriDEX.OrderType",
          "name": "orderType",
          "type": "uint8"
        }
      ],
      "stateMutability": "view",
      "type": "function"
    },
    {
      "inputs": [],
      "name": "owner",
      "outputs": [
        {
          "internalType": "address",
          "name": "",
          "type": "address"
        }
      ],
      "stateMutability": "view",
      "type": "function"
    },
    {
      "inputs": [
        {
          "internalType": "uint256",
          "name": "_poolId",
          "type": "uint256"
        }
      ],
      "name": "pausePool",
      "outputs": [],
      "stateMutability": "nonpayable",
      "type": "function"
    },
    {
      "inputs": [
        {
          "internalType": "address",
          "name": "_tokenIn",
          "type": "address"
        },
        {
          "internalType": "address",
          "name": "_tokenOut",
          "type": "address"
        },
        {
          "internalType": "uint256",
          "name": "_amountIn",
          "type": "uint256"
        },
        {
          "internalType": "uint256",
          "name": "_amountOut",
          "type": "uint256"
        },
        {
          "internalType": "uint256",
          "name": "_price",
          "type": "uint256"
        }
      ],
      "name": "placeLimitOrder",
      "outputs": [
        {
          "internalType": "uint256",
          "name": "",
          "type": "uint256"
        }
      ],
      "stateMutability": "nonpayable",
      "type": "function"
    },
    {
      "inputs": [
        {
          "internalType": "bytes32",
          "name": "",
          "type": "bytes32"
        }
      ],
      "name": "poolIds",
      "outputs": [
        {
          "internalType": "uint256",
          "name": "",
          "type": "uint256"
        }
      ],
      "stateMutability": "view",
      "type": "function"
    },
    {
      "inputs": [],
      "name": "proxiableUUID",
      "outputs": [
        {
          "internalType": "bytes32",
          "name": "",
          "type": "bytes32"
        }
      ],
      "stateMutability": "view",
      "type": "function"
    },
    {
      "inputs": [
        {
          "internalType": "uint256",
          "name": "_positionId",
          "type": "uint256"
        }
      ],
      "name": "removeLiquidity",
      "outputs": [],
      "stateMutability": "nonpayable",
      "type": "function"
    },
    {
      "inputs": [
        {
          "internalType": "address",
          "name": "_token",
          "type": "address"
        }
      ],
      "name": "removeSupportedToken",
      "outputs": [],
      "stateMutability": "nonpayable",
      "type": "function"
    },
    {
      "inputs": [],
      "name": "renounceOwnership",
      "outputs": [],
      "stateMutability": "nonpayable",
      "type": "function"
    },
    {
      "inputs": [],
      "name": "rewardRate",
      "outputs": [
        {
          "internalType": "uint256",
          "name": "",
          "type": "uint256"
        }
      ],
      "stateMutability": "view",
      "type": "function"
    },
    {
      "inputs": [
        {
          "internalType": "uint256",
          "name": "_fee",
          "type": "uint256"
        }
      ],
      "name": "setFlashLoanFee",
      "outputs": [],
      "stateMutability": "nonpayable",
      "type": "function"
    },
    {
      "inputs": [
        {
          "internalType": "uint256",
          "name": "_slippage",
          "type": "uint256"
        }
      ],
      "name": "setMaxSlippage",
      "outputs": [],
      "stateMutability": "nonpayable",
      "type": "function"
    },
    {
      "inputs": [
        {
          "internalType": "uint256",
          "name": "_expiry",
          "type": "uint256"
        }
      ],
      "name": "setOrderExpiry",
      "outputs": [],
      "stateMutability": "nonpayable",
      "type": "function"
    },
    {
      "inputs": [
        {
          "internalType": "uint256",
          "name": "_rate",
          "type": "uint256"
        }
      ],
      "name": "setRewardRate",
      "outputs": [],
      "stateMutability": "nonpayable",
      "type": "function"
    },
    {
      "inputs": [
        {
          "internalType": "uint256",
          "name": "_fee",
          "type": "uint256"
        }
      ],
      "name": "setTradingFee",
      "outputs": [],
      "stateMutability": "nonpayable",
      "type": "function"
    },
    {
      "inputs": [
        {
          "internalType": "uint256",
          "name": "",
          "type": "uint256"
        }
      ],
      "name": "stopLossOrders",
      "outputs": [
        {
          "internalType": "uint256",
          "name": "orderId",
          "type": "uint256"
        },
        {
          "internalType": "uint256",
          "name": "triggerPrice",
          "type": "uint256"
        },
        {
          "internalType": "bool",
          "name": "isAbove",
          "type": "bool"
        }
      ],
      "stateMutability": "view",
      "type": "function"
    },
    {
      "inputs": [
        {
          "internalType": "address",
          "name": "",
          "type": "address"
        }
      ],
      "name": "supportedTokens",
      "outputs": [
        {
          "internalType": "bool",
          "name": "",
          "type": "bool"
        }
      ],
      "stateMutability": "view",
      "type": "function"
    },
    {
      "inputs": [
        {
          "internalType": "uint256",
          "name": "_poolId",
          "type": "uint256"
        },
        {
          "internalType": "address",
          "name": "_tokenIn",
          "type": "address"
        },
        {
          "internalType": "uint256",
          "name": "_amountIn",
          "type": "uint256"
        },
        {
          "internalType": "uint256",
          "name": "_minAmountOut",
          "type": "uint256"
        }
      ],
      "name": "swap",
      "outputs": [
        {
          "internalType": "uint256",
          "name": "",
          "type": "uint256"
        }
      ],
      "stateMutability": "nonpayable",
      "type": "function"
    },
    {
      "inputs": [
        {
          "internalType": "uint256",
          "name": "",
          "type": "uint256"
        }
      ],
      "name": "takeProfitOrders",
      "outputs": [
        {
          "internalType": "uint256",
          "name": "orderId",
          "type": "uint256"
        },
        {
          "internalType": "uint256",
          "name": "triggerPrice",
          "type": "uint256"
        },
        {
          "internalType": "bool",
          "name": "isAbove",
          "type": "bool"
        }
      ],
      "stateMutability": "view",
      "type": "function"
    },
    {
      "inputs": [],
      "name": "totalRewardsDistributed",
      "outputs": [
        {
          "internalType": "uint256",
          "name": "",
          "type": "uint256"
        }
      ],
      "stateMutability": "view",
      "type": "function"
    },
    {
      "inputs": [],
      "name": "tradingFee",
      "outputs": [
        {
          "internalType": "uint256",
          "name": "",
          "type": "uint256"
        }
      ],
      "stateMutability": "view",
      "type": "function"
    },
    {
      "inputs": [
        {
          "internalType": "address",
          "name": "newOwner",
          "type": "address"
        }
      ],
      "name": "transferOwnership",
      "outputs": [],
      "stateMutability": "nonpayable",
      "type": "function"
    },
    {
      "inputs": [
        {
          "internalType": "uint256",
          "name": "_poolId",
          "type": "uint256"
        }
      ],
      "name": "unpausePool",
      "outputs": [],
      "stateMutability": "nonpayable",
      "type": "function"
    },
    {
      "inputs": [
        {
          "internalType": "address",
          "name": "newImplementation",
          "type": "address"
        },
        {
          "internalType": "bytes",
          "name": "data",
          "type": "bytes"
        }
      ],
      "name": "upgradeToAndCall",
      "outputs": [],
      "stateMutability": "payable",
      "type": "function"
    },
    {
      "inputs": [
        {
          "internalType": "address",
          "name": "",
          "type": "address"
        },
        {
          "internalType": "uint256",
          "name": "",
          "type": "uint256"
        }
      ],
      "name": "userOrders",
      "outputs": [
        {
          "internalType": "uint256",
          "name": "",
          "type": "uint256"
        }
      ],
      "stateMutability": "view",
      "type": "function"
    },
    {
      "inputs": [
        {
          "internalType": "address",
          "name": "",
          "type": "address"
        },
        {
          "internalType": "uint256",
          "name": "",
          "type": "uint256"
        }
      ],
      "name": "userPositions",
      "outputs": [
        {
          "internalType": "uint256",
          "name": "",
          "type": "uint256"
        }
      ],
      "stateMutability": "view",
      "type": "function"
    }
  ],
  "bytecode": "0x60a08060405234604e57306080526001805560016004556001600655601e600d556101f4600e5562278d00600f556064601055613fed908161005482396080518181816120cf01526122930152f35b600080fdfe608080604052600436101561001357600080fd5b60003560e01c90816318e5613114612d4e575080631b11d0ff14612cfe5780631d5db04614612c275780631de23c07146129345780632453ffa81461291657806326ea9207146128215780632a58b330146128035780632a6bc2dd1461278c5780632ef61c211461274a578063422f10431461253757806343f68a49146125165780634847cdc8146124f85780634f1ef28614612255578063514fcac71461214957806352d1902d146120b457806356f43352146120965780635e1b4d991461204e5780635e8ead771461201757806363c69f0814611f9457806368c4ac2614611f555780636d69fcaf14611f10578063715018a614611e775780637631919014611e3557806378278e1414611ba457806379d747be14611b205780637b0a47ee14611b025780638129fc1c14611919578063856652e9146118c2578063899346c7146118a45780638c04166f146118865780638da5cb5b14611840578063965f1411146118145780639c8f9f23146116d35780639e447fc6146116b2578063a084df1314611557578063a74498aa14611457578063a85c38ef14611392578063ac75886f14611326578063ad3cb1cc146112c7578063b0d54bcf14611298578063b13ae8041461125e578063b33daea914611230578063bf6517f814610ffa578063c37dfc5b14610e35578063c525e49e14610e03578063d09ef24114610c67578063d6a2d96f146109da578063e0232b42146106b0578063e656b3151461068f578063e75301e51461063b578063e7832793146103a4578063e92d0d5d1461034b578063e9c6b6ae146102f3578063ee172546146102d5578063f2fde38b146102aa5763fe85d10d1461028757600080fd5b346102a55760003660031901126102a5576020600f54604051908152f35b600080fd5b346102a55760203660031901126102a5576102d36102c6612d69565b6102ce613c07565b6137bd565b005b346102a55760003660031901126102a5576020601154604051908152f35b346102a55760203660031901126102a557600435600052600a6020526040600020805461034760ff600260018501549401541660405193849384919260409194936060840195845260208401521515910152565b0390f35b346102a55760203660031901126102a5577f7b27910bf1045a08f535a054665467f907c1d72dfc6bff5a08ace57dbcec653f602060043561038a613c07565b61039760648211156132df565b80600955604051908152a1005b346102a55760a03660031901126102a5576103bd612d69565b6103c5612d95565b90604435906001600160a01b03606435916103de61387c565b169081600052601260205260ff6040600020541680610619575b61040190613294565b82151580610610575b610413906131a8565b61041f83303385613a74565b6001549261042c846131f3565b600155600f5461043c9042613105565b948460405161044a81612e27565b81815260208101973389526040820187815260608301946001600160a01b0316948581526080840187815260a085019089825260c08601926000845260e08701946084358652610100880196875261012088019e8f6001905261014089019960008b526000526000602052604060002098518955516001600160a01b031660018901906001600160a01b031681546001600160a01b031916179055516001600160a01b031660028801906001600160a01b031681546001600160a01b031916179055516001600160a01b031660038701906001600160a01b031681546001600160a01b0319161790555160048601555160058501555160068401555160078301555160088201556009019651151561056e90889060ff801983541691151516179055565b519560048710156105fa5760209661ff0082549160081b169061ff00191617905533600052600786526105a5856040600020613202565b6040519384528584015260408301526060820152817f2da1ae6a26515607ae8c5f62b5490ae88aff22f4be4cb17e94217f06f060c9bc60803393a36001600080516020613f9883398151915255604051908152f35b634e487b7160e01b600052602160045260246000fd5b5080151561040a565b506001600160a01b03841660009081526012602052604090205460ff166103f8565b346102a55760203660031901126102a557600435600052600b6020526040600020805461034760ff600260018501549401541660405193849384919260409194936060840195845260208401521515910152565b346102a55760203660031901126102a5576106a8613c07565b600435600f55005b346102a55760603660031901126102a5576106c9612d69565b60243560443567ffffffffffffffff81116102a5576106ec903690600401612dab565b916106f561387c565b6001600160a01b03841680600052601260205260ff6040600020541615610996576107218215156135e7565b604051936370a0823160e01b8552306004860152602085602481855afa9485156108e05760009561095f575b5061075a8386101561306f565b60208160c461271061076e600954886130ba565b049661077a8888613105565b506107868733886138d1565b6040519485938492631b11d0ff60e01b84528860048501528960248501528a604485015233606485015260a060848501528160a4850152848401376000838284010152601f801991011681010301816000335af19081156108e057600091610930575b50156108ec576020602491604051928380926370a0823160e01b82523060048301525afa9081156108e05760009161088e575b506108539061084c847f9d0d497e678f62d6b162c97b9724a39f45fe674650dcd4a5e88ff6317e63764f96613105565b1115613112565b604080516001600160a01b0390951685526020850191909152830152339180606081015b0390a26001600080516020613f9883398151915255005b90506020813d6020116108d8575b816108a960209383612e60565b810103126102a557517f9d0d497e678f62d6b162c97b9724a39f45fe674650dcd4a5e88ff6317e63764f61081c565b3d915061089c565b6040513d6000823e3d90fd5b606460405162461bcd60e51b815260206004820152601b60248201527f466c617368206c6f616e20657865637574696f6e206661696c656400000000006044820152fd5b610952915060203d602011610958575b61094a8183612e60565b8101906130ed565b866107e9565b503d610940565b90946020823d60201161098e575b8161097a60209383612e60565b8101031261098b575051938661074d565b80fd5b3d915061096d565b606460405162461bcd60e51b815260206004820152601360248201527f546f6b656e206e6f7420737570706f72746564000000000000000000000000006044820152fd5b346102a5576109e836612fd5565b939094926109f461387c565b6001600160a01b0384169182600052601260205260ff6040600020541680610c45575b610a2090613294565b610a2b8215156135e7565b610a36428711613632565b600c54610a42906131f3565b809681600c5560405190610a5582612e27565b828252602082019533875260408301908152606083016001600160a01b03861681526080840187815260a08501906000825260c08601926000845260e08701948c8652610100880196875261012088019b60018d5261014089019960028b526000526000602052604060002098518955516001600160a01b031660018901906001600160a01b031681546001600160a01b031916179055516001600160a01b031660028801906001600160a01b031681546001600160a01b031916179055516001600160a01b031660038701906001600160a01b031681546001600160a01b03191617905551600486015551600585015551600684015551600783015551600882015560090193511515610b7590859060ff801983541691151516179055565b5160048110156105fa5760209787957f5919aef2591c3a63bda0eef8e3b852ab09b8bbd16500a3e7f184527455fda8f195610c289361ff0082549160081b169061ff001916179055610bee604051610bcc81612e44565b888152828c820152831515604082015288600052600a8c52604060002061367d565b6040519485943399869390959491926001600160a01b036080948160a0880199168752166020860152604085015260608401521515910152565b0390a36001600080516020613f9883398151915255604051908152f35b506001600160a01b03811660009081526012602052604090205460ff16610a17565b346102a55760203660031901126102a5576000610140604051610c8981612e27565b8281528260208201528260408201528260608201528260808201528260a08201528260c08201528260e0820152826101008201528261012082015201526004356000526000602052604060002060405190610ce382612e27565b805482526001600160a01b0360018201541690602083019182526001600160a01b0360028201541690604084019182526001600160a01b0360038201541660608501908152600482015460808601908152600583015460a0870190815260068401549160c0880192835260078501549360e0890194855260096008870154966101008b0197885201549660ff6101208b019881811615158a5260081c16986101408b019960048110156105fa578a526040519a518b52516001600160a01b031660208b0152516001600160a01b031660408a0152516001600160a01b031660608901525160808801525160a08701525160c08601525160e085015251610100840152511515610120830152516101408201610dfd91612f87565b61016090f35b346102a55760603660031901126102a5576020610e2d610e21612d95565b604435906004356136ac565b604051908152f35b346102a55760403660031901126102a557602435600435610e5461387c565b80600052600060205260406000206009810190610e7460ff83541661323c565b60088101544211610fb6576004810180546006830192610e95845483613287565b8711610f7257610eb5610f0d92610eb060058401548a6130ba565b6130cd565b906001600160a01b03600181610eda612710610ed3600d54886130ba565b0486613287565b94610ef060038601918383541630903390613a74565b610f018c33846002890154166138d1565b541692015416906138d1565b610f18858354613105565b809255541115610f64575b506040519182527f1e7abafb1a786c4e6394b5c494f50a97e3802ff2ce462eca4fe6a2dd4e1f92e860203393a36001600080516020613f9883398151915255005b805460ff1916905582610f23565b606460405162461bcd60e51b815260206004820152601460248201527f46696c6c20616d6f756e7420746f6f20686967680000000000000000000000006044820152fd5b606460405162461bcd60e51b815260206004820152600d60248201527f4f726465722065787069726564000000000000000000000000000000000000006044820152fd5b346102a55761100836612fd5565b9390949261101461387c565b6001600160a01b0384169182600052601260205260ff604060002054168061120e575b61104090613294565b61104b8215156135e7565b611056428711613632565b600c54611062906131f3565b809681600c556040519061107582612e27565b828252602082019533875260408301908152606083016001600160a01b03861681526080840187815260a08501906000825260c08601926000845260e08701948c8652610100880196875261012088019b60018d5261014089019960038b526000526000602052604060002098518955516001600160a01b031660018901906001600160a01b031681546001600160a01b031916179055516001600160a01b031660028801906001600160a01b031681546001600160a01b031916179055516001600160a01b031660038701906001600160a01b031681546001600160a01b0319161790555160048601555160058501555160068401555160078301555160088201556009019351151561119590859060ff801983541691151516179055565b5160048110156105fa5760209787957f317e877d743fe13460312fc290d48f29f2459ec3332bde65718acd6076efcd1895610c289361ff0082549160081b169061ff001916179055610bee6040516111ec81612e44565b888152828c820152831515604082015288600052600b8c52604060002061367d565b506001600160a01b03811660009081526012602052604090205460ff16611037565b346102a55760803660031901126102a5576020610e2d61124e612d95565b6064359060443590600435613357565b346102a55760203660031901126102a557611277613c07565b6004356000908152600260205260409020600601805460ff19166001179055005b346102a55760203660031901126102a5576004356112b4613c07565b6112c26103e88211156132df565b600d55005b346102a55760003660031901126102a55761034760408051906112ea8183612e60565b600582527f352e302e30000000000000000000000000000000000000000000000000000000602083015251918291602083526020830190612f94565b346102a55760203660031901126102a557600435600052600560205260c060406000208054906001600160a01b036001820154169060028101546003820154906005600484015493015493604051958652602086015260408501526060840152608083015260a0820152f35b346102a55760203660031901126102a557600435600052600060205261016060406000206114558154916001600160a01b03600182015416906001600160a01b036002820154166001600160a01b03600383015416600483015460058401549060068501549260078601549460096008880154970154976040519a8b5260208b015260408a01526060890152608088015260a087015260c086015260e085015261010084015260ff8116151561012084015260ff61014084019160081c16612f87565bf35b346102a55760203660031901126102a557600060c060405161147881612e0b565b8281528260208201528260408201528260608201528260808201528260a08201520152600435600052600260205260e060406000206040516114b981612e0b565b6001600160a01b03825416918282526001600160a01b0360018201541660208301908152600282015460408401908152600383015490606085019182526001600160a01b036004850154936080870194855260c060ff600660058901549860a08b01998a5201541697019615158752604051978852511660208701525160408601525160608501525160808401525160a083015251151560c0820152f35b346102a55761156536612f4d565b91505060015b600c5481116116335780600052600060205260ff6009604060002001541680611607575b9061159d916115a2576131f3565b61156b565b80600052600a60205260206115ba604060002061332a565b6040810151156115fd5701518310155b806115e3575b156131f3576115de81613c68565b6131f3565b5080600052600060205260086040600020015442106115d0565b01518311156115ca565b5080600052600060205260ff60096040600020015460081c169060048210156105fa579060021461158f565b5060015b600c5481116102d35780600052600060205260ff6009604060002001541680611686575b906116699161166e576131f3565b611637565b80600052600b60205260206115ba604060002061332a565b5080600052600060205260ff60096040600020015460081c169060048210156105fa579060031461165b565b346102a55760203660031901126102a5576116cb613c07565b600435601055005b346102a55760203660031901126102a5576004356116ef61387c565b8060005260056020526040600020906117166001600160a01b03600184015416331461315d565b8154600052600260205260406000209161173660ff600685015416613024565b6117cc60028201938454906117b860028201928354936117a161175986846130ba565b600486019261179761176d855480946130cd565b98899660038a019361179061178887610eb0885480966130ba565b9c8d94613287565b9055613287565b90558a5490613287565b905560008855336001600160a01b038454166138d1565b6001600160a01b03600133920154166138d1565b54915460405192835260208301527f196a4bf617b45641f176c4e6d288ccf7498f1699f68b1cc1e4daadf92779703b60403393a36001600080516020613f9883398151915255005b346102a55760203660031901126102a55760043560005260036020526020604060002054604051908152f35b346102a55760003660031901126102a55760206001600160a01b037f9016d09d72d40fdae2fd8ceac6b6234c7706214fd39c1cd1e609a0528c1993005416604051908152f35b346102a55760003660031901126102a5576020600e54604051908152f35b346102a55760003660031901126102a5576020600654604051908152f35b346102a55760403660031901126102a5576118db612d69565b6001600160a01b0360243591166000526007602052604060002080548210156102a55760209161190a91612f1f565b90549060031b1c604051908152f35b346102a55760003660031901126102a5577ff0c57e16840df040f15088dc2f81fe391c3923bec73e23a9662efc9c229c6a005460ff8160401c16159067ffffffffffffffff811680159081611afa575b6001149081611af0575b159081611ae7575b50611abd5767ffffffffffffffff1981166001177ff0c57e16840df040f15088dc2f81fe391c3923bec73e23a9662efc9c229c6a005581611a7e575b506119c0613eae565b6119c8613eae565b6119d1336137bd565b6119d9613eae565b6119e1613eae565b6001600080516020613f98833981519152556119fb613eae565b611a0157005b68ff0000000000000000197ff0c57e16840df040f15088dc2f81fe391c3923bec73e23a9662efc9c229c6a0054167ff0c57e16840df040f15088dc2f81fe391c3923bec73e23a9662efc9c229c6a00557fc7f505b2f371ae2175ee4913f4499e1f2633a7b5936321eed1cdaeb6115181d2602060405160018152a1005b68ffffffffffffffffff191668010000000000000001177ff0c57e16840df040f15088dc2f81fe391c3923bec73e23a9662efc9c229c6a0055816119b7565b7ff92ee8a90000000000000000000000000000000000000000000000000000000060005260046000fd5b9050158361197b565b303b159150611973565b839150611969565b346102a55760003660031901126102a5576020601054604051908152f35b346102a55760203660031901126102a557600435600052600260205260e060406000206001600160a01b03815416906001600160a01b03600182015416906002810154600382015460048301549160ff600660058601549501541694604051968752602087015260408601526060850152608084015260a0830152151560c0820152f35b346102a557611bb236612f4d565b611bbd929192613c07565b6001600160a01b0382169182600052601260205260ff6040600020541680611e13575b611be990613294565b6001600160a01b03841693848414611dcf57611c60611c5291611c106103e88611156132df565b60405192839160208301958690916028926bffffffffffffffffffffffff199060601b1682526bffffffffffffffffffffffff199060601b1660148201520190565b03601f198101835282612e60565b51902092836000526003602052604060002054611d8b576040611d6c937fe5b55372f1c8b4f25653cea67c5047f9e8d0e827ee290c181a0e6818e991d5e192602096600454968796611cb1886131f3565b600455600688875192611cc384612e0b565b8784528c8401878152898501600081526060860190600082526001600160a01b0360808801936000855260a0890195865260c08901966001885260005260206002905281808f6000209a5116166001600160a01b03198a541617895551166001600160a01b036001890191166001600160a01b031982541617905551600287015551600386015551600485015551600584015551151591019060ff801983541691151516179055565b60005260038752848360002055825191825286820152a2604051908152f35b606460405162461bcd60e51b815260206004820152601360248201527f506f6f6c20616c726561647920657869737473000000000000000000000000006044820152fd5b606460405162461bcd60e51b815260206004820152600b60248201527f53616d6520746f6b656e730000000000000000000000000000000000000000006044820152fd5b506001600160a01b03841660009081526012602052604090205460ff16611be0565b346102a55760203660031901126102a5576001600160a01b03611e56612d69565b611e5e613c07565b166000908152601260205260409020805460ff19169055005b346102a55760003660031901126102a557611e90613c07565b60006001600160a01b037f9016d09d72d40fdae2fd8ceac6b6234c7706214fd39c1cd1e609a0528c199300546001600160a01b031981167f9016d09d72d40fdae2fd8ceac6b6234c7706214fd39c1cd1e609a0528c19930055167f8be0079c531659141344cd1fd0a4f28419497f9722a3daafe3b4186f6b6457e08280a3005b346102a55760203660031901126102a5576001600160a01b03611f31612d69565b611f39613c07565b166000908152601260205260409020805460ff19166001179055005b346102a55760203660031901126102a5576001600160a01b03611f76612d69565b166000526012602052602060ff604060002054166040519015158152f35b346102a55760203660031901126102a5576001600160a01b03611fb5612d69565b166000526007602052604060002060405190816020825491828152019160005260206000209060005b8181106120015761034785611ff581870382612e60565b60405191829182612ee5565b8254845260209093019260019283019201611fde565b346102a55760203660031901126102a557612030613c07565b6004356000908152600260205260409020600601805460ff19169055005b346102a55760403660031901126102a557612067612d69565b6001600160a01b0360243591166000526008602052604060002080548210156102a55760209161190a91612f1f565b346102a55760003660031901126102a5576020600d54604051908152f35b346102a55760003660031901126102a5576001600160a01b037f000000000000000000000000000000000000000000000000000000000000000016300361211f5760206040517f360894a13ba1a3210667c828492db98dca3e2076cc3735a920a3ca505d382bbc8152f35b7fe07c8dba0000000000000000000000000000000000000000000000000000000060005260046000fd5b346102a55760203660031901126102a55760043561216561387c565b80600052600060205260406000206001600160a01b0360018201541633036122115760098101805461219960ff821661323c565b60ff19169055600481015460068201546121b291613287565b806121f2575b827f61b9399f2f0f32ca39ce8d7be32caed5ec22fe07a6daba3a467ed479ec606582600080a26001600080516020613f9883398151915255005b61220a916001600160a01b03600233920154166138d1565b81806121b8565b606460405162461bcd60e51b815260206004820152600f60248201527f4e6f74206f72646572206d616b657200000000000000000000000000000000006044820152fd5b60403660031901126102a557612269612d69565b60243567ffffffffffffffff81116102a557612289903690600401612e9e565b6001600160a01b037f0000000000000000000000000000000000000000000000000000000000000000168030149081156124c3575b5061211f576122cb613c07565b6001600160a01b038216916040517f52d1902d000000000000000000000000000000000000000000000000000000008152602081600481875afa6000918161248f575b506123285783634c9c8ce360e01b60005260045260246000fd5b807f360894a13ba1a3210667c828492db98dca3e2076cc3735a920a3ca505d382bbc8592036124625750813b1561244e57806001600160a01b03197f360894a13ba1a3210667c828492db98dca3e2076cc3735a920a3ca505d382bbc5416177f360894a13ba1a3210667c828492db98dca3e2076cc3735a920a3ca505d382bbc557fbc7cd75a20ee27fd9adebab32041f755214dbc6bffa90cc0225b39da2e5c2d3b600080a281511561241b576000808360206102d395519101845af43d15612413573d916123f683612e82565b926124046040519485612e60565b83523d6000602085013e613f07565b606091613f07565b50503461242457005b7fb398979f0000000000000000000000000000000000000000000000000000000060005260046000fd5b634c9c8ce360e01b60005260045260246000fd5b7faa1d49a40000000000000000000000000000000000000000000000000000000060005260045260246000fd5b9091506020813d6020116124bb575b816124ab60209383612e60565b810103126102a55751908561230e565b3d915061249e565b90506001600160a01b037f360894a13ba1a3210667c828492db98dca3e2076cc3735a920a3ca505d382bbc54161415836122be565b346102a55760003660031901126102a5576020600954604051908152f35b346102a55760203660031901126102a55761252f613c07565b600435600e55005b346102a55760603660031901126102a5576020602435600435600360443561255d61387c565b8260005260028552604060002061257a60ff600683015416613024565b84151580612741575b61258c906131a8565b6125a4856001600160a01b0383541630903390613a74565b6125bd8230336001600160a01b03600186015416613a74565b61260a600482019182548015600014612701576125e26125dd868a6130ba565b613ace565b9586925b600281016125f58b8254613105565b905501612603868254613105565b9055613105565b905560056006549461261b866131f3565b6006556040519261262b84612dd9565b858452878401913383526040850186815260608601918252608086019283526001600160a01b0360a0870194600086528a600052868c5260406000209751885551166001600160a01b036001880191166001600160a01b03198254161790555160028601555160038501555160048401555191015533600052600884526126b6836040600020613202565b60405191825283820152817f4f523f2d8e587b404d27e399464f42a7ffc415da39a6130a6e0e6d3be912832660403393a36001600080516020613f9883398151915255604051908152f35b61271961270e828a6130ba565b6002840154906130cd565b61273061272683886130ba565b88850154906130cd565b9081808210911802189586926125e6565b50811515612583565b346102a55760403660031901126102a557612763612d69565b611c52612771611c10612d95565b51902060005260036020526020604060002054604051908152f35b346102a55760203660031901126102a5576001600160a01b036127ad612d69565b166000526008602052604060002060405190816020825491828152019160005260206000209060005b8181106127ed5761034785611ff581870382612e60565b82548452602090930192600192830192016127d6565b346102a55760003660031901126102a5576020600154604051908152f35b346102a55760203660031901126102a55760043561283d61387c565b80600052600560205261286c6040600020916128676001600160a01b03600185015416331461315d565b613926565b9081156128d257600501612881828254613105565b905561288f81601154613105565b6011556040519081527ffc30cddea38e2bf4d6ea7d3f9ed3b6ad7f176419f4963bd81318067a4aee73fe60203392a26001600080516020613f9883398151915255005b606460405162461bcd60e51b815260206004820152601360248201527f4e6f207265776172647320746f20636c61696d000000000000000000000000006044820152fd5b346102a55760003660031901126102a5576020600c54604051908152f35b346102a55760803660031901126102a55761294d612d95565b6044359060643567ffffffffffffffff81116102a557612971903690600401612e9e565b61297961387c565b600435600052600260205260406000209261299a60ff600686015416613024565b6001600160a01b038454166001600160a01b03841690811494858015612c11575b15612bcd57604051956370a0823160e01b8752306004880152602087602481865afa9687156108e057600097612b99575b5015612b8c57612a0360028201545b84111561306f565b6009830283810460091484151715612b76576020612710612a65920495612a2b8633876138d1565b60405180938192631b11d0ff60e01b835287600484015288602484015289604484015233606484015260a0608484015260a4830190612f94565b03816000335af180156108e057612b59575b50604051916370a0823160e01b8352306004840152602083602481845afa9283156108e057600093612b21575b50612adc612ad4867f9d0d497e678f62d6b162c97b9724a39f45fe674650dcd4a5e88ff6317e63764f9899613105565b841015613112565b81546001600160a01b031603612b185760020155604080516001600160a01b039095168552602085019190915283015233918060608101610877565b60030155610853565b96926020883d602011612b51575b81612b3c60209383612e60565b8101031261098b575095519195612adc612aa4565b3d9150612b2f565b612b719060203d6020116109585761094a8183612e60565b612a77565b634e487b7160e01b600052601160045260246000fd5b612a0360038201546129fb565b9096506020813d602011612bc5575b81612bb560209383612e60565b810103126102a5575195876129ec565b3d9150612ba8565b606460405162461bcd60e51b815260206004820152601160248201527f546f6b656e206e6f7420696e20706f6f6c0000000000000000000000000000006044820152fd5b506001600160a01b0360018201541682146129bb565b346102a55760203660031901126102a557600060a0604051612c4881612dd9565b8281528260208201528260408201528260608201528260808201520152600435600052600560205260c06040600020604051612c8381612dd9565b8154918282526001600160a01b03600182015416602083019081526002820154604084019081526001600160a01b036003840154926060860193845260a060056004870154966080890197885201549601958652604051968752511660208601525160408501525160608401525160808301525160a0820152f35b346102a55760a03660031901126102a557612d17612d69565b50612d20612d7f565b5060843567ffffffffffffffff81116102a557612d41903690600401612dab565b5050602060405160018152f35b346102a55760003660031901126102a5576020906004548152f35b600435906001600160a01b03821682036102a557565b606435906001600160a01b03821682036102a557565b602435906001600160a01b03821682036102a557565b9181601f840112156102a55782359167ffffffffffffffff83116102a557602083818601950101116102a557565b60c0810190811067ffffffffffffffff821117612df557604052565b634e487b7160e01b600052604160045260246000fd5b60e0810190811067ffffffffffffffff821117612df557604052565b610160810190811067ffffffffffffffff821117612df557604052565b6060810190811067ffffffffffffffff821117612df557604052565b90601f8019910116810190811067ffffffffffffffff821117612df557604052565b67ffffffffffffffff8111612df557601f01601f191660200190565b81601f820112156102a557803590612eb582612e82565b92612ec36040519485612e60565b828452602083830101116102a557816000926020809301838601378301015290565b602060408183019282815284518094520192019060005b818110612f095750505090565b8251845260209384019390920191600101612efc565b8054821015612f375760005260206000200190600090565b634e487b7160e01b600052603260045260246000fd5b60609060031901126102a5576004356001600160a01b03811681036102a557906024356001600160a01b03811681036102a5579060443590565b9060048210156105fa5752565b919082519283825260005b848110612fc0575050826000602080949584010152601f8019910116010190565b80602080928401015182828601015201612f9f565b60c09060031901126102a5576004356001600160a01b03811681036102a557906024356001600160a01b03811681036102a55790604435906064359060843580151581036102a5579060a43590565b1561302b57565b606460405162461bcd60e51b815260206004820152600f60248201527f506f6f6c206e6f742061637469766500000000000000000000000000000000006044820152fd5b1561307657565b606460405162461bcd60e51b815260206004820152601660248201527f496e73756666696369656e74206c6971756964697479000000000000000000006044820152fd5b81810292918115918404141715612b7657565b81156130d7570490565b634e487b7160e01b600052601260045260246000fd5b908160209103126102a5575180151581036102a55790565b91908201809211612b7657565b1561311957565b606460405162461bcd60e51b815260206004820152601560248201527f466c617368206c6f616e206e6f742072657061696400000000000000000000006044820152fd5b1561316457565b606460405162461bcd60e51b815260206004820152601260248201527f4e6f7420706f736974696f6e206f776e657200000000000000000000000000006044820152fd5b156131af57565b606460405162461bcd60e51b815260206004820152600f60248201527f496e76616c696420616d6f756e747300000000000000000000000000000000006044820152fd5b6000198114612b765760010190565b805468010000000000000000811015612df55761322491600182018155612f1f565b819291549060031b91821b91600019901b1916179055565b1561324357565b606460405162461bcd60e51b815260206004820152601060248201527f4f72646572206e6f7420616374697665000000000000000000000000000000006044820152fd5b91908203918211612b7657565b1561329b57565b606460405162461bcd60e51b815260206004820152601460248201527f546f6b656e73206e6f7420737570706f727465640000000000000000000000006044820152fd5b156132e657565b606460405162461bcd60e51b815260206004820152600c60248201527f46656520746f6f206869676800000000000000000000000000000000000000006044820152fd5b9060405161333781612e44565b604060ff6002839580548552600181015460208601520154161515910152565b91909161336261387c565b600052600260205260406000209061338060ff600684015416613024565b6001600160a01b0380835416931692831491828015613586575b6133a39061359c565b60058101908154612710036127108111612b76576133c190846130ba565b8415613579576133d660038301545b826130ba565b851561356f5760028301545b6127108102908082046127101490151715612b765761340a9261340491613105565b906130cd565b95861061352b576127109161348e91851561351e5761343060038201545b89111561306f565b61343c8530338a613a74565b851561350d576001600160a01b03806001830154165b169561345f8933896138d1565b156134e65780600260039201613476878254613105565b905501613484888254613287565b90555b54836130ba565b04916040519384526020840152604083015282606083015260808201527fad671c9d50262b75ba17bdf7e330ae0d7da971800b2526584a85f83d23296b1560a03392a2906001600080516020613f9883398151915255565b806003600292016134f8878254613105565b905501613506888254613287565b9055613487565b6001600160a01b0380825416613452565b6134306002820154613428565b606460405162461bcd60e51b815260206004820152601a60248201527f496e73756666696369656e74206f757470757420616d6f756e740000000000006044820152fd5b60038301546133e2565b6133d660028301546133d0565b5060018101546001600160a01b0316841461339a565b156135a357565b606460405162461bcd60e51b815260206004820152600d60248201527f496e76616c696420746f6b656e000000000000000000000000000000000000006044820152fd5b156135ee57565b606460405162461bcd60e51b815260206004820152601d60248201527f416d6f756e74206d7573742062652067726561746572207468616e20300000006044820152fd5b1561363957565b606460405162461bcd60e51b815260206004820152601860248201527f457870697279206d75737420626520696e2066757475726500000000000000006044820152fd5b600260406136aa9380518455602081015160018501550151151591019060ff801983541691151516179055565b565b6000526002602052604060002090604051926136c784612e0b565b6001600160a01b03835416928385526137496001600160a01b036001830154168060208801526001600160a01b036002840154956040890196875260038501549860608101998a526004860154608082015260c060ff600660058901549860a08501998a5201541615159101521695861490819682156137b3575b505061359c565b51612710036127108111612b7657613760916130ba565b9282156137a95761377381515b856130ba565b92156137a15750515b6127108102908082046127101490151715612b765761379e9261340491613105565b90565b90505161377c565b613773825161376d565b1490503880613742565b6001600160a01b0316801561384d576001600160a01b037f9016d09d72d40fdae2fd8ceac6b6234c7706214fd39c1cd1e609a0528c19930054826001600160a01b03198216177f9016d09d72d40fdae2fd8ceac6b6234c7706214fd39c1cd1e609a0528c19930055167f8be0079c531659141344cd1fd0a4f28419497f9722a3daafe3b4186f6b6457e0600080a3565b7f1e4fbdf700000000000000000000000000000000000000000000000000000000600052600060045260246000fd5b6002600080516020613f9883398151915254146138a7576002600080516020613f9883398151915255565b7f3ee5aeb50000000000000000000000000000000000000000000000000000000060005260046000fd5b6136aa926001600160a01b03604051937fa9059cbb000000000000000000000000000000000000000000000000000000006020860152166024840152604483015260448252613921606483612e60565b613e3d565b600052600560205260406000206040519061394082612dd9565b80548083526001600160a01b03600183015416602084015260a060056002840154936040860194855260038101546060870152600481015460808701520154930192835260005260026020526040600020916040519161399f83612e0b565b6001600160a01b0384541683526001600160a01b036001850154166020840152600284015460408401526003840154606084015260ff600660048601549560808601968752600581015460a0870152015416159260c084159101525191821580918115613a6c575b50613a6357670de0b6b3a76400008302928304670de0b6b3a7640000141715612b7657613a5a613a50613a48613a5f94670de0b6b3a76400009651906130cd565b925142613287565b91601054906130ba565b6130ba565b0490565b50505050600090565b905038613a07565b9091926001600160a01b036136aa9481604051957f23b872dd000000000000000000000000000000000000000000000000000000006020880152166024860152166044840152606483015260648252613921608483612e60565b600181111561379e57806001700100000000000000000000000000000000831015613bf1575b60048268010000000000000000613ba3941015613be4575b640100000000811015613bd7575b62010000811015613bca575b610100811015613bbe575b6010811015613bb2575b1015613baa575b60030260011c613b5281846130cd565b0160011c613b6081846130cd565b0160011c613b6e81846130cd565b0160011c613b7c81846130cd565b0160011c613b8a81846130cd565b0160011c613b9881846130cd565b0160011c80926130cd565b8111900390565b60011b613b42565b811c9160021b91613b3b565b60081c91811b91613b31565b60101c9160081b91613b26565b60201c9160101b91613b1a565b60401c9160201b91613b0c565b5050608081901c68010000000000000000613af4565b6001600160a01b037f9016d09d72d40fdae2fd8ceac6b6234c7706214fd39c1cd1e609a0528c19930054163303613c3a57565b7f118cdaa7000000000000000000000000000000000000000000000000000000006000523360045260246000fd5b80600052600060205260406000209060098201613c8860ff82541661323c565b6001600160a01b03600284015416926001600160a01b036003820154166040516020810190613ced81611c52858a8690916028926bffffffffffffffffffffffff199060601b1682526bffffffffffffffffffffffff199060601b1660148201520190565b5190206000526003602052604060002054908115613ded575b508015613da957806000526002602052613d2a60ff60066040600020015416613024565b6004820190815490613d3d8288836136ac565b91600e5461271003976127108911612b7657612710613d6160069a613d68966130ba565b0492613357565b600583015554938491015560ff1981541690556040519182527f1de597a2060af1b707f0fbb3d6c9b10410cbe89a87379853c48fc098718d593760203393a3565b606460405162461bcd60e51b815260206004820152601c60248201527f4e6f20706f6f6c20666f756e6420666f7220746f6b656e2070616972000000006044820152fd5b6040516bffffffffffffffffffffffff19606092831b8116602083019081529288901b166034820152909150613e268160488101611c52565b519020600052600360205260406000205438613d06565b906000602091828151910182855af1156108e0576000513d613ea557506001600160a01b0381163b155b613e6e5750565b6001600160a01b03907f5274afe7000000000000000000000000000000000000000000000000000000006000521660045260246000fd5b60011415613e67565b60ff7ff0c57e16840df040f15088dc2f81fe391c3923bec73e23a9662efc9c229c6a005460401c1615613edd57565b7fd7e6bcf80000000000000000000000000000000000000000000000000000000060005260046000fd5b90613f465750805115613f1c57602081519101fd5b7fd6bda2750000000000000000000000000000000000000000000000000000000060005260046000fd5b81511580613f8e575b613f57575090565b6001600160a01b03907f9996b315000000000000000000000000000000000000000000000000000000006000521660045260246000fd5b50803b15613f4f56fe9b779b17422d0df92223018b32b4d1fa46e071723d6817e2486d003becc55f00a26469706673582212201175aaa24bbcdbd116249a8c76859641a4368596ef8fb7a456cf9c45c11c6adc64736f6c634300081c0033",
  "linkReferences": {},
  "deployedLinkReferences": {}
}