{
  "_format": "hh-sol-artifact-1",
  "contractName": "AgriDEX",
  "sourceName": "contracts/AgriDEX.sol",
  "abi": [
    {
      "inputs": [
        {
          "internalType": "address",
          "name": "target",
          "type": "address"
        }
      ],
      "name": "AddressEmptyCode",
      "type": "error"
    },
    {
      "inputs": [
        {
          "internalType": "address",
          "name": "implementation",
          "type": "address"
        }
      ],
      "name": "ERC1967InvalidImplementation",
      "type": "error"
    },
    {
      "inputs": [],
      "name": "ERC1967NonPayable",
      "type": "error"
    },
    {
      "inputs": [],
      "name": "FailedCall",
      "type": "error"
    },
    {
      "inputs": [],
      "name": "InvalidInitialization",
      "type": "error"
    },
    {
      "inputs": [],
      "name": "NotInitializing",
      "type": "error"
    },
    {
      "inputs": [
        {
          "internalType": "address",
          "name": "owner",
          "type": "address"
        }
      ],
      "name": "OwnableInvalidOwner",
      "type": "error"
    },
    {
      "inputs": [
        {
          "internalType": "address",
          "name": "account",
          "type": "address"
        }
      ],
      "name": "OwnableUnauthorizedAccount",
      "type": "error"
    },
    {
      "inputs": [],
      "name": "ReentrancyGuardReentrantCall",
      "type": "error"
    },
    {
      "inputs": [
        {
          "internalType": "address",
          "name": "token",
          "type": "address"
        }
      ],
      "name": "SafeERC20FailedOperation",
      "type": "error"
    },
    {
      "inputs": [],
      "name": "UUPSUnauthorizedCallContext",
      "type": "error"
    },
    {
      "inputs": [
        {
          "internalType": "bytes32",
          "name": "slot",
          "type": "bytes32"
        }
      ],
      "name": "UUPSUnsupportedProxiableUUID",
      "type": "error"
    },
    {
      "anonymous": false,
      "inputs": [
        {
          "indexed": true,
          "internalType": "uint256",
          "name": "orderId",
          "type": "uint256"
        },
        {
          "indexed": true,
          "internalType": "address",
          "name": "executor",
          "type": "address"
        },
        {
          "indexed": false,
          "internalType": "uint256",
          "name": "executedAmount",
          "type": "uint256"
        }
      ],
      "name": "AdvancedOrderExecuted",
      "type": "event"
    },
    {
      "anonymous": false,
      "inputs": [
        {
          "indexed": true,
          "internalType": "address",
          "name": "borrower",
          "type": "address"
        },
        {
          "indexed": false,
          "internalType": "address",
          "name": "token",
          "type": "address"
        },
        {
          "indexed": false,
          "internalType": "uint256",
          "name": "amount",
          "type": "uint256"
        },
        {
          "indexed": false,
          "internalType": "uint256",
          "name": "fee",
          "type": "uint256"
        }
      ],
      "name": "FlashLoanExecuted",
      "type": "event"
    },
    {
      "anonymous": false,
      "inputs": [
        {
          "indexed": false,
          "internalType": "uint256",
          "name": "newFee",
          "type": "uint256"
        }
      ],
      "name": "FlashLoanFeeUpdated",
      "type": "event"
    },
    {
      "anonymous": false,
      "inputs": [
        {
          "indexed": false,
          "internalType": "uint64",
          "name": "version",
          "type": "uint64"
        }
      ],
      "name": "Initialized",
      "type": "event"
    },
    {
      "anonymous": false,
      "inputs": [
        {
          "indexed": true,
          "internalType": "uint256",
          "name": "positionId",
          "type": "uint256"
        },
        {
          "indexed": true,
          "internalType": "address",
          "name": "provider",
          "type": "address"
        },
        {
          "indexed": false,
          "internalType": "uint256",
          "name": "poolId",
          "type": "uint256"
        },
        {
          "indexed": false,
          "internalType": "uint256",
          "name": "liquidityAmount",
          "type": "uint256"
        }
      ],
      "name": "LiquidityAdded",
      "type": "event"
    },
    {
      "anonymous": false,
      "inputs": [
        {
          "indexed": true,
          "internalType": "uint256",
          "name": "poolId",
          "type": "uint256"
        },
        {
          "indexed": false,
          "internalType": "address",
          "name": "tokenA",
          "type": "address"
        },
        {
          "indexed": false,
          "internalType": "address",
          "name": "tokenB",
          "type": "address"
        }
      ],
      "name": "LiquidityPoolCreated",
      "type": "event"
    },
    {
      "anonymous": false,
      "inputs": [
        {
          "indexed": true,
          "internalType": "uint256",
          "name": "positionId",
          "type": "uint256"
        },
        {
          "indexed": true,
          "internalType": "address",
          "name": "provider",
          "type": "address"
        },
        {
          "indexed": false,
          "internalType": "uint256",
          "name": "poolId",
          "type": "uint256"
        },
        {
          "indexed": false,
          "internalType": "uint256",
          "name": "liquidityAmount",
          "type": "uint256"
        }
      ],
      "name": "LiquidityRemoved",
      "type": "event"
    },
    {
      "anonymous": false,
      "inputs": [
        {
          "indexed": true,
          "internalType": "uint256",
          "name": "orderId",
          "type": "uint256"
        }
      ],
      "name": "OrderCancelled",
      "type": "event"
    },
    {
      "anonymous": false,
      "inputs": [
        {
          "indexed": true,
          "internalType": "uint256",
          "name": "orderId",
          "type": "uint256"
        },
        {
          "indexed": true,
          "internalType": "address",
          "name": "taker",
          "type": "address"
        },
        {
          "indexed": false,
          "internalType": "uint256",
          "name": "filledAmount",
          "type": "uint256"
        }
      ],
      "name": "OrderFilled",
      "type": "event"
    },
    {
      "anonymous": false,
      "inputs": [
        {
          "indexed": true,
          "internalType": "uint256",
          "name": "orderId",
          "type": "uint256"
        },
        {
          "indexed": true,
          "internalType": "address",
          "name": "maker",
          "type": "address"
        },
        {
          "indexed": false,
          "internalType": "address",
          "name": "tokenIn",
          "type": "address"
        },
        {
          "indexed": false,
          "internalType": "address",
          "name": "tokenOut",
          "type": "address"
        },
        {
          "indexed": false,
          "internalType": "uint256",
          "name": "amountIn",
          "type": "uint256"
        },
        {
          "indexed": false,
          "internalType": "uint256",
          "name": "amountOut",
          "type": "uint256"
        }
      ],
      "name": "OrderPlaced",
      "type": "event"
    },
    {
      "anonymous": false,
      "inputs": [
        {
          "indexed": true,
          "internalType": "address",
          "name": "previousOwner",
          "type": "address"
        },
        {
          "indexed": true,
          "internalType": "address",
          "name": "newOwner",
          "type": "address"
        }
      ],
      "name": "OwnershipTransferred",
      "type": "event"
    },
    {
      "anonymous": false,
      "inputs": [
        {
          "indexed": true,
          "internalType": "address",
          "name": "user",
          "type": "address"
        },
        {
          "indexed": false,
          "internalType": "uint256",
          "name": "amount",
          "type": "uint256"
        }
      ],
      "name": "RewardsClaimed",
      "type": "event"
    },
    {
      "anonymous": false,
      "inputs": [
        {
          "indexed": true,
          "internalType": "uint256",
          "name": "orderId",
          "type": "uint256"
        },
        {
          "indexed": true,
          "internalType": "address",
          "name": "maker",
          "type": "address"
        },
        {
          "indexed": false,
          "internalType": "address",
          "name": "tokenIn",
          "type": "address"
        },
        {
          "indexed": false,
          "internalType": "address",
          "name": "tokenOut",
          "type": "address"
        },
        {
          "indexed": false,
          "internalType": "uint256",
          "name": "amountIn",
          "type": "uint256"
        },
        {
          "indexed": false,
          "internalType": "uint256",
          "name": "triggerPrice",
          "type": "uint256"
        },
        {
          "indexed": false,
          "internalType": "bool",
          "name": "isAbove",
          "type": "bool"
        }
      ],
      "name": "StopLossOrderCreated",
      "type": "event"
    },
    {
      "anonymous": false,
      "inputs": [
        {
          "indexed": true,
          "internalType": "address",
          "name": "user",
          "type": "address"
        },
        {
          "indexed": false,
          "internalType": "address",
          "name": "tokenIn",
          "type": "address"
        },
        {
          "indexed": false,
          "internalType": "address",
          "name": "tokenOut",
          "type": "address"
        },
        {
          "indexed": false,
          "internalType": "uint256",
          "name": "amountIn",
          "type": "uint256"
        },
        {
          "indexed": false,
          "internalType": "uint256",
          "name": "amountOut",
          "type": "uint256"
        },
        {
          "indexed": false,
          "internalType": "uint256",
          "name": "fee",
          "type": "uint256"
        }
      ],
      "name": "SwapExecuted",
      "type": "event"
    },
    {
      "anonymous": false,
      "inputs": [
        {
          "indexed": true,
          "internalType": "uint256",
          "name": "orderId",
          "type": "uint256"
        },
        {
          "indexed": true,
          "internalType": "address",
          "name": "maker",
          "type": "address"
        },
        {
          "indexed": false,
          "internalType": "address",
          "name": "tokenIn",
          "type": "address"
        },
        {
          "indexed": false,
          "internalType": "address",
          "name": "tokenOut",
          "type": "address"
        },
        {
          "indexed": false,
          "internalType": "uint256",
          "name": "amountIn",
          "type": "uint256"
        },
        {
          "indexed": false,
          "internalType": "uint256",
          "name": "triggerPrice",
          "type": "uint256"
        },
        {
          "indexed": false,
          "internalType": "bool",
          "name": "isAbove",
          "type": "bool"
        }
      ],
      "name": "TakeProfitOrderCreated",
      "type": "event"
    },
    {
      "anonymous": false,
      "inputs": [
        {
          "indexed": true,
          "internalType": "address",
          "name": "implementation",
          "type": "address"
        }
      ],
      "name": "Upgraded",
      "type": "event"
    },
    {
      "inputs": [],
      "name": "UPGRADE_INTERFACE_VERSION",
      "outputs": [
        {
          "internalType": "string",
          "name": "",
          "type": "string"
        }
      ],
      "stateMutability": "view",
      "type": "function"
    },
    {
      "inputs": [
        {
          "internalType": "uint256",
          "name": "_poolId",
          "type": "uint256"
        },
        {
          "internalType": "uint256",
          "name": "_amountA",
          "type": "uint256"
        },
        {
          "internalType": "uint256",
          "name": "_amountB",
          "type": "uint256"
        }
      ],
      "name": "addLiquidity",
      "outputs": [
        {
          "internalType": "uint256",
          "name": "",
          "type": "uint256"
        }
      ],
      "stateMutability": "nonpayable",
      "type": "function"
    },
    {
      "inputs": [
        {
          "internalType": "address",
          "name": "_token",
          "type": "address"
        }
      ],
      "name": "addSupportedToken",
      "outputs": [],
      "stateMutability": "nonpayable",
      "type": "function"
    },
    {
      "inputs": [
        {
          "internalType": "uint256",
          "name": "_orderId",
          "type": "uint256"
        }
      ],
      "name": "cancelOrder",
      "outputs": [],
      "stateMutability": "nonpayable",
      "type": "function"
    },
    {
      "inputs": [
        {
          "internalType": "address",
          "name": "tokenA",
          "type": "address"
        },
        {
          "internalType": "address",
          "name": "tokenB",
          "type": "address"
        },
        {
          "internalType": "uint256",
          "name": "currentPrice",
          "type": "uint256"
        }
      ],
      "name": "checkAndExecuteOrders",
      "outputs": [],
      "stateMutability": "nonpayable",
      "type": "function"
    },
    {
      "inputs": [
        {
          "internalType": "uint256",
          "name": "_positionId",
          "type": "uint256"
        }
      ],
      "name": "claimLiquidityRewards",
      "outputs": [],
      "stateMutability": "nonpayable",
      "type": "function"
    },
    {
      "inputs": [
        {
          "internalType": "address",
          "name": "_tokenA",
          "type": "address"
        },
        {
          "internalType": "address",
          "name": "_tokenB",
          "type": "address"
        },
        {
          "internalType": "uint256",
          "name": "_fee",
          "type": "uint256"
        }
      ],
      "name": "createLiquidityPool",
      "outputs": [
        {
          "internalType": "uint256",
          "name": "",
          "type": "uint256"
        }
      ],
      "stateMutability": "nonpayable",
      "type": "function"
    },
    {
      "inputs": [
        {
          "internalType": "address",
          "name": "tokenIn",
          "type": "address"
        },
        {
          "internalType": "address",
          "name": "tokenOut",
          "type": "address"
        },
        {
          "internalType": "uint256",
          "name": "amountIn",
          "type": "uint256"
        },
        {
          "internalType": "uint256",
          "name": "triggerPrice",
          "type": "uint256"
        },
        {
          "internalType": "bool",
          "name": "isAbove",
          "type": "bool"
        },
        {
          "internalType": "uint256",
          "name": "expiry",
          "type": "uint256"
        }
      ],
      "name": "createStopLossOrder",
      "outputs": [
        {
          "internalType": "uint256",
          "name": "",
          "type": "uint256"
        }
      ],
      "stateMutability": "nonpayable",
      "type": "function"
    },
    {
      "inputs": [
        {
          "internalType": "address",
          "name": "tokenIn",
          "type": "address"
        },
        {
          "internalType": "address",
          "name": "tokenOut",
          "type": "address"
        },
        {
          "internalType": "uint256",
          "name": "amountIn",
          "type": "uint256"
        },
        {
          "internalType": "uint256",
          "name": "triggerPrice",
          "type": "uint256"
        },
        {
          "internalType": "bool",
          "name": "isAbove",
          "type": "bool"
        },
        {
          "internalType": "uint256",
          "name": "expiry",
          "type": "uint256"
        }
      ],
      "name": "createTakeProfitOrder",
      "outputs": [
        {
          "internalType": "uint256",
          "name": "",
          "type": "uint256"
        }
      ],
      "stateMutability": "nonpayable",
      "type": "function"
    },
    {
      "inputs": [
        {
          "internalType": "address",
          "name": "token",
          "type": "address"
        },
        {
          "internalType": "uint256",
          "name": "amount",
          "type": "uint256"
        },
        {
          "internalType": "uint256",
          "name": "fee",
          "type": "uint256"
        },
        {
          "internalType": "address",
          "name": "initiator",
          "type": "address"
        },
        {
          "internalType": "bytes",
          "name": "params",
          "type": "bytes"
        }
      ],
      "name": "executeOperation",
      "outputs": [
        {
          "internalType": "bool",
          "name": "",
          "type": "bool"
        }
      ],
      "stateMutability": "nonpayable",
      "type": "function"
    },
    {
      "inputs": [
        {
          "internalType": "uint256",
          "name": "_orderId",
          "type": "uint256"
        },
        {
          "internalType": "uint256",
          "name": "_fillAmount",
          "type": "uint256"
        }
      ],
      "name": "fillOrder",
      "outputs": [],
      "stateMutability": "nonpayable",
      "type": "function"
    },
    {
      "inputs": [
        {
          "internalType": "uint256",
          "name": "_poolId",
          "type": "uint256"
        },
        {
          "internalType": "address",
          "name": "_token",
          "type": "address"
        },
        {
          "internalType": "uint256",
          "name": "_amount",
          "type": "uint256"
        },
        {
          "internalType": "bytes",
          "name": "_params",
          "type": "bytes"
        }
      ],
      "name": "flashLoan",
      "outputs": [],
      "stateMutability": "nonpayable",
      "type": "function"
    },
    {
      "inputs": [
        {
          "internalType": "address",
          "name": "token",
          "type": "address"
        },
        {
          "internalType": "uint256",
          "name": "amount",
          "type": "uint256"
        },
        {
          "internalType": "bytes",
          "name": "params",
          "type": "bytes"
        }
      ],
      "name": "flashLoan",
      "outputs": [],
      "stateMutability": "nonpayable",
      "type": "function"
    },
    {
      "inputs": [],
      "name": "flashLoanFee",
      "outputs": [
        {
          "internalType": "uint256",
          "name": "",
          "type": "uint256"
        }
      ],
      "stateMutability": "view",
      "type": "function"
    },
    {
      "inputs": [
        {
          "internalType": "uint256",
          "name": "_poolId",
          "type": "uint256"
        },
        {
          "internalType": "address",
          "name": "_tokenIn",
          "type": "address"
        },
        {
          "internalType": "uint256",
          "name": "_amountIn",
          "type": "uint256"
        }
      ],
      "name": "getExpectedSwapAmount",
      "outputs": [
        {
          "internalType": "uint256",
          "name": "",
          "type": "uint256"
        }
      ],
      "stateMutability": "view",
      "type": "function"
    },
    {
      "inputs": [
        {
          "internalType": "uint256",
          "name": "_poolId",
          "type": "uint256"
        }
      ],
      "name": "getLiquidityPool",
      "outputs": [
        {
          "components": [
            {
              "internalType": "address",
              "name": "tokenA",
              "type": "address"
            },
            {
              "internalType": "address",
              "name": "tokenB",
              "type": "address"
            },
            {
              "internalType": "uint256",
              "name": "reserveA",
              "type": "uint256"
            },
            {
              "internalType": "uint256",
              "name": "reserveB",
              "type": "uint256"
            },
            {
              "internalType": "uint256",
              "name": "totalLiquidity",
              "type": "uint256"
            },
            {
              "internalType": "uint256",
              "name": "fee",
              "type": "uint256"
            },
            {
              "internalType": "bool",
              "name": "active",
              "type": "bool"
            }
          ],
          "internalType": "struct AgriDEX.LiquidityPool",
          "name": "",
          "type": "tuple"
        }
      ],
      "stateMutability": "view",
      "type": "function"
    },
    {
      "inputs": [
        {
          "internalType": "uint256",
          "name": "_positionId",
          "type": "uint256"
        }
      ],
      "name": "getLiquidityPosition",
      "outputs": [
        {
          "components": [
            {
              "internalType": "uint256",
              "name": "poolId",
              "type": "uint256"
            },
            {
              "internalType": "address",
              "name": "provider",
              "type": "address"
            },
            {
              "internalType": "uint256",
              "name": "liquidityAmount",
              "type": "uint256"
            },
            {
              "internalType": "uint256",
              "name": "tokenAAmount",
              "type": "uint256"
            },
            {
              "internalType": "uint256",
              "name": "tokenBAmount",
              "type": "uint256"
            },
            {
              "internalType": "uint256",
              "name": "rewards",
              "type": "uint256"
            }
          ],
          "internalType": "struct AgriDEX.LiquidityPosition",
          "name": "",
          "type": "tuple"
        }
      ],
      "stateMutability": "view",
      "type": "function"
    },
    {
      "inputs": [
        {
          "internalType": "uint256",
          "name": "_orderId",
          "type": "uint256"
        }
      ],
      "name": "getOrder",
      "outputs": [
        {
          "components": [
            {
              "internalType": "uint256",
              "name": "id",
              "type": "uint256"
            },
            {
              "internalType": "address",
              "name": "maker",
              "type": "address"
            },
            {
              "internalType": "address",
              "name": "tokenIn",
              "type": "address"
            },
            {
              "internalType": "address",
              "name": "tokenOut",
              "type": "address"
            },
            {
              "internalType": "uint256",
              "name": "amountIn",
              "type": "uint256"
            },
            {
              "internalType": "uint256",
              "name": "amountOut",
              "type": "uint256"
            },
            {
              "internalType": "uint256",
              "name": "filledAmount",
              "type": "uint256"
            },
            {
              "internalType": "uint256",
              "name": "price",
              "type": "uint256"
            },
            {
              "internalType": "uint256",
              "name": "expiry",
              "type": "uint256"
            },
            {
              "internalType": "bool",
              "name": "active",
              "type": "bool"
            },
            {
              "internalType": "enum AgriDEX.OrderType",
              "name": "orderType",
              "type": "uint8"
            }
          ],
          "internalType": "struct AgriDEX.Order",
          "name": "",
          "type": "tuple"
        }
      ],
      "stateMutability": "view",
      "type": "function"
    },
    {
      "inputs": [
        {
          "internalType": "address",
          "name": "_tokenA",
          "type": "address"
        },
        {
          "internalType": "address",
          "name": "_tokenB",
          "type": "address"
        }
      ],
      "name": "getPoolId",
      "outputs": [
        {
          "internalType": "uint256",
          "name": "",
          "type": "uint256"
        }
      ],
      "stateMutability": "view",
      "type": "function"
    },
    {
      "inputs": [
        {
          "internalType": "address",
          "name": "_user",
          "type": "address"
        }
      ],
      "name": "getUserOrders",
      "outputs": [
        {
          "internalType": "uint256[]",
          "name": "",
          "type": "uint256[]"
        }
      ],
      "stateMutability": "view",
      "type": "function"
    },
    {
      "inputs": [
        {
          "internalType": "address",
          "name": "_user",
          "type": "address"
        }
      ],
      "name": "getUserPositions",
      "outputs": [
        {
          "internalType": "uint256[]",
          "name": "",
          "type": "uint256[]"
        }
      ],
      "stateMutability": "view",
      "type": "function"
    },
    {
      "inputs": [],
      "name": "initialize",
      "outputs": [],
      "stateMutability": "nonpayable",
      "type": "function"
    },
    {
      "inputs": [
        {
          "internalType": "uint256",
          "name": "",
          "type": "uint256"
        }
      ],
      "name": "liquidityPools",
      "outputs": [
        {
          "internalType": "address",
          "name": "tokenA",
          "type": "address"
        },
        {
          "internalType": "address",
          "name": "tokenB",
          "type": "address"
        },
        {
          "internalType": "uint256",
          "name": "reserveA",
          "type": "uint256"
        },
        {
          "internalType": "uint256",
          "name": "reserveB",
          "type": "uint256"
        },
        {
          "internalType": "uint256",
          "name": "totalLiquidity",
          "type": "uint256"
        },
        {
          "internalType": "uint256",
          "name": "fee",
          "type": "uint256"
        },
        {
          "internalType": "bool",
          "name": "active",
          "type": "bool"
        }
      ],
      "stateMutability": "view",
      "type": "function"
    },
    {
      "inputs": [
        {
          "internalType": "uint256",
          "name": "",
          "type": "uint256"
        }
      ],
      "name": "liquidityPositions",
      "outputs": [
        {
          "internalType": "uint256",
          "name": "poolId",
          "type": "uint256"
        },
        {
          "internalType": "address",
          "name": "provider",
          "type": "address"
        },
        {
          "internalType": "uint256",
          "name": "liquidityAmount",
          "type": "uint256"
        },
        {
          "internalType": "uint256",
          "name": "tokenAAmount",
          "type": "uint256"
        },
        {
          "internalType": "uint256",
          "name": "tokenBAmount",
          "type": "uint256"
        },
        {
          "internalType": "uint256",
          "name": "rewards",
          "type": "uint256"
        }
      ],
      "stateMutability": "view",
      "type": "function"
    },
    {
      "inputs": [],
      "name": "maxSlippage",
      "outputs": [
        {
          "internalType": "uint256",
          "name": "",
          "type": "uint256"
        }
      ],
      "stateMutability": "view",
      "type": "function"
    },
    {
      "inputs": [],
      "name": "nextOrderId",
      "outputs": [
        {
          "internalType": "uint256",
          "name": "",
          "type": "uint256"
        }
      ],
      "stateMutability": "view",
      "type": "function"
    },
    {
      "inputs": [],
      "name": "nextPoolId",
      "outputs": [
        {
          "internalType": "uint256",
          "name": "",
          "type": "uint256"
        }
      ],
      "stateMutability": "view",
      "type": "function"
    },
    {
      "inputs": [],
      "name": "nextPositionId",
      "outputs": [
        {
          "internalType": "uint256",
          "name": "",
          "type": "uint256"
        }
      ],
      "stateMutability": "view",
      "type": "function"
    },
    {
      "inputs": [],
      "name": "orderCount",
      "outputs": [
        {
          "internalType": "uint256",
          "name": "",
          "type": "uint256"
        }
      ],
      "stateMutability": "view",
      "type": "function"
    },
    {
      "inputs": [],
      "name": "orderExpiry",
      "outputs": [
        {
          "internalType": "uint256",
          "name": "",
          "type": "uint256"
        }
      ],
      "stateMutability": "view",
      "type": "function"
    },
    {
      "inputs": [
        {
          "internalType": "uint256",
          "name": "",
          "type": "uint256"
        }
      ],
      "name": "orders",
      "outputs": [
        {
          "internalType": "uint256",
          "name": "id",
          "type": "uint256"
        },
        {
          "internalType": "address",
          "name": "maker",
          "type": "address"
        },
        {
          "internalType": "address",
          "name": "tokenIn",
          "type": "address"
        },
        {
          "internalType": "address",
          "name": "tokenOut",
          "type": "address"
        },
        {
          "internalType": "uint256",
          "name": "amountIn",
          "type": "uint256"
        },
        {
          "internalType": "uint256",
          "name": "amountOut",
          "type": "uint256"
        },
        {
          "internalType": "uint256",
          "name": "filledAmount",
          "type": "uint256"
        },
        {
          "internalType": "uint256",
          "name": "price",
          "type": "uint256"
        },
        {
          "internalType": "uint256",
          "name": "expiry",
          "type": "uint256"
        },
        {
          "internalType": "bool",
          "name": "active",
          "type": "bool"
        },
        {
          "internalType": "enum AgriDEX.OrderType",
          "name": "orderType",
          "type": "uint8"
        }
      ],
      "stateMutability": "view",
      "type": "function"
    },
    {
      "inputs": [],
      "name": "owner",
      "outputs": [
        {
          "internalType": "address",
          "name": "",
          "type": "address"
        }
      ],
      "stateMutability": "view",
      "type": "function"
    },
    {
      "inputs": [
        {
          "internalType": "uint256",
          "name": "_poolId",
          "type": "uint256"
        }
      ],
      "name": "pausePool",
      "outputs": [],
      "stateMutability": "nonpayable",
      "type": "function"
    },
    {
      "inputs": [
        {
          "internalType": "address",
          "name": "_tokenIn",
          "type": "address"
        },
        {
          "internalType": "address",
          "name": "_tokenOut",
          "type": "address"
        },
        {
          "internalType": "uint256",
          "name": "_amountIn",
          "type": "uint256"
        },
        {
          "internalType": "uint256",
          "name": "_amountOut",
          "type": "uint256"
        },
        {
          "internalType": "uint256",
          "name": "_price",
          "type": "uint256"
        }
      ],
      "name": "placeLimitOrder",
      "outputs": [
        {
          "internalType": "uint256",
          "name": "",
          "type": "uint256"
        }
      ],
      "stateMutability": "nonpayable",
      "type": "function"
    },
    {
      "inputs": [
        {
          "internalType": "bytes32",
          "name": "",
          "type": "bytes32"
        }
      ],
      "name": "poolIds",
      "outputs": [
        {
          "internalType": "uint256",
          "name": "",
          "type": "uint256"
        }
      ],
      "stateMutability": "view",
      "type": "function"
    },
    {
      "inputs": [],
      "name": "proxiableUUID",
      "outputs": [
        {
          "internalType": "bytes32",
          "name": "",
          "type": "bytes32"
        }
      ],
      "stateMutability": "view",
      "type": "function"
    },
    {
      "inputs": [
        {
          "internalType": "uint256",
          "name": "_positionId",
          "type": "uint256"
        }
      ],
      "name": "removeLiquidity",
      "outputs": [],
      "stateMutability": "nonpayable",
      "type": "function"
    },
    {
      "inputs": [
        {
          "internalType": "address",
          "name": "_token",
          "type": "address"
        }
      ],
      "name": "removeSupportedToken",
      "outputs": [],
      "stateMutability": "nonpayable",
      "type": "function"
    },
    {
      "inputs": [],
      "name": "renounceOwnership",
      "outputs": [],
      "stateMutability": "nonpayable",
      "type": "function"
    },
    {
      "inputs": [],
      "name": "rewardRate",
      "outputs": [
        {
          "internalType": "uint256",
          "name": "",
          "type": "uint256"
        }
      ],
      "stateMutability": "view",
      "type": "function"
    },
    {
      "inputs": [
        {
          "internalType": "uint256",
          "name": "_fee",
          "type": "uint256"
        }
      ],
      "name": "setFlashLoanFee",
      "outputs": [],
      "stateMutability": "nonpayable",
      "type": "function"
    },
    {
      "inputs": [
        {
          "internalType": "uint256",
          "name": "_slippage",
          "type": "uint256"
        }
      ],
      "name": "setMaxSlippage",
      "outputs": [],
      "stateMutability": "nonpayable",
      "type": "function"
    },
    {
      "inputs": [
        {
          "internalType": "uint256",
          "name": "_expiry",
          "type": "uint256"
        }
      ],
      "name": "setOrderExpiry",
      "outputs": [],
      "stateMutability": "nonpayable",
      "type": "function"
    },
    {
      "inputs": [
        {
          "internalType": "uint256",
          "name": "_rate",
          "type": "uint256"
        }
      ],
      "name": "setRewardRate",
      "outputs": [],
      "stateMutability": "nonpayable",
      "type": "function"
    },
    {
      "inputs": [
        {
          "internalType": "uint256",
          "name": "_fee",
          "type": "uint256"
        }
      ],
      "name": "setTradingFee",
      "outputs": [],
      "stateMutability": "nonpayable",
      "type": "function"
    },
    {
      "inputs": [
        {
          "internalType": "uint256",
          "name": "",
          "type": "uint256"
        }
      ],
      "name": "stopLossOrders",
      "outputs": [
        {
          "internalType": "uint256",
          "name": "orderId",
          "type": "uint256"
        },
        {
          "internalType": "uint256",
          "name": "triggerPrice",
          "type": "uint256"
        },
        {
          "internalType": "bool",
          "name": "isAbove",
          "type": "bool"
        }
      ],
      "stateMutability": "view",
      "type": "function"
    },
    {
      "inputs": [
        {
          "internalType": "address",
          "name": "",
          "type": "address"
        }
      ],
      "name": "supportedTokens",
      "outputs": [
        {
          "internalType": "bool",
          "name": "",
          "type": "bool"
        }
      ],
      "stateMutability": "view",
      "type": "function"
    },
    {
      "inputs": [
        {
          "internalType": "uint256",
          "name": "_poolId",
          "type": "uint256"
        },
        {
          "internalType": "address",
          "name": "_tokenIn",
          "type": "address"
        },
        {
          "internalType": "uint256",
          "name": "_amountIn",
          "type": "uint256"
        },
        {
          "internalType": "uint256",
          "name": "_minAmountOut",
          "type": "uint256"
        }
      ],
      "name": "swap",
      "outputs": [
        {
          "internalType": "uint256",
          "name": "",
          "type": "uint256"
        }
      ],
      "stateMutability": "nonpayable",
      "type": "function"
    },
    {
      "inputs": [
        {
          "internalType": "uint256",
          "name": "",
          "type": "uint256"
        }
      ],
      "name": "takeProfitOrders",
      "outputs": [
        {
          "internalType": "uint256",
          "name": "orderId",
          "type": "uint256"
        },
        {
          "internalType": "uint256",
          "name": "triggerPrice",
          "type": "uint256"
        },
        {
          "internalType": "bool",
          "name": "isAbove",
          "type": "bool"
        }
      ],
      "stateMutability": "view",
      "type": "function"
    },
    {
      "inputs": [],
      "name": "totalRewardsDistributed",
      "outputs": [
        {
          "internalType": "uint256",
          "name": "",
          "type": "uint256"
        }
      ],
      "stateMutability": "view",
      "type": "function"
    },
    {
      "inputs": [],
      "name": "tradingFee",
      "outputs": [
        {
          "internalType": "uint256",
          "name": "",
          "type": "uint256"
        }
      ],
      "stateMutability": "view",
      "type": "function"
    },
    {
      "inputs": [
        {
          "internalType": "address",
          "name": "newOwner",
          "type": "address"
        }
      ],
      "name": "transferOwnership",
      "outputs": [],
      "stateMutability": "nonpayable",
      "type": "function"
    },
    {
      "inputs": [
        {
          "internalType": "uint256",
          "name": "_poolId",
          "type": "uint256"
        }
      ],
      "name": "unpausePool",
      "outputs": [],
      "stateMutability": "nonpayable",
      "type": "function"
    },
    {
      "inputs": [
        {
          "internalType": "address",
          "name": "newImplementation",
          "type": "address"
        },
        {
          "internalType": "bytes",
          "name": "data",
          "type": "bytes"
        }
      ],
      "name": "upgradeToAndCall",
      "outputs": [],
      "stateMutability": "payable",
      "type": "function"
    },
    {
      "inputs": [
        {
          "internalType": "address",
          "name": "",
          "type": "address"
        },
        {
          "internalType": "uint256",
          "name": "",
          "type": "uint256"
        }
      ],
      "name": "userOrders",
      "outputs": [
        {
          "internalType": "uint256",
          "name": "",
          "type": "uint256"
        }
      ],
      "stateMutability": "view",
      "type": "function"
    },
    {
      "inputs": [
        {
          "internalType": "address",
          "name": "",
          "type": "address"
        },
        {
          "internalType": "uint256",
          "name": "",
          "type": "uint256"
        }
      ],
      "name": "userPositions",
      "outputs": [
        {
          "internalType": "uint256",
          "name": "",
          "type": "uint256"
        }
      ],
      "stateMutability": "view",
      "type": "function"
    }
  ],
  "bytecode": "0x60a08060405234604e57306080526001805560016004556001600655601e600d556101f4600e5562278d00600f556064601055613c7d90816100548239608051818181611fb201526121490152f35b600080fdfe608080604052600436101561001357600080fd5b60003560e01c90816318e5613114612b4a575080631b11d0ff14612afa5780631d5db04614612a245780631de23c07146127435780632453ffa81461272557806326ea92071461263a5780632a58b3301461261c5780632a6bc2dd146125a55780632ef61c2114612563578063422f10431461234e57806343f68a491461232d5780634847cdc81461230f5780634f1ef2861461210b578063514fcac71461200957806352d1902d14611f9f57806356f4335214611f815780635e1b4d9914611f375780635e8ead7714611f0057806363c69f0814611e7d57806368c4ac2614611e3e5780636d69fcaf14611df9578063715018a614611d8f5780637631919014611d4d57806378278e1414611b0e57806379d747be14611a8c5780637b0a47ee14611a6e5780638129fc1c146118f8578063856652e91461189f578063899346c7146118815780638c04166f146118635780638da5cb5b1461182d578063965f1411146118015780639c8f9f23146116c05780639e447fc61461169f578063a084df1314611544578063a74498aa14611446578063a85c38ef14611386578063ac75886f1461131b578063ad3cb1cc146112d4578063b0d54bcf146112a5578063b13ae8041461126b578063b33daea91461123d578063bf6517f814611003578063c37dfc5b14610e42578063c525e49e14610e10578063d09ef24114610c77578063d6a2d96f146109e4578063e0232b42146106c2578063e656b315146106a1578063e75301e51461064d578063e7832793146103a4578063e92d0d5d1461034b578063e9c6b6ae146102f3578063ee172546146102d5578063f2fde38b146102aa5763fe85d10d1461028757600080fd5b346102a55760003660031901126102a5576020600f54604051908152f35b600080fd5b346102a55760203660031901126102a5576102d36102c6612b65565b6102ce613925565b613581565b005b346102a55760003660031901126102a5576020601154604051908152f35b346102a55760203660031901126102a557600435600052600a6020526040600020805461034760ff600260018501549401541660405193849384919260409194936060840195845260208401521515910152565b0390f35b346102a55760203660031901126102a5577f7b27910bf1045a08f535a054665467f907c1d72dfc6bff5a08ace57dbcec653f602060043561038a613925565b61039760648211156130bd565b80600955604051908152a1005b346102a55760a03660031901126102a5576103bd612b65565b6103c5612b91565b9060443590606435906103d66135f7565b6001600160a01b031660008181526012602052604090205490919060ff168061062b575b6104039061307a565b82151580610622575b61041590612fac565b610421833033856137bf565b6001549261042e84612fea565b600155600f5461043e9042612eee565b948460405161044c81612c23565b8181526020810197338952604082018781526060830194600160a01b6001900316948581526080840187815260a085019089825260c08601926000845260e08701946084358652610100880196875261012088019e8f6001905261014089019960008b526000526000602052604060002098518955600160a01b600190039051166001890190600160a01b60019003166001600160601b0360a01b825416179055600160a01b600190039051166002880190600160a01b60019003166001600160601b0360a01b825416179055600160a01b600190039051166003870190600160a01b60019003166001600160601b0360a01b8254161790555160048601555160058501555160068401555160078301555160088201556009019651151561058090889060ff801983541691151516179055565b5195600487101561060c5760209661ff0082549160081b169061ff00191617905533600052600786526105b7856040600020612ff9565b6040519384528584015260408301526060820152817f2da1ae6a26515607ae8c5f62b5490ae88aff22f4be4cb17e94217f06f060c9bc60803393a36001600080516020613c0883398151915255604051908152f35b634e487b7160e01b600052602160045260246000fd5b5080151561040c565b506001600160a01b03841660009081526012602052604090205460ff166103fa565b346102a55760203660031901126102a557600435600052600b6020526040600020805461034760ff600260018501549401541660405193849384919260409194936060840195845260208401521515910152565b346102a55760203660031901126102a5576106ba613925565b600435600f55005b346102a55760603660031901126102a5576106db612b65565b60243560443567ffffffffffffffff81116102a5576106fe903690600401612ba7565b916107076135f7565b6001600160a01b03841660008181526012602052604090205460ff16156109a9576107338215156133ad565b6040516370a0823160e01b815230600482015293602085602481855afa9485156108f257600095610972575b5061076c83861015612e5e565b60208160c461271061078060095488612ea3565b049661078c8888612eee565b50610798873388613633565b6040519485938492631b11d0ff60e01b84528860048501528960248501528a604485015233606485015260a060848501528160a4850152848401376000838284010152601f801991011681010301816000335af19081156108f257600091610943575b50156108fe576020602491604051928380926370a0823160e01b82523060048301525afa9081156108f2576000916108a0575b506108659061085e847f9d0d497e678f62d6b162c97b9724a39f45fe674650dcd4a5e88ff6317e63764f96612eee565b1115612efb565b604080516001600160a01b0390951685526020850191909152830152339180606081015b0390a26001600080516020613c0883398151915255005b90506020813d6020116108ea575b816108bb60209383612c5c565b810103126102a557517f9d0d497e678f62d6b162c97b9724a39f45fe674650dcd4a5e88ff6317e63764f61082e565b3d91506108ae565b6040513d6000823e3d90fd5b60405162461bcd60e51b815260206004820152601b60248201527f466c617368206c6f616e20657865637574696f6e206661696c656400000000006044820152606490fd5b610965915060203d60201161096b575b61095d8183612c5c565b810190612ed6565b866107fb565b503d610953565b90946020823d6020116109a1575b8161098d60209383612c5c565b8101031261099e575051938661075f565b80fd5b3d9150610980565b60405162461bcd60e51b8152602060048201526013602482015272151bdad95b881b9bdd081cdd5c1c1bdc9d1959606a1b6044820152606490fd5b346102a55760016109f436612dd1565b9493610a0396929391966135f7565b828060a01b0385169586600052601260205260ff6040600020541680610c53575b610a2d9061307a565b610a388315156133ad565b610a434282116133f9565b610b816009610a53600c54612fea565b98899384600c558860405192610a6884612c23565b868452602084019033825260408501908152606085018b8060a01b038a16815260808601908b825260a08701926000845260c08801946000865260e08901968752610100890197885261012089019e8f5261014089019b60028d52600052600060205260406000209851895560018060a01b03905116600189019060018060a01b03166001600160601b0360a01b82541617905560018060a01b03905116600288019060018060a01b03166001600160601b0360a01b82541617905560018060a01b03905116600387019060018060a01b03166001600160601b0360a01b8254161790555160048601555160058501555160068401555160078301555160088201550194511515859060ff801983541691151516179055565b51600481101561060c5760209787957f5919aef2591c3a63bda0eef8e3b852ab09b8bbd16500a3e7f184527455fda8f195610c369361ff0082549160081b169061ff001916179055610bfa604051610bd881612c40565b888152828c820152831515604082015288600052600a8c526040600020613445565b604080516001600160a01b03998a16815294909816602085015296830193909352606082019590955290151560808201523393819060a0820190565b0390a36001600080516020613c0883398151915255604051908152f35b50838060a01b0382166000526012602052610a2d60ff604060002054169050610a24565b346102a55760203660031901126102a5576000610140604051610c9981612c23565b8281528260208201528260408201528260608201528260808201528260a08201528260c08201528260e08201528261010082015282610120820152015260043560005260006020526040600020604051610cf281612c23565b8154815260018060a01b03600183015416916020820192835260018060a01b036002820154166040830190815260018060a01b03600383015416916060840192835260048101549060808501918252600581015460a08601908152600682015460c0870190815260078301549160e0880192835260096008850154946101008a0195865201549460ff6101208a01968181161515885260081c16976101408a019760048a101561060c576101609b610e0e9a8a526040519b518c5260018060a01b0390511660208c015260018060a01b0390511660408b015260018060a01b0390511660608a01525160808901525160a08801525160c08701525160e08601525161010085015251151561012084015251610140830190612d83565bf35b346102a55760603660031901126102a5576020610e3a610e2e612b91565b60443590600435613474565b604051908152f35b346102a55760403660031901126102a557602435600435610e616135f7565b80600052600060205260406000206009810190610e8160ff83541661302e565b60088101544211610fce576004810180546006830192610ea284548361306d565b8711610f9257610ec2610f2d92610ebd60058401548a612ea3565b612eb6565b90610edc612710610ed5600d5485612ea3565b048361306d565b91610ef8600383019160018060a01b03835416309033906137bf565b6002820154610f13908a9033906001600160a01b0316613633565b54600191909101546001600160a01b039081169116613633565b610f38858354612eee565b809255541115610f84575b506040519182527f1e7abafb1a786c4e6394b5c494f50a97e3802ff2ce462eca4fe6a2dd4e1f92e860203393a36001600080516020613c0883398151915255005b805460ff1916905582610f43565b60405162461bcd60e51b815260206004820152601460248201527308cd2d8d840c2dadeeadce840e8dede40d0d2ced60631b6044820152606490fd5b60405162461bcd60e51b815260206004820152600d60248201526c13dc99195c88195e1c1a5c9959609a1b6044820152606490fd5b346102a557600161101336612dd1565b949361102296929391966135f7565b828060a01b0385169586600052601260205260ff6040600020541680611219575b61104c9061307a565b6110578315156133ad565b6110624282116133f9565b6111a06009611072600c54612fea565b98899384600c55886040519261108784612c23565b868452602084019033825260408501908152606085018b8060a01b038a16815260808601908b825260a08701926000845260c08801946000865260e08901968752610100890197885261012089019e8f5261014089019b60038d52600052600060205260406000209851895560018060a01b03905116600189019060018060a01b03166001600160601b0360a01b82541617905560018060a01b03905116600288019060018060a01b03166001600160601b0360a01b82541617905560018060a01b03905116600387019060018060a01b03166001600160601b0360a01b8254161790555160048601555160058501555160068401555160078301555160088201550194511515859060ff801983541691151516179055565b51600481101561060c5760209787957f317e877d743fe13460312fc290d48f29f2459ec3332bde65718acd6076efcd1895610c369361ff0082549160081b169061ff001916179055610bfa6040516111f781612c40565b888152828c820152831515604082015288600052600b8c526040600020613445565b50838060a01b038216600052601260205261104c60ff604060002054169050611043565b346102a55760803660031901126102a5576020610e3a61125b612b91565b6064359060443590600435613125565b346102a55760203660031901126102a557611284613925565b6004356000908152600260205260409020600601805460ff19166001179055005b346102a55760203660031901126102a5576004356112c1613925565b6112cf6103e88211156130bd565b600d55005b346102a55760003660031901126102a55761034760408051906112f78183612c5c565b60058252640352e302e360dc1b602083015251918291602083526020830190612d90565b346102a55760203660031901126102a557600435600052600560205260c0604060002080549060018060a01b036001820154169060028101546003820154906005600484015493015493604051958652602086015260408501526060840152608083015260a0820152f35b346102a55760203660031901126102a55760043560005260006020526101606040600020610e0e81549160018060a01b036001820154169060018060a01b0360028201541660018060a01b03600383015416600483015460058401549060068501549260078601549460096008880154970154976040519a8b5260208b015260408a01526060890152608088015260a087015260c086015260e085015261010084015260ff8116151561012084015260ff61014084019160081c16612d83565b346102a55760203660031901126102a557600060c060405161146781612c07565b8281528260208201528260408201528260608201528260808201528260a08201520152600435600052600260205260e060406000206040516114a881612c07565b60018060a01b038254169182825260018060a01b0360018201541660208301908152600282015460408401908152600383015490606085019182526004840154926080860193845260c060ff600660058801549760a08a019889520154169601951515865260405196875260018060a01b0390511660208701525160408601525160608501525160808401525160a083015251151560c0820152f35b346102a55761155236612d49565b91505060015b600c5481116116205780600052600060205260ff60096040600020015416806115f4575b9061158a9161158f57612fea565b611558565b80600052600a60205260206115a760406000206130f8565b6040810151156115ea5701518310155b806115d0575b15612fea576115cb8161395b565b612fea565b5080600052600060205260086040600020015442106115bd565b01518311156115b7565b5080600052600060205260ff60096040600020015460081c1690600482101561060c579060021461157c565b5060015b600c5481116102d35780600052600060205260ff6009604060002001541680611673575b906116569161165b57612fea565b611624565b80600052600b60205260206115a760406000206130f8565b5080600052600060205260ff60096040600020015460081c1690600482101561060c5790600314611648565b346102a55760203660031901126102a5576116b8613925565b600435601055005b346102a55760203660031901126102a5576004356116dc6135f7565b80600052600560205260406000209061170260018060a01b036001840154163314612f3f565b8154600052600260205260406000209161172260ff600685015416612e20565b6117b960028201938454906117a5600282019283549361178d6117458684612ea3565b600486019261178361175985548094612eb6565b98899660038a019361177c61177487610ebd88548096612ea3565b9c8d9461306d565b905561306d565b90558a549061306d565b905560008855825433906001600160a01b0316613633565b6001015433906001600160a01b0316613633565b54915460405192835260208301527f196a4bf617b45641f176c4e6d288ccf7498f1699f68b1cc1e4daadf92779703b60403393a36001600080516020613c0883398151915255005b346102a55760203660031901126102a55760043560005260036020526020604060002054604051908152f35b346102a55760003660031901126102a557600080516020613bc8833981519152546040516001600160a01b039091168152602090f35b346102a55760003660031901126102a5576020600e54604051908152f35b346102a55760003660031901126102a5576020600654604051908152f35b346102a55760403660031901126102a5576118b8612b65565b6001600160a01b03166000908152600760205260409020805460243591908210156102a5576020916118e991612d1b565b90549060031b1c604051908152f35b346102a55760003660031901126102a557600080516020613c288339815191525460ff8160401c16159067ffffffffffffffff811680159081611a66575b6001149081611a5c575b159081611a53575b50611a425767ffffffffffffffff198116600117600080516020613c288339815191525581611a15575b5061197b613b38565b611983613b38565b61198c33613581565b611994613b38565b61199c613b38565b6001600080516020613c08833981519152556119b6613b38565b6119bc57005b68ff000000000000000019600080516020613c288339815191525416600080516020613c28833981519152557fc7f505b2f371ae2175ee4913f4499e1f2633a7b5936321eed1cdaeb6115181d2602060405160018152a1005b68ffffffffffffffffff19166801000000000000000117600080516020613c288339815191525581611972565b63f92ee8a960e01b60005260046000fd5b90501583611948565b303b159150611940565b839150611936565b346102a55760003660031901126102a5576020601054604051908152f35b346102a55760203660031901126102a557600435600052600260205260e0604060002060018060a01b038154169060018060a01b03600182015416906002810154600382015460048301549160ff600660058601549501541694604051968752602087015260408601526060850152608084015260a0830152151560c0820152f35b346102a557611b1c36612d49565b611b27929192613925565b6001600160a01b03821660008181526012602052604090205490929060ff1680611d2b575b611b559061307a565b6001600160a01b03841693838514611cf857611b9b611b8d91611b7c6103e88611156130bd565b604051928391602083019586612f80565b03601f198101835282612c5c565b51902092836000526003602052604060002054611cbd576040611c9e937fe5b55372f1c8b4f25653cea67c5047f9e8d0e827ee290c181a0e6818e991d5e192602096600454968796611bec88612fea565b600455600688875192611bfe84612c07565b8784528c840187815260008a8601818152606087018281526080880183815260a08901958652600160c08a0181815297855260026020819052948f902099518a546001600160a01b039182166001600160a01b0319918216178c559651918b018054929091169190961617909455905191870191909155516003860155516004850155516005840155519101805460ff191691151560ff16919091179055565b60005260038752848360002055825191825286820152a2604051908152f35b60405162461bcd60e51b8152602060048201526013602482015272506f6f6c20616c72656164792065786973747360681b6044820152606490fd5b60405162461bcd60e51b815260206004820152600b60248201526a53616d6520746f6b656e7360a81b6044820152606490fd5b506001600160a01b03841660009081526012602052604090205460ff16611b4c565b346102a55760203660031901126102a557611d66612b65565b611d6e613925565b6001600160a01b03166000908152601260205260409020805460ff19169055005b346102a55760003660031901126102a557611da8613925565b600080516020613bc883398151915280546001600160a01b031981169091556000906001600160a01b03167f8be0079c531659141344cd1fd0a4f28419497f9722a3daafe3b4186f6b6457e08280a3005b346102a55760203660031901126102a557611e12612b65565b611e1a613925565b6001600160a01b03166000908152601260205260409020805460ff19166001179055005b346102a55760203660031901126102a5576001600160a01b03611e5f612b65565b166000526012602052602060ff604060002054166040519015158152f35b346102a55760203660031901126102a5576001600160a01b03611e9e612b65565b166000526007602052604060002060405190816020825491828152019160005260206000209060005b818110611eea5761034785611ede81870382612c5c565b60405191829182612ce1565b8254845260209093019260019283019201611ec7565b346102a55760203660031901126102a557611f19613925565b6004356000908152600260205260409020600601805460ff19169055005b346102a55760403660031901126102a557611f50612b65565b6001600160a01b03166000908152600860205260409020805460243591908210156102a5576020916118e991612d1b565b346102a55760003660031901126102a5576020600d54604051908152f35b346102a55760003660031901126102a5577f00000000000000000000000000000000000000000000000000000000000000006001600160a01b03163003611ff8576020604051600080516020613be88339815191528152f35b63703e46dd60e11b60005260046000fd5b346102a55760203660031901126102a5576004356120256135f7565b600081815260208190526040902060018101546001600160a01b031633036120d45760098101805461205960ff821661302e565b60ff19169055600481015460068201546120729161306d565b806120b2575b827f61b9399f2f0f32ca39ce8d7be32caed5ec22fe07a6daba3a467ed479ec606582600080a26001600080516020613c0883398151915255005b6002909101546120cd919033906001600160a01b0316613633565b8180612078565b60405162461bcd60e51b815260206004820152600f60248201526e2737ba1037b93232b91036b0b5b2b960891b6044820152606490fd5b60403660031901126102a55761211f612b65565b60243567ffffffffffffffff81116102a55761213f903690600401612c9a565b6001600160a01b037f0000000000000000000000000000000000000000000000000000000000000000163081149081156122ec575b50611ff857612181613925565b6040516352d1902d60e01b81526001600160a01b0383169290602081600481875afa600091816122b8575b506121c65783634c9c8ce360e01b60005260045260246000fd5b80600080516020613be88339815191528592036122a45750813b1561229057600080516020613be883398151915280546001600160a01b031916821790557fbc7cd75a20ee27fd9adebab32041f755214dbc6bffa90cc0225b39da2e5c2d3b600080a2815115612276576000808360206102d395519101845af43d1561226e573d9161225183612c7e565b9261225f6040519485612c5c565b83523d6000602085013e613b66565b606091613b66565b50503461227f57005b63b398979f60e01b60005260046000fd5b634c9c8ce360e01b60005260045260246000fd5b632a87526960e21b60005260045260246000fd5b9091506020813d6020116122e4575b816122d460209383612c5c565b810103126102a5575190856121ac565b3d91506122c7565b600080516020613be8833981519152546001600160a01b03161415905083612174565b346102a55760003660031901126102a5576020600954604051908152f35b346102a55760203660031901126102a557612346613925565b600435600e55005b346102a55760603660031901126102a557602060243560043560036044356123746135f7565b8260005260028552604060002061239160ff600683015416612e20565b8415158061255a575b6123a390612fac565b80546123bd908690309033906001600160a01b03166137bf565b6123d582303360018060a01b036001860154166137bf565b61242260048201918254801560001461251a576123fa6123f5868a612ea3565b613803565b9586925b6002810161240d8b8254612eee565b90550161241b868254612eee565b9055612eee565b905560056006549461243386612fea565b6006556040519261244384612bd5565b8584528784019133835260408501868152606086019182526080860192835260a08601936000855289600052858b5260406000209651875560018060a01b03905116600187019060018060a01b03166001600160601b0360a01b8254161790555160028601555160038501555160048401555191015533600052600884526124cf836040600020612ff9565b60405191825283820152817f4f523f2d8e587b404d27e399464f42a7ffc415da39a6130a6e0e6d3be912832660403393a36001600080516020613c0883398151915255604051908152f35b612532612527828a612ea3565b600284015490612eb6565b61254961253f8388612ea3565b8885015490612eb6565b9081808210911802189586926123fe565b5081151561239a565b346102a55760403660031901126102a55761257c612b65565b611b8d61258a611b7c612b91565b51902060005260036020526020604060002054604051908152f35b346102a55760203660031901126102a5576001600160a01b036125c6612b65565b166000526008602052604060002060405190816020825491828152019160005260206000209060005b8181106126065761034785611ede81870382612c5c565b82548452602090930192600192830192016125ef565b346102a55760003660031901126102a5576020600154604051908152f35b346102a55760203660031901126102a5576004356126566135f7565b80600052600560205261268460406000209161267f60018060a01b036001850154163314612f3f565b613673565b9081156126ea57600501612699828254612eee565b90556126a781601154612eee565b6011556040519081527ffc30cddea38e2bf4d6ea7d3f9ed3b6ad7f176419f4963bd81318067a4aee73fe60203392a26001600080516020613c0883398151915255005b60405162461bcd60e51b81526020600482015260136024820152724e6f207265776172647320746f20636c61696d60681b6044820152606490fd5b346102a55760003660031901126102a5576020600c54604051908152f35b346102a55760803660031901126102a55761275c612b91565b6044359060643567ffffffffffffffff81116102a557612780903690600401612c9a565b6127886135f7565b60043560005260026020526040600020926127a960ff600686015416612e20565b83546001600160a01b038481169116811494858015612a0e575b156129d5576040516370a0823160e01b815230600482015295602087602481865afa9687156108f2576000976129a1575b50156129945761280b60028201545b841115612e5e565b600983028381046009148415171561297e57602061271061286d920495612833863387613633565b60405180938192631b11d0ff60e01b835287600484015288602484015289604484015233606484015260a0608484015260a4830190612d90565b03816000335af180156108f257612961575b506040516370a0823160e01b815230600482015291602083602481845afa9283156108f257600093612929575b506128e46128dc867f9d0d497e678f62d6b162c97b9724a39f45fe674650dcd4a5e88ff6317e63764f9899612eee565b841015612efb565b81546001600160a01b0316036129205760020155604080516001600160a01b039095168552602085019190915283015233918060608101610889565b60030155610865565b96926020883d602011612959575b8161294460209383612c5c565b8101031261099e5750955191956128e46128ac565b3d9150612937565b6129799060203d60201161096b5761095d8183612c5c565b61287f565b634e487b7160e01b600052601160045260246000fd5b61280b6003820154612803565b9096506020813d6020116129cd575b816129bd60209383612c5c565b810103126102a5575195876127f4565b3d91506129b0565b60405162461bcd60e51b8152602060048201526011602482015270151bdad95b881b9bdd081a5b881c1bdbdb607a1b6044820152606490fd5b5060018101546001600160a01b031682146127c3565b346102a55760203660031901126102a557600060a0604051612a4581612bd5565b8281528260208201528260408201528260608201528260808201520152600435600052600560205260c06040600020604051612a8081612bd5565b81549182825260018060a01b03600182015416602083019081526002820154604084019081526003830154916060850192835260a06005600486015495608088019687520154950194855260405195865260018060a01b0390511660208601525160408501525160608401525160808301525160a0820152f35b346102a55760a03660031901126102a557612b13612b65565b50612b1c612b7b565b5060843567ffffffffffffffff81116102a557612b3d903690600401612ba7565b5050602060405160018152f35b346102a55760003660031901126102a5576020906004548152f35b600435906001600160a01b03821682036102a557565b606435906001600160a01b03821682036102a557565b602435906001600160a01b03821682036102a557565b9181601f840112156102a55782359167ffffffffffffffff83116102a557602083818601950101116102a557565b60c0810190811067ffffffffffffffff821117612bf157604052565b634e487b7160e01b600052604160045260246000fd5b60e0810190811067ffffffffffffffff821117612bf157604052565b610160810190811067ffffffffffffffff821117612bf157604052565b6060810190811067ffffffffffffffff821117612bf157604052565b90601f8019910116810190811067ffffffffffffffff821117612bf157604052565b67ffffffffffffffff8111612bf157601f01601f191660200190565b81601f820112156102a557803590612cb182612c7e565b92612cbf6040519485612c5c565b828452602083830101116102a557816000926020809301838601378301015290565b602060408183019282815284518094520192019060005b818110612d055750505090565b8251845260209384019390920191600101612cf8565b8054821015612d335760005260206000200190600090565b634e487b7160e01b600052603260045260246000fd5b60609060031901126102a5576004356001600160a01b03811681036102a557906024356001600160a01b03811681036102a5579060443590565b90600482101561060c5752565b919082519283825260005b848110612dbc575050826000602080949584010152601f8019910116010190565b80602080928401015182828601015201612d9b565b60c09060031901126102a5576004356001600160a01b03811681036102a557906024356001600160a01b03811681036102a55790604435906064359060843580151581036102a5579060a43590565b15612e2757565b60405162461bcd60e51b815260206004820152600f60248201526e506f6f6c206e6f742061637469766560881b6044820152606490fd5b15612e6557565b60405162461bcd60e51b8152602060048201526016602482015275496e73756666696369656e74206c697175696469747960501b6044820152606490fd5b8181029291811591840414171561297e57565b8115612ec0570490565b634e487b7160e01b600052601260045260246000fd5b908160209103126102a5575180151581036102a55790565b9190820180921161297e57565b15612f0257565b60405162461bcd60e51b8152602060048201526015602482015274119b185cda081b1bd85b881b9bdd081c995c185a59605a1b6044820152606490fd5b15612f4657565b60405162461bcd60e51b81526020600482015260126024820152712737ba103837b9b4ba34b7b71037bbb732b960711b6044820152606490fd5b90916028926001600160601b03199060601b1682526001600160601b03199060601b1660148201520190565b15612fb357565b60405162461bcd60e51b815260206004820152600f60248201526e496e76616c696420616d6f756e747360881b6044820152606490fd5b600019811461297e5760010190565b8054600160401b811015612bf15761301691600182018155612d1b565b819291549060031b91821b91600019901b1916179055565b1561303557565b60405162461bcd60e51b815260206004820152601060248201526f4f72646572206e6f742061637469766560801b6044820152606490fd5b9190820391821161297e57565b1561308157565b60405162461bcd60e51b8152602060048201526014602482015273151bdad95b9cc81b9bdd081cdd5c1c1bdc9d195960621b6044820152606490fd5b156130c457565b60405162461bcd60e51b815260206004820152600c60248201526b08ccaca40e8dede40d0d2ced60a31b6044820152606490fd5b9060405161310581612c40565b604060ff6002839580548552600181015460208601520154161515910152565b9190916131306135f7565b600052600260205260406000209061314e60ff600684015416612e20565b81546001600160a01b03938416931683149182801561335b575b61317190613371565b6005810190815461271003612710811161297e5761318f9084612ea3565b841561334e576131a460038301545b82612ea3565b85156133445760028301545b612710810290808204612710149015171561297e576131d8926131d291612eee565b90612eb6565b9586106132ff57612710916132639185156132f2576131fe60038201545b891115612e5e565b61320a8530338a6137bf565b85156132e25760018101546001600160a01b03165b6001600160a01b031695613234893389613633565b156132bb578060026003920161324b878254612eee565b90550161325988825461306d565b90555b5483612ea3565b04916040519384526020840152604083015282606083015260808201527fad671c9d50262b75ba17bdf7e330ae0d7da971800b2526584a85f83d23296b1560a03392a2906001600080516020613c0883398151915255565b806003600292016132cd878254612eee565b9055016132db88825461306d565b905561325c565b80546001600160a01b031661321f565b6131fe60028201546131f6565b60405162461bcd60e51b815260206004820152601a60248201527f496e73756666696369656e74206f757470757420616d6f756e740000000000006044820152606490fd5b60038301546131b0565b6131a4600283015461319e565b5060018101546001600160a01b03168414613168565b1561337857565b60405162461bcd60e51b815260206004820152600d60248201526c24b73b30b634b2103a37b5b2b760991b6044820152606490fd5b156133b457565b60405162461bcd60e51b815260206004820152601d60248201527f416d6f756e74206d7573742062652067726561746572207468616e20300000006044820152606490fd5b1561340057565b60405162461bcd60e51b815260206004820152601860248201527f457870697279206d75737420626520696e2066757475726500000000000000006044820152606490fd5b600260406134729380518455602081015160018501550151151591019060ff801983541691151516179055565b565b60005260026020526040600020906040519261348f84612c07565b82546001600160a01b039081168086526001850154821660208701819052600286015460408801908152600387015460608901908152600488015460808a0152600588015460a08a0190815260069098015460ff16151560c09099019890985294909216908114949161350d918691908215613577575b5050613371565b5161271003612710811161297e5761352491612ea3565b92821561356d5761353781515b85612ea3565b92156135655750515b612710810290808204612710149015171561297e57613562926131d291612eee565b90565b905051613540565b6135378251613531565b1490503880613506565b6001600160a01b031680156135e157600080516020613bc883398151915280546001600160a01b0319811683179091556001600160a01b03167f8be0079c531659141344cd1fd0a4f28419497f9722a3daafe3b4186f6b6457e0600080a3565b631e4fbdf760e01b600052600060045260246000fd5b6002600080516020613c088339815191525414613622576002600080516020613c0883398151915255565b633ee5aeb560e01b60005260046000fd5b60405163a9059cbb60e01b60208201526001600160a01b0390921660248301526044808301939093529181526134729161366e606483612c5c565b613add565b600052600560205260406000206040519061368d82612bd5565b805480835260018060a01b03600183015416602084015260a06005600284015493604086019485526003810154606087015260048101546080870152015493019283526000526002602052604060002091604051916136eb83612c07565b83546001600160a01b03908116845260018501541660208401526002840154604084015260038401546060840152600484015460808401908152600585015460a085015260069094015460ff1615801560c0909401939093525191821590819081156137b7575b506137ae57670de0b6b3a76400008302928304670de0b6b3a764000014171561297e576137a561379b6137936137aa94670de0b6b3a7640000965190612eb6565b92514261306d565b9160105490612ea3565b612ea3565b0490565b50505050600090565b905038613752565b6040516323b872dd60e01b60208201526001600160a01b0392831660248201529290911660448301526064808301939093529181526134729161366e608483612c5c565b600181111561356257806001600160801b821015613914575b600482600160401b6138c6941015613907575b6401000000008110156138fa575b620100008110156138ed575b6101008110156138e1575b60108110156138d5575b10156138cd575b60030260011c6138758184612eb6565b0160011c6138838184612eb6565b0160011c6138918184612eb6565b0160011c61389f8184612eb6565b0160011c6138ad8184612eb6565b0160011c6138bb8184612eb6565b0160011c8092612eb6565b8111900390565b60011b613865565b811c9160021b9161385e565b60081c91811b91613854565b60101c9160081b91613849565b60201c9160101b9161383d565b60401c9160201b9161382f565b5050608081901c600160401b61381c565b600080516020613bc8833981519152546001600160a01b0316330361394657565b63118cdaa760e01b6000523360045260246000fd5b8060005260006020526040600020906009820161397b60ff82541661302e565b600283015460038401546040516001600160a01b0392831695929091169060208101906139ad81611b8d858a86612f80565b5190206000526003602052604060002054908115613aae575b508015613a69578060005260026020526139ea60ff60066040600020015416612e20565b60048201908154906139fd828883613474565b91600e546127100397612710891161297e57612710613a2160069a613a2896612ea3565b0492613125565b600583015554938491015560ff1981541690556040519182527f1de597a2060af1b707f0fbb3d6c9b10410cbe89a87379853c48fc098718d593760203393a3565b60405162461bcd60e51b815260206004820152601c60248201527f4e6f20706f6f6c20666f756e6420666f7220746f6b656e2070616972000000006044820152606490fd5b9050604051613ac681611b8d88602083019586612f80565b5190206000526003602052604060002054386139c6565b906000602091828151910182855af1156108f2576000513d613b2f57506001600160a01b0381163b155b613b0e5750565b635274afe760e01b60009081526001600160a01b0391909116600452602490fd5b60011415613b07565b60ff600080516020613c288339815191525460401c1615613b5557565b631afcd79f60e31b60005260046000fd5b90613b8c5750805115613b7b57602081519101fd5b63d6bda27560e01b60005260046000fd5b81511580613bbe575b613b9d575090565b639996b31560e01b60009081526001600160a01b0391909116600452602490fd5b50803b15613b9556fe9016d09d72d40fdae2fd8ceac6b6234c7706214fd39c1cd1e609a0528c199300360894a13ba1a3210667c828492db98dca3e2076cc3735a920a3ca505d382bbc9b779b17422d0df92223018b32b4d1fa46e071723d6817e2486d003becc55f00f0c57e16840df040f15088dc2f81fe391c3923bec73e23a9662efc9c229c6a00a2646970667358221220bc3d05e5913e81d97623356ecbbab3d4ed1a99800b18519ad4f1ed8fa02ef76164736f6c634300081c0033",
  "linkReferences": {},
  "deployedLinkReferences": {}
}