{
  "_format": "hh-sol-artifact-1",
  "contractName": "CrossChainGovernance",
  "sourceName": "contracts/CrossChainGovernance.sol",
  "abi": [
    {
      "inputs": [
        {
          "internalType": "address",
          "name": "target",
          "type": "address"
        }
      ],
      "name": "AddressEmptyCode",
      "type": "error"
    },
    {
      "inputs": [],
      "name": "ECDSAInvalidSignature",
      "type": "error"
    },
    {
      "inputs": [
        {
          "internalType": "uint256",
          "name": "length",
          "type": "uint256"
        }
      ],
      "name": "ECDSAInvalidSignatureLength",
      "type": "error"
    },
    {
      "inputs": [
        {
          "internalType": "bytes32",
          "name": "s",
          "type": "bytes32"
        }
      ],
      "name": "ECDSAInvalidSignatureS",
      "type": "error"
    },
    {
      "inputs": [
        {
          "internalType": "address",
          "name": "implementation",
          "type": "address"
        }
      ],
      "name": "ERC1967InvalidImplementation",
      "type": "error"
    },
    {
      "inputs": [],
      "name": "ERC1967NonPayable",
      "type": "error"
    },
    {
      "inputs": [],
      "name": "FailedCall",
      "type": "error"
    },
    {
      "inputs": [],
      "name": "InvalidInitialization",
      "type": "error"
    },
    {
      "inputs": [],
      "name": "NotInitializing",
      "type": "error"
    },
    {
      "inputs": [
        {
          "internalType": "address",
          "name": "owner",
          "type": "address"
        }
      ],
      "name": "OwnableInvalidOwner",
      "type": "error"
    },
    {
      "inputs": [
        {
          "internalType": "address",
          "name": "account",
          "type": "address"
        }
      ],
      "name": "OwnableUnauthorizedAccount",
      "type": "error"
    },
    {
      "inputs": [],
      "name": "ReentrancyGuardReentrantCall",
      "type": "error"
    },
    {
      "inputs": [],
      "name": "UUPSUnauthorizedCallContext",
      "type": "error"
    },
    {
      "inputs": [
        {
          "internalType": "bytes32",
          "name": "slot",
          "type": "bytes32"
        }
      ],
      "name": "UUPSUnsupportedProxiableUUID",
      "type": "error"
    },
    {
      "anonymous": false,
      "inputs": [
        {
          "indexed": true,
          "internalType": "uint256",
          "name": "proposalId",
          "type": "uint256"
        },
        {
          "indexed": false,
          "internalType": "uint256",
          "name": "predictedOutcome",
          "type": "uint256"
        },
        {
          "indexed": false,
          "internalType": "uint256",
          "name": "recommendedVotes",
          "type": "uint256"
        },
        {
          "indexed": false,
          "internalType": "uint256",
          "name": "riskAssessment",
          "type": "uint256"
        }
      ],
      "name": "AIProposalAnalysis",
      "type": "event"
    },
    {
      "anonymous": false,
      "inputs": [
        {
          "indexed": true,
          "internalType": "uint256",
          "name": "proposalId",
          "type": "uint256"
        },
        {
          "indexed": false,
          "internalType": "uint256",
          "name": "sourceChainId",
          "type": "uint256"
        },
        {
          "indexed": false,
          "internalType": "uint256",
          "name": "votes",
          "type": "uint256"
        }
      ],
      "name": "BridgeMessageReceived",
      "type": "event"
    },
    {
      "anonymous": false,
      "inputs": [
        {
          "indexed": true,
          "internalType": "address",
          "name": "validator",
          "type": "address"
        },
        {
          "indexed": false,
          "internalType": "uint256[]",
          "name": "chainIds",
          "type": "uint256[]"
        }
      ],
      "name": "BridgeValidatorAdded",
      "type": "event"
    },
    {
      "anonymous": false,
      "inputs": [
        {
          "indexed": true,
          "internalType": "address",
          "name": "validator",
          "type": "address"
        }
      ],
      "name": "BridgeValidatorRemoved",
      "type": "event"
    },
    {
      "anonymous": false,
      "inputs": [
        {
          "indexed": true,
          "internalType": "uint256",
          "name": "chainId",
          "type": "uint256"
        },
        {
          "indexed": false,
          "internalType": "address",
          "name": "governanceContract",
          "type": "address"
        },
        {
          "indexed": false,
          "internalType": "uint256",
          "name": "votingPower",
          "type": "uint256"
        }
      ],
      "name": "ChainConnected",
      "type": "event"
    },
    {
      "anonymous": false,
      "inputs": [
        {
          "indexed": true,
          "internalType": "uint256",
          "name": "proposalId",
          "type": "uint256"
        },
        {
          "indexed": false,
          "internalType": "uint256",
          "name": "originChainId",
          "type": "uint256"
        },
        {
          "indexed": false,
          "internalType": "string",
          "name": "description",
          "type": "string"
        }
      ],
      "name": "CrossChainProposalCreated",
      "type": "event"
    },
    {
      "anonymous": false,
      "inputs": [
        {
          "indexed": true,
          "internalType": "uint256",
          "name": "proposalId",
          "type": "uint256"
        }
      ],
      "name": "CrossChainProposalExecuted",
      "type": "event"
    },
    {
      "anonymous": false,
      "inputs": [
        {
          "indexed": false,
          "internalType": "uint64",
          "name": "version",
          "type": "uint64"
        }
      ],
      "name": "Initialized",
      "type": "event"
    },
    {
      "anonymous": false,
      "inputs": [
        {
          "indexed": true,
          "internalType": "address",
          "name": "previousOwner",
          "type": "address"
        },
        {
          "indexed": true,
          "internalType": "address",
          "name": "newOwner",
          "type": "address"
        }
      ],
      "name": "OwnershipTransferred",
      "type": "event"
    },
    {
      "anonymous": false,
      "inputs": [
        {
          "indexed": true,
          "internalType": "address",
          "name": "staker",
          "type": "address"
        },
        {
          "indexed": false,
          "internalType": "uint256",
          "name": "rewards",
          "type": "uint256"
        }
      ],
      "name": "RewardsClaimed",
      "type": "event"
    },
    {
      "anonymous": false,
      "inputs": [
        {
          "indexed": true,
          "internalType": "address",
          "name": "staker",
          "type": "address"
        },
        {
          "indexed": false,
          "internalType": "uint256",
          "name": "amount",
          "type": "uint256"
        },
        {
          "indexed": false,
          "internalType": "uint256",
          "name": "votingPower",
          "type": "uint256"
        }
      ],
      "name": "StakedForVotingPower",
      "type": "event"
    },
    {
      "anonymous": false,
      "inputs": [
        {
          "indexed": true,
          "internalType": "address",
          "name": "staker",
          "type": "address"
        },
        {
          "indexed": false,
          "internalType": "uint256",
          "name": "amount",
          "type": "uint256"
        },
        {
          "indexed": false,
          "internalType": "uint256",
          "name": "rewards",
          "type": "uint256"
        }
      ],
      "name": "Unstaked",
      "type": "event"
    },
    {
      "anonymous": false,
      "inputs": [
        {
          "indexed": true,
          "internalType": "address",
          "name": "implementation",
          "type": "address"
        }
      ],
      "name": "Upgraded",
      "type": "event"
    },
    {
      "inputs": [],
      "name": "UPGRADE_INTERFACE_VERSION",
      "outputs": [
        {
          "internalType": "string",
          "name": "",
          "type": "string"
        }
      ],
      "stateMutability": "view",
      "type": "function"
    },
    {
      "inputs": [
        {
          "internalType": "uint256",
          "name": "",
          "type": "uint256"
        }
      ],
      "name": "activeChainIds",
      "outputs": [
        {
          "internalType": "uint256",
          "name": "",
          "type": "uint256"
        }
      ],
      "stateMutability": "view",
      "type": "function"
    },
    {
      "inputs": [
        {
          "internalType": "address",
          "name": "_validator",
          "type": "address"
        },
        {
          "internalType": "uint256[]",
          "name": "_chainIds",
          "type": "uint256[]"
        }
      ],
      "name": "addBridgeValidator",
      "outputs": [],
      "stateMutability": "nonpayable",
      "type": "function"
    },
    {
      "inputs": [
        {
          "internalType": "uint256",
          "name": "_chainId",
          "type": "uint256"
        },
        {
          "internalType": "address",
          "name": "_governanceContract",
          "type": "address"
        },
        {
          "internalType": "uint256",
          "name": "_votingPower",
          "type": "uint256"
        }
      ],
      "name": "addChain",
      "outputs": [],
      "stateMutability": "nonpayable",
      "type": "function"
    },
    {
      "inputs": [
        {
          "internalType": "uint256",
          "name": "",
          "type": "uint256"
        }
      ],
      "name": "aiVotingAnalyses",
      "outputs": [
        {
          "internalType": "uint256",
          "name": "proposalId",
          "type": "uint256"
        },
        {
          "internalType": "uint256",
          "name": "predictedOutcome",
          "type": "uint256"
        },
        {
          "internalType": "uint256",
          "name": "recommendedVotes",
          "type": "uint256"
        },
        {
          "internalType": "uint256",
          "name": "riskAssessment",
          "type": "uint256"
        },
        {
          "internalType": "uint256",
          "name": "timestamp",
          "type": "uint256"
        }
      ],
      "stateMutability": "view",
      "type": "function"
    },
    {
      "inputs": [
        {
          "internalType": "uint256",
          "name": "_proposalId",
          "type": "uint256"
        }
      ],
      "name": "analyzeProposalWithAI",
      "outputs": [
        {
          "internalType": "uint256",
          "name": "predictedOutcome",
          "type": "uint256"
        },
        {
          "internalType": "uint256",
          "name": "recommendedVotes",
          "type": "uint256"
        },
        {
          "internalType": "uint256",
          "name": "riskAssessment",
          "type": "uint256"
        }
      ],
      "stateMutability": "nonpayable",
      "type": "function"
    },
    {
      "inputs": [
        {
          "internalType": "address",
          "name": "",
          "type": "address"
        }
      ],
      "name": "bridgeValidators",
      "outputs": [
        {
          "internalType": "bool",
          "name": "",
          "type": "bool"
        }
      ],
      "stateMutability": "view",
      "type": "function"
    },
    {
      "inputs": [
        {
          "internalType": "address",
          "name": "_staker",
          "type": "address"
        }
      ],
      "name": "calculateRewards",
      "outputs": [
        {
          "internalType": "uint256",
          "name": "",
          "type": "uint256"
        }
      ],
      "stateMutability": "view",
      "type": "function"
    },
    {
      "inputs": [
        {
          "internalType": "uint256",
          "name": "_proposalId",
          "type": "uint256"
        }
      ],
      "name": "canExecuteProposal",
      "outputs": [
        {
          "internalType": "bool",
          "name": "",
          "type": "bool"
        }
      ],
      "stateMutability": "view",
      "type": "function"
    },
    {
      "inputs": [
        {
          "internalType": "uint256",
          "name": "",
          "type": "uint256"
        },
        {
          "internalType": "address",
          "name": "",
          "type": "address"
        }
      ],
      "name": "chainValidators",
      "outputs": [
        {
          "internalType": "bool",
          "name": "",
          "type": "bool"
        }
      ],
      "stateMutability": "view",
      "type": "function"
    },
    {
      "inputs": [],
      "name": "claimRewards",
      "outputs": [],
      "stateMutability": "nonpayable",
      "type": "function"
    },
    {
      "inputs": [
        {
          "internalType": "uint256",
          "name": "",
          "type": "uint256"
        }
      ],
      "name": "connectedChains",
      "outputs": [
        {
          "internalType": "uint256",
          "name": "chainId",
          "type": "uint256"
        },
        {
          "internalType": "address",
          "name": "governanceContract",
          "type": "address"
        },
        {
          "internalType": "uint256",
          "name": "votingPower",
          "type": "uint256"
        },
        {
          "internalType": "bool",
          "name": "active",
          "type": "bool"
        },
        {
          "internalType": "uint256",
          "name": "lastProposalId",
          "type": "uint256"
        }
      ],
      "stateMutability": "view",
      "type": "function"
    },
    {
      "inputs": [
        {
          "internalType": "uint256",
          "name": "_proposalId",
          "type": "uint256"
        },
        {
          "internalType": "uint256",
          "name": "_targetChainId",
          "type": "uint256"
        },
        {
          "internalType": "uint256",
          "name": "_votes",
          "type": "uint256"
        }
      ],
      "name": "createBridgeMessage",
      "outputs": [
        {
          "components": [
            {
              "internalType": "uint256",
              "name": "proposalId",
              "type": "uint256"
            },
            {
              "internalType": "uint256",
              "name": "sourceChainId",
              "type": "uint256"
            },
            {
              "internalType": "uint256",
              "name": "targetChainId",
              "type": "uint256"
            },
            {
              "internalType": "address",
              "name": "voter",
              "type": "address"
            },
            {
              "internalType": "uint256",
              "name": "votes",
              "type": "uint256"
            },
            {
              "internalType": "bytes",
              "name": "signature",
              "type": "bytes"
            },
            {
              "internalType": "uint256",
              "name": "timestamp",
              "type": "uint256"
            },
            {
              "internalType": "bytes32",
              "name": "messageHash",
              "type": "bytes32"
            }
          ],
          "internalType": "struct CrossChainGovernance.BridgeMessage",
          "name": "",
          "type": "tuple"
        }
      ],
      "stateMutability": "view",
      "type": "function"
    },
    {
      "inputs": [
        {
          "internalType": "string",
          "name": "_description",
          "type": "string"
        },
        {
          "internalType": "bytes",
          "name": "_callData",
          "type": "bytes"
        },
        {
          "internalType": "address",
          "name": "_targetContract",
          "type": "address"
        },
        {
          "internalType": "uint256",
          "name": "_value",
          "type": "uint256"
        }
      ],
      "name": "createCrossChainProposal",
      "outputs": [
        {
          "internalType": "uint256",
          "name": "",
          "type": "uint256"
        }
      ],
      "stateMutability": "nonpayable",
      "type": "function"
    },
    {
      "inputs": [
        {
          "internalType": "uint256",
          "name": "",
          "type": "uint256"
        }
      ],
      "name": "crossChainProposals",
      "outputs": [
        {
          "internalType": "uint256",
          "name": "id",
          "type": "uint256"
        },
        {
          "internalType": "uint256",
          "name": "originChainId",
          "type": "uint256"
        },
        {
          "internalType": "address",
          "name": "originContract",
          "type": "address"
        },
        {
          "internalType": "string",
          "name": "description",
          "type": "string"
        },
        {
          "internalType": "bytes",
          "name": "callData",
          "type": "bytes"
        },
        {
          "internalType": "address",
          "name": "targetContract",
          "type": "address"
        },
        {
          "internalType": "uint256",
          "name": "value",
          "type": "uint256"
        },
        {
          "internalType": "uint256",
          "name": "startTime",
          "type": "uint256"
        },
        {
          "internalType": "uint256",
          "name": "endTime",
          "type": "uint256"
        },
        {
          "internalType": "uint256",
          "name": "totalVotes",
          "type": "uint256"
        },
        {
          "internalType": "bool",
          "name": "executed",
          "type": "bool"
        },
        {
          "internalType": "enum CrossChainGovernance.ProposalStatus",
          "name": "status",
          "type": "uint8"
        }
      ],
      "stateMutability": "view",
      "type": "function"
    },
    {
      "inputs": [],
      "name": "decentralizedOracle",
      "outputs": [
        {
          "internalType": "contract DecentralizedOracle",
          "name": "",
          "type": "address"
        }
      ],
      "stateMutability": "view",
      "type": "function"
    },
    {
      "inputs": [
        {
          "internalType": "uint256",
          "name": "_proposalId",
          "type": "uint256"
        }
      ],
      "name": "emergencyExecuteProposal",
      "outputs": [],
      "stateMutability": "nonpayable",
      "type": "function"
    },
    {
      "inputs": [
        {
          "internalType": "uint256",
          "name": "_proposalId",
          "type": "uint256"
        }
      ],
      "name": "emergencyPauseProposal",
      "outputs": [],
      "stateMutability": "nonpayable",
      "type": "function"
    },
    {
      "inputs": [
        {
          "internalType": "uint256",
          "name": "_proposalId",
          "type": "uint256"
        }
      ],
      "name": "executeCrossChainProposal",
      "outputs": [],
      "stateMutability": "nonpayable",
      "type": "function"
    },
    {
      "inputs": [],
      "name": "executionDelay",
      "outputs": [
        {
          "internalType": "uint256",
          "name": "",
          "type": "uint256"
        }
      ],
      "stateMutability": "view",
      "type": "function"
    },
    {
      "inputs": [
        {
          "internalType": "uint256",
          "name": "_proposalId",
          "type": "uint256"
        }
      ],
      "name": "getAIVotingAnalysis",
      "outputs": [
        {
          "components": [
            {
              "internalType": "uint256",
              "name": "proposalId",
              "type": "uint256"
            },
            {
              "internalType": "uint256",
              "name": "predictedOutcome",
              "type": "uint256"
            },
            {
              "internalType": "uint256",
              "name": "recommendedVotes",
              "type": "uint256"
            },
            {
              "internalType": "uint256",
              "name": "riskAssessment",
              "type": "uint256"
            },
            {
              "internalType": "uint256",
              "name": "timestamp",
              "type": "uint256"
            }
          ],
          "internalType": "struct CrossChainGovernance.AIVotingAnalysis",
          "name": "",
          "type": "tuple"
        }
      ],
      "stateMutability": "view",
      "type": "function"
    },
    {
      "inputs": [],
      "name": "getActiveChains",
      "outputs": [
        {
          "internalType": "uint256[]",
          "name": "",
          "type": "uint256[]"
        }
      ],
      "stateMutability": "view",
      "type": "function"
    },
    {
      "inputs": [
        {
          "internalType": "uint256",
          "name": "_chainId",
          "type": "uint256"
        }
      ],
      "name": "getChainInfo",
      "outputs": [
        {
          "components": [
            {
              "internalType": "uint256",
              "name": "chainId",
              "type": "uint256"
            },
            {
              "internalType": "address",
              "name": "governanceContract",
              "type": "address"
            },
            {
              "internalType": "uint256",
              "name": "votingPower",
              "type": "uint256"
            },
            {
              "internalType": "bool",
              "name": "active",
              "type": "bool"
            },
            {
              "internalType": "uint256",
              "name": "lastProposalId",
              "type": "uint256"
            }
          ],
          "internalType": "struct CrossChainGovernance.ChainInfo",
          "name": "",
          "type": "tuple"
        }
      ],
      "stateMutability": "view",
      "type": "function"
    },
    {
      "inputs": [
        {
          "internalType": "uint256",
          "name": "_proposalId",
          "type": "uint256"
        },
        {
          "internalType": "uint256",
          "name": "_chainId",
          "type": "uint256"
        }
      ],
      "name": "getChainVotes",
      "outputs": [
        {
          "internalType": "uint256",
          "name": "",
          "type": "uint256"
        }
      ],
      "stateMutability": "view",
      "type": "function"
    },
    {
      "inputs": [
        {
          "internalType": "uint256",
          "name": "_proposalId",
          "type": "uint256"
        }
      ],
      "name": "getCrossChainProposal",
      "outputs": [
        {
          "internalType": "uint256",
          "name": "id",
          "type": "uint256"
        },
        {
          "internalType": "uint256",
          "name": "originChainId",
          "type": "uint256"
        },
        {
          "internalType": "string",
          "name": "description",
          "type": "string"
        },
        {
          "internalType": "uint256",
          "name": "totalVotes",
          "type": "uint256"
        },
        {
          "internalType": "uint256",
          "name": "startTime",
          "type": "uint256"
        },
        {
          "internalType": "uint256",
          "name": "endTime",
          "type": "uint256"
        },
        {
          "internalType": "enum CrossChainGovernance.ProposalStatus",
          "name": "status",
          "type": "uint8"
        },
        {
          "internalType": "bool",
          "name": "executed",
          "type": "bool"
        }
      ],
      "stateMutability": "view",
      "type": "function"
    },
    {
      "inputs": [
        {
          "internalType": "address",
          "name": "_staker",
          "type": "address"
        }
      ],
      "name": "getStakerInfo",
      "outputs": [
        {
          "components": [
            {
              "internalType": "uint256",
              "name": "stakedAmount",
              "type": "uint256"
            },
            {
              "internalType": "uint256",
              "name": "votingPower",
              "type": "uint256"
            },
            {
              "internalType": "uint256",
              "name": "lastStakeTime",
              "type": "uint256"
            },
            {
              "internalType": "uint256",
              "name": "rewards",
              "type": "uint256"
            }
          ],
          "internalType": "struct CrossChainGovernance.StakerInfo",
          "name": "",
          "type": "tuple"
        }
      ],
      "stateMutability": "view",
      "type": "function"
    },
    {
      "inputs": [
        {
          "internalType": "address",
          "name": "_decentralizedOracle",
          "type": "address"
        }
      ],
      "name": "initialize",
      "outputs": [],
      "stateMutability": "nonpayable",
      "type": "function"
    },
    {
      "inputs": [],
      "name": "nextProposalId",
      "outputs": [
        {
          "internalType": "uint256",
          "name": "",
          "type": "uint256"
        }
      ],
      "stateMutability": "view",
      "type": "function"
    },
    {
      "inputs": [],
      "name": "owner",
      "outputs": [
        {
          "internalType": "address",
          "name": "",
          "type": "address"
        }
      ],
      "stateMutability": "view",
      "type": "function"
    },
    {
      "inputs": [
        {
          "internalType": "bytes32",
          "name": "",
          "type": "bytes32"
        }
      ],
      "name": "processedMessages",
      "outputs": [
        {
          "internalType": "bool",
          "name": "",
          "type": "bool"
        }
      ],
      "stateMutability": "view",
      "type": "function"
    },
    {
      "inputs": [],
      "name": "proxiableUUID",
      "outputs": [
        {
          "internalType": "bytes32",
          "name": "",
          "type": "bytes32"
        }
      ],
      "stateMutability": "view",
      "type": "function"
    },
    {
      "inputs": [],
      "name": "quorumThreshold",
      "outputs": [
        {
          "internalType": "uint256",
          "name": "",
          "type": "uint256"
        }
      ],
      "stateMutability": "view",
      "type": "function"
    },
    {
      "inputs": [
        {
          "internalType": "address",
          "name": "_validator",
          "type": "address"
        }
      ],
      "name": "removeBridgeValidator",
      "outputs": [],
      "stateMutability": "nonpayable",
      "type": "function"
    },
    {
      "inputs": [
        {
          "internalType": "uint256",
          "name": "_chainId",
          "type": "uint256"
        }
      ],
      "name": "removeChain",
      "outputs": [],
      "stateMutability": "nonpayable",
      "type": "function"
    },
    {
      "inputs": [],
      "name": "renounceOwnership",
      "outputs": [],
      "stateMutability": "nonpayable",
      "type": "function"
    },
    {
      "inputs": [],
      "name": "rewardRate",
      "outputs": [
        {
          "internalType": "uint256",
          "name": "",
          "type": "uint256"
        }
      ],
      "stateMutability": "view",
      "type": "function"
    },
    {
      "inputs": [
        {
          "internalType": "uint256",
          "name": "_amount",
          "type": "uint256"
        }
      ],
      "name": "stakeForVotingPower",
      "outputs": [],
      "stateMutability": "payable",
      "type": "function"
    },
    {
      "inputs": [
        {
          "internalType": "address",
          "name": "",
          "type": "address"
        }
      ],
      "name": "stakers",
      "outputs": [
        {
          "internalType": "uint256",
          "name": "stakedAmount",
          "type": "uint256"
        },
        {
          "internalType": "uint256",
          "name": "votingPower",
          "type": "uint256"
        },
        {
          "internalType": "uint256",
          "name": "lastStakeTime",
          "type": "uint256"
        },
        {
          "internalType": "uint256",
          "name": "rewards",
          "type": "uint256"
        }
      ],
      "stateMutability": "view",
      "type": "function"
    },
    {
      "inputs": [
        {
          "components": [
            {
              "internalType": "uint256",
              "name": "proposalId",
              "type": "uint256"
            },
            {
              "internalType": "uint256",
              "name": "sourceChainId",
              "type": "uint256"
            },
            {
              "internalType": "uint256",
              "name": "targetChainId",
              "type": "uint256"
            },
            {
              "internalType": "address",
              "name": "voter",
              "type": "address"
            },
            {
              "internalType": "uint256",
              "name": "votes",
              "type": "uint256"
            },
            {
              "internalType": "bytes",
              "name": "signature",
              "type": "bytes"
            },
            {
              "internalType": "uint256",
              "name": "timestamp",
              "type": "uint256"
            },
            {
              "internalType": "bytes32",
              "name": "messageHash",
              "type": "bytes32"
            }
          ],
          "internalType": "struct CrossChainGovernance.BridgeMessage",
          "name": "_message",
          "type": "tuple"
        }
      ],
      "name": "submitCrossChainVote",
      "outputs": [],
      "stateMutability": "nonpayable",
      "type": "function"
    },
    {
      "inputs": [],
      "name": "totalStaked",
      "outputs": [
        {
          "internalType": "uint256",
          "name": "",
          "type": "uint256"
        }
      ],
      "stateMutability": "view",
      "type": "function"
    },
    {
      "inputs": [],
      "name": "totalVotingPower",
      "outputs": [
        {
          "internalType": "uint256",
          "name": "",
          "type": "uint256"
        }
      ],
      "stateMutability": "view",
      "type": "function"
    },
    {
      "inputs": [
        {
          "internalType": "address",
          "name": "newOwner",
          "type": "address"
        }
      ],
      "name": "transferOwnership",
      "outputs": [],
      "stateMutability": "nonpayable",
      "type": "function"
    },
    {
      "inputs": [
        {
          "internalType": "uint256",
          "name": "_amount",
          "type": "uint256"
        }
      ],
      "name": "unstake",
      "outputs": [],
      "stateMutability": "nonpayable",
      "type": "function"
    },
    {
      "inputs": [
        {
          "internalType": "uint256",
          "name": "_chainId",
          "type": "uint256"
        },
        {
          "internalType": "uint256",
          "name": "_newVotingPower",
          "type": "uint256"
        }
      ],
      "name": "updateChainVotingPower",
      "outputs": [],
      "stateMutability": "nonpayable",
      "type": "function"
    },
    {
      "inputs": [
        {
          "internalType": "uint256",
          "name": "_votingPeriod",
          "type": "uint256"
        },
        {
          "internalType": "uint256",
          "name": "_executionDelay",
          "type": "uint256"
        },
        {
          "internalType": "uint256",
          "name": "_quorumThreshold",
          "type": "uint256"
        }
      ],
      "name": "updateVotingParameters",
      "outputs": [],
      "stateMutability": "nonpayable",
      "type": "function"
    },
    {
      "inputs": [
        {
          "internalType": "address",
          "name": "newImplementation",
          "type": "address"
        },
        {
          "internalType": "bytes",
          "name": "data",
          "type": "bytes"
        }
      ],
      "name": "upgradeToAndCall",
      "outputs": [],
      "stateMutability": "payable",
      "type": "function"
    },
    {
      "inputs": [
        {
          "components": [
            {
              "internalType": "uint256",
              "name": "proposalId",
              "type": "uint256"
            },
            {
              "internalType": "uint256",
              "name": "sourceChainId",
              "type": "uint256"
            },
            {
              "internalType": "uint256",
              "name": "targetChainId",
              "type": "uint256"
            },
            {
              "internalType": "address",
              "name": "voter",
              "type": "address"
            },
            {
              "internalType": "uint256",
              "name": "votes",
              "type": "uint256"
            },
            {
              "internalType": "bytes",
              "name": "signature",
              "type": "bytes"
            },
            {
              "internalType": "uint256",
              "name": "timestamp",
              "type": "uint256"
            },
            {
              "internalType": "bytes32",
              "name": "messageHash",
              "type": "bytes32"
            }
          ],
          "internalType": "struct CrossChainGovernance.BridgeMessage",
          "name": "_message",
          "type": "tuple"
        }
      ],
      "name": "verifyBridgeMessage",
      "outputs": [
        {
          "internalType": "bool",
          "name": "",
          "type": "bool"
        }
      ],
      "stateMutability": "view",
      "type": "function"
    },
    {
      "inputs": [],
      "name": "votingPeriod",
      "outputs": [
        {
          "internalType": "uint256",
          "name": "",
          "type": "uint256"
        }
      ],
      "stateMutability": "view",
      "type": "function"
    }
  ],
  "bytecode": "0x60a08060405234604557306080526001805562093a806006556202a300600755603c6008556064600f5561361c908161004b82396080518181816112fa01526114180152f35b600080fdfe608080604052600436101561001357600080fd5b60003560e01c908162cba0e91461297f575080630269b8c41461256b57806302a251a31461254d578063054a21121461222b5780630594f7a0146120525780630a385cc21461203057806314c8677a14611e075780631e6eee1b14611dd15780632ab09d1414611db35780632e17de7814611c515780633119bcfa14611bee578063372500ab14611aed5780633ba1900614611896578063441aeb5b146116ad57806348c0b0dc146116555780634f1ef286146113da578063526137a71461137457806352d1902d146112df5780635c35b0b1146112c757806364ab86751461129c57806365d2bb0914611149578063671b37931461112b578063715018a614611092578063733bdef014610ff05780637b0a47ee14610fd25780637b7a91dd14610fb4578063804ea33414610f0c578063817b1cd214610eee578063824ea8ed14610ec65780638305b8c414610e9f578063889e01a414610e6057806388ba16ab14610e2f5780638b25798914610e115780638da5cb5b14610dcb5780639168ae7214610d6f57806394cc868314610cec57806398e9fefe14610c9457806399bf0bf014610be55780639a53b07014610ade578063ad3cb1cc14610a7b578063b029e6e6146108fe578063c4d66de8146105b7578063c97d172e1461057f578063cb5b43fd14610531578063cbf50bb614610408578063cd8f04f3146102ed578063ea0d15b01461025e5763f2fde38b1461022e57600080fd5b346102595760203660031901126102595761025761024a612c26565b6102526132a1565b6131e2565b005b600080fd5b3461025957602036600319011261025957610277613140565b50600435600052600c60205260a0604060002060405161029681612b4b565b81549182825260018101546020830190815260028201549060408401918252608060046003850154946060870195865201549401938452604051948552516020850152516040840152516060830152516080820152f35b602036600319011261025957600435610304613302565b8034036103c45733600052600d6020526040600020600161271061034d61032c858554612e58565b8085554260028601558290683635c9adc5dea000008110156103ba57612eb7565b04910190815561035f82600e54612e58565b600e555460405191825260208201527fc1df6c25a250d1ad8150457a01ec349b51ff321172c02825da09230a05c8548460403392a260017f9b779b17422d0df92223018b32b4d1fa46e071723d6817e2486d003becc55f0055005b612ee09150612eb7565b606460405162461bcd60e51b815260206004820152601660248201527f496e636f7272656374207374616b6520616d6f756e74000000000000000000006044820152fd5b34610259576020366003190112610259576004356104246132a1565b80600052600260205261044160ff60036040600020015416612eca565b80600052600260205261046a600260406000206003810160ff1981541690550154600954612e00565b60095560005b60035480821015610257578261048583612dcf565b90549060031b1c1461049a5750600101610470565b60001981019250821161051b576104c36104b66104dc93612dcf565b90549060031b1c91612dcf565b90919082549060031b91821b91600019901b1916179055565b600354801561050557600019016104f281612dcf565b8154600019600392831b1b191690915555005b634e487b7160e01b600052603160045260246000fd5b634e487b7160e01b600052601160045260246000fd5b346102595760403660031901126102595761054a612c10565b60043560005260056020526001600160a01b0360406000209116600052602052602060ff604060002054166040519015158152f35b3461025957602036600319011261025957600435600354811015610259576105a8602091612dcf565b90549060031b1c604051908152f35b34610259576020366003190112610259576105d0612c26565b7ff0c57e16840df040f15088dc2f81fe391c3923bec73e23a9662efc9c229c6a005460ff8160401c16159167ffffffffffffffff8216801590816108f6575b60011490816108ec575b1590816108e3575b506108b95767ffffffffffffffff1982166001177ff0c57e16840df040f15088dc2f81fe391c3923bec73e23a9662efc9c229c6a00556001600160a01b03918361087a575b5061066f613474565b610677613474565b610680336131e2565b610688613474565b610690613474565b60017f9b779b17422d0df92223018b32b4d1fa46e071723d6817e2486d003becc55f00556106bc613474565b166001600160a01b0319600b541617600b556040516106da81612b4b565b46815260046020820130815261075a60408401606481526060850190600182526001600160a01b0360808701946000865246600052600260205260406000209751885551166001600160a01b036001880191166001600160a01b0319825416179055516002860155511515600385019060ff801983541691151516179055565b51910155600354680100000000000000008110156108645761078581600161079d9301600355612dcf565b469082549060031b91821b91600019901b1916179055565b6009546064810180911161051b57600955604051308152606460208201527feb1ba1658251d730fb9227c18dc73acbc35693097b4e21ae20ef35e6e78afd5b60404692a26107e757005b68ff0000000000000000197ff0c57e16840df040f15088dc2f81fe391c3923bec73e23a9662efc9c229c6a0054167ff0c57e16840df040f15088dc2f81fe391c3923bec73e23a9662efc9c229c6a00557fc7f505b2f371ae2175ee4913f4499e1f2633a7b5936321eed1cdaeb6115181d2602060405160018152a1005b634e487b7160e01b600052604160045260246000fd5b68ffffffffffffffffff191668010000000000000001177ff0c57e16840df040f15088dc2f81fe391c3923bec73e23a9662efc9c229c6a005583610666565b7ff92ee8a90000000000000000000000000000000000000000000000000000000060005260046000fd5b90501584610621565b303b159150610619565b84915061060f565b346102595760203660031901126102595760043561091a6132a1565b8060005260006020526040600020600c8101805460ff8160081c166005811015610a6557600203610a21578061095560ff6001931615612f15565b61ff001990911661ffff199091161761040017905560058101546001600160a01b031690816109a7575b827fcd39ef99e15498b654c9f19d8ab1d1bb602d5b9daffd395e5e2633cef53e5e14600080a2005b600091600482600685940154906109c46040518094819301612f60565b03925af16109d0612fce565b50156109dd57818061097f565b606460405162461bcd60e51b815260206004820152601a60248201527f456d657267656e637920657865637574696f6e206661696c65640000000000006044820152fd5b606460405162461bcd60e51b815260206004820152601660248201527f50726f706f73616c206e6f7420737563636565646564000000000000000000006044820152fd5b634e487b7160e01b600052602160045260246000fd5b3461025957600036600319011261025957610ada6040805190610a9e8183612ba0565b600582527f352e302e30000000000000000000000000000000000000000000000000000000602083015251918291602083526020830190612bc2565b0390f35b34610259576020366003190112610259576001600160a01b03610aff612c26565b610b076132a1565b1680600052600460205260ff6040600020541615610ba1576000818152600460205260408120805460ff191690555b600354811015610b795780610b4c600192612dcf565b90549060031b1c60005260056020526040806000206000908582526020522060ff19815416905501610b36565b507f78c1b6e2c928d89e7295ddf04b58fe1518b96d2a00828edd3dfc80eec3848ebf600080a2005b606460405162461bcd60e51b815260206004820152600f60248201527f4e6f7420612076616c696461746f7200000000000000000000000000000000006044820152fd5b346102595760203660031901126102595760043560005260006020526040600020805460018201549160ff6009820154916007810154600882015490610c666003610c46600c86015495610c3f6040518094819301612ac8565b0382612ba0565b604051988998895260208901526101006040890152610100880190612bc2565b946060870152608086015260a0850152610c8860c08501838360081c16612c03565b16151560e08301520390f35b3461025957602036600319011261025957610cad6132a1565b6004356000526000602052600c60406000200160ff815460081c166005811015610a65576001610cdd9114612e0d565b805461ff001916610300179055005b346102595760003660031901126102595760405180602060035491828152019060036000527fc2575a0e9e593c00f959f8c92f12db2869c3395a3b0502d05e2516446f71f85b9060005b818110610d5957610ada85610d4d81870382612ba0565b60405191829182612d95565b8254845260209093019260019283019201610d36565b34610259576020366003190112610259576001600160a01b03610d90612c26565b16600052600d602052608060406000208054906001810154906003600282015491015491604051938452602084015260408301526060820152f35b346102595760003660031901126102595760206001600160a01b037f9016d09d72d40fdae2fd8ceac6b6234c7706214fd39c1cd1e609a0528c1993005416604051908152f35b34610259576000366003190112610259576020600754604051908152f35b3461025957602036600319011261025957600435600052600a602052602060ff604060002054166040519015158152f35b34610259576020366003190112610259576001600160a01b03610e81612c26565b166000526004602052602060ff604060002054166040519015158152f35b346102595760003660031901126102595760206001600160a01b03600b5416604051908152f35b34610259576020366003190112610259576020610ee460043561316b565b6040519015158152f35b34610259576000366003190112610259576020600e54604051908152f35b3461025957602036600319011261025957610f25613140565b50600435600052600260205260a06040600020604051610f4481612b4b565b8154918282526001600160a01b03600182015416602083019081526001600160a01b03600283015491604085019283526080600460ff6003870154169560608801961515875201549501948552604051958652511660208501525160408401525115156060830152516080820152f35b34610259576000366003190112610259576020600854604051908152f35b34610259576000366003190112610259576020600f54604051908152f35b34610259576020366003190112610259576001600160a01b03611011612c26565b6000606060405161102181612b84565b828152826020820152826040820152015216600052600d6020526080604060002060405161104e81612b84565b815491828252600181015460208301908152606060036002840154936040860194855201549301928352604051938452516020840152516040830152516060820152f35b34610259576000366003190112610259576110ab6132a1565b60006001600160a01b037f9016d09d72d40fdae2fd8ceac6b6234c7706214fd39c1cd1e609a0528c199300546001600160a01b031981167f9016d09d72d40fdae2fd8ceac6b6234c7706214fd39c1cd1e609a0528c19930055167f8be0079c531659141344cd1fd0a4f28419497f9722a3daafe3b4186f6b6457e08280a3005b34610259576000366003190112610259576020600954604051908152f35b346102595761115736612d65565b9190600060e060405161116981612b67565b828152826020820152826040820152826060820152826080820152606060a08201528260c0820152015260405160208101906111e9816111db42883388468b8a929360a0946001600160a01b03929897969360c086019986526020860152604085015216606083015260808201520152565b03601f198101835282612ba0565b519020604051926111f984612b67565b835261128a6020840192468452604085019081526060850195338752608086019081526001600160a01b03602097604051936112358a86612ba0565b6000855260a0890194855260c089019742895260e08a019788526040519a8b9a818c5251908b01525160408a0152516060890152511660808701525160a08601525161010060c0860152610120850190612bc2565b915160e0840152516101008301520390f35b346102595760203660031901126102595760206112bf6112ba612c26565b6130f0565b604051908152f35b34610259576020610ee46112da36612cad565b612ffe565b34610259576000366003190112610259576001600160a01b037f000000000000000000000000000000000000000000000000000000000000000016300361134a5760206040517f360894a13ba1a3210667c828492db98dca3e2076cc3735a920a3ca505d382bbc8152f35b7fe07c8dba0000000000000000000000000000000000000000000000000000000060005260046000fd5b3461025957602036600319011261025957600435600052600260205260a060406000208054906001600160a01b03600182015416906002810154600460ff6003840154169201549260405194855260208501526040840152151560608301526080820152f35b6040366003190112610259576113ee612c26565b60243567ffffffffffffffff81116102595761140e903690600401612c8f565b6001600160a01b037f000000000000000000000000000000000000000000000000000000000000000016803014908115611620575b5061134a576114506132a1565b6001600160a01b038216916040517f52d1902d000000000000000000000000000000000000000000000000000000008152602081600481875afa600091816115ec575b506114ad5783634c9c8ce360e01b60005260045260246000fd5b807f360894a13ba1a3210667c828492db98dca3e2076cc3735a920a3ca505d382bbc8592036115bf5750813b156115ab57806001600160a01b03197f360894a13ba1a3210667c828492db98dca3e2076cc3735a920a3ca505d382bbc5416177f360894a13ba1a3210667c828492db98dca3e2076cc3735a920a3ca505d382bbc557fbc7cd75a20ee27fd9adebab32041f755214dbc6bffa90cc0225b39da2e5c2d3b600080a28151156115785760008083602061025795519101845af4611572612fce565b91613556565b50503461158157005b7fb398979f0000000000000000000000000000000000000000000000000000000060005260046000fd5b634c9c8ce360e01b60005260045260246000fd5b7faa1d49a40000000000000000000000000000000000000000000000000000000060005260045260246000fd5b9091506020813d602011611618575b8161160860209383612ba0565b8101031261025957519085611493565b3d91506115fb565b90506001600160a01b037f360894a13ba1a3210667c828492db98dca3e2076cc3735a920a3ca505d382bbc5416141583611443565b3461025957602036600319011261025957600435600052600c60205260a06040600020805490600181015490600281015460046003830154920154926040519485526020850152604084015260608301526080820152f35b34610259576040366003190112610259576116c6612c26565b6024359067ffffffffffffffff821161025957366023830112156102595781600401359167ffffffffffffffff8311610864578260051b6040519361170e6020830186612ba0565b8452602460208501918301019136831161025957602401905b82821061188657846001600160a01b03856117406132a1565b169081600052600460205260ff60406000205416611842576000828152600460205260408120805460ff191660011790555b815181101561180b5760009060208160051b84010151808352600260205260ff600360408520015416156117c75782604091600194526005602052818120868252602052208260ff1982541617905501611772565b606460405162461bcd60e51b815260206004820152601060248201527f496e76616c696420636861696e204944000000000000000000000000000000006044820152fd5b5061183d7f27d589d7fddcf4bb5840d06802035f1fc4ad5297487057a612334057243866799160405191829182612d95565b0390a2005b606460405162461bcd60e51b815260206004820152601360248201527f416c726561647920612076616c696461746f72000000000000000000000000006044820152fd5b8135815260209182019101611727565b34610259576020366003190112610259576004356118b2613302565b8060005260006020526040600020600c8101805460ff8160081c166005811015610a655760016118e29114612e0d565b60088301908154421115611aa95760ff6118fd911615612f15565b606461190e60095460085490612eb7565b04600984015410611a6557815461ff0019166102001782555460075461193391612e58565b4210611a2157805461ffff191661040117905560058101546001600160a01b031690816119a7575b827fcd39ef99e15498b654c9f19d8ab1d1bb602d5b9daffd395e5e2633cef53e5e14600080a260017f9b779b17422d0df92223018b32b4d1fa46e071723d6817e2486d003becc55f0055005b600091600482600685940154906119c46040518094819301612f60565b03925af16119d0612fce565b50156119dd57818061195b565b606460405162461bcd60e51b815260206004820152601960248201527f50726f706f73616c20657865637574696f6e206661696c6564000000000000006044820152fd5b606460405162461bcd60e51b815260206004820152601a60248201527f457865637574696f6e2064656c6179206e6f74207061737365640000000000006044820152fd5b606460405162461bcd60e51b815260206004820152601260248201527f51756f72756d206e6f74207265616368656400000000000000000000000000006044820152fd5b606460405162461bcd60e51b815260206004820152601060248201527f566f74696e67206e6f7420656e646564000000000000000000000000000000006044820152fd5b3461025957600036600319011261025957611b06613302565b33600052600d60205260406000206003810190611b2d8254611b27336130f0565b90612e58565b918215611baa57600090556002429101556000808080843382f115611b9e576040519081527ffc30cddea38e2bf4d6ea7d3f9ed3b6ad7f176419f4963bd81318067a4aee73fe60203392a260017f9b779b17422d0df92223018b32b4d1fa46e071723d6817e2486d003becc55f0055005b6040513d6000823e3d90fd5b606460405162461bcd60e51b815260206004820152601360248201527f4e6f207265776172647320746f20636c61696d000000000000000000000000006044820152fd5b3461025957611bfc36612d7f565b90611c056132a1565b806000526002602052611c2260ff60036040600020015416612eca565b60005260026020526040600020611c4b82611c466002600954940193845490612e00565b612e58565b60095555005b3461025957602036600319011261025957600435611c6d613302565b33600052600d60205260406000208054828110611d6f5782611c8e91612e00565b8155611c9c82600e54612e00565b600e55805461271090611cc790683635c9adc5dea000008110611d665761ffff612ee05b1690612eb7565b0460018201556003611cd8336130f0565b9101611ce5828254612e58565b90556000808080611cf68587612e58565b818115611d5d575b3390f115611b9e5760405191825260208201527f7fc4727e062e336010f2c282598ef5f14facb3de68cf8195c2f23e1454b2b74e60403392a260017f9b779b17422d0df92223018b32b4d1fa46e071723d6817e2486d003becc55f0055005b506108fc611cfe565b61ffff83611cc0565b606460405162461bcd60e51b815260206004820152601a60248201527f496e73756666696369656e74207374616b656420616d6f756e740000000000006044820152fd5b34610259576000366003190112610259576020600154604051908152f35b3461025957611ddf36612d7f565b906000526000602052600a604060002001906000526020526020604060002054604051908152f35b3461025957602036600319011261025957611f1060043580600052600060205260606001600160a01b03600b5416604051907f70726f706f73616c5f000000000000000000000000000000000000000000000060208301528360298301527f5f616e616c797369730000000000000000000000000000000000000000000000604983015260328252611e9a605283612ba0565b60405180809681947f52ee0b7700000000000000000000000000000000000000000000000000000000835260056004840152866024840152600a60648401527f676f7665726e616e636500000000000000000000000000000000000000000000608484015260a0604484015260a4830190612bc2565b03915afa918215611b9e57600092611ff9575b50610ada606583069160656305f5e100620f4240606487040695040690604051611f4c81612b4b565b818152600460208201868152604083018881526060840190868252608085019242845286600052600c602052604060002095518655516001860155516002850155516003840155519101557f6b0a08ffa965ef7da4fe80a2aa533dea2ec4517ec74bbcd124d812d77621dfad60405180611fd9858989846040919493926060820195825260208201520152565b0390a2604051938493846040919493926060820195825260208201520152565b90916060823d606011612028575b8161201460609383612ba0565b810103126120255750519082611f23565b80fd5b3d9150612007565b346102595761203e36612d65565b916120476132a1565b600655600755600855005b346102595760603660031901126102595760043561206e612c10565b6044359061207a6132a1565b4683146121e7578260005260026020526001600160a01b03600160406000200154166121a3576040516120ac81612b4b565b83815260046001600160a01b0360208301931692838152612136604084018681526060850190600182526001600160a01b036080870194600086528a600052600260205260406000209751885551166001600160a01b036001880191166001600160a01b0319825416179055516002860155511515600385019060ff801983541691151516179055565b519101556003549068010000000000000000821015610864577feb1ba1658251d730fb9227c18dc73acbc35693097b4e21ae20ef35e6e78afd5b92612187856104c385600160409701600355612dcf565b61219381600954612e58565b60095582519182526020820152a2005b606460405162461bcd60e51b815260206004820152601460248201527f436861696e20616c7265616479206578697374730000000000000000000000006044820152fd5b606460405162461bcd60e51b815260206004820152601860248201527f43616e6e6f74206164642063757272656e7420636861696e00000000000000006044820152fd5b346102595760803660031901126102595760043567ffffffffffffffff811161025957366023820112156102595761226d903690602481600401359101612c58565b60243567ffffffffffffffff81116102595761228d903690600401612c8f565b90604435916001600160a01b03831683036102595760015491600019831461051b57600183016001558260005260006020526040600020838155466001820155600281016001600160a01b0330166001600160a01b031982541617905560038101825167ffffffffffffffff8111610864576123138161230d8454612a8e565b84612e65565b6020601f82116001146124e9579080612342926000916124de575b508160011b916000199060031b1c19161790565b90555b8251946004820167ffffffffffffffff87116108645786869561237460209961236e8554612a8e565b85612e65565b8890601f831160011461244b57926123cf8361243597947f39d3071f5540d563014c20f80d9a339c1c14c0ad31d74411040cc843948268af999794600c97600092612440575b50508160011b916000199060031b1c19161790565b90555b6001600160a01b036005830191166001600160a01b0319825416179055606435600682015542600782015561240960065442612e58565b60088201550161010061ff00198254161790556040519182914683526040888401526040830190612bc2565b0390a2604051908152f35b015190508d806123ba565b90601f1983169184600052816000209260005b8181106124c45750937f39d3071f5540d563014c20f80d9a339c1c14c0ad31d74411040cc843948268af989693600c9693600193836124359b98106124ab575b505050811b0190556123d2565b015160001960f88460031b161c191690558c808061249e565b8284015185558b9a50600190940193928c01928c0161245e565b90508501518961232e565b601f1982169083600052806000209160005b8181106125355750908360019493921061251c575b5050811b019055612345565b86015160001960f88460031b161c191690558880612510565b9192602060018192868b0151815501940192016124fb565b34610259576000366003190112610259576020600654604051908152f35b346102595761257936612cad565b33600052600460205260ff604060002054161561293b5760208101908151600052600560205260406000206001600160a01b03331660005260205260ff60406000205416156128f75760e08101908151600052600a60205260ff604060002054166128b357604081018051460361286f578151845191519060608401906001600160a01b038251169261265660808701956111db87519660c08a019788519160405196879560208701998a929360a0946001600160a01b03929897969360c086019986526020860152604085015216606083015260808201520152565b519020908551820361282b576001600160a01b03809161267e6126879460a08901519061337b565b909591956133b7565b51169116036127e75761269e610e10915142612e00565b116127a3578151600052600060205260406000209160ff600c84015460081c166005811015610a655760016126d39114612e0d565b6008830154421161275f577fe4e34dc751637ec788b0b06c07291a36566ce7a6ca12fb34ad0887c609e0b15c9360409383518751600052600a820160205261272086600020918254612e58565b9055612733600985519201918254612e58565b905551600052600a60205282600020600160ff19825416179055519351905182519182526020820152a2005b606460405162461bcd60e51b815260206004820152600c60248201527f566f74696e6720656e64656400000000000000000000000000000000000000006044820152fd5b606460405162461bcd60e51b815260206004820152600f60248201527f4d65737361676520746f6f206f6c6400000000000000000000000000000000006044820152fd5b606460405162461bcd60e51b815260206004820152601160248201527f496e76616c6964207369676e61747572650000000000000000000000000000006044820152fd5b606460405162461bcd60e51b815260206004820152601460248201527f496e76616c6964206d65737361676520686173680000000000000000000000006044820152fd5b606460405162461bcd60e51b815260206004820152601260248201527f57726f6e672074617267657420636861696e00000000000000000000000000006044820152fd5b606460405162461bcd60e51b815260206004820152601960248201527f4d65737361676520616c72656164792070726f636573736564000000000000006044820152fd5b606460405162461bcd60e51b815260206004820152601d60248201527f4e6f7420617574686f72697a656420666f72207468697320636861696e0000006044820152fd5b606460405162461bcd60e51b815260206004820152601660248201527f4e6f742061206272696467652076616c696461746f72000000000000000000006044820152fd5b346102595760203660031901126102595760209060043560005260008252604060002090610ada8254926001810154906001600160a01b036002820154166129d5856129ce8160038601612ac8565b0386612ba0565b604051946129f1866129ea8160048701612ac8565b0387612ba0565b6001600160a01b0360058401541695612a55600685015491612a47600787015494600888015496600c60098a0154990154996040519e8f9e8f908152015260408d015261018060608d01526101808c0190612bc2565b908a820360808c0152612bc2565b9660a089015260c088015260e087015261010086015261012085015260ff8116151561014085015260ff61016085019160081c16612c03565b90600182811c92168015612abe575b6020831014612aa857565b634e487b7160e01b600052602260045260246000fd5b91607f1691612a9d565b60009291815491612ad883612a8e565b8083529260018116908115612b2e5750600114612af457505050565b60009081526020812093945091925b838310612b14575060209250010190565b600181602092949394548385870101520191019190612b03565b915050602093945060ff929192191683830152151560051b010190565b60a0810190811067ffffffffffffffff82111761086457604052565b610100810190811067ffffffffffffffff82111761086457604052565b6080810190811067ffffffffffffffff82111761086457604052565b90601f8019910116810190811067ffffffffffffffff82111761086457604052565b919082519283825260005b848110612bee575050826000602080949584010152601f8019910116010190565b80602080928401015182828601015201612bcd565b906005821015610a655752565b602435906001600160a01b038216820361025957565b600435906001600160a01b038216820361025957565b67ffffffffffffffff811161086457601f01601f191660200190565b929192612c6482612c3c565b91612c726040519384612ba0565b829481845281830111610259578281602093846000960137010152565b9080601f8301121561025957816020612caa93359101612c58565b90565b6020600319820112610259576004359067ffffffffffffffff82116102595761010082820360031901126102595760405191612ce883612b67565b80600401358352602481013560208401526044810135604084015260648101356001600160a01b03811681036102595760608401526084810135608084015260a481013567ffffffffffffffff81116102595760e4926004612d4c92840101612c8f565b60a084015260c481013560c0840152013560e082015290565b606090600319011261025957600435906024359060443590565b6040906003190112610259576004359060243590565b602060408183019282815284518094520192019060005b818110612db95750505090565b8251845260209384019390920191600101612dac565b600354811015612dea57600360005260206000200190600090565b634e487b7160e01b600052603260045260246000fd5b9190820391821161051b57565b15612e1457565b606460405162461bcd60e51b815260206004820152601360248201527f50726f706f73616c206e6f7420616374697665000000000000000000000000006044820152fd5b9190820180921161051b57565b601f8211612e7257505050565b6000526020600020906020601f840160051c83019310612ead575b601f0160051c01905b818110612ea1575050565b60008155600101612e96565b9091508190612e8d565b8181029291811591840414171561051b57565b15612ed157565b606460405162461bcd60e51b815260206004820152601060248201527f436861696e206e6f7420616374697665000000000000000000000000000000006044820152fd5b15612f1c57565b606460405162461bcd60e51b815260206004820152601060248201527f416c7265616479206578656375746564000000000000000000000000000000006044820152fd5b60009291815491612f7083612a8e565b9260018116908115612fbb5750600114612f8957505050565b909192935060005260206000206000905b838210612fa75750500190565b600181602092548486015201910190612f9a565b60ff191683525050811515909102019150565b3d15612ff9573d90612fdf82612c3c565b91612fed6040519384612ba0565b82523d6000602084013e565b606090565b60e08101908151600052600a60205260ff604060002054166130e9576040810191825146036130d85760c0820192610e1061303a855142612e00565b116130e0578251906130a760208501519151916111db60608701976001600160a01b0389511690608089015190519160405196879560208701998a929360a0946001600160a01b03929897969360c086019986526020860152604085015216606083015260808201520152565b51902090518091036130d8576130d09261267e6001600160a01b03939260a0859401519061337b565b511691161490565b505050600090565b50505050600090565b5050600090565b6001600160a01b0316600052600d602052604060002080549081156130e9576301e133809161271061313661312c600261313c95015442612e00565b92600f5490612eb7565b04612eb7565b0490565b6040519061314d82612b4b565b60006080838281528260208201528260408201528260608201520152565b60005260006020526040600020600c81015460ff8160081c166005811015610a6557600114908115916131d7575b506131d1576131af600882015460075490612e58565b4211156131d157600960646131c8825460085490612eb7565b04910154101590565b50600090565b60ff91501638613199565b6001600160a01b03168015613272576001600160a01b037f9016d09d72d40fdae2fd8ceac6b6234c7706214fd39c1cd1e609a0528c19930054826001600160a01b03198216177f9016d09d72d40fdae2fd8ceac6b6234c7706214fd39c1cd1e609a0528c19930055167f8be0079c531659141344cd1fd0a4f28419497f9722a3daafe3b4186f6b6457e0600080a3565b7f1e4fbdf700000000000000000000000000000000000000000000000000000000600052600060045260246000fd5b6001600160a01b037f9016d09d72d40fdae2fd8ceac6b6234c7706214fd39c1cd1e609a0528c199300541633036132d457565b7f118cdaa7000000000000000000000000000000000000000000000000000000006000523360045260246000fd5b60027f9b779b17422d0df92223018b32b4d1fa46e071723d6817e2486d003becc55f0054146133515760027f9b779b17422d0df92223018b32b4d1fa46e071723d6817e2486d003becc55f0055565b7f3ee5aeb50000000000000000000000000000000000000000000000000000000060005260046000fd5b81519190604183036133ac576133a592506020820151906060604084015193015160001a906134cd565b9192909190565b505060009160029190565b9190916004811015610a6557806133cd57509050565b600060018203613401577ff645eedf0000000000000000000000000000000000000000000000000000000060005260046000fd5b506002810361343857827ffce698f70000000000000000000000000000000000000000000000000000000060005260045260246000fd5b9091600360009214613448575050565b602492507fd78bce0c000000000000000000000000000000000000000000000000000000008252600452fd5b60ff7ff0c57e16840df040f15088dc2f81fe391c3923bec73e23a9662efc9c229c6a005460401c16156134a357565b7fd7e6bcf80000000000000000000000000000000000000000000000000000000060005260046000fd5b91907f7fffffffffffffffffffffffffffffff5d576e7357a4501ddfe92f46681b20a0841161354a579160209360809260ff60009560405194855216868401526040830152606082015282805260015afa15611b9e576000516001600160a01b0381161561353e5790600090600090565b50600090600190600090565b50505060009160039190565b90613595575080511561356b57602081519101fd5b7fd6bda2750000000000000000000000000000000000000000000000000000000060005260046000fd5b815115806135dd575b6135a6575090565b6001600160a01b03907f9996b315000000000000000000000000000000000000000000000000000000006000521660045260246000fd5b50803b1561359e56fea264697066735822122097a519e2c0c4aa7a3e3f45e0707ce5332084943c616f095cc6255fb944edfcea64736f6c634300081c0033",
  "linkReferences": {},
  "deployedLinkReferences": {}
}