{
  "_format": "hh-sol-artifact-1",
  "contractName": "AdvancedInsurance",
  "sourceName": "contracts/AdvancedInsurance.sol",
  "abi": [
    {
      "inputs": [
        {
          "internalType": "address",
          "name": "target",
          "type": "address"
        }
      ],
      "name": "AddressEmptyCode",
      "type": "error"
    },
    {
      "inputs": [
        {
          "internalType": "address",
          "name": "implementation",
          "type": "address"
        }
      ],
      "name": "ERC1967InvalidImplementation",
      "type": "error"
    },
    {
      "inputs": [],
      "name": "ERC1967NonPayable",
      "type": "error"
    },
    {
      "inputs": [],
      "name": "FailedCall",
      "type": "error"
    },
    {
      "inputs": [],
      "name": "InvalidInitialization",
      "type": "error"
    },
    {
      "inputs": [],
      "name": "NotInitializing",
      "type": "error"
    },
    {
      "inputs": [
        {
          "internalType": "address",
          "name": "owner",
          "type": "address"
        }
      ],
      "name": "OwnableInvalidOwner",
      "type": "error"
    },
    {
      "inputs": [
        {
          "internalType": "address",
          "name": "account",
          "type": "address"
        }
      ],
      "name": "OwnableUnauthorizedAccount",
      "type": "error"
    },
    {
      "inputs": [],
      "name": "ReentrancyGuardReentrantCall",
      "type": "error"
    },
    {
      "inputs": [],
      "name": "UUPSUnauthorizedCallContext",
      "type": "error"
    },
    {
      "inputs": [
        {
          "internalType": "bytes32",
          "name": "slot",
          "type": "bytes32"
        }
      ],
      "name": "UUPSUnsupportedProxiableUUID",
      "type": "error"
    },
    {
      "anonymous": false,
      "inputs": [
        {
          "indexed": true,
          "internalType": "uint256",
          "name": "bondId",
          "type": "uint256"
        },
        {
          "indexed": false,
          "internalType": "string",
          "name": "catastropheType",
          "type": "string"
        },
        {
          "indexed": false,
          "internalType": "uint256",
          "name": "coverageAmount",
          "type": "uint256"
        }
      ],
      "name": "CatastropheBondCreated",
      "type": "event"
    },
    {
      "anonymous": false,
      "inputs": [
        {
          "indexed": true,
          "internalType": "uint256",
          "name": "bondId",
          "type": "uint256"
        },
        {
          "indexed": true,
          "internalType": "address",
          "name": "investor",
          "type": "address"
        },
        {
          "indexed": false,
          "internalType": "uint256",
          "name": "amount",
          "type": "uint256"
        }
      ],
      "name": "CatastropheBondInvested",
      "type": "event"
    },
    {
      "anonymous": false,
      "inputs": [
        {
          "indexed": true,
          "internalType": "uint256",
          "name": "bondId",
          "type": "uint256"
        },
        {
          "indexed": false,
          "internalType": "uint256",
          "name": "triggerIndex",
          "type": "uint256"
        },
        {
          "indexed": false,
          "internalType": "uint256",
          "name": "payoutAmount",
          "type": "uint256"
        }
      ],
      "name": "CatastropheBondTriggered",
      "type": "event"
    },
    {
      "anonymous": false,
      "inputs": [
        {
          "indexed": true,
          "internalType": "uint256",
          "name": "policyId",
          "type": "uint256"
        },
        {
          "indexed": false,
          "internalType": "uint256",
          "name": "payoutAmount",
          "type": "uint256"
        }
      ],
      "name": "CrossChainClaimProcessed",
      "type": "event"
    },
    {
      "anonymous": false,
      "inputs": [
        {
          "indexed": true,
          "internalType": "uint256",
          "name": "policyId",
          "type": "uint256"
        },
        {
          "indexed": false,
          "internalType": "uint256",
          "name": "sourceChainId",
          "type": "uint256"
        },
        {
          "indexed": false,
          "internalType": "uint256",
          "name": "coverageAmount",
          "type": "uint256"
        }
      ],
      "name": "CrossChainPolicyCreated",
      "type": "event"
    },
    {
      "anonymous": false,
      "inputs": [
        {
          "indexed": false,
          "internalType": "uint256",
          "name": "amount",
          "type": "uint256"
        }
      ],
      "name": "EmergencyFundDeposited",
      "type": "event"
    },
    {
      "anonymous": false,
      "inputs": [
        {
          "indexed": false,
          "internalType": "uint256",
          "name": "amount",
          "type": "uint256"
        }
      ],
      "name": "EmergencyFundWithdrawn",
      "type": "event"
    },
    {
      "anonymous": false,
      "inputs": [
        {
          "indexed": false,
          "internalType": "uint64",
          "name": "version",
          "type": "uint64"
        }
      ],
      "name": "Initialized",
      "type": "event"
    },
    {
      "anonymous": false,
      "inputs": [
        {
          "indexed": false,
          "internalType": "string",
          "name": "parameter",
          "type": "string"
        },
        {
          "indexed": false,
          "internalType": "uint256",
          "name": "newValue",
          "type": "uint256"
        }
      ],
      "name": "InsuranceParameterProposed",
      "type": "event"
    },
    {
      "anonymous": false,
      "inputs": [
        {
          "indexed": true,
          "internalType": "uint256",
          "name": "poolId",
          "type": "uint256"
        },
        {
          "indexed": false,
          "internalType": "string",
          "name": "poolType",
          "type": "string"
        },
        {
          "indexed": false,
          "internalType": "uint256",
          "name": "capacity",
          "type": "uint256"
        }
      ],
      "name": "InsurancePoolCreated",
      "type": "event"
    },
    {
      "anonymous": false,
      "inputs": [
        {
          "indexed": true,
          "internalType": "address",
          "name": "previousOwner",
          "type": "address"
        },
        {
          "indexed": true,
          "internalType": "address",
          "name": "newOwner",
          "type": "address"
        }
      ],
      "name": "OwnershipTransferred",
      "type": "event"
    },
    {
      "anonymous": false,
      "inputs": [
        {
          "indexed": true,
          "internalType": "uint256",
          "name": "optionId",
          "type": "uint256"
        },
        {
          "indexed": true,
          "internalType": "address",
          "name": "buyer",
          "type": "address"
        },
        {
          "indexed": false,
          "internalType": "string",
          "name": "underlyingAsset",
          "type": "string"
        }
      ],
      "name": "ParametricOptionCreated",
      "type": "event"
    },
    {
      "anonymous": false,
      "inputs": [
        {
          "indexed": true,
          "internalType": "uint256",
          "name": "optionId",
          "type": "uint256"
        },
        {
          "indexed": false,
          "internalType": "uint256",
          "name": "payoutAmount",
          "type": "uint256"
        }
      ],
      "name": "ParametricOptionExercised",
      "type": "event"
    },
    {
      "anonymous": false,
      "inputs": [
        {
          "indexed": true,
          "internalType": "uint256",
          "name": "poolId",
          "type": "uint256"
        },
        {
          "indexed": true,
          "internalType": "address",
          "name": "contributor",
          "type": "address"
        },
        {
          "indexed": false,
          "internalType": "uint256",
          "name": "amount",
          "type": "uint256"
        }
      ],
      "name": "PoolContribution",
      "type": "event"
    },
    {
      "anonymous": false,
      "inputs": [
        {
          "indexed": true,
          "internalType": "uint256",
          "name": "claimId",
          "type": "uint256"
        },
        {
          "indexed": false,
          "internalType": "uint256",
          "name": "payoutAmount",
          "type": "uint256"
        }
      ],
      "name": "PrivateClaimProcessed",
      "type": "event"
    },
    {
      "anonymous": false,
      "inputs": [
        {
          "indexed": true,
          "internalType": "uint256",
          "name": "claimId",
          "type": "uint256"
        },
        {
          "indexed": true,
          "internalType": "uint256",
          "name": "policyId",
          "type": "uint256"
        },
        {
          "indexed": false,
          "internalType": "uint256",
          "name": "claimAmount",
          "type": "uint256"
        },
        {
          "indexed": false,
          "internalType": "bytes32",
          "name": "commitment",
          "type": "bytes32"
        }
      ],
      "name": "PrivateClaimSubmitted",
      "type": "event"
    },
    {
      "anonymous": false,
      "inputs": [
        {
          "indexed": true,
          "internalType": "uint256",
          "name": "derivativeId",
          "type": "uint256"
        },
        {
          "indexed": false,
          "internalType": "string",
          "name": "underlyingRisk",
          "type": "string"
        },
        {
          "indexed": false,
          "internalType": "uint256",
          "name": "notionalAmount",
          "type": "uint256"
        },
        {
          "indexed": false,
          "internalType": "uint256",
          "name": "strikeLevel",
          "type": "uint256"
        }
      ],
      "name": "RiskDerivativeCreated",
      "type": "event"
    },
    {
      "anonymous": false,
      "inputs": [
        {
          "indexed": true,
          "internalType": "uint256",
          "name": "derivativeId",
          "type": "uint256"
        },
        {
          "indexed": false,
          "internalType": "uint256",
          "name": "riskValue",
          "type": "uint256"
        },
        {
          "indexed": false,
          "internalType": "int256",
          "name": "payout",
          "type": "int256"
        }
      ],
      "name": "RiskDerivativeSettled",
      "type": "event"
    },
    {
      "anonymous": false,
      "inputs": [
        {
          "indexed": true,
          "internalType": "address",
          "name": "implementation",
          "type": "address"
        }
      ],
      "name": "Upgraded",
      "type": "event"
    },
    {
      "anonymous": false,
      "inputs": [
        {
          "indexed": true,
          "internalType": "address",
          "name": "verifier",
          "type": "address"
        }
      ],
      "name": "ZKVerifierSet",
      "type": "event"
    },
    {
      "inputs": [],
      "name": "UPGRADE_INTERFACE_VERSION",
      "outputs": [
        {
          "internalType": "string",
          "name": "",
          "type": "string"
        }
      ],
      "stateMutability": "view",
      "type": "function"
    },
    {
      "inputs": [
        {
          "internalType": "address",
          "name": "farmer",
          "type": "address"
        },
        {
          "internalType": "string",
          "name": "location",
          "type": "string"
        },
        {
          "internalType": "string",
          "name": "cropType",
          "type": "string"
        }
      ],
      "name": "assessRiskWithAI",
      "outputs": [
        {
          "internalType": "uint256",
          "name": "riskScore",
          "type": "uint256"
        },
        {
          "internalType": "uint256",
          "name": "premiumRate",
          "type": "uint256"
        }
      ],
      "stateMutability": "view",
      "type": "function"
    },
    {
      "inputs": [
        {
          "internalType": "uint256",
          "name": "",
          "type": "uint256"
        }
      ],
      "name": "catastropheBonds",
      "outputs": [
        {
          "internalType": "uint256",
          "name": "id",
          "type": "uint256"
        },
        {
          "internalType": "string",
          "name": "catastropheType",
          "type": "string"
        },
        {
          "internalType": "string",
          "name": "region",
          "type": "string"
        },
        {
          "internalType": "uint256",
          "name": "coverageAmount",
          "type": "uint256"
        },
        {
          "internalType": "uint256",
          "name": "premium",
          "type": "uint256"
        },
        {
          "internalType": "uint256",
          "name": "triggerThreshold",
          "type": "uint256"
        },
        {
          "internalType": "uint256",
          "name": "maturityDate",
          "type": "uint256"
        },
        {
          "internalType": "address",
          "name": "issuer",
          "type": "address"
        },
        {
          "internalType": "uint256",
          "name": "totalInvested",
          "type": "uint256"
        },
        {
          "internalType": "bool",
          "name": "active",
          "type": "bool"
        },
        {
          "internalType": "bool",
          "name": "triggered",
          "type": "bool"
        },
        {
          "internalType": "uint256",
          "name": "triggerIndex",
          "type": "uint256"
        },
        {
          "internalType": "uint256",
          "name": "payoutAmount",
          "type": "uint256"
        }
      ],
      "stateMutability": "view",
      "type": "function"
    },
    {
      "inputs": [
        {
          "internalType": "uint256",
          "name": "_bondId",
          "type": "uint256"
        }
      ],
      "name": "claimCatastropheBondMaturity",
      "outputs": [],
      "stateMutability": "nonpayable",
      "type": "function"
    },
    {
      "inputs": [
        {
          "internalType": "uint256",
          "name": "policyId",
          "type": "uint256"
        },
        {
          "internalType": "bytes",
          "name": "proof",
          "type": "bytes"
        }
      ],
      "name": "claimCrossChainInsurance",
      "outputs": [],
      "stateMutability": "nonpayable",
      "type": "function"
    },
    {
      "inputs": [
        {
          "internalType": "uint256",
          "name": "_poolId",
          "type": "uint256"
        },
        {
          "internalType": "uint256",
          "name": "_claimAmount",
          "type": "uint256"
        },
        {
          "internalType": "bytes",
          "name": "_proof",
          "type": "bytes"
        }
      ],
      "name": "claimPoolPayout",
      "outputs": [],
      "stateMutability": "nonpayable",
      "type": "function"
    },
    {
      "inputs": [
        {
          "internalType": "uint256",
          "name": "_poolId",
          "type": "uint256"
        },
        {
          "internalType": "uint256",
          "name": "_amount",
          "type": "uint256"
        }
      ],
      "name": "contributeToPool",
      "outputs": [],
      "stateMutability": "payable",
      "type": "function"
    },
    {
      "inputs": [
        {
          "internalType": "string",
          "name": "_catastropheType",
          "type": "string"
        },
        {
          "internalType": "string",
          "name": "_region",
          "type": "string"
        },
        {
          "internalType": "uint256",
          "name": "_coverageAmount",
          "type": "uint256"
        },
        {
          "internalType": "uint256",
          "name": "_premium",
          "type": "uint256"
        },
        {
          "internalType": "uint256",
          "name": "_triggerThreshold",
          "type": "uint256"
        },
        {
          "internalType": "uint256",
          "name": "_maturityDays",
          "type": "uint256"
        }
      ],
      "name": "createCatastropheBond",
      "outputs": [
        {
          "internalType": "uint256",
          "name": "",
          "type": "uint256"
        }
      ],
      "stateMutability": "nonpayable",
      "type": "function"
    },
    {
      "inputs": [
        {
          "internalType": "uint256",
          "name": "sourceChainId",
          "type": "uint256"
        },
        {
          "internalType": "uint256",
          "name": "coverageAmount",
          "type": "uint256"
        },
        {
          "internalType": "uint256",
          "name": "expirationDate",
          "type": "uint256"
        }
      ],
      "name": "createCrossChainPolicy",
      "outputs": [
        {
          "internalType": "uint256",
          "name": "",
          "type": "uint256"
        }
      ],
      "stateMutability": "payable",
      "type": "function"
    },
    {
      "inputs": [
        {
          "internalType": "string",
          "name": "_poolType",
          "type": "string"
        },
        {
          "internalType": "uint256",
          "name": "_capacity",
          "type": "uint256"
        }
      ],
      "name": "createInsurancePool",
      "outputs": [
        {
          "internalType": "uint256",
          "name": "",
          "type": "uint256"
        }
      ],
      "stateMutability": "nonpayable",
      "type": "function"
    },
    {
      "inputs": [
        {
          "internalType": "string",
          "name": "_underlyingAsset",
          "type": "string"
        },
        {
          "internalType": "uint256",
          "name": "_strikePrice",
          "type": "uint256"
        },
        {
          "internalType": "uint256",
          "name": "_premium",
          "type": "uint256"
        },
        {
          "internalType": "uint256",
          "name": "_notionalAmount",
          "type": "uint256"
        },
        {
          "internalType": "bool",
          "name": "_isCall",
          "type": "bool"
        },
        {
          "internalType": "uint256",
          "name": "_expirationDays",
          "type": "uint256"
        }
      ],
      "name": "createParametricOption",
      "outputs": [
        {
          "internalType": "uint256",
          "name": "",
          "type": "uint256"
        }
      ],
      "stateMutability": "payable",
      "type": "function"
    },
    {
      "inputs": [
        {
          "internalType": "string",
          "name": "underlyingRisk",
          "type": "string"
        },
        {
          "internalType": "uint256",
          "name": "notionalAmount",
          "type": "uint256"
        },
        {
          "internalType": "uint256",
          "name": "strikeLevel",
          "type": "uint256"
        },
        {
          "internalType": "uint256",
          "name": "premium",
          "type": "uint256"
        },
        {
          "internalType": "address",
          "name": "seller",
          "type": "address"
        },
        {
          "internalType": "uint256",
          "name": "expirationDate",
          "type": "uint256"
        }
      ],
      "name": "createRiskDerivative",
      "outputs": [
        {
          "internalType": "uint256",
          "name": "",
          "type": "uint256"
        }
      ],
      "stateMutability": "payable",
      "type": "function"
    },
    {
      "inputs": [
        {
          "internalType": "uint256",
          "name": "",
          "type": "uint256"
        }
      ],
      "name": "crossChainPolicies",
      "outputs": [
        {
          "internalType": "uint256",
          "name": "sourceChainId",
          "type": "uint256"
        },
        {
          "internalType": "uint256",
          "name": "policyId",
          "type": "uint256"
        },
        {
          "internalType": "address",
          "name": "beneficiary",
          "type": "address"
        },
        {
          "internalType": "uint256",
          "name": "coverageAmount",
          "type": "uint256"
        },
        {
          "internalType": "uint256",
          "name": "expirationDate",
          "type": "uint256"
        },
        {
          "internalType": "bool",
          "name": "active",
          "type": "bool"
        },
        {
          "internalType": "bytes32",
          "name": "bridgeTxHash",
          "type": "bytes32"
        }
      ],
      "stateMutability": "view",
      "type": "function"
    },
    {
      "inputs": [
        {
          "internalType": "uint256",
          "name": "_poolId",
          "type": "uint256"
        }
      ],
      "name": "deactivatePool",
      "outputs": [],
      "stateMutability": "nonpayable",
      "type": "function"
    },
    {
      "inputs": [],
      "name": "depositEmergencyFund",
      "outputs": [],
      "stateMutability": "payable",
      "type": "function"
    },
    {
      "inputs": [],
      "name": "emergencyFund",
      "outputs": [
        {
          "internalType": "uint256",
          "name": "",
          "type": "uint256"
        }
      ],
      "stateMutability": "view",
      "type": "function"
    },
    {
      "inputs": [
        {
          "internalType": "uint256",
          "name": "amount",
          "type": "uint256"
        }
      ],
      "name": "emergencyFundWithdrawal",
      "outputs": [],
      "stateMutability": "nonpayable",
      "type": "function"
    },
    {
      "inputs": [
        {
          "internalType": "uint256",
          "name": "_bondId",
          "type": "uint256"
        },
        {
          "internalType": "uint256",
          "name": "_triggerIndex",
          "type": "uint256"
        }
      ],
      "name": "emergencyTriggerBond",
      "outputs": [],
      "stateMutability": "nonpayable",
      "type": "function"
    },
    {
      "inputs": [
        {
          "internalType": "uint256",
          "name": "_optionId",
          "type": "uint256"
        }
      ],
      "name": "exerciseParametricOption",
      "outputs": [],
      "stateMutability": "nonpayable",
      "type": "function"
    },
    {
      "inputs": [
        {
          "internalType": "uint256",
          "name": "_bondId",
          "type": "uint256"
        }
      ],
      "name": "getCatastropheBond",
      "outputs": [
        {
          "internalType": "uint256",
          "name": "id",
          "type": "uint256"
        },
        {
          "internalType": "string",
          "name": "catastropheType",
          "type": "string"
        },
        {
          "internalType": "string",
          "name": "region",
          "type": "string"
        },
        {
          "internalType": "uint256",
          "name": "coverageAmount",
          "type": "uint256"
        },
        {
          "internalType": "uint256",
          "name": "totalInvested",
          "type": "uint256"
        },
        {
          "internalType": "bool",
          "name": "active",
          "type": "bool"
        },
        {
          "internalType": "bool",
          "name": "triggered",
          "type": "bool"
        },
        {
          "internalType": "uint256",
          "name": "maturityDate",
          "type": "uint256"
        }
      ],
      "stateMutability": "view",
      "type": "function"
    },
    {
      "inputs": [
        {
          "internalType": "uint256",
          "name": "_bondId",
          "type": "uint256"
        },
        {
          "internalType": "address",
          "name": "_investor",
          "type": "address"
        }
      ],
      "name": "getCatastropheBondInvestment",
      "outputs": [
        {
          "internalType": "uint256",
          "name": "",
          "type": "uint256"
        }
      ],
      "stateMutability": "view",
      "type": "function"
    },
    {
      "inputs": [
        {
          "internalType": "uint256",
          "name": "_poolId",
          "type": "uint256"
        }
      ],
      "name": "getInsurancePool",
      "outputs": [
        {
          "internalType": "uint256",
          "name": "id",
          "type": "uint256"
        },
        {
          "internalType": "string",
          "name": "poolType",
          "type": "string"
        },
        {
          "internalType": "uint256",
          "name": "totalCapacity",
          "type": "uint256"
        },
        {
          "internalType": "uint256",
          "name": "utilizedCapacity",
          "type": "uint256"
        },
        {
          "internalType": "uint256",
          "name": "premiumPool",
          "type": "uint256"
        },
        {
          "internalType": "bool",
          "name": "active",
          "type": "bool"
        }
      ],
      "stateMutability": "view",
      "type": "function"
    },
    {
      "inputs": [
        {
          "internalType": "uint256",
          "name": "_optionId",
          "type": "uint256"
        }
      ],
      "name": "getParametricOption",
      "outputs": [
        {
          "internalType": "uint256",
          "name": "id",
          "type": "uint256"
        },
        {
          "internalType": "address",
          "name": "buyer",
          "type": "address"
        },
        {
          "internalType": "string",
          "name": "underlyingAsset",
          "type": "string"
        },
        {
          "internalType": "uint256",
          "name": "strikePrice",
          "type": "uint256"
        },
        {
          "internalType": "uint256",
          "name": "notionalAmount",
          "type": "uint256"
        },
        {
          "internalType": "bool",
          "name": "isCall",
          "type": "bool"
        },
        {
          "internalType": "uint256",
          "name": "expirationDate",
          "type": "uint256"
        },
        {
          "internalType": "bool",
          "name": "exercised",
          "type": "bool"
        },
        {
          "internalType": "uint256",
          "name": "payoutAmount",
          "type": "uint256"
        }
      ],
      "stateMutability": "view",
      "type": "function"
    },
    {
      "inputs": [
        {
          "internalType": "uint256",
          "name": "_poolId",
          "type": "uint256"
        },
        {
          "internalType": "address",
          "name": "_contributor",
          "type": "address"
        }
      ],
      "name": "getPoolContribution",
      "outputs": [
        {
          "internalType": "uint256",
          "name": "",
          "type": "uint256"
        }
      ],
      "stateMutability": "view",
      "type": "function"
    },
    {
      "inputs": [],
      "name": "governanceThreshold",
      "outputs": [
        {
          "internalType": "uint256",
          "name": "",
          "type": "uint256"
        }
      ],
      "stateMutability": "view",
      "type": "function"
    },
    {
      "inputs": [
        {
          "internalType": "address",
          "name": "_oracle",
          "type": "address"
        },
        {
          "internalType": "address",
          "name": "_parametricInsurance",
          "type": "address"
        },
        {
          "internalType": "address",
          "name": "_zkVerifier",
          "type": "address"
        },
        {
          "internalType": "address",
          "name": "_riskAssessmentOracle",
          "type": "address"
        }
      ],
      "name": "initialize",
      "outputs": [],
      "stateMutability": "nonpayable",
      "type": "function"
    },
    {
      "inputs": [
        {
          "internalType": "uint256",
          "name": "",
          "type": "uint256"
        }
      ],
      "name": "insurancePools",
      "outputs": [
        {
          "internalType": "uint256",
          "name": "id",
          "type": "uint256"
        },
        {
          "internalType": "string",
          "name": "poolType",
          "type": "string"
        },
        {
          "internalType": "uint256",
          "name": "totalCapacity",
          "type": "uint256"
        },
        {
          "internalType": "uint256",
          "name": "utilizedCapacity",
          "type": "uint256"
        },
        {
          "internalType": "uint256",
          "name": "premiumCollected",
          "type": "uint256"
        },
        {
          "internalType": "uint256",
          "name": "payoutReserve",
          "type": "uint256"
        },
        {
          "internalType": "bool",
          "name": "active",
          "type": "bool"
        }
      ],
      "stateMutability": "view",
      "type": "function"
    },
    {
      "inputs": [
        {
          "internalType": "uint256",
          "name": "_bondId",
          "type": "uint256"
        },
        {
          "internalType": "uint256",
          "name": "_amount",
          "type": "uint256"
        }
      ],
      "name": "investInCatastropheBond",
      "outputs": [],
      "stateMutability": "payable",
      "type": "function"
    },
    {
      "inputs": [],
      "name": "maxClaimAmount",
      "outputs": [
        {
          "internalType": "uint256",
          "name": "",
          "type": "uint256"
        }
      ],
      "stateMutability": "view",
      "type": "function"
    },
    {
      "inputs": [],
      "name": "maxCoverageRatio",
      "outputs": [
        {
          "internalType": "uint256",
          "name": "",
          "type": "uint256"
        }
      ],
      "stateMutability": "view",
      "type": "function"
    },
    {
      "inputs": [],
      "name": "maxPremiumRate",
      "outputs": [
        {
          "internalType": "uint256",
          "name": "",
          "type": "uint256"
        }
      ],
      "stateMutability": "view",
      "type": "function"
    },
    {
      "inputs": [],
      "name": "minPremiumRate",
      "outputs": [
        {
          "internalType": "uint256",
          "name": "",
          "type": "uint256"
        }
      ],
      "stateMutability": "view",
      "type": "function"
    },
    {
      "inputs": [],
      "name": "minRiskScore",
      "outputs": [
        {
          "internalType": "uint256",
          "name": "",
          "type": "uint256"
        }
      ],
      "stateMutability": "view",
      "type": "function"
    },
    {
      "inputs": [],
      "name": "nextBondId",
      "outputs": [
        {
          "internalType": "uint256",
          "name": "",
          "type": "uint256"
        }
      ],
      "stateMutability": "view",
      "type": "function"
    },
    {
      "inputs": [],
      "name": "nextClaimId",
      "outputs": [
        {
          "internalType": "uint256",
          "name": "",
          "type": "uint256"
        }
      ],
      "stateMutability": "view",
      "type": "function"
    },
    {
      "inputs": [],
      "name": "nextCrossChainPolicyId",
      "outputs": [
        {
          "internalType": "uint256",
          "name": "",
          "type": "uint256"
        }
      ],
      "stateMutability": "view",
      "type": "function"
    },
    {
      "inputs": [],
      "name": "nextDerivativeId",
      "outputs": [
        {
          "internalType": "uint256",
          "name": "",
          "type": "uint256"
        }
      ],
      "stateMutability": "view",
      "type": "function"
    },
    {
      "inputs": [],
      "name": "nextOptionId",
      "outputs": [
        {
          "internalType": "uint256",
          "name": "",
          "type": "uint256"
        }
      ],
      "stateMutability": "view",
      "type": "function"
    },
    {
      "inputs": [],
      "name": "nextPoolId",
      "outputs": [
        {
          "internalType": "uint256",
          "name": "",
          "type": "uint256"
        }
      ],
      "stateMutability": "view",
      "type": "function"
    },
    {
      "inputs": [],
      "name": "oracle",
      "outputs": [
        {
          "internalType": "contract DecentralizedOracle",
          "name": "",
          "type": "address"
        }
      ],
      "stateMutability": "view",
      "type": "function"
    },
    {
      "inputs": [],
      "name": "owner",
      "outputs": [
        {
          "internalType": "address",
          "name": "",
          "type": "address"
        }
      ],
      "stateMutability": "view",
      "type": "function"
    },
    {
      "inputs": [],
      "name": "parametricInsurance",
      "outputs": [
        {
          "internalType": "contract ParametricInsurance",
          "name": "",
          "type": "address"
        }
      ],
      "stateMutability": "view",
      "type": "function"
    },
    {
      "inputs": [
        {
          "internalType": "uint256",
          "name": "",
          "type": "uint256"
        }
      ],
      "name": "parametricOptions",
      "outputs": [
        {
          "internalType": "uint256",
          "name": "id",
          "type": "uint256"
        },
        {
          "internalType": "address",
          "name": "buyer",
          "type": "address"
        },
        {
          "internalType": "string",
          "name": "underlyingAsset",
          "type": "string"
        },
        {
          "internalType": "uint256",
          "name": "strikePrice",
          "type": "uint256"
        },
        {
          "internalType": "uint256",
          "name": "premium",
          "type": "uint256"
        },
        {
          "internalType": "uint256",
          "name": "notionalAmount",
          "type": "uint256"
        },
        {
          "internalType": "bool",
          "name": "isCall",
          "type": "bool"
        },
        {
          "internalType": "uint256",
          "name": "expirationDate",
          "type": "uint256"
        },
        {
          "internalType": "uint256",
          "name": "settlementDate",
          "type": "uint256"
        },
        {
          "internalType": "bool",
          "name": "exercised",
          "type": "bool"
        },
        {
          "internalType": "uint256",
          "name": "payoutAmount",
          "type": "uint256"
        },
        {
          "internalType": "bytes",
          "name": "oracleData",
          "type": "bytes"
        }
      ],
      "stateMutability": "view",
      "type": "function"
    },
    {
      "inputs": [
        {
          "internalType": "uint256",
          "name": "",
          "type": "uint256"
        }
      ],
      "name": "privateClaims",
      "outputs": [
        {
          "internalType": "uint256",
          "name": "policyId",
          "type": "uint256"
        },
        {
          "internalType": "uint256",
          "name": "claimAmount",
          "type": "uint256"
        },
        {
          "internalType": "bytes32",
          "name": "commitment",
          "type": "bytes32"
        },
        {
          "components": [
            {
              "internalType": "uint256[2]",
              "name": "a",
              "type": "uint256[2]"
            },
            {
              "internalType": "uint256[2][2]",
              "name": "b",
              "type": "uint256[2][2]"
            },
            {
              "internalType": "uint256[2]",
              "name": "c",
              "type": "uint256[2]"
            },
            {
              "internalType": "uint256[4]",
              "name": "input",
              "type": "uint256[4]"
            }
          ],
          "internalType": "struct AdvancedInsurance.ZKProof",
          "name": "proof",
          "type": "tuple"
        },
        {
          "internalType": "bool",
          "name": "verified",
          "type": "bool"
        },
        {
          "internalType": "bool",
          "name": "processed",
          "type": "bool"
        },
        {
          "internalType": "uint256",
          "name": "timestamp",
          "type": "uint256"
        }
      ],
      "stateMutability": "view",
      "type": "function"
    },
    {
      "inputs": [
        {
          "internalType": "uint256",
          "name": "claimId",
          "type": "uint256"
        }
      ],
      "name": "processPrivateClaim",
      "outputs": [],
      "stateMutability": "nonpayable",
      "type": "function"
    },
    {
      "inputs": [
        {
          "internalType": "string",
          "name": "parameter",
          "type": "string"
        },
        {
          "internalType": "uint256",
          "name": "newValue",
          "type": "uint256"
        }
      ],
      "name": "proposeInsuranceParameterChange",
      "outputs": [],
      "stateMutability": "nonpayable",
      "type": "function"
    },
    {
      "inputs": [],
      "name": "proxiableUUID",
      "outputs": [
        {
          "internalType": "bytes32",
          "name": "",
          "type": "bytes32"
        }
      ],
      "stateMutability": "view",
      "type": "function"
    },
    {
      "inputs": [],
      "name": "renounceOwnership",
      "outputs": [],
      "stateMutability": "nonpayable",
      "type": "function"
    },
    {
      "inputs": [],
      "name": "riskAssessmentOracle",
      "outputs": [
        {
          "internalType": "address",
          "name": "",
          "type": "address"
        }
      ],
      "stateMutability": "view",
      "type": "function"
    },
    {
      "inputs": [
        {
          "internalType": "uint256",
          "name": "",
          "type": "uint256"
        }
      ],
      "name": "riskDerivatives",
      "outputs": [
        {
          "internalType": "uint256",
          "name": "id",
          "type": "uint256"
        },
        {
          "internalType": "string",
          "name": "underlyingRisk",
          "type": "string"
        },
        {
          "internalType": "uint256",
          "name": "notionalAmount",
          "type": "uint256"
        },
        {
          "internalType": "uint256",
          "name": "strikeLevel",
          "type": "uint256"
        },
        {
          "internalType": "uint256",
          "name": "premium",
          "type": "uint256"
        },
        {
          "internalType": "address",
          "name": "buyer",
          "type": "address"
        },
        {
          "internalType": "address",
          "name": "seller",
          "type": "address"
        },
        {
          "internalType": "uint256",
          "name": "expirationDate",
          "type": "uint256"
        },
        {
          "internalType": "bool",
          "name": "settled",
          "type": "bool"
        },
        {
          "internalType": "int256",
          "name": "payout",
          "type": "int256"
        }
      ],
      "stateMutability": "view",
      "type": "function"
    },
    {
      "inputs": [
        {
          "internalType": "address",
          "name": "_oracle",
          "type": "address"
        }
      ],
      "name": "setRiskAssessmentOracle",
      "outputs": [],
      "stateMutability": "nonpayable",
      "type": "function"
    },
    {
      "inputs": [
        {
          "internalType": "address",
          "name": "_verifier",
          "type": "address"
        }
      ],
      "name": "setZKVerifier",
      "outputs": [],
      "stateMutability": "nonpayable",
      "type": "function"
    },
    {
      "inputs": [
        {
          "internalType": "uint256",
          "name": "derivativeId",
          "type": "uint256"
        }
      ],
      "name": "settleRiskDerivative",
      "outputs": [],
      "stateMutability": "nonpayable",
      "type": "function"
    },
    {
      "inputs": [],
      "name": "settlementDelay",
      "outputs": [
        {
          "internalType": "uint256",
          "name": "",
          "type": "uint256"
        }
      ],
      "stateMutability": "view",
      "type": "function"
    },
    {
      "inputs": [
        {
          "internalType": "uint256",
          "name": "policyId",
          "type": "uint256"
        },
        {
          "internalType": "uint256",
          "name": "claimAmount",
          "type": "uint256"
        },
        {
          "internalType": "bytes32",
          "name": "commitment",
          "type": "bytes32"
        },
        {
          "components": [
            {
              "internalType": "uint256[2]",
              "name": "a",
              "type": "uint256[2]"
            },
            {
              "internalType": "uint256[2][2]",
              "name": "b",
              "type": "uint256[2][2]"
            },
            {
              "internalType": "uint256[2]",
              "name": "c",
              "type": "uint256[2]"
            },
            {
              "internalType": "uint256[4]",
              "name": "input",
              "type": "uint256[4]"
            }
          ],
          "internalType": "struct AdvancedInsurance.ZKProof",
          "name": "proof",
          "type": "tuple"
        }
      ],
      "name": "submitPrivateClaim",
      "outputs": [
        {
          "internalType": "uint256",
          "name": "",
          "type": "uint256"
        }
      ],
      "stateMutability": "nonpayable",
      "type": "function"
    },
    {
      "inputs": [
        {
          "internalType": "address",
          "name": "newOwner",
          "type": "address"
        }
      ],
      "name": "transferOwnership",
      "outputs": [],
      "stateMutability": "nonpayable",
      "type": "function"
    },
    {
      "inputs": [
        {
          "internalType": "uint256",
          "name": "_bondId",
          "type": "uint256"
        }
      ],
      "name": "triggerCatastropheBond",
      "outputs": [],
      "stateMutability": "nonpayable",
      "type": "function"
    },
    {
      "inputs": [
        {
          "internalType": "uint256",
          "name": "_maxCoverageRatio",
          "type": "uint256"
        },
        {
          "internalType": "uint256",
          "name": "_minPremiumRate",
          "type": "uint256"
        },
        {
          "internalType": "uint256",
          "name": "_maxPremiumRate",
          "type": "uint256"
        },
        {
          "internalType": "uint256",
          "name": "_settlementDelay",
          "type": "uint256"
        }
      ],
      "name": "updateRiskParameters",
      "outputs": [],
      "stateMutability": "nonpayable",
      "type": "function"
    },
    {
      "inputs": [
        {
          "internalType": "uint256",
          "name": "_minRiskScore",
          "type": "uint256"
        },
        {
          "internalType": "uint256",
          "name": "_maxClaimAmount",
          "type": "uint256"
        }
      ],
      "name": "updateZKParameters",
      "outputs": [],
      "stateMutability": "nonpayable",
      "type": "function"
    },
    {
      "inputs": [
        {
          "internalType": "address",
          "name": "newImplementation",
          "type": "address"
        },
        {
          "internalType": "bytes",
          "name": "data",
          "type": "bytes"
        }
      ],
      "name": "upgradeToAndCall",
      "outputs": [],
      "stateMutability": "payable",
      "type": "function"
    },
    {
      "inputs": [
        {
          "internalType": "uint256",
          "name": "_poolId",
          "type": "uint256"
        },
        {
          "internalType": "uint256",
          "name": "_amount",
          "type": "uint256"
        }
      ],
      "name": "withdrawPremiums",
      "outputs": [],
      "stateMutability": "nonpayable",
      "type": "function"
    },
    {
      "inputs": [],
      "name": "zkVerifier",
      "outputs": [
        {
          "internalType": "contract IZKVerifier",
          "name": "",
          "type": "address"
        }
      ],
      "stateMutability": "view",
      "type": "function"
    },
    {
      "stateMutability": "payable",
      "type": "receive"
    }
  ],
  "bytecode": "0x60a08060405234608057306080526001600555600160065560016007556001600855600160095561012c600b5569152d02c7e14af6800000600c556001600e5569152d02c7e14af6800000600f55605060145560326015556107d060165562093a8060175561453b9081610086823960805181818161189b015261192f0152f35b600080fdfe6080604052600436101561001b575b361561001957600080fd5b005b60003560e01c80630353b88914613b215780630589a48b146139cf578063059b7ee01461398457806305bb45bf14613935578063096b409c1461390c5780630c0f7253146138d95780630c8c94d4146138bb5780630ef4cbb2146134245780630f6051b5146132875780630fa578c6146132695780631442dff7146130ea5780631482beb914612d0257806318e5613114612ce45780631d303bc4146128d757806321a8dd39146127e0578063235a1eed1461279557806325513a13146126a25780632a53fc50146123815780632c8aa1be146123025780632e9c7b65146122e45780633a1418e11461223a5780633ad0d08f146120e45780633ea9fd6c146120bb5780634302a3fb1461201c57806343cab21614611f5d57806344ade63214611cd15780634a6d21ff14611b135780634bd6ae3614611af55780634f1ef286146118f257806352d1902d1461188857806366e37eae1461186a5780636cee25051461184b578063715018a6146117e15780637bdc651b146116245780637dc0d1d0146115fb57806389670dd51461154c5780638da5cb5b146115165780639215abb0146114f85780639abd9b05146114c15780639ba5bae914611229578063a0021cf11461120b578063ac60cc5014611157578063ad3cb1cc1461110c578063aeef6439146110ee578063b412b086146110d0578063b706fd9114611056578063b99a986514610f7c578063bddd4a4714610dcf578063c3851e0114610d8c578063c509034614610d25578063cc85937814610d07578063cde031d014610b3d578063cf08a66a1461097c578063d6df096d14610953578063d765ca16146108c8578063ee53a423146108aa578063f2fde38b14610881578063f8c8765e14610674578063fac3fa3d14610656578063fb07dc1014610435578063fb9ed8e8146104175763fd4fe6080361000e5734610412576020366003190112610412576004356102e6614301565b6102ee6143ba565b8060005260036020526040600020600f81019081549160ff8316156103d85760ff8360081c166103935761010060019361ff001916179055016000808080845481811561038a575b3390f11561037e5760207f213bbcd0748e84f31e1c610e7c25863c42627447ebe386e7237ea2d451f670dc9154604051908152a260016000805160206144c683398151915255005b6040513d6000823e3d90fd5b506108fc610336565b60405162461bcd60e51b815260206004820152601760248201527f436c61696d20616c72656164792070726f6365737365640000000000000000006044820152606490fd5b60405162461bcd60e51b815260206004820152601260248201527110db185a5b481b9bdd081d995c9a599a595960721b6044820152606490fd5b600080fd5b34610412576000366003190112610412576020601554604051908152f35b34610412576060366003190112610412576024356044356001600160401b03811161041257610468903690600401613c92565b506004356000526002602052604060002061048960ff60068301541661421f565b3360009081526007820160205260409020541561061957600501908154918282116105dd5760e4606060018060a01b0360125416604051928380926352ee0b7760e01b8252600480830152846024830152601260648301527131b630b4b6afbb32b934b334b1b0ba34b7b760711b608483015260a06044830152600f60a48301526e696e737572616e63655f636c61696d60881b60c48301525afa90811561037e576000916105ac575b5015610567576000808084819461054a8289614113565b905581811561055e575b3390f11561037e57005b506108fc610554565b60405162461bcd60e51b815260206004820152601c60248201527f436c61696d206e6f74207665726966696564206279206f7261636c65000000006044820152606490fd5b6105ce915060603d6060116105d6575b6105c68183613c56565b8101906140f8565b505084610533565b503d6105bc565b60405162461bcd60e51b8152602060048201526014602482015273496e73756666696369656e74207265736572766560601b6044820152606490fd5b60405162461bcd60e51b8152602060048201526015602482015274139bc818dbdb9d1c9a589d5d1a5bdb88199bdd5b99605a1b6044820152606490fd5b34610412576000366003190112610412576020600954604051908152f35b346104125760803660031901126104125761068d613d1e565b610695613d08565b6044356001600160a01b03811690819003610412576064356001600160a01b0381169290839003610412576000805160206144e6833981519152549360ff8560401c1615946001600160401b03811680159081610879575b600114908161086f575b159081610866575b506108555767ffffffffffffffff1981166001176000805160206144e68339815191525585610828575b506107326143f6565b61073a6143f6565b6107433361428b565b61074b6143f6565b6107536143f6565b60016000805160206144c68339815191525561076d6143f6565b60018060a01b03166001600160601b0360a01b601254161760125560018060a01b03166001600160601b0360a01b60135416176013556001600160601b0360a01b600a541617600a556001600160601b0360a01b60115416176011556107cf57005b68ff0000000000000000196000805160206144e683398151915254166000805160206144e6833981519152557fc7f505b2f371ae2175ee4913f4499e1f2633a7b5936321eed1cdaeb6115181d2602060405160018152a1005b68ffffffffffffffffff191668010000000000000001176000805160206144e68339815191525585610729565b63f92ee8a960e01b60005260046000fd5b905015876106ff565b303b1591506106f7565b8791506106ed565b346104125760203660031901126104125761001961089d613d1e565b6108a5614301565b61428b565b34610412576000366003190112610412576020600554604051908152f35b34610412576020366003190112610412576004356000526002602052604060002080546108f760018301613dab565b91600281015490600381015490600481015460ff600660058401549301541692610933604051978897885260e0602089015260e0880190613ed2565b9460408701526060860152608085015260a0840152151560c08301520390f35b3461041257600036600319011261041257600a546040516001600160a01b039091168152602090f35b3461041257602036600319011261041257600435600052600360205260406000208054600182015460028301546040516109b581613c3b565b6109c160038601613f29565b8152604051604081018181106001600160401b03821117610b2757604052600586016000825b60028210610b095750505060208201908152610a0560098701613f29565b91604081019283526040519384600b8901906000905b60048210610af35750505090610a6391610a36608087613c56565b606082019586526010600f8a01549901549660405198895260208901526040880152606087019051613f5e565b51600060a086015b60028210610ad557505050610a869051610120850190613f5e565b51600061016084015b60048210610abf5750505060ff8381610240951615156101e085015260081c161515610200830152610220820152f35b6020806001928551815201930191019091610a8f565b6020604082610ae76001948751613f5e565b01930191019091610a6b565b6001602081928554815201930191019091610a1b565b60026020600192610b1986613f29565b8152019301910190916109e7565b634e487b7160e01b600052604160045260246000fd5b610b4636613f13565b90610b4f6143ba565b8060005260006020526040600020610b6d60ff600b83015416613fd1565b610b7c6006820154421061404f565b823403610cc2576064610b96600383015460145490613fbe565b0490600a810191610ba8858454613fb1565b11610c8457600981019060018060a01b0333166000528160205260406000205415610c3d575b5060018060a01b0333166000526020526040600020610bee848254613fb1565b9055610bfb838254613fb1565b90556040519182527f0974e09de0ecb8fad4db30ae23cb4a4a461f1e1a6fd8a1e440090695338f913960203393a360016000805160206144c683398151915255005b600801805468010000000000000000811015610b2757610c629160018201815561425d565b81546001600160a01b0360039290921b91821b19163390911b17905584610bce565b60405162461bcd60e51b81526020600482015260166024820152754578636565647320636f76657261676520726174696f60501b6044820152606490fd5b60405162461bcd60e51b815260206004820152601b60248201527f496e636f727265637420696e766573746d656e7420616d6f756e7400000000006044820152606490fd5b34610412576000366003190112610412576020601054604051908152f35b3461041257602036600319011261041257610d3e613d1e565b610d46614301565b600a80546001600160a01b0319166001600160a01b039290921691821790557f7a46bbb11da1ff20d21103803fc49b5e3fb9abb22e7d89ade9e096ee4a96dbe1600080a2005b3461041257602036600319011261041257610da5613d1e565b610dad614301565b601180546001600160a01b0319166001600160a01b0392909216919091179055005b34610412576040366003190112610412576004356024356001600160401b03811161041257610e02903690600401613c92565b81600052600d60205260406000206005810180549260ff841615610f435760028301546001600160a01b03163303610f085760048301544211610ed2575115610e9d5760039260ff191690550160008080808454818115610e94575b3390f11561037e5760207ffcb94267a66a8e20f641c8d0af7d6a33001fd21fe833246a3798cdee1f3a1fd79154604051908152a2005b506108fc610e5e565b60405162461bcd60e51b815260206004820152600d60248201526c24b73b30b634b210383937b7b360991b6044820152606490fd5b60405162461bcd60e51b815260206004820152600e60248201526d141bdb1a58de48195e1c1a5c995960921b6044820152606490fd5b60405162461bcd60e51b81526020600482015260136024820152724e6f74207468652062656e656669636961727960681b6044820152606490fd5b60405162461bcd60e51b8152602060048201526011602482015270506f6c696379206e6f742061637469766560781b6044820152606490fd5b3461041257602036600319011261041257600435610f98614301565b6010548082116110115781610fac91614113565b60105560008080808460018060a01b036000805160206144868339815191525416828215611008575bf11561037e5760207f5a5f82e4c9e7ad9f92bc5417b5002bbcc81e4c47108a7c3202975cf8fef3731591604051908152a1005b506108fc610fd5565b60405162461bcd60e51b815260206004820152601b60248201527f496e73756666696369656e7420656d657267656e63792066756e6400000000006044820152606490fd5b3461041257602036600319011261041257600435600052600d60205260e0604060002080549060018101549060018060a01b036002820154166003820154600483015491600660ff600586015416940154946040519687526020870152604086015260608501526080840152151560a083015260c0820152f35b34610412576000366003190112610412576020600e54604051908152f35b34610412576000366003190112610412576020600c54604051908152f35b3461041257600036600319011261041257611153604080519061112f8183613c56565b60058252640352e302e360dc1b602083015251918291602083526020830190613ed2565b0390f35b346104125761116536613f13565b9061116e614301565b60005260026020526004604060002001908154918282116111ce576000808084819461119a8289614113565b9055600080516020614486833981519152546001600160a01b03168282156111c5575bf11561037e57005b506108fc6111bd565b60405162461bcd60e51b8152602060048201526015602482015274496e73756666696369656e74207072656d69756d7360581b6044820152606490fd5b34610412576000366003190112610412576020600854604051908152f35b34610412576020366003190112610412576004356112456143ba565b80600052600460205260406000206007810154421061148a57600881019081549160ff83166114535760058201546001600160a01b031692338414801561143d575b156114075760019060ff191617905560018060a01b0360125416606060405180926352ee0b7760e01b82526004808301528260248301528160406112d16064830160018901613e4f565b6f1c9a5cdad7db59585cdd5c995b595b9d60821b6020848303926003198401604487015260108152015201915afa90811561037e576000916113e6575b5060006003830154821160001461138d5750600080808060028601548097828215611384575bf11561037e57827f990e90d705cd9d649ad500f9d1a2e928db9803fbeceeb9774b2cd6b3bd60dc0e9360096040945b015582519182526020820152a260016000805160206144c683398151915255005b506108fc611334565b6004830154919350600160ff1b82146113d2576040927f990e90d705cd9d649ad500f9d1a2e928db9803fbeceeb9774b2cd6b3bd60dc0e949260099203918291611363565b634e487b7160e01b81526011600452602490fd5b6113ff915060603d6060116105d6576105c68183613c56565b50508461130e565b60405162461bcd60e51b815260206004820152600e60248201526d139bdd08185d5d1a1bdc9a5e995960921b6044820152606490fd5b5060068301546001600160a01b03163314611287565b60405162461bcd60e51b815260206004820152600f60248201526e105b1c9958591e481cd95d1d1b1959608a1b6044820152606490fd5b60405162461bcd60e51b815260206004820152600f60248201526e139bdd08195e1c1a5c9959081e595d608a1b6044820152606490fd5b34610412576020366003190112610412576114da614301565b6004356000908152600260205260409020600601805460ff19169055005b34610412576000366003190112610412576020600654604051908152f35b3461041257600036600319011261041257600080516020614486833981519152546040516001600160a01b039091168152602090f35b346104125760203660031901126104125760043560005260016020526040600020805460018060a01b0360018301541691600381015490600581015460ff60068301541660078301549060ff600985015416926115d36115b36002600a8801549701613dab565b604051998a998a5260208a015261012060408a0152610120890190613ed2565b9560608801526080870152151560a086015260c0850152151560e08401526101008301520390f35b34610412576000366003190112610412576012546040516001600160a01b039091168152602090f35b346104125761163236613cd7565b61163a614301565b80156117a95760075461164c81613fa2565b60075580600052600260205260406000209181835560018301938051946001600160401b038611610b27578561168e6020976116888454613d71565b84614140565b86601f821160011461171e57957f71d9e8fb570f8d8b724c1e21714ea5d0d1fcce418927c653ebbda4734e12ed239493926116e483600694899a600091611713575b508160011b916000199060031b1c19161790565b90555b83600282015501600160ff1982541617905561170860405192839283613f86565b0390a2604051908152f35b90508601518c6116d0565b601f1982169083600052806000209160005b8181106117925750838899937f71d9e8fb570f8d8b724c1e21714ea5d0d1fcce418927c653ebbda4734e12ed239897969360069660019410611779575b5050811b0190556116e7565b87015160001960f88460031b161c191690558b8061176d565b91928a60018192868a015181550194019201611730565b60405162461bcd60e51b815260206004820152601060248201526f496e76616c696420636170616369747960801b6044820152606490fd5b34610412576000366003190112610412576117fa614301565b60008051602061448683398151915280546001600160a01b031981169091556000906001600160a01b03167f8be0079c531659141344cd1fd0a4f28419497f9722a3daafe3b4186f6b6457e08280a3005b346104125761185936613f13565b90611862614301565b600b55600c55005b34610412576000366003190112610412576020600f54604051908152f35b34610412576000366003190112610412577f00000000000000000000000000000000000000000000000000000000000000006001600160a01b031630036118e15760206040516000805160206144a68339815191528152f35b63703e46dd60e11b60005260046000fd5b604036600319011261041257611906613d1e565b6024356001600160401b03811161041257611925903690600401613c92565b6001600160a01b037f000000000000000000000000000000000000000000000000000000000000000016308114908115611ad2575b506118e157611967614301565b6040516352d1902d60e01b81526001600160a01b0383169290602081600481875afa60009181611a9e575b506119ac5783634c9c8ce360e01b60005260045260246000fd5b806000805160206144a6833981519152859203611a8a5750813b15611a76576000805160206144a683398151915280546001600160a01b031916821790557fbc7cd75a20ee27fd9adebab32041f755214dbc6bffa90cc0225b39da2e5c2d3b600080a2815115611a5c5760008083602061001995519101845af43d15611a54573d91611a3783613c77565b92611a456040519485613c56565b83523d6000602085013e614424565b606091614424565b505034611a6557005b63b398979f60e01b60005260046000fd5b634c9c8ce360e01b60005260045260246000fd5b632a87526960e21b60005260045260246000fd5b9091506020813d602011611aca575b81611aba60209383613c56565b8101031261041257519085611992565b3d9150611aad565b6000805160206144a6833981519152546001600160a01b0316141590508361195a565b34610412576000366003190112610412576020600b54604051908152f35b3461041257606036600319011261041257611b2c613d1e565b506024356001600160401b03811161041257611b4c903690600401613c92565b6044356001600160401b03811161041257611b6b903690600401613c92565b60018060a01b0360125416604051926352ee0b7760e01b845260006004850152606060248501526060846040611ba46064830185613ed2565b6e1c9a5cdad7d85cdcd95cdcdb595b9d608a1b60208483039260031984016044870152600f815201520181855afa93841561037e57600094611ca1575b5091606091611c18611c2a94604051958694859384936352ee0b7760e01b8552600160048601528860248601526064850190613ed2565b83810360031901604485015290613ed2565b03915afa801561037e57604092611c4992600092611c7e575b50613fb1565b60011c61012c811015611c655760325b82519182526020820152f35b610258811015611c76576096611c59565b61012c611c59565b611c9891925060603d6060116105d6576105c68183613c56565b50509084611c43565b611c2a9391945091611c18611cc4606094853d87116105d6576105c68183613c56565b5050959294505091611be1565b60c0366003190112610412576004356001600160401b03811161041257611cfc903690600401613c92565b604435906064359060843580151581036104125760a43590611d2085341015614192565b8315611f1857600182101580611f0c575b611d3a906141de565b60065493611d4785613fa2565b600655600085815260016020819052604090912086815590810180546001600160a01b03191633179055845190969060028801906001600160401b038111610b2757611d97816116888454613d71565b6020601f8211600114611e9f5781611df69695949392611dcc92600091611e9457508160011b916000199060031b1c19161790565b90555b602435600389015560048801556005870155600686019060ff801983541691151516179055565b62015180810290808204620151801490151715611e7e57602093611e2e611e1f60099342613fb1565b80600784015560175490613fb1565b60088201550160ff198154169055817fca78b17d872ddd2060cb1c1e22d525f122d74bd9ac6083698179b26148face9a60405185815280611e73339588830190613ed2565b0390a3604051908152f35b634e487b7160e01b600052601160045260246000fd5b90508901518c6116d0565b601f1982169083600052806000209160005b8a828210611ef4575050918391611df6989796959460019410611edb575b5050811b019055611dcf565b8a015160001960f88460031b161c191690558b80611ecf565b60018495602093958493015181550194019201611eb1565b5061016d821115611d31565b60405162461bcd60e51b815260206004820152601760248201527f496e76616c6964206e6f74696f6e616c20616d6f756e740000000000000000006044820152606490fd5b3461041257602036600319011261041257600435600052600460205260406000208054611f8c60018301613dab565b91600281015490600381015490600481015460018060a01b0360058301541660018060a01b0360068401541690600784015492600960ff60088701541695015495611feb6040519a8b9a8b5261014060208c01526101408b0190613ed2565b9760408a01526060890152608088015260a087015260c086015260e085015215156101008401526101208301520390f35b346104125760407f70871850d2b65994480fa4277b80f005a453bac05c1f98c9d321dfd830e886c761204d36613f13565b612058939193614301565b83600052600060205281600020600b8101610100815461207a60ff8216613fd1565b61208a60ff8260081c161561400f565b84600c85015561ffff19161790556120ad600382015491600d8101928355614337565b5482519182526020820152a2005b34610412576000366003190112610412576013546040516001600160a01b039091168152602090f35b6120ed36613f13565b906120f66143ba565b806000526002602052604060002061211460ff60068301541661421f565b8234036121f557600381019061212b848354613fb1565b6002820154106121b85760049060018060a01b03331660005260078101602052604060002061215b868254613fb1565b905501612169848254613fb1565b9055612176838254613fb1565b90556040519182527f6d4bd91981fbdb61501518166f3984149ac9be767c3e2e6ea211beaa2257ffb560203393a360016000805160206144c683398151915255005b60405162461bcd60e51b81526020600482015260156024820152744578636565647320706f6f6c20636170616369747960581b6044820152606490fd5b60405162461bcd60e51b815260206004820152601d60248201527f496e636f727265637420636f6e747269627574696f6e20616d6f756e740000006044820152606490fd5b34610412576020366003190112610412576004356000526000602052604060002080546003820154600a83015460ff600b8501546006860154926122bb61228f600261228860018b01613dab565b9901613dab565b6122ad604051998a998a5261010060208b01526101008a0190613ed2565b9088820360408a0152613ed2565b9460608701526080860152818116151560a086015260081c16151560c084015260e08301520390f35b34610412576000366003190112610412576020601654604051908152f35b346104125760203660031901126104125760043560005260026020526040600020805460028201546003830154926004810154612349600160ff6006850154169301613dab565b94612366604051968796875260c0602088015260c0870190613ed2565b93604086015260608501526080840152151560a08301520390f35b60c0366003190112610412576004356001600160401b038111610412576123ac903690600401613c92565b60443590608435906024356001600160a01b03831683036104125760a435926123d9606435341015614192565b6123e44285116141de565b600954936123f185613fa2565b60095560405161014081018181106001600160401b03821117610b2757604052858152602081019185835284604083015287606083015260643560808301523360a083015260018060a01b03841660c083015260e08201526000610100820152600061012082015285600052600460205260406000209181518355518051906001600160401b038211610b27576124988261248f6001870154613d71565b60018701614140565b602090601f83116001146126255793600961012060009793956124d8868a99978a998a998a9261261a575b50508160011b916000199060031b1c19161790565b60018501555b60408101516002850155606081015160038501556080810151600485015560a08101516005850180546001600160a01b039283166001600160a01b03199182161790915560c083015160068701805491909316911617905560e0810151600785015561010081015160088501805460ff191691151560ff1691909117905501519101558160643515612611575b606435916001600160a01b031690f11561037e5760643534116125dc575b6125c783927f14e570a9fed06dab0a2b499cb554d1b432c57bf4fd561dfd3a0cb69f01e833c492602096604051938493606085526060850190613ed2565b918884015260408301520390a2604051908152f35b60008080806125ed60643534614113565b818115612608575b3390f1612589576040513d6000823e3d90fd5b506108fc6125f5565b506108fc61256b565b0151905038806124c3565b9060018501600052806000209160005b601f198516811061268a575061012060009793956001868a9995988a996009968b9a601f19811610612672575b505050811b0160018501556124de565b0151891960f88460031b161c191690558f8080612662565b91926020600181928685015181550194019201612635565b3461041257602036600319011261041257600435600052600060205260406000208054600182016126d290613dab565b916126df60028201613dab565b600382015491600481015460058201546006830154600160a01b6001900360078501541690600a85015492600b86015494600c87015496600d0154976040519b8c9b8c5260208c016101a090526101a08c0161273a91613ed2565b8b810360408d015261274b91613ed2565b9860608b015260808a015260a089015260c088015260e087015261010086015260ff8116151561012086015260081c60ff1615156101408501526101608401526101808301520390f35b34610412576040366003190112610412576127ae613d08565b600435600052600060205260096040600020019060018060a01b03166000526020526020604060002054604051908152f35b3461041257602036600319011261041257600435600052600160205260406000208054600160a01b60019003600183015416916002810161282090613dab565b60038201549060048301546005840154600685015460ff16600786015490600887015492600988015460ff1694600a8901549660405180600b819c019061286691613e4f565b03612871908b613c56565b6040519b8c9b8c5260208c015260408b0161018090526101808b0161289591613ed2565b9760608b015260808a015260a0890152151560c088015260e0870152610100860152151561012085015261014084015282810361016084015261115391613ed2565b346104125760203660031901126104125760043580600052600160205260406000209060018060a01b036001830154163303612ca8576009820180549060ff8216612c6f5760078401544210612c355760088401544211612bf0576012546040516129c19591606091906001600160a01b031661297b600683612960602082016002890161408a565b655f707269636560d01b815203601919810185520183613c56565b60405180809981946352ee0b7760e01b835260036004840152866024840152600660648401526519db1bd8985b60d21b608484015260a0604484015260a4830190613ed2565b03915afa94851561037e57600095612bcd575b5060009160ff600683015416808091612bc0575b15612b745750600b925060016003830154612a1b612a06828a614113565b91612a1660058701548094613fbe565b614120565b8180821091180218945b60ff191617905582600a82015560405194602086015242604086015260408552612a50606086613c56565b0183516001600160401b038111610b2757612a6f816116888454613d71565b602094601f8211600114612b0f57612aa2929394958291600092612b045750508160011b916000199060031b1c19161790565b90555b80158015612adc575b5060207f8b108da1d17181d35c5fea004615940117cabcf72e71be8cfe4212e1e085a8f891604051908152a2005b8190600090612afb575b600080809381933390f11561037e5782612aae565b506108fc612ae6565b0151905086806124c3565b601f1982169583600052806000209160005b888110612b5c57508360019596979810612b43575b505050811b019055612aa5565b015160001960f88460031b161c19169055858080612b36565b91926020600181928685015181550194019201612b21565b1580612bb3575b612b8b575b6001600b9394612a25565b600b925060016003830154612ba3612a068983614113565b8180821091180218935050612b80565b5060038201548610612b7b565b50600383015487116129e8565b612be791955060603d6060116105d6576105c68183613c56565b505093856129d4565b60405162461bcd60e51b815260206004820152601860248201527f536574746c656d656e7420706572696f642070617373656400000000000000006044820152606490fd5b60405162461bcd60e51b815260206004820152601260248201527113dc1d1a5bdb881b9bdd08195e1c1a5c995960721b6044820152606490fd5b60405162461bcd60e51b8152602060048201526011602482015270105b1c9958591e48195e195c98da5cd959607a1b6044820152606490fd5b60405162461bcd60e51b81526020600482015260146024820152732737ba103a34329037b83a34b7b710313abcb2b960611b6044820152606490fd5b34610412576000366003190112610412576020600754604051908152f35b346104125760c0366003190112610412576004356001600160401b03811161041257612d32903690600401613c92565b6024356001600160401b03811161041257612d51903690600401613c92565b6044356064359160a4359180156130a557612710612d7160155483613fbe565b04841061306e57612710612d8760165483613fbe565b04841161303657601e8310158061302a575b15612fe55760055493612dab85613fa2565b6005558460005260006020526040600020928584556001840187516001600160401b038111610b2757612de2816116888454613d71565b6020601f8211600114612f7f579080612e1092600091612f7457508160011b916000199060031b1c19161790565b90555b805160028501916001600160401b038211610b2757612e3c82612e368554613d71565b85614140565b602090601f8311600114612f0d57612e6c929160009183612f025750508160011b916000199060031b1c19161790565b90555b8160038401556004830155608435600583015562015180830292808404620151801490151715611e7e57602094600b7fdde7066d837f8d0e7958a65955bddf4e24afaf3575305bbf69e563d8e6facec893612ecb879642613fb1565b60068201556007810180546001600160a01b0319163317905501805461ffff19166001179055604051918291611708919083613f86565b015190508a806124c3565b90601f1983169184600052816000209260005b818110612f5c5750908460019594939210612f43575b505050811b019055612e6f565b015160001960f88460031b161c19169055898080612f36565b92936020600181928786015181550195019301612f20565b90508a01518b6116d0565b601f1982169083600052806000209160005b8c828210612fcd5750509083600194939210612fb4575b5050811b019055612e13565b8b015160001960f88460031b161c191690558a80612fa8565b60018495602093958493015181550194019201612f91565b60405162461bcd60e51b815260206004820152601760248201527f496e76616c6964206d6174757269747920706572696f640000000000000000006044820152606490fd5b5061016d831115612d99565b60405162461bcd60e51b815260206004820152601060248201526f0a0e4cadad2eada40e8dede40d0d2ced60831b6044820152606490fd5b60405162461bcd60e51b815260206004820152600f60248201526e5072656d69756d20746f6f206c6f7760881b6044820152606490fd5b60405162461bcd60e51b815260206004820152601760248201527f496e76616c696420636f76657261676520616d6f756e740000000000000000006044820152606490fd5b3461041257602036600319011261041257600435600052600060205260406000206006810154908142106132315760ff600b82015460081c166131f757336000908152600982016020819052604090912054909281156131bc5761316960039161316361315b600487015486613fbe565b914290614113565b90613fbe565b92015491826301e1338002926301e13380840403611e7e576000808561319b8295613195888597614120565b90613fb1565b3383526020919091526040822082905581811561055e573390f11561037e57005b60405162461bcd60e51b8152602060048201526013602482015272139bc81a5b9d995cdd1b595b9d08199bdd5b99606a1b6044820152606490fd5b60405162461bcd60e51b8152602060048201526012602482015271109bdb99081dd85cc81d1c9a59d9d95c995960721b6044820152606490fd5b60405162461bcd60e51b815260206004820152601060248201526f109bdb99081b9bdd081b585d1d5c995960821b6044820152606490fd5b34610412576000366003190112610412576020601754604051908152f35b34610412576020366003190112610412576004358060005260006020526040600020600b8101906133528254916132c060ff8416613fd1565b6132d060ff8460081c161561400f565b6132e0600682015442111561404f565b6012546040516060916001600160a01b0316613323600683613308602082016001890161408a565b650bed2dcc8caf60d31b815203601919810185520183613c56565b60405180809681946352ee0b7760e01b835260006004840152866024840152611c186064840160028a01613e4f565b03915afa91821561037e57600092613401575b50600581015482106133bc577f70871850d2b65994480fa4277b80f005a453bac05c1f98c9d321dfd830e886c79361010060409484600c85015561ffff19161790556120ad600382015491600d8101928355614337565b60405162461bcd60e51b815260206004820152601960248201527f54726967676572207468726573686f6c64206e6f74206d6574000000000000006044820152606490fd5b61341b91925060603d6060116105d6576105c68183613c56565b50509085613365565b34610412576101e036600319011261041257600435604435602435610180366063190112610412576040519261345984613c3b565b36608312156104125761346d366064613d34565b84523660c312156104125760409182516134878482613c56565b8036610124116104125760a4905b610124821061389457505060208601908152366101431215610412576134bd36610124613d34565b90848701918252366101831215610412578451916134dc608084613c56565b82366101e41161041257610164905b6101e4821061388457505060608801928352600c54841161384857600a5488519251915184518851635fe8c13b60e01b8152946001600160a01b0390931693859391929161353d906004860190613f5e565b60008a604486015b60028310613822575050505061355f9060c4840190613f5e565b600061010483015b6004821061380857505050610184816020935afa9081156137fd576000916137bb575b5015613784575160200151600b541161374b57600854936135aa85613fa2565b6008558351956135b987613c20565b83875260208701908382528588018381526060890191825260808901916001835260a08a01916000835260c08b01944286528a6000526003602052896000209b518c555160018c01555160028b01555189815160005b6002811061373257505050602081015160058b01906000905b600282106136fc5750505089888201516000905b600282106136e357505050606001516000905b600482106136cc5750509288601088948a97947fd2adbca968b099a5b84c49a6ed14951cd1b16e9b0ba7090dce0b98c59a51f806976136a3600f60209f0192511515839060ff801983541691151516179055565b51815461ff00191690151560081b61ff001617905551910155825191825288820152a351908152f35b80518b8301600b015560019091019060200161364f565b9081600982602060019551930195010155018b9161363c565b805160005b6002811061371e5750506002602060019201930191019091613628565b600190602083519301928187015501613701565b8160038260206001955193019501015501908b9161360f565b825162461bcd60e51b81526020600482015260126024820152715269736b2073636f726520746f6f206c6f7760701b6044820152606490fd5b835162461bcd60e51b815260206004820152601060248201526f24b73b30b634b2102d2590383937b7b360811b6044820152606490fd5b6020813d6020116137f5575b816137d460209383613c56565b810103126137f157519081151582036137ee57508761358a565b80fd5b5080fd5b3d91506137c7565b85513d6000823e3d90fd5b829350602080916001939451815201930191018492613567565b839495965090816138396020936001959651613f5e565b01930191018a87959493613545565b855162461bcd60e51b8152602060048201526015602482015274086d8c2d2da40c2dadeeadce840e8dede40d0d2ced605b1b6044820152606490fd5b81358152602091820191016134eb565b600036601f840112156137ee5750602086916138b03685613d34565b815201910190613495565b34610412576000366003190112610412576020601454604051908152f35b34610412576080366003190112610412576138f2614301565b600435601455602435601555604435601655606435601755005b34610412576000366003190112610412576011546040516001600160a01b039091168152602090f35b600036600319011261041257613949614301565b61395534601054613fb1565b6010557fe3c0994e3e4cdade97e56a94f0ccdbeec353d9ed29c4144f75bf50e8464c2da86020604051348152a1005b346104125760403660031901126104125761399d613d08565b600435600052600260205260076040600020019060018060a01b03166000526020526020604060002054604051908152f35b60603660031901126104125760043560243590813410613adc576020917f18a48f7ac4a1c05151a6b68127c85be89ea09754a6bcb803a96cece23f0339766040600e54938493613a1e85613fa2565b600e558251613a2c81613c20565b8281526006888201878152613ac6868401338152606085018681526080860190604435825260a08701926001845260c0880195600087528d6000528f600d90528b6000209851895551600189015560018060a01b03905116600288019060018060a01b03166001600160601b0360a01b825416179055516003870155516004860155511515600585019060ff801983541691151516179055565b51910155825191825286820152a2604051908152f35b60405162461bcd60e51b815260206004820152601d60248201527f496e73756666696369656e7420636f766572616765207061796d656e740000006044820152606490fd5b3461041257613b2f36613cd7565b6011546040516370a0823160e01b815233600482015290602090829060249082906001600160a01b03165afa90811561037e57600091613bee575b50600f5411613ba9577f7640dbac09c466c37a532a57792ae38a31e2979789d3c3892729e5ac77a3905891613ba460405192839283613f86565b0390a1005b60405162461bcd60e51b815260206004820152601e60248201527f496e73756666696369656e7420676f7665726e616e636520746f6b656e7300006044820152606490fd5b90506020813d602011613c18575b81613c0960209383613c56565b81010312610412575183613b6a565b3d9150613bfc565b60e081019081106001600160401b03821117610b2757604052565b608081019081106001600160401b03821117610b2757604052565b90601f801991011681019081106001600160401b03821117610b2757604052565b6001600160401b038111610b2757601f01601f191660200190565b81601f8201121561041257602081359101613cac82613c77565b92613cba6040519485613c56565b828452828201116104125781600092602092838601378301015290565b604060031982011261041257600435906001600160401b03821161041257613d0191600401613c92565b9060243590565b602435906001600160a01b038216820361041257565b600435906001600160a01b038216820361041257565b9190604080519390613d469085613c56565b83906040810192831161041257905b828210613d6157505050565b8135815260209182019101613d55565b90600182811c92168015613da1575b6020831014613d8b57565b634e487b7160e01b600052602260045260246000fd5b91607f1691613d80565b9060405191826000825492613dbf84613d71565b8084529360018116908115613e2d5750600114613de6575b50613de492500383613c56565b565b90506000929192526020600020906000915b818310613e11575050906020613de49282010138613dd7565b6020919350806001915483858901015201910190918492613df8565b905060209250613de494915060ff191682840152151560051b82010138613dd7565b60009291815491613e5f83613d71565b8083529260018116908115613eb55750600114613e7b57505050565b60009081526020812093945091925b838310613e9b575060209250010190565b600181602092949394548385870101520191019190613e8a565b915050602093945060ff929192191683830152151560051b010190565b919082519283825260005b848110613efe575050826000602080949584010152601f8019910116010190565b80602080928401015182828601015201613edd565b6040906003190112610412576004359060243590565b60405191906000835b60028210613f4857505050613de4604083613c56565b6001602081928554815201930191019091613f32565b906000905b60028210613f7057505050565b6020806001928551815201930191019091613f63565b929190613f9d602091604086526040860190613ed2565b930152565b6000198114611e7e5760010190565b91908201809211611e7e57565b81810292918115918404141715611e7e57565b15613fd857565b60405162461bcd60e51b815260206004820152600f60248201526e426f6e64206e6f742061637469766560881b6044820152606490fd5b1561401657565b60405162461bcd60e51b8152602060048201526011602482015270105b1c9958591e481d1c9a59d9d95c9959607a1b6044820152606490fd5b1561405657565b60405162461bcd60e51b815260206004820152600c60248201526b109bdb99081b585d1d5c995960a21b6044820152606490fd5b6000929181549161409a83613d71565b92600181169081156140e557506001146140b357505050565b909192935060005260206000206000905b8382106140d15750500190565b6001816020925484860152019101906140c4565b60ff191683525050811515909102019150565b90816060910312610412578051916040602083015192015190565b91908203918211611e7e57565b811561412a570490565b634e487b7160e01b600052601260045260246000fd5b601f821161414d57505050565b6000526020600020906020601f840160051c83019310614188575b601f0160051c01905b81811061417c575050565b60008155600101614171565b9091508190614168565b1561419957565b60405162461bcd60e51b815260206004820152601c60248201527f496e73756666696369656e74207072656d69756d207061796d656e74000000006044820152606490fd5b156141e557565b60405162461bcd60e51b815260206004820152601260248201527124b73b30b634b21032bc3834b930ba34b7b760711b6044820152606490fd5b1561422657565b60405162461bcd60e51b815260206004820152600f60248201526e506f6f6c206e6f742061637469766560881b6044820152606490fd5b80548210156142755760005260206000200190600090565b634e487b7160e01b600052603260045260246000fd5b6001600160a01b031680156142eb5760008051602061448683398151915280546001600160a01b0319811683179091556001600160a01b03167f8be0079c531659141344cd1fd0a4f28419497f9722a3daafe3b4186f6b6457e0600080a3565b631e4fbdf760e01b600052600060045260246000fd5b600080516020614486833981519152546001600160a01b0316330361432257565b63118cdaa760e01b6000523360045260246000fd5b600d810154600a8201549060005b6008840180548210156143b3576000808061436185829561425d565b905460039190911b1c6001600160a01b0316808252600989016020526040822054614393908990612a16908a90613fbe565b908282156143aa575bf11561037e57600101614345565b506108fc61439c565b5050505050565b60026000805160206144c683398151915254146143e55760026000805160206144c683398151915255565b633ee5aeb560e01b60005260046000fd5b60ff6000805160206144e68339815191525460401c161561441357565b631afcd79f60e31b60005260046000fd5b9061444a575080511561443957602081519101fd5b63d6bda27560e01b60005260046000fd5b8151158061447c575b61445b575090565b639996b31560e01b60009081526001600160a01b0391909116600452602490fd5b50803b1561445356fe9016d09d72d40fdae2fd8ceac6b6234c7706214fd39c1cd1e609a0528c199300360894a13ba1a3210667c828492db98dca3e2076cc3735a920a3ca505d382bbc9b779b17422d0df92223018b32b4d1fa46e071723d6817e2486d003becc55f00f0c57e16840df040f15088dc2f81fe391c3923bec73e23a9662efc9c229c6a00a264697066735822122021a456de420a6e55e0c4d9b99e5718fcbf4d90f2076aa222eccba5abeff8093764736f6c634300081c0033",
  "linkReferences": {},
  "deployedLinkReferences": {}
}