{
  "_format": "hh-sol-artifact-1",
  "contractName": "AdvancedInsurance",
  "sourceName": "contracts/AdvancedInsurance.sol",
  "abi": [
    {
      "inputs": [
        {
          "internalType": "address",
          "name": "target",
          "type": "address"
        }
      ],
      "name": "AddressEmptyCode",
      "type": "error"
    },
    {
      "inputs": [
        {
          "internalType": "address",
          "name": "implementation",
          "type": "address"
        }
      ],
      "name": "ERC1967InvalidImplementation",
      "type": "error"
    },
    {
      "inputs": [],
      "name": "ERC1967NonPayable",
      "type": "error"
    },
    {
      "inputs": [],
      "name": "FailedCall",
      "type": "error"
    },
    {
      "inputs": [],
      "name": "InvalidInitialization",
      "type": "error"
    },
    {
      "inputs": [],
      "name": "NotInitializing",
      "type": "error"
    },
    {
      "inputs": [
        {
          "internalType": "address",
          "name": "owner",
          "type": "address"
        }
      ],
      "name": "OwnableInvalidOwner",
      "type": "error"
    },
    {
      "inputs": [
        {
          "internalType": "address",
          "name": "account",
          "type": "address"
        }
      ],
      "name": "OwnableUnauthorizedAccount",
      "type": "error"
    },
    {
      "inputs": [],
      "name": "ReentrancyGuardReentrantCall",
      "type": "error"
    },
    {
      "inputs": [],
      "name": "UUPSUnauthorizedCallContext",
      "type": "error"
    },
    {
      "inputs": [
        {
          "internalType": "bytes32",
          "name": "slot",
          "type": "bytes32"
        }
      ],
      "name": "UUPSUnsupportedProxiableUUID",
      "type": "error"
    },
    {
      "anonymous": false,
      "inputs": [
        {
          "indexed": true,
          "internalType": "uint256",
          "name": "bondId",
          "type": "uint256"
        },
        {
          "indexed": false,
          "internalType": "string",
          "name": "catastropheType",
          "type": "string"
        },
        {
          "indexed": false,
          "internalType": "uint256",
          "name": "coverageAmount",
          "type": "uint256"
        }
      ],
      "name": "CatastropheBondCreated",
      "type": "event"
    },
    {
      "anonymous": false,
      "inputs": [
        {
          "indexed": true,
          "internalType": "uint256",
          "name": "bondId",
          "type": "uint256"
        },
        {
          "indexed": true,
          "internalType": "address",
          "name": "investor",
          "type": "address"
        },
        {
          "indexed": false,
          "internalType": "uint256",
          "name": "amount",
          "type": "uint256"
        }
      ],
      "name": "CatastropheBondInvested",
      "type": "event"
    },
    {
      "anonymous": false,
      "inputs": [
        {
          "indexed": true,
          "internalType": "uint256",
          "name": "bondId",
          "type": "uint256"
        },
        {
          "indexed": false,
          "internalType": "uint256",
          "name": "triggerIndex",
          "type": "uint256"
        },
        {
          "indexed": false,
          "internalType": "uint256",
          "name": "payoutAmount",
          "type": "uint256"
        }
      ],
      "name": "CatastropheBondTriggered",
      "type": "event"
    },
    {
      "anonymous": false,
      "inputs": [
        {
          "indexed": true,
          "internalType": "uint256",
          "name": "policyId",
          "type": "uint256"
        },
        {
          "indexed": false,
          "internalType": "uint256",
          "name": "payoutAmount",
          "type": "uint256"
        }
      ],
      "name": "CrossChainClaimProcessed",
      "type": "event"
    },
    {
      "anonymous": false,
      "inputs": [
        {
          "indexed": true,
          "internalType": "uint256",
          "name": "policyId",
          "type": "uint256"
        },
        {
          "indexed": false,
          "internalType": "uint256",
          "name": "sourceChainId",
          "type": "uint256"
        },
        {
          "indexed": false,
          "internalType": "uint256",
          "name": "coverageAmount",
          "type": "uint256"
        }
      ],
      "name": "CrossChainPolicyCreated",
      "type": "event"
    },
    {
      "anonymous": false,
      "inputs": [
        {
          "indexed": false,
          "internalType": "uint256",
          "name": "amount",
          "type": "uint256"
        }
      ],
      "name": "EmergencyFundDeposited",
      "type": "event"
    },
    {
      "anonymous": false,
      "inputs": [
        {
          "indexed": false,
          "internalType": "uint256",
          "name": "amount",
          "type": "uint256"
        }
      ],
      "name": "EmergencyFundWithdrawn",
      "type": "event"
    },
    {
      "anonymous": false,
      "inputs": [
        {
          "indexed": false,
          "internalType": "uint64",
          "name": "version",
          "type": "uint64"
        }
      ],
      "name": "Initialized",
      "type": "event"
    },
    {
      "anonymous": false,
      "inputs": [
        {
          "indexed": false,
          "internalType": "string",
          "name": "parameter",
          "type": "string"
        },
        {
          "indexed": false,
          "internalType": "uint256",
          "name": "newValue",
          "type": "uint256"
        }
      ],
      "name": "InsuranceParameterProposed",
      "type": "event"
    },
    {
      "anonymous": false,
      "inputs": [
        {
          "indexed": true,
          "internalType": "uint256",
          "name": "poolId",
          "type": "uint256"
        },
        {
          "indexed": false,
          "internalType": "string",
          "name": "poolType",
          "type": "string"
        },
        {
          "indexed": false,
          "internalType": "uint256",
          "name": "capacity",
          "type": "uint256"
        }
      ],
      "name": "InsurancePoolCreated",
      "type": "event"
    },
    {
      "anonymous": false,
      "inputs": [
        {
          "indexed": true,
          "internalType": "address",
          "name": "previousOwner",
          "type": "address"
        },
        {
          "indexed": true,
          "internalType": "address",
          "name": "newOwner",
          "type": "address"
        }
      ],
      "name": "OwnershipTransferred",
      "type": "event"
    },
    {
      "anonymous": false,
      "inputs": [
        {
          "indexed": true,
          "internalType": "uint256",
          "name": "optionId",
          "type": "uint256"
        },
        {
          "indexed": true,
          "internalType": "address",
          "name": "buyer",
          "type": "address"
        },
        {
          "indexed": false,
          "internalType": "string",
          "name": "underlyingAsset",
          "type": "string"
        }
      ],
      "name": "ParametricOptionCreated",
      "type": "event"
    },
    {
      "anonymous": false,
      "inputs": [
        {
          "indexed": true,
          "internalType": "uint256",
          "name": "optionId",
          "type": "uint256"
        },
        {
          "indexed": false,
          "internalType": "uint256",
          "name": "payoutAmount",
          "type": "uint256"
        }
      ],
      "name": "ParametricOptionExercised",
      "type": "event"
    },
    {
      "anonymous": false,
      "inputs": [
        {
          "indexed": true,
          "internalType": "uint256",
          "name": "poolId",
          "type": "uint256"
        },
        {
          "indexed": true,
          "internalType": "address",
          "name": "contributor",
          "type": "address"
        },
        {
          "indexed": false,
          "internalType": "uint256",
          "name": "amount",
          "type": "uint256"
        }
      ],
      "name": "PoolContribution",
      "type": "event"
    },
    {
      "anonymous": false,
      "inputs": [
        {
          "indexed": true,
          "internalType": "uint256",
          "name": "claimId",
          "type": "uint256"
        },
        {
          "indexed": false,
          "internalType": "uint256",
          "name": "payoutAmount",
          "type": "uint256"
        }
      ],
      "name": "PrivateClaimProcessed",
      "type": "event"
    },
    {
      "anonymous": false,
      "inputs": [
        {
          "indexed": true,
          "internalType": "uint256",
          "name": "claimId",
          "type": "uint256"
        },
        {
          "indexed": true,
          "internalType": "uint256",
          "name": "policyId",
          "type": "uint256"
        },
        {
          "indexed": false,
          "internalType": "uint256",
          "name": "claimAmount",
          "type": "uint256"
        },
        {
          "indexed": false,
          "internalType": "bytes32",
          "name": "commitment",
          "type": "bytes32"
        }
      ],
      "name": "PrivateClaimSubmitted",
      "type": "event"
    },
    {
      "anonymous": false,
      "inputs": [
        {
          "indexed": true,
          "internalType": "uint256",
          "name": "derivativeId",
          "type": "uint256"
        },
        {
          "indexed": false,
          "internalType": "string",
          "name": "underlyingRisk",
          "type": "string"
        },
        {
          "indexed": false,
          "internalType": "uint256",
          "name": "notionalAmount",
          "type": "uint256"
        },
        {
          "indexed": false,
          "internalType": "uint256",
          "name": "strikeLevel",
          "type": "uint256"
        }
      ],
      "name": "RiskDerivativeCreated",
      "type": "event"
    },
    {
      "anonymous": false,
      "inputs": [
        {
          "indexed": true,
          "internalType": "uint256",
          "name": "derivativeId",
          "type": "uint256"
        },
        {
          "indexed": false,
          "internalType": "uint256",
          "name": "riskValue",
          "type": "uint256"
        },
        {
          "indexed": false,
          "internalType": "int256",
          "name": "payout",
          "type": "int256"
        }
      ],
      "name": "RiskDerivativeSettled",
      "type": "event"
    },
    {
      "anonymous": false,
      "inputs": [
        {
          "indexed": true,
          "internalType": "address",
          "name": "implementation",
          "type": "address"
        }
      ],
      "name": "Upgraded",
      "type": "event"
    },
    {
      "anonymous": false,
      "inputs": [
        {
          "indexed": true,
          "internalType": "address",
          "name": "verifier",
          "type": "address"
        }
      ],
      "name": "ZKVerifierSet",
      "type": "event"
    },
    {
      "inputs": [],
      "name": "UPGRADE_INTERFACE_VERSION",
      "outputs": [
        {
          "internalType": "string",
          "name": "",
          "type": "string"
        }
      ],
      "stateMutability": "view",
      "type": "function"
    },
    {
      "inputs": [
        {
          "internalType": "address",
          "name": "farmer",
          "type": "address"
        },
        {
          "internalType": "string",
          "name": "location",
          "type": "string"
        },
        {
          "internalType": "string",
          "name": "cropType",
          "type": "string"
        }
      ],
      "name": "assessRiskWithAI",
      "outputs": [
        {
          "internalType": "uint256",
          "name": "riskScore",
          "type": "uint256"
        },
        {
          "internalType": "uint256",
          "name": "premiumRate",
          "type": "uint256"
        }
      ],
      "stateMutability": "view",
      "type": "function"
    },
    {
      "inputs": [
        {
          "internalType": "uint256",
          "name": "",
          "type": "uint256"
        }
      ],
      "name": "catastropheBonds",
      "outputs": [
        {
          "internalType": "uint256",
          "name": "id",
          "type": "uint256"
        },
        {
          "internalType": "string",
          "name": "catastropheType",
          "type": "string"
        },
        {
          "internalType": "string",
          "name": "region",
          "type": "string"
        },
        {
          "internalType": "uint256",
          "name": "coverageAmount",
          "type": "uint256"
        },
        {
          "internalType": "uint256",
          "name": "premium",
          "type": "uint256"
        },
        {
          "internalType": "uint256",
          "name": "triggerThreshold",
          "type": "uint256"
        },
        {
          "internalType": "uint256",
          "name": "maturityDate",
          "type": "uint256"
        },
        {
          "internalType": "address",
          "name": "issuer",
          "type": "address"
        },
        {
          "internalType": "uint256",
          "name": "totalInvested",
          "type": "uint256"
        },
        {
          "internalType": "bool",
          "name": "active",
          "type": "bool"
        },
        {
          "internalType": "bool",
          "name": "triggered",
          "type": "bool"
        },
        {
          "internalType": "uint256",
          "name": "triggerIndex",
          "type": "uint256"
        },
        {
          "internalType": "uint256",
          "name": "payoutAmount",
          "type": "uint256"
        }
      ],
      "stateMutability": "view",
      "type": "function"
    },
    {
      "inputs": [
        {
          "internalType": "uint256",
          "name": "_bondId",
          "type": "uint256"
        }
      ],
      "name": "claimCatastropheBondMaturity",
      "outputs": [],
      "stateMutability": "nonpayable",
      "type": "function"
    },
    {
      "inputs": [
        {
          "internalType": "uint256",
          "name": "policyId",
          "type": "uint256"
        },
        {
          "internalType": "bytes",
          "name": "proof",
          "type": "bytes"
        }
      ],
      "name": "claimCrossChainInsurance",
      "outputs": [],
      "stateMutability": "nonpayable",
      "type": "function"
    },
    {
      "inputs": [
        {
          "internalType": "uint256",
          "name": "_poolId",
          "type": "uint256"
        },
        {
          "internalType": "uint256",
          "name": "_claimAmount",
          "type": "uint256"
        },
        {
          "internalType": "bytes",
          "name": "_proof",
          "type": "bytes"
        }
      ],
      "name": "claimPoolPayout",
      "outputs": [],
      "stateMutability": "nonpayable",
      "type": "function"
    },
    {
      "inputs": [
        {
          "internalType": "uint256",
          "name": "_poolId",
          "type": "uint256"
        },
        {
          "internalType": "uint256",
          "name": "_amount",
          "type": "uint256"
        }
      ],
      "name": "contributeToPool",
      "outputs": [],
      "stateMutability": "payable",
      "type": "function"
    },
    {
      "inputs": [
        {
          "internalType": "string",
          "name": "_catastropheType",
          "type": "string"
        },
        {
          "internalType": "string",
          "name": "_region",
          "type": "string"
        },
        {
          "internalType": "uint256",
          "name": "_coverageAmount",
          "type": "uint256"
        },
        {
          "internalType": "uint256",
          "name": "_premium",
          "type": "uint256"
        },
        {
          "internalType": "uint256",
          "name": "_triggerThreshold",
          "type": "uint256"
        },
        {
          "internalType": "uint256",
          "name": "_maturityDays",
          "type": "uint256"
        }
      ],
      "name": "createCatastropheBond",
      "outputs": [
        {
          "internalType": "uint256",
          "name": "",
          "type": "uint256"
        }
      ],
      "stateMutability": "nonpayable",
      "type": "function"
    },
    {
      "inputs": [
        {
          "internalType": "uint256",
          "name": "sourceChainId",
          "type": "uint256"
        },
        {
          "internalType": "uint256",
          "name": "coverageAmount",
          "type": "uint256"
        },
        {
          "internalType": "uint256",
          "name": "expirationDate",
          "type": "uint256"
        }
      ],
      "name": "createCrossChainPolicy",
      "outputs": [
        {
          "internalType": "uint256",
          "name": "",
          "type": "uint256"
        }
      ],
      "stateMutability": "payable",
      "type": "function"
    },
    {
      "inputs": [
        {
          "internalType": "string",
          "name": "_poolType",
          "type": "string"
        },
        {
          "internalType": "uint256",
          "name": "_capacity",
          "type": "uint256"
        }
      ],
      "name": "createInsurancePool",
      "outputs": [
        {
          "internalType": "uint256",
          "name": "",
          "type": "uint256"
        }
      ],
      "stateMutability": "nonpayable",
      "type": "function"
    },
    {
      "inputs": [
        {
          "internalType": "string",
          "name": "_underlyingAsset",
          "type": "string"
        },
        {
          "internalType": "uint256",
          "name": "_strikePrice",
          "type": "uint256"
        },
        {
          "internalType": "uint256",
          "name": "_premium",
          "type": "uint256"
        },
        {
          "internalType": "uint256",
          "name": "_notionalAmount",
          "type": "uint256"
        },
        {
          "internalType": "bool",
          "name": "_isCall",
          "type": "bool"
        },
        {
          "internalType": "uint256",
          "name": "_expirationDays",
          "type": "uint256"
        }
      ],
      "name": "createParametricOption",
      "outputs": [
        {
          "internalType": "uint256",
          "name": "",
          "type": "uint256"
        }
      ],
      "stateMutability": "payable",
      "type": "function"
    },
    {
      "inputs": [
        {
          "internalType": "string",
          "name": "underlyingRisk",
          "type": "string"
        },
        {
          "internalType": "uint256",
          "name": "notionalAmount",
          "type": "uint256"
        },
        {
          "internalType": "uint256",
          "name": "strikeLevel",
          "type": "uint256"
        },
        {
          "internalType": "uint256",
          "name": "premium",
          "type": "uint256"
        },
        {
          "internalType": "address",
          "name": "seller",
          "type": "address"
        },
        {
          "internalType": "uint256",
          "name": "expirationDate",
          "type": "uint256"
        }
      ],
      "name": "createRiskDerivative",
      "outputs": [
        {
          "internalType": "uint256",
          "name": "",
          "type": "uint256"
        }
      ],
      "stateMutability": "payable",
      "type": "function"
    },
    {
      "inputs": [
        {
          "internalType": "uint256",
          "name": "",
          "type": "uint256"
        }
      ],
      "name": "crossChainPolicies",
      "outputs": [
        {
          "internalType": "uint256",
          "name": "sourceChainId",
          "type": "uint256"
        },
        {
          "internalType": "uint256",
          "name": "policyId",
          "type": "uint256"
        },
        {
          "internalType": "address",
          "name": "beneficiary",
          "type": "address"
        },
        {
          "internalType": "uint256",
          "name": "coverageAmount",
          "type": "uint256"
        },
        {
          "internalType": "uint256",
          "name": "expirationDate",
          "type": "uint256"
        },
        {
          "internalType": "bool",
          "name": "active",
          "type": "bool"
        },
        {
          "internalType": "bytes32",
          "name": "bridgeTxHash",
          "type": "bytes32"
        }
      ],
      "stateMutability": "view",
      "type": "function"
    },
    {
      "inputs": [
        {
          "internalType": "uint256",
          "name": "_poolId",
          "type": "uint256"
        }
      ],
      "name": "deactivatePool",
      "outputs": [],
      "stateMutability": "nonpayable",
      "type": "function"
    },
    {
      "inputs": [],
      "name": "depositEmergencyFund",
      "outputs": [],
      "stateMutability": "payable",
      "type": "function"
    },
    {
      "inputs": [],
      "name": "emergencyFund",
      "outputs": [
        {
          "internalType": "uint256",
          "name": "",
          "type": "uint256"
        }
      ],
      "stateMutability": "view",
      "type": "function"
    },
    {
      "inputs": [
        {
          "internalType": "uint256",
          "name": "amount",
          "type": "uint256"
        }
      ],
      "name": "emergencyFundWithdrawal",
      "outputs": [],
      "stateMutability": "nonpayable",
      "type": "function"
    },
    {
      "inputs": [
        {
          "internalType": "uint256",
          "name": "_bondId",
          "type": "uint256"
        },
        {
          "internalType": "uint256",
          "name": "_triggerIndex",
          "type": "uint256"
        }
      ],
      "name": "emergencyTriggerBond",
      "outputs": [],
      "stateMutability": "nonpayable",
      "type": "function"
    },
    {
      "inputs": [
        {
          "internalType": "uint256",
          "name": "_optionId",
          "type": "uint256"
        }
      ],
      "name": "exerciseParametricOption",
      "outputs": [],
      "stateMutability": "nonpayable",
      "type": "function"
    },
    {
      "inputs": [
        {
          "internalType": "uint256",
          "name": "_bondId",
          "type": "uint256"
        }
      ],
      "name": "getCatastropheBond",
      "outputs": [
        {
          "internalType": "uint256",
          "name": "id",
          "type": "uint256"
        },
        {
          "internalType": "string",
          "name": "catastropheType",
          "type": "string"
        },
        {
          "internalType": "string",
          "name": "region",
          "type": "string"
        },
        {
          "internalType": "uint256",
          "name": "coverageAmount",
          "type": "uint256"
        },
        {
          "internalType": "uint256",
          "name": "totalInvested",
          "type": "uint256"
        },
        {
          "internalType": "bool",
          "name": "active",
          "type": "bool"
        },
        {
          "internalType": "bool",
          "name": "triggered",
          "type": "bool"
        },
        {
          "internalType": "uint256",
          "name": "maturityDate",
          "type": "uint256"
        }
      ],
      "stateMutability": "view",
      "type": "function"
    },
    {
      "inputs": [
        {
          "internalType": "uint256",
          "name": "_bondId",
          "type": "uint256"
        },
        {
          "internalType": "address",
          "name": "_investor",
          "type": "address"
        }
      ],
      "name": "getCatastropheBondInvestment",
      "outputs": [
        {
          "internalType": "uint256",
          "name": "",
          "type": "uint256"
        }
      ],
      "stateMutability": "view",
      "type": "function"
    },
    {
      "inputs": [
        {
          "internalType": "uint256",
          "name": "_poolId",
          "type": "uint256"
        }
      ],
      "name": "getInsurancePool",
      "outputs": [
        {
          "internalType": "uint256",
          "name": "id",
          "type": "uint256"
        },
        {
          "internalType": "string",
          "name": "poolType",
          "type": "string"
        },
        {
          "internalType": "uint256",
          "name": "totalCapacity",
          "type": "uint256"
        },
        {
          "internalType": "uint256",
          "name": "utilizedCapacity",
          "type": "uint256"
        },
        {
          "internalType": "uint256",
          "name": "premiumPool",
          "type": "uint256"
        },
        {
          "internalType": "bool",
          "name": "active",
          "type": "bool"
        }
      ],
      "stateMutability": "view",
      "type": "function"
    },
    {
      "inputs": [
        {
          "internalType": "uint256",
          "name": "_optionId",
          "type": "uint256"
        }
      ],
      "name": "getParametricOption",
      "outputs": [
        {
          "internalType": "uint256",
          "name": "id",
          "type": "uint256"
        },
        {
          "internalType": "address",
          "name": "buyer",
          "type": "address"
        },
        {
          "internalType": "string",
          "name": "underlyingAsset",
          "type": "string"
        },
        {
          "internalType": "uint256",
          "name": "strikePrice",
          "type": "uint256"
        },
        {
          "internalType": "uint256",
          "name": "notionalAmount",
          "type": "uint256"
        },
        {
          "internalType": "bool",
          "name": "isCall",
          "type": "bool"
        },
        {
          "internalType": "uint256",
          "name": "expirationDate",
          "type": "uint256"
        },
        {
          "internalType": "bool",
          "name": "exercised",
          "type": "bool"
        },
        {
          "internalType": "uint256",
          "name": "payoutAmount",
          "type": "uint256"
        }
      ],
      "stateMutability": "view",
      "type": "function"
    },
    {
      "inputs": [
        {
          "internalType": "uint256",
          "name": "_poolId",
          "type": "uint256"
        },
        {
          "internalType": "address",
          "name": "_contributor",
          "type": "address"
        }
      ],
      "name": "getPoolContribution",
      "outputs": [
        {
          "internalType": "uint256",
          "name": "",
          "type": "uint256"
        }
      ],
      "stateMutability": "view",
      "type": "function"
    },
    {
      "inputs": [],
      "name": "governanceThreshold",
      "outputs": [
        {
          "internalType": "uint256",
          "name": "",
          "type": "uint256"
        }
      ],
      "stateMutability": "view",
      "type": "function"
    },
    {
      "inputs": [
        {
          "internalType": "address",
          "name": "_oracle",
          "type": "address"
        },
        {
          "internalType": "address",
          "name": "_parametricInsurance",
          "type": "address"
        },
        {
          "internalType": "address",
          "name": "_zkVerifier",
          "type": "address"
        },
        {
          "internalType": "address",
          "name": "_riskAssessmentOracle",
          "type": "address"
        }
      ],
      "name": "initialize",
      "outputs": [],
      "stateMutability": "nonpayable",
      "type": "function"
    },
    {
      "inputs": [
        {
          "internalType": "uint256",
          "name": "",
          "type": "uint256"
        }
      ],
      "name": "insurancePools",
      "outputs": [
        {
          "internalType": "uint256",
          "name": "id",
          "type": "uint256"
        },
        {
          "internalType": "string",
          "name": "poolType",
          "type": "string"
        },
        {
          "internalType": "uint256",
          "name": "totalCapacity",
          "type": "uint256"
        },
        {
          "internalType": "uint256",
          "name": "utilizedCapacity",
          "type": "uint256"
        },
        {
          "internalType": "uint256",
          "name": "premiumCollected",
          "type": "uint256"
        },
        {
          "internalType": "uint256",
          "name": "payoutReserve",
          "type": "uint256"
        },
        {
          "internalType": "bool",
          "name": "active",
          "type": "bool"
        }
      ],
      "stateMutability": "view",
      "type": "function"
    },
    {
      "inputs": [
        {
          "internalType": "uint256",
          "name": "_bondId",
          "type": "uint256"
        },
        {
          "internalType": "uint256",
          "name": "_amount",
          "type": "uint256"
        }
      ],
      "name": "investInCatastropheBond",
      "outputs": [],
      "stateMutability": "payable",
      "type": "function"
    },
    {
      "inputs": [],
      "name": "maxClaimAmount",
      "outputs": [
        {
          "internalType": "uint256",
          "name": "",
          "type": "uint256"
        }
      ],
      "stateMutability": "view",
      "type": "function"
    },
    {
      "inputs": [],
      "name": "maxCoverageRatio",
      "outputs": [
        {
          "internalType": "uint256",
          "name": "",
          "type": "uint256"
        }
      ],
      "stateMutability": "view",
      "type": "function"
    },
    {
      "inputs": [],
      "name": "maxPremiumRate",
      "outputs": [
        {
          "internalType": "uint256",
          "name": "",
          "type": "uint256"
        }
      ],
      "stateMutability": "view",
      "type": "function"
    },
    {
      "inputs": [],
      "name": "minPremiumRate",
      "outputs": [
        {
          "internalType": "uint256",
          "name": "",
          "type": "uint256"
        }
      ],
      "stateMutability": "view",
      "type": "function"
    },
    {
      "inputs": [],
      "name": "minRiskScore",
      "outputs": [
        {
          "internalType": "uint256",
          "name": "",
          "type": "uint256"
        }
      ],
      "stateMutability": "view",
      "type": "function"
    },
    {
      "inputs": [],
      "name": "nextBondId",
      "outputs": [
        {
          "internalType": "uint256",
          "name": "",
          "type": "uint256"
        }
      ],
      "stateMutability": "view",
      "type": "function"
    },
    {
      "inputs": [],
      "name": "nextClaimId",
      "outputs": [
        {
          "internalType": "uint256",
          "name": "",
          "type": "uint256"
        }
      ],
      "stateMutability": "view",
      "type": "function"
    },
    {
      "inputs": [],
      "name": "nextCrossChainPolicyId",
      "outputs": [
        {
          "internalType": "uint256",
          "name": "",
          "type": "uint256"
        }
      ],
      "stateMutability": "view",
      "type": "function"
    },
    {
      "inputs": [],
      "name": "nextDerivativeId",
      "outputs": [
        {
          "internalType": "uint256",
          "name": "",
          "type": "uint256"
        }
      ],
      "stateMutability": "view",
      "type": "function"
    },
    {
      "inputs": [],
      "name": "nextOptionId",
      "outputs": [
        {
          "internalType": "uint256",
          "name": "",
          "type": "uint256"
        }
      ],
      "stateMutability": "view",
      "type": "function"
    },
    {
      "inputs": [],
      "name": "nextPoolId",
      "outputs": [
        {
          "internalType": "uint256",
          "name": "",
          "type": "uint256"
        }
      ],
      "stateMutability": "view",
      "type": "function"
    },
    {
      "inputs": [],
      "name": "oracle",
      "outputs": [
        {
          "internalType": "contract DecentralizedOracle",
          "name": "",
          "type": "address"
        }
      ],
      "stateMutability": "view",
      "type": "function"
    },
    {
      "inputs": [],
      "name": "owner",
      "outputs": [
        {
          "internalType": "address",
          "name": "",
          "type": "address"
        }
      ],
      "stateMutability": "view",
      "type": "function"
    },
    {
      "inputs": [],
      "name": "parametricInsurance",
      "outputs": [
        {
          "internalType": "contract ParametricInsurance",
          "name": "",
          "type": "address"
        }
      ],
      "stateMutability": "view",
      "type": "function"
    },
    {
      "inputs": [
        {
          "internalType": "uint256",
          "name": "",
          "type": "uint256"
        }
      ],
      "name": "parametricOptions",
      "outputs": [
        {
          "internalType": "uint256",
          "name": "id",
          "type": "uint256"
        },
        {
          "internalType": "address",
          "name": "buyer",
          "type": "address"
        },
        {
          "internalType": "string",
          "name": "underlyingAsset",
          "type": "string"
        },
        {
          "internalType": "uint256",
          "name": "strikePrice",
          "type": "uint256"
        },
        {
          "internalType": "uint256",
          "name": "premium",
          "type": "uint256"
        },
        {
          "internalType": "uint256",
          "name": "notionalAmount",
          "type": "uint256"
        },
        {
          "internalType": "bool",
          "name": "isCall",
          "type": "bool"
        },
        {
          "internalType": "uint256",
          "name": "expirationDate",
          "type": "uint256"
        },
        {
          "internalType": "uint256",
          "name": "settlementDate",
          "type": "uint256"
        },
        {
          "internalType": "bool",
          "name": "exercised",
          "type": "bool"
        },
        {
          "internalType": "uint256",
          "name": "payoutAmount",
          "type": "uint256"
        },
        {
          "internalType": "bytes",
          "name": "oracleData",
          "type": "bytes"
        }
      ],
      "stateMutability": "view",
      "type": "function"
    },
    {
      "inputs": [
        {
          "internalType": "uint256",
          "name": "",
          "type": "uint256"
        }
      ],
      "name": "privateClaims",
      "outputs": [
        {
          "internalType": "uint256",
          "name": "policyId",
          "type": "uint256"
        },
        {
          "internalType": "uint256",
          "name": "claimAmount",
          "type": "uint256"
        },
        {
          "internalType": "bytes32",
          "name": "commitment",
          "type": "bytes32"
        },
        {
          "components": [
            {
              "internalType": "uint256[2]",
              "name": "a",
              "type": "uint256[2]"
            },
            {
              "internalType": "uint256[2][2]",
              "name": "b",
              "type": "uint256[2][2]"
            },
            {
              "internalType": "uint256[2]",
              "name": "c",
              "type": "uint256[2]"
            },
            {
              "internalType": "uint256[4]",
              "name": "input",
              "type": "uint256[4]"
            }
          ],
          "internalType": "struct AdvancedInsurance.ZKProof",
          "name": "proof",
          "type": "tuple"
        },
        {
          "internalType": "bool",
          "name": "verified",
          "type": "bool"
        },
        {
          "internalType": "bool",
          "name": "processed",
          "type": "bool"
        },
        {
          "internalType": "uint256",
          "name": "timestamp",
          "type": "uint256"
        }
      ],
      "stateMutability": "view",
      "type": "function"
    },
    {
      "inputs": [
        {
          "internalType": "uint256",
          "name": "claimId",
          "type": "uint256"
        }
      ],
      "name": "processPrivateClaim",
      "outputs": [],
      "stateMutability": "nonpayable",
      "type": "function"
    },
    {
      "inputs": [
        {
          "internalType": "string",
          "name": "parameter",
          "type": "string"
        },
        {
          "internalType": "uint256",
          "name": "newValue",
          "type": "uint256"
        }
      ],
      "name": "proposeInsuranceParameterChange",
      "outputs": [],
      "stateMutability": "nonpayable",
      "type": "function"
    },
    {
      "inputs": [],
      "name": "proxiableUUID",
      "outputs": [
        {
          "internalType": "bytes32",
          "name": "",
          "type": "bytes32"
        }
      ],
      "stateMutability": "view",
      "type": "function"
    },
    {
      "inputs": [],
      "name": "renounceOwnership",
      "outputs": [],
      "stateMutability": "nonpayable",
      "type": "function"
    },
    {
      "inputs": [],
      "name": "riskAssessmentOracle",
      "outputs": [
        {
          "internalType": "address",
          "name": "",
          "type": "address"
        }
      ],
      "stateMutability": "view",
      "type": "function"
    },
    {
      "inputs": [
        {
          "internalType": "uint256",
          "name": "",
          "type": "uint256"
        }
      ],
      "name": "riskDerivatives",
      "outputs": [
        {
          "internalType": "uint256",
          "name": "id",
          "type": "uint256"
        },
        {
          "internalType": "string",
          "name": "underlyingRisk",
          "type": "string"
        },
        {
          "internalType": "uint256",
          "name": "notionalAmount",
          "type": "uint256"
        },
        {
          "internalType": "uint256",
          "name": "strikeLevel",
          "type": "uint256"
        },
        {
          "internalType": "uint256",
          "name": "premium",
          "type": "uint256"
        },
        {
          "internalType": "address",
          "name": "buyer",
          "type": "address"
        },
        {
          "internalType": "address",
          "name": "seller",
          "type": "address"
        },
        {
          "internalType": "uint256",
          "name": "expirationDate",
          "type": "uint256"
        },
        {
          "internalType": "bool",
          "name": "settled",
          "type": "bool"
        },
        {
          "internalType": "int256",
          "name": "payout",
          "type": "int256"
        }
      ],
      "stateMutability": "view",
      "type": "function"
    },
    {
      "inputs": [
        {
          "internalType": "address",
          "name": "_oracle",
          "type": "address"
        }
      ],
      "name": "setRiskAssessmentOracle",
      "outputs": [],
      "stateMutability": "nonpayable",
      "type": "function"
    },
    {
      "inputs": [
        {
          "internalType": "address",
          "name": "_verifier",
          "type": "address"
        }
      ],
      "name": "setZKVerifier",
      "outputs": [],
      "stateMutability": "nonpayable",
      "type": "function"
    },
    {
      "inputs": [
        {
          "internalType": "uint256",
          "name": "derivativeId",
          "type": "uint256"
        }
      ],
      "name": "settleRiskDerivative",
      "outputs": [],
      "stateMutability": "nonpayable",
      "type": "function"
    },
    {
      "inputs": [],
      "name": "settlementDelay",
      "outputs": [
        {
          "internalType": "uint256",
          "name": "",
          "type": "uint256"
        }
      ],
      "stateMutability": "view",
      "type": "function"
    },
    {
      "inputs": [
        {
          "internalType": "uint256",
          "name": "policyId",
          "type": "uint256"
        },
        {
          "internalType": "uint256",
          "name": "claimAmount",
          "type": "uint256"
        },
        {
          "internalType": "bytes32",
          "name": "commitment",
          "type": "bytes32"
        },
        {
          "components": [
            {
              "internalType": "uint256[2]",
              "name": "a",
              "type": "uint256[2]"
            },
            {
              "internalType": "uint256[2][2]",
              "name": "b",
              "type": "uint256[2][2]"
            },
            {
              "internalType": "uint256[2]",
              "name": "c",
              "type": "uint256[2]"
            },
            {
              "internalType": "uint256[4]",
              "name": "input",
              "type": "uint256[4]"
            }
          ],
          "internalType": "struct AdvancedInsurance.ZKProof",
          "name": "proof",
          "type": "tuple"
        }
      ],
      "name": "submitPrivateClaim",
      "outputs": [
        {
          "internalType": "uint256",
          "name": "",
          "type": "uint256"
        }
      ],
      "stateMutability": "nonpayable",
      "type": "function"
    },
    {
      "inputs": [
        {
          "internalType": "address",
          "name": "newOwner",
          "type": "address"
        }
      ],
      "name": "transferOwnership",
      "outputs": [],
      "stateMutability": "nonpayable",
      "type": "function"
    },
    {
      "inputs": [
        {
          "internalType": "uint256",
          "name": "_bondId",
          "type": "uint256"
        }
      ],
      "name": "triggerCatastropheBond",
      "outputs": [],
      "stateMutability": "nonpayable",
      "type": "function"
    },
    {
      "inputs": [
        {
          "internalType": "uint256",
          "name": "_maxCoverageRatio",
          "type": "uint256"
        },
        {
          "internalType": "uint256",
          "name": "_minPremiumRate",
          "type": "uint256"
        },
        {
          "internalType": "uint256",
          "name": "_maxPremiumRate",
          "type": "uint256"
        },
        {
          "internalType": "uint256",
          "name": "_settlementDelay",
          "type": "uint256"
        }
      ],
      "name": "updateRiskParameters",
      "outputs": [],
      "stateMutability": "nonpayable",
      "type": "function"
    },
    {
      "inputs": [
        {
          "internalType": "uint256",
          "name": "_minRiskScore",
          "type": "uint256"
        },
        {
          "internalType": "uint256",
          "name": "_maxClaimAmount",
          "type": "uint256"
        }
      ],
      "name": "updateZKParameters",
      "outputs": [],
      "stateMutability": "nonpayable",
      "type": "function"
    },
    {
      "inputs": [
        {
          "internalType": "address",
          "name": "newImplementation",
          "type": "address"
        },
        {
          "internalType": "bytes",
          "name": "data",
          "type": "bytes"
        }
      ],
      "name": "upgradeToAndCall",
      "outputs": [],
      "stateMutability": "payable",
      "type": "function"
    },
    {
      "inputs": [
        {
          "internalType": "uint256",
          "name": "_poolId",
          "type": "uint256"
        },
        {
          "internalType": "uint256",
          "name": "_amount",
          "type": "uint256"
        }
      ],
      "name": "withdrawPremiums",
      "outputs": [],
      "stateMutability": "nonpayable",
      "type": "function"
    },
    {
      "inputs": [],
      "name": "zkVerifier",
      "outputs": [
        {
          "internalType": "contract IZKVerifier",
          "name": "",
          "type": "address"
        }
      ],
      "stateMutability": "view",
      "type": "function"
    },
    {
      "stateMutability": "payable",
      "type": "receive"
    }
  ],
  "bytecode": "0x60a08060405234608057306080526001600555600160065560016007556001600855600160095561012c600b5569152d02c7e14af6800000600c556001600e5569152d02c7e14af6800000600f55605060145560326015556107d060165562093a80601755614a0e90816100868239608051818181611a9c0152611b540152f35b600080fdfe6080604052600436101561001b575b361561001957600080fd5b005b60003560e01c80630353b88914613f0d5780630589a48b14613dbc578063059b7ee014613d7057806305bb45bf14613d21578063096b409c14613cfa5780630c0f725314613cc75780630c8c94d414613ca95780630ef4cbb2146137e05780630f6051b51461362d5780630fa578c61461360f5780631442dff7146134655780631482beb91461306257806318e56131146130445780631d303bc414612bed57806321a8dd3914612af7578063235a1eed14612aab57806325513a13146129b95780632a53fc50146126745780632c8aa1be146125f55780632e9c7b65146125d75780633a1418e11461252d5780633ad0d08f146123be5780633ea9fd6c146123975780634302a3fb146122f857806343cab2161461223757806344ade63214611fa65780634a6d21ff14611dd75780634bd6ae3614611db95780634f1ef28614611b1657806352d1902d14611a8157806366e37eae14611a635780636cee250514611a44578063715018a6146119ab5780637bdc651b146117e15780637dc0d1d0146117ba57806389670dd51461170a5780638da5cb5b146116c45780639215abb0146116a65780639abd9b051461166f5780639ba5bae914611373578063a0021cf114611355578063ac60cc5014611288578063ad3cb1cc14611225578063aeef643914611207578063b412b086146111e9578063b706fd911461116e578063b99a986514611082578063bddd4a4714610ea3578063c3851e0114610e63578063c509034614610e00578063cc85937814610de2578063cde031d014610c02578063cf08a66a14610a40578063d6df096d14610a19578063d765ca161461098e578063ee53a42314610970578063f2fde38b14610947578063f8c8765e146106c0578063fac3fa3d146106a2578063fb07dc1014610450578063fb9ed8e8146104325763fd4fe6080361000e573461042d57602036600319011261042d576004356102e661478e565b6102ee614876565b8060005260036020526040600020600f81019081549160ff8316156103e95760ff8360081c166103a55761010060019361ff001916179055016000808080845481811561039c575b3390f1156103905760207f213bbcd0748e84f31e1c610e7c25863c42627447ebe386e7237ea2d451f670dc9154604051908152a260017f9b779b17422d0df92223018b32b4d1fa46e071723d6817e2486d003becc55f0055005b6040513d6000823e3d90fd5b506108fc610336565b606460405162461bcd60e51b815260206004820152601760248201527f436c61696d20616c72656164792070726f6365737365640000000000000000006044820152fd5b606460405162461bcd60e51b815260206004820152601260248201527f436c61696d206e6f7420766572696669656400000000000000000000000000006044820152fd5b600080fd5b3461042d57600036600319011261042d576020601554604051908152f35b3461042d57606036600319011261042d5760243560443567ffffffffffffffff811161042d57610484903690600401614097565b50600435600052600260205260406000206104a560ff600683015416614656565b6001600160a01b033316600052600781016020526040600020541561065e576005019081549182821161061a5760e460606001600160a01b0360125416604051928380926352ee0b7760e01b8252600480830152846024830152601260648301527f636c61696d5f766572696669636174696f6e0000000000000000000000000000608483015260a06044830152600f60a48301527f696e737572616e63655f636c61696d000000000000000000000000000000000060c48301525afa908115610390576000916105e9575b50156105a557600080808481946105888289614541565b905581811561059c575b3390f11561039057005b506108fc610592565b606460405162461bcd60e51b815260206004820152601c60248201527f436c61696d206e6f74207665726966696564206279206f7261636c65000000006044820152fd5b61060b915060603d606011610613575b6106038183614059565b810190614526565b505084610571565b503d6105f9565b606460405162461bcd60e51b815260206004820152601460248201527f496e73756666696369656e7420726573657276650000000000000000000000006044820152fd5b606460405162461bcd60e51b815260206004820152601560248201527f4e6f20636f6e747269627574696f6e20666f756e6400000000000000000000006044820152fd5b3461042d57600036600319011261042d576020600954604051908152f35b3461042d57608036600319011261042d576106d9614124565b6106e161410e565b906044356001600160a01b03811680910361042d57606435916001600160a01b03831680930361042d577ff0c57e16840df040f15088dc2f81fe391c3923bec73e23a9662efc9c229c6a00549360ff8560401c16159467ffffffffffffffff81168015908161093f575b6001149081610935575b15908161092c575b506109025767ffffffffffffffff1981166001177ff0c57e16840df040f15088dc2f81fe391c3923bec73e23a9662efc9c229c6a00556001600160a01b03928391876108c3575b506107ad6148ef565b6107b56148ef565b6107be336146cf565b6107c66148ef565b6107ce6148ef565b60017f9b779b17422d0df92223018b32b4d1fa46e071723d6817e2486d003becc55f00556107fa6148ef565b166001600160a01b03196012541617601255166001600160a01b031960135416176013556001600160a01b0319600a541617600a556001600160a01b0319601154161760115561084657005b68ff0000000000000000197ff0c57e16840df040f15088dc2f81fe391c3923bec73e23a9662efc9c229c6a0054167ff0c57e16840df040f15088dc2f81fe391c3923bec73e23a9662efc9c229c6a00557fc7f505b2f371ae2175ee4913f4499e1f2633a7b5936321eed1cdaeb6115181d2602060405160018152a1005b68ffffffffffffffffff191668010000000000000001177ff0c57e16840df040f15088dc2f81fe391c3923bec73e23a9662efc9c229c6a0055876107a4565b7ff92ee8a90000000000000000000000000000000000000000000000000000000060005260046000fd5b9050158761075d565b303b159150610755565b87915061074b565b3461042d57602036600319011261042d57610019610963614124565b61096b61478e565b6146cf565b3461042d57600036600319011261042d576020600554604051908152f35b3461042d57602036600319011261042d576004356000526002602052604060002080546109bd600183016141b1565b91600281015490600381015490600481015460ff6006600584015493015416926109f9604051978897885260e0602089015260e08801906142d8565b9460408701526060860152608085015260a0840152151560c08301520390f35b3461042d57600036600319011261042d5760206001600160a01b03600a5416604051908152f35b3461042d57602036600319011261042d5760043560005260036020526040600020805460018201546002830154604051610a798161403d565b610a856003860161432f565b81526040516040810181811067ffffffffffffffff821117610bec57604052600586016000825b60028210610bce5750505060208201908152610aca6009870161432f565b91604081019283526040519384600b8901906000905b60048210610bb85750505090610b2891610afb608087614059565b606082019586526010600f8a01549901549660405198895260208901526040880152606087019051614364565b51600060a086015b60028210610b9a57505050610b4b9051610120850190614364565b51600061016084015b60048210610b845750505060ff8381610240951615156101e085015260081c161515610200830152610220820152f35b6020806001928551815201930191019091610b54565b6020604082610bac6001948751614364565b01930191019091610b30565b6001602081928554815201930191019091610ae0565b60026020600192610bde8661432f565b815201930191019091610aac565b634e487b7160e01b600052604160045260246000fd5b610c0b36614319565b90610c14614876565b8060005260006020526040600020610c3260ff600b830154166143d7565b610c416006820154421061446d565b823403610d9e576064610c5b6003830154601454906143c4565b0490600a810191610c6d8584546143b7565b11610d5a5760098101906001600160a01b0333166000528160205260406000205415610d16575b506001600160a01b0333166000526020526040600020610cb58482546143b7565b9055610cc28382546143b7565b90556040519182527f0974e09de0ecb8fad4db30ae23cb4a4a461f1e1a6fd8a1e440090695338f913960203393a360017f9b779b17422d0df92223018b32b4d1fa46e071723d6817e2486d003becc55f0055005b600801805468010000000000000000811015610bec57610d3b916001820181556146a1565b81549060031b906001600160a01b0333831b921b191617905584610c94565b606460405162461bcd60e51b815260206004820152601660248201527f4578636565647320636f76657261676520726174696f000000000000000000006044820152fd5b606460405162461bcd60e51b815260206004820152601b60248201527f496e636f727265637420696e766573746d656e7420616d6f756e7400000000006044820152fd5b3461042d57600036600319011261042d576020601054604051908152f35b3461042d57602036600319011261042d576001600160a01b03610e21614124565b610e2961478e565b16806001600160a01b0319600a541617600a557f7a46bbb11da1ff20d21103803fc49b5e3fb9abb22e7d89ade9e096ee4a96dbe1600080a2005b3461042d57602036600319011261042d576001600160a01b03610e84614124565b610e8c61478e565b166001600160a01b03196011541617601155600080f35b3461042d57604036600319011261042d5760043560243567ffffffffffffffff811161042d57610ed7903690600401614097565b81600052600d60205260406000206005810180549260ff84161561103e576001600160a01b036002840154163303610ffa5760048301544211610fb6575115610f725760039260ff191690550160008080808454818115610f69575b3390f1156103905760207ffcb94267a66a8e20f641c8d0af7d6a33001fd21fe833246a3798cdee1f3a1fd79154604051908152a2005b506108fc610f33565b606460405162461bcd60e51b815260206004820152600d60248201527f496e76616c69642070726f6f66000000000000000000000000000000000000006044820152fd5b606460405162461bcd60e51b815260206004820152600e60248201527f506f6c69637920657870697265640000000000000000000000000000000000006044820152fd5b606460405162461bcd60e51b815260206004820152601360248201527f4e6f74207468652062656e6566696369617279000000000000000000000000006044820152fd5b606460405162461bcd60e51b815260206004820152601160248201527f506f6c696379206e6f74206163746976650000000000000000000000000000006044820152fd5b3461042d57602036600319011261042d5760043561109e61478e565b60105480821161112a57816110b291614541565b6010556000808080846001600160a01b037f9016d09d72d40fdae2fd8ceac6b6234c7706214fd39c1cd1e609a0528c1993005416828215611121575bf1156103905760207f5a5f82e4c9e7ad9f92bc5417b5002bbcc81e4c47108a7c3202975cf8fef3731591604051908152a1005b506108fc6110ee565b606460405162461bcd60e51b815260206004820152601b60248201527f496e73756666696369656e7420656d657267656e63792066756e6400000000006044820152fd5b3461042d57602036600319011261042d57600435600052600d60205260e060406000208054906001810154906001600160a01b036002820154166003820154600483015491600660ff600586015416940154946040519687526020870152604086015260608501526080840152151560a083015260c0820152f35b3461042d57600036600319011261042d576020600e54604051908152f35b3461042d57600036600319011261042d576020600c54604051908152f35b3461042d57600036600319011261042d5761128460408051906112488183614059565b600582527f352e302e300000000000000000000000000000000000000000000000000000006020830152519182916020835260208301906142d8565b0390f35b3461042d5761129636614319565b9061129f61478e565b600052600260205260046040600020019081549182821161131157600080808481946112cb8289614541565b90556001600160a01b037f9016d09d72d40fdae2fd8ceac6b6234c7706214fd39c1cd1e609a0528c1993005416828215611308575bf11561039057005b506108fc611300565b606460405162461bcd60e51b815260206004820152601560248201527f496e73756666696369656e74207072656d69756d7300000000000000000000006044820152fd5b3461042d57600036600319011261042d576020600854604051908152f35b3461042d57602036600319011261042d5760043561138f614876565b80600052600460205260406000206007810154421061162b57600881019081549160ff83166115e7576001600160a01b036005830154169283331480156115d1575b1561158d5760019060ff19161790556001600160a01b0360125416606060405180926352ee0b7760e01b825260048083015282602483015281604061141c6064830160018901614255565b7f7269736b5f6d6561737572656d656e74000000000000000000000000000000006020848303926003198401604487015260108152015201915afa9081156103905760009161156c575b506000600383015482116000146114f757506000808080600286015480978282156114ee575bf11561039057827f990e90d705cd9d649ad500f9d1a2e928db9803fbeceeb9774b2cd6b3bd60dc0e9360096040945b015582519182526020820152a260017f9b779b17422d0df92223018b32b4d1fa46e071723d6817e2486d003becc55f0055005b506108fc61148c565b60048301549193507f80000000000000000000000000000000000000000000000000000000000000008214611558576040927f990e90d705cd9d649ad500f9d1a2e928db9803fbeceeb9774b2cd6b3bd60dc0e9492600992039182916114bb565b80634e487b7160e01b602492526011600452fd5b611585915060603d606011610613576106038183614059565b505084611466565b606460405162461bcd60e51b815260206004820152600e60248201527f4e6f7420617574686f72697a65640000000000000000000000000000000000006044820152fd5b506001600160a01b0360068401541633146113d1565b606460405162461bcd60e51b815260206004820152600f60248201527f416c726561647920736574746c656400000000000000000000000000000000006044820152fd5b606460405162461bcd60e51b815260206004820152600f60248201527f4e6f7420657870697265642079657400000000000000000000000000000000006044820152fd5b3461042d57602036600319011261042d5761168861478e565b6004356000908152600260205260409020600601805460ff19169055005b3461042d57600036600319011261042d576020600654604051908152f35b3461042d57600036600319011261042d5760206001600160a01b037f9016d09d72d40fdae2fd8ceac6b6234c7706214fd39c1cd1e609a0528c1993005416604051908152f35b3461042d57602036600319011261042d576004356000526001602052604060002080546001600160a01b0360018301541691600381015490600581015460ff60068301541660078301549060ff600985015416926117926117726002600a88015497016141b1565b604051998a998a5260208a015261012060408a01526101208901906142d8565b9560608801526080870152151560a086015260c0850152151560e08401526101008301520390f35b3461042d57600036600319011261042d5760206001600160a01b0360125416604051908152f35b3461042d576117ef366140dc565b6117f761478e565b801561196757600754611809816143a8565b600755806000526002602052604060002091818355600183019380519467ffffffffffffffff8611610bec578561184c6020976118468454614177565b8461456e565b86601f82116001146118dc57957f71d9e8fb570f8d8b724c1e21714ea5d0d1fcce418927c653ebbda4734e12ed239493926118a283600694899a6000916118d1575b508160011b916000199060031b1c19161790565b90555b83600282015501600160ff198254161790556118c66040519283928361438c565b0390a2604051908152f35b90508601518c61188e565b601f1982169083600052806000209160005b8181106119505750838899937f71d9e8fb570f8d8b724c1e21714ea5d0d1fcce418927c653ebbda4734e12ed239897969360069660019410611937575b5050811b0190556118a5565b87015160001960f88460031b161c191690558b8061192b565b91928a60018192868a0151815501940192016118ee565b606460405162461bcd60e51b815260206004820152601060248201527f496e76616c6964206361706163697479000000000000000000000000000000006044820152fd5b3461042d57600036600319011261042d576119c461478e565b60006001600160a01b037f9016d09d72d40fdae2fd8ceac6b6234c7706214fd39c1cd1e609a0528c199300546001600160a01b031981167f9016d09d72d40fdae2fd8ceac6b6234c7706214fd39c1cd1e609a0528c19930055167f8be0079c531659141344cd1fd0a4f28419497f9722a3daafe3b4186f6b6457e08280a3005b3461042d57611a5236614319565b90611a5b61478e565b600b55600c55005b3461042d57600036600319011261042d576020600f54604051908152f35b3461042d57600036600319011261042d576001600160a01b037f0000000000000000000000000000000000000000000000000000000000000000163003611aec5760206040517f360894a13ba1a3210667c828492db98dca3e2076cc3735a920a3ca505d382bbc8152f35b7fe07c8dba0000000000000000000000000000000000000000000000000000000060005260046000fd5b604036600319011261042d57611b2a614124565b60243567ffffffffffffffff811161042d57611b4a903690600401614097565b6001600160a01b037f000000000000000000000000000000000000000000000000000000000000000016803014908115611d84575b50611aec57611b8c61478e565b6001600160a01b038216916040517f52d1902d000000000000000000000000000000000000000000000000000000008152602081600481875afa60009181611d50575b50611be95783634c9c8ce360e01b60005260045260246000fd5b807f360894a13ba1a3210667c828492db98dca3e2076cc3735a920a3ca505d382bbc859203611d235750813b15611d0f57806001600160a01b03197f360894a13ba1a3210667c828492db98dca3e2076cc3735a920a3ca505d382bbc5416177f360894a13ba1a3210667c828492db98dca3e2076cc3735a920a3ca505d382bbc557fbc7cd75a20ee27fd9adebab32041f755214dbc6bffa90cc0225b39da2e5c2d3b600080a2815115611cdc5760008083602061001995519101845af43d15611cd4573d91611cb78361407b565b92611cc56040519485614059565b83523d6000602085013e614948565b606091614948565b505034611ce557005b7fb398979f0000000000000000000000000000000000000000000000000000000060005260046000fd5b634c9c8ce360e01b60005260045260246000fd5b7faa1d49a40000000000000000000000000000000000000000000000000000000060005260045260246000fd5b9091506020813d602011611d7c575b81611d6c60209383614059565b8101031261042d57519085611bcf565b3d9150611d5f565b90506001600160a01b037f360894a13ba1a3210667c828492db98dca3e2076cc3735a920a3ca505d382bbc5416141583611b7f565b3461042d57600036600319011261042d576020600b54604051908152f35b3461042d57606036600319011261042d57611df0614124565b5060243567ffffffffffffffff811161042d57611e11903690600401614097565b60443567ffffffffffffffff811161042d57611e31903690600401614097565b6001600160a01b0360125416604051926352ee0b7760e01b845260006004850152606060248501526060846040611e6b60648301856142d8565b7f7269736b5f6173736573736d656e74000000000000000000000000000000000060208483039260031984016044870152600f815201520181855afa93841561039057600094611f76575b5091606091611eed611eff94604051958694859384936352ee0b7760e01b85526001600486015288602486015260648501906142d8565b838103600319016044850152906142d8565b03915afa801561039057604092611f1e92600092611f53575b506143b7565b60011c61012c811015611f3a5760325b82519182526020820152f35b610258811015611f4b576096611f2e565b61012c611f2e565b611f6d91925060603d606011610613576106038183614059565b50509084611f18565b611eff9391945091611eed611f99606094853d8711610613576106038183614059565b5050959294505091611eb6565b60c036600319011261042d5760043567ffffffffffffffff811161042d57611fd2903690600401614097565b6044359060643590608435801515810361042d5760a43590611ff6853410156145c0565b83156121f3576001821015806121e7575b6120109061460b565b6006549361201d856143a8565b600655846000526001602052604060002095858755600187016001600160a01b0333166001600160a01b031982541617905560028701855167ffffffffffffffff8111610bec57612072816118468454614177565b6020601f821160011461217a57816120d196959493926120a79260009161216f57508160011b916000199060031b1c19161790565b90555b602435600389015560048801556005870155600686019060ff801983541691151516179055565b62015180810290808204620151801490151715612159576020936121096120fa600993426143b7565b806007840155601754906143b7565b60088201550160ff198154169055817fca78b17d872ddd2060cb1c1e22d525f122d74bd9ac6083698179b26148face9a6040518581528061214e3395888301906142d8565b0390a3604051908152f35b634e487b7160e01b600052601160045260246000fd5b90508901518c61188e565b601f1982169083600052806000209160005b8a8282106121cf5750509183916120d19897969594600194106121b6575b5050811b0190556120aa565b8a015160001960f88460031b161c191690558b806121aa565b6001849560209395849301518155019401920161218c565b5061016d821115612007565b606460405162461bcd60e51b815260206004820152601760248201527f496e76616c6964206e6f74696f6e616c20616d6f756e740000000000000000006044820152fd5b3461042d57602036600319011261042d57600435600052600460205260406000208054612266600183016141b1565b9160028101549060038101549060048101546001600160a01b036005830154166001600160a01b0360068401541690600784015492600960ff600887015416950154956122c76040519a8b9a8b5261014060208c01526101408b01906142d8565b9760408a01526060890152608088015260a087015260c086015260e085015215156101008401526101208301520390f35b3461042d5760407f70871850d2b65994480fa4277b80f005a453bac05c1f98c9d321dfd830e886c761232936614319565b61233493919361478e565b83600052600060205281600020600b8101610100815461235660ff82166143d7565b61236660ff8260081c1615614422565b84600c85015561ffff1916179055612389600382015491600d81019283556147ef565b5482519182526020820152a2005b3461042d57600036600319011261042d5760206001600160a01b0360135416604051908152f35b6123c736614319565b906123d0614876565b80600052600260205260406000206123ee60ff600683015416614656565b8234036124e95760038101906124058483546143b7565b6002820154106124a5576004906001600160a01b0333166000526007810160205260406000206124368682546143b7565b9055016124448482546143b7565b90556124518382546143b7565b90556040519182527f6d4bd91981fbdb61501518166f3984149ac9be767c3e2e6ea211beaa2257ffb560203393a360017f9b779b17422d0df92223018b32b4d1fa46e071723d6817e2486d003becc55f0055005b606460405162461bcd60e51b815260206004820152601560248201527f4578636565647320706f6f6c20636170616369747900000000000000000000006044820152fd5b606460405162461bcd60e51b815260206004820152601d60248201527f496e636f727265637420636f6e747269627574696f6e20616d6f756e740000006044820152fd5b3461042d57602036600319011261042d576004356000526000602052604060002080546003820154600a83015460ff600b8501546006860154926125ae612582600261257b60018b016141b1565b99016141b1565b6125a0604051998a998a5261010060208b01526101008a01906142d8565b9088820360408a01526142d8565b9460608701526080860152818116151560a086015260081c16151560c084015260e08301520390f35b3461042d57600036600319011261042d576020601654604051908152f35b3461042d57602036600319011261042d576004356000526002602052604060002080546002820154600383015492600481015461263c600160ff60068501541693016141b1565b94612659604051968796875260c0602088015260c08701906142d8565b93604086015260608501526080840152151560a08301520390f35b60c036600319011261042d5760043567ffffffffffffffff811161042d576126a0903690600401614097565b60243560443591608435916001600160a01b038316830361042d5760a435926126cd6064353410156145c0565b6126d842851161460b565b600954936126e5856143a8565b600955604051610140810181811067ffffffffffffffff821117610bec57604052858152602081019185835284604083015287606083015260643560808301523360a08301526001600160a01b03841660c083015260e082015260006101008201526000610120820152856000526004602052604060002091815183555180519067ffffffffffffffff8211610bec5761278f826127866001870154614177565b6001870161456e565b602090601f831160011461293c5793600961012060009793956127cf868a99978a998a998a92612931575b50508160011b916000199060031b1c19161790565b60018501555b6040810151600285015560608101516003850155608081015160048501556001600160a01b0360a0820151166001600160a01b036005860191166001600160a01b03198254161790556001600160a01b0360c0820151166001600160a01b036006860191166001600160a01b031982541617905560e081015160078501556128736101008201511515600886019060ff801983541691151516179055565b01519101558160643515612928575b6001600160a01b03606435921690f1156103905760643534116128f3575b6128de83927f14e570a9fed06dab0a2b499cb554d1b432c57bf4fd561dfd3a0cb69f01e833c4926020966040519384936060855260608501906142d8565b918884015260408301520390a2604051908152f35b600080808061290460643534614541565b81811561291f575b3390f16128a0576040513d6000823e3d90fd5b506108fc61290c565b506108fc612882565b0151905038806127ba565b9060018501600052806000209160005b601f19851681106129a1575061012060009793956001868a9995988a996009968b9a601f19811610612989575b505050811b0160018501556127d5565b0151891960f88460031b161c191690558f8080612979565b9192602060018192868501518155019401920161294c565b3461042d57602036600319011261042d57600435600052600060205260406000208054600182016129e9906141b1565b916129f6600282016141b1565b60038201549160048101546005820154600683015460078401546001600160a01b031690600a85015492600b86015494600c87015496600d0154976040519b8c9b8c5260208c016101a090526101a08c01612a50916142d8565b8b810360408d0152612a61916142d8565b9860608b015260808a015260a089015260c088015260e087015261010086015260ff8116151561012086015260081c60ff1615156101408501526101608401526101808301520390f35b3461042d57604036600319011261042d57612ac461410e565b60043560005260006020526001600160a01b03600960406000200191166000526020526020604060002054604051908152f35b3461042d57602036600319011261042d5760043560005260016020526040600020805460018201546001600160a01b03169160028101612b36906141b1565b60038201549060048301546005840154600685015460ff16600786015490600887015492600988015460ff1694600a8901549660405180600b819c0190612b7c91614255565b03612b87908b614059565b6040519b8c9b8c5260208c015260408b0161018090526101808b01612bab916142d8565b9760608b015260808a015260a0890152151560c088015260e08701526101008601521515610120850152610140840152828103610160840152611284916142d8565b3461042d57602036600319011261042d576004358060005260016020526040600020906001600160a01b036001830154163303613000576009820180549060ff8216612fbc5760078401544210612f785760088401544211612f3457612d049360606001600160a01b036012541660405190612ca7600683612c7560208201600289016144b8565b7f5f70726963650000000000000000000000000000000000000000000000000000815203601919810185520183614059565b60405180809981946352ee0b7760e01b835260036004840152866024840152600660648401527f676c6f62616c0000000000000000000000000000000000000000000000000000608484015260a0604484015260a48301906142d8565b03915afa94851561039057600095612f11575b5060009160ff600683015416808091612f04575b15612eb85750600b925060016003830154612d5e612d49828a614541565b91612d59600587015480946143c4565b61454e565b8180821091180218945b60ff191617905582600a82015560405194602086015242604086015260408552612d93606086614059565b01835167ffffffffffffffff8111610bec57612db3816118468454614177565b602094601f8211600114612e5357612de6929394958291600092612e485750508160011b916000199060031b1c19161790565b90555b80158015612e20575b5060207f8b108da1d17181d35c5fea004615940117cabcf72e71be8cfe4212e1e085a8f891604051908152a2005b8190600090612e3f575b600080809381933390f1156103905782612df2565b506108fc612e2a565b0151905086806127ba565b601f1982169583600052806000209160005b888110612ea057508360019596979810612e87575b505050811b019055612de9565b015160001960f88460031b161c19169055858080612e7a565b91926020600181928685015181550194019201612e65565b1580612ef7575b612ecf575b6001600b9394612d68565b600b925060016003830154612ee7612d498983614541565b8180821091180218935050612ec4565b5060038201548610612ebf565b5060038301548711612d2b565b612f2b91955060603d606011610613576106038183614059565b50509385612d17565b606460405162461bcd60e51b815260206004820152601860248201527f536574746c656d656e7420706572696f642070617373656400000000000000006044820152fd5b606460405162461bcd60e51b815260206004820152601260248201527f4f7074696f6e206e6f74206578706972656400000000000000000000000000006044820152fd5b606460405162461bcd60e51b815260206004820152601160248201527f416c7265616479206578657263697365640000000000000000000000000000006044820152fd5b606460405162461bcd60e51b815260206004820152601460248201527f4e6f7420746865206f7074696f6e2062757965720000000000000000000000006044820152fd5b3461042d57600036600319011261042d576020600754604051908152f35b3461042d5760c036600319011261042d5760043567ffffffffffffffff811161042d57613093903690600401614097565b60243567ffffffffffffffff811161042d576130b3903690600401614097565b6044356064359160a435918015613421576127106130d3601554836143c4565b0484106133dd576127106130e9601654836143c4565b04841161339957601e8310158061338d575b15613349576005549361310d856143a8565b60055584600052600060205260406000209285845560018401875167ffffffffffffffff8111610bec57613145816118468454614177565b6020601f82116001146132e3579080613173926000916132d857508160011b916000199060031b1c19161790565b90555b8051600285019167ffffffffffffffff8211610bec576131a08261319a8554614177565b8561456e565b602090601f8311600114613271576131d09291600091836132665750508160011b916000199060031b1c19161790565b90555b816003840155600483015560843560058301556201518083029280840462015180149015171561215957602094600b7fdde7066d837f8d0e7958a65955bddf4e24afaf3575305bbf69e563d8e6facec89361322f8796426143b7565b60068201556007810180546001600160a01b0319163317905501805461ffff191660011790556040519182916118c691908361438c565b015190508a806127ba565b90601f1983169184600052816000209260005b8181106132c057509084600195949392106132a7575b505050811b0190556131d3565b015160001960f88460031b161c1916905589808061329a565b92936020600181928786015181550195019301613284565b90508a01518b61188e565b601f1982169083600052806000209160005b8c8282106133315750509083600194939210613318575b5050811b019055613176565b8b015160001960f88460031b161c191690558a8061330c565b600184956020939584930151815501940192016132f5565b606460405162461bcd60e51b815260206004820152601760248201527f496e76616c6964206d6174757269747920706572696f640000000000000000006044820152fd5b5061016d8311156130fb565b606460405162461bcd60e51b815260206004820152601060248201527f5072656d69756d20746f6f2068696768000000000000000000000000000000006044820152fd5b606460405162461bcd60e51b815260206004820152600f60248201527f5072656d69756d20746f6f206c6f7700000000000000000000000000000000006044820152fd5b606460405162461bcd60e51b815260206004820152601760248201527f496e76616c696420636f76657261676520616d6f756e740000000000000000006044820152fd5b3461042d57602036600319011261042d57600435600052600060205260406000206006810154908142106135cb5760ff600b82015460081c166135875760098101916001600160a01b03331660005282602052604060002054908115613543576134ea6003916134e46134dc6004870154866143c4565b914290614541565b906143c4565b92015491826301e1338002926301e13380840403612159576000808561351c829561351688859761454e565b906143b7565b906001600160a01b033316835260205281604081205581811561059c573390f11561039057005b606460405162461bcd60e51b815260206004820152601360248201527f4e6f20696e766573746d656e7420666f756e64000000000000000000000000006044820152fd5b606460405162461bcd60e51b815260206004820152601260248201527f426f6e64207761732074726967676572656400000000000000000000000000006044820152fd5b606460405162461bcd60e51b815260206004820152601060248201527f426f6e64206e6f74206d617475726564000000000000000000000000000000006044820152fd5b3461042d57600036600319011261042d576020601754604051908152f35b3461042d57602036600319011261042d576004358060005260006020526040600020600b81019061370f82549161366660ff84166143d7565b61367660ff8460081c1615614422565b613686600682015442111561446d565b60606001600160a01b0360125416604051906136e06006836136ae60208201600189016144b8565b7f5f696e6465780000000000000000000000000000000000000000000000000000815203601919810185520183614059565b60405180809681946352ee0b7760e01b835260006004840152866024840152611eed6064840160028a01614255565b03915afa918215610390576000926137bd575b5060058101548210613779577f70871850d2b65994480fa4277b80f005a453bac05c1f98c9d321dfd830e886c79361010060409484600c85015561ffff1916179055612389600382015491600d81019283556147ef565b606460405162461bcd60e51b815260206004820152601960248201527f54726967676572207468726573686f6c64206e6f74206d6574000000000000006044820152fd5b6137d791925060603d606011610613576106038183614059565b50509085613722565b3461042d576101e036600319011261042d5760043560443560243561018036606319011261042d57604051926138158461403d565b366083121561042d5761382936606461413a565b84523660c3121561042d5760409182516138438482614059565b80366101241161042d5760a4905b6101248210613c825750506020860190815236610143121561042d576138793661012461413a565b9084870191825236610183121561042d57845191613898608084614059565b82366101e41161042d57610164905b6101e48210613c7257505060608801928352600c548411613c2f5761390e916001600160a01b03600a54169189519151905185519189519586947f5fe8c13b0000000000000000000000000000000000000000000000000000000086526004860190614364565b60008a604486015b60028310613c0957505050506139309060c4840190614364565b600061010483015b60048210613bef57505050610184816020935afa908115613be457600091613ba2575b5015613b5f575160200151600b5411613b1c576008549361397b856143a8565b60085583519561398a87614021565b83875260208701908382528588018381526060890191825260808901916001835260a08a01916000835260c08b01944286528a6000526003602052896000209b518c555160018c01555160028b01555189815160005b60028110613b0357505050602081015160058b01906000905b60028210613acd5750505089888201516000905b60028210613ab457505050606001516000905b60048210613a9d5750509288601088948a97947fd2adbca968b099a5b84c49a6ed14951cd1b16e9b0ba7090dce0b98c59a51f80697613a74600f60209f0192511515839060ff801983541691151516179055565b51815461ff00191690151560081b61ff001617905551910155825191825288820152a351908152f35b80518b8301600b0155600190910190602001613a20565b9081600982602060019551930195010155018b91613a0d565b805160005b60028110613aef57505060026020600192019301910190916139f9565b600190602083519301928187015501613ad2565b8160038260206001955193019501015501908b916139e0565b6064835162461bcd60e51b815260206004820152601260248201527f5269736b2073636f726520746f6f206c6f7700000000000000000000000000006044820152fd5b6064845162461bcd60e51b815260206004820152601060248201527f496e76616c6964205a4b2070726f6f66000000000000000000000000000000006044820152fd5b6020813d602011613bdc575b81613bbb60209383614059565b81010312613bd85751908115158203613bd557508761395b565b80fd5b5080fd5b3d9150613bae565b85513d6000823e3d90fd5b829350602080916001939451815201930191018492613938565b83949596509081613c206020936001959651614364565b01930191018a87959493613916565b6064865162461bcd60e51b815260206004820152601560248201527f436c61696d20616d6f756e7420746f6f206869676800000000000000000000006044820152fd5b81358152602091820191016138a7565b600036601f84011215613bd5575060208691613c9e368561413a565b815201910190613851565b3461042d57600036600319011261042d576020601454604051908152f35b3461042d57608036600319011261042d57613ce061478e565b600435601455602435601555604435601655606435601755005b3461042d57600036600319011261042d5760206001600160a01b0360115416604051908152f35b600036600319011261042d57613d3561478e565b613d41346010546143b7565b6010557fe3c0994e3e4cdade97e56a94f0ccdbeec353d9ed29c4144f75bf50e8464c2da86020604051348152a1005b3461042d57604036600319011261042d57613d8961410e565b60043560005260026020526001600160a01b03600760406000200191166000526020526020604060002054604051908152f35b606036600319011261042d5760043560243590813410613ec9576020917f18a48f7ac4a1c05151a6b68127c85be89ea09754a6bcb803a96cece23f0339766040600e54938493613e0b856143a8565b600e558251613e1981614021565b828152600686613eb38a8401828152878501338152606086018781526001600160a01b036080880192604435845260a08901946001865260c08a0197600089526000526020600d90528c60002099518a555160018a015551166001600160a01b036002890191166001600160a01b0319825416179055516003870155516004860155511515600585019060ff801983541691151516179055565b51910155825191825286820152a2604051908152f35b606460405162461bcd60e51b815260206004820152601d60248201527f496e73756666696369656e7420636f766572616765207061796d656e740000006044820152fd5b3461042d57613f1b366140dc565b602460206001600160a01b0360115416604051928380927f70a082310000000000000000000000000000000000000000000000000000000082523360048301525afa90811561039057600091613fef575b50600f5411613fab577f7640dbac09c466c37a532a57792ae38a31e2979789d3c3892729e5ac77a3905891613fa66040519283928361438c565b0390a1005b606460405162461bcd60e51b815260206004820152601e60248201527f496e73756666696369656e7420676f7665726e616e636520746f6b656e7300006044820152fd5b90506020813d602011614019575b8161400a60209383614059565b8101031261042d575183613f6c565b3d9150613ffd565b60e0810190811067ffffffffffffffff821117610bec57604052565b6080810190811067ffffffffffffffff821117610bec57604052565b90601f8019910116810190811067ffffffffffffffff821117610bec57604052565b67ffffffffffffffff8111610bec57601f01601f191660200190565b81601f8201121561042d576020813591016140b18261407b565b926140bf6040519485614059565b8284528282011161042d5781600092602092838601378301015290565b604060031982011261042d576004359067ffffffffffffffff821161042d5761410791600401614097565b9060243590565b602435906001600160a01b038216820361042d57565b600435906001600160a01b038216820361042d57565b919060408051939061414c9085614059565b83906040810192831161042d57905b82821061416757505050565b813581526020918201910161415b565b90600182811c921680156141a7575b602083101461419157565b634e487b7160e01b600052602260045260246000fd5b91607f1691614186565b90604051918260008254926141c584614177565b808452936001811690811561423357506001146141ec575b506141ea92500383614059565b565b90506000929192526020600020906000915b8183106142175750509060206141ea92820101386141dd565b60209193508060019154838589010152019101909184926141fe565b9050602092506141ea94915060ff191682840152151560051b820101386141dd565b6000929181549161426583614177565b80835292600181169081156142bb575060011461428157505050565b60009081526020812093945091925b8383106142a1575060209250010190565b600181602092949394548385870101520191019190614290565b915050602093945060ff929192191683830152151560051b010190565b919082519283825260005b848110614304575050826000602080949584010152601f8019910116010190565b806020809284010151828286010152016142e3565b604090600319011261042d576004359060243590565b60405191906000835b6002821061434e575050506141ea604083614059565b6001602081928554815201930191019091614338565b906000905b6002821061437657505050565b6020806001928551815201930191019091614369565b9291906143a36020916040865260408601906142d8565b930152565b60001981146121595760010190565b9190820180921161215957565b8181029291811591840414171561215957565b156143de57565b606460405162461bcd60e51b815260206004820152600f60248201527f426f6e64206e6f742061637469766500000000000000000000000000000000006044820152fd5b1561442957565b606460405162461bcd60e51b815260206004820152601160248201527f416c7265616479207472696767657265640000000000000000000000000000006044820152fd5b1561447457565b606460405162461bcd60e51b815260206004820152600c60248201527f426f6e64206d61747572656400000000000000000000000000000000000000006044820152fd5b600092918154916144c883614177565b926001811690811561451357506001146144e157505050565b909192935060005260206000206000905b8382106144ff5750500190565b6001816020925484860152019101906144f2565b60ff191683525050811515909102019150565b9081606091031261042d578051916040602083015192015190565b9190820391821161215957565b8115614558570490565b634e487b7160e01b600052601260045260246000fd5b601f821161457b57505050565b6000526020600020906020601f840160051c830193106145b6575b601f0160051c01905b8181106145aa575050565b6000815560010161459f565b9091508190614596565b156145c757565b606460405162461bcd60e51b815260206004820152601c60248201527f496e73756666696369656e74207072656d69756d207061796d656e74000000006044820152fd5b1561461257565b606460405162461bcd60e51b815260206004820152601260248201527f496e76616c69642065787069726174696f6e00000000000000000000000000006044820152fd5b1561465d57565b606460405162461bcd60e51b815260206004820152600f60248201527f506f6f6c206e6f742061637469766500000000000000000000000000000000006044820152fd5b80548210156146b95760005260206000200190600090565b634e487b7160e01b600052603260045260246000fd5b6001600160a01b0316801561475f576001600160a01b037f9016d09d72d40fdae2fd8ceac6b6234c7706214fd39c1cd1e609a0528c19930054826001600160a01b03198216177f9016d09d72d40fdae2fd8ceac6b6234c7706214fd39c1cd1e609a0528c19930055167f8be0079c531659141344cd1fd0a4f28419497f9722a3daafe3b4186f6b6457e0600080a3565b7f1e4fbdf700000000000000000000000000000000000000000000000000000000600052600060045260246000fd5b6001600160a01b037f9016d09d72d40fdae2fd8ceac6b6234c7706214fd39c1cd1e609a0528c199300541633036147c157565b7f118cdaa7000000000000000000000000000000000000000000000000000000006000523360045260246000fd5b600d810154600a8201549060005b60088401805482101561486f57600080806001600160a01b036148218683966146a1565b90549060031b1c1661484f88612d598960408d600988916001600160a01b03891683520160205220546143c4565b90828215614866575bf115610390576001016147fd565b506108fc614858565b5050505050565b60027f9b779b17422d0df92223018b32b4d1fa46e071723d6817e2486d003becc55f0054146148c55760027f9b779b17422d0df92223018b32b4d1fa46e071723d6817e2486d003becc55f0055565b7f3ee5aeb50000000000000000000000000000000000000000000000000000000060005260046000fd5b60ff7ff0c57e16840df040f15088dc2f81fe391c3923bec73e23a9662efc9c229c6a005460401c161561491e57565b7fd7e6bcf80000000000000000000000000000000000000000000000000000000060005260046000fd5b90614987575080511561495d57602081519101fd5b7fd6bda2750000000000000000000000000000000000000000000000000000000060005260046000fd5b815115806149cf575b614998575090565b6001600160a01b03907f9996b315000000000000000000000000000000000000000000000000000000006000521660045260246000fd5b50803b1561499056fea2646970667358221220e21f76b7fe1a08157ddbc8002630253e809582e75414c8915c9ca650cb2da7d764736f6c634300081c0033",
  "linkReferences": {},
  "deployedLinkReferences": {}
}