{
  "_format": "hh-sol-artifact-1",
  "contractName": "YieldVault",
  "sourceName": "contracts/YieldVault.sol",
  "abi": [
    {
      "inputs": [
        {
          "internalType": "address",
          "name": "target",
          "type": "address"
        }
      ],
      "name": "AddressEmptyCode",
      "type": "error"
    },
    {
      "inputs": [
        {
          "internalType": "address",
          "name": "implementation",
          "type": "address"
        }
      ],
      "name": "ERC1967InvalidImplementation",
      "type": "error"
    },
    {
      "inputs": [],
      "name": "ERC1967NonPayable",
      "type": "error"
    },
    {
      "inputs": [],
      "name": "FailedCall",
      "type": "error"
    },
    {
      "inputs": [],
      "name": "InvalidInitialization",
      "type": "error"
    },
    {
      "inputs": [],
      "name": "NotInitializing",
      "type": "error"
    },
    {
      "inputs": [
        {
          "internalType": "address",
          "name": "owner",
          "type": "address"
        }
      ],
      "name": "OwnableInvalidOwner",
      "type": "error"
    },
    {
      "inputs": [
        {
          "internalType": "address",
          "name": "account",
          "type": "address"
        }
      ],
      "name": "OwnableUnauthorizedAccount",
      "type": "error"
    },
    {
      "inputs": [],
      "name": "ReentrancyGuardReentrantCall",
      "type": "error"
    },
    {
      "inputs": [],
      "name": "UUPSUnauthorizedCallContext",
      "type": "error"
    },
    {
      "inputs": [
        {
          "internalType": "bytes32",
          "name": "slot",
          "type": "bytes32"
        }
      ],
      "name": "UUPSUnsupportedProxiableUUID",
      "type": "error"
    },
    {
      "anonymous": false,
      "inputs": [
        {
          "indexed": true,
          "internalType": "uint256",
          "name": "strategyId",
          "type": "uint256"
        },
        {
          "indexed": false,
          "internalType": "uint256",
          "name": "predictedAPY",
          "type": "uint256"
        },
        {
          "indexed": false,
          "internalType": "uint256",
          "name": "confidenceScore",
          "type": "uint256"
        },
        {
          "indexed": false,
          "internalType": "uint256",
          "name": "recommendedAllocation",
          "type": "uint256"
        }
      ],
      "name": "AIYieldPredicted",
      "type": "event"
    },
    {
      "anonymous": false,
      "inputs": [
        {
          "indexed": true,
          "internalType": "uint256",
          "name": "strategyId",
          "type": "uint256"
        },
        {
          "indexed": true,
          "internalType": "address",
          "name": "user",
          "type": "address"
        },
        {
          "indexed": false,
          "internalType": "uint256",
          "name": "rewards",
          "type": "uint256"
        },
        {
          "indexed": false,
          "internalType": "uint256",
          "name": "newShares",
          "type": "uint256"
        }
      ],
      "name": "AutoCompounded",
      "type": "event"
    },
    {
      "anonymous": false,
      "inputs": [
        {
          "indexed": true,
          "internalType": "address",
          "name": "user",
          "type": "address"
        },
        {
          "indexed": false,
          "internalType": "uint256",
          "name": "sourceChainId",
          "type": "uint256"
        },
        {
          "indexed": false,
          "internalType": "uint256",
          "name": "strategyId",
          "type": "uint256"
        },
        {
          "indexed": false,
          "internalType": "uint256",
          "name": "amount",
          "type": "uint256"
        },
        {
          "indexed": false,
          "internalType": "uint256",
          "name": "shares",
          "type": "uint256"
        }
      ],
      "name": "CrossChainPositionCreated",
      "type": "event"
    },
    {
      "anonymous": false,
      "inputs": [
        {
          "indexed": true,
          "internalType": "address",
          "name": "user",
          "type": "address"
        },
        {
          "indexed": false,
          "internalType": "uint256",
          "name": "positionIndex",
          "type": "uint256"
        },
        {
          "indexed": false,
          "internalType": "uint256",
          "name": "rewards",
          "type": "uint256"
        }
      ],
      "name": "CrossChainRewardsClaimed",
      "type": "event"
    },
    {
      "anonymous": false,
      "inputs": [
        {
          "indexed": true,
          "internalType": "uint256",
          "name": "strategyId",
          "type": "uint256"
        },
        {
          "indexed": true,
          "internalType": "address",
          "name": "user",
          "type": "address"
        },
        {
          "indexed": false,
          "internalType": "uint256",
          "name": "amount",
          "type": "uint256"
        },
        {
          "indexed": false,
          "internalType": "uint256",
          "name": "shares",
          "type": "uint256"
        }
      ],
      "name": "Deposit",
      "type": "event"
    },
    {
      "anonymous": false,
      "inputs": [
        {
          "indexed": false,
          "internalType": "uint64",
          "name": "version",
          "type": "uint64"
        }
      ],
      "name": "Initialized",
      "type": "event"
    },
    {
      "anonymous": false,
      "inputs": [
        {
          "indexed": true,
          "internalType": "address",
          "name": "previousOwner",
          "type": "address"
        },
        {
          "indexed": true,
          "internalType": "address",
          "name": "newOwner",
          "type": "address"
        }
      ],
      "name": "OwnershipTransferred",
      "type": "event"
    },
    {
      "anonymous": false,
      "inputs": [
        {
          "indexed": true,
          "internalType": "uint256",
          "name": "strategyId",
          "type": "uint256"
        },
        {
          "indexed": false,
          "internalType": "uint256",
          "name": "amount",
          "type": "uint256"
        }
      ],
      "name": "PerformanceFeeCollected",
      "type": "event"
    },
    {
      "anonymous": false,
      "inputs": [
        {
          "indexed": true,
          "internalType": "uint256",
          "name": "strategyId",
          "type": "uint256"
        },
        {
          "indexed": true,
          "internalType": "address",
          "name": "user",
          "type": "address"
        },
        {
          "indexed": false,
          "internalType": "uint256",
          "name": "amount",
          "type": "uint256"
        }
      ],
      "name": "RewardsClaimed",
      "type": "event"
    },
    {
      "anonymous": false,
      "inputs": [
        {
          "indexed": true,
          "internalType": "uint256",
          "name": "strategyId",
          "type": "uint256"
        },
        {
          "indexed": false,
          "internalType": "string",
          "name": "name",
          "type": "string"
        },
        {
          "indexed": false,
          "internalType": "uint256",
          "name": "apy",
          "type": "uint256"
        }
      ],
      "name": "StrategyCreated",
      "type": "event"
    },
    {
      "anonymous": false,
      "inputs": [
        {
          "indexed": true,
          "internalType": "uint256",
          "name": "strategyId",
          "type": "uint256"
        },
        {
          "indexed": false,
          "internalType": "uint256[]",
          "name": "newAllocations",
          "type": "uint256[]"
        }
      ],
      "name": "StrategyRebalanced",
      "type": "event"
    },
    {
      "anonymous": false,
      "inputs": [
        {
          "indexed": true,
          "internalType": "address",
          "name": "implementation",
          "type": "address"
        }
      ],
      "name": "Upgraded",
      "type": "event"
    },
    {
      "anonymous": false,
      "inputs": [
        {
          "indexed": true,
          "internalType": "uint256",
          "name": "strategyId",
          "type": "uint256"
        },
        {
          "indexed": true,
          "internalType": "address",
          "name": "user",
          "type": "address"
        },
        {
          "indexed": false,
          "internalType": "uint256",
          "name": "shares",
          "type": "uint256"
        },
        {
          "indexed": false,
          "internalType": "uint256",
          "name": "amount",
          "type": "uint256"
        }
      ],
      "name": "Withdraw",
      "type": "event"
    },
    {
      "inputs": [],
      "name": "UPGRADE_INTERFACE_VERSION",
      "outputs": [
        {
          "internalType": "string",
          "name": "",
          "type": "string"
        }
      ],
      "stateMutability": "view",
      "type": "function"
    },
    {
      "inputs": [],
      "name": "agriCreditToken",
      "outputs": [
        {
          "internalType": "contract IERC20",
          "name": "",
          "type": "address"
        }
      ],
      "stateMutability": "view",
      "type": "function"
    },
    {
      "inputs": [
        {
          "internalType": "uint256",
          "name": "",
          "type": "uint256"
        }
      ],
      "name": "aiYieldPredictions",
      "outputs": [
        {
          "internalType": "uint256",
          "name": "strategyId",
          "type": "uint256"
        },
        {
          "internalType": "uint256",
          "name": "predictedAPY",
          "type": "uint256"
        },
        {
          "internalType": "uint256",
          "name": "confidenceScore",
          "type": "uint256"
        },
        {
          "internalType": "uint256",
          "name": "recommendedAllocation",
          "type": "uint256"
        },
        {
          "internalType": "uint256",
          "name": "timestamp",
          "type": "uint256"
        }
      ],
      "stateMutability": "view",
      "type": "function"
    },
    {
      "inputs": [
        {
          "internalType": "uint256",
          "name": "_strategyId",
          "type": "uint256"
        }
      ],
      "name": "autoCompound",
      "outputs": [],
      "stateMutability": "nonpayable",
      "type": "function"
    },
    {
      "inputs": [
        {
          "internalType": "uint256",
          "name": "_strategyId",
          "type": "uint256"
        },
        {
          "internalType": "address",
          "name": "_user",
          "type": "address"
        }
      ],
      "name": "canWithdraw",
      "outputs": [
        {
          "internalType": "bool",
          "name": "",
          "type": "bool"
        }
      ],
      "stateMutability": "view",
      "type": "function"
    },
    {
      "inputs": [
        {
          "internalType": "uint256",
          "name": "_positionIndex",
          "type": "uint256"
        },
        {
          "internalType": "bytes",
          "name": "_proof",
          "type": "bytes"
        }
      ],
      "name": "claimCrossChainRewards",
      "outputs": [],
      "stateMutability": "nonpayable",
      "type": "function"
    },
    {
      "inputs": [
        {
          "internalType": "uint256",
          "name": "_strategyId",
          "type": "uint256"
        }
      ],
      "name": "claimRewards",
      "outputs": [],
      "stateMutability": "nonpayable",
      "type": "function"
    },
    {
      "inputs": [],
      "name": "compoundGasLimit",
      "outputs": [
        {
          "internalType": "uint256",
          "name": "",
          "type": "uint256"
        }
      ],
      "stateMutability": "view",
      "type": "function"
    },
    {
      "inputs": [
        {
          "internalType": "uint256",
          "name": "_sourceChainId",
          "type": "uint256"
        },
        {
          "internalType": "uint256",
          "name": "_strategyId",
          "type": "uint256"
        },
        {
          "internalType": "uint256",
          "name": "_amount",
          "type": "uint256"
        }
      ],
      "name": "createCrossChainPosition",
      "outputs": [
        {
          "internalType": "uint256",
          "name": "",
          "type": "uint256"
        }
      ],
      "stateMutability": "payable",
      "type": "function"
    },
    {
      "inputs": [
        {
          "internalType": "string",
          "name": "_name",
          "type": "string"
        },
        {
          "internalType": "string",
          "name": "_description",
          "type": "string"
        },
        {
          "internalType": "uint256[]",
          "name": "_allocationPercentages",
          "type": "uint256[]"
        },
        {
          "internalType": "address[]",
          "name": "_protocols",
          "type": "address[]"
        },
        {
          "internalType": "uint256",
          "name": "_minDeposit",
          "type": "uint256"
        },
        {
          "internalType": "uint256",
          "name": "_lockPeriod",
          "type": "uint256"
        },
        {
          "internalType": "uint256",
          "name": "_apy",
          "type": "uint256"
        }
      ],
      "name": "createStrategy",
      "outputs": [
        {
          "internalType": "uint256",
          "name": "",
          "type": "uint256"
        }
      ],
      "stateMutability": "nonpayable",
      "type": "function"
    },
    {
      "inputs": [
        {
          "internalType": "address",
          "name": "",
          "type": "address"
        },
        {
          "internalType": "uint256",
          "name": "",
          "type": "uint256"
        }
      ],
      "name": "crossChainPositions",
      "outputs": [
        {
          "internalType": "uint256",
          "name": "sourceChainId",
          "type": "uint256"
        },
        {
          "internalType": "uint256",
          "name": "strategyId",
          "type": "uint256"
        },
        {
          "internalType": "uint256",
          "name": "shares",
          "type": "uint256"
        },
        {
          "internalType": "uint256",
          "name": "depositAmount",
          "type": "uint256"
        },
        {
          "internalType": "bytes32",
          "name": "bridgeTxHash",
          "type": "bytes32"
        },
        {
          "internalType": "bool",
          "name": "active",
          "type": "bool"
        }
      ],
      "stateMutability": "view",
      "type": "function"
    },
    {
      "inputs": [],
      "name": "decentralizedOracle",
      "outputs": [
        {
          "internalType": "contract DecentralizedOracle",
          "name": "",
          "type": "address"
        }
      ],
      "stateMutability": "view",
      "type": "function"
    },
    {
      "inputs": [
        {
          "internalType": "uint256",
          "name": "_strategyId",
          "type": "uint256"
        },
        {
          "internalType": "uint256",
          "name": "_amount",
          "type": "uint256"
        },
        {
          "internalType": "bool",
          "name": "_autoCompound",
          "type": "bool"
        }
      ],
      "name": "deposit",
      "outputs": [],
      "stateMutability": "nonpayable",
      "type": "function"
    },
    {
      "inputs": [
        {
          "internalType": "uint256",
          "name": "_strategyId",
          "type": "uint256"
        },
        {
          "internalType": "address",
          "name": "_user",
          "type": "address"
        }
      ],
      "name": "emergencyWithdraw",
      "outputs": [],
      "stateMutability": "nonpayable",
      "type": "function"
    },
    {
      "inputs": [
        {
          "internalType": "uint256",
          "name": "_strategyId",
          "type": "uint256"
        }
      ],
      "name": "getAIYieldPrediction",
      "outputs": [
        {
          "components": [
            {
              "internalType": "uint256",
              "name": "strategyId",
              "type": "uint256"
            },
            {
              "internalType": "uint256",
              "name": "predictedAPY",
              "type": "uint256"
            },
            {
              "internalType": "uint256",
              "name": "confidenceScore",
              "type": "uint256"
            },
            {
              "internalType": "uint256",
              "name": "recommendedAllocation",
              "type": "uint256"
            },
            {
              "internalType": "uint256",
              "name": "timestamp",
              "type": "uint256"
            }
          ],
          "internalType": "struct YieldVault.AIYieldPrediction",
          "name": "",
          "type": "tuple"
        }
      ],
      "stateMutability": "view",
      "type": "function"
    },
    {
      "inputs": [
        {
          "internalType": "address",
          "name": "_user",
          "type": "address"
        }
      ],
      "name": "getAutoCompoundSettings",
      "outputs": [
        {
          "components": [
            {
              "internalType": "uint256",
              "name": "minRewardThreshold",
              "type": "uint256"
            },
            {
              "internalType": "uint256",
              "name": "maxSlippage",
              "type": "uint256"
            },
            {
              "internalType": "uint256",
              "name": "compoundFrequency",
              "type": "uint256"
            },
            {
              "internalType": "bool",
              "name": "reinvestRewards",
              "type": "bool"
            }
          ],
          "internalType": "struct YieldVault.AutoCompoundSettings",
          "name": "",
          "type": "tuple"
        }
      ],
      "stateMutability": "view",
      "type": "function"
    },
    {
      "inputs": [
        {
          "internalType": "address",
          "name": "_user",
          "type": "address"
        }
      ],
      "name": "getCrossChainPositions",
      "outputs": [
        {
          "components": [
            {
              "internalType": "uint256",
              "name": "sourceChainId",
              "type": "uint256"
            },
            {
              "internalType": "uint256",
              "name": "strategyId",
              "type": "uint256"
            },
            {
              "internalType": "uint256",
              "name": "shares",
              "type": "uint256"
            },
            {
              "internalType": "uint256",
              "name": "depositAmount",
              "type": "uint256"
            },
            {
              "internalType": "bytes32",
              "name": "bridgeTxHash",
              "type": "bytes32"
            },
            {
              "internalType": "bool",
              "name": "active",
              "type": "bool"
            }
          ],
          "internalType": "struct YieldVault.CrossChainPosition[]",
          "name": "",
          "type": "tuple[]"
        }
      ],
      "stateMutability": "view",
      "type": "function"
    },
    {
      "inputs": [
        {
          "internalType": "uint256",
          "name": "_strategyId",
          "type": "uint256"
        }
      ],
      "name": "getStrategyAllocations",
      "outputs": [
        {
          "internalType": "address[]",
          "name": "protocols",
          "type": "address[]"
        },
        {
          "internalType": "uint256[]",
          "name": "percentages",
          "type": "uint256[]"
        }
      ],
      "stateMutability": "view",
      "type": "function"
    },
    {
      "inputs": [
        {
          "internalType": "uint256",
          "name": "_strategyId",
          "type": "uint256"
        }
      ],
      "name": "getStrategyInfo",
      "outputs": [
        {
          "internalType": "string",
          "name": "name",
          "type": "string"
        },
        {
          "internalType": "string",
          "name": "description",
          "type": "string"
        },
        {
          "internalType": "uint256",
          "name": "totalDeposits",
          "type": "uint256"
        },
        {
          "internalType": "uint256",
          "name": "totalShares",
          "type": "uint256"
        },
        {
          "internalType": "uint256",
          "name": "apy",
          "type": "uint256"
        },
        {
          "internalType": "bool",
          "name": "active",
          "type": "bool"
        }
      ],
      "stateMutability": "view",
      "type": "function"
    },
    {
      "inputs": [
        {
          "internalType": "uint256",
          "name": "_strategyId",
          "type": "uint256"
        },
        {
          "internalType": "address",
          "name": "_user",
          "type": "address"
        }
      ],
      "name": "getUserPosition",
      "outputs": [
        {
          "internalType": "uint256",
          "name": "shares",
          "type": "uint256"
        },
        {
          "internalType": "uint256",
          "name": "depositAmount",
          "type": "uint256"
        },
        {
          "internalType": "uint256",
          "name": "depositTime",
          "type": "uint256"
        },
        {
          "internalType": "uint256",
          "name": "lockExpiry",
          "type": "uint256"
        },
        {
          "internalType": "uint256",
          "name": "pendingRewards",
          "type": "uint256"
        },
        {
          "internalType": "bool",
          "name": "autoCompound",
          "type": "bool"
        }
      ],
      "stateMutability": "view",
      "type": "function"
    },
    {
      "inputs": [
        {
          "internalType": "address",
          "name": "_liquidityPool",
          "type": "address"
        },
        {
          "internalType": "address",
          "name": "_yieldToken",
          "type": "address"
        },
        {
          "internalType": "address",
          "name": "_agriCreditToken",
          "type": "address"
        },
        {
          "internalType": "address",
          "name": "_decentralizedOracle",
          "type": "address"
        }
      ],
      "name": "initialize",
      "outputs": [],
      "stateMutability": "nonpayable",
      "type": "function"
    },
    {
      "inputs": [],
      "name": "lastGlobalCompound",
      "outputs": [
        {
          "internalType": "uint256",
          "name": "",
          "type": "uint256"
        }
      ],
      "stateMutability": "view",
      "type": "function"
    },
    {
      "inputs": [],
      "name": "liquidityPool",
      "outputs": [
        {
          "internalType": "contract LiquidityPool",
          "name": "",
          "type": "address"
        }
      ],
      "stateMutability": "view",
      "type": "function"
    },
    {
      "inputs": [],
      "name": "maxStrategiesPerUser",
      "outputs": [
        {
          "internalType": "uint256",
          "name": "",
          "type": "uint256"
        }
      ],
      "stateMutability": "view",
      "type": "function"
    },
    {
      "inputs": [],
      "name": "minDepositAmount",
      "outputs": [
        {
          "internalType": "uint256",
          "name": "",
          "type": "uint256"
        }
      ],
      "stateMutability": "view",
      "type": "function"
    },
    {
      "inputs": [],
      "name": "nextStrategyId",
      "outputs": [
        {
          "internalType": "uint256",
          "name": "",
          "type": "uint256"
        }
      ],
      "stateMutability": "view",
      "type": "function"
    },
    {
      "inputs": [],
      "name": "owner",
      "outputs": [
        {
          "internalType": "address",
          "name": "",
          "type": "address"
        }
      ],
      "stateMutability": "view",
      "type": "function"
    },
    {
      "inputs": [],
      "name": "performanceFee",
      "outputs": [
        {
          "internalType": "uint256",
          "name": "",
          "type": "uint256"
        }
      ],
      "stateMutability": "view",
      "type": "function"
    },
    {
      "inputs": [
        {
          "internalType": "uint256",
          "name": "_strategyId",
          "type": "uint256"
        }
      ],
      "name": "predictYieldWithAI",
      "outputs": [
        {
          "internalType": "uint256",
          "name": "predictedAPY",
          "type": "uint256"
        },
        {
          "internalType": "uint256",
          "name": "confidenceScore",
          "type": "uint256"
        },
        {
          "internalType": "uint256",
          "name": "recommendedAllocation",
          "type": "uint256"
        }
      ],
      "stateMutability": "nonpayable",
      "type": "function"
    },
    {
      "inputs": [],
      "name": "proxiableUUID",
      "outputs": [
        {
          "internalType": "bytes32",
          "name": "",
          "type": "bytes32"
        }
      ],
      "stateMutability": "view",
      "type": "function"
    },
    {
      "inputs": [],
      "name": "rebalanceCooldown",
      "outputs": [
        {
          "internalType": "uint256",
          "name": "",
          "type": "uint256"
        }
      ],
      "stateMutability": "view",
      "type": "function"
    },
    {
      "inputs": [],
      "name": "renounceOwnership",
      "outputs": [],
      "stateMutability": "nonpayable",
      "type": "function"
    },
    {
      "inputs": [
        {
          "internalType": "uint256",
          "name": "_strategyId",
          "type": "uint256"
        },
        {
          "internalType": "bool",
          "name": "_active",
          "type": "bool"
        }
      ],
      "name": "setStrategyStatus",
      "outputs": [],
      "stateMutability": "nonpayable",
      "type": "function"
    },
    {
      "inputs": [],
      "name": "totalValueLocked",
      "outputs": [
        {
          "internalType": "uint256",
          "name": "",
          "type": "uint256"
        }
      ],
      "stateMutability": "view",
      "type": "function"
    },
    {
      "inputs": [
        {
          "internalType": "address",
          "name": "newOwner",
          "type": "address"
        }
      ],
      "name": "transferOwnership",
      "outputs": [],
      "stateMutability": "nonpayable",
      "type": "function"
    },
    {
      "inputs": [],
      "name": "triggerGlobalAutoCompound",
      "outputs": [],
      "stateMutability": "nonpayable",
      "type": "function"
    },
    {
      "inputs": [
        {
          "internalType": "uint256",
          "name": "_minRewardThreshold",
          "type": "uint256"
        },
        {
          "internalType": "uint256",
          "name": "_maxSlippage",
          "type": "uint256"
        },
        {
          "internalType": "uint256",
          "name": "_compoundFrequency",
          "type": "uint256"
        },
        {
          "internalType": "bool",
          "name": "_reinvestRewards",
          "type": "bool"
        }
      ],
      "name": "updateAutoCompoundSettings",
      "outputs": [],
      "stateMutability": "nonpayable",
      "type": "function"
    },
    {
      "inputs": [
        {
          "internalType": "uint256",
          "name": "_strategyId",
          "type": "uint256"
        },
        {
          "internalType": "uint256",
          "name": "_newAPY",
          "type": "uint256"
        }
      ],
      "name": "updateStrategyAPY",
      "outputs": [],
      "stateMutability": "nonpayable",
      "type": "function"
    },
    {
      "inputs": [
        {
          "internalType": "uint256",
          "name": "_strategyId",
          "type": "uint256"
        },
        {
          "internalType": "uint256[]",
          "name": "_newAllocations",
          "type": "uint256[]"
        }
      ],
      "name": "updateStrategyAllocations",
      "outputs": [],
      "stateMutability": "nonpayable",
      "type": "function"
    },
    {
      "inputs": [
        {
          "internalType": "uint256",
          "name": "_performanceFee",
          "type": "uint256"
        },
        {
          "internalType": "uint256",
          "name": "_minDepositAmount",
          "type": "uint256"
        },
        {
          "internalType": "uint256",
          "name": "_rebalanceCooldown",
          "type": "uint256"
        },
        {
          "internalType": "uint256",
          "name": "_maxStrategiesPerUser",
          "type": "uint256"
        }
      ],
      "name": "updateVaultParameters",
      "outputs": [],
      "stateMutability": "nonpayable",
      "type": "function"
    },
    {
      "inputs": [
        {
          "internalType": "address",
          "name": "newImplementation",
          "type": "address"
        },
        {
          "internalType": "bytes",
          "name": "data",
          "type": "bytes"
        }
      ],
      "name": "upgradeToAndCall",
      "outputs": [],
      "stateMutability": "payable",
      "type": "function"
    },
    {
      "inputs": [
        {
          "internalType": "address",
          "name": "",
          "type": "address"
        }
      ],
      "name": "userAutoCompoundSettings",
      "outputs": [
        {
          "internalType": "uint256",
          "name": "minRewardThreshold",
          "type": "uint256"
        },
        {
          "internalType": "uint256",
          "name": "maxSlippage",
          "type": "uint256"
        },
        {
          "internalType": "uint256",
          "name": "compoundFrequency",
          "type": "uint256"
        },
        {
          "internalType": "bool",
          "name": "reinvestRewards",
          "type": "bool"
        }
      ],
      "stateMutability": "view",
      "type": "function"
    },
    {
      "inputs": [
        {
          "internalType": "uint256",
          "name": "",
          "type": "uint256"
        },
        {
          "internalType": "address",
          "name": "",
          "type": "address"
        }
      ],
      "name": "userPositions",
      "outputs": [
        {
          "internalType": "uint256",
          "name": "shares",
          "type": "uint256"
        },
        {
          "internalType": "uint256",
          "name": "depositAmount",
          "type": "uint256"
        },
        {
          "internalType": "uint256",
          "name": "depositTime",
          "type": "uint256"
        },
        {
          "internalType": "uint256",
          "name": "lastClaimTime",
          "type": "uint256"
        },
        {
          "internalType": "uint256",
          "name": "accumulatedRewards",
          "type": "uint256"
        },
        {
          "internalType": "uint256",
          "name": "lockExpiry",
          "type": "uint256"
        },
        {
          "internalType": "bool",
          "name": "autoCompound",
          "type": "bool"
        }
      ],
      "stateMutability": "view",
      "type": "function"
    },
    {
      "inputs": [
        {
          "internalType": "uint256",
          "name": "",
          "type": "uint256"
        }
      ],
      "name": "vaultStrategies",
      "outputs": [
        {
          "internalType": "uint256",
          "name": "id",
          "type": "uint256"
        },
        {
          "internalType": "string",
          "name": "name",
          "type": "string"
        },
        {
          "internalType": "string",
          "name": "description",
          "type": "string"
        },
        {
          "internalType": "uint256",
          "name": "minDeposit",
          "type": "uint256"
        },
        {
          "internalType": "uint256",
          "name": "lockPeriod",
          "type": "uint256"
        },
        {
          "internalType": "uint256",
          "name": "performanceFee",
          "type": "uint256"
        },
        {
          "internalType": "uint256",
          "name": "totalDeposits",
          "type": "uint256"
        },
        {
          "internalType": "uint256",
          "name": "totalShares",
          "type": "uint256"
        },
        {
          "internalType": "bool",
          "name": "active",
          "type": "bool"
        },
        {
          "internalType": "uint256",
          "name": "apy",
          "type": "uint256"
        },
        {
          "internalType": "uint256",
          "name": "lastRebalance",
          "type": "uint256"
        }
      ],
      "stateMutability": "view",
      "type": "function"
    },
    {
      "inputs": [
        {
          "internalType": "uint256",
          "name": "_strategyId",
          "type": "uint256"
        },
        {
          "internalType": "uint256",
          "name": "_shares",
          "type": "uint256"
        }
      ],
      "name": "withdraw",
      "outputs": [],
      "stateMutability": "nonpayable",
      "type": "function"
    },
    {
      "inputs": [],
      "name": "yieldToken",
      "outputs": [
        {
          "internalType": "contract YieldToken",
          "name": "",
          "type": "address"
        }
      ],
      "stateMutability": "view",
      "type": "function"
    }
  ],
  "bytecode": "0x60a0806040523460515730608052600180556107d0600b55678ac7230489e80000600c55610e10600d556005600e556207a120600f55613abf90816100578239608051818181611ecf0152611f870152f35b600080fdfe6080604052600436101561001257600080fd5b60003560e01c80630962ef7914612bd7578063185f844714612bb95780632f940c7014612a5857806337d3033014612a005780633ea01b5d1461295157806343a0d066146125a7578063441a3e70146122fa57806345b882451461224d5780634cfc4ac8146121ec5780634f1ef28614611f4957806352d1902d14611eb45780635bcf461714611cbd5780635da4b9e914611c3a5780635e2f5b1f14611aff578063645006ca14611ae1578063665a11ca14611aba5780636ef56f76146119eb578063715018a614611952578063724c5d701461192557806376d5de85146118fe5780638305b8c4146118d7578063869da9db1461180757806387788782146117e95780638ae907f01461175c5780638da5cb5b146117165780638df7ca04146116ef57806391097e991461153e5780639393f26c1461130757806394d58798146112e957806396a2ed4314611109578063a33cba6c146110d6578063ad3cb1cc14611077578063ae4e9e9814610dd0578063ae73ae3414610d42578063af2fb08f14610c99578063b144831e14610c7b578063b3de272d14610c5d578063bd6cd28214610bd7578063caaee8b714610bb9578063db089e7914610b25578063e412f4c114610a91578063ec18154e14610a73578063f2fde38b14610a4a578063f6b420ca146109fb578063f8ab2805146104a65763f8c8765e1461021657600080fd5b346104a15760803660031901126104a15761022f612ed9565b610237612ec3565b906044356001600160a01b0381168091036104a157606435916001600160a01b0383168093036104a1577ff0c57e16840df040f15088dc2f81fe391c3923bec73e23a9662efc9c229c6a00549360ff8560401c16159467ffffffffffffffff811680159081610499575b600114908161048f575b159081610486575b5061045c5767ffffffffffffffff1981166001177ff0c57e16840df040f15088dc2f81fe391c3923bec73e23a9662efc9c229c6a00556001600160a01b039283918761041d575b506103036139a0565b61030b6139a0565b6103143361347f565b61031c6139a0565b6103246139a0565b60017f9b779b17422d0df92223018b32b4d1fa46e071723d6817e2486d003becc55f00556103506139a0565b166001600160a01b03196004541617600455166001600160a01b031960055416176005556001600160a01b031960065416176006556001600160a01b03196007541617600755426010556103a057005b68ff0000000000000000197ff0c57e16840df040f15088dc2f81fe391c3923bec73e23a9662efc9c229c6a0054167ff0c57e16840df040f15088dc2f81fe391c3923bec73e23a9662efc9c229c6a00557fc7f505b2f371ae2175ee4913f4499e1f2633a7b5936321eed1cdaeb6115181d2602060405160018152a1005b68ffffffffffffffffff191668010000000000000001177ff0c57e16840df040f15088dc2f81fe391c3923bec73e23a9662efc9c229c6a0055386102fa565b7ff92ee8a90000000000000000000000000000000000000000000000000000000060005260046000fd5b905015386102b3565b303b1591506102ab565b8791506102a1565b600080fd5b346104a15760e03660031901126104a15760043567ffffffffffffffff81116104a1576104d7903690600401612fb3565b60243567ffffffffffffffff81116104a1576104f7903690600401612fb3565b9060443567ffffffffffffffff81116104a15761051890369060040161312f565b9160643567ffffffffffffffff81116104a157366023820112156104a15780600401359261054584613117565b916105536040519384612f75565b84835260208301906024829660051b820101903682116104a157602401915b8183106109db5750505060c435610587613743565b85518351036109975785511561095357600093845b87518610156105c4576105bc6001916105b5888b613347565b519061327d565b95019461059c565b879495506105d661271088921461335b565b600154946105e3866132ed565b60015585600052600060205260406000209286845560018401865167ffffffffffffffff81116107da576106178254612ff8565b601f8111610921575b50806020601f82116001146108bc576000916108b1575b508160011b916000199060031b1c19161790555b8051600285019167ffffffffffffffff82116107da57819061066d8454612ff8565b601f8111610874575b50602090601f831160011461080f57600092610804575b50508160011b916000199060031b1c19161790555b6003830181519167ffffffffffffffff83116107da576801000000000000000083116107da576020906106da848454818655856133bd565b0190600052602060002060005b8381106107f057505050506004820195519067ffffffffffffffff82116107da576801000000000000000082116107da57610727828854818a55896133bd565b9560005260206000209560005b8281106107bd57602087807fc36c6585acff57ff1d4c48ce7ed833464e6b39cc3566a21b3c74f017be2122596107ad8a8a8a608435600582015560a4356006820155600b546007820155600a8101600160ff1982541617905581600b820155600c429101556040519283926040845260408401906130d6565b90878301520390a2604051908152f35b60019060206001600160a01b03845116930192818a015501610734565b634e487b7160e01b600052604160045260246000fd5b6001906020845194019381840155016106e7565b015190508a8061068d565b60008581528281209350601f198516905b81811061085c5750908460019594939210610843575b505050811b0190556106a2565b015160001960f88460031b161c191690558a8080610836565b92936020600181928786015181550195019301610820565b6108a190856000526020600020601f850160051c810191602086106108a7575b601f0160051c01906133a6565b8b610676565b9091508190610894565b90508801518b610637565b60008481528181209250601f198416905b8b82821061090957505090836001949392106108f0575b5050811b01905561064b565b8a015160001960f88460031b161c191690558b806108e4565b600184956020939584930151815501940192016108cd565b61094d90836000526020600020601f840160051c810191602085106108a757601f0160051c01906133a6565b8a610620565b606460405162461bcd60e51b815260206004820152601760248201527f4e6f20616c6c6f636174696f6e732070726f76696465640000000000000000006044820152fd5b606460405162461bcd60e51b815260206004820152601160248201527f4d69736d617463686564206172726179730000000000000000000000000000006044820152fd5b82356001600160a01b03811681036104a157815260209283019201610572565b346104a15760403660031901126104a15760243580151581036104a157610a4890610a24613743565b6004356000526000602052600a6040600020019060ff801983541691151516179055565b005b346104a15760203660031901126104a157610a48610a66612ed9565b610a6e613743565b61347f565b346104a15760003660031901126104a1576020600a54604051908152f35b346104a15760203660031901126104a15760043560005260006020526040600020610aca6003610ac3600484016133e0565b9201613434565b604051906040820160408352835180915260206060840194019060005b818110610b06578480610b02888783820360208501526131be565b0390f35b82516001600160a01b0316865260209586019590920191600101610ae7565b346104a15760203660031901126104a1576004356000526000602052610b90604060002060088101546009820154600b83015460ff600a8501541691610b9e610b7c6002610b7560018901613032565b9701613032565b60405197889760c0895260c08901906130d6565b9087820360208901526130d6565b93604086015260608501526080840152151560a08301520390f35b346104a15760003660031901126104a1576020600f54604051908152f35b346104a15760003660031901126104a157601054610e108101809111610c47574210610c035742601055005b606460405162461bcd60e51b815260206004820152600c60248201527f546f6f206672657175656e7400000000000000000000000000000000000000006044820152fd5b634e487b7160e01b600052601160045260246000fd5b346104a15760003660031901126104a1576020600d54604051908152f35b346104a15760003660031901126104a1576020600e54604051908152f35b346104a15760203660031901126104a1576001600160a01b03610cba612ed9565b60006060604051610cca81612f59565b828152826020820152826040820152015216600052600360205260806040600020604051610cf781612f59565b815491828252600181015460208301908152606060ff600360028501549460408701958652015416930192151583526040519384525160208401525160408301525115156060820152f35b346104a15760403660031901126104a157610d5b612ed9565b6001600160a01b0360243591166000526009602052604060002080548210156104a15760c091610d8a9161318c565b50805490600181015490600281015460038201549060ff6005600485015494015416936040519586526020860152604085015260608401526080830152151560a0820152f35b346104a15760203660031901126104a1576004356000818152600260209081526040808320338452825280832060039092529182902091519291610e1384612f59565b805484526001810154602085015260ff6003600283015492604087019384520154169160608501921515835260ff6006820154161561103357600381610e5e610e6a935415156131f2565b0191825490519061327d565b4210610fef57610e79836135b7565b93518410610fab57826000526000602052610eb7610e9f6009604060002001548661323d565b84600052600060205260086040600020015490613250565b9151610ef4575b42905560405192835260208301527f8322b56e0fa7b9649f70cf57a700e3de81c1080dccab71ad8117f4cef2d6a3a660403393a3005b8260005260026020526040806000206000906001600160a01b033316825260205220836000526000602052610f8b60406000209160098301926004610f4a6008610f3f87548c61323d565b930192835490613250565b92610f5684825461327d565b815560018101610f678b825461327d565b905501610f7589825461327d565b9055610f8288825461327d565b9055825461327d565b9055610f9984600a5461327d565b600a55610fa68484613807565b610ebe565b606460405162461bcd60e51b815260206004820152601760248201527f526577617264732062656c6f77207468726573686f6c640000000000000000006044820152fd5b606460405162461bcd60e51b815260206004820152601560248201527f436f6d706f756e6420746f6f206672657175656e7400000000000000000000006044820152fd5b606460405162461bcd60e51b815260206004820152601960248201527f4175746f2d636f6d706f756e64206e6f7420656e61626c6564000000000000006044820152fd5b346104a15760003660031901126104a157610b02604080519061109a8183612f75565b600582527f352e302e300000000000000000000000000000000000000000000000000000006020830152519182916020835260208301906130d6565b346104a15760803660031901126104a1576110ef613743565b600435600b55602435600c55604435600d55606435600e55005b346104a15760403660031901126104a15760043560243567ffffffffffffffff81116104a15761113d90369060040161312f565b611145613743565b81600052600060205260406000209061116460ff600a840154166132a2565b600c8201926111778454600d549061327d565b42106112a557815160048401540361126157600093845b83518610156111af576111a76001916105b58887613347565b95019461118e565b936111c161271060039394961461335b565b0182519067ffffffffffffffff82116107da576801000000000000000082116107da576111f3828254818455836133bd565b6020840190600052602060002060005b83811061124d57867f6e0d404bd927802218469f3a00743e9379a78d5781f7a314e61c59dae2cf7d7461124888884290556040519182916020835260208301906131be565b0390a2005b600190602084519401938184015501611203565b606460405162461bcd60e51b815260206004820152601960248201527f496e76616c696420616c6c6f636174696f6e206c656e677468000000000000006044820152fd5b606460405162461bcd60e51b815260206004820152601960248201527f526562616c616e636520636f6f6c646f776e20616374697665000000000000006044820152fd5b346104a15760003660031901126104a1576020601054604051908152f35b346104a15760203660031901126104a15761141060043580600052600060205260606001600160a01b0360075416604051907f73747261746567795f000000000000000000000000000000000000000000000060208301528360298301527f5f7969656c6400000000000000000000000000000000000000000000000000006049830152602f825261139a604f83612f75565b60405180809681947f52ee0b7700000000000000000000000000000000000000000000000000000000835260056004840152866024840152601060648401527f7969656c645f70726564696374696f6e00000000000000000000000000000000608484015260a0604484015260a48301906130d6565b03915afa918215611532576000926114fb575b50610b02620186a0830691612711629896806065620186a08704069504069060405161144e81612f21565b8181526004602082018681526040830188815260608401908682526080850192428452866000526008602052604060002095518655516001860155516002850155516003840155519101557fa778758000079ea7a10de3f40979e45635780e3d8cbcf7c6edeffff8789ce07a604051806114db858989846040919493926060820195825260208201520152565b0390a2604051938493846040919493926060820195825260208201520152565b90916060823d60601161152a575b8161151660609383612f75565b810103126115275750519082611423565b80fd5b3d9150611509565b6040513d6000823e3d90fd5b346104a15760403660031901126104a15760043560243567ffffffffffffffff81116104a157611572903690600401612fb3565b61157a61353e565b33600052600960205261159182604060002061318c565b50600581019081549260ff8416156116ab5751156116675780600160036115ce9301549101546000526000602052600b604060002001549061323d565b601e810290808204601e1490151715610c47576237b1d090049160ff19169055806000811561165e575b600080809381933390f1156115325760405191825260208201527f50f62eda188cd7c3ee64b32d78b18190f8f441f0c4e6f375a1018fef41269efe60403392a260017f9b779b17422d0df92223018b32b4d1fa46e071723d6817e2486d003becc55f0055005b506108fc6115f8565b606460405162461bcd60e51b815260206004820152600d60248201527f496e76616c69642070726f6f66000000000000000000000000000000000000006044820152fd5b606460405162461bcd60e51b815260206004820152601360248201527f506f736974696f6e206e6f7420616374697665000000000000000000000000006044820152fd5b346104a15760003660031901126104a15760206001600160a01b0360065416604051908152f35b346104a15760003660031901126104a15760206001600160a01b037f9016d09d72d40fdae2fd8ceac6b6234c7706214fd39c1cd1e609a0528c1993005416604051908152f35b346104a15760403660031901126104a15760e06040611779612ec3565b6004356000526002602052816000206001600160a01b03600092168252602052208054906001810154906002810154600382015460048301549160ff600660058601549501541694604051968752602087015260408601526060850152608084015260a0830152151560c0820152f35b346104a15760003660031901126104a1576020600b54604051908152f35b346104a15760403660031901126104a15760c06004356040611827612ec3565b826000526002602052816000206001600160a01b036000921682526020522060405161185281612f05565b81548152600182015492602082019384526002830154926040830193845260038101546060840152600481015460808401526118a960ff600660058401549360a087019485520154169287850193151584526135b7565b92519451935190519151151593604051958652602086015260408501526060840152608083015260a0820152f35b346104a15760003660031901126104a15760206001600160a01b0360075416604051908152f35b346104a15760003660031901126104a15760206001600160a01b0360055416604051908152f35b346104a15761193336612eef565b9061193c613743565b6000526000602052600b60406000200155600080f35b346104a15760003660031901126104a15761196b613743565b60006001600160a01b037f9016d09d72d40fdae2fd8ceac6b6234c7706214fd39c1cd1e609a0528c199300546001600160a01b031981167f9016d09d72d40fdae2fd8ceac6b6234c7706214fd39c1cd1e609a0528c19930055167f8be0079c531659141344cd1fd0a4f28419497f9722a3daafe3b4186f6b6457e08280a3005b346104a15760203660031901126104a157600435600052600060205260206040600020805490611a1d60018201613032565b611a2960028301613032565b9160058101549260068201546007830154600884015490600985015492611a8860ff600a8801541695611a7a600c600b8a0154990154996101606040519e8f9e8f90815201526101608d01906130d6565b908b820360408d01526130d6565b9760608a0152608089015260a088015260c087015260e086015215156101008501526101208401526101408301520390f35b346104a15760003660031901126104a15760206001600160a01b0360045416604051908152f35b346104a15760003660031901126104a1576020600c54604051908152f35b346104a15760203660031901126104a1576001600160a01b03611b20612ed9565b1660005260096020526040600020805490611b3a82613117565b91611b486040519384612f75565b80835260208301809260005260206000206000915b838310611be05784866040519182916020830190602084525180915260408301919060005b818110611b90575050500390f35b91935091602060c060019260a087518051835284810151858401526040810151604084015260608101516060840152608081015160808401520151151560a0820152019401910191849392611b82565b60066020600192604051611bf381612f3d565b85548152848601548382015260028601546040820152600386015460608201526004860154608082015260ff600587015416151560a0820152815201920192019190611b5d565b346104a15760803660031901126104a1576064358015158091036104a157610a4890600360405191611c6b83612f59565b60043583526020830160243581526040840190604435825260608501928352336000528360205260406000209451855551600185015551600284015551151591019060ff801983541691151516179055565b60603660031901126104a157600435602435604435803403611e7057816000526000602052604060002091611cf860ff600a850154166132a2565b60098301805480611e52575082935b60405190611d1482612f3d565b8682526020820184815260408301928784526060810190878252608081016000815260a08201906001825233600052600960205260406000208054680100000000000000008110156107da57611d6f9160018201815561318c565b949094611e3c57600897611db19660059551875551600187015551600286015551600385015551600484015551151591019060ff801983541691151516179055565b01611dbd84825461327d565b9055611dca84825461327d565b9055611dd882600a5461327d565b600a556040519384526020840152604083015260608201527fb461a0e703451d43a2b84c0c6800915a463c037b73e3bce30c3eba98b8c92ee060803392a23360005260096020526040600020546000198101908111610c4757602090604051908152f35b634e487b7160e01b600052600060045260246000fd5b611e5f611e6a918561323d565b600886015490613250565b93611d07565b606460405162461bcd60e51b815260206004820152601860248201527f496e636f7272656374206465706f73697420616d6f756e7400000000000000006044820152fd5b346104a15760003660031901126104a1576001600160a01b037f0000000000000000000000000000000000000000000000000000000000000000163003611f1f5760206040517f360894a13ba1a3210667c828492db98dca3e2076cc3735a920a3ca505d382bbc8152f35b7fe07c8dba0000000000000000000000000000000000000000000000000000000060005260046000fd5b60403660031901126104a157611f5d612ed9565b60243567ffffffffffffffff81116104a157611f7d903690600401612fb3565b6001600160a01b037f0000000000000000000000000000000000000000000000000000000000000000168030149081156121b7575b50611f1f57611fbf613743565b6001600160a01b038216916040517f52d1902d000000000000000000000000000000000000000000000000000000008152602081600481875afa60009181612183575b5061201c5783634c9c8ce360e01b60005260045260246000fd5b807f360894a13ba1a3210667c828492db98dca3e2076cc3735a920a3ca505d382bbc8592036121565750813b1561214257806001600160a01b03197f360894a13ba1a3210667c828492db98dca3e2076cc3735a920a3ca505d382bbc5416177f360894a13ba1a3210667c828492db98dca3e2076cc3735a920a3ca505d382bbc557fbc7cd75a20ee27fd9adebab32041f755214dbc6bffa90cc0225b39da2e5c2d3b600080a281511561210f57600080836020610a4895519101845af43d15612107573d916120ea83612f97565b926120f86040519485612f75565b83523d6000602085013e6139f9565b6060916139f9565b50503461211857005b7fb398979f0000000000000000000000000000000000000000000000000000000060005260046000fd5b634c9c8ce360e01b60005260045260246000fd5b7faa1d49a40000000000000000000000000000000000000000000000000000000060005260045260246000fd5b9091506020813d6020116121af575b8161219f60209383612f75565b810103126104a157519085612002565b3d9150612192565b90506001600160a01b037f360894a13ba1a3210667c828492db98dca3e2076cc3735a920a3ca505d382bbc5416141583611fb2565b346104a15760203660031901126104a1576001600160a01b0361220d612ed9565b1660005260036020526080604060002080549060018101549060ff6003600283015492015416916040519384526020840152604083015215156060820152f35b346104a15760203660031901126104a1576000608060405161226e81612f21565b8281528260208201528260408201528260608201520152600435600052600860205260a060406000206040516122a381612f21565b81549182825260018101546020830190815260028201549060408401918252608060046003850154946060870195865201549401938452604051948552516020850152516040840152516060830152516080820152f35b346104a15761230836612eef565b9061231161353e565b8060005260026020526040806000206000906001600160a01b0333168252602052208160005260006020526040600020815491848310612563576005810154421061251f57600160088301916123828761237c600961237187548461323d565b970196875490613250565b96613270565b815501612390848254613270565b905561239d838254613270565b90556123aa848254613270565b90556123b881600a54613270565b600a55816000526000602052604060002060006004820190600382549301905b8381106124b757505060065460405163a9059cbb60e01b815233600482015260248101859052925060209150829060449082906000906001600160a01b03165af180156115325761243191600091612488575b506132fc565b60405192835260208301527fb0ecf14e184effded5473bba77dcfab32b094b77ac1fbb36beec2aef5558797060403393a360017f9b779b17422d0df92223018b32b4d1fa46e071723d6817e2486d003becc55f0055005b6124aa915060203d6020116124b0575b6124a28183612f75565b81019061328a565b8561242b565b503d612498565b806127106124d76124ca600194866137a4565b90549060031b1c8861323d565b046124e3575b016123d8565b6001600160a01b036124f582866137a4565b90549060031b1c166001600160a01b0360045416146124dd5761251881856137a4565b50506124dd565b606460405162461bcd60e51b815260206004820152600c60248201527f5374696c6c206c6f636b656400000000000000000000000000000000000000006044820152fd5b606460405162461bcd60e51b815260206004820152601360248201527f496e73756666696369656e7420736861726573000000000000000000000000006044820152fd5b346104a15760603660031901126104a15760243560043560443580151581036104a1576125d261353e565b8160005260006020526040600020906125f160ff600a840154166132a2565b6005820154841061290d576001600160a01b03600654166040517f70a08231000000000000000000000000000000000000000000000000000000008152336004820152602081602481855afa80156115325786916000916128d8575b50106128945760018054339491600091905b818110612859575050600e5411156128155760206000926064604051809581937f23b872dd0000000000000000000000000000000000000000000000000000000083523360048401523060248401528b60448401525af1918215611532576008926126d1916000916127f657506132fc565b61274a6009820193845480156000146127d557506006604089975b8960005260026020528160002060009182526020522061270d88825461327d565b81556001810161271e8b825461327d565b9055426002820155612733828601544261327d565b6005820155019060ff801983541691151516179055565b0161275685825461327d565b905561276382825461327d565b905561277183600a5461327d565b600a5561277e8383613807565b60405192835260208301527fd36a2f67d06d285786f61a32b052b9ace6b0b7abef5177b54358abdc83a0b69b60403393a360017f9b779b17422d0df92223018b32b4d1fa46e071723d6817e2486d003becc55f0055005b60406127f06127e66006938c61323d565b8787015490613250565b976126ec565b61280f915060203d6020116124b0576124a28183612f75565b8861242b565b606460405162461bcd60e51b815260206004820152601360248201527f546f6f206d616e792073747261746567696573000000000000000000000000006044820152fd5b8060005260026020526040806000206000908982526020522054612880575b60010161265f565b9161288c6001916132ed565b929050612878565b606460405162461bcd60e51b815260206004820152601460248201527f496e73756666696369656e742062616c616e63650000000000000000000000006044820152fd5b9150506020813d602011612905575b816128f460209383612f75565b810103126104a1578590518761264d565b3d91506128e7565b606460405162461bcd60e51b815260206004820152601560248201527f4465706f7369742062656c6f77206d696e696d756d00000000000000000000006044820152fd5b346104a15760403660031901126104a1576020604061296e612ec3565b60043560005260028352816000206001600160a01b036000921682528352206040519061299a82612f05565b80549182815260018201548482015260028201546040820152600382015460608201526004820154608082015260c060ff60066005850154948560a0860152015416151591015242101590816129f6575b506040519015158152f35b90501515826129eb565b346104a15760203660031901126104a157600435600052600860205260a06040600020805490600181015490600281015460046003830154920154926040519485526020850152604084015260608301526080820152f35b346104a15760403660031901126104a157612b3b6020600435612a79612ec3565b612a81613743565b81600052600283526040806000206000906001600160a01b0384168252855220916000526000835260006040812092612abc815415156131f2565b81600182019182549560088101612ad4888254613270565b9055612ae7600983549201918254613270565b9055612af586600a54613270565b600a5555556001600160a01b036006541690600060405180968195829463a9059cbb60e01b845260048401602090939291936001600160a01b0360408201951681520152565b03925af190811561153257600091612b9a575b5015612b5657005b606460405162461bcd60e51b815260206004820152601960248201527f456d657267656e6379207472616e73666572206661696c6564000000000000006044820152fd5b612bb3915060203d6020116124b0576124a28183612f75565b81612b4e565b346104a15760003660031901126104a1576020600154604051908152f35b346104a15760203660031901126104a157600435612bf361353e565b8060005260026020526040806000206000906001600160a01b033316825260205220908060005260006020526040600020612c30835415156131f2565b612c39826135b7565b908115612e7f57612710612c546007612c5c9301548461323d565b048092613270565b9260048101612c6c85825461327d565b905560034291015580612d7b575b5060065460405163a9059cbb60e01b81523360048201526024810184905290602090829060449082906000906001600160a01b03165af190811561153257600091612d5c575b5015612d18576040519182527f3300bdb359cfb956935bca32e9db727413eab1ca84341f2e36caea85bb79696860203393a360017f9b779b17422d0df92223018b32b4d1fa46e071723d6817e2486d003becc55f0055005b606460405162461bcd60e51b815260206004820152601660248201527f526577617264207472616e73666572206661696c6564000000000000000000006044820152fd5b612d75915060203d6020116124b0576124a28183612f75565b83612cc0565b6006547f9016d09d72d40fdae2fd8ceac6b6234c7706214fd39c1cd1e609a0528c1993005460405163a9059cbb60e01b81526001600160a01b039182166004820152602481018490529160209183916044918391600091165af190811561153257600091612e60575b5015612e1c577f27c911040371674ee220be22d1cf1a554a2f34e5bbb946f7b11d7d3a7c5b734c60208392604051908152a282612c7a565b606460405162461bcd60e51b815260206004820152601360248201527f466565207472616e73666572206661696c6564000000000000000000000000006044820152fd5b612e79915060203d6020116124b0576124a28183612f75565b84612de4565b606460405162461bcd60e51b815260206004820152601360248201527f4e6f207265776172647320746f20636c61696d000000000000000000000000006044820152fd5b602435906001600160a01b03821682036104a157565b600435906001600160a01b03821682036104a157565b60409060031901126104a1576004359060243590565b60e0810190811067ffffffffffffffff8211176107da57604052565b60a0810190811067ffffffffffffffff8211176107da57604052565b60c0810190811067ffffffffffffffff8211176107da57604052565b6080810190811067ffffffffffffffff8211176107da57604052565b90601f8019910116810190811067ffffffffffffffff8211176107da57604052565b67ffffffffffffffff81116107da57601f01601f191660200190565b81601f820112156104a157602081359101612fcd82612f97565b92612fdb6040519485612f75565b828452828201116104a15781600092602092838601378301015290565b90600182811c92168015613028575b602083101461301257565b634e487b7160e01b600052602260045260246000fd5b91607f1691613007565b906040519182600082549261304684612ff8565b80845293600181169081156130b4575060011461306d575b5061306b92500383612f75565b565b90506000929192526020600020906000915b81831061309857505090602061306b928201013861305e565b602091935080600191548385890101520191019091849261307f565b90506020925061306b94915060ff191682840152151560051b8201013861305e565b919082519283825260005b848110613102575050826000602080949584010152601f8019910116010190565b806020809284010151828286010152016130e1565b67ffffffffffffffff81116107da5760051b60200190565b9080601f830112156104a157813561314681613117565b926131546040519485612f75565b81845260208085019260051b8201019283116104a157602001905b82821061317c5750505090565b813581526020918201910161316f565b80548210156131a8576000526006602060002091020190600090565b634e487b7160e01b600052603260045260246000fd5b906020808351928381520192019060005b8181106131dc5750505090565b82518452602093840193909201916001016131cf565b156131f957565b606460405162461bcd60e51b815260206004820152601160248201527f4e6f20706f736974696f6e20666f756e640000000000000000000000000000006044820152fd5b81810292918115918404141715610c4757565b811561325a570490565b634e487b7160e01b600052601260045260246000fd5b91908203918211610c4757565b91908201809211610c4757565b908160209103126104a1575180151581036104a15790565b156132a957565b606460405162461bcd60e51b815260206004820152601360248201527f5374726174656779206e6f7420616374697665000000000000000000000000006044820152fd5b6000198114610c475760010190565b1561330357565b606460405162461bcd60e51b815260206004820152600f60248201527f5472616e73666572206661696c656400000000000000000000000000000000006044820152fd5b80518210156131a85760209160051b010190565b1561336257565b606460405162461bcd60e51b815260206004820152601c60248201527f416c6c6f636174696f6e73206d7573742073756d20746f2031303025000000006044820152fd5b8181106133b1575050565b600081556001016133a6565b918181106133ca57505050565b61306b92600052602060002091820191016133a6565b906040519182815491828252602082019060005260206000209260005b81811061341257505061306b92500383612f75565b84546001600160a01b03168352600194850194879450602090930192016133fd565b906040519182815491828252602082019060005260206000209260005b81811061346657505061306b92500383612f75565b8454835260019485019487945060209093019201613451565b6001600160a01b0316801561350f576001600160a01b037f9016d09d72d40fdae2fd8ceac6b6234c7706214fd39c1cd1e609a0528c19930054826001600160a01b03198216177f9016d09d72d40fdae2fd8ceac6b6234c7706214fd39c1cd1e609a0528c19930055167f8be0079c531659141344cd1fd0a4f28419497f9722a3daafe3b4186f6b6457e0600080a3565b7f1e4fbdf700000000000000000000000000000000000000000000000000000000600052600060045260246000fd5b60027f9b779b17422d0df92223018b32b4d1fa46e071723d6817e2486d003becc55f00541461358d5760027f9b779b17422d0df92223018b32b4d1fa46e071723d6817e2486d003becc55f0055565b7f3ee5aeb50000000000000000000000000000000000000000000000000000000060005260046000fd5b8060005260026020526040806000206000906001600160a01b03331682526020522090604051916135e783612f05565b80548352600181015491602084019283526002820154604085015260ff60066003840154936060870194855260048101546080880152600581015460a0880152015416151560c085015260005260006020526040600020926040516101a0810181811067ffffffffffffffff8211176107da576040528454815261366d60018601613032565b602082015261367e60028601613032565b604082015261368f60038601613434565b60608201526136a0600486016133e0565b6080820152600585015460a0820152600685015460c0820152600785015460e08201526008850154610100820152600985015461012082015260ff600a860154161515610140820152610180600c600b8701549661016084019788520154910152511561373b57613712905142613270565b801561373b576127106137316301e1338094613737945190519061323d565b0461323d565b0490565b505050600090565b6001600160a01b037f9016d09d72d40fdae2fd8ceac6b6234c7706214fd39c1cd1e609a0528c1993005416330361377657565b7f118cdaa7000000000000000000000000000000000000000000000000000000006000523360045260246000fd5b80548210156131a85760005260206000200190600090565b156137c357565b606460405162461bcd60e51b815260206004820152600f60248201527f417070726f76616c206661696c656400000000000000000000000000000000006044820152fd5b919091600052600060205260406000209160006003600485019401905b84548110156139995761271061384a61383d83856137a4565b90549060031b1c8561323d565b04908161385c575b6001915001613824565b6001600160a01b0361386e82886137a4565b90549060031b1c166001600160a01b036004541614600014613908576006546004805460405163095ea7b360e01b81526001600160a01b039182169281019290925260248201949094529260209184916044918391600091165af1918215611532576001926138e5916000916138ea575b506137bc565b613852565b613902915060203d81116124b0576124a28183612f75565b386138df565b6001600160a01b0361391a82886137a4565b90549060031b1c166001600160a01b0360055416809114613940575b5060019150613852565b60065460405163095ea7b360e01b81526001600160a01b039283166004820152602481019490945260209184916044918391600091165af191821561153257600192613993916000916138ea57506137bc565b38613936565b5050509050565b60ff7ff0c57e16840df040f15088dc2f81fe391c3923bec73e23a9662efc9c229c6a005460401c16156139cf57565b7fd7e6bcf80000000000000000000000000000000000000000000000000000000060005260046000fd5b90613a385750805115613a0e57602081519101fd5b7fd6bda2750000000000000000000000000000000000000000000000000000000060005260046000fd5b81511580613a80575b613a49575090565b6001600160a01b03907f9996b315000000000000000000000000000000000000000000000000000000006000521660045260246000fd5b50803b15613a4156fea264697066735822122021f318289974d639a7e96937ad4ae366bbd0bdc512970cdee4caa1109ef8a44464736f6c634300081c0033",
  "linkReferences": {},
  "deployedLinkReferences": {}
}