{
  "_format": "hh-sol-artifact-1",
  "contractName": "YieldVault",
  "sourceName": "contracts/YieldVault.sol",
  "abi": [
    {
      "inputs": [
        {
          "internalType": "address",
          "name": "target",
          "type": "address"
        }
      ],
      "name": "AddressEmptyCode",
      "type": "error"
    },
    {
      "inputs": [
        {
          "internalType": "address",
          "name": "implementation",
          "type": "address"
        }
      ],
      "name": "ERC1967InvalidImplementation",
      "type": "error"
    },
    {
      "inputs": [],
      "name": "ERC1967NonPayable",
      "type": "error"
    },
    {
      "inputs": [],
      "name": "FailedCall",
      "type": "error"
    },
    {
      "inputs": [],
      "name": "InvalidInitialization",
      "type": "error"
    },
    {
      "inputs": [],
      "name": "NotInitializing",
      "type": "error"
    },
    {
      "inputs": [
        {
          "internalType": "address",
          "name": "owner",
          "type": "address"
        }
      ],
      "name": "OwnableInvalidOwner",
      "type": "error"
    },
    {
      "inputs": [
        {
          "internalType": "address",
          "name": "account",
          "type": "address"
        }
      ],
      "name": "OwnableUnauthorizedAccount",
      "type": "error"
    },
    {
      "inputs": [],
      "name": "ReentrancyGuardReentrantCall",
      "type": "error"
    },
    {
      "inputs": [],
      "name": "UUPSUnauthorizedCallContext",
      "type": "error"
    },
    {
      "inputs": [
        {
          "internalType": "bytes32",
          "name": "slot",
          "type": "bytes32"
        }
      ],
      "name": "UUPSUnsupportedProxiableUUID",
      "type": "error"
    },
    {
      "anonymous": false,
      "inputs": [
        {
          "indexed": true,
          "internalType": "uint256",
          "name": "strategyId",
          "type": "uint256"
        },
        {
          "indexed": false,
          "internalType": "uint256",
          "name": "predictedAPY",
          "type": "uint256"
        },
        {
          "indexed": false,
          "internalType": "uint256",
          "name": "confidenceScore",
          "type": "uint256"
        },
        {
          "indexed": false,
          "internalType": "uint256",
          "name": "recommendedAllocation",
          "type": "uint256"
        }
      ],
      "name": "AIYieldPredicted",
      "type": "event"
    },
    {
      "anonymous": false,
      "inputs": [
        {
          "indexed": true,
          "internalType": "uint256",
          "name": "strategyId",
          "type": "uint256"
        },
        {
          "indexed": true,
          "internalType": "address",
          "name": "user",
          "type": "address"
        },
        {
          "indexed": false,
          "internalType": "uint256",
          "name": "rewards",
          "type": "uint256"
        },
        {
          "indexed": false,
          "internalType": "uint256",
          "name": "newShares",
          "type": "uint256"
        }
      ],
      "name": "AutoCompounded",
      "type": "event"
    },
    {
      "anonymous": false,
      "inputs": [
        {
          "indexed": true,
          "internalType": "address",
          "name": "user",
          "type": "address"
        },
        {
          "indexed": false,
          "internalType": "uint256",
          "name": "sourceChainId",
          "type": "uint256"
        },
        {
          "indexed": false,
          "internalType": "uint256",
          "name": "strategyId",
          "type": "uint256"
        },
        {
          "indexed": false,
          "internalType": "uint256",
          "name": "amount",
          "type": "uint256"
        },
        {
          "indexed": false,
          "internalType": "uint256",
          "name": "shares",
          "type": "uint256"
        }
      ],
      "name": "CrossChainPositionCreated",
      "type": "event"
    },
    {
      "anonymous": false,
      "inputs": [
        {
          "indexed": true,
          "internalType": "address",
          "name": "user",
          "type": "address"
        },
        {
          "indexed": false,
          "internalType": "uint256",
          "name": "positionIndex",
          "type": "uint256"
        },
        {
          "indexed": false,
          "internalType": "uint256",
          "name": "rewards",
          "type": "uint256"
        }
      ],
      "name": "CrossChainRewardsClaimed",
      "type": "event"
    },
    {
      "anonymous": false,
      "inputs": [
        {
          "indexed": true,
          "internalType": "uint256",
          "name": "strategyId",
          "type": "uint256"
        },
        {
          "indexed": true,
          "internalType": "address",
          "name": "user",
          "type": "address"
        },
        {
          "indexed": false,
          "internalType": "uint256",
          "name": "amount",
          "type": "uint256"
        },
        {
          "indexed": false,
          "internalType": "uint256",
          "name": "shares",
          "type": "uint256"
        }
      ],
      "name": "Deposit",
      "type": "event"
    },
    {
      "anonymous": false,
      "inputs": [
        {
          "indexed": false,
          "internalType": "uint64",
          "name": "version",
          "type": "uint64"
        }
      ],
      "name": "Initialized",
      "type": "event"
    },
    {
      "anonymous": false,
      "inputs": [
        {
          "indexed": true,
          "internalType": "address",
          "name": "previousOwner",
          "type": "address"
        },
        {
          "indexed": true,
          "internalType": "address",
          "name": "newOwner",
          "type": "address"
        }
      ],
      "name": "OwnershipTransferred",
      "type": "event"
    },
    {
      "anonymous": false,
      "inputs": [
        {
          "indexed": true,
          "internalType": "uint256",
          "name": "strategyId",
          "type": "uint256"
        },
        {
          "indexed": false,
          "internalType": "uint256",
          "name": "amount",
          "type": "uint256"
        }
      ],
      "name": "PerformanceFeeCollected",
      "type": "event"
    },
    {
      "anonymous": false,
      "inputs": [
        {
          "indexed": true,
          "internalType": "uint256",
          "name": "strategyId",
          "type": "uint256"
        },
        {
          "indexed": true,
          "internalType": "address",
          "name": "user",
          "type": "address"
        },
        {
          "indexed": false,
          "internalType": "uint256",
          "name": "amount",
          "type": "uint256"
        }
      ],
      "name": "RewardsClaimed",
      "type": "event"
    },
    {
      "anonymous": false,
      "inputs": [
        {
          "indexed": true,
          "internalType": "uint256",
          "name": "strategyId",
          "type": "uint256"
        },
        {
          "indexed": false,
          "internalType": "string",
          "name": "name",
          "type": "string"
        },
        {
          "indexed": false,
          "internalType": "uint256",
          "name": "apy",
          "type": "uint256"
        }
      ],
      "name": "StrategyCreated",
      "type": "event"
    },
    {
      "anonymous": false,
      "inputs": [
        {
          "indexed": true,
          "internalType": "uint256",
          "name": "strategyId",
          "type": "uint256"
        },
        {
          "indexed": false,
          "internalType": "uint256[]",
          "name": "newAllocations",
          "type": "uint256[]"
        }
      ],
      "name": "StrategyRebalanced",
      "type": "event"
    },
    {
      "anonymous": false,
      "inputs": [
        {
          "indexed": true,
          "internalType": "address",
          "name": "implementation",
          "type": "address"
        }
      ],
      "name": "Upgraded",
      "type": "event"
    },
    {
      "anonymous": false,
      "inputs": [
        {
          "indexed": true,
          "internalType": "uint256",
          "name": "strategyId",
          "type": "uint256"
        },
        {
          "indexed": true,
          "internalType": "address",
          "name": "user",
          "type": "address"
        },
        {
          "indexed": false,
          "internalType": "uint256",
          "name": "shares",
          "type": "uint256"
        },
        {
          "indexed": false,
          "internalType": "uint256",
          "name": "amount",
          "type": "uint256"
        }
      ],
      "name": "Withdraw",
      "type": "event"
    },
    {
      "inputs": [],
      "name": "UPGRADE_INTERFACE_VERSION",
      "outputs": [
        {
          "internalType": "string",
          "name": "",
          "type": "string"
        }
      ],
      "stateMutability": "view",
      "type": "function"
    },
    {
      "inputs": [],
      "name": "agriCreditToken",
      "outputs": [
        {
          "internalType": "contract IERC20",
          "name": "",
          "type": "address"
        }
      ],
      "stateMutability": "view",
      "type": "function"
    },
    {
      "inputs": [
        {
          "internalType": "uint256",
          "name": "",
          "type": "uint256"
        }
      ],
      "name": "aiYieldPredictions",
      "outputs": [
        {
          "internalType": "uint256",
          "name": "strategyId",
          "type": "uint256"
        },
        {
          "internalType": "uint256",
          "name": "predictedAPY",
          "type": "uint256"
        },
        {
          "internalType": "uint256",
          "name": "confidenceScore",
          "type": "uint256"
        },
        {
          "internalType": "uint256",
          "name": "recommendedAllocation",
          "type": "uint256"
        },
        {
          "internalType": "uint256",
          "name": "timestamp",
          "type": "uint256"
        }
      ],
      "stateMutability": "view",
      "type": "function"
    },
    {
      "inputs": [
        {
          "internalType": "uint256",
          "name": "_strategyId",
          "type": "uint256"
        }
      ],
      "name": "autoCompound",
      "outputs": [],
      "stateMutability": "nonpayable",
      "type": "function"
    },
    {
      "inputs": [
        {
          "internalType": "uint256",
          "name": "_strategyId",
          "type": "uint256"
        },
        {
          "internalType": "address",
          "name": "_user",
          "type": "address"
        }
      ],
      "name": "canWithdraw",
      "outputs": [
        {
          "internalType": "bool",
          "name": "",
          "type": "bool"
        }
      ],
      "stateMutability": "view",
      "type": "function"
    },
    {
      "inputs": [
        {
          "internalType": "uint256",
          "name": "_positionIndex",
          "type": "uint256"
        },
        {
          "internalType": "bytes",
          "name": "_proof",
          "type": "bytes"
        }
      ],
      "name": "claimCrossChainRewards",
      "outputs": [],
      "stateMutability": "nonpayable",
      "type": "function"
    },
    {
      "inputs": [
        {
          "internalType": "uint256",
          "name": "_strategyId",
          "type": "uint256"
        }
      ],
      "name": "claimRewards",
      "outputs": [],
      "stateMutability": "nonpayable",
      "type": "function"
    },
    {
      "inputs": [],
      "name": "compoundGasLimit",
      "outputs": [
        {
          "internalType": "uint256",
          "name": "",
          "type": "uint256"
        }
      ],
      "stateMutability": "view",
      "type": "function"
    },
    {
      "inputs": [
        {
          "internalType": "uint256",
          "name": "_sourceChainId",
          "type": "uint256"
        },
        {
          "internalType": "uint256",
          "name": "_strategyId",
          "type": "uint256"
        },
        {
          "internalType": "uint256",
          "name": "_amount",
          "type": "uint256"
        }
      ],
      "name": "createCrossChainPosition",
      "outputs": [
        {
          "internalType": "uint256",
          "name": "",
          "type": "uint256"
        }
      ],
      "stateMutability": "payable",
      "type": "function"
    },
    {
      "inputs": [
        {
          "internalType": "string",
          "name": "_name",
          "type": "string"
        },
        {
          "internalType": "string",
          "name": "_description",
          "type": "string"
        },
        {
          "internalType": "uint256[]",
          "name": "_allocationPercentages",
          "type": "uint256[]"
        },
        {
          "internalType": "address[]",
          "name": "_protocols",
          "type": "address[]"
        },
        {
          "internalType": "uint256",
          "name": "_minDeposit",
          "type": "uint256"
        },
        {
          "internalType": "uint256",
          "name": "_lockPeriod",
          "type": "uint256"
        },
        {
          "internalType": "uint256",
          "name": "_apy",
          "type": "uint256"
        }
      ],
      "name": "createStrategy",
      "outputs": [
        {
          "internalType": "uint256",
          "name": "",
          "type": "uint256"
        }
      ],
      "stateMutability": "nonpayable",
      "type": "function"
    },
    {
      "inputs": [
        {
          "internalType": "address",
          "name": "",
          "type": "address"
        },
        {
          "internalType": "uint256",
          "name": "",
          "type": "uint256"
        }
      ],
      "name": "crossChainPositions",
      "outputs": [
        {
          "internalType": "uint256",
          "name": "sourceChainId",
          "type": "uint256"
        },
        {
          "internalType": "uint256",
          "name": "strategyId",
          "type": "uint256"
        },
        {
          "internalType": "uint256",
          "name": "shares",
          "type": "uint256"
        },
        {
          "internalType": "uint256",
          "name": "depositAmount",
          "type": "uint256"
        },
        {
          "internalType": "bytes32",
          "name": "bridgeTxHash",
          "type": "bytes32"
        },
        {
          "internalType": "bool",
          "name": "active",
          "type": "bool"
        }
      ],
      "stateMutability": "view",
      "type": "function"
    },
    {
      "inputs": [],
      "name": "decentralizedOracle",
      "outputs": [
        {
          "internalType": "contract DecentralizedOracle",
          "name": "",
          "type": "address"
        }
      ],
      "stateMutability": "view",
      "type": "function"
    },
    {
      "inputs": [
        {
          "internalType": "uint256",
          "name": "_strategyId",
          "type": "uint256"
        },
        {
          "internalType": "uint256",
          "name": "_amount",
          "type": "uint256"
        },
        {
          "internalType": "bool",
          "name": "_autoCompound",
          "type": "bool"
        }
      ],
      "name": "deposit",
      "outputs": [],
      "stateMutability": "nonpayable",
      "type": "function"
    },
    {
      "inputs": [
        {
          "internalType": "uint256",
          "name": "_strategyId",
          "type": "uint256"
        },
        {
          "internalType": "address",
          "name": "_user",
          "type": "address"
        }
      ],
      "name": "emergencyWithdraw",
      "outputs": [],
      "stateMutability": "nonpayable",
      "type": "function"
    },
    {
      "inputs": [
        {
          "internalType": "uint256",
          "name": "_strategyId",
          "type": "uint256"
        }
      ],
      "name": "getAIYieldPrediction",
      "outputs": [
        {
          "components": [
            {
              "internalType": "uint256",
              "name": "strategyId",
              "type": "uint256"
            },
            {
              "internalType": "uint256",
              "name": "predictedAPY",
              "type": "uint256"
            },
            {
              "internalType": "uint256",
              "name": "confidenceScore",
              "type": "uint256"
            },
            {
              "internalType": "uint256",
              "name": "recommendedAllocation",
              "type": "uint256"
            },
            {
              "internalType": "uint256",
              "name": "timestamp",
              "type": "uint256"
            }
          ],
          "internalType": "struct YieldVault.AIYieldPrediction",
          "name": "",
          "type": "tuple"
        }
      ],
      "stateMutability": "view",
      "type": "function"
    },
    {
      "inputs": [
        {
          "internalType": "address",
          "name": "_user",
          "type": "address"
        }
      ],
      "name": "getAutoCompoundSettings",
      "outputs": [
        {
          "components": [
            {
              "internalType": "uint256",
              "name": "minRewardThreshold",
              "type": "uint256"
            },
            {
              "internalType": "uint256",
              "name": "maxSlippage",
              "type": "uint256"
            },
            {
              "internalType": "uint256",
              "name": "compoundFrequency",
              "type": "uint256"
            },
            {
              "internalType": "bool",
              "name": "reinvestRewards",
              "type": "bool"
            }
          ],
          "internalType": "struct YieldVault.AutoCompoundSettings",
          "name": "",
          "type": "tuple"
        }
      ],
      "stateMutability": "view",
      "type": "function"
    },
    {
      "inputs": [
        {
          "internalType": "address",
          "name": "_user",
          "type": "address"
        }
      ],
      "name": "getCrossChainPositions",
      "outputs": [
        {
          "components": [
            {
              "internalType": "uint256",
              "name": "sourceChainId",
              "type": "uint256"
            },
            {
              "internalType": "uint256",
              "name": "strategyId",
              "type": "uint256"
            },
            {
              "internalType": "uint256",
              "name": "shares",
              "type": "uint256"
            },
            {
              "internalType": "uint256",
              "name": "depositAmount",
              "type": "uint256"
            },
            {
              "internalType": "bytes32",
              "name": "bridgeTxHash",
              "type": "bytes32"
            },
            {
              "internalType": "bool",
              "name": "active",
              "type": "bool"
            }
          ],
          "internalType": "struct YieldVault.CrossChainPosition[]",
          "name": "",
          "type": "tuple[]"
        }
      ],
      "stateMutability": "view",
      "type": "function"
    },
    {
      "inputs": [
        {
          "internalType": "uint256",
          "name": "_strategyId",
          "type": "uint256"
        }
      ],
      "name": "getStrategyAllocations",
      "outputs": [
        {
          "internalType": "address[]",
          "name": "protocols",
          "type": "address[]"
        },
        {
          "internalType": "uint256[]",
          "name": "percentages",
          "type": "uint256[]"
        }
      ],
      "stateMutability": "view",
      "type": "function"
    },
    {
      "inputs": [
        {
          "internalType": "uint256",
          "name": "_strategyId",
          "type": "uint256"
        }
      ],
      "name": "getStrategyInfo",
      "outputs": [
        {
          "internalType": "string",
          "name": "name",
          "type": "string"
        },
        {
          "internalType": "string",
          "name": "description",
          "type": "string"
        },
        {
          "internalType": "uint256",
          "name": "totalDeposits",
          "type": "uint256"
        },
        {
          "internalType": "uint256",
          "name": "totalShares",
          "type": "uint256"
        },
        {
          "internalType": "uint256",
          "name": "apy",
          "type": "uint256"
        },
        {
          "internalType": "bool",
          "name": "active",
          "type": "bool"
        }
      ],
      "stateMutability": "view",
      "type": "function"
    },
    {
      "inputs": [
        {
          "internalType": "uint256",
          "name": "_strategyId",
          "type": "uint256"
        },
        {
          "internalType": "address",
          "name": "_user",
          "type": "address"
        }
      ],
      "name": "getUserPosition",
      "outputs": [
        {
          "internalType": "uint256",
          "name": "shares",
          "type": "uint256"
        },
        {
          "internalType": "uint256",
          "name": "depositAmount",
          "type": "uint256"
        },
        {
          "internalType": "uint256",
          "name": "depositTime",
          "type": "uint256"
        },
        {
          "internalType": "uint256",
          "name": "lockExpiry",
          "type": "uint256"
        },
        {
          "internalType": "uint256",
          "name": "pendingRewards",
          "type": "uint256"
        },
        {
          "internalType": "bool",
          "name": "autoCompound",
          "type": "bool"
        }
      ],
      "stateMutability": "view",
      "type": "function"
    },
    {
      "inputs": [
        {
          "internalType": "address",
          "name": "_liquidityPool",
          "type": "address"
        },
        {
          "internalType": "address",
          "name": "_yieldToken",
          "type": "address"
        },
        {
          "internalType": "address",
          "name": "_agriCreditToken",
          "type": "address"
        },
        {
          "internalType": "address",
          "name": "_decentralizedOracle",
          "type": "address"
        }
      ],
      "name": "initialize",
      "outputs": [],
      "stateMutability": "nonpayable",
      "type": "function"
    },
    {
      "inputs": [],
      "name": "lastGlobalCompound",
      "outputs": [
        {
          "internalType": "uint256",
          "name": "",
          "type": "uint256"
        }
      ],
      "stateMutability": "view",
      "type": "function"
    },
    {
      "inputs": [],
      "name": "liquidityPool",
      "outputs": [
        {
          "internalType": "contract LiquidityPool",
          "name": "",
          "type": "address"
        }
      ],
      "stateMutability": "view",
      "type": "function"
    },
    {
      "inputs": [],
      "name": "maxStrategiesPerUser",
      "outputs": [
        {
          "internalType": "uint256",
          "name": "",
          "type": "uint256"
        }
      ],
      "stateMutability": "view",
      "type": "function"
    },
    {
      "inputs": [],
      "name": "minDepositAmount",
      "outputs": [
        {
          "internalType": "uint256",
          "name": "",
          "type": "uint256"
        }
      ],
      "stateMutability": "view",
      "type": "function"
    },
    {
      "inputs": [],
      "name": "nextStrategyId",
      "outputs": [
        {
          "internalType": "uint256",
          "name": "",
          "type": "uint256"
        }
      ],
      "stateMutability": "view",
      "type": "function"
    },
    {
      "inputs": [],
      "name": "owner",
      "outputs": [
        {
          "internalType": "address",
          "name": "",
          "type": "address"
        }
      ],
      "stateMutability": "view",
      "type": "function"
    },
    {
      "inputs": [],
      "name": "performanceFee",
      "outputs": [
        {
          "internalType": "uint256",
          "name": "",
          "type": "uint256"
        }
      ],
      "stateMutability": "view",
      "type": "function"
    },
    {
      "inputs": [
        {
          "internalType": "uint256",
          "name": "_strategyId",
          "type": "uint256"
        }
      ],
      "name": "predictYieldWithAI",
      "outputs": [
        {
          "internalType": "uint256",
          "name": "predictedAPY",
          "type": "uint256"
        },
        {
          "internalType": "uint256",
          "name": "confidenceScore",
          "type": "uint256"
        },
        {
          "internalType": "uint256",
          "name": "recommendedAllocation",
          "type": "uint256"
        }
      ],
      "stateMutability": "nonpayable",
      "type": "function"
    },
    {
      "inputs": [],
      "name": "proxiableUUID",
      "outputs": [
        {
          "internalType": "bytes32",
          "name": "",
          "type": "bytes32"
        }
      ],
      "stateMutability": "view",
      "type": "function"
    },
    {
      "inputs": [],
      "name": "rebalanceCooldown",
      "outputs": [
        {
          "internalType": "uint256",
          "name": "",
          "type": "uint256"
        }
      ],
      "stateMutability": "view",
      "type": "function"
    },
    {
      "inputs": [],
      "name": "renounceOwnership",
      "outputs": [],
      "stateMutability": "nonpayable",
      "type": "function"
    },
    {
      "inputs": [
        {
          "internalType": "uint256",
          "name": "_strategyId",
          "type": "uint256"
        },
        {
          "internalType": "bool",
          "name": "_active",
          "type": "bool"
        }
      ],
      "name": "setStrategyStatus",
      "outputs": [],
      "stateMutability": "nonpayable",
      "type": "function"
    },
    {
      "inputs": [],
      "name": "totalValueLocked",
      "outputs": [
        {
          "internalType": "uint256",
          "name": "",
          "type": "uint256"
        }
      ],
      "stateMutability": "view",
      "type": "function"
    },
    {
      "inputs": [
        {
          "internalType": "address",
          "name": "newOwner",
          "type": "address"
        }
      ],
      "name": "transferOwnership",
      "outputs": [],
      "stateMutability": "nonpayable",
      "type": "function"
    },
    {
      "inputs": [],
      "name": "triggerGlobalAutoCompound",
      "outputs": [],
      "stateMutability": "nonpayable",
      "type": "function"
    },
    {
      "inputs": [
        {
          "internalType": "uint256",
          "name": "_minRewardThreshold",
          "type": "uint256"
        },
        {
          "internalType": "uint256",
          "name": "_maxSlippage",
          "type": "uint256"
        },
        {
          "internalType": "uint256",
          "name": "_compoundFrequency",
          "type": "uint256"
        },
        {
          "internalType": "bool",
          "name": "_reinvestRewards",
          "type": "bool"
        }
      ],
      "name": "updateAutoCompoundSettings",
      "outputs": [],
      "stateMutability": "nonpayable",
      "type": "function"
    },
    {
      "inputs": [
        {
          "internalType": "uint256",
          "name": "_strategyId",
          "type": "uint256"
        },
        {
          "internalType": "uint256",
          "name": "_newAPY",
          "type": "uint256"
        }
      ],
      "name": "updateStrategyAPY",
      "outputs": [],
      "stateMutability": "nonpayable",
      "type": "function"
    },
    {
      "inputs": [
        {
          "internalType": "uint256",
          "name": "_strategyId",
          "type": "uint256"
        },
        {
          "internalType": "uint256[]",
          "name": "_newAllocations",
          "type": "uint256[]"
        }
      ],
      "name": "updateStrategyAllocations",
      "outputs": [],
      "stateMutability": "nonpayable",
      "type": "function"
    },
    {
      "inputs": [
        {
          "internalType": "uint256",
          "name": "_performanceFee",
          "type": "uint256"
        },
        {
          "internalType": "uint256",
          "name": "_minDepositAmount",
          "type": "uint256"
        },
        {
          "internalType": "uint256",
          "name": "_rebalanceCooldown",
          "type": "uint256"
        },
        {
          "internalType": "uint256",
          "name": "_maxStrategiesPerUser",
          "type": "uint256"
        }
      ],
      "name": "updateVaultParameters",
      "outputs": [],
      "stateMutability": "nonpayable",
      "type": "function"
    },
    {
      "inputs": [
        {
          "internalType": "address",
          "name": "newImplementation",
          "type": "address"
        },
        {
          "internalType": "bytes",
          "name": "data",
          "type": "bytes"
        }
      ],
      "name": "upgradeToAndCall",
      "outputs": [],
      "stateMutability": "payable",
      "type": "function"
    },
    {
      "inputs": [
        {
          "internalType": "address",
          "name": "",
          "type": "address"
        }
      ],
      "name": "userAutoCompoundSettings",
      "outputs": [
        {
          "internalType": "uint256",
          "name": "minRewardThreshold",
          "type": "uint256"
        },
        {
          "internalType": "uint256",
          "name": "maxSlippage",
          "type": "uint256"
        },
        {
          "internalType": "uint256",
          "name": "compoundFrequency",
          "type": "uint256"
        },
        {
          "internalType": "bool",
          "name": "reinvestRewards",
          "type": "bool"
        }
      ],
      "stateMutability": "view",
      "type": "function"
    },
    {
      "inputs": [
        {
          "internalType": "uint256",
          "name": "",
          "type": "uint256"
        },
        {
          "internalType": "address",
          "name": "",
          "type": "address"
        }
      ],
      "name": "userPositions",
      "outputs": [
        {
          "internalType": "uint256",
          "name": "shares",
          "type": "uint256"
        },
        {
          "internalType": "uint256",
          "name": "depositAmount",
          "type": "uint256"
        },
        {
          "internalType": "uint256",
          "name": "depositTime",
          "type": "uint256"
        },
        {
          "internalType": "uint256",
          "name": "lastClaimTime",
          "type": "uint256"
        },
        {
          "internalType": "uint256",
          "name": "accumulatedRewards",
          "type": "uint256"
        },
        {
          "internalType": "uint256",
          "name": "lockExpiry",
          "type": "uint256"
        },
        {
          "internalType": "bool",
          "name": "autoCompound",
          "type": "bool"
        }
      ],
      "stateMutability": "view",
      "type": "function"
    },
    {
      "inputs": [
        {
          "internalType": "uint256",
          "name": "",
          "type": "uint256"
        }
      ],
      "name": "vaultStrategies",
      "outputs": [
        {
          "internalType": "uint256",
          "name": "id",
          "type": "uint256"
        },
        {
          "internalType": "string",
          "name": "name",
          "type": "string"
        },
        {
          "internalType": "string",
          "name": "description",
          "type": "string"
        },
        {
          "internalType": "uint256",
          "name": "minDeposit",
          "type": "uint256"
        },
        {
          "internalType": "uint256",
          "name": "lockPeriod",
          "type": "uint256"
        },
        {
          "internalType": "uint256",
          "name": "performanceFee",
          "type": "uint256"
        },
        {
          "internalType": "uint256",
          "name": "totalDeposits",
          "type": "uint256"
        },
        {
          "internalType": "uint256",
          "name": "totalShares",
          "type": "uint256"
        },
        {
          "internalType": "bool",
          "name": "active",
          "type": "bool"
        },
        {
          "internalType": "uint256",
          "name": "apy",
          "type": "uint256"
        },
        {
          "internalType": "uint256",
          "name": "lastRebalance",
          "type": "uint256"
        }
      ],
      "stateMutability": "view",
      "type": "function"
    },
    {
      "inputs": [
        {
          "internalType": "uint256",
          "name": "_strategyId",
          "type": "uint256"
        },
        {
          "internalType": "uint256",
          "name": "_shares",
          "type": "uint256"
        }
      ],
      "name": "withdraw",
      "outputs": [],
      "stateMutability": "nonpayable",
      "type": "function"
    },
    {
      "inputs": [],
      "name": "yieldToken",
      "outputs": [
        {
          "internalType": "contract YieldToken",
          "name": "",
          "type": "address"
        }
      ],
      "stateMutability": "view",
      "type": "function"
    }
  ],
  "bytecode": "0x60a0806040523460515730608052600180556107d0600b55678ac7230489e80000600c55610e10600d556005600e556207a120600f556136cb90816100578239608051818181611d450152611dd90152f35b600080fdfe6080604052600436101561001257600080fd5b60003560e01c80630962ef79146128f0578063185f8447146128d25780632f940c701461277757806337d303301461271f5780633ea01b5d1461266f57806343a0d0661461231e578063441a3e70146120ad57806345b88245146120005780634cfc4ac814611f9f5780634f1ef28614611d9c57806352d1902d14611d325780635bcf461714611b3f5780635da4b9e914611abc5780635e2f5b1f14611981578063645006ca14611963578063665a11ca1461193a5780636ef56f761461186b578063715018a614611801578063724c5d70146117d457806376d5de85146117ab5780638305b8c414611782578063869da9db146116b357806387788782146116955780638ae907f0146116095780638da5cb5b146115d35780638df7ca04146115aa57806391097e99146114245780639393f26c1461123f57806394d587981461122157806396a2ed4314611046578063a33cba6c14611013578063ad3cb1cc14610fcc578063ae4e9e9814610d2b578063ae73ae3414610c9b578063af2fb08f14610bf3578063b144831e14610bd5578063b3de272d14610bb7578063bd6cd28214610b41578063caaee8b714610b23578063db089e7914610a8f578063e412f4c1146109fb578063ec18154e146109dd578063f2fde38b146109b4578063f6b420ca14610965578063f8ab28051461042c5763f8c8765e1461021657600080fd5b346104275760803660031901126104275761022f612bb5565b610237612b9f565b6044356001600160a01b03811690819003610427576064356001600160a01b038116929083900361042757600080516020613676833981519152549360ff8560401c1615946001600160401b0381168015908161041f575b6001149081610415575b15908161040c575b506103fb5767ffffffffffffffff19811660011760008051602061367683398151915255856103ce575b506102d4613586565b6102dc613586565b6102e533613134565b6102ed613586565b6102f5613586565b60016000805160206136568339815191525561030f613586565b60018060a01b03166001600160601b0360a01b600454161760045560018060a01b03166001600160601b0360a01b60055416176005556001600160601b0360a01b60065416176006556001600160601b0360a01b60075416176007554260105561037557005b68ff0000000000000000196000805160206136768339815191525416600080516020613676833981519152557fc7f505b2f371ae2175ee4913f4499e1f2633a7b5936321eed1cdaeb6115181d2602060405160018152a1005b68ffffffffffffffffff1916680100000000000000011760008051602061367683398151915255386102cb565b63f92ee8a960e01b60005260046000fd5b905015386102a1565b303b159150610299565b87915061028f565b600080fd5b346104275760e0366003190112610427576004356001600160401b0381116104275761045c903690600401612c89565b6024356001600160401b0381116104275761047b903690600401612c89565b906044356001600160401b0381116104275761049b903690600401612e04565b916064356001600160401b0381116104275736602382011215610427578060040135926104c784612ded565b916104d56040519384612c4d565b84835260208301906024829660051b8201019036821161042757602401915b8183106109455750505060c435610509613369565b855183510361090c578551156108c757600093845b87518610156105465761053e600191610537888b612ffb565b5190612f47565b95019461051e565b8794955061055861271088921461300f565b6001549461056586612fae565b6001558560005260006020526040600020928684556001840186516001600160401b03811161074e576105988254612cce565b601f8111610895575b50806020601f821160011461083057600091610825575b508160011b916000199060031b1c19161790555b805160028501916001600160401b03821161074e5781906105ed8454612cce565b601f81116107e8575b50602090601f831160011461078357600092610778575b50508160011b916000199060031b1c19161790555b600383018151916001600160401b03831161074e57600160401b831161074e5760209061065484845481865585613072565b0190600052602060002060005b8381106107645750505050600482019551906001600160401b03821161074e57600160401b821161074e5761069b828854818a5589613072565b9560005260206000209560005b82811061073157602087807fc36c6585acff57ff1d4c48ce7ed833464e6b39cc3566a21b3c74f017be2122596107218a8a8a608435600582015560a4356006820155600b546007820155600a8101600160ff1982541617905581600b820155600c42910155604051928392604084526040840190612dac565b90878301520390a2604051908152f35b81516001600160a01b0316818901556020909101906001016106a8565b634e487b7160e01b600052604160045260246000fd5b600190602084519401938184015501610661565b015190508a8061060d565b60008581528281209350601f198516905b8181106107d057509084600195949392106107b7575b505050811b019055610622565b015160001960f88460031b161c191690558a80806107aa565b92936020600181928786015181550195019301610794565b61081590856000526020600020601f850160051c8101916020861061081b575b601f0160051c019061305b565b8b6105f6565b9091508190610808565b90508801518b6105b8565b60008481528181209250601f198416905b8b82821061087d5750509083600194939210610864575b5050811b0190556105cc565b8a015160001960f88460031b161c191690558b80610858565b60018495602093958493015181550194019201610841565b6108c190836000526020600020601f840160051c8101916020851061081b57601f0160051c019061305b565b8a6105a1565b60405162461bcd60e51b815260206004820152601760248201527f4e6f20616c6c6f636174696f6e732070726f76696465640000000000000000006044820152606490fd5b60405162461bcd60e51b81526020600482015260116024820152704d69736d6174636865642061727261797360781b6044820152606490fd5b82356001600160a01b0381168103610427578152602092830192016104f4565b34610427576040366003190112610427576024358015158103610427576109b29061098e613369565b6004356000526000602052600a6040600020019060ff801983541691151516179055565b005b34610427576020366003190112610427576109b26109d0612bb5565b6109d8613369565b613134565b34610427576000366003190112610427576020600a54604051908152f35b346104275760203660031901126104275760043560005260006020526040600020610a346003610a2d60048401613095565b92016130e9565b604051906040820160408352835180915260206060840194019060005b818110610a70578480610a6c88878382036020850152612e93565b0390f35b82516001600160a01b0316865260209586019590920191600101610a51565b34610427576020366003190112610427576004356000526000602052610afa604060002060088101546009820154600b83015460ff600a8501541691610b08610ae66002610adf60018901612d08565b9701612d08565b60405197889760c0895260c0890190612dac565b908782036020890152612dac565b93604086015260608501526080840152151560a08301520390f35b34610427576000366003190112610427576020600f54604051908152f35b3461042757600036600319011261042757601054610e108101809111610ba1574210610b6d5742601055005b60405162461bcd60e51b815260206004820152600c60248201526b151bdbc8199c995c5d595b9d60a21b6044820152606490fd5b634e487b7160e01b600052601160045260246000fd5b34610427576000366003190112610427576020600d54604051908152f35b34610427576000366003190112610427576020600e54604051908152f35b3461042757602036600319011261042757610c0c612bb5565b60006060604051610c1c81612c32565b828152826020820152826040820152015260018060a01b0316600052600360205260806040600020604051610c5081612c32565b815491828252600181015460208301908152606060ff600360028501549460408701958652015416930192151583526040519384525160208401525160408301525115156060820152f35b3461042757604036600319011261042757610cb4612bb5565b6001600160a01b03166000908152600960205260409020805460243591908210156104275760c091610ce591612e61565b50805490600181015490600281015460038201549060ff6005600485015494015416936040519586526020860152604085015260608401526080830152151560a0820152f35b34610427576020366003190112610427576004356000818152600260209081526040808320338452825280832060039092529182902091519291610d6e84612c32565b805484526001810154602085015260ff6003600283015492604087019384520154169160608501921515835260ff60068201541615610f8757600381610db9610dc593541515612ec7565b01918254905190612f47565b4210610f4a57610dd4836131e6565b93518410610f0557826000526000602052610e12610dfa60096040600020015486612f07565b84600052600060205260086040600020015490612f1a565b9151610e4f575b42905560405192835260208301527f8322b56e0fa7b9649f70cf57a700e3de81c1080dccab71ad8117f4cef2d6a3a660403393a3005b82600052600260205260408060002060009060018060a01b033316825260205220836000526000602052610ee560406000209160098301926004610ea46008610e9987548c612f07565b930192835490612f1a565b92610eb0848254612f47565b815560018101610ec18b8254612f47565b905501610ecf898254612f47565b9055610edc888254612f47565b90558254612f47565b9055610ef384600a54612f47565b600a55610f0084846133f5565b610e19565b60405162461bcd60e51b815260206004820152601760248201527f526577617264732062656c6f77207468726573686f6c640000000000000000006044820152606490fd5b60405162461bcd60e51b815260206004820152601560248201527410dbdb5c1bdd5b99081d1bdbc8199c995c5d595b9d605a1b6044820152606490fd5b60405162461bcd60e51b815260206004820152601960248201527f4175746f2d636f6d706f756e64206e6f7420656e61626c6564000000000000006044820152606490fd5b3461042757600036600319011261042757610a6c6040805190610fef8183612c4d565b60058252640352e302e360dc1b602083015251918291602083526020830190612dac565b346104275760803660031901126104275761102c613369565b600435600b55602435600c55604435600d55606435600e55005b34610427576040366003190112610427576004356024356001600160401b03811161042757611079903690600401612e04565b611081613369565b8160005260006020526040600020906110a060ff600a84015416612f6c565b600c8201926110b38454600d5490612f47565b42106111dc57815160048401540361119757600093845b83518610156110eb576110e36001916105378887612ffb565b9501946110ca565b936110fd61271060039394961461300f565b018251906001600160401b03821161074e57600160401b821161074e5761112982825481845583613072565b6020840190600052602060002060005b83811061118357867f6e0d404bd927802218469f3a00743e9379a78d5781f7a314e61c59dae2cf7d7461117e8888429055604051918291602083526020830190612e93565b0390a2005b600190602084519401938184015501611139565b60405162461bcd60e51b815260206004820152601960248201527f496e76616c696420616c6c6f636174696f6e206c656e677468000000000000006044820152606490fd5b60405162461bcd60e51b815260206004820152601960248201527f526562616c616e636520636f6f6c646f776e20616374697665000000000000006044820152606490fd5b34610427576000366003190112610427576020601054604051908152f35b34610427576020366003190112610427576112f6600435806000526000602052606060018060a01b0360075416604051906873747261746567795f60b81b60208301528360298301526517de5a595b1960d21b6049830152602f82526112a6604f83612c4d565b60405180809681946352ee0b7760e01b835260056004840152866024840152601060648401526f3cb4b2b6322fb83932b234b1ba34b7b760811b608484015260a0604484015260a4830190612dac565b03915afa918215611418576000926113e1575b50610a6c620186a0830691612711629896806065620186a08704069504069060405161133481612bfc565b8181526004602082018681526040830188815260608401908682526080850192428452866000526008602052604060002095518655516001860155516002850155516003840155519101557fa778758000079ea7a10de3f40979e45635780e3d8cbcf7c6edeffff8789ce07a604051806113c1858989846040919493926060820195825260208201520152565b0390a2604051938493846040919493926060820195825260208201520152565b90916060823d606011611410575b816113fc60609383612c4d565b8101031261140d5750519082611309565b80fd5b3d91506113ef565b6040513d6000823e3d90fd5b34610427576040366003190112610427576004356024356001600160401b03811161042757611457903690600401612c89565b61145f6131aa565b336000526009602052611476826040600020612e61565b50600581019081549260ff84161561156f57511561153a5780600160036114b39301549101546000526000602052600b6040600020015490612f07565b601e810290808204601e1490151715610ba1576237b1d090049160ff191690558060008115611531575b600080809381933390f1156114185760405191825260208201527f50f62eda188cd7c3ee64b32d78b18190f8f441f0c4e6f375a1018fef41269efe60403392a2600160008051602061365683398151915255005b506108fc6114dd565b60405162461bcd60e51b815260206004820152600d60248201526c24b73b30b634b210383937b7b360991b6044820152606490fd5b60405162461bcd60e51b8152602060048201526013602482015272506f736974696f6e206e6f742061637469766560681b6044820152606490fd5b34610427576000366003190112610427576006546040516001600160a01b039091168152602090f35b3461042757600036600319011261042757600080516020613616833981519152546040516001600160a01b039091168152602090f35b346104275760403660031901126104275760e06040611626612b9f565b60043560005260026020528160002060009160018060a01b03168252602052208054906001810154906002810154600382015460048301549160ff600660058601549501541694604051968752602087015260408601526060850152608084015260a0830152151560c0820152f35b34610427576000366003190112610427576020600b54604051908152f35b346104275760403660031901126104275760c060043560406116d3612b9f565b8260005260026020528160002060009160018060a01b03168252602052206040516116fd81612be1565b815481526001820154926020820193845260028301549260408301938452600381015460608401526004810154608084015261175460ff600660058401549360a087019485520154169287850193151584526131e6565b92519451935190519151151593604051958652602086015260408501526060840152608083015260a0820152f35b34610427576000366003190112610427576007546040516001600160a01b039091168152602090f35b34610427576000366003190112610427576005546040516001600160a01b039091168152602090f35b34610427576117e236612bcb565b906117eb613369565b6000526000602052600b60406000200155600080f35b346104275760003660031901126104275761181a613369565b60008051602061361683398151915280546001600160a01b031981169091556000906001600160a01b03167f8be0079c531659141344cd1fd0a4f28419497f9722a3daafe3b4186f6b6457e08280a3005b346104275760203660031901126104275760043560005260006020526020604060002080549061189d60018201612d08565b6118a960028301612d08565b916005810154926006820154600783015460088401549060098501549261190860ff600a88015416956118fa600c600b8a0154990154996101606040519e8f9e8f90815201526101608d0190612dac565b908b820360408d0152612dac565b9760608a0152608089015260a088015260c087015260e086015215156101008501526101208401526101408301520390f35b34610427576000366003190112610427576004546040516001600160a01b039091168152602090f35b34610427576000366003190112610427576020600c54604051908152f35b34610427576020366003190112610427576001600160a01b036119a2612bb5565b16600052600960205260406000208054906119bc82612ded565b916119ca6040519384612c4d565b80835260208301809260005260206000206000915b838310611a625784866040519182916020830190602084525180915260408301919060005b818110611a12575050500390f35b91935091602060c060019260a087518051835284810151858401526040810151604084015260608101516060840152608081015160808401520151151560a0820152019401910191849392611a04565b60066020600192604051611a7581612c17565b85548152848601548382015260028601546040820152600386015460608201526004860154608082015260ff600587015416151560a08201528152019201920191906119df565b3461042757608036600319011261042757606435801515809103610427576109b290600360405191611aed83612c32565b60043583526020830160243581526040840190604435825260608501928352336000528360205260406000209451855551600185015551600284015551151591019060ff801983541691151516179055565b606036600319011261042757600435602435604435803403611ced57816000526000602052604060002091611b7a60ff600a85015416612f6c565b60098301805480611ccf575082935b60405190611b9682612c17565b8682526020820184815260408301928784526060810190878252608081016000815260a08201906001825233600052600960205260406000208054600160401b81101561074e57611bec91600182018155612e61565b949094611cb957600897611c2e9660059551875551600187015551600286015551600385015551600484015551151591019060ff801983541691151516179055565b01611c3a848254612f47565b9055611c47848254612f47565b9055611c5582600a54612f47565b600a556040519384526020840152604083015260608201527fb461a0e703451d43a2b84c0c6800915a463c037b73e3bce30c3eba98b8c92ee060803392a23360005260096020526040600020546000198101908111610ba157602090604051908152f35b634e487b7160e01b600052600060045260246000fd5b611cdc611ce79185612f07565b600886015490612f1a565b93611b89565b60405162461bcd60e51b815260206004820152601860248201527f496e636f7272656374206465706f73697420616d6f756e7400000000000000006044820152606490fd5b34610427576000366003190112610427577f00000000000000000000000000000000000000000000000000000000000000006001600160a01b03163003611d8b5760206040516000805160206136368339815191528152f35b63703e46dd60e11b60005260046000fd5b604036600319011261042757611db0612bb5565b6024356001600160401b03811161042757611dcf903690600401612c89565b6001600160a01b037f000000000000000000000000000000000000000000000000000000000000000016308114908115611f7c575b50611d8b57611e11613369565b6040516352d1902d60e01b81526001600160a01b0383169290602081600481875afa60009181611f48575b50611e565783634c9c8ce360e01b60005260045260246000fd5b80600080516020613636833981519152859203611f345750813b15611f205760008051602061363683398151915280546001600160a01b031916821790557fbc7cd75a20ee27fd9adebab32041f755214dbc6bffa90cc0225b39da2e5c2d3b600080a2815115611f06576000808360206109b295519101845af43d15611efe573d91611ee183612c6e565b92611eef6040519485612c4d565b83523d6000602085013e6135b4565b6060916135b4565b505034611f0f57005b63b398979f60e01b60005260046000fd5b634c9c8ce360e01b60005260045260246000fd5b632a87526960e21b60005260045260246000fd5b9091506020813d602011611f74575b81611f6460209383612c4d565b8101031261042757519085611e3c565b3d9150611f57565b600080516020613636833981519152546001600160a01b03161415905083611e04565b34610427576020366003190112610427576001600160a01b03611fc0612bb5565b1660005260036020526080604060002080549060018101549060ff6003600283015492015416916040519384526020840152604083015215156060820152f35b34610427576020366003190112610427576000608060405161202181612bfc565b8281528260208201528260408201528260608201520152600435600052600860205260a0604060002060405161205681612bfc565b81549182825260018101546020830190815260028201549060408401918252608060046003850154946060870195865201549401938452604051948552516020850152516040840152516060830152516080820152f35b34610427576120bb36612bcb565b906120c46131aa565b60008181526002602090815260408083203384528252808320848452918390529091208154918483106122e357600581015442106122af5760016008830191612128876121226009612117875484612f07565b970196875490612f1a565b96612f3a565b815501612136848254612f3a565b9055612143838254612f3a565b9055612150848254612f3a565b905561215e81600a54612f3a565b600a55816000526000602052604060002060006004820190600382549301905b83811061224b57505060065460405163a9059cbb60e01b815233600482015260248101859052925060209150829060449082906000906001600160a01b03165af18015611418576121d79160009161221c575b50612fbd565b60405192835260208301527fb0ecf14e184effded5473bba77dcfab32b094b77ac1fbb36beec2aef5558797060403393a3600160008051602061365683398151915255005b61223e915060203d602011612244575b6122368183612c4d565b810190612f54565b856121d1565b503d61222c565b8061271061226b61225e6001948661339f565b90549060031b1c88612f07565b04612277575b0161217e565b612281818561339f565b838060a01b0391549060031b1c16828060a01b036004541614612271576122a8818561339f565b5050612271565b60405162461bcd60e51b815260206004820152600c60248201526b14dd1a5b1b081b1bd8dad95960a21b6044820152606490fd5b60405162461bcd60e51b8152602060048201526013602482015272496e73756666696369656e742073686172657360681b6044820152606490fd5b34610427576060366003190112610427576024356004356044358015158103610427576123496131aa565b81600052600060205260406000209061236860ff600a84015416612f6c565b60058201548410612632576006546040516370a0823160e01b81523360048201526001600160a01b0390911690602081602481855afa80156114185786916000916125fd575b50106125c15760018054339491600091905b818110612586575050600e54111561254b5760206000926064604051809581936323b872dd60e01b83523360048401523060248401528b60448401525af1918215611418576008926124199160009161252c5750612fbd565b61249260098201938454801560001461250b57506006604089975b89600052600260205281600020600091825260205220612455888254612f47565b8155600181016124668b8254612f47565b905542600282015561247b8286015442612f47565b6005820155019060ff801983541691151516179055565b0161249e858254612f47565b90556124ab828254612f47565b90556124b983600a54612f47565b600a556124c683836133f5565b60405192835260208301527fd36a2f67d06d285786f61a32b052b9ace6b0b7abef5177b54358abdc83a0b69b60403393a3600160008051602061365683398151915255005b604061252661251c6006938c612f07565b8787015490612f1a565b97612434565b612545915060203d602011612244576122368183612c4d565b886121d1565b60405162461bcd60e51b8152602060048201526013602482015272546f6f206d616e79207374726174656769657360681b6044820152606490fd5b80600052600260205260408060002060009089825260205220546125ad575b6001016123c0565b916125b9600191612fae565b9290506125a5565b60405162461bcd60e51b8152602060048201526014602482015273496e73756666696369656e742062616c616e636560601b6044820152606490fd5b9150506020813d60201161262a575b8161261960209383612c4d565b8101031261042757859051876123ae565b3d915061260c565b60405162461bcd60e51b81526020600482015260156024820152744465706f7369742062656c6f77206d696e696d756d60581b6044820152606490fd5b34610427576040366003190112610427576020604061268c612b9f565b6004356000908152600284528281206001600160a01b03909216815290835220604051906126b982612be1565b80549182815260018201548482015260028201546040820152600382015460608201526004820154608082015260c060ff60066005850154948560a086015201541615159101524210159081612715575b506040519015158152f35b905015158261270a565b3461042757602036600319011261042757600435600052600860205260a06040600020805490600181015490600281015460046003830154920154926040519485526020850152604084015260608301526080820152f35b34610427576040366003190112610427576128536020600435612798612b9f565b6127a0613369565b60008281526002845260408082206001600160a01b03841683528552808220938252818552812083549093906127d7901515612ec7565b816001820191825495600881016127ef888254612f3a565b9055612802600983549201918254612f3a565b905561281086600a54612f3a565b600a55555560065460405163a9059cbb60e01b81526001600160a01b03928316600482015260248101939093529193849290911690829060009082906044820190565b03925af1908115611418576000916128b3575b501561286e57005b60405162461bcd60e51b815260206004820152601960248201527f456d657267656e6379207472616e73666572206661696c6564000000000000006044820152606490fd5b6128cc915060203d602011612244576122368183612c4d565b81612866565b34610427576000366003190112610427576020600154604051908152f35b346104275760203660031901126104275760043561290c6131aa565b80600052600260205260408060002060009060018060a01b03331682526020522090806000526000602052604060002061294883541515612ec7565b612951826131e6565b908115612b645761271061296c600761297493015484612f07565b048092612f3a565b9260048101612984858254612f47565b905560034291015580612a7b575b5060065460405163a9059cbb60e01b81523360048201526024810184905290602090829060449082906000906001600160a01b03165af190811561141857600091612a5c575b5015612a1e576040519182527f3300bdb359cfb956935bca32e9db727413eab1ca84341f2e36caea85bb79696860203393a3600160008051602061365683398151915255005b60405162461bcd60e51b815260206004820152601660248201527514995dd85c99081d1c985b9cd9995c8819985a5b195960521b6044820152606490fd5b612a75915060203d602011612244576122368183612c4d565b836129d8565b6006546000805160206136168339815191525460405163a9059cbb60e01b81526001600160a01b039182166004820152602481018490529160209183916044918391600091165af190811561141857600091612b45575b5015612b0a577f27c911040371674ee220be22d1cf1a554a2f34e5bbb946f7b11d7d3a7c5b734c60208392604051908152a282612992565b60405162461bcd60e51b8152602060048201526013602482015272119959481d1c985b9cd9995c8819985a5b1959606a1b6044820152606490fd5b612b5e915060203d602011612244576122368183612c4d565b84612ad2565b60405162461bcd60e51b81526020600482015260136024820152724e6f207265776172647320746f20636c61696d60681b6044820152606490fd5b602435906001600160a01b038216820361042757565b600435906001600160a01b038216820361042757565b6040906003190112610427576004359060243590565b60e081019081106001600160401b0382111761074e57604052565b60a081019081106001600160401b0382111761074e57604052565b60c081019081106001600160401b0382111761074e57604052565b608081019081106001600160401b0382111761074e57604052565b90601f801991011681019081106001600160401b0382111761074e57604052565b6001600160401b03811161074e57601f01601f191660200190565b81601f8201121561042757602081359101612ca382612c6e565b92612cb16040519485612c4d565b828452828201116104275781600092602092838601378301015290565b90600182811c92168015612cfe575b6020831014612ce857565b634e487b7160e01b600052602260045260246000fd5b91607f1691612cdd565b9060405191826000825492612d1c84612cce565b8084529360018116908115612d8a5750600114612d43575b50612d4192500383612c4d565b565b90506000929192526020600020906000915b818310612d6e575050906020612d419282010138612d34565b6020919350806001915483858901015201910190918492612d55565b905060209250612d4194915060ff191682840152151560051b82010138612d34565b919082519283825260005b848110612dd8575050826000602080949584010152601f8019910116010190565b80602080928401015182828601015201612db7565b6001600160401b03811161074e5760051b60200190565b9080601f83011215610427578135612e1b81612ded565b92612e296040519485612c4d565b81845260208085019260051b82010192831161042757602001905b828210612e515750505090565b8135815260209182019101612e44565b8054821015612e7d576000526006602060002091020190600090565b634e487b7160e01b600052603260045260246000fd5b906020808351928381520192019060005b818110612eb15750505090565b8251845260209384019390920191600101612ea4565b15612ece57565b60405162461bcd60e51b8152602060048201526011602482015270139bc81c1bdcda5d1a5bdb88199bdd5b99607a1b6044820152606490fd5b81810292918115918404141715610ba157565b8115612f24570490565b634e487b7160e01b600052601260045260246000fd5b91908203918211610ba157565b91908201809211610ba157565b90816020910312610427575180151581036104275790565b15612f7357565b60405162461bcd60e51b81526020600482015260136024820152725374726174656779206e6f742061637469766560681b6044820152606490fd5b6000198114610ba15760010190565b15612fc457565b60405162461bcd60e51b815260206004820152600f60248201526e151c985b9cd9995c8819985a5b1959608a1b6044820152606490fd5b8051821015612e7d5760209160051b010190565b1561301657565b60405162461bcd60e51b815260206004820152601c60248201527f416c6c6f636174696f6e73206d7573742073756d20746f2031303025000000006044820152606490fd5b818110613066575050565b6000815560010161305b565b9181811061307f57505050565b612d41926000526020600020918201910161305b565b906040519182815491828252602082019060005260206000209260005b8181106130c7575050612d4192500383612c4d565b84546001600160a01b03168352600194850194879450602090930192016130b2565b906040519182815491828252602082019060005260206000209260005b81811061311b575050612d4192500383612c4d565b8454835260019485019487945060209093019201613106565b6001600160a01b031680156131945760008051602061361683398151915280546001600160a01b0319811683179091556001600160a01b03167f8be0079c531659141344cd1fd0a4f28419497f9722a3daafe3b4186f6b6457e0600080a3565b631e4fbdf760e01b600052600060045260246000fd5b600260008051602061365683398151915254146131d557600260008051602061365683398151915255565b633ee5aeb560e01b60005260046000fd5b6000818152600260209081526040808320338452909152908190209051919061320e83612be1565b80548352600181015491602084019283526002820154604085015260ff60066003840154936060870194855260048101546080880152600581015460a0880152015416151560c085015260005260006020526040600020926040516101a081018181106001600160401b0382111761074e576040528454815261329360018601612d08565b60208201526132a460028601612d08565b60408201526132b5600386016130e9565b60608201526132c660048601613095565b6080820152600585015460a0820152600685015460c0820152600785015460e08201526008850154610100820152600985015461012082015260ff600a860154161515610140820152610180600c600b8701549661016084019788520154910152511561336157613338905142612f3a565b8015613361576127106133576301e133809461335d9451905190612f07565b04612f07565b0490565b505050600090565b600080516020613616833981519152546001600160a01b0316330361338a57565b63118cdaa760e01b6000523360045260246000fd5b8054821015612e7d5760005260206000200190600090565b156133be57565b60405162461bcd60e51b815260206004820152600f60248201526e105c1c1c9bdd985b0819985a5b1959608a1b6044820152606490fd5b919091600052600060205260406000209160006003600485019401905b845481101561357f5761271061343861342b838561339f565b90549060031b1c85612f07565b04908161344a575b6001915001613412565b613454818761339f565b90546004546001600160a01b0390811660039390931b9190911c16036134f2576006546004805460405163095ea7b360e01b81526001600160a01b039182169281019290925260248201949094529260209184916044918391600091165af1918215611418576001926134cf916000916134d4575b506133b7565b613440565b6134ec915060203d8111612244576122368183612c4d565b386134c9565b6134fc818761339f565b90546005546001600160a01b039081169260031b9190911c168114613526575b5060019150613440565b60065460405163095ea7b360e01b81526001600160a01b039283166004820152602481019490945260209184916044918391600091165af191821561141857600192613579916000916134d457506133b7565b3861351c565b5050509050565b60ff6000805160206136768339815191525460401c16156135a357565b631afcd79f60e31b60005260046000fd5b906135da57508051156135c957602081519101fd5b63d6bda27560e01b60005260046000fd5b8151158061360c575b6135eb575090565b639996b31560e01b60009081526001600160a01b0391909116600452602490fd5b50803b156135e356fe9016d09d72d40fdae2fd8ceac6b6234c7706214fd39c1cd1e609a0528c199300360894a13ba1a3210667c828492db98dca3e2076cc3735a920a3ca505d382bbc9b779b17422d0df92223018b32b4d1fa46e071723d6817e2486d003becc55f00f0c57e16840df040f15088dc2f81fe391c3923bec73e23a9662efc9c229c6a00a2646970667358221220694b2c8060c7c4a1f20444558e4f43b3ebe441f049bdd3e1c315b7e351bd202364736f6c634300081c0033",
  "linkReferences": {},
  "deployedLinkReferences": {}
}