{
  "_format": "hh-sol-artifact-1",
  "contractName": "FarmShareToken",
  "sourceName": "contracts/NFTFarming.sol",
  "abi": [
    {
      "inputs": [
        {
          "internalType": "string",
          "name": "_name",
          "type": "string"
        },
        {
          "internalType": "string",
          "name": "_symbol",
          "type": "string"
        },
        {
          "internalType": "address",
          "name": "_farmNFT",
          "type": "address"
        },
        {
          "internalType": "uint256",
          "name": "_nftId",
          "type": "uint256"
        }
      ],
      "stateMutability": "nonpayable",
      "type": "constructor"
    },
    {
      "inputs": [],
      "name": "InvalidInitialization",
      "type": "error"
    },
    {
      "inputs": [],
      "name": "NotInitializing",
      "type": "error"
    },
    {
      "anonymous": false,
      "inputs": [
        {
          "indexed": true,
          "internalType": "address",
          "name": "owner",
          "type": "address"
        },
        {
          "indexed": true,
          "internalType": "address",
          "name": "spender",
          "type": "address"
        },
        {
          "indexed": false,
          "internalType": "uint256",
          "name": "value",
          "type": "uint256"
        }
      ],
      "name": "Approval",
      "type": "event"
    },
    {
      "anonymous": false,
      "inputs": [
        {
          "indexed": false,
          "internalType": "uint64",
          "name": "version",
          "type": "uint64"
        }
      ],
      "name": "Initialized",
      "type": "event"
    },
    {
      "anonymous": false,
      "inputs": [
        {
          "indexed": true,
          "internalType": "address",
          "name": "from",
          "type": "address"
        },
        {
          "indexed": true,
          "internalType": "address",
          "name": "to",
          "type": "address"
        },
        {
          "indexed": false,
          "internalType": "uint256",
          "name": "value",
          "type": "uint256"
        }
      ],
      "name": "Transfer",
      "type": "event"
    },
    {
      "inputs": [
        {
          "internalType": "address",
          "name": "",
          "type": "address"
        }
      ],
      "name": "_balances",
      "outputs": [
        {
          "internalType": "uint256",
          "name": "",
          "type": "uint256"
        }
      ],
      "stateMutability": "view",
      "type": "function"
    },
    {
      "inputs": [
        {
          "internalType": "address",
          "name": "",
          "type": "address"
        },
        {
          "internalType": "address",
          "name": "",
          "type": "address"
        }
      ],
      "name": "allowance",
      "outputs": [
        {
          "internalType": "uint256",
          "name": "",
          "type": "uint256"
        }
      ],
      "stateMutability": "view",
      "type": "function"
    },
    {
      "inputs": [
        {
          "internalType": "address",
          "name": "spender",
          "type": "address"
        },
        {
          "internalType": "uint256",
          "name": "amount",
          "type": "uint256"
        }
      ],
      "name": "approve",
      "outputs": [
        {
          "internalType": "bool",
          "name": "",
          "type": "bool"
        }
      ],
      "stateMutability": "nonpayable",
      "type": "function"
    },
    {
      "inputs": [
        {
          "internalType": "address",
          "name": "account",
          "type": "address"
        }
      ],
      "name": "balanceOf",
      "outputs": [
        {
          "internalType": "uint256",
          "name": "",
          "type": "uint256"
        }
      ],
      "stateMutability": "view",
      "type": "function"
    },
    {
      "inputs": [],
      "name": "decimals",
      "outputs": [
        {
          "internalType": "uint8",
          "name": "",
          "type": "uint8"
        }
      ],
      "stateMutability": "view",
      "type": "function"
    },
    {
      "inputs": [],
      "name": "farmNFT",
      "outputs": [
        {
          "internalType": "address",
          "name": "",
          "type": "address"
        }
      ],
      "stateMutability": "view",
      "type": "function"
    },
    {
      "inputs": [
        {
          "internalType": "address",
          "name": "to",
          "type": "address"
        },
        {
          "internalType": "uint256",
          "name": "amount",
          "type": "uint256"
        }
      ],
      "name": "mint",
      "outputs": [],
      "stateMutability": "nonpayable",
      "type": "function"
    },
    {
      "inputs": [],
      "name": "name",
      "outputs": [
        {
          "internalType": "string",
          "name": "",
          "type": "string"
        }
      ],
      "stateMutability": "view",
      "type": "function"
    },
    {
      "inputs": [],
      "name": "nftId",
      "outputs": [
        {
          "internalType": "uint256",
          "name": "",
          "type": "uint256"
        }
      ],
      "stateMutability": "view",
      "type": "function"
    },
    {
      "inputs": [],
      "name": "symbol",
      "outputs": [
        {
          "internalType": "string",
          "name": "",
          "type": "string"
        }
      ],
      "stateMutability": "view",
      "type": "function"
    },
    {
      "inputs": [],
      "name": "totalSupply",
      "outputs": [
        {
          "internalType": "uint256",
          "name": "",
          "type": "uint256"
        }
      ],
      "stateMutability": "view",
      "type": "function"
    },
    {
      "inputs": [
        {
          "internalType": "address",
          "name": "to",
          "type": "address"
        },
        {
          "internalType": "uint256",
          "name": "amount",
          "type": "uint256"
        }
      ],
      "name": "transfer",
      "outputs": [
        {
          "internalType": "bool",
          "name": "",
          "type": "bool"
        }
      ],
      "stateMutability": "nonpayable",
      "type": "function"
    },
    {
      "inputs": [
        {
          "internalType": "address",
          "name": "from",
          "type": "address"
        },
        {
          "internalType": "address",
          "name": "to",
          "type": "address"
        },
        {
          "internalType": "uint256",
          "name": "amount",
          "type": "uint256"
        }
      ],
      "name": "transferFrom",
      "outputs": [
        {
          "internalType": "bool",
          "name": "",
          "type": "bool"
        }
      ],
      "stateMutability": "nonpayable",
      "type": "function"
    }
  ],
  "bytecode": "0x60806040523461036d57610c208038038061001981610372565b92833981019060808183031261036d5780516001600160401b03811161036d5782610045918301610397565b602082015190926001600160401b03821161036d57610065918301610397565b604082015190916001600160a01b0382169182900361036d57606001516002805460ff1916601217905583519091906001600160401b03811161027857600054600181811c91168015610363575b602082101461025857601f81116102ff575b50602094601f82116001146102995794819293949560009261028e575b50508160011b916000199060031b1c1916176000555b82516001600160401b03811161027857600154600181811c9116801561026e575b602082101461025857601f81116101f3575b506020601f821160011461018c5781929394600092610181575b50508160011b916000199060031b1c1916176001555b600680546001600160a01b03191691909117905560075560405161081d90816104038239f35b015190503880610145565b601f198216906001600052806000209160005b8181106101db575095836001959697106101c2575b505050811b0160015561015b565b015160001960f88460031b161c191690553880806101b4565b9192602060018192868b01518155019401920161019f565b60016000527fb10e2d527612073b26eecdfd717e6a320cf44b4afac2b0732d9fcbe2b7fa0cf6601f830160051c8101916020841061024e575b601f0160051c01905b818110610242575061012b565b60008155600101610235565b909150819061022c565b634e487b7160e01b600052602260045260246000fd5b90607f1690610119565b634e487b7160e01b600052604160045260246000fd5b0151905038806100e2565b601f1982169560008052806000209160005b8881106102e7575083600195969798106102ce575b505050811b016000556100f8565b015160001960f88460031b161c191690553880806102c0565b919260206001819286850151815501940192016102ab565b600080527f290decd9548b62a8d60345a988386fc84ba6bc95484008f6362f93160ef3e563601f830160051c81019160208410610359575b601f0160051c01905b81811061034d57506100c5565b60008155600101610340565b9091508190610337565b90607f16906100b3565b600080fd5b6040519190601f01601f191682016001600160401b0381118382101761027857604052565b81601f8201121561036d578051906001600160401b038211610278576103c6601f8301601f1916602001610372565b928284526020838301011161036d5760005b8281106103ed57505060206000918301015290565b806020809284010151828287010152016103d856fe6080604052600436101561001257600080fd5b60003560e01c806306fdde031461063d578063095ea7b3146105c157806318160ddd146105a357806323b872dd1461044a578063313ce5671461042957806340c10f19146103565780636ebcf6071461031c57806370a082311461031c57806395d89b41146101fb578063a9059cbb1461014d578063c6bc51821461012f578063da802f80146101085763dd62ed3e146100ab57600080fd5b34610103576040366003190112610103576100c4610740565b6001600160a01b036100d4610756565b911660005260056020526001600160a01b03604060002091166000526020526020604060002054604051908152f35b600080fd5b346101035760003660031901126101035760206001600160a01b0360065416604051908152f35b34610103576000366003190112610103576020600754604051908152f35b3461010357604036600319011261010357610166610740565b6001600160a01b036024359133600052600460205261018c83604060002054101561076c565b33600052600460205260406000206101a58482546107b7565b9055169081600052600460205260406000206101c28282546107da565b90556040519081527fddf252ad1be2c89b69c2b068fc378daa952ba7f163c4a11628f55a4df523b3ef60203392a3602060405160018152f35b34610103576000366003190112610103576000604051816001548060011c90600181168015610312575b6020831081146102fe578285529081156102e2575060011461028e575b50819003601f01601f1916810167ffffffffffffffff81118282101761027a576102769250604052604051918291826106f7565b0390f35b602483634e487b7160e01b81526041600452fd5b600184529050827fb10e2d527612073b26eecdfd717e6a320cf44b4afac2b0732d9fcbe2b7fa0cf65b8282106102cc57506020915082010183610242565b60018160209254838588010152019101906102b7565b90506020925060ff191682840152151560051b82010183610242565b602486634e487b7160e01b81526022600452fd5b91607f1691610225565b34610103576020366003190112610103576001600160a01b0361033d610740565b1660005260046020526020604060002054604051908152f35b346101035760403660031901126101035761036f610740565b602435906001600160a01b036006541633036103e5577fddf252ad1be2c89b69c2b068fc378daa952ba7f163c4a11628f55a4df523b3ef60206001600160a01b03600093169384845260048252604084206103cb8282546107da565b90556103d9816003546107da565b600355604051908152a3005b606460405162461bcd60e51b815260206004820152601660248201527f4f6e6c79206661726d204e46542063616e206d696e74000000000000000000006044820152fd5b3461010357600036600319011261010357602060ff60025416604051908152f35b3461010357606036600319011261010357610463610740565b61046b610756565b6001600160a01b0360443592169081600052600460205261049383604060002054101561076c565b81600052600560205260406000206001600160a01b033316600052602052826040600020541061055f5760206001600160a01b037fddf252ad1be2c89b69c2b068fc378daa952ba7f163c4a11628f55a4df523b3ef92846000526004835260406000206105018782546107b7565b905516938460005260048252604060002061051d8282546107da565b9055836000526005825260406000206001600160a01b0333166000528252604060002061054b8282546107b7565b9055604051908152a3602060405160018152f35b606460405162461bcd60e51b815260206004820152601660248201527f496e73756666696369656e7420616c6c6f77616e6365000000000000000000006044820152fd5b34610103576000366003190112610103576020600354604051908152f35b34610103576040366003190112610103576105da610740565b6001600160a01b036024359133600052600560205260406000208282166000526020528260406000205560405192835216907f8c5be1e5ebec7d5bd14f71427d1e84f3dd0314c0f7b2291e5b200ac8c7c3b92560203392a3602060405160018152f35b346101035760003660031901126101035760006040518182548060011c906001811680156106ed575b6020831081146102fe578285529081156102e257506001146106b65750819003601f01601f1916810167ffffffffffffffff81118282101761027a576102769250604052604051918291826106f7565b90508280526020832083905b8282106106d757506020915082010183610242565b60018160209254838588010152019101906106c2565b91607f1691610666565b91909160208152825180602083015260005b81811061072a575060409293506000838284010152601f8019910116010190565b8060208092870101516040828601015201610709565b600435906001600160a01b038216820361010357565b602435906001600160a01b038216820361010357565b1561077357565b606460405162461bcd60e51b815260206004820152601460248201527f496e73756666696369656e742062616c616e63650000000000000000000000006044820152fd5b919082039182116107c457565b634e487b7160e01b600052601160045260246000fd5b919082018092116107c45756fea264697066735822122033b35385ade687c36e07f17499a4e685a8e40b20c1690632fe5305123d22dce064736f6c634300081c0033",
  "linkReferences": {},
  "deployedLinkReferences": {}
}