{
  "_format": "hh-sol-artifact-1",
  "contractName": "FarmShareToken",
  "sourceName": "contracts/NFTFarming.sol",
  "abi": [
    {
      "inputs": [
        {
          "internalType": "string",
          "name": "_name",
          "type": "string"
        },
        {
          "internalType": "string",
          "name": "_symbol",
          "type": "string"
        },
        {
          "internalType": "address",
          "name": "_farmNFT",
          "type": "address"
        },
        {
          "internalType": "uint256",
          "name": "_nftId",
          "type": "uint256"
        }
      ],
      "stateMutability": "nonpayable",
      "type": "constructor"
    },
    {
      "inputs": [],
      "name": "InvalidInitialization",
      "type": "error"
    },
    {
      "inputs": [],
      "name": "NotInitializing",
      "type": "error"
    },
    {
      "anonymous": false,
      "inputs": [
        {
          "indexed": true,
          "internalType": "address",
          "name": "owner",
          "type": "address"
        },
        {
          "indexed": true,
          "internalType": "address",
          "name": "spender",
          "type": "address"
        },
        {
          "indexed": false,
          "internalType": "uint256",
          "name": "value",
          "type": "uint256"
        }
      ],
      "name": "Approval",
      "type": "event"
    },
    {
      "anonymous": false,
      "inputs": [
        {
          "indexed": false,
          "internalType": "uint64",
          "name": "version",
          "type": "uint64"
        }
      ],
      "name": "Initialized",
      "type": "event"
    },
    {
      "anonymous": false,
      "inputs": [
        {
          "indexed": true,
          "internalType": "address",
          "name": "from",
          "type": "address"
        },
        {
          "indexed": true,
          "internalType": "address",
          "name": "to",
          "type": "address"
        },
        {
          "indexed": false,
          "internalType": "uint256",
          "name": "value",
          "type": "uint256"
        }
      ],
      "name": "Transfer",
      "type": "event"
    },
    {
      "inputs": [
        {
          "internalType": "address",
          "name": "",
          "type": "address"
        }
      ],
      "name": "_balances",
      "outputs": [
        {
          "internalType": "uint256",
          "name": "",
          "type": "uint256"
        }
      ],
      "stateMutability": "view",
      "type": "function"
    },
    {
      "inputs": [
        {
          "internalType": "address",
          "name": "",
          "type": "address"
        },
        {
          "internalType": "address",
          "name": "",
          "type": "address"
        }
      ],
      "name": "allowance",
      "outputs": [
        {
          "internalType": "uint256",
          "name": "",
          "type": "uint256"
        }
      ],
      "stateMutability": "view",
      "type": "function"
    },
    {
      "inputs": [
        {
          "internalType": "address",
          "name": "spender",
          "type": "address"
        },
        {
          "internalType": "uint256",
          "name": "amount",
          "type": "uint256"
        }
      ],
      "name": "approve",
      "outputs": [
        {
          "internalType": "bool",
          "name": "",
          "type": "bool"
        }
      ],
      "stateMutability": "nonpayable",
      "type": "function"
    },
    {
      "inputs": [
        {
          "internalType": "address",
          "name": "account",
          "type": "address"
        }
      ],
      "name": "balanceOf",
      "outputs": [
        {
          "internalType": "uint256",
          "name": "",
          "type": "uint256"
        }
      ],
      "stateMutability": "view",
      "type": "function"
    },
    {
      "inputs": [],
      "name": "decimals",
      "outputs": [
        {
          "internalType": "uint8",
          "name": "",
          "type": "uint8"
        }
      ],
      "stateMutability": "view",
      "type": "function"
    },
    {
      "inputs": [],
      "name": "farmNFT",
      "outputs": [
        {
          "internalType": "address",
          "name": "",
          "type": "address"
        }
      ],
      "stateMutability": "view",
      "type": "function"
    },
    {
      "inputs": [
        {
          "internalType": "address",
          "name": "to",
          "type": "address"
        },
        {
          "internalType": "uint256",
          "name": "amount",
          "type": "uint256"
        }
      ],
      "name": "mint",
      "outputs": [],
      "stateMutability": "nonpayable",
      "type": "function"
    },
    {
      "inputs": [],
      "name": "name",
      "outputs": [
        {
          "internalType": "string",
          "name": "",
          "type": "string"
        }
      ],
      "stateMutability": "view",
      "type": "function"
    },
    {
      "inputs": [],
      "name": "nftId",
      "outputs": [
        {
          "internalType": "uint256",
          "name": "",
          "type": "uint256"
        }
      ],
      "stateMutability": "view",
      "type": "function"
    },
    {
      "inputs": [],
      "name": "symbol",
      "outputs": [
        {
          "internalType": "string",
          "name": "",
          "type": "string"
        }
      ],
      "stateMutability": "view",
      "type": "function"
    },
    {
      "inputs": [],
      "name": "totalSupply",
      "outputs": [
        {
          "internalType": "uint256",
          "name": "",
          "type": "uint256"
        }
      ],
      "stateMutability": "view",
      "type": "function"
    },
    {
      "inputs": [
        {
          "internalType": "address",
          "name": "to",
          "type": "address"
        },
        {
          "internalType": "uint256",
          "name": "amount",
          "type": "uint256"
        }
      ],
      "name": "transfer",
      "outputs": [
        {
          "internalType": "bool",
          "name": "",
          "type": "bool"
        }
      ],
      "stateMutability": "nonpayable",
      "type": "function"
    },
    {
      "inputs": [
        {
          "internalType": "address",
          "name": "from",
          "type": "address"
        },
        {
          "internalType": "address",
          "name": "to",
          "type": "address"
        },
        {
          "internalType": "uint256",
          "name": "amount",
          "type": "uint256"
        }
      ],
      "name": "transferFrom",
      "outputs": [
        {
          "internalType": "bool",
          "name": "",
          "type": "bool"
        }
      ],
      "stateMutability": "nonpayable",
      "type": "function"
    }
  ],
  "bytecode": "0x60806040523461036d57610bee8038038061001981610372565b92833981019060808183031261036d5780516001600160401b03811161036d5782610045918301610397565b602082015190926001600160401b03821161036d57610065918301610397565b604082015190916001600160a01b0382169182900361036d57606001516002805460ff1916601217905583519091906001600160401b03811161027857600054600181811c91168015610363575b602082101461025857601f81116102ff575b50602094601f82116001146102995794819293949560009261028e575b50508160011b916000199060031b1c1916176000555b82516001600160401b03811161027857600154600181811c9116801561026e575b602082101461025857601f81116101f3575b506020601f821160011461018c5781929394600092610181575b50508160011b916000199060031b1c1916176001555b600680546001600160a01b0319169190911790556007556040516107eb90816104038239f35b015190503880610145565b601f198216906001600052806000209160005b8181106101db575095836001959697106101c2575b505050811b0160015561015b565b015160001960f88460031b161c191690553880806101b4565b9192602060018192868b01518155019401920161019f565b60016000527fb10e2d527612073b26eecdfd717e6a320cf44b4afac2b0732d9fcbe2b7fa0cf6601f830160051c8101916020841061024e575b601f0160051c01905b818110610242575061012b565b60008155600101610235565b909150819061022c565b634e487b7160e01b600052602260045260246000fd5b90607f1690610119565b634e487b7160e01b600052604160045260246000fd5b0151905038806100e2565b601f1982169560008052806000209160005b8881106102e7575083600195969798106102ce575b505050811b016000556100f8565b015160001960f88460031b161c191690553880806102c0565b919260206001819286850151815501940192016102ab565b600080527f290decd9548b62a8d60345a988386fc84ba6bc95484008f6362f93160ef3e563601f830160051c81019160208410610359575b601f0160051c01905b81811061034d57506100c5565b60008155600101610340565b9091508190610337565b90607f16906100b3565b600080fd5b6040519190601f01601f191682016001600160401b0381118382101761027857604052565b81601f8201121561036d578051906001600160401b038211610278576103c6601f8301601f1916602001610372565b928284526020838301011161036d5760005b8281106103ed57505060206000918301015290565b806020809284010151828287010152016103d856fe6080604052600436101561001257600080fd5b60003560e01c806306fdde0314610613578063095ea7b31461059957806318160ddd1461057b57806323b872dd1461043e578063313ce5671461041d57806340c10f19146103505780636ebcf6071461031657806370a082311461031657806395d89b41146101f5578063a9059cbb14610148578063c6bc51821461012a578063da802f80146101015763dd62ed3e146100ab57600080fd5b346100fc5760403660031901126100fc576100c4610716565b6100cc61072c565b6001600160a01b039182166000908152600560209081526040808320949093168252928352819020549051908152f35b600080fd5b346100fc5760003660031901126100fc576006546040516001600160a01b039091168152602090f35b346100fc5760003660031901126100fc576020600754604051908152f35b346100fc5760403660031901126100fc57610161610716565b6024359033600052600460205261017f826040600020541015610742565b3360005260046020526040600020610198838254610785565b905560018060a01b03169081600052600460205260406000206101bc8282546107a8565b90556040519081527fddf252ad1be2c89b69c2b068fc378daa952ba7f163c4a11628f55a4df523b3ef60203392a3602060405160018152f35b346100fc5760003660031901126100fc576000604051816001548060011c9060018116801561030c575b6020831081146102f8578285529081156102dc5750600114610288575b50819003601f01601f1916810167ffffffffffffffff811182821017610274576102709250604052604051918291826106cd565b0390f35b634e487b7160e01b83526041600452602483fd5b600184529050827fb10e2d527612073b26eecdfd717e6a320cf44b4afac2b0732d9fcbe2b7fa0cf65b8282106102c65750602091508201018361023c565b60018160209254838588010152019101906102b1565b90506020925060ff191682840152151560051b8201018361023c565b634e487b7160e01b86526022600452602486fd5b91607f169161021f565b346100fc5760203660031901126100fc576001600160a01b03610337610716565b1660005260046020526020604060002054604051908152f35b346100fc5760403660031901126100fc57610369610716565b60065460243591906001600160a01b031633036103df577fddf252ad1be2c89b69c2b068fc378daa952ba7f163c4a11628f55a4df523b3ef602060009260018060a01b03169384845260048252604084206103c58282546107a8565b90556103d3816003546107a8565b600355604051908152a3005b60405162461bcd60e51b815260206004820152601660248201527513db9b1e4819985c9b481391950818d85b881b5a5b9d60521b6044820152606490fd5b346100fc5760003660031901126100fc57602060ff60025416604051908152f35b346100fc5760603660031901126100fc57610457610716565b61045f61072c565b6044359160018060a01b031690816000526004602052610486836040600020541015610742565b6000828152600560209081526040808320338452909152902054831161053d5760207fddf252ad1be2c89b69c2b068fc378daa952ba7f163c4a11628f55a4df523b3ef91836000526004825260406000206104e2868254610785565b905560018060a01b031693846000526004825260406000206105058282546107a8565b90556000848152600583526040808220338352845290208054610529908390610785565b9055604051908152a3602060405160018152f35b60405162461bcd60e51b8152602060048201526016602482015275496e73756666696369656e7420616c6c6f77616e636560501b6044820152606490fd5b346100fc5760003660031901126100fc576020600354604051908152f35b346100fc5760403660031901126100fc576105b2610716565b3360008181526005602090815260408083206001600160a01b03909516808452948252918290206024359081905591519182527f8c5be1e5ebec7d5bd14f71427d1e84f3dd0314c0f7b2291e5b200ac8c7c3b92591a3602060405160018152f35b346100fc5760003660031901126100fc5760006040518182548060011c906001811680156106c3575b6020831081146102f8578285529081156102dc575060011461068c5750819003601f01601f1916810167ffffffffffffffff811182821017610274576102709250604052604051918291826106cd565b90508280526020832083905b8282106106ad5750602091508201018361023c565b6001816020925483858801015201910190610698565b91607f169161063c565b91909160208152825180602083015260005b818110610700575060409293506000838284010152601f8019910116010190565b80602080928701015160408286010152016106df565b600435906001600160a01b03821682036100fc57565b602435906001600160a01b03821682036100fc57565b1561074957565b60405162461bcd60e51b8152602060048201526014602482015273496e73756666696369656e742062616c616e636560601b6044820152606490fd5b9190820391821161079257565b634e487b7160e01b600052601160045260246000fd5b919082018092116107925756fea26469706673582212207746bf5cfba807bf51ed3466e4f26b2099606d63a4841e0eac59076eb2f5a1f364736f6c634300081c0033",
  "linkReferences": {},
  "deployedLinkReferences": {}
}