{
  "_format": "hh-sol-artifact-1",
  "contractName": "NFTFarming",
  "sourceName": "contracts/NFTFarming.sol",
  "abi": [
    {
      "inputs": [
        {
          "internalType": "address",
          "name": "target",
          "type": "address"
        }
      ],
      "name": "AddressEmptyCode",
      "type": "error"
    },
    {
      "inputs": [
        {
          "internalType": "address",
          "name": "implementation",
          "type": "address"
        }
      ],
      "name": "ERC1967InvalidImplementation",
      "type": "error"
    },
    {
      "inputs": [],
      "name": "ERC1967NonPayable",
      "type": "error"
    },
    {
      "inputs": [
        {
          "internalType": "address",
          "name": "sender",
          "type": "address"
        },
        {
          "internalType": "uint256",
          "name": "tokenId",
          "type": "uint256"
        },
        {
          "internalType": "address",
          "name": "owner",
          "type": "address"
        }
      ],
      "name": "ERC721IncorrectOwner",
      "type": "error"
    },
    {
      "inputs": [
        {
          "internalType": "address",
          "name": "operator",
          "type": "address"
        },
        {
          "internalType": "uint256",
          "name": "tokenId",
          "type": "uint256"
        }
      ],
      "name": "ERC721InsufficientApproval",
      "type": "error"
    },
    {
      "inputs": [
        {
          "internalType": "address",
          "name": "approver",
          "type": "address"
        }
      ],
      "name": "ERC721InvalidApprover",
      "type": "error"
    },
    {
      "inputs": [
        {
          "internalType": "address",
          "name": "operator",
          "type": "address"
        }
      ],
      "name": "ERC721InvalidOperator",
      "type": "error"
    },
    {
      "inputs": [
        {
          "internalType": "address",
          "name": "owner",
          "type": "address"
        }
      ],
      "name": "ERC721InvalidOwner",
      "type": "error"
    },
    {
      "inputs": [
        {
          "internalType": "address",
          "name": "receiver",
          "type": "address"
        }
      ],
      "name": "ERC721InvalidReceiver",
      "type": "error"
    },
    {
      "inputs": [
        {
          "internalType": "address",
          "name": "sender",
          "type": "address"
        }
      ],
      "name": "ERC721InvalidSender",
      "type": "error"
    },
    {
      "inputs": [
        {
          "internalType": "uint256",
          "name": "tokenId",
          "type": "uint256"
        }
      ],
      "name": "ERC721NonexistentToken",
      "type": "error"
    },
    {
      "inputs": [],
      "name": "FailedCall",
      "type": "error"
    },
    {
      "inputs": [],
      "name": "InvalidInitialization",
      "type": "error"
    },
    {
      "inputs": [],
      "name": "NotInitializing",
      "type": "error"
    },
    {
      "inputs": [
        {
          "internalType": "address",
          "name": "owner",
          "type": "address"
        }
      ],
      "name": "OwnableInvalidOwner",
      "type": "error"
    },
    {
      "inputs": [
        {
          "internalType": "address",
          "name": "account",
          "type": "address"
        }
      ],
      "name": "OwnableUnauthorizedAccount",
      "type": "error"
    },
    {
      "inputs": [],
      "name": "ReentrancyGuardReentrantCall",
      "type": "error"
    },
    {
      "inputs": [],
      "name": "UUPSUnauthorizedCallContext",
      "type": "error"
    },
    {
      "inputs": [
        {
          "internalType": "bytes32",
          "name": "slot",
          "type": "bytes32"
        }
      ],
      "name": "UUPSUnsupportedProxiableUUID",
      "type": "error"
    },
    {
      "anonymous": false,
      "inputs": [
        {
          "indexed": true,
          "internalType": "address",
          "name": "owner",
          "type": "address"
        },
        {
          "indexed": true,
          "internalType": "address",
          "name": "approved",
          "type": "address"
        },
        {
          "indexed": true,
          "internalType": "uint256",
          "name": "tokenId",
          "type": "uint256"
        }
      ],
      "name": "Approval",
      "type": "event"
    },
    {
      "anonymous": false,
      "inputs": [
        {
          "indexed": true,
          "internalType": "address",
          "name": "owner",
          "type": "address"
        },
        {
          "indexed": true,
          "internalType": "address",
          "name": "operator",
          "type": "address"
        },
        {
          "indexed": false,
          "internalType": "bool",
          "name": "approved",
          "type": "bool"
        }
      ],
      "name": "ApprovalForAll",
      "type": "event"
    },
    {
      "anonymous": false,
      "inputs": [
        {
          "indexed": true,
          "internalType": "uint256",
          "name": "tokenId",
          "type": "uint256"
        },
        {
          "indexed": false,
          "internalType": "uint256",
          "name": "batchId",
          "type": "uint256"
        }
      ],
      "name": "BatchAssociated",
      "type": "event"
    },
    {
      "anonymous": false,
      "inputs": [
        {
          "indexed": true,
          "internalType": "address",
          "name": "validator",
          "type": "address"
        }
      ],
      "name": "BridgeValidatorAdded",
      "type": "event"
    },
    {
      "anonymous": false,
      "inputs": [
        {
          "indexed": true,
          "internalType": "address",
          "name": "validator",
          "type": "address"
        }
      ],
      "name": "BridgeValidatorRemoved",
      "type": "event"
    },
    {
      "anonymous": false,
      "inputs": [
        {
          "indexed": true,
          "internalType": "uint256",
          "name": "newTokenId",
          "type": "uint256"
        },
        {
          "indexed": true,
          "internalType": "uint256",
          "name": "sourceChainId",
          "type": "uint256"
        },
        {
          "indexed": true,
          "internalType": "address",
          "name": "owner",
          "type": "address"
        }
      ],
      "name": "BridgedNFTReceived",
      "type": "event"
    },
    {
      "anonymous": false,
      "inputs": [
        {
          "indexed": true,
          "internalType": "address",
          "name": "bridge",
          "type": "address"
        }
      ],
      "name": "CrossChainBridgeSet",
      "type": "event"
    },
    {
      "anonymous": false,
      "inputs": [
        {
          "indexed": true,
          "internalType": "uint256",
          "name": "tokenId",
          "type": "uint256"
        },
        {
          "indexed": true,
          "internalType": "address",
          "name": "validator",
          "type": "address"
        }
      ],
      "name": "CrossChainTransferApproved",
      "type": "event"
    },
    {
      "anonymous": false,
      "inputs": [
        {
          "indexed": true,
          "internalType": "uint256",
          "name": "tokenId",
          "type": "uint256"
        },
        {
          "indexed": true,
          "internalType": "address",
          "name": "from",
          "type": "address"
        },
        {
          "indexed": true,
          "internalType": "address",
          "name": "to",
          "type": "address"
        },
        {
          "indexed": false,
          "internalType": "string",
          "name": "destinationChain",
          "type": "string"
        }
      ],
      "name": "CrossChainTransferInitiated",
      "type": "event"
    },
    {
      "anonymous": false,
      "inputs": [
        {
          "indexed": true,
          "internalType": "uint256",
          "name": "tokenId",
          "type": "uint256"
        },
        {
          "indexed": false,
          "internalType": "uint256",
          "name": "actualYield",
          "type": "uint256"
        }
      ],
      "name": "FarmNFTHarvested",
      "type": "event"
    },
    {
      "anonymous": false,
      "inputs": [
        {
          "indexed": true,
          "internalType": "uint256",
          "name": "tokenId",
          "type": "uint256"
        },
        {
          "indexed": true,
          "internalType": "address",
          "name": "farmer",
          "type": "address"
        },
        {
          "indexed": false,
          "internalType": "string",
          "name": "farmName",
          "type": "string"
        }
      ],
      "name": "FarmNFTMinted",
      "type": "event"
    },
    {
      "anonymous": false,
      "inputs": [
        {
          "indexed": true,
          "internalType": "uint256",
          "name": "tokenId",
          "type": "uint256"
        },
        {
          "indexed": true,
          "internalType": "address",
          "name": "from",
          "type": "address"
        },
        {
          "indexed": true,
          "internalType": "address",
          "name": "to",
          "type": "address"
        }
      ],
      "name": "FarmNFTTransferred",
      "type": "event"
    },
    {
      "anonymous": false,
      "inputs": [
        {
          "indexed": true,
          "internalType": "uint256",
          "name": "tokenId",
          "type": "uint256"
        },
        {
          "indexed": false,
          "internalType": "uint256",
          "name": "totalRewards",
          "type": "uint256"
        },
        {
          "indexed": false,
          "internalType": "uint256",
          "name": "rewardPerShare",
          "type": "uint256"
        }
      ],
      "name": "FractionalRewardsDistributed",
      "type": "event"
    },
    {
      "anonymous": false,
      "inputs": [
        {
          "indexed": false,
          "internalType": "uint64",
          "name": "version",
          "type": "uint64"
        }
      ],
      "name": "Initialized",
      "type": "event"
    },
    {
      "anonymous": false,
      "inputs": [
        {
          "indexed": true,
          "internalType": "uint256",
          "name": "tokenId",
          "type": "uint256"
        },
        {
          "indexed": true,
          "internalType": "uint256",
          "name": "targetChainId",
          "type": "uint256"
        },
        {
          "indexed": true,
          "internalType": "address",
          "name": "targetContract",
          "type": "address"
        }
      ],
      "name": "NFTBridged",
      "type": "event"
    },
    {
      "anonymous": false,
      "inputs": [
        {
          "indexed": true,
          "internalType": "uint256",
          "name": "tokenId",
          "type": "uint256"
        },
        {
          "indexed": true,
          "internalType": "address",
          "name": "shareToken",
          "type": "address"
        },
        {
          "indexed": false,
          "internalType": "uint256",
          "name": "totalShares",
          "type": "uint256"
        }
      ],
      "name": "NFTFractionalized",
      "type": "event"
    },
    {
      "anonymous": false,
      "inputs": [
        {
          "indexed": true,
          "internalType": "uint256",
          "name": "tokenId",
          "type": "uint256"
        },
        {
          "indexed": true,
          "internalType": "address",
          "name": "staker",
          "type": "address"
        },
        {
          "indexed": false,
          "internalType": "uint256",
          "name": "stakeTime",
          "type": "uint256"
        }
      ],
      "name": "NFTStaked",
      "type": "event"
    },
    {
      "anonymous": false,
      "inputs": [
        {
          "indexed": true,
          "internalType": "uint256",
          "name": "tokenId",
          "type": "uint256"
        },
        {
          "indexed": true,
          "internalType": "address",
          "name": "staker",
          "type": "address"
        },
        {
          "indexed": false,
          "internalType": "uint256",
          "name": "stakeDuration",
          "type": "uint256"
        }
      ],
      "name": "NFTUnstaked",
      "type": "event"
    },
    {
      "anonymous": false,
      "inputs": [
        {
          "indexed": true,
          "internalType": "address",
          "name": "previousOwner",
          "type": "address"
        },
        {
          "indexed": true,
          "internalType": "address",
          "name": "newOwner",
          "type": "address"
        }
      ],
      "name": "OwnershipTransferred",
      "type": "event"
    },
    {
      "anonymous": false,
      "inputs": [
        {
          "indexed": true,
          "internalType": "uint256",
          "name": "tokenId",
          "type": "uint256"
        },
        {
          "indexed": false,
          "internalType": "uint256",
          "name": "score",
          "type": "uint256"
        }
      ],
      "name": "QualityScoreUpdated",
      "type": "event"
    },
    {
      "anonymous": false,
      "inputs": [
        {
          "indexed": false,
          "internalType": "uint256",
          "name": "stakingRate",
          "type": "uint256"
        },
        {
          "indexed": false,
          "internalType": "uint256",
          "name": "fractionalBonus",
          "type": "uint256"
        }
      ],
      "name": "RewardRatesUpdated",
      "type": "event"
    },
    {
      "anonymous": false,
      "inputs": [
        {
          "indexed": true,
          "internalType": "address",
          "name": "token",
          "type": "address"
        }
      ],
      "name": "RewardTokenSet",
      "type": "event"
    },
    {
      "anonymous": false,
      "inputs": [
        {
          "indexed": true,
          "internalType": "address",
          "name": "staker",
          "type": "address"
        },
        {
          "indexed": false,
          "internalType": "uint256",
          "name": "amount",
          "type": "uint256"
        }
      ],
      "name": "RewardsClaimed",
      "type": "event"
    },
    {
      "anonymous": false,
      "inputs": [
        {
          "indexed": true,
          "internalType": "uint256",
          "name": "tokenId",
          "type": "uint256"
        },
        {
          "indexed": false,
          "internalType": "string",
          "name": "eventType",
          "type": "string"
        },
        {
          "indexed": false,
          "internalType": "string",
          "name": "location",
          "type": "string"
        }
      ],
      "name": "SupplyChainEventRecorded",
      "type": "event"
    },
    {
      "anonymous": false,
      "inputs": [
        {
          "indexed": true,
          "internalType": "address",
          "name": "from",
          "type": "address"
        },
        {
          "indexed": true,
          "internalType": "address",
          "name": "to",
          "type": "address"
        },
        {
          "indexed": true,
          "internalType": "uint256",
          "name": "tokenId",
          "type": "uint256"
        }
      ],
      "name": "Transfer",
      "type": "event"
    },
    {
      "anonymous": false,
      "inputs": [
        {
          "indexed": true,
          "internalType": "address",
          "name": "implementation",
          "type": "address"
        }
      ],
      "name": "Upgraded",
      "type": "event"
    },
    {
      "anonymous": false,
      "inputs": [
        {
          "indexed": true,
          "internalType": "address",
          "name": "oracle",
          "type": "address"
        }
      ],
      "name": "YieldOracleSet",
      "type": "event"
    },
    {
      "anonymous": false,
      "inputs": [
        {
          "indexed": true,
          "internalType": "uint256",
          "name": "tokenId",
          "type": "uint256"
        },
        {
          "indexed": false,
          "internalType": "uint256",
          "name": "predictedYield",
          "type": "uint256"
        },
        {
          "indexed": false,
          "internalType": "uint256",
          "name": "confidence",
          "type": "uint256"
        },
        {
          "indexed": false,
          "internalType": "string",
          "name": "modelVersion",
          "type": "string"
        }
      ],
      "name": "YieldPredicted",
      "type": "event"
    },
    {
      "anonymous": false,
      "inputs": [
        {
          "indexed": true,
          "internalType": "uint256",
          "name": "tokenId",
          "type": "uint256"
        },
        {
          "indexed": false,
          "internalType": "uint256",
          "name": "actualYield",
          "type": "uint256"
        },
        {
          "indexed": false,
          "internalType": "uint256",
          "name": "accuracy",
          "type": "uint256"
        }
      ],
      "name": "YieldPredictionValidated",
      "type": "event"
    },
    {
      "inputs": [],
      "name": "UPGRADE_INTERFACE_VERSION",
      "outputs": [
        {
          "internalType": "string",
          "name": "",
          "type": "string"
        }
      ],
      "stateMutability": "view",
      "type": "function"
    },
    {
      "inputs": [
        {
          "internalType": "address",
          "name": "validator",
          "type": "address"
        }
      ],
      "name": "addBridgeValidator",
      "outputs": [],
      "stateMutability": "nonpayable",
      "type": "function"
    },
    {
      "inputs": [
        {
          "internalType": "address",
          "name": "to",
          "type": "address"
        },
        {
          "internalType": "uint256",
          "name": "tokenId",
          "type": "uint256"
        }
      ],
      "name": "approve",
      "outputs": [],
      "stateMutability": "nonpayable",
      "type": "function"
    },
    {
      "inputs": [
        {
          "internalType": "uint256",
          "name": "tokenId",
          "type": "uint256"
        },
        {
          "internalType": "address",
          "name": "recipient",
          "type": "address"
        }
      ],
      "name": "approveCrossChainTransfer",
      "outputs": [],
      "stateMutability": "nonpayable",
      "type": "function"
    },
    {
      "inputs": [
        {
          "internalType": "uint256",
          "name": "tokenId",
          "type": "uint256"
        },
        {
          "internalType": "uint256",
          "name": "batchId",
          "type": "uint256"
        }
      ],
      "name": "associateBatch",
      "outputs": [],
      "stateMutability": "nonpayable",
      "type": "function"
    },
    {
      "inputs": [
        {
          "internalType": "address",
          "name": "owner",
          "type": "address"
        }
      ],
      "name": "balanceOf",
      "outputs": [
        {
          "internalType": "uint256",
          "name": "",
          "type": "uint256"
        }
      ],
      "stateMutability": "view",
      "type": "function"
    },
    {
      "inputs": [],
      "name": "baseStakingRewardRate",
      "outputs": [
        {
          "internalType": "uint256",
          "name": "",
          "type": "uint256"
        }
      ],
      "stateMutability": "view",
      "type": "function"
    },
    {
      "inputs": [
        {
          "internalType": "uint256",
          "name": "tokenId",
          "type": "uint256"
        },
        {
          "internalType": "uint256",
          "name": "targetChainId",
          "type": "uint256"
        },
        {
          "internalType": "address",
          "name": "targetContract",
          "type": "address"
        }
      ],
      "name": "bridgeNFT",
      "outputs": [],
      "stateMutability": "nonpayable",
      "type": "function"
    },
    {
      "inputs": [
        {
          "internalType": "address",
          "name": "",
          "type": "address"
        }
      ],
      "name": "bridgeValidators",
      "outputs": [
        {
          "internalType": "bool",
          "name": "",
          "type": "bool"
        }
      ],
      "stateMutability": "view",
      "type": "function"
    },
    {
      "inputs": [],
      "name": "claimStakingRewards",
      "outputs": [],
      "stateMutability": "nonpayable",
      "type": "function"
    },
    {
      "inputs": [],
      "name": "crossChainBridge",
      "outputs": [
        {
          "internalType": "contract ICrossChainBridge",
          "name": "",
          "type": "address"
        }
      ],
      "stateMutability": "view",
      "type": "function"
    },
    {
      "inputs": [
        {
          "internalType": "uint256",
          "name": "",
          "type": "uint256"
        }
      ],
      "name": "crossChainFarms",
      "outputs": [
        {
          "internalType": "uint256",
          "name": "sourceChainId",
          "type": "uint256"
        },
        {
          "internalType": "uint256",
          "name": "sourceTokenId",
          "type": "uint256"
        },
        {
          "internalType": "address",
          "name": "sourceContract",
          "type": "address"
        },
        {
          "internalType": "uint256",
          "name": "bridgedTokenId",
          "type": "uint256"
        },
        {
          "internalType": "bool",
          "name": "isBridged",
          "type": "bool"
        },
        {
          "internalType": "uint256",
          "name": "bridgeTimestamp",
          "type": "uint256"
        }
      ],
      "stateMutability": "view",
      "type": "function"
    },
    {
      "inputs": [
        {
          "internalType": "uint256",
          "name": "tokenId",
          "type": "uint256"
        }
      ],
      "name": "distributeFractionalRewards",
      "outputs": [],
      "stateMutability": "nonpayable",
      "type": "function"
    },
    {
      "inputs": [
        {
          "internalType": "uint256",
          "name": "tokenId",
          "type": "uint256"
        },
        {
          "internalType": "address",
          "name": "staker",
          "type": "address"
        }
      ],
      "name": "emergencyUnstake",
      "outputs": [],
      "stateMutability": "nonpayable",
      "type": "function"
    },
    {
      "inputs": [
        {
          "internalType": "uint256",
          "name": "",
          "type": "uint256"
        }
      ],
      "name": "farmNFTs",
      "outputs": [
        {
          "internalType": "uint256",
          "name": "id",
          "type": "uint256"
        },
        {
          "internalType": "address",
          "name": "farmer",
          "type": "address"
        },
        {
          "internalType": "string",
          "name": "farmName",
          "type": "string"
        },
        {
          "internalType": "string",
          "name": "location",
          "type": "string"
        },
        {
          "internalType": "uint256",
          "name": "size",
          "type": "uint256"
        },
        {
          "internalType": "string",
          "name": "cropType",
          "type": "string"
        },
        {
          "internalType": "uint256",
          "name": "expectedYield",
          "type": "uint256"
        },
        {
          "internalType": "uint256",
          "name": "plantingDate",
          "type": "uint256"
        },
        {
          "internalType": "uint256",
          "name": "harvestDate",
          "type": "uint256"
        },
        {
          "internalType": "string",
          "name": "metadataURI",
          "type": "string"
        },
        {
          "internalType": "bool",
          "name": "isActive",
          "type": "bool"
        },
        {
          "internalType": "uint256",
          "name": "qualityScore",
          "type": "uint256"
        },
        {
          "internalType": "string",
          "name": "supplyChainData",
          "type": "string"
        }
      ],
      "stateMutability": "view",
      "type": "function"
    },
    {
      "inputs": [
        {
          "internalType": "address",
          "name": "",
          "type": "address"
        },
        {
          "internalType": "uint256",
          "name": "",
          "type": "uint256"
        }
      ],
      "name": "farmerNFTs",
      "outputs": [
        {
          "internalType": "uint256",
          "name": "",
          "type": "uint256"
        }
      ],
      "stateMutability": "view",
      "type": "function"
    },
    {
      "inputs": [],
      "name": "fractionalRewardBonus",
      "outputs": [
        {
          "internalType": "uint256",
          "name": "",
          "type": "uint256"
        }
      ],
      "stateMutability": "view",
      "type": "function"
    },
    {
      "inputs": [
        {
          "internalType": "uint256",
          "name": "",
          "type": "uint256"
        }
      ],
      "name": "fractionalSupply",
      "outputs": [
        {
          "internalType": "uint256",
          "name": "",
          "type": "uint256"
        }
      ],
      "stateMutability": "view",
      "type": "function"
    },
    {
      "inputs": [
        {
          "internalType": "uint256",
          "name": "",
          "type": "uint256"
        }
      ],
      "name": "fractionalTokens",
      "outputs": [
        {
          "internalType": "contract FarmShareToken",
          "name": "",
          "type": "address"
        }
      ],
      "stateMutability": "view",
      "type": "function"
    },
    {
      "inputs": [
        {
          "internalType": "uint256",
          "name": "tokenId",
          "type": "uint256"
        },
        {
          "internalType": "uint256",
          "name": "totalShares",
          "type": "uint256"
        },
        {
          "internalType": "string",
          "name": "shareName",
          "type": "string"
        },
        {
          "internalType": "string",
          "name": "shareSymbol",
          "type": "string"
        }
      ],
      "name": "fractionalizeNFT",
      "outputs": [],
      "stateMutability": "nonpayable",
      "type": "function"
    },
    {
      "inputs": [
        {
          "internalType": "uint256",
          "name": "tokenId",
          "type": "uint256"
        }
      ],
      "name": "getApproved",
      "outputs": [
        {
          "internalType": "address",
          "name": "",
          "type": "address"
        }
      ],
      "stateMutability": "view",
      "type": "function"
    },
    {
      "inputs": [
        {
          "internalType": "uint256",
          "name": "tokenId",
          "type": "uint256"
        }
      ],
      "name": "getCrossChainValidators",
      "outputs": [
        {
          "internalType": "address[]",
          "name": "",
          "type": "address[]"
        }
      ],
      "stateMutability": "view",
      "type": "function"
    },
    {
      "inputs": [
        {
          "internalType": "uint256",
          "name": "tokenId",
          "type": "uint256"
        }
      ],
      "name": "getFarmNFT",
      "outputs": [
        {
          "components": [
            {
              "internalType": "uint256",
              "name": "id",
              "type": "uint256"
            },
            {
              "internalType": "address",
              "name": "farmer",
              "type": "address"
            },
            {
              "internalType": "string",
              "name": "farmName",
              "type": "string"
            },
            {
              "internalType": "string",
              "name": "location",
              "type": "string"
            },
            {
              "internalType": "uint256",
              "name": "size",
              "type": "uint256"
            },
            {
              "internalType": "string",
              "name": "cropType",
              "type": "string"
            },
            {
              "internalType": "uint256",
              "name": "expectedYield",
              "type": "uint256"
            },
            {
              "internalType": "uint256",
              "name": "plantingDate",
              "type": "uint256"
            },
            {
              "internalType": "uint256",
              "name": "harvestDate",
              "type": "uint256"
            },
            {
              "internalType": "string",
              "name": "metadataURI",
              "type": "string"
            },
            {
              "internalType": "bool",
              "name": "isActive",
              "type": "bool"
            },
            {
              "internalType": "uint256",
              "name": "qualityScore",
              "type": "uint256"
            },
            {
              "internalType": "string",
              "name": "supplyChainData",
              "type": "string"
            },
            {
              "internalType": "uint256[]",
              "name": "batchIds",
              "type": "uint256[]"
            }
          ],
          "internalType": "struct NFTFarming.FarmNFT",
          "name": "",
          "type": "tuple"
        }
      ],
      "stateMutability": "view",
      "type": "function"
    },
    {
      "inputs": [
        {
          "internalType": "address",
          "name": "farmer",
          "type": "address"
        }
      ],
      "name": "getFarmerNFTs",
      "outputs": [
        {
          "internalType": "uint256[]",
          "name": "",
          "type": "uint256[]"
        }
      ],
      "stateMutability": "view",
      "type": "function"
    },
    {
      "inputs": [
        {
          "internalType": "uint256",
          "name": "tokenId",
          "type": "uint256"
        }
      ],
      "name": "getFractionalToken",
      "outputs": [
        {
          "internalType": "address",
          "name": "",
          "type": "address"
        }
      ],
      "stateMutability": "view",
      "type": "function"
    },
    {
      "inputs": [
        {
          "internalType": "uint256",
          "name": "tokenId",
          "type": "uint256"
        }
      ],
      "name": "getNFTBatchCount",
      "outputs": [
        {
          "internalType": "uint256",
          "name": "",
          "type": "uint256"
        }
      ],
      "stateMutability": "view",
      "type": "function"
    },
    {
      "inputs": [
        {
          "internalType": "uint256",
          "name": "tokenId",
          "type": "uint256"
        }
      ],
      "name": "getNFTBatches",
      "outputs": [
        {
          "internalType": "uint256[]",
          "name": "",
          "type": "uint256[]"
        }
      ],
      "stateMutability": "view",
      "type": "function"
    },
    {
      "inputs": [
        {
          "internalType": "address",
          "name": "staker",
          "type": "address"
        }
      ],
      "name": "getStakingInfo",
      "outputs": [
        {
          "internalType": "uint256",
          "name": "stakedCount",
          "type": "uint256"
        },
        {
          "internalType": "uint256",
          "name": "pendingRewards",
          "type": "uint256"
        },
        {
          "internalType": "uint256",
          "name": "totalAccumulated",
          "type": "uint256"
        }
      ],
      "stateMutability": "view",
      "type": "function"
    },
    {
      "inputs": [
        {
          "internalType": "uint256",
          "name": "tokenId",
          "type": "uint256"
        }
      ],
      "name": "getSupplyChainHistory",
      "outputs": [
        {
          "components": [
            {
              "internalType": "uint256",
              "name": "timestamp",
              "type": "uint256"
            },
            {
              "internalType": "string",
              "name": "eventType",
              "type": "string"
            },
            {
              "internalType": "string",
              "name": "location",
              "type": "string"
            },
            {
              "internalType": "string",
              "name": "description",
              "type": "string"
            },
            {
              "internalType": "string",
              "name": "proof",
              "type": "string"
            },
            {
              "internalType": "address",
              "name": "recordedBy",
              "type": "address"
            }
          ],
          "internalType": "struct NFTFarming.SupplyChainEvent[]",
          "name": "",
          "type": "tuple[]"
        }
      ],
      "stateMutability": "view",
      "type": "function"
    },
    {
      "inputs": [
        {
          "internalType": "uint256",
          "name": "tokenId",
          "type": "uint256"
        }
      ],
      "name": "getYieldPrediction",
      "outputs": [
        {
          "components": [
            {
              "internalType": "uint256",
              "name": "predictedYield",
              "type": "uint256"
            },
            {
              "internalType": "uint256",
              "name": "confidence",
              "type": "uint256"
            },
            {
              "internalType": "uint256",
              "name": "predictionTime",
              "type": "uint256"
            },
            {
              "internalType": "string",
              "name": "modelVersion",
              "type": "string"
            },
            {
              "internalType": "bytes32",
              "name": "predictionHash",
              "type": "bytes32"
            }
          ],
          "internalType": "struct NFTFarming.YieldPrediction",
          "name": "",
          "type": "tuple"
        }
      ],
      "stateMutability": "view",
      "type": "function"
    },
    {
      "inputs": [],
      "name": "identityRegistry",
      "outputs": [
        {
          "internalType": "contract IdentityRegistry",
          "name": "",
          "type": "address"
        }
      ],
      "stateMutability": "view",
      "type": "function"
    },
    {
      "inputs": [],
      "name": "initialize",
      "outputs": [],
      "stateMutability": "nonpayable",
      "type": "function"
    },
    {
      "inputs": [
        {
          "internalType": "uint256",
          "name": "tokenId",
          "type": "uint256"
        },
        {
          "internalType": "address",
          "name": "to",
          "type": "address"
        },
        {
          "internalType": "string",
          "name": "destinationChain",
          "type": "string"
        }
      ],
      "name": "initiateCrossChainTransfer",
      "outputs": [],
      "stateMutability": "nonpayable",
      "type": "function"
    },
    {
      "inputs": [
        {
          "internalType": "address",
          "name": "owner",
          "type": "address"
        },
        {
          "internalType": "address",
          "name": "operator",
          "type": "address"
        }
      ],
      "name": "isApprovedForAll",
      "outputs": [
        {
          "internalType": "bool",
          "name": "",
          "type": "bool"
        }
      ],
      "stateMutability": "view",
      "type": "function"
    },
    {
      "inputs": [
        {
          "internalType": "address",
          "name": "validator",
          "type": "address"
        }
      ],
      "name": "isBridgeValidator",
      "outputs": [
        {
          "internalType": "bool",
          "name": "",
          "type": "bool"
        }
      ],
      "stateMutability": "view",
      "type": "function"
    },
    {
      "inputs": [
        {
          "internalType": "uint256",
          "name": "",
          "type": "uint256"
        }
      ],
      "name": "isFractionalized",
      "outputs": [
        {
          "internalType": "bool",
          "name": "",
          "type": "bool"
        }
      ],
      "stateMutability": "view",
      "type": "function"
    },
    {
      "inputs": [],
      "name": "lastRewardUpdate",
      "outputs": [
        {
          "internalType": "uint256",
          "name": "",
          "type": "uint256"
        }
      ],
      "stateMutability": "view",
      "type": "function"
    },
    {
      "inputs": [],
      "name": "longTermBonusRate",
      "outputs": [
        {
          "internalType": "uint256",
          "name": "",
          "type": "uint256"
        }
      ],
      "stateMutability": "view",
      "type": "function"
    },
    {
      "inputs": [],
      "name": "maxLongTermBonus",
      "outputs": [
        {
          "internalType": "uint256",
          "name": "",
          "type": "uint256"
        }
      ],
      "stateMutability": "view",
      "type": "function"
    },
    {
      "inputs": [],
      "name": "minValidatorApprovals",
      "outputs": [
        {
          "internalType": "uint256",
          "name": "",
          "type": "uint256"
        }
      ],
      "stateMutability": "view",
      "type": "function"
    },
    {
      "inputs": [
        {
          "internalType": "address",
          "name": "farmer",
          "type": "address"
        },
        {
          "internalType": "string",
          "name": "farmName",
          "type": "string"
        },
        {
          "internalType": "string",
          "name": "location",
          "type": "string"
        },
        {
          "internalType": "uint256",
          "name": "size",
          "type": "uint256"
        },
        {
          "internalType": "string",
          "name": "cropType",
          "type": "string"
        },
        {
          "internalType": "uint256",
          "name": "expectedYield",
          "type": "uint256"
        },
        {
          "internalType": "string",
          "name": "metadataURI",
          "type": "string"
        },
        {
          "internalType": "string",
          "name": "initialSupplyChainData",
          "type": "string"
        }
      ],
      "name": "mintFarmNFT",
      "outputs": [
        {
          "internalType": "uint256",
          "name": "",
          "type": "uint256"
        }
      ],
      "stateMutability": "nonpayable",
      "type": "function"
    },
    {
      "inputs": [],
      "name": "name",
      "outputs": [
        {
          "internalType": "string",
          "name": "",
          "type": "string"
        }
      ],
      "stateMutability": "view",
      "type": "function"
    },
    {
      "inputs": [
        {
          "internalType": "uint256",
          "name": "",
          "type": "uint256"
        }
      ],
      "name": "nftBatchCount",
      "outputs": [
        {
          "internalType": "uint256",
          "name": "",
          "type": "uint256"
        }
      ],
      "stateMutability": "view",
      "type": "function"
    },
    {
      "inputs": [
        {
          "internalType": "uint256",
          "name": "",
          "type": "uint256"
        },
        {
          "internalType": "address",
          "name": "",
          "type": "address"
        }
      ],
      "name": "nftStakeInfo",
      "outputs": [
        {
          "internalType": "uint256",
          "name": "stakeTime",
          "type": "uint256"
        },
        {
          "internalType": "uint256",
          "name": "lastRewardClaim",
          "type": "uint256"
        },
        {
          "internalType": "uint256",
          "name": "accumulatedRewards",
          "type": "uint256"
        },
        {
          "internalType": "bool",
          "name": "isActive",
          "type": "bool"
        }
      ],
      "stateMutability": "view",
      "type": "function"
    },
    {
      "inputs": [
        {
          "internalType": "uint256",
          "name": "",
          "type": "uint256"
        }
      ],
      "name": "nftStakes",
      "outputs": [
        {
          "internalType": "uint256",
          "name": "stakeTime",
          "type": "uint256"
        },
        {
          "internalType": "uint256",
          "name": "lastRewardClaim",
          "type": "uint256"
        },
        {
          "internalType": "uint256",
          "name": "accumulatedRewards",
          "type": "uint256"
        },
        {
          "internalType": "bool",
          "name": "isActive",
          "type": "bool"
        }
      ],
      "stateMutability": "view",
      "type": "function"
    },
    {
      "inputs": [
        {
          "internalType": "uint256",
          "name": "",
          "type": "uint256"
        },
        {
          "internalType": "uint256",
          "name": "",
          "type": "uint256"
        }
      ],
      "name": "nftValidators",
      "outputs": [
        {
          "internalType": "address",
          "name": "",
          "type": "address"
        }
      ],
      "stateMutability": "view",
      "type": "function"
    },
    {
      "inputs": [],
      "name": "owner",
      "outputs": [
        {
          "internalType": "address",
          "name": "",
          "type": "address"
        }
      ],
      "stateMutability": "view",
      "type": "function"
    },
    {
      "inputs": [
        {
          "internalType": "uint256",
          "name": "tokenId",
          "type": "uint256"
        }
      ],
      "name": "ownerOf",
      "outputs": [
        {
          "internalType": "address",
          "name": "",
          "type": "address"
        }
      ],
      "stateMutability": "view",
      "type": "function"
    },
    {
      "inputs": [],
      "name": "proxiableUUID",
      "outputs": [
        {
          "internalType": "bytes32",
          "name": "",
          "type": "bytes32"
        }
      ],
      "stateMutability": "view",
      "type": "function"
    },
    {
      "inputs": [],
      "name": "qualityBonusMultiplier",
      "outputs": [
        {
          "internalType": "uint256",
          "name": "",
          "type": "uint256"
        }
      ],
      "stateMutability": "view",
      "type": "function"
    },
    {
      "inputs": [
        {
          "internalType": "bytes",
          "name": "nftData",
          "type": "bytes"
        }
      ],
      "name": "receiveBridgedNFT",
      "outputs": [],
      "stateMutability": "nonpayable",
      "type": "function"
    },
    {
      "inputs": [
        {
          "internalType": "uint256",
          "name": "tokenId",
          "type": "uint256"
        },
        {
          "internalType": "uint256",
          "name": "actualYield",
          "type": "uint256"
        },
        {
          "internalType": "string",
          "name": "harvestProof",
          "type": "string"
        }
      ],
      "name": "recordHarvest",
      "outputs": [],
      "stateMutability": "nonpayable",
      "type": "function"
    },
    {
      "inputs": [
        {
          "internalType": "uint256",
          "name": "tokenId",
          "type": "uint256"
        },
        {
          "internalType": "string",
          "name": "eventType",
          "type": "string"
        },
        {
          "internalType": "string",
          "name": "location",
          "type": "string"
        },
        {
          "internalType": "string",
          "name": "description",
          "type": "string"
        },
        {
          "internalType": "string",
          "name": "proof",
          "type": "string"
        }
      ],
      "name": "recordSupplyChainEvent",
      "outputs": [],
      "stateMutability": "nonpayable",
      "type": "function"
    },
    {
      "inputs": [
        {
          "internalType": "address",
          "name": "validator",
          "type": "address"
        }
      ],
      "name": "removeBridgeValidator",
      "outputs": [],
      "stateMutability": "nonpayable",
      "type": "function"
    },
    {
      "inputs": [],
      "name": "renounceOwnership",
      "outputs": [],
      "stateMutability": "nonpayable",
      "type": "function"
    },
    {
      "inputs": [],
      "name": "rewardToken",
      "outputs": [
        {
          "internalType": "contract IERC20",
          "name": "",
          "type": "address"
        }
      ],
      "stateMutability": "view",
      "type": "function"
    },
    {
      "inputs": [
        {
          "internalType": "address",
          "name": "from",
          "type": "address"
        },
        {
          "internalType": "address",
          "name": "to",
          "type": "address"
        },
        {
          "internalType": "uint256",
          "name": "tokenId",
          "type": "uint256"
        }
      ],
      "name": "safeTransferFrom",
      "outputs": [],
      "stateMutability": "nonpayable",
      "type": "function"
    },
    {
      "inputs": [
        {
          "internalType": "address",
          "name": "from",
          "type": "address"
        },
        {
          "internalType": "address",
          "name": "to",
          "type": "address"
        },
        {
          "internalType": "uint256",
          "name": "tokenId",
          "type": "uint256"
        },
        {
          "internalType": "bytes",
          "name": "data",
          "type": "bytes"
        }
      ],
      "name": "safeTransferFrom",
      "outputs": [],
      "stateMutability": "nonpayable",
      "type": "function"
    },
    {
      "inputs": [
        {
          "internalType": "address",
          "name": "operator",
          "type": "address"
        },
        {
          "internalType": "bool",
          "name": "approved",
          "type": "bool"
        }
      ],
      "name": "setApprovalForAll",
      "outputs": [],
      "stateMutability": "nonpayable",
      "type": "function"
    },
    {
      "inputs": [
        {
          "internalType": "address",
          "name": "_bridge",
          "type": "address"
        }
      ],
      "name": "setCrossChainBridge",
      "outputs": [],
      "stateMutability": "nonpayable",
      "type": "function"
    },
    {
      "inputs": [
        {
          "internalType": "address",
          "name": "_token",
          "type": "address"
        }
      ],
      "name": "setRewardToken",
      "outputs": [],
      "stateMutability": "nonpayable",
      "type": "function"
    },
    {
      "inputs": [
        {
          "internalType": "address",
          "name": "_oracle",
          "type": "address"
        }
      ],
      "name": "setYieldOracle",
      "outputs": [],
      "stateMutability": "nonpayable",
      "type": "function"
    },
    {
      "inputs": [
        {
          "internalType": "uint256",
          "name": "tokenId",
          "type": "uint256"
        }
      ],
      "name": "stakeNFT",
      "outputs": [],
      "stateMutability": "nonpayable",
      "type": "function"
    },
    {
      "inputs": [
        {
          "internalType": "address",
          "name": "",
          "type": "address"
        },
        {
          "internalType": "uint256",
          "name": "",
          "type": "uint256"
        }
      ],
      "name": "stakerNFTs",
      "outputs": [
        {
          "internalType": "uint256",
          "name": "",
          "type": "uint256"
        }
      ],
      "stateMutability": "view",
      "type": "function"
    },
    {
      "inputs": [],
      "name": "stakingRewardRate",
      "outputs": [
        {
          "internalType": "uint256",
          "name": "",
          "type": "uint256"
        }
      ],
      "stateMutability": "view",
      "type": "function"
    },
    {
      "inputs": [
        {
          "internalType": "address",
          "name": "",
          "type": "address"
        }
      ],
      "name": "stakingRewards",
      "outputs": [
        {
          "internalType": "uint256",
          "name": "",
          "type": "uint256"
        }
      ],
      "stateMutability": "view",
      "type": "function"
    },
    {
      "inputs": [
        {
          "internalType": "uint256",
          "name": "",
          "type": "uint256"
        },
        {
          "internalType": "uint256",
          "name": "",
          "type": "uint256"
        }
      ],
      "name": "supplyChainHistory",
      "outputs": [
        {
          "internalType": "uint256",
          "name": "timestamp",
          "type": "uint256"
        },
        {
          "internalType": "string",
          "name": "eventType",
          "type": "string"
        },
        {
          "internalType": "string",
          "name": "location",
          "type": "string"
        },
        {
          "internalType": "string",
          "name": "description",
          "type": "string"
        },
        {
          "internalType": "string",
          "name": "proof",
          "type": "string"
        },
        {
          "internalType": "address",
          "name": "recordedBy",
          "type": "address"
        }
      ],
      "stateMutability": "view",
      "type": "function"
    },
    {
      "inputs": [
        {
          "internalType": "bytes4",
          "name": "interfaceId",
          "type": "bytes4"
        }
      ],
      "name": "supportsInterface",
      "outputs": [
        {
          "internalType": "bool",
          "name": "",
          "type": "bool"
        }
      ],
      "stateMutability": "view",
      "type": "function"
    },
    {
      "inputs": [],
      "name": "symbol",
      "outputs": [
        {
          "internalType": "string",
          "name": "",
          "type": "string"
        }
      ],
      "stateMutability": "view",
      "type": "function"
    },
    {
      "inputs": [
        {
          "internalType": "uint256",
          "name": "tokenId",
          "type": "uint256"
        }
      ],
      "name": "tokenURI",
      "outputs": [
        {
          "internalType": "string",
          "name": "",
          "type": "string"
        }
      ],
      "stateMutability": "view",
      "type": "function"
    },
    {
      "inputs": [
        {
          "internalType": "uint256",
          "name": "",
          "type": "uint256"
        }
      ],
      "name": "totalNftStakes",
      "outputs": [
        {
          "internalType": "uint256",
          "name": "",
          "type": "uint256"
        }
      ],
      "stateMutability": "view",
      "type": "function"
    },
    {
      "inputs": [],
      "name": "totalSupply",
      "outputs": [
        {
          "internalType": "uint256",
          "name": "",
          "type": "uint256"
        }
      ],
      "stateMutability": "view",
      "type": "function"
    },
    {
      "inputs": [
        {
          "internalType": "address",
          "name": "from",
          "type": "address"
        },
        {
          "internalType": "address",
          "name": "to",
          "type": "address"
        },
        {
          "internalType": "uint256",
          "name": "tokenId",
          "type": "uint256"
        }
      ],
      "name": "transferFrom",
      "outputs": [],
      "stateMutability": "nonpayable",
      "type": "function"
    },
    {
      "inputs": [
        {
          "internalType": "address",
          "name": "newOwner",
          "type": "address"
        }
      ],
      "name": "transferOwnership",
      "outputs": [],
      "stateMutability": "nonpayable",
      "type": "function"
    },
    {
      "inputs": [
        {
          "internalType": "uint256",
          "name": "tokenId",
          "type": "uint256"
        }
      ],
      "name": "unstakeNFT",
      "outputs": [],
      "stateMutability": "nonpayable",
      "type": "function"
    },
    {
      "inputs": [
        {
          "internalType": "uint256",
          "name": "_minValidatorApprovals",
          "type": "uint256"
        }
      ],
      "name": "updateBridgeParameters",
      "outputs": [],
      "stateMutability": "nonpayable",
      "type": "function"
    },
    {
      "inputs": [
        {
          "internalType": "uint256",
          "name": "tokenId",
          "type": "uint256"
        },
        {
          "internalType": "uint256",
          "name": "score",
          "type": "uint256"
        }
      ],
      "name": "updateQualityScore",
      "outputs": [],
      "stateMutability": "nonpayable",
      "type": "function"
    },
    {
      "inputs": [
        {
          "internalType": "uint256",
          "name": "_stakingRate",
          "type": "uint256"
        },
        {
          "internalType": "uint256",
          "name": "_fractionalBonus",
          "type": "uint256"
        }
      ],
      "name": "updateRewardRates",
      "outputs": [],
      "stateMutability": "nonpayable",
      "type": "function"
    },
    {
      "inputs": [
        {
          "internalType": "uint256",
          "name": "_baseRewardRate",
          "type": "uint256"
        },
        {
          "internalType": "uint256",
          "name": "_qualityBonus",
          "type": "uint256"
        },
        {
          "internalType": "uint256",
          "name": "_longTermBonus",
          "type": "uint256"
        },
        {
          "internalType": "uint256",
          "name": "_maxLongTermBonus",
          "type": "uint256"
        }
      ],
      "name": "updateStakingParameters",
      "outputs": [],
      "stateMutability": "nonpayable",
      "type": "function"
    },
    {
      "inputs": [
        {
          "internalType": "uint256",
          "name": "tokenId",
          "type": "uint256"
        },
        {
          "internalType": "uint256",
          "name": "predictedYield",
          "type": "uint256"
        },
        {
          "internalType": "uint256",
          "name": "confidence",
          "type": "uint256"
        },
        {
          "internalType": "string",
          "name": "modelVersion",
          "type": "string"
        }
      ],
      "name": "updateYieldPrediction",
      "outputs": [],
      "stateMutability": "nonpayable",
      "type": "function"
    },
    {
      "inputs": [
        {
          "internalType": "address",
          "name": "newImplementation",
          "type": "address"
        },
        {
          "internalType": "bytes",
          "name": "data",
          "type": "bytes"
        }
      ],
      "name": "upgradeToAndCall",
      "outputs": [],
      "stateMutability": "payable",
      "type": "function"
    },
    {
      "inputs": [
        {
          "internalType": "uint256",
          "name": "tokenId",
          "type": "uint256"
        },
        {
          "internalType": "uint256",
          "name": "actualYield",
          "type": "uint256"
        }
      ],
      "name": "validateYieldPrediction",
      "outputs": [],
      "stateMutability": "nonpayable",
      "type": "function"
    },
    {
      "inputs": [],
      "name": "yieldOracle",
      "outputs": [
        {
          "internalType": "address",
          "name": "",
          "type": "address"
        }
      ],
      "stateMutability": "view",
      "type": "function"
    },
    {
      "inputs": [
        {
          "internalType": "uint256",
          "name": "",
          "type": "uint256"
        }
      ],
      "name": "yieldPredictions",
      "outputs": [
        {
          "internalType": "uint256",
          "name": "predictedYield",
          "type": "uint256"
        },
        {
          "internalType": "uint256",
          "name": "confidence",
          "type": "uint256"
        },
        {
          "internalType": "uint256",
          "name": "predictionTime",
          "type": "uint256"
        },
        {
          "internalType": "string",
          "name": "modelVersion",
          "type": "string"
        },
        {
          "internalType": "bytes32",
          "name": "predictionHash",
          "type": "bytes32"
        }
      ],
      "stateMutability": "view",
      "type": "function"
    }
  ],
  "bytecode": "0x60a0806040523460295730608052617a2b908161002f8239608051818181612eed0152612faa0152f35b600080fdfe608080604052600436101561001357600080fd5b600090813560e01c90816301ffc9a7146155ae57508063053f56d61461127a578063062c9d09146152ae57806306de99b61461501d57806306fdde0314614f38578063081812fc14614edb578063093106a614614ebd578063095ea7b314614d7b5780630f3e955614614d4d57806310fce28514614cfd578063134e18f414614cd657806318160ddd14614cb95780631bc8f08b14614c8f57806323b872dd14614c77578063260573fc14614a725780632dee61a314614a485780632eafbd1d1461412057806332a3692514613f515780633990c8ae14613e4b5780633c919b1b146132d2578063427446c8146132b457806342842e0e1461328457806343c75a4b1461324f57806346f5432814613231578063499d7f96146131f95780634f1ef28614612f6a5780634f3fc2df14612f4c57806352d1902d14612ed2578063575ad68614612e88578063597963d214612d1157806360c2908614612cc95780636352211e14612c995780636609af2f14612ba057806367206e3314612b245780636b69e05b146129735780636eb604e0146127c457806370a0823114612727578063715018a6146126b25780637c42b557146125fc5780637d6996061461258c5780637f0ebb03146125285780637fcdce30146125055780638129fc1c14611e7457806382c27b2214611e1d578063889e01a4146118325780638aee812714611db95780638da5cb5b14611d8557806395d89b4114611c7857806397ba18ae14611c085780639948fd0014611a995780639a53b070146119da5780639a7a0c96146119395780639ccfd14c1461186f5780639ecee3c3146118325780639f0b7c4a146117ed5780639f4a8f6e14611568578063a01cc6e514611504578063a22cb46514611413578063a28f5d75146112a4578063a33425ea1461127a578063a3c2710d1461125c578063a631b69214610fb1578063a7f0e34214610f8a578063a826abb014610f6c578063aa4704f314610df0578063ace09eab14610ce5578063ad3cb1cc14610c84578063b3e2656614610c5d578063b86b19de14610c2e578063b88d4fde14610bce578063ba4052bb14610bb0578063bcead21814610b5e578063c1dfa0bb146109bd578063c87b56dd1461097b578063d0870cc0146108ac578063d3d2fd831461088e578063de0a5e99146106f8578063e985e9c514610674578063ee31b10f14610548578063f2fde38b1461051b578063f306ee05146104d2578063f78f1f7c1461049f578063f7c618c1146104785763f978c8d2146103bd57600080fd5b34610475576020366003190112610475576004358152601960205260408120604051908160208254918281520190819285526020852090855b818110610456575050508261040c910383615805565b604051928392602084019060208552518091526040840192915b818110610434575050500390f35b82516001600160a01b0316845285945060209384019390920191600101610426565b82546001600160a01b03168452602090930192600192830192016103f6565b80fd5b503461047557806003193601126104755760206001600160a01b03601c5416604051908152f35b5034610475576020366003190112610475576001600160a01b036040602092600435815260058452205416604051908152f35b5034610475576020366003190112610475576001600160a01b0360406020926004358082526006855261050a60ff8484205416615dbf565b815260058452205416604051908152f35b503461047557602036600319011261047557610545610538615682565b610540616191565b616091565b80f35b5034610475576020366003190112610475576004358152600160205260409020805460018201546001600160a01b03169160028101610586906158f0565b90610593600382016158f0565b906004810154600582016105a6906158f0565b60068301546007840154600885015491926105c3600987016158f0565b94600a87015460ff1697600b88015497600c016105df906158f0565b996040519c8d9c8d5260208d015260408c016101a090526101a08c01610604916156cf565b8b810360608d0152610615916156cf565b9060808b015289810360a08b015261062c916156cf565b9260c089015260e088015261010087015285810361012087015261064f916156cf565b911515610140850152610160840152828103610180840152610670916156cf565b0390f35b5034610475576040366003190112610475576001600160a01b036106db610699615682565b6106a1615667565b93506001600160a01b03166000527f80bb2b638cc20bc4d0a60d66940f3ab4a00c1d7b313497ca82fb0b4ab0079305602052604060002090565b9116600052602052602060ff604060002054166040519015158152f35b5034610475576020366003190112610475576004358152600360205260408120805461072381615fb4565b906107316040519283615805565b80825260208201809385526020852085915b83831061081457868587604051928392602084019060208552518091526040840160408260051b8601019392905b82821061078057505050500390f35b919360019193955060208091603f198982030185528751908151815260a06001600160a01b03816107fd6107eb6107d96107c78989015160c08b8a015260c08901906156cf565b604089015188820360408a01526156cf565b606088015187820360608901526156cf565b608087015186820360808801526156cf565b940151169101529601920192018594939192610771565b60066020600192604051610827816157b1565b855481526108368587016158f0565b83820152610846600287016158f0565b6040820152610857600387016158f0565b6060820152610868600487016158f0565b60808201526001600160a01b0360058701541660a0820152815201920192019190610743565b50346104755780600319360112610475576020601454604051908152f35b5034610475576108bb3661572e565b9082526003602052604082208054821015610977576108da9250615994565b5080546108e9600183016158f0565b9161096d6108f9600283016158f0565b9161095f610909600383016158f0565b6109516001600160a01b036005610922600487016158f0565b9501541695610943604051998a998a5260c060208b015260c08a01906156cf565b9088820360408a01526156cf565b9086820360608801526156cf565b9084820360808601526156cf565b9060a08301520390f35b8280fd5b5034610475576020366003190112610475576109a960096040610670936004358152600160205220016158f0565b6040519182916020835260208301906156cf565b5034610475576020366003190112610475576004356109da6167c1565b808252600f602052604082206001600160a01b033316600052602052610a0a60ff60036040600020015416615fcc565b808252600f602052604082206001600160a01b03331660005260205260406000206003610a38825442616024565b910160ff198154169055818352601060205260408320610a588154616017565b905533835260116020526040832091835b835480821015610b545782610a7e8387615888565b90549060031b1c14610a935750600101610a69565b929391926000198101908111610b40578291610ac6610ab8610adf93610ae496615888565b90549060031b1c9184615888565b90919082549060031b91821b91600019901b1916179055565b616031565b610aed3361683a565b6040519182527f3ae380bb6fbc0ce7bfc28639ae95e9af825ce794cb6f5a46d4cc13a36adec83b60203393a360017f9b779b17422d0df92223018b32b4d1fa46e071723d6817e2486d003becc55f005580f35b602486634e487b7160e01b81526011600452fd5b5050909150610ae4565b5034610475576020366003190112610475576004358152600860209081526040918290208054600182015460028301546003909301548551928352938201529283015260ff1615156060820152608090f35b50346104755780600319360112610475576020601554604051908152f35b503461047557608036600319011261047557610be8615682565b610bf0615667565b906044356064359267ffffffffffffffff8411610c2a57610c18610545943690600401615843565b92610c24838383615a23565b33616a1f565b8480fd5b50346104755760203660031901126104755760ff60406020926004358152600684522054166040519015158152f35b503461047557806003193601126104755760206001600160a01b03600b5416604051908152f35b503461047557806003193601126104755750610670604051610ca7604082615805565b600581527f352e302e3000000000000000000000000000000000000000000000000000000060208201526040519182916020835260208301906156cf565b5034610475576020366003190112610475576001600160a01b03610d07615682565b610d0f616191565b168015610dac57808252601860205260ff604083205416610d6857808252601860205260408220805460ff191660011790557f8207e040f4448c888ccb340265ff124856642824a63330c2962530d709a6b2198280a280f35b606460405162461bcd60e51b815260206004820152601360248201527f416c726561647920612076616c696461746f72000000000000000000000000006044820152fd5b606460405162461bcd60e51b815260206004820152601960248201527f496e76616c69642076616c696461746f722061646472657373000000000000006044820152fd5b5034610475576020366003190112610475576001600160a01b03610e12615682565b16908181526011602052610e28604082206159b0565b9182519180610e3960175442616024565b918195825b8151811015610f4057610e518183616070565b51808552600f6020526040808620600090898252602052209060405191610e77836157e9565b805483526001810154602084015260ff60036002830154928360408701520154161515806060850152610eb0575b505050600101610e3e565b610ebb919295616084565b9386610ec8575b80610ea5565b610ed6909992995142616024565b610ef2610eec610ee68985616960565b93616991565b916169c8565b90612710018061271011610f2c57610f1d610f2493610f176001969461271094616084565b90615ec9565b0490616084565b979038610ec2565b602487634e487b7160e01b81526011600452fd5b60608784610f5a8b6040898c815260126020522054616084565b60405192835260208301526040820152f35b50346104755780600319360112610475576020601354604051908152f35b503461047557806003193601126104755760206001600160a01b03600e5416604051908152f35b5034610475576080366003190112610475576024359060043560443560643567ffffffffffffffff811161125857610fed903690600401615843565b936001600160a01b03600e541633148015611232575b61100c90615e42565b604051602081019084825282604082015283606082015261105060206080838a5161103d818d8686860191016156ac565b8101428382015203018084520182615805565b51902094604051611060816157cd565b8281526020810196848852604082014281526060830198848a5260808401928352878952600a602052604089209351845551600184015551600283015560038201975197885167ffffffffffffffff811161121e576110bf82546158b6565b601f81116111e3575b506020601f8211600114611155579181611144969594926004948c9d7fdad430e26670a06b78541b5ef872e4c554fcc8aa862e0f65be4cb2df451fc8f79c9d9261114a575b50508160011b916000199060031b1c19161790555b51910155604051938493845260208401526060604084015260608301906156cf565b0390a280f35b01519050388061110d565b828a52808a209a601f1983168b5b8181106111cb5750927fdad430e26670a06b78541b5ef872e4c554fcc8aa862e0f65be4cb2df451fc8f79a9b9c60049593600193836111449b9a9997106111b2575b505050811b019055611122565b015160001960f88460031b161c191690553880806111a5565b838301518e556001909d019c60209384019301611163565b61120e90838b5260208b20601f840160051c81019160208510611214575b601f0160051c0190615eb2565b386110c8565b9091508190611201565b602489634e487b7160e01b81526041600452fd5b5061100c6001600160a01b036000805160206179d6833981519152541633149050611003565b8380fd5b50346104755780600319360112610475576020601754604051908152f35b50346104755760203660031901126104755760406020916004358152600483522054604051908152f35b5034610475576040366003190112610475576004356112c1615667565b906112ca616191565b808352600f602052604083206001600160a01b0383166000526020526112fa60ff60036040600020015416615fcc565b808352600f602052604083206001600160a01b0383166000526020526001600160a01b036040600020926003840160ff1981541690558285526010602052604085206113468154616017565b9055169081845260116020526040842092845b8454808210156113e1578361136e8388615888565b90549060031b1c146113835750600101611359565b60009592939495198101908111610f2c57926113d083610adf6113d794610ac6610ab87f3ae380bb6fbc0ce7bfc28639ae95e9af825ce794cb6f5a46d4cc13a36adec83b99602099615888565b5442616024565b604051908152a380f35b50507f3ae380bb6fbc0ce7bfc28639ae95e9af825ce794cb6f5a46d4cc13a36adec83b919293506113d76020916113d0565b50346104755760403660031901126104755761142d615682565b6024359081151590818303611258576001600160a01b03169182156114d8576114a99061148c336001600160a01b03166000527f80bb2b638cc20bc4d0a60d66940f3ab4a00c1d7b313497ca82fb0b4ab0079305602052604060002090565b8460005260205260406000209060ff801983541691151516179055565b6040519081527f17307eab39ab6107e8899845ad3d59bd9653f200f220920489ca2b5937696c3160203392a380f35b602484847f5b08ba18000000000000000000000000000000000000000000000000000000008252600452fd5b5034610475576020366003190112610475576001600160a01b03611526615682565b61152e616191565b16806001600160a01b0319600e541617600e557f0a45367c3265095eed2b96cf6472f96130e43bbeebdb30dda6215939bc118ab58280a280f35b50346104755760803660031901126104755760243560043560443567ffffffffffffffff8111611258576115a0903690600401615843565b60643567ffffffffffffffff8111610c2a576115c0903690600401615843565b906115dd6115cd8461612c565b6001600160a01b03163314615f1e565b828552600660205260ff6040862054166117a95783156117655760405191610c20918284019284841067ffffffffffffffff851117611751576116458594936116378894606094616db689396080875260808701906156cf565b9085820360208701526156cf565b923060408201520152039084f08015611746576001600160a01b03908285526005602052604085208282166001600160a01b03198254161790558285526007602052836040862055828552600660205260408520600160ff198254161790551691823b15611258576040517f40c10f19000000000000000000000000000000000000000000000000000000008152336004820152602481018290528490818160448183895af1801561173b57611726575b505060207f600058ea79aafd4030fd17418be0859b4296fbd72ed16e64f195d69494cf50b891604051908152a380f35b8161173091615805565b6112585783386116f6565b6040513d84823e3d90fd5b6040513d85823e3d90fd5b602488634e487b7160e01b81526041600452fd5b606460405162461bcd60e51b815260206004820152601860248201527f546f74616c20736861726573206d757374206265203e203000000000000000006044820152fd5b606460405162461bcd60e51b815260206004820152601660248201527f416c7265616479206672616374696f6e616c697a6564000000000000000000006044820152fd5b5034610475576020366003190112610475576118266040610670926001600160a01b03611818615682565b1681526002602052206159b0565b604051918291826156f4565b50346104755760203660031901126104755760ff60406020926001600160a01b0361185b615682565b168152601884522054166040519015158152f35b5034610475576020366003190112610475578060409160808351611892816157cd565b828152826020820152828582015260608082015201526004358152600a602052206040516118bf816157cd565b815481526001820154916020820192835261192e6002820154916040840192835260046118ee600383016158f0565b916060860192835201549260808501938452604051958695602087525160208701525160408601525160608501525160a0608085015260c08401906156cf565b905160a08301520390f35b5034610475576119483661572e565b611950616191565b606481116119965760207f7d4e15ad89c15fafb297e051ed80a23a36b8d4824d2b877136d4f804d94dd0f1918385526001825280600b604087200155604051908152a280f35b606460405162461bcd60e51b815260206004820152601360248201527f53636f7265206d75737420626520302d313030000000000000000000000000006044820152fd5b5034610475576020366003190112610475576001600160a01b036119fc615682565b611a04616191565b16808252601860205260ff60408320541615611a5557808252601860205260408220805460ff191690557f78c1b6e2c928d89e7295ddf04b58fe1518b96d2a00828edd3dfc80eec3848ebf8280a280f35b606460405162461bcd60e51b815260206004820152600f60248201527f4e6f7420612076616c696461746f7200000000000000000000000000000000006044820152fd5b50346104755760603660031901126104755760043560243560443567ffffffffffffffff8111611258577f3391622987dbdf5f0694634bb0d96a4bac98fc41a9f4142720be3c503ba057fd91611af56020923690600401615843565b611afe8561612c565b6001600160a01b031633148015611be2575b611b1990615e42565b84865260018352611b3360ff600a60408920015416615f69565b84865260018352611bda6040872091426008840155836006840155600a830160ff198154169055604092611b9e6003855192611b6f8785615805565b600a84527f68617276657374696e670000000000000000000000000000000000000000000089850152016158f0565b845191611bab8684615805565b600e83527f43726f702068617276657374656400000000000000000000000000000000000088840152896162a3565b51908152a280f35b50611b196001600160a01b036000805160206179d6833981519152541633149050611b10565b5034610475576020366003190112610475576040906004358152600a602052208054600182015491611c6e6002820154916004611c47600383016158f0565b9101549260405195869586526020860152604085015260a0606085015260a08401906156cf565b9060808301520390f35b503461047557806003193601126104755760405190807f80bb2b638cc20bc4d0a60d66940f3ab4a00c1d7b313497ca82fb0b4ab00793015490611cba826158b6565b8085529160018116908115611d5e5750600114611ce2575b610670846109a981860382615805565b7f80bb2b638cc20bc4d0a60d66940f3ab4a00c1d7b313497ca82fb0b4ab007930181527ff4bad0a69248f59680a4f2b3000328cec71a413447c96781cfe5996daa8c456e939250905b808210611d44575090915081016020016109a982611cd2565b919260018160209254838588010152019101909291611d2b565b60ff191660208087019190915292151560051b850190920192506109a99150839050611cd2565b503461047557806003193601126104755760206001600160a01b036000805160206179d68339815191525416604051908152f35b5034610475576020366003190112610475576001600160a01b03611ddb615682565b611de3616191565b16806001600160a01b0319601c541617601c557f2d6b04df9b7d358407d1a014f1114b064add34c19d63d395db155a7e533e967a8280a280f35b503461047557604036600319011261047557611e37615682565b6001600160a01b0316815260116020526040812080546024359290831015610475576020611e658484615888565b90549060031b1c604051908152f35b50346104755780600319360112610475577ff0c57e16840df040f15088dc2f81fe391c3923bec73e23a9662efc9c229c6a00549060ff8260401c16159167ffffffffffffffff8116801590816124fd575b60011490816124f3575b1590816124ea575b506124c25767ffffffffffffffff1981166001177ff0c57e16840df040f15088dc2f81fe391c3923bec73e23a9662efc9c229c6a005582612483575b506040805192611f238285615805565b601384527f41677269437265646974204661726d204e4654000000000000000000000000006020850152815193611f5a8386615805565b600485527f4641524d000000000000000000000000000000000000000000000000000000006020860152611f8c616ccc565b611f94616ccc565b80519067ffffffffffffffff821161246f578190611fd27f80bb2b638cc20bc4d0a60d66940f3ab4a00c1d7b313497ca82fb0b4ab0079300546158b6565b601f81116123b9575b50602090601f83116001146122f85786926122ed575b50508160011b916000199060031b1c1916177f80bb2b638cc20bc4d0a60d66940f3ab4a00c1d7b313497ca82fb0b4ab0079300555b835167ffffffffffffffff81116122d9576120617f80bb2b638cc20bc4d0a60d66940f3ab4a00c1d7b313497ca82fb0b4ab0079301546158b6565b601f811161226c575b50602094601f82116001146121ca5794849582939495926121bf575b50508160011b916000199060031b1c1916177f80bb2b638cc20bc4d0a60d66940f3ab4a00c1d7b313497ca82fb0b4ab0079301555b6120c3616ccc565b6120cb616ccc565b6120d433616091565b6120dc616ccc565b6120e4616ccc565b60017f9b779b17422d0df92223018b32b4d1fa46e071723d6817e2486d003becc55f0055612110616ccc565b6101f4600c5560c8600d556101f460135560c860145560646015556101f46016556002601a5542601755612142575080f35b60207fc7f505b2f371ae2175ee4913f4499e1f2633a7b5936321eed1cdaeb6115181d29168ff0000000000000000197ff0c57e16840df040f15088dc2f81fe391c3923bec73e23a9662efc9c229c6a0054167ff0c57e16840df040f15088dc2f81fe391c3923bec73e23a9662efc9c229c6a00555160018152a180f35b015190503880612086565b601f198216957f80bb2b638cc20bc4d0a60d66940f3ab4a00c1d7b313497ca82fb0b4ab0079301865280862091865b8881106122545750836001959697981061223b575b505050811b017f80bb2b638cc20bc4d0a60d66940f3ab4a00c1d7b313497ca82fb0b4ab0079301556120bb565b015160001960f88460031b161c1916905538808061220e565b919260206001819286850151815501940192016121f9565b7f80bb2b638cc20bc4d0a60d66940f3ab4a00c1d7b313497ca82fb0b4ab007930185526122d3907ff4bad0a69248f59680a4f2b3000328cec71a413447c96781cfe5996daa8c456e601f840160051c8101916020851061121457601f0160051c0190615eb2565b3861206a565b602484634e487b7160e01b81526041600452fd5b015190503880611ff1565b7f80bb2b638cc20bc4d0a60d66940f3ab4a00c1d7b313497ca82fb0b4ab007930087527f37c58c799b6609234b945e882912ee9ad34948a1dfaa20a97485e1a7752bbf819250601f198416875b8181106123a15750908460019594939210612388575b505050811b017f80bb2b638cc20bc4d0a60d66940f3ab4a00c1d7b313497ca82fb0b4ab007930055612026565b015160001960f88460031b161c1916905538808061235b565b92936020600181928786015181550195019301612345565b612441907f80bb2b638cc20bc4d0a60d66940f3ab4a00c1d7b313497ca82fb0b4ab00793008852601f840160051c7f37c58c799b6609234b945e882912ee9ad34948a1dfaa20a97485e1a7752bbf81019060208510612447575b601f0160051c7f37c58c799b6609234b945e882912ee9ad34948a1dfaa20a97485e1a7752bbf810190615eb2565b38611fdb565b7f37c58c799b6609234b945e882912ee9ad34948a1dfaa20a97485e1a7752bbf819150612413565b602485634e487b7160e01b81526041600452fd5b68ffffffffffffffffff191668010000000000000001177ff0c57e16840df040f15088dc2f81fe391c3923bec73e23a9662efc9c229c6a005538611f13565b6004827ff92ee8a9000000000000000000000000000000000000000000000000000000008152fd5b90501538611ed7565b303b159150611ecf565b849150611ec5565b50346104755760203660031901126104755761251f616191565b600435601a5580f35b5034610475576020366003190112610475576001600160a01b0361254a615682565b612552616191565b16806001600160a01b0319600b541617600b557f114be21c75640466cbc0aaabbcc6f9ccf7217e6eb0294901fd357e0f78924f8e8280a280f35b503461047557602036600319011261047557604060c09160043581526009602052208054906001810154906001600160a01b03600282015416600382015490600560ff600485015416930154936040519586526020860152604085015260608401521515608083015260a0820152f35b50346104755760207f0a2ff6bfacd0f15d63c48085f8c0ac87c7aff0342aa45ee4a5e1f4fc9a9f272f61262e3661572e565b61263982949261612c565b6001600160a01b03163314801561268c575b61265490615e42565b8385526001825261266b81600d60408820016159fb565b83855260048252604085206126808154615e8d565b9055604051908152a280f35b506126546001600160a01b036000805160206179d683398151915254163314905061264b565b50346104755780600319360112610475576126cb616191565b806001600160a01b036000805160206179d6833981519152546001600160a01b031981166000805160206179d683398151915255167f8be0079c531659141344cd1fd0a4f28419497f9722a3daafe3b4186f6b6457e08280a380f35b503461047557602036600319011261047557612741615682565b906001600160a01b0382161561279857602061278f836001600160a01b03166000527f80bb2b638cc20bc4d0a60d66940f3ab4a00c1d7b313497ca82fb0b4ab0079303602052604060002090565b54604051908152f35b807f89c62b64000000000000000000000000000000000000000000000000000000006024925280600452fd5b5034610475576020366003190112610475576004356127e16167c1565b6127ed6115cd8261612c565b808252600160205261280860ff600a60408520015416615f69565b808252600f602052604082206001600160a01b03331660005260205260ff6003604060002001541661292f576128a5604051612843816157e9565b42815260036020820142815260408301868152606084019160018352868852600f60205260408089206000906001600160a01b0333168252602052209451855551600185015551600284015551151591019060ff801983541691151516179055565b8082526010602052604082206128bb8154615e8d565b905533825260116020526128d281604084206159fb565b6128db3361683a565b604051904282527f7c403feabc47b424ca9fce0347ba2dbf96bc829f0ea06c10ebc13b50e6f6590360203393a360017f9b779b17422d0df92223018b32b4d1fa46e071723d6817e2486d003becc55f005580f35b606460405162461bcd60e51b815260206004820152600e60248201527f416c7265616479207374616b65640000000000000000000000000000000000006044820152fd5b503461047557806003193601126104755761298c6167c1565b6129953361683a565b338152601260205260408120548015612ae05733808352601260209081526040808520859055601c5490517fa9059cbb0000000000000000000000000000000000000000000000000000000081526004810193909352602483018490528290604490829087906001600160a01b03165af1908115611746578391612ab1575b5015612a6d576040519081527ffc30cddea38e2bf4d6ea7d3f9ed3b6ad7f176419f4963bd81318067a4aee73fe60203392a260017f9b779b17422d0df92223018b32b4d1fa46e071723d6817e2486d003becc55f005580f35b606460405162461bcd60e51b815260206004820152601660248201527f526577617264207472616e73666572206661696c6564000000000000000000006044820152fd5b612ad3915060203d602011612ad9575b612acb8183615805565b810190615e2a565b38612a14565b503d612ac1565b606460405162461bcd60e51b815260206004820152601360248201527f4e6f207265776172647320746f20636c61696d000000000000000000000000006044820152fd5b50346104755760403660031901126104755760409081612b42615667565b916004358152600f602052206001600160a01b0360009216825260205220805461067060018301549260ff60036002830154920154169060405194859485926060929594919560808501968552602085015260408401521515910152565b503461047557606036600319011261047557600435612bbd615667565b9060443567ffffffffffffffff811161125857612bde903690600401615843565b90612beb6115cd8261612c565b815115612c55578084526019602052612c0c60408520805490868155615edc565b7f4680954bfd1cbbd6c5d1761ca8722c511c757a63228ca10356802ecbf97a9f4a6001600160a01b036040519460208652169380612c4f339560208301906156cf565b0390a480f35b606460405162461bcd60e51b815260206004820152601960248201527f496e76616c69642064657374696e6174696f6e20636861696e000000000000006044820152fd5b5034610475576020366003190112610475576020612cb860043561612c565b6001600160a01b0360405191168152f35b503461047557604036600319011261047557612ce3615682565b6001600160a01b0316815260026020526040812080546024359290831015610475576020611e658484615888565b503461047557612d203661572e565b612d28616191565b818352600a6020526040832060405190612d41826157cd565b8054825260018101546020830152600460028201549160408401928352612d6a600382016158f0565b6060850152015460808301525115612e445780518210612de85751606481029080820460641490151715612dd45781612dc67fa54d955b06a12c6ae9c0cc5bf79fb1397362abd1198ba578fafc00510498a98493604093615e0a565b82519182526020820152a280f35b602484634e487b7160e01b81526011600452fd5b606482029082820460641483151715612e305791612e2b6040927fa54d955b06a12c6ae9c0cc5bf79fb1397362abd1198ba578fafc00510498a984945190615e0a565b612dc6565b602485634e487b7160e01b81526011600452fd5b606460405162461bcd60e51b815260206004820152601760248201527f4e6f2070726564696374696f6e20617661696c61626c650000000000000000006044820152fd5b503461047557612e973661572e565b919081526019602052604081209081548310156104755760206001600160a01b03612ec28585615888565b90549060031b1c16604051908152f35b50346104755780600319360112610475576001600160a01b037f0000000000000000000000000000000000000000000000000000000000000000163003612f3d5760206040517f360894a13ba1a3210667c828492db98dca3e2076cc3735a920a3ca505d382bbc8152f35b8063703e46dd60e11b60049252fd5b50346104755780600319360112610475576020600c54604051908152f35b50604036600319011261047557612f7f615682565b9060243567ffffffffffffffff81116131f557612fa0903690600401615843565b6001600160a01b037f0000000000000000000000000000000000000000000000000000000000000000168030149081156131c0575b506131b157612fe2616191565b6001600160a01b03831690604051937f52d1902d000000000000000000000000000000000000000000000000000000008552602085600481865afa8095859661317d575b5061303e5760248484634c9c8ce360e01b8252600452fd5b9091847f360894a13ba1a3210667c828492db98dca3e2076cc3735a920a3ca505d382bbc81036131525750813b1561314057806001600160a01b03197f360894a13ba1a3210667c828492db98dca3e2076cc3735a920a3ca505d382bbc5416177f360894a13ba1a3210667c828492db98dca3e2076cc3735a920a3ca505d382bbc557fbc7cd75a20ee27fd9adebab32041f755214dbc6bffa90cc0225b39da2e5c2d3b8480a2815183901561310d578083602061310995519101845af46131036169ef565b91616d25565b5080f35b505050346131185780f35b807fb398979f0000000000000000000000000000000000000000000000000000000060049252fd5b634c9c8ce360e01b8452600452602483fd5b7faa1d49a4000000000000000000000000000000000000000000000000000000008552600452602484fd5b9095506020813d6020116131a9575b8161319960209383615805565b81010312610c2a57519438613026565b3d915061318c565b60048263703e46dd60e11b8152fd5b90506001600160a01b037f360894a13ba1a3210667c828492db98dca3e2076cc3735a920a3ca505d382bbc5416141538612fd5565b5080fd5b50346104755760203660031901126104755760406020916001600160a01b03613220615682565b168152601283522054604051908152f35b50346104755780600319360112610475576020601654604051908152f35b503461047557608036600319011261047557613269616191565b60043560135560243560145560443560155560643560165580f35b50346104755761054561329636615744565b90604051926132a6602085615805565b858452610c24838383615a23565b50346104755780600319360112610475576020600d54604051908152f35b50346104755760203660031901126104755760043567ffffffffffffffff81116131f557366023820112156131f557806004013567ffffffffffffffff8111610977578101366024820111610977576001600160a01b03600b54163303613e075760a0828203126109775761334960648301615698565b61335560848401615698565b9060a48401359267ffffffffffffffff8411613e03576101c0858501820312613e0357604051936133858561577e565b8581016024810135865261339b90604401615698565b60208601526064818701013567ffffffffffffffff8111613dff576133ca90602480850191848a010101615843565b60408601526084818701013567ffffffffffffffff8111613dff576133f990602480850191848a010101615843565b606086015285810160a4810135608087015260c4013567ffffffffffffffff8111613dff5761343290602480850191848a010101615843565b60a086015285810160e481013560c087015261010481013560e0870152610124810135610100870152610144013567ffffffffffffffff8111613dff5761348390602480850191848a010101615843565b61012086015261016481870101358015158103613dff576101408601528581016101848101356101608701526101a4013567ffffffffffffffff8111613dff576134d790602480850191848a010101615843565b61018086015267ffffffffffffffff6101c4828801013511613a84576024820160438783016101c481013501011215613a84576135208682016101c48101350160240135615fb4565b9161352e6040519384615805565b60246101c4838901908101350181810135808652602086019390920160059290921b0160440111613dff5760448783016101c48101350101905b60448884016101c481013501602481013560051b01018210613def575050506101a08401526135978554615e8d565b92838655838652600160205260408620815181556001600160a01b036020830151166001600160a01b036001830191166001600160a01b0319825416179055604082015180519067ffffffffffffffff821161121e5781906135fc60028501546158b6565b601f8111613dbc575b50602090601f8311600114613d53578a92613d48575b50508160011b916000199060031b1c19161760028201555b606082015180519067ffffffffffffffff821161121e57819061365960038501546158b6565b601f8111613d15575b50602090601f8311600114613cac578a92613ca1575b50508160011b916000199060031b1c19161760038201555b6080820151600482015560a082015180519067ffffffffffffffff821161121e5781906136c060058501546158b6565b601f8111613c6e575b50602090601f8311600114613c05578a92613bfa575b50508160011b916000199060031b1c19161760058201555b60c0820151600682015560e0820151600782015561010082015160088201556009810161012083015180519067ffffffffffffffff8211613b4857819061373e84546158b6565b601f8111613bca575b50602090601f8311600114613b67578b92613b5c575b50508160011b916000199060031b1c19161790555b6137926101408301511515600a83019060ff801983541691151516179055565b610160820151600b820155600c810161018083015180519067ffffffffffffffff8211613b48576137c383546158b6565b601f8111613b18575b50602090601f8311600114613aae579180600d94926101a096948d92613aa3575b50508160011b916000199060031b1c19161790555b019101519081519167ffffffffffffffff8311611751576801000000000000000083116117515760209061383b84845481865585615efb565b0190875260208720875b838110613a8f57505050506001600160a01b0382168552600260205261386e83604087206159fb565b602060405161387d8282615805565b868152613893856001600160a01b03861661624c565b6001600160a01b0384163b613971575b50916001600160a01b03916005856139416024968a87604051966138c6886157b1565b8a8d013588528c6044858a0191013581528260408a0192168252604060608a0194888652600960808c01976001895260a08d019a428c5283525220985189555160018901555116886002880191166001600160a01b0319825416179055516003860155511515600485019060ff801983541691151516179055565b5191015516920135907fdceb0c88c5b8d9b80a78ec43030d716a59e17daeed8d3f5b59f1f6cba490b1258480a480f35b816139b291604098979598969493965180938192630a85bd0160e11b83523360048401528a60248401528760448401526080606484015260848301906156cf565b0381896001600160a01b038c165af1869181613a4b575b50613a0257505050506139da6169ef565b80519190826139ff576024846001600160a01b0387633250574960e11b835216600452fd5b01fd5b6001600160e01b0319630a85bd0160e11b9197949697959293951603613a2f576001600160a01b036138a3565b6024866001600160a01b0385633250574960e11b835216600452fd5b9091508581813d8311613a88575b613a638183615805565b81010312613a8457516001600160e01b031981168103613a845790386139c9565b8680fd5b503d613a59565b600190602084519401938184015501613845565b0151905038806137ed565b838b52818b209190601f1984168c5b818110613b0057509260019285926101a09896600d989610613ae7575b505050811b019055613802565b015160001960f88460031b161c19169055388080613ada565b92936020600181928786015181550195019301613abd565b613b4290848c5260208c20601f850160051c8101916020861061121457601f0160051c0190615eb2565b386137cc565b60248a634e487b7160e01b81526041600452fd5b01519050388061375d565b848c52818c209250601f1984168c5b818110613bb25750908460019594939210613b99575b505050811b019055613772565b015160001960f88460031b161c19169055388080613b8c565b92936020600181928786015181550195019301613b76565b613bf490858d5260208d20601f850160051c8101916020861061121457601f0160051c0190615eb2565b38613747565b0151905038806136df565b600585018b52818b209250601f1984168b5b818110613c565750908460019594939210613c3d575b505050811b0160058201556136f7565b015160001960f88460031b161c19169055388080613c2d565b92936020600181928786015181550195019301613c17565b613c9b90600586018c5260208c20601f850160051c8101916020861061121457601f0160051c0190615eb2565b386136c9565b015190503880613678565b600385018b52818b209250601f1984168b5b818110613cfd5750908460019594939210613ce4575b505050811b016003820155613690565b015160001960f88460031b161c19169055388080613cd4565b92936020600181928786015181550195019301613cbe565b613d4290600386018c5260208c20601f850160051c8101916020861061121457601f0160051c0190615eb2565b38613662565b01519050388061361b565b600285018b52818b209250601f1984168b5b818110613da45750908460019594939210613d8b575b505050811b016002820155613633565b015160001960f88460031b161c19169055388080613d7b565b92936020600181928786015181550195019301613d65565b613de990600286018c5260208c20601f850160051c8101916020861061121457601f0160051c0190615eb2565b38613605565b8135815260209182019101613568565b8780fd5b8580fd5b606460405162461bcd60e51b815260206004820152601460248201527f4f6e6c79206272696467652063616e2063616c6c0000000000000000000000006044820152fd5b50346104755760a03660031901126104755760043560243567ffffffffffffffff811161097757613e80903690600401615843565b9060443567ffffffffffffffff811161125857613ea1903690600401615843565b60643567ffffffffffffffff8111610c2a57613ec1903690600401615843565b906084359367ffffffffffffffff8511613e0357613ee6610545953690600401615843565b93613ef08161612c565b6001600160a01b031633148015613f2b575b613f0b90615e42565b8087526001602052613f2660ff600a60408a20015416615f69565b6162a3565b50613f0b6001600160a01b036000805160206179d6833981519152541633149050613f02565b503461047557606036600319011261047557600435602435604435916001600160a01b03831680930361125857613f8a6115cd8261612c565b6001600160a01b03600b5416156140dc57604051613fa7816157b1565b46815260056020820183815261403060408401308152606085018981526001600160a01b0360808701926001845260a0880195428752898d52600960205260408d209851895551600189015551166001600160a01b036002880191166001600160a01b0319825416179055516003860155511515600485019060ff801983541691151516179055565b51910155836001600160a01b03600b5416803b156131f55781906064604051809481937f32a369250000000000000000000000000000000000000000000000000000000083528760048401528860248401528960448401525af180156140d1576140bd575b507f5ef271152e0784a8a3dd4025ad5296d2ec16645af25a20fb626d45cd991d38ae8480a480f35b846140ca91959295615805565b9238614095565b6040513d87823e3d90fd5b606460405162461bcd60e51b815260206004820152600e60248201527f427269646765206e6f74207365740000000000000000000000000000000000006044820152fd5b5034610475576101003660031901126104755761413b615682565b9060243567ffffffffffffffff81116131f55761415c903690600401615843565b60443567ffffffffffffffff81116109775761417c903690600401615843565b9060843567ffffffffffffffff81116112585761419d903690600401615843565b9360c43567ffffffffffffffff8111610c2a576141be903690600401615843565b9360e43567ffffffffffffffff81116131f5576141df903690600401615843565b602460206001600160a01b03601b5416604051928380927ff63ac7620000000000000000000000000000000000000000000000000000000082526001600160a01b03891660048301525afa908115611746578391614a29575b50156149e5576001600160a01b038316331480156149bf575b61425a90615e42565b6142648254615e8d565b95868355604051976142758961577e565b8789526001600160a01b03851660208a01528560408a01528660608a015260643560808a015260a089015260a43560c08901524260e08901528261010089015261012088015260016101408801528161016088015261018087015260606101a0870152848152600160205260408120865181556001600160a01b036020880151166001600160a01b036001830191166001600160a01b031982541617905560028101604088015180519067ffffffffffffffff821161246f57819061433a84546158b6565b601f811161498f575b50602090601f831160011461492c578692614921575b50508160011b916000199060031b1c19161790555b60038101606088015180519067ffffffffffffffff821161246f57819061439584546158b6565b601f81116148f1575b50602090601f831160011461488e578692614883575b50508160011b916000199060031b1c19161790555b608087015160048201556005810160a088015180519067ffffffffffffffff821161246f5781906143fa84546158b6565b601f8111614853575b50602090601f83116001146147f05786926147e5575b50508160011b916000199060031b1c19161790555b60c0870151600682015560e0870151600782015561010087015160088201556009810161012088015180519067ffffffffffffffff821161246f57819061447584546158b6565b601f81116147b5575b50602090601f8311600114614752578692614747575b50508160011b916000199060031b1c19161790555b6144c96101408801511515600a83019060ff801983541691151516179055565b610160870151600b820155600c810161018088015180519067ffffffffffffffff821161246f576144fa83546158b6565b601f8111614717575b50602090601f83116001146146ad579180600d94926101a0969488926146a2575b50508160011b916000199060031b1c19161790555b0196015180519067ffffffffffffffff821161468e5768010000000000000000821161468e57602090614571838a54818c558b615efb565b019682526020822096825b82811061467a576020888888827fd092ac6fb3c491a63184a19c06e0d2d0e9a1b26210fb14cb74278b2b294edd3c6001600160a01b038b61465b8c838316815260028a526145cd86604083206159fb565b6145d7868461624c565b6040978851906145e78a83615805565b600882527f706c616e74696e670000000000000000000000000000000000000000000000008c83015289519161461d8b84615805565b601783527f43726f7020706c616e74696e6720696e697469617465640000000000000000008d8401528a51936146538e86615805565b8452886162a3565b61467186519283928a84521695898301906156cf565b0390a351908152f35b60019060208351930192818b01550161457c565b602483634e487b7160e01b81526041600452fd5b015190503880614524565b8386528186209190601f198416875b8181106146ff57509260019285926101a09896600d9896106146e6575b505050811b019055614539565b015160001960f88460031b161c191690553880806146d9565b929360206001819287860151815501950193016146bc565b6147419084875260208720601f850160051c8101916020861061121457601f0160051c0190615eb2565b38614503565b015190503880614494565b8487528187209250601f198416875b81811061479d5750908460019594939210614784575b505050811b0190556144a9565b015160001960f88460031b161c19169055388080614777565b92936020600181928786015181550195019301614761565b6147df9085885260208820601f850160051c8101916020861061121457601f0160051c0190615eb2565b3861447e565b015190503880614419565b8487528187209250601f198416875b81811061483b5750908460019594939210614822575b505050811b01905561442e565b015160001960f88460031b161c19169055388080614815565b929360206001819287860151815501950193016147ff565b61487d9085885260208820601f850160051c8101916020861061121457601f0160051c0190615eb2565b38614403565b0151905038806143b4565b8487528187209250601f198416875b8181106148d957509084600195949392106148c0575b505050811b0190556143c9565b015160001960f88460031b161c191690553880806148b3565b9293602060018192878601518155019501930161489d565b61491b9085885260208820601f850160051c8101916020861061121457601f0160051c0190615eb2565b3861439e565b015190503880614359565b8487528187209250601f198416875b818110614977575090846001959493921061495e575b505050811b01905561436e565b015160001960f88460031b161c19169055388080614951565b9293602060018192878601518155019501930161493b565b6149b99085885260208820601f850160051c8101916020861061121457601f0160051c0190615eb2565b38614343565b5061425a6001600160a01b036000805160206179d6833981519152541633149050614251565b606460405162461bcd60e51b815260206004820152601360248201527f4661726d6572206e6f74207665726966696564000000000000000000000000006044820152fd5b614a42915060203d602011612ad957612acb8183615805565b38614238565b50346104755760203660031901126104755760406020916004358152600783522054604051908152f35b503461047557602036600319011261047557600435614a8f616191565b8082526006602052614aa760ff604084205416615dbf565b8082526007602090815260408084205483855260019092528084209051614ba490614ad18161577e565b825481526001600160a01b036001840154166020820152614af4600284016158f0565b6040820152614b05600384016158f0565b606082015260048301546080820152614b20600584016158f0565b60a082015260068301549060c08101918252600784015460e08201526008840154610100820152614b53600985016158f0565b61012082015260ff600a8501541615156101408201526101a0614b97600d600b870154966101608501978852614b8b600c82016158f0565b610180860152016159b0565b91015251600c5490615ec9565b62015180810290808204620151801490151715612e30576237b1d090049051603281029080820460321490151715612e305761271001908161271011612e305761271091614bf191615ec9565b0490828452600660205260ff604085205416614c51575b81614c11578380f35b81614c3f6040927f7c11bf89c305ee56c5ef652d0d0679885022763ae49305e9681c0077cc4735ff94615e0a565b82519182526020820152a23880808380f35b90600d5461271001908161271011612e305761271091614c7091615ec9565b0490614c08565b503461047557610545614c8936615744565b91615a23565b50346104755760203660031901126104755760406020916004358152601083522054604051908152f35b503461047557806003193601126104755760209054604051908152f35b503461047557806003193601126104755760206001600160a01b03601b5416604051908152f35b5034610475577f3a5eba49eecf60fc53c136ba452bd9d855af074ee84a8e7d8e7b2070c3e756fa6040614d2f3661572e565b614d37616191565b81600c5580600d5582519182526020820152a180f35b503461047557602036600319011261047557611826600d6040610670936004358152600160205220016159b0565b503461047557604036600319011261047557614d95615682565b602435614da18161612c565b33151580614eaa575b80614e59575b614e2d5781906001600160a01b0380851691167f8c5be1e5ebec7d5bd14f71427d1e84f3dd0314c0f7b2291e5b200ac8c7c3b9258680a482527f80bb2b638cc20bc4d0a60d66940f3ab4a00c1d7b313497ca82fb0b4ab00793046020526001600160a01b036040832091166001600160a01b031982541617905580f35b6024847fa9fbf51f00000000000000000000000000000000000000000000000000000000815233600452fd5b50614e96816001600160a01b03166000527f80bb2b638cc20bc4d0a60d66940f3ab4a00c1d7b313497ca82fb0b4ab0079305602052604060002090565b338552602052604084205460ff1615614db0565b50336001600160a01b0382161415614daa565b50346104755780600319360112610475576020601a54604051908152f35b5034610475576020366003190112610475576020612cb8600435614efe8161612c565b506000527f80bb2b638cc20bc4d0a60d66940f3ab4a00c1d7b313497ca82fb0b4ab00793046020526001600160a01b036040600020541690565b503461047557806003193601126104755760405190807f80bb2b638cc20bc4d0a60d66940f3ab4a00c1d7b313497ca82fb0b4ab00793005490614f7a826158b6565b8085529160018116908115611d5e5750600114614fa157610670846109a981860382615805565b7f80bb2b638cc20bc4d0a60d66940f3ab4a00c1d7b313497ca82fb0b4ab007930081527f37c58c799b6609234b945e882912ee9ad34948a1dfaa20a97485e1a7752bbf81939250905b808210615003575090915081016020016109a982611cd2565b919260018160209254838588010152019101909291614fea565b50346104755760203660031901126104755760405161503b8161577e565b8181528160208201526040810160609052606081016060905281608082015260a08101606090528160c08201528160e08201528161010082015261012081016060905281610140820152816101608201526101808101606090526101a00160609052600435815260016020526040812060405180926150b98261577e565b8254825260018301546001600160a01b03166020830190815292826150e0600283016158f0565b60408201908152916150f4600382016158f0565b6060830190815260048201546080840190815290615114600584016158f0565b60a0850190815260068401549260c0860193845260078501549060e08701918252600886015492610100880193845260098701615150906158f0565b946101208901958652600a88015460ff16996101408a019a15158b52600b890154986101608b01998a52600c8101615187906158f0565b9a610180019a8b52600d0161519b906159b0565b9c6101a0019c8d526040519e8f9e8f9160208352516020830152516001600160a01b03169060400152518d606081016101c090526101e0016151dc916156cf565b90518d8203601f190160808f01526151f491906156cf565b915160a08d0152518b8203601f190160c08d015261521291906156cf565b935160e08b0152516101008a01525161012089015251878203601f190161014089015261523f91906156cf565b925115156101608701525161018086015251848203601f19016101a086015261526891906156cf565b915191601f19848203016101c085015282519081815260200192602001915b818110615295575050500390f35b8251845285945060209384019390920191600101615287565b503461047557604036600319011261047557600435906152cc615667565b91338252601860205260ff6040832054161561556a576001600160a01b036152f38261612c565b1615615526578082526019602052604082208054835b8181106154925750680100000000000000008110156122d9578060016153329201835582615888565b81549060031b906001600160a01b0333831b921b191617905533827f97e39d728bb3fd560c44fcb1b1b0e1618881662b19fe6c4766648dfa1e677f5f8580a354601a54111561537f575080f35b6153888161612c565b6001600160a01b03841693841561547f576153ab836001600160a01b0392616b34565b16806153c45760248484637e27328960e01b8252600452fd5b6001600160a01b0382959495168082036154655750506001600160a01b03906153ed83826161e0565b838552600260205261540283604087206159fb565b828552600160205260016040862001846001600160a01b0319825416179055828552601960205261543b60408620805490878155615edc565b16907f65fafa4ad96fae4995cc481092b12ab907f22047bd15b78e816f0be74864204c8480a48080f35b6364283d7b60e01b86526004526024839052604452606484fd5b602484633250574960e11b815280600452fd5b6001600160a01b036154a48285615888565b905460039190911b1c1633146154bc57600101615309565b608460405162461bcd60e51b815260206004820152602260248201527f416c726561647920617070726f76656420627920746869732076616c6964617460448201527f6f720000000000000000000000000000000000000000000000000000000000006064820152fd5b606460405162461bcd60e51b815260206004820152601260248201527f4e465420646f6573206e6f7420657869737400000000000000000000000000006044820152fd5b606460405162461bcd60e51b815260206004820152601660248201527f4e6f742061206272696467652076616c696461746f72000000000000000000006044820152fd5b9050346131f55760203660031901126131f5576004356001600160e01b0319811680910361097757602092507f80ac58cd00000000000000000000000000000000000000000000000000000000811490811561563d575b8115615613575b5015158152f35b7f01ffc9a7000000000000000000000000000000000000000000000000000000009150143861560c565b7f5b5e139f0000000000000000000000000000000000000000000000000000000081149150615605565b602435906001600160a01b038216820361567d57565b600080fd5b600435906001600160a01b038216820361567d57565b35906001600160a01b038216820361567d57565b60005b8381106156bf5750506000910152565b81810151838201526020016156af565b906020916156e8815180928185528580860191016156ac565b601f01601f1916010190565b602060408183019282815284518094520192019060005b8181106157185750505090565b825184526020938401939092019160010161570b565b604090600319011261567d576004359060243590565b606090600319011261567d576004356001600160a01b038116810361567d57906024356001600160a01b038116810361567d579060443590565b6101c0810190811067ffffffffffffffff82111761579b57604052565b634e487b7160e01b600052604160045260246000fd5b60c0810190811067ffffffffffffffff82111761579b57604052565b60a0810190811067ffffffffffffffff82111761579b57604052565b6080810190811067ffffffffffffffff82111761579b57604052565b90601f8019910116810190811067ffffffffffffffff82111761579b57604052565b67ffffffffffffffff811161579b57601f01601f191660200190565b81601f8201121561567d5760208135910161585d82615827565b9261586b6040519485615805565b8284528282011161567d5781600092602092838601378301015290565b80548210156158a05760005260206000200190600090565b634e487b7160e01b600052603260045260246000fd5b90600182811c921680156158e6575b60208310146158d057565b634e487b7160e01b600052602260045260246000fd5b91607f16916158c5565b9060405191826000825492615904846158b6565b8084529360018116908115615972575060011461592b575b5061592992500383615805565b565b90506000929192526020600020906000915b818310615956575050906020615929928201013861591c565b602091935080600191548385890101520191019091849261593d565b90506020925061592994915060ff191682840152151560051b8201013861591c565b80548210156158a0576000526006602060002091020190600090565b906040519182815491828252602082019060005260206000209260005b8181106159e257505061592992500383615805565b84548352600194850194879450602090930192016159cd565b908154916801000000000000000083101561579b5782610ac691600161592995018155615888565b9092916001600160a01b038416918215615da957600094615a77836000527f80bb2b638cc20bc4d0a60d66940f3ab4a00c1d7b313497ca82fb0b4ab00793026020526001600160a01b036040600020541690565b9533151580615c90575b508487927fddf252ad1be2c89b69c2b068fc378daa952ba7f163c4a11628f55a4df523b3ef86936001600160a01b03615af7999a9b1698899384615bd4576001600160a01b03166000527f80bb2b638cc20bc4d0a60d66940f3ab4a00c1d7b313497ca82fb0b4ab0079303602052604060002090565b600181540190558481527f80bb2b638cc20bc4d0a60d66940f3ab4a00c1d7b313497ca82fb0b4ab007930260205260408120846001600160a01b031982541617905580a4506001600160a01b03811692838103615bb8575081615b59916161e0565b826000526002602052615b708160406000206159fb565b8060005260016020526001604060002001836001600160a01b03198254161790557f65fafa4ad96fae4995cc481092b12ab907f22047bd15b78e816f0be74864204c600080a4565b82846364283d7b60e01b60005260045260245260445260646000fd5b615c14876000527f80bb2b638cc20bc4d0a60d66940f3ab4a00c1d7b313497ca82fb0b4ab007930460205260406000206001600160a01b03198154169055565b615c50886001600160a01b03166000527f80bb2b638cc20bc4d0a60d66940f3ab4a00c1d7b313497ca82fb0b4ab0079303602052604060002090565b80546000190190556001600160a01b03166000527f80bb2b638cc20bc4d0a60d66940f3ab4a00c1d7b313497ca82fb0b4ab0079303602052604060002090565b80615cf2575b15615ca15738615a81565b83906001600160a01b038816615cc357602491637e27328960e01b8252600452fd5b6044917f177e802f00000000000000000000000000000000000000000000000000000000825233600452602452fd5b50336001600160a01b038816148015615d59575b80615c965750336001600160a01b03615d52866000527f80bb2b638cc20bc4d0a60d66940f3ab4a00c1d7b313497ca82fb0b4ab00793046020526001600160a01b036040600020541690565b1614615c96565b50615d96876001600160a01b03166000527f80bb2b638cc20bc4d0a60d66940f3ab4a00c1d7b313497ca82fb0b4ab0079305602052604060002090565b338252602052604081205460ff16615d06565b633250574960e11b600052600060045260246000fd5b15615dc657565b606460405162461bcd60e51b815260206004820152601660248201527f4e4654206e6f74206672616374696f6e616c697a6564000000000000000000006044820152fd5b8115615e14570490565b634e487b7160e01b600052601260045260246000fd5b9081602091031261567d5751801515810361567d5790565b15615e4957565b606460405162461bcd60e51b815260206004820152600e60248201527f4e6f7420617574686f72697a65640000000000000000000000000000000000006044820152fd5b6000198114615e9c5760010190565b634e487b7160e01b600052601160045260246000fd5b818110615ebd575050565b60008155600101615eb2565b81810292918115918404141715615e9c57565b9080615ee6575050565b61592991600052602060002090810190615eb2565b91818110615f0857505050565b6159299260005260206000209182019101615eb2565b15615f2557565b606460405162461bcd60e51b815260206004820152600d60248201527f4e6f7420746865206f776e6572000000000000000000000000000000000000006044820152fd5b15615f7057565b606460405162461bcd60e51b815260206004820152601360248201527f4661726d204e4654206e6f7420616374697665000000000000000000000000006044820152fd5b67ffffffffffffffff811161579b5760051b60200190565b15615fd357565b606460405162461bcd60e51b815260206004820152600a60248201527f4e6f74207374616b6564000000000000000000000000000000000000000000006044820152fd5b8015615e9c576000190190565b91908203918211615e9c57565b8054801561605a5760001901906160488282615888565b8154906000199060031b1b1916905555565b634e487b7160e01b600052603160045260246000fd5b80518210156158a05760209160051b010190565b91908201809211615e9c57565b6001600160a01b031680156160fd576001600160a01b036000805160206179d683398151915254826001600160a01b03198216176000805160206179d683398151915255167f8be0079c531659141344cd1fd0a4f28419497f9722a3daafe3b4186f6b6457e0600080a3565b7f1e4fbdf700000000000000000000000000000000000000000000000000000000600052600060045260246000fd5b616169816000527f80bb2b638cc20bc4d0a60d66940f3ab4a00c1d7b313497ca82fb0b4ab00793026020526001600160a01b036040600020541690565b906001600160a01b0382161561617d575090565b637e27328960e01b60005260045260246000fd5b6001600160a01b036000805160206179d6833981519152541633036161b257565b7f118cdaa7000000000000000000000000000000000000000000000000000000006000523360045260246000fd5b6001600160a01b03166000526002602052604060002060005b815480821015616246578361620e8385615888565b90549060031b1c1461622357506001016161f9565b9092506000198101908111615e9c5761592992610ac6610ab8610adf9385615888565b50505050565b6001600160a01b03811615615da9576001600160a01b039161626d91616b34565b1661627457565b7f73c6ac6e00000000000000000000000000000000000000000000000000000000600052600060045260246000fd5b939092604051916162b3836157b1565b428352602083019185835260408401858152606085019182526080850192835260a0850193338552886000526003602052604060002080546801000000000000000081101561579b5761630b91600182018155615994565b9690966167ab57518655518051600187019167ffffffffffffffff821161579b57819061633884546158b6565b601f8111616779575b50602090601f831160011461671457600092616709575b50508160011b916000199060031b1c19161790555b518051600286019167ffffffffffffffff821161579b57819061639084546158b6565b601f81116166d7575b50602090601f831160011461667257600092616667575b50508160011b916000199060031b1c19161790555b518051600385019167ffffffffffffffff821161579b5781906163e884546158b6565b601f8111616635575b50602090601f83116001146165d0576000926165c5575b50508160011b916000199060031b1c19161790555b518051600484019167ffffffffffffffff821161579b5761643e83546158b6565b601f8111616593575b50602090601f83116001146164f5576001600160a01b036164e5956164d79895857fa5d0b423a863f87e5ba388357a9cab58d50f820e37c1ced9a53e4542fabfc7ee9b999684966005966000926164ea575b50508160011b916000199060031b1c19161790555b5116920191166001600160a01b03198254161790556040519384936040855260408501906156cf565b9083820360208501526156cf565b0390a2565b015190503880616499565b90601f1983169184600052816000209260005b81811061657b5750956164d798956001866001600160a01b039660059688967fa5d0b423a863f87e5ba388357a9cab58d50f820e37c1ced9a53e4542fabfc7ee9f9d9a6164e59d10616562575b505050811b0190556164ae565b015160001960f88460031b161c19169055388080616555565b92936020600181928786015181550195019301616508565b6165bf90846000526020600020601f850160051c8101916020861061121457601f0160051c0190615eb2565b38616447565b015190503880616408565b60008581528281209350601f198516905b81811061661d5750908460019594939210616604575b505050811b01905561641d565b015160001960f88460031b161c191690553880806165f7565b929360206001819287860151815501950193016165e1565b61666190856000526020600020601f850160051c8101916020861061121457601f0160051c0190615eb2565b386163f1565b0151905038806163b0565b60008581528281209350601f198516905b8181106166bf57509084600195949392106166a6575b505050811b0190556163c5565b015160001960f88460031b161c19169055388080616699565b92936020600181928786015181550195019301616683565b61670390856000526020600020601f850160051c8101916020861061121457601f0160051c0190615eb2565b38616399565b015190503880616358565b60008581528281209350601f198516905b8181106167615750908460019594939210616748575b505050811b01905561636d565b015160001960f88460031b161c1916905538808061673b565b92936020600181928786015181550195019301616725565b6167a590856000526020600020601f850160051c8101916020861061121457601f0160051c0190615eb2565b38616341565b634e487b7160e01b600052600060045260246000fd5b60027f9b779b17422d0df92223018b32b4d1fa46e071723d6817e2486d003becc55f0054146168105760027f9b779b17422d0df92223018b32b4d1fa46e071723d6817e2486d003becc55f0055565b7f3ee5aeb50000000000000000000000000000000000000000000000000000000060005260046000fd5b9061684760175442616024565b9182616857575b50905042601755565b6001600160a01b03169182600052601160205261687760406000206159b0565b9060009160005b815181101561692c576168918183616070565b5180600052600f602052604080600020600090898252602052209060ff6003830154166168c3575b505060010161687e565b9190946168d1865442616024565b6168e7610eec6168e18887616960565b95616991565b9061271001908161271011615e9c57616919612710616911600197610f1760029561692397616084565b048094616084565b9701918254616084565b905590386168b9565b50505090918161693f575b82915061684e565b60005260126020526169576040600020918254616084565b90553880616937565b64496cebb8009161698d91600052600160205261698860066040600020015460135490615ec9565b615ec9565b0490565b6000908152600160205260409020600b0154605081106169b2575060145490565b603c11156169bf57600090565b60145460011c90565b6169da9062278d006015549104615ec9565b60165490818111156169ea575090565b905090565b3d15616a1a573d90616a0082615827565b91616a0e6040519384615805565b82523d6000602084013e565b606090565b93909293823b616a31575b5050505050565b616a786001600160a01b0392836020951696846040519788968796630a85bd0160e11b885216600487015216602485015260448401526080606484015260848301906156cf565b03816000865af18091600091616af1575b5090616aba5750616a986169ef565b80519081616ab55782633250574960e11b60005260045260246000fd5b602001fd5b6001600160e01b0319630a85bd0160e11b911603616add57503880808080616a2a565b633250574960e11b60005260045260246000fd5b6020813d602011616b2c575b81616b0a60209383615805565b810103126131f55751906001600160e01b031982168203610475575038616a89565b3d9150616afd565b90616b72816000527f80bb2b638cc20bc4d0a60d66940f3ab4a00c1d7b313497ca82fb0b4ab00793026020526001600160a01b036040600020541690565b916001600160a01b03831680616c43575b6001600160a01b0382169182616bfa575b50826000527f80bb2b638cc20bc4d0a60d66940f3ab4a00c1d7b313497ca82fb0b4ab00793026020526040600020826001600160a01b03198254161790557fddf252ad1be2c89b69c2b068fc378daa952ba7f163c4a11628f55a4df523b3ef600080a490565b616c36906001600160a01b03166000527f80bb2b638cc20bc4d0a60d66940f3ab4a00c1d7b313497ca82fb0b4ab0079303602052604060002090565b6001815401905538616b94565b616c83836000527f80bb2b638cc20bc4d0a60d66940f3ab4a00c1d7b313497ca82fb0b4ab007930460205260406000206001600160a01b03198154169055565b616cbf846001600160a01b03166000527f80bb2b638cc20bc4d0a60d66940f3ab4a00c1d7b313497ca82fb0b4ab0079303602052604060002090565b8054600019019055616b83565b60ff7ff0c57e16840df040f15088dc2f81fe391c3923bec73e23a9662efc9c229c6a005460401c1615616cfb57565b7fd7e6bcf80000000000000000000000000000000000000000000000000000000060005260046000fd5b90616d645750805115616d3a57602081519101fd5b7fd6bda2750000000000000000000000000000000000000000000000000000000060005260046000fd5b81511580616dac575b616d75575090565b6001600160a01b03907f9996b315000000000000000000000000000000000000000000000000000000006000521660045260246000fd5b50803b15616d6d56fe60806040523461036d57610c208038038061001981610372565b92833981019060808183031261036d5780516001600160401b03811161036d5782610045918301610397565b602082015190926001600160401b03821161036d57610065918301610397565b604082015190916001600160a01b0382169182900361036d57606001516002805460ff1916601217905583519091906001600160401b03811161027857600054600181811c91168015610363575b602082101461025857601f81116102ff575b50602094601f82116001146102995794819293949560009261028e575b50508160011b916000199060031b1c1916176000555b82516001600160401b03811161027857600154600181811c9116801561026e575b602082101461025857601f81116101f3575b506020601f821160011461018c5781929394600092610181575b50508160011b916000199060031b1c1916176001555b600680546001600160a01b03191691909117905560075560405161081d90816104038239f35b015190503880610145565b601f198216906001600052806000209160005b8181106101db575095836001959697106101c2575b505050811b0160015561015b565b015160001960f88460031b161c191690553880806101b4565b9192602060018192868b01518155019401920161019f565b60016000527fb10e2d527612073b26eecdfd717e6a320cf44b4afac2b0732d9fcbe2b7fa0cf6601f830160051c8101916020841061024e575b601f0160051c01905b818110610242575061012b565b60008155600101610235565b909150819061022c565b634e487b7160e01b600052602260045260246000fd5b90607f1690610119565b634e487b7160e01b600052604160045260246000fd5b0151905038806100e2565b601f1982169560008052806000209160005b8881106102e7575083600195969798106102ce575b505050811b016000556100f8565b015160001960f88460031b161c191690553880806102c0565b919260206001819286850151815501940192016102ab565b600080527f290decd9548b62a8d60345a988386fc84ba6bc95484008f6362f93160ef3e563601f830160051c81019160208410610359575b601f0160051c01905b81811061034d57506100c5565b60008155600101610340565b9091508190610337565b90607f16906100b3565b600080fd5b6040519190601f01601f191682016001600160401b0381118382101761027857604052565b81601f8201121561036d578051906001600160401b038211610278576103c6601f8301601f1916602001610372565b928284526020838301011161036d5760005b8281106103ed57505060206000918301015290565b806020809284010151828287010152016103d856fe6080604052600436101561001257600080fd5b60003560e01c806306fdde031461063d578063095ea7b3146105c157806318160ddd146105a357806323b872dd1461044a578063313ce5671461042957806340c10f19146103565780636ebcf6071461031c57806370a082311461031c57806395d89b41146101fb578063a9059cbb1461014d578063c6bc51821461012f578063da802f80146101085763dd62ed3e146100ab57600080fd5b34610103576040366003190112610103576100c4610740565b6001600160a01b036100d4610756565b911660005260056020526001600160a01b03604060002091166000526020526020604060002054604051908152f35b600080fd5b346101035760003660031901126101035760206001600160a01b0360065416604051908152f35b34610103576000366003190112610103576020600754604051908152f35b3461010357604036600319011261010357610166610740565b6001600160a01b036024359133600052600460205261018c83604060002054101561076c565b33600052600460205260406000206101a58482546107b7565b9055169081600052600460205260406000206101c28282546107da565b90556040519081527fddf252ad1be2c89b69c2b068fc378daa952ba7f163c4a11628f55a4df523b3ef60203392a3602060405160018152f35b34610103576000366003190112610103576000604051816001548060011c90600181168015610312575b6020831081146102fe578285529081156102e2575060011461028e575b50819003601f01601f1916810167ffffffffffffffff81118282101761027a576102769250604052604051918291826106f7565b0390f35b602483634e487b7160e01b81526041600452fd5b600184529050827fb10e2d527612073b26eecdfd717e6a320cf44b4afac2b0732d9fcbe2b7fa0cf65b8282106102cc57506020915082010183610242565b60018160209254838588010152019101906102b7565b90506020925060ff191682840152151560051b82010183610242565b602486634e487b7160e01b81526022600452fd5b91607f1691610225565b34610103576020366003190112610103576001600160a01b0361033d610740565b1660005260046020526020604060002054604051908152f35b346101035760403660031901126101035761036f610740565b602435906001600160a01b036006541633036103e5577fddf252ad1be2c89b69c2b068fc378daa952ba7f163c4a11628f55a4df523b3ef60206001600160a01b03600093169384845260048252604084206103cb8282546107da565b90556103d9816003546107da565b600355604051908152a3005b606460405162461bcd60e51b815260206004820152601660248201527f4f6e6c79206661726d204e46542063616e206d696e74000000000000000000006044820152fd5b3461010357600036600319011261010357602060ff60025416604051908152f35b3461010357606036600319011261010357610463610740565b61046b610756565b6001600160a01b0360443592169081600052600460205261049383604060002054101561076c565b81600052600560205260406000206001600160a01b033316600052602052826040600020541061055f5760206001600160a01b037fddf252ad1be2c89b69c2b068fc378daa952ba7f163c4a11628f55a4df523b3ef92846000526004835260406000206105018782546107b7565b905516938460005260048252604060002061051d8282546107da565b9055836000526005825260406000206001600160a01b0333166000528252604060002061054b8282546107b7565b9055604051908152a3602060405160018152f35b606460405162461bcd60e51b815260206004820152601660248201527f496e73756666696369656e7420616c6c6f77616e6365000000000000000000006044820152fd5b34610103576000366003190112610103576020600354604051908152f35b34610103576040366003190112610103576105da610740565b6001600160a01b036024359133600052600560205260406000208282166000526020528260406000205560405192835216907f8c5be1e5ebec7d5bd14f71427d1e84f3dd0314c0f7b2291e5b200ac8c7c3b92560203392a3602060405160018152f35b346101035760003660031901126101035760006040518182548060011c906001811680156106ed575b6020831081146102fe578285529081156102e257506001146106b65750819003601f01601f1916810167ffffffffffffffff81118282101761027a576102769250604052604051918291826106f7565b90508280526020832083905b8282106106d757506020915082010183610242565b60018160209254838588010152019101906106c2565b91607f1691610666565b91909160208152825180602083015260005b81811061072a575060409293506000838284010152601f8019910116010190565b8060208092870101516040828601015201610709565b600435906001600160a01b038216820361010357565b602435906001600160a01b038216820361010357565b1561077357565b606460405162461bcd60e51b815260206004820152601460248201527f496e73756666696369656e742062616c616e63650000000000000000000000006044820152fd5b919082039182116107c457565b634e487b7160e01b600052601160045260246000fd5b919082018092116107c45756fea264697066735822122033b35385ade687c36e07f17499a4e685a8e40b20c1690632fe5305123d22dce064736f6c634300081c00339016d09d72d40fdae2fd8ceac6b6234c7706214fd39c1cd1e609a0528c199300a264697066735822122090422dfd6f26963ec159aae3256aabc2a42b1d61cc1c2c1d459eea14bc7b6fd964736f6c634300081c0033",
  "linkReferences": {},
  "deployedLinkReferences": {}
}