{
  "_format": "hh-sol-artifact-1",
  "contractName": "Bridge",
  "sourceName": "contracts/Bridge.sol",
  "abi": [
    {
      "inputs": [
        {
          "internalType": "address",
          "name": "target",
          "type": "address"
        }
      ],
      "name": "AddressEmptyCode",
      "type": "error"
    },
    {
      "inputs": [],
      "name": "ECDSAInvalidSignature",
      "type": "error"
    },
    {
      "inputs": [
        {
          "internalType": "uint256",
          "name": "length",
          "type": "uint256"
        }
      ],
      "name": "ECDSAInvalidSignatureLength",
      "type": "error"
    },
    {
      "inputs": [
        {
          "internalType": "bytes32",
          "name": "s",
          "type": "bytes32"
        }
      ],
      "name": "ECDSAInvalidSignatureS",
      "type": "error"
    },
    {
      "inputs": [
        {
          "internalType": "address",
          "name": "implementation",
          "type": "address"
        }
      ],
      "name": "ERC1967InvalidImplementation",
      "type": "error"
    },
    {
      "inputs": [],
      "name": "ERC1967NonPayable",
      "type": "error"
    },
    {
      "inputs": [],
      "name": "FailedCall",
      "type": "error"
    },
    {
      "inputs": [],
      "name": "InvalidInitialization",
      "type": "error"
    },
    {
      "inputs": [],
      "name": "NotInitializing",
      "type": "error"
    },
    {
      "inputs": [
        {
          "internalType": "address",
          "name": "owner",
          "type": "address"
        }
      ],
      "name": "OwnableInvalidOwner",
      "type": "error"
    },
    {
      "inputs": [
        {
          "internalType": "address",
          "name": "account",
          "type": "address"
        }
      ],
      "name": "OwnableUnauthorizedAccount",
      "type": "error"
    },
    {
      "inputs": [],
      "name": "ReentrancyGuardReentrantCall",
      "type": "error"
    },
    {
      "inputs": [
        {
          "internalType": "address",
          "name": "token",
          "type": "address"
        }
      ],
      "name": "SafeERC20FailedOperation",
      "type": "error"
    },
    {
      "inputs": [],
      "name": "UUPSUnauthorizedCallContext",
      "type": "error"
    },
    {
      "inputs": [
        {
          "internalType": "bytes32",
          "name": "slot",
          "type": "bytes32"
        }
      ],
      "name": "UUPSUnsupportedProxiableUUID",
      "type": "error"
    },
    {
      "anonymous": false,
      "inputs": [
        {
          "indexed": true,
          "internalType": "uint256",
          "name": "txId",
          "type": "uint256"
        },
        {
          "indexed": true,
          "internalType": "address",
          "name": "recipient",
          "type": "address"
        },
        {
          "indexed": false,
          "internalType": "uint256",
          "name": "amount",
          "type": "uint256"
        }
      ],
      "name": "BridgeTransactionCompleted",
      "type": "event"
    },
    {
      "anonymous": false,
      "inputs": [
        {
          "indexed": true,
          "internalType": "uint256",
          "name": "txId",
          "type": "uint256"
        },
        {
          "indexed": true,
          "internalType": "address",
          "name": "validator",
          "type": "address"
        }
      ],
      "name": "BridgeTransactionConfirmed",
      "type": "event"
    },
    {
      "anonymous": false,
      "inputs": [
        {
          "indexed": true,
          "internalType": "uint256",
          "name": "txId",
          "type": "uint256"
        },
        {
          "indexed": true,
          "internalType": "address",
          "name": "sender",
          "type": "address"
        },
        {
          "indexed": false,
          "internalType": "address",
          "name": "token",
          "type": "address"
        },
        {
          "indexed": false,
          "internalType": "uint256",
          "name": "amount",
          "type": "uint256"
        },
        {
          "indexed": false,
          "internalType": "uint256",
          "name": "targetChainId",
          "type": "uint256"
        }
      ],
      "name": "BridgeTransactionInitiated",
      "type": "event"
    },
    {
      "anonymous": false,
      "inputs": [
        {
          "indexed": true,
          "internalType": "uint256",
          "name": "chainId",
          "type": "uint256"
        },
        {
          "indexed": false,
          "internalType": "address",
          "name": "bridgeContract",
          "type": "address"
        }
      ],
      "name": "ChainAdded",
      "type": "event"
    },
    {
      "anonymous": false,
      "inputs": [
        {
          "indexed": false,
          "internalType": "uint256",
          "name": "timestamp",
          "type": "uint256"
        }
      ],
      "name": "EmergencyPaused",
      "type": "event"
    },
    {
      "anonymous": false,
      "inputs": [],
      "name": "EmergencyUnpaused",
      "type": "event"
    },
    {
      "anonymous": false,
      "inputs": [
        {
          "indexed": false,
          "internalType": "uint64",
          "name": "version",
          "type": "uint64"
        }
      ],
      "name": "Initialized",
      "type": "event"
    },
    {
      "anonymous": false,
      "inputs": [
        {
          "indexed": true,
          "internalType": "address",
          "name": "previousOwner",
          "type": "address"
        },
        {
          "indexed": true,
          "internalType": "address",
          "name": "newOwner",
          "type": "address"
        }
      ],
      "name": "OwnershipTransferred",
      "type": "event"
    },
    {
      "anonymous": false,
      "inputs": [
        {
          "indexed": true,
          "internalType": "address",
          "name": "token",
          "type": "address"
        },
        {
          "indexed": true,
          "internalType": "address",
          "name": "sender",
          "type": "address"
        },
        {
          "indexed": false,
          "internalType": "uint256",
          "name": "amount",
          "type": "uint256"
        }
      ],
      "name": "TokenLocked",
      "type": "event"
    },
    {
      "anonymous": false,
      "inputs": [
        {
          "indexed": true,
          "internalType": "address",
          "name": "token",
          "type": "address"
        },
        {
          "indexed": true,
          "internalType": "address",
          "name": "recipient",
          "type": "address"
        },
        {
          "indexed": false,
          "internalType": "uint256",
          "name": "amount",
          "type": "uint256"
        }
      ],
      "name": "TokenMinted",
      "type": "event"
    },
    {
      "anonymous": false,
      "inputs": [
        {
          "indexed": true,
          "internalType": "address",
          "name": "implementation",
          "type": "address"
        }
      ],
      "name": "Upgraded",
      "type": "event"
    },
    {
      "anonymous": false,
      "inputs": [
        {
          "indexed": true,
          "internalType": "address",
          "name": "validator",
          "type": "address"
        }
      ],
      "name": "ValidatorAdded",
      "type": "event"
    },
    {
      "anonymous": false,
      "inputs": [
        {
          "indexed": true,
          "internalType": "address",
          "name": "validator",
          "type": "address"
        }
      ],
      "name": "ValidatorRemoved",
      "type": "event"
    },
    {
      "inputs": [],
      "name": "UPGRADE_INTERFACE_VERSION",
      "outputs": [
        {
          "internalType": "string",
          "name": "",
          "type": "string"
        }
      ],
      "stateMutability": "view",
      "type": "function"
    },
    {
      "inputs": [
        {
          "internalType": "uint256",
          "name": "_chainId",
          "type": "uint256"
        },
        {
          "internalType": "address",
          "name": "_bridgeContract",
          "type": "address"
        },
        {
          "internalType": "uint256",
          "name": "_requiredConfirmations",
          "type": "uint256"
        }
      ],
      "name": "addChain",
      "outputs": [],
      "stateMutability": "nonpayable",
      "type": "function"
    },
    {
      "inputs": [
        {
          "internalType": "address",
          "name": "_token",
          "type": "address"
        },
        {
          "internalType": "uint256",
          "name": "_minAmount",
          "type": "uint256"
        },
        {
          "internalType": "uint256",
          "name": "_maxAmount",
          "type": "uint256"
        },
        {
          "internalType": "uint256",
          "name": "_fee",
          "type": "uint256"
        },
        {
          "internalType": "uint256",
          "name": "_dailyLimit",
          "type": "uint256"
        }
      ],
      "name": "addToken",
      "outputs": [],
      "stateMutability": "nonpayable",
      "type": "function"
    },
    {
      "inputs": [
        {
          "internalType": "address",
          "name": "_validator",
          "type": "address"
        }
      ],
      "name": "addValidator",
      "outputs": [],
      "stateMutability": "nonpayable",
      "type": "function"
    },
    {
      "inputs": [
        {
          "internalType": "uint256[]",
          "name": "_txIds",
          "type": "uint256[]"
        },
        {
          "internalType": "bytes[]",
          "name": "_signatures",
          "type": "bytes[]"
        }
      ],
      "name": "batchConfirmTransactions",
      "outputs": [],
      "stateMutability": "nonpayable",
      "type": "function"
    },
    {
      "inputs": [
        {
          "internalType": "address",
          "name": "_token",
          "type": "address"
        },
        {
          "internalType": "uint256",
          "name": "_amount",
          "type": "uint256"
        },
        {
          "internalType": "uint256",
          "name": "_targetChainId",
          "type": "uint256"
        },
        {
          "internalType": "address",
          "name": "_recipient",
          "type": "address"
        }
      ],
      "name": "bridgeTokens",
      "outputs": [
        {
          "internalType": "uint256",
          "name": "",
          "type": "uint256"
        }
      ],
      "stateMutability": "nonpayable",
      "type": "function"
    },
    {
      "inputs": [
        {
          "internalType": "uint256",
          "name": "_txId",
          "type": "uint256"
        },
        {
          "internalType": "address",
          "name": "_validator",
          "type": "address"
        }
      ],
      "name": "canConfirmTransaction",
      "outputs": [
        {
          "internalType": "bool",
          "name": "",
          "type": "bool"
        }
      ],
      "stateMutability": "view",
      "type": "function"
    },
    {
      "inputs": [
        {
          "internalType": "uint256",
          "name": "_txId",
          "type": "uint256"
        }
      ],
      "name": "cancelTransaction",
      "outputs": [],
      "stateMutability": "nonpayable",
      "type": "function"
    },
    {
      "inputs": [
        {
          "internalType": "uint256",
          "name": "",
          "type": "uint256"
        }
      ],
      "name": "chainConfigs",
      "outputs": [
        {
          "internalType": "uint256",
          "name": "chainId",
          "type": "uint256"
        },
        {
          "internalType": "address",
          "name": "bridgeContract",
          "type": "address"
        },
        {
          "internalType": "uint256",
          "name": "requiredConfirmations",
          "type": "uint256"
        },
        {
          "internalType": "bool",
          "name": "active",
          "type": "bool"
        },
        {
          "internalType": "uint256",
          "name": "totalTransferred",
          "type": "uint256"
        },
        {
          "internalType": "uint256",
          "name": "totalFees",
          "type": "uint256"
        }
      ],
      "stateMutability": "view",
      "type": "function"
    },
    {
      "inputs": [
        {
          "internalType": "uint256",
          "name": "_amount",
          "type": "uint256"
        }
      ],
      "name": "collectFees",
      "outputs": [],
      "stateMutability": "nonpayable",
      "type": "function"
    },
    {
      "inputs": [],
      "name": "collectedFees",
      "outputs": [
        {
          "internalType": "uint256",
          "name": "",
          "type": "uint256"
        }
      ],
      "stateMutability": "view",
      "type": "function"
    },
    {
      "inputs": [
        {
          "internalType": "uint256",
          "name": "_txId",
          "type": "uint256"
        },
        {
          "internalType": "bytes",
          "name": "_signature",
          "type": "bytes"
        }
      ],
      "name": "confirmTransaction",
      "outputs": [],
      "stateMutability": "nonpayable",
      "type": "function"
    },
    {
      "inputs": [],
      "name": "confirmationThreshold",
      "outputs": [
        {
          "internalType": "uint256",
          "name": "",
          "type": "uint256"
        }
      ],
      "stateMutability": "view",
      "type": "function"
    },
    {
      "inputs": [],
      "name": "dailyResetTime",
      "outputs": [
        {
          "internalType": "uint256",
          "name": "",
          "type": "uint256"
        }
      ],
      "stateMutability": "view",
      "type": "function"
    },
    {
      "inputs": [],
      "name": "emergencyPause",
      "outputs": [],
      "stateMutability": "nonpayable",
      "type": "function"
    },
    {
      "inputs": [],
      "name": "emergencyPauseDelay",
      "outputs": [
        {
          "internalType": "uint256",
          "name": "",
          "type": "uint256"
        }
      ],
      "stateMutability": "view",
      "type": "function"
    },
    {
      "inputs": [],
      "name": "emergencyPauseTime",
      "outputs": [
        {
          "internalType": "uint256",
          "name": "",
          "type": "uint256"
        }
      ],
      "stateMutability": "view",
      "type": "function"
    },
    {
      "inputs": [],
      "name": "emergencyPaused",
      "outputs": [
        {
          "internalType": "bool",
          "name": "",
          "type": "bool"
        }
      ],
      "stateMutability": "view",
      "type": "function"
    },
    {
      "inputs": [],
      "name": "emergencyUnpause",
      "outputs": [],
      "stateMutability": "nonpayable",
      "type": "function"
    },
    {
      "inputs": [
        {
          "internalType": "address",
          "name": "_token",
          "type": "address"
        },
        {
          "internalType": "uint256",
          "name": "_amount",
          "type": "uint256"
        }
      ],
      "name": "emergencyWithdraw",
      "outputs": [],
      "stateMutability": "nonpayable",
      "type": "function"
    },
    {
      "inputs": [],
      "name": "feeRecipient",
      "outputs": [
        {
          "internalType": "address",
          "name": "",
          "type": "address"
        }
      ],
      "stateMutability": "view",
      "type": "function"
    },
    {
      "inputs": [
        {
          "internalType": "uint256",
          "name": "_chainId",
          "type": "uint256"
        }
      ],
      "name": "getChainConfig",
      "outputs": [
        {
          "components": [
            {
              "internalType": "uint256",
              "name": "chainId",
              "type": "uint256"
            },
            {
              "internalType": "address",
              "name": "bridgeContract",
              "type": "address"
            },
            {
              "internalType": "uint256",
              "name": "requiredConfirmations",
              "type": "uint256"
            },
            {
              "internalType": "bool",
              "name": "active",
              "type": "bool"
            },
            {
              "internalType": "uint256",
              "name": "totalTransferred",
              "type": "uint256"
            },
            {
              "internalType": "uint256",
              "name": "totalFees",
              "type": "uint256"
            }
          ],
          "internalType": "struct Bridge.ChainConfig",
          "name": "",
          "type": "tuple"
        }
      ],
      "stateMutability": "view",
      "type": "function"
    },
    {
      "inputs": [],
      "name": "getPendingTransactions",
      "outputs": [
        {
          "internalType": "uint256[]",
          "name": "",
          "type": "uint256[]"
        }
      ],
      "stateMutability": "view",
      "type": "function"
    },
    {
      "inputs": [],
      "name": "getSupportedChains",
      "outputs": [
        {
          "internalType": "uint256[]",
          "name": "",
          "type": "uint256[]"
        }
      ],
      "stateMutability": "view",
      "type": "function"
    },
    {
      "inputs": [
        {
          "internalType": "address",
          "name": "_token",
          "type": "address"
        }
      ],
      "name": "getTokenConfig",
      "outputs": [
        {
          "components": [
            {
              "internalType": "address",
              "name": "tokenAddress",
              "type": "address"
            },
            {
              "internalType": "uint256",
              "name": "minAmount",
              "type": "uint256"
            },
            {
              "internalType": "uint256",
              "name": "maxAmount",
              "type": "uint256"
            },
            {
              "internalType": "uint256",
              "name": "fee",
              "type": "uint256"
            },
            {
              "internalType": "bool",
              "name": "active",
              "type": "bool"
            },
            {
              "internalType": "uint256",
              "name": "dailyLimit",
              "type": "uint256"
            },
            {
              "internalType": "uint256",
              "name": "dailyTransferred",
              "type": "uint256"
            },
            {
              "internalType": "uint256",
              "name": "lastResetTime",
              "type": "uint256"
            }
          ],
          "internalType": "struct Bridge.TokenConfig",
          "name": "",
          "type": "tuple"
        }
      ],
      "stateMutability": "view",
      "type": "function"
    },
    {
      "inputs": [
        {
          "internalType": "uint256",
          "name": "_txId",
          "type": "uint256"
        }
      ],
      "name": "getTransaction",
      "outputs": [
        {
          "components": [
            {
              "internalType": "uint256",
              "name": "id",
              "type": "uint256"
            },
            {
              "internalType": "address",
              "name": "sender",
              "type": "address"
            },
            {
              "internalType": "address",
              "name": "recipient",
              "type": "address"
            },
            {
              "internalType": "address",
              "name": "token",
              "type": "address"
            },
            {
              "internalType": "uint256",
              "name": "amount",
              "type": "uint256"
            },
            {
              "internalType": "uint256",
              "name": "sourceChainId",
              "type": "uint256"
            },
            {
              "internalType": "uint256",
              "name": "targetChainId",
              "type": "uint256"
            },
            {
              "internalType": "uint256",
              "name": "timestamp",
              "type": "uint256"
            },
            {
              "internalType": "bytes32",
              "name": "txHash",
              "type": "bytes32"
            },
            {
              "internalType": "enum Bridge.Status",
              "name": "status",
              "type": "uint8"
            },
            {
              "internalType": "uint256",
              "name": "confirmations",
              "type": "uint256"
            },
            {
              "internalType": "address[]",
              "name": "validators",
              "type": "address[]"
            }
          ],
          "internalType": "struct Bridge.BridgeTransaction",
          "name": "",
          "type": "tuple"
        }
      ],
      "stateMutability": "view",
      "type": "function"
    },
    {
      "inputs": [],
      "name": "getValidators",
      "outputs": [
        {
          "internalType": "address[]",
          "name": "",
          "type": "address[]"
        }
      ],
      "stateMutability": "view",
      "type": "function"
    },
    {
      "inputs": [
        {
          "internalType": "address",
          "name": "_feeRecipient",
          "type": "address"
        }
      ],
      "name": "initialize",
      "outputs": [],
      "stateMutability": "nonpayable",
      "type": "function"
    },
    {
      "inputs": [],
      "name": "maxValidators",
      "outputs": [
        {
          "internalType": "uint256",
          "name": "",
          "type": "uint256"
        }
      ],
      "stateMutability": "view",
      "type": "function"
    },
    {
      "inputs": [
        {
          "internalType": "uint256",
          "name": "_txId",
          "type": "uint256"
        }
      ],
      "name": "mintTokens",
      "outputs": [],
      "stateMutability": "nonpayable",
      "type": "function"
    },
    {
      "inputs": [],
      "name": "nextTxId",
      "outputs": [
        {
          "internalType": "uint256",
          "name": "",
          "type": "uint256"
        }
      ],
      "stateMutability": "view",
      "type": "function"
    },
    {
      "inputs": [],
      "name": "owner",
      "outputs": [
        {
          "internalType": "address",
          "name": "",
          "type": "address"
        }
      ],
      "stateMutability": "view",
      "type": "function"
    },
    {
      "inputs": [],
      "name": "proxiableUUID",
      "outputs": [
        {
          "internalType": "bytes32",
          "name": "",
          "type": "bytes32"
        }
      ],
      "stateMutability": "view",
      "type": "function"
    },
    {
      "inputs": [
        {
          "internalType": "address",
          "name": "_validator",
          "type": "address"
        }
      ],
      "name": "removeValidator",
      "outputs": [],
      "stateMutability": "nonpayable",
      "type": "function"
    },
    {
      "inputs": [],
      "name": "renounceOwnership",
      "outputs": [],
      "stateMutability": "nonpayable",
      "type": "function"
    },
    {
      "inputs": [
        {
          "internalType": "address",
          "name": "_feeRecipient",
          "type": "address"
        }
      ],
      "name": "setFeeRecipient",
      "outputs": [],
      "stateMutability": "nonpayable",
      "type": "function"
    },
    {
      "inputs": [
        {
          "internalType": "uint256",
          "name": "_confirmationThreshold",
          "type": "uint256"
        },
        {
          "internalType": "uint256",
          "name": "_maxValidators",
          "type": "uint256"
        },
        {
          "internalType": "uint256",
          "name": "_dailyResetTime",
          "type": "uint256"
        },
        {
          "internalType": "uint256",
          "name": "_emergencyPauseDelay",
          "type": "uint256"
        }
      ],
      "name": "setProtocolParameters",
      "outputs": [],
      "stateMutability": "nonpayable",
      "type": "function"
    },
    {
      "inputs": [
        {
          "internalType": "uint256",
          "name": "",
          "type": "uint256"
        }
      ],
      "name": "supportedChains",
      "outputs": [
        {
          "internalType": "uint256",
          "name": "",
          "type": "uint256"
        }
      ],
      "stateMutability": "view",
      "type": "function"
    },
    {
      "inputs": [
        {
          "internalType": "address",
          "name": "",
          "type": "address"
        }
      ],
      "name": "tokenConfigs",
      "outputs": [
        {
          "internalType": "address",
          "name": "tokenAddress",
          "type": "address"
        },
        {
          "internalType": "uint256",
          "name": "minAmount",
          "type": "uint256"
        },
        {
          "internalType": "uint256",
          "name": "maxAmount",
          "type": "uint256"
        },
        {
          "internalType": "uint256",
          "name": "fee",
          "type": "uint256"
        },
        {
          "internalType": "bool",
          "name": "active",
          "type": "bool"
        },
        {
          "internalType": "uint256",
          "name": "dailyLimit",
          "type": "uint256"
        },
        {
          "internalType": "uint256",
          "name": "dailyTransferred",
          "type": "uint256"
        },
        {
          "internalType": "uint256",
          "name": "lastResetTime",
          "type": "uint256"
        }
      ],
      "stateMutability": "view",
      "type": "function"
    },
    {
      "inputs": [
        {
          "internalType": "uint256",
          "name": "",
          "type": "uint256"
        }
      ],
      "name": "transactions",
      "outputs": [
        {
          "internalType": "uint256",
          "name": "id",
          "type": "uint256"
        },
        {
          "internalType": "address",
          "name": "sender",
          "type": "address"
        },
        {
          "internalType": "address",
          "name": "recipient",
          "type": "address"
        },
        {
          "internalType": "address",
          "name": "token",
          "type": "address"
        },
        {
          "internalType": "uint256",
          "name": "amount",
          "type": "uint256"
        },
        {
          "internalType": "uint256",
          "name": "sourceChainId",
          "type": "uint256"
        },
        {
          "internalType": "uint256",
          "name": "targetChainId",
          "type": "uint256"
        },
        {
          "internalType": "uint256",
          "name": "timestamp",
          "type": "uint256"
        },
        {
          "internalType": "bytes32",
          "name": "txHash",
          "type": "bytes32"
        },
        {
          "internalType": "enum Bridge.Status",
          "name": "status",
          "type": "uint8"
        },
        {
          "internalType": "uint256",
          "name": "confirmations",
          "type": "uint256"
        }
      ],
      "stateMutability": "view",
      "type": "function"
    },
    {
      "inputs": [
        {
          "internalType": "address",
          "name": "newOwner",
          "type": "address"
        }
      ],
      "name": "transferOwnership",
      "outputs": [],
      "stateMutability": "nonpayable",
      "type": "function"
    },
    {
      "inputs": [
        {
          "internalType": "uint256",
          "name": "_chainId",
          "type": "uint256"
        },
        {
          "internalType": "uint256",
          "name": "_requiredConfirmations",
          "type": "uint256"
        },
        {
          "internalType": "bool",
          "name": "_active",
          "type": "bool"
        }
      ],
      "name": "updateChainConfig",
      "outputs": [],
      "stateMutability": "nonpayable",
      "type": "function"
    },
    {
      "inputs": [
        {
          "internalType": "address",
          "name": "_token",
          "type": "address"
        },
        {
          "internalType": "uint256",
          "name": "_minAmount",
          "type": "uint256"
        },
        {
          "internalType": "uint256",
          "name": "_maxAmount",
          "type": "uint256"
        },
        {
          "internalType": "uint256",
          "name": "_fee",
          "type": "uint256"
        },
        {
          "internalType": "uint256",
          "name": "_dailyLimit",
          "type": "uint256"
        },
        {
          "internalType": "bool",
          "name": "_active",
          "type": "bool"
        }
      ],
      "name": "updateTokenConfig",
      "outputs": [],
      "stateMutability": "nonpayable",
      "type": "function"
    },
    {
      "inputs": [
        {
          "internalType": "address",
          "name": "newImplementation",
          "type": "address"
        },
        {
          "internalType": "bytes",
          "name": "data",
          "type": "bytes"
        }
      ],
      "name": "upgradeToAndCall",
      "outputs": [],
      "stateMutability": "payable",
      "type": "function"
    },
    {
      "inputs": [
        {
          "internalType": "uint256",
          "name": "",
          "type": "uint256"
        }
      ],
      "name": "validatorList",
      "outputs": [
        {
          "internalType": "address",
          "name": "",
          "type": "address"
        }
      ],
      "stateMutability": "view",
      "type": "function"
    },
    {
      "inputs": [
        {
          "internalType": "address",
          "name": "",
          "type": "address"
        }
      ],
      "name": "validators",
      "outputs": [
        {
          "internalType": "bool",
          "name": "",
          "type": "bool"
        }
      ],
      "stateMutability": "view",
      "type": "function"
    }
  ],
  "bytecode": "0x60a0806040523460455730608052600180556003600755600a6008556201518060095562015180600a55612e1a908161004b82396080518181816110cb015261122c0152f35b600080fdfe6080604052600436101561001257600080fd5b60003560e01c80630594f7a0146121b657806308ac52561461219857806311483bd21461217a57806319ed16dc1461209d5780631b69dc5f1461200957806327c830a914611fe357806332ae760314611fc55780633319342a14611e7c5780633380c0d814611e0857806333b15aad1461199c57806333ea3dc81461174557806340a141ff146115d457806346904840146115ab5780634a4e3bd5146115045780634d238c8e146113f25780634f1ef286146111ee57806351858e271461119257806351bfbc321461112257806352d1902d146110b8578063548d496f1461108057806358a8adc614610fba5780635c40856614610f8a578063715018a614610f2057806378c86ab514610e815780637c151fb314610cfb5780638aff87b214610cdd5780638da5cb5b14610ca75780639003adfe14610c8957806395ccea6714610bf357806397304ced14610a8d5780639ace38c2146109ce578063a41bfcfc1461099b578063ad3cb1cc1461091f578063b048e056146108dd578063b17acdcd1461083a578063b7ab4db51461078a578063c4a2e6411461074e578063c4bffe2b146106cb578063c4d66de81461050f578063cb67e3b1146103fc578063d11db83f14610304578063d14b6e9b146102e6578063e74b981b146102a3578063f2fde38b14610278578063fa52c7d8146102395763fceb17eb1461021657600080fd5b34610234576000366003190112610234576020600754604051908152f35b600080fd5b34610234576020366003190112610234576001600160a01b0361025a6123bd565b166000526005602052602060ff604060002054166040519015158152f35b34610234576020366003190112610234576102a16102946123bd565b61029c612ac2565b612a4c565b005b34610234576020366003190112610234576102bc6123bd565b6102c4612ac2565b600c80546001600160a01b0319166001600160a01b0392909216919091179055005b34610234576000366003190112610234576020600954604051908152f35b3461023457600036600319011261023457600060018054905b8181106103bc575061032e82612532565b9161033c6040519384612449565b80835261034b601f1991612532565b01366020840137600060015b828110610370576040518061036c868261254a565b0390f35b80600052600060205260ff6009604060002001541661038e816123d3565b1561039c575b600101610357565b906103b481836103ae6001948861270c565b526125ea565b919050610394565b80600052600060205260ff600960406000200154166103da816123d3565b156103e8575b60010161031d565b916103f46001916125ea565b9290506103e0565b34610234576020366003190112610234576104156123bd565b600060e06040516104258161240f565b8281528260208201528260408201528260608201528260808201528260a08201528260c0820152015260018060a01b0316600052600260205261010060406000206040516104728161240f565b60018060a01b038254169182825260018101546020830190815260028201546040840190815260038301546060850190815260ff6004850154169160808601921515835260058501549360a0870194855260e0600760068801549760c08a019889520154970196875260405197885251602088015251604087015251606086015251151560808501525160a08401525160c08301525160e0820152f35b34610234576020366003190112610234576105286123bd565b600080516020612dc5833981519152549060ff8260401c16159167ffffffffffffffff8116801590816106c3575b60011490816106b9575b1590816106b0575b5061069f5767ffffffffffffffff198116600117600080516020612dc58339815191525582610672575b5061059b612c4c565b6105a3612c4c565b6105ac33612a4c565b6105b4612c4c565b6105bc612c4c565b6001600080516020612da5833981519152556105d6612c4c565b60018060a01b03166001600160601b0360a01b600c541617600c553360005260056020526040600020600160ff1982541617905561061333612637565b61061957005b68ff000000000000000019600080516020612dc58339815191525416600080516020612dc5833981519152557fc7f505b2f371ae2175ee4913f4499e1f2633a7b5936321eed1cdaeb6115181d2602060405160018152a1005b68ffffffffffffffffff19166801000000000000000117600080516020612dc58339815191525582610592565b63f92ee8a960e01b60005260046000fd5b90501584610568565b303b159150610560565b849150610556565b346102345760003660031901126102345760405180602060045491828152019060046000527f8a35acfbc15ff81a39ae7d344fd709f28e8600b4aa8c65c6b64bfe7fe36bd19b9060005b8181106107385761036c8561072c81870382612449565b6040519182918261254a565b8254845260209093019260019283019201610715565b346102345760403660031901126102345760243567ffffffffffffffff8111610234576107826102a1913690600401612487565b600435612720565b346102345760003660031901126102345760405160065490818152602081018092600660005260206000209060005b81811061081b57505050816107cf910382612449565b6040519182916020830190602084525180915260408301919060005b8181106107f9575050500390f35b82516001600160a01b03168452859450602093840193909201916001016107eb565b82546001600160a01b03168452602090930192600192830192016107b9565b3461023457602036600319011261023457600435610856612ac2565b600b548181106108a45760008083610870829583956125dd565b600b55600c546001600160a01b031682821561089b575bf11561088f57005b6040513d6000823e3d90fd5b506108fc610887565b60405162461bcd60e51b8152602060048201526011602482015270496e73756666696369656e74206665657360781b6044820152606490fd5b3461023457602036600319011261023457600435600654811015610234576109066020916124ff565b905460405160039290921b1c6001600160a01b03168152f35b3461023457600036600319011261023457604080519061093f8183612449565b60058252640352e302e360dc1b6020830152805180926020825280519081602084015260005b8281106109845750506000828201840152601f01601f19168101030190f35b602082820181015187830187015286945001610965565b34610234576080366003190112610234576109b4612ac2565b600435600755602435600855604435600955606435600a55005b34610234576020366003190112610234576004356000526000602052610160604060002080549060018060a01b036001820154169060018060a01b0360028201541660018060a01b0360038301541660048301546005840154600685015491600786015493600887015495600a60ff60098a015416980154986040519a8b5260208b015260408a01526060890152608088015260a087015260c086015260e0850152610100840152610a7f816123d3565b610120830152610140820152f35b3461023457602036600319011261023457600435806000526000602052604060002090600982018054600160ff8216610ac5816123d3565b03610bae5760068401544603610b7b5760029060ff19161790557f9f216ef5f05f15a84f8cb82ddf6aa995f22f1d1f02df6b96dacdf88fcf887db060206003840160018060a01b0381541690610b306002870192600460018060a01b03855416980197885491612af8565b54905494546040518181526001600160a01b03968716969192879216907fdf1b2b09e9800d31c599375056be9f9e4eb37f078102643600c4e149714efaad908590a3604051908152a3005b60405162461bcd60e51b815260206004820152600b60248201526a2bb937b7339031b430b4b760a91b6044820152606490fd5b60405162461bcd60e51b815260206004820152601960248201527f5472616e73616374696f6e206e6f7420636f6e6669726d6564000000000000006044820152606490fd5b3461023457604036600319011261023457610c0c6123bd565b610c14612ac2565b60ff600c5460a01c1615610c4c57600080516020612d65833981519152546102a191602435916001600160a01b039081169116612af8565b60405162461bcd60e51b81526020600482015260156024820152744e6f7420696e20656d657267656e6379206d6f646560581b6044820152606490fd5b34610234576000366003190112610234576020600b54604051908152f35b3461023457600036600319011261023457600080516020612d65833981519152546040516001600160a01b039091168152602090f35b34610234576000366003190112610234576020600154604051908152f35b346102345760403660031901126102345760043567ffffffffffffffff8111610234573660238201121561023457806004013590610d3882612532565b91610d466040519384612449565b8083526024602084019160051b8301019136831161023457602401905b828210610e71576024358467ffffffffffffffff82116102345736602383011215610234578160040135610d9681612532565b92610da46040519485612449565b8184526024602085019260051b820101903682116102345760248101925b828410610e415785858051825103610e085760005b81518110156102a15780610e02610df06001938561270c565b51610dfb838761270c565b5190612720565b01610dd7565b60405162461bcd60e51b81526020600482015260116024820152704d69736d6174636865642061727261797360781b6044820152606490fd5b833567ffffffffffffffff811161023457602091610e66839260243691870101612487565b815201930192610dc2565b8135815260209182019101610d63565b3461023457606036600319011261023457604435801515810361023457610ea6612ac2565b600435600052600360205260406000209060018060a01b0360018301541615610ee95760036102a1926024356002820155019060ff801983541691151516179055565b60405162461bcd60e51b815260206004820152600f60248201526e10da185a5b881b9bdd08199bdd5b99608a1b6044820152606490fd5b3461023457600036600319011261023457610f39612ac2565b600080516020612d6583398151915280546001600160a01b031981169091556000906001600160a01b03167f8be0079c531659141344cd1fd0a4f28419497f9722a3daafe3b4186f6b6457e08280a3005b34610234576040366003190112610234576020610fb0610fa86123a7565b60043561265e565b6040519015158152f35b346102345760c036600319011261023457610fd36123bd565b60a43590811515820361023457610fe8612ac2565b6001600160a01b039081166000908152600260205260409020805490929116156110445760046102a1926024356001820155604435600282015560643560038201556084356005820155019060ff801983541691151516179055565b60405162461bcd60e51b8152602060048201526014602482015273151bdad95b881b9bdd0818dbdb999a59dd5c995960621b6044820152606490fd5b3461023457602036600319011261023457600435600454811015610234576110a96020916124ce565b90549060031b1c604051908152f35b34610234576000366003190112610234577f00000000000000000000000000000000000000000000000000000000000000006001600160a01b03163003611111576020604051600080516020612d858339815191528152f35b63703e46dd60e11b60005260046000fd5b3461023457602036600319011261023457600435600052600360205260c0604060002080549060018060a01b0360018201541690600281015460ff6003830154169060056004840154930154936040519586526020860152604085015215156060840152608083015260a0820152f35b34610234576000366003190112610234576111ab612ac2565b600160a01b60ff60a01b19600c541617600c5542600d557f11d8c430ae8dff60717610a0356ce3ac35187fc9569e6adfe01d281cc1c167d56020604051428152a1005b6040366003190112610234576112026123bd565b60243567ffffffffffffffff811161023457611222903690600401612487565b6001600160a01b037f0000000000000000000000000000000000000000000000000000000000000000163081149081156113cf575b5061111157611264612ac2565b6040516352d1902d60e01b81526001600160a01b0383169290602081600481875afa6000918161139b575b506112a95783634c9c8ce360e01b60005260045260246000fd5b80600080516020612d858339815191528592036113875750813b1561137357600080516020612d8583398151915280546001600160a01b031916821790557fbc7cd75a20ee27fd9adebab32041f755214dbc6bffa90cc0225b39da2e5c2d3b600080a2815115611359576000808360206102a195519101845af43d15611351573d916113348361246b565b926113426040519485612449565b83523d6000602085013e612d03565b606091612d03565b50503461136257005b63b398979f60e01b60005260046000fd5b634c9c8ce360e01b60005260045260246000fd5b632a87526960e21b60005260045260246000fd5b9091506020813d6020116113c7575b816113b760209383612449565b810103126102345751908561128f565b3d91506113aa565b600080516020612d85833981519152546001600160a01b03161415905083611257565b346102345760203660031901126102345761140b6123bd565b611413612ac2565b6001600160a01b03811660008181526005602052604090205490919060ff166114c957600654600854111561148b57611464908260005260056020526040600020600160ff19825416179055612637565b7fe366c1c0452ed8eec96861e9e54141ebff23c9ec89fe27b996b45f5ec3884987600080a2005b60405162461bcd60e51b815260206004820152601660248201527513585e081d985b1a59185d1bdc9cc81c995858da195960521b6044820152606490fd5b60405162461bcd60e51b815260206004820152601360248201527220b63932b0b23c9030903b30b634b230ba37b960691b6044820152606490fd5b346102345760003660031901126102345761151d612ac2565b61152c600d54600a54906125d0565b421061156657600c805460ff60a01b191690557f15de7ad89d29fd1c6d2e6b1e878453569b4080edf34e0105faaa3bd52f018530600080a1005b60405162461bcd60e51b815260206004820152601a60248201527f456d657267656e63792064656c6179206e6f74207061737365640000000000006044820152606490fd5b3461023457600036600319011261023457600c546040516001600160a01b039091168152602090f35b34610234576020366003190112610234576115ed6123bd565b6115f5612ac2565b6001600160a01b03166000818152600560205260409020546116199060ff166125f9565b6000818152600560205260408120805460ff191690555b600654908181101561173e5782611646826124ff565b905460039190911b1c6001600160a01b031614611667576001915001611630565b60001982019182116117285761169a6116826116be936124ff565b905460039190911b1c6001600160a01b0316916124ff565b81546001600160a01b0393841660039290921b91821b9390911b1916919091179055565b600654801561171257600019016116d4816124ff565b81549060018060a01b039060031b1b191690556006555b7fe1434e25d6611e0db941968fdc97811c982ac1602e951637d206f5fdda9dd8f1600080a2005b634e487b7160e01b600052603160045260246000fd5b634e487b7160e01b600052601160045260246000fd5b50506116eb565b346102345760203660031901126102345760606101606040516117678161242c565b60008152600060208201526000604082015260008382015260006080820152600060a0820152600060c0820152600060e08201526000610100820152600061012082015260006101408201520152600435600052600060205260406000206040516117d18161242c565b8154815260018060a01b03600183015416906020810191825260018060a01b03600284015416926040820193845260018060a01b036003820154169060608301918252600481015460808401908152600582015460a08501908152600683015460c0860190815260078401549060e08701918252600885015492610100880193845260ff6009870154169461012089019561186b816123d3565b8652600b600a880154976101408b019889520197604051988054808b5260208b019160005260206000209060005b81811061197d57505050896118af91038a612449565b6101608a019889526040519b8c9b60208d528c60206101a082019d5191015260018060a01b0390511660408d015260018060a01b0390511660608c015260018060a01b0390511660808b01525160a08a01525160c08901525160e0880152516101008701525161012086015251611925816123d3565b61014085015251610160840152519061018080840152815180915260206101c0840192019060005b81811061195b575050500390f35b82516001600160a01b031684528594506020938401939092019160010161194d565b82546001600160a01b0316845260209093019260019283019201611899565b34610234576080366003190112610234576119b56123bd565b604435906024356064356001600160a01b0381168103610234576002600080516020612da58339815191525414611df7576002600080516020612da58339815191525560ff600c5460a01c16611dc25783600052600360205260ff6003604060002001541615611d7d5760018060a01b0383169081600052600260205260406000209460ff60048701541615611d425760018601548410611d0a5760028601548411611cd25782600052600260205260406000206007810190611a7c8254600954906125d0565b421015611cc1575b50506006860195611a968588546125d0565b600582015410611c85576003015480850290858204148515171561172857602096612710611c069204906009611acc83896125dd565b95611b066040516323b872dd60e01b8d8201523360248201523060448201528a606482015260648152611b00608482612449565b89612b33565b60015499611b138b6125ea565b6001556040518c8101918c83523360601b60408301526001600160601b03198460601b1660548301526001600160601b03199060601b16606882015288607c82015246609c8201528760bc8201524260dc82015260dc8152611b7660fc82612449565b51902060008b8152808d52604090208b81556001810180546001600160a01b0319908116331790915560028201805482166001600160a01b03909516949094179093556003810180549093168a179092556004820188905546600583015560068201879055426007830155600882015501805460ff191690558054611bfc9088906125d0565b9055600b546125d0565b600b5560405191838352868301526040820152837ffc7354074a17072d8ea9f2c463b1aadd9d0ccd9381c8245aad122996a2a13eb160603393a36040519182527f991b8e8a2e2b8ff515f7045174eeb52eb4868e69c5bb4259da6146a93c77574d843393a36001600080516020612da583398151915255604051908152f35b60405162461bcd60e51b815260206004820152601460248201527311185a5b1e481b1a5b5a5d08195e18d95959195960621b6044820152606490fd5b600660009101554290558680611a84565b60405162461bcd60e51b815260206004820152601060248201526f416d6f756e7420746f6f206c6172676560801b6044820152606490fd5b60405162461bcd60e51b815260206004820152601060248201526f105b5bdd5b9d081d1bdbc81cdb585b1b60821b6044820152606490fd5b60405162461bcd60e51b8152602060048201526013602482015272151bdad95b881b9bdd081cdd5c1c1bdc9d1959606a1b6044820152606490fd5b60405162461bcd60e51b815260206004820152601a60248201527f54617267657420636861696e206e6f7420737570706f727465640000000000006044820152606490fd5b60405162461bcd60e51b815260206004820152600d60248201526c109c9a5919d9481c185d5cd959609a1b6044820152606490fd5b633ee5aeb560e01b60005260046000fd5b3461023457602036600319011261023457611e21612ac2565b60043560005260006020526102a160406000206009810160038154611e5260ff8216611e4c816123d3565b15612584565b60ff191617905560038101546001820154600490920154916001600160a01b039081169116612af8565b346102345760a036600319011261023457611e956123bd565b611e9d612ac2565b6001600160a01b03908116600081815260026020526040902054909116611f8057600760405191611ecd8361240f565b808352602083016024358152604084016044358152611f6e60608601606435815260808701906001825260a0880193608435855260c08901956000875260e08a0197428952600052600260205260406000209960018060a01b039060018060a01b03905116166001600160601b0360a01b8b5416178a555160018a0155516002890155516003880155511515600487019060ff801983541691151516179055565b51600585015551600684015551910155005b60405162461bcd60e51b815260206004820152601860248201527f546f6b656e20616c726561647920636f6e6669677572656400000000000000006044820152606490fd5b34610234576000366003190112610234576020600a54604051908152f35b3461023457600036600319011261023457602060ff600c5460a01c166040519015158152f35b34610234576020366003190112610234576001600160a01b0361202a6123bd565b166000526002602052610100604060002060018060a01b03815416906001810154906002810154600382015460ff6004840154169060058401549260076006860154950154956040519788526020880152604087015260608601521515608085015260a084015260c083015260e0820152f35b3461023457602036600319011261023457600060a06040516120be816123f3565b8281528260208201528260408201528260608201528260808201520152600435600052600360205260c060406000206040516120f9816123f3565b81549182825260018060a01b036001820154166020830190815260028201546040840190815260ff6003840154169160608501921515835260a06005600486015495608088019687520154950194855260405195865260018060a01b03905116602086015251604085015251151560608401525160808301525160a0820152f35b34610234576000366003190112610234576020600d54604051908152f35b34610234576000366003190112610234576020600854604051908152f35b34610234576060366003190112610234576004356121d26123a7565b604435906121de612ac2565b6000838152600360205260409020600101546001600160a01b031661236b57600654821161232657600560405191612215836123f3565b848352602083019060018060a01b031693848252604084019081526122a5606085016001815260808601926000845260a08701946000865289600052600360205260406000209751885560018060a01b03905116600188019060018060a01b03166001600160601b0360a01b825416179055516002870155511515600386019060ff801983541691151516179055565b51600484015551910155600454600160401b811015612310577fd34413f9daf08c09e55b3ad5e2f7f18249f3ff26c061cb904f99597dd14ad53e916122f2826001602094016004556124ce565b81549060031b9086821b91600019901b1916179055604051908152a2005b634e487b7160e01b600052604160045260246000fd5b60405162461bcd60e51b815260206004820152601f60248201527f546f6f206d616e7920636f6e6669726d6174696f6e73207265717569726564006044820152606490fd5b60405162461bcd60e51b8152602060048201526014602482015273436861696e20616c72656164792065786973747360601b6044820152606490fd5b602435906001600160a01b038216820361023457565b600435906001600160a01b038216820361023457565b600411156123dd57565b634e487b7160e01b600052602160045260246000fd5b60c0810190811067ffffffffffffffff82111761231057604052565b610100810190811067ffffffffffffffff82111761231057604052565b610180810190811067ffffffffffffffff82111761231057604052565b90601f8019910116810190811067ffffffffffffffff82111761231057604052565b67ffffffffffffffff811161231057601f01601f191660200190565b81601f820112156102345780359061249e8261246b565b926124ac6040519485612449565b8284526020838301011161023457816000926020809301838601378301015290565b6004548110156124e957600460005260206000200190600090565b634e487b7160e01b600052603260045260246000fd5b6006548110156124e957600660005260206000200190600090565b80548210156124e95760005260206000200190600090565b67ffffffffffffffff81116123105760051b60200190565b602060408183019282815284518094520192019060005b81811061256e5750505090565b8251845260209384019390920191600101612561565b1561258b57565b60405162461bcd60e51b815260206004820152601760248201527f5472616e73616374696f6e206e6f742070656e64696e670000000000000000006044820152606490fd5b9190820180921161172857565b9190820391821161172857565b60001981146117285760010190565b1561260057565b60405162461bcd60e51b815260206004820152600f60248201526e2737ba1030903b30b634b230ba37b960891b6044820152606490fd5b60065490600160401b8210156123105761169a82600161265c9401600655600661251a565b565b600052600060205260406000209060ff60098301541661267d816123d3565b612705576001600160a01b031660008181526005602052604090205460ff1615612705576007820154610e10810180911161172857421161270557600b600092018054925b8381106126d25750505050600190565b826126dd828461251a565b905460039190911b1c6001600160a01b0316146126fc576001016126c2565b50505050600090565b5050600090565b80518210156124e95760209160051b010190565b9033600052600560205261273b60ff604060002054166125f9565b81600052600060205260406000209061275e60ff600984015416611e4c816123d3565b6007820154610e108101809111611728574211612a1157600090600b8301918254905b8181106129ae5750506127c76127d09160088501547f19457468657265756d205369676e6564204d6573736167653a0a333200000000600052601c52603c600020612b8e565b90929192612bca565b336001600160a01b039091160361297557805490600160401b82101561231057816128039160016128219401815561251a565b81546001600160a01b0360039290921b91821b19163390911b179055565b6006600a82019161283283546125ea565b80935533847f0b4a6f2406237cdb37cb5ff3eb318f584ed3692c7fa12beb5d43e14da870f5c8600080a30154600052600360205260026040600020015411156128785750565b80600052600060205260406000209060098201600260ff198254161790557f9f216ef5f05f15a84f8cb82ddf6aa995f22f1d1f02df6b96dacdf88fcf887db06020600684019384546000526003825260406000209460048201956128e36004885492019182546125d0565b9055544614612908575b6002015493546040519081526001600160a01b0390941693a3565b600381018054600283018054885491939261293092916001600160a01b039081169116612af8565b54905486546040519081526001600160a01b0391821692909116907fdf1b2b09e9800d31c599375056be9f9e4eb37f078102643600c4e149714efaad908590a36128ed565b60405162461bcd60e51b8152602060048201526011602482015270496e76616c6964207369676e617475726560781b6044820152606490fd5b6129b8818561251a565b905460039190911b1c6001600160a01b031633146129d857600101612781565b60405162461bcd60e51b8152602060048201526011602482015270105b1c9958591e4818dbdb999a5c9b5959607a1b6044820152606490fd5b60405162461bcd60e51b8152602060048201526013602482015272151c985b9cd858dd1a5bdb88195e1c1a5c9959606a1b6044820152606490fd5b6001600160a01b03168015612aac57600080516020612d6583398151915280546001600160a01b0319811683179091556001600160a01b03167f8be0079c531659141344cd1fd0a4f28419497f9722a3daafe3b4186f6b6457e0600080a3565b631e4fbdf760e01b600052600060045260246000fd5b600080516020612d65833981519152546001600160a01b03163303612ae357565b63118cdaa760e01b6000523360045260246000fd5b60405163a9059cbb60e01b60208201526001600160a01b03909216602483015260448083019390935291815261265c91612b33606483612449565b906000602091828151910182855af11561088f576000513d612b8557506001600160a01b0381163b155b612b645750565b635274afe760e01b60009081526001600160a01b0391909116600452602490fd5b60011415612b5d565b8151919060418303612bbf57612bb892506020820151906060604084015193015160001a90612c7a565b9192909190565b505060009160029190565b612bd3816123d3565b80612bdc575050565b612be5816123d3565b60018103612bfe5763f645eedf60e01b60005260046000fd5b612c07816123d3565b60028103612c24575063fce698f760e01b60005260045260246000fd5b600390612c30816123d3565b14612c385750565b6335e2f38360e21b60005260045260246000fd5b60ff600080516020612dc58339815191525460401c1615612c6957565b631afcd79f60e31b60005260046000fd5b91907f7fffffffffffffffffffffffffffffff5d576e7357a4501ddfe92f46681b20a08411612cf7579160209360809260ff60009560405194855216868401526040830152606082015282805260015afa1561088f576000516001600160a01b03811615612ceb5790600090600090565b50600090600190600090565b50505060009160039190565b90612d295750805115612d1857602081519101fd5b63d6bda27560e01b60005260046000fd5b81511580612d5b575b612d3a575090565b639996b31560e01b60009081526001600160a01b0391909116600452602490fd5b50803b15612d3256fe9016d09d72d40fdae2fd8ceac6b6234c7706214fd39c1cd1e609a0528c199300360894a13ba1a3210667c828492db98dca3e2076cc3735a920a3ca505d382bbc9b779b17422d0df92223018b32b4d1fa46e071723d6817e2486d003becc55f00f0c57e16840df040f15088dc2f81fe391c3923bec73e23a9662efc9c229c6a00a2646970667358221220ccdbf48e77db9e51e7dd6b028a6911cffa4b9469a353664e7845e7ecacf6ea2664736f6c634300081c0033",
  "linkReferences": {},
  "deployedLinkReferences": {}
}