{
  "_format": "hh-sol-artifact-1",
  "contractName": "Bridge",
  "sourceName": "contracts/Bridge.sol",
  "abi": [
    {
      "inputs": [
        {
          "internalType": "address",
          "name": "target",
          "type": "address"
        }
      ],
      "name": "AddressEmptyCode",
      "type": "error"
    },
    {
      "inputs": [],
      "name": "ECDSAInvalidSignature",
      "type": "error"
    },
    {
      "inputs": [
        {
          "internalType": "uint256",
          "name": "length",
          "type": "uint256"
        }
      ],
      "name": "ECDSAInvalidSignatureLength",
      "type": "error"
    },
    {
      "inputs": [
        {
          "internalType": "bytes32",
          "name": "s",
          "type": "bytes32"
        }
      ],
      "name": "ECDSAInvalidSignatureS",
      "type": "error"
    },
    {
      "inputs": [
        {
          "internalType": "address",
          "name": "implementation",
          "type": "address"
        }
      ],
      "name": "ERC1967InvalidImplementation",
      "type": "error"
    },
    {
      "inputs": [],
      "name": "ERC1967NonPayable",
      "type": "error"
    },
    {
      "inputs": [],
      "name": "FailedCall",
      "type": "error"
    },
    {
      "inputs": [],
      "name": "InvalidInitialization",
      "type": "error"
    },
    {
      "inputs": [],
      "name": "NotInitializing",
      "type": "error"
    },
    {
      "inputs": [
        {
          "internalType": "address",
          "name": "owner",
          "type": "address"
        }
      ],
      "name": "OwnableInvalidOwner",
      "type": "error"
    },
    {
      "inputs": [
        {
          "internalType": "address",
          "name": "account",
          "type": "address"
        }
      ],
      "name": "OwnableUnauthorizedAccount",
      "type": "error"
    },
    {
      "inputs": [],
      "name": "ReentrancyGuardReentrantCall",
      "type": "error"
    },
    {
      "inputs": [
        {
          "internalType": "address",
          "name": "token",
          "type": "address"
        }
      ],
      "name": "SafeERC20FailedOperation",
      "type": "error"
    },
    {
      "inputs": [],
      "name": "UUPSUnauthorizedCallContext",
      "type": "error"
    },
    {
      "inputs": [
        {
          "internalType": "bytes32",
          "name": "slot",
          "type": "bytes32"
        }
      ],
      "name": "UUPSUnsupportedProxiableUUID",
      "type": "error"
    },
    {
      "anonymous": false,
      "inputs": [
        {
          "indexed": true,
          "internalType": "uint256",
          "name": "txId",
          "type": "uint256"
        },
        {
          "indexed": true,
          "internalType": "address",
          "name": "recipient",
          "type": "address"
        },
        {
          "indexed": false,
          "internalType": "uint256",
          "name": "amount",
          "type": "uint256"
        }
      ],
      "name": "BridgeTransactionCompleted",
      "type": "event"
    },
    {
      "anonymous": false,
      "inputs": [
        {
          "indexed": true,
          "internalType": "uint256",
          "name": "txId",
          "type": "uint256"
        },
        {
          "indexed": true,
          "internalType": "address",
          "name": "validator",
          "type": "address"
        }
      ],
      "name": "BridgeTransactionConfirmed",
      "type": "event"
    },
    {
      "anonymous": false,
      "inputs": [
        {
          "indexed": true,
          "internalType": "uint256",
          "name": "txId",
          "type": "uint256"
        },
        {
          "indexed": true,
          "internalType": "address",
          "name": "sender",
          "type": "address"
        },
        {
          "indexed": false,
          "internalType": "address",
          "name": "token",
          "type": "address"
        },
        {
          "indexed": false,
          "internalType": "uint256",
          "name": "amount",
          "type": "uint256"
        },
        {
          "indexed": false,
          "internalType": "uint256",
          "name": "targetChainId",
          "type": "uint256"
        }
      ],
      "name": "BridgeTransactionInitiated",
      "type": "event"
    },
    {
      "anonymous": false,
      "inputs": [
        {
          "indexed": true,
          "internalType": "uint256",
          "name": "chainId",
          "type": "uint256"
        },
        {
          "indexed": false,
          "internalType": "address",
          "name": "bridgeContract",
          "type": "address"
        }
      ],
      "name": "ChainAdded",
      "type": "event"
    },
    {
      "anonymous": false,
      "inputs": [
        {
          "indexed": false,
          "internalType": "uint256",
          "name": "timestamp",
          "type": "uint256"
        }
      ],
      "name": "EmergencyPaused",
      "type": "event"
    },
    {
      "anonymous": false,
      "inputs": [],
      "name": "EmergencyUnpaused",
      "type": "event"
    },
    {
      "anonymous": false,
      "inputs": [
        {
          "indexed": false,
          "internalType": "uint64",
          "name": "version",
          "type": "uint64"
        }
      ],
      "name": "Initialized",
      "type": "event"
    },
    {
      "anonymous": false,
      "inputs": [
        {
          "indexed": true,
          "internalType": "address",
          "name": "previousOwner",
          "type": "address"
        },
        {
          "indexed": true,
          "internalType": "address",
          "name": "newOwner",
          "type": "address"
        }
      ],
      "name": "OwnershipTransferred",
      "type": "event"
    },
    {
      "anonymous": false,
      "inputs": [
        {
          "indexed": true,
          "internalType": "address",
          "name": "token",
          "type": "address"
        },
        {
          "indexed": true,
          "internalType": "address",
          "name": "sender",
          "type": "address"
        },
        {
          "indexed": false,
          "internalType": "uint256",
          "name": "amount",
          "type": "uint256"
        }
      ],
      "name": "TokenLocked",
      "type": "event"
    },
    {
      "anonymous": false,
      "inputs": [
        {
          "indexed": true,
          "internalType": "address",
          "name": "token",
          "type": "address"
        },
        {
          "indexed": true,
          "internalType": "address",
          "name": "recipient",
          "type": "address"
        },
        {
          "indexed": false,
          "internalType": "uint256",
          "name": "amount",
          "type": "uint256"
        }
      ],
      "name": "TokenMinted",
      "type": "event"
    },
    {
      "anonymous": false,
      "inputs": [
        {
          "indexed": true,
          "internalType": "address",
          "name": "implementation",
          "type": "address"
        }
      ],
      "name": "Upgraded",
      "type": "event"
    },
    {
      "anonymous": false,
      "inputs": [
        {
          "indexed": true,
          "internalType": "address",
          "name": "validator",
          "type": "address"
        }
      ],
      "name": "ValidatorAdded",
      "type": "event"
    },
    {
      "anonymous": false,
      "inputs": [
        {
          "indexed": true,
          "internalType": "address",
          "name": "validator",
          "type": "address"
        }
      ],
      "name": "ValidatorRemoved",
      "type": "event"
    },
    {
      "inputs": [],
      "name": "UPGRADE_INTERFACE_VERSION",
      "outputs": [
        {
          "internalType": "string",
          "name": "",
          "type": "string"
        }
      ],
      "stateMutability": "view",
      "type": "function"
    },
    {
      "inputs": [
        {
          "internalType": "uint256",
          "name": "_chainId",
          "type": "uint256"
        },
        {
          "internalType": "address",
          "name": "_bridgeContract",
          "type": "address"
        },
        {
          "internalType": "uint256",
          "name": "_requiredConfirmations",
          "type": "uint256"
        }
      ],
      "name": "addChain",
      "outputs": [],
      "stateMutability": "nonpayable",
      "type": "function"
    },
    {
      "inputs": [
        {
          "internalType": "address",
          "name": "_token",
          "type": "address"
        },
        {
          "internalType": "uint256",
          "name": "_minAmount",
          "type": "uint256"
        },
        {
          "internalType": "uint256",
          "name": "_maxAmount",
          "type": "uint256"
        },
        {
          "internalType": "uint256",
          "name": "_fee",
          "type": "uint256"
        },
        {
          "internalType": "uint256",
          "name": "_dailyLimit",
          "type": "uint256"
        }
      ],
      "name": "addToken",
      "outputs": [],
      "stateMutability": "nonpayable",
      "type": "function"
    },
    {
      "inputs": [
        {
          "internalType": "address",
          "name": "_validator",
          "type": "address"
        }
      ],
      "name": "addValidator",
      "outputs": [],
      "stateMutability": "nonpayable",
      "type": "function"
    },
    {
      "inputs": [
        {
          "internalType": "uint256[]",
          "name": "_txIds",
          "type": "uint256[]"
        },
        {
          "internalType": "bytes[]",
          "name": "_signatures",
          "type": "bytes[]"
        }
      ],
      "name": "batchConfirmTransactions",
      "outputs": [],
      "stateMutability": "nonpayable",
      "type": "function"
    },
    {
      "inputs": [
        {
          "internalType": "address",
          "name": "_token",
          "type": "address"
        },
        {
          "internalType": "uint256",
          "name": "_amount",
          "type": "uint256"
        },
        {
          "internalType": "uint256",
          "name": "_targetChainId",
          "type": "uint256"
        },
        {
          "internalType": "address",
          "name": "_recipient",
          "type": "address"
        }
      ],
      "name": "bridgeTokens",
      "outputs": [
        {
          "internalType": "uint256",
          "name": "",
          "type": "uint256"
        }
      ],
      "stateMutability": "nonpayable",
      "type": "function"
    },
    {
      "inputs": [
        {
          "internalType": "uint256",
          "name": "_txId",
          "type": "uint256"
        },
        {
          "internalType": "address",
          "name": "_validator",
          "type": "address"
        }
      ],
      "name": "canConfirmTransaction",
      "outputs": [
        {
          "internalType": "bool",
          "name": "",
          "type": "bool"
        }
      ],
      "stateMutability": "view",
      "type": "function"
    },
    {
      "inputs": [
        {
          "internalType": "uint256",
          "name": "_txId",
          "type": "uint256"
        }
      ],
      "name": "cancelTransaction",
      "outputs": [],
      "stateMutability": "nonpayable",
      "type": "function"
    },
    {
      "inputs": [
        {
          "internalType": "uint256",
          "name": "",
          "type": "uint256"
        }
      ],
      "name": "chainConfigs",
      "outputs": [
        {
          "internalType": "uint256",
          "name": "chainId",
          "type": "uint256"
        },
        {
          "internalType": "address",
          "name": "bridgeContract",
          "type": "address"
        },
        {
          "internalType": "uint256",
          "name": "requiredConfirmations",
          "type": "uint256"
        },
        {
          "internalType": "bool",
          "name": "active",
          "type": "bool"
        },
        {
          "internalType": "uint256",
          "name": "totalTransferred",
          "type": "uint256"
        },
        {
          "internalType": "uint256",
          "name": "totalFees",
          "type": "uint256"
        }
      ],
      "stateMutability": "view",
      "type": "function"
    },
    {
      "inputs": [
        {
          "internalType": "uint256",
          "name": "_amount",
          "type": "uint256"
        }
      ],
      "name": "collectFees",
      "outputs": [],
      "stateMutability": "nonpayable",
      "type": "function"
    },
    {
      "inputs": [],
      "name": "collectedFees",
      "outputs": [
        {
          "internalType": "uint256",
          "name": "",
          "type": "uint256"
        }
      ],
      "stateMutability": "view",
      "type": "function"
    },
    {
      "inputs": [
        {
          "internalType": "uint256",
          "name": "_txId",
          "type": "uint256"
        },
        {
          "internalType": "bytes",
          "name": "_signature",
          "type": "bytes"
        }
      ],
      "name": "confirmTransaction",
      "outputs": [],
      "stateMutability": "nonpayable",
      "type": "function"
    },
    {
      "inputs": [],
      "name": "confirmationThreshold",
      "outputs": [
        {
          "internalType": "uint256",
          "name": "",
          "type": "uint256"
        }
      ],
      "stateMutability": "view",
      "type": "function"
    },
    {
      "inputs": [],
      "name": "dailyResetTime",
      "outputs": [
        {
          "internalType": "uint256",
          "name": "",
          "type": "uint256"
        }
      ],
      "stateMutability": "view",
      "type": "function"
    },
    {
      "inputs": [],
      "name": "emergencyPause",
      "outputs": [],
      "stateMutability": "nonpayable",
      "type": "function"
    },
    {
      "inputs": [],
      "name": "emergencyPauseDelay",
      "outputs": [
        {
          "internalType": "uint256",
          "name": "",
          "type": "uint256"
        }
      ],
      "stateMutability": "view",
      "type": "function"
    },
    {
      "inputs": [],
      "name": "emergencyPauseTime",
      "outputs": [
        {
          "internalType": "uint256",
          "name": "",
          "type": "uint256"
        }
      ],
      "stateMutability": "view",
      "type": "function"
    },
    {
      "inputs": [],
      "name": "emergencyPaused",
      "outputs": [
        {
          "internalType": "bool",
          "name": "",
          "type": "bool"
        }
      ],
      "stateMutability": "view",
      "type": "function"
    },
    {
      "inputs": [],
      "name": "emergencyUnpause",
      "outputs": [],
      "stateMutability": "nonpayable",
      "type": "function"
    },
    {
      "inputs": [
        {
          "internalType": "address",
          "name": "_token",
          "type": "address"
        },
        {
          "internalType": "uint256",
          "name": "_amount",
          "type": "uint256"
        }
      ],
      "name": "emergencyWithdraw",
      "outputs": [],
      "stateMutability": "nonpayable",
      "type": "function"
    },
    {
      "inputs": [],
      "name": "feeRecipient",
      "outputs": [
        {
          "internalType": "address",
          "name": "",
          "type": "address"
        }
      ],
      "stateMutability": "view",
      "type": "function"
    },
    {
      "inputs": [
        {
          "internalType": "uint256",
          "name": "_chainId",
          "type": "uint256"
        }
      ],
      "name": "getChainConfig",
      "outputs": [
        {
          "components": [
            {
              "internalType": "uint256",
              "name": "chainId",
              "type": "uint256"
            },
            {
              "internalType": "address",
              "name": "bridgeContract",
              "type": "address"
            },
            {
              "internalType": "uint256",
              "name": "requiredConfirmations",
              "type": "uint256"
            },
            {
              "internalType": "bool",
              "name": "active",
              "type": "bool"
            },
            {
              "internalType": "uint256",
              "name": "totalTransferred",
              "type": "uint256"
            },
            {
              "internalType": "uint256",
              "name": "totalFees",
              "type": "uint256"
            }
          ],
          "internalType": "struct Bridge.ChainConfig",
          "name": "",
          "type": "tuple"
        }
      ],
      "stateMutability": "view",
      "type": "function"
    },
    {
      "inputs": [],
      "name": "getPendingTransactions",
      "outputs": [
        {
          "internalType": "uint256[]",
          "name": "",
          "type": "uint256[]"
        }
      ],
      "stateMutability": "view",
      "type": "function"
    },
    {
      "inputs": [],
      "name": "getSupportedChains",
      "outputs": [
        {
          "internalType": "uint256[]",
          "name": "",
          "type": "uint256[]"
        }
      ],
      "stateMutability": "view",
      "type": "function"
    },
    {
      "inputs": [
        {
          "internalType": "address",
          "name": "_token",
          "type": "address"
        }
      ],
      "name": "getTokenConfig",
      "outputs": [
        {
          "components": [
            {
              "internalType": "address",
              "name": "tokenAddress",
              "type": "address"
            },
            {
              "internalType": "uint256",
              "name": "minAmount",
              "type": "uint256"
            },
            {
              "internalType": "uint256",
              "name": "maxAmount",
              "type": "uint256"
            },
            {
              "internalType": "uint256",
              "name": "fee",
              "type": "uint256"
            },
            {
              "internalType": "bool",
              "name": "active",
              "type": "bool"
            },
            {
              "internalType": "uint256",
              "name": "dailyLimit",
              "type": "uint256"
            },
            {
              "internalType": "uint256",
              "name": "dailyTransferred",
              "type": "uint256"
            },
            {
              "internalType": "uint256",
              "name": "lastResetTime",
              "type": "uint256"
            }
          ],
          "internalType": "struct Bridge.TokenConfig",
          "name": "",
          "type": "tuple"
        }
      ],
      "stateMutability": "view",
      "type": "function"
    },
    {
      "inputs": [
        {
          "internalType": "uint256",
          "name": "_txId",
          "type": "uint256"
        }
      ],
      "name": "getTransaction",
      "outputs": [
        {
          "components": [
            {
              "internalType": "uint256",
              "name": "id",
              "type": "uint256"
            },
            {
              "internalType": "address",
              "name": "sender",
              "type": "address"
            },
            {
              "internalType": "address",
              "name": "recipient",
              "type": "address"
            },
            {
              "internalType": "address",
              "name": "token",
              "type": "address"
            },
            {
              "internalType": "uint256",
              "name": "amount",
              "type": "uint256"
            },
            {
              "internalType": "uint256",
              "name": "sourceChainId",
              "type": "uint256"
            },
            {
              "internalType": "uint256",
              "name": "targetChainId",
              "type": "uint256"
            },
            {
              "internalType": "uint256",
              "name": "timestamp",
              "type": "uint256"
            },
            {
              "internalType": "bytes32",
              "name": "txHash",
              "type": "bytes32"
            },
            {
              "internalType": "enum Bridge.Status",
              "name": "status",
              "type": "uint8"
            },
            {
              "internalType": "uint256",
              "name": "confirmations",
              "type": "uint256"
            },
            {
              "internalType": "address[]",
              "name": "validators",
              "type": "address[]"
            }
          ],
          "internalType": "struct Bridge.BridgeTransaction",
          "name": "",
          "type": "tuple"
        }
      ],
      "stateMutability": "view",
      "type": "function"
    },
    {
      "inputs": [],
      "name": "getValidators",
      "outputs": [
        {
          "internalType": "address[]",
          "name": "",
          "type": "address[]"
        }
      ],
      "stateMutability": "view",
      "type": "function"
    },
    {
      "inputs": [
        {
          "internalType": "address",
          "name": "_feeRecipient",
          "type": "address"
        }
      ],
      "name": "initialize",
      "outputs": [],
      "stateMutability": "nonpayable",
      "type": "function"
    },
    {
      "inputs": [],
      "name": "maxValidators",
      "outputs": [
        {
          "internalType": "uint256",
          "name": "",
          "type": "uint256"
        }
      ],
      "stateMutability": "view",
      "type": "function"
    },
    {
      "inputs": [
        {
          "internalType": "uint256",
          "name": "_txId",
          "type": "uint256"
        }
      ],
      "name": "mintTokens",
      "outputs": [],
      "stateMutability": "nonpayable",
      "type": "function"
    },
    {
      "inputs": [],
      "name": "nextTxId",
      "outputs": [
        {
          "internalType": "uint256",
          "name": "",
          "type": "uint256"
        }
      ],
      "stateMutability": "view",
      "type": "function"
    },
    {
      "inputs": [],
      "name": "owner",
      "outputs": [
        {
          "internalType": "address",
          "name": "",
          "type": "address"
        }
      ],
      "stateMutability": "view",
      "type": "function"
    },
    {
      "inputs": [],
      "name": "proxiableUUID",
      "outputs": [
        {
          "internalType": "bytes32",
          "name": "",
          "type": "bytes32"
        }
      ],
      "stateMutability": "view",
      "type": "function"
    },
    {
      "inputs": [
        {
          "internalType": "address",
          "name": "_validator",
          "type": "address"
        }
      ],
      "name": "removeValidator",
      "outputs": [],
      "stateMutability": "nonpayable",
      "type": "function"
    },
    {
      "inputs": [],
      "name": "renounceOwnership",
      "outputs": [],
      "stateMutability": "nonpayable",
      "type": "function"
    },
    {
      "inputs": [
        {
          "internalType": "address",
          "name": "_feeRecipient",
          "type": "address"
        }
      ],
      "name": "setFeeRecipient",
      "outputs": [],
      "stateMutability": "nonpayable",
      "type": "function"
    },
    {
      "inputs": [
        {
          "internalType": "uint256",
          "name": "_confirmationThreshold",
          "type": "uint256"
        },
        {
          "internalType": "uint256",
          "name": "_maxValidators",
          "type": "uint256"
        },
        {
          "internalType": "uint256",
          "name": "_dailyResetTime",
          "type": "uint256"
        },
        {
          "internalType": "uint256",
          "name": "_emergencyPauseDelay",
          "type": "uint256"
        }
      ],
      "name": "setProtocolParameters",
      "outputs": [],
      "stateMutability": "nonpayable",
      "type": "function"
    },
    {
      "inputs": [
        {
          "internalType": "uint256",
          "name": "",
          "type": "uint256"
        }
      ],
      "name": "supportedChains",
      "outputs": [
        {
          "internalType": "uint256",
          "name": "",
          "type": "uint256"
        }
      ],
      "stateMutability": "view",
      "type": "function"
    },
    {
      "inputs": [
        {
          "internalType": "address",
          "name": "",
          "type": "address"
        }
      ],
      "name": "tokenConfigs",
      "outputs": [
        {
          "internalType": "address",
          "name": "tokenAddress",
          "type": "address"
        },
        {
          "internalType": "uint256",
          "name": "minAmount",
          "type": "uint256"
        },
        {
          "internalType": "uint256",
          "name": "maxAmount",
          "type": "uint256"
        },
        {
          "internalType": "uint256",
          "name": "fee",
          "type": "uint256"
        },
        {
          "internalType": "bool",
          "name": "active",
          "type": "bool"
        },
        {
          "internalType": "uint256",
          "name": "dailyLimit",
          "type": "uint256"
        },
        {
          "internalType": "uint256",
          "name": "dailyTransferred",
          "type": "uint256"
        },
        {
          "internalType": "uint256",
          "name": "lastResetTime",
          "type": "uint256"
        }
      ],
      "stateMutability": "view",
      "type": "function"
    },
    {
      "inputs": [
        {
          "internalType": "uint256",
          "name": "",
          "type": "uint256"
        }
      ],
      "name": "transactions",
      "outputs": [
        {
          "internalType": "uint256",
          "name": "id",
          "type": "uint256"
        },
        {
          "internalType": "address",
          "name": "sender",
          "type": "address"
        },
        {
          "internalType": "address",
          "name": "recipient",
          "type": "address"
        },
        {
          "internalType": "address",
          "name": "token",
          "type": "address"
        },
        {
          "internalType": "uint256",
          "name": "amount",
          "type": "uint256"
        },
        {
          "internalType": "uint256",
          "name": "sourceChainId",
          "type": "uint256"
        },
        {
          "internalType": "uint256",
          "name": "targetChainId",
          "type": "uint256"
        },
        {
          "internalType": "uint256",
          "name": "timestamp",
          "type": "uint256"
        },
        {
          "internalType": "bytes32",
          "name": "txHash",
          "type": "bytes32"
        },
        {
          "internalType": "enum Bridge.Status",
          "name": "status",
          "type": "uint8"
        },
        {
          "internalType": "uint256",
          "name": "confirmations",
          "type": "uint256"
        }
      ],
      "stateMutability": "view",
      "type": "function"
    },
    {
      "inputs": [
        {
          "internalType": "address",
          "name": "newOwner",
          "type": "address"
        }
      ],
      "name": "transferOwnership",
      "outputs": [],
      "stateMutability": "nonpayable",
      "type": "function"
    },
    {
      "inputs": [
        {
          "internalType": "uint256",
          "name": "_chainId",
          "type": "uint256"
        },
        {
          "internalType": "uint256",
          "name": "_requiredConfirmations",
          "type": "uint256"
        },
        {
          "internalType": "bool",
          "name": "_active",
          "type": "bool"
        }
      ],
      "name": "updateChainConfig",
      "outputs": [],
      "stateMutability": "nonpayable",
      "type": "function"
    },
    {
      "inputs": [
        {
          "internalType": "address",
          "name": "_token",
          "type": "address"
        },
        {
          "internalType": "uint256",
          "name": "_minAmount",
          "type": "uint256"
        },
        {
          "internalType": "uint256",
          "name": "_maxAmount",
          "type": "uint256"
        },
        {
          "internalType": "uint256",
          "name": "_fee",
          "type": "uint256"
        },
        {
          "internalType": "uint256",
          "name": "_dailyLimit",
          "type": "uint256"
        },
        {
          "internalType": "bool",
          "name": "_active",
          "type": "bool"
        }
      ],
      "name": "updateTokenConfig",
      "outputs": [],
      "stateMutability": "nonpayable",
      "type": "function"
    },
    {
      "inputs": [
        {
          "internalType": "address",
          "name": "newImplementation",
          "type": "address"
        },
        {
          "internalType": "bytes",
          "name": "data",
          "type": "bytes"
        }
      ],
      "name": "upgradeToAndCall",
      "outputs": [],
      "stateMutability": "payable",
      "type": "function"
    },
    {
      "inputs": [
        {
          "internalType": "uint256",
          "name": "",
          "type": "uint256"
        }
      ],
      "name": "validatorList",
      "outputs": [
        {
          "internalType": "address",
          "name": "",
          "type": "address"
        }
      ],
      "stateMutability": "view",
      "type": "function"
    },
    {
      "inputs": [
        {
          "internalType": "address",
          "name": "",
          "type": "address"
        }
      ],
      "name": "validators",
      "outputs": [
        {
          "internalType": "bool",
          "name": "",
          "type": "bool"
        }
      ],
      "stateMutability": "view",
      "type": "function"
    }
  ],
  "bytecode": "0x60a0806040523460455730608052600180556003600755600a6008556201518060095562015180600a556131bc908161004b82396080518181816111f4015261138a0152f35b600080fdfe6080604052600436101561001257600080fd5b60003560e01c80630594f7a01461247257806308ac52561461245457806311483bd21461243657806319ed16dc146123585780631b69dc5f146122c357806327c830a91461229d57806332ae76031461227f5780633319342a1461213c5780633380c0d8146120c357806333b15aad14611ba057806333ea3dc81461194257806340a141ff146117db57806346904840146117b45780634a4e3bd51461170e5780634d238c8e146115ef5780634f1ef2861461134c57806351858e27146112df57806351bfbc321461126e57806352d1902d146111d9578063548d496f146111a157806358a8adc6146110cf5780635c4085661461109f578063715018a61461100657806378c86ab514610f595780637c151fb314610dc85780638aff87b214610daa5780638da5cb5b14610d645780639003adfe14610d4657806395ccea6714610c9857806397304ced14610b355780639ace38c214610a73578063a41bfcfc14610a40578063ad3cb1cc146109ac578063b048e0561461096b578063b17acdcd146108bd578063b7ab4db51461080d578063c4a2e641146107d1578063c4bffe2b1461074e578063c4d66de81461050e578063cb67e3b1146103f9578063d11db83f14610301578063d14b6e9b146102e3578063e74b981b146102a3578063f2fde38b14610278578063fa52c7d8146102395763fceb17eb1461021657600080fd5b34610234576000366003190112610234576020600754604051908152f35b600080fd5b34610234576020366003190112610234576001600160a01b0361025a612685565b166000526005602052602060ff604060002054166040519015158152f35b34610234576020366003190112610234576102a1610294612685565b61029c612de9565b612d2a565b005b34610234576020366003190112610234576001600160a01b036102c4612685565b6102cc612de9565b166001600160a01b0319600c541617600c55600080f35b34610234576000366003190112610234576020600954604051908152f35b3461023457600036600319011261023457600060018054905b8181106103b9575061032b826127fa565b916103396040519384612711565b808352610348601f19916127fa565b01366020840137600060015b82811061036d57604051806103698682612812565b0390f35b80600052600060205260ff6009604060002001541661038b8161269b565b15610399575b600101610354565b906103b181836103ab600194886129e3565b526128b1565b919050610391565b80600052600060205260ff600960406000200154166103d78161269b565b156103e5575b60010161031a565b916103f16001916128b1565b9290506103dd565b34610234576020366003190112610234576001600160a01b0361041a612685565b600060e060405161042a816126d7565b8281528260208201528260408201528260608201528260808201528260a08201528260c082015201521660005260026020526101006040600020604051610470816126d7565b6001600160a01b038254169182825260018101546020830190815260028201546040840190815260038301546060850190815260ff6004850154169160808601921515835260058501549360a0870194855260e0600760068801549760c08a019889520154970196875260405197885251602088015251604087015251606086015251151560808501525160a08401525160c08301525160e0820152f35b3461023457602036600319011261023457610527612685565b7ff0c57e16840df040f15088dc2f81fe391c3923bec73e23a9662efc9c229c6a005460ff8160401c16159167ffffffffffffffff821680159081610746575b600114908161073c575b159081610733575b506107095767ffffffffffffffff1982166001177ff0c57e16840df040f15088dc2f81fe391c3923bec73e23a9662efc9c229c6a00556001600160a01b0391836106ca575b506105c6613014565b6105ce613014565b6105d733612d2a565b6105df613014565b6105e7613014565b60017f9b779b17422d0df92223018b32b4d1fa46e071723d6817e2486d003becc55f0055610613613014565b166001600160a01b0319600c541617600c553360005260056020526040600020600160ff198254161790556106473361290b565b61064d57005b68ff0000000000000000197ff0c57e16840df040f15088dc2f81fe391c3923bec73e23a9662efc9c229c6a0054167ff0c57e16840df040f15088dc2f81fe391c3923bec73e23a9662efc9c229c6a00557fc7f505b2f371ae2175ee4913f4499e1f2633a7b5936321eed1cdaeb6115181d2602060405160018152a1005b68ffffffffffffffffff191668010000000000000001177ff0c57e16840df040f15088dc2f81fe391c3923bec73e23a9662efc9c229c6a0055836105bd565b7ff92ee8a90000000000000000000000000000000000000000000000000000000060005260046000fd5b90501584610578565b303b159150610570565b849150610566565b346102345760003660031901126102345760405180602060045491828152019060046000527f8a35acfbc15ff81a39ae7d344fd709f28e8600b4aa8c65c6b64bfe7fe36bd19b9060005b8181106107bb57610369856107af81870382612711565b60405191829182612812565b8254845260209093019260019283019201610798565b346102345760403660031901126102345760243567ffffffffffffffff8111610234576108056102a191369060040161274f565b6004356129f7565b346102345760003660031901126102345760405160065490818152602081018092600660005260206000209060005b81811061089e5750505081610852910382612711565b6040519182916020830190602084525180915260408301919060005b81811061087c575050500390f35b82516001600160a01b031684528594506020938401939092019160010161086e565b82546001600160a01b031684526020909301926001928301920161083c565b34610234576020366003190112610234576004356108d9612de9565b600b5481811061092757600080836108f3829583956128a4565b600b556001600160a01b03600c541682821561091e575bf11561091257005b6040513d6000823e3d90fd5b506108fc61090a565b606460405162461bcd60e51b815260206004820152601160248201527f496e73756666696369656e7420666565730000000000000000000000000000006044820152fd5b3461023457602036600319011261023457600435600654811015610234576001600160a01b0361099c6020926127c7565b90549060031b1c16604051908152f35b346102345760003660031901126102345760408051906109cc8183612711565b600582527f352e302e300000000000000000000000000000000000000000000000000000006020830152805180926020825280519081602084015260005b828110610a295750506000828201840152601f01601f19168101030190f35b602082820181015187830187015286945001610a0a565b3461023457608036600319011261023457610a59612de9565b600435600755602435600855604435600955606435600a55005b3461023457602036600319011261023457600435600052600060205261016060406000208054906001600160a01b03600182015416906001600160a01b036002820154166001600160a01b0360038301541660048301546005840154600685015491600786015493600887015495600a60ff60098a015416980154986040519a8b5260208b015260408a01526060890152608088015260a087015260c086015260e0850152610100840152610b278161269b565b610120830152610140820152f35b3461023457602036600319011261023457600435806000526000602052604060002090600982018054600160ff8216610b6d8161269b565b03610c545760068401544603610c105760029060ff19161790557f9f216ef5f05f15a84f8cb82ddf6aa995f22f1d1f02df6b96dacdf88fcf887db06020600384016001600160a01b03808083541692610bd560028901946004848754169a01998a5491612e4a565b5416915416809554917fdf1b2b09e9800d31c599375056be9f9e4eb37f078102643600c4e149714efaad84604051858152a3604051908152a3005b606460405162461bcd60e51b815260206004820152600b60248201527f57726f6e6720636861696e0000000000000000000000000000000000000000006044820152fd5b606460405162461bcd60e51b815260206004820152601960248201527f5472616e73616374696f6e206e6f7420636f6e6669726d6564000000000000006044820152fd5b3461023457604036600319011261023457610cb1612685565b610cb9612de9565b60ff600c5460a01c1615610d02576102a190602435906001600160a01b03807f9016d09d72d40fdae2fd8ceac6b6234c7706214fd39c1cd1e609a0528c19930054169116612e4a565b606460405162461bcd60e51b815260206004820152601560248201527f4e6f7420696e20656d657267656e6379206d6f646500000000000000000000006044820152fd5b34610234576000366003190112610234576020600b54604051908152f35b346102345760003660031901126102345760206001600160a01b037f9016d09d72d40fdae2fd8ceac6b6234c7706214fd39c1cd1e609a0528c1993005416604051908152f35b34610234576000366003190112610234576020600154604051908152f35b346102345760403660031901126102345760043567ffffffffffffffff8111610234573660238201121561023457806004013590610e05826127fa565b91610e136040519384612711565b8083526024602084019160051b8301019136831161023457602401905b828210610f49576024358467ffffffffffffffff82116102345736602383011215610234578160040135610e63816127fa565b92610e716040519485612711565b8184526024602085019260051b820101903682116102345760248101925b828410610f195785858051825103610ed55760005b81518110156102a15780610ecf610ebd600193856129e3565b51610ec883876129e3565b51906129f7565b01610ea4565b606460405162461bcd60e51b815260206004820152601160248201527f4d69736d617463686564206172726179730000000000000000000000000000006044820152fd5b833567ffffffffffffffff811161023457602091610f3e83926024369187010161274f565b815201930192610e8f565b8135815260209182019101610e30565b3461023457606036600319011261023457604435801515810361023457610f7e612de9565b60043560005260036020526040600020906001600160a01b0360018301541615610fc25760036102a1926024356002820155019060ff801983541691151516179055565b606460405162461bcd60e51b815260206004820152600f60248201527f436861696e206e6f7420666f756e6400000000000000000000000000000000006044820152fd5b346102345760003660031901126102345761101f612de9565b60006001600160a01b037f9016d09d72d40fdae2fd8ceac6b6234c7706214fd39c1cd1e609a0528c199300546001600160a01b031981167f9016d09d72d40fdae2fd8ceac6b6234c7706214fd39c1cd1e609a0528c19930055167f8be0079c531659141344cd1fd0a4f28419497f9722a3daafe3b4186f6b6457e08280a3005b346102345760403660031901126102345760206110c56110bd61266f565b600435612937565b6040519015158152f35b346102345760c0366003190112610234576110e8612685565b60a435908115158203610234576001600160a01b0390611106612de9565b1660005260026020526040600020906001600160a01b038254161561115d5760046102a1926024356001820155604435600282015560643560038201556084356005820155019060ff801983541691151516179055565b606460405162461bcd60e51b815260206004820152601460248201527f546f6b656e206e6f7420636f6e666967757265640000000000000000000000006044820152fd5b3461023457602036600319011261023457600435600454811015610234576111ca602091612796565b90549060031b1c604051908152f35b34610234576000366003190112610234576001600160a01b037f00000000000000000000000000000000000000000000000000000000000000001630036112445760206040517f360894a13ba1a3210667c828492db98dca3e2076cc3735a920a3ca505d382bbc8152f35b7fe07c8dba0000000000000000000000000000000000000000000000000000000060005260046000fd5b3461023457602036600319011261023457600435600052600360205260c060406000208054906001600160a01b0360018201541690600281015460ff6003830154169060056004840154930154936040519586526020860152604085015215156060840152608083015260a0820152f35b34610234576000366003190112610234576112f8612de9565b7401000000000000000000000000000000000000000060ff60a01b19600c541617600c5542600d557f11d8c430ae8dff60717610a0356ce3ac35187fc9569e6adfe01d281cc1c167d56020604051428152a1005b604036600319011261023457611360612685565b60243567ffffffffffffffff81116102345761138090369060040161274f565b6001600160a01b037f0000000000000000000000000000000000000000000000000000000000000000168030149081156115ba575b50611244576113c2612de9565b6001600160a01b038216916040517f52d1902d000000000000000000000000000000000000000000000000000000008152602081600481875afa60009181611586575b5061141f5783634c9c8ce360e01b60005260045260246000fd5b807f360894a13ba1a3210667c828492db98dca3e2076cc3735a920a3ca505d382bbc8592036115595750813b1561154557806001600160a01b03197f360894a13ba1a3210667c828492db98dca3e2076cc3735a920a3ca505d382bbc5416177f360894a13ba1a3210667c828492db98dca3e2076cc3735a920a3ca505d382bbc557fbc7cd75a20ee27fd9adebab32041f755214dbc6bffa90cc0225b39da2e5c2d3b600080a2815115611512576000808360206102a195519101845af43d1561150a573d916114ed83612733565b926114fb6040519485612711565b83523d6000602085013e6130f6565b6060916130f6565b50503461151b57005b7fb398979f0000000000000000000000000000000000000000000000000000000060005260046000fd5b634c9c8ce360e01b60005260045260246000fd5b7faa1d49a40000000000000000000000000000000000000000000000000000000060005260045260246000fd5b9091506020813d6020116115b2575b816115a260209383612711565b8101031261023457519085611405565b3d9150611595565b90506001600160a01b037f360894a13ba1a3210667c828492db98dca3e2076cc3735a920a3ca505d382bbc54161415836113b5565b3461023457602036600319011261023457611608612685565b611610612de9565b6001600160a01b0381169081600052600560205260ff604060002054166116ca5760065460085411156116865761165f908260005260056020526040600020600160ff1982541617905561290b565b7fe366c1c0452ed8eec96861e9e54141ebff23c9ec89fe27b996b45f5ec3884987600080a2005b606460405162461bcd60e51b815260206004820152601660248201527f4d61782076616c696461746f72732072656163686564000000000000000000006044820152fd5b606460405162461bcd60e51b815260206004820152601360248201527f416c726561647920612076616c696461746f72000000000000000000000000006044820152fd5b3461023457600036600319011261023457611727612de9565b611736600d54600a5490612897565b42106117705760ff60a01b19600c5416600c557f15de7ad89d29fd1c6d2e6b1e878453569b4080edf34e0105faaa3bd52f018530600080a1005b606460405162461bcd60e51b815260206004820152601a60248201527f456d657267656e63792064656c6179206e6f74207061737365640000000000006044820152fd5b346102345760003660031901126102345760206001600160a01b03600c5416604051908152f35b34610234576020366003190112610234576001600160a01b036117fc612685565b611804612de9565b1680600052600560205261181f60ff604060002054166128c0565b6000818152600560205260408120805460ff191690555b600654908181101561193b57826001600160a01b03611854836127c7565b90549060031b1c161461186b576001915001611836565b60001982019182116119255761189c6001600160a01b0361188e6118bb946127c7565b90549060031b1c16916127c7565b9091906001600160a01b038084549260031b9316831b921b1916179055565b600654801561190f57600019016118d1816127c7565b6001600160a01b0382549160031b1b191690556006555b7fe1434e25d6611e0db941968fdc97811c982ac1602e951637d206f5fdda9dd8f1600080a2005b634e487b7160e01b600052603160045260246000fd5b634e487b7160e01b600052601160045260246000fd5b50506118e8565b34610234576020366003190112610234576060610160604051611964816126f4565b60008152600060208201526000604082015260008382015260006080820152600060a0820152600060c0820152600060e08201526000610100820152600061012082015260006101408201520152600435600052600060205260406000206040516119ce816126f4565b815481526001600160a01b0360018301541690602081019182526001600160a01b0360028401541692604082019384526001600160a01b036003820154169060608301918252600481015460808401908152600582015460a08501908152600683015460c0860190815260078401549060e08701918252600885015492610100880193845260ff60098701541694610120890195611a6b8161269b565b8652600b600a880154976101408b019889520197604051988054808b5260208b019160005260206000209060005b818110611b8157505050899003611ab0908a612711565b6101608a019889526040519b8c9b60208d528c6101a081019c519060200152516001600160a01b031660408d0152516001600160a01b031660608c0152516001600160a01b031660808b01525160a08a01525160c08901525160e0880152516101008701525161012086015251611b268161269b565b6101408501525161016084015251906101808301610180905281518091526101c08301916020019060005b818110611b5f575050500390f35b82516001600160a01b0316845285945060209384019390920191600101611b51565b82546001600160a01b0316845260209093019260019283019201611a99565b3461023457608036600319011261023457611bb9612685565b604435906024356064356001600160a01b03811681036102345760027f9b779b17422d0df92223018b32b4d1fa46e071723d6817e2486d003becc55f0054146120995760027f9b779b17422d0df92223018b32b4d1fa46e071723d6817e2486d003becc55f005560ff600c5460a01c166120555783600052600360205260ff6003604060002001541615612011576001600160a01b0383169081600052600260205260406000209460ff60048701541615611fcd5760018601548410611f895760028601548411611f455782600052600260205260406000206007810190611ca5825460095490612897565b421015611f34575b50506006860195611cbf858854612897565b600582015410611ef0576003015480850290858204148515171561192557602096612710611e5f9204906009611cf583896128a4565b95611d486040517f23b872dd000000000000000000000000000000000000000000000000000000008d8201523360248201523060448201528a606482015260648152611d42608482612711565b89612e9a565b60015499611d558b6128b1565b6001556040518c8101918c83523360601b60408301526bffffffffffffffffffffffff198460601b1660548301526bffffffffffffffffffffffff199060601b16606882015288607c82015246609c8201528760bc8201524260dc82015260dc8152611dc260fc82612711565b5190208a60005260008c526040600020918b8355600183016001600160a01b0333166001600160a01b03198254161790556001600160a01b036002840191166001600160a01b031982541617905560038201896001600160a01b031982541617905587600483015546600583015586600683015542600783015560088201550160ff198154169055611e55878254612897565b9055600b54612897565b600b5560405191838352868301526040820152837ffc7354074a17072d8ea9f2c463b1aadd9d0ccd9381c8245aad122996a2a13eb160603393a36040519182527f991b8e8a2e2b8ff515f7045174eeb52eb4868e69c5bb4259da6146a93c77574d843393a360017f9b779b17422d0df92223018b32b4d1fa46e071723d6817e2486d003becc55f0055604051908152f35b606460405162461bcd60e51b815260206004820152601460248201527f4461696c79206c696d69742065786365656465640000000000000000000000006044820152fd5b600660009101554290558680611cad565b606460405162461bcd60e51b815260206004820152601060248201527f416d6f756e7420746f6f206c61726765000000000000000000000000000000006044820152fd5b606460405162461bcd60e51b815260206004820152601060248201527f416d6f756e7420746f6f20736d616c6c000000000000000000000000000000006044820152fd5b606460405162461bcd60e51b815260206004820152601360248201527f546f6b656e206e6f7420737570706f72746564000000000000000000000000006044820152fd5b606460405162461bcd60e51b815260206004820152601a60248201527f54617267657420636861696e206e6f7420737570706f727465640000000000006044820152fd5b606460405162461bcd60e51b815260206004820152600d60248201527f42726964676520706175736564000000000000000000000000000000000000006044820152fd5b7f3ee5aeb50000000000000000000000000000000000000000000000000000000060005260046000fd5b34610234576020366003190112610234576120dc612de9565b60043560005260006020526102a16040600020600981016003815461210d60ff82166121078161269b565b1561284c565b60ff19161790556001600160a01b036003820154169060046001600160a01b0360018301541691015491612e4a565b346102345760a0366003190112610234576001600160a01b0361215d612685565b612165612de9565b168060005260026020526001600160a01b036040600020541661223b57600760405191612191836126d7565b80835260208301602435815260408401604435815261222960608601606435815260808701906001825260a0880193608435855260c08901956000875260e08a019742895260005260026020526001600160a01b038060406000209b5116166001600160a01b03198b5416178a555160018a0155516002890155516003880155511515600487019060ff801983541691151516179055565b51600585015551600684015551910155005b606460405162461bcd60e51b815260206004820152601860248201527f546f6b656e20616c726561647920636f6e6669677572656400000000000000006044820152fd5b34610234576000366003190112610234576020600a54604051908152f35b3461023457600036600319011261023457602060ff600c5460a01c166040519015158152f35b34610234576020366003190112610234576001600160a01b036122e4612685565b16600052600260205261010060406000206001600160a01b03815416906001810154906002810154600382015460ff6004840154169060058401549260076006860154950154956040519788526020880152604087015260608601521515608085015260a084015260c083015260e0820152f35b3461023457602036600319011261023457600060a0604051612379816126bb565b8281528260208201528260408201528260608201528260808201520152600435600052600360205260c060406000206040516123b4816126bb565b8154918282526001600160a01b03600182015416602083019081526002820154604084019081526001600160a01b0360ff6003850154169260608601931515845260a0600560048701549660808901978852015496019586526040519687525116602086015251604085015251151560608401525160808301525160a0820152f35b34610234576000366003190112610234576020600d54604051908152f35b34610234576000366003190112610234576020600854604051908152f35b346102345760603660031901126102345760043561248e61266f565b6044359061249a612de9565b8260005260036020526001600160a01b036001604060002001541661262b5760065482116125e7576005604051916124d1836126bb565b8483526001600160a01b03602084019116938482526040840190815261256160608501600181526080860192600084526001600160a01b0360a0880195600087528a600052600360205260406000209851895551166001600160a01b036001890191166001600160a01b0319825416179055516002870155511515600386019060ff801983541691151516179055565b51600484015551910155600454680100000000000000008110156125d1577fd34413f9daf08c09e55b3ad5e2f7f18249f3ff26c061cb904f99597dd14ad53e916125b382600160209401600455612796565b81549060031b9086821b91600019901b1916179055604051908152a2005b634e487b7160e01b600052604160045260246000fd5b606460405162461bcd60e51b815260206004820152601f60248201527f546f6f206d616e7920636f6e6669726d6174696f6e73207265717569726564006044820152fd5b606460405162461bcd60e51b815260206004820152601460248201527f436861696e20616c7265616479206578697374730000000000000000000000006044820152fd5b602435906001600160a01b038216820361023457565b600435906001600160a01b038216820361023457565b600411156126a557565b634e487b7160e01b600052602160045260246000fd5b60c0810190811067ffffffffffffffff8211176125d157604052565b610100810190811067ffffffffffffffff8211176125d157604052565b610180810190811067ffffffffffffffff8211176125d157604052565b90601f8019910116810190811067ffffffffffffffff8211176125d157604052565b67ffffffffffffffff81116125d157601f01601f191660200190565b81601f820112156102345780359061276682612733565b926127746040519485612711565b8284526020838301011161023457816000926020809301838601378301015290565b6004548110156127b157600460005260206000200190600090565b634e487b7160e01b600052603260045260246000fd5b6006548110156127b157600660005260206000200190600090565b80548210156127b15760005260206000200190600090565b67ffffffffffffffff81116125d15760051b60200190565b602060408183019282815284518094520192019060005b8181106128365750505090565b8251845260209384019390920191600101612829565b1561285357565b606460405162461bcd60e51b815260206004820152601760248201527f5472616e73616374696f6e206e6f742070656e64696e670000000000000000006044820152fd5b9190820180921161192557565b9190820391821161192557565b60001981146119255760010190565b156128c757565b606460405162461bcd60e51b815260206004820152600f60248201527f4e6f7420612076616c696461746f7200000000000000000000000000000000006044820152fd5b60065490680100000000000000008210156125d15761189c826001612935940160065560066127e2565b565b600052600060205260406000209060ff6009830154166129568161269b565b6129dc576001600160a01b031680600052600560205260ff60406000205416156129dc576007820154610e1081018091116119255742116129dc57600b600092018054925b8381106129ab5750505050600190565b826001600160a01b036129be83856127e2565b90549060031b1c16146129d35760010161299b565b50505050600090565b5050600090565b80518210156127b15760209160051b010190565b90336000526005602052612a1260ff604060002054166128c0565b816000526000602052604060002090612a3560ff6009840154166121078161269b565b6007820154610e108101809111611925574211612ce657600090600b8301918254905b818110612c78575050612a9e612aa79160088501547f19457468657265756d205369676e6564204d6573736167653a0a333200000000600052601c52603c600020612f0b565b90929192612f47565b6001600160a01b0333911603612c3457805490680100000000000000008210156125d15781612ade916001612afc940181556127e2565b33906001600160a01b038084549260031b9316831b921b1916179055565b6006600a820191612b0d83546128b1565b80935533847f0b4a6f2406237cdb37cb5ff3eb318f584ed3692c7fa12beb5d43e14da870f5c8600080a3015460005260036020526002604060002001541115612b535750565b80600052600060205260406000209060098201600260ff198254161790557f9f216ef5f05f15a84f8cb82ddf6aa995f22f1d1f02df6b96dacdf88fcf887db060206001600160a01b03600260068601958654600052600384526040600020966004820197612bc860048a549201918254612897565b9055544614612be0575b0154169354604051908152a3565b6003810183808083541692612bfe86860194838654168d5491612e4a565b5416915416907fdf1b2b09e9800d31c599375056be9f9e4eb37f078102643600c4e149714efaad868a54604051908152a3612bd2565b606460405162461bcd60e51b815260206004820152601160248201527f496e76616c6964207369676e61747572650000000000000000000000000000006044820152fd5b6001600160a01b03612c8a82866127e2565b905460039190911b1c163314612ca257600101612a58565b606460405162461bcd60e51b815260206004820152601160248201527f416c726561647920636f6e6669726d65640000000000000000000000000000006044820152fd5b606460405162461bcd60e51b815260206004820152601360248201527f5472616e73616374696f6e2065787069726564000000000000000000000000006044820152fd5b6001600160a01b03168015612dba576001600160a01b037f9016d09d72d40fdae2fd8ceac6b6234c7706214fd39c1cd1e609a0528c19930054826001600160a01b03198216177f9016d09d72d40fdae2fd8ceac6b6234c7706214fd39c1cd1e609a0528c19930055167f8be0079c531659141344cd1fd0a4f28419497f9722a3daafe3b4186f6b6457e0600080a3565b7f1e4fbdf700000000000000000000000000000000000000000000000000000000600052600060045260246000fd5b6001600160a01b037f9016d09d72d40fdae2fd8ceac6b6234c7706214fd39c1cd1e609a0528c19930054163303612e1c57565b7f118cdaa7000000000000000000000000000000000000000000000000000000006000523360045260246000fd5b612935926001600160a01b03604051937fa9059cbb000000000000000000000000000000000000000000000000000000006020860152166024840152604483015260448252612e9a606483612711565b906000602091828151910182855af115610912576000513d612f0257506001600160a01b0381163b155b612ecb5750565b6001600160a01b03907f5274afe7000000000000000000000000000000000000000000000000000000006000521660045260246000fd5b60011415612ec4565b8151919060418303612f3c57612f3592506020820151906060604084015193015160001a9061306d565b9192909190565b505060009160029190565b612f508161269b565b80612f59575050565b612f628161269b565b60018103612f94577ff645eedf0000000000000000000000000000000000000000000000000000000060005260046000fd5b612f9d8161269b565b60028103612fd357507ffce698f70000000000000000000000000000000000000000000000000000000060005260045260246000fd5b600390612fdf8161269b565b14612fe75750565b7fd78bce0c0000000000000000000000000000000000000000000000000000000060005260045260246000fd5b60ff7ff0c57e16840df040f15088dc2f81fe391c3923bec73e23a9662efc9c229c6a005460401c161561304357565b7fd7e6bcf80000000000000000000000000000000000000000000000000000000060005260046000fd5b91907f7fffffffffffffffffffffffffffffff5d576e7357a4501ddfe92f46681b20a084116130ea579160209360809260ff60009560405194855216868401526040830152606082015282805260015afa15610912576000516001600160a01b038116156130de5790600090600090565b50600090600190600090565b50505060009160039190565b90613135575080511561310b57602081519101fd5b7fd6bda2750000000000000000000000000000000000000000000000000000000060005260046000fd5b8151158061317d575b613146575090565b6001600160a01b03907f9996b315000000000000000000000000000000000000000000000000000000006000521660045260246000fd5b50803b1561313e56fea2646970667358221220c3b1e15c1358e8564de2d063c2cd5c7309da40b8cfcde00beab76eea55422ad364736f6c634300081c0033",
  "linkReferences": {},
  "deployedLinkReferences": {}
}