{
  "_format": "hh-sol-artifact-1",
  "contractName": "CarbonToken",
  "sourceName": "contracts/CarbonToken.sol",
  "abi": [
    {
      "inputs": [
        {
          "internalType": "address",
          "name": "target",
          "type": "address"
        }
      ],
      "name": "AddressEmptyCode",
      "type": "error"
    },
    {
      "inputs": [
        {
          "internalType": "address",
          "name": "implementation",
          "type": "address"
        }
      ],
      "name": "ERC1967InvalidImplementation",
      "type": "error"
    },
    {
      "inputs": [],
      "name": "ERC1967NonPayable",
      "type": "error"
    },
    {
      "inputs": [
        {
          "internalType": "address",
          "name": "spender",
          "type": "address"
        },
        {
          "internalType": "uint256",
          "name": "allowance",
          "type": "uint256"
        },
        {
          "internalType": "uint256",
          "name": "needed",
          "type": "uint256"
        }
      ],
      "name": "ERC20InsufficientAllowance",
      "type": "error"
    },
    {
      "inputs": [
        {
          "internalType": "address",
          "name": "sender",
          "type": "address"
        },
        {
          "internalType": "uint256",
          "name": "balance",
          "type": "uint256"
        },
        {
          "internalType": "uint256",
          "name": "needed",
          "type": "uint256"
        }
      ],
      "name": "ERC20InsufficientBalance",
      "type": "error"
    },
    {
      "inputs": [
        {
          "internalType": "address",
          "name": "approver",
          "type": "address"
        }
      ],
      "name": "ERC20InvalidApprover",
      "type": "error"
    },
    {
      "inputs": [
        {
          "internalType": "address",
          "name": "receiver",
          "type": "address"
        }
      ],
      "name": "ERC20InvalidReceiver",
      "type": "error"
    },
    {
      "inputs": [
        {
          "internalType": "address",
          "name": "sender",
          "type": "address"
        }
      ],
      "name": "ERC20InvalidSender",
      "type": "error"
    },
    {
      "inputs": [
        {
          "internalType": "address",
          "name": "spender",
          "type": "address"
        }
      ],
      "name": "ERC20InvalidSpender",
      "type": "error"
    },
    {
      "inputs": [],
      "name": "FailedCall",
      "type": "error"
    },
    {
      "inputs": [],
      "name": "InvalidInitialization",
      "type": "error"
    },
    {
      "inputs": [],
      "name": "NotInitializing",
      "type": "error"
    },
    {
      "inputs": [
        {
          "internalType": "address",
          "name": "owner",
          "type": "address"
        }
      ],
      "name": "OwnableInvalidOwner",
      "type": "error"
    },
    {
      "inputs": [
        {
          "internalType": "address",
          "name": "account",
          "type": "address"
        }
      ],
      "name": "OwnableUnauthorizedAccount",
      "type": "error"
    },
    {
      "inputs": [],
      "name": "ReentrancyGuardReentrantCall",
      "type": "error"
    },
    {
      "inputs": [],
      "name": "UUPSUnauthorizedCallContext",
      "type": "error"
    },
    {
      "inputs": [
        {
          "internalType": "bytes32",
          "name": "slot",
          "type": "bytes32"
        }
      ],
      "name": "UUPSUnsupportedProxiableUUID",
      "type": "error"
    },
    {
      "anonymous": false,
      "inputs": [
        {
          "indexed": true,
          "internalType": "address",
          "name": "owner",
          "type": "address"
        },
        {
          "indexed": true,
          "internalType": "address",
          "name": "spender",
          "type": "address"
        },
        {
          "indexed": false,
          "internalType": "uint256",
          "name": "value",
          "type": "uint256"
        }
      ],
      "name": "Approval",
      "type": "event"
    },
    {
      "anonymous": false,
      "inputs": [
        {
          "indexed": true,
          "internalType": "uint256",
          "name": "bridgeId",
          "type": "uint256"
        },
        {
          "indexed": true,
          "internalType": "address",
          "name": "validator",
          "type": "address"
        }
      ],
      "name": "BridgeApproval",
      "type": "event"
    },
    {
      "anonymous": false,
      "inputs": [
        {
          "indexed": true,
          "internalType": "uint256",
          "name": "bridgeId",
          "type": "uint256"
        },
        {
          "indexed": true,
          "internalType": "address",
          "name": "user",
          "type": "address"
        },
        {
          "indexed": false,
          "internalType": "uint256",
          "name": "amount",
          "type": "uint256"
        }
      ],
      "name": "BridgeCompleted",
      "type": "event"
    },
    {
      "anonymous": false,
      "inputs": [
        {
          "indexed": true,
          "internalType": "uint256",
          "name": "bridgeId",
          "type": "uint256"
        },
        {
          "indexed": true,
          "internalType": "address",
          "name": "user",
          "type": "address"
        },
        {
          "indexed": false,
          "internalType": "uint256",
          "name": "amount",
          "type": "uint256"
        },
        {
          "indexed": false,
          "internalType": "uint256",
          "name": "targetChainId",
          "type": "uint256"
        }
      ],
      "name": "BridgeInitiated",
      "type": "event"
    },
    {
      "anonymous": false,
      "inputs": [],
      "name": "BridgePaused",
      "type": "event"
    },
    {
      "anonymous": false,
      "inputs": [],
      "name": "BridgeUnpaused",
      "type": "event"
    },
    {
      "anonymous": false,
      "inputs": [
        {
          "indexed": true,
          "internalType": "address",
          "name": "validator",
          "type": "address"
        },
        {
          "indexed": false,
          "internalType": "uint256",
          "name": "stakeAmount",
          "type": "uint256"
        }
      ],
      "name": "BridgeValidatorAdded",
      "type": "event"
    },
    {
      "anonymous": false,
      "inputs": [
        {
          "indexed": true,
          "internalType": "address",
          "name": "validator",
          "type": "address"
        }
      ],
      "name": "BridgeValidatorRemoved",
      "type": "event"
    },
    {
      "anonymous": false,
      "inputs": [
        {
          "indexed": true,
          "internalType": "address",
          "name": "validator",
          "type": "address"
        },
        {
          "indexed": false,
          "internalType": "uint256",
          "name": "penalty",
          "type": "uint256"
        }
      ],
      "name": "BridgeValidatorSlashed",
      "type": "event"
    },
    {
      "anonymous": false,
      "inputs": [
        {
          "indexed": true,
          "internalType": "uint256",
          "name": "creditId",
          "type": "uint256"
        },
        {
          "indexed": true,
          "internalType": "address",
          "name": "farmer",
          "type": "address"
        },
        {
          "indexed": false,
          "internalType": "uint256",
          "name": "amount",
          "type": "uint256"
        },
        {
          "indexed": false,
          "internalType": "uint256",
          "name": "aiConfidence",
          "type": "uint256"
        }
      ],
      "name": "CarbonCreditMinted",
      "type": "event"
    },
    {
      "anonymous": false,
      "inputs": [
        {
          "indexed": true,
          "internalType": "uint256",
          "name": "creditId",
          "type": "uint256"
        },
        {
          "indexed": true,
          "internalType": "address",
          "name": "by",
          "type": "address"
        }
      ],
      "name": "CarbonCreditRetired",
      "type": "event"
    },
    {
      "anonymous": false,
      "inputs": [
        {
          "indexed": true,
          "internalType": "uint256",
          "name": "creditId",
          "type": "uint256"
        },
        {
          "indexed": false,
          "internalType": "string",
          "name": "verificationProof",
          "type": "string"
        }
      ],
      "name": "CarbonCreditVerified",
      "type": "event"
    },
    {
      "anonymous": false,
      "inputs": [
        {
          "indexed": true,
          "internalType": "address",
          "name": "user",
          "type": "address"
        },
        {
          "indexed": false,
          "internalType": "uint256",
          "name": "amount",
          "type": "uint256"
        }
      ],
      "name": "CarbonOffsetBurned",
      "type": "event"
    },
    {
      "anonymous": false,
      "inputs": [
        {
          "indexed": true,
          "internalType": "address",
          "name": "oracle",
          "type": "address"
        }
      ],
      "name": "CarbonPriceOracleSet",
      "type": "event"
    },
    {
      "anonymous": false,
      "inputs": [
        {
          "indexed": true,
          "internalType": "uint256",
          "name": "dataId",
          "type": "uint256"
        },
        {
          "indexed": false,
          "internalType": "string",
          "name": "dataType",
          "type": "string"
        },
        {
          "indexed": false,
          "internalType": "uint256",
          "name": "co2Sequestered",
          "type": "uint256"
        }
      ],
      "name": "ClimateDataSubmitted",
      "type": "event"
    },
    {
      "anonymous": false,
      "inputs": [
        {
          "indexed": false,
          "internalType": "uint64",
          "name": "version",
          "type": "uint64"
        }
      ],
      "name": "Initialized",
      "type": "event"
    },
    {
      "anonymous": false,
      "inputs": [
        {
          "indexed": true,
          "internalType": "address",
          "name": "previousOwner",
          "type": "address"
        },
        {
          "indexed": true,
          "internalType": "address",
          "name": "newOwner",
          "type": "address"
        }
      ],
      "name": "OwnershipTransferred",
      "type": "event"
    },
    {
      "anonymous": false,
      "inputs": [
        {
          "indexed": false,
          "internalType": "uint256",
          "name": "baseRate",
          "type": "uint256"
        },
        {
          "indexed": false,
          "internalType": "uint256",
          "name": "marketMultiplier",
          "type": "uint256"
        },
        {
          "indexed": false,
          "internalType": "uint256",
          "name": "scarcityBonus",
          "type": "uint256"
        }
      ],
      "name": "RewardParamsUpdated",
      "type": "event"
    },
    {
      "anonymous": false,
      "inputs": [
        {
          "indexed": true,
          "internalType": "address",
          "name": "user",
          "type": "address"
        },
        {
          "indexed": false,
          "internalType": "uint256",
          "name": "amount",
          "type": "uint256"
        }
      ],
      "name": "RewardsClaimed",
      "type": "event"
    },
    {
      "anonymous": false,
      "inputs": [
        {
          "indexed": true,
          "internalType": "address",
          "name": "to",
          "type": "address"
        },
        {
          "indexed": true,
          "internalType": "uint256",
          "name": "tokenId",
          "type": "uint256"
        },
        {
          "indexed": false,
          "internalType": "uint256",
          "name": "carbonAmount",
          "type": "uint256"
        }
      ],
      "name": "SoulboundCreditMinted",
      "type": "event"
    },
    {
      "anonymous": false,
      "inputs": [
        {
          "indexed": true,
          "internalType": "address",
          "name": "user",
          "type": "address"
        },
        {
          "indexed": false,
          "internalType": "uint256",
          "name": "amount",
          "type": "uint256"
        }
      ],
      "name": "TokensStaked",
      "type": "event"
    },
    {
      "anonymous": false,
      "inputs": [
        {
          "indexed": true,
          "internalType": "address",
          "name": "user",
          "type": "address"
        },
        {
          "indexed": false,
          "internalType": "uint256",
          "name": "amount",
          "type": "uint256"
        }
      ],
      "name": "TokensUnstaked",
      "type": "event"
    },
    {
      "anonymous": false,
      "inputs": [
        {
          "indexed": true,
          "internalType": "address",
          "name": "from",
          "type": "address"
        },
        {
          "indexed": true,
          "internalType": "address",
          "name": "to",
          "type": "address"
        },
        {
          "indexed": false,
          "internalType": "uint256",
          "name": "value",
          "type": "uint256"
        }
      ],
      "name": "Transfer",
      "type": "event"
    },
    {
      "anonymous": false,
      "inputs": [
        {
          "indexed": true,
          "internalType": "address",
          "name": "implementation",
          "type": "address"
        }
      ],
      "name": "Upgraded",
      "type": "event"
    },
    {
      "inputs": [],
      "name": "AI_CONFIDENCE_THRESHOLD",
      "outputs": [
        {
          "internalType": "uint256",
          "name": "",
          "type": "uint256"
        }
      ],
      "stateMutability": "view",
      "type": "function"
    },
    {
      "inputs": [],
      "name": "CARBON_PER_TOKEN",
      "outputs": [
        {
          "internalType": "uint256",
          "name": "",
          "type": "uint256"
        }
      ],
      "stateMutability": "view",
      "type": "function"
    },
    {
      "inputs": [],
      "name": "MAX_SUPPLY",
      "outputs": [
        {
          "internalType": "uint256",
          "name": "",
          "type": "uint256"
        }
      ],
      "stateMutability": "view",
      "type": "function"
    },
    {
      "inputs": [],
      "name": "UPGRADE_INTERFACE_VERSION",
      "outputs": [
        {
          "internalType": "string",
          "name": "",
          "type": "string"
        }
      ],
      "stateMutability": "view",
      "type": "function"
    },
    {
      "inputs": [
        {
          "internalType": "uint256",
          "name": "",
          "type": "uint256"
        }
      ],
      "name": "activeValidators",
      "outputs": [
        {
          "internalType": "address",
          "name": "",
          "type": "address"
        }
      ],
      "stateMutability": "view",
      "type": "function"
    },
    {
      "inputs": [
        {
          "internalType": "address",
          "name": "validator",
          "type": "address"
        }
      ],
      "name": "addBridgeValidator",
      "outputs": [],
      "stateMutability": "payable",
      "type": "function"
    },
    {
      "inputs": [
        {
          "internalType": "address",
          "name": "owner",
          "type": "address"
        },
        {
          "internalType": "address",
          "name": "spender",
          "type": "address"
        }
      ],
      "name": "allowance",
      "outputs": [
        {
          "internalType": "uint256",
          "name": "",
          "type": "uint256"
        }
      ],
      "stateMutability": "view",
      "type": "function"
    },
    {
      "inputs": [
        {
          "internalType": "address",
          "name": "spender",
          "type": "address"
        },
        {
          "internalType": "uint256",
          "name": "value",
          "type": "uint256"
        }
      ],
      "name": "approve",
      "outputs": [
        {
          "internalType": "bool",
          "name": "",
          "type": "bool"
        }
      ],
      "stateMutability": "nonpayable",
      "type": "function"
    },
    {
      "inputs": [
        {
          "internalType": "uint256",
          "name": "bridgeId",
          "type": "uint256"
        }
      ],
      "name": "approveBridgeRequest",
      "outputs": [],
      "stateMutability": "nonpayable",
      "type": "function"
    },
    {
      "inputs": [
        {
          "internalType": "address",
          "name": "account",
          "type": "address"
        }
      ],
      "name": "balanceOf",
      "outputs": [
        {
          "internalType": "uint256",
          "name": "",
          "type": "uint256"
        }
      ],
      "stateMutability": "view",
      "type": "function"
    },
    {
      "inputs": [],
      "name": "bridgePaused",
      "outputs": [
        {
          "internalType": "bool",
          "name": "",
          "type": "bool"
        }
      ],
      "stateMutability": "view",
      "type": "function"
    },
    {
      "inputs": [
        {
          "internalType": "uint256",
          "name": "",
          "type": "uint256"
        }
      ],
      "name": "bridgeRequestTimeouts",
      "outputs": [
        {
          "internalType": "uint256",
          "name": "",
          "type": "uint256"
        }
      ],
      "stateMutability": "view",
      "type": "function"
    },
    {
      "inputs": [
        {
          "internalType": "uint256",
          "name": "",
          "type": "uint256"
        }
      ],
      "name": "bridgeRequests",
      "outputs": [
        {
          "internalType": "address",
          "name": "user",
          "type": "address"
        },
        {
          "internalType": "uint256",
          "name": "amount",
          "type": "uint256"
        },
        {
          "internalType": "uint256",
          "name": "targetChainId",
          "type": "uint256"
        },
        {
          "internalType": "address",
          "name": "targetContract",
          "type": "address"
        },
        {
          "internalType": "uint256",
          "name": "requestTime",
          "type": "uint256"
        },
        {
          "internalType": "bool",
          "name": "completed",
          "type": "bool"
        },
        {
          "internalType": "uint256",
          "name": "approvals",
          "type": "uint256"
        }
      ],
      "stateMutability": "view",
      "type": "function"
    },
    {
      "inputs": [
        {
          "internalType": "address",
          "name": "",
          "type": "address"
        }
      ],
      "name": "bridgeValidators",
      "outputs": [
        {
          "internalType": "bool",
          "name": "",
          "type": "bool"
        }
      ],
      "stateMutability": "view",
      "type": "function"
    },
    {
      "inputs": [
        {
          "internalType": "uint256",
          "name": "value",
          "type": "uint256"
        }
      ],
      "name": "burn",
      "outputs": [],
      "stateMutability": "nonpayable",
      "type": "function"
    },
    {
      "inputs": [
        {
          "internalType": "uint256",
          "name": "amount",
          "type": "uint256"
        }
      ],
      "name": "burnCarbonTokens",
      "outputs": [],
      "stateMutability": "nonpayable",
      "type": "function"
    },
    {
      "inputs": [
        {
          "internalType": "address",
          "name": "account",
          "type": "address"
        },
        {
          "internalType": "uint256",
          "name": "value",
          "type": "uint256"
        }
      ],
      "name": "burnFrom",
      "outputs": [],
      "stateMutability": "nonpayable",
      "type": "function"
    },
    {
      "inputs": [
        {
          "internalType": "uint256",
          "name": "",
          "type": "uint256"
        }
      ],
      "name": "carbonCredits",
      "outputs": [
        {
          "internalType": "uint256",
          "name": "id",
          "type": "uint256"
        },
        {
          "internalType": "address",
          "name": "farmer",
          "type": "address"
        },
        {
          "internalType": "uint256",
          "name": "amount",
          "type": "uint256"
        },
        {
          "internalType": "uint256",
          "name": "sequestrationDate",
          "type": "uint256"
        },
        {
          "internalType": "uint256",
          "name": "verificationDate",
          "type": "uint256"
        },
        {
          "internalType": "string",
          "name": "methodology",
          "type": "string"
        },
        {
          "internalType": "string",
          "name": "location",
          "type": "string"
        },
        {
          "internalType": "string",
          "name": "verificationProof",
          "type": "string"
        },
        {
          "internalType": "uint256",
          "name": "aiConfidence",
          "type": "uint256"
        },
        {
          "internalType": "bool",
          "name": "isVerified",
          "type": "bool"
        },
        {
          "internalType": "bool",
          "name": "isRetired",
          "type": "bool"
        }
      ],
      "stateMutability": "view",
      "type": "function"
    },
    {
      "inputs": [
        {
          "internalType": "address",
          "name": "",
          "type": "address"
        }
      ],
      "name": "carbonOffsets",
      "outputs": [
        {
          "internalType": "uint256",
          "name": "",
          "type": "uint256"
        }
      ],
      "stateMutability": "view",
      "type": "function"
    },
    {
      "inputs": [],
      "name": "carbonPriceOracle",
      "outputs": [
        {
          "internalType": "address",
          "name": "",
          "type": "address"
        }
      ],
      "stateMutability": "view",
      "type": "function"
    },
    {
      "inputs": [],
      "name": "claimRewards",
      "outputs": [],
      "stateMutability": "nonpayable",
      "type": "function"
    },
    {
      "inputs": [
        {
          "internalType": "uint256",
          "name": "",
          "type": "uint256"
        }
      ],
      "name": "climateData",
      "outputs": [
        {
          "internalType": "uint256",
          "name": "timestamp",
          "type": "uint256"
        },
        {
          "internalType": "string",
          "name": "dataType",
          "type": "string"
        },
        {
          "internalType": "string",
          "name": "location",
          "type": "string"
        },
        {
          "internalType": "uint256",
          "name": "co2Sequestered",
          "type": "uint256"
        },
        {
          "internalType": "uint256",
          "name": "ndviScore",
          "type": "uint256"
        },
        {
          "internalType": "string",
          "name": "proofHash",
          "type": "string"
        },
        {
          "internalType": "address",
          "name": "submittedBy",
          "type": "address"
        }
      ],
      "stateMutability": "view",
      "type": "function"
    },
    {
      "inputs": [
        {
          "internalType": "uint256",
          "name": "bridgeId",
          "type": "uint256"
        },
        {
          "internalType": "bytes",
          "name": "proof",
          "type": "bytes"
        }
      ],
      "name": "completeBridge",
      "outputs": [],
      "stateMutability": "nonpayable",
      "type": "function"
    },
    {
      "inputs": [],
      "name": "decimals",
      "outputs": [
        {
          "internalType": "uint8",
          "name": "",
          "type": "uint8"
        }
      ],
      "stateMutability": "pure",
      "type": "function"
    },
    {
      "inputs": [
        {
          "internalType": "uint256",
          "name": "bridgeId",
          "type": "uint256"
        }
      ],
      "name": "emergencyCancelBridge",
      "outputs": [],
      "stateMutability": "nonpayable",
      "type": "function"
    },
    {
      "inputs": [
        {
          "internalType": "address",
          "name": "",
          "type": "address"
        },
        {
          "internalType": "uint256",
          "name": "",
          "type": "uint256"
        }
      ],
      "name": "farmerCredits",
      "outputs": [
        {
          "internalType": "uint256",
          "name": "",
          "type": "uint256"
        }
      ],
      "stateMutability": "view",
      "type": "function"
    },
    {
      "inputs": [
        {
          "internalType": "uint256",
          "name": "bridgeId",
          "type": "uint256"
        }
      ],
      "name": "getBridgeRequestApprovals",
      "outputs": [
        {
          "internalType": "uint256",
          "name": "approvals",
          "type": "uint256"
        },
        {
          "internalType": "uint256",
          "name": "required",
          "type": "uint256"
        }
      ],
      "stateMutability": "view",
      "type": "function"
    },
    {
      "inputs": [],
      "name": "getBridgeValidators",
      "outputs": [
        {
          "internalType": "address[]",
          "name": "",
          "type": "address[]"
        }
      ],
      "stateMutability": "view",
      "type": "function"
    },
    {
      "inputs": [
        {
          "internalType": "uint256",
          "name": "dataId",
          "type": "uint256"
        }
      ],
      "name": "getClimateData",
      "outputs": [
        {
          "components": [
            {
              "internalType": "uint256",
              "name": "timestamp",
              "type": "uint256"
            },
            {
              "internalType": "string",
              "name": "dataType",
              "type": "string"
            },
            {
              "internalType": "string",
              "name": "location",
              "type": "string"
            },
            {
              "internalType": "uint256",
              "name": "co2Sequestered",
              "type": "uint256"
            },
            {
              "internalType": "uint256",
              "name": "ndviScore",
              "type": "uint256"
            },
            {
              "internalType": "string",
              "name": "proofHash",
              "type": "string"
            },
            {
              "internalType": "address",
              "name": "submittedBy",
              "type": "address"
            }
          ],
          "internalType": "struct CarbonToken.ClimateData",
          "name": "",
          "type": "tuple"
        }
      ],
      "stateMutability": "view",
      "type": "function"
    },
    {
      "inputs": [
        {
          "internalType": "uint256",
          "name": "creditId",
          "type": "uint256"
        }
      ],
      "name": "getCreditDetails",
      "outputs": [
        {
          "components": [
            {
              "internalType": "uint256",
              "name": "id",
              "type": "uint256"
            },
            {
              "internalType": "address",
              "name": "farmer",
              "type": "address"
            },
            {
              "internalType": "uint256",
              "name": "amount",
              "type": "uint256"
            },
            {
              "internalType": "uint256",
              "name": "sequestrationDate",
              "type": "uint256"
            },
            {
              "internalType": "uint256",
              "name": "verificationDate",
              "type": "uint256"
            },
            {
              "internalType": "string",
              "name": "methodology",
              "type": "string"
            },
            {
              "internalType": "string",
              "name": "location",
              "type": "string"
            },
            {
              "internalType": "string",
              "name": "verificationProof",
              "type": "string"
            },
            {
              "internalType": "uint256",
              "name": "aiConfidence",
              "type": "uint256"
            },
            {
              "internalType": "bool",
              "name": "isVerified",
              "type": "bool"
            },
            {
              "internalType": "bool",
              "name": "isRetired",
              "type": "bool"
            }
          ],
          "internalType": "struct CarbonToken.CarbonCredit",
          "name": "",
          "type": "tuple"
        }
      ],
      "stateMutability": "view",
      "type": "function"
    },
    {
      "inputs": [
        {
          "internalType": "address",
          "name": "farmer",
          "type": "address"
        }
      ],
      "name": "getFarmerCredits",
      "outputs": [
        {
          "internalType": "uint256[]",
          "name": "",
          "type": "uint256[]"
        }
      ],
      "stateMutability": "view",
      "type": "function"
    },
    {
      "inputs": [
        {
          "internalType": "uint256",
          "name": "tokenId",
          "type": "uint256"
        }
      ],
      "name": "getSoulboundCreditCarbon",
      "outputs": [
        {
          "internalType": "uint256",
          "name": "",
          "type": "uint256"
        }
      ],
      "stateMutability": "view",
      "type": "function"
    },
    {
      "inputs": [
        {
          "internalType": "address",
          "name": "owner",
          "type": "address"
        }
      ],
      "name": "getSoulboundCredits",
      "outputs": [
        {
          "internalType": "uint256[]",
          "name": "",
          "type": "uint256[]"
        }
      ],
      "stateMutability": "view",
      "type": "function"
    },
    {
      "inputs": [
        {
          "internalType": "address",
          "name": "user",
          "type": "address"
        }
      ],
      "name": "getStakingInfo",
      "outputs": [
        {
          "internalType": "uint256",
          "name": "staked",
          "type": "uint256"
        },
        {
          "internalType": "uint256",
          "name": "rewards",
          "type": "uint256"
        }
      ],
      "stateMutability": "view",
      "type": "function"
    },
    {
      "inputs": [],
      "name": "getTotalCarbonSequestered",
      "outputs": [
        {
          "internalType": "uint256",
          "name": "",
          "type": "uint256"
        }
      ],
      "stateMutability": "view",
      "type": "function"
    },
    {
      "inputs": [
        {
          "internalType": "address",
          "name": "validator",
          "type": "address"
        }
      ],
      "name": "getValidatorStake",
      "outputs": [
        {
          "internalType": "uint256",
          "name": "",
          "type": "uint256"
        }
      ],
      "stateMutability": "view",
      "type": "function"
    },
    {
      "inputs": [
        {
          "internalType": "address",
          "name": "_soulboundCredit",
          "type": "address"
        }
      ],
      "name": "initialize",
      "outputs": [],
      "stateMutability": "nonpayable",
      "type": "function"
    },
    {
      "inputs": [
        {
          "internalType": "uint256",
          "name": "amount",
          "type": "uint256"
        },
        {
          "internalType": "uint256",
          "name": "targetChainId",
          "type": "uint256"
        },
        {
          "internalType": "address",
          "name": "targetContract",
          "type": "address"
        }
      ],
      "name": "initiateBridge",
      "outputs": [
        {
          "internalType": "uint256",
          "name": "",
          "type": "uint256"
        }
      ],
      "stateMutability": "nonpayable",
      "type": "function"
    },
    {
      "inputs": [
        {
          "internalType": "uint256",
          "name": "bridgeId",
          "type": "uint256"
        }
      ],
      "name": "isBridgeApproved",
      "outputs": [
        {
          "internalType": "bool",
          "name": "",
          "type": "bool"
        }
      ],
      "stateMutability": "view",
      "type": "function"
    },
    {
      "inputs": [],
      "name": "lastRewardUpdate",
      "outputs": [
        {
          "internalType": "uint256",
          "name": "",
          "type": "uint256"
        }
      ],
      "stateMutability": "view",
      "type": "function"
    },
    {
      "inputs": [],
      "name": "maxBridgeAmount",
      "outputs": [
        {
          "internalType": "uint256",
          "name": "",
          "type": "uint256"
        }
      ],
      "stateMutability": "view",
      "type": "function"
    },
    {
      "inputs": [],
      "name": "minValidatorStake",
      "outputs": [
        {
          "internalType": "uint256",
          "name": "",
          "type": "uint256"
        }
      ],
      "stateMutability": "view",
      "type": "function"
    },
    {
      "inputs": [
        {
          "internalType": "address",
          "name": "farmer",
          "type": "address"
        },
        {
          "internalType": "uint256",
          "name": "co2Amount",
          "type": "uint256"
        },
        {
          "internalType": "string",
          "name": "methodology",
          "type": "string"
        },
        {
          "internalType": "string",
          "name": "location",
          "type": "string"
        },
        {
          "internalType": "uint256",
          "name": "aiConfidence",
          "type": "uint256"
        },
        {
          "internalType": "string",
          "name": "aiProof",
          "type": "string"
        }
      ],
      "name": "mintCarbonCredit",
      "outputs": [
        {
          "internalType": "uint256",
          "name": "",
          "type": "uint256"
        }
      ],
      "stateMutability": "nonpayable",
      "type": "function"
    },
    {
      "inputs": [],
      "name": "name",
      "outputs": [
        {
          "internalType": "string",
          "name": "",
          "type": "string"
        }
      ],
      "stateMutability": "view",
      "type": "function"
    },
    {
      "inputs": [],
      "name": "nextBridgeId",
      "outputs": [
        {
          "internalType": "uint256",
          "name": "",
          "type": "uint256"
        }
      ],
      "stateMutability": "view",
      "type": "function"
    },
    {
      "inputs": [],
      "name": "nextCreditId",
      "outputs": [
        {
          "internalType": "uint256",
          "name": "",
          "type": "uint256"
        }
      ],
      "stateMutability": "view",
      "type": "function"
    },
    {
      "inputs": [],
      "name": "nextDataId",
      "outputs": [
        {
          "internalType": "uint256",
          "name": "",
          "type": "uint256"
        }
      ],
      "stateMutability": "view",
      "type": "function"
    },
    {
      "inputs": [],
      "name": "owner",
      "outputs": [
        {
          "internalType": "address",
          "name": "",
          "type": "address"
        }
      ],
      "stateMutability": "view",
      "type": "function"
    },
    {
      "inputs": [],
      "name": "pauseBridge",
      "outputs": [],
      "stateMutability": "nonpayable",
      "type": "function"
    },
    {
      "inputs": [],
      "name": "proxiableUUID",
      "outputs": [
        {
          "internalType": "bytes32",
          "name": "",
          "type": "bytes32"
        }
      ],
      "stateMutability": "view",
      "type": "function"
    },
    {
      "inputs": [],
      "name": "removeBridgeValidator",
      "outputs": [],
      "stateMutability": "nonpayable",
      "type": "function"
    },
    {
      "inputs": [],
      "name": "renounceOwnership",
      "outputs": [],
      "stateMutability": "nonpayable",
      "type": "function"
    },
    {
      "inputs": [],
      "name": "requiredValidatorApprovals",
      "outputs": [
        {
          "internalType": "uint256",
          "name": "",
          "type": "uint256"
        }
      ],
      "stateMutability": "view",
      "type": "function"
    },
    {
      "inputs": [
        {
          "internalType": "uint256",
          "name": "creditId",
          "type": "uint256"
        }
      ],
      "name": "retireCarbonCredits",
      "outputs": [],
      "stateMutability": "nonpayable",
      "type": "function"
    },
    {
      "inputs": [],
      "name": "rewardParams",
      "outputs": [
        {
          "internalType": "uint256",
          "name": "baseRate",
          "type": "uint256"
        },
        {
          "internalType": "uint256",
          "name": "marketMultiplier",
          "type": "uint256"
        },
        {
          "internalType": "uint256",
          "name": "scarcityBonus",
          "type": "uint256"
        },
        {
          "internalType": "uint256",
          "name": "lastUpdate",
          "type": "uint256"
        }
      ],
      "stateMutability": "view",
      "type": "function"
    },
    {
      "inputs": [],
      "name": "rewardRate",
      "outputs": [
        {
          "internalType": "uint256",
          "name": "",
          "type": "uint256"
        }
      ],
      "stateMutability": "view",
      "type": "function"
    },
    {
      "inputs": [
        {
          "internalType": "address",
          "name": "_oracle",
          "type": "address"
        }
      ],
      "name": "setCarbonPriceOracle",
      "outputs": [],
      "stateMutability": "nonpayable",
      "type": "function"
    },
    {
      "inputs": [
        {
          "internalType": "uint256",
          "name": "newRate",
          "type": "uint256"
        }
      ],
      "name": "setRewardRate",
      "outputs": [],
      "stateMutability": "nonpayable",
      "type": "function"
    },
    {
      "inputs": [
        {
          "internalType": "address",
          "name": "validator",
          "type": "address"
        },
        {
          "internalType": "uint256",
          "name": "penalty",
          "type": "uint256"
        }
      ],
      "name": "slashBridgeValidator",
      "outputs": [],
      "stateMutability": "nonpayable",
      "type": "function"
    },
    {
      "inputs": [],
      "name": "soulboundCredit",
      "outputs": [
        {
          "internalType": "contract SoulboundCarbonCredit",
          "name": "",
          "type": "address"
        }
      ],
      "stateMutability": "view",
      "type": "function"
    },
    {
      "inputs": [
        {
          "internalType": "uint256",
          "name": "amount",
          "type": "uint256"
        }
      ],
      "name": "stakeTokens",
      "outputs": [],
      "stateMutability": "nonpayable",
      "type": "function"
    },
    {
      "inputs": [
        {
          "internalType": "address",
          "name": "",
          "type": "address"
        }
      ],
      "name": "stakedBalances",
      "outputs": [
        {
          "internalType": "uint256",
          "name": "",
          "type": "uint256"
        }
      ],
      "stateMutability": "view",
      "type": "function"
    },
    {
      "inputs": [
        {
          "internalType": "address",
          "name": "",
          "type": "address"
        }
      ],
      "name": "stakingRewards",
      "outputs": [
        {
          "internalType": "uint256",
          "name": "",
          "type": "uint256"
        }
      ],
      "stateMutability": "view",
      "type": "function"
    },
    {
      "inputs": [
        {
          "internalType": "string",
          "name": "dataType",
          "type": "string"
        },
        {
          "internalType": "string",
          "name": "location",
          "type": "string"
        },
        {
          "internalType": "uint256",
          "name": "co2Sequestered",
          "type": "uint256"
        },
        {
          "internalType": "uint256",
          "name": "ndviScore",
          "type": "uint256"
        },
        {
          "internalType": "string",
          "name": "proofHash",
          "type": "string"
        }
      ],
      "name": "submitClimateData",
      "outputs": [
        {
          "internalType": "uint256",
          "name": "",
          "type": "uint256"
        }
      ],
      "stateMutability": "nonpayable",
      "type": "function"
    },
    {
      "inputs": [],
      "name": "symbol",
      "outputs": [
        {
          "internalType": "string",
          "name": "",
          "type": "string"
        }
      ],
      "stateMutability": "view",
      "type": "function"
    },
    {
      "inputs": [],
      "name": "totalStaked",
      "outputs": [
        {
          "internalType": "uint256",
          "name": "",
          "type": "uint256"
        }
      ],
      "stateMutability": "view",
      "type": "function"
    },
    {
      "inputs": [],
      "name": "totalSupply",
      "outputs": [
        {
          "internalType": "uint256",
          "name": "",
          "type": "uint256"
        }
      ],
      "stateMutability": "view",
      "type": "function"
    },
    {
      "inputs": [
        {
          "internalType": "address",
          "name": "to",
          "type": "address"
        },
        {
          "internalType": "uint256",
          "name": "value",
          "type": "uint256"
        }
      ],
      "name": "transfer",
      "outputs": [
        {
          "internalType": "bool",
          "name": "",
          "type": "bool"
        }
      ],
      "stateMutability": "nonpayable",
      "type": "function"
    },
    {
      "inputs": [
        {
          "internalType": "address",
          "name": "from",
          "type": "address"
        },
        {
          "internalType": "address",
          "name": "to",
          "type": "address"
        },
        {
          "internalType": "uint256",
          "name": "value",
          "type": "uint256"
        }
      ],
      "name": "transferFrom",
      "outputs": [
        {
          "internalType": "bool",
          "name": "",
          "type": "bool"
        }
      ],
      "stateMutability": "nonpayable",
      "type": "function"
    },
    {
      "inputs": [
        {
          "internalType": "address",
          "name": "newOwner",
          "type": "address"
        }
      ],
      "name": "transferOwnership",
      "outputs": [],
      "stateMutability": "nonpayable",
      "type": "function"
    },
    {
      "inputs": [],
      "name": "unpauseBridge",
      "outputs": [],
      "stateMutability": "nonpayable",
      "type": "function"
    },
    {
      "inputs": [
        {
          "internalType": "uint256",
          "name": "amount",
          "type": "uint256"
        }
      ],
      "name": "unstakeTokens",
      "outputs": [],
      "stateMutability": "nonpayable",
      "type": "function"
    },
    {
      "inputs": [
        {
          "internalType": "uint256",
          "name": "_minValidatorStake",
          "type": "uint256"
        },
        {
          "internalType": "uint256",
          "name": "_requiredApprovals",
          "type": "uint256"
        },
        {
          "internalType": "uint256",
          "name": "_validatorTimeout",
          "type": "uint256"
        },
        {
          "internalType": "uint256",
          "name": "_maxBridgeAmount",
          "type": "uint256"
        }
      ],
      "name": "updateBridgeParameters",
      "outputs": [],
      "stateMutability": "nonpayable",
      "type": "function"
    },
    {
      "inputs": [],
      "name": "updateRewardParams",
      "outputs": [],
      "stateMutability": "nonpayable",
      "type": "function"
    },
    {
      "inputs": [
        {
          "internalType": "address",
          "name": "newImplementation",
          "type": "address"
        },
        {
          "internalType": "bytes",
          "name": "data",
          "type": "bytes"
        }
      ],
      "name": "upgradeToAndCall",
      "outputs": [],
      "stateMutability": "payable",
      "type": "function"
    },
    {
      "inputs": [
        {
          "internalType": "address",
          "name": "",
          "type": "address"
        }
      ],
      "name": "validatorStakes",
      "outputs": [
        {
          "internalType": "uint256",
          "name": "",
          "type": "uint256"
        }
      ],
      "stateMutability": "view",
      "type": "function"
    },
    {
      "inputs": [],
      "name": "validatorTimeout",
      "outputs": [
        {
          "internalType": "uint256",
          "name": "",
          "type": "uint256"
        }
      ],
      "stateMutability": "view",
      "type": "function"
    },
    {
      "inputs": [
        {
          "internalType": "uint256",
          "name": "creditId",
          "type": "uint256"
        },
        {
          "internalType": "string",
          "name": "verificationProof",
          "type": "string"
        }
      ],
      "name": "verifyCarbonCredit",
      "outputs": [],
      "stateMutability": "nonpayable",
      "type": "function"
    }
  ],
  "bytecode": "0x60a080604052346029573060805261522b908161002f8239608051818181612e0601526130e50152f35b600080fdfe6080604052600436101561001257600080fd5b60003560e01c8062174502146144e7578063017ddd35146144c957806306fdde03146143e3578063095ea7b3146142df5780631460fa87146142a557806314f64c781461426457806318160ddd146142275780631da9ce58146141b257806323b872dd1461417a5780632670e79d146141405780632c99753114613f69578063313ce56714613f4d57806332cb6b0c14613f26578063346648461461161857806334caba6614613eff5780633613fec114613ee3578063366491f514613e8c578063372500ab14613da55780633f07d85f14613d8757806342966c6814613d6a578063499d7f9614613d305780634a1b4cda1461338a5780634e1d5a3a1461334a5780634f1ef286146130a75780634f20cd1e14612e8057806352d1902d14612deb5780635499acb214612d1f57806354d68c0114612ca85780635a7dd27c14612bbc5780635bacc67014612a8057806360132c9c14612a62578063608e4dd0146129525780636ccf20d51461292f578063709d21011461291357806370a08231146128cc578063715018a61461283357806373a03fe31461235f5780637547c7a314612281578063763469141461224a57806377fc2be11461221757806379cc6790146121e75780637b0a47ee146121c95780637dd0480f1461217c578063817b1cd21461215e578063889e01a41461211f5780638b4ce2dd146121015780638da5cb5b146120bb57806394f4bd0614611fa257806395d89b4114611e975780639c1d8fc114611c7d5780639e447fc614611ac25780639f89c8a214611a3e5780639fe1200e1461199d578063a156e87e146117ae578063a3c2710d14611790578063a82f143c14611746578063a9059cbb14611715578063aa4704f314611652578063aa73557814611618578063aaa84caa1461138b578063ace09eab14611248578063ad3cb1cc146111e9578063b42ca7b91461111c578063c1c1de1e146110f5578063c4d66de814610a0c578063c5b0e52a146109ee578063c827651614610967578063c87fc86114610932578063cef72b3c146107d7578063dd62ed3e1461075a578063de12f3e414610726578063e6e6020414610708578063e88bb3b514610677578063f2fde38b1461064c578063f48c52b214610597578063f54881c41461056b578063f85aafbd146103985763fc00b7981461037557600080fd5b34610393576000366003190112610393576020600254604051908152f35b600080fd5b34610393576020366003190112610393576040516103b581614607565b60008152602081016000905260408101600090526060810160009052608081016000905260a081016060905260c081016060905260e081016060905261010081016000905261012081016000905261014001600090526004356000526000602052604060002060405161042781614607565b8154815260018201546001600160a01b03169160208201928352600281015460408301908152600382015490606084019182526004830154608085019081526005840161047390614737565b60a0860190815261048660068601614737565b60c087019081529061049a60078701614737565b9260e088019384526008870154966101008901978852600901549561012089019560ff8816151587526101408a019760081c60ff16151588526040519a8b9a60208c525160208c0152516001600160a01b031660408b01525160608a01525160808901525160a08801525160c087016101609052610180870161051c91614599565b9051868203601f190160e08801526105349190614599565b9051858203601f190161010087015261054d9190614599565b92516101208501525115156101408401525115156101608301520390f35b346103935760203660031901126103935760043560005260196020526020604060002054604051908152f35b34610393576020366003190112610393576004356000526003602052604060002080546105c660018301614737565b916106426105d660028301614737565b91600381015490600481015461062a6001600160a01b0360066105fb60058601614737565b940154169561061c604051998a998a5260e060208b015260e08a0190614599565b9088820360408a0152614599565b926060870152608086015284820360a0860152614599565b9060c08301520390f35b346103935760203660031901126103935761067561066861454a565b610670614ab3565b6149f4565b005b3461039357602036600319011261039357600435610693614ab3565b8060005260106020526001600160a01b03604060002060058101600181546106be60ff82161561489a565b60ff1916179055805460018201546106d891841630614c3b565b5416907f3d6f16066fecd402800d471587349149577538b6c77b5564d64f867c68329e9b602060405160008152a3005b34610393576000366003190112610393576020601654604051908152f35b3461039357602036600319011261039357600435600052601060205260206006604060002001546016541115604051908152f35b346103935760403660031901126103935761077361454a565b6001600160a01b036107bf610786614560565b926001600160a01b03166000527f52c63247e1f47db19d5ce0460030c497f067ca4cebf71ba98eeadabe20bace01602052604060002090565b91166000526020526020604060002054604051908152f35b346103935760003660031901126103935733600052601260205261080260ff60406000205416614930565b336000908152601260209081526040808320805460ff19169055601490915281208054908290555b60135480831015610924576001600160a01b03610846846145be565b905460039190911b1c1633146108615750906001019061082a565b600019810190811161090e5760008093926108b9829461089a6001600160a01b0361088c86976145be565b90549060031b1c16916145be565b9091906001600160a01b038084549260031b9316831b921b1916179055565b6108c16149ae565b818115610905575b3390f1156108f957337f78c1b6e2c928d89e7295ddf04b58fe1518b96d2a00828edd3dfc80eec3848ebf600080a2005b6040513d6000823e3d90fd5b506108fc6108c9565b634e487b7160e01b600052601160045260246000fd5b5060008080935080926108c1565b346103935760203660031901126103935760043560005260106020526040600681600020015460165482519182526020820152f35b34610393576020366003190112610393576001600160a01b0361098861454a565b166000526001602052604060002060405190816020825491828152019160005260206000209060005b8181106109d8576109d4856109c881870382614640565b604051918291826146c3565b0390f35b82548452602090930192600192830192016109b1565b34610393576000366003190112610393576020601154604051908152f35b3461039357602036600319011261039357610a2561454a565b7ff0c57e16840df040f15088dc2f81fe391c3923bec73e23a9662efc9c229c6a005460ff8160401c16159067ffffffffffffffff8116801590816110ed575b60011490816110e3575b1590816110da575b506110b05767ffffffffffffffff1981166001177ff0c57e16840df040f15088dc2f81fe391c3923bec73e23a9662efc9c229c6a005581611071575b50604090815192610ac38385614640565b601784527f4167726943726564697420436172626f6e20546f6b656e0000000000000000006020850152825193610afa8486614640565b600585527f43415242540000000000000000000000000000000000000000000000000000006020860152610b2c6150ec565b610b346150ec565b80519067ffffffffffffffff8211610ddc578190610b727f52c63247e1f47db19d5ce0460030c497f067ca4cebf71ba98eeadabe20bace03546146fd565b601f8111610fe2575b50602090601f8311600114610f3c57600092610f31575b50508160011b916000199060031b1c1916177f52c63247e1f47db19d5ce0460030c497f067ca4cebf71ba98eeadabe20bace03555b835167ffffffffffffffff8111610ddc57610c027f52c63247e1f47db19d5ce0460030c497f067ca4cebf71ba98eeadabe20bace04546146fd565b601f8111610ead575b506020601f8211600114610dfd5781906001600160a01b03949596600092610df2575b50508160011b916000199060031b1c1916177f52c63247e1f47db19d5ce0460030c497f067ca4cebf71ba98eeadabe20bace04555b610c6b6150ec565b610c736150ec565b610c7b6150ec565b610c84336149f4565b610c8c6150ec565b610c946150ec565b60017f9b779b17422d0df92223018b32b4d1fa46e071723d6817e2486d003becc55f0055610cc06150ec565b42600a55166001600160a01b0319600b541617600b55600160025560016004556101f4600955600160115569021e19e0c9bab2400000601555600360165562093a8060175569152d02c7e14af6800000601a5581516080810181811067ffffffffffffffff821117610ddc5783526101f48152606460208201526000838201526060429101526101f4600c556064600d556000600e5542600f55610d6057005b60207fc7f505b2f371ae2175ee4913f4499e1f2633a7b5936321eed1cdaeb6115181d29168ff0000000000000000197ff0c57e16840df040f15088dc2f81fe391c3923bec73e23a9662efc9c229c6a0054167ff0c57e16840df040f15088dc2f81fe391c3923bec73e23a9662efc9c229c6a00555160018152a1005b634e487b7160e01b600052604160045260246000fd5b015190508680610c2e565b601f198216957f52c63247e1f47db19d5ce0460030c497f067ca4cebf71ba98eeadabe20bace04600052816000209660005b818110610e955750916001600160a01b0395969791846001959410610e7c575b505050811b017f52c63247e1f47db19d5ce0460030c497f067ca4cebf71ba98eeadabe20bace0455610c63565b015160001960f88460031b161c19169055868080610e4f565b83830151895560019098019760209384019301610e2f565b7f52c63247e1f47db19d5ce0460030c497f067ca4cebf71ba98eeadabe20bace046000527f46a2803e59a4de4e7a4c574b1243f25977ac4c77d5a1a4a609b5394cebb4a2aa601f830160051c81019160208410610f27575b601f0160051c01905b818110610f1b5750610c0b565b60008155600101610f0e565b9091508190610f05565b015190508680610b92565b7f52c63247e1f47db19d5ce0460030c497f067ca4cebf71ba98eeadabe20bace0360009081528281209350601f198516905b818110610fca5750908460019594939210610fb1575b505050811b017f52c63247e1f47db19d5ce0460030c497f067ca4cebf71ba98eeadabe20bace0355610bc7565b015160001960f88460031b161c19169055868080610f84565b92936020600181928786015181550195019301610f6e565b7f52c63247e1f47db19d5ce0460030c497f067ca4cebf71ba98eeadabe20bace036000529091507f2ae08a8e29253f69ac5d979a101956ab8f8d9d7ded63fa7a83b16fc47648eab0601f840160051c81019160208510611067575b90601f859493920160051c01905b8181106110585750610b7b565b6000815584935060010161104b565b909150819061103d565b68ffffffffffffffffff191668010000000000000001177ff0c57e16840df040f15088dc2f81fe391c3923bec73e23a9662efc9c229c6a005582610ab2565b7ff92ee8a90000000000000000000000000000000000000000000000000000000060005260046000fd5b90501584610a76565b303b159150610a6e565b839150610a64565b346103935760003660031901126103935760206001600160a01b03600b5416604051908152f35b3461039357602036600319011261039357600435336000526000805160206151d683398151915260205280604060002054106111a55761115c8133614d5c565b33600052600760205260406000206111758282546147db565b90556040519081527f2a4165bacb47fdef34f3d9e42cb8ed46b5d53cb17de1d4576f51730bd637029e60203392a2005b606460405162461bcd60e51b815260206004820152601a60248201527f496e73756666696369656e742043415242542062616c616e63650000000000006044820152fd5b34610393576000366003190112610393576109d4604080519061120c8183614640565b600582527f352e302e30000000000000000000000000000000000000000000000000000000602083015251918291602083526020830190614599565b60203660031901126103935761125c61454a565b6001600160a01b0381169081600052601260205260ff60406000205416611347576015543410611303578160005260126020526040600020600160ff19825416179055816000526014602052346040600020556013549068010000000000000000821015610ddc5761089a8260016112d794016013556145be565b7f3978dde2ac5be916c2cabb15e31679ac2bf1bd3a2c5df66805eeb4ac554a8fec6020604051348152a2005b606460405162461bcd60e51b815260206004820152601260248201527f496e73756666696369656e74207374616b6500000000000000000000000000006044820152fd5b606460405162461bcd60e51b815260206004820152601360248201527f416c726561647920612076616c696461746f72000000000000000000000000006044820152fd5b346103935760403660031901126103935760043560243567ffffffffffffffff8111610393576113bf90369060040161467e565b6113c7614ab3565b816000526000602052604060002060098101805460ff81166115d45760ff8160081c166115905760ff191660011790554260048201558151600782019067ffffffffffffffff8111610ddc5761141d82546146fd565b601f8111611548575b506020601f82116001146114ba57927f797d5d8ef3e42af9f5ef51f3a8568a55b52efd53813811daa27103c20d51c1e5949282611496936114aa966000916114af575b508160011b916000199060031b1c19161790555b60026001600160a01b0360018301541691015490614fdb565b604051918291602083526020830190614599565b0390a2005b905085015189611469565b601f1982169083600052806000209160005b8181106115305750836114aa96937f797d5d8ef3e42af9f5ef51f3a8568a55b52efd53813811daa27103c20d51c1e59896936114969660019410611517575b5050811b01905561147d565b87015160001960f88460031b161c19169055898061150b565b9192602060018192868b0151815501940192016114cc565b826000526020600020601f830160051c81019160208410611586575b601f0160051c01905b81811061157a5750611426565b6000815560010161156d565b9091508190611564565b606460405162461bcd60e51b815260206004820152600e60248201527f43726564697420726574697265640000000000000000000000000000000000006044820152fd5b606460405162461bcd60e51b815260206004820152601060248201527f416c7265616479207665726966696564000000000000000000000000000000006044820152fd5b34610393576020366003190112610393576001600160a01b0361163961454a565b1660005260146020526020604060002054604051908152f35b346103935760203660031901126103935760406001600160a01b0361167561454a565b16806000526006602052816000205490611691600a544261488d565b8015158061170a575b6116ba575b50600052600560205281600020549082519182526020820152f35b916116fd61170392936116f864496cebb8006116e4600854936116df6009548661497b565b61497b565b04866000526005602052876000205461497b565b61498e565b906147db565b908361169f565b50600854151561169a565b346103935760403660031901126103935761173b61173161454a565b6024359033614c3b565b602060405160018152f35b346103935760003660031901126103935761175f614ab3565b60ff19601854166018557f8c9a6f4b5a3a5753cc4d30f9ee061684c79bc450c355fc09e79317cfa2195f31600080a1005b34610393576000366003190112610393576020600a54604051908152f35b346103935760203660031901126103935760043533600052601260205260ff6040600020541615611959578060005260106020526001600160a01b03604060002054161561191557806000526010602052604060002061181560ff6005830154161561489a565b81600052601960205261182f6040600020544211156148e5565b60078101906001600160a01b0333166000528160205260ff604060002054166118ab576006916001600160a01b0333166000526020526040600020600160ff198254161790550161188081546147e8565b905533907f605331be4b2019bcee3f206faee6351234ab5ccc4a212776d5d44f69365cdeee600080a3005b608460405162461bcd60e51b815260206004820152602260248201527f416c726561647920617070726f76656420627920746869732076616c6964617460448201527f6f720000000000000000000000000000000000000000000000000000000000006064820152fd5b606460405162461bcd60e51b815260206004820152601d60248201527f427269646765207265717565737420646f6573206e6f742065786973740000006044820152fd5b606460405162461bcd60e51b815260206004820152601660248201527f4e6f742061206272696467652076616c696461746f72000000000000000000006044820152fd5b3461039357602036600319011261039357602460206001600160a01b03600b5416604051928380927fdd0c0f4300000000000000000000000000000000000000000000000000000000825260043560048301525afa80156108f957600090611a0b575b602090604051908152f35b506020813d602011611a36575b81611a2560209383614640565b810103126103935760209051611a00565b3d9150611a18565b3461039357602036600319011261039357600435600052601060205260e060406000206001600160a01b038154169060018101549060028101546001600160a01b03600383015416600483015491600660ff600586015416940154946040519687526020870152604086015260608501526080840152151560a083015260c0820152f35b3461039357602036600319011261039357600435611ade614ab3565b6107d08111611c3957611af3600a544261488d565b80151580611c2e575b611b0b575b5042600a55600955005b600c54600d54906000917f52c63247e1f47db19d5ce0460030c497f067ca4cebf71ba98eeadabe20bace02546127108102908082046127101490151715611c1a576b033b2e3c9fd0803ce80000009004611f408111611bda575b50611ba4611b96611bb99594611b91856064611b8a64496cebb800976116f89961497b565b04906147db565b6147db565b936116df600854958661497b565b0460008052600560205260406000205461497b565b600080526006602052611bd260406000209182546147db565b905581611b01565b9092611f3f198201918211611c0657600a820291808304600a1490151715611c06575091611ba4611b65565b80634e487b7160e01b602492526011600452fd5b602484634e487b7160e01b81526011600452fd5b506008541515611afc565b606460405162461bcd60e51b815260206004820152600d60248201527f5261746520746f6f2068696768000000000000000000000000000000000000006044820152fd5b3461039357604036600319011261039357611c9661454a565b6001600160a01b0360243591611caa614ab3565b1690816000526012602052611cc660ff60406000205416614930565b8160005260146020528060406000205410611e53578160005260146020526040600020611cf482825461488d565b905581600052601460205260406000205460155411611d3b575b60207fee2339c44dd5475d46dae18c100e648d5a1b1701be0a1ae4edff9502c1ffe45b91604051908152a2005b6000828152601260209081526040808320805460ff191690556014909152812080549082905591905b60135480821015611e4b57846001600160a01b03611d81846145be565b90549060031b1c1614611d975750600101611d64565b91929160001981019190821161090e5761089a6001600160a01b0361088c611dbe946145be565b611dc66149ae565b8281158015611e25575b5060209150917fee2339c44dd5475d46dae18c100e648d5a1b1701be0a1ae4edff9502c1ffe45b927f78c1b6e2c928d89e7295ddf04b58fe1518b96d2a00828edd3dfc80eec3848ebf600080a2915050611d0e565b60008093819382938390611e42575bf1156108f957828281611dd0565b506108fc611e34565b505090611dc6565b606460405162461bcd60e51b815260206004820152601e60248201527f496e73756666696369656e74207374616b6520666f722070656e616c747900006044820152fd5b346103935760003660031901126103935760405160007f52c63247e1f47db19d5ce0460030c497f067ca4cebf71ba98eeadabe20bace0454611ed8816146fd565b8084529060018116908115611f7e5750600114611f00575b6109d48361149681850382614640565b7f52c63247e1f47db19d5ce0460030c497f067ca4cebf71ba98eeadabe20bace0460009081527f46a2803e59a4de4e7a4c574b1243f25977ac4c77d5a1a4a609b5394cebb4a2aa939250905b808210611f6457509091508101602001611496611ef0565b919260018160209254838588010152019101909291611f4c565b60ff191660208086019190915291151560051b840190910191506114969050611ef0565b346103935760403660031901126103935760043560243567ffffffffffffffff811161039357611fd690369060040161467e565b50806000526010602052604060002090600582018054611ff960ff82161561489a565b8260005260196020526120136040600020544211156148e5565b6006840154601654116120775760019060ff19161790557f3d6f16066fecd402800d471587349149577538b6c77b5564d64f867c68329e9b60206001600160a01b03808554169461206a6001820196875490614fdb565b54169354604051908152a3005b606460405162461bcd60e51b815260206004820152602060248201527f496e73756666696369656e742076616c696461746f7220617070726f76616c736044820152fd5b346103935760003660031901126103935760206001600160a01b037f9016d09d72d40fdae2fd8ceac6b6234c7706214fd39c1cd1e609a0528c1993005416604051908152f35b34610393576000366003190112610393576020600454604051908152f35b34610393576020366003190112610393576001600160a01b0361214061454a565b166000526012602052602060ff604060002054166040519015158152f35b34610393576000366003190112610393576020600854604051908152f35b3461039357600036600319011261039357612195614ab3565b600160ff1960185416176018557fa792dfa3fb24493cee8b0e7ac02691be17dc3a12379ad382ad5d670c97361673600080a1005b34610393576000366003190112610393576020600954604051908152f35b346103935760403660031901126103935761067561220361454a565b60243590612212823383614b14565b614d5c565b3461039357608036600319011261039357612230614ab3565b600435601555602435601655604435601755606435601a55005b34610393576000366003190112610393576080600c54600d54600e54600f5491604051938452602084015260408301526060820152f35b346103935760203660031901126103935760043561229d614e37565b6122a8811515614842565b336000526000805160206151d68339815191526020526122cf8160406000205410156147f7565b6122d833614eb0565b6122e3813033614c3b565b33600052600560205260406000206122fc8282546147db565b905561230a816008546147db565b6008556040519081527fb539ca1e5c8d398ddf1c41c30166f33404941683be4683319b57669a93dad4ef60203392a260017f9b779b17422d0df92223018b32b4d1fa46e071723d6817e2486d003becc55f0055005b346103935760a03660031901126103935760043567ffffffffffffffff81116103935761239090369060040161467e565b60243567ffffffffffffffff8111610393576123b090369060040161467e565b6044359060843567ffffffffffffffff8111610393576123d490369060040161467e565b92600454916123e2836147e8565b600455604051906123f282614624565b428252602082019083825260408301908152606083018681526080840191606435835260a0850198895260c085019333855287600052600360205260406000209551865560018601905180519067ffffffffffffffff8211610ddc57819061245a84546146fd565b601f81116127e0575b50602090601f831160011461277b57600092612770575b50508160011b916000199060031b1c19161790555b518051600286019167ffffffffffffffff8211610ddc5781906124b284546146fd565b601f811161271d575b50602090601f83116001146126b8576000926126ad575b50508160011b916000199060031b1c19161790555b51600384015551600483015560058201955195865167ffffffffffffffff8111610ddc5761251582546146fd565b97601f8911612665575b602098508890601f83116001146125ca576001600160a01b037fc344fce85f99d19ae93876866a4a425dc76b584b1f06238319b40029a97844d19795899a95856125af999684966006966000926125bf575b50508160011b916000199060031b1c19161790555b5116920191166001600160a01b0319825416179055604051928392604084526040840190614599565b90878301520390a2604051908152f35b015190508f80612571565b90601f1983169184600052816000209260005b81811061264e575095899a956001866001600160a01b039660069688966125af9d9a7fc344fce85f99d19ae93876866a4a425dc76b584b1f06238319b40029a97844d19f9d10612635575b505050811b019055612586565b015160001960f88460031b161c191690558f8080612628565b92938c6001819287860151815501950193016125dd565b826000526020600020601f830160051c810199602084106126a3575b601f0160051c01985b898110612697575061251f565b6000815560010161268a565b9099508990612681565b015190508b806124d2565b60008581528281209350601f198516905b81811061270557509084600195949392106126ec575b505050811b0190556124e7565b015160001960f88460031b161c191690558b80806126df565b929360206001819287860151815501950193016126c9565b909150836000526020600020601f840160051c81019160208510612766575b90601f859493920160051c01905b81811061275757506124bb565b6000815584935060010161274a565b909150819061273c565b015190508c8061247a565b60008581528281209350601f198516905b8181106127c857509084600195949392106127af575b505050811b01905561248f565b015160001960f88460031b161c191690558c80806127a2565b9293602060018192878601518155019501930161278c565b909150836000526020600020601f840160051c81019160208510612829575b90601f859493920160051c01905b81811061281a5750612463565b6000815584935060010161280d565b90915081906127ff565b346103935760003660031901126103935761284c614ab3565b60006001600160a01b037f9016d09d72d40fdae2fd8ceac6b6234c7706214fd39c1cd1e609a0528c199300546001600160a01b031981167f9016d09d72d40fdae2fd8ceac6b6234c7706214fd39c1cd1e609a0528c19930055167f8be0079c531659141344cd1fd0a4f28419497f9722a3daafe3b4186f6b6457e08280a3005b34610393576020366003190112610393576001600160a01b036128ed61454a565b166000526000805160206151d68339815191526020526020604060002054604051908152f35b3461039357600036600319011261039357602060405160468152f35b3461039357600036600319011261039357602060ff601854166040519015158152f35b346103935760203660031901126103935760043561296e614e37565b612979811515614842565b3360005260056020528060406000205410612a1e5761299733614eb0565b33600052600560205260406000206129b082825461488d565b90556129be8160085461488d565b6008556129cc813330614c3b565b6040519081527f9845e367b683334e5c0b12d7b81721ac518e649376fa65e3d68324e8f34f267960203392a260017f9b779b17422d0df92223018b32b4d1fa46e071723d6817e2486d003becc55f0055005b606460405162461bcd60e51b815260206004820152601b60248201527f496e73756666696369656e74207374616b65642062616c616e636500000000006044820152fd5b34610393576000366003190112610393576020601a54604051908152f35b3461039357602036600319011261039357600060c0604051612aa181614624565b8281526060602082015260606040820152826060820152826080820152606060a0820152015260043560005260036020526040600020604051612ae381614624565b81548152612af360018301614737565b91602082019283526001600160a01b03612bb0612b1260028401614737565b926040850193845260038101549060608601918252600481015460808701908152612b91856006612b4560058601614737565b9460a08b019586520154169660c08901978852612b7e6040519a8b9a60208c525160208c01525160e060408c01526101008b0190614599565b9051898203601f190160608b0152614599565b925160808801525160a087015251858203601f190160c0870152614599565b91511660e08301520390f35b346103935760203660031901126103935760043560005260006020526020604060002080549060ff6001600160a01b03600183015416612c866002840154612c786003860154612c6a6004880154612c1660058a01614737565b90612c2360068b01614737565b93612c3060078c01614737565b96600960088d01549c0154996040519e8f9e8f908152015260408d015260608c015260808b015261016060a08b01526101608a0190614599565b9088820360c08a0152614599565b9086820360e0880152614599565b92610100850152818116151561012085015260081c1615156101408301520390f35b3461039357600036600319011261039357612cc1614ab3565b603242066064018060641161090e576060817ff8bcc695fbd912773b13d2761925b22b7e2e65155815e1b9ea6ed8fb7416a6a592600d55612d00615085565b80600e5542600f55600c549160405192835260208301526040820152a1005b34610393576000366003190112610393576040518060206013549283815201809260136000527f66de8ffda797e3de9c05e8fc57b3bf0ec28a930d40b0d285d93c06501cf6a0909060005b818110612dcc5750505081612d80910382614640565b6040519182916020830190602084525180915260408301919060005b818110612daa575050500390f35b82516001600160a01b0316845285945060209384019390920191600101612d9c565b82546001600160a01b0316845260209093019260019283019201612d6a565b34610393576000366003190112610393576001600160a01b037f0000000000000000000000000000000000000000000000000000000000000000163003612e565760206040517f360894a13ba1a3210667c828492db98dca3e2076cc3735a920a3ca505d382bbc8152f35b7fe07c8dba0000000000000000000000000000000000000000000000000000000060005260046000fd5b346103935760603660031901126103935760043560243590604435906001600160a01b0382168092036103935760ff6018541661306357612eed81612ee5336001600160a01b03166000526000805160206151d6833981519152602052604060002090565b5410156147f7565b80151580613057575b15613013578115612fcf57602092612f0f823033614c3b565b6000600660115494612f20866147e8565b6011558583526010875260408320906001600160a01b0333166001600160a01b031983541617825585600183015584600283015560038201906001600160a01b03198254161790554260048201556005810160ff1981541690550155612f88601754426147db565b836000526019855260406000205560405191825283820152817f4c26ea5fed0f9ef861845baf9d118b90f46227b21757fd1469bc277ca1bd302b60403393a3604051908152f35b606460405162461bcd60e51b815260206004820152601760248201527f496e76616c69642074617267657420636f6e74726163740000000000000000006044820152fd5b606460405162461bcd60e51b815260206004820152601560248201527f496e76616c69642062726964676520616d6f756e7400000000000000000000006044820152fd5b50601a54811115612ef6565b606460405162461bcd60e51b815260206004820152601060248201527f42726964676520697320706175736564000000000000000000000000000000006044820152fd5b6040366003190112610393576130bb61454a565b60243567ffffffffffffffff8111610393576130db90369060040161467e565b6001600160a01b037f000000000000000000000000000000000000000000000000000000000000000016803014908115613315575b50612e565761311d614ab3565b6001600160a01b038216916040517f52d1902d000000000000000000000000000000000000000000000000000000008152602081600481875afa600091816132e1575b5061317a5783634c9c8ce360e01b60005260045260246000fd5b807f360894a13ba1a3210667c828492db98dca3e2076cc3735a920a3ca505d382bbc8592036132b45750813b156132a057806001600160a01b03197f360894a13ba1a3210667c828492db98dca3e2076cc3735a920a3ca505d382bbc5416177f360894a13ba1a3210667c828492db98dca3e2076cc3735a920a3ca505d382bbc557fbc7cd75a20ee27fd9adebab32041f755214dbc6bffa90cc0225b39da2e5c2d3b600080a281511561326d5760008083602061067595519101845af43d15613265573d9161324883614662565b926132566040519485614640565b83523d6000602085013e615145565b606091615145565b50503461327657005b7fb398979f0000000000000000000000000000000000000000000000000000000060005260046000fd5b634c9c8ce360e01b60005260045260246000fd5b7faa1d49a40000000000000000000000000000000000000000000000000000000060005260045260246000fd5b9091506020813d60201161330d575b816132fd60209383614640565b8101031261039357519085613160565b3d91506132f0565b90506001600160a01b037f360894a13ba1a3210667c828492db98dca3e2076cc3735a920a3ca505d382bbc5416141583613110565b346103935760203660031901126103935761336361454a565b506109d4604051613375602082614640565b600081526000368137604051918291826146c3565b346103935760c0366003190112610393576133a361454a565b60243560443567ffffffffffffffff8111610393576133c690369060040161467e565b9060643567ffffffffffffffff8111610393576133e790369060040161467e565b9060843560a43567ffffffffffffffff81116103935761340b90369060040161467e565b94613414614ab3565b8215613cec5760648211613ca8576b033b2e3c9fd0803ce800000061345a847f52c63247e1f47db19d5ce0460030c497f067ca4cebf71ba98eeadabe20bace02546147db565b11613c64576002549461346c866147e8565b6002556046831015908660405161348281614607565b81815260208101928a6001600160a01b038716998a865260408401928a84526060850142815260808601906000825260a0870192835260c0870193845260e087019485526101008701958c87526001600160a01b0361012089019a8c8c526101408a019a60008c526000526000602052604060002099518a5551166001600160a01b0360018a0191166001600160a01b031982541617905551600288015551600387015551600486015560058501905180519067ffffffffffffffff8211610ddc57819061355084546146fd565b601f8111613c11575b50602090601f8311600114613bac57600092613ba1575b50508160011b916000199060031b1c19161790555b518051600685019167ffffffffffffffff8211610ddc5781906135a884546146fd565b601f8111613b4e575b50602090601f8311600114613ae957600092613ade575b50508160011b916000199060031b1c19161790555b518051600784019167ffffffffffffffff8211610ddc576135fe83546146fd565b601f8111613a96575b50602090601f8311600114613a2a576009959493929160009183613a1f575b50508160011b916000199060031b1c19161790555b516008820155019151151560ff8019845416911617825551151561ff0082549160081b169061ff0019161790558460005260016020526040600020805468010000000000000000811015610ddc57613698916001820181556145ef565b81549060031b9088821b91600019901b19161790556136ee575b60208585817f61edecf51cd960d88aa7d29010c5f319d7e6f74a5540d52e82cb8d3b657dbdcf60408888825191825287820152a3604051908152f35b826136f891614fdb565b8360005260006020524260046040600020015583846000907a184f03e93ff9f4daa797ed6e38ed64bf6a1f0100000000000000008710156139f7575b806d04ee2d6d415b85acef8100000000600a9210156139dc575b662386f26fc100008110156139c8575b6305f5e1008110156139b7575b6127108110156139a8575b606481101561399a575b1015613992575b6001810191600a60216137b261379c86614662565b956137aa6040519788614640565b808752614662565b602086019490601f19013686378501015b60001901917f30313233343536373839616263646566000000000000000000000000000000008282061a8353049081156137ff57600a906137c3565b5050613887613898600160009960276138e8956020976040519687947f697066733a2f2f000000000000000000000000000000000000000000000000008b870152613852815180928d888a019101614576565b8501917f2f00000000000000000000000000000000000000000000000000000000000000858401525180936028840190614576565b01010301601f198101835282614640565b6001600160a01b03600b5416906040519889809481937fc772745a0000000000000000000000000000000000000000000000000000000083528a6004840152606060248401526064830190614599565b88604483015203925af19485156108f95760009561395d575b50604084927f61edecf51cd960d88aa7d29010c5f319d7e6f74a5540d52e82cb8d3b657dbdcf92602097867f1e38916d8d4c425f5df00d9a6e4e34f801803bb9c858b6a4de0d1a2bb1422b008a8651868152a3925092506136b2565b94506020853d60201161398a575b8161397860209383614640565b81010312610393579351936040613901565b3d915061396b565b600101613787565b606460029104920191613780565b61271060049104920191613776565b6305f5e1006008910492019161376b565b662386f26fc100006010910492019161375e565b6d04ee2d6d415b85acef81000000006020910492019161374e565b50604090507a184f03e93ff9f4daa797ed6e38ed64bf6a1f0100000000000000008604613734565b015190508f80613626565b90601f1983169184600052816000209260005b818110613a7e57509160019391856009999897969410613a65575b505050811b01905561363b565b015160001960f88460031b161c191690558f8080613a58565b92936020600181928786015181550195019301613a3d565b836000526020600020601f840160051c81019160208510613ad4575b601f0160051c01905b818110613ac85750613607565b60008155600101613abb565b9091508190613ab2565b015190508f806135c8565b60008581528281209350601f198516905b818110613b365750908460019594939210613b1d575b505050811b0190556135dd565b015160001960f88460031b161c191690558f8080613b10565b92936020600181928786015181550195019301613afa565b909150836000526020600020601f840160051c81019160208510613b97575b90601f859493920160051c01905b818110613b8857506135b1565b60008155849350600101613b7b565b9091508190613b6d565b015190503880613570565b60008581528281209350601f198516905b818110613bf95750908460019594939210613be0575b505050811b019055613585565b015160001960f88460031b161c19169055388080613bd3565b92936020600181928786015181550195019301613bbd565b909150836000526020600020601f840160051c81019160208510613c5a575b90601f859493920160051c01905b818110613c4b5750613559565b60008155849350600101613c3e565b9091508190613c30565b606460405162461bcd60e51b815260206004820152601760248201527f576f756c6420657863656564206d617820737570706c790000000000000000006044820152fd5b606460405162461bcd60e51b815260206004820152601560248201527f496e76616c696420414920636f6e666964656e636500000000000000000000006044820152fd5b606460405162461bcd60e51b815260206004820152601660248201527f434f3220616d6f756e74206d757374206265203e2030000000000000000000006044820152fd5b34610393576020366003190112610393576001600160a01b03613d5161454a565b1660005260066020526020604060002054604051908152f35b346103935760203660031901126103935761067560043533614d5c565b34610393576000366003190112610393576020601754604051908152f35b3461039357600036600319011261039357613dbe614e37565b613dc733614eb0565b3360005260066020526040600020548015613e485733600052600660205260006040812055613df68133614fdb565b6040519081527ffc30cddea38e2bf4d6ea7d3f9ed3b6ad7f176419f4963bd81318067a4aee73fe60203392a260017f9b779b17422d0df92223018b32b4d1fa46e071723d6817e2486d003becc55f0055005b606460405162461bcd60e51b815260206004820152601360248201527f4e6f207265776172647320746f20636c61696d000000000000000000000000006044820152fd5b3461039357604036600319011261039357613ea561454a565b6001600160a01b03602435911660005260016020526040600020805482101561039357602091613ed4916145ef565b90549060031b1c604051908152f35b3461039357600036600319011261039357602060405160018152f35b346103935760003660031901126103935760206001600160a01b03601b5416604051908152f35b346103935760003660031901126103935760206040516b033b2e3c9fd0803ce80000008152f35b3461039357600036600319011261039357602060405160128152f35b346103935760203660031901126103935760043580600052600060205260406000206001600160a01b0360018201541633036140fc57600981019081549160ff8316156140b85760ff8360081c16614074576002613fe7336001600160a01b03166000526000805160206151d6833981519152602052604060002090565b54920154809210614030576101006140079361ff00191617905533614d5c565b33907fcdd0b384a55e61f9ca37841639db58a4c46951b4c682e5dff49433fa15ecb790600080a3005b606460405162461bcd60e51b815260206004820152601a60248201527f496e73756666696369656e7420746f6b656e2062616c616e63650000000000006044820152fd5b606460405162461bcd60e51b815260206004820152600f60248201527f416c7265616479207265746972656400000000000000000000000000000000006044820152fd5b606460405162461bcd60e51b815260206004820152601360248201527f437265646974206e6f74207665726966696564000000000000000000000000006044820152fd5b606460405162461bcd60e51b815260206004820152600d60248201527f4e6f7420746865206f776e6572000000000000000000000000000000000000006044820152fd5b34610393576020366003190112610393576001600160a01b0361416161454a565b1660005260076020526020604060002054604051908152f35b346103935760603660031901126103935761173b61419661454a565b61419e614560565b604435916141ad833383614b14565b614c3b565b346103935760003660031901126103935760006001600254905b8181106141de57602083604051908152f35b80600052600060205260ff60096040600020015416614200575b6001016141cc565b9161421f600191846000526000602052600260406000200154906147db565b9290506141f8565b346103935760003660031901126103935760207f52c63247e1f47db19d5ce0460030c497f067ca4cebf71ba98eeadabe20bace0254604051908152f35b3461039357602036600319011261039357600435601354811015610393576001600160a01b036142956020926145be565b90549060031b1c16604051908152f35b34610393576020366003190112610393576001600160a01b036142c661454a565b1660005260056020526020604060002054604051908152f35b34610393576040366003190112610393576142f861454a565b6024359033156143b4576001600160a01b0316908115614385573360009081527f52c63247e1f47db19d5ce0460030c497f067ca4cebf71ba98eeadabe20bace016020526040902082600052602052806040600020556040519081527f8c5be1e5ebec7d5bd14f71427d1e84f3dd0314c0f7b2291e5b200ac8c7c3b92560203392a3602060405160018152f35b7f94280d6200000000000000000000000000000000000000000000000000000000600052600060045260246000fd5b7fe602df0500000000000000000000000000000000000000000000000000000000600052600060045260246000fd5b346103935760003660031901126103935760405160007f52c63247e1f47db19d5ce0460030c497f067ca4cebf71ba98eeadabe20bace0354614424816146fd565b8084529060018116908115611f7e575060011461444b576109d48361149681850382614640565b7f52c63247e1f47db19d5ce0460030c497f067ca4cebf71ba98eeadabe20bace0360009081527f2ae08a8e29253f69ac5d979a101956ab8f8d9d7ded63fa7a83b16fc47648eab0939250905b8082106144af57509091508101602001611496611ef0565b919260018160209254838588010152019101909291614497565b34610393576000366003190112610393576020601554604051908152f35b34610393576020366003190112610393576001600160a01b0361450861454a565b614510614ab3565b16806001600160a01b0319601b541617601b557f7b5f1cb467cd31cff16446c8f8d54013045b11426216e46e963369ed47f94be5600080a2005b600435906001600160a01b038216820361039357565b602435906001600160a01b038216820361039357565b60005b8381106145895750506000910152565b8181015183820152602001614579565b906020916145b281518092818552858086019101614576565b601f01601f1916010190565b6013548110156145d957601360005260206000200190600090565b634e487b7160e01b600052603260045260246000fd5b80548210156145d95760005260206000200190600090565b610160810190811067ffffffffffffffff821117610ddc57604052565b60e0810190811067ffffffffffffffff821117610ddc57604052565b90601f8019910116810190811067ffffffffffffffff821117610ddc57604052565b67ffffffffffffffff8111610ddc57601f01601f191660200190565b81601f820112156103935760208135910161469882614662565b926146a66040519485614640565b828452828201116103935781600092602092838601378301015290565b602060408183019282815284518094520192019060005b8181106146e75750505090565b82518452602093840193909201916001016146da565b90600182811c9216801561472d575b602083101461471757565b634e487b7160e01b600052602260045260246000fd5b91607f169161470c565b906040519182600082549261474b846146fd565b80845293600181169081156147b95750600114614772575b5061477092500383614640565b565b90506000929192526020600020906000915b81831061479d5750509060206147709282010138614763565b6020919350806001915483858901015201910190918492614784565b90506020925061477094915060ff191682840152151560051b82010138614763565b9190820180921161090e57565b600019811461090e5760010190565b156147fe57565b606460405162461bcd60e51b815260206004820152601460248201527f496e73756666696369656e742062616c616e63650000000000000000000000006044820152fd5b1561484957565b606460405162461bcd60e51b815260206004820152601260248201527f416d6f756e74206d757374206265203e203000000000000000000000000000006044820152fd5b9190820391821161090e57565b156148a157565b606460405162461bcd60e51b815260206004820152601860248201527f42726964676520616c726561647920636f6d706c6574656400000000000000006044820152fd5b156148ec57565b606460405162461bcd60e51b815260206004820152601860248201527f42726964676520726571756573742074696d6564206f757400000000000000006044820152fd5b1561493757565b606460405162461bcd60e51b815260206004820152600f60248201527f4e6f7420612076616c696461746f7200000000000000000000000000000000006044820152fd5b8181029291811591840414171561090e57565b8115614998570490565b634e487b7160e01b600052601260045260246000fd5b60135480156149de57600019016149c68160136145ef565b6001600160a01b0382549160031b1b19169055601355565b634e487b7160e01b600052603160045260246000fd5b6001600160a01b03168015614a84576001600160a01b037f9016d09d72d40fdae2fd8ceac6b6234c7706214fd39c1cd1e609a0528c19930054826001600160a01b03198216177f9016d09d72d40fdae2fd8ceac6b6234c7706214fd39c1cd1e609a0528c19930055167f8be0079c531659141344cd1fd0a4f28419497f9722a3daafe3b4186f6b6457e0600080a3565b7f1e4fbdf700000000000000000000000000000000000000000000000000000000600052600060045260246000fd5b6001600160a01b037f9016d09d72d40fdae2fd8ceac6b6234c7706214fd39c1cd1e609a0528c19930054163303614ae657565b7f118cdaa7000000000000000000000000000000000000000000000000000000006000523360045260246000fd5b9190614b52836001600160a01b03166000527f52c63247e1f47db19d5ce0460030c497f067ca4cebf71ba98eeadabe20bace01602052604060002090565b6001600160a01b038216600052602052604060002054926000198410614b79575b50505050565b828410614bfc576001600160a01b038116156143b4576001600160a01b0382161561438557614be26001600160a01b03916001600160a01b03166000527f52c63247e1f47db19d5ce0460030c497f067ca4cebf71ba98eeadabe20bace01602052604060002090565b911660005260205260406000209103905538808080614b73565b506001600160a01b0383917ffb8f41b2000000000000000000000000000000000000000000000000000000006000521660045260245260445260646000fd5b6001600160a01b0316908115614d2d576001600160a01b0316918215614cfe5760008281526000805160206151d68339815191526020526040812054828110614ce45791604082827fddf252ad1be2c89b69c2b068fc378daa952ba7f163c4a11628f55a4df523b3ef9587602096526000805160206151d6833981519152865203828220558681526000805160206151d6833981519152845220818154019055604051908152a3565b60649363391434e360e21b83949352600452602452604452fd5b7fec442f0500000000000000000000000000000000000000000000000000000000600052600060045260246000fd5b7f96c6fd1e00000000000000000000000000000000000000000000000000000000600052600060045260246000fd5b6001600160a01b03168015614d2d576000918183526000805160206151d68339815191526020526040832054818110614e1e57817fddf252ad1be2c89b69c2b068fc378daa952ba7f163c4a11628f55a4df523b3ef926020928587526000805160206151d68339815191528452036040862055807f52c63247e1f47db19d5ce0460030c497f067ca4cebf71ba98eeadabe20bace0254037f52c63247e1f47db19d5ce0460030c497f067ca4cebf71ba98eeadabe20bace0255604051908152a3565b839263391434e360e21b60649552600452602452604452fd5b60027f9b779b17422d0df92223018b32b4d1fa46e071723d6817e2486d003becc55f005414614e865760027f9b779b17422d0df92223018b32b4d1fa46e071723d6817e2486d003becc55f0055565b7f3ee5aeb50000000000000000000000000000000000000000000000000000000060005260046000fd5b614ebc600a544261488d565b80151580614fd0575b614ed2575b505042600a55565b600c54600d54906000917f52c63247e1f47db19d5ce0460030c497f067ca4cebf71ba98eeadabe20bace02546127108102908082046127101490151715611c1a576b033b2e3c9fd0803ce80000009004611f408111614fa1575b5064496cebb800614f67614f59614f7f9695611b91866064611b8a6001600160a01b03986116f89a61497b565b946116df600854968761497b565b0494169384600052600560205260406000205461497b565b906000526006602052614f9860406000209182546147db565b90553880614eca565b9092611f3f198201918211611c0657600a820291808304600a1490151715611c0657509164496cebb800614f2c565b506008541515614ec5565b6001600160a01b0316908115614cfe577fddf252ad1be2c89b69c2b068fc378daa952ba7f163c4a11628f55a4df523b3ef60208261503c6000947f52c63247e1f47db19d5ce0460030c497f067ca4cebf71ba98eeadabe20bace02546147db565b7f52c63247e1f47db19d5ce0460030c497f067ca4cebf71ba98eeadabe20bace02558484526000805160206151d6833981519152825260408420818154019055604051908152a3565b7f52c63247e1f47db19d5ce0460030c497f067ca4cebf71ba98eeadabe20bace0254612710810290808204612710149015171561090e576b033b2e3c9fd0803ce8000000900461232881116150e657611f40106150e157600090565b606490565b5060c890565b60ff7ff0c57e16840df040f15088dc2f81fe391c3923bec73e23a9662efc9c229c6a005460401c161561511b57565b7fd7e6bcf80000000000000000000000000000000000000000000000000000000060005260046000fd5b90615184575080511561515a57602081519101fd5b7fd6bda2750000000000000000000000000000000000000000000000000000000060005260046000fd5b815115806151cc575b615195575090565b6001600160a01b03907f9996b315000000000000000000000000000000000000000000000000000000006000521660045260246000fd5b50803b1561518d56fe52c63247e1f47db19d5ce0460030c497f067ca4cebf71ba98eeadabe20bace00a2646970667358221220c52a9ddacd94ed3de6e60679e015e3973f2109ba347357d15fc08e43ed06dff964736f6c634300081c0033",
  "linkReferences": {},
  "deployedLinkReferences": {}
}