{
  "_format": "hh-sol-artifact-1",
  "contractName": "SoulboundCarbonCredit",
  "sourceName": "contracts/CarbonToken.sol",
  "abi": [
    {
      "inputs": [
        {
          "internalType": "address",
          "name": "target",
          "type": "address"
        }
      ],
      "name": "AddressEmptyCode",
      "type": "error"
    },
    {
      "inputs": [
        {
          "internalType": "address",
          "name": "implementation",
          "type": "address"
        }
      ],
      "name": "ERC1967InvalidImplementation",
      "type": "error"
    },
    {
      "inputs": [],
      "name": "ERC1967NonPayable",
      "type": "error"
    },
    {
      "inputs": [
        {
          "internalType": "address",
          "name": "sender",
          "type": "address"
        },
        {
          "internalType": "uint256",
          "name": "tokenId",
          "type": "uint256"
        },
        {
          "internalType": "address",
          "name": "owner",
          "type": "address"
        }
      ],
      "name": "ERC721IncorrectOwner",
      "type": "error"
    },
    {
      "inputs": [
        {
          "internalType": "address",
          "name": "operator",
          "type": "address"
        },
        {
          "internalType": "uint256",
          "name": "tokenId",
          "type": "uint256"
        }
      ],
      "name": "ERC721InsufficientApproval",
      "type": "error"
    },
    {
      "inputs": [
        {
          "internalType": "address",
          "name": "approver",
          "type": "address"
        }
      ],
      "name": "ERC721InvalidApprover",
      "type": "error"
    },
    {
      "inputs": [
        {
          "internalType": "address",
          "name": "operator",
          "type": "address"
        }
      ],
      "name": "ERC721InvalidOperator",
      "type": "error"
    },
    {
      "inputs": [
        {
          "internalType": "address",
          "name": "owner",
          "type": "address"
        }
      ],
      "name": "ERC721InvalidOwner",
      "type": "error"
    },
    {
      "inputs": [
        {
          "internalType": "address",
          "name": "receiver",
          "type": "address"
        }
      ],
      "name": "ERC721InvalidReceiver",
      "type": "error"
    },
    {
      "inputs": [
        {
          "internalType": "address",
          "name": "sender",
          "type": "address"
        }
      ],
      "name": "ERC721InvalidSender",
      "type": "error"
    },
    {
      "inputs": [
        {
          "internalType": "uint256",
          "name": "tokenId",
          "type": "uint256"
        }
      ],
      "name": "ERC721NonexistentToken",
      "type": "error"
    },
    {
      "inputs": [],
      "name": "FailedCall",
      "type": "error"
    },
    {
      "inputs": [],
      "name": "InvalidInitialization",
      "type": "error"
    },
    {
      "inputs": [],
      "name": "NotInitializing",
      "type": "error"
    },
    {
      "inputs": [
        {
          "internalType": "address",
          "name": "owner",
          "type": "address"
        }
      ],
      "name": "OwnableInvalidOwner",
      "type": "error"
    },
    {
      "inputs": [
        {
          "internalType": "address",
          "name": "account",
          "type": "address"
        }
      ],
      "name": "OwnableUnauthorizedAccount",
      "type": "error"
    },
    {
      "inputs": [],
      "name": "UUPSUnauthorizedCallContext",
      "type": "error"
    },
    {
      "inputs": [
        {
          "internalType": "bytes32",
          "name": "slot",
          "type": "bytes32"
        }
      ],
      "name": "UUPSUnsupportedProxiableUUID",
      "type": "error"
    },
    {
      "anonymous": false,
      "inputs": [
        {
          "indexed": true,
          "internalType": "address",
          "name": "owner",
          "type": "address"
        },
        {
          "indexed": true,
          "internalType": "address",
          "name": "approved",
          "type": "address"
        },
        {
          "indexed": true,
          "internalType": "uint256",
          "name": "tokenId",
          "type": "uint256"
        }
      ],
      "name": "Approval",
      "type": "event"
    },
    {
      "anonymous": false,
      "inputs": [
        {
          "indexed": true,
          "internalType": "address",
          "name": "owner",
          "type": "address"
        },
        {
          "indexed": true,
          "internalType": "address",
          "name": "operator",
          "type": "address"
        },
        {
          "indexed": false,
          "internalType": "bool",
          "name": "approved",
          "type": "bool"
        }
      ],
      "name": "ApprovalForAll",
      "type": "event"
    },
    {
      "anonymous": false,
      "inputs": [
        {
          "indexed": false,
          "internalType": "uint256",
          "name": "_fromTokenId",
          "type": "uint256"
        },
        {
          "indexed": false,
          "internalType": "uint256",
          "name": "_toTokenId",
          "type": "uint256"
        }
      ],
      "name": "BatchMetadataUpdate",
      "type": "event"
    },
    {
      "anonymous": false,
      "inputs": [
        {
          "indexed": false,
          "internalType": "uint64",
          "name": "version",
          "type": "uint64"
        }
      ],
      "name": "Initialized",
      "type": "event"
    },
    {
      "anonymous": false,
      "inputs": [
        {
          "indexed": false,
          "internalType": "uint256",
          "name": "_tokenId",
          "type": "uint256"
        }
      ],
      "name": "MetadataUpdate",
      "type": "event"
    },
    {
      "anonymous": false,
      "inputs": [
        {
          "indexed": true,
          "internalType": "address",
          "name": "previousOwner",
          "type": "address"
        },
        {
          "indexed": true,
          "internalType": "address",
          "name": "newOwner",
          "type": "address"
        }
      ],
      "name": "OwnershipTransferred",
      "type": "event"
    },
    {
      "anonymous": false,
      "inputs": [
        {
          "indexed": true,
          "internalType": "address",
          "name": "from",
          "type": "address"
        },
        {
          "indexed": true,
          "internalType": "address",
          "name": "to",
          "type": "address"
        },
        {
          "indexed": true,
          "internalType": "uint256",
          "name": "tokenId",
          "type": "uint256"
        }
      ],
      "name": "Transfer",
      "type": "event"
    },
    {
      "anonymous": false,
      "inputs": [
        {
          "indexed": true,
          "internalType": "address",
          "name": "implementation",
          "type": "address"
        }
      ],
      "name": "Upgraded",
      "type": "event"
    },
    {
      "inputs": [],
      "name": "UPGRADE_INTERFACE_VERSION",
      "outputs": [
        {
          "internalType": "string",
          "name": "",
          "type": "string"
        }
      ],
      "stateMutability": "view",
      "type": "function"
    },
    {
      "inputs": [
        {
          "internalType": "address",
          "name": "to",
          "type": "address"
        },
        {
          "internalType": "uint256",
          "name": "tokenId",
          "type": "uint256"
        }
      ],
      "name": "approve",
      "outputs": [],
      "stateMutability": "nonpayable",
      "type": "function"
    },
    {
      "inputs": [
        {
          "internalType": "address",
          "name": "owner",
          "type": "address"
        }
      ],
      "name": "balanceOf",
      "outputs": [
        {
          "internalType": "uint256",
          "name": "",
          "type": "uint256"
        }
      ],
      "stateMutability": "view",
      "type": "function"
    },
    {
      "inputs": [
        {
          "internalType": "uint256",
          "name": "",
          "type": "uint256"
        }
      ],
      "name": "carbonAmount",
      "outputs": [
        {
          "internalType": "uint256",
          "name": "",
          "type": "uint256"
        }
      ],
      "stateMutability": "view",
      "type": "function"
    },
    {
      "inputs": [
        {
          "internalType": "uint256",
          "name": "tokenId",
          "type": "uint256"
        }
      ],
      "name": "getApproved",
      "outputs": [
        {
          "internalType": "address",
          "name": "",
          "type": "address"
        }
      ],
      "stateMutability": "view",
      "type": "function"
    },
    {
      "inputs": [],
      "name": "initialize",
      "outputs": [],
      "stateMutability": "nonpayable",
      "type": "function"
    },
    {
      "inputs": [
        {
          "internalType": "address",
          "name": "owner",
          "type": "address"
        },
        {
          "internalType": "address",
          "name": "operator",
          "type": "address"
        }
      ],
      "name": "isApprovedForAll",
      "outputs": [
        {
          "internalType": "bool",
          "name": "",
          "type": "bool"
        }
      ],
      "stateMutability": "view",
      "type": "function"
    },
    {
      "inputs": [],
      "name": "name",
      "outputs": [
        {
          "internalType": "string",
          "name": "",
          "type": "string"
        }
      ],
      "stateMutability": "view",
      "type": "function"
    },
    {
      "inputs": [],
      "name": "owner",
      "outputs": [
        {
          "internalType": "address",
          "name": "",
          "type": "address"
        }
      ],
      "stateMutability": "view",
      "type": "function"
    },
    {
      "inputs": [
        {
          "internalType": "uint256",
          "name": "tokenId",
          "type": "uint256"
        }
      ],
      "name": "ownerOf",
      "outputs": [
        {
          "internalType": "address",
          "name": "",
          "type": "address"
        }
      ],
      "stateMutability": "view",
      "type": "function"
    },
    {
      "inputs": [],
      "name": "proxiableUUID",
      "outputs": [
        {
          "internalType": "bytes32",
          "name": "",
          "type": "bytes32"
        }
      ],
      "stateMutability": "view",
      "type": "function"
    },
    {
      "inputs": [],
      "name": "renounceOwnership",
      "outputs": [],
      "stateMutability": "nonpayable",
      "type": "function"
    },
    {
      "inputs": [
        {
          "internalType": "address",
          "name": "to",
          "type": "address"
        },
        {
          "internalType": "string",
          "name": "uri",
          "type": "string"
        },
        {
          "internalType": "uint256",
          "name": "_carbonAmount",
          "type": "uint256"
        }
      ],
      "name": "safeMint",
      "outputs": [
        {
          "internalType": "uint256",
          "name": "",
          "type": "uint256"
        }
      ],
      "stateMutability": "nonpayable",
      "type": "function"
    },
    {
      "inputs": [
        {
          "internalType": "address",
          "name": "from",
          "type": "address"
        },
        {
          "internalType": "address",
          "name": "to",
          "type": "address"
        },
        {
          "internalType": "uint256",
          "name": "tokenId",
          "type": "uint256"
        }
      ],
      "name": "safeTransferFrom",
      "outputs": [],
      "stateMutability": "nonpayable",
      "type": "function"
    },
    {
      "inputs": [
        {
          "internalType": "address",
          "name": "from",
          "type": "address"
        },
        {
          "internalType": "address",
          "name": "to",
          "type": "address"
        },
        {
          "internalType": "uint256",
          "name": "tokenId",
          "type": "uint256"
        },
        {
          "internalType": "bytes",
          "name": "data",
          "type": "bytes"
        }
      ],
      "name": "safeTransferFrom",
      "outputs": [],
      "stateMutability": "nonpayable",
      "type": "function"
    },
    {
      "inputs": [
        {
          "internalType": "address",
          "name": "operator",
          "type": "address"
        },
        {
          "internalType": "bool",
          "name": "approved",
          "type": "bool"
        }
      ],
      "name": "setApprovalForAll",
      "outputs": [],
      "stateMutability": "nonpayable",
      "type": "function"
    },
    {
      "inputs": [
        {
          "internalType": "uint256",
          "name": "",
          "type": "uint256"
        }
      ],
      "name": "soulbound",
      "outputs": [
        {
          "internalType": "bool",
          "name": "",
          "type": "bool"
        }
      ],
      "stateMutability": "view",
      "type": "function"
    },
    {
      "inputs": [
        {
          "internalType": "bytes4",
          "name": "interfaceId",
          "type": "bytes4"
        }
      ],
      "name": "supportsInterface",
      "outputs": [
        {
          "internalType": "bool",
          "name": "",
          "type": "bool"
        }
      ],
      "stateMutability": "view",
      "type": "function"
    },
    {
      "inputs": [],
      "name": "symbol",
      "outputs": [
        {
          "internalType": "string",
          "name": "",
          "type": "string"
        }
      ],
      "stateMutability": "view",
      "type": "function"
    },
    {
      "inputs": [
        {
          "internalType": "uint256",
          "name": "tokenId",
          "type": "uint256"
        }
      ],
      "name": "tokenURI",
      "outputs": [
        {
          "internalType": "string",
          "name": "",
          "type": "string"
        }
      ],
      "stateMutability": "view",
      "type": "function"
    },
    {
      "inputs": [
        {
          "internalType": "address",
          "name": "from",
          "type": "address"
        },
        {
          "internalType": "address",
          "name": "to",
          "type": "address"
        },
        {
          "internalType": "uint256",
          "name": "tokenId",
          "type": "uint256"
        }
      ],
      "name": "transferFrom",
      "outputs": [],
      "stateMutability": "nonpayable",
      "type": "function"
    },
    {
      "inputs": [
        {
          "internalType": "address",
          "name": "newOwner",
          "type": "address"
        }
      ],
      "name": "transferOwnership",
      "outputs": [],
      "stateMutability": "nonpayable",
      "type": "function"
    },
    {
      "inputs": [
        {
          "internalType": "address",
          "name": "newImplementation",
          "type": "address"
        },
        {
          "internalType": "bytes",
          "name": "data",
          "type": "bytes"
        }
      ],
      "name": "upgradeToAndCall",
      "outputs": [],
      "stateMutability": "payable",
      "type": "function"
    }
  ],
  "bytecode": "0x60a0806040523460295730608052611bfd908161002f8239608051818181610e8b0152610f200152f35b600080fdfe608080604052600436101561001357600080fd5b60003560e01c90816301ffc9a7146112f25750806306fdde0314611242578063081812fc146111f7578063095ea7b31461110557806323b872dd146110ee57806342842e0e146110be5780634f1ef28614610ee257806352d1902d14610e785780636352211e14610e4857806370a0823114610df6578063715018a614610d8c5780637a18159714610d5b5780638129fc1c146108a95780638da5cb5b1461087357806395d89b411461078c578063a22cb465146106f0578063ad3cb1cc146106a9578063b88d4fde1461064e578063c772745a146101fd578063c87b56dd146101c6578063dd0c0f431461019a578063e985e9c51461014c5763f2fde38b1461011c57600080fd5b34610147576020366003190112610147576101456101386113b6565b6101406117cc565b611725565b005b600080fd5b34610147576040366003190112610147576101656113b6565b6101766101706113cc565b916116ec565b9060018060a01b0316600052602052602060ff604060002054166040519015158152f35b346101475760203660031901126101475760043560005260026020526020604060002054604051908152f35b34610147576020366003190112610147576101f96101e5600435611933565b604051918291602083526020830190611377565b0390f35b34610147576060366003190112610147576102166113b6565b60243567ffffffffffffffff811161014757366023820112156101475761024790369060248160040135910161145a565b61024f6117cc565b6000546000198114610638576001019081600055602091604051610273848261141c565b600081526001600160a01b0385169485156106225761029183611a1e565b6001600160a01b038116801515919085908990846105e3575b6102b3866116b3565b8054600101905560008381527f80bb2b638cc20bc4d0a60d66940f3ab4a00c1d7b313497ca82fb0b4ab00793028b526040812080546001600160a01b031916841790557fddf252ad1be2c89b69c2b068fc378daa952ba7f163c4a11628f55a4df523b3ef9080a4506105cd573b6104cf575b5080919293506000527f0542a41881ee128a365a727b282c86fa859579490b9bb45aab8503648c8e790083526040600020825167ffffffffffffffff81116104b95761037182546114af565b601f8111610473575b508493601f821160011461040f579381929394600092610404575b50508160011b916000199060031b1c19161790555b7ff8e1a15aba9398e019f0b49df1a4fde98ee17ae345cb5f6b5e2c27f5033e8ce782604051838152a180600052600182526040600020600160ff198254161790558060005260028252604435604060002055604051908152f35b015190508580610395565b601f1982169483600052866000209160005b8888821061045d57505083600195969710610444575b505050811b0190556103aa565b015160001960f88460031b161c19169055858080610437565b6001849582939585015181550194019201610421565b8260005285600020601f830160051c8101918784106104af575b601f0160051c01905b8181106104a3575061037a565b60008155600101610496565b909150819061048d565b634e487b7160e01b600052604160045260246000fd5b836105099160405180938192630a85bd0160e11b835233600484015260006024840152866044840152608060648401526084830190611377565b03816000895af18091600091610588575b509061054c5750505061052b611802565b80519190826105495783633250574960e11b60005260045260246000fd5b01fd5b929391929091906001600160e01b03191663757a42ff60e11b01610574575090829184610325565b633250574960e11b60005260045260246000fd5b8581813d83116105c6575b61059d818361141c565b810103126105c25751906001600160e01b0319821682036105bf57508661051a565b80fd5b5080fd5b503d610593565b6339e3563760e11b600052600060045260246000fd5b6000838152600080516020611b488339815191526020526040902080546001600160a01b0319169055610615846116b3565b80546000190190556102aa565b633250574960e11b600052600060045260246000fd5b634e487b7160e01b600052601160045260246000fd5b34610147576080366003190112610147576106676113b6565b61066f6113cc565b906044356064359267ffffffffffffffff841161014757610697610145943690600401611491565b926106a38383836114e9565b33611832565b34610147576000366003190112610147576101f960408051906106cc818361141c565b60058252640352e302e360dc1b602083015251918291602083526020830190611377565b34610147576040366003190112610147576107096113b6565b60243590811515809203610147576001600160a01b031690811561077757610730336116ec565b82600052602052604060002060ff1981541660ff83161790556040519081527f17307eab39ab6107e8899845ad3d59bd9653f200f220920489ca2b5937696c3160203392a3005b50630b61174360e31b60005260045260246000fd5b34610147576000366003190112610147576040516000600080516020611b88833981519152546107bb816114af565b808452906001811690811561084f57506001146107e3575b6101f9836101e58185038261141c565b600080516020611b8883398151915260009081527ff4bad0a69248f59680a4f2b3000328cec71a413447c96781cfe5996daa8c456e939250905b808210610835575090915081016020016101e56107d3565b91926001816020925483858801015201910190929161081d565b60ff191660208086019190915291151560051b840190910191506101e590506107d3565b3461014757600036600319011261014757600080516020611b08833981519152546040516001600160a01b039091168152602090f35b3461014757600036600319011261014757600080516020611b688339815191525460ff8160401c16159067ffffffffffffffff811680159081610d53575b6001149081610d49575b159081610d40575b50610d2f5767ffffffffffffffff198116600117600080516020611b688339815191525581610d02575b50604090815191610934818461141c565b601783527f536f756c626f756e6420436172626f6e20437265646974000000000000000000602084015280519161096b828461141c565b600383526253434360e81b6020840152610983611a58565b61098b611a58565b835167ffffffffffffffff81116104b9576109b4600080516020611ae8833981519152546114af565b601f8111610c88575b50602094601f8211600114610bfc57948192939495600092610bf1575b50508160011b916000199060031b1c191617600080516020611ae8833981519152555b825167ffffffffffffffff81116104b957610a26600080516020611b88833981519152546114af565b601f8111610b7f575b506020601f8211600114610afe5781929394600092610af3575b50508160011b916000199060031b1c191617600080516020611b88833981519152555b610a74611a58565b610a7c611a58565b610a84611a58565b610a8d33611725565b610a95611a58565b610a9b57005b60207fc7f505b2f371ae2175ee4913f4499e1f2633a7b5936321eed1cdaeb6115181d29168ff000000000000000019600080516020611b688339815191525416600080516020611b68833981519152555160018152a1005b015190508480610a49565b601f19821690600080516020611b88833981519152600052806000209160005b818110610b6757509583600195969710610b4e575b505050811b01600080516020611b8883398151915255610a6c565b015160001960f88460031b161c19169055848080610b33565b9192602060018192868b015181550194019201610b1e565b600080516020611b888339815191526000527ff4bad0a69248f59680a4f2b3000328cec71a413447c96781cfe5996daa8c456e601f830160051c81019160208410610be7575b601f0160051c01905b818110610bdb5750610a2f565b60008155600101610bce565b9091508190610bc5565b0151905085806109da565b601f19821695600080516020611ae8833981519152600052600080516020611ba88339815191529160005b888110610c7057508360019596979810610c57575b505050811b01600080516020611ae8833981519152556109fd565b015160001960f88460031b161c19169055858080610c3c565b91926020600181928685015181550194019201610c27565b600080516020611ae8833981519152600052601f820160051c600080516020611ba8833981519152019060208310610cec575b601f0160051c600080516020611ba883398151915201905b818110610ce057506109bd565b60008155600101610cd3565b600080516020611ba88339815191529150610cbb565b68ffffffffffffffffff19166801000000000000000117600080516020611b688339815191525581610923565b63f92ee8a960e01b60005260046000fd5b905015836108f9565b303b1591506108f1565b8391506108e7565b34610147576020366003190112610147576004356000526001602052602060ff604060002054166040519015158152f35b3461014757600036600319011261014757610da56117cc565b600080516020611b0883398151915280546001600160a01b031981169091556000906001600160a01b03167f8be0079c531659141344cd1fd0a4f28419497f9722a3daafe3b4186f6b6457e08280a3005b3461014757602036600319011261014757610e0f6113b6565b6001600160a01b03811615610e3257610e296020916116b3565b54604051908152f35b6322718ad960e21b600052600060045260246000fd5b34610147576020366003190112610147576020610e6660043561179b565b6040516001600160a01b039091168152f35b34610147576000366003190112610147577f00000000000000000000000000000000000000000000000000000000000000006001600160a01b03163003610ed1576020604051600080516020611b288339815191528152f35b63703e46dd60e11b60005260046000fd5b604036600319011261014757610ef66113b6565b60243567ffffffffffffffff811161014757610f16903690600401611491565b6001600160a01b037f00000000000000000000000000000000000000000000000000000000000000001630811490811561109b575b50610ed157610f586117cc565b6040516352d1902d60e01b81526001600160a01b0383169290602081600481875afa60009181611067575b50610f9d5783634c9c8ce360e01b60005260045260246000fd5b80600080516020611b288339815191528592036110535750813b1561103f57600080516020611b2883398151915280546001600160a01b031916821790557fbc7cd75a20ee27fd9adebab32041f755214dbc6bffa90cc0225b39da2e5c2d3b600080a28151156110255760008083602061014595519101845af461101f611802565b91611a86565b50503461102e57005b63b398979f60e01b60005260046000fd5b634c9c8ce360e01b60005260045260246000fd5b632a87526960e21b60005260045260246000fd5b9091506020813d602011611093575b816110836020938361141c565b8101031261014757519085610f83565b3d9150611076565b600080516020611b28833981519152546001600160a01b03161415905083610f4b565b34610147576101456110cf366113e2565b90604051926110df60208561141c565b600084526106a38383836114e9565b34610147576101456110ff366113e2565b916114e9565b346101475760403660031901126101475761111e6113b6565b60243561112a8161179b565b331515806111e4575b806111c0575b6111ab5781906001600160a01b0384811691167f8c5be1e5ebec7d5bd14f71427d1e84f3dd0314c0f7b2291e5b200ac8c7c3b925600080a46000908152600080516020611b488339815191526020526040902080546001600160a01b0319166001600160a01b03909216919091179055005b63a9fbf51f60e01b6000523360045260246000fd5b506111ca816116ec565b336000908152602091909152604090205460ff1615611139565b506001600160a01b038116331415611133565b34610147576020366003190112610147576020610e666004356112198161179b565b506000908152600080516020611b4883398151915260205260409020546001600160a01b031690565b34610147576000366003190112610147576040516000600080516020611ae883398151915254611271816114af565b808452906001811690811561084f5750600114611298576101f9836101e58185038261141c565b600080516020611ae88339815191526000908152600080516020611ba8833981519152939250905b8082106112d8575090915081016020016101e56107d3565b9192600181602092548385880101520191019092916112c0565b34610147576020366003190112610147576004359063ffffffff60e01b821680920361014757602091632483248360e11b8114908115611334575b5015158152f35b6380ac58cd60e01b811491508115611366575b8115611355575b508361132d565b6301ffc9a760e01b1490508361134e565b635b5e139f60e01b81149150611347565b919082518082526020808301940160005b8281106113a6575050600081602094950152601f8019910116010190565b8181015186820152602001611388565b600435906001600160a01b038216820361014757565b602435906001600160a01b038216820361014757565b6060906003190112610147576004356001600160a01b038116810361014757906024356001600160a01b0381168103610147579060443590565b90601f8019910116810190811067ffffffffffffffff8211176104b957604052565b67ffffffffffffffff81116104b957601f01601f191660200190565b9291926114668261143e565b91611474604051938461141c565b829481845281830111610147578281602093846000960137010152565b9080601f83011215610147578160206114ac9335910161145a565b90565b90600182811c921680156114df575b60208310146114c957565b634e487b7160e01b600052602260045260246000fd5b91607f16916114be565b909291906001600160a01b03841680156106225760009461150984611a1e565b9533151580611607575b509184917fddf252ad1be2c89b69c2b068fc378daa952ba7f163c4a11628f55a4df523b3ef61155497989460018060a01b038616988993846115c8576116b3565b805460010190558481527f80bb2b638cc20bc4d0a60d66940f3ab4a00c1d7b313497ca82fb0b4ab00793026020526040812080546001600160a01b0319168517905580a4506001600160a01b03168083036115ae57505050565b6364283d7b60e01b60005260045260245260445260646000fd5b6000878152600080516020611b488339815191526020526040902080546001600160a01b03191690556115fa886116b3565b80546000190190556116b3565b80611650575b156116185738611513565b84906001600160a01b03881661163a57602491637e27328960e01b8252600452fd5b60449163177e802f60e01b825233600452602452fd5b506001600160a01b03871633148015611696575b8061160d57506000858152600080516020611b4883398151915260205260409020546001600160a01b0316331461160d565b506116a0876116ec565b338252602052604081205460ff16611664565b6001600160a01b031660009081527f80bb2b638cc20bc4d0a60d66940f3ab4a00c1d7b313497ca82fb0b4ab00793036020526040902090565b6001600160a01b031660009081527f80bb2b638cc20bc4d0a60d66940f3ab4a00c1d7b313497ca82fb0b4ab00793056020526040902090565b6001600160a01b0316801561178557600080516020611b0883398151915280546001600160a01b0319811683179091556001600160a01b03167f8be0079c531659141344cd1fd0a4f28419497f9722a3daafe3b4186f6b6457e0600080a3565b631e4fbdf760e01b600052600060045260246000fd5b6117a481611a1e565b906001600160a01b038216156117b8575090565b637e27328960e01b60005260045260246000fd5b600080516020611b08833981519152546001600160a01b031633036117ed57565b63118cdaa760e01b6000523360045260246000fd5b3d1561182d573d906118138261143e565b91611821604051938461141c565b82523d6000602084013e565b606090565b823b611840575b5050505050565b604051630a85bd0160e11b81526001600160a01b03918216600482015291811660248301526044820193909352608060648201529116916020908290819061188c906084830190611377565b03816000865af180916000916118f0575b50906118ce57506118ac611802565b805190816118c95782633250574960e11b60005260045260246000fd5b602001fd5b6001600160e01b03191663757a42ff60e11b0161057457503880808080611839565b6020813d60201161192b575b816119096020938361141c565b810103126105c25751906001600160e01b0319821682036105bf57503861189d565b3d91506118fc565b61193c8161179b565b506000527f0542a41881ee128a365a727b282c86fa859579490b9bb45aab8503648c8e790060205260406000206040519081600082549261197c846114af565b80845293600181169081156119fc57506001146119b5575b506119a19250038261141c565b60006040516119b160208261141c565b5290565b90506000929192526020600020906000915b8183106119e05750509060206119a19282010138611994565b60209193508060019154838588010152019101909183926119c7565b9050602092506119a194915060ff191682840152151560051b82010138611994565b60009081527f80bb2b638cc20bc4d0a60d66940f3ab4a00c1d7b313497ca82fb0b4ab007930260205260409020546001600160a01b031690565b60ff600080516020611b688339815191525460401c1615611a7557565b631afcd79f60e31b60005260046000fd5b90611aac5750805115611a9b57602081519101fd5b63d6bda27560e01b60005260046000fd5b81511580611ade575b611abd575090565b639996b31560e01b60009081526001600160a01b0391909116600452602490fd5b50803b15611ab556fe80bb2b638cc20bc4d0a60d66940f3ab4a00c1d7b313497ca82fb0b4ab00793009016d09d72d40fdae2fd8ceac6b6234c7706214fd39c1cd1e609a0528c199300360894a13ba1a3210667c828492db98dca3e2076cc3735a920a3ca505d382bbc80bb2b638cc20bc4d0a60d66940f3ab4a00c1d7b313497ca82fb0b4ab0079304f0c57e16840df040f15088dc2f81fe391c3923bec73e23a9662efc9c229c6a0080bb2b638cc20bc4d0a60d66940f3ab4a00c1d7b313497ca82fb0b4ab007930137c58c799b6609234b945e882912ee9ad34948a1dfaa20a97485e1a7752bbf81a26469706673582212205728afd9b75d60c70ed73bb27c13b645920599f9a79f82cd6d46525f808bcbb164736f6c634300081c0033",
  "linkReferences": {},
  "deployedLinkReferences": {}
}