{
  "_format": "hh-sol-artifact-1",
  "contractName": "SoulboundCarbonCredit",
  "sourceName": "contracts/CarbonToken.sol",
  "abi": [
    {
      "inputs": [
        {
          "internalType": "address",
          "name": "target",
          "type": "address"
        }
      ],
      "name": "AddressEmptyCode",
      "type": "error"
    },
    {
      "inputs": [
        {
          "internalType": "address",
          "name": "implementation",
          "type": "address"
        }
      ],
      "name": "ERC1967InvalidImplementation",
      "type": "error"
    },
    {
      "inputs": [],
      "name": "ERC1967NonPayable",
      "type": "error"
    },
    {
      "inputs": [
        {
          "internalType": "address",
          "name": "sender",
          "type": "address"
        },
        {
          "internalType": "uint256",
          "name": "tokenId",
          "type": "uint256"
        },
        {
          "internalType": "address",
          "name": "owner",
          "type": "address"
        }
      ],
      "name": "ERC721IncorrectOwner",
      "type": "error"
    },
    {
      "inputs": [
        {
          "internalType": "address",
          "name": "operator",
          "type": "address"
        },
        {
          "internalType": "uint256",
          "name": "tokenId",
          "type": "uint256"
        }
      ],
      "name": "ERC721InsufficientApproval",
      "type": "error"
    },
    {
      "inputs": [
        {
          "internalType": "address",
          "name": "approver",
          "type": "address"
        }
      ],
      "name": "ERC721InvalidApprover",
      "type": "error"
    },
    {
      "inputs": [
        {
          "internalType": "address",
          "name": "operator",
          "type": "address"
        }
      ],
      "name": "ERC721InvalidOperator",
      "type": "error"
    },
    {
      "inputs": [
        {
          "internalType": "address",
          "name": "owner",
          "type": "address"
        }
      ],
      "name": "ERC721InvalidOwner",
      "type": "error"
    },
    {
      "inputs": [
        {
          "internalType": "address",
          "name": "receiver",
          "type": "address"
        }
      ],
      "name": "ERC721InvalidReceiver",
      "type": "error"
    },
    {
      "inputs": [
        {
          "internalType": "address",
          "name": "sender",
          "type": "address"
        }
      ],
      "name": "ERC721InvalidSender",
      "type": "error"
    },
    {
      "inputs": [
        {
          "internalType": "uint256",
          "name": "tokenId",
          "type": "uint256"
        }
      ],
      "name": "ERC721NonexistentToken",
      "type": "error"
    },
    {
      "inputs": [],
      "name": "FailedCall",
      "type": "error"
    },
    {
      "inputs": [],
      "name": "InvalidInitialization",
      "type": "error"
    },
    {
      "inputs": [],
      "name": "NotInitializing",
      "type": "error"
    },
    {
      "inputs": [
        {
          "internalType": "address",
          "name": "owner",
          "type": "address"
        }
      ],
      "name": "OwnableInvalidOwner",
      "type": "error"
    },
    {
      "inputs": [
        {
          "internalType": "address",
          "name": "account",
          "type": "address"
        }
      ],
      "name": "OwnableUnauthorizedAccount",
      "type": "error"
    },
    {
      "inputs": [],
      "name": "UUPSUnauthorizedCallContext",
      "type": "error"
    },
    {
      "inputs": [
        {
          "internalType": "bytes32",
          "name": "slot",
          "type": "bytes32"
        }
      ],
      "name": "UUPSUnsupportedProxiableUUID",
      "type": "error"
    },
    {
      "anonymous": false,
      "inputs": [
        {
          "indexed": true,
          "internalType": "address",
          "name": "owner",
          "type": "address"
        },
        {
          "indexed": true,
          "internalType": "address",
          "name": "approved",
          "type": "address"
        },
        {
          "indexed": true,
          "internalType": "uint256",
          "name": "tokenId",
          "type": "uint256"
        }
      ],
      "name": "Approval",
      "type": "event"
    },
    {
      "anonymous": false,
      "inputs": [
        {
          "indexed": true,
          "internalType": "address",
          "name": "owner",
          "type": "address"
        },
        {
          "indexed": true,
          "internalType": "address",
          "name": "operator",
          "type": "address"
        },
        {
          "indexed": false,
          "internalType": "bool",
          "name": "approved",
          "type": "bool"
        }
      ],
      "name": "ApprovalForAll",
      "type": "event"
    },
    {
      "anonymous": false,
      "inputs": [
        {
          "indexed": false,
          "internalType": "uint256",
          "name": "_fromTokenId",
          "type": "uint256"
        },
        {
          "indexed": false,
          "internalType": "uint256",
          "name": "_toTokenId",
          "type": "uint256"
        }
      ],
      "name": "BatchMetadataUpdate",
      "type": "event"
    },
    {
      "anonymous": false,
      "inputs": [
        {
          "indexed": false,
          "internalType": "uint64",
          "name": "version",
          "type": "uint64"
        }
      ],
      "name": "Initialized",
      "type": "event"
    },
    {
      "anonymous": false,
      "inputs": [
        {
          "indexed": false,
          "internalType": "uint256",
          "name": "_tokenId",
          "type": "uint256"
        }
      ],
      "name": "MetadataUpdate",
      "type": "event"
    },
    {
      "anonymous": false,
      "inputs": [
        {
          "indexed": true,
          "internalType": "address",
          "name": "previousOwner",
          "type": "address"
        },
        {
          "indexed": true,
          "internalType": "address",
          "name": "newOwner",
          "type": "address"
        }
      ],
      "name": "OwnershipTransferred",
      "type": "event"
    },
    {
      "anonymous": false,
      "inputs": [
        {
          "indexed": true,
          "internalType": "address",
          "name": "from",
          "type": "address"
        },
        {
          "indexed": true,
          "internalType": "address",
          "name": "to",
          "type": "address"
        },
        {
          "indexed": true,
          "internalType": "uint256",
          "name": "tokenId",
          "type": "uint256"
        }
      ],
      "name": "Transfer",
      "type": "event"
    },
    {
      "anonymous": false,
      "inputs": [
        {
          "indexed": true,
          "internalType": "address",
          "name": "implementation",
          "type": "address"
        }
      ],
      "name": "Upgraded",
      "type": "event"
    },
    {
      "inputs": [],
      "name": "UPGRADE_INTERFACE_VERSION",
      "outputs": [
        {
          "internalType": "string",
          "name": "",
          "type": "string"
        }
      ],
      "stateMutability": "view",
      "type": "function"
    },
    {
      "inputs": [
        {
          "internalType": "address",
          "name": "to",
          "type": "address"
        },
        {
          "internalType": "uint256",
          "name": "tokenId",
          "type": "uint256"
        }
      ],
      "name": "approve",
      "outputs": [],
      "stateMutability": "nonpayable",
      "type": "function"
    },
    {
      "inputs": [
        {
          "internalType": "address",
          "name": "owner",
          "type": "address"
        }
      ],
      "name": "balanceOf",
      "outputs": [
        {
          "internalType": "uint256",
          "name": "",
          "type": "uint256"
        }
      ],
      "stateMutability": "view",
      "type": "function"
    },
    {
      "inputs": [
        {
          "internalType": "uint256",
          "name": "",
          "type": "uint256"
        }
      ],
      "name": "carbonAmount",
      "outputs": [
        {
          "internalType": "uint256",
          "name": "",
          "type": "uint256"
        }
      ],
      "stateMutability": "view",
      "type": "function"
    },
    {
      "inputs": [
        {
          "internalType": "uint256",
          "name": "tokenId",
          "type": "uint256"
        }
      ],
      "name": "getApproved",
      "outputs": [
        {
          "internalType": "address",
          "name": "",
          "type": "address"
        }
      ],
      "stateMutability": "view",
      "type": "function"
    },
    {
      "inputs": [],
      "name": "initialize",
      "outputs": [],
      "stateMutability": "nonpayable",
      "type": "function"
    },
    {
      "inputs": [
        {
          "internalType": "address",
          "name": "owner",
          "type": "address"
        },
        {
          "internalType": "address",
          "name": "operator",
          "type": "address"
        }
      ],
      "name": "isApprovedForAll",
      "outputs": [
        {
          "internalType": "bool",
          "name": "",
          "type": "bool"
        }
      ],
      "stateMutability": "view",
      "type": "function"
    },
    {
      "inputs": [],
      "name": "name",
      "outputs": [
        {
          "internalType": "string",
          "name": "",
          "type": "string"
        }
      ],
      "stateMutability": "view",
      "type": "function"
    },
    {
      "inputs": [],
      "name": "owner",
      "outputs": [
        {
          "internalType": "address",
          "name": "",
          "type": "address"
        }
      ],
      "stateMutability": "view",
      "type": "function"
    },
    {
      "inputs": [
        {
          "internalType": "uint256",
          "name": "tokenId",
          "type": "uint256"
        }
      ],
      "name": "ownerOf",
      "outputs": [
        {
          "internalType": "address",
          "name": "",
          "type": "address"
        }
      ],
      "stateMutability": "view",
      "type": "function"
    },
    {
      "inputs": [],
      "name": "proxiableUUID",
      "outputs": [
        {
          "internalType": "bytes32",
          "name": "",
          "type": "bytes32"
        }
      ],
      "stateMutability": "view",
      "type": "function"
    },
    {
      "inputs": [],
      "name": "renounceOwnership",
      "outputs": [],
      "stateMutability": "nonpayable",
      "type": "function"
    },
    {
      "inputs": [
        {
          "internalType": "address",
          "name": "to",
          "type": "address"
        },
        {
          "internalType": "string",
          "name": "uri",
          "type": "string"
        },
        {
          "internalType": "uint256",
          "name": "_carbonAmount",
          "type": "uint256"
        }
      ],
      "name": "safeMint",
      "outputs": [
        {
          "internalType": "uint256",
          "name": "",
          "type": "uint256"
        }
      ],
      "stateMutability": "nonpayable",
      "type": "function"
    },
    {
      "inputs": [
        {
          "internalType": "address",
          "name": "from",
          "type": "address"
        },
        {
          "internalType": "address",
          "name": "to",
          "type": "address"
        },
        {
          "internalType": "uint256",
          "name": "tokenId",
          "type": "uint256"
        }
      ],
      "name": "safeTransferFrom",
      "outputs": [],
      "stateMutability": "nonpayable",
      "type": "function"
    },
    {
      "inputs": [
        {
          "internalType": "address",
          "name": "from",
          "type": "address"
        },
        {
          "internalType": "address",
          "name": "to",
          "type": "address"
        },
        {
          "internalType": "uint256",
          "name": "tokenId",
          "type": "uint256"
        },
        {
          "internalType": "bytes",
          "name": "data",
          "type": "bytes"
        }
      ],
      "name": "safeTransferFrom",
      "outputs": [],
      "stateMutability": "nonpayable",
      "type": "function"
    },
    {
      "inputs": [
        {
          "internalType": "address",
          "name": "operator",
          "type": "address"
        },
        {
          "internalType": "bool",
          "name": "approved",
          "type": "bool"
        }
      ],
      "name": "setApprovalForAll",
      "outputs": [],
      "stateMutability": "nonpayable",
      "type": "function"
    },
    {
      "inputs": [
        {
          "internalType": "uint256",
          "name": "",
          "type": "uint256"
        }
      ],
      "name": "soulbound",
      "outputs": [
        {
          "internalType": "bool",
          "name": "",
          "type": "bool"
        }
      ],
      "stateMutability": "view",
      "type": "function"
    },
    {
      "inputs": [
        {
          "internalType": "bytes4",
          "name": "interfaceId",
          "type": "bytes4"
        }
      ],
      "name": "supportsInterface",
      "outputs": [
        {
          "internalType": "bool",
          "name": "",
          "type": "bool"
        }
      ],
      "stateMutability": "view",
      "type": "function"
    },
    {
      "inputs": [],
      "name": "symbol",
      "outputs": [
        {
          "internalType": "string",
          "name": "",
          "type": "string"
        }
      ],
      "stateMutability": "view",
      "type": "function"
    },
    {
      "inputs": [
        {
          "internalType": "uint256",
          "name": "tokenId",
          "type": "uint256"
        }
      ],
      "name": "tokenURI",
      "outputs": [
        {
          "internalType": "string",
          "name": "",
          "type": "string"
        }
      ],
      "stateMutability": "view",
      "type": "function"
    },
    {
      "inputs": [
        {
          "internalType": "address",
          "name": "from",
          "type": "address"
        },
        {
          "internalType": "address",
          "name": "to",
          "type": "address"
        },
        {
          "internalType": "uint256",
          "name": "tokenId",
          "type": "uint256"
        }
      ],
      "name": "transferFrom",
      "outputs": [],
      "stateMutability": "nonpayable",
      "type": "function"
    },
    {
      "inputs": [
        {
          "internalType": "address",
          "name": "newOwner",
          "type": "address"
        }
      ],
      "name": "transferOwnership",
      "outputs": [],
      "stateMutability": "nonpayable",
      "type": "function"
    },
    {
      "inputs": [
        {
          "internalType": "address",
          "name": "newImplementation",
          "type": "address"
        },
        {
          "internalType": "bytes",
          "name": "data",
          "type": "bytes"
        }
      ],
      "name": "upgradeToAndCall",
      "outputs": [],
      "stateMutability": "payable",
      "type": "function"
    }
  ],
  "bytecode": "0x60a0806040523460295730608052612235908161002f823960805181818161121c01526112d40152f35b600080fdfe608080604052600436101561001357600080fd5b60003560e01c90816301ffc9a7146117ed5750806306fdde0314611707578063081812fc146116ab578063095ea7b31461155857806323b872dd1461154157806342842e0e146115115780634f1ef2861461129657806352d1902d146112015780636352211e146111d257806370a0823114611134578063715018a61461109b5780637a1815971461106a5780638129fc1c14610a2f5780638da5cb5b146109e957806395d89b41146108de578063a22cb46514610804578063ad3cb1cc146107a5578063b88d4fde1461074a578063c772745a14610231578063c87b56dd146101fa578063dd0c0f43146101ce578063e985e9c51461014c5763f2fde38b1461011c57600080fd5b3461014757602036600319011261014757610145610138611916565b610140611e99565b611d75565b005b600080fd5b3461014757604036600319011261014757610165611916565b6001600160a01b036101b161017861192c565b926001600160a01b03166000527f80bb2b638cc20bc4d0a60d66940f3ab4a00c1d7b313497ca82fb0b4ab0079305602052604060002090565b9116600052602052602060ff604060002054166040519015158152f35b346101475760203660031901126101475760043560005260026020526020604060002054604051908152f35b346101475760203660031901126101475761022d61021960043561202b565b6040519182916020835260208301906118d7565b0390f35b346101475760603660031901126101475761024a611916565b60243567ffffffffffffffff811161014757366023820112156101475761027b9036906024816004013591016119ba565b610283611e99565b60005460001981146107345760010190816000556020916040516102a7848261197c565b600081526001600160a01b03851694851561071e576102f9836000527f80bb2b638cc20bc4d0a60d66940f3ab4a00c1d7b313497ca82fb0b4ab00793026020526001600160a01b036040600020541690565b6001600160a01b0381169084888315159384610695575b61034c866001600160a01b03166000527f80bb2b638cc20bc4d0a60d66940f3ab4a00c1d7b313497ca82fb0b4ab0079303602052604060002090565b60018154019055826000527f80bb2b638cc20bc4d0a60d66940f3ab4a00c1d7b313497ca82fb0b4ab00793028a526040600020826001600160a01b03198254161790557fddf252ad1be2c89b69c2b068fc378daa952ba7f163c4a11628f55a4df523b3ef600080a450610666573b610569575b5080919293506000527f0542a41881ee128a365a727b282c86fa859579490b9bb45aab8503648c8e790083526040600020825167ffffffffffffffff81116105535761040b8254611a0f565b601f811161050d575b508493601f82116001146104a957938192939460009261049e575b50508160011b916000199060031b1c19161790555b7ff8e1a15aba9398e019f0b49df1a4fde98ee17ae345cb5f6b5e2c27f5033e8ce782604051838152a180600052600182526040600020600160ff198254161790558060005260028252604435604060002055604051908152f35b01519050858061042f565b601f1982169483600052866000209160005b888882106104f7575050836001959697106104de575b505050811b019055610444565b015160001960f88460031b161c191690558580806104d1565b60018495829395850151815501940192016104bb565b8260005285600020601f830160051c810191878410610549575b601f0160051c01905b81811061053d5750610414565b60008155600101610530565b9091508190610527565b634e487b7160e01b600052604160045260246000fd5b836105a39160405180938192630a85bd0160e11b8352336004840152600060248401528660448401526080606484015260848301906118d7565b03816000895af18091600091610621575b50906105e6575050506105c5611efa565b80519190826105e35783633250574960e11b60005260045260246000fd5b01fd5b6001600160e01b0319630a85bd0160e11b919592939495160361060d5750908291846103bf565b633250574960e11b60005260045260246000fd5b8581813d831161065f575b610636818361197c565b8101031261065b5751906001600160e01b0319821682036106585750866105b4565b80fd5b5080fd5b503d61062c565b7f73c6ac6e00000000000000000000000000000000000000000000000000000000600052600060045260246000fd5b6106d5836000527f80bb2b638cc20bc4d0a60d66940f3ab4a00c1d7b313497ca82fb0b4ab007930460205260406000206001600160a01b03198154169055565b610711846001600160a01b03166000527f80bb2b638cc20bc4d0a60d66940f3ab4a00c1d7b313497ca82fb0b4ab0079303602052604060002090565b8054600019019055610310565b633250574960e11b600052600060045260246000fd5b634e487b7160e01b600052601160045260246000fd5b3461014757608036600319011261014757610763611916565b61076b61192c565b906044356064359267ffffffffffffffff8411610147576107936101459436906004016119f1565b9261079f838383611a49565b33611f2a565b346101475760003660031901126101475761022d60408051906107c8818361197c565b600582527f352e302e300000000000000000000000000000000000000000000000000000006020830152519182916020835260208301906118d7565b346101475760403660031901126101475761081d611916565b60243590811515809203610147576001600160a01b03169081156108b0573360009081527f80bb2b638cc20bc4d0a60d66940f3ab4a00c1d7b313497ca82fb0b4ab00793056020526040902082600052602052604060002060ff1981541660ff83161790556040519081527f17307eab39ab6107e8899845ad3d59bd9653f200f220920489ca2b5937696c3160203392a3005b507f5b08ba180000000000000000000000000000000000000000000000000000000060005260045260246000fd5b346101475760003660031901126101475760405160007f80bb2b638cc20bc4d0a60d66940f3ab4a00c1d7b313497ca82fb0b4ab00793015461091f81611a0f565b80845290600181169081156109c55750600114610947575b61022d836102198185038261197c565b7f80bb2b638cc20bc4d0a60d66940f3ab4a00c1d7b313497ca82fb0b4ab007930160009081527ff4bad0a69248f59680a4f2b3000328cec71a413447c96781cfe5996daa8c456e939250905b8082106109ab57509091508101602001610219610937565b919260018160209254838588010152019101909291610993565b60ff191660208086019190915291151560051b840190910191506102199050610937565b346101475760003660031901126101475760206001600160a01b037f9016d09d72d40fdae2fd8ceac6b6234c7706214fd39c1cd1e609a0528c1993005416604051908152f35b34610147576000366003190112610147577ff0c57e16840df040f15088dc2f81fe391c3923bec73e23a9662efc9c229c6a005460ff8160401c16159067ffffffffffffffff811680159081611062575b6001149081611058575b15908161104f575b506110255767ffffffffffffffff1981166001177ff0c57e16840df040f15088dc2f81fe391c3923bec73e23a9662efc9c229c6a005581610fe6575b50604090815191610ade818461197c565b601783527f536f756c626f756e6420436172626f6e204372656469740000000000000000006020840152805191610b15828461197c565b600383527f53434300000000000000000000000000000000000000000000000000000000006020840152610b47612116565b610b4f612116565b835167ffffffffffffffff811161055357610b8a7f80bb2b638cc20bc4d0a60d66940f3ab4a00c1d7b313497ca82fb0b4ab007930054611a0f565b601f8111610f24575b50602094601f8211600114610e6257948192939495600092610e57575b50508160011b916000199060031b1c1916177f80bb2b638cc20bc4d0a60d66940f3ab4a00c1d7b313497ca82fb0b4ab0079300555b825167ffffffffffffffff811161055357610c207f80bb2b638cc20bc4d0a60d66940f3ab4a00c1d7b313497ca82fb0b4ab007930154611a0f565b601f8111610dd3575b506020601f8211600114610d2e5781929394600092610d23575b50508160011b916000199060031b1c1916177f80bb2b638cc20bc4d0a60d66940f3ab4a00c1d7b313497ca82fb0b4ab0079301555b610c80612116565b610c88612116565b610c90612116565b610c9933611d75565b610ca1612116565b610ca757005b60207fc7f505b2f371ae2175ee4913f4499e1f2633a7b5936321eed1cdaeb6115181d29168ff0000000000000000197ff0c57e16840df040f15088dc2f81fe391c3923bec73e23a9662efc9c229c6a0054167ff0c57e16840df040f15088dc2f81fe391c3923bec73e23a9662efc9c229c6a00555160018152a1005b015190508480610c43565b601f198216907f80bb2b638cc20bc4d0a60d66940f3ab4a00c1d7b313497ca82fb0b4ab0079301600052806000209160005b818110610dbb57509583600195969710610da2575b505050811b017f80bb2b638cc20bc4d0a60d66940f3ab4a00c1d7b313497ca82fb0b4ab007930155610c78565b015160001960f88460031b161c19169055848080610d75565b9192602060018192868b015181550194019201610d60565b7f80bb2b638cc20bc4d0a60d66940f3ab4a00c1d7b313497ca82fb0b4ab00793016000527ff4bad0a69248f59680a4f2b3000328cec71a413447c96781cfe5996daa8c456e601f830160051c81019160208410610e4d575b601f0160051c01905b818110610e415750610c29565b60008155600101610e34565b9091508190610e2b565b015190508580610bb0565b601f198216957f80bb2b638cc20bc4d0a60d66940f3ab4a00c1d7b313497ca82fb0b4ab00793006000527f37c58c799b6609234b945e882912ee9ad34948a1dfaa20a97485e1a7752bbf819160005b888110610f0c57508360019596979810610ef3575b505050811b017f80bb2b638cc20bc4d0a60d66940f3ab4a00c1d7b313497ca82fb0b4ab007930055610be5565b015160001960f88460031b161c19169055858080610ec6565b91926020600181928685015181550194019201610eb1565b7f80bb2b638cc20bc4d0a60d66940f3ab4a00c1d7b313497ca82fb0b4ab0079300600052601f820160051c7f37c58c799b6609234b945e882912ee9ad34948a1dfaa20a97485e1a7752bbf81019060208310610fbe575b601f0160051c7f37c58c799b6609234b945e882912ee9ad34948a1dfaa20a97485e1a7752bbf8101905b818110610fb25750610b93565b60008155600101610fa5565b7f37c58c799b6609234b945e882912ee9ad34948a1dfaa20a97485e1a7752bbf819150610f7b565b68ffffffffffffffffff191668010000000000000001177ff0c57e16840df040f15088dc2f81fe391c3923bec73e23a9662efc9c229c6a005581610acd565b7ff92ee8a90000000000000000000000000000000000000000000000000000000060005260046000fd5b90501583610a91565b303b159150610a89565b839150610a7f565b34610147576020366003190112610147576004356000526001602052602060ff604060002054166040519015158152f35b34610147576000366003190112610147576110b4611e99565b60006001600160a01b037f9016d09d72d40fdae2fd8ceac6b6234c7706214fd39c1cd1e609a0528c199300546001600160a01b031981167f9016d09d72d40fdae2fd8ceac6b6234c7706214fd39c1cd1e609a0528c19930055167f8be0079c531659141344cd1fd0a4f28419497f9722a3daafe3b4186f6b6457e08280a3005b346101475760203660031901126101475761114d611916565b6001600160a01b038116156111a35761119a6020916001600160a01b03166000527f80bb2b638cc20bc4d0a60d66940f3ab4a00c1d7b313497ca82fb0b4ab0079303602052604060002090565b54604051908152f35b7f89c62b6400000000000000000000000000000000000000000000000000000000600052600060045260246000fd5b346101475760203660031901126101475760206111f0600435611e34565b6001600160a01b0360405191168152f35b34610147576000366003190112610147576001600160a01b037f000000000000000000000000000000000000000000000000000000000000000016300361126c5760206040517f360894a13ba1a3210667c828492db98dca3e2076cc3735a920a3ca505d382bbc8152f35b7fe07c8dba0000000000000000000000000000000000000000000000000000000060005260046000fd5b6040366003190112610147576112aa611916565b60243567ffffffffffffffff8111610147576112ca9036906004016119f1565b6001600160a01b037f0000000000000000000000000000000000000000000000000000000000000000168030149081156114dc575b5061126c5761130c611e99565b6001600160a01b038216916040517f52d1902d000000000000000000000000000000000000000000000000000000008152602081600481875afa600091816114a8575b506113695783634c9c8ce360e01b60005260045260246000fd5b807f360894a13ba1a3210667c828492db98dca3e2076cc3735a920a3ca505d382bbc85920361147b5750813b1561146757806001600160a01b03197f360894a13ba1a3210667c828492db98dca3e2076cc3735a920a3ca505d382bbc5416177f360894a13ba1a3210667c828492db98dca3e2076cc3735a920a3ca505d382bbc557fbc7cd75a20ee27fd9adebab32041f755214dbc6bffa90cc0225b39da2e5c2d3b600080a28151156114345760008083602061014595519101845af461142e611efa565b9161216f565b50503461143d57005b7fb398979f0000000000000000000000000000000000000000000000000000000060005260046000fd5b634c9c8ce360e01b60005260045260246000fd5b7faa1d49a40000000000000000000000000000000000000000000000000000000060005260045260246000fd5b9091506020813d6020116114d4575b816114c46020938361197c565b810103126101475751908561134f565b3d91506114b7565b90506001600160a01b037f360894a13ba1a3210667c828492db98dca3e2076cc3735a920a3ca505d382bbc54161415836112ff565b346101475761014561152236611942565b906040519261153260208561197c565b6000845261079f838383611a49565b346101475761014561155236611942565b91611a49565b3461014757604036600319011261014757611571611916565b60243561157d81611e34565b33151580611698575b8061163c575b61160e5781906001600160a01b0380851691167f8c5be1e5ebec7d5bd14f71427d1e84f3dd0314c0f7b2291e5b200ac8c7c3b925600080a46000527f80bb2b638cc20bc4d0a60d66940f3ab4a00c1d7b313497ca82fb0b4ab00793046020526001600160a01b03604060002091166001600160a01b0319825416179055600080f35b7fa9fbf51f000000000000000000000000000000000000000000000000000000006000523360045260246000fd5b50611679816001600160a01b03166000527f80bb2b638cc20bc4d0a60d66940f3ab4a00c1d7b313497ca82fb0b4ab0079305602052604060002090565b6001600160a01b03331660005260205260ff604060002054161561158c565b50336001600160a01b0382161415611586565b346101475760203660031901126101475760206111f06004356116cd81611e34565b506000527f80bb2b638cc20bc4d0a60d66940f3ab4a00c1d7b313497ca82fb0b4ab00793046020526001600160a01b036040600020541690565b346101475760003660031901126101475760405160007f80bb2b638cc20bc4d0a60d66940f3ab4a00c1d7b313497ca82fb0b4ab00793005461174881611a0f565b80845290600181169081156109c5575060011461176f5761022d836102198185038261197c565b7f80bb2b638cc20bc4d0a60d66940f3ab4a00c1d7b313497ca82fb0b4ab007930060009081527f37c58c799b6609234b945e882912ee9ad34948a1dfaa20a97485e1a7752bbf81939250905b8082106117d357509091508101602001610219610937565b9192600181602092548385880101520191019092916117bb565b3461014757602036600319011261014757600435906001600160e01b0319821680920361014757817f490649060000000000000000000000000000000000000000000000000000000060209314908115611849575b5015158152f35b7f80ac58cd000000000000000000000000000000000000000000000000000000008114915081156118ad575b8115611883575b5083611842565b7f01ffc9a7000000000000000000000000000000000000000000000000000000009150148361187c565b7f5b5e139f0000000000000000000000000000000000000000000000000000000081149150611875565b919082518082526020808301940160005b828110611906575050600081602094950152601f8019910116010190565b81810151868201526020016118e8565b600435906001600160a01b038216820361014757565b602435906001600160a01b038216820361014757565b6060906003190112610147576004356001600160a01b038116810361014757906024356001600160a01b0381168103610147579060443590565b90601f8019910116810190811067ffffffffffffffff82111761055357604052565b67ffffffffffffffff811161055357601f01601f191660200190565b9291926119c68261199e565b916119d4604051938461197c565b829481845281830111610147578281602093846000960137010152565b9080601f8301121561014757816020611a0c933591016119ba565b90565b90600182811c92168015611a3f575b6020831014611a2957565b634e487b7160e01b600052602260045260246000fd5b91607f1691611a1e565b906001600160a01b038116801561071e57600091611a9a856000527f80bb2b638cc20bc4d0a60d66940f3ab4a00c1d7b313497ca82fb0b4ab00793026020526001600160a01b036040600020541690565b9233151580611c5c575b509480949284927fddf252ad1be2c89b69c2b068fc378daa952ba7f163c4a11628f55a4df523b3ef611b1b986001600160a01b03809816998a9384611ba0576001600160a01b03166000527f80bb2b638cc20bc4d0a60d66940f3ab4a00c1d7b313497ca82fb0b4ab0079303602052604060002090565b600181540190558481527f80bb2b638cc20bc4d0a60d66940f3ab4a00c1d7b313497ca82fb0b4ab007930260205260408120846001600160a01b031982541617905580a45016808303611b6d57505050565b7f64283d7b0000000000000000000000000000000000000000000000000000000060005260045260245260445260646000fd5b611be0876000527f80bb2b638cc20bc4d0a60d66940f3ab4a00c1d7b313497ca82fb0b4ab007930460205260406000206001600160a01b03198154169055565b611c1c886001600160a01b03166000527f80bb2b638cc20bc4d0a60d66940f3ab4a00c1d7b313497ca82fb0b4ab0079303602052604060002090565b80546000190190556001600160a01b03166000527f80bb2b638cc20bc4d0a60d66940f3ab4a00c1d7b313497ca82fb0b4ab0079303602052604060002090565b80611cbe575b15611c6d5738611aa4565b85906001600160a01b038516611c8f57602491637e27328960e01b8252600452fd5b6044917f177e802f00000000000000000000000000000000000000000000000000000000825233600452602452fd5b50336001600160a01b038516148015611d25575b80611c625750336001600160a01b03611d1e886000527f80bb2b638cc20bc4d0a60d66940f3ab4a00c1d7b313497ca82fb0b4ab00793046020526001600160a01b036040600020541690565b1614611c62565b50611d62846001600160a01b03166000527f80bb2b638cc20bc4d0a60d66940f3ab4a00c1d7b313497ca82fb0b4ab0079305602052604060002090565b338252602052604081205460ff16611cd2565b6001600160a01b03168015611e05576001600160a01b037f9016d09d72d40fdae2fd8ceac6b6234c7706214fd39c1cd1e609a0528c19930054826001600160a01b03198216177f9016d09d72d40fdae2fd8ceac6b6234c7706214fd39c1cd1e609a0528c19930055167f8be0079c531659141344cd1fd0a4f28419497f9722a3daafe3b4186f6b6457e0600080a3565b7f1e4fbdf700000000000000000000000000000000000000000000000000000000600052600060045260246000fd5b611e71816000527f80bb2b638cc20bc4d0a60d66940f3ab4a00c1d7b313497ca82fb0b4ab00793026020526001600160a01b036040600020541690565b906001600160a01b03821615611e85575090565b637e27328960e01b60005260045260246000fd5b6001600160a01b037f9016d09d72d40fdae2fd8ceac6b6234c7706214fd39c1cd1e609a0528c19930054163303611ecc57565b7f118cdaa7000000000000000000000000000000000000000000000000000000006000523360045260246000fd5b3d15611f25573d90611f0b8261199e565b91611f19604051938461197c565b82523d6000602084013e565b606090565b93909293823b611f3c575b5050505050565b611f836001600160a01b0392836020951696846040519788968796630a85bd0160e11b885216600487015216602485015260448401526080606484015260848301906118d7565b03816000865af18091600091611fe8575b5090611fc55750611fa3611efa565b80519081611fc05782633250574960e11b60005260045260246000fd5b602001fd5b6001600160e01b0319630a85bd0160e11b91160361060d57503880808080611f35565b6020813d602011612023575b816120016020938361197c565b8101031261065b5751906001600160e01b031982168203610658575038611f94565b3d9150611ff4565b61203481611e34565b506000527f0542a41881ee128a365a727b282c86fa859579490b9bb45aab8503648c8e790060205260406000206040519081600082549261207484611a0f565b80845293600181169081156120f457506001146120ad575b506120999250038261197c565b60006040516120a960208261197c565b5290565b90506000929192526020600020906000915b8183106120d8575050906020612099928201013861208c565b60209193508060019154838588010152019101909183926120bf565b90506020925061209994915060ff191682840152151560051b8201013861208c565b60ff7ff0c57e16840df040f15088dc2f81fe391c3923bec73e23a9662efc9c229c6a005460401c161561214557565b7fd7e6bcf80000000000000000000000000000000000000000000000000000000060005260046000fd5b906121ae575080511561218457602081519101fd5b7fd6bda2750000000000000000000000000000000000000000000000000000000060005260046000fd5b815115806121f6575b6121bf575090565b6001600160a01b03907f9996b315000000000000000000000000000000000000000000000000000000006000521660045260246000fd5b50803b156121b756fea2646970667358221220044c3eba26b248b949ffc04d1d17080f925c661fc2ea5027f47dd93e6137f41064736f6c634300081c0033",
  "linkReferences": {},
  "deployedLinkReferences": {}
}