{
  "_format": "hh-sol-artifact-1",
  "contractName": "LiquidityPool",
  "sourceName": "contracts/LiquidityPool.sol",
  "abi": [
    {
      "inputs": [
        {
          "internalType": "address",
          "name": "target",
          "type": "address"
        }
      ],
      "name": "AddressEmptyCode",
      "type": "error"
    },
    {
      "inputs": [
        {
          "internalType": "address",
          "name": "implementation",
          "type": "address"
        }
      ],
      "name": "ERC1967InvalidImplementation",
      "type": "error"
    },
    {
      "inputs": [],
      "name": "ERC1967NonPayable",
      "type": "error"
    },
    {
      "inputs": [],
      "name": "FailedCall",
      "type": "error"
    },
    {
      "inputs": [],
      "name": "InvalidInitialization",
      "type": "error"
    },
    {
      "inputs": [],
      "name": "NotInitializing",
      "type": "error"
    },
    {
      "inputs": [
        {
          "internalType": "address",
          "name": "owner",
          "type": "address"
        }
      ],
      "name": "OwnableInvalidOwner",
      "type": "error"
    },
    {
      "inputs": [
        {
          "internalType": "address",
          "name": "account",
          "type": "address"
        }
      ],
      "name": "OwnableUnauthorizedAccount",
      "type": "error"
    },
    {
      "inputs": [],
      "name": "ReentrancyGuardReentrantCall",
      "type": "error"
    },
    {
      "inputs": [],
      "name": "UUPSUnauthorizedCallContext",
      "type": "error"
    },
    {
      "inputs": [
        {
          "internalType": "bytes32",
          "name": "slot",
          "type": "bytes32"
        }
      ],
      "name": "UUPSUnsupportedProxiableUUID",
      "type": "error"
    },
    {
      "anonymous": false,
      "inputs": [
        {
          "indexed": true,
          "internalType": "address",
          "name": "user",
          "type": "address"
        },
        {
          "indexed": true,
          "internalType": "bytes32",
          "name": "poolHash",
          "type": "bytes32"
        },
        {
          "indexed": false,
          "internalType": "uint256",
          "name": "amountA",
          "type": "uint256"
        },
        {
          "indexed": false,
          "internalType": "uint256",
          "name": "amountB",
          "type": "uint256"
        },
        {
          "indexed": false,
          "internalType": "uint256",
          "name": "liquidity",
          "type": "uint256"
        }
      ],
      "name": "AMMLiquidityAdded",
      "type": "event"
    },
    {
      "anonymous": false,
      "inputs": [
        {
          "indexed": true,
          "internalType": "address",
          "name": "user",
          "type": "address"
        },
        {
          "indexed": true,
          "internalType": "bytes32",
          "name": "poolHash",
          "type": "bytes32"
        },
        {
          "indexed": false,
          "internalType": "uint256",
          "name": "amountA",
          "type": "uint256"
        },
        {
          "indexed": false,
          "internalType": "uint256",
          "name": "amountB",
          "type": "uint256"
        },
        {
          "indexed": false,
          "internalType": "uint256",
          "name": "liquidity",
          "type": "uint256"
        }
      ],
      "name": "AMMLiquidityRemoved",
      "type": "event"
    },
    {
      "anonymous": false,
      "inputs": [
        {
          "indexed": true,
          "internalType": "address",
          "name": "tokenA",
          "type": "address"
        },
        {
          "indexed": true,
          "internalType": "address",
          "name": "tokenB",
          "type": "address"
        },
        {
          "indexed": false,
          "internalType": "uint256",
          "name": "fee",
          "type": "uint256"
        }
      ],
      "name": "AMMPoolCreated",
      "type": "event"
    },
    {
      "anonymous": false,
      "inputs": [
        {
          "indexed": true,
          "internalType": "address",
          "name": "user",
          "type": "address"
        },
        {
          "indexed": true,
          "internalType": "bytes32",
          "name": "poolHash",
          "type": "bytes32"
        },
        {
          "indexed": false,
          "internalType": "address",
          "name": "tokenIn",
          "type": "address"
        },
        {
          "indexed": false,
          "internalType": "address",
          "name": "tokenOut",
          "type": "address"
        },
        {
          "indexed": false,
          "internalType": "uint256",
          "name": "amountIn",
          "type": "uint256"
        },
        {
          "indexed": false,
          "internalType": "uint256",
          "name": "amountOut",
          "type": "uint256"
        }
      ],
      "name": "AMMSwap",
      "type": "event"
    },
    {
      "anonymous": false,
      "inputs": [
        {
          "indexed": true,
          "internalType": "address",
          "name": "bridge",
          "type": "address"
        }
      ],
      "name": "CrossChainBridgeSet",
      "type": "event"
    },
    {
      "anonymous": false,
      "inputs": [
        {
          "indexed": true,
          "internalType": "uint256",
          "name": "chainId",
          "type": "uint256"
        },
        {
          "indexed": true,
          "internalType": "address",
          "name": "token",
          "type": "address"
        },
        {
          "indexed": false,
          "internalType": "uint256",
          "name": "amount",
          "type": "uint256"
        }
      ],
      "name": "CrossChainLiquidityBridged",
      "type": "event"
    },
    {
      "anonymous": false,
      "inputs": [
        {
          "indexed": true,
          "internalType": "uint256",
          "name": "messageId",
          "type": "uint256"
        },
        {
          "indexed": true,
          "internalType": "uint256",
          "name": "sourceChainId",
          "type": "uint256"
        },
        {
          "indexed": true,
          "internalType": "address",
          "name": "sender",
          "type": "address"
        }
      ],
      "name": "CrossChainMessageReceived",
      "type": "event"
    },
    {
      "anonymous": false,
      "inputs": [
        {
          "indexed": true,
          "internalType": "uint256",
          "name": "messageId",
          "type": "uint256"
        },
        {
          "indexed": true,
          "internalType": "uint256",
          "name": "targetChainId",
          "type": "uint256"
        },
        {
          "indexed": true,
          "internalType": "address",
          "name": "targetContract",
          "type": "address"
        }
      ],
      "name": "CrossChainMessageSent",
      "type": "event"
    },
    {
      "anonymous": false,
      "inputs": [
        {
          "indexed": true,
          "internalType": "bytes32",
          "name": "poolHash",
          "type": "bytes32"
        },
        {
          "indexed": false,
          "internalType": "uint256",
          "name": "newFee",
          "type": "uint256"
        }
      ],
      "name": "DynamicFeeUpdated",
      "type": "event"
    },
    {
      "anonymous": false,
      "inputs": [
        {
          "indexed": true,
          "internalType": "address",
          "name": "token",
          "type": "address"
        },
        {
          "indexed": false,
          "internalType": "uint256",
          "name": "newRate",
          "type": "uint256"
        }
      ],
      "name": "FarmRewardRateUpdated",
      "type": "event"
    },
    {
      "anonymous": false,
      "inputs": [
        {
          "indexed": true,
          "internalType": "address",
          "name": "user",
          "type": "address"
        },
        {
          "indexed": true,
          "internalType": "address",
          "name": "token",
          "type": "address"
        },
        {
          "indexed": false,
          "internalType": "uint256",
          "name": "amount",
          "type": "uint256"
        }
      ],
      "name": "FarmRewardsClaimed",
      "type": "event"
    },
    {
      "anonymous": false,
      "inputs": [
        {
          "indexed": true,
          "internalType": "address",
          "name": "user",
          "type": "address"
        },
        {
          "indexed": true,
          "internalType": "address",
          "name": "token",
          "type": "address"
        },
        {
          "indexed": false,
          "internalType": "uint256",
          "name": "amount",
          "type": "uint256"
        }
      ],
      "name": "FarmStaked",
      "type": "event"
    },
    {
      "anonymous": false,
      "inputs": [
        {
          "indexed": true,
          "internalType": "address",
          "name": "user",
          "type": "address"
        },
        {
          "indexed": true,
          "internalType": "address",
          "name": "token",
          "type": "address"
        },
        {
          "indexed": false,
          "internalType": "uint256",
          "name": "amount",
          "type": "uint256"
        }
      ],
      "name": "FarmUnstaked",
      "type": "event"
    },
    {
      "anonymous": false,
      "inputs": [
        {
          "indexed": true,
          "internalType": "address",
          "name": "user",
          "type": "address"
        },
        {
          "indexed": true,
          "internalType": "bytes32",
          "name": "poolHash",
          "type": "bytes32"
        },
        {
          "indexed": false,
          "internalType": "uint256",
          "name": "protectionAmount",
          "type": "uint256"
        }
      ],
      "name": "ILProtectionPurchased",
      "type": "event"
    },
    {
      "anonymous": false,
      "inputs": [
        {
          "indexed": false,
          "internalType": "uint64",
          "name": "version",
          "type": "uint64"
        }
      ],
      "name": "Initialized",
      "type": "event"
    },
    {
      "anonymous": false,
      "inputs": [
        {
          "indexed": true,
          "internalType": "address",
          "name": "user",
          "type": "address"
        },
        {
          "indexed": true,
          "internalType": "address",
          "name": "token",
          "type": "address"
        },
        {
          "indexed": false,
          "internalType": "uint256",
          "name": "amount",
          "type": "uint256"
        }
      ],
      "name": "LiquidityAdded",
      "type": "event"
    },
    {
      "anonymous": false,
      "inputs": [
        {
          "indexed": true,
          "internalType": "address",
          "name": "user",
          "type": "address"
        },
        {
          "indexed": true,
          "internalType": "address",
          "name": "token",
          "type": "address"
        },
        {
          "indexed": false,
          "internalType": "uint256",
          "name": "amount",
          "type": "uint256"
        }
      ],
      "name": "LiquidityRemoved",
      "type": "event"
    },
    {
      "anonymous": false,
      "inputs": [
        {
          "indexed": true,
          "internalType": "address",
          "name": "borrower",
          "type": "address"
        },
        {
          "indexed": true,
          "internalType": "address",
          "name": "token",
          "type": "address"
        },
        {
          "indexed": false,
          "internalType": "uint256",
          "name": "amount",
          "type": "uint256"
        }
      ],
      "name": "LoanIssued",
      "type": "event"
    },
    {
      "anonymous": false,
      "inputs": [
        {
          "indexed": true,
          "internalType": "uint256",
          "name": "loanId",
          "type": "uint256"
        },
        {
          "indexed": false,
          "internalType": "uint256",
          "name": "amount",
          "type": "uint256"
        }
      ],
      "name": "LoanRepaid",
      "type": "event"
    },
    {
      "anonymous": false,
      "inputs": [
        {
          "indexed": true,
          "internalType": "address",
          "name": "previousOwner",
          "type": "address"
        },
        {
          "indexed": true,
          "internalType": "address",
          "name": "newOwner",
          "type": "address"
        }
      ],
      "name": "OwnershipTransferred",
      "type": "event"
    },
    {
      "anonymous": false,
      "inputs": [
        {
          "indexed": true,
          "internalType": "address",
          "name": "token",
          "type": "address"
        },
        {
          "indexed": false,
          "internalType": "uint256",
          "name": "interestRate",
          "type": "uint256"
        }
      ],
      "name": "PoolCreated",
      "type": "event"
    },
    {
      "anonymous": false,
      "inputs": [
        {
          "indexed": true,
          "internalType": "address",
          "name": "implementation",
          "type": "address"
        }
      ],
      "name": "Upgraded",
      "type": "event"
    },
    {
      "anonymous": false,
      "inputs": [
        {
          "indexed": true,
          "internalType": "address",
          "name": "stakingToken",
          "type": "address"
        },
        {
          "indexed": true,
          "internalType": "address",
          "name": "rewardToken",
          "type": "address"
        },
        {
          "indexed": false,
          "internalType": "uint256",
          "name": "rewardRate",
          "type": "uint256"
        }
      ],
      "name": "YieldFarmCreated",
      "type": "event"
    },
    {
      "inputs": [],
      "name": "UPGRADE_INTERFACE_VERSION",
      "outputs": [
        {
          "internalType": "string",
          "name": "",
          "type": "string"
        }
      ],
      "stateMutability": "view",
      "type": "function"
    },
    {
      "inputs": [
        {
          "internalType": "bytes32",
          "name": "poolHash",
          "type": "bytes32"
        },
        {
          "internalType": "uint256",
          "name": "amountA",
          "type": "uint256"
        },
        {
          "internalType": "uint256",
          "name": "amountB",
          "type": "uint256"
        },
        {
          "internalType": "uint256",
          "name": "minLiquidity",
          "type": "uint256"
        }
      ],
      "name": "addAMMLiquidity",
      "outputs": [
        {
          "internalType": "uint256",
          "name": "",
          "type": "uint256"
        }
      ],
      "stateMutability": "nonpayable",
      "type": "function"
    },
    {
      "inputs": [
        {
          "internalType": "address",
          "name": "token",
          "type": "address"
        },
        {
          "internalType": "uint256",
          "name": "amount",
          "type": "uint256"
        }
      ],
      "name": "addLiquidity",
      "outputs": [],
      "stateMutability": "nonpayable",
      "type": "function"
    },
    {
      "inputs": [
        {
          "internalType": "bytes32",
          "name": "",
          "type": "bytes32"
        }
      ],
      "name": "ammPools",
      "outputs": [
        {
          "internalType": "address",
          "name": "tokenA",
          "type": "address"
        },
        {
          "internalType": "address",
          "name": "tokenB",
          "type": "address"
        },
        {
          "internalType": "uint256",
          "name": "reserveA",
          "type": "uint256"
        },
        {
          "internalType": "uint256",
          "name": "reserveB",
          "type": "uint256"
        },
        {
          "internalType": "uint256",
          "name": "totalLiquidity",
          "type": "uint256"
        },
        {
          "internalType": "uint256",
          "name": "fee",
          "type": "uint256"
        },
        {
          "internalType": "bool",
          "name": "active",
          "type": "bool"
        }
      ],
      "stateMutability": "view",
      "type": "function"
    },
    {
      "inputs": [
        {
          "internalType": "uint256",
          "name": "chainId",
          "type": "uint256"
        },
        {
          "internalType": "address",
          "name": "token",
          "type": "address"
        },
        {
          "internalType": "uint256",
          "name": "amount",
          "type": "uint256"
        }
      ],
      "name": "bridgeLiquidity",
      "outputs": [],
      "stateMutability": "nonpayable",
      "type": "function"
    },
    {
      "inputs": [],
      "name": "carbonToken",
      "outputs": [
        {
          "internalType": "contract CarbonToken",
          "name": "",
          "type": "address"
        }
      ],
      "stateMutability": "view",
      "type": "function"
    },
    {
      "inputs": [
        {
          "internalType": "address",
          "name": "token",
          "type": "address"
        }
      ],
      "name": "claimFarmRewards",
      "outputs": [],
      "stateMutability": "nonpayable",
      "type": "function"
    },
    {
      "inputs": [
        {
          "internalType": "bytes32",
          "name": "poolHash",
          "type": "bytes32"
        },
        {
          "internalType": "uint256",
          "name": "liquidityAmount",
          "type": "uint256"
        }
      ],
      "name": "claimILProtection",
      "outputs": [],
      "stateMutability": "nonpayable",
      "type": "function"
    },
    {
      "inputs": [
        {
          "internalType": "bytes32",
          "name": "",
          "type": "bytes32"
        }
      ],
      "name": "concentratedPositions",
      "outputs": [
        {
          "internalType": "uint256",
          "name": "lowerTick",
          "type": "uint256"
        },
        {
          "internalType": "uint256",
          "name": "upperTick",
          "type": "uint256"
        },
        {
          "internalType": "uint256",
          "name": "liquidityAmount",
          "type": "uint256"
        },
        {
          "internalType": "int24",
          "name": "currentTick",
          "type": "int24"
        },
        {
          "internalType": "uint256",
          "name": "feeGrowthInside",
          "type": "uint256"
        }
      ],
      "stateMutability": "view",
      "type": "function"
    },
    {
      "inputs": [
        {
          "internalType": "address",
          "name": "tokenA",
          "type": "address"
        },
        {
          "internalType": "address",
          "name": "tokenB",
          "type": "address"
        },
        {
          "internalType": "uint256",
          "name": "fee",
          "type": "uint256"
        }
      ],
      "name": "createAMMPool",
      "outputs": [
        {
          "internalType": "bytes32",
          "name": "",
          "type": "bytes32"
        }
      ],
      "stateMutability": "nonpayable",
      "type": "function"
    },
    {
      "inputs": [
        {
          "internalType": "address",
          "name": "token",
          "type": "address"
        },
        {
          "internalType": "uint256",
          "name": "interestRate",
          "type": "uint256"
        }
      ],
      "name": "createPool",
      "outputs": [],
      "stateMutability": "nonpayable",
      "type": "function"
    },
    {
      "inputs": [
        {
          "internalType": "address",
          "name": "stakingToken",
          "type": "address"
        },
        {
          "internalType": "address",
          "name": "rewardToken",
          "type": "address"
        },
        {
          "internalType": "uint256",
          "name": "rewardRate",
          "type": "uint256"
        }
      ],
      "name": "createYieldFarm",
      "outputs": [],
      "stateMutability": "nonpayable",
      "type": "function"
    },
    {
      "inputs": [],
      "name": "crossChainBridge",
      "outputs": [
        {
          "internalType": "contract ICrossChainBridge",
          "name": "",
          "type": "address"
        }
      ],
      "stateMutability": "view",
      "type": "function"
    },
    {
      "inputs": [
        {
          "internalType": "uint256",
          "name": "",
          "type": "uint256"
        }
      ],
      "name": "crossChainMessages",
      "outputs": [
        {
          "internalType": "uint256",
          "name": "messageId",
          "type": "uint256"
        },
        {
          "internalType": "uint256",
          "name": "sourceChainId",
          "type": "uint256"
        },
        {
          "internalType": "uint256",
          "name": "targetChainId",
          "type": "uint256"
        },
        {
          "internalType": "address",
          "name": "sender",
          "type": "address"
        },
        {
          "internalType": "bytes",
          "name": "data",
          "type": "bytes"
        },
        {
          "internalType": "uint256",
          "name": "timestamp",
          "type": "uint256"
        },
        {
          "internalType": "bool",
          "name": "executed",
          "type": "bool"
        }
      ],
      "stateMutability": "view",
      "type": "function"
    },
    {
      "inputs": [
        {
          "internalType": "uint256",
          "name": "",
          "type": "uint256"
        }
      ],
      "name": "crossChainPools",
      "outputs": [
        {
          "internalType": "uint256",
          "name": "chainId",
          "type": "uint256"
        },
        {
          "internalType": "address",
          "name": "remotePool",
          "type": "address"
        },
        {
          "internalType": "uint256",
          "name": "lockedLiquidity",
          "type": "uint256"
        },
        {
          "internalType": "bool",
          "name": "active",
          "type": "bool"
        }
      ],
      "stateMutability": "view",
      "type": "function"
    },
    {
      "inputs": [
        {
          "internalType": "bytes32",
          "name": "",
          "type": "bytes32"
        }
      ],
      "name": "dynamicFeeConfigs",
      "outputs": [
        {
          "internalType": "uint256",
          "name": "volatilityThreshold",
          "type": "uint256"
        },
        {
          "internalType": "uint256",
          "name": "highVolatilityFee",
          "type": "uint256"
        },
        {
          "internalType": "uint256",
          "name": "lowVolatilityFee",
          "type": "uint256"
        },
        {
          "internalType": "uint256",
          "name": "adjustmentPeriod",
          "type": "uint256"
        },
        {
          "internalType": "uint256",
          "name": "lastAdjustmentTime",
          "type": "uint256"
        },
        {
          "internalType": "uint256",
          "name": "currentFee",
          "type": "uint256"
        }
      ],
      "stateMutability": "view",
      "type": "function"
    },
    {
      "inputs": [
        {
          "internalType": "bytes32",
          "name": "",
          "type": "bytes32"
        }
      ],
      "name": "dynamicFees",
      "outputs": [
        {
          "internalType": "uint256",
          "name": "baseFee",
          "type": "uint256"
        },
        {
          "internalType": "uint256",
          "name": "volatilityMultiplier",
          "type": "uint256"
        },
        {
          "internalType": "uint256",
          "name": "volumeMultiplier",
          "type": "uint256"
        },
        {
          "internalType": "uint256",
          "name": "lastUpdateTime",
          "type": "uint256"
        }
      ],
      "stateMutability": "view",
      "type": "function"
    },
    {
      "inputs": [
        {
          "internalType": "uint256",
          "name": "",
          "type": "uint256"
        }
      ],
      "name": "farmingTokens",
      "outputs": [
        {
          "internalType": "address",
          "name": "",
          "type": "address"
        }
      ],
      "stateMutability": "view",
      "type": "function"
    },
    {
      "inputs": [
        {
          "internalType": "bytes32",
          "name": "poolHash",
          "type": "bytes32"
        }
      ],
      "name": "getAMMPool",
      "outputs": [
        {
          "components": [
            {
              "internalType": "address",
              "name": "tokenA",
              "type": "address"
            },
            {
              "internalType": "address",
              "name": "tokenB",
              "type": "address"
            },
            {
              "internalType": "uint256",
              "name": "reserveA",
              "type": "uint256"
            },
            {
              "internalType": "uint256",
              "name": "reserveB",
              "type": "uint256"
            },
            {
              "internalType": "uint256",
              "name": "totalLiquidity",
              "type": "uint256"
            },
            {
              "internalType": "uint256",
              "name": "fee",
              "type": "uint256"
            },
            {
              "internalType": "bool",
              "name": "active",
              "type": "bool"
            }
          ],
          "internalType": "struct LiquidityPool.AMMPool",
          "name": "",
          "type": "tuple"
        }
      ],
      "stateMutability": "view",
      "type": "function"
    },
    {
      "inputs": [
        {
          "internalType": "bytes32",
          "name": "poolHash",
          "type": "bytes32"
        },
        {
          "internalType": "address",
          "name": "tokenIn",
          "type": "address"
        },
        {
          "internalType": "uint256",
          "name": "amountIn",
          "type": "uint256"
        }
      ],
      "name": "getAMMPrice",
      "outputs": [
        {
          "internalType": "uint256",
          "name": "",
          "type": "uint256"
        }
      ],
      "stateMutability": "view",
      "type": "function"
    },
    {
      "inputs": [
        {
          "internalType": "uint256",
          "name": "chainId",
          "type": "uint256"
        }
      ],
      "name": "getCrossChainLiquidity",
      "outputs": [
        {
          "internalType": "uint256",
          "name": "",
          "type": "uint256"
        }
      ],
      "stateMutability": "view",
      "type": "function"
    },
    {
      "inputs": [
        {
          "internalType": "bytes32",
          "name": "poolHash",
          "type": "bytes32"
        }
      ],
      "name": "getDynamicFee",
      "outputs": [
        {
          "internalType": "uint256",
          "name": "",
          "type": "uint256"
        }
      ],
      "stateMutability": "view",
      "type": "function"
    },
    {
      "inputs": [
        {
          "internalType": "address",
          "name": "token",
          "type": "address"
        },
        {
          "internalType": "address",
          "name": "user",
          "type": "address"
        }
      ],
      "name": "getFarmInfo",
      "outputs": [
        {
          "internalType": "uint256",
          "name": "totalStaked",
          "type": "uint256"
        },
        {
          "internalType": "uint256",
          "name": "userStaked",
          "type": "uint256"
        },
        {
          "internalType": "uint256",
          "name": "userRewards",
          "type": "uint256"
        },
        {
          "internalType": "uint256",
          "name": "rewardRate",
          "type": "uint256"
        }
      ],
      "stateMutability": "view",
      "type": "function"
    },
    {
      "inputs": [
        {
          "internalType": "address",
          "name": "token",
          "type": "address"
        }
      ],
      "name": "getPoolInfo",
      "outputs": [
        {
          "internalType": "uint256",
          "name": "totalLiquidity",
          "type": "uint256"
        },
        {
          "internalType": "uint256",
          "name": "totalBorrowed",
          "type": "uint256"
        },
        {
          "internalType": "uint256",
          "name": "availableLiquidity",
          "type": "uint256"
        },
        {
          "internalType": "uint256",
          "name": "interestRate",
          "type": "uint256"
        },
        {
          "internalType": "bool",
          "name": "active",
          "type": "bool"
        }
      ],
      "stateMutability": "view",
      "type": "function"
    },
    {
      "inputs": [],
      "name": "getSupportedTokens",
      "outputs": [
        {
          "internalType": "address[]",
          "name": "",
          "type": "address[]"
        }
      ],
      "stateMutability": "view",
      "type": "function"
    },
    {
      "inputs": [
        {
          "internalType": "address",
          "name": "user",
          "type": "address"
        },
        {
          "internalType": "address",
          "name": "token",
          "type": "address"
        }
      ],
      "name": "getUserLiquidity",
      "outputs": [
        {
          "internalType": "uint256",
          "name": "",
          "type": "uint256"
        }
      ],
      "stateMutability": "view",
      "type": "function"
    },
    {
      "inputs": [
        {
          "internalType": "address",
          "name": "token",
          "type": "address"
        }
      ],
      "name": "getUtilizationRate",
      "outputs": [
        {
          "internalType": "uint256",
          "name": "",
          "type": "uint256"
        }
      ],
      "stateMutability": "view",
      "type": "function"
    },
    {
      "inputs": [],
      "name": "ilProtectionFund",
      "outputs": [
        {
          "internalType": "uint256",
          "name": "",
          "type": "uint256"
        }
      ],
      "stateMutability": "view",
      "type": "function"
    },
    {
      "inputs": [
        {
          "internalType": "address",
          "name": "",
          "type": "address"
        }
      ],
      "name": "ilProtections",
      "outputs": [
        {
          "internalType": "uint256",
          "name": "protectionPeriod",
          "type": "uint256"
        },
        {
          "internalType": "uint256",
          "name": "maxProtection",
          "type": "uint256"
        },
        {
          "internalType": "uint256",
          "name": "protectionFee",
          "type": "uint256"
        }
      ],
      "stateMutability": "view",
      "type": "function"
    },
    {
      "inputs": [
        {
          "internalType": "address",
          "name": "_carbonToken",
          "type": "address"
        },
        {
          "internalType": "address",
          "name": "_crossChainBridge",
          "type": "address"
        }
      ],
      "name": "initialize",
      "outputs": [],
      "stateMutability": "nonpayable",
      "type": "function"
    },
    {
      "inputs": [
        {
          "internalType": "address",
          "name": "borrower",
          "type": "address"
        },
        {
          "internalType": "address",
          "name": "token",
          "type": "address"
        },
        {
          "internalType": "uint256",
          "name": "amount",
          "type": "uint256"
        }
      ],
      "name": "issueLoan",
      "outputs": [],
      "stateMutability": "nonpayable",
      "type": "function"
    },
    {
      "inputs": [],
      "name": "nextMessageId",
      "outputs": [
        {
          "internalType": "uint256",
          "name": "",
          "type": "uint256"
        }
      ],
      "stateMutability": "view",
      "type": "function"
    },
    {
      "inputs": [],
      "name": "owner",
      "outputs": [
        {
          "internalType": "address",
          "name": "",
          "type": "address"
        }
      ],
      "stateMutability": "view",
      "type": "function"
    },
    {
      "inputs": [
        {
          "internalType": "address",
          "name": "",
          "type": "address"
        }
      ],
      "name": "pools",
      "outputs": [
        {
          "internalType": "contract IERC20",
          "name": "token",
          "type": "address"
        },
        {
          "internalType": "uint256",
          "name": "totalLiquidity",
          "type": "uint256"
        },
        {
          "internalType": "uint256",
          "name": "totalBorrowed",
          "type": "uint256"
        },
        {
          "internalType": "uint256",
          "name": "interestRate",
          "type": "uint256"
        },
        {
          "internalType": "uint256",
          "name": "lastUpdateTime",
          "type": "uint256"
        },
        {
          "internalType": "bool",
          "name": "active",
          "type": "bool"
        }
      ],
      "stateMutability": "view",
      "type": "function"
    },
    {
      "inputs": [],
      "name": "proxiableUUID",
      "outputs": [
        {
          "internalType": "bytes32",
          "name": "",
          "type": "bytes32"
        }
      ],
      "stateMutability": "view",
      "type": "function"
    },
    {
      "inputs": [
        {
          "internalType": "bytes32",
          "name": "poolHash",
          "type": "bytes32"
        },
        {
          "internalType": "uint256",
          "name": "protectionAmount",
          "type": "uint256"
        }
      ],
      "name": "purchaseILProtection",
      "outputs": [],
      "stateMutability": "payable",
      "type": "function"
    },
    {
      "inputs": [
        {
          "internalType": "bytes",
          "name": "message",
          "type": "bytes"
        }
      ],
      "name": "receiveCrossChainMessage",
      "outputs": [],
      "stateMutability": "nonpayable",
      "type": "function"
    },
    {
      "inputs": [
        {
          "internalType": "bytes32",
          "name": "poolHash",
          "type": "bytes32"
        },
        {
          "internalType": "uint256",
          "name": "liquidity",
          "type": "uint256"
        }
      ],
      "name": "removeAMMLiquidity",
      "outputs": [],
      "stateMutability": "nonpayable",
      "type": "function"
    },
    {
      "inputs": [
        {
          "internalType": "address",
          "name": "token",
          "type": "address"
        },
        {
          "internalType": "uint256",
          "name": "amount",
          "type": "uint256"
        }
      ],
      "name": "removeLiquidity",
      "outputs": [],
      "stateMutability": "nonpayable",
      "type": "function"
    },
    {
      "inputs": [],
      "name": "renounceOwnership",
      "outputs": [],
      "stateMutability": "nonpayable",
      "type": "function"
    },
    {
      "inputs": [
        {
          "internalType": "address",
          "name": "borrower",
          "type": "address"
        },
        {
          "internalType": "address",
          "name": "token",
          "type": "address"
        },
        {
          "internalType": "uint256",
          "name": "amount",
          "type": "uint256"
        }
      ],
      "name": "repayLoan",
      "outputs": [],
      "stateMutability": "nonpayable",
      "type": "function"
    },
    {
      "inputs": [
        {
          "internalType": "uint256",
          "name": "targetChainId",
          "type": "uint256"
        },
        {
          "internalType": "address",
          "name": "targetContract",
          "type": "address"
        },
        {
          "internalType": "bytes",
          "name": "message",
          "type": "bytes"
        }
      ],
      "name": "sendCrossChainMessage",
      "outputs": [],
      "stateMutability": "nonpayable",
      "type": "function"
    },
    {
      "inputs": [
        {
          "internalType": "address",
          "name": "_bridge",
          "type": "address"
        }
      ],
      "name": "setCrossChainBridge",
      "outputs": [],
      "stateMutability": "nonpayable",
      "type": "function"
    },
    {
      "inputs": [
        {
          "internalType": "uint256",
          "name": "chainId",
          "type": "uint256"
        },
        {
          "internalType": "address",
          "name": "remotePool",
          "type": "address"
        }
      ],
      "name": "setCrossChainPool",
      "outputs": [],
      "stateMutability": "nonpayable",
      "type": "function"
    },
    {
      "inputs": [
        {
          "internalType": "bytes32",
          "name": "poolHash",
          "type": "bytes32"
        },
        {
          "internalType": "uint256",
          "name": "_baseFee",
          "type": "uint256"
        },
        {
          "internalType": "uint256",
          "name": "_volatilityMultiplier",
          "type": "uint256"
        },
        {
          "internalType": "uint256",
          "name": "_volumeMultiplier",
          "type": "uint256"
        }
      ],
      "name": "setDynamicFee",
      "outputs": [],
      "stateMutability": "nonpayable",
      "type": "function"
    },
    {
      "inputs": [
        {
          "internalType": "address",
          "name": "poolAddress",
          "type": "address"
        },
        {
          "internalType": "uint256",
          "name": "_protectionPeriod",
          "type": "uint256"
        },
        {
          "internalType": "uint256",
          "name": "_maxProtection",
          "type": "uint256"
        },
        {
          "internalType": "uint256",
          "name": "_protectionFee",
          "type": "uint256"
        }
      ],
      "name": "setILProtection",
      "outputs": [],
      "stateMutability": "nonpayable",
      "type": "function"
    },
    {
      "inputs": [
        {
          "internalType": "address",
          "name": "token",
          "type": "address"
        },
        {
          "internalType": "uint256",
          "name": "amount",
          "type": "uint256"
        }
      ],
      "name": "stakeInFarm",
      "outputs": [],
      "stateMutability": "nonpayable",
      "type": "function"
    },
    {
      "inputs": [
        {
          "internalType": "uint256",
          "name": "",
          "type": "uint256"
        }
      ],
      "name": "supportedTokens",
      "outputs": [
        {
          "internalType": "address",
          "name": "",
          "type": "address"
        }
      ],
      "stateMutability": "view",
      "type": "function"
    },
    {
      "inputs": [
        {
          "internalType": "bytes32",
          "name": "poolHash",
          "type": "bytes32"
        },
        {
          "internalType": "address",
          "name": "tokenIn",
          "type": "address"
        },
        {
          "internalType": "uint256",
          "name": "amountIn",
          "type": "uint256"
        },
        {
          "internalType": "uint256",
          "name": "minAmountOut",
          "type": "uint256"
        }
      ],
      "name": "swap",
      "outputs": [
        {
          "internalType": "uint256",
          "name": "",
          "type": "uint256"
        }
      ],
      "stateMutability": "nonpayable",
      "type": "function"
    },
    {
      "inputs": [],
      "name": "totalCrossChainLiquidity",
      "outputs": [
        {
          "internalType": "uint256",
          "name": "",
          "type": "uint256"
        }
      ],
      "stateMutability": "view",
      "type": "function"
    },
    {
      "inputs": [
        {
          "internalType": "address",
          "name": "newOwner",
          "type": "address"
        }
      ],
      "name": "transferOwnership",
      "outputs": [],
      "stateMutability": "nonpayable",
      "type": "function"
    },
    {
      "inputs": [
        {
          "internalType": "uint256",
          "name": "chainId",
          "type": "uint256"
        },
        {
          "internalType": "address",
          "name": "token",
          "type": "address"
        },
        {
          "internalType": "uint256",
          "name": "amount",
          "type": "uint256"
        }
      ],
      "name": "unlockCrossChainLiquidity",
      "outputs": [],
      "stateMutability": "nonpayable",
      "type": "function"
    },
    {
      "inputs": [
        {
          "internalType": "address",
          "name": "token",
          "type": "address"
        },
        {
          "internalType": "uint256",
          "name": "amount",
          "type": "uint256"
        }
      ],
      "name": "unstakeFromFarm",
      "outputs": [],
      "stateMutability": "nonpayable",
      "type": "function"
    },
    {
      "inputs": [
        {
          "internalType": "bytes32",
          "name": "poolHash",
          "type": "bytes32"
        }
      ],
      "name": "updateDynamicFee",
      "outputs": [],
      "stateMutability": "nonpayable",
      "type": "function"
    },
    {
      "inputs": [
        {
          "internalType": "address",
          "name": "token",
          "type": "address"
        },
        {
          "internalType": "uint256",
          "name": "newRate",
          "type": "uint256"
        }
      ],
      "name": "updateFarmRewardRate",
      "outputs": [],
      "stateMutability": "nonpayable",
      "type": "function"
    },
    {
      "inputs": [
        {
          "internalType": "address",
          "name": "newImplementation",
          "type": "address"
        },
        {
          "internalType": "bytes",
          "name": "data",
          "type": "bytes"
        }
      ],
      "name": "upgradeToAndCall",
      "outputs": [],
      "stateMutability": "payable",
      "type": "function"
    },
    {
      "inputs": [
        {
          "internalType": "address",
          "name": "",
          "type": "address"
        },
        {
          "internalType": "uint256",
          "name": "",
          "type": "uint256"
        }
      ],
      "name": "userAMMLiquidity",
      "outputs": [
        {
          "internalType": "bytes32",
          "name": "",
          "type": "bytes32"
        }
      ],
      "stateMutability": "view",
      "type": "function"
    },
    {
      "inputs": [
        {
          "internalType": "address",
          "name": "",
          "type": "address"
        },
        {
          "internalType": "address",
          "name": "",
          "type": "address"
        }
      ],
      "name": "userLiquidity",
      "outputs": [
        {
          "internalType": "uint256",
          "name": "",
          "type": "uint256"
        }
      ],
      "stateMutability": "view",
      "type": "function"
    },
    {
      "inputs": [
        {
          "internalType": "address",
          "name": "",
          "type": "address"
        }
      ],
      "name": "yieldFarms",
      "outputs": [
        {
          "internalType": "address",
          "name": "stakingToken",
          "type": "address"
        },
        {
          "internalType": "address",
          "name": "rewardToken",
          "type": "address"
        },
        {
          "internalType": "uint256",
          "name": "totalStaked",
          "type": "uint256"
        },
        {
          "internalType": "uint256",
          "name": "rewardRate",
          "type": "uint256"
        },
        {
          "internalType": "uint256",
          "name": "lastRewardTime",
          "type": "uint256"
        },
        {
          "internalType": "uint256",
          "name": "rewardPerTokenStored",
          "type": "uint256"
        }
      ],
      "stateMutability": "view",
      "type": "function"
    }
  ],
  "bytecode": "0x60a0806040523460295730608052614838908161002f823960805181818161261201526126b10152f35b600080fdfe6080604052600436101561001257600080fd5b6000803560e01c806304cfce0a14613c5e57806305de003814611e5757806306bfa93814613ba957806306f1ca93146138f057806310831763146138d257806312d36171146136df5780631c284ef4146136765780632618caac146135e25780632bd047f41461357c5780632f92ee1614613451578063337f4de61461331a5780633c446e711461328f5780634076ed9c146132355780634373137d146130de57806345f9208114612fd05780634669660f14612cb8578063485cc95514612a885780634effbce4146129275780634f1ef2861461267157806352d1902d146125f757806356688700146124ce5780636105376b1461247357806363aa64e41461241a57806368eb5ace14612397578063715018a6146122fe57806379b42e67146122e05780637b6aa8bd146122bc5780637f0ebb0314612258578063816acd0e1461222c57806382232bb7146121375780638258beec146120de57806382a71ef2146120b757806382d1078e14611f515780638da5cb5b14611f0b57806396b6e44214611ea957806398147a0a14611e575780639f9f0c8a14611ad4578063a02439951461186e578063a201ccf6146116ba578063a215ffaf1461153c578063a3af23bc146114ba578063a4063dbc1461143c578063a9986a52146113d7578063aca7a30b14611306578063ad3cb1cc146112a1578063af99de0c14611090578063b2d39bd014610fac578063b3e2656614610f85578063b72c510814610d69578063bb67bad714610bc7578063c625562614610b49578063d3c7c2c714610a81578063dabb9fe114610a2a578063eefbf17e14610a0c578063f2cc9e1b14610539578063f2fde38b1461050c578063f745f4d914610410578063fe2e3159146103365763ff78fd7e146102a657600080fd5b34610333576001600160a01b036102bc36613e08565b9291506102c7614555565b168252600560205260026040832001908154908082106102ef576102ea91613f21565b905580f35b606460405162461bcd60e51b815260206004820152600e60248201527f4f7665722d72657061796d656e740000000000000000000000000000000000006044820152fd5b80fd5b503461033357602036600319011261033357600435808252600160205260408220600381019081549182156103cc576103b1602092620151806103aa61039d7fc3232f3841650df6627eb548b3b5c7b7a767cccbf1ebcdf291663f247c26c2069742613f21565b6001845494015490613f44565b0490613f77565b90429055604051906103e88082109118026103e8188152a280f35b606460405162461bcd60e51b815260206004820152601260248201527f466565206e6f7420636f6e6669677572656400000000000000000000000000006044820152fd5b50346103335760203660031901126103335760408160e09260c0835161043581613d66565b82815282602082015282858201528260608201528260808201528260a08201520152600435815260076020522060405161046e81613d66565b6001600160a01b03825416918282526001600160a01b0360018201541660208301908152600282015460408401908152600383015490606085019182526001600160a01b036004850154936080870194855260c060ff600660058901549860a08b01998a5201541697019615158752604051978852511660208701525160408601525160608501525160808401525160a083015251151560c0820152f35b503461033357602036600319011261033357610536610529613c7d565b610531614555565b614308565b80f35b50346103335760203660031901126103335760043567ffffffffffffffff8111610a085761056b903690600401613ec9565b6001600160a01b03600f541633036109c4578101906080818303126109c05780356020820135916040810135936001600160a01b03851680950361084757606082013567ffffffffffffffff81116108a3576105c79201613e95565b818552600d60205260ff60066040872001541661097c576040516105ea81613d66565b8281526020810184815260408201468152606083018781526001600160a01b03608085019186835260a086019342855260c087019560018752898d52600d60205260408d209751885551600188015551600287015551166001600160a01b036003860191166001600160a01b031982541617905560048401905180519067ffffffffffffffff8211610968576106808354613cfa565b601f8111610923575b506020908b601f84116001146108b657926106de97969492819260069795926108ab575b50508160011b916000199060031b1c19161790555b51600584015551151591019060ff801983541691151516179055565b80518101604082602083019203126108475760208201519160408101519067ffffffffffffffff82116108a757019181603f840112156108a35760208301519261072784613e42565b936107356040519586613d9e565b80855260208501936040838301011161089f578360406107559301613dc0565b6001810361084b575060608280518101031261084757610774906146e5565b907f9d278c56ba6dc86a12eefe6b43112bd6e06648eb4ec0b950ee2d783d40e2acb460206001600160a01b03806107b26060604087015196016146e5565b9516941692848952600582526107d160ff600560408c20015416614001565b84895260058252600160408a20016107ea828254613f77565b9055838952600c8252604089206001600160a01b03861660005282526040600020610816828254613f77565b9055604051908152a35b7f602863f6d7f11ee69e2982713974827f295744251f123afa7d4bb53fb7018f828480a480f35b8580fd5b60021461085a575b5050610820565b60408280518101031261084757602060407f040cee90ee4799897c30ca04e5feb6fa43dbba9b6d084b4b257cdafd84ba013e9251930151604051908152a23880610853565b8880fd5b8680fd5b8780fd5b0151905038806106ad565b50838c52818c209190601f1984168d5b81811061090b5750926001928592600698966106de9b9a9896106108f2575b505050811b0190556106c2565b015160001960f88460031b161c191690553880806108e5565b929360206001819287860151815501950193016108c6565b838c5260208c20601f840160051c8101916020851061095e575b601f0160051c01905b8181106109535750610689565b8c8155600101610946565b909150819061093d565b60248b634e487b7160e01b81526041600452fd5b606460405162461bcd60e51b815260206004820152601860248201527f4d65737361676520616c726561647920657865637574656400000000000000006044820152fd5b8280fd5b606460405162461bcd60e51b815260206004820152601460248201527f4f6e6c79206272696467652063616e2063616c6c0000000000000000000000006044820152fd5b5080fd5b50346103335780600319360112610333576020600e54604051908152f35b503461033357604036600319011261033357610a44613c7d565b6001600160a01b0316815260086020526040812080546024359290831015610333576020610a728484613ccc565b90549060031b1c604051908152f35b503461033357806003193601126103335760405180602060065491828152018091600685527ff652222313e28459528d920b65115c16c04f3efc82aaedc97be59f3f377c0d3f90855b818110610b2a5750505082610ae0910383613d9e565b604051928392602084019060208552518091526040840192915b818110610b08575050500390f35b82516001600160a01b0316845285945060209384019390920191600101610afa565b82546001600160a01b0316845260209093019260019283019201610aca565b503461033357602036600319011261033357600435600654811015610a0857600654811015610bb357600682527ff652222313e28459528d920b65115c16c04f3efc82aaedc97be59f3f377c0d3f015460405160039290921b1c6001600160a01b03168152602090f35b602482634e487b7160e01b81526032600452fd5b50610bd136613eb3565b8183526007602052610bec60ff600660408620015416614001565b8015610d25576001600160a01b03821683528260205260408320805415610ce157610c1e600261271092015483613f44565b04803410610c9d57803411610c6c575b610c3a90600454613f77565b6004556040519081527f47f4ff385237364e4be8e832a80af907f9bf3f7d31792db8b9b25009ea54bad860203392a380f35b83808080610c7a8534613f21565b818115610c94575b3390f1610c2e576040513d85823e3d90fd5b506108fc610c82565b606460405162461bcd60e51b815260206004820152601460248201527f496e73756666696369656e74207061796d656e740000000000000000000000006044820152fd5b606460405162461bcd60e51b815260206004820152601b60248201527f494c2070726f74656374696f6e206e6f7420617661696c61626c6500000000006044820152fd5b606460405162461bcd60e51b815260206004820152601960248201527f496e76616c69642070726f74656374696f6e20616d6f756e74000000000000006044820152fd5b5034610333576001600160a01b03610d8036613e08565b929091610d8b614555565b16908115610f41576001600160a01b0316918215610efd578015610eb9578184526009602052604084206001600160a01b03815416610e7557826001600160a01b031982541617815560018101846001600160a01b0319825416179055816003820155600442910155600a5468010000000000000000811015610e61577f5b01e06e59b1ee4fbe7daae863c145b120c123d24a79b13a90bddd2646e5a1c091610e3e82600160209401600a55600a613ccc565b81549060031b906001600160a01b0387831b921b1916179055604051908152a380f35b602485634e487b7160e01b81526041600452fd5b606460405162461bcd60e51b815260206004820152601360248201527f4661726d20616c726561647920657869737473000000000000000000000000006044820152fd5b606460405162461bcd60e51b815260206004820152601760248201527f5265776172642072617465206d757374206265203e20300000000000000000006044820152fd5b606460405162461bcd60e51b815260206004820152601460248201527f496e76616c69642072657761726420746f6b656e0000000000000000000000006044820152fd5b606460405162461bcd60e51b815260206004820152601560248201527f496e76616c6964207374616b696e6720746f6b656e00000000000000000000006044820152fd5b503461033357806003193601126103335760206001600160a01b03600f5416604051908152f35b503461033357610fbb36613ef7565b9190610fc5614555565b818452600260205260026040852001805484811061104c577f9bb59226232b1a35016f0c094e720ba3e3a740de80a477a898a6c82b8e23a77992602092611014876001600160a01b0394613f21565b905561102286600354613f21565b60035516938486526005825260016040872001611040828254613f77565b9055604051908152a380f35b606460405162461bcd60e51b815260206004820152601d60248201527f496e73756666696369656e74206c6f636b6564206c69717569646974790000006044820152fd5b50346103335761109f36613eb3565b6110a76143c7565b8183526007602052604083206110c360ff600683015416614001565b811561125d5761111d916002820191825492611124836110e38682613f44565b60048501936110f485548093613f57565b988998600388019283549061111d61111587611110858b613f44565b613f57565b9c8d94613f21565b9055613f21565b9055805460405163a9059cbb60e01b8152336004820152602481018690529190602090839060449082908b906001600160a01b03165af1908115611252576001600160a01b0392600192611235575b50015460405163a9059cbb60e01b8152336004820152602481018590529391602091859160449183918b91165af192831561122a577fe6a6b5190471a51fe962df00fdc22eff6bfc5a9e82d2f8cd0d5433f51d2011f2936111fd575b506040805194855260208501919091528301523391606090a360016000805160206147e38339815191525580f35b61121e9060203d602011611223575b6112168183613d9e565b810190614097565b6111cf565b503d61120c565b6040513d88823e3d90fd5b61124d9060203d602011611223576112168183613d9e565b611173565b6040513d89823e3d90fd5b606460405162461bcd60e51b815260206004820152601560248201527f4c6971756964697479206d757374206265203e203000000000000000000000006044820152fd5b5034610333578060031936011261033357506113026040516112c4604082613d9e565b600581527f352e302e300000000000000000000000000000000000000000000000000000006020820152604051918291602083526020830190613de3565b0390f35b50346103335760206001600160a01b037f9bb59226232b1a35016f0c094e720ba3e3a740de80a477a898a6c82b8e23a77961134036613ef7565b9491939061134c614555565b16938486526005825261136860ff600560408920015416614001565b848652600582526113828160016040892001541015614190565b83865260028252600360408720858155600281016113a1848254613f77565b905501600160ff198254161790556113bb81600354613f77565b6003558486526005825260016040872001611040828254613f21565b50346103335760036113e836613cae565b906113f594939294614555565b6040519461140286613d82565b8552602085019081526040850191825260608501924284528652600160205260408620945185555160018501555160028401555191015580f35b503461033357602036600319011261033357604060c0916001600160a01b03611463613c7d565b1681526005602052206001600160a01b0381541690600181015490600281015460038201549060ff6005600485015494015416936040519586526020860152604085015260608401526080830152151560a0820152f35b503461033357602036600319011261033357604060c0916001600160a01b036114e1613c7d565b1681526009602052206001600160a01b03815416906001600160a01b036001820154169060028101546003820154906005600484015493015493604051958652602086015260408501526060840152608083015260a0820152f35b503461033357606036600319011261033357611556613c98565b6004358252600760205260408220916040519161157283613d66565b6001600160a01b0384541683526001600160a01b036001850154169360208401948552611601600282015492604086019384526001600160a01b038060038501549760608101988952600486015460808201526115e960ff600660058901549860a08501998a5201541615158060c0840152614001565b5116911690811490819782156116a6575b5050614226565b516127100361271081116116925761161b90604435613f44565b9284156116885761162e81515b85613f44565b941561167f575051905b612710820291808304612710149015171561166b5760206116638561165d8686613f77565b90613f57565b604051908152f35b80634e487b7160e01b602492526011600452fd5b90505190611638565b61162e8251611628565b602483634e487b7160e01b81526011600452fd5b516001600160a01b031614905038806115fa565b5034610333576040366003190112610333576116d4613c7d565b6001600160a01b03602435916116e86143c7565b1690818352600560205261170560ff600560408620015416614001565b338352600c6020526040832082600052602052611729816040600020541015614190565b81835260056020526040832060018101908282541061182a576001600160a01b0391338652600c6020526040862085600052602052604060002061176e858254613f21565b905561177b848254613f21565b90555460405163a9059cbb60e01b81523360048201526024810184905291602091839160449183918991165af1801561181f576117bf918591611800575b506141db565b6040519081527f983e86fda8e7b1e2eae380201830eaf1cac55772e8e39583da349865e817886360203392a360016000805160206147e38339815191525580f35b611819915060203d602011611223576112168183613d9e565b386117b9565b6040513d86823e3d90fd5b606460405162461bcd60e51b815260206004820152601b60248201527f496e73756666696369656e7420706f6f6c206c697175696469747900000000006044820152fd5b50346103335761187d36613e08565b9291611887614555565b6001600160a01b038216916001600160a01b03821691838314611a905783831015611a4c5760648611611a08576020956119f987927f1918d3f2a1c7ea8972bcb4a99866ff3abd4efb612d02c83d818dc02e5d9e50ab9460405190858201926bffffffffffffffffffffffff199060601b1683526bffffffffffffffffffffffff199060601b16603482015260288152611922604882613d9e565b51902096878152600784526119446001600160a01b03604083205416156140af565b600688846040519361195585613d66565b8985528785018b8152604086018281526001600160a01b0360608801928484528180604060808c019780895260a08d01998a5260c08d019a60018c5281528f60079052209a5116166001600160a01b03198a541617895551166001600160a01b036001890191166001600160a01b031982541617905551600287015551600386015551600485015551600584015551151591019060ff801983541691151516179055565b604051908152a3604051908152f35b606460405162461bcd60e51b815260206004820152600c60248201527f46656520746f6f206869676800000000000000000000000000000000000000006044820152fd5b606460405162461bcd60e51b815260206004820152601f60248201527f546f6b656e41206d757374206265206c657373207468616e20746f6b656e42006044820152fd5b606460405162461bcd60e51b815260206004820152601860248201527f546f6b656e73206d75737420626520646966666572656e7400000000000000006044820152fd5b503461033357606036600319011261033357600435611af1613c98565b9060443567ffffffffffffffff8111611e5357611b12903690600401613ec9565b611b1d939193614555565b6001600160a01b03600f541615611e0f57600e54916000198314611dfb5760018301600e55604051611b4e81613d66565b8381528660208201468152604083018781526001600160a01b0360608501338152611b7a36898d613e5e565b926080870193845260a0870194428652604060c08901978089528c8152600d602052209751885551600188015551600287015551166001600160a01b036003860191166001600160a01b031982541617905560048401905180519067ffffffffffffffff8211611de757908291611bf68d989796959454613cfa565b601f8111611d8e575b50602090601f8311600114611d25579180611c5197969492600696948b926108ab5750508160011b916000199060031b1c191617905551600584015551151591019060ff801983541691151516179055565b6001600160a01b03600f5416803b156109c0576001600160a01b038360848694604051978896879586937f7056f41f0000000000000000000000000000000000000000000000000000000085528d6004860152169c8d602485015260606044850152816064850152848401378181018301849052601f01601f191681010301925af18015611d1a57611d06575b507fddc079b6e63097669075648450ddd767462fbdac7db17c4b69b4f086a2e96bea8480a480f35b84611d1391959295613d9e565b9238611cde565b6040513d87823e3d90fd5b8389528189209190601f1984168a5b818110611d5f575092600192859260069896611c519b9a9896106108f257505050811b0190556106c2565b938395969798999a9b506001602092939491839286015181550195019301908f9a999897969594939291611d34565b9091928094959697985260208d20601f840160051c81019160208510611ddd575b90601f8f9a99989796959493920160051c01905b818110611dd05750611bff565b9889558d98600101611dc3565b9091508190611daf565b60248c634e487b7160e01b81526041600452fd5b602486634e487b7160e01b81526011600452fd5b606460405162461bcd60e51b815260206004820152600e60248201527f427269646765206e6f74207365740000000000000000000000000000000000006044820152fd5b8380fd5b5034610333576040366003190112610333576040602091611e76613c7d565b6001600160a01b03611e86613c98565b91168252600c84526001600160a01b038383209116825283522054604051908152f35b503461033357602036600319011261033357604060c091600435815260106020522080549060018101549060028101546003820154906005600484015493015493604051958652602086015260408501526060840152608083015260a0820152f35b503461033357806003193601126103335760206001600160a01b037f9016d09d72d40fdae2fd8ceac6b6234c7706214fd39c1cd1e609a0528c1993005416604051908152f35b503461033357604036600319011261033357611f6b613c7d565b602435611f766143c7565b6001600160a01b03821691828452600960205260408420600881016001600160a01b0333168652806020528360408720541061207357611fb76002936145b6565b6001600160a01b033316865260205260408520611fd5848254613f21565b905501611fe3828254613f21565b905560405163a9059cbb60e01b81523360048201526024810182905260208160448187875af1801561181f57612056575b506040519081527ffcbfc3fe53abec93c6f0e4e7406b2a74e3f27d0b67a692f596c3132e8eb402bc60203392a360016000805160206147e38339815191525580f35b61206e9060203d602011611223576112168183613d9e565b612014565b606460405162461bcd60e51b815260206004820152601260248201527f496e73756666696369656e74207374616b6500000000000000000000000000006044820152fd5b503461033357806003193601126103335760206001600160a01b03600b5416604051908152f35b503461033357602036600319011261033357604090600435815260016020522080546113026001830154926003600282015491015490604051948594859094939260609260808301968352602083015260408201520152565b50346103335761271061216a6001600160a01b0361215436613eb3565b9116845283602052600160408520015490613f44565b0480156121e8576004548181106121a45782808361218a82958395613f21565b6004553382f1156121985780f35b604051903d90823e3d90fd5b606460405162461bcd60e51b815260206004820152601c60248201527f496e73756666696369656e742070726f74656374696f6e2066756e64000000006044820152fd5b606460405162461bcd60e51b815260206004820152601760248201527f4e6f2070726f74656374696f6e20617661696c61626c650000000000000000006044820152fd5b503461033357602036600319011261033357600260406020926004358152828452200154604051908152f35b5034610333576020366003190112610333576001600160a01b0361227a613c7d565b612282614555565b16806001600160a01b0319600f541617600f557f114be21c75640466cbc0aaabbcc6f9ccf7217e6eb0294901fd357e0f78924f8e8280a280f35b50346103335760203660031901126103335760206116636122db613c7d565b614271565b50346103335780600319360112610333576020600454604051908152f35b5034610333578060031936011261033357612317614555565b806001600160a01b037f9016d09d72d40fdae2fd8ceac6b6234c7706214fd39c1cd1e609a0528c199300546001600160a01b031981167f9016d09d72d40fdae2fd8ceac6b6234c7706214fd39c1cd1e609a0528c19930055167f8be0079c531659141344cd1fd0a4f28419497f9722a3daafe3b4186f6b6457e08280a380f35b503461033357602036600319011261033357604060e09160043581526007602052206001600160a01b03815416906001600160a01b03600182015416906002810154600382015460048301549160ff600660058601549501541694604051968752602087015260408601526060850152608084015260a0830152151560c0820152f35b5034610333576020366003190112610333576040906001600160a01b0361243f613c7d565b1681528060205220805461130260026001840154930154604051938493846040919493926060820195825260208201520152565b503461033357602036600319011261033357604060809160043581526002602052208054906001600160a01b036001820154169060ff6003600283015492015416916040519384526020840152604083015215156060820152f35b5034610333576040366003190112610333576124e8613c7d565b6001600160a01b03602435916124fc6143c7565b1690818352600560205261251960ff600560408620015416614001565b612524811515614145565b818352600560209081526040808520805491516323b872dd60e01b8152336004820152306024820152604481018590529290918390606490829089906001600160a01b03165af1918215611d1a5760019261258591879161180057506141db565b01612591828254613f77565b9055338352600c60205260408320828452602052604083206125b4828254613f77565b90556040519081527f9d278c56ba6dc86a12eefe6b43112bd6e06648eb4ec0b950ee2d783d40e2acb460203392a360016000805160206147e38339815191525580f35b50346103335780600319360112610333576001600160a01b037f00000000000000000000000000000000000000000000000000000000000000001630036126625760206040517f360894a13ba1a3210667c828492db98dca3e2076cc3735a920a3ca505d382bbc8152f35b8063703e46dd60e11b60049252fd5b50604036600319011261033357612686613c7d565b9060243567ffffffffffffffff8111610a08576126a7903690600401613e95565b6001600160a01b037f0000000000000000000000000000000000000000000000000000000000000000168030149081156128f2575b506128e3576126e9614555565b6001600160a01b03831690604051937f52d1902d000000000000000000000000000000000000000000000000000000008552602085600481865afa809585966128ab575b506127455760248484634c9c8ce360e01b8252600452fd5b9091847f360894a13ba1a3210667c828492db98dca3e2076cc3735a920a3ca505d382bbc81036128805750813b1561286e57806001600160a01b03197f360894a13ba1a3210667c828492db98dca3e2076cc3735a920a3ca505d382bbc5416177f360894a13ba1a3210667c828492db98dca3e2076cc3735a920a3ca505d382bbc557fbc7cd75a20ee27fd9adebab32041f755214dbc6bffa90cc0225b39da2e5c2d3b8480a2815183901561283b578083602061282f95519101845af43d15612833573d9161281383613e42565b926128216040519485613d9e565b83523d85602085013e614752565b5080f35b606091614752565b505050346128465780f35b807fb398979f0000000000000000000000000000000000000000000000000000000060049252fd5b634c9c8ce360e01b8452600452602483fd5b7faa1d49a4000000000000000000000000000000000000000000000000000000008552600452602484fd5b9095506020813d6020116128db575b816128c760209383613d9e565b810103126128d75751943861272d565b8480fd5b3d91506128ba565b60048263703e46dd60e11b8152fd5b90506001600160a01b037f360894a13ba1a3210667c828492db98dca3e2076cc3735a920a3ca505d382bbc54161415386126dc565b503461033357604036600319011261033357612941613c7d565b906001600160a01b03612952613c98565b921681526009602052604081209061296e600483015442613f21565b9061297e60038401548093613f44565b92600581015460028201549485612a20575b50916040916001600160a01b036129f36113029695828a16855260078401602052670de0b6b3a76400006103aa8b6129ed8989205494600660088a01998985168c528a602052898d8d205495168c52016020528a8a205490613f21565b90613f44565b97168252602052205493604051948594859094939260609260808301968352602083015260408201520152565b670de0b6b3a7640000810290808204670de0b6b3a76400001490151715612a7457916001600160a01b036129f3612a68611302979694612a628a604098613f57565b90613f77565b93959650505091612990565b602484634e487b7160e01b81526011600452fd5b503461033357604036600319011261033357612aa2613c7d565b612aaa613c98565b7ff0c57e16840df040f15088dc2f81fe391c3923bec73e23a9662efc9c229c6a00549160ff8360401c16159267ffffffffffffffff811680159081612cb0575b6001149081612ca6575b159081612c9d575b50612c755767ffffffffffffffff1981166001177ff0c57e16840df040f15088dc2f81fe391c3923bec73e23a9662efc9c229c6a00556001600160a01b039291839185612c36575b50612b4d6146f9565b612b556146f9565b612b5e33614308565b612b666146f9565b612b6e6146f9565b60016000805160206147e383398151915255612b886146f9565b166001600160a01b0319600b541617600b55166001600160a01b0319600f541617600f556001600e55612bb85780f35b68ff0000000000000000197ff0c57e16840df040f15088dc2f81fe391c3923bec73e23a9662efc9c229c6a0054167ff0c57e16840df040f15088dc2f81fe391c3923bec73e23a9662efc9c229c6a00557fc7f505b2f371ae2175ee4913f4499e1f2633a7b5936321eed1cdaeb6115181d2602060405160018152a180f35b68ffffffffffffffffff191668010000000000000001177ff0c57e16840df040f15088dc2f81fe391c3923bec73e23a9662efc9c229c6a005538612b44565b6004857ff92ee8a9000000000000000000000000000000000000000000000000000000008152fd5b90501538612afc565b303b159150612af4565b859150612aea565b503461033357608036600319011261033357600435612cd5613c98565b9060443591612ce26143c7565b81845260076020526040842092612cff60ff600686015416614001565b6001600160a01b03808554169216918214808015612fba575b612d2190614226565b6005850154612710036127108111612fa657612d3d9083613f44565b8115612f9957612d5260038701545b82613f44565b908215612f8f5760028701545b6127108102908082046127101490151715612f7b57612d82929161165d91613f77565b946064358610612f37578115612f2a57612da360038201545b871115614190565b6040516323b872dd60e01b8152336004820152306024820152604481018490526020816064818b895af18015612f1f57612f02575b508115612ef1576001600160a01b03806001830154165b60405163a9059cbb60e01b815233600482015260248101899052911692906020816044818c885af18015612ee65760209950612ecb575b5015612ea45780600260039201612e3e858254613f77565b905501612e4c868254613f21565b90555b6040519283528583015260408201528260608201527fd6b559c82912b0e4c994140a0e68a9d80a3e4938b95a9a5b0fb205e19babf04e60803392a360016000805160206147e383398151915255604051908152f35b80600360029201612eb6858254613f77565b905501612ec4868254613f21565b9055612e4f565b612ee190893d8b11611223576112168183613d9e565b612e26565b6040513d8b823e3d90fd5b6001600160a01b0380825416612def565b612f1a9060203d602011611223576112168183613d9e565b612dd8565b6040513d8a823e3d90fd5b612da36002820154612d9b565b606460405162461bcd60e51b815260206004820152601a60248201527f496e73756666696369656e74206f757470757420616d6f756e740000000000006044820152fd5b602489634e487b7160e01b81526011600452fd5b6003870154612d5f565b612d526002870154612d4c565b602487634e487b7160e01b81526011600452fd5b5060018501546001600160a01b03168314612d18565b5034610333576001600160a01b03612fe736613e08565b919290612ff2614555565b169182845260056020526001600160a01b036040852061301860ff600583015416614001565b600181015461304285600284019261303d8261303686548094613f21565b1015614190565b613f77565b90555460405163a9059cbb60e01b81526001600160a01b03841660048201526024810185905291602091839160449183918a91165af18015611d1a577f2a2739b1a143745ed1bb646af91335badc687fbb4f4a45ab53ededc8a1a8763b926130bb6001600160a01b039260209489916130c757506141db565b6040519485521692a380f35b6118199150853d8711611223576112168183613d9e565b5034610333576020366003190112610333576001600160a01b03613100613c7d565b6131086143c7565b613111816145b6565b1680825260096020526040822060078101906001600160a01b03331684528160205260408420549182156131f157338086526020918252604080872087905560019390930154925163a9059cbb60e01b8152600481019190915260248101849052918290604490829088906001600160a01b03165af1801561181f576131d4575b506040519081527f2d2b8e27c71f652aae9bd22f2f42323a7fd5142b9924e9d0029653746ea966eb60203392a360016000805160206147e38339815191525580f35b6131ec9060203d602011611223576112168183613d9e565b613192565b606460405162461bcd60e51b815260206004820152601360248201527f4e6f207265776172647320746f20636c61696d000000000000000000000000006044820152fd5b503461033357602036600319011261033357604060a091600435815260116020522080549060018101549060028101546004600383015460020b920154926040519485526020850152604084015260608301526080820152f35b5034610333576040366003190112610333576132a9613c7d565b7f089c7c2c6672aa784d3d863345268fedc71139fde6b4acf4bd9d6118f945e87960206024356132d7614555565b8060036001600160a01b038616958688526009855261330e60408920916133096001600160a01b0384541615156140fa565b6145b6565b0155604051908152a280f35b5034610333576020366003190112610333576004358152600d602052604081208054906001810154926002820154906001600160a01b036003840154166004840191604051928181549161336d83613cfa565b808752926001811690811561342557506001146133e0575b50505090613399836133cf94930383613d9e565b60ff600660058701549601541693604051978897885260208801526040870152606086015260e0608086015260e0850190613de3565b9160a0840152151560c08301520390f35b81526020812094939250905b8082106134095750919250908201602001613399836133cf613385565b91929360018160209254838589010152019101909392916133ec565b60ff191660208089019190915293151560051b8701909301935061339992508591506133cf9050613385565b50346103335760403660031901126103335761346b613c7d565b6024356134766143c7565b6001600160a01b0382169182845260096020526134b160408520916134a66001600160a01b0384541615156140fa565b613309841515614145565b6040516323b872dd60e01b8152336004820152306024820152604481018390529060208260648188885af1918215611d1a5760029261355f575b506001600160a01b0333168552600881016020526040852061350e848254613f77565b90550161351c828254613f77565b90556040519081527f430e103e1245481f4aded68ba17e555fe8ad5b0ede6e8253aa323dda1adbdfc160203392a360016000805160206147e38339815191525580f35b6135779060203d602011611223576112168183613d9e565b6134eb565b503461033357602036600319011261033357600435600a54811015610a0857600a54811015610bb357600a9091527fc65a7bb8d6351c1cf70c95a316cc6a92839c986682d98bc35f958f4883f9d2a801546040516001600160a01b039091168152602090f35b5034610333576080366003190112610333576135fc613c7d565b613604614555565b604051906060820182811067ffffffffffffffff821117613662579060029160405260243583526020830160443581526001600160a01b03604085019260643584521685528460205260408520935184555160018401555191015580f35b602484634e487b7160e01b81526041600452fd5b503461033357604036600319011261033357600435613693613c98565b61369b614555565b81835260026020526001600160a01b036001604085200191166001600160a01b03198254161790558152600260205260036040822001600160ff1982541617905580f35b5034610333576040366003190112610333576136f9613c7d565b6001600160a01b036024359161370d614555565b1690811561388e5781835260056020526137346001600160a01b03604085205416156140af565b80151580613882575b1561383e576137d160405161375181613d34565b8381526005602082018681526040830187815260608401868152608085019142835260a086019360018552898b52856020526001600160a01b038060408d20985116166001600160a01b031988541617875551600187015551600286015551600385015551600484015551151591019060ff801983541691151516179055565b60065468010000000000000000811015613662577f641e49906554552c8c33d7e09e02d1270590f405bc1da0c7b99a9c2808abdd059161381b826001602094016006556006613ccc565b81549060031b906001600160a01b0387831b921b1916179055604051908152a280f35b606460405162461bcd60e51b815260206004820152601560248201527f496e76616c696420696e746572657374207261746500000000000000000000006044820152fd5b506107d081111561373d565b606460405162461bcd60e51b815260206004820152601560248201527f496e76616c696420746f6b656e206164647265737300000000000000000000006044820152fd5b50346103335780600319360112610333576020600354604051908152f35b5034610333576138ff36613cae565b92919061390a6143c7565b82855260076020526040852061392660ff600683015416614001565b82151580613ba0575b15613b5c57600481019081548015600014613b11575061396361395a6139558587613f44565b61441c565b9687101561404c565b80546040516323b872dd60e01b81523360048201523060248201526044810186905290602090829060649082908c906001600160a01b03165af18015612f1f57613af4575b5060018101546040516323b872dd60e01b8152336004820152306024820152604481018590529190602090839060649082908c906001600160a01b03165af1918215612f1f57600392613ad7575b5060028101613a06868254613f77565b905501613a14838254613f77565b9055613a21858254613f77565b905533855260086020526040852080549068010000000000000000821015613ac35791602096613a79837f6debede0389555d82cf8ae44216b5169c6841f29e92fd6589ff0da6de388ce1e9560018a96018155613ccc565b815460001960039290921b91821b19169088901b179055506040805194855260208501919091528301523391606090a360016000805160206147e383398151915255604051908152f35b602487634e487b7160e01b81526041600452fd5b613aef9060203d602011611223576112168183613d9e565b6139f6565b613b0c9060203d602011611223576112168183613d9e565b6139a8565b80613b45613b3a613b33613b28613b57958a613f44565b600287015490613f57565b9287613f44565b600385015490613f57565b9081808210911802189687101561404c565b613963565b606460405162461bcd60e51b815260206004820152601360248201527f416d6f756e7473206d757374206265203e2030000000000000000000000000006044820152fd5b5081151561392f565b503461033357602036600319011261033357604060a0916001600160a01b03613bd0613c7d565b16815260056020522060405190613be682613d34565b6001600160a01b0381541682526001810154918260208201526002820154918260408301528460ff6005600384015493606086019485526004810154608087015201541692019115158252613c3b8385613f21565b905191511515926040519485526020850152604084015260608301526080820152f35b5034610333576020366003190112610333576020611663600435613f84565b600435906001600160a01b0382168203613c9357565b600080fd5b602435906001600160a01b0382168203613c9357565b6080906003190112613c935760043590602435906044359060643590565b8054821015613ce45760005260206000200190600090565b634e487b7160e01b600052603260045260246000fd5b90600182811c92168015613d2a575b6020831014613d1457565b634e487b7160e01b600052602260045260246000fd5b91607f1691613d09565b60c0810190811067ffffffffffffffff821117613d5057604052565b634e487b7160e01b600052604160045260246000fd5b60e0810190811067ffffffffffffffff821117613d5057604052565b6080810190811067ffffffffffffffff821117613d5057604052565b90601f8019910116810190811067ffffffffffffffff821117613d5057604052565b60005b838110613dd35750506000910152565b8181015183820152602001613dc3565b90602091613dfc81518092818552858086019101613dc0565b601f01601f1916010190565b6060906003190112613c93576004356001600160a01b0381168103613c9357906024356001600160a01b0381168103613c93579060443590565b67ffffffffffffffff8111613d5057601f01601f191660200190565b929192613e6a82613e42565b91613e786040519384613d9e565b829481845281830111613c93578281602093846000960137010152565b9080601f83011215613c9357816020613eb093359101613e5e565b90565b6040906003190112613c93576004359060243590565b9181601f84011215613c935782359167ffffffffffffffff8311613c935760208381860195010111613c9357565b6060906003190112613c9357600435906024356001600160a01b0381168103613c93579060443590565b91908203918211613f2e57565b634e487b7160e01b600052601160045260246000fd5b81810292918115918404141715613f2e57565b8115613f61570490565b634e487b7160e01b600052601260045260246000fd5b91908201809211613f2e57565b6000526001602052604060002060405190613f9e82613d82565b80548252600360018201549160208401928352600281015460408501520154918260608201528215613ff9576103aa6201518091613fdf613fe99542613f21565b9051935190613f44565b6103e88082109118026103e81890565b505050601e90565b1561400857565b606460405162461bcd60e51b815260206004820152600f60248201527f506f6f6c206e6f742061637469766500000000000000000000000000000000006044820152fd5b1561405357565b606460405162461bcd60e51b815260206004820152601d60248201527f496e73756666696369656e74206c6971756964697479206d696e7465640000006044820152fd5b90816020910312613c9357518015158103613c935790565b156140b657565b606460405162461bcd60e51b815260206004820152601360248201527f506f6f6c20616c726561647920657869737473000000000000000000000000006044820152fd5b1561410157565b606460405162461bcd60e51b815260206004820152601360248201527f4661726d20646f6573206e6f74206578697374000000000000000000000000006044820152fd5b1561414c57565b606460405162461bcd60e51b815260206004820152601260248201527f416d6f756e74206d757374206265203e203000000000000000000000000000006044820152fd5b1561419757565b606460405162461bcd60e51b815260206004820152601660248201527f496e73756666696369656e74206c6971756964697479000000000000000000006044820152fd5b156141e257565b606460405162461bcd60e51b815260206004820152600f60248201527f5472616e73666572206661696c656400000000000000000000000000000000006044820152fd5b1561422d57565b606460405162461bcd60e51b815260206004820152600d60248201527f496e76616c696420746f6b656e000000000000000000000000000000000000006044820152fd5b6001600160a01b0316600052600560205260406000206040519061429482613d34565b6001600160a01b0381541682526001810154602083019281845260a060ff60056002860154958660408601526003810154606086015260048101546080860152015416151591015215614301576127108102908082046127101490151715613f2e57613eb0915190613f57565b5050600090565b6001600160a01b03168015614398576001600160a01b037f9016d09d72d40fdae2fd8ceac6b6234c7706214fd39c1cd1e609a0528c19930054826001600160a01b03198216177f9016d09d72d40fdae2fd8ceac6b6234c7706214fd39c1cd1e609a0528c19930055167f8be0079c531659141344cd1fd0a4f28419497f9722a3daafe3b4186f6b6457e0600080a3565b7f1e4fbdf700000000000000000000000000000000000000000000000000000000600052600060045260246000fd5b60026000805160206147e383398151915254146143f25760026000805160206147e383398151915255565b7f3ee5aeb50000000000000000000000000000000000000000000000000000000060005260046000fd5b6001811115613eb05780600170010000000000000000000000000000000083101561453f575b600482680100000000000000006144f1941015614532575b640100000000811015614525575b62010000811015614518575b61010081101561450c575b6010811015614500575b10156144f8575b60030260011c6144a08184613f57565b0160011c6144ae8184613f57565b0160011c6144bc8184613f57565b0160011c6144ca8184613f57565b0160011c6144d88184613f57565b0160011c6144e68184613f57565b0160011c8092613f57565b8111900390565b60011b614490565b811c9160021b91614489565b60081c91811b9161447f565b60101c9160081b91614474565b60201c9160101b91614468565b60401c9160201b9161445a565b5050608081901c68010000000000000000614442565b6001600160a01b037f9016d09d72d40fdae2fd8ceac6b6234c7706214fd39c1cd1e609a0528c1993005416330361458857565b7f118cdaa7000000000000000000000000000000000000000000000000000000006000523360045260246000fd5b6001600160a01b0316600052600960205260406000206002810154801515806146d8575b614675575b506001600160a01b033316600052600881016020526040600020549060058101906007670de0b6b3a76400006146368454956129ed60068601976001600160a01b0333166000528860205260406000205490613f21565b04916001600160a01b033316600052016020526146596040600020918254613f77565b905554906001600160a01b033316600052602052604060002055565b6004820190614693614688835442613f21565b600385015490613f44565b90670de0b6b3a7640000820291808304670de0b6b3a76400001490151715613f2e576146be91613f57565b6146cd60058401918254613f77565b9055429055386145df565b50600482015442116145da565b51906001600160a01b0382168203613c9357565b60ff7ff0c57e16840df040f15088dc2f81fe391c3923bec73e23a9662efc9c229c6a005460401c161561472857565b7fd7e6bcf80000000000000000000000000000000000000000000000000000000060005260046000fd5b90614791575080511561476757602081519101fd5b7fd6bda2750000000000000000000000000000000000000000000000000000000060005260046000fd5b815115806147d9575b6147a2575090565b6001600160a01b03907f9996b315000000000000000000000000000000000000000000000000000000006000521660045260246000fd5b50803b1561479a56fe9b779b17422d0df92223018b32b4d1fa46e071723d6817e2486d003becc55f00a2646970667358221220fa878c10c466ba8c422595efc57f9f79a9f1ac1286b3f845f2b6ba95703408cf64736f6c634300081c0033",
  "linkReferences": {},
  "deployedLinkReferences": {}
}