{
  "_format": "hh-sol-artifact-1",
  "contractName": "LoanManager",
  "sourceName": "contracts/LoanManager.sol",
  "abi": [
    {
      "inputs": [
        {
          "internalType": "address",
          "name": "target",
          "type": "address"
        }
      ],
      "name": "AddressEmptyCode",
      "type": "error"
    },
    {
      "inputs": [],
      "name": "ECDSAInvalidSignature",
      "type": "error"
    },
    {
      "inputs": [
        {
          "internalType": "uint256",
          "name": "length",
          "type": "uint256"
        }
      ],
      "name": "ECDSAInvalidSignatureLength",
      "type": "error"
    },
    {
      "inputs": [
        {
          "internalType": "bytes32",
          "name": "s",
          "type": "bytes32"
        }
      ],
      "name": "ECDSAInvalidSignatureS",
      "type": "error"
    },
    {
      "inputs": [
        {
          "internalType": "address",
          "name": "implementation",
          "type": "address"
        }
      ],
      "name": "ERC1967InvalidImplementation",
      "type": "error"
    },
    {
      "inputs": [],
      "name": "ERC1967NonPayable",
      "type": "error"
    },
    {
      "inputs": [],
      "name": "EnforcedPause",
      "type": "error"
    },
    {
      "inputs": [],
      "name": "ExpectedPause",
      "type": "error"
    },
    {
      "inputs": [],
      "name": "FailedCall",
      "type": "error"
    },
    {
      "inputs": [],
      "name": "InvalidInitialization",
      "type": "error"
    },
    {
      "inputs": [],
      "name": "NotInitializing",
      "type": "error"
    },
    {
      "inputs": [
        {
          "internalType": "address",
          "name": "owner",
          "type": "address"
        }
      ],
      "name": "OwnableInvalidOwner",
      "type": "error"
    },
    {
      "inputs": [
        {
          "internalType": "address",
          "name": "account",
          "type": "address"
        }
      ],
      "name": "OwnableUnauthorizedAccount",
      "type": "error"
    },
    {
      "inputs": [],
      "name": "ReentrancyGuardReentrantCall",
      "type": "error"
    },
    {
      "inputs": [
        {
          "internalType": "address",
          "name": "token",
          "type": "address"
        }
      ],
      "name": "SafeERC20FailedOperation",
      "type": "error"
    },
    {
      "inputs": [],
      "name": "UUPSUnauthorizedCallContext",
      "type": "error"
    },
    {
      "inputs": [
        {
          "internalType": "bytes32",
          "name": "slot",
          "type": "bytes32"
        }
      ],
      "name": "UUPSUnsupportedProxiableUUID",
      "type": "error"
    },
    {
      "anonymous": false,
      "inputs": [
        {
          "indexed": true,
          "internalType": "uint256",
          "name": "loanId",
          "type": "uint256"
        },
        {
          "indexed": false,
          "internalType": "uint256",
          "name": "amount",
          "type": "uint256"
        }
      ],
      "name": "CollateralLiquidated",
      "type": "event"
    },
    {
      "anonymous": false,
      "inputs": [
        {
          "indexed": true,
          "internalType": "address",
          "name": "borrower",
          "type": "address"
        },
        {
          "indexed": false,
          "internalType": "bool",
          "name": "authorized",
          "type": "bool"
        }
      ],
      "name": "FlashBorrowerUpdated",
      "type": "event"
    },
    {
      "anonymous": false,
      "inputs": [
        {
          "indexed": true,
          "internalType": "address",
          "name": "borrower",
          "type": "address"
        },
        {
          "indexed": true,
          "internalType": "address",
          "name": "asset",
          "type": "address"
        },
        {
          "indexed": false,
          "internalType": "uint256",
          "name": "amount",
          "type": "uint256"
        },
        {
          "indexed": false,
          "internalType": "uint256",
          "name": "fee",
          "type": "uint256"
        }
      ],
      "name": "FlashLoan",
      "type": "event"
    },
    {
      "anonymous": false,
      "inputs": [
        {
          "indexed": false,
          "internalType": "uint256",
          "name": "newFee",
          "type": "uint256"
        }
      ],
      "name": "FlashLoanFeeUpdated",
      "type": "event"
    },
    {
      "anonymous": false,
      "inputs": [
        {
          "indexed": false,
          "internalType": "uint64",
          "name": "version",
          "type": "uint64"
        }
      ],
      "name": "Initialized",
      "type": "event"
    },
    {
      "anonymous": false,
      "inputs": [
        {
          "indexed": true,
          "internalType": "uint256",
          "name": "loanId",
          "type": "uint256"
        },
        {
          "indexed": false,
          "internalType": "uint256",
          "name": "claimAmount",
          "type": "uint256"
        }
      ],
      "name": "InsuranceClaimed",
      "type": "event"
    },
    {
      "anonymous": false,
      "inputs": [
        {
          "indexed": true,
          "internalType": "uint256",
          "name": "loanId",
          "type": "uint256"
        },
        {
          "indexed": false,
          "internalType": "uint256",
          "name": "coverageAmount",
          "type": "uint256"
        },
        {
          "indexed": false,
          "internalType": "uint256",
          "name": "premium",
          "type": "uint256"
        }
      ],
      "name": "InsurancePurchased",
      "type": "event"
    },
    {
      "anonymous": false,
      "inputs": [
        {
          "indexed": true,
          "internalType": "uint256",
          "name": "loanId",
          "type": "uint256"
        },
        {
          "indexed": true,
          "internalType": "address",
          "name": "borrower",
          "type": "address"
        },
        {
          "indexed": false,
          "internalType": "uint256",
          "name": "amount",
          "type": "uint256"
        },
        {
          "indexed": false,
          "internalType": "uint256",
          "name": "creditScore",
          "type": "uint256"
        }
      ],
      "name": "LoanCreated",
      "type": "event"
    },
    {
      "anonymous": false,
      "inputs": [
        {
          "indexed": true,
          "internalType": "uint256",
          "name": "loanId",
          "type": "uint256"
        }
      ],
      "name": "LoanDefaulted",
      "type": "event"
    },
    {
      "anonymous": false,
      "inputs": [
        {
          "indexed": true,
          "internalType": "uint256",
          "name": "loanId",
          "type": "uint256"
        },
        {
          "indexed": false,
          "internalType": "uint256",
          "name": "amount",
          "type": "uint256"
        }
      ],
      "name": "LoanRepaid",
      "type": "event"
    },
    {
      "anonymous": false,
      "inputs": [
        {
          "indexed": true,
          "internalType": "bytes32",
          "name": "txHash",
          "type": "bytes32"
        },
        {
          "indexed": true,
          "internalType": "address",
          "name": "user",
          "type": "address"
        },
        {
          "indexed": false,
          "internalType": "uint256",
          "name": "gasUsed",
          "type": "uint256"
        }
      ],
      "name": "MetaTxExecuted",
      "type": "event"
    },
    {
      "anonymous": false,
      "inputs": [
        {
          "indexed": true,
          "internalType": "address",
          "name": "previousOwner",
          "type": "address"
        },
        {
          "indexed": true,
          "internalType": "address",
          "name": "newOwner",
          "type": "address"
        }
      ],
      "name": "OwnershipTransferred",
      "type": "event"
    },
    {
      "anonymous": false,
      "inputs": [
        {
          "indexed": false,
          "internalType": "address",
          "name": "account",
          "type": "address"
        }
      ],
      "name": "Paused",
      "type": "event"
    },
    {
      "anonymous": false,
      "inputs": [
        {
          "indexed": true,
          "internalType": "uint256",
          "name": "marketId",
          "type": "uint256"
        },
        {
          "indexed": true,
          "internalType": "address",
          "name": "user",
          "type": "address"
        },
        {
          "indexed": false,
          "internalType": "bool",
          "name": "outcome",
          "type": "bool"
        },
        {
          "indexed": false,
          "internalType": "uint256",
          "name": "amount",
          "type": "uint256"
        }
      ],
      "name": "PredictionBetPlaced",
      "type": "event"
    },
    {
      "anonymous": false,
      "inputs": [
        {
          "indexed": true,
          "internalType": "uint256",
          "name": "marketId",
          "type": "uint256"
        },
        {
          "indexed": false,
          "internalType": "string",
          "name": "description",
          "type": "string"
        },
        {
          "indexed": false,
          "internalType": "uint256",
          "name": "endTime",
          "type": "uint256"
        },
        {
          "indexed": false,
          "internalType": "address",
          "name": "oracle",
          "type": "address"
        }
      ],
      "name": "PredictionMarketCreated",
      "type": "event"
    },
    {
      "anonymous": false,
      "inputs": [
        {
          "indexed": true,
          "internalType": "uint256",
          "name": "marketId",
          "type": "uint256"
        },
        {
          "indexed": false,
          "internalType": "bool",
          "name": "outcome",
          "type": "bool"
        }
      ],
      "name": "PredictionMarketResolved",
      "type": "event"
    },
    {
      "anonymous": false,
      "inputs": [
        {
          "indexed": true,
          "internalType": "uint256",
          "name": "marketId",
          "type": "uint256"
        },
        {
          "indexed": true,
          "internalType": "address",
          "name": "user",
          "type": "address"
        },
        {
          "indexed": false,
          "internalType": "uint256",
          "name": "amount",
          "type": "uint256"
        }
      ],
      "name": "PredictionWinningsClaimed",
      "type": "event"
    },
    {
      "anonymous": false,
      "inputs": [
        {
          "indexed": true,
          "internalType": "uint256",
          "name": "loanId",
          "type": "uint256"
        },
        {
          "indexed": false,
          "internalType": "uint256",
          "name": "newRate",
          "type": "uint256"
        }
      ],
      "name": "RateUpdated",
      "type": "event"
    },
    {
      "anonymous": false,
      "inputs": [
        {
          "indexed": false,
          "internalType": "address",
          "name": "account",
          "type": "address"
        }
      ],
      "name": "Unpaused",
      "type": "event"
    },
    {
      "anonymous": false,
      "inputs": [
        {
          "indexed": true,
          "internalType": "address",
          "name": "implementation",
          "type": "address"
        }
      ],
      "name": "Upgraded",
      "type": "event"
    },
    {
      "anonymous": false,
      "inputs": [
        {
          "indexed": true,
          "internalType": "uint256",
          "name": "loanId",
          "type": "uint256"
        },
        {
          "indexed": true,
          "internalType": "address",
          "name": "lender",
          "type": "address"
        },
        {
          "indexed": false,
          "internalType": "uint256",
          "name": "amount",
          "type": "uint256"
        }
      ],
      "name": "YieldDistributed",
      "type": "event"
    },
    {
      "anonymous": false,
      "inputs": [
        {
          "indexed": true,
          "internalType": "address",
          "name": "user",
          "type": "address"
        },
        {
          "indexed": true,
          "internalType": "address",
          "name": "token",
          "type": "address"
        },
        {
          "indexed": false,
          "internalType": "uint256",
          "name": "amount",
          "type": "uint256"
        }
      ],
      "name": "YieldFarmRewardsClaimed",
      "type": "event"
    },
    {
      "anonymous": false,
      "inputs": [
        {
          "indexed": true,
          "internalType": "address",
          "name": "user",
          "type": "address"
        },
        {
          "indexed": true,
          "internalType": "address",
          "name": "token",
          "type": "address"
        },
        {
          "indexed": false,
          "internalType": "uint256",
          "name": "amount",
          "type": "uint256"
        }
      ],
      "name": "YieldFarmStaked",
      "type": "event"
    },
    {
      "anonymous": false,
      "inputs": [
        {
          "indexed": true,
          "internalType": "address",
          "name": "user",
          "type": "address"
        },
        {
          "indexed": true,
          "internalType": "address",
          "name": "token",
          "type": "address"
        },
        {
          "indexed": false,
          "internalType": "uint256",
          "name": "amount",
          "type": "uint256"
        }
      ],
      "name": "YieldFarmUnstaked",
      "type": "event"
    },
    {
      "inputs": [],
      "name": "META_TX_GAS_LIMIT",
      "outputs": [
        {
          "internalType": "uint256",
          "name": "",
          "type": "uint256"
        }
      ],
      "stateMutability": "view",
      "type": "function"
    },
    {
      "inputs": [],
      "name": "UPGRADE_INTERFACE_VERSION",
      "outputs": [
        {
          "internalType": "string",
          "name": "",
          "type": "string"
        }
      ],
      "stateMutability": "view",
      "type": "function"
    },
    {
      "inputs": [],
      "name": "agriCreditToken",
      "outputs": [
        {
          "internalType": "contract IERC20",
          "name": "",
          "type": "address"
        }
      ],
      "stateMutability": "view",
      "type": "function"
    },
    {
      "inputs": [],
      "name": "aiPredictor",
      "outputs": [
        {
          "internalType": "address",
          "name": "",
          "type": "address"
        }
      ],
      "stateMutability": "view",
      "type": "function"
    },
    {
      "inputs": [
        {
          "internalType": "address",
          "name": "",
          "type": "address"
        }
      ],
      "name": "authorizedFlashBorrowers",
      "outputs": [
        {
          "internalType": "bool",
          "name": "",
          "type": "bool"
        }
      ],
      "stateMutability": "view",
      "type": "function"
    },
    {
      "inputs": [
        {
          "internalType": "uint256",
          "name": "_loanId",
          "type": "uint256"
        }
      ],
      "name": "calculateTotalOwed",
      "outputs": [
        {
          "internalType": "uint256",
          "name": "",
          "type": "uint256"
        }
      ],
      "stateMutability": "view",
      "type": "function"
    },
    {
      "inputs": [
        {
          "internalType": "uint256",
          "name": "_loanId",
          "type": "uint256"
        }
      ],
      "name": "claimInsurance",
      "outputs": [],
      "stateMutability": "nonpayable",
      "type": "function"
    },
    {
      "inputs": [
        {
          "internalType": "uint256",
          "name": "marketId",
          "type": "uint256"
        }
      ],
      "name": "claimPredictionWinnings",
      "outputs": [],
      "stateMutability": "nonpayable",
      "type": "function"
    },
    {
      "inputs": [
        {
          "internalType": "address",
          "name": "token",
          "type": "address"
        }
      ],
      "name": "claimYieldFarmRewards",
      "outputs": [],
      "stateMutability": "nonpayable",
      "type": "function"
    },
    {
      "inputs": [
        {
          "internalType": "address",
          "name": "_borrower",
          "type": "address"
        },
        {
          "internalType": "uint256",
          "name": "_amount",
          "type": "uint256"
        },
        {
          "internalType": "uint256",
          "name": "_creditScore",
          "type": "uint256"
        },
        {
          "internalType": "address",
          "name": "_collateralToken",
          "type": "address"
        },
        {
          "internalType": "uint256",
          "name": "_collateralAmount",
          "type": "uint256"
        }
      ],
      "name": "createLoan",
      "outputs": [
        {
          "internalType": "uint256",
          "name": "",
          "type": "uint256"
        }
      ],
      "stateMutability": "nonpayable",
      "type": "function"
    },
    {
      "inputs": [
        {
          "internalType": "string",
          "name": "description",
          "type": "string"
        },
        {
          "internalType": "uint256",
          "name": "endTime",
          "type": "uint256"
        },
        {
          "internalType": "address",
          "name": "oracle",
          "type": "address"
        }
      ],
      "name": "createPredictionMarket",
      "outputs": [
        {
          "internalType": "uint256",
          "name": "",
          "type": "uint256"
        }
      ],
      "stateMutability": "nonpayable",
      "type": "function"
    },
    {
      "inputs": [
        {
          "internalType": "address",
          "name": "user",
          "type": "address"
        },
        {
          "internalType": "bytes",
          "name": "functionSignature",
          "type": "bytes"
        },
        {
          "internalType": "bytes32",
          "name": "sigR",
          "type": "bytes32"
        },
        {
          "internalType": "bytes32",
          "name": "sigS",
          "type": "bytes32"
        },
        {
          "internalType": "uint8",
          "name": "sigV",
          "type": "uint8"
        },
        {
          "internalType": "uint256",
          "name": "nonce",
          "type": "uint256"
        },
        {
          "internalType": "uint256",
          "name": "gasPrice",
          "type": "uint256"
        },
        {
          "internalType": "uint256",
          "name": "gasLimit",
          "type": "uint256"
        }
      ],
      "name": "executeMetaTx",
      "outputs": [
        {
          "internalType": "bytes",
          "name": "",
          "type": "bytes"
        }
      ],
      "stateMutability": "nonpayable",
      "type": "function"
    },
    {
      "inputs": [
        {
          "internalType": "bytes32",
          "name": "",
          "type": "bytes32"
        }
      ],
      "name": "executedMetaTx",
      "outputs": [
        {
          "internalType": "bool",
          "name": "",
          "type": "bool"
        }
      ],
      "stateMutability": "view",
      "type": "function"
    },
    {
      "inputs": [
        {
          "internalType": "address",
          "name": "asset",
          "type": "address"
        },
        {
          "internalType": "uint256",
          "name": "amount",
          "type": "uint256"
        },
        {
          "internalType": "bytes",
          "name": "params",
          "type": "bytes"
        }
      ],
      "name": "flashLoan",
      "outputs": [],
      "stateMutability": "nonpayable",
      "type": "function"
    },
    {
      "inputs": [],
      "name": "flashLoanFee",
      "outputs": [
        {
          "internalType": "uint256",
          "name": "",
          "type": "uint256"
        }
      ],
      "stateMutability": "view",
      "type": "function"
    },
    {
      "inputs": [
        {
          "internalType": "address",
          "name": "_token",
          "type": "address"
        },
        {
          "internalType": "uint256",
          "name": "_amount",
          "type": "uint256"
        }
      ],
      "name": "getCollateralValue",
      "outputs": [
        {
          "internalType": "uint256",
          "name": "",
          "type": "uint256"
        }
      ],
      "stateMutability": "view",
      "type": "function"
    },
    {
      "inputs": [
        {
          "internalType": "uint256",
          "name": "_loanId",
          "type": "uint256"
        }
      ],
      "name": "getDynamicRate",
      "outputs": [
        {
          "internalType": "uint256",
          "name": "",
          "type": "uint256"
        }
      ],
      "stateMutability": "view",
      "type": "function"
    },
    {
      "inputs": [
        {
          "internalType": "uint256",
          "name": "_loanId",
          "type": "uint256"
        }
      ],
      "name": "getLoan",
      "outputs": [
        {
          "components": [
            {
              "internalType": "uint256",
              "name": "id",
              "type": "uint256"
            },
            {
              "internalType": "address",
              "name": "borrower",
              "type": "address"
            },
            {
              "internalType": "uint256",
              "name": "amount",
              "type": "uint256"
            },
            {
              "internalType": "uint256",
              "name": "interestRate",
              "type": "uint256"
            },
            {
              "internalType": "uint256",
              "name": "duration",
              "type": "uint256"
            },
            {
              "internalType": "uint256",
              "name": "startTime",
              "type": "uint256"
            },
            {
              "internalType": "uint256",
              "name": "repaidAmount",
              "type": "uint256"
            },
            {
              "internalType": "uint256",
              "name": "collateralAmount",
              "type": "uint256"
            },
            {
              "internalType": "address",
              "name": "collateralToken",
              "type": "address"
            },
            {
              "internalType": "uint256",
              "name": "creditScore",
              "type": "uint256"
            },
            {
              "internalType": "uint256",
              "name": "gracePeriod",
              "type": "uint256"
            },
            {
              "internalType": "bool",
              "name": "isActive",
              "type": "bool"
            },
            {
              "internalType": "bool",
              "name": "isRepaid",
              "type": "bool"
            },
            {
              "internalType": "bool",
              "name": "isDefaulted",
              "type": "bool"
            }
          ],
          "internalType": "struct LoanManager.Loan",
          "name": "",
          "type": "tuple"
        }
      ],
      "stateMutability": "view",
      "type": "function"
    },
    {
      "inputs": [
        {
          "internalType": "uint256",
          "name": "_loanId",
          "type": "uint256"
        }
      ],
      "name": "getLoanDetails",
      "outputs": [
        {
          "components": [
            {
              "internalType": "uint256",
              "name": "id",
              "type": "uint256"
            },
            {
              "internalType": "address",
              "name": "borrower",
              "type": "address"
            },
            {
              "internalType": "uint256",
              "name": "amount",
              "type": "uint256"
            },
            {
              "internalType": "uint256",
              "name": "interestRate",
              "type": "uint256"
            },
            {
              "internalType": "uint256",
              "name": "duration",
              "type": "uint256"
            },
            {
              "internalType": "uint256",
              "name": "startTime",
              "type": "uint256"
            },
            {
              "internalType": "uint256",
              "name": "repaidAmount",
              "type": "uint256"
            },
            {
              "internalType": "uint256",
              "name": "collateralAmount",
              "type": "uint256"
            },
            {
              "internalType": "address",
              "name": "collateralToken",
              "type": "address"
            },
            {
              "internalType": "uint256",
              "name": "creditScore",
              "type": "uint256"
            },
            {
              "internalType": "uint256",
              "name": "gracePeriod",
              "type": "uint256"
            },
            {
              "internalType": "bool",
              "name": "isActive",
              "type": "bool"
            },
            {
              "internalType": "bool",
              "name": "isRepaid",
              "type": "bool"
            },
            {
              "internalType": "bool",
              "name": "isDefaulted",
              "type": "bool"
            }
          ],
          "internalType": "struct LoanManager.Loan",
          "name": "",
          "type": "tuple"
        }
      ],
      "stateMutability": "view",
      "type": "function"
    },
    {
      "inputs": [
        {
          "internalType": "address",
          "name": "user",
          "type": "address"
        }
      ],
      "name": "getMetaTxNonce",
      "outputs": [
        {
          "internalType": "uint256",
          "name": "",
          "type": "uint256"
        }
      ],
      "stateMutability": "view",
      "type": "function"
    },
    {
      "inputs": [
        {
          "internalType": "uint256",
          "name": "_loanId",
          "type": "uint256"
        }
      ],
      "name": "getRequiredCollateral",
      "outputs": [
        {
          "internalType": "uint256",
          "name": "",
          "type": "uint256"
        }
      ],
      "stateMutability": "view",
      "type": "function"
    },
    {
      "inputs": [
        {
          "internalType": "address",
          "name": "_user",
          "type": "address"
        }
      ],
      "name": "getUserActiveLoans",
      "outputs": [
        {
          "internalType": "uint256[]",
          "name": "",
          "type": "uint256[]"
        }
      ],
      "stateMutability": "view",
      "type": "function"
    },
    {
      "inputs": [
        {
          "internalType": "address",
          "name": "_user",
          "type": "address"
        }
      ],
      "name": "getUserLoans",
      "outputs": [
        {
          "internalType": "uint256[]",
          "name": "",
          "type": "uint256[]"
        }
      ],
      "stateMutability": "view",
      "type": "function"
    },
    {
      "inputs": [
        {
          "internalType": "address",
          "name": "user",
          "type": "address"
        },
        {
          "internalType": "address",
          "name": "token",
          "type": "address"
        }
      ],
      "name": "getYieldFarmInfo",
      "outputs": [
        {
          "internalType": "uint256",
          "name": "stakedAmount",
          "type": "uint256"
        },
        {
          "internalType": "uint256",
          "name": "pendingRewards",
          "type": "uint256"
        },
        {
          "internalType": "uint256",
          "name": "totalRewards",
          "type": "uint256"
        }
      ],
      "stateMutability": "view",
      "type": "function"
    },
    {
      "inputs": [],
      "name": "identityRegistry",
      "outputs": [
        {
          "internalType": "contract IdentityRegistry",
          "name": "",
          "type": "address"
        }
      ],
      "stateMutability": "view",
      "type": "function"
    },
    {
      "inputs": [
        {
          "internalType": "address",
          "name": "_agriCreditToken",
          "type": "address"
        },
        {
          "internalType": "address",
          "name": "_identityRegistry",
          "type": "address"
        },
        {
          "internalType": "address",
          "name": "_liquidityPool",
          "type": "address"
        },
        {
          "internalType": "address",
          "name": "_yieldToken",
          "type": "address"
        },
        {
          "internalType": "address",
          "name": "_stableToken",
          "type": "address"
        },
        {
          "internalType": "address",
          "name": "_priceOracle",
          "type": "address"
        },
        {
          "internalType": "address",
          "name": "_insurancePool",
          "type": "address"
        },
        {
          "internalType": "address",
          "name": "_yieldFarm",
          "type": "address"
        },
        {
          "internalType": "address",
          "name": "_predictionMarket",
          "type": "address"
        },
        {
          "internalType": "address",
          "name": "_reputation",
          "type": "address"
        },
        {
          "internalType": "address",
          "name": "_aiPredictor",
          "type": "address"
        },
        {
          "internalType": "address",
          "name": "_zkVerifier",
          "type": "address"
        }
      ],
      "name": "initialize",
      "outputs": [],
      "stateMutability": "nonpayable",
      "type": "function"
    },
    {
      "inputs": [],
      "name": "insurancePool",
      "outputs": [
        {
          "internalType": "contract IInsurancePool",
          "name": "",
          "type": "address"
        }
      ],
      "stateMutability": "view",
      "type": "function"
    },
    {
      "inputs": [],
      "name": "insuranceUtilizationRate",
      "outputs": [
        {
          "internalType": "uint256",
          "name": "",
          "type": "uint256"
        }
      ],
      "stateMutability": "view",
      "type": "function"
    },
    {
      "inputs": [
        {
          "internalType": "uint256",
          "name": "_loanId",
          "type": "uint256"
        }
      ],
      "name": "isLoanDefaulted",
      "outputs": [
        {
          "internalType": "bool",
          "name": "",
          "type": "bool"
        }
      ],
      "stateMutability": "view",
      "type": "function"
    },
    {
      "inputs": [
        {
          "internalType": "uint256",
          "name": "_loanId",
          "type": "uint256"
        }
      ],
      "name": "liquidateLoan",
      "outputs": [],
      "stateMutability": "nonpayable",
      "type": "function"
    },
    {
      "inputs": [],
      "name": "liquidityPool",
      "outputs": [
        {
          "internalType": "contract LiquidityPool",
          "name": "",
          "type": "address"
        }
      ],
      "stateMutability": "view",
      "type": "function"
    },
    {
      "inputs": [
        {
          "internalType": "uint256",
          "name": "",
          "type": "uint256"
        }
      ],
      "name": "loanInsurance",
      "outputs": [
        {
          "internalType": "uint256",
          "name": "loanId",
          "type": "uint256"
        },
        {
          "internalType": "uint256",
          "name": "coverageAmount",
          "type": "uint256"
        },
        {
          "internalType": "uint256",
          "name": "premium",
          "type": "uint256"
        },
        {
          "internalType": "uint256",
          "name": "coveragePeriod",
          "type": "uint256"
        },
        {
          "internalType": "bool",
          "name": "isActive",
          "type": "bool"
        },
        {
          "internalType": "uint256",
          "name": "startTime",
          "type": "uint256"
        }
      ],
      "stateMutability": "view",
      "type": "function"
    },
    {
      "inputs": [
        {
          "internalType": "uint256",
          "name": "",
          "type": "uint256"
        }
      ],
      "name": "loanRateParams",
      "outputs": [
        {
          "internalType": "uint256",
          "name": "baseRate",
          "type": "uint256"
        },
        {
          "internalType": "uint256",
          "name": "utilizationMultiplier",
          "type": "uint256"
        },
        {
          "internalType": "uint256",
          "name": "creditScoreAdjustment",
          "type": "uint256"
        },
        {
          "internalType": "uint256",
          "name": "timeBasedDecay",
          "type": "uint256"
        },
        {
          "internalType": "uint256",
          "name": "lastUpdateTime",
          "type": "uint256"
        }
      ],
      "stateMutability": "view",
      "type": "function"
    },
    {
      "inputs": [
        {
          "internalType": "uint256",
          "name": "",
          "type": "uint256"
        }
      ],
      "name": "loanTerms",
      "outputs": [
        {
          "internalType": "uint256",
          "name": "minAmount",
          "type": "uint256"
        },
        {
          "internalType": "uint256",
          "name": "maxAmount",
          "type": "uint256"
        },
        {
          "internalType": "uint256",
          "name": "baseInterestRate",
          "type": "uint256"
        },
        {
          "internalType": "uint256",
          "name": "duration",
          "type": "uint256"
        },
        {
          "internalType": "uint256",
          "name": "collateralRatio",
          "type": "uint256"
        }
      ],
      "stateMutability": "view",
      "type": "function"
    },
    {
      "inputs": [
        {
          "internalType": "uint256",
          "name": "",
          "type": "uint256"
        }
      ],
      "name": "loans",
      "outputs": [
        {
          "internalType": "uint256",
          "name": "id",
          "type": "uint256"
        },
        {
          "internalType": "address",
          "name": "borrower",
          "type": "address"
        },
        {
          "internalType": "uint256",
          "name": "amount",
          "type": "uint256"
        },
        {
          "internalType": "uint256",
          "name": "interestRate",
          "type": "uint256"
        },
        {
          "internalType": "uint256",
          "name": "duration",
          "type": "uint256"
        },
        {
          "internalType": "uint256",
          "name": "startTime",
          "type": "uint256"
        },
        {
          "internalType": "uint256",
          "name": "repaidAmount",
          "type": "uint256"
        },
        {
          "internalType": "uint256",
          "name": "collateralAmount",
          "type": "uint256"
        },
        {
          "internalType": "address",
          "name": "collateralToken",
          "type": "address"
        },
        {
          "internalType": "uint256",
          "name": "creditScore",
          "type": "uint256"
        },
        {
          "internalType": "uint256",
          "name": "gracePeriod",
          "type": "uint256"
        },
        {
          "internalType": "bool",
          "name": "isActive",
          "type": "bool"
        },
        {
          "internalType": "bool",
          "name": "isRepaid",
          "type": "bool"
        },
        {
          "internalType": "bool",
          "name": "isDefaulted",
          "type": "bool"
        }
      ],
      "stateMutability": "view",
      "type": "function"
    },
    {
      "inputs": [],
      "name": "nextLoanId",
      "outputs": [
        {
          "internalType": "uint256",
          "name": "",
          "type": "uint256"
        }
      ],
      "stateMutability": "view",
      "type": "function"
    },
    {
      "inputs": [],
      "name": "nextMarketId",
      "outputs": [
        {
          "internalType": "uint256",
          "name": "",
          "type": "uint256"
        }
      ],
      "stateMutability": "view",
      "type": "function"
    },
    {
      "inputs": [],
      "name": "owner",
      "outputs": [
        {
          "internalType": "address",
          "name": "",
          "type": "address"
        }
      ],
      "stateMutability": "view",
      "type": "function"
    },
    {
      "inputs": [],
      "name": "pause",
      "outputs": [],
      "stateMutability": "nonpayable",
      "type": "function"
    },
    {
      "inputs": [],
      "name": "paused",
      "outputs": [
        {
          "internalType": "bool",
          "name": "",
          "type": "bool"
        }
      ],
      "stateMutability": "view",
      "type": "function"
    },
    {
      "inputs": [
        {
          "internalType": "uint256",
          "name": "marketId",
          "type": "uint256"
        },
        {
          "internalType": "bool",
          "name": "outcome",
          "type": "bool"
        },
        {
          "internalType": "uint256",
          "name": "amount",
          "type": "uint256"
        }
      ],
      "name": "placePredictionBet",
      "outputs": [],
      "stateMutability": "nonpayable",
      "type": "function"
    },
    {
      "inputs": [],
      "name": "predictionMarket",
      "outputs": [
        {
          "internalType": "contract IPredictionMarket",
          "name": "",
          "type": "address"
        }
      ],
      "stateMutability": "view",
      "type": "function"
    },
    {
      "inputs": [
        {
          "internalType": "uint256",
          "name": "",
          "type": "uint256"
        }
      ],
      "name": "predictionMarkets",
      "outputs": [
        {
          "internalType": "uint256",
          "name": "id",
          "type": "uint256"
        },
        {
          "internalType": "string",
          "name": "description",
          "type": "string"
        },
        {
          "internalType": "uint256",
          "name": "endTime",
          "type": "uint256"
        },
        {
          "internalType": "address",
          "name": "oracle",
          "type": "address"
        },
        {
          "internalType": "bool",
          "name": "resolved",
          "type": "bool"
        },
        {
          "internalType": "bool",
          "name": "outcome",
          "type": "bool"
        },
        {
          "internalType": "uint256",
          "name": "totalPool",
          "type": "uint256"
        }
      ],
      "stateMutability": "view",
      "type": "function"
    },
    {
      "inputs": [],
      "name": "priceOracle",
      "outputs": [
        {
          "internalType": "contract IPriceOracle",
          "name": "",
          "type": "address"
        }
      ],
      "stateMutability": "view",
      "type": "function"
    },
    {
      "inputs": [],
      "name": "proxiableUUID",
      "outputs": [
        {
          "internalType": "bytes32",
          "name": "",
          "type": "bytes32"
        }
      ],
      "stateMutability": "view",
      "type": "function"
    },
    {
      "inputs": [
        {
          "internalType": "uint256",
          "name": "_loanId",
          "type": "uint256"
        },
        {
          "internalType": "uint256",
          "name": "_coverageAmount",
          "type": "uint256"
        },
        {
          "internalType": "uint256",
          "name": "_coveragePeriod",
          "type": "uint256"
        }
      ],
      "name": "purchaseInsurance",
      "outputs": [],
      "stateMutability": "payable",
      "type": "function"
    },
    {
      "inputs": [],
      "name": "renounceOwnership",
      "outputs": [],
      "stateMutability": "nonpayable",
      "type": "function"
    },
    {
      "inputs": [
        {
          "internalType": "uint256",
          "name": "_loanId",
          "type": "uint256"
        },
        {
          "internalType": "uint256",
          "name": "_amount",
          "type": "uint256"
        }
      ],
      "name": "repayLoan",
      "outputs": [],
      "stateMutability": "nonpayable",
      "type": "function"
    },
    {
      "inputs": [],
      "name": "reputation",
      "outputs": [
        {
          "internalType": "contract IReputation",
          "name": "",
          "type": "address"
        }
      ],
      "stateMutability": "view",
      "type": "function"
    },
    {
      "inputs": [
        {
          "internalType": "uint256",
          "name": "marketId",
          "type": "uint256"
        },
        {
          "internalType": "bool",
          "name": "outcome",
          "type": "bool"
        }
      ],
      "name": "resolvePredictionMarket",
      "outputs": [],
      "stateMutability": "nonpayable",
      "type": "function"
    },
    {
      "inputs": [
        {
          "internalType": "address",
          "name": "borrower",
          "type": "address"
        },
        {
          "internalType": "bool",
          "name": "authorized",
          "type": "bool"
        }
      ],
      "name": "setAuthorizedFlashBorrower",
      "outputs": [],
      "stateMutability": "nonpayable",
      "type": "function"
    },
    {
      "inputs": [
        {
          "internalType": "uint256",
          "name": "newFee",
          "type": "uint256"
        }
      ],
      "name": "setFlashLoanFee",
      "outputs": [],
      "stateMutability": "nonpayable",
      "type": "function"
    },
    {
      "inputs": [],
      "name": "stableToken",
      "outputs": [
        {
          "internalType": "contract IERC20",
          "name": "",
          "type": "address"
        }
      ],
      "stateMutability": "view",
      "type": "function"
    },
    {
      "inputs": [
        {
          "internalType": "address",
          "name": "token",
          "type": "address"
        },
        {
          "internalType": "uint256",
          "name": "amount",
          "type": "uint256"
        }
      ],
      "name": "stakeInYieldFarm",
      "outputs": [],
      "stateMutability": "nonpayable",
      "type": "function"
    },
    {
      "inputs": [],
      "name": "totalInsuredAmount",
      "outputs": [
        {
          "internalType": "uint256",
          "name": "",
          "type": "uint256"
        }
      ],
      "stateMutability": "view",
      "type": "function"
    },
    {
      "inputs": [],
      "name": "totalLoansFunded",
      "outputs": [
        {
          "internalType": "uint256",
          "name": "",
          "type": "uint256"
        }
      ],
      "stateMutability": "view",
      "type": "function"
    },
    {
      "inputs": [],
      "name": "totalRepaid",
      "outputs": [
        {
          "internalType": "uint256",
          "name": "",
          "type": "uint256"
        }
      ],
      "stateMutability": "view",
      "type": "function"
    },
    {
      "inputs": [
        {
          "internalType": "address",
          "name": "",
          "type": "address"
        }
      ],
      "name": "totalStakedPerToken",
      "outputs": [
        {
          "internalType": "uint256",
          "name": "",
          "type": "uint256"
        }
      ],
      "stateMutability": "view",
      "type": "function"
    },
    {
      "inputs": [
        {
          "internalType": "address",
          "name": "newOwner",
          "type": "address"
        }
      ],
      "name": "transferOwnership",
      "outputs": [],
      "stateMutability": "nonpayable",
      "type": "function"
    },
    {
      "inputs": [],
      "name": "unpause",
      "outputs": [],
      "stateMutability": "nonpayable",
      "type": "function"
    },
    {
      "inputs": [
        {
          "internalType": "address",
          "name": "token",
          "type": "address"
        },
        {
          "internalType": "uint256",
          "name": "amount",
          "type": "uint256"
        }
      ],
      "name": "unstakeFromYieldFarm",
      "outputs": [],
      "stateMutability": "nonpayable",
      "type": "function"
    },
    {
      "inputs": [
        {
          "internalType": "uint256",
          "name": "_loanId",
          "type": "uint256"
        }
      ],
      "name": "updateDynamicRates",
      "outputs": [],
      "stateMutability": "nonpayable",
      "type": "function"
    },
    {
      "inputs": [
        {
          "internalType": "uint256",
          "name": "_tier",
          "type": "uint256"
        },
        {
          "components": [
            {
              "internalType": "uint256",
              "name": "minAmount",
              "type": "uint256"
            },
            {
              "internalType": "uint256",
              "name": "maxAmount",
              "type": "uint256"
            },
            {
              "internalType": "uint256",
              "name": "baseInterestRate",
              "type": "uint256"
            },
            {
              "internalType": "uint256",
              "name": "duration",
              "type": "uint256"
            },
            {
              "internalType": "uint256",
              "name": "collateralRatio",
              "type": "uint256"
            }
          ],
          "internalType": "struct LoanManager.LoanTerms",
          "name": "_terms",
          "type": "tuple"
        }
      ],
      "name": "updateLoanTerms",
      "outputs": [],
      "stateMutability": "nonpayable",
      "type": "function"
    },
    {
      "inputs": [
        {
          "internalType": "address",
          "name": "newImplementation",
          "type": "address"
        },
        {
          "internalType": "bytes",
          "name": "data",
          "type": "bytes"
        }
      ],
      "name": "upgradeToAndCall",
      "outputs": [],
      "stateMutability": "payable",
      "type": "function"
    },
    {
      "inputs": [
        {
          "internalType": "address",
          "name": "",
          "type": "address"
        },
        {
          "internalType": "uint256",
          "name": "",
          "type": "uint256"
        }
      ],
      "name": "userLoans",
      "outputs": [
        {
          "internalType": "uint256",
          "name": "",
          "type": "uint256"
        }
      ],
      "stateMutability": "view",
      "type": "function"
    },
    {
      "inputs": [
        {
          "internalType": "address",
          "name": "",
          "type": "address"
        },
        {
          "internalType": "uint256",
          "name": "",
          "type": "uint256"
        }
      ],
      "name": "userYieldPositions",
      "outputs": [
        {
          "internalType": "address",
          "name": "token",
          "type": "address"
        },
        {
          "internalType": "uint256",
          "name": "stakedAmount",
          "type": "uint256"
        },
        {
          "internalType": "uint256",
          "name": "stakingStart",
          "type": "uint256"
        },
        {
          "internalType": "uint256",
          "name": "lastRewardClaim",
          "type": "uint256"
        },
        {
          "internalType": "uint256",
          "name": "accumulatedRewards",
          "type": "uint256"
        }
      ],
      "stateMutability": "view",
      "type": "function"
    },
    {
      "inputs": [],
      "name": "yieldFarm",
      "outputs": [
        {
          "internalType": "contract IYieldFarm",
          "name": "",
          "type": "address"
        }
      ],
      "stateMutability": "view",
      "type": "function"
    },
    {
      "inputs": [],
      "name": "yieldToken",
      "outputs": [
        {
          "internalType": "contract YieldToken",
          "name": "",
          "type": "address"
        }
      ],
      "stateMutability": "view",
      "type": "function"
    },
    {
      "inputs": [],
      "name": "zkVerifier",
      "outputs": [
        {
          "internalType": "address",
          "name": "",
          "type": "address"
        }
      ],
      "stateMutability": "view",
      "type": "function"
    }
  ],
  "bytecode": "0x60a0806040523460295730608052615833908161002f8239608051818181612ad40152612b730152f35b600080fdfe608080604052600436101561001357600080fd5b600090813560e01c908162b850121461421c5750806302bf321f1461419e57806309cd4e261461417f5780630b800f4814613c7257806311e140fe14613982578063134e18f41461395b5780631e092efb146139345780632630c12f1461390d57806329194ee3146138ee5780632b037c57146138c65780632c1688cb1461385a578063328397561461383357806334eb944c146137d7578063355679911461362c5780633b45e918146136055780633f4ba83a14613546578063406ef2ef146135285780634226aa501461329057806342bf52401461323357806347ecd287146130d15780634847cdc8146130b35780634873354314612dbe5780634f1ef28614612b33578063504006ca146129f057806352d1902d14612ab95780635884bc0314612a9b5780635c975abb14612a595780635ca0ea8f14612a1c578063665a11ca146129f557806366877b8d146129f05780636892f2ea146129d2578063715018a61461293957806376d5de85146129125780638456cb5914612879578063867fbf5f1461274e57806387c51459146127305780638a700b53146123c15780638da5cb5b1461237b5780638df7ca0414612355578063955ff84c1461209757806396703930146120575780639a844f5b1461201f578063a2dee32c14611e75578063a72dad0514611e57578063a897b9ef14611a3b578063a9d75b2b14611a14578063ab2adc00146119ed578063ad3cb1cc1461198c578063b10b8a2c1461192f578063b52313d214611912578063b8e9c533146117b0578063be4399d114611729578063c33326a51461170b578063c52164c6146116e4578063c724007a146116c6578063ccdd9f5d146114df578063d03e1ff514611478578063d6df096d14611451578063d8bad5bd146113fa578063dbf28e7914611209578063def114b6146111e2578063e0232b4214610df2578063e1176337146107c3578063e1ec3c68146106ea578063e8cbab09146106c1578063e92d0d5d14610626578063ec7db848146105a2578063f2fde38b146105755763f85920d81461031757600080fd5b34610572576020366003190112610572576004356103336151f4565b808252600c60205260408220818352600f6020526040832090600482019060ff8254161561052e5761036e60ff600b83015460101c16614fbf565b61038160058401546003850154906148a3565b42116104ea57849260206001600160a01b03600654166024604051809781937ff85920d80000000000000000000000000000000000000000000000000000000083528a60048401525af19384156104df5786946104a6575b5083156104625785846001600160a01b03600183969561040a82869897879860ff1981541690550154601a54614896565b601a5501541682f1156104575760207f901ee0a32af2afa3bdb2f8df0cdb3197edca1d21293b66400ec23a5e5940bc9391604051908152a260016000805160206157de8339815191525580f35b6040513d84823e3d90fd5b606460405162461bcd60e51b815260206004820152601360248201527f4e6f20636c61696d61626c6520616d6f756e74000000000000000000000000006044820152fd5b9093506020813d6020116104d7575b816104c260209383614338565b810103126104d2575192386103d9565b600080fd5b3d91506104b5565b6040513d88823e3d90fd5b606460405162461bcd60e51b815260206004820152601160248201527f496e737572616e636520657870697265640000000000000000000000000000006044820152fd5b606460405162461bcd60e51b815260206004820152601360248201527f4e6f2061637469766520696e737572616e6365000000000000000000000000006044820152fd5b80fd5b50346105725760203660031901126105725761059f610592614248565b61059a6153b3565b615112565b80f35b5034610572576040366003190112610572576105bc614248565b7f191ca6346ce7f34efd158cd7023a77f7971a77de7f4c1fda628dd45bf274418f60206001600160a01b036105ef6142da565b936105f86153b3565b16928385526011825261061a81604087209060ff801983541691151516179055565b6040519015158152a280f35b5034610572576020366003190112610572576004356106436153b3565b6064811161067d576020817f7b27910bf1045a08f535a054665467f907c1d72dfc6bff5a08ace57dbcec653f92601255604051908152a180f35b606460405162461bcd60e51b815260206004820152600c60248201527f46656520746f6f206869676800000000000000000000000000000000000000006044820152fd5b50346105725760203660031901126105725760206106e060043561500a565b6040519015158152f35b50346105725760203660031901126105725760406101c0916004358152600c6020522060ff8154916001600160a01b036001820154169060028101546003820154600483015460058401546006850154906007860154926001600160a01b0360088801541694600988015496600b600a8a0154990154996040519c8d5260208d015260408c015260608b015260808a015260a089015260c088015260e08701526101008601526101208501526101408401528181161515610160840152818160081c16151561018084015260101c1615156101a0820152f35b50346105725760a0366003190112610572576107dd614248565b90602435916044356107ed61428a565b92608435926107fa6153b3565b6001600160a01b036001541693604051637b1d63b160e11b81526020816024816001600160a01b038716998a60048301525afa908115610de7578491610db8575b5015610d745761084c87151561484b565b61012c84101580610d68575b15610d2457610866846151d1565b8352600e60205261087960408420614a54565b805188101580610d16575b15610cd25761271061089a60808301518a614666565b048210610c8e5760408101516102ed19860190600187831316610c7a57600582029180830560051490151715610c7a57858282039212818312811691831390151617610c6657908489926107d08111600014610c5f5750806107d05b89896017549c8d9661090788614d27565b60175560600151936040519461091c8661431b565b8886526020860194855260408601998a52606086019182526080860190815260a0860142815260c087019188835260e08801938d85526101008901956001600160a01b03169c8d87526101208a019788526101408a019862278d008a528b6101608c019e8f600190526101808d019d8e526101a08d019e8f528152600c602052604090209a518b55516001600160a01b031660018b01906001600160a01b031681546001600160a01b0319161790555160028a0155516003890155516004880155516005870155516006860155516007850155516001600160a01b031660088401906001600160a01b031681546001600160a01b03191617905551600983015551600a820155600b0192511515610a3f90849060ff801983541691151516179055565b5182549151151560101b62ff00001690151560081b61ff001662ffff001990921691909117179055858452600d6020526040842080549068010000000000000000821015610c4b5781610a9c916001610ab996959401815561464e565b81549060031b908a821b91600019901b19161790558330916154cc565b6001600160a01b0360025416906001600160a01b036004541690823b15610c47576040517f45f920810000000000000000000000000000000000000000000000000000000081526001600160a01b03918216600482015291166024820152604481018790529082908290606490829084905af1801561045757908291610c32575b5050610b48856018546148a3565b601855838152600c602052610b746005604083200154858352600c6020526004604084200154906148a3565b6001600160a01b036009541690813b15610c2e5782916084839260405194859384927ffd42955d0000000000000000000000000000000000000000000000000000000084528a60048501528b60248501528c604485015260648401525af1801561045757610c19575b50507f3373919ad665425d2cddb4072830e5935b6ee308440fa99b23383648da473bc060406020958593825191825287820152a3604051908152f35b610c24828092614338565b6105725780610bdd565b8280fd5b81610c3c91614338565b610572578038610b3a565b8380fd5b602486634e487b7160e01b81526041600452fd5b81906108f6565b602485634e487b7160e01b81526011600452fd5b602486634e487b7160e01b81526011600452fd5b606460405162461bcd60e51b815260206004820152601760248201527f496e73756666696369656e7420636f6c6c61746572616c0000000000000000006044820152fd5b606460405162461bcd60e51b815260206004820152601360248201527f416d6f756e74206f7574206f662072616e6765000000000000000000000000006044820152fd5b506020810151881115610884565b606460405162461bcd60e51b815260206004820152601460248201527f496e76616c6964206372656469742073636f72650000000000000000000000006044820152fd5b50610352841115610858565b606460405162461bcd60e51b815260206004820152601560248201527f426f72726f776572206e6f7420766572696669656400000000000000000000006044820152fd5b610dda915060203d602011610de0575b610dd28183614338565b810190614cc4565b3861083b565b503d610dc8565b6040513d86823e3d90fd5b503461057257606036600319011261057257610e0c614248565b60243560443567ffffffffffffffff8111610c475736602382011215610c475780600401359267ffffffffffffffff84116111de5736602485840101116111de57610e556151f4565b610e5d615477565b610e6883151561484b565b338552601160205260ff6040862054168015611181575b1561113d576001600160a01b031692604051906370a0823160e01b8252306004830152602082602481885afa9182156104df578692611109575b508382106110c557612710610ed060125486614666565b0492831561108157602460a4602092610eea88338b615414565b8460405195869485937fee8725580000000000000000000000000000000000000000000000000000000085528c60048601528b828601528a604486015260806064860152826084860152018484013781810183018b9052601f01601f1916810103018189335af180156104df57611064575b506040516370a0823160e01b8152306004820152602081602481885afa9081156104df578390879261102e575b50610f9f9192610f9982876148a3565b506148a3565b11610fea5760405191825260208201527f0d7d75e01ab95780d3cd1c8ec0dd6c2ce19e3a20427eec8bf53283b6fb8e95f060403392a360016000805160206157de8339815191525580f35b606460405162461bcd60e51b815260206004820152601560248201527f466c617368206c6f616e206e6f742072657061696400000000000000000000006044820152fd5b9150506020813d60201161105c575b8161104a60209383614338565b810103126104d2575182610f9f610f89565b3d915061103d565b61107c9060203d602011610de057610dd28183614338565b610f5c565b606460405162461bcd60e51b815260206004820152600d60248201527f46656520746f6f20736d616c6c000000000000000000000000000000000000006044820152fd5b606460405162461bcd60e51b815260206004820152601660248201527f496e73756666696369656e74206c6971756964697479000000000000000000006044820152fd5b9091506020813d602011611135575b8161112560209383614338565b810103126104d257519038610eb9565b3d9150611118565b606460405162461bcd60e51b815260206004820152601e60248201527f4e6f7420617574686f72697a656420666f7220666c617368206c6f616e7300006044820152fd5b50602460206001600160a01b036001541660405192838092637b1d63b160e11b82523360048301525afa9081156104df5786916111bf575b50610e7f565b6111d8915060203d602011610de057610dd28183614338565b386111b9565b8480fd5b503461057257806003193601126105725760206001600160a01b0360085416604051908152f35b503461057257604036600319011261057257611223614248565b61122b61425e565b916001600160a01b038216815260156020526040812092835461124d81614fa7565b9461125b6040519687614338565b81865283526020808420849187015b8383106113a0575050505081908280916001600160a01b038116925b87518110156112e857836001600160a01b036112a2838b614f93565b515116146112b3575b600101611286565b94936112e06112d360019260206112ca8a8d614f93565b510151906148a3565b9560806112ca898c614f93565b9590506112ab565b6007546040517f7a27db570000000000000000000000000000000000000000000000000000000081526001600160a01b0389811660048301528481166024830152909187918991879160209186916044918391165afa9081156113945790611361575b6060935060405192835260208301526040820152f35b506020833d60201161138c575b8161137b60209383614338565b810103126104d2576060925161134b565b3d915061136e565b604051903d90823e3d90fd5b600560206001926040999799516113b6816142e9565b6001600160a01b038654168152848601548382015260028601546040820152600386015460608201526004860154608082015281520192019201919095939561126a565b503461057257604036600319011261057257611414614248565b6001600160a01b03168152600d6020526040812080546024359290831015610572576020611442848461464e565b90549060031b1c604051908152f35b503461057257806003193601126105725760206001600160a01b03600b5416604051908152f35b503461057257602036600319011261057257604060c0916004358152600f602052208054906001810154906002810154600382015490600560ff600485015416930154936040519586526020860152604085015260608401521515608083015260a0820152f35b5034610572576020366003190112610572576004356114fc6151f4565b808252600c60205260408220600b8101805460ff8116806116b8575b1561167457620100009061153361152e8661500a565b614fbf565b62ff00ff191617905561159360026001600160a01b03600884015416926115896007820194855490611564886148b0565b828082111561166d5761157691614896565b505b6001600160a01b0385541690615414565b0154601854614896565b601855826001600160a01b0360095416803b15611669578180916024604051809481937f8fbd3d800000000000000000000000000000000000000000000000000000000083528960048401525af1801561045757611654575b505060207f524adb2d966e366fe4ac4c5d94b814afdb2e4a8879615407f112a91812251b609160405190847f0789b7097e8066538cfaa1132488b132e14ba5f0c938c8b7aaf8cf40356aab0b8780a2548152a260016000805160206157de8339815191525580f35b8161165e91614338565b610c2e5782386115ec565b5080fd5b5050611578565b606460405162461bcd60e51b815260206004820152601960248201527f4c6f616e206e6f7420616374697665206f7220726570616964000000000000006044820152fd5b5060ff8160081c1615611518565b50346105725780600319360112610572576020601854604051908152f35b503461057257806003193601126105725760206001600160a01b0360095416604051908152f35b50346105725780600319360112610572576020601b54604051908152f35b503461057257604036600319011261057257611743614248565b6001600160a01b03168152601560205260408120805460243592908310156105725760a0611771848461461c565b506001600160a01b0381541690600181015490600281015460046003830154920154926040519485526020850152604084015260608301526080820152f35b5034610572576020366003190112610572576001600160a01b036117d2614248565b168152600d60205260408120906040518083602082955493848152019084526020842092845b8181106118f957505061180d92500383614338565b80815b8351811015611857576118238185614f93565b518352600c60205260ff600b60408520015416611843575b600101611810565b9061184f600191614d27565b91905061183b565b509161186283614fa7565b926118706040519485614338565b80845261187f601f1991614fa7565b013660208501378190825b81518110156118e75761189d8183614f93565b518452600c60205260ff600b604086200154166118bd575b60010161188a565b916118df6001916118ce8585614f93565b516118d98289614f93565b52614d27565b9290506118b5565b604051806118f587826142a0565b0390f35b84548352600194850194879450602090930192016117f8565b50346105725760203660031901126105725761059f600435614db1565b503461057257602036600319011261057257600480358252600e602090815260409283902080546001820154600283015460038401549390950154865192835293820152938401929092526060830191909152608082015260a090f35b5034610572578060031936011261057257506118f56040516119af604082614338565b600581527f352e302e3000000000000000000000000000000000000000000000000000000060208201526040519182916020835260208301906145db565b503461057257806003193601126105725760206001600160a01b0360065416604051908152f35b503461057257806003193601126105725760206001600160a01b0360045416604051908152f35b50606036600319011261057257600435602435604435611a596151f4565b611a61615477565b828452600c60205260408420600b81015460ff81169081611e48575b5015611e0457600101546001600160a01b03163303611d9b57828452600f60205260ff600460408620015416611d575760449060206001600160a01b0360065416604051938480927fd187fde60000000000000000000000000000000000000000000000000000000082528760048301528560248301525afa918215611d4c578592611d18575b50813410611cae57813411611c7d575b6040519060c0820182811067ffffffffffffffff821117611c695790600591604052858352611b9e602084019186835260408501908682526060860190815260808601916001835260a08701944286528a8c52600f60205260408c2097518855516001880155516002870155516003860155511515600485019060ff801983541691151516179055565b51910155611bae82601a546148a3565b601a55836001600160a01b0360065416803b15611669578180916044604051809481937f4a0c82b40000000000000000000000000000000000000000000000000000000083528a60048401528960248401525af1801561045757611c54575b50507ffc8735be0e14a0b142b963ed8965d7981218c2009cf2ef98a951c398fe5034c29160409182519182526020820152a260016000805160206157de8339815191525580f35b81611c5e91614338565b610c47578338611c0d565b602487634e487b7160e01b81526041600452fd5b84808080611c8b8634614896565b818115611ca5575b3390f1611b14576040513d86823e3d90fd5b506108fc611c93565b608460405162461bcd60e51b815260206004820152602260248201527f496e73756666696369656e74207061796d656e7420666f7220696e737572616e60448201527f63650000000000000000000000000000000000000000000000000000000000006064820152fd5b9091506020813d602011611d44575b81611d3460209383614338565b810103126104d257519038611b04565b3d9150611d27565b6040513d87823e3d90fd5b606460405162461bcd60e51b815260206004820152601b60248201527f496e737572616e636520616c72656164792070757263686173656400000000006044820152fd5b608460405162461bcd60e51b8152602060048201526024808201527f4f6e6c7920626f72726f7765722063616e20707572636861736520696e73757260448201527f616e6365000000000000000000000000000000000000000000000000000000006064820152fd5b606460405162461bcd60e51b815260206004820152601f60248201527f4c6f616e206e6f7420656c696769626c6520666f7220696e737572616e6365006044820152fd5b60ff915060101c161538611a7d565b50346105725780600319360112610572576020601954604051908152f35b503461057257604036600319011261057257600435611e926142da565b8183526013602052604083209060038201916002835491611eb960ff8460a01c1615614cdc565b01544210611fdb576001600160a01b03811633148015611fa8575b15611f64577f334d8fbe31dbdd822a7954ab1e812a7c838ee797231c15a93cee7a4584b1e5aa92740100000000000000000000000000000000000000006020931515927fffffffffffffffffffff0000ffffffffffffffffffffffffffffffffffffffff75ff0000000000000000000000000000000000000000008560a81b16911617179055604051908152a280f35b606460405162461bcd60e51b815260206004820152601960248201527f4e6f7420617574686f72697a656420746f207265736f6c7665000000000000006044820152fd5b506001600160a01b037f9016d09d72d40fdae2fd8ceac6b6234c7706214fd39c1cd1e609a0528c19930054163314611ed4565b606460405162461bcd60e51b815260206004820152601060248201527f4d61726b6574206e6f7420656e646564000000000000000000000000000000006044820152fd5b50346105725760203660031901126105725760406020916001600160a01b03612046614248565b168152601683522054604051908152f35b503461057257602036600319011261057257612082612074614248565b61207c6151f4565b33615249565b60016000805160206157de8339815191525580f35b503461057257610100366003190112610572576120b2614248565b9060243567ffffffffffffffff8111611669576120d39036906004016143ad565b916084359160ff831683036105725760e435936120ee615477565b620186a0851161231157604051926001600160a01b036020850191169384825260a0604082015261214a8161212660c08201866145db565b60a435606083015260c43560808301528960a083015203601f198101835282614338565b51902093848352601c60205260ff6040842054166122cd576001600160a01b036121cb6121c2869360405160208101917f19457468657265756d205369676e6564204d6573736167653a0a33320000000083528a603c830152603c82526121b2605c83614338565b60643592604435925190206155f1565b9092919261567a565b1603612289578190848252601c60205260408220600160ff19825416179055602081519101823088f1916121fd614d81565b9215612245577f677c5793fe99b3a1f65c8dffa1f632f868ae7f5e4786160505bb4339f48e6a7260206118f595604051908152a36040519182916020835260208301906145db565b606460405162461bcd60e51b815260206004820152601860248201527f4d65746120747820657865637574696f6e206661696c656400000000000000006044820152fd5b606460405162461bcd60e51b815260206004820152601160248201527f496e76616c6964207369676e61747572650000000000000000000000000000006044820152fd5b606460405162461bcd60e51b815260206004820152601860248201527f4d65746120747820616c726561647920657865637574656400000000000000006044820152fd5b606460405162461bcd60e51b815260206004820152601260248201527f476173206c696d697420746f6f206869676800000000000000000000000000006044820152fd5b50346105725780600319360112610572576001600160a01b036020915416604051908152f35b503461057257806003193601126105725760206001600160a01b037f9016d09d72d40fdae2fd8ceac6b6234c7706214fd39c1cd1e609a0528c1993005416604051908152f35b5034610572576040366003190112610572576004356024356123e16151f4565b818352600c60205260408320600b810191612408835460ff81169081612721575b50614d36565b60018201926001600160a01b0384541633036126dd5761242982151561484b565b612432856148b0565b60068401928354906124448284614896565b811161269957612455818a936148a3565b855561247b816001600160a01b03600454166001600160a01b03600254169033906154cc565b6001600160a01b03600254166001600160a01b036004541690803b15610c47576040517fff78fd7e0000000000000000000000000000000000000000000000000000000081523360048201526001600160a01b039290921660248301526044820183905283908290606490829084905af190811561268e578391612679575b505061271061250d600388015483614666565b048061263b575b50612521816019546148a3565b60195561253760058701546004880154906148a3565b421115906001600160a01b036009541690813b15610c475760648a85809460405196879586947f343dda1b0000000000000000000000000000000000000000000000000000000086526004860152602485015260448401525af1801561045757612622575b5050825410156125bd575b8560016000805160206157de8339815191525580f35b7f040cee90ee4799897c30ca04e5feb6fa43dbba9b6d084b4b257cdafd84ba013e936020936126109261010061ffff1982541617905560076001600160a01b038060088401541693541691015491615414565b54604051908152a238808080806125a7565b8161262c91614338565b61263757863861259c565b8680fd5b887f4c44bdc7c4678ac452a89c8b93511eb6592ff47a3660c4d6bb1847e957308acf60206001600160a01b036002541693604051908152a338612514565b8161268391614338565b6116695781386124fa565b6040513d85823e3d90fd5b606460405162461bcd60e51b815260206004820152601760248201527f4f7665727061796d656e74206e6f7420616c6c6f7765640000000000000000006044820152fd5b606460405162461bcd60e51b815260206004820152601060248201527f4e6f742074686520626f72726f776572000000000000000000000000000000006044820152fd5b60ff915060101c161538612402565b50346105725780600319360112610572576020601754604051908152f35b50346105725760203660031901126105725760043581526013602052604081208054906001810160405184819590835493612788856145a1565b80855294600181169081156128555750600114612813575b50506127ae92500384614338565b60028101549060ff60046003830154920154916127dd604051968796875260e0602088015260e08701906145db565b9360408601526001600160a01b0381166060860152818160a01c161515608086015260a81c16151560a084015260c08301520390f35b90809394925052602082205b8183106128395750509060206127ae9282010138806127a0565b6020919350806001915483858a0101520191019091859261281f565b915050602092506127ae94915060ff191682840152151560051b82010138806127a0565b50346105725780600319360112610572576128926153b3565b61289a615477565b600160ff197fcd5ed15c6e187e77e9aee88184c21f4f2182ab5827cb3b7e07fbedcd63f033005416177fcd5ed15c6e187e77e9aee88184c21f4f2182ab5827cb3b7e07fbedcd63f03300557f62e78cea01bee320cd4e420270b5ea74000d11b0c9f74754ebdbfc544b05a2586020604051338152a180f35b503461057257806003193601126105725760206001600160a01b0360035416604051908152f35b50346105725780600319360112610572576129526153b3565b806001600160a01b037f9016d09d72d40fdae2fd8ceac6b6234c7706214fd39c1cd1e609a0528c199300546001600160a01b031981167f9016d09d72d40fdae2fd8ceac6b6234c7706214fd39c1cd1e609a0528c19930055167f8be0079c531659141344cd1fd0a4f28419497f9722a3daafe3b4186f6b6457e08280a380f35b50346105725780600319360112610572576020604051620186a08152f35b6143cb565b503461057257806003193601126105725760206001600160a01b0360025416604051908152f35b50346105725760203660031901126105725760ff60406020926001600160a01b03612a45614248565b168152601184522054166040519015158152f35b5034610572578060031936011261057257602060ff7fcd5ed15c6e187e77e9aee88184c21f4f2182ab5827cb3b7e07fbedcd63f0330054166040519015158152f35b50346105725780600319360112610572576020601a54604051908152f35b50346105725780600319360112610572576001600160a01b037f0000000000000000000000000000000000000000000000000000000000000000163003612b245760206040517f360894a13ba1a3210667c828492db98dca3e2076cc3735a920a3ca505d382bbc8152f35b8063703e46dd60e11b60049252fd5b50604036600319011261057257612b48614248565b9060243567ffffffffffffffff811161166957612b699036906004016143ad565b6001600160a01b037f000000000000000000000000000000000000000000000000000000000000000016803014908115612d89575b50612d7a57612bab6153b3565b6001600160a01b03831690604051937f52d1902d000000000000000000000000000000000000000000000000000000008552602085600481865afa80958596612d46575b50612c075760248484634c9c8ce360e01b8252600452fd5b9091847f360894a13ba1a3210667c828492db98dca3e2076cc3735a920a3ca505d382bbc8103612d1b5750813b15612d0957806001600160a01b03197f360894a13ba1a3210667c828492db98dca3e2076cc3735a920a3ca505d382bbc5416177f360894a13ba1a3210667c828492db98dca3e2076cc3735a920a3ca505d382bbc557fbc7cd75a20ee27fd9adebab32041f755214dbc6bffa90cc0225b39da2e5c2d3b8480a28151839015612cd65780836020612cd295519101845af4612ccc614d81565b9161574d565b5080f35b50505034612ce15780f35b807fb398979f0000000000000000000000000000000000000000000000000000000060049252fd5b634c9c8ce360e01b8452600452602483fd5b7faa1d49a4000000000000000000000000000000000000000000000000000000008552600452602484fd5b9095506020813d602011612d72575b81612d6260209383614338565b810103126111de57519438612bef565b3d9150612d55565b60048263703e46dd60e11b8152fd5b90506001600160a01b037f360894a13ba1a3210667c828492db98dca3e2076cc3735a920a3ca505d382bbc5416141538612b9e565b50346105725760603660031901126105725760043567ffffffffffffffff8111611669573660238201121561166957612e01903690602481600401359101614376565b60243590612e0d614274565b612e156153b3565b4283111561306f576001600160a01b031691821561302b5760145492612e3a84614d27565b60145583855260136020526040852084815560018101845167ffffffffffffffff811161301757612e6b82546145a1565b601f8111612fd2575b50602097879695949392919089906001601f841114612f46579282600393612f269896937fc9ca0ffb26f562b25ccc898f77b3a5ace034d670e00c1133c8cdf0286a0619339a989691612f3b575b508160011b9160001990861b1c19161790555b83600282015501816001600160a01b03198254161781557fffffffffffffffffffffff00ffffffffffffffffffffffffffffffffffffffff81541690556040519384936060855260608501906145db565b918884015260408301520390a2604051908152f35b905087015138612ec2565b90601f198316848352818320925b818110612fb8575083612f269896937fc9ca0ffb26f562b25ccc898f77b3a5ace034d670e00c1133c8cdf0286a0619339a98969360039660019410612fa0575b5050811b019055612ed5565b89015160001983881b60f8161c191690553880612f94565b828a015184558b9a50600190930192918c01918c01612f54565b82895260208920601f830160051c8101916020841061300d575b601f0160051c01905b8181106130025750612e74565b898155600101612ff5565b9091508190612fec565b602488634e487b7160e01b81526041600452fd5b606460405162461bcd60e51b815260206004820152600e60248201527f496e76616c6964206f7261636c650000000000000000000000000000000000006044820152fd5b606460405162461bcd60e51b815260206004820152601a60248201527f456e642074696d65206d75737420626520696e206675747572650000000000006044820152fd5b50346105725780600319360112610572576020601254604051908152f35b5034610572576060366003190112610572576004356130ee6142da565b906044356130fa6151f4565b81845260136020526040842061311a60ff600383015460a01c1615614cdc565b60028101544210156131ef5760049061313483151561484b565b61314c836001600160a01b03845416309033906154cc565b6001600160a01b033316600052600681016020526040600020941515948587526020526040862061317e8482546148a3565b905584865260058101602052604086206131998482546148a3565b9055016131a78282546148a3565b905560405192835260208301527ff6895a9d7f88cfb921fe545b1900c6315a4c0f0648af3d32f312cc879f5a0c1d60403393a360016000805160206157de8339815191525580f35b606460405162461bcd60e51b815260206004820152600c60248201527f4d61726b657420656e64656400000000000000000000000000000000000000006044820152fd5b5034610572576020366003190112610572576004803582526010602090815260409283902080546001820154600283015460038401549390950154865192835293820152938401929092526060830191909152608082015260a090f35b5034610572576040366003190112610572576132aa614248565b6024356132b56151f4565b6132bd615477565b6132c881151561484b565b602460206001600160a01b036001541660405192838092637b1d63b160e11b82523360048301525afa908115610de7578491613509575b50156134c557826001600160a01b03831692613328836001600160a01b036007541633876154cc565b6001600160a01b0360075416803b15610c2e576040517fadc9772e0000000000000000000000000000000000000000000000000000000081526001600160a01b039290921660048301526024820184905282908290604490829084905af18015610457576134b0575b505060405161339f816142e9565b8281526020810182815260408201428152606083019042825260808401928784523388526015602052604088208054906801000000000000000082101561349c57906133f09160018201815561461c565b95909561348957906001600160a01b03806004969594935116166001600160a01b0319875416178655516001860155516002850155516003840155519101558183526016602052604083206134468282546148a3565b90556040519081527f2eaf47c04dd959699ea1e6704efe9cd1af541fd047824d6c7188b0418ac67ecb60203392a360016000805160206157de8339815191525580f35b602489634e487b7160e01b815280600452fd5b60248a634e487b7160e01b81526041600452fd5b816134ba91614338565b610c2e578238613391565b606460405162461bcd60e51b815260206004820152601560248201527f4964656e74697479206e6f7420766572696669656400000000000000000000006044820152fd5b613522915060203d602011610de057610dd28183614338565b386132ff565b50346105725780600319360112610572576020601454604051908152f35b503461057257806003193601126105725761355f6153b3565b7fcd5ed15c6e187e77e9aee88184c21f4f2182ab5827cb3b7e07fbedcd63f033005460ff8116156135dd5760ff19167fcd5ed15c6e187e77e9aee88184c21f4f2182ab5827cb3b7e07fbedcd63f03300557f5db9ee0a495bf2e6ff9c91a7834c1ba4fdd244a5e8aa4e537bd38aeae4b073aa6020604051338152a180f35b6004827f8dfc202b000000000000000000000000000000000000000000000000000000008152fd5b5034610572576020366003190112610572576020613624600435614a90565b604051908152f35b5034610572576020366003190112610572576004356136496151f4565b80825260136020526040822090600382015460ff8160a01c16156137935760068301926001600160a01b0333166000528360205260ff60406000209260a81c161515918286526020526040852054801561374f576136bb90838752600583016020526004604088205493015490614666565b811561373b5704926001600160a01b03331660005260205260406000209084526020528260408120556136fa82336001600160a01b0360045416615414565b6040519182527f3ddf7e38d4e6ada778784aca57c23bff0483d85c508254be29a608d4f685254760203393a360016000805160206157de8339815191525580f35b602486634e487b7160e01b81526012600452fd5b606460405162461bcd60e51b815260206004820152600e60248201527f4e6f2077696e6e696e67206265740000000000000000000000000000000000006044820152fd5b606460405162461bcd60e51b815260206004820152601360248201527f4d61726b6574206e6f74207265736f6c766564000000000000000000000000006044820152fd5b50346105725760c03660031901126105725760a0366023190112610572576137fd6153b3565b6004358152600e602052604081206024358155604435600182015560643560028201556084356003820155600460a43591015580f35b503461057257806003193601126105725760206001600160a01b03600a5416604051908152f35b50346105725760203660031901126105725760206fffffffffffffffffffffffffffffffff613887614248565b604080516001600160a01b0390921684830190815242602082015291906138ba908290840103601f198101835282614338565b51902016604051908152f35b50346105725760403660031901126105725760206136246138e5614248565b6024359061499f565b50346105725760203660031901126105725760206136246004356148b0565b503461057257806003193601126105725760206001600160a01b0360055416604051908152f35b503461057257806003193601126105725760206001600160a01b0360075416604051908152f35b503461057257806003193601126105725760206001600160a01b0360015416604051908152f35b50346105725760403660031901126105725761399c614248565b602435906139a86151f4565b6139b382151561484b565b338352601560205260408320918392849285936001600160a01b038216945b8354811015613c6857856001600160a01b036139ee838761461c565b5054161480613c50575b613a04576001016139d2565b919293949550506001613a17828561461c565b5001613a24858254614896565b90559060015b15613c0c57613a398133615249565b856001600160a01b036007541691823b15611669576040517fc2a672e00000000000000000000000000000000000000000000000000000000081526001600160a01b0391909116600482015260248101869052918290604490829084905af180156104df57613bf8575b50838552601660205260408520613abb848254614896565b90556001613ac9828461461c565b50015415613b15575b50506040519081527f22821a73a5c2be8a711ae9e25535bd85a52c11180bae1074d1a4d50277069f3760203392a360016000805160206157de8339815191525580f35b81546000198101908111610c7a57613b30613b38918461461c565b50918361461c565b919091613b8757808203613bae575b505080548015613b9a576000190190613b60828261461c565b613b8757600481878093558260018201558260028201558260038201550155553880613ad2565b602486634e487b7160e01b815280600452fd5b602485634e487b7160e01b81526031600452fd5b6004816001600160a01b038083945416166001600160a01b031985541617845560018101546001850155600281015460028501556003810154600385015501549101553880613b47565b85613c0591969296614338565b9338613aa3565b606460405162461bcd60e51b815260206004820152601a60248201527f496e73756666696369656e74207374616b656420616d6f756e740000000000006044820152fd5b50846001613c5e838761461c565b50015410156139f8565b5091929394613a2a565b50346105725761018036600319011261057257613c8d614248565b613c9561425e565b613c9d614274565b613ca561428a565b6084356001600160a01b03811680910361417b5760a4356001600160a01b0381168091036126375760c4356001600160a01b0381168091036141775760e435916001600160a01b0383168093036141735761010435936001600160a01b03851680950361416f5761012435956001600160a01b03871680970361416b5761014435976001600160a01b0389168099036141675761016435996001600160a01b038b16809b03614163577ff0c57e16840df040f15088dc2f81fe391c3923bec73e23a9662efc9c229c6a00549b60ff8d60401c16159c8d67ffffffffffffffff82168015918261415b575b506001149081614151575b159081614148575b50614120576001600160a01b03949391928f8f879586948592600167ffffffffffffffff198316177ff0c57e16840df040f15088dc2f81fe391c3923bec73e23a9662efc9c229c6a00556140e1575b50613dfa615527565b613e02615527565b613e0b33615112565b613e13615527565b613e1b615527565b60016000805160206157de83398151915255613e35615527565b613e3d615527565b166001600160a01b0319825416179055166001600160a01b03196001541617600155166001600160a01b03196002541617600255166001600160a01b031960035416176003556001600160a01b031960045416176004556001600160a01b031960055416176005556001600160a01b031960065416176006556001600160a01b031960075416176007556001600160a01b031960085416176008556001600160a01b031960095416176009556001600160a01b0319600a541617600a556001600160a01b0319600b541617600b55604051613f17816142e9565b68056bc75e2d631000008152600460208201683635c9adc5dea000008152604083016105dc8152606084019062ed4e0082526080850192614e20845260018852600e602052604088209551865551600186015551600285015551600384015551910155604051613f86816142e9565b681b1ae4d6e2ef500000815260046020820169010f0cf064dd592000008152604083016103e8815260608401906301e1338082526080850192613a98845260028852600e602052604088209551865551600186015551600285015551600384015551910155604051613ff7816142e9565b683635c9adc5dea00000815260046020820169021e19e0c9bab24000008152604083016101f4815260608401906303c2670082526080850192612ee0845260038852600e6020526040882095518655516001860155516002850155516003840155519101556140635780f35b68ff0000000000000000197ff0c57e16840df040f15088dc2f81fe391c3923bec73e23a9662efc9c229c6a0054167ff0c57e16840df040f15088dc2f81fe391c3923bec73e23a9662efc9c229c6a00557fc7f505b2f371ae2175ee4913f4499e1f2633a7b5936321eed1cdaeb6115181d2602060405160018152a180f35b68ffffffffffffffffff191668010000000000000001177ff0c57e16840df040f15088dc2f81fe391c3923bec73e23a9662efc9c229c6a005538613df1565b60048f7ff92ee8a9000000000000000000000000000000000000000000000000000000008152fd5b90501538613da2565b303b159150613d9a565b91508f613d8f565b8c80fd5b8b80fd5b8a80fd5b8980fd5b8880fd5b8780fd5b8580fd5b503461057257602036600319011261057257602061362460043561468f565b5034610572576020366003190112610572576001600160a01b036141c0614248565b168152600d60205260408120604051918260208354918281520192825260208220915b818110614206576118f5856141fa81870382614338565b604051918291826142a0565b82548452602090930192600192830192016141e3565b9050346116695760203660031901126116695760ff60406020936004358152601c855220541615158152f35b600435906001600160a01b03821682036104d257565b602435906001600160a01b03821682036104d257565b604435906001600160a01b03821682036104d257565b606435906001600160a01b03821682036104d257565b602060408183019282815284518094520192019060005b8181106142c45750505090565b82518452602093840193909201916001016142b7565b6024359081151582036104d257565b60a0810190811067ffffffffffffffff82111761430557604052565b634e487b7160e01b600052604160045260246000fd5b6101c0810190811067ffffffffffffffff82111761430557604052565b90601f8019910116810190811067ffffffffffffffff82111761430557604052565b67ffffffffffffffff811161430557601f01601f191660200190565b9291926143828261435a565b916143906040519384614338565b8294818452818301116104d2578281602093846000960137010152565b9080601f830112156104d2578160206143c893359101614376565b90565b346104d25760203660031901126104d2576000806040516143eb8161431b565b8181528160208201528160408201528160608201528160808201528160a08201528160c08201528160e082015281610100820152816101208201528161014082015281610160820152816101808201526101a001526004358152600c602052604090206040519061445b8261431b565b8054825260018101546001600160a01b0316916020810192835260028201546040820190815260038301549260608301938452600481015460808401908152600582015460a08501908152600683015460c0860190815260078401549060e0870191825260088501546001600160a01b03169261010088019384526009860154946101208901958652600a870154966101408a01978852600b0154996101608a019860ff8c1615158a526101808b019a8c60081c60ff1615158c526101a081019c60101c60ff1615158d526040519d8e91518252516001600160a01b031690602001525160408d01525160608c01525160808b01525160a08a01525160c08901525160e0880152516001600160a01b031661010087015251610120860152516101408501525115156101608401525115156101808301525115156101a08201526101c090f35b90600182811c921680156145d1575b60208310146145bb57565b634e487b7160e01b600052602260045260246000fd5b91607f16916145b0565b919082519283825260005b848110614607575050826000602080949584010152601f8019910116010190565b806020809284010151828286010152016145e6565b8054821015614638576000526005602060002091020190600090565b634e487b7160e01b600052603260045260246000fd5b80548210156146385760005260206000200190600090565b8181029291811591840414171561467957565b634e487b7160e01b600052601160045260246000fd5b600052600c6020526040600020604051906146a98261431b565b805482526001600160a01b0360018201541660208301526002810154918260408201526003820154606082015260048201546080820152600582015460a0820152600682015460c0820152600782015460e08201526001600160a01b036008830154169061010081019182526101a060ff600b60098601549586610120860152600a81015461014086015201548181161515610160850152818160081c16151561018085015260101c1615159101526001600160a01b0360055416918215614820575051600480546040517f3a357a270000000000000000000000000000000000000000000000000000000081526001600160a01b039384169281019290925291909116602482015290602090829060449082905afa908115614814576000916147e0575b506147dc9061271092614666565b0490565b90506020813d60201161480c575b816147fb60209383614338565b810103126104d257516127106147ce565b3d91506147ee565b6040513d6000823e3d90fd5b6147dc9250612710939150614834906151d1565b600052600e60205260046040600020015490614666565b1561485257565b606460405162461bcd60e51b815260206004820152601260248201527f416d6f756e74206d757374206265203e203000000000000000000000000000006044820152fd5b9190820391821161467957565b9190820180921161467957565b600052600c6020526143c8604060002064496cebb800614997604051926148d68461431b565b805484526001600160a01b03600182015416602085015261498f60028201549460408101958087526003840154918260608201526101a060ff600b60048801549760808501988952600581015460a0860152600681015460c0860152600781015460e08601526001600160a01b036008820154166101008601526009810154610120860152600a81015461014086015201548181161515610160850152818160081c16151561018085015260101c161515910152614666565b905190614666565b0490516148a3565b6001600160a01b0360055416908115614a4f576001600160a01b03602460209260405194859384927f41976e090000000000000000000000000000000000000000000000000000000084521660048301525afa90811561481457600091614a15575b506147dc90670de0b6b3a764000092614666565b90506020813d602011614a47575b81614a3060209383614338565b810103126104d25751670de0b6b3a7640000614a01565b3d9150614a23565b505090565b90604051614a61816142e9565b608060048294805484526001810154602085015260028101546040850152600381015460608501520154910152565b80600052600c6020526040600020604051614aaa8161431b565b815481526001600160a01b036001830154166020820152600282015460408201526003820154926060820193845260048301546080830152600583015460a0830152600683015460c0830152600783015460e08301526001600160a01b036008840154169161010081019283526101a060ff600b6009870154966101208501978852600a81015461014086015201548181161515610160850152818160081c16151561018085015260101c1615159101526000526010602052614b706040600020614a54565b926080840151908115614cbb5750614b889042614896565b9060206001600160a01b038060025416925116602460405180948193637b6aa8bd60e01b835260048301525afa90811561481457600091614c89575b50603281029080820460321490151715614679576127109004606401918260641161467957600090516102ee8111614c4d575b508180046001148215171561467957614c2b614c2b926064614c2462015180614c30985193049683614666565b04906148a3565b614896565b6107d08082109118026107b46064826107d0181191180260641890565b6102ed19810191908211614c75578160011b9180830460021490151715614c75575038614bf7565b80634e487b7160e01b602492526011600452fd5b906020823d602011614cb3575b81614ca360209383614338565b8101031261057257505138614bc4565b3d9150614c96565b93505050505190565b908160209103126104d2575180151581036104d25790565b15614ce357565b606460405162461bcd60e51b815260206004820152601760248201527f4d61726b657420616c7265616479207265736f6c7665640000000000000000006044820152fd5b60001981146146795760010190565b15614d3d57565b606460405162461bcd60e51b815260206004820152600f60248201527f4c6f616e206e6f742061637469766500000000000000000000000000000000006044820152fd5b3d15614dac573d90614d928261435a565b91614da06040519384614338565b82523d6000602084013e565b606090565b80600052600c6020526040600020614dcf60ff600b83015416614d36565b8160005260106020526040600020906004820191825415614f7257614df5835442614896565b91620151808310614f6b576001600160a01b036002541660206001600160a01b03600884015416602460405180948193637b6aa8bd60e01b835260048301525afa90811561481457600091614f39575b50603281029080820460321490151715614679576127109004606401806064116146795780600184015560098201546102ee8111614f0e575b5083800460011484151715614679577fb38780ddde1f073d91c150de2696f3f7085883648ba21cc5ef01029cb21d191694614c2b6003946002614edd614ee6956201518060209a0495868a8601554290556064614c2485549283614666565b91015490614896565b60648082119118026107b46107d082606418109118026107d0189182910155604051908152a2565b6102ed198101908111614679578060011b908082046002149015171561467957600284015538614e7e565b906020823d602011614f63575b81614f5360209383614338565b8101031261057257505138614e45565b3d9150614f46565b5050505050565b60019293506003809201548155606483820155600060028201550155429055565b80518210156146385760209160051b010190565b67ffffffffffffffff81116143055760051b60200190565b15614fc657565b606460405162461bcd60e51b815260206004820152601260248201527f4c6f616e206e6f742064656661756c74656400000000000000000000000000006044820152fd5b600052600c6020526040600020604051906150248261431b565b805482526001600160a01b0360018201541660208301526002810154604083015260038101546060830152600481015480608084015260058201548060a0850152600683015460c0850152600783015460e08501526001600160a01b036008840154166101008501526009830154610120850152600b600a840154936101408601948552015460ff8116151594856101608201526101a060ff808460081c161593841561018085015260101c1615159101528461510a575b50836150e9575b50505090565b6151009350906150f8916148a3565b9051906148a3565b42113880806150e3565b9350386150dc565b6001600160a01b031680156151a2576001600160a01b037f9016d09d72d40fdae2fd8ceac6b6234c7706214fd39c1cd1e609a0528c19930054826001600160a01b03198216177f9016d09d72d40fdae2fd8ceac6b6234c7706214fd39c1cd1e609a0528c19930055167f8be0079c531659141344cd1fd0a4f28419497f9722a3daafe3b4186f6b6457e0600080a3565b7f1e4fbdf700000000000000000000000000000000000000000000000000000000600052600060045260246000fd5b6102ee8110156151ee5761028a11156151e957600190565b600290565b50600390565b60026000805160206157de833981519152541461521f5760026000805160206157de83398151915255565b7f3ee5aeb50000000000000000000000000000000000000000000000000000000060005260046000fd5b9060009160206001600160a01b03602481600754169460405196879384927fef5cfb8c00000000000000000000000000000000000000000000000000000000845216968760048401525af19283156148145760009361537f575b50826152ae57505050565b6001600160a01b031680600052601560205260406000209260005b845481101561535157836001600160a01b036152e5838861461c565b505416146152f5576001016152c9565b906153408286600461532c6020967ff20102df11d81e1b86a15787275ae36d8991c3b709132c7321ff9efc2a78695798999a61461c565b50016153398582546148a3565b905561461c565b506003429101555b604051908152a3565b507ff20102df11d81e1b86a15787275ae36d8991c3b709132c7321ff9efc2a78695791929350602090615348565b90926020823d6020116153ab575b8161539a60209383614338565b8101031261057257505191386152a3565b3d915061538d565b6001600160a01b037f9016d09d72d40fdae2fd8ceac6b6234c7706214fd39c1cd1e609a0528c199300541633036153e657565b7f118cdaa7000000000000000000000000000000000000000000000000000000006000523360045260246000fd5b6040517fa9059cbb0000000000000000000000000000000000000000000000000000000060208201526001600160a01b03909216602483015260448201929092526154759161547082606481015b03601f198101845283614338565b615580565b565b60ff7fcd5ed15c6e187e77e9aee88184c21f4f2182ab5827cb3b7e07fbedcd63f0330054166154a257565b7fd93c06650000000000000000000000000000000000000000000000000000000060005260046000fd5b6040517f23b872dd0000000000000000000000000000000000000000000000000000000060208201526001600160a01b0392831660248201529290911660448301526064820192909252615475916154708260848101615462565b60ff7ff0c57e16840df040f15088dc2f81fe391c3923bec73e23a9662efc9c229c6a005460401c161561555657565b7fd7e6bcf80000000000000000000000000000000000000000000000000000000060005260046000fd5b906000602091828151910182855af115614814576000513d6155e857506001600160a01b0381163b155b6155b15750565b6001600160a01b03907f5274afe7000000000000000000000000000000000000000000000000000000006000521660045260246000fd5b600114156155aa565b91907f7fffffffffffffffffffffffffffffff5d576e7357a4501ddfe92f46681b20a0841161566e579160209360809260ff60009560405194855216868401526040830152606082015282805260015afa15614814576000516001600160a01b038116156156625790600090600090565b50600090600190600090565b50505060009160039190565b9190916004811015615737578061569057509050565b6000600182036156c4577ff645eedf0000000000000000000000000000000000000000000000000000000060005260046000fd5b50600281036156fb57827ffce698f70000000000000000000000000000000000000000000000000000000060005260045260246000fd5b909160036000921461570b575050565b602492507fd78bce0c000000000000000000000000000000000000000000000000000000008252600452fd5b634e487b7160e01b600052602160045260246000fd5b9061578c575080511561576257602081519101fd5b7fd6bda2750000000000000000000000000000000000000000000000000000000060005260046000fd5b815115806157d4575b61579d575090565b6001600160a01b03907f9996b315000000000000000000000000000000000000000000000000000000006000521660045260246000fd5b50803b1561579556fe9b779b17422d0df92223018b32b4d1fa46e071723d6817e2486d003becc55f00a26469706673582212201e7d75ed842e1ef4cf591ebad976a17added333ed853481bd6310c642deb8e1264736f6c634300081c0033",
  "linkReferences": {},
  "deployedLinkReferences": {}
}