{
  "_format": "hh-sol-artifact-1",
  "contractName": "CrossChainMessenger",
  "sourceName": "contracts/CrossChainMessenger.sol",
  "abi": [
    {
      "inputs": [
        {
          "internalType": "address",
          "name": "target",
          "type": "address"
        }
      ],
      "name": "AddressEmptyCode",
      "type": "error"
    },
    {
      "inputs": [],
      "name": "ECDSAInvalidSignature",
      "type": "error"
    },
    {
      "inputs": [
        {
          "internalType": "uint256",
          "name": "length",
          "type": "uint256"
        }
      ],
      "name": "ECDSAInvalidSignatureLength",
      "type": "error"
    },
    {
      "inputs": [
        {
          "internalType": "bytes32",
          "name": "s",
          "type": "bytes32"
        }
      ],
      "name": "ECDSAInvalidSignatureS",
      "type": "error"
    },
    {
      "inputs": [
        {
          "internalType": "address",
          "name": "implementation",
          "type": "address"
        }
      ],
      "name": "ERC1967InvalidImplementation",
      "type": "error"
    },
    {
      "inputs": [],
      "name": "ERC1967NonPayable",
      "type": "error"
    },
    {
      "inputs": [],
      "name": "FailedCall",
      "type": "error"
    },
    {
      "inputs": [],
      "name": "InvalidInitialization",
      "type": "error"
    },
    {
      "inputs": [],
      "name": "NotInitializing",
      "type": "error"
    },
    {
      "inputs": [
        {
          "internalType": "address",
          "name": "owner",
          "type": "address"
        }
      ],
      "name": "OwnableInvalidOwner",
      "type": "error"
    },
    {
      "inputs": [
        {
          "internalType": "address",
          "name": "account",
          "type": "address"
        }
      ],
      "name": "OwnableUnauthorizedAccount",
      "type": "error"
    },
    {
      "inputs": [],
      "name": "ReentrancyGuardReentrantCall",
      "type": "error"
    },
    {
      "inputs": [],
      "name": "UUPSUnauthorizedCallContext",
      "type": "error"
    },
    {
      "inputs": [
        {
          "internalType": "bytes32",
          "name": "slot",
          "type": "bytes32"
        }
      ],
      "name": "UUPSUnsupportedProxiableUUID",
      "type": "error"
    },
    {
      "anonymous": false,
      "inputs": [
        {
          "indexed": true,
          "internalType": "uint256",
          "name": "chainId",
          "type": "uint256"
        },
        {
          "indexed": false,
          "internalType": "address",
          "name": "messengerContract",
          "type": "address"
        }
      ],
      "name": "ChainAdded",
      "type": "event"
    },
    {
      "anonymous": false,
      "inputs": [
        {
          "indexed": true,
          "internalType": "address",
          "name": "recipient",
          "type": "address"
        },
        {
          "indexed": false,
          "internalType": "uint256",
          "name": "amount",
          "type": "uint256"
        }
      ],
      "name": "FeesCollected",
      "type": "event"
    },
    {
      "anonymous": false,
      "inputs": [
        {
          "indexed": false,
          "internalType": "uint64",
          "name": "version",
          "type": "uint64"
        }
      ],
      "name": "Initialized",
      "type": "event"
    },
    {
      "anonymous": false,
      "inputs": [
        {
          "indexed": true,
          "internalType": "uint256",
          "name": "messageId",
          "type": "uint256"
        },
        {
          "indexed": false,
          "internalType": "uint256",
          "name": "targetChainId",
          "type": "uint256"
        }
      ],
      "name": "MessageDelivered",
      "type": "event"
    },
    {
      "anonymous": false,
      "inputs": [
        {
          "indexed": true,
          "internalType": "uint256",
          "name": "messageId",
          "type": "uint256"
        },
        {
          "indexed": false,
          "internalType": "string",
          "name": "reason",
          "type": "string"
        }
      ],
      "name": "MessageFailed",
      "type": "event"
    },
    {
      "anonymous": false,
      "inputs": [
        {
          "indexed": true,
          "internalType": "uint256",
          "name": "messageId",
          "type": "uint256"
        },
        {
          "indexed": false,
          "internalType": "uint256",
          "name": "sourceChainId",
          "type": "uint256"
        },
        {
          "indexed": false,
          "internalType": "uint256",
          "name": "targetChainId",
          "type": "uint256"
        },
        {
          "indexed": false,
          "internalType": "enum CrossChainMessenger.MessageType",
          "name": "messageType",
          "type": "uint8"
        }
      ],
      "name": "MessageSent",
      "type": "event"
    },
    {
      "anonymous": false,
      "inputs": [
        {
          "indexed": true,
          "internalType": "uint256",
          "name": "messageId",
          "type": "uint256"
        },
        {
          "indexed": true,
          "internalType": "address",
          "name": "validator",
          "type": "address"
        }
      ],
      "name": "MessageValidated",
      "type": "event"
    },
    {
      "anonymous": false,
      "inputs": [
        {
          "indexed": true,
          "internalType": "address",
          "name": "previousOwner",
          "type": "address"
        },
        {
          "indexed": true,
          "internalType": "address",
          "name": "newOwner",
          "type": "address"
        }
      ],
      "name": "OwnershipTransferred",
      "type": "event"
    },
    {
      "anonymous": false,
      "inputs": [
        {
          "indexed": true,
          "internalType": "address",
          "name": "implementation",
          "type": "address"
        }
      ],
      "name": "Upgraded",
      "type": "event"
    },
    {
      "anonymous": false,
      "inputs": [
        {
          "indexed": true,
          "internalType": "address",
          "name": "validator",
          "type": "address"
        },
        {
          "indexed": true,
          "internalType": "uint256",
          "name": "chainId",
          "type": "uint256"
        }
      ],
      "name": "ValidatorAdded",
      "type": "event"
    },
    {
      "inputs": [],
      "name": "UPGRADE_INTERFACE_VERSION",
      "outputs": [
        {
          "internalType": "string",
          "name": "",
          "type": "string"
        }
      ],
      "stateMutability": "view",
      "type": "function"
    },
    {
      "inputs": [
        {
          "internalType": "uint256",
          "name": "",
          "type": "uint256"
        }
      ],
      "name": "activeValidators",
      "outputs": [
        {
          "internalType": "address",
          "name": "",
          "type": "address"
        }
      ],
      "stateMutability": "view",
      "type": "function"
    },
    {
      "inputs": [
        {
          "internalType": "uint256",
          "name": "_chainId",
          "type": "uint256"
        },
        {
          "internalType": "address",
          "name": "_messengerContract",
          "type": "address"
        },
        {
          "internalType": "uint256",
          "name": "_requiredConfirmations",
          "type": "uint256"
        },
        {
          "internalType": "uint256",
          "name": "_messageFee",
          "type": "uint256"
        }
      ],
      "name": "addChain",
      "outputs": [],
      "stateMutability": "nonpayable",
      "type": "function"
    },
    {
      "inputs": [
        {
          "internalType": "address",
          "name": "_validator",
          "type": "address"
        },
        {
          "internalType": "uint256",
          "name": "_chainId",
          "type": "uint256"
        }
      ],
      "name": "addValidator",
      "outputs": [],
      "stateMutability": "nonpayable",
      "type": "function"
    },
    {
      "inputs": [
        {
          "internalType": "uint256",
          "name": "_messageId",
          "type": "uint256"
        }
      ],
      "name": "canDeliverMessage",
      "outputs": [
        {
          "internalType": "bool",
          "name": "",
          "type": "bool"
        }
      ],
      "stateMutability": "view",
      "type": "function"
    },
    {
      "inputs": [
        {
          "internalType": "uint256",
          "name": "",
          "type": "uint256"
        }
      ],
      "name": "chainConfigs",
      "outputs": [
        {
          "internalType": "uint256",
          "name": "chainId",
          "type": "uint256"
        },
        {
          "internalType": "address",
          "name": "messengerContract",
          "type": "address"
        },
        {
          "internalType": "uint256",
          "name": "requiredConfirmations",
          "type": "uint256"
        },
        {
          "internalType": "uint256",
          "name": "messageFee",
          "type": "uint256"
        },
        {
          "internalType": "bool",
          "name": "active",
          "type": "bool"
        },
        {
          "internalType": "uint256",
          "name": "totalMessages",
          "type": "uint256"
        },
        {
          "internalType": "uint256",
          "name": "successfulDeliveries",
          "type": "uint256"
        }
      ],
      "stateMutability": "view",
      "type": "function"
    },
    {
      "inputs": [],
      "name": "collectFees",
      "outputs": [],
      "stateMutability": "nonpayable",
      "type": "function"
    },
    {
      "inputs": [],
      "name": "collectedFees",
      "outputs": [
        {
          "internalType": "uint256",
          "name": "",
          "type": "uint256"
        }
      ],
      "stateMutability": "view",
      "type": "function"
    },
    {
      "inputs": [
        {
          "internalType": "uint256",
          "name": "_messageId",
          "type": "uint256"
        }
      ],
      "name": "emergencyExecuteMessage",
      "outputs": [],
      "stateMutability": "nonpayable",
      "type": "function"
    },
    {
      "inputs": [
        {
          "internalType": "uint256",
          "name": "_messageId",
          "type": "uint256"
        }
      ],
      "name": "emergencyPauseMessage",
      "outputs": [],
      "stateMutability": "nonpayable",
      "type": "function"
    },
    {
      "inputs": [],
      "name": "feeRecipient",
      "outputs": [
        {
          "internalType": "address",
          "name": "",
          "type": "address"
        }
      ],
      "stateMutability": "view",
      "type": "function"
    },
    {
      "inputs": [],
      "name": "getActiveValidators",
      "outputs": [
        {
          "internalType": "address[]",
          "name": "",
          "type": "address[]"
        }
      ],
      "stateMutability": "view",
      "type": "function"
    },
    {
      "inputs": [
        {
          "internalType": "uint256",
          "name": "_chainId",
          "type": "uint256"
        }
      ],
      "name": "getChainConfig",
      "outputs": [
        {
          "components": [
            {
              "internalType": "uint256",
              "name": "chainId",
              "type": "uint256"
            },
            {
              "internalType": "address",
              "name": "messengerContract",
              "type": "address"
            },
            {
              "internalType": "uint256",
              "name": "requiredConfirmations",
              "type": "uint256"
            },
            {
              "internalType": "uint256",
              "name": "messageFee",
              "type": "uint256"
            },
            {
              "internalType": "bool",
              "name": "active",
              "type": "bool"
            },
            {
              "internalType": "uint256",
              "name": "totalMessages",
              "type": "uint256"
            },
            {
              "internalType": "uint256",
              "name": "successfulDeliveries",
              "type": "uint256"
            }
          ],
          "internalType": "struct CrossChainMessenger.ChainConfig",
          "name": "",
          "type": "tuple"
        }
      ],
      "stateMutability": "view",
      "type": "function"
    },
    {
      "inputs": [
        {
          "internalType": "uint256",
          "name": "_messageId",
          "type": "uint256"
        }
      ],
      "name": "getMessage",
      "outputs": [
        {
          "internalType": "uint256",
          "name": "messageId",
          "type": "uint256"
        },
        {
          "internalType": "uint256",
          "name": "sourceChainId",
          "type": "uint256"
        },
        {
          "internalType": "uint256",
          "name": "targetChainId",
          "type": "uint256"
        },
        {
          "internalType": "enum CrossChainMessenger.MessageType",
          "name": "messageType",
          "type": "uint8"
        },
        {
          "internalType": "address",
          "name": "sender",
          "type": "address"
        },
        {
          "internalType": "uint256",
          "name": "timestamp",
          "type": "uint256"
        },
        {
          "internalType": "enum CrossChainMessenger.MessageStatus",
          "name": "status",
          "type": "uint8"
        },
        {
          "internalType": "uint256",
          "name": "confirmations",
          "type": "uint256"
        }
      ],
      "stateMutability": "view",
      "type": "function"
    },
    {
      "inputs": [
        {
          "internalType": "uint256",
          "name": "_messageId",
          "type": "uint256"
        }
      ],
      "name": "getMessageHash",
      "outputs": [
        {
          "internalType": "bytes32",
          "name": "",
          "type": "bytes32"
        }
      ],
      "stateMutability": "view",
      "type": "function"
    },
    {
      "inputs": [],
      "name": "getSupportedChains",
      "outputs": [
        {
          "internalType": "uint256[]",
          "name": "",
          "type": "uint256[]"
        }
      ],
      "stateMutability": "view",
      "type": "function"
    },
    {
      "inputs": [
        {
          "internalType": "address",
          "name": "_feeRecipient",
          "type": "address"
        }
      ],
      "name": "initialize",
      "outputs": [],
      "stateMutability": "nonpayable",
      "type": "function"
    },
    {
      "inputs": [],
      "name": "maxMessageValue",
      "outputs": [
        {
          "internalType": "uint256",
          "name": "",
          "type": "uint256"
        }
      ],
      "stateMutability": "view",
      "type": "function"
    },
    {
      "inputs": [],
      "name": "messageExpiry",
      "outputs": [
        {
          "internalType": "uint256",
          "name": "",
          "type": "uint256"
        }
      ],
      "stateMutability": "view",
      "type": "function"
    },
    {
      "inputs": [
        {
          "internalType": "bytes32",
          "name": "",
          "type": "bytes32"
        }
      ],
      "name": "messageHashes",
      "outputs": [
        {
          "internalType": "uint256",
          "name": "",
          "type": "uint256"
        }
      ],
      "stateMutability": "view",
      "type": "function"
    },
    {
      "inputs": [
        {
          "internalType": "uint256",
          "name": "",
          "type": "uint256"
        }
      ],
      "name": "messages",
      "outputs": [
        {
          "internalType": "uint256",
          "name": "messageId",
          "type": "uint256"
        },
        {
          "internalType": "uint256",
          "name": "sourceChainId",
          "type": "uint256"
        },
        {
          "internalType": "uint256",
          "name": "targetChainId",
          "type": "uint256"
        },
        {
          "internalType": "address",
          "name": "sourceContract",
          "type": "address"
        },
        {
          "internalType": "address",
          "name": "targetContract",
          "type": "address"
        },
        {
          "internalType": "enum CrossChainMessenger.MessageType",
          "name": "messageType",
          "type": "uint8"
        },
        {
          "internalType": "bytes",
          "name": "payload",
          "type": "bytes"
        },
        {
          "internalType": "uint256",
          "name": "value",
          "type": "uint256"
        },
        {
          "internalType": "address",
          "name": "sender",
          "type": "address"
        },
        {
          "internalType": "uint256",
          "name": "timestamp",
          "type": "uint256"
        },
        {
          "internalType": "uint256",
          "name": "expiry",
          "type": "uint256"
        },
        {
          "internalType": "enum CrossChainMessenger.MessageStatus",
          "name": "status",
          "type": "uint8"
        },
        {
          "internalType": "bytes32",
          "name": "messageHash",
          "type": "bytes32"
        },
        {
          "internalType": "uint256",
          "name": "confirmations",
          "type": "uint256"
        }
      ],
      "stateMutability": "view",
      "type": "function"
    },
    {
      "inputs": [],
      "name": "minValidators",
      "outputs": [
        {
          "internalType": "uint256",
          "name": "",
          "type": "uint256"
        }
      ],
      "stateMutability": "view",
      "type": "function"
    },
    {
      "inputs": [],
      "name": "nextMessageId",
      "outputs": [
        {
          "internalType": "uint256",
          "name": "",
          "type": "uint256"
        }
      ],
      "stateMutability": "view",
      "type": "function"
    },
    {
      "inputs": [],
      "name": "owner",
      "outputs": [
        {
          "internalType": "address",
          "name": "",
          "type": "address"
        }
      ],
      "stateMutability": "view",
      "type": "function"
    },
    {
      "inputs": [],
      "name": "proxiableUUID",
      "outputs": [
        {
          "internalType": "bytes32",
          "name": "",
          "type": "bytes32"
        }
      ],
      "stateMutability": "view",
      "type": "function"
    },
    {
      "inputs": [
        {
          "internalType": "address",
          "name": "_validator",
          "type": "address"
        }
      ],
      "name": "removeValidator",
      "outputs": [],
      "stateMutability": "nonpayable",
      "type": "function"
    },
    {
      "inputs": [],
      "name": "renounceOwnership",
      "outputs": [],
      "stateMutability": "nonpayable",
      "type": "function"
    },
    {
      "inputs": [
        {
          "internalType": "uint256",
          "name": "_messageId",
          "type": "uint256"
        }
      ],
      "name": "retryMessage",
      "outputs": [],
      "stateMutability": "nonpayable",
      "type": "function"
    },
    {
      "inputs": [
        {
          "internalType": "uint256",
          "name": "_targetChainId",
          "type": "uint256"
        },
        {
          "internalType": "address",
          "name": "_targetContract",
          "type": "address"
        },
        {
          "internalType": "enum CrossChainMessenger.MessageType",
          "name": "_messageType",
          "type": "uint8"
        },
        {
          "internalType": "bytes",
          "name": "_payload",
          "type": "bytes"
        }
      ],
      "name": "sendMessage",
      "outputs": [
        {
          "internalType": "uint256",
          "name": "",
          "type": "uint256"
        }
      ],
      "stateMutability": "payable",
      "type": "function"
    },
    {
      "inputs": [
        {
          "internalType": "address",
          "name": "_feeRecipient",
          "type": "address"
        }
      ],
      "name": "setFeeRecipient",
      "outputs": [],
      "stateMutability": "nonpayable",
      "type": "function"
    },
    {
      "inputs": [
        {
          "internalType": "uint256",
          "name": "_messageExpiry",
          "type": "uint256"
        },
        {
          "internalType": "uint256",
          "name": "_minValidators",
          "type": "uint256"
        },
        {
          "internalType": "uint256",
          "name": "_maxMessageValue",
          "type": "uint256"
        }
      ],
      "name": "setMessageParameters",
      "outputs": [],
      "stateMutability": "nonpayable",
      "type": "function"
    },
    {
      "inputs": [
        {
          "internalType": "uint256",
          "name": "",
          "type": "uint256"
        }
      ],
      "name": "supportedChains",
      "outputs": [
        {
          "internalType": "uint256",
          "name": "",
          "type": "uint256"
        }
      ],
      "stateMutability": "view",
      "type": "function"
    },
    {
      "inputs": [
        {
          "internalType": "address",
          "name": "newOwner",
          "type": "address"
        }
      ],
      "name": "transferOwnership",
      "outputs": [],
      "stateMutability": "nonpayable",
      "type": "function"
    },
    {
      "inputs": [
        {
          "internalType": "uint256",
          "name": "_chainId",
          "type": "uint256"
        },
        {
          "internalType": "uint256",
          "name": "_requiredConfirmations",
          "type": "uint256"
        },
        {
          "internalType": "uint256",
          "name": "_messageFee",
          "type": "uint256"
        },
        {
          "internalType": "bool",
          "name": "_active",
          "type": "bool"
        }
      ],
      "name": "updateChainConfig",
      "outputs": [],
      "stateMutability": "nonpayable",
      "type": "function"
    },
    {
      "inputs": [
        {
          "internalType": "address",
          "name": "newImplementation",
          "type": "address"
        },
        {
          "internalType": "bytes",
          "name": "data",
          "type": "bytes"
        }
      ],
      "name": "upgradeToAndCall",
      "outputs": [],
      "stateMutability": "payable",
      "type": "function"
    },
    {
      "inputs": [
        {
          "internalType": "uint256",
          "name": "_messageId",
          "type": "uint256"
        },
        {
          "internalType": "bytes",
          "name": "_signature",
          "type": "bytes"
        }
      ],
      "name": "validateMessage",
      "outputs": [],
      "stateMutability": "nonpayable",
      "type": "function"
    },
    {
      "inputs": [
        {
          "internalType": "address",
          "name": "",
          "type": "address"
        }
      ],
      "name": "validators",
      "outputs": [
        {
          "internalType": "address",
          "name": "validator",
          "type": "address"
        },
        {
          "internalType": "uint256",
          "name": "chainId",
          "type": "uint256"
        },
        {
          "internalType": "uint256",
          "name": "reputation",
          "type": "uint256"
        },
        {
          "internalType": "bool",
          "name": "active",
          "type": "bool"
        },
        {
          "internalType": "uint256",
          "name": "processedMessages",
          "type": "uint256"
        }
      ],
      "stateMutability": "view",
      "type": "function"
    }
  ],
  "bytecode": "0x60a08060405234604657306080526001805562093a80600755600360085568056bc75e2d63100000600955612601908161004c823960805181818161126801526113770152f35b600080fdfe6080604052600436101561001257600080fd5b60003560e01c806301ea7d8714611e4d57806304bf718314611e0657806306a2cb9414611de85780630d80fefd14611c4d57806314f64c7814611c0b57806319ed16dc14611b15578063292aefcc146116a057806340a141ff1461153e57806346904840146115155780634f1ef2861461133957806351bfbc32146112bf57806352d1902d14611255578063548d496f1461121d5780635c96f9b5146111ff5780637080f771146111d3578063715018a61461116957806375c3c4c0146110785780637a654f5c14610e8d57806386f79edb14610df25780638da5cb5b14610dbc5780639003adfe14610d9e5780639de7025814610cd25780639ebf9a3014610ca5578063ad3cb1cc14610c5a578063ba86a10d14610c2b578063c4bffe2b14610b71578063c4d66de8146109c5578063c52a0839146108eb578063c5ab2241146108cd578063c87965721461080d578063d78a89cb14610563578063d950ef1b146104bc578063e74b981b14610479578063eefbf17e1461045b578063f2fde38b14610430578063fa52c7d8146103be5763fc6c1f02146101b357600080fd5b346103b95760403660031901126103b9576101cc611fe5565b602435906101d86121b1565b6001600160a01b03811660008181526004602052604090206003015490919060ff166103745782600052600260205260ff600460406000200154161561033c5760405160a0810181811067ffffffffffffffff821117610326576040528281526004602082018581526102b46040840160648152606085019060018252608086019360008552886000528560205260406000209660018060a01b039060018060a01b03905116166001600160601b0360a01b885416178755516001870155516002860155511515600385019060ff801983541691151516179055565b5191015560055490600160401b821015610326576102db8260016102ff9401600555611f83565b81546001600160a01b0393841660039290921b91821b9390911b1916919091179055565b7f9000b209805850a65058f21361a9978cb30f1413ed555553ab52a59b440b5d99600080a3005b634e487b7160e01b600052604160045260246000fd5b60405162461bcd60e51b815260206004820152601060248201526f436861696e206e6f742061637469766560801b6044820152606490fd5b60405162461bcd60e51b815260206004820152601860248201527f56616c696461746f7220616c72656164792065786973747300000000000000006044820152606490fd5b600080fd5b346103b95760203660031901126103b9576001600160a01b036103df611fe5565b16600052600460205260a06040600020600180831b03815416906001810154906002810154600460ff6003840154169201549260405194855260208501526040840152151560608301526080820152f35b346103b95760203660031901126103b95761045961044c611fe5565b6104546121b1565b61213b565b005b346103b95760003660031901126103b9576020600154604051908152f35b346103b95760203660031901126103b957610492611fe5565b61049a6121b1565b600b80546001600160a01b0319166001600160a01b0392909216919091179055005b346103b95760803660031901126103b95760643580151581036103b9576104e16121b1565b600435600052600260205260406000209060018060a01b036001830154161561052c5760046104599260243560028201556044356003820155019060ff801983541691151516179055565b60405162461bcd60e51b815260206004820152600f60248201526e10da185a5b881b9bdd08199bdd5b99608a1b6044820152606490fd5b346103b95760403660031901126103b95760043560243567ffffffffffffffff81116103b957610597903690600401612017565b33600052600460205260ff60036040600020015416156107c8578160005260006020526040600020906105da60ff600a840154166105d481611f79565b1561205e565b6105ea60098301544211156120fd565b600d82019060018060a01b0333166000528160205260ff6040600020541661078f5761064961065291600b8501547f19457468657265756d205369676e6564204d6573736167653a0a333200000000600052601c52603c6000206123c3565b909291926123ff565b336001600160a01b03909116036107565733600090815260209190915260409020805460ff19166001179055600c8101805461068d906120e1565b815533600052600460205260046040600020016106aa81546120e1565b905560026040519233857fb73b16f5abb5ea5ee44d75987a3dbfb2181140ad823130664a907f26ace5399d600080a3015460005260026020526040600020916106f281611ed0565b8254815260018301546001600160a01b0316602082015260028301546040820181905260038401546060830152600484015460ff1615156080830152600584015460a083015260069093015460c09091015254101561074d57005b61045990612217565b60405162461bcd60e51b8152602060048201526011602482015270496e76616c6964207369676e617475726560781b6044820152606490fd5b60405162461bcd60e51b8152602060048201526011602482015270105b1c9958591e481d985b1a59185d1959607a1b6044820152606490fd5b60405162461bcd60e51b815260206004820152601760248201527f4e6f7420616e206163746976652076616c696461746f720000000000000000006044820152606490fd5b346103b95760003660031901126103b9576108266121b1565b600a548015610893576000600a5560008080808460018060a01b03600b541682f11561088757600b546040519182526001600160a01b0316907f9dc46f23cfb5ddcad0ae7ea2be38d47fec07bb9382ec7e564efc69e036dd66ce90602090a2005b6040513d6000823e3d90fd5b60405162461bcd60e51b8152602060048201526012602482015271139bc81999595cc81d1bc818dbdb1b1958dd60721b6044820152606490fd5b346103b95760003660031901126103b9576020600854604051908152f35b346103b95760203660031901126103b95760043560005260006020526020604060002060028101546000526002825260406000209060405161092c81611ed0565b8254815260018060a01b036001840154168482015260c06006600285015494604084019586526003810154606085015260ff60048201541615156080850152600581015460a0850152015491015260ff600a8201541661098b81611f79565b1591826109b4575b50816109a5575b506040519015158152f35b6009915001544211158261099a565b600c82015490511115915083610993565b346103b95760203660031901126103b9576109de611fe5565b6000805160206125ac833981519152549060ff8260401c16159167ffffffffffffffff811680159081610b69575b6001149081610b5f575b159081610b56575b50610b455767ffffffffffffffff1981166001176000805160206125ac8339815191525582610b18575b50610a51612395565b610a59612395565b610a623361213b565b610a6a612395565b610a72612395565b60017f9b779b17422d0df92223018b32b4d1fa46e071723d6817e2486d003becc55f0055610a9e612395565b60018060a01b03166001600160601b0360a01b600b541617600b55610abf57005b68ff0000000000000000196000805160206125ac83398151915254166000805160206125ac833981519152557fc7f505b2f371ae2175ee4913f4499e1f2633a7b5936321eed1cdaeb6115181d2602060405160018152a1005b68ffffffffffffffffff191668010000000000000001176000805160206125ac8339815191525582610a48565b63f92ee8a960e01b60005260046000fd5b90501584610a1e565b303b159150610a16565b849150610a0c565b346103b95760003660031901126103b9576040518060206003549283815201809260036000527fc2575a0e9e593c00f959f8c92f12db2869c3395a3b0502d05e2516446f71f85b9060005b818110610c155750505081610bd2910382611eec565b6040519182916020830190602084525180915260408301919060005b818110610bfc575050500390f35b8251845285945060209384019390920191600101610bee565b8254845260209093019260019283019201610bbc565b346103b95760203660031901126103b95760043560005260006020526020600b60406000200154604051908152f35b346103b95760003660031901126103b957610ca16040805190610c7d8183611eec565b60058252640352e302e360dc1b602083015251918291602083526020830190611f54565b0390f35b346103b95760603660031901126103b957610cbe6121b1565b600435600755602435600855604435600955005b346103b95760003660031901126103b9576040518060206005549283815201809260056000527f036b6384b5eca791c62761152d0c79bb0604c104a5fb6f4eb0703f3154bb3db09060005b818110610d7f5750505081610d33910382611eec565b6040519182916020830190602084525180915260408301919060005b818110610d5d575050500390f35b82516001600160a01b0316845285945060209384019390920191600101610d4f565b82546001600160a01b0316845260209093019260019283019201610d1d565b346103b95760003660031901126103b9576020600a54604051908152f35b346103b95760003660031901126103b95760008051602061256c833981519152546040516001600160a01b039091168152602090f35b346103b95760203660031901126103b95760043560005260006020526101006040600020805490600181015490600281015460ff600483015460a01c16610e6e60018060a01b0360078501541691600885015493600c60ff600a8801541696015496604051988952602089015260408801526060870190611f0e565b608085015260a0840152610e8181611f79565b60c083015260e0820152f35b346103b95760803660031901126103b957600435610ea9611fcf565b60443590610eb56121b1565b6000838152600260205260409020600101546001600160a01b031661103c576008548210610ff757600660405191610eec83611ed0565b848352602083019060018060a01b03169384825260408401908152610f8c60608501606435815260808601906001825260a08701936000855260c0880195600087528a600052600260205260406000209851895560018060a01b03905116600189019060018060a01b03166001600160601b0360a01b825416179055516002880155516003870155511515600486019060ff801983541691151516179055565b51600584015551910155600354600160401b811015610326577fd34413f9daf08c09e55b3ad5e2f7f18249f3ff26c061cb904f99597dd14ad53e91610fd982600160209401600355611fb4565b81549060031b9086821b91600019901b1916179055604051908152a2005b60405162461bcd60e51b815260206004820152601a60248201527f496e73756666696369656e7420636f6e6669726d6174696f6e730000000000006044820152606490fd5b60405162461bcd60e51b8152602060048201526014602482015273436861696e20616c72656164792065786973747360601b6044820152606490fd5b346103b95760203660031901126103b95760043560005260006020526040600020600a810180546110b7600260ff83166110b181611f79565b146120a0565b60078301546001600160a01b03163303611133576110db60098401544211156120fd565b60ff191690556000600c820155600d60009101905b60055481101561045957806040611108600193611f83565b905460039190911b1c60a084901b849003166000908152602085905220805460ff19169055016110f0565b60405162461bcd60e51b815260206004820152600e60248201526d2737ba103a34329039b2b73232b960911b6044820152606490fd5b346103b95760003660031901126103b9576111826121b1565b60008051602061256c83398151915280546001600160a01b031981169091556000906001600160a01b03167f8be0079c531659141344cd1fd0a4f28419497f9722a3daafe3b4186f6b6457e08280a3005b346103b95760203660031901126103b95760043560005260066020526020604060002054604051908152f35b346103b95760003660031901126103b9576020600754604051908152f35b346103b95760203660031901126103b9576004356003548110156103b957611246602091611fb4565b90549060031b1c604051908152f35b346103b95760003660031901126103b9577f00000000000000000000000000000000000000000000000000000000000000006001600160a01b031630036112ae57602060405160008051602061258c8339815191528152f35b63703e46dd60e11b60005260046000fd5b346103b95760203660031901126103b957600435600052600260205260e0604060002080549060018060a01b03600182015416906002810154600382015460ff6004840154169160066005850154940154946040519687526020870152604086015260608501521515608084015260a083015260c0820152f35b60403660031901126103b95761134d611fe5565b60243567ffffffffffffffff81116103b95761136d903690600401612017565b6001600160a01b037f0000000000000000000000000000000000000000000000000000000000000000163081149081156114f2575b506112ae576113af6121b1565b6040516352d1902d60e01b81526001600160a01b0383169290602081600481875afa600091816114be575b506113f45783634c9c8ce360e01b60005260045260246000fd5b8060008051602061258c8339815191528592036114aa5750813b156114965760008051602061258c83398151915280546001600160a01b031916821790557fbc7cd75a20ee27fd9adebab32041f755214dbc6bffa90cc0225b39da2e5c2d3b600080a281511561147c5760008083602061045995519101845af46114766121e7565b9161250a565b50503461148557005b63b398979f60e01b60005260046000fd5b634c9c8ce360e01b60005260045260246000fd5b632a87526960e21b60005260045260246000fd5b9091506020813d6020116114ea575b816114da60209383611eec565b810103126103b9575190856113da565b3d91506114cd565b60008051602061258c833981519152546001600160a01b031614159050836113a2565b346103b95760003660031901126103b957600b546040516001600160a01b039091168152602090f35b346103b95760203660031901126103b957611557611fe5565b61155f6121b1565b6001600160a01b031660008181526004602052604090206003015460ff1615611664576000818152600460205260408120600301805460ff191690555b6005548082101561045957826115b183611f83565b905460039190911b1c6001600160a01b0316146115d1575060010161159c565b60001981019250821161164e576102db6115ed61160593611f83565b905460039190911b1c6001600160a01b031691611f83565b6005548015611638576000190161161b81611f83565b81546001600160a01b0360039290921b9190911b19169055600555005b634e487b7160e01b600052603160045260246000fd5b634e487b7160e01b600052601160045260246000fd5b60405162461bcd60e51b815260206004820152601460248201527356616c696461746f72206e6f742061637469766560601b6044820152606490fd5b60803660031901126103b9576004356116b7611fcf565b60443560068110156103b95760643567ffffffffffffffff81116103b9576116e3903690600401612017565b928060005260026020526040600020604051906116ff82611ed0565b8054825260018060a01b036001820154166020830152600281015460408301526003810154916060810192835260c0600660ff600485015416159384156080850152600581015460a08501520154910152611ad057513410611a98576009543411611a5a5760015491611771836120e1565b600155604051602081018481524660408301528360608301526001600160601b03198660601b1660808301526000918360f81b60948201526117ea60546095838b6117c58151809260208686019101611f31565b810134838201523360601b60b58201524260c982015203016034810184520182611eec565b51902084825260208290526040909120848155466001820155600281018490556003810180546001600160a01b031916301790556004810180546001600160a81b0319166001600160a01b039097169690961760a084901b60ff60a01b16179095558551909490600582019067ffffffffffffffff81116103265761186f8254611e96565b97601f8911611a12575b602098508890601f831160011461197d5797600b7f1524062dd2914fa17e7d7a9979f47bfe7481007b3c15d4f1a063e51d8f8cf9e5979561196995856060999685968d9e600092611972575b50508160011b916000199060031b1c19161790555b346006820155600780820180546001600160a01b0319163317905542600883018190559054611908916120f0565b6009820155600a810160ff198154169055015560005260068852856040600020558260005260028852600560406000200161194381546120e1565b905561195134600a546120f0565b600a5560405192468452888401526040830190611f0e565ba2604051908152f35b015190508f806118c5565b90601f1983169184600052816000209260005b8181106119fb575095611969956001868d968d9e96600b9660609d9a7f1524062dd2914fa17e7d7a9979f47bfe7481007b3c15d4f1a063e51d8f8cf9e59f9d106119e2575b505050811b0190556118da565b015160001960f88460031b161c191690558f80806119d5565b92938c600181928786015181550195019301611990565b826000526020600020601f830160051c81019960208410611a50575b601f0160051c01985b898110611a445750611879565b60008155600101611a37565b9099508990611a2e565b60405162461bcd60e51b815260206004820152601660248201527509acae6e6c2ceca40ecc2d8eaca40e8dede40d0d2ced60531b6044820152606490fd5b60405162461bcd60e51b815260206004820152601060248201526f496e73756666696369656e742066656560801b6044820152606490fd5b60405162461bcd60e51b815260206004820152601760248201527f54617267657420636861696e206e6f74206163746976650000000000000000006044820152606490fd5b346103b95760203660031901126103b957600060c0604051611b3681611ed0565b8281528260208201528260408201528260608201528260808201528260a08201520152600435600052600260205260e06040600020604051611b7781611ed0565b81549182825260018060a01b03600182015416602083019081526002820154604084019081526003830154906060850191825260ff6004850154169260808601931515845260c0600660058701549660a089019788520154960195865260405196875260018060a01b03905116602087015251604086015251606085015251151560808401525160a08301525160c0820152f35b346103b95760203660031901126103b9576004356005548110156103b957611c34602091611f83565b905460405160039290921b1c6001600160a01b03168152f35b346103b95760203660031901126103b957600435600052600060205260406000208054600182015491600281015460018060a01b036003830154169160048101549260058201936040518095600090805490611ca882611e96565b8085529160018116908115611dca5750600114611d8c575b505003611ccd9086611eec565b600683015494600160a01b60019003600785015416600885015491600986015493600a87015460ff1695600b88015497600c0154986040519c8d9c8d5260208d015260408c015260608b0152600160a01b60019003811660808b015260a08a019060a01c60ff1690611d3e91611f0e565b60c089016101c090526101c08901611d5591611f54565b9660e0890152610100880152610120870152610140860152611d7681611f79565b6101608501526101808401526101a08301520390f35b6000908152602081209092505b818310611dae57505081016020018980611cc0565b6020919350806001915483858c01015201910190918792611d99565b9150506020925060ff191682840152151560051b8201018980611cc0565b346103b95760003660031901126103b9576020600954604051908152f35b346103b95760203660031901126103b957610459600435611e256121b1565b806000526000602052611e48600260ff600a60406000200154166110b181611f79565b612217565b346103b95760203660031901126103b957611e666121b1565b6004356000526000602052600a60406000200160028154611e8d60ff82166105d481611f79565b60ff1916179055005b90600182811c92168015611ec6575b6020831014611eb057565b634e487b7160e01b600052602260045260246000fd5b91607f1691611ea5565b60e0810190811067ffffffffffffffff82111761032657604052565b90601f8019910116810190811067ffffffffffffffff82111761032657604052565b906006821015611f1b5752565b634e487b7160e01b600052602160045260246000fd5b60005b838110611f445750506000910152565b8181015183820152602001611f34565b90602091611f6d81518092818552858086019101611f31565b601f01601f1916010190565b60041115611f1b57565b600554811015611f9e57600560005260206000200190600090565b634e487b7160e01b600052603260045260246000fd5b600354811015611f9e57600360005260206000200190600090565b602435906001600160a01b03821682036103b957565b600435906001600160a01b03821682036103b957565b67ffffffffffffffff811161032657601f01601f191660200190565b81601f820112156103b95780359061202e82611ffb565b9261203c6040519485611eec565b828452602083830101116103b957816000926020809301838601378301015290565b1561206557565b60405162461bcd60e51b81526020600482015260136024820152724d657373616765206e6f742070656e64696e6760681b6044820152606490fd5b156120a757565b60405162461bcd60e51b815260206004820152601260248201527113595cdcd859d9481b9bdd0819985a5b195960721b6044820152606490fd5b600019811461164e5760010190565b9190820180921161164e57565b1561210457565b60405162461bcd60e51b815260206004820152600f60248201526e13595cdcd859d948195e1c1a5c9959608a1b6044820152606490fd5b6001600160a01b0316801561219b5760008051602061256c83398151915280546001600160a01b0319811683179091556001600160a01b03167f8be0079c531659141344cd1fd0a4f28419497f9722a3daafe3b4186f6b6457e0600080a3565b631e4fbdf760e01b600052600060045260246000fd5b60008051602061256c833981519152546001600160a01b031633036121d257565b63118cdaa760e01b6000523360045260246000fd5b3d15612212573d906121f882611ffb565b916122066040519384611eec565b82523d6000602084013e565b606090565b8060005260006020526040600020600a81019061223b60ff8354166105d481611f79565b60018060a01b03600482015416600682015460058301906040519160009080549061226582611e96565b916001811690811561237e5750600114612349575b5050916000939181859403925af16122906121e7565b50156122f05760026020917f8a6819f7065e6ce9d7b4d9d5da38269a8b4df09653d3f86c10392ef5bccb470b93600160ff198254161790550180546000526002825260066040600020016122e481546120e1565b905554604051908152a2565b50600260ff198254161790557f385fb4d1eed51f7e816a52f3d192c98a6d7e67b147f7a753812d4ba11686fd77606060405160208152601060208201526f115e1958dd5d1a5bdb8819985a5b195960821b6040820152a2565b90915060005260206000206000905b82821061236a5750508201818361227a565b600181602092548488015201910190612358565b60ff1916865250508015150283019050818361227a565b60ff6000805160206125ac8339815191525460401c16156123b257565b631afcd79f60e31b60005260046000fd5b81519190604183036123f4576123ed92506020820151906060604084015193015160001a90612481565b9192909190565b505060009160029190565b61240881611f79565b80612411575050565b61241a81611f79565b600181036124335763f645eedf60e01b60005260046000fd5b61243c81611f79565b60028103612459575063fce698f760e01b60005260045260246000fd5b60039061246581611f79565b1461246d5750565b6335e2f38360e21b60005260045260246000fd5b91907f7fffffffffffffffffffffffffffffff5d576e7357a4501ddfe92f46681b20a084116124fe579160209360809260ff60009560405194855216868401526040830152606082015282805260015afa15610887576000516001600160a01b038116156124f25790600090600090565b50600090600190600090565b50505060009160039190565b90612530575080511561251f57602081519101fd5b63d6bda27560e01b60005260046000fd5b81511580612562575b612541575090565b639996b31560e01b60009081526001600160a01b0391909116600452602490fd5b50803b1561253956fe9016d09d72d40fdae2fd8ceac6b6234c7706214fd39c1cd1e609a0528c199300360894a13ba1a3210667c828492db98dca3e2076cc3735a920a3ca505d382bbcf0c57e16840df040f15088dc2f81fe391c3923bec73e23a9662efc9c229c6a00a26469706673582212200c664c5691c49c85eebdd38c47b62d72ec436b94c7a9547518cfda23632016ba64736f6c634300081c0033",
  "linkReferences": {},
  "deployedLinkReferences": {}
}