{
  "_format": "hh-sol-artifact-1",
  "contractName": "CrossChainMessenger",
  "sourceName": "contracts/CrossChainMessenger.sol",
  "abi": [
    {
      "inputs": [
        {
          "internalType": "address",
          "name": "target",
          "type": "address"
        }
      ],
      "name": "AddressEmptyCode",
      "type": "error"
    },
    {
      "inputs": [],
      "name": "ECDSAInvalidSignature",
      "type": "error"
    },
    {
      "inputs": [
        {
          "internalType": "uint256",
          "name": "length",
          "type": "uint256"
        }
      ],
      "name": "ECDSAInvalidSignatureLength",
      "type": "error"
    },
    {
      "inputs": [
        {
          "internalType": "bytes32",
          "name": "s",
          "type": "bytes32"
        }
      ],
      "name": "ECDSAInvalidSignatureS",
      "type": "error"
    },
    {
      "inputs": [
        {
          "internalType": "address",
          "name": "implementation",
          "type": "address"
        }
      ],
      "name": "ERC1967InvalidImplementation",
      "type": "error"
    },
    {
      "inputs": [],
      "name": "ERC1967NonPayable",
      "type": "error"
    },
    {
      "inputs": [],
      "name": "FailedCall",
      "type": "error"
    },
    {
      "inputs": [],
      "name": "InvalidInitialization",
      "type": "error"
    },
    {
      "inputs": [],
      "name": "NotInitializing",
      "type": "error"
    },
    {
      "inputs": [
        {
          "internalType": "address",
          "name": "owner",
          "type": "address"
        }
      ],
      "name": "OwnableInvalidOwner",
      "type": "error"
    },
    {
      "inputs": [
        {
          "internalType": "address",
          "name": "account",
          "type": "address"
        }
      ],
      "name": "OwnableUnauthorizedAccount",
      "type": "error"
    },
    {
      "inputs": [],
      "name": "ReentrancyGuardReentrantCall",
      "type": "error"
    },
    {
      "inputs": [],
      "name": "UUPSUnauthorizedCallContext",
      "type": "error"
    },
    {
      "inputs": [
        {
          "internalType": "bytes32",
          "name": "slot",
          "type": "bytes32"
        }
      ],
      "name": "UUPSUnsupportedProxiableUUID",
      "type": "error"
    },
    {
      "anonymous": false,
      "inputs": [
        {
          "indexed": true,
          "internalType": "uint256",
          "name": "chainId",
          "type": "uint256"
        },
        {
          "indexed": false,
          "internalType": "address",
          "name": "messengerContract",
          "type": "address"
        }
      ],
      "name": "ChainAdded",
      "type": "event"
    },
    {
      "anonymous": false,
      "inputs": [
        {
          "indexed": true,
          "internalType": "address",
          "name": "recipient",
          "type": "address"
        },
        {
          "indexed": false,
          "internalType": "uint256",
          "name": "amount",
          "type": "uint256"
        }
      ],
      "name": "FeesCollected",
      "type": "event"
    },
    {
      "anonymous": false,
      "inputs": [
        {
          "indexed": false,
          "internalType": "uint64",
          "name": "version",
          "type": "uint64"
        }
      ],
      "name": "Initialized",
      "type": "event"
    },
    {
      "anonymous": false,
      "inputs": [
        {
          "indexed": true,
          "internalType": "uint256",
          "name": "messageId",
          "type": "uint256"
        },
        {
          "indexed": false,
          "internalType": "uint256",
          "name": "targetChainId",
          "type": "uint256"
        }
      ],
      "name": "MessageDelivered",
      "type": "event"
    },
    {
      "anonymous": false,
      "inputs": [
        {
          "indexed": true,
          "internalType": "uint256",
          "name": "messageId",
          "type": "uint256"
        },
        {
          "indexed": false,
          "internalType": "string",
          "name": "reason",
          "type": "string"
        }
      ],
      "name": "MessageFailed",
      "type": "event"
    },
    {
      "anonymous": false,
      "inputs": [
        {
          "indexed": true,
          "internalType": "uint256",
          "name": "messageId",
          "type": "uint256"
        },
        {
          "indexed": false,
          "internalType": "uint256",
          "name": "sourceChainId",
          "type": "uint256"
        },
        {
          "indexed": false,
          "internalType": "uint256",
          "name": "targetChainId",
          "type": "uint256"
        },
        {
          "indexed": false,
          "internalType": "enum CrossChainMessenger.MessageType",
          "name": "messageType",
          "type": "uint8"
        }
      ],
      "name": "MessageSent",
      "type": "event"
    },
    {
      "anonymous": false,
      "inputs": [
        {
          "indexed": true,
          "internalType": "uint256",
          "name": "messageId",
          "type": "uint256"
        },
        {
          "indexed": true,
          "internalType": "address",
          "name": "validator",
          "type": "address"
        }
      ],
      "name": "MessageValidated",
      "type": "event"
    },
    {
      "anonymous": false,
      "inputs": [
        {
          "indexed": true,
          "internalType": "address",
          "name": "previousOwner",
          "type": "address"
        },
        {
          "indexed": true,
          "internalType": "address",
          "name": "newOwner",
          "type": "address"
        }
      ],
      "name": "OwnershipTransferred",
      "type": "event"
    },
    {
      "anonymous": false,
      "inputs": [
        {
          "indexed": true,
          "internalType": "address",
          "name": "implementation",
          "type": "address"
        }
      ],
      "name": "Upgraded",
      "type": "event"
    },
    {
      "anonymous": false,
      "inputs": [
        {
          "indexed": true,
          "internalType": "address",
          "name": "validator",
          "type": "address"
        },
        {
          "indexed": true,
          "internalType": "uint256",
          "name": "chainId",
          "type": "uint256"
        }
      ],
      "name": "ValidatorAdded",
      "type": "event"
    },
    {
      "inputs": [],
      "name": "UPGRADE_INTERFACE_VERSION",
      "outputs": [
        {
          "internalType": "string",
          "name": "",
          "type": "string"
        }
      ],
      "stateMutability": "view",
      "type": "function"
    },
    {
      "inputs": [
        {
          "internalType": "uint256",
          "name": "",
          "type": "uint256"
        }
      ],
      "name": "activeValidators",
      "outputs": [
        {
          "internalType": "address",
          "name": "",
          "type": "address"
        }
      ],
      "stateMutability": "view",
      "type": "function"
    },
    {
      "inputs": [
        {
          "internalType": "uint256",
          "name": "_chainId",
          "type": "uint256"
        },
        {
          "internalType": "address",
          "name": "_messengerContract",
          "type": "address"
        },
        {
          "internalType": "uint256",
          "name": "_requiredConfirmations",
          "type": "uint256"
        },
        {
          "internalType": "uint256",
          "name": "_messageFee",
          "type": "uint256"
        }
      ],
      "name": "addChain",
      "outputs": [],
      "stateMutability": "nonpayable",
      "type": "function"
    },
    {
      "inputs": [
        {
          "internalType": "address",
          "name": "_validator",
          "type": "address"
        },
        {
          "internalType": "uint256",
          "name": "_chainId",
          "type": "uint256"
        }
      ],
      "name": "addValidator",
      "outputs": [],
      "stateMutability": "nonpayable",
      "type": "function"
    },
    {
      "inputs": [
        {
          "internalType": "uint256",
          "name": "_messageId",
          "type": "uint256"
        }
      ],
      "name": "canDeliverMessage",
      "outputs": [
        {
          "internalType": "bool",
          "name": "",
          "type": "bool"
        }
      ],
      "stateMutability": "view",
      "type": "function"
    },
    {
      "inputs": [
        {
          "internalType": "uint256",
          "name": "",
          "type": "uint256"
        }
      ],
      "name": "chainConfigs",
      "outputs": [
        {
          "internalType": "uint256",
          "name": "chainId",
          "type": "uint256"
        },
        {
          "internalType": "address",
          "name": "messengerContract",
          "type": "address"
        },
        {
          "internalType": "uint256",
          "name": "requiredConfirmations",
          "type": "uint256"
        },
        {
          "internalType": "uint256",
          "name": "messageFee",
          "type": "uint256"
        },
        {
          "internalType": "bool",
          "name": "active",
          "type": "bool"
        },
        {
          "internalType": "uint256",
          "name": "totalMessages",
          "type": "uint256"
        },
        {
          "internalType": "uint256",
          "name": "successfulDeliveries",
          "type": "uint256"
        }
      ],
      "stateMutability": "view",
      "type": "function"
    },
    {
      "inputs": [],
      "name": "collectFees",
      "outputs": [],
      "stateMutability": "nonpayable",
      "type": "function"
    },
    {
      "inputs": [],
      "name": "collectedFees",
      "outputs": [
        {
          "internalType": "uint256",
          "name": "",
          "type": "uint256"
        }
      ],
      "stateMutability": "view",
      "type": "function"
    },
    {
      "inputs": [
        {
          "internalType": "uint256",
          "name": "_messageId",
          "type": "uint256"
        }
      ],
      "name": "emergencyExecuteMessage",
      "outputs": [],
      "stateMutability": "nonpayable",
      "type": "function"
    },
    {
      "inputs": [
        {
          "internalType": "uint256",
          "name": "_messageId",
          "type": "uint256"
        }
      ],
      "name": "emergencyPauseMessage",
      "outputs": [],
      "stateMutability": "nonpayable",
      "type": "function"
    },
    {
      "inputs": [],
      "name": "feeRecipient",
      "outputs": [
        {
          "internalType": "address",
          "name": "",
          "type": "address"
        }
      ],
      "stateMutability": "view",
      "type": "function"
    },
    {
      "inputs": [],
      "name": "getActiveValidators",
      "outputs": [
        {
          "internalType": "address[]",
          "name": "",
          "type": "address[]"
        }
      ],
      "stateMutability": "view",
      "type": "function"
    },
    {
      "inputs": [
        {
          "internalType": "uint256",
          "name": "_chainId",
          "type": "uint256"
        }
      ],
      "name": "getChainConfig",
      "outputs": [
        {
          "components": [
            {
              "internalType": "uint256",
              "name": "chainId",
              "type": "uint256"
            },
            {
              "internalType": "address",
              "name": "messengerContract",
              "type": "address"
            },
            {
              "internalType": "uint256",
              "name": "requiredConfirmations",
              "type": "uint256"
            },
            {
              "internalType": "uint256",
              "name": "messageFee",
              "type": "uint256"
            },
            {
              "internalType": "bool",
              "name": "active",
              "type": "bool"
            },
            {
              "internalType": "uint256",
              "name": "totalMessages",
              "type": "uint256"
            },
            {
              "internalType": "uint256",
              "name": "successfulDeliveries",
              "type": "uint256"
            }
          ],
          "internalType": "struct CrossChainMessenger.ChainConfig",
          "name": "",
          "type": "tuple"
        }
      ],
      "stateMutability": "view",
      "type": "function"
    },
    {
      "inputs": [
        {
          "internalType": "uint256",
          "name": "_messageId",
          "type": "uint256"
        }
      ],
      "name": "getMessage",
      "outputs": [
        {
          "internalType": "uint256",
          "name": "messageId",
          "type": "uint256"
        },
        {
          "internalType": "uint256",
          "name": "sourceChainId",
          "type": "uint256"
        },
        {
          "internalType": "uint256",
          "name": "targetChainId",
          "type": "uint256"
        },
        {
          "internalType": "enum CrossChainMessenger.MessageType",
          "name": "messageType",
          "type": "uint8"
        },
        {
          "internalType": "address",
          "name": "sender",
          "type": "address"
        },
        {
          "internalType": "uint256",
          "name": "timestamp",
          "type": "uint256"
        },
        {
          "internalType": "enum CrossChainMessenger.MessageStatus",
          "name": "status",
          "type": "uint8"
        },
        {
          "internalType": "uint256",
          "name": "confirmations",
          "type": "uint256"
        }
      ],
      "stateMutability": "view",
      "type": "function"
    },
    {
      "inputs": [
        {
          "internalType": "uint256",
          "name": "_messageId",
          "type": "uint256"
        }
      ],
      "name": "getMessageHash",
      "outputs": [
        {
          "internalType": "bytes32",
          "name": "",
          "type": "bytes32"
        }
      ],
      "stateMutability": "view",
      "type": "function"
    },
    {
      "inputs": [],
      "name": "getSupportedChains",
      "outputs": [
        {
          "internalType": "uint256[]",
          "name": "",
          "type": "uint256[]"
        }
      ],
      "stateMutability": "view",
      "type": "function"
    },
    {
      "inputs": [
        {
          "internalType": "address",
          "name": "_feeRecipient",
          "type": "address"
        }
      ],
      "name": "initialize",
      "outputs": [],
      "stateMutability": "nonpayable",
      "type": "function"
    },
    {
      "inputs": [],
      "name": "maxMessageValue",
      "outputs": [
        {
          "internalType": "uint256",
          "name": "",
          "type": "uint256"
        }
      ],
      "stateMutability": "view",
      "type": "function"
    },
    {
      "inputs": [],
      "name": "messageExpiry",
      "outputs": [
        {
          "internalType": "uint256",
          "name": "",
          "type": "uint256"
        }
      ],
      "stateMutability": "view",
      "type": "function"
    },
    {
      "inputs": [
        {
          "internalType": "bytes32",
          "name": "",
          "type": "bytes32"
        }
      ],
      "name": "messageHashes",
      "outputs": [
        {
          "internalType": "uint256",
          "name": "",
          "type": "uint256"
        }
      ],
      "stateMutability": "view",
      "type": "function"
    },
    {
      "inputs": [
        {
          "internalType": "uint256",
          "name": "",
          "type": "uint256"
        }
      ],
      "name": "messages",
      "outputs": [
        {
          "internalType": "uint256",
          "name": "messageId",
          "type": "uint256"
        },
        {
          "internalType": "uint256",
          "name": "sourceChainId",
          "type": "uint256"
        },
        {
          "internalType": "uint256",
          "name": "targetChainId",
          "type": "uint256"
        },
        {
          "internalType": "address",
          "name": "sourceContract",
          "type": "address"
        },
        {
          "internalType": "address",
          "name": "targetContract",
          "type": "address"
        },
        {
          "internalType": "enum CrossChainMessenger.MessageType",
          "name": "messageType",
          "type": "uint8"
        },
        {
          "internalType": "bytes",
          "name": "payload",
          "type": "bytes"
        },
        {
          "internalType": "uint256",
          "name": "value",
          "type": "uint256"
        },
        {
          "internalType": "address",
          "name": "sender",
          "type": "address"
        },
        {
          "internalType": "uint256",
          "name": "timestamp",
          "type": "uint256"
        },
        {
          "internalType": "uint256",
          "name": "expiry",
          "type": "uint256"
        },
        {
          "internalType": "enum CrossChainMessenger.MessageStatus",
          "name": "status",
          "type": "uint8"
        },
        {
          "internalType": "bytes32",
          "name": "messageHash",
          "type": "bytes32"
        },
        {
          "internalType": "uint256",
          "name": "confirmations",
          "type": "uint256"
        }
      ],
      "stateMutability": "view",
      "type": "function"
    },
    {
      "inputs": [],
      "name": "minValidators",
      "outputs": [
        {
          "internalType": "uint256",
          "name": "",
          "type": "uint256"
        }
      ],
      "stateMutability": "view",
      "type": "function"
    },
    {
      "inputs": [],
      "name": "nextMessageId",
      "outputs": [
        {
          "internalType": "uint256",
          "name": "",
          "type": "uint256"
        }
      ],
      "stateMutability": "view",
      "type": "function"
    },
    {
      "inputs": [],
      "name": "owner",
      "outputs": [
        {
          "internalType": "address",
          "name": "",
          "type": "address"
        }
      ],
      "stateMutability": "view",
      "type": "function"
    },
    {
      "inputs": [],
      "name": "proxiableUUID",
      "outputs": [
        {
          "internalType": "bytes32",
          "name": "",
          "type": "bytes32"
        }
      ],
      "stateMutability": "view",
      "type": "function"
    },
    {
      "inputs": [
        {
          "internalType": "address",
          "name": "_validator",
          "type": "address"
        }
      ],
      "name": "removeValidator",
      "outputs": [],
      "stateMutability": "nonpayable",
      "type": "function"
    },
    {
      "inputs": [],
      "name": "renounceOwnership",
      "outputs": [],
      "stateMutability": "nonpayable",
      "type": "function"
    },
    {
      "inputs": [
        {
          "internalType": "uint256",
          "name": "_messageId",
          "type": "uint256"
        }
      ],
      "name": "retryMessage",
      "outputs": [],
      "stateMutability": "nonpayable",
      "type": "function"
    },
    {
      "inputs": [
        {
          "internalType": "uint256",
          "name": "_targetChainId",
          "type": "uint256"
        },
        {
          "internalType": "address",
          "name": "_targetContract",
          "type": "address"
        },
        {
          "internalType": "enum CrossChainMessenger.MessageType",
          "name": "_messageType",
          "type": "uint8"
        },
        {
          "internalType": "bytes",
          "name": "_payload",
          "type": "bytes"
        }
      ],
      "name": "sendMessage",
      "outputs": [
        {
          "internalType": "uint256",
          "name": "",
          "type": "uint256"
        }
      ],
      "stateMutability": "payable",
      "type": "function"
    },
    {
      "inputs": [
        {
          "internalType": "address",
          "name": "_feeRecipient",
          "type": "address"
        }
      ],
      "name": "setFeeRecipient",
      "outputs": [],
      "stateMutability": "nonpayable",
      "type": "function"
    },
    {
      "inputs": [
        {
          "internalType": "uint256",
          "name": "_messageExpiry",
          "type": "uint256"
        },
        {
          "internalType": "uint256",
          "name": "_minValidators",
          "type": "uint256"
        },
        {
          "internalType": "uint256",
          "name": "_maxMessageValue",
          "type": "uint256"
        }
      ],
      "name": "setMessageParameters",
      "outputs": [],
      "stateMutability": "nonpayable",
      "type": "function"
    },
    {
      "inputs": [
        {
          "internalType": "uint256",
          "name": "",
          "type": "uint256"
        }
      ],
      "name": "supportedChains",
      "outputs": [
        {
          "internalType": "uint256",
          "name": "",
          "type": "uint256"
        }
      ],
      "stateMutability": "view",
      "type": "function"
    },
    {
      "inputs": [
        {
          "internalType": "address",
          "name": "newOwner",
          "type": "address"
        }
      ],
      "name": "transferOwnership",
      "outputs": [],
      "stateMutability": "nonpayable",
      "type": "function"
    },
    {
      "inputs": [
        {
          "internalType": "uint256",
          "name": "_chainId",
          "type": "uint256"
        },
        {
          "internalType": "uint256",
          "name": "_requiredConfirmations",
          "type": "uint256"
        },
        {
          "internalType": "uint256",
          "name": "_messageFee",
          "type": "uint256"
        },
        {
          "internalType": "bool",
          "name": "_active",
          "type": "bool"
        }
      ],
      "name": "updateChainConfig",
      "outputs": [],
      "stateMutability": "nonpayable",
      "type": "function"
    },
    {
      "inputs": [
        {
          "internalType": "address",
          "name": "newImplementation",
          "type": "address"
        },
        {
          "internalType": "bytes",
          "name": "data",
          "type": "bytes"
        }
      ],
      "name": "upgradeToAndCall",
      "outputs": [],
      "stateMutability": "payable",
      "type": "function"
    },
    {
      "inputs": [
        {
          "internalType": "uint256",
          "name": "_messageId",
          "type": "uint256"
        },
        {
          "internalType": "bytes",
          "name": "_signature",
          "type": "bytes"
        }
      ],
      "name": "validateMessage",
      "outputs": [],
      "stateMutability": "nonpayable",
      "type": "function"
    },
    {
      "inputs": [
        {
          "internalType": "address",
          "name": "",
          "type": "address"
        }
      ],
      "name": "validators",
      "outputs": [
        {
          "internalType": "address",
          "name": "validator",
          "type": "address"
        },
        {
          "internalType": "uint256",
          "name": "chainId",
          "type": "uint256"
        },
        {
          "internalType": "uint256",
          "name": "reputation",
          "type": "uint256"
        },
        {
          "internalType": "bool",
          "name": "active",
          "type": "bool"
        },
        {
          "internalType": "uint256",
          "name": "processedMessages",
          "type": "uint256"
        }
      ],
      "stateMutability": "view",
      "type": "function"
    }
  ],
  "bytecode": "0x60a08060405234604657306080526001805562093a80600755600360085568056bc75e2d6310000060095561291e908161004c823960805181818161138701526114ba0152f35b600080fdfe6080604052600436101561001257600080fd5b60003560e01c806301ea7d871461208357806304bf71831461203c57806306a2cb941461201e5780630d80fefd14611e8457806314f64c7814611e4357806319ed16dc14611d4c578063292aefcc1461188257806340a141ff1461171e57806346904840146116f75780634f1ef2861461147c57806351bfbc321461140157806352d1902d1461136c578063548d496f146113345780635c96f9b5146113165780637080f771146112ea578063715018a61461125157806375c3c4c01461114c5780637a654f5c14610f5557806386f79edb14610eb95780638da5cb5b14610e735780639003adfe14610e555780639de7025814610d895780639ebf9a3014610d5c578063ad3cb1cc14610cf9578063ba86a10d14610cca578063c4bffe2b14610c10578063c4d66de8146109f2578063c52a083914610917578063c5ab2241146108f9578063c879657214610830578063d78a89cb14610570578063d950ef1b146104bb578063e74b981b1461047b578063eefbf17e1461045d578063f2fde38b14610432578063fa52c7d8146103be5763fc6c1f02146101b357600080fd5b346103b95760403660031901126103b9576101cc61221b565b602435906101d8612450565b6001600160a01b0381169081600052600460205260ff600360406000200154166103755782600052600260205260ff60046040600020015416156103315760405160a0810181811067ffffffffffffffff82111761031b576040528281526004602082018581526102a9604084016064815260608501906001825260808601936000855288600052856020526001600160a01b03806040600020985116166001600160a01b0319885416178755516001870155516002860155511515600385019060ff801983541691151516179055565b51910155600554906801000000000000000082101561031b576102d58260016102f494016005556121b9565b9091906001600160a01b038084549260031b9316831b921b1916179055565b7f9000b209805850a65058f21361a9978cb30f1413ed555553ab52a59b440b5d99600080a3005b634e487b7160e01b600052604160045260246000fd5b606460405162461bcd60e51b815260206004820152601060248201527f436861696e206e6f7420616374697665000000000000000000000000000000006044820152fd5b606460405162461bcd60e51b815260206004820152601860248201527f56616c696461746f7220616c72656164792065786973747300000000000000006044820152fd5b600080fd5b346103b95760203660031901126103b9576001600160a01b036103df61221b565b16600052600460205260a060406000206001600160a01b03815416906001810154906002810154600460ff6003840154169201549260405194855260208501526040840152151560608301526080820152f35b346103b95760203660031901126103b95761045b61044e61221b565b610456612450565b612391565b005b346103b95760003660031901126103b9576020600154604051908152f35b346103b95760203660031901126103b9576001600160a01b0361049c61221b565b6104a4612450565b166001600160a01b0319600b541617600b55600080f35b346103b95760803660031901126103b95760643580151581036103b9576104e0612450565b60043560005260026020526040600020906001600160a01b036001830154161561052c57600461045b9260243560028201556044356003820155019060ff801983541691151516179055565b606460405162461bcd60e51b815260206004820152600f60248201527f436861696e206e6f7420666f756e6400000000000000000000000000000000006044820152fd5b346103b95760403660031901126103b95760043560243567ffffffffffffffff81116103b9576105a490369060040161224d565b33600052600460205260ff60036040600020015416156107ec578160005260006020526040600020906105e760ff600a840154166105e1816121af565b15612294565b6105f76009830154421115612346565b600d8201906001600160a01b0333166000528160205260ff604060002054166107a85761065761066091600b8501547f19457468657265756d205369676e6564204d6573736167653a0a333200000000600052601c52603c6000206126c6565b90929192612702565b6001600160a01b0333911603610764576001600160a01b0333166000526020526040600020600160ff19825416179055600c810161069e815461232a565b815533600052600460205260046040600020016106bb815461232a565b905560026040519233857fb73b16f5abb5ea5ee44d75987a3dbfb2181140ad823130664a907f26ace5399d600080a30154600052600260205260406000209161070381612106565b825481526001600160a01b03600184015416602082015260c060066002850154948560408501526003810154606085015260ff60048201541615156080850152600581015460a0850152015491015254101561075b57005b61045b906124e1565b606460405162461bcd60e51b815260206004820152601160248201527f496e76616c6964207369676e61747572650000000000000000000000000000006044820152fd5b606460405162461bcd60e51b815260206004820152601160248201527f416c72656164792076616c6964617465640000000000000000000000000000006044820152fd5b606460405162461bcd60e51b815260206004820152601760248201527f4e6f7420616e206163746976652076616c696461746f720000000000000000006044820152fd5b346103b95760003660031901126103b957610849612450565b600a5480156108b5576000600a556000808080846001600160a01b03600b541682f1156108a9577f9dc46f23cfb5ddcad0ae7ea2be38d47fec07bb9382ec7e564efc69e036dd66ce60206001600160a01b03600b541692604051908152a2005b6040513d6000823e3d90fd5b606460405162461bcd60e51b815260206004820152601260248201527f4e6f206665657320746f20636f6c6c65637400000000000000000000000000006044820152fd5b346103b95760003660031901126103b9576020600854604051908152f35b346103b95760203660031901126103b95760043560005260006020526020604060002060028101546000526002825260406000209060405161095881612106565b825481526001600160a01b036001840154168482015260c06006600285015494604084019586526003810154606085015260ff60048201541615156080850152600581015460a0850152015491015260ff600a820154166109b8816121af565b1591826109e1575b50816109d2575b506040519015158152f35b600991500154421115826109c7565b600c820154905111159150836109c0565b346103b95760203660031901126103b957610a0b61221b565b7ff0c57e16840df040f15088dc2f81fe391c3923bec73e23a9662efc9c229c6a005460ff8160401c16159167ffffffffffffffff821680159081610c08575b6001149081610bfe575b159081610bf5575b50610bcb5767ffffffffffffffff1982166001177ff0c57e16840df040f15088dc2f81fe391c3923bec73e23a9662efc9c229c6a00556001600160a01b039183610b8c575b50610aaa61266d565b610ab261266d565b610abb33612391565b610ac361266d565b610acb61266d565b60017f9b779b17422d0df92223018b32b4d1fa46e071723d6817e2486d003becc55f0055610af761266d565b166001600160a01b0319600b541617600b55610b0f57005b68ff0000000000000000197ff0c57e16840df040f15088dc2f81fe391c3923bec73e23a9662efc9c229c6a0054167ff0c57e16840df040f15088dc2f81fe391c3923bec73e23a9662efc9c229c6a00557fc7f505b2f371ae2175ee4913f4499e1f2633a7b5936321eed1cdaeb6115181d2602060405160018152a1005b68ffffffffffffffffff191668010000000000000001177ff0c57e16840df040f15088dc2f81fe391c3923bec73e23a9662efc9c229c6a005583610aa1565b7ff92ee8a90000000000000000000000000000000000000000000000000000000060005260046000fd5b90501584610a5c565b303b159150610a54565b849150610a4a565b346103b95760003660031901126103b9576040518060206003549283815201809260036000527fc2575a0e9e593c00f959f8c92f12db2869c3395a3b0502d05e2516446f71f85b9060005b818110610cb45750505081610c71910382612122565b6040519182916020830190602084525180915260408301919060005b818110610c9b575050500390f35b8251845285945060209384019390920191600101610c8d565b8254845260209093019260019283019201610c5b565b346103b95760203660031901126103b95760043560005260006020526020600b60406000200154604051908152f35b346103b95760003660031901126103b957610d586040805190610d1c8183612122565b600582527f352e302e3000000000000000000000000000000000000000000000000000000060208301525191829160208352602083019061218a565b0390f35b346103b95760603660031901126103b957610d75612450565b600435600755602435600855604435600955005b346103b95760003660031901126103b9576040518060206005549283815201809260056000527f036b6384b5eca791c62761152d0c79bb0604c104a5fb6f4eb0703f3154bb3db09060005b818110610e365750505081610dea910382612122565b6040519182916020830190602084525180915260408301919060005b818110610e14575050500390f35b82516001600160a01b0316845285945060209384019390920191600101610e06565b82546001600160a01b0316845260209093019260019283019201610dd4565b346103b95760003660031901126103b9576020600a54604051908152f35b346103b95760003660031901126103b95760206001600160a01b037f9016d09d72d40fdae2fd8ceac6b6234c7706214fd39c1cd1e609a0528c1993005416604051908152f35b346103b95760203660031901126103b95760043560005260006020526101006040600020805490600181015490600281015460ff600483015460a01c16610f366001600160a01b0360078501541691600885015493600c60ff600a8801541696015496604051988952602089015260408801526060870190612144565b608085015260a0840152610f49816121af565b60c083015260e0820152f35b346103b95760803660031901126103b957600435610f71612205565b60443590610f7d612450565b8260005260026020526001600160a01b03600160406000200154166111085760085482106110c457600660405191610fb483612106565b8483526001600160a01b03602084019116938482526040840190815261105460608501606435815260808601906001825260a0870193600085526001600160a01b0360c0890196600088528b6000526002602052604060002099518a5551166001600160a01b0360018a0191166001600160a01b0319825416179055516002880155516003870155511515600486019060ff801983541691151516179055565b516005840155519101556003546801000000000000000081101561031b577fd34413f9daf08c09e55b3ad5e2f7f18249f3ff26c061cb904f99597dd14ad53e916110a6826001602094016003556121ea565b81549060031b9086821b91600019901b1916179055604051908152a2005b606460405162461bcd60e51b815260206004820152601a60248201527f496e73756666696369656e7420636f6e6669726d6174696f6e730000000000006044820152fd5b606460405162461bcd60e51b815260206004820152601460248201527f436861696e20616c7265616479206578697374730000000000000000000000006044820152fd5b346103b95760203660031901126103b95760043560005260006020526040600020600a8101805461118b600260ff8316611185816121af565b146122df565b6001600160a01b03600784015416330361120d576111af6009840154421115612346565b60ff191690556000600c820155600d60009101905b60055481101561045b578060406001600160a01b036111e46001946121b9565b90549060031b1c166001600160a01b03600091168152846020522060ff198154169055016111c4565b606460405162461bcd60e51b815260206004820152600e60248201527f4e6f74207468652073656e6465720000000000000000000000000000000000006044820152fd5b346103b95760003660031901126103b95761126a612450565b60006001600160a01b037f9016d09d72d40fdae2fd8ceac6b6234c7706214fd39c1cd1e609a0528c199300546001600160a01b031981167f9016d09d72d40fdae2fd8ceac6b6234c7706214fd39c1cd1e609a0528c19930055167f8be0079c531659141344cd1fd0a4f28419497f9722a3daafe3b4186f6b6457e08280a3005b346103b95760203660031901126103b95760043560005260066020526020604060002054604051908152f35b346103b95760003660031901126103b9576020600754604051908152f35b346103b95760203660031901126103b9576004356003548110156103b95761135d6020916121ea565b90549060031b1c604051908152f35b346103b95760003660031901126103b9576001600160a01b037f00000000000000000000000000000000000000000000000000000000000000001630036113d75760206040517f360894a13ba1a3210667c828492db98dca3e2076cc3735a920a3ca505d382bbc8152f35b7fe07c8dba0000000000000000000000000000000000000000000000000000000060005260046000fd5b346103b95760203660031901126103b957600435600052600260205260e060406000208054906001600160a01b03600182015416906002810154600382015460ff6004840154169160066005850154940154946040519687526020870152604086015260608501521515608084015260a083015260c0820152f35b60403660031901126103b95761149061221b565b60243567ffffffffffffffff81116103b9576114b090369060040161224d565b6001600160a01b037f0000000000000000000000000000000000000000000000000000000000000000168030149081156116c2575b506113d7576114f2612450565b6001600160a01b038216916040517f52d1902d000000000000000000000000000000000000000000000000000000008152602081600481875afa6000918161168e575b5061154f5783634c9c8ce360e01b60005260045260246000fd5b807f360894a13ba1a3210667c828492db98dca3e2076cc3735a920a3ca505d382bbc8592036116615750813b1561164d57806001600160a01b03197f360894a13ba1a3210667c828492db98dca3e2076cc3735a920a3ca505d382bbc5416177f360894a13ba1a3210667c828492db98dca3e2076cc3735a920a3ca505d382bbc557fbc7cd75a20ee27fd9adebab32041f755214dbc6bffa90cc0225b39da2e5c2d3b600080a281511561161a5760008083602061045b95519101845af46116146124b1565b91612858565b50503461162357005b7fb398979f0000000000000000000000000000000000000000000000000000000060005260046000fd5b634c9c8ce360e01b60005260045260246000fd5b7faa1d49a40000000000000000000000000000000000000000000000000000000060005260045260246000fd5b9091506020813d6020116116ba575b816116aa60209383612122565b810103126103b957519085611535565b3d915061169d565b90506001600160a01b037f360894a13ba1a3210667c828492db98dca3e2076cc3735a920a3ca505d382bbc54161415836114e5565b346103b95760003660031901126103b95760206001600160a01b03600b5416604051908152f35b346103b95760203660031901126103b9576001600160a01b0361173f61221b565b611747612450565b1680600052600460205260ff600360406000200154161561183e576000818152600460205260408120600301805460ff191690555b6005548082101561045b57826001600160a01b03611799846121b9565b90549060031b1c16146117af575060010161177c565b600019810192508211611828576102d56001600160a01b036117d36117e1946121b9565b90549060031b1c16916121b9565b600554801561181257600019016117f7816121b9565b6001600160a01b0382549160031b1b19169055600555600080f35b634e487b7160e01b600052603160045260246000fd5b634e487b7160e01b600052601160045260246000fd5b606460405162461bcd60e51b815260206004820152601460248201527f56616c696461746f72206e6f74206163746976650000000000000000000000006044820152fd5b60803660031901126103b957600435611899612205565b60443560068110156103b95760643567ffffffffffffffff81116103b9576118c590369060040161224d565b928060005260026020526040600020604051906118e182612106565b805482526001600160a01b036001820154166020830152600281015460408301526003810154916060810192835260c0600660ff600485015416159384156080850152600581015460a08501520154910152611d0857513410611cc4576009543411611c8057600154916119548361232a565b600155604051602081018481524660408301528360608301526bffffffffffffffffffffffff198660601b1660808301526000918360f81b60948201526119d260546095838b6119ad8151809260208686019101612167565b810134838201523360601b60b58201524260c982015203016034810184520182612122565b51902094848252816020526040822091858355466001840155846002840155600383016001600160a01b0330166001600160a01b03198254161790556001600160a01b036004840192166001600160a01b03198354161782555080547fffffffffffffffffffffff00ffffffffffffffffffffffffffffffffffffffff74ff00000000000000000000000000000000000000008560a01b16911617905560058101865167ffffffffffffffff811161031b57611a8e82546120cc565b97601f8911611c38575b602098508890601f8311600114611ba35797600b7f1524062dd2914fa17e7d7a9979f47bfe7481007b3c15d4f1a063e51d8f8cf9e59795611b8f95856060999685968d9e600092611b98575b50508160011b916000199060031b1c19161790555b346006820155600781016001600160a01b0333166001600160a01b0319825416179055426008820155611b2e60075442612339565b6009820155600a810160ff1981541690550155600052600688528560406000205582600052600288526005604060002001611b69815461232a565b9055611b7734600a54612339565b600a5560405192468452888401526040830190612144565ba2604051908152f35b015190508f80611ae4565b90601f1983169184600052816000209260005b818110611c21575095611b8f956001868d968d9e96600b9660609d9a7f1524062dd2914fa17e7d7a9979f47bfe7481007b3c15d4f1a063e51d8f8cf9e59f9d10611c08575b505050811b019055611af9565b015160001960f88460031b161c191690558f8080611bfb565b92938c600181928786015181550195019301611bb6565b826000526020600020601f830160051c81019960208410611c76575b601f0160051c01985b898110611c6a5750611a98565b60008155600101611c5d565b9099508990611c54565b606460405162461bcd60e51b815260206004820152601660248201527f4d6573736167652076616c756520746f6f2068696768000000000000000000006044820152fd5b606460405162461bcd60e51b815260206004820152601060248201527f496e73756666696369656e7420666565000000000000000000000000000000006044820152fd5b606460405162461bcd60e51b815260206004820152601760248201527f54617267657420636861696e206e6f74206163746976650000000000000000006044820152fd5b346103b95760203660031901126103b957600060c0604051611d6d81612106565b8281528260208201528260408201528260608201528260808201528260a08201520152600435600052600260205260e06040600020604051611dae81612106565b8154918282526001600160a01b0360018201541660208301908152600282015460408401908152600383015490606085019182526001600160a01b0360ff6004860154169360808701941515855260c0600660058801549760a08a01988952015497019687526040519788525116602087015251604086015251606085015251151560808401525160a08301525160c0820152f35b346103b95760203660031901126103b9576004356005548110156103b9576001600160a01b03611e746020926121b9565b90549060031b1c16604051908152f35b346103b95760203660031901126103b95760043560005260006020526040600020805460018201549160028101546001600160a01b036003830154169160048101549260058201936040518095600090805490611ee0826120cc565b80855291600181169081156120005750600114611fc2575b505003611f059086612122565b60068301549460078401546001600160a01b0316600885015491600986015493600a87015460ff1695600b88015497600c0154986040519c8d9c8d5260208d015260408c015260608b01526001600160a01b03811660808b015260a08a019060a01c60ff1690611f7491612144565b60c089016101c090526101c08901611f8b9161218a565b9660e0890152610100880152610120870152610140860152611fac816121af565b6101608501526101808401526101a08301520390f35b6000908152602081209092505b818310611fe457505081016020018980611ef8565b6020919350806001915483858c01015201910190918792611fcf565b9150506020925060ff191682840152151560051b8201018980611ef8565b346103b95760003660031901126103b9576020600954604051908152f35b346103b95760203660031901126103b95761045b60043561205b612450565b80600052600060205261207e600260ff600a6040600020015416611185816121af565b6124e1565b346103b95760203660031901126103b95761209c612450565b6004356000526000602052600a604060002001600281546120c360ff82166105e1816121af565b60ff1916179055005b90600182811c921680156120fc575b60208310146120e657565b634e487b7160e01b600052602260045260246000fd5b91607f16916120db565b60e0810190811067ffffffffffffffff82111761031b57604052565b90601f8019910116810190811067ffffffffffffffff82111761031b57604052565b9060068210156121515752565b634e487b7160e01b600052602160045260246000fd5b60005b83811061217a5750506000910152565b818101518382015260200161216a565b906020916121a381518092818552858086019101612167565b601f01601f1916010190565b6004111561215157565b6005548110156121d457600560005260206000200190600090565b634e487b7160e01b600052603260045260246000fd5b6003548110156121d457600360005260206000200190600090565b602435906001600160a01b03821682036103b957565b600435906001600160a01b03821682036103b957565b67ffffffffffffffff811161031b57601f01601f191660200190565b81601f820112156103b95780359061226482612231565b926122726040519485612122565b828452602083830101116103b957816000926020809301838601378301015290565b1561229b57565b606460405162461bcd60e51b815260206004820152601360248201527f4d657373616765206e6f742070656e64696e67000000000000000000000000006044820152fd5b156122e657565b606460405162461bcd60e51b815260206004820152601260248201527f4d657373616765206e6f74206661696c656400000000000000000000000000006044820152fd5b60001981146118285760010190565b9190820180921161182857565b1561234d57565b606460405162461bcd60e51b815260206004820152600f60248201527f4d657373616765206578706972656400000000000000000000000000000000006044820152fd5b6001600160a01b03168015612421576001600160a01b037f9016d09d72d40fdae2fd8ceac6b6234c7706214fd39c1cd1e609a0528c19930054826001600160a01b03198216177f9016d09d72d40fdae2fd8ceac6b6234c7706214fd39c1cd1e609a0528c19930055167f8be0079c531659141344cd1fd0a4f28419497f9722a3daafe3b4186f6b6457e0600080a3565b7f1e4fbdf700000000000000000000000000000000000000000000000000000000600052600060045260246000fd5b6001600160a01b037f9016d09d72d40fdae2fd8ceac6b6234c7706214fd39c1cd1e609a0528c1993005416330361248357565b7f118cdaa7000000000000000000000000000000000000000000000000000000006000523360045260246000fd5b3d156124dc573d906124c282612231565b916124d06040519384612122565b82523d6000602084013e565b606090565b8060005260006020526040600020600a81019061250560ff8354166105e1816121af565b6001600160a01b036004820154166006820154600583019060405191600090805490612530826120cc565b91600181169081156126565750600114612621575b5050916000939181859403925af161255b6124b1565b50156125bb5760026020917f8a6819f7065e6ce9d7b4d9d5da38269a8b4df09653d3f86c10392ef5bccb470b93600160ff198254161790550180546000526002825260066040600020016125af815461232a565b905554604051908152a2565b50600260ff198254161790557f385fb4d1eed51f7e816a52f3d192c98a6d7e67b147f7a753812d4ba11686fd77606060405160208152601060208201527f457865637574696f6e206661696c6564000000000000000000000000000000006040820152a2565b90915060005260206000206000905b82821061264257505082018183612545565b600181602092548488015201910190612630565b60ff19168652505080151502830190508183612545565b60ff7ff0c57e16840df040f15088dc2f81fe391c3923bec73e23a9662efc9c229c6a005460401c161561269c57565b7fd7e6bcf80000000000000000000000000000000000000000000000000000000060005260046000fd5b81519190604183036126f7576126f092506020820151906060604084015193015160001a906127cf565b9192909190565b505060009160029190565b61270b816121af565b80612714575050565b61271d816121af565b6001810361274f577ff645eedf0000000000000000000000000000000000000000000000000000000060005260046000fd5b612758816121af565b6002810361278e57507ffce698f70000000000000000000000000000000000000000000000000000000060005260045260246000fd5b60039061279a816121af565b146127a25750565b7fd78bce0c0000000000000000000000000000000000000000000000000000000060005260045260246000fd5b91907f7fffffffffffffffffffffffffffffff5d576e7357a4501ddfe92f46681b20a0841161284c579160209360809260ff60009560405194855216868401526040830152606082015282805260015afa156108a9576000516001600160a01b038116156128405790600090600090565b50600090600190600090565b50505060009160039190565b90612897575080511561286d57602081519101fd5b7fd6bda2750000000000000000000000000000000000000000000000000000000060005260046000fd5b815115806128df575b6128a8575090565b6001600160a01b03907f9996b315000000000000000000000000000000000000000000000000000000006000521660045260246000fd5b50803b156128a056fea26469706673582212206826e7c026ce968c67e816c27aaac23414a4d354037950e2fa528c5682022f0464736f6c634300081c0033",
  "linkReferences": {},
  "deployedLinkReferences": {}
}