{
  "_format": "hh-sol-artifact-1",
  "contractName": "AgriCredit",
  "sourceName": "contracts/AgriCredit.sol",
  "abi": [
    {
      "inputs": [],
      "name": "AccessControlBadConfirmation",
      "type": "error"
    },
    {
      "inputs": [
        {
          "internalType": "address",
          "name": "account",
          "type": "address"
        },
        {
          "internalType": "bytes32",
          "name": "neededRole",
          "type": "bytes32"
        }
      ],
      "name": "AccessControlUnauthorizedAccount",
      "type": "error"
    },
    {
      "inputs": [
        {
          "internalType": "address",
          "name": "target",
          "type": "address"
        }
      ],
      "name": "AddressEmptyCode",
      "type": "error"
    },
    {
      "inputs": [
        {
          "internalType": "address",
          "name": "implementation",
          "type": "address"
        }
      ],
      "name": "ERC1967InvalidImplementation",
      "type": "error"
    },
    {
      "inputs": [],
      "name": "ERC1967NonPayable",
      "type": "error"
    },
    {
      "inputs": [
        {
          "internalType": "address",
          "name": "spender",
          "type": "address"
        },
        {
          "internalType": "uint256",
          "name": "allowance",
          "type": "uint256"
        },
        {
          "internalType": "uint256",
          "name": "needed",
          "type": "uint256"
        }
      ],
      "name": "ERC20InsufficientAllowance",
      "type": "error"
    },
    {
      "inputs": [
        {
          "internalType": "address",
          "name": "sender",
          "type": "address"
        },
        {
          "internalType": "uint256",
          "name": "balance",
          "type": "uint256"
        },
        {
          "internalType": "uint256",
          "name": "needed",
          "type": "uint256"
        }
      ],
      "name": "ERC20InsufficientBalance",
      "type": "error"
    },
    {
      "inputs": [
        {
          "internalType": "address",
          "name": "approver",
          "type": "address"
        }
      ],
      "name": "ERC20InvalidApprover",
      "type": "error"
    },
    {
      "inputs": [
        {
          "internalType": "address",
          "name": "receiver",
          "type": "address"
        }
      ],
      "name": "ERC20InvalidReceiver",
      "type": "error"
    },
    {
      "inputs": [
        {
          "internalType": "address",
          "name": "sender",
          "type": "address"
        }
      ],
      "name": "ERC20InvalidSender",
      "type": "error"
    },
    {
      "inputs": [
        {
          "internalType": "address",
          "name": "spender",
          "type": "address"
        }
      ],
      "name": "ERC20InvalidSpender",
      "type": "error"
    },
    {
      "inputs": [],
      "name": "EnforcedPause",
      "type": "error"
    },
    {
      "inputs": [],
      "name": "ExpectedPause",
      "type": "error"
    },
    {
      "inputs": [],
      "name": "FailedCall",
      "type": "error"
    },
    {
      "inputs": [],
      "name": "InvalidInitialization",
      "type": "error"
    },
    {
      "inputs": [],
      "name": "NotInitializing",
      "type": "error"
    },
    {
      "inputs": [
        {
          "internalType": "address",
          "name": "owner",
          "type": "address"
        }
      ],
      "name": "OwnableInvalidOwner",
      "type": "error"
    },
    {
      "inputs": [
        {
          "internalType": "address",
          "name": "account",
          "type": "address"
        }
      ],
      "name": "OwnableUnauthorizedAccount",
      "type": "error"
    },
    {
      "inputs": [],
      "name": "ReentrancyGuardReentrantCall",
      "type": "error"
    },
    {
      "inputs": [],
      "name": "UUPSUnauthorizedCallContext",
      "type": "error"
    },
    {
      "inputs": [
        {
          "internalType": "bytes32",
          "name": "slot",
          "type": "bytes32"
        }
      ],
      "name": "UUPSUnsupportedProxiableUUID",
      "type": "error"
    },
    {
      "anonymous": false,
      "inputs": [
        {
          "indexed": true,
          "internalType": "address",
          "name": "owner",
          "type": "address"
        },
        {
          "indexed": true,
          "internalType": "address",
          "name": "spender",
          "type": "address"
        },
        {
          "indexed": false,
          "internalType": "uint256",
          "name": "value",
          "type": "uint256"
        }
      ],
      "name": "Approval",
      "type": "event"
    },
    {
      "anonymous": false,
      "inputs": [
        {
          "indexed": true,
          "internalType": "address",
          "name": "account",
          "type": "address"
        }
      ],
      "name": "Blacklisted",
      "type": "event"
    },
    {
      "anonymous": false,
      "inputs": [
        {
          "indexed": true,
          "internalType": "address",
          "name": "by",
          "type": "address"
        }
      ],
      "name": "EmergencyPaused",
      "type": "event"
    },
    {
      "anonymous": false,
      "inputs": [
        {
          "indexed": true,
          "internalType": "address",
          "name": "by",
          "type": "address"
        }
      ],
      "name": "EmergencyUnpaused",
      "type": "event"
    },
    {
      "anonymous": false,
      "inputs": [
        {
          "indexed": true,
          "internalType": "address",
          "name": "governance",
          "type": "address"
        }
      ],
      "name": "GovernanceContractUpdated",
      "type": "event"
    },
    {
      "anonymous": false,
      "inputs": [
        {
          "indexed": false,
          "internalType": "uint64",
          "name": "version",
          "type": "uint64"
        }
      ],
      "name": "Initialized",
      "type": "event"
    },
    {
      "anonymous": false,
      "inputs": [
        {
          "indexed": true,
          "internalType": "address",
          "name": "previousOwner",
          "type": "address"
        },
        {
          "indexed": true,
          "internalType": "address",
          "name": "newOwner",
          "type": "address"
        }
      ],
      "name": "OwnershipTransferred",
      "type": "event"
    },
    {
      "anonymous": false,
      "inputs": [
        {
          "indexed": false,
          "internalType": "address",
          "name": "account",
          "type": "address"
        }
      ],
      "name": "Paused",
      "type": "event"
    },
    {
      "anonymous": false,
      "inputs": [
        {
          "indexed": false,
          "internalType": "uint256",
          "name": "threshold",
          "type": "uint256"
        }
      ],
      "name": "ProposalThresholdUpdated",
      "type": "event"
    },
    {
      "anonymous": false,
      "inputs": [
        {
          "indexed": true,
          "internalType": "bytes32",
          "name": "role",
          "type": "bytes32"
        },
        {
          "indexed": true,
          "internalType": "bytes32",
          "name": "previousAdminRole",
          "type": "bytes32"
        },
        {
          "indexed": true,
          "internalType": "bytes32",
          "name": "newAdminRole",
          "type": "bytes32"
        }
      ],
      "name": "RoleAdminChanged",
      "type": "event"
    },
    {
      "anonymous": false,
      "inputs": [
        {
          "indexed": true,
          "internalType": "bytes32",
          "name": "role",
          "type": "bytes32"
        },
        {
          "indexed": true,
          "internalType": "address",
          "name": "account",
          "type": "address"
        },
        {
          "indexed": true,
          "internalType": "address",
          "name": "sender",
          "type": "address"
        }
      ],
      "name": "RoleGranted",
      "type": "event"
    },
    {
      "anonymous": false,
      "inputs": [
        {
          "indexed": true,
          "internalType": "bytes32",
          "name": "role",
          "type": "bytes32"
        },
        {
          "indexed": true,
          "internalType": "address",
          "name": "account",
          "type": "address"
        },
        {
          "indexed": true,
          "internalType": "address",
          "name": "sender",
          "type": "address"
        }
      ],
      "name": "RoleRevoked",
      "type": "event"
    },
    {
      "anonymous": false,
      "inputs": [
        {
          "indexed": false,
          "internalType": "uint256",
          "name": "newRate",
          "type": "uint256"
        }
      ],
      "name": "StakingRewardRateUpdated",
      "type": "event"
    },
    {
      "anonymous": false,
      "inputs": [
        {
          "indexed": true,
          "internalType": "address",
          "name": "user",
          "type": "address"
        },
        {
          "indexed": false,
          "internalType": "uint256",
          "name": "amount",
          "type": "uint256"
        }
      ],
      "name": "StakingRewardsClaimed",
      "type": "event"
    },
    {
      "anonymous": false,
      "inputs": [
        {
          "indexed": true,
          "internalType": "address",
          "name": "burner",
          "type": "address"
        },
        {
          "indexed": false,
          "internalType": "uint256",
          "name": "amount",
          "type": "uint256"
        }
      ],
      "name": "TokensBurned",
      "type": "event"
    },
    {
      "anonymous": false,
      "inputs": [
        {
          "indexed": true,
          "internalType": "address",
          "name": "user",
          "type": "address"
        },
        {
          "indexed": false,
          "internalType": "uint256",
          "name": "amount",
          "type": "uint256"
        },
        {
          "indexed": false,
          "internalType": "uint256",
          "name": "lockPeriod",
          "type": "uint256"
        }
      ],
      "name": "TokensStaked",
      "type": "event"
    },
    {
      "anonymous": false,
      "inputs": [
        {
          "indexed": true,
          "internalType": "address",
          "name": "user",
          "type": "address"
        },
        {
          "indexed": false,
          "internalType": "uint256",
          "name": "amount",
          "type": "uint256"
        },
        {
          "indexed": false,
          "internalType": "uint256",
          "name": "rewards",
          "type": "uint256"
        }
      ],
      "name": "TokensUnstaked",
      "type": "event"
    },
    {
      "anonymous": false,
      "inputs": [
        {
          "indexed": true,
          "internalType": "address",
          "name": "from",
          "type": "address"
        },
        {
          "indexed": true,
          "internalType": "address",
          "name": "to",
          "type": "address"
        },
        {
          "indexed": false,
          "internalType": "uint256",
          "name": "value",
          "type": "uint256"
        }
      ],
      "name": "Transfer",
      "type": "event"
    },
    {
      "anonymous": false,
      "inputs": [
        {
          "indexed": true,
          "internalType": "address",
          "name": "account",
          "type": "address"
        },
        {
          "indexed": false,
          "internalType": "uint256",
          "name": "limit",
          "type": "uint256"
        }
      ],
      "name": "TransferLimitUpdated",
      "type": "event"
    },
    {
      "anonymous": false,
      "inputs": [
        {
          "indexed": true,
          "internalType": "address",
          "name": "account",
          "type": "address"
        }
      ],
      "name": "Unblacklisted",
      "type": "event"
    },
    {
      "anonymous": false,
      "inputs": [
        {
          "indexed": false,
          "internalType": "address",
          "name": "account",
          "type": "address"
        }
      ],
      "name": "Unpaused",
      "type": "event"
    },
    {
      "anonymous": false,
      "inputs": [
        {
          "indexed": true,
          "internalType": "address",
          "name": "implementation",
          "type": "address"
        }
      ],
      "name": "Upgraded",
      "type": "event"
    },
    {
      "anonymous": false,
      "inputs": [
        {
          "indexed": true,
          "internalType": "uint256",
          "name": "vestingId",
          "type": "uint256"
        },
        {
          "indexed": true,
          "internalType": "address",
          "name": "beneficiary",
          "type": "address"
        },
        {
          "indexed": false,
          "internalType": "uint256",
          "name": "amount",
          "type": "uint256"
        }
      ],
      "name": "VestedTokensReleased",
      "type": "event"
    },
    {
      "anonymous": false,
      "inputs": [
        {
          "indexed": true,
          "internalType": "uint256",
          "name": "vestingId",
          "type": "uint256"
        },
        {
          "indexed": true,
          "internalType": "address",
          "name": "beneficiary",
          "type": "address"
        },
        {
          "indexed": false,
          "internalType": "uint256",
          "name": "amount",
          "type": "uint256"
        }
      ],
      "name": "VestingRevoked",
      "type": "event"
    },
    {
      "anonymous": false,
      "inputs": [
        {
          "indexed": true,
          "internalType": "uint256",
          "name": "vestingId",
          "type": "uint256"
        },
        {
          "indexed": true,
          "internalType": "address",
          "name": "beneficiary",
          "type": "address"
        },
        {
          "indexed": false,
          "internalType": "uint256",
          "name": "amount",
          "type": "uint256"
        }
      ],
      "name": "VestingScheduleCreated",
      "type": "event"
    },
    {
      "anonymous": false,
      "inputs": [
        {
          "indexed": true,
          "internalType": "address",
          "name": "delegator",
          "type": "address"
        },
        {
          "indexed": true,
          "internalType": "address",
          "name": "delegate",
          "type": "address"
        }
      ],
      "name": "VotingPowerDelegated",
      "type": "event"
    },
    {
      "inputs": [],
      "name": "BURNER_ROLE",
      "outputs": [
        {
          "internalType": "bytes32",
          "name": "",
          "type": "bytes32"
        }
      ],
      "stateMutability": "view",
      "type": "function"
    },
    {
      "inputs": [],
      "name": "DEFAULT_ADMIN_ROLE",
      "outputs": [
        {
          "internalType": "bytes32",
          "name": "",
          "type": "bytes32"
        }
      ],
      "stateMutability": "view",
      "type": "function"
    },
    {
      "inputs": [],
      "name": "GOVERNANCE_ROLE",
      "outputs": [
        {
          "internalType": "bytes32",
          "name": "",
          "type": "bytes32"
        }
      ],
      "stateMutability": "view",
      "type": "function"
    },
    {
      "inputs": [],
      "name": "INITIAL_SUPPLY",
      "outputs": [
        {
          "internalType": "uint256",
          "name": "",
          "type": "uint256"
        }
      ],
      "stateMutability": "view",
      "type": "function"
    },
    {
      "inputs": [],
      "name": "MAX_SUPPLY",
      "outputs": [
        {
          "internalType": "uint256",
          "name": "",
          "type": "uint256"
        }
      ],
      "stateMutability": "view",
      "type": "function"
    },
    {
      "inputs": [],
      "name": "MINTER_ROLE",
      "outputs": [
        {
          "internalType": "bytes32",
          "name": "",
          "type": "bytes32"
        }
      ],
      "stateMutability": "view",
      "type": "function"
    },
    {
      "inputs": [],
      "name": "PAUSER_ROLE",
      "outputs": [
        {
          "internalType": "bytes32",
          "name": "",
          "type": "bytes32"
        }
      ],
      "stateMutability": "view",
      "type": "function"
    },
    {
      "inputs": [],
      "name": "TRANSFER_COOLDOWN",
      "outputs": [
        {
          "internalType": "uint256",
          "name": "",
          "type": "uint256"
        }
      ],
      "stateMutability": "view",
      "type": "function"
    },
    {
      "inputs": [],
      "name": "UPGRADE_INTERFACE_VERSION",
      "outputs": [
        {
          "internalType": "string",
          "name": "",
          "type": "string"
        }
      ],
      "stateMutability": "view",
      "type": "function"
    },
    {
      "inputs": [
        {
          "internalType": "address",
          "name": "owner",
          "type": "address"
        },
        {
          "internalType": "address",
          "name": "spender",
          "type": "address"
        }
      ],
      "name": "allowance",
      "outputs": [
        {
          "internalType": "uint256",
          "name": "",
          "type": "uint256"
        }
      ],
      "stateMutability": "view",
      "type": "function"
    },
    {
      "inputs": [
        {
          "internalType": "address",
          "name": "spender",
          "type": "address"
        },
        {
          "internalType": "uint256",
          "name": "value",
          "type": "uint256"
        }
      ],
      "name": "approve",
      "outputs": [
        {
          "internalType": "bool",
          "name": "",
          "type": "bool"
        }
      ],
      "stateMutability": "nonpayable",
      "type": "function"
    },
    {
      "inputs": [
        {
          "internalType": "address",
          "name": "account",
          "type": "address"
        }
      ],
      "name": "balanceOf",
      "outputs": [
        {
          "internalType": "uint256",
          "name": "",
          "type": "uint256"
        }
      ],
      "stateMutability": "view",
      "type": "function"
    },
    {
      "inputs": [
        {
          "internalType": "address[]",
          "name": "recipients",
          "type": "address[]"
        },
        {
          "internalType": "uint256[]",
          "name": "amounts",
          "type": "uint256[]"
        }
      ],
      "name": "batchTransfer",
      "outputs": [],
      "stateMutability": "nonpayable",
      "type": "function"
    },
    {
      "inputs": [
        {
          "internalType": "address",
          "name": "account",
          "type": "address"
        }
      ],
      "name": "blacklist",
      "outputs": [],
      "stateMutability": "nonpayable",
      "type": "function"
    },
    {
      "inputs": [
        {
          "internalType": "address",
          "name": "",
          "type": "address"
        }
      ],
      "name": "blacklisted",
      "outputs": [
        {
          "internalType": "bool",
          "name": "",
          "type": "bool"
        }
      ],
      "stateMutability": "view",
      "type": "function"
    },
    {
      "inputs": [
        {
          "internalType": "uint256",
          "name": "amount",
          "type": "uint256"
        }
      ],
      "name": "burn",
      "outputs": [],
      "stateMutability": "nonpayable",
      "type": "function"
    },
    {
      "inputs": [
        {
          "internalType": "address",
          "name": "account",
          "type": "address"
        },
        {
          "internalType": "uint256",
          "name": "amount",
          "type": "uint256"
        }
      ],
      "name": "burnFrom",
      "outputs": [],
      "stateMutability": "nonpayable",
      "type": "function"
    },
    {
      "inputs": [
        {
          "internalType": "address",
          "name": "account",
          "type": "address"
        }
      ],
      "name": "canPropose",
      "outputs": [
        {
          "internalType": "bool",
          "name": "",
          "type": "bool"
        }
      ],
      "stateMutability": "view",
      "type": "function"
    },
    {
      "inputs": [],
      "name": "claimStakingRewards",
      "outputs": [],
      "stateMutability": "nonpayable",
      "type": "function"
    },
    {
      "inputs": [
        {
          "internalType": "address",
          "name": "beneficiary",
          "type": "address"
        },
        {
          "internalType": "uint256",
          "name": "amount",
          "type": "uint256"
        },
        {
          "internalType": "uint256",
          "name": "startTime",
          "type": "uint256"
        },
        {
          "internalType": "uint256",
          "name": "duration",
          "type": "uint256"
        },
        {
          "internalType": "uint256",
          "name": "cliffDuration",
          "type": "uint256"
        },
        {
          "internalType": "bool",
          "name": "revocable",
          "type": "bool"
        }
      ],
      "name": "createVestingSchedule",
      "outputs": [
        {
          "internalType": "uint256",
          "name": "",
          "type": "uint256"
        }
      ],
      "stateMutability": "nonpayable",
      "type": "function"
    },
    {
      "inputs": [],
      "name": "decimals",
      "outputs": [
        {
          "internalType": "uint8",
          "name": "",
          "type": "uint8"
        }
      ],
      "stateMutability": "view",
      "type": "function"
    },
    {
      "inputs": [
        {
          "internalType": "address",
          "name": "delegate",
          "type": "address"
        }
      ],
      "name": "delegateVotingPower",
      "outputs": [],
      "stateMutability": "nonpayable",
      "type": "function"
    },
    {
      "inputs": [],
      "name": "emergencyPause",
      "outputs": [],
      "stateMutability": "nonpayable",
      "type": "function"
    },
    {
      "inputs": [],
      "name": "emergencyUnpause",
      "outputs": [],
      "stateMutability": "nonpayable",
      "type": "function"
    },
    {
      "inputs": [
        {
          "internalType": "address",
          "name": "token",
          "type": "address"
        },
        {
          "internalType": "uint256",
          "name": "amount",
          "type": "uint256"
        }
      ],
      "name": "emergencyWithdraw",
      "outputs": [],
      "stateMutability": "nonpayable",
      "type": "function"
    },
    {
      "inputs": [
        {
          "internalType": "address",
          "name": "account",
          "type": "address"
        }
      ],
      "name": "getRemainingTransferLimit",
      "outputs": [
        {
          "internalType": "uint256",
          "name": "",
          "type": "uint256"
        }
      ],
      "stateMutability": "view",
      "type": "function"
    },
    {
      "inputs": [
        {
          "internalType": "bytes32",
          "name": "role",
          "type": "bytes32"
        }
      ],
      "name": "getRoleAdmin",
      "outputs": [
        {
          "internalType": "bytes32",
          "name": "",
          "type": "bytes32"
        }
      ],
      "stateMutability": "view",
      "type": "function"
    },
    {
      "inputs": [
        {
          "internalType": "address",
          "name": "user",
          "type": "address"
        }
      ],
      "name": "getStakingInfo",
      "outputs": [
        {
          "internalType": "uint256",
          "name": "stakedAmount",
          "type": "uint256"
        },
        {
          "internalType": "uint256",
          "name": "lockPeriod",
          "type": "uint256"
        },
        {
          "internalType": "uint256",
          "name": "endTime",
          "type": "uint256"
        },
        {
          "internalType": "uint256",
          "name": "pendingRewards",
          "type": "uint256"
        }
      ],
      "stateMutability": "view",
      "type": "function"
    },
    {
      "inputs": [
        {
          "internalType": "address",
          "name": "account",
          "type": "address"
        }
      ],
      "name": "getTransferLimit",
      "outputs": [
        {
          "internalType": "uint256",
          "name": "",
          "type": "uint256"
        }
      ],
      "stateMutability": "view",
      "type": "function"
    },
    {
      "inputs": [
        {
          "internalType": "address",
          "name": "account",
          "type": "address"
        }
      ],
      "name": "getVotingPower",
      "outputs": [
        {
          "internalType": "uint256",
          "name": "",
          "type": "uint256"
        }
      ],
      "stateMutability": "view",
      "type": "function"
    },
    {
      "inputs": [],
      "name": "globalTransferLimit",
      "outputs": [
        {
          "internalType": "uint256",
          "name": "",
          "type": "uint256"
        }
      ],
      "stateMutability": "view",
      "type": "function"
    },
    {
      "inputs": [],
      "name": "governanceContract",
      "outputs": [
        {
          "internalType": "address",
          "name": "",
          "type": "address"
        }
      ],
      "stateMutability": "view",
      "type": "function"
    },
    {
      "inputs": [
        {
          "internalType": "bytes32",
          "name": "role",
          "type": "bytes32"
        },
        {
          "internalType": "address",
          "name": "account",
          "type": "address"
        }
      ],
      "name": "grantRole",
      "outputs": [],
      "stateMutability": "nonpayable",
      "type": "function"
    },
    {
      "inputs": [
        {
          "internalType": "bytes32",
          "name": "role",
          "type": "bytes32"
        },
        {
          "internalType": "address",
          "name": "account",
          "type": "address"
        }
      ],
      "name": "hasRole",
      "outputs": [
        {
          "internalType": "bool",
          "name": "",
          "type": "bool"
        }
      ],
      "stateMutability": "view",
      "type": "function"
    },
    {
      "inputs": [
        {
          "internalType": "address",
          "name": "_governanceContract",
          "type": "address"
        }
      ],
      "name": "initialize",
      "outputs": [],
      "stateMutability": "nonpayable",
      "type": "function"
    },
    {
      "inputs": [
        {
          "internalType": "address",
          "name": "account",
          "type": "address"
        }
      ],
      "name": "isBlacklisted",
      "outputs": [
        {
          "internalType": "bool",
          "name": "",
          "type": "bool"
        }
      ],
      "stateMutability": "view",
      "type": "function"
    },
    {
      "inputs": [],
      "name": "lastRewardUpdate",
      "outputs": [
        {
          "internalType": "uint256",
          "name": "",
          "type": "uint256"
        }
      ],
      "stateMutability": "view",
      "type": "function"
    },
    {
      "inputs": [
        {
          "internalType": "address",
          "name": "",
          "type": "address"
        }
      ],
      "name": "lastTransferTime",
      "outputs": [
        {
          "internalType": "uint256",
          "name": "",
          "type": "uint256"
        }
      ],
      "stateMutability": "view",
      "type": "function"
    },
    {
      "inputs": [
        {
          "internalType": "address",
          "name": "to",
          "type": "address"
        },
        {
          "internalType": "uint256",
          "name": "amount",
          "type": "uint256"
        }
      ],
      "name": "mint",
      "outputs": [],
      "stateMutability": "nonpayable",
      "type": "function"
    },
    {
      "inputs": [],
      "name": "name",
      "outputs": [
        {
          "internalType": "string",
          "name": "",
          "type": "string"
        }
      ],
      "stateMutability": "view",
      "type": "function"
    },
    {
      "inputs": [],
      "name": "nextVestingId",
      "outputs": [
        {
          "internalType": "uint256",
          "name": "",
          "type": "uint256"
        }
      ],
      "stateMutability": "view",
      "type": "function"
    },
    {
      "inputs": [],
      "name": "owner",
      "outputs": [
        {
          "internalType": "address",
          "name": "",
          "type": "address"
        }
      ],
      "stateMutability": "view",
      "type": "function"
    },
    {
      "inputs": [],
      "name": "pause",
      "outputs": [],
      "stateMutability": "nonpayable",
      "type": "function"
    },
    {
      "inputs": [],
      "name": "paused",
      "outputs": [
        {
          "internalType": "bool",
          "name": "",
          "type": "bool"
        }
      ],
      "stateMutability": "view",
      "type": "function"
    },
    {
      "inputs": [],
      "name": "proposalThreshold",
      "outputs": [
        {
          "internalType": "uint256",
          "name": "",
          "type": "uint256"
        }
      ],
      "stateMutability": "view",
      "type": "function"
    },
    {
      "inputs": [],
      "name": "proxiableUUID",
      "outputs": [
        {
          "internalType": "bytes32",
          "name": "",
          "type": "bytes32"
        }
      ],
      "stateMutability": "view",
      "type": "function"
    },
    {
      "inputs": [
        {
          "internalType": "uint256",
          "name": "vestingId",
          "type": "uint256"
        }
      ],
      "name": "releaseVestedTokens",
      "outputs": [],
      "stateMutability": "nonpayable",
      "type": "function"
    },
    {
      "inputs": [],
      "name": "renounceOwnership",
      "outputs": [],
      "stateMutability": "nonpayable",
      "type": "function"
    },
    {
      "inputs": [
        {
          "internalType": "bytes32",
          "name": "role",
          "type": "bytes32"
        },
        {
          "internalType": "address",
          "name": "callerConfirmation",
          "type": "address"
        }
      ],
      "name": "renounceRole",
      "outputs": [],
      "stateMutability": "nonpayable",
      "type": "function"
    },
    {
      "inputs": [
        {
          "internalType": "bytes32",
          "name": "role",
          "type": "bytes32"
        },
        {
          "internalType": "address",
          "name": "account",
          "type": "address"
        }
      ],
      "name": "revokeRole",
      "outputs": [],
      "stateMutability": "nonpayable",
      "type": "function"
    },
    {
      "inputs": [
        {
          "internalType": "uint256",
          "name": "vestingId",
          "type": "uint256"
        }
      ],
      "name": "revokeVesting",
      "outputs": [],
      "stateMutability": "nonpayable",
      "type": "function"
    },
    {
      "inputs": [],
      "name": "rewardPerTokenStored",
      "outputs": [
        {
          "internalType": "uint256",
          "name": "",
          "type": "uint256"
        }
      ],
      "stateMutability": "view",
      "type": "function"
    },
    {
      "inputs": [
        {
          "internalType": "uint256",
          "name": "limit",
          "type": "uint256"
        }
      ],
      "name": "setGlobalTransferLimit",
      "outputs": [],
      "stateMutability": "nonpayable",
      "type": "function"
    },
    {
      "inputs": [
        {
          "internalType": "address",
          "name": "_governance",
          "type": "address"
        }
      ],
      "name": "setGovernanceContract",
      "outputs": [],
      "stateMutability": "nonpayable",
      "type": "function"
    },
    {
      "inputs": [
        {
          "internalType": "uint256",
          "name": "threshold",
          "type": "uint256"
        }
      ],
      "name": "setProposalThreshold",
      "outputs": [],
      "stateMutability": "nonpayable",
      "type": "function"
    },
    {
      "inputs": [
        {
          "internalType": "uint256",
          "name": "newRate",
          "type": "uint256"
        }
      ],
      "name": "setStakingRewardRate",
      "outputs": [],
      "stateMutability": "nonpayable",
      "type": "function"
    },
    {
      "inputs": [
        {
          "internalType": "address",
          "name": "account",
          "type": "address"
        },
        {
          "internalType": "uint256",
          "name": "limit",
          "type": "uint256"
        }
      ],
      "name": "setTransferLimit",
      "outputs": [],
      "stateMutability": "nonpayable",
      "type": "function"
    },
    {
      "inputs": [
        {
          "internalType": "uint256",
          "name": "amount",
          "type": "uint256"
        },
        {
          "internalType": "uint256",
          "name": "lockPeriod",
          "type": "uint256"
        },
        {
          "internalType": "bool",
          "name": "autoCompound",
          "type": "bool"
        }
      ],
      "name": "stakeTokens",
      "outputs": [],
      "stateMutability": "nonpayable",
      "type": "function"
    },
    {
      "inputs": [
        {
          "internalType": "address",
          "name": "",
          "type": "address"
        }
      ],
      "name": "stakingPositions",
      "outputs": [
        {
          "internalType": "uint256",
          "name": "amount",
          "type": "uint256"
        },
        {
          "internalType": "uint256",
          "name": "startTime",
          "type": "uint256"
        },
        {
          "internalType": "uint256",
          "name": "lockPeriod",
          "type": "uint256"
        },
        {
          "internalType": "uint256",
          "name": "rewardDebt",
          "type": "uint256"
        },
        {
          "internalType": "bool",
          "name": "autoCompound",
          "type": "bool"
        }
      ],
      "stateMutability": "view",
      "type": "function"
    },
    {
      "inputs": [],
      "name": "stakingRewardRate",
      "outputs": [
        {
          "internalType": "uint256",
          "name": "",
          "type": "uint256"
        }
      ],
      "stateMutability": "view",
      "type": "function"
    },
    {
      "inputs": [
        {
          "internalType": "bytes4",
          "name": "interfaceId",
          "type": "bytes4"
        }
      ],
      "name": "supportsInterface",
      "outputs": [
        {
          "internalType": "bool",
          "name": "",
          "type": "bool"
        }
      ],
      "stateMutability": "view",
      "type": "function"
    },
    {
      "inputs": [],
      "name": "symbol",
      "outputs": [
        {
          "internalType": "string",
          "name": "",
          "type": "string"
        }
      ],
      "stateMutability": "view",
      "type": "function"
    },
    {
      "inputs": [],
      "name": "totalStaked",
      "outputs": [
        {
          "internalType": "uint256",
          "name": "",
          "type": "uint256"
        }
      ],
      "stateMutability": "view",
      "type": "function"
    },
    {
      "inputs": [],
      "name": "totalSupply",
      "outputs": [
        {
          "internalType": "uint256",
          "name": "",
          "type": "uint256"
        }
      ],
      "stateMutability": "view",
      "type": "function"
    },
    {
      "inputs": [],
      "name": "totalVested",
      "outputs": [
        {
          "internalType": "uint256",
          "name": "",
          "type": "uint256"
        }
      ],
      "stateMutability": "view",
      "type": "function"
    },
    {
      "inputs": [
        {
          "internalType": "address",
          "name": "to",
          "type": "address"
        },
        {
          "internalType": "uint256",
          "name": "value",
          "type": "uint256"
        }
      ],
      "name": "transfer",
      "outputs": [
        {
          "internalType": "bool",
          "name": "",
          "type": "bool"
        }
      ],
      "stateMutability": "nonpayable",
      "type": "function"
    },
    {
      "inputs": [
        {
          "internalType": "address",
          "name": "from",
          "type": "address"
        },
        {
          "internalType": "address",
          "name": "to",
          "type": "address"
        },
        {
          "internalType": "uint256",
          "name": "value",
          "type": "uint256"
        }
      ],
      "name": "transferFrom",
      "outputs": [
        {
          "internalType": "bool",
          "name": "",
          "type": "bool"
        }
      ],
      "stateMutability": "nonpayable",
      "type": "function"
    },
    {
      "inputs": [
        {
          "internalType": "address",
          "name": "",
          "type": "address"
        }
      ],
      "name": "transferLimits",
      "outputs": [
        {
          "internalType": "uint256",
          "name": "",
          "type": "uint256"
        }
      ],
      "stateMutability": "view",
      "type": "function"
    },
    {
      "inputs": [
        {
          "internalType": "address",
          "name": "newOwner",
          "type": "address"
        }
      ],
      "name": "transferOwnership",
      "outputs": [],
      "stateMutability": "nonpayable",
      "type": "function"
    },
    {
      "inputs": [
        {
          "internalType": "address",
          "name": "to",
          "type": "address"
        },
        {
          "internalType": "uint256",
          "name": "amount",
          "type": "uint256"
        },
        {
          "internalType": "string",
          "name": "memo",
          "type": "string"
        }
      ],
      "name": "transferWithMemo",
      "outputs": [
        {
          "internalType": "bool",
          "name": "",
          "type": "bool"
        }
      ],
      "stateMutability": "nonpayable",
      "type": "function"
    },
    {
      "inputs": [
        {
          "internalType": "address",
          "name": "account",
          "type": "address"
        }
      ],
      "name": "unblacklist",
      "outputs": [],
      "stateMutability": "nonpayable",
      "type": "function"
    },
    {
      "inputs": [],
      "name": "unpause",
      "outputs": [],
      "stateMutability": "nonpayable",
      "type": "function"
    },
    {
      "inputs": [],
      "name": "unstakeTokens",
      "outputs": [],
      "stateMutability": "nonpayable",
      "type": "function"
    },
    {
      "inputs": [
        {
          "internalType": "address",
          "name": "newImplementation",
          "type": "address"
        },
        {
          "internalType": "bytes",
          "name": "data",
          "type": "bytes"
        }
      ],
      "name": "upgradeToAndCall",
      "outputs": [],
      "stateMutability": "payable",
      "type": "function"
    },
    {
      "inputs": [
        {
          "internalType": "uint256",
          "name": "vestingId",
          "type": "uint256"
        }
      ],
      "name": "vestedAmount",
      "outputs": [
        {
          "internalType": "uint256",
          "name": "",
          "type": "uint256"
        }
      ],
      "stateMutability": "view",
      "type": "function"
    },
    {
      "inputs": [
        {
          "internalType": "uint256",
          "name": "",
          "type": "uint256"
        }
      ],
      "name": "vestingSchedules",
      "outputs": [
        {
          "internalType": "address",
          "name": "beneficiary",
          "type": "address"
        },
        {
          "internalType": "uint256",
          "name": "totalAmount",
          "type": "uint256"
        },
        {
          "internalType": "uint256",
          "name": "releasedAmount",
          "type": "uint256"
        },
        {
          "internalType": "uint256",
          "name": "startTime",
          "type": "uint256"
        },
        {
          "internalType": "uint256",
          "name": "duration",
          "type": "uint256"
        },
        {
          "internalType": "uint256",
          "name": "cliffDuration",
          "type": "uint256"
        },
        {
          "internalType": "bool",
          "name": "revocable",
          "type": "bool"
        },
        {
          "internalType": "bool",
          "name": "revoked",
          "type": "bool"
        }
      ],
      "stateMutability": "view",
      "type": "function"
    }
  ],
  "bytecode": "0x60a080604052346029573060805261495f908161002f82396080518181816126a9015261286c0152f35b600080fdfe608080604052600436101561001357600080fd5b60003560e01c90816301ffc9a7146132e75750806306fdde0314613201578063095ea7b3146130fd5780630d2d8a31146130c35780631129753f1461305557806318160ddd14613018578063199cbc5414612ffa5780631bfce85314612fdc5780632314164114612fb957806323b872dd14612f815780632464745514612f60578063248a9ca314612f14578063282c51f314612ed95780632f2ff15d14612e7a5780632ff2e9dc14612e55578063313ce56714612e3957806332cb6b0c14612e1257806336568abe14612db35780633f4ba83a14612d1d57806340c10f1914612c4c57806342966c6814612c0057806342b4632e14612bd5578063495f3d2714612bb75780634a4e3bd514612ad15780634f1ef2861461281d5780634f3fc2df146127ff57806351858e271461274157806352820f621461272357806352d1902d1461268e5780635c975abb1461264c5780635edf9e611461262957806369efe471146125ef5780636b69e05b1461254d5780636d3cbe21146124c457806370a082311461246b578063715018a6146123d257806375e3661e1461236b57806379cc6790146122915780637a4a3412146122745780637d2aeb8a146120c55780638148580d1461205a578063817b1cd21461203c5780638456cb5914611fa457806388d695b214611d9e5780638da5cb5b14611d5857806391d1485414611ceb57806395ccea6714611bbe57806395d89b4114611aa7578063a217fddf14611a8b578063a3c2710d14611a6d578063a5ce413b14611903578063a9059cbb146118dd578063aa4704f31461175b578063aaad932114611488578063ad3cb1cc1461142d578063b172b22214611406578063b58131b0146113e8578063b7d685191461128b578063b9e2c1e01461101c578063bb4d443614610ff1578063c4d66de8146108e2578063d5391393146108a7578063d547741f14610843578063dbac26e914610363578063dd12820014610706578063dd62ed3e14610689578063df136d651461066b578063e63ab1e914610630578063ece40cc1146105e4578063f0b6e33f1461057a578063f2fde38b1461054f578063f36c8f5c14610514578063f3ff955a14610475578063f7334ee214610411578063f9f92be4146103a75763fe575a871461036357600080fd5b346103a25760203660031901126103a2576001600160a01b036103846133ce565b166000526000602052602060ff604060002054166040519015158152f35b600080fd5b346103a25760203660031901126103a2576001600160a01b036103c86133ce565b6103d0614242565b168060005260006020526040600020600160ff198254161790557fffa4e6181777692565cf28528fc88fd1516ea86b56da075235fa575af6a4b855600080a2005b346103a25760603660031901126103a25761042a6133ce565b6044359067ffffffffffffffff82116103a257366023830112156103a25761045f61046a923690602481600401359101613455565b506024359033613f73565b602060405160018152f35b346103a25760203660031901126103a25761048e6133ce565b6001600160a01b03600c5416156104d0576001600160a01b0316337fbfa9be947969a7d4f47eceedb207379702a5e9e8b82ec09d564da75195f8689e600080a3005b606460405162461bcd60e51b815260206004820152601260248201527f476f7665726e616e6365206e6f742073657400000000000000000000000000006044820152fd5b346103a25760003660031901126103a25760206040517f71840dc4906352362b0cdaf79870196c8e42acafade72d5d5a6d59291253ceb18152f35b346103a25760203660031901126103a25761057861056b6133ce565b610573614242565b613734565b005b346103a25760403660031901126103a2576105936133ce565b7f19fba008e9d79eb8a8325333a2a40c0eeb1cad9d3db2e3751def35008bc9f78f60206001600160a01b03602435936105ca614242565b1692836000526002825280604060002055604051908152a2005b346103a25760203660031901126103a2577f75176781f69c55e26fee85d480452b0b9038b9428704bb7b232fc1c638bbf80360206004356106236138b8565b80600d55604051908152a1005b346103a25760003660031901126103a25760206040517f65d7a28e3265b37a6474929f336521b332c1681b933f6cb9f3376673440d862a8152f35b346103a25760003660031901126103a2576020600854604051908152f35b346103a25760403660031901126103a2576106a26133ce565b6001600160a01b036106ee6106b56133e4565b926001600160a01b03166000527f52c63247e1f47db19d5ce0460030c497f067ca4cebf71ba98eeadabe20bace01602052604060002090565b91166000526020526020604060002054604051908152f35b346103a25760203660031901126103a2576004356107226138b8565b80600052600360205260406000209060068201805460ff8116156107ff5760ff8160081c166107bb576101009061ff0019161790557f740e00656bffeb4991e0c72cb99c21c504d644c1f90eaff0d75112260f58891760206001600160a01b0361079560018601546002870154906134eb565b946107a286600b546134eb565b600b556107af8630614536565b541693604051908152a3005b606460405162461bcd60e51b815260206004820152600f60248201527f416c7265616479207265766f6b656400000000000000000000000000000000006044820152fd5b606460405162461bcd60e51b815260206004820152600d60248201527f4e6f74207265766f6361626c65000000000000000000000000000000000000006044820152fd5b346103a25760403660031901126103a2576105786004356108626133e4565b906108a261089d826000527f02dd7bc7dec4dceedda775e58dd541e08a116c6c53815c0bd028192f7b62680060205260016040600020015490565b61392a565b6142a3565b346103a25760003660031901126103a25760206040517f9f2df0fed2c77648de5860a4cc508cd0818c85b8b8a1ab4ceeef8d981c8956a68152f35b346103a25760203660031901126103a2576108fb6133ce565b7ff0c57e16840df040f15088dc2f81fe391c3923bec73e23a9662efc9c229c6a005460ff8160401c16159067ffffffffffffffff811680159081610fe9575b6001149081610fdf575b159081610fd6575b50610fac5767ffffffffffffffff1981166001177ff0c57e16840df040f15088dc2f81fe391c3923bec73e23a9662efc9c229c6a005581610f6d575b506040908151926109998385613417565b601084527f4167726943726564697420546f6b656e0000000000000000000000000000000060208501528251936109d08486613417565b600485527f41475243000000000000000000000000000000000000000000000000000000006020860152610a02614840565b610a0a614840565b80519067ffffffffffffffff8211610e17578190610a487f52c63247e1f47db19d5ce0460030c497f067ca4cebf71ba98eeadabe20bace03546134a4565b601f8111610ede575b50602090601f8311600114610e3857600092610e2d575b50508160011b916000199060031b1c1916177f52c63247e1f47db19d5ce0460030c497f067ca4cebf71ba98eeadabe20bace03555b835167ffffffffffffffff8111610e1757610ad87f52c63247e1f47db19d5ce0460030c497f067ca4cebf71ba98eeadabe20bace04546134a4565b601f8111610d93575b50602094601f8211600114610cee57948192939495600092610ce3575b50508160011b916000199060031b1c1916177f52c63247e1f47db19d5ce0460030c497f067ca4cebf71ba98eeadabe20bace04555b610b3b614840565b610b43614840565b610b4b614840565b610b53614840565b610b5c33613734565b610b64614840565b610b6c614840565b610b74614840565b60017f9b779b17422d0df92223018b32b4d1fa46e071723d6817e2486d003becc55f0055610ba0614840565b3315610cb4576001600160a01b0390610bc369d3c21bcecceda1000000336146e7565b610bcc33613a5e565b50610bd633613b0a565b50610be033613bd8565b50610bea33613ca6565b50610bf481613990565b50166001600160a01b0319600c541617600c554260095569152d02c7e14af68000006005556103206006556001600a5569152d02c7e14af6800000600d55610c3857005b60207fc7f505b2f371ae2175ee4913f4499e1f2633a7b5936321eed1cdaeb6115181d29168ff0000000000000000197ff0c57e16840df040f15088dc2f81fe391c3923bec73e23a9662efc9c229c6a0054167ff0c57e16840df040f15088dc2f81fe391c3923bec73e23a9662efc9c229c6a00555160018152a1005b7fec442f0500000000000000000000000000000000000000000000000000000000600052600060045260246000fd5b015190508580610afe565b601f198216957f52c63247e1f47db19d5ce0460030c497f067ca4cebf71ba98eeadabe20bace04600052806000209160005b888110610d7b57508360019596979810610d62575b505050811b017f52c63247e1f47db19d5ce0460030c497f067ca4cebf71ba98eeadabe20bace0455610b33565b015160001960f88460031b161c19169055858080610d35565b91926020600181928685015181550194019201610d20565b7f52c63247e1f47db19d5ce0460030c497f067ca4cebf71ba98eeadabe20bace046000527f46a2803e59a4de4e7a4c574b1243f25977ac4c77d5a1a4a609b5394cebb4a2aa601f830160051c81019160208410610e0d575b601f0160051c01905b818110610e015750610ae1565b60008155600101610df4565b9091508190610deb565b634e487b7160e01b600052604160045260246000fd5b015190508680610a68565b7f52c63247e1f47db19d5ce0460030c497f067ca4cebf71ba98eeadabe20bace0360009081528281209350601f198516905b818110610ec65750908460019594939210610ead575b505050811b017f52c63247e1f47db19d5ce0460030c497f067ca4cebf71ba98eeadabe20bace0355610a9d565b015160001960f88460031b161c19169055868080610e80565b92936020600181928786015181550195019301610e6a565b7f52c63247e1f47db19d5ce0460030c497f067ca4cebf71ba98eeadabe20bace036000529091507f2ae08a8e29253f69ac5d979a101956ab8f8d9d7ded63fa7a83b16fc47648eab0601f840160051c81019160208510610f63575b90601f859493920160051c01905b818110610f545750610a51565b60008155849350600101610f47565b9091508190610f39565b68ffffffffffffffffff191668010000000000000001177ff0c57e16840df040f15088dc2f81fe391c3923bec73e23a9662efc9c229c6a005582610988565b7ff92ee8a90000000000000000000000000000000000000000000000000000000060005260046000fd5b9050158461094c565b303b159150610944565b83915061093a565b346103a25760203660031901126103a257602061101461100f6133ce565b6136e4565b604051908152f35b346103a25760603660031901126103a25760043560243560443580151581036103a25761104761438b565b61104f6144e1565b821561124757336000527f52c63247e1f47db19d5ce0460030c497f067ca4cebf71ba98eeadabe20bace0060205282604060002054106112035762278d00821015806111f5575b156111b1576110a433614404565b336000526004602052604060002090815461116d576110e190848355426001840155836002840155600483019060ff801983541691151516179055565b6003670de0b6b3a76400006110f8600854866134f8565b04910155611108826007546134de565b600755611116823033613f73565b60405191825260208201527fdd2a19c3bdd089cbe77c04f5655f83de0504d6140d12c8667646f55d0557c4dc60403392a260017f9b779b17422d0df92223018b32b4d1fa46e071723d6817e2486d003becc55f0055005b606460405162461bcd60e51b815260206004820152600f60248201527f416c7265616479207374616b696e6700000000000000000000000000000000006044820152fd5b606460405162461bcd60e51b815260206004820152601360248201527f496e76616c6964206c6f636b20706572696f64000000000000000000000000006044820152fd5b506301e13380821115611096565b606460405162461bcd60e51b815260206004820152601460248201527f496e73756666696369656e742062616c616e63650000000000000000000000006044820152fd5b606460405162461bcd60e51b815260206004820152601260248201527f416d6f756e74206d757374206265203e203000000000000000000000000000006044820152fd5b346103a25760203660031901126103a2576004356112a76137f3565b61138881116113a4576112bc600954426134eb565b80151580611399575b6112ff575b7f39c078e0c9be5a018723ae5517e933105b55d82377b3f6b19db1933767a21bdc6020834260095580600655604051908152a1005b9064496cebb80061131e60075493611319600654866134f8565b6134f8565b0490670de0b6b3a7640000820291808304670de0b6b3a76400001490151715611383576113796113717f39c078e0c9be5a018723ae5517e933105b55d82377b3f6b19db1933767a21bdc9460209461350b565b6008546134de565b60085591506112ca565b634e487b7160e01b600052601160045260246000fd5b5060075415156112c5565b606460405162461bcd60e51b815260206004820152600d60248201527f5261746520746f6f2068696768000000000000000000000000000000000000006044820152fd5b346103a25760003660031901126103a2576020600d54604051908152f35b346103a25760003660031901126103a25760206001600160a01b03600c5416604051908152f35b346103a25760003660031901126103a25761148460408051906114508183613417565b600582527f352e302e3000000000000000000000000000000000000000000000000000000060208301525191829182613385565b0390f35b346103a25760c03660031901126103a2576114a16133ce565b602435906064356084359160a435908115158092036103a2576001600160a01b03906114cb6138b8565b169182156117175784156116d35761151b6b033b2e3c9fd0803ce8000000611514877f52c63247e1f47db19d5ce0460030c497f067ca4cebf71ba98eeadabe20bace02546134de565b111561363a565b801561168f5780841161164b57600a549360001985146113835760209585937fc5fe10002947d574aa59081d50c74a9a815e093167384ee589a1c827bfd9d3af9361160d60068a9560018901600a5560405190611577826133fa565b8a8252878201948786526040830160008152606084019060443582526080850192835260a0850193845260c0850198895260e0850197600089528d60005260038c526001600160a01b0360406000209651166001600160a01b03198754161786555160018601555160028501555160038401555160048301555160058201550192511515839060ff801983541691151516179055565b51151561ff0082549160081b169061ff00191617905561162f81600b546134de565b600b5561163c8130614370565b604051908152a3604051908152f35b606460405162461bcd60e51b815260206004820152601c60248201527f436c6966662063616e6e6f7420657863656564206475726174696f6e000000006044820152fd5b606460405162461bcd60e51b815260206004820152601060248201527f496e76616c6964206475726174696f6e000000000000000000000000000000006044820152fd5b606460405162461bcd60e51b815260206004820152600e60248201527f496e76616c696420616d6f756e740000000000000000000000000000000000006044820152fd5b606460405162461bcd60e51b815260206004820152601360248201527f496e76616c69642062656e6566696369617279000000000000000000000000006044820152fd5b346103a25760203660031901126103a2576001600160a01b0361177c6133ce565b16600052600460205260406000206040519060a0820182811067ffffffffffffffff821117610e175760405280548083526001820154602084019081526002830154926040850193845260ff60046003830154926060880193845201541615156080860152600092611813575b506117fb6080945193518092516134de565b90604051938452602084015260408301526060820152f35b93915060085493611826600954426134eb565b801515806118d2575b611863575b5061185b6117fb91670de0b6b3a764000061185260809887516134f8565b049051906134eb565b9294506117e9565b64496cebb80061187c60075492611319600654856134f8565b0491670de0b6b3a7640000830292808404670de0b6b3a7640000149015171561138357670de0b6b3a76400006118526118c76080996118c161185b966117fb9861350b565b906134de565b985050509150611834565b50600754151561182f565b346103a25760403660031901126103a25761046a6118f96133ce565b6024359033613f73565b346103a25760003660031901126103a25761191c61438b565b3360005260046020526040600020805415611a295761194460018201546002830154906134de565b42106119e55761195333614404565b805490600060038201549161196a846007546134eb565b60075555611979823330613f73565b806119d6575b60405191825260208201527f6f2d3e000c89d37446b7c0374c0125068ff316d1e3ee302336478a8cd03c233660403392a260017f9b779b17422d0df92223018b32b4d1fa46e071723d6817e2486d003becc55f0055005b6119e08133614370565b61197f565b606460405162461bcd60e51b815260206004820152600c60248201527f5374696c6c206c6f636b656400000000000000000000000000000000000000006044820152fd5b606460405162461bcd60e51b815260206004820152601360248201527f4e6f207374616b696e6720706f736974696f6e000000000000000000000000006044820152fd5b346103a25760003660031901126103a2576020600954604051908152f35b346103a25760003660031901126103a257602060405160008152f35b346103a25760003660031901126103a25760405160007f52c63247e1f47db19d5ce0460030c497f067ca4cebf71ba98eeadabe20bace0454611ae8816134a4565b8084529060018116908115611b9a5750600114611b1c575b61148483611b1081850382613417565b60405191829182613385565b7f52c63247e1f47db19d5ce0460030c497f067ca4cebf71ba98eeadabe20bace0460009081527f46a2803e59a4de4e7a4c574b1243f25977ac4c77d5a1a4a609b5394cebb4a2aa939250905b808210611b8057509091508101602001611b10611b00565b919260018160209254838588010152019101909291611b68565b60ff191660208086019190915291151560051b84019091019150611b109050611b00565b346103a25760403660031901126103a2576001600160a01b03611bdf6133ce565b611be7614242565b16308114611ca757602060009160446001600160a01b037f9016d09d72d40fdae2fd8ceac6b6234c7706214fd39c1cd1e609a0528c199300541660405194859384927fa9059cbb000000000000000000000000000000000000000000000000000000008452600484015260243560248401525af18015611c9b57611c6757005b6020813d602011611c93575b81611c8060209383613417565b810103126103a25751801515036103a257005b3d9150611c73565b6040513d6000823e3d90fd5b606460405162461bcd60e51b815260206004820152601c60248201527f43616e6e6f74207769746864726177206e617469766520746f6b656e000000006044820152fd5b346103a25760403660031901126103a257611d046133e4565b6004356000527f02dd7bc7dec4dceedda775e58dd541e08a116c6c53815c0bd028192f7b6268006020526001600160a01b0360406000209116600052602052602060ff604060002054166040519015158152f35b346103a25760003660031901126103a25760206001600160a01b037f9016d09d72d40fdae2fd8ceac6b6234c7706214fd39c1cd1e609a0528c1993005416604051908152f35b346103a25760403660031901126103a25760043567ffffffffffffffff81116103a257366023820112156103a2578060040135611dda8161348c565b91611de86040519384613417565b8183526024602084019260051b820101903682116103a257602401915b818310611f84576024358467ffffffffffffffff82116103a257366023830112156103a257816004013591611e398361348c565b92611e476040519485613417565b8084526024602085019160051b830101913683116103a257602401905b828210611f7457505050611e7661438b565b8051825103611f30576064815111611eec5760005b8151811015611ec65780611ec06001600160a01b03611eac600194866136ba565b5116611eb883876136ba565b519033613f73565b01611e8b565b60017f9b779b17422d0df92223018b32b4d1fa46e071723d6817e2486d003becc55f0055005b606460405162461bcd60e51b815260206004820152601360248201527f546f6f206d616e7920726563697069656e7473000000000000000000000000006044820152fd5b606460405162461bcd60e51b815260206004820152601660248201527f417272617973206c656e677468206d69736d61746368000000000000000000006044820152fd5b8135815260209182019101611e64565b82356001600160a01b03811681036103a257815260209283019201611e05565b346103a25760003660031901126103a257611fbd613846565b611fc56144e1565b600160ff197fcd5ed15c6e187e77e9aee88184c21f4f2182ab5827cb3b7e07fbedcd63f033005416177fcd5ed15c6e187e77e9aee88184c21f4f2182ab5827cb3b7e07fbedcd63f03300557f62e78cea01bee320cd4e420270b5ea74000d11b0c9f74754ebdbfc544b05a2586020604051338152a1005b346103a25760003660031901126103a2576020600754604051908152f35b346103a25760203660031901126103a2576001600160a01b0361207b6133ce565b16600052600460205260a06040600020805490600181015490600281015460ff60046003840154930154169260405194855260208501526040840152606083015215156080820152f35b346103a25760203660031901126103a2576004356120e161438b565b8060005260036020526040600020906001600160a01b0382541633036122305760ff600683015460081c166121ec57600261211b8261352b565b9201612129815480946134eb565b9283156121a8578361213a916134de565b905561214882600b546134eb565b600b55612156823330613f73565b6040519182527f1eb32ded03bd01f267cc718a1b829201795c275c85563136e8fcce91b6c3c53160203393a360017f9b779b17422d0df92223018b32b4d1fa46e071723d6817e2486d003becc55f0055005b606460405162461bcd60e51b815260206004820152601460248201527f4e6f20746f6b656e7320746f2072656c656173650000000000000000000000006044820152fd5b606460405162461bcd60e51b815260206004820152601060248201527f5363686564756c65207265766f6b6564000000000000000000000000000000006044820152fd5b606460405162461bcd60e51b815260206004820152601360248201527f4e6f74207468652062656e6566696369617279000000000000000000000000006044820152fd5b346103a25760003660031901126103a2576020604051610e108152f35b346103a25760403660031901126103a2576122aa6133ce565b3360009081527ffcf1b2032b1187d9f2a29150c4a608b3b6f0bdf8dd007801f86a276af50cad926020526040902054602435919060ff16156123325760206001600160a01b037ffd38818f5291bf0bb3a2a48aadc06ba8757865d1dabd804585338aab3009dcb69261231d853383613e4c565b6123278582614536565b6040519485521692a2005b63e2517d3f60e01b600052336004527f3c11d16cbaffd01df69ce1c404f6340ee057498f5f00246190ea54220576a84860245260446000fd5b346103a25760203660031901126103a2576001600160a01b0361238c6133ce565b612394614242565b16806000526000602052604060002060ff1981541690557f7534c63860313c46c473e4e98328f37017e9674e2162faf1a3ad7a96236c3b7b600080a2005b346103a25760003660031901126103a2576123eb614242565b60006001600160a01b037f9016d09d72d40fdae2fd8ceac6b6234c7706214fd39c1cd1e609a0528c199300546001600160a01b031981167f9016d09d72d40fdae2fd8ceac6b6234c7706214fd39c1cd1e609a0528c19930055167f8be0079c531659141344cd1fd0a4f28419497f9722a3daafe3b4186f6b6457e08280a3005b346103a25760203660031901126103a2576001600160a01b0361248c6133ce565b166000527f52c63247e1f47db19d5ce0460030c497f067ca4cebf71ba98eeadabe20bace006020526020604060002054604051908152f35b346103a25760203660031901126103a2576004356000526003602052610100604060002060ff6001600160a01b0382541691600181015490600281015460038201546004830154916006600585015494015494604051978852602088015260408701526060860152608085015260a0840152818116151560c084015260081c16151560e0820152f35b346103a25760003660031901126103a25761256661438b565b61256f33614404565b3360005260046020526003604060002001805490816125ae5760017f9b779b17422d0df92223018b32b4d1fa46e071723d6817e2486d003becc55f0055005b600090556125bc8133614370565b6040519081527fc727c17294ad4f040bec78be22159f993ffb0f22f4dfced8daeafc1ec2608a4c60203392a28080611ec6565b346103a25760203660031901126103a2576001600160a01b036126106133ce565b1660005260026020526020604060002054604051908152f35b346103a25760203660031901126103a25760206110146126476133ce565b613685565b346103a25760003660031901126103a257602060ff7fcd5ed15c6e187e77e9aee88184c21f4f2182ab5827cb3b7e07fbedcd63f0330054166040519015158152f35b346103a25760003660031901126103a2576001600160a01b037f00000000000000000000000000000000000000000000000000000000000000001630036126f95760206040517f360894a13ba1a3210667c828492db98dca3e2076cc3735a920a3ca505d382bbc8152f35b7fe07c8dba0000000000000000000000000000000000000000000000000000000060005260046000fd5b346103a25760003660031901126103a2576020600554604051908152f35b346103a25760003660031901126103a25761275a6137f3565b6127626144e1565b600160ff197fcd5ed15c6e187e77e9aee88184c21f4f2182ab5827cb3b7e07fbedcd63f033005416177fcd5ed15c6e187e77e9aee88184c21f4f2182ab5827cb3b7e07fbedcd63f03300557f62e78cea01bee320cd4e420270b5ea74000d11b0c9f74754ebdbfc544b05a2586020604051338152a1337fb8fad2fa0ed7a383e747c309ef2c4391d7b65592a48893e57ccc1fab70791456600080a2005b346103a25760003660031901126103a2576020600654604051908152f35b60403660031901126103a2576128316133ce565b60243567ffffffffffffffff81116103a257366023820112156103a257612862903690602481600401359101613455565b6001600160a01b037f000000000000000000000000000000000000000000000000000000000000000016803014908115612a9c575b506126f9576128a4614242565b6001600160a01b038216916040517f52d1902d000000000000000000000000000000000000000000000000000000008152602081600481875afa60009181612a68575b506129015783634c9c8ce360e01b60005260045260246000fd5b807f360894a13ba1a3210667c828492db98dca3e2076cc3735a920a3ca505d382bbc859203612a3b5750813b15612a2757806001600160a01b03197f360894a13ba1a3210667c828492db98dca3e2076cc3735a920a3ca505d382bbc5416177f360894a13ba1a3210667c828492db98dca3e2076cc3735a920a3ca505d382bbc557fbc7cd75a20ee27fd9adebab32041f755214dbc6bffa90cc0225b39da2e5c2d3b600080a28151156129f45760008083602061057895519101845af43d156129ec573d916129cf83613439565b926129dd6040519485613417565b83523d6000602085013e614899565b606091614899565b5050346129fd57005b7fb398979f0000000000000000000000000000000000000000000000000000000060005260046000fd5b634c9c8ce360e01b60005260045260246000fd5b7faa1d49a40000000000000000000000000000000000000000000000000000000060005260045260246000fd5b9091506020813d602011612a94575b81612a8460209383613417565b810103126103a2575190856128e7565b3d9150612a77565b90506001600160a01b037f360894a13ba1a3210667c828492db98dca3e2076cc3735a920a3ca505d382bbc5416141583612897565b346103a25760003660031901126103a257612aea6137f3565b7fcd5ed15c6e187e77e9aee88184c21f4f2182ab5827cb3b7e07fbedcd63f033005460ff811615612b8d5760ff19167fcd5ed15c6e187e77e9aee88184c21f4f2182ab5827cb3b7e07fbedcd63f03300557f5db9ee0a495bf2e6ff9c91a7834c1ba4fdd244a5e8aa4e537bd38aeae4b073aa6020604051338152a1337ff5cbf596165cc457b2cd92e8d8450827ee314968160a5696402d75766fc52caf600080a2005b7f8dfc202b0000000000000000000000000000000000000000000000000000000060005260046000fd5b346103a25760003660031901126103a2576020600a54604051908152f35b346103a25760203660031901126103a2576020612bf361100f6133ce565b600d541115604051908152f35b346103a25760203660031901126103a257600435612c1e8133614536565b6040519081527ffd38818f5291bf0bb3a2a48aadc06ba8757865d1dabd804585338aab3009dcb660203392a2005b346103a25760403660031901126103a257612c656133ce565b3360009081527f549fe2656c81d2947b3b913f0a53b9ea86c71e049f3a1b8aa23c09a8a05cb8d460205260409020546024359060ff1615612ce45761057891612cdf6b033b2e3c9fd0803ce8000000611514847f52c63247e1f47db19d5ce0460030c497f067ca4cebf71ba98eeadabe20bace02546134de565b614370565b63e2517d3f60e01b600052336004527f9f2df0fed2c77648de5860a4cc508cd0818c85b8b8a1ab4ceeef8d981c8956a660245260446000fd5b346103a25760003660031901126103a257612d36613846565b7fcd5ed15c6e187e77e9aee88184c21f4f2182ab5827cb3b7e07fbedcd63f033005460ff811615612b8d5760ff19167fcd5ed15c6e187e77e9aee88184c21f4f2182ab5827cb3b7e07fbedcd63f03300557f5db9ee0a495bf2e6ff9c91a7834c1ba4fdd244a5e8aa4e537bd38aeae4b073aa6020604051338152a1005b346103a25760403660031901126103a257612dcc6133e4565b336001600160a01b03821603612de857610578906004356142a3565b7f6697b2320000000000000000000000000000000000000000000000000000000060005260046000fd5b346103a25760003660031901126103a25760206040516b033b2e3c9fd0803ce80000008152f35b346103a25760003660031901126103a257602060405160128152f35b346103a25760003660031901126103a257602060405169d3c21bcecceda10000008152f35b346103a25760403660031901126103a257610578600435612e996133e4565b90612ed461089d826000527f02dd7bc7dec4dceedda775e58dd541e08a116c6c53815c0bd028192f7b62680060205260016040600020015490565b613d74565b346103a25760003660031901126103a25760206040517f3c11d16cbaffd01df69ce1c404f6340ee057498f5f00246190ea54220576a8488152f35b346103a25760203660031901126103a25760206110146004356000527f02dd7bc7dec4dceedda775e58dd541e08a116c6c53815c0bd028192f7b62680060205260016040600020015490565b346103a25760203660031901126103a257612f79614242565b600435600555005b346103a25760603660031901126103a25761046a612f9d6133ce565b612fa56133e4565b60443591612fb4833383613e4c565b613f73565b346103a25760203660031901126103a2576020611014612fd76133ce565b6135fe565b346103a25760203660031901126103a257602061101460043561352b565b346103a25760003660031901126103a2576020600b54604051908152f35b346103a25760003660031901126103a25760207f52c63247e1f47db19d5ce0460030c497f067ca4cebf71ba98eeadabe20bace0254604051908152f35b346103a25760203660031901126103a25761306e6133ce565b6130766137f3565b61309b6001600160a01b03821691826001600160a01b0319600c541617600c55613990565b507fe3cf2b71b55b62fc1a6c7b2f6ff944c1b70048908cff22f2e08d1144e7ca7edb600080a2005b346103a25760203660031901126103a2576001600160a01b036130e46133ce565b1660005260016020526020604060002054604051908152f35b346103a25760403660031901126103a2576131166133ce565b6024359033156131d2576001600160a01b03169081156131a3573360009081527f52c63247e1f47db19d5ce0460030c497f067ca4cebf71ba98eeadabe20bace016020526040902082600052602052806040600020556040519081527f8c5be1e5ebec7d5bd14f71427d1e84f3dd0314c0f7b2291e5b200ac8c7c3b92560203392a3602060405160018152f35b7f94280d6200000000000000000000000000000000000000000000000000000000600052600060045260246000fd5b7fe602df0500000000000000000000000000000000000000000000000000000000600052600060045260246000fd5b346103a25760003660031901126103a25760405160007f52c63247e1f47db19d5ce0460030c497f067ca4cebf71ba98eeadabe20bace0354613242816134a4565b8084529060018116908115611b9a57506001146132695761148483611b1081850382613417565b7f52c63247e1f47db19d5ce0460030c497f067ca4cebf71ba98eeadabe20bace0360009081527f2ae08a8e29253f69ac5d979a101956ab8f8d9d7ded63fa7a83b16fc47648eab0939250905b8082106132cd57509091508101602001611b10611b00565b9192600181602092548385880101520191019092916132b5565b346103a25760203660031901126103a257600435907fffffffff0000000000000000000000000000000000000000000000000000000082168092036103a257817f7965db0b000000000000000000000000000000000000000000000000000000006020931490811561335b575b5015158152f35b7f01ffc9a70000000000000000000000000000000000000000000000000000000091501483613354565b91909160208152825180602083015260005b8181106133b8575060409293506000838284010152601f8019910116010190565b8060208092870101516040828601015201613397565b600435906001600160a01b03821682036103a257565b602435906001600160a01b03821682036103a257565b610100810190811067ffffffffffffffff821117610e1757604052565b90601f8019910116810190811067ffffffffffffffff821117610e1757604052565b67ffffffffffffffff8111610e1757601f01601f191660200190565b92919261346182613439565b9161346f6040519384613417565b8294818452818301116103a2578281602093846000960137010152565b67ffffffffffffffff8111610e175760051b60200190565b90600182811c921680156134d4575b60208310146134be57565b634e487b7160e01b600052602260045260246000fd5b91607f16916134b3565b9190820180921161138357565b9190820391821161138357565b8181029291811591840414171561138357565b8115613515570490565b634e487b7160e01b600052601260045260246000fd5b60005260036020526040600020604051613544816133fa565b6001600160a01b03825416815260018201549160208201928352600281015460408301526135b260038201549160608401928084526004820154946080810195865260e060ff60066005860154958660a08601520154818116151560c085015260081c1615159101526134de565b42106135f6576135c581518351906134de565b4210156135f0576135ed926135de6135e59251426134eb565b90516134f8565b90519061350b565b90565b50505190565b505050600090565b6001600160a01b0361360f82613685565b91166000526001602052604060002054610e1081018091116113835742106136345790565b50600090565b1561364157565b606460405162461bcd60e51b815260206004820152601260248201527f45786365656473206d617820737570706c7900000000000000000000000000006044820152fd5b6001600160a01b0316600081815260026020526040902054156136b357600052600260205260406000205490565b5060055490565b80518210156136ce5760209160051b010190565b634e487b7160e01b600052603260045260246000fd5b6001600160a01b036135ed9116806000527f52c63247e1f47db19d5ce0460030c497f067ca4cebf71ba98eeadabe20bace00602052604060002054906000526004602052604060002054906134de565b6001600160a01b031680156137c4576001600160a01b037f9016d09d72d40fdae2fd8ceac6b6234c7706214fd39c1cd1e609a0528c19930054826001600160a01b03198216177f9016d09d72d40fdae2fd8ceac6b6234c7706214fd39c1cd1e609a0528c19930055167f8be0079c531659141344cd1fd0a4f28419497f9722a3daafe3b4186f6b6457e0600080a3565b7f1e4fbdf700000000000000000000000000000000000000000000000000000000600052600060045260246000fd5b3360009081527fb7db2dd08fcb62d0c9e08c51941cae53c267786a0b75803fb7960902fc8ef97d602052604090205460ff161561382c57565b63e2517d3f60e01b60005233600452600060245260446000fd5b3360009081527f75442b0a96088b5456bc4ed01394c96a4feec0f883c9494257d76b96ab1c9b6b602052604090205460ff161561387f57565b63e2517d3f60e01b600052336004527f65d7a28e3265b37a6474929f336521b332c1681b933f6cb9f3376673440d862a60245260446000fd5b3360009081527f25f7f44d2cbb35948a0ec4a3daca6d9fef225ba74483a7793ae48fcb0272bb0c602052604090205460ff16156138f157565b63e2517d3f60e01b600052336004527f71840dc4906352362b0cdaf79870196c8e42acafade72d5d5a6d59291253ceb160245260446000fd5b806000527f02dd7bc7dec4dceedda775e58dd541e08a116c6c53815c0bd028192f7b62680060205260406000206001600160a01b03331660005260205260ff60406000205416156139785750565b63e2517d3f60e01b6000523360045260245260446000fd5b6001600160a01b03811660009081527f25f7f44d2cbb35948a0ec4a3daca6d9fef225ba74483a7793ae48fcb0272bb0c602052604090205460ff16613634576001600160a01b031660008181527f25f7f44d2cbb35948a0ec4a3daca6d9fef225ba74483a7793ae48fcb0272bb0c60205260408120805460ff191660011790553391907f71840dc4906352362b0cdaf79870196c8e42acafade72d5d5a6d59291253ceb1907f2f8788117e7eff1d82e926ec794901d17c78024a50270940304540a733656f0d9080a4600190565b6001600160a01b03811660009081527fb7db2dd08fcb62d0c9e08c51941cae53c267786a0b75803fb7960902fc8ef97d602052604090205460ff16613634576001600160a01b031660008181527fb7db2dd08fcb62d0c9e08c51941cae53c267786a0b75803fb7960902fc8ef97d60205260408120805460ff191660011790553391907f2f8788117e7eff1d82e926ec794901d17c78024a50270940304540a733656f0d8180a4600190565b6001600160a01b03811660009081527f549fe2656c81d2947b3b913f0a53b9ea86c71e049f3a1b8aa23c09a8a05cb8d4602052604090205460ff16613634576001600160a01b031660008181527f549fe2656c81d2947b3b913f0a53b9ea86c71e049f3a1b8aa23c09a8a05cb8d460205260408120805460ff191660011790553391907f9f2df0fed2c77648de5860a4cc508cd0818c85b8b8a1ab4ceeef8d981c8956a6907f2f8788117e7eff1d82e926ec794901d17c78024a50270940304540a733656f0d9080a4600190565b6001600160a01b03811660009081527ffcf1b2032b1187d9f2a29150c4a608b3b6f0bdf8dd007801f86a276af50cad92602052604090205460ff16613634576001600160a01b031660008181527ffcf1b2032b1187d9f2a29150c4a608b3b6f0bdf8dd007801f86a276af50cad9260205260408120805460ff191660011790553391907f3c11d16cbaffd01df69ce1c404f6340ee057498f5f00246190ea54220576a848907f2f8788117e7eff1d82e926ec794901d17c78024a50270940304540a733656f0d9080a4600190565b6001600160a01b03811660009081527f75442b0a96088b5456bc4ed01394c96a4feec0f883c9494257d76b96ab1c9b6b602052604090205460ff16613634576001600160a01b031660008181527f75442b0a96088b5456bc4ed01394c96a4feec0f883c9494257d76b96ab1c9b6b60205260408120805460ff191660011790553391907f65d7a28e3265b37a6474929f336521b332c1681b933f6cb9f3376673440d862a907f2f8788117e7eff1d82e926ec794901d17c78024a50270940304540a733656f0d9080a4600190565b806000527f02dd7bc7dec4dceedda775e58dd541e08a116c6c53815c0bd028192f7b62680060205260406000206001600160a01b03831660005260205260ff6040600020541615600014613e4557806000527f02dd7bc7dec4dceedda775e58dd541e08a116c6c53815c0bd028192f7b62680060205260406000206001600160a01b0383166000526020526040600020600160ff198254161790556001600160a01b03339216907f2f8788117e7eff1d82e926ec794901d17c78024a50270940304540a733656f0d600080a4600190565b5050600090565b9190613e8a836001600160a01b03166000527f52c63247e1f47db19d5ce0460030c497f067ca4cebf71ba98eeadabe20bace01602052604060002090565b6001600160a01b038216600052602052604060002054926000198410613eb1575b50505050565b828410613f34576001600160a01b038116156131d2576001600160a01b038216156131a357613f1a6001600160a01b03916001600160a01b03166000527f52c63247e1f47db19d5ce0460030c497f067ca4cebf71ba98eeadabe20bace01602052604060002090565b911660005260205260406000209103905538808080613eab565b506001600160a01b0383917ffb8f41b2000000000000000000000000000000000000000000000000000000006000521660045260245260445260646000fd5b6001600160a01b0316908115614213576001600160a01b0316918215610cb45781600052600060205260ff604060002054166141cf5782600052600060205260ff6040600020541661418b5760008281526002602052604090205415614183578160005260026020526040600020545b811161413f57816000526001602052604060002054610e1081018091116113835742106140fb57816000526001602052426040600020556140226144e1565b60008281527f52c63247e1f47db19d5ce0460030c497f067ca4cebf71ba98eeadabe20bace0060205260408120548281106140e15791604082827fddf252ad1be2c89b69c2b068fc378daa952ba7f163c4a11628f55a4df523b3ef9587602096527f52c63247e1f47db19d5ce0460030c497f067ca4cebf71ba98eeadabe20bace00865203828220558681527f52c63247e1f47db19d5ce0460030c497f067ca4cebf71ba98eeadabe20bace00845220818154019055604051908152a3565b60649363391434e360e21b83949352600452602452604452fd5b606460405162461bcd60e51b815260206004820152601860248201527f5472616e7366657220636f6f6c646f776e2061637469766500000000000000006044820152fd5b606460405162461bcd60e51b815260206004820152601d60248201527f5472616e7366657220616d6f756e742065786365656473206c696d69740000006044820152fd5b600554613fe3565b606460405162461bcd60e51b815260206004820152601860248201527f526563697069656e7420697320626c61636b6c697374656400000000000000006044820152fd5b606460405162461bcd60e51b815260206004820152601560248201527f53656e64657220697320626c61636b6c697374656400000000000000000000006044820152fd5b7f96c6fd1e00000000000000000000000000000000000000000000000000000000600052600060045260246000fd5b6001600160a01b037f9016d09d72d40fdae2fd8ceac6b6234c7706214fd39c1cd1e609a0528c1993005416330361427557565b7f118cdaa7000000000000000000000000000000000000000000000000000000006000523360045260246000fd5b806000527f02dd7bc7dec4dceedda775e58dd541e08a116c6c53815c0bd028192f7b62680060205260406000206001600160a01b03831660005260205260ff60406000205416600014613e4557806000527f02dd7bc7dec4dceedda775e58dd541e08a116c6c53815c0bd028192f7b62680060205260406000206001600160a01b038316600052602052604060002060ff1981541690556001600160a01b03339216907ff6391f5c32d9c69d2a47ea670b442974b53935d1edc7fd64eb21e047a839171b600080a4600190565b906001600160a01b03821615610cb457614389916146e7565b565b60027f9b779b17422d0df92223018b32b4d1fa46e071723d6817e2486d003becc55f0054146143da5760027f9b779b17422d0df92223018b32b4d1fa46e071723d6817e2486d003becc55f0055565b7f3ee5aeb50000000000000000000000000000000000000000000000000000000060005260046000fd5b614410600954426134eb565b90811515806144d6575b61447d575b6001600160a01b0391504260095516806144365750565b6000526004602052604060002080548061444e575050565b6003670de0b6b3a764000061446961447993600854906134f8565b049201916118c1835480926134eb565b9055565b64496cebb80061449660075493611319600654866134f8565b0491670de0b6b3a7640000830292808404670de0b6b3a76400001490151715611383576113716144ce916001600160a01b039461350b565b60085561441f565b50600754151561441a565b60ff7fcd5ed15c6e187e77e9aee88184c21f4f2182ab5827cb3b7e07fbedcd63f03300541661450c57565b7fd93c06650000000000000000000000000000000000000000000000000000000060005260046000fd5b6001600160a01b031680156142135780600052600060205260ff604060002054166141cf5760008080526020527fad3228b676f7d3cd4284a5443f17f1962b36e491b30a40b2405849e597ba5fb55460ff1661418b57600081815260026020526040902054156146df578060005260026020526040600020545b821161413f57806000526001602052604060002054610e1081018091116113835742106140fb57806000526001602052426040600020556145ef6144e1565b6000918183527f52c63247e1f47db19d5ce0460030c497f067ca4cebf71ba98eeadabe20bace0060205260408320548181106146c657817fddf252ad1be2c89b69c2b068fc378daa952ba7f163c4a11628f55a4df523b3ef926020928587527f52c63247e1f47db19d5ce0460030c497f067ca4cebf71ba98eeadabe20bace008452036040862055807f52c63247e1f47db19d5ce0460030c497f067ca4cebf71ba98eeadabe20bace0254037f52c63247e1f47db19d5ce0460030c497f067ca4cebf71ba98eeadabe20bace0255604051908152a3565b839263391434e360e21b60649552600452602452604452fd5b6005546145b0565b60008080526020527fad3228b676f7d3cd4284a5443f17f1962b36e491b30a40b2405849e597ba5fb55460ff166141cf576001600160a01b03169081600052600060205260ff6040600020541661418b577fddf252ad1be2c89b69c2b068fc378daa952ba7f163c4a11628f55a4df523b3ef60206000926147666144e1565b614791817f52c63247e1f47db19d5ce0460030c497f067ca4cebf71ba98eeadabe20bace02546134de565b7f52c63247e1f47db19d5ce0460030c497f067ca4cebf71ba98eeadabe20bace02558415841461480b57807f52c63247e1f47db19d5ce0460030c497f067ca4cebf71ba98eeadabe20bace0254037f52c63247e1f47db19d5ce0460030c497f067ca4cebf71ba98eeadabe20bace02555b604051908152a3565b8484527f52c63247e1f47db19d5ce0460030c497f067ca4cebf71ba98eeadabe20bace00825260408420818154019055614802565b60ff7ff0c57e16840df040f15088dc2f81fe391c3923bec73e23a9662efc9c229c6a005460401c161561486f57565b7fd7e6bcf80000000000000000000000000000000000000000000000000000000060005260046000fd5b906148d857508051156148ae57602081519101fd5b7fd6bda2750000000000000000000000000000000000000000000000000000000060005260046000fd5b81511580614920575b6148e9575090565b6001600160a01b03907f9996b315000000000000000000000000000000000000000000000000000000006000521660045260246000fd5b50803b156148e156fea264697066735822122087f7146664fc8faa6cb1369d9ffd336e2aed8bc1c24225a45759943aa3c5174164736f6c634300081c0033",
  "linkReferences": {},
  "deployedLinkReferences": {}
}