{
  "_format": "hh-sol-artifact-1",
  "contractName": "AgriCredit",
  "sourceName": "contracts/AgriCredit.sol",
  "abi": [
    {
      "inputs": [],
      "name": "AccessControlBadConfirmation",
      "type": "error"
    },
    {
      "inputs": [
        {
          "internalType": "address",
          "name": "account",
          "type": "address"
        },
        {
          "internalType": "bytes32",
          "name": "neededRole",
          "type": "bytes32"
        }
      ],
      "name": "AccessControlUnauthorizedAccount",
      "type": "error"
    },
    {
      "inputs": [
        {
          "internalType": "address",
          "name": "target",
          "type": "address"
        }
      ],
      "name": "AddressEmptyCode",
      "type": "error"
    },
    {
      "inputs": [
        {
          "internalType": "address",
          "name": "implementation",
          "type": "address"
        }
      ],
      "name": "ERC1967InvalidImplementation",
      "type": "error"
    },
    {
      "inputs": [],
      "name": "ERC1967NonPayable",
      "type": "error"
    },
    {
      "inputs": [
        {
          "internalType": "address",
          "name": "spender",
          "type": "address"
        },
        {
          "internalType": "uint256",
          "name": "allowance",
          "type": "uint256"
        },
        {
          "internalType": "uint256",
          "name": "needed",
          "type": "uint256"
        }
      ],
      "name": "ERC20InsufficientAllowance",
      "type": "error"
    },
    {
      "inputs": [
        {
          "internalType": "address",
          "name": "sender",
          "type": "address"
        },
        {
          "internalType": "uint256",
          "name": "balance",
          "type": "uint256"
        },
        {
          "internalType": "uint256",
          "name": "needed",
          "type": "uint256"
        }
      ],
      "name": "ERC20InsufficientBalance",
      "type": "error"
    },
    {
      "inputs": [
        {
          "internalType": "address",
          "name": "approver",
          "type": "address"
        }
      ],
      "name": "ERC20InvalidApprover",
      "type": "error"
    },
    {
      "inputs": [
        {
          "internalType": "address",
          "name": "receiver",
          "type": "address"
        }
      ],
      "name": "ERC20InvalidReceiver",
      "type": "error"
    },
    {
      "inputs": [
        {
          "internalType": "address",
          "name": "sender",
          "type": "address"
        }
      ],
      "name": "ERC20InvalidSender",
      "type": "error"
    },
    {
      "inputs": [
        {
          "internalType": "address",
          "name": "spender",
          "type": "address"
        }
      ],
      "name": "ERC20InvalidSpender",
      "type": "error"
    },
    {
      "inputs": [],
      "name": "EnforcedPause",
      "type": "error"
    },
    {
      "inputs": [],
      "name": "ExpectedPause",
      "type": "error"
    },
    {
      "inputs": [],
      "name": "FailedCall",
      "type": "error"
    },
    {
      "inputs": [],
      "name": "InvalidInitialization",
      "type": "error"
    },
    {
      "inputs": [],
      "name": "NotInitializing",
      "type": "error"
    },
    {
      "inputs": [
        {
          "internalType": "address",
          "name": "owner",
          "type": "address"
        }
      ],
      "name": "OwnableInvalidOwner",
      "type": "error"
    },
    {
      "inputs": [
        {
          "internalType": "address",
          "name": "account",
          "type": "address"
        }
      ],
      "name": "OwnableUnauthorizedAccount",
      "type": "error"
    },
    {
      "inputs": [],
      "name": "ReentrancyGuardReentrantCall",
      "type": "error"
    },
    {
      "inputs": [],
      "name": "UUPSUnauthorizedCallContext",
      "type": "error"
    },
    {
      "inputs": [
        {
          "internalType": "bytes32",
          "name": "slot",
          "type": "bytes32"
        }
      ],
      "name": "UUPSUnsupportedProxiableUUID",
      "type": "error"
    },
    {
      "anonymous": false,
      "inputs": [
        {
          "indexed": true,
          "internalType": "address",
          "name": "owner",
          "type": "address"
        },
        {
          "indexed": true,
          "internalType": "address",
          "name": "spender",
          "type": "address"
        },
        {
          "indexed": false,
          "internalType": "uint256",
          "name": "value",
          "type": "uint256"
        }
      ],
      "name": "Approval",
      "type": "event"
    },
    {
      "anonymous": false,
      "inputs": [
        {
          "indexed": true,
          "internalType": "address",
          "name": "account",
          "type": "address"
        }
      ],
      "name": "Blacklisted",
      "type": "event"
    },
    {
      "anonymous": false,
      "inputs": [
        {
          "indexed": true,
          "internalType": "address",
          "name": "by",
          "type": "address"
        }
      ],
      "name": "EmergencyPaused",
      "type": "event"
    },
    {
      "anonymous": false,
      "inputs": [
        {
          "indexed": true,
          "internalType": "address",
          "name": "by",
          "type": "address"
        }
      ],
      "name": "EmergencyUnpaused",
      "type": "event"
    },
    {
      "anonymous": false,
      "inputs": [
        {
          "indexed": true,
          "internalType": "address",
          "name": "governance",
          "type": "address"
        }
      ],
      "name": "GovernanceContractUpdated",
      "type": "event"
    },
    {
      "anonymous": false,
      "inputs": [
        {
          "indexed": false,
          "internalType": "uint64",
          "name": "version",
          "type": "uint64"
        }
      ],
      "name": "Initialized",
      "type": "event"
    },
    {
      "anonymous": false,
      "inputs": [
        {
          "indexed": true,
          "internalType": "address",
          "name": "previousOwner",
          "type": "address"
        },
        {
          "indexed": true,
          "internalType": "address",
          "name": "newOwner",
          "type": "address"
        }
      ],
      "name": "OwnershipTransferred",
      "type": "event"
    },
    {
      "anonymous": false,
      "inputs": [
        {
          "indexed": false,
          "internalType": "address",
          "name": "account",
          "type": "address"
        }
      ],
      "name": "Paused",
      "type": "event"
    },
    {
      "anonymous": false,
      "inputs": [
        {
          "indexed": false,
          "internalType": "uint256",
          "name": "threshold",
          "type": "uint256"
        }
      ],
      "name": "ProposalThresholdUpdated",
      "type": "event"
    },
    {
      "anonymous": false,
      "inputs": [
        {
          "indexed": true,
          "internalType": "bytes32",
          "name": "role",
          "type": "bytes32"
        },
        {
          "indexed": true,
          "internalType": "bytes32",
          "name": "previousAdminRole",
          "type": "bytes32"
        },
        {
          "indexed": true,
          "internalType": "bytes32",
          "name": "newAdminRole",
          "type": "bytes32"
        }
      ],
      "name": "RoleAdminChanged",
      "type": "event"
    },
    {
      "anonymous": false,
      "inputs": [
        {
          "indexed": true,
          "internalType": "bytes32",
          "name": "role",
          "type": "bytes32"
        },
        {
          "indexed": true,
          "internalType": "address",
          "name": "account",
          "type": "address"
        },
        {
          "indexed": true,
          "internalType": "address",
          "name": "sender",
          "type": "address"
        }
      ],
      "name": "RoleGranted",
      "type": "event"
    },
    {
      "anonymous": false,
      "inputs": [
        {
          "indexed": true,
          "internalType": "bytes32",
          "name": "role",
          "type": "bytes32"
        },
        {
          "indexed": true,
          "internalType": "address",
          "name": "account",
          "type": "address"
        },
        {
          "indexed": true,
          "internalType": "address",
          "name": "sender",
          "type": "address"
        }
      ],
      "name": "RoleRevoked",
      "type": "event"
    },
    {
      "anonymous": false,
      "inputs": [
        {
          "indexed": false,
          "internalType": "uint256",
          "name": "newRate",
          "type": "uint256"
        }
      ],
      "name": "StakingRewardRateUpdated",
      "type": "event"
    },
    {
      "anonymous": false,
      "inputs": [
        {
          "indexed": true,
          "internalType": "address",
          "name": "user",
          "type": "address"
        },
        {
          "indexed": false,
          "internalType": "uint256",
          "name": "amount",
          "type": "uint256"
        }
      ],
      "name": "StakingRewardsClaimed",
      "type": "event"
    },
    {
      "anonymous": false,
      "inputs": [
        {
          "indexed": true,
          "internalType": "address",
          "name": "burner",
          "type": "address"
        },
        {
          "indexed": false,
          "internalType": "uint256",
          "name": "amount",
          "type": "uint256"
        }
      ],
      "name": "TokensBurned",
      "type": "event"
    },
    {
      "anonymous": false,
      "inputs": [
        {
          "indexed": true,
          "internalType": "address",
          "name": "user",
          "type": "address"
        },
        {
          "indexed": false,
          "internalType": "uint256",
          "name": "amount",
          "type": "uint256"
        },
        {
          "indexed": false,
          "internalType": "uint256",
          "name": "lockPeriod",
          "type": "uint256"
        }
      ],
      "name": "TokensStaked",
      "type": "event"
    },
    {
      "anonymous": false,
      "inputs": [
        {
          "indexed": true,
          "internalType": "address",
          "name": "user",
          "type": "address"
        },
        {
          "indexed": false,
          "internalType": "uint256",
          "name": "amount",
          "type": "uint256"
        },
        {
          "indexed": false,
          "internalType": "uint256",
          "name": "rewards",
          "type": "uint256"
        }
      ],
      "name": "TokensUnstaked",
      "type": "event"
    },
    {
      "anonymous": false,
      "inputs": [
        {
          "indexed": true,
          "internalType": "address",
          "name": "from",
          "type": "address"
        },
        {
          "indexed": true,
          "internalType": "address",
          "name": "to",
          "type": "address"
        },
        {
          "indexed": false,
          "internalType": "uint256",
          "name": "value",
          "type": "uint256"
        }
      ],
      "name": "Transfer",
      "type": "event"
    },
    {
      "anonymous": false,
      "inputs": [
        {
          "indexed": true,
          "internalType": "address",
          "name": "account",
          "type": "address"
        },
        {
          "indexed": false,
          "internalType": "uint256",
          "name": "limit",
          "type": "uint256"
        }
      ],
      "name": "TransferLimitUpdated",
      "type": "event"
    },
    {
      "anonymous": false,
      "inputs": [
        {
          "indexed": true,
          "internalType": "address",
          "name": "account",
          "type": "address"
        }
      ],
      "name": "Unblacklisted",
      "type": "event"
    },
    {
      "anonymous": false,
      "inputs": [
        {
          "indexed": false,
          "internalType": "address",
          "name": "account",
          "type": "address"
        }
      ],
      "name": "Unpaused",
      "type": "event"
    },
    {
      "anonymous": false,
      "inputs": [
        {
          "indexed": true,
          "internalType": "address",
          "name": "implementation",
          "type": "address"
        }
      ],
      "name": "Upgraded",
      "type": "event"
    },
    {
      "anonymous": false,
      "inputs": [
        {
          "indexed": true,
          "internalType": "uint256",
          "name": "vestingId",
          "type": "uint256"
        },
        {
          "indexed": true,
          "internalType": "address",
          "name": "beneficiary",
          "type": "address"
        },
        {
          "indexed": false,
          "internalType": "uint256",
          "name": "amount",
          "type": "uint256"
        }
      ],
      "name": "VestedTokensReleased",
      "type": "event"
    },
    {
      "anonymous": false,
      "inputs": [
        {
          "indexed": true,
          "internalType": "uint256",
          "name": "vestingId",
          "type": "uint256"
        },
        {
          "indexed": true,
          "internalType": "address",
          "name": "beneficiary",
          "type": "address"
        },
        {
          "indexed": false,
          "internalType": "uint256",
          "name": "amount",
          "type": "uint256"
        }
      ],
      "name": "VestingRevoked",
      "type": "event"
    },
    {
      "anonymous": false,
      "inputs": [
        {
          "indexed": true,
          "internalType": "uint256",
          "name": "vestingId",
          "type": "uint256"
        },
        {
          "indexed": true,
          "internalType": "address",
          "name": "beneficiary",
          "type": "address"
        },
        {
          "indexed": false,
          "internalType": "uint256",
          "name": "amount",
          "type": "uint256"
        }
      ],
      "name": "VestingScheduleCreated",
      "type": "event"
    },
    {
      "anonymous": false,
      "inputs": [
        {
          "indexed": true,
          "internalType": "address",
          "name": "delegator",
          "type": "address"
        },
        {
          "indexed": true,
          "internalType": "address",
          "name": "delegate",
          "type": "address"
        }
      ],
      "name": "VotingPowerDelegated",
      "type": "event"
    },
    {
      "inputs": [],
      "name": "BURNER_ROLE",
      "outputs": [
        {
          "internalType": "bytes32",
          "name": "",
          "type": "bytes32"
        }
      ],
      "stateMutability": "view",
      "type": "function"
    },
    {
      "inputs": [],
      "name": "DEFAULT_ADMIN_ROLE",
      "outputs": [
        {
          "internalType": "bytes32",
          "name": "",
          "type": "bytes32"
        }
      ],
      "stateMutability": "view",
      "type": "function"
    },
    {
      "inputs": [],
      "name": "GOVERNANCE_ROLE",
      "outputs": [
        {
          "internalType": "bytes32",
          "name": "",
          "type": "bytes32"
        }
      ],
      "stateMutability": "view",
      "type": "function"
    },
    {
      "inputs": [],
      "name": "INITIAL_SUPPLY",
      "outputs": [
        {
          "internalType": "uint256",
          "name": "",
          "type": "uint256"
        }
      ],
      "stateMutability": "view",
      "type": "function"
    },
    {
      "inputs": [],
      "name": "MAX_SUPPLY",
      "outputs": [
        {
          "internalType": "uint256",
          "name": "",
          "type": "uint256"
        }
      ],
      "stateMutability": "view",
      "type": "function"
    },
    {
      "inputs": [],
      "name": "MINTER_ROLE",
      "outputs": [
        {
          "internalType": "bytes32",
          "name": "",
          "type": "bytes32"
        }
      ],
      "stateMutability": "view",
      "type": "function"
    },
    {
      "inputs": [],
      "name": "PAUSER_ROLE",
      "outputs": [
        {
          "internalType": "bytes32",
          "name": "",
          "type": "bytes32"
        }
      ],
      "stateMutability": "view",
      "type": "function"
    },
    {
      "inputs": [],
      "name": "TRANSFER_COOLDOWN",
      "outputs": [
        {
          "internalType": "uint256",
          "name": "",
          "type": "uint256"
        }
      ],
      "stateMutability": "view",
      "type": "function"
    },
    {
      "inputs": [],
      "name": "UPGRADE_INTERFACE_VERSION",
      "outputs": [
        {
          "internalType": "string",
          "name": "",
          "type": "string"
        }
      ],
      "stateMutability": "view",
      "type": "function"
    },
    {
      "inputs": [
        {
          "internalType": "address",
          "name": "owner",
          "type": "address"
        },
        {
          "internalType": "address",
          "name": "spender",
          "type": "address"
        }
      ],
      "name": "allowance",
      "outputs": [
        {
          "internalType": "uint256",
          "name": "",
          "type": "uint256"
        }
      ],
      "stateMutability": "view",
      "type": "function"
    },
    {
      "inputs": [
        {
          "internalType": "address",
          "name": "spender",
          "type": "address"
        },
        {
          "internalType": "uint256",
          "name": "value",
          "type": "uint256"
        }
      ],
      "name": "approve",
      "outputs": [
        {
          "internalType": "bool",
          "name": "",
          "type": "bool"
        }
      ],
      "stateMutability": "nonpayable",
      "type": "function"
    },
    {
      "inputs": [
        {
          "internalType": "address",
          "name": "account",
          "type": "address"
        }
      ],
      "name": "balanceOf",
      "outputs": [
        {
          "internalType": "uint256",
          "name": "",
          "type": "uint256"
        }
      ],
      "stateMutability": "view",
      "type": "function"
    },
    {
      "inputs": [
        {
          "internalType": "address[]",
          "name": "recipients",
          "type": "address[]"
        },
        {
          "internalType": "uint256[]",
          "name": "amounts",
          "type": "uint256[]"
        }
      ],
      "name": "batchTransfer",
      "outputs": [],
      "stateMutability": "nonpayable",
      "type": "function"
    },
    {
      "inputs": [
        {
          "internalType": "address",
          "name": "account",
          "type": "address"
        }
      ],
      "name": "blacklist",
      "outputs": [],
      "stateMutability": "nonpayable",
      "type": "function"
    },
    {
      "inputs": [
        {
          "internalType": "address",
          "name": "",
          "type": "address"
        }
      ],
      "name": "blacklisted",
      "outputs": [
        {
          "internalType": "bool",
          "name": "",
          "type": "bool"
        }
      ],
      "stateMutability": "view",
      "type": "function"
    },
    {
      "inputs": [
        {
          "internalType": "uint256",
          "name": "amount",
          "type": "uint256"
        }
      ],
      "name": "burn",
      "outputs": [],
      "stateMutability": "nonpayable",
      "type": "function"
    },
    {
      "inputs": [
        {
          "internalType": "address",
          "name": "account",
          "type": "address"
        },
        {
          "internalType": "uint256",
          "name": "amount",
          "type": "uint256"
        }
      ],
      "name": "burnFrom",
      "outputs": [],
      "stateMutability": "nonpayable",
      "type": "function"
    },
    {
      "inputs": [
        {
          "internalType": "address",
          "name": "account",
          "type": "address"
        }
      ],
      "name": "canPropose",
      "outputs": [
        {
          "internalType": "bool",
          "name": "",
          "type": "bool"
        }
      ],
      "stateMutability": "view",
      "type": "function"
    },
    {
      "inputs": [],
      "name": "claimStakingRewards",
      "outputs": [],
      "stateMutability": "nonpayable",
      "type": "function"
    },
    {
      "inputs": [
        {
          "internalType": "address",
          "name": "beneficiary",
          "type": "address"
        },
        {
          "internalType": "uint256",
          "name": "amount",
          "type": "uint256"
        },
        {
          "internalType": "uint256",
          "name": "startTime",
          "type": "uint256"
        },
        {
          "internalType": "uint256",
          "name": "duration",
          "type": "uint256"
        },
        {
          "internalType": "uint256",
          "name": "cliffDuration",
          "type": "uint256"
        },
        {
          "internalType": "bool",
          "name": "revocable",
          "type": "bool"
        }
      ],
      "name": "createVestingSchedule",
      "outputs": [
        {
          "internalType": "uint256",
          "name": "",
          "type": "uint256"
        }
      ],
      "stateMutability": "nonpayable",
      "type": "function"
    },
    {
      "inputs": [],
      "name": "decimals",
      "outputs": [
        {
          "internalType": "uint8",
          "name": "",
          "type": "uint8"
        }
      ],
      "stateMutability": "view",
      "type": "function"
    },
    {
      "inputs": [
        {
          "internalType": "address",
          "name": "delegate",
          "type": "address"
        }
      ],
      "name": "delegateVotingPower",
      "outputs": [],
      "stateMutability": "nonpayable",
      "type": "function"
    },
    {
      "inputs": [],
      "name": "emergencyPause",
      "outputs": [],
      "stateMutability": "nonpayable",
      "type": "function"
    },
    {
      "inputs": [],
      "name": "emergencyUnpause",
      "outputs": [],
      "stateMutability": "nonpayable",
      "type": "function"
    },
    {
      "inputs": [
        {
          "internalType": "address",
          "name": "token",
          "type": "address"
        },
        {
          "internalType": "uint256",
          "name": "amount",
          "type": "uint256"
        }
      ],
      "name": "emergencyWithdraw",
      "outputs": [],
      "stateMutability": "nonpayable",
      "type": "function"
    },
    {
      "inputs": [
        {
          "internalType": "address",
          "name": "account",
          "type": "address"
        }
      ],
      "name": "getRemainingTransferLimit",
      "outputs": [
        {
          "internalType": "uint256",
          "name": "",
          "type": "uint256"
        }
      ],
      "stateMutability": "view",
      "type": "function"
    },
    {
      "inputs": [
        {
          "internalType": "bytes32",
          "name": "role",
          "type": "bytes32"
        }
      ],
      "name": "getRoleAdmin",
      "outputs": [
        {
          "internalType": "bytes32",
          "name": "",
          "type": "bytes32"
        }
      ],
      "stateMutability": "view",
      "type": "function"
    },
    {
      "inputs": [
        {
          "internalType": "address",
          "name": "user",
          "type": "address"
        }
      ],
      "name": "getStakingInfo",
      "outputs": [
        {
          "internalType": "uint256",
          "name": "stakedAmount",
          "type": "uint256"
        },
        {
          "internalType": "uint256",
          "name": "lockPeriod",
          "type": "uint256"
        },
        {
          "internalType": "uint256",
          "name": "endTime",
          "type": "uint256"
        },
        {
          "internalType": "uint256",
          "name": "pendingRewards",
          "type": "uint256"
        }
      ],
      "stateMutability": "view",
      "type": "function"
    },
    {
      "inputs": [
        {
          "internalType": "address",
          "name": "account",
          "type": "address"
        }
      ],
      "name": "getTransferLimit",
      "outputs": [
        {
          "internalType": "uint256",
          "name": "",
          "type": "uint256"
        }
      ],
      "stateMutability": "view",
      "type": "function"
    },
    {
      "inputs": [
        {
          "internalType": "address",
          "name": "account",
          "type": "address"
        }
      ],
      "name": "getVotingPower",
      "outputs": [
        {
          "internalType": "uint256",
          "name": "",
          "type": "uint256"
        }
      ],
      "stateMutability": "view",
      "type": "function"
    },
    {
      "inputs": [],
      "name": "globalTransferLimit",
      "outputs": [
        {
          "internalType": "uint256",
          "name": "",
          "type": "uint256"
        }
      ],
      "stateMutability": "view",
      "type": "function"
    },
    {
      "inputs": [],
      "name": "governanceContract",
      "outputs": [
        {
          "internalType": "address",
          "name": "",
          "type": "address"
        }
      ],
      "stateMutability": "view",
      "type": "function"
    },
    {
      "inputs": [
        {
          "internalType": "bytes32",
          "name": "role",
          "type": "bytes32"
        },
        {
          "internalType": "address",
          "name": "account",
          "type": "address"
        }
      ],
      "name": "grantRole",
      "outputs": [],
      "stateMutability": "nonpayable",
      "type": "function"
    },
    {
      "inputs": [
        {
          "internalType": "bytes32",
          "name": "role",
          "type": "bytes32"
        },
        {
          "internalType": "address",
          "name": "account",
          "type": "address"
        }
      ],
      "name": "hasRole",
      "outputs": [
        {
          "internalType": "bool",
          "name": "",
          "type": "bool"
        }
      ],
      "stateMutability": "view",
      "type": "function"
    },
    {
      "inputs": [
        {
          "internalType": "address",
          "name": "_governanceContract",
          "type": "address"
        }
      ],
      "name": "initialize",
      "outputs": [],
      "stateMutability": "nonpayable",
      "type": "function"
    },
    {
      "inputs": [
        {
          "internalType": "address",
          "name": "account",
          "type": "address"
        }
      ],
      "name": "isBlacklisted",
      "outputs": [
        {
          "internalType": "bool",
          "name": "",
          "type": "bool"
        }
      ],
      "stateMutability": "view",
      "type": "function"
    },
    {
      "inputs": [],
      "name": "lastRewardUpdate",
      "outputs": [
        {
          "internalType": "uint256",
          "name": "",
          "type": "uint256"
        }
      ],
      "stateMutability": "view",
      "type": "function"
    },
    {
      "inputs": [
        {
          "internalType": "address",
          "name": "",
          "type": "address"
        }
      ],
      "name": "lastTransferTime",
      "outputs": [
        {
          "internalType": "uint256",
          "name": "",
          "type": "uint256"
        }
      ],
      "stateMutability": "view",
      "type": "function"
    },
    {
      "inputs": [
        {
          "internalType": "address",
          "name": "to",
          "type": "address"
        },
        {
          "internalType": "uint256",
          "name": "amount",
          "type": "uint256"
        }
      ],
      "name": "mint",
      "outputs": [],
      "stateMutability": "nonpayable",
      "type": "function"
    },
    {
      "inputs": [],
      "name": "name",
      "outputs": [
        {
          "internalType": "string",
          "name": "",
          "type": "string"
        }
      ],
      "stateMutability": "view",
      "type": "function"
    },
    {
      "inputs": [],
      "name": "nextVestingId",
      "outputs": [
        {
          "internalType": "uint256",
          "name": "",
          "type": "uint256"
        }
      ],
      "stateMutability": "view",
      "type": "function"
    },
    {
      "inputs": [],
      "name": "owner",
      "outputs": [
        {
          "internalType": "address",
          "name": "",
          "type": "address"
        }
      ],
      "stateMutability": "view",
      "type": "function"
    },
    {
      "inputs": [],
      "name": "pause",
      "outputs": [],
      "stateMutability": "nonpayable",
      "type": "function"
    },
    {
      "inputs": [],
      "name": "paused",
      "outputs": [
        {
          "internalType": "bool",
          "name": "",
          "type": "bool"
        }
      ],
      "stateMutability": "view",
      "type": "function"
    },
    {
      "inputs": [],
      "name": "proposalThreshold",
      "outputs": [
        {
          "internalType": "uint256",
          "name": "",
          "type": "uint256"
        }
      ],
      "stateMutability": "view",
      "type": "function"
    },
    {
      "inputs": [],
      "name": "proxiableUUID",
      "outputs": [
        {
          "internalType": "bytes32",
          "name": "",
          "type": "bytes32"
        }
      ],
      "stateMutability": "view",
      "type": "function"
    },
    {
      "inputs": [
        {
          "internalType": "uint256",
          "name": "vestingId",
          "type": "uint256"
        }
      ],
      "name": "releaseVestedTokens",
      "outputs": [],
      "stateMutability": "nonpayable",
      "type": "function"
    },
    {
      "inputs": [],
      "name": "renounceOwnership",
      "outputs": [],
      "stateMutability": "nonpayable",
      "type": "function"
    },
    {
      "inputs": [
        {
          "internalType": "bytes32",
          "name": "role",
          "type": "bytes32"
        },
        {
          "internalType": "address",
          "name": "callerConfirmation",
          "type": "address"
        }
      ],
      "name": "renounceRole",
      "outputs": [],
      "stateMutability": "nonpayable",
      "type": "function"
    },
    {
      "inputs": [
        {
          "internalType": "bytes32",
          "name": "role",
          "type": "bytes32"
        },
        {
          "internalType": "address",
          "name": "account",
          "type": "address"
        }
      ],
      "name": "revokeRole",
      "outputs": [],
      "stateMutability": "nonpayable",
      "type": "function"
    },
    {
      "inputs": [
        {
          "internalType": "uint256",
          "name": "vestingId",
          "type": "uint256"
        }
      ],
      "name": "revokeVesting",
      "outputs": [],
      "stateMutability": "nonpayable",
      "type": "function"
    },
    {
      "inputs": [],
      "name": "rewardPerTokenStored",
      "outputs": [
        {
          "internalType": "uint256",
          "name": "",
          "type": "uint256"
        }
      ],
      "stateMutability": "view",
      "type": "function"
    },
    {
      "inputs": [
        {
          "internalType": "uint256",
          "name": "limit",
          "type": "uint256"
        }
      ],
      "name": "setGlobalTransferLimit",
      "outputs": [],
      "stateMutability": "nonpayable",
      "type": "function"
    },
    {
      "inputs": [
        {
          "internalType": "address",
          "name": "_governance",
          "type": "address"
        }
      ],
      "name": "setGovernanceContract",
      "outputs": [],
      "stateMutability": "nonpayable",
      "type": "function"
    },
    {
      "inputs": [
        {
          "internalType": "uint256",
          "name": "threshold",
          "type": "uint256"
        }
      ],
      "name": "setProposalThreshold",
      "outputs": [],
      "stateMutability": "nonpayable",
      "type": "function"
    },
    {
      "inputs": [
        {
          "internalType": "uint256",
          "name": "newRate",
          "type": "uint256"
        }
      ],
      "name": "setStakingRewardRate",
      "outputs": [],
      "stateMutability": "nonpayable",
      "type": "function"
    },
    {
      "inputs": [
        {
          "internalType": "address",
          "name": "account",
          "type": "address"
        },
        {
          "internalType": "uint256",
          "name": "limit",
          "type": "uint256"
        }
      ],
      "name": "setTransferLimit",
      "outputs": [],
      "stateMutability": "nonpayable",
      "type": "function"
    },
    {
      "inputs": [
        {
          "internalType": "uint256",
          "name": "amount",
          "type": "uint256"
        },
        {
          "internalType": "uint256",
          "name": "lockPeriod",
          "type": "uint256"
        },
        {
          "internalType": "bool",
          "name": "autoCompound",
          "type": "bool"
        }
      ],
      "name": "stakeTokens",
      "outputs": [],
      "stateMutability": "nonpayable",
      "type": "function"
    },
    {
      "inputs": [
        {
          "internalType": "address",
          "name": "",
          "type": "address"
        }
      ],
      "name": "stakingPositions",
      "outputs": [
        {
          "internalType": "uint256",
          "name": "amount",
          "type": "uint256"
        },
        {
          "internalType": "uint256",
          "name": "startTime",
          "type": "uint256"
        },
        {
          "internalType": "uint256",
          "name": "lockPeriod",
          "type": "uint256"
        },
        {
          "internalType": "uint256",
          "name": "rewardDebt",
          "type": "uint256"
        },
        {
          "internalType": "bool",
          "name": "autoCompound",
          "type": "bool"
        }
      ],
      "stateMutability": "view",
      "type": "function"
    },
    {
      "inputs": [],
      "name": "stakingRewardRate",
      "outputs": [
        {
          "internalType": "uint256",
          "name": "",
          "type": "uint256"
        }
      ],
      "stateMutability": "view",
      "type": "function"
    },
    {
      "inputs": [
        {
          "internalType": "bytes4",
          "name": "interfaceId",
          "type": "bytes4"
        }
      ],
      "name": "supportsInterface",
      "outputs": [
        {
          "internalType": "bool",
          "name": "",
          "type": "bool"
        }
      ],
      "stateMutability": "view",
      "type": "function"
    },
    {
      "inputs": [],
      "name": "symbol",
      "outputs": [
        {
          "internalType": "string",
          "name": "",
          "type": "string"
        }
      ],
      "stateMutability": "view",
      "type": "function"
    },
    {
      "inputs": [],
      "name": "totalStaked",
      "outputs": [
        {
          "internalType": "uint256",
          "name": "",
          "type": "uint256"
        }
      ],
      "stateMutability": "view",
      "type": "function"
    },
    {
      "inputs": [],
      "name": "totalSupply",
      "outputs": [
        {
          "internalType": "uint256",
          "name": "",
          "type": "uint256"
        }
      ],
      "stateMutability": "view",
      "type": "function"
    },
    {
      "inputs": [],
      "name": "totalVested",
      "outputs": [
        {
          "internalType": "uint256",
          "name": "",
          "type": "uint256"
        }
      ],
      "stateMutability": "view",
      "type": "function"
    },
    {
      "inputs": [
        {
          "internalType": "address",
          "name": "to",
          "type": "address"
        },
        {
          "internalType": "uint256",
          "name": "value",
          "type": "uint256"
        }
      ],
      "name": "transfer",
      "outputs": [
        {
          "internalType": "bool",
          "name": "",
          "type": "bool"
        }
      ],
      "stateMutability": "nonpayable",
      "type": "function"
    },
    {
      "inputs": [
        {
          "internalType": "address",
          "name": "from",
          "type": "address"
        },
        {
          "internalType": "address",
          "name": "to",
          "type": "address"
        },
        {
          "internalType": "uint256",
          "name": "value",
          "type": "uint256"
        }
      ],
      "name": "transferFrom",
      "outputs": [
        {
          "internalType": "bool",
          "name": "",
          "type": "bool"
        }
      ],
      "stateMutability": "nonpayable",
      "type": "function"
    },
    {
      "inputs": [
        {
          "internalType": "address",
          "name": "",
          "type": "address"
        }
      ],
      "name": "transferLimits",
      "outputs": [
        {
          "internalType": "uint256",
          "name": "",
          "type": "uint256"
        }
      ],
      "stateMutability": "view",
      "type": "function"
    },
    {
      "inputs": [
        {
          "internalType": "address",
          "name": "newOwner",
          "type": "address"
        }
      ],
      "name": "transferOwnership",
      "outputs": [],
      "stateMutability": "nonpayable",
      "type": "function"
    },
    {
      "inputs": [
        {
          "internalType": "address",
          "name": "to",
          "type": "address"
        },
        {
          "internalType": "uint256",
          "name": "amount",
          "type": "uint256"
        },
        {
          "internalType": "string",
          "name": "memo",
          "type": "string"
        }
      ],
      "name": "transferWithMemo",
      "outputs": [
        {
          "internalType": "bool",
          "name": "",
          "type": "bool"
        }
      ],
      "stateMutability": "nonpayable",
      "type": "function"
    },
    {
      "inputs": [
        {
          "internalType": "address",
          "name": "account",
          "type": "address"
        }
      ],
      "name": "unblacklist",
      "outputs": [],
      "stateMutability": "nonpayable",
      "type": "function"
    },
    {
      "inputs": [],
      "name": "unpause",
      "outputs": [],
      "stateMutability": "nonpayable",
      "type": "function"
    },
    {
      "inputs": [],
      "name": "unstakeTokens",
      "outputs": [],
      "stateMutability": "nonpayable",
      "type": "function"
    },
    {
      "inputs": [
        {
          "internalType": "address",
          "name": "newImplementation",
          "type": "address"
        },
        {
          "internalType": "bytes",
          "name": "data",
          "type": "bytes"
        }
      ],
      "name": "upgradeToAndCall",
      "outputs": [],
      "stateMutability": "payable",
      "type": "function"
    },
    {
      "inputs": [
        {
          "internalType": "uint256",
          "name": "vestingId",
          "type": "uint256"
        }
      ],
      "name": "vestedAmount",
      "outputs": [
        {
          "internalType": "uint256",
          "name": "",
          "type": "uint256"
        }
      ],
      "stateMutability": "view",
      "type": "function"
    },
    {
      "inputs": [
        {
          "internalType": "uint256",
          "name": "",
          "type": "uint256"
        }
      ],
      "name": "vestingSchedules",
      "outputs": [
        {
          "internalType": "address",
          "name": "beneficiary",
          "type": "address"
        },
        {
          "internalType": "uint256",
          "name": "totalAmount",
          "type": "uint256"
        },
        {
          "internalType": "uint256",
          "name": "releasedAmount",
          "type": "uint256"
        },
        {
          "internalType": "uint256",
          "name": "startTime",
          "type": "uint256"
        },
        {
          "internalType": "uint256",
          "name": "duration",
          "type": "uint256"
        },
        {
          "internalType": "uint256",
          "name": "cliffDuration",
          "type": "uint256"
        },
        {
          "internalType": "bool",
          "name": "revocable",
          "type": "bool"
        },
        {
          "internalType": "bool",
          "name": "revoked",
          "type": "bool"
        }
      ],
      "stateMutability": "view",
      "type": "function"
    }
  ],
  "bytecode": "0x60a08060405234602957306080526140a0908161002f8239608051818181612291015261240d0152f35b600080fdfe608080604052600436101561001357600080fd5b60003560e01c90816301ffc9a714612c775750806306fdde0314612bb5578063095ea7b314612b085780630d2d8a3114612ace5780631129753f14612a5d57806318160ddd14612a32578063199cbc5414612a145780631bfce853146129f657806323141641146129d357806323b872dd1461299b578063246474551461297a578063248a9ca31461295c578063282c51f3146129215780632f2ff15d146128f05780632ff2e9dc146128cb578063313ce567146128af57806332cb6b0c1461288857806336568abe146128425780633f4ba83a146127d057806340c10f191461271157806342966c68146126c557806342b4632e1461269a578063495f3d271461267c5780634a4e3bd5146125d35780634f1ef286146123be5780634f3fc2df146123a057806351858e271461230657806352820f62146122e857806352d1902d1461227e5780635c975abb1461224e5780635edf9e611461222b57806369efe471146121f15780636b69e05b146121615780636d3cbe21146120d957806370a0823114612092578063715018a61461202857806375e3661e14611fc257806379cc679014611ee85780637a4a341214611ecb5780637d2aeb8a14611d495780638148580d14611cde578063817b1cd214611cc05780638456cb5914611c4c57806388d695b214611a675780638da5cb5b14611a3157806391d14854146119d757806395ccea67146118d557806395d89b41146117e2578063a217fddf146117c6578063a3c2710d146117a8578063a5ce413b14611669578063a9059cbb14611643578063aa4704f3146114c1578063aaad93211461121c578063ad3cb1cc146111d9578063b172b222146111b0578063b58131b014611192578063b7d6851914611044578063b9e2c1e014610e21578063bb4d443614610df6578063c4d66de81461085a578063d53913931461081f578063d547741f146107e9578063dbac26e914610363578063dd128200146106c8578063dd62ed3e1461067f578063df136d6514610661578063e63ab1e914610626578063ece40cc1146105da578063f0b6e33f1461056f578063f2fde38b14610544578063f36c8f5c14610509578063f3ff955a14610474578063f7334ee214610410578063f9f92be4146103a75763fe575a871461036357600080fd5b346103a25760203660031901126103a2576001600160a01b03610384612d13565b166000526000602052602060ff604060002054166040519015158152f35b600080fd5b346103a25760203660031901126103a2576103c0612d13565b6103c86139ea565b6001600160a01b03166000818152602081905260408120805460ff191660011790557fffa4e6181777692565cf28528fc88fd1516ea86b56da075235fa575af6a4b8559080a2005b346103a25760603660031901126103a257610429612d13565b6044359067ffffffffffffffff82116103a257366023830112156103a25761045e610469923690602481600401359101612dd3565b50602435903361376e565b602060405160018152f35b346103a25760203660031901126103a25761048d612d13565b600c546001600160a01b0316156104cf576001600160a01b0316337fbfa9be947969a7d4f47eceedb207379702a5e9e8b82ec09d564da75195f8689e600080a3005b60405162461bcd60e51b815260206004820152601260248201527111dbdd995c9b985b98d9481b9bdd081cd95d60721b6044820152606490fd5b346103a25760003660031901126103a25760206040517f71840dc4906352362b0cdaf79870196c8e42acafade72d5d5a6d59291253ceb18152f35b346103a25760203660031901126103a25761056d610560612d13565b6105686139ea565b6130b1565b005b346103a25760403660031901126103a257610588612d13565b7f19fba008e9d79eb8a8325333a2a40c0eeb1cad9d3db2e3751def35008bc9f78f6020602435926105b76139ea565b6001600160a01b03166000818152600283526040908190208590555193845292a2005b346103a25760203660031901126103a2577f75176781f69c55e26fee85d480452b0b9038b9428704bb7b232fc1c638bbf80360206004356106196131ec565b80600d55604051908152a1005b346103a25760003660031901126103a25760206040517f65d7a28e3265b37a6474929f336521b332c1681b933f6cb9f3376673440d862a8152f35b346103a25760003660031901126103a2576020600854604051908152f35b346103a25760403660031901126103a257610698612d13565b6106a96106a3612d29565b91612d3f565b9060018060a01b03166000526020526020604060002054604051908152f35b346103a25760203660031901126103a2576004356106e46131ec565b80600052600360205260406000209060068201805460ff8116156107b45760ff8160081c1661077d576101009061ff0019161790557f740e00656bffeb4991e0c72cb99c21c504d644c1f90eaff0d75112260f588917602061074f6001850154600286015490612e69565b9361075c85600b54612e69565b600b556107698530613c14565b546040519485526001600160a01b031693a3005b60405162461bcd60e51b815260206004820152600f60248201526e105b1c9958591e481c995d9bdad959608a1b6044820152606490fd5b60405162461bcd60e51b815260206004820152600d60248201526c4e6f74207265766f6361626c6560981b6044820152606490fd5b346103a25760403660031901126103a25761056d600435610808612d29565b9061081a61081582612fb6565b61325e565b613a20565b346103a25760003660031901126103a25760206040517f9f2df0fed2c77648de5860a4cc508cd0818c85b8b8a1ab4ceeef8d981c8956a68152f35b346103a25760203660031901126103a257610873612d13565b60008051602061404b8339815191525460ff8160401c16159067ffffffffffffffff811680159081610dee575b6001149081610de4575b159081610ddb575b50610dca5767ffffffffffffffff19811660011760008051602061404b8339815191525581610d9d575b506040908151926108ed8385612d95565b601084526f20b3b934a1b932b234ba102a37b5b2b760811b60208501528251936109178486612d95565b60048552634147524360e01b6020860152610930613e7b565b610938613e7b565b80519067ffffffffffffffff8211610c7d578190610964600080516020613f2b83398151915254612e22565b601f8111610d20575b50602090601f8311600114610c9e57600092610c93575b50508160011b916000199060031b1c191617600080516020613f2b833981519152555b835167ffffffffffffffff8111610c7d576109d0600080516020613f6b83398151915254612e22565b601f8111610c0b575b50602094601f8211600114610b8a57948192939495600092610b7f575b50508160011b916000199060031b1c191617600080516020613f6b833981519152555b610a21613e7b565b610a29613e7b565b610a31613e7b565b610a39613e7b565b610a42336130b1565b610a4a613e7b565b610a52613e7b565b610a5a613e7b565b600160008051602061402b83398151915255610a74613e7b565b3315610b6957610a8e69d3c21bcecceda100000033613d7d565b610a9733613364565b50610aa1336133fe565b50610aab336134ba565b50610ab533613576565b50610abf816132a8565b5060018060a01b03166bffffffffffffffffffffffff60a01b600c541617600c554260095569152d02c7e14af68000006005556103206006556001600a5569152d02c7e14af6800000600d55610b1157005b60207fc7f505b2f371ae2175ee4913f4499e1f2633a7b5936321eed1cdaeb6115181d29168ff00000000000000001960008051602061404b833981519152541660008051602061404b833981519152555160018152a1005b63ec442f0560e01b600052600060045260246000fd5b0151905085806109f6565b601f19821695600080516020613f6b833981519152600052806000209160005b888110610bf357508360019596979810610bda575b505050811b01600080516020613f6b83398151915255610a19565b015160001960f88460031b161c19169055858080610bbf565b91926020600181928685015181550194019201610baa565b600080516020613f6b8339815191526000527f46a2803e59a4de4e7a4c574b1243f25977ac4c77d5a1a4a609b5394cebb4a2aa601f830160051c81019160208410610c73575b601f0160051c01905b818110610c6757506109d9565b60008155600101610c5a565b9091508190610c51565b634e487b7160e01b600052604160045260246000fd5b015190508680610984565b600080516020613f2b83398151915260009081528281209350601f198516905b818110610d085750908460019594939210610cef575b505050811b01600080516020613f2b833981519152556109a7565b015160001960f88460031b161c19169055868080610cd4565b92936020600181928786015181550195019301610cbe565b600080516020613f2b8339815191526000529091507f2ae08a8e29253f69ac5d979a101956ab8f8d9d7ded63fa7a83b16fc47648eab0601f840160051c81019160208510610d93575b90601f859493920160051c01905b818110610d84575061096d565b60008155849350600101610d77565b9091508190610d69565b68ffffffffffffffffff1916680100000000000000011760008051602061404b83398151915255826108dc565b63f92ee8a960e01b60005260046000fd5b905015846108b2565b303b1591506108aa565b8391506108a0565b346103a25760203660031901126103a2576020610e19610e14612d13565b613077565b604051908152f35b346103a25760603660031901126103a25760043560243560443580151581036103a257610e4c613adb565b610e54613bea565b821561100a5733600052600080516020613f4b8339815191526020528260406000205410610fce5762278d0082101580610fc0575b15610f8557610e9733613b17565b3360005260046020526040600020908154610f4e57610ed490848355426001840155836002840155600483019060ff801983541691151516179055565b6003670de0b6b3a7640000610eeb60085486612e76565b04910155610efb82600754612e5c565b600755610f0982303361376e565b60405191825260208201527fdd2a19c3bdd089cbe77c04f5655f83de0504d6140d12c8667646f55d0557c4dc60403392a2600160008051602061402b83398151915255005b60405162461bcd60e51b815260206004820152600f60248201526e416c7265616479207374616b696e6760881b6044820152606490fd5b60405162461bcd60e51b8152602060048201526013602482015272125b9d985b1a59081b1bd8dac81c195c9a5bd9606a1b6044820152606490fd5b506301e13380821115610e89565b60405162461bcd60e51b8152602060048201526014602482015273496e73756666696369656e742062616c616e636560601b6044820152606490fd5b60405162461bcd60e51b81526020600482015260126024820152710416d6f756e74206d757374206265203e20360741b6044820152606490fd5b346103a25760203660031901126103a257600435611060613127565b611388811161115d5761107560095442612e69565b80151580611152575b6110b8575b7f39c078e0c9be5a018723ae5517e933105b55d82377b3f6b19db1933767a21bdc6020834260095580600655604051908152a1005b9064496cebb8006110d7600754936110d260065486612e76565b612e76565b0490670de0b6b3a7640000820291808304670de0b6b3a7640000149015171561113c5761113261112a7f39c078e0c9be5a018723ae5517e933105b55d82377b3f6b19db1933767a21bdc94602094612e89565b600854612e5c565b6008559150611083565b634e487b7160e01b600052601160045260246000fd5b50600754151561107e565b60405162461bcd60e51b815260206004820152600d60248201526c0a4c2e8ca40e8dede40d0d2ced609b1b6044820152606490fd5b346103a25760003660031901126103a2576020600d54604051908152f35b346103a25760003660031901126103a257600c546040516001600160a01b039091168152602090f35b346103a25760003660031901126103a25761121860408051906111fc8183612d95565b60058252640352e302e360dc1b60208301525191829182612cca565b0390f35b346103a25760c03660031901126103a257611235612d13565b602435906064356084359160a435908115158092036103a2576112566131ec565b6001600160a01b03169182156114865784156114505761129c6b033b2e3c9fd0803ce800000061129587600080516020613fab83398151915254612e5c565b1115612fd7565b8015611418578084116113d357600a5493600019851461113c5760209585937fc5fe10002947d574aa59081d50c74a9a815e093167384ee589a1c827bfd9d3af9361139560068a9560018901600a55604051906112f882612d78565b8a8252878201948786526040830160008152606084019060443582526080850192835260a0850193845260c0850198895260e0850197600089528d60005260038c5260406000209560018060a01b039051166bffffffffffffffffffffffff60a01b8754161786555160018601555160028501555160038401555160048301555160058201550192511515839060ff801983541691151516179055565b51151561ff0082549160081b169061ff0019161790556113b781600b54612e5c565b600b556113c48130613ac0565b604051908152a3604051908152f35b60405162461bcd60e51b815260206004820152601c60248201527f436c6966662063616e6e6f7420657863656564206475726174696f6e000000006044820152606490fd5b60405162461bcd60e51b815260206004820152601060248201526f24b73b30b634b210323ab930ba34b7b760811b6044820152606490fd5b60405162461bcd60e51b815260206004820152600e60248201526d125b9d985b1a5908185b5bdd5b9d60921b6044820152606490fd5b60405162461bcd60e51b8152602060048201526013602482015272496e76616c69642062656e656669636961727960681b6044820152606490fd5b346103a25760203660031901126103a2576001600160a01b036114e2612d13565b16600052600460205260406000206040519060a0820182811067ffffffffffffffff821117610c7d5760405280548083526001820154602084019081526002830154926040850193845260ff60046003830154926060880193845201541615156080860152600092611579575b50611561608094519351809251612e5c565b90604051938452602084015260408301526060820152f35b9391506008549361158c60095442612e69565b80151580611638575b6115c9575b506115c161156191670de0b6b3a76400006115b86080988751612e76565b04905190612e69565b92945061154f565b64496cebb8006115e2600754926110d260065485612e76565b0491670de0b6b3a7640000830292808404670de0b6b3a7640000149015171561113c57670de0b6b3a76400006115b861162d6080996116276115c19661156198612e89565b90612e5c565b98505050915061159a565b506007541515611595565b346103a25760403660031901126103a25761046961165f612d13565b602435903361376e565b346103a25760003660031901126103a257611682613adb565b336000526004602052604060002080541561176d576116aa6001820154600283015490612e5c565b4210611739576116b933613b17565b80549060006003820154916116d084600754612e69565b600755556116df82333061376e565b8061172a575b60405191825260208201527f6f2d3e000c89d37446b7c0374c0125068ff316d1e3ee302336478a8cd03c233660403392a2600160008051602061402b83398151915255005b6117348133613ac0565b6116e5565b60405162461bcd60e51b815260206004820152600c60248201526b14dd1a5b1b081b1bd8dad95960a21b6044820152606490fd5b60405162461bcd60e51b815260206004820152601360248201527227379039ba30b5b4b733903837b9b4ba34b7b760691b6044820152606490fd5b346103a25760003660031901126103a2576020600954604051908152f35b346103a25760003660031901126103a257602060405160008152f35b346103a25760003660031901126103a2576040516000600080516020613f6b8339815191525461181181612e22565b80845290600181169081156118b15750600114611845575b6112188361183981850382612d95565b60405191829182612cca565b600080516020613f6b83398151915260009081527f46a2803e59a4de4e7a4c574b1243f25977ac4c77d5a1a4a609b5394cebb4a2aa939250905b80821061189757509091508101602001611839611829565b91926001816020925483858801015201910190929161187f565b60ff191660208086019190915291151560051b840190910191506118399050611829565b346103a25760403660031901126103a2576118ee612d13565b6118f66139ea565b6001600160a01b0316308114611992576020600091604460018060a01b03600080516020613f8b8339815191525416604051948593849263a9059cbb60e01b8452600484015260243560248401525af180156119865761195257005b6020813d60201161197e575b8161196b60209383612d95565b810103126103a25751801515036103a257005b3d915061195e565b6040513d6000823e3d90fd5b60405162461bcd60e51b815260206004820152601c60248201527f43616e6e6f74207769746864726177206e617469766520746f6b656e000000006044820152606490fd5b346103a25760403660031901126103a2576119f0612d29565b600435600052600080516020613feb83398151915260205260406000209060018060a01b0316600052602052602060ff604060002054166040519015158152f35b346103a25760003660031901126103a257600080516020613f8b833981519152546040516001600160a01b039091168152602090f35b346103a25760403660031901126103a25760043567ffffffffffffffff81116103a257366023820112156103a2578060040135611aa381612e0a565b91611ab16040519384612d95565b8183526024602084019260051b820101903682116103a257602401915b818310611c2c576024358467ffffffffffffffff82116103a257366023830112156103a257816004013591611b0283612e0a565b92611b106040519485612d95565b8084526024602085019160051b830101913683116103a257602401905b828210611c1c57505050611b3f613adb565b8051825103611bde576064815111611ba35760005b8151811015611b8f57600190611b896001600160a01b03611b75838661304d565b5116611b81838761304d565b51903361376e565b01611b54565b600160008051602061402b83398151915255005b60405162461bcd60e51b8152602060048201526013602482015272546f6f206d616e7920726563697069656e747360681b6044820152606490fd5b60405162461bcd60e51b8152602060048201526016602482015275082e4e4c2f2e640d8cadccee8d040dad2e6dac2e8c6d60531b6044820152606490fd5b8135815260209182019101611b2d565b82356001600160a01b03811681036103a257815260209283019201611ace565b346103a25760003660031901126103a257611c6561317a565b611c6d613bea565b600160ff1960008051602061400b83398151915254161760008051602061400b833981519152557f62e78cea01bee320cd4e420270b5ea74000d11b0c9f74754ebdbfc544b05a2586020604051338152a1005b346103a25760003660031901126103a2576020600754604051908152f35b346103a25760203660031901126103a2576001600160a01b03611cff612d13565b16600052600460205260a06040600020805490600181015490600281015460ff60046003840154930154169260405194855260208501526040840152606083015215156080820152f35b346103a25760203660031901126103a257600435611d65613adb565b600081815260036020526040902080549091906001600160a01b03163303611e905760ff600683015460081c16611e58576002611da182612ea9565b9201611daf81548094612e69565b928315611e1c5783611dc091612e5c565b9055611dce82600b54612e69565b600b55611ddc82333061376e565b6040519182527f1eb32ded03bd01f267cc718a1b829201795c275c85563136e8fcce91b6c3c53160203393a3600160008051602061402b83398151915255005b60405162461bcd60e51b81526020600482015260146024820152734e6f20746f6b656e7320746f2072656c6561736560601b6044820152606490fd5b60405162461bcd60e51b815260206004820152601060248201526f14d8da19591d5b19481c995d9bdad95960821b6044820152606490fd5b60405162461bcd60e51b81526020600482015260136024820152724e6f74207468652062656e656669636961727960681b6044820152606490fd5b346103a25760003660031901126103a2576020604051610e108152f35b346103a25760403660031901126103a257611f01612d13565b3360009081527ffcf1b2032b1187d9f2a29150c4a608b3b6f0bdf8dd007801f86a276af50cad926020526040902054602435919060ff1615611f895760207ffd38818f5291bf0bb3a2a48aadc06ba8757865d1dabd804585338aab3009dcb691611f6c8433836136c9565b611f768482613c14565b6040519384526001600160a01b031692a2005b63e2517d3f60e01b600052336004527f3c11d16cbaffd01df69ce1c404f6340ee057498f5f00246190ea54220576a84860245260446000fd5b346103a25760203660031901126103a257611fdb612d13565b611fe36139ea565b6001600160a01b03166000818152602081905260408120805460ff191690557f7534c63860313c46c473e4e98328f37017e9674e2162faf1a3ad7a96236c3b7b9080a2005b346103a25760003660031901126103a2576120416139ea565b600080516020613f8b83398151915280546001600160a01b031981169091556000906001600160a01b03167f8be0079c531659141344cd1fd0a4f28419497f9722a3daafe3b4186f6b6457e08280a3005b346103a25760203660031901126103a2576001600160a01b036120b3612d13565b16600052600080516020613f4b8339815191526020526020604060002054604051908152f35b346103a25760203660031901126103a2576004356000526003602052610100604060002060ff60018060a01b0382541691600181015490600281015460038201546004830154916006600585015494015494604051978852602088015260408701526060860152608085015260a0840152818116151560c084015260081c16151560e0820152f35b346103a25760003660031901126103a25761217a613adb565b61218333613b17565b3360005260046020526003604060002001805490816121b057600160008051602061402b83398151915255005b600090556121be8133613ac0565b6040519081527fc727c17294ad4f040bec78be22159f993ffb0f22f4dfced8daeafc1ec2608a4c60203392a28080611b8f565b346103a25760203660031901126103a2576001600160a01b03612212612d13565b1660005260026020526020604060002054604051908152f35b346103a25760203660031901126103a2576020610e19612249612d13565b613018565b346103a25760003660031901126103a257602060ff60008051602061400b83398151915254166040519015158152f35b346103a25760003660031901126103a2577f00000000000000000000000000000000000000000000000000000000000000006001600160a01b031630036122d7576020604051600080516020613fcb8339815191528152f35b63703e46dd60e11b60005260046000fd5b346103a25760003660031901126103a2576020600554604051908152f35b346103a25760003660031901126103a25761231f613127565b612327613bea565b600160ff1960008051602061400b83398151915254161760008051602061400b833981519152557f62e78cea01bee320cd4e420270b5ea74000d11b0c9f74754ebdbfc544b05a2586020604051338152a1337fb8fad2fa0ed7a383e747c309ef2c4391d7b65592a48893e57ccc1fab70791456600080a2005b346103a25760003660031901126103a2576020600654604051908152f35b60403660031901126103a2576123d2612d13565b60243567ffffffffffffffff81116103a257366023820112156103a257612403903690602481600401359101612dd3565b6001600160a01b037f0000000000000000000000000000000000000000000000000000000000000000163081149081156125b0575b506122d7576124456139ea565b6040516352d1902d60e01b81526001600160a01b0383169290602081600481875afa6000918161257c575b5061248a5783634c9c8ce360e01b60005260045260246000fd5b80600080516020613fcb8339815191528592036125685750813b1561255457600080516020613fcb83398151915280546001600160a01b031916821790557fbc7cd75a20ee27fd9adebab32041f755214dbc6bffa90cc0225b39da2e5c2d3b600080a281511561253a5760008083602061056d95519101845af43d15612532573d9161251583612db7565b926125236040519485612d95565b83523d6000602085013e613ea9565b606091613ea9565b50503461254357005b63b398979f60e01b60005260046000fd5b634c9c8ce360e01b60005260045260246000fd5b632a87526960e21b60005260045260246000fd5b9091506020813d6020116125a8575b8161259860209383612d95565b810103126103a257519085612470565b3d915061258b565b600080516020613fcb833981519152546001600160a01b03161415905083612438565b346103a25760003660031901126103a2576125ec613127565b60008051602061400b8339815191525460ff81161561266b5760ff191660008051602061400b833981519152557f5db9ee0a495bf2e6ff9c91a7834c1ba4fdd244a5e8aa4e537bd38aeae4b073aa6020604051338152a1337ff5cbf596165cc457b2cd92e8d8450827ee314968160a5696402d75766fc52caf600080a2005b638dfc202b60e01b60005260046000fd5b346103a25760003660031901126103a2576020600a54604051908152f35b346103a25760203660031901126103a25760206126b8610e14612d13565b600d541115604051908152f35b346103a25760203660031901126103a2576004356126e38133613c14565b6040519081527ffd38818f5291bf0bb3a2a48aadc06ba8757865d1dabd804585338aab3009dcb660203392a2005b346103a25760403660031901126103a25761272a612d13565b3360009081527f549fe2656c81d2947b3b913f0a53b9ea86c71e049f3a1b8aa23c09a8a05cb8d460205260409020546024359060ff16156127975761056d916127926b033b2e3c9fd0803ce800000061129584600080516020613fab83398151915254612e5c565b613ac0565b63e2517d3f60e01b600052336004527f9f2df0fed2c77648de5860a4cc508cd0818c85b8b8a1ab4ceeef8d981c8956a660245260446000fd5b346103a25760003660031901126103a2576127e961317a565b60008051602061400b8339815191525460ff81161561266b5760ff191660008051602061400b833981519152557f5db9ee0a495bf2e6ff9c91a7834c1ba4fdd244a5e8aa4e537bd38aeae4b073aa6020604051338152a1005b346103a25760403660031901126103a25761285b612d29565b336001600160a01b038216036128775761056d90600435613a20565b63334bd91960e11b60005260046000fd5b346103a25760003660031901126103a25760206040516b033b2e3c9fd0803ce80000008152f35b346103a25760003660031901126103a257602060405160128152f35b346103a25760003660031901126103a257602060405169d3c21bcecceda10000008152f35b346103a25760403660031901126103a25761056d60043561290f612d29565b9061291c61081582612fb6565b613632565b346103a25760003660031901126103a25760206040517f3c11d16cbaffd01df69ce1c404f6340ee057498f5f00246190ea54220576a8488152f35b346103a25760203660031901126103a2576020610e19600435612fb6565b346103a25760203660031901126103a2576129936139ea565b600435600555005b346103a25760603660031901126103a2576104696129b7612d13565b6129bf612d29565b604435916129ce8333836136c9565b61376e565b346103a25760203660031901126103a2576020610e196129f1612d13565b612f7b565b346103a25760203660031901126103a2576020610e19600435612ea9565b346103a25760003660031901126103a2576020600b54604051908152f35b346103a25760003660031901126103a2576020600080516020613fab83398151915254604051908152f35b346103a25760203660031901126103a257612a76612d13565b612a7e613127565b600c80546001600160a01b0319166001600160a01b03831690811790915590612aa6906132a8565b507fe3cf2b71b55b62fc1a6c7b2f6ff944c1b70048908cff22f2e08d1144e7ca7edb600080a2005b346103a25760203660031901126103a2576001600160a01b03612aef612d13565b1660005260016020526020604060002054604051908152f35b346103a25760403660031901126103a257612b21612d13565b602435903315612b9f576001600160a01b0316908115612b8957612b4433612d3f565b82600052602052806040600020556040519081527f8c5be1e5ebec7d5bd14f71427d1e84f3dd0314c0f7b2291e5b200ac8c7c3b92560203392a3602060405160018152f35b634a1406b160e11b600052600060045260246000fd5b63e602df0560e01b600052600060045260246000fd5b346103a25760003660031901126103a2576040516000600080516020613f2b83398151915254612be481612e22565b80845290600181169081156118b15750600114612c0b576112188361183981850382612d95565b600080516020613f2b83398151915260009081527f2ae08a8e29253f69ac5d979a101956ab8f8d9d7ded63fa7a83b16fc47648eab0939250905b808210612c5d57509091508101602001611839611829565b919260018160209254838588010152019101909291612c45565b346103a25760203660031901126103a2576004359063ffffffff60e01b82168092036103a257602091637965db0b60e01b8114908115612cb9575b5015158152f35b6301ffc9a760e01b14905083612cb2565b91909160208152825180602083015260005b818110612cfd575060409293506000838284010152601f8019910116010190565b8060208092870101516040828601015201612cdc565b600435906001600160a01b03821682036103a257565b602435906001600160a01b03821682036103a257565b6001600160a01b031660009081527f52c63247e1f47db19d5ce0460030c497f067ca4cebf71ba98eeadabe20bace016020526040902090565b610100810190811067ffffffffffffffff821117610c7d57604052565b90601f8019910116810190811067ffffffffffffffff821117610c7d57604052565b67ffffffffffffffff8111610c7d57601f01601f191660200190565b929192612ddf82612db7565b91612ded6040519384612d95565b8294818452818301116103a2578281602093846000960137010152565b67ffffffffffffffff8111610c7d5760051b60200190565b90600182811c92168015612e52575b6020831014612e3c57565b634e487b7160e01b600052602260045260246000fd5b91607f1691612e31565b9190820180921161113c57565b9190820391821161113c57565b8181029291811591840414171561113c57565b8115612e93570490565b634e487b7160e01b600052601260045260246000fd5b60005260036020526040600020604051612ec281612d78565b60018060a01b0382541681526001820154916020820192835260028101546040830152612f2f60038201549160608401928084526004820154946080810195865260e060ff60066005860154958660a08601520154818116151560c085015260081c161515910152612e5c565b4210612f7357612f428151835190612e5c565b421015612f6d57612f6a92612f5b612f62925142612e69565b9051612e76565b905190612e89565b90565b50505190565b505050600090565b612f8481613018565b9060018060a01b03166000526001602052604060002054610e10810180911161113c574210612fb05790565b50600090565b600052600080516020613feb83398151915260205260016040600020015490565b15612fde57565b60405162461bcd60e51b815260206004820152601260248201527145786365656473206d617820737570706c7960701b6044820152606490fd5b6001600160a01b03166000818152600260205260409020541561304657600052600260205260406000205490565b5060055490565b80518210156130615760209160051b010190565b634e487b7160e01b600052603260045260246000fd5b6001600160a01b03166000908152600080516020613f4b8339815191526020908152604080832054600490925290912054612f6a91612e5c565b6001600160a01b0316801561311157600080516020613f8b83398151915280546001600160a01b0319811683179091556001600160a01b03167f8be0079c531659141344cd1fd0a4f28419497f9722a3daafe3b4186f6b6457e0600080a3565b631e4fbdf760e01b600052600060045260246000fd5b3360009081527fb7db2dd08fcb62d0c9e08c51941cae53c267786a0b75803fb7960902fc8ef97d602052604090205460ff161561316057565b63e2517d3f60e01b60005233600452600060245260446000fd5b3360009081527f75442b0a96088b5456bc4ed01394c96a4feec0f883c9494257d76b96ab1c9b6b602052604090205460ff16156131b357565b63e2517d3f60e01b600052336004527f65d7a28e3265b37a6474929f336521b332c1681b933f6cb9f3376673440d862a60245260446000fd5b3360009081527f25f7f44d2cbb35948a0ec4a3daca6d9fef225ba74483a7793ae48fcb0272bb0c602052604090205460ff161561322557565b63e2517d3f60e01b600052336004527f71840dc4906352362b0cdaf79870196c8e42acafade72d5d5a6d59291253ceb160245260446000fd5b6000818152600080516020613feb8339815191526020908152604080832033845290915290205460ff16156132905750565b63e2517d3f60e01b6000523360045260245260446000fd5b6001600160a01b03811660009081527f25f7f44d2cbb35948a0ec4a3daca6d9fef225ba74483a7793ae48fcb0272bb0c602052604090205460ff16612fb0576001600160a01b031660008181527f25f7f44d2cbb35948a0ec4a3daca6d9fef225ba74483a7793ae48fcb0272bb0c60205260408120805460ff191660011790553391907f71840dc4906352362b0cdaf79870196c8e42acafade72d5d5a6d59291253ceb190600080516020613f0b8339815191529080a4600190565b6001600160a01b03811660009081527fb7db2dd08fcb62d0c9e08c51941cae53c267786a0b75803fb7960902fc8ef97d602052604090205460ff16612fb0576001600160a01b031660008181527fb7db2dd08fcb62d0c9e08c51941cae53c267786a0b75803fb7960902fc8ef97d60205260408120805460ff19166001179055339190600080516020613f0b8339815191528180a4600190565b6001600160a01b03811660009081527f549fe2656c81d2947b3b913f0a53b9ea86c71e049f3a1b8aa23c09a8a05cb8d4602052604090205460ff16612fb0576001600160a01b031660008181527f549fe2656c81d2947b3b913f0a53b9ea86c71e049f3a1b8aa23c09a8a05cb8d460205260408120805460ff191660011790553391907f9f2df0fed2c77648de5860a4cc508cd0818c85b8b8a1ab4ceeef8d981c8956a690600080516020613f0b8339815191529080a4600190565b6001600160a01b03811660009081527ffcf1b2032b1187d9f2a29150c4a608b3b6f0bdf8dd007801f86a276af50cad92602052604090205460ff16612fb0576001600160a01b031660008181527ffcf1b2032b1187d9f2a29150c4a608b3b6f0bdf8dd007801f86a276af50cad9260205260408120805460ff191660011790553391907f3c11d16cbaffd01df69ce1c404f6340ee057498f5f00246190ea54220576a84890600080516020613f0b8339815191529080a4600190565b6001600160a01b03811660009081527f75442b0a96088b5456bc4ed01394c96a4feec0f883c9494257d76b96ab1c9b6b602052604090205460ff16612fb0576001600160a01b031660008181527f75442b0a96088b5456bc4ed01394c96a4feec0f883c9494257d76b96ab1c9b6b60205260408120805460ff191660011790553391907f65d7a28e3265b37a6474929f336521b332c1681b933f6cb9f3376673440d862a90600080516020613f0b8339815191529080a4600190565b6000818152600080516020613feb833981519152602090815260408083206001600160a01b038616845290915290205460ff166136c2576000818152600080516020613feb833981519152602090815260408083206001600160a01b0395909516808452949091528120805460ff1916600117905533929190600080516020613f0b8339815191529080a4600190565b5050600090565b91906136d483612d3f565b60018060a01b0382166000526020526040600020549260001984106136fa575b50505050565b828410613749576001600160a01b03811615612b9f576001600160a01b03821615612b895761372890612d3f565b9060018060a01b0316600052602052604060002091039055388080806136f4565b508290637dc7a0d960e11b60005260018060a01b031660045260245260445260646000fd5b6001600160a01b03169081156139d4576001600160a01b0316918215610b695781600052600060205260ff604060002054166139975782600052600060205260ff60406000205416613952576000828152600260205260409020541561394a578160005260026020526040600020545b811161390557816000526001602052604060002054610e10810180911161113c5742106138c0578160005260016020524260406000205561381d613bea565b6000828152600080516020613f4b83398151915260205260408120548281106138a65791604082827fddf252ad1be2c89b69c2b068fc378daa952ba7f163c4a11628f55a4df523b3ef958760209652600080516020613f4b83398151915286520382822055868152600080516020613f4b833981519152845220818154019055604051908152a3565b916064928463391434e360e21b8452600452602452604452fd5b60405162461bcd60e51b815260206004820152601860248201527f5472616e7366657220636f6f6c646f776e2061637469766500000000000000006044820152606490fd5b60405162461bcd60e51b815260206004820152601d60248201527f5472616e7366657220616d6f756e742065786365656473206c696d69740000006044820152606490fd5b6005546137de565b60405162461bcd60e51b815260206004820152601860248201527f526563697069656e7420697320626c61636b6c697374656400000000000000006044820152606490fd5b60405162461bcd60e51b815260206004820152601560248201527414d95b99195c881a5cc8189b1858dadb1a5cdd1959605a1b6044820152606490fd5b634b637e8f60e11b600052600060045260246000fd5b600080516020613f8b833981519152546001600160a01b03163303613a0b57565b63118cdaa760e01b6000523360045260246000fd5b6000818152600080516020613feb833981519152602090815260408083206001600160a01b038616845290915290205460ff16156136c2576000818152600080516020613feb833981519152602090815260408083206001600160a01b0395909516808452949091528120805460ff19169055339291907ff6391f5c32d9c69d2a47ea670b442974b53935d1edc7fd64eb21e047a839171b9080a4600190565b906001600160a01b03821615610b6957613ad991613d7d565b565b600260008051602061402b8339815191525414613b0657600260008051602061402b83398151915255565b633ee5aeb560e01b60005260046000fd5b613b2360095442612e69565b80151580613bdf575b613b8e575b50426009556001600160a01b031680613b475750565b60005260046020526040600020805480613b5f575050565b6003670de0b6b3a7640000613b7a613b8a9360085490612e76565b0492019161162783548092612e69565b9055565b64496cebb800613ba7600754926110d260065485612e76565b04670de0b6b3a7640000810290808204670de0b6b3a7640000149015171561113c57613bd69161112a91612e89565b60085538613b31565b506007541515613b2c565b60ff60008051602061400b8339815191525416613c0357565b63d93c066560e01b60005260046000fd5b6001600160a01b031680156139d45780600052600060205260ff604060002054166139975760008080526020527fad3228b676f7d3cd4284a5443f17f1962b36e491b30a40b2405849e597ba5fb55460ff166139525760008181526002602052604090205415613d75578060005260026020526040600020545b821161390557806000526001602052604060002054610e10810180911161113c5742106138c05780600052600160205242604060002055613ccd613bea565b600091818352600080516020613f4b8339815191526020526040832054818110613d5c57817fddf252ad1be2c89b69c2b068fc378daa952ba7f163c4a11628f55a4df523b3ef92602092858752600080516020613f4b833981519152845203604086205580600080516020613fab8339815191525403600080516020613fab83398151915255604051908152a3565b6064939263391434e360e21b8452600452602452604452fd5b600554613c8e565b60008080526020527fad3228b676f7d3cd4284a5443f17f1962b36e491b30a40b2405849e597ba5fb55460ff166139975760018060a01b03169081600052600060205260ff60406000205416613952577fddf252ad1be2c89b69c2b068fc378daa952ba7f163c4a11628f55a4df523b3ef6020600092613dfb613bea565b613e1481600080516020613fab83398151915254612e5c565b600080516020613fab8339815191525584158414613e585780600080516020613fab8339815191525403600080516020613fab833981519152555b604051908152a3565b848452600080516020613f4b833981519152825260408420818154019055613e4f565b60ff60008051602061404b8339815191525460401c1615613e9857565b631afcd79f60e31b60005260046000fd5b90613ecf5750805115613ebe57602081519101fd5b63d6bda27560e01b60005260046000fd5b81511580613f01575b613ee0575090565b639996b31560e01b60009081526001600160a01b0391909116600452602490fd5b50803b15613ed856fe2f8788117e7eff1d82e926ec794901d17c78024a50270940304540a733656f0d52c63247e1f47db19d5ce0460030c497f067ca4cebf71ba98eeadabe20bace0352c63247e1f47db19d5ce0460030c497f067ca4cebf71ba98eeadabe20bace0052c63247e1f47db19d5ce0460030c497f067ca4cebf71ba98eeadabe20bace049016d09d72d40fdae2fd8ceac6b6234c7706214fd39c1cd1e609a0528c19930052c63247e1f47db19d5ce0460030c497f067ca4cebf71ba98eeadabe20bace02360894a13ba1a3210667c828492db98dca3e2076cc3735a920a3ca505d382bbc02dd7bc7dec4dceedda775e58dd541e08a116c6c53815c0bd028192f7b626800cd5ed15c6e187e77e9aee88184c21f4f2182ab5827cb3b7e07fbedcd63f033009b779b17422d0df92223018b32b4d1fa46e071723d6817e2486d003becc55f00f0c57e16840df040f15088dc2f81fe391c3923bec73e23a9662efc9c229c6a00a2646970667358221220872bb34117b1152030b9a2d5f5fe88e15607d11f9001f9b5496cf8a1f246184864736f6c634300081c0033",
  "linkReferences": {},
  "deployedLinkReferences": {}
}