{
  "_format": "hh-sol-artifact-1",
  "contractName": "ParametricInsurance",
  "sourceName": "contracts/ParametricInsurance.sol",
  "abi": [
    {
      "inputs": [
        {
          "internalType": "address",
          "name": "target",
          "type": "address"
        }
      ],
      "name": "AddressEmptyCode",
      "type": "error"
    },
    {
      "inputs": [
        {
          "internalType": "address",
          "name": "implementation",
          "type": "address"
        }
      ],
      "name": "ERC1967InvalidImplementation",
      "type": "error"
    },
    {
      "inputs": [],
      "name": "ERC1967NonPayable",
      "type": "error"
    },
    {
      "inputs": [],
      "name": "FailedCall",
      "type": "error"
    },
    {
      "inputs": [],
      "name": "InvalidInitialization",
      "type": "error"
    },
    {
      "inputs": [],
      "name": "NotInitializing",
      "type": "error"
    },
    {
      "inputs": [
        {
          "internalType": "address",
          "name": "owner",
          "type": "address"
        }
      ],
      "name": "OwnableInvalidOwner",
      "type": "error"
    },
    {
      "inputs": [
        {
          "internalType": "address",
          "name": "account",
          "type": "address"
        }
      ],
      "name": "OwnableUnauthorizedAccount",
      "type": "error"
    },
    {
      "inputs": [],
      "name": "ReentrancyGuardReentrantCall",
      "type": "error"
    },
    {
      "inputs": [
        {
          "internalType": "address",
          "name": "token",
          "type": "address"
        }
      ],
      "name": "SafeERC20FailedOperation",
      "type": "error"
    },
    {
      "inputs": [],
      "name": "UUPSUnauthorizedCallContext",
      "type": "error"
    },
    {
      "inputs": [
        {
          "internalType": "bytes32",
          "name": "slot",
          "type": "bytes32"
        }
      ],
      "name": "UUPSUnsupportedProxiableUUID",
      "type": "error"
    },
    {
      "anonymous": false,
      "inputs": [
        {
          "indexed": true,
          "internalType": "uint256",
          "name": "policyId",
          "type": "uint256"
        },
        {
          "indexed": false,
          "internalType": "uint256",
          "name": "aiRiskScore",
          "type": "uint256"
        },
        {
          "indexed": false,
          "internalType": "uint256",
          "name": "predictedLoss",
          "type": "uint256"
        },
        {
          "indexed": false,
          "internalType": "uint256",
          "name": "confidenceLevel",
          "type": "uint256"
        }
      ],
      "name": "AIRiskAssessed",
      "type": "event"
    },
    {
      "anonymous": false,
      "inputs": [
        {
          "indexed": true,
          "internalType": "uint256",
          "name": "claimId",
          "type": "uint256"
        },
        {
          "indexed": false,
          "internalType": "enum ParametricInsurance.ClaimStatus",
          "name": "status",
          "type": "uint8"
        },
        {
          "indexed": false,
          "internalType": "uint256",
          "name": "payoutAmount",
          "type": "uint256"
        }
      ],
      "name": "ClaimProcessed",
      "type": "event"
    },
    {
      "anonymous": false,
      "inputs": [
        {
          "indexed": true,
          "internalType": "uint256",
          "name": "claimId",
          "type": "uint256"
        },
        {
          "indexed": true,
          "internalType": "uint256",
          "name": "policyId",
          "type": "uint256"
        },
        {
          "indexed": true,
          "internalType": "address",
          "name": "claimant",
          "type": "address"
        },
        {
          "indexed": false,
          "internalType": "uint256",
          "name": "claimAmount",
          "type": "uint256"
        }
      ],
      "name": "ClaimSubmitted",
      "type": "event"
    },
    {
      "anonymous": false,
      "inputs": [
        {
          "indexed": true,
          "internalType": "uint256",
          "name": "policyId",
          "type": "uint256"
        },
        {
          "indexed": false,
          "internalType": "uint256",
          "name": "payoutAmount",
          "type": "uint256"
        }
      ],
      "name": "CrossChainClaimProcessed",
      "type": "event"
    },
    {
      "anonymous": false,
      "inputs": [
        {
          "indexed": true,
          "internalType": "uint256",
          "name": "policyId",
          "type": "uint256"
        },
        {
          "indexed": false,
          "internalType": "uint256",
          "name": "sourceChainId",
          "type": "uint256"
        },
        {
          "indexed": false,
          "internalType": "uint256",
          "name": "coverageAmount",
          "type": "uint256"
        }
      ],
      "name": "CrossChainPolicyCreated",
      "type": "event"
    },
    {
      "anonymous": false,
      "inputs": [
        {
          "indexed": false,
          "internalType": "uint64",
          "name": "version",
          "type": "uint64"
        }
      ],
      "name": "Initialized",
      "type": "event"
    },
    {
      "anonymous": false,
      "inputs": [
        {
          "indexed": true,
          "internalType": "address",
          "name": "previousOwner",
          "type": "address"
        },
        {
          "indexed": true,
          "internalType": "address",
          "name": "newOwner",
          "type": "address"
        }
      ],
      "name": "OwnershipTransferred",
      "type": "event"
    },
    {
      "anonymous": false,
      "inputs": [
        {
          "indexed": true,
          "internalType": "uint256",
          "name": "policyId",
          "type": "uint256"
        },
        {
          "indexed": false,
          "internalType": "uint256",
          "name": "oracleData",
          "type": "uint256"
        },
        {
          "indexed": false,
          "internalType": "uint256",
          "name": "payoutAmount",
          "type": "uint256"
        }
      ],
      "name": "ParametricTrigger",
      "type": "event"
    },
    {
      "anonymous": false,
      "inputs": [
        {
          "indexed": true,
          "internalType": "uint256",
          "name": "policyId",
          "type": "uint256"
        },
        {
          "indexed": true,
          "internalType": "address",
          "name": "farmer",
          "type": "address"
        },
        {
          "indexed": false,
          "internalType": "enum ParametricInsurance.InsuranceType",
          "name": "insuranceType",
          "type": "uint8"
        },
        {
          "indexed": false,
          "internalType": "uint256",
          "name": "coverageAmount",
          "type": "uint256"
        }
      ],
      "name": "PolicyCreated",
      "type": "event"
    },
    {
      "anonymous": false,
      "inputs": [
        {
          "indexed": true,
          "internalType": "address",
          "name": "implementation",
          "type": "address"
        }
      ],
      "name": "Upgraded",
      "type": "event"
    },
    {
      "inputs": [],
      "name": "UPGRADE_INTERFACE_VERSION",
      "outputs": [
        {
          "internalType": "string",
          "name": "",
          "type": "string"
        }
      ],
      "stateMutability": "view",
      "type": "function"
    },
    {
      "inputs": [
        {
          "internalType": "uint256",
          "name": "",
          "type": "uint256"
        }
      ],
      "name": "aiRiskAssessments",
      "outputs": [
        {
          "internalType": "uint256",
          "name": "policyId",
          "type": "uint256"
        },
        {
          "internalType": "uint256",
          "name": "aiRiskScore",
          "type": "uint256"
        },
        {
          "internalType": "uint256",
          "name": "predictedLoss",
          "type": "uint256"
        },
        {
          "internalType": "uint256",
          "name": "confidenceLevel",
          "type": "uint256"
        },
        {
          "internalType": "uint256",
          "name": "timestamp",
          "type": "uint256"
        }
      ],
      "stateMutability": "view",
      "type": "function"
    },
    {
      "inputs": [
        {
          "internalType": "uint256",
          "name": "_policyId",
          "type": "uint256"
        },
        {
          "internalType": "string",
          "name": "_location",
          "type": "string"
        },
        {
          "internalType": "string",
          "name": "_cropType",
          "type": "string"
        },
        {
          "internalType": "enum ParametricInsurance.InsuranceType",
          "name": "_insuranceType",
          "type": "uint8"
        }
      ],
      "name": "assessRiskWithAI",
      "outputs": [
        {
          "internalType": "uint256",
          "name": "aiRiskScore",
          "type": "uint256"
        },
        {
          "internalType": "uint256",
          "name": "predictedLoss",
          "type": "uint256"
        },
        {
          "internalType": "uint256",
          "name": "confidenceLevel",
          "type": "uint256"
        }
      ],
      "stateMutability": "nonpayable",
      "type": "function"
    },
    {
      "inputs": [
        {
          "internalType": "enum ParametricInsurance.InsuranceType",
          "name": "",
          "type": "uint8"
        }
      ],
      "name": "basePremiumRates",
      "outputs": [
        {
          "internalType": "uint256",
          "name": "",
          "type": "uint256"
        }
      ],
      "stateMutability": "view",
      "type": "function"
    },
    {
      "inputs": [
        {
          "internalType": "enum ParametricInsurance.InsuranceType",
          "name": "_insuranceType",
          "type": "uint8"
        },
        {
          "internalType": "uint256",
          "name": "_coverageAmount",
          "type": "uint256"
        },
        {
          "internalType": "uint256",
          "name": "_duration",
          "type": "uint256"
        },
        {
          "internalType": "string",
          "name": "_location",
          "type": "string"
        },
        {
          "internalType": "string",
          "name": "_cropType",
          "type": "string"
        }
      ],
      "name": "calculatePremium",
      "outputs": [
        {
          "internalType": "uint256",
          "name": "",
          "type": "uint256"
        }
      ],
      "stateMutability": "view",
      "type": "function"
    },
    {
      "inputs": [],
      "name": "checkParametricTriggers",
      "outputs": [],
      "stateMutability": "nonpayable",
      "type": "function"
    },
    {
      "inputs": [
        {
          "internalType": "uint256",
          "name": "_policyId",
          "type": "uint256"
        },
        {
          "internalType": "bytes",
          "name": "_proof",
          "type": "bytes"
        }
      ],
      "name": "claimCrossChainInsurance",
      "outputs": [],
      "stateMutability": "nonpayable",
      "type": "function"
    },
    {
      "inputs": [
        {
          "internalType": "uint256",
          "name": "",
          "type": "uint256"
        }
      ],
      "name": "claims",
      "outputs": [
        {
          "internalType": "uint256",
          "name": "id",
          "type": "uint256"
        },
        {
          "internalType": "uint256",
          "name": "policyId",
          "type": "uint256"
        },
        {
          "internalType": "address",
          "name": "claimant",
          "type": "address"
        },
        {
          "internalType": "uint256",
          "name": "claimAmount",
          "type": "uint256"
        },
        {
          "internalType": "enum ParametricInsurance.ClaimStatus",
          "name": "status",
          "type": "uint8"
        },
        {
          "internalType": "uint256",
          "name": "submittedAt",
          "type": "uint256"
        },
        {
          "internalType": "uint256",
          "name": "processedAt",
          "type": "uint256"
        },
        {
          "internalType": "string",
          "name": "evidence",
          "type": "string"
        },
        {
          "internalType": "uint256",
          "name": "oracleData",
          "type": "uint256"
        }
      ],
      "stateMutability": "view",
      "type": "function"
    },
    {
      "inputs": [
        {
          "internalType": "uint256",
          "name": "_sourceChainId",
          "type": "uint256"
        },
        {
          "internalType": "enum ParametricInsurance.InsuranceType",
          "name": "_insuranceType",
          "type": "uint8"
        },
        {
          "internalType": "string",
          "name": "_location",
          "type": "string"
        },
        {
          "internalType": "string",
          "name": "_cropType",
          "type": "string"
        },
        {
          "internalType": "uint256",
          "name": "_coverageAmount",
          "type": "uint256"
        },
        {
          "internalType": "uint256",
          "name": "_duration",
          "type": "uint256"
        }
      ],
      "name": "createCrossChainPolicy",
      "outputs": [
        {
          "internalType": "uint256",
          "name": "",
          "type": "uint256"
        }
      ],
      "stateMutability": "payable",
      "type": "function"
    },
    {
      "inputs": [
        {
          "internalType": "enum ParametricInsurance.InsuranceType",
          "name": "_insuranceType",
          "type": "uint8"
        },
        {
          "internalType": "string",
          "name": "_location",
          "type": "string"
        },
        {
          "internalType": "string",
          "name": "_cropType",
          "type": "string"
        },
        {
          "internalType": "uint256",
          "name": "_coverageAmount",
          "type": "uint256"
        },
        {
          "internalType": "uint256",
          "name": "_duration",
          "type": "uint256"
        }
      ],
      "name": "createPolicy",
      "outputs": [
        {
          "internalType": "uint256",
          "name": "",
          "type": "uint256"
        }
      ],
      "stateMutability": "nonpayable",
      "type": "function"
    },
    {
      "inputs": [],
      "name": "cropOracle",
      "outputs": [
        {
          "internalType": "contract ICropOracle",
          "name": "",
          "type": "address"
        }
      ],
      "stateMutability": "view",
      "type": "function"
    },
    {
      "inputs": [
        {
          "internalType": "uint256",
          "name": "",
          "type": "uint256"
        }
      ],
      "name": "crossChainPolicies",
      "outputs": [
        {
          "internalType": "uint256",
          "name": "sourceChainId",
          "type": "uint256"
        },
        {
          "internalType": "uint256",
          "name": "policyId",
          "type": "uint256"
        },
        {
          "internalType": "address",
          "name": "beneficiary",
          "type": "address"
        },
        {
          "internalType": "uint256",
          "name": "coverageAmount",
          "type": "uint256"
        },
        {
          "internalType": "uint256",
          "name": "expirationDate",
          "type": "uint256"
        },
        {
          "internalType": "bool",
          "name": "active",
          "type": "bool"
        },
        {
          "internalType": "bytes32",
          "name": "bridgeTxHash",
          "type": "bytes32"
        }
      ],
      "stateMutability": "view",
      "type": "function"
    },
    {
      "inputs": [],
      "name": "decentralizedOracle",
      "outputs": [
        {
          "internalType": "contract DecentralizedOracle",
          "name": "",
          "type": "address"
        }
      ],
      "stateMutability": "view",
      "type": "function"
    },
    {
      "inputs": [
        {
          "internalType": "uint256",
          "name": "_amount",
          "type": "uint256"
        }
      ],
      "name": "emergencyWithdraw",
      "outputs": [],
      "stateMutability": "nonpayable",
      "type": "function"
    },
    {
      "inputs": [
        {
          "internalType": "uint256",
          "name": "_policyId",
          "type": "uint256"
        }
      ],
      "name": "getAIRiskAssessment",
      "outputs": [
        {
          "components": [
            {
              "internalType": "uint256",
              "name": "policyId",
              "type": "uint256"
            },
            {
              "internalType": "uint256",
              "name": "aiRiskScore",
              "type": "uint256"
            },
            {
              "internalType": "uint256",
              "name": "predictedLoss",
              "type": "uint256"
            },
            {
              "internalType": "uint256",
              "name": "confidenceLevel",
              "type": "uint256"
            },
            {
              "internalType": "uint256",
              "name": "timestamp",
              "type": "uint256"
            }
          ],
          "internalType": "struct ParametricInsurance.AIRiskAssessment",
          "name": "",
          "type": "tuple"
        }
      ],
      "stateMutability": "view",
      "type": "function"
    },
    {
      "inputs": [
        {
          "internalType": "uint256",
          "name": "_claimId",
          "type": "uint256"
        }
      ],
      "name": "getClaim",
      "outputs": [
        {
          "components": [
            {
              "internalType": "uint256",
              "name": "id",
              "type": "uint256"
            },
            {
              "internalType": "uint256",
              "name": "policyId",
              "type": "uint256"
            },
            {
              "internalType": "address",
              "name": "claimant",
              "type": "address"
            },
            {
              "internalType": "uint256",
              "name": "claimAmount",
              "type": "uint256"
            },
            {
              "internalType": "enum ParametricInsurance.ClaimStatus",
              "name": "status",
              "type": "uint8"
            },
            {
              "internalType": "uint256",
              "name": "submittedAt",
              "type": "uint256"
            },
            {
              "internalType": "uint256",
              "name": "processedAt",
              "type": "uint256"
            },
            {
              "internalType": "string",
              "name": "evidence",
              "type": "string"
            },
            {
              "internalType": "uint256",
              "name": "oracleData",
              "type": "uint256"
            }
          ],
          "internalType": "struct ParametricInsurance.InsuranceClaim",
          "name": "",
          "type": "tuple"
        }
      ],
      "stateMutability": "view",
      "type": "function"
    },
    {
      "inputs": [
        {
          "internalType": "enum ParametricInsurance.InsuranceType",
          "name": "_type",
          "type": "uint8"
        }
      ],
      "name": "getInsurancePool",
      "outputs": [
        {
          "components": [
            {
              "internalType": "enum ParametricInsurance.InsuranceType",
              "name": "insuranceType",
              "type": "uint8"
            },
            {
              "internalType": "uint256",
              "name": "totalPremiums",
              "type": "uint256"
            },
            {
              "internalType": "uint256",
              "name": "totalCoverage",
              "type": "uint256"
            },
            {
              "internalType": "uint256",
              "name": "totalClaimsPaid",
              "type": "uint256"
            },
            {
              "internalType": "uint256",
              "name": "poolBalance",
              "type": "uint256"
            },
            {
              "internalType": "bool",
              "name": "active",
              "type": "bool"
            }
          ],
          "internalType": "struct ParametricInsurance.InsurancePool",
          "name": "",
          "type": "tuple"
        }
      ],
      "stateMutability": "view",
      "type": "function"
    },
    {
      "inputs": [
        {
          "internalType": "uint256",
          "name": "_policyId",
          "type": "uint256"
        }
      ],
      "name": "getPolicy",
      "outputs": [
        {
          "components": [
            {
              "internalType": "uint256",
              "name": "id",
              "type": "uint256"
            },
            {
              "internalType": "address",
              "name": "farmer",
              "type": "address"
            },
            {
              "internalType": "enum ParametricInsurance.InsuranceType",
              "name": "insuranceType",
              "type": "uint8"
            },
            {
              "internalType": "string",
              "name": "location",
              "type": "string"
            },
            {
              "internalType": "string",
              "name": "cropType",
              "type": "string"
            },
            {
              "internalType": "uint256",
              "name": "coverageAmount",
              "type": "uint256"
            },
            {
              "internalType": "uint256",
              "name": "premium",
              "type": "uint256"
            },
            {
              "internalType": "uint256",
              "name": "deductible",
              "type": "uint256"
            },
            {
              "internalType": "uint256",
              "name": "startTime",
              "type": "uint256"
            },
            {
              "internalType": "uint256",
              "name": "endTime",
              "type": "uint256"
            },
            {
              "internalType": "bool",
              "name": "active",
              "type": "bool"
            },
            {
              "internalType": "uint256",
              "name": "triggerThreshold",
              "type": "uint256"
            }
          ],
          "internalType": "struct ParametricInsurance.InsurancePolicy",
          "name": "",
          "type": "tuple"
        }
      ],
      "stateMutability": "view",
      "type": "function"
    },
    {
      "inputs": [
        {
          "internalType": "address",
          "name": "_user",
          "type": "address"
        }
      ],
      "name": "getUserPolicies",
      "outputs": [
        {
          "internalType": "uint256[]",
          "name": "",
          "type": "uint256[]"
        }
      ],
      "stateMutability": "view",
      "type": "function"
    },
    {
      "inputs": [
        {
          "internalType": "address",
          "name": "_weatherOracle",
          "type": "address"
        },
        {
          "internalType": "address",
          "name": "_cropOracle",
          "type": "address"
        },
        {
          "internalType": "address",
          "name": "_paymentToken",
          "type": "address"
        },
        {
          "internalType": "address",
          "name": "_decentralizedOracle",
          "type": "address"
        }
      ],
      "name": "initialize",
      "outputs": [],
      "stateMutability": "nonpayable",
      "type": "function"
    },
    {
      "inputs": [
        {
          "internalType": "enum ParametricInsurance.InsuranceType",
          "name": "",
          "type": "uint8"
        }
      ],
      "name": "insurancePools",
      "outputs": [
        {
          "internalType": "enum ParametricInsurance.InsuranceType",
          "name": "insuranceType",
          "type": "uint8"
        },
        {
          "internalType": "uint256",
          "name": "totalPremiums",
          "type": "uint256"
        },
        {
          "internalType": "uint256",
          "name": "totalCoverage",
          "type": "uint256"
        },
        {
          "internalType": "uint256",
          "name": "totalClaimsPaid",
          "type": "uint256"
        },
        {
          "internalType": "uint256",
          "name": "poolBalance",
          "type": "uint256"
        },
        {
          "internalType": "bool",
          "name": "active",
          "type": "bool"
        }
      ],
      "stateMutability": "view",
      "type": "function"
    },
    {
      "inputs": [],
      "name": "nextClaimId",
      "outputs": [
        {
          "internalType": "uint256",
          "name": "",
          "type": "uint256"
        }
      ],
      "stateMutability": "view",
      "type": "function"
    },
    {
      "inputs": [],
      "name": "nextCrossChainPolicyId",
      "outputs": [
        {
          "internalType": "uint256",
          "name": "",
          "type": "uint256"
        }
      ],
      "stateMutability": "view",
      "type": "function"
    },
    {
      "inputs": [],
      "name": "nextPolicyId",
      "outputs": [
        {
          "internalType": "uint256",
          "name": "",
          "type": "uint256"
        }
      ],
      "stateMutability": "view",
      "type": "function"
    },
    {
      "inputs": [],
      "name": "owner",
      "outputs": [
        {
          "internalType": "address",
          "name": "",
          "type": "address"
        }
      ],
      "stateMutability": "view",
      "type": "function"
    },
    {
      "inputs": [],
      "name": "paymentToken",
      "outputs": [
        {
          "internalType": "contract IERC20",
          "name": "",
          "type": "address"
        }
      ],
      "stateMutability": "view",
      "type": "function"
    },
    {
      "inputs": [
        {
          "internalType": "uint256",
          "name": "",
          "type": "uint256"
        }
      ],
      "name": "policies",
      "outputs": [
        {
          "internalType": "uint256",
          "name": "id",
          "type": "uint256"
        },
        {
          "internalType": "address",
          "name": "farmer",
          "type": "address"
        },
        {
          "internalType": "enum ParametricInsurance.InsuranceType",
          "name": "insuranceType",
          "type": "uint8"
        },
        {
          "internalType": "string",
          "name": "location",
          "type": "string"
        },
        {
          "internalType": "string",
          "name": "cropType",
          "type": "string"
        },
        {
          "internalType": "uint256",
          "name": "coverageAmount",
          "type": "uint256"
        },
        {
          "internalType": "uint256",
          "name": "premium",
          "type": "uint256"
        },
        {
          "internalType": "uint256",
          "name": "deductible",
          "type": "uint256"
        },
        {
          "internalType": "uint256",
          "name": "startTime",
          "type": "uint256"
        },
        {
          "internalType": "uint256",
          "name": "endTime",
          "type": "uint256"
        },
        {
          "internalType": "bool",
          "name": "active",
          "type": "bool"
        },
        {
          "internalType": "uint256",
          "name": "triggerThreshold",
          "type": "uint256"
        }
      ],
      "stateMutability": "view",
      "type": "function"
    },
    {
      "inputs": [
        {
          "internalType": "uint256",
          "name": "_claimId",
          "type": "uint256"
        },
        {
          "internalType": "bool",
          "name": "_approved",
          "type": "bool"
        }
      ],
      "name": "processClaim",
      "outputs": [],
      "stateMutability": "nonpayable",
      "type": "function"
    },
    {
      "inputs": [],
      "name": "proxiableUUID",
      "outputs": [
        {
          "internalType": "bytes32",
          "name": "",
          "type": "bytes32"
        }
      ],
      "stateMutability": "view",
      "type": "function"
    },
    {
      "inputs": [],
      "name": "renounceOwnership",
      "outputs": [],
      "stateMutability": "nonpayable",
      "type": "function"
    },
    {
      "inputs": [
        {
          "internalType": "enum ParametricInsurance.InsuranceType",
          "name": "_type",
          "type": "uint8"
        },
        {
          "internalType": "bool",
          "name": "_active",
          "type": "bool"
        }
      ],
      "name": "setPoolActive",
      "outputs": [],
      "stateMutability": "nonpayable",
      "type": "function"
    },
    {
      "inputs": [
        {
          "internalType": "uint256",
          "name": "_policyId",
          "type": "uint256"
        },
        {
          "internalType": "uint256",
          "name": "_claimAmount",
          "type": "uint256"
        },
        {
          "internalType": "string",
          "name": "_evidence",
          "type": "string"
        }
      ],
      "name": "submitClaim",
      "outputs": [
        {
          "internalType": "uint256",
          "name": "",
          "type": "uint256"
        }
      ],
      "stateMutability": "nonpayable",
      "type": "function"
    },
    {
      "inputs": [
        {
          "internalType": "address",
          "name": "newOwner",
          "type": "address"
        }
      ],
      "name": "transferOwnership",
      "outputs": [],
      "stateMutability": "nonpayable",
      "type": "function"
    },
    {
      "inputs": [
        {
          "internalType": "enum ParametricInsurance.InsuranceType",
          "name": "",
          "type": "uint8"
        }
      ],
      "name": "triggerThresholds",
      "outputs": [
        {
          "internalType": "uint256",
          "name": "",
          "type": "uint256"
        }
      ],
      "stateMutability": "view",
      "type": "function"
    },
    {
      "inputs": [
        {
          "internalType": "enum ParametricInsurance.InsuranceType",
          "name": "_type",
          "type": "uint8"
        },
        {
          "internalType": "uint256",
          "name": "_rate",
          "type": "uint256"
        }
      ],
      "name": "updatePremiumRate",
      "outputs": [],
      "stateMutability": "nonpayable",
      "type": "function"
    },
    {
      "inputs": [
        {
          "internalType": "enum ParametricInsurance.InsuranceType",
          "name": "_type",
          "type": "uint8"
        },
        {
          "internalType": "uint256",
          "name": "_threshold",
          "type": "uint256"
        }
      ],
      "name": "updateTriggerThreshold",
      "outputs": [],
      "stateMutability": "nonpayable",
      "type": "function"
    },
    {
      "inputs": [
        {
          "internalType": "address",
          "name": "newImplementation",
          "type": "address"
        },
        {
          "internalType": "bytes",
          "name": "data",
          "type": "bytes"
        }
      ],
      "name": "upgradeToAndCall",
      "outputs": [],
      "stateMutability": "payable",
      "type": "function"
    },
    {
      "inputs": [],
      "name": "weatherOracle",
      "outputs": [
        {
          "internalType": "contract IWeatherOracle",
          "name": "",
          "type": "address"
        }
      ],
      "stateMutability": "view",
      "type": "function"
    }
  ],
  "bytecode": "0x60a0806040523460385730608052600160065560016007556001600d55613587908161003e823960805181818161113001526111c40152f35b600080fdfe6080604052600436101561001257600080fd5b60003560e01c806306315b261461270257806306964de7146123d35780630739988f146121b75780630dfb755214611de757806311b8a4ed14611d6e57806313d5ba1e14611b3d5780631988a68414611ab757806319ac46141461195d5780631f8b1ce41461191f5780632b07fce3146117415780633013ce291461171857806335446def1461138a5780634f1ef2861461118757806352d1902d1461111d5780635312ea8e1461102057806359ef827514610fc85780635aef244714610e63578063715018a614610df95780637a1419a114610d065780637e1a811314610cc85780637ee94ef114610c9f5780638305b8c414610c7657806384caacfa14610c4d578063896f811e14610c1a5780638da5cb5b14610be4578063a0021cf114610bc6578063a888c2cd14610b05578063ad3cb1cc14610aba578063b412b08614610a9c578063b706fd9114610a22578063bda605ba146109b1578063bddd4a471461086f578063cad0b8db14610851578063cd6b7eb7146107a4578063d3e8948314610695578063ed93934b14610639578063f2fde38b1461060e5763f8c8765e146101be57600080fd5b34610609576080366003190112610609576101d7612ce5565b6024356001600160a01b03811690819003610609576044356001600160a01b03811690819003610609576064356001600160a01b038116929083900361060957600080516020613532833981519152549360ff8560401c1615946001600160401b03811680159081610601575b60011490816105f7575b1590816105ee575b506105dd5767ffffffffffffffff19811660011760008051602061353283398151915255856105b0575b50610289613422565b610291613422565b61029a336130c1565b6102a2613422565b6102aa613422565b6001600080516020613512833981519152556102c4613422565b600080546001600160a01b03929092166001600160a01b031992831617815560018054831693909317909255600a80548216939093179092556002805490921692909217905560c87f5eff886ea0ce6ca488a3d6e336d6c0f75f46d19b42c06ce5ee98e42c96d256c781905560967fad67d757c34507f157cacfa2e3153e9f260a2244f30428821be7be64587ac55f5561012c7f6add646517a5b0f6793cd5891b7937d28a5b2981a5d88ebc7cd776088fea90415560fa7f625b35f5e76f098dd7c3a05b10e2e5e78a4a01228d60c3b143426cdf36d264555560b47f9321edea6e3be4df59a344b401fab4f888b556fda1f954244cff9204bad624b8556009602052601e7fec8156718a8372b1db44bb411437d0870f3e3790d4a08526d024ce1b0b668f6b557f92e85d02570a8092d09a6e3a57665bc3815a2699a4074001bf1ccabf660f5a365560467f6cde3cea4b3a3fb2488b2808bae7556f4a405e50f65e1794383bc026131b13c355603c7fc575c31fea594a6eb97c8e9d3f9caee4c16218c6ef37e923234c0fe9014a61e7556004815260237f8dc18c4ccfd75f5c815b63770fa542fd953e8fef7e0e44bbdd4913470ce7e9cb555b60048111610550578061049261054b92612cc5565b6105466040516104a181612c29565b6104aa83612cc5565b828152600560208201600081526040830160008152606084016000815260808501916000835260a0860193600185526104e289612cc5565b6104eb89612cc5565b88600052856020526040600020965161050381612cc5565b61050c81612cc5565b60ff8019895416911617875551600187015551600286015551600385015551600484015551151591019060ff801983541691151516179055565b612f05565b61047d565b5061055757005b68ff0000000000000000196000805160206135328339815191525416600080516020613532833981519152557fc7f505b2f371ae2175ee4913f4499e1f2633a7b5936321eed1cdaeb6115181d2602060405160018152a1005b68ffffffffffffffffff191668010000000000000001176000805160206135328339815191525538610280565b63f92ee8a960e01b60005260046000fd5b90501538610256565b303b15915061024e565b879150610244565b600080fd5b346106095760203660031901126106095761063761062a612ce5565b610632613356565b6130c1565b005b346106095760403660031901126106095760043560058110156106095761063790610662612d43565b9061066b613356565b61067481612cc5565b600052600560205260056040600020019060ff801983541691151516179055565b346106095760203660031901126106095760043560005260036020526020604060002080549060018101549160ff8360a01c1691604051926106e5846106de8160028601612dab565b0385612c44565b60405193610701856106fa8160038701612dab565b0386612c44565b6004830154946005840154610776600686015492610768600788015495600889015497600a60ff60098c0154169a01549a6040519e8f9e8f92835260018060a01b031691015261075081612cc5565b60408d015261018060608d01526101808c0190612d1e565b908a820360808c0152612d1e565b9660a089015260c088015260e087015261010086015261012085015215156101408401526101608301520390f35b3461060957602036600319011261060957600060806040516107c581612c0e565b8281528260208201528260408201528260608201520152600435600052600b60205260a060406000206040516107fa81612c0e565b81549182825260018101546020830190815260028201549060408401918252608060046003850154946060870195865201549401938452604051948552516020850152516040840152516060830152516080820152f35b34610609576000366003190112610609576020600654604051908152f35b34610609576040366003190112610609576004356024356001600160401b038111610609576108a2903690600401612c80565b81600052600c60205260406000209060058201918254916108c560ff8416612f37565b60028201546001600160a01b03163303610976576108e96004830154421115612f77565b5115610941577ffcb94267a66a8e20f641c8d0af7d6a33001fd21fe833246a3798cdee1f3a1fd79260209260ff19169055610937600360018060a01b03600a5416920191825490339061338c565b54604051908152a2005b60405162461bcd60e51b815260206004820152600d60248201526c24b73b30b634b210383937b7b360991b6044820152606490fd5b60405162461bcd60e51b81526020600482015260136024820152724e6f74207468652062656e656669636961727960681b6044820152606490fd5b34610609576109bf36612d52565b906109c8613356565b6103e882116109ed576109da81612cc5565b6000526008602052604060002055600080f35b60405162461bcd60e51b815260206004820152600d60248201526c0a4c2e8ca40e8dede40d0d2ced609b1b6044820152606490fd5b3461060957602036600319011261060957600435600052600c60205260e0604060002080549060018101549060018060a01b036002820154166003820154600483015491600660ff600586015416940154946040519687526020870152604086015260608501526080840152151560a083015260c0820152f35b34610609576000366003190112610609576020600d54604051908152f35b3461060957600036600319011261060957610b016040805190610add8183612c44565b60058252640352e302e360dc1b602083015251918291602083526020830190612d1e565b0390f35b3461060957602036600319011261060957600435600052600460205260406000208054600182015491610bbb60018060a01b0360028301541691600381015460ff600483015416600583015490600684015492600860405195610b7687610b6f8160078501612dab565b0388612c44565b015496604051998a998a5260208a015260408901526060880152610b9981612cc5565b608087015260a086015260c085015261012060e0850152610120840190612d1e565b906101008301520390f35b34610609576000366003190112610609576020600754604051908152f35b34610609576000366003190112610609576000805160206134b2833981519152546040516001600160a01b039091168152602090f35b3461060957610c2836612d52565b90610c31613356565b610c3a81612cc5565b6000526009602052604060002055600080f35b34610609576000366003190112610609576001546040516001600160a01b039091168152602090f35b34610609576000366003190112610609576002546040516001600160a01b039091168152602090f35b34610609576000366003190112610609576000546040516001600160a01b039091168152602090f35b3461060957602036600319011261060957600435600581101561060957610cee81612cc5565b60005260096020526020604060002054604051908152f35b3461060957602036600319011261060957600435600581101561060957600060a0604051610d3381612c29565b8281528260208201528260408201528260608201528260808201520152610d5981612cc5565b600052600560205260c06040600020604051610d7481612c29565b60ff82541691610d8383612cc5565b8282526001810154602083019081526002820154604084019081526003830154916060850192835260a060ff6005600487015496608089019788520154169501941515855260405195610dd581612cc5565b865251602086015251604085015251606084015251608083015251151560a0820152f35b3461060957600036600319011261060957610e12613356565b6000805160206134b283398151915280546001600160a01b031981169091556000906001600160a01b03167f8be0079c531659141344cd1fd0a4f28419497f9722a3daafe3b4186f6b6457e08280a3005b34610609576020366003190112610609576000610100604051610e8581612bf2565b8281528260208201528260408201528260608201528260808201528260a08201528260c0820152606060e0820152015260043560005260046020526040600020604051610ed181612bf2565b8154815260018201549160208201928352610fbc60018060a01b03600283015416916040840192835260038101546060850190815260ff6004830154166080860190610f1c81612cc5565b815260058301549060a0870191825260068401549260c08801938452600860405195610f4f87610b6f8160078501612dab565b60e08a019687520154966101008901978852604051998a9960208b525160208b01525160408a015260018060a01b03905116606089015251608088015251610f9681612cc5565b60a08701525160c08601525160e085015251610120610100850152610140840190612d1e565b90516101208301520390f35b3461060957602036600319011261060957600435600052600b60205260a06040600020805490600181015490600281015460046003830154920154926040519485526020850152604084015260608301526080820152f35b346106095760203660031901126106095760043561103c613356565b600a546040516370a0823160e01b81523060048201526001600160a01b039091169190602081602481865afa908115611111576000916110df575b5081116110a3576000805160206134b283398151915254610637926001600160a01b039091169061338c565b60405162461bcd60e51b8152602060048201526014602482015273496e73756666696369656e742062616c616e636560601b6044820152606490fd5b90506020813d602011611109575b816110fa60209383612c44565b81010312610609575183611077565b3d91506110ed565b6040513d6000823e3d90fd5b34610609576000366003190112610609577f00000000000000000000000000000000000000000000000000000000000000006001600160a01b031630036111765760206040516000805160206134f28339815191528152f35b63703e46dd60e11b60005260046000fd5b60403660031901126106095761119b612ce5565b6024356001600160401b038111610609576111ba903690600401612c80565b6001600160a01b037f000000000000000000000000000000000000000000000000000000000000000016308114908115611367575b50611176576111fc613356565b6040516352d1902d60e01b81526001600160a01b0383169290602081600481875afa60009181611333575b506112415783634c9c8ce360e01b60005260045260246000fd5b806000805160206134f283398151915285920361131f5750813b1561130b576000805160206134f283398151915280546001600160a01b031916821790557fbc7cd75a20ee27fd9adebab32041f755214dbc6bffa90cc0225b39da2e5c2d3b600080a28151156112f15760008083602061063795519101845af43d156112e9573d916112cc83612c65565b926112da6040519485612c44565b83523d6000602085013e613450565b606091613450565b5050346112fa57005b63b398979f60e01b60005260046000fd5b634c9c8ce360e01b60005260045260246000fd5b632a87526960e21b60005260045260246000fd5b9091506020813d60201161135f575b8161134f60209383612c44565b8101031261060957519085611227565b3d9150611342565b6000805160206134f2833981519152546001600160a01b031614159050836111ef565b34610609576040366003190112610609576004356113a6612d43565b6113ae613356565b8160005260046020526040600020906004820191600160ff8454166113d281612cc5565b036116dd5760018101546000526003602052604060002091600183019060ff825460a01c1661140081612cc5565b6000526005602052611427604060002095426006860155826000146116d557600290612fb4565b806116c3575b1561169e575460a01c60ff1661144281612cc5565b8015801561168b575b156115525750600054604051630557b78560e41b8152602060048201529060809082906001600160a01b031681806114896024820160028a01612dab565b03915afa928315611111576000805160206134d28339815191529460409460099360009161151f575b5060088501555b600a5460028501546003909501805490956114e0926001600160a01b03918216911661338c565b83546114f160038301918254612f2a565b90556115046004855492019182546130b4565b90550160ff19815416905554815190600282526020820152a2005b611541915060803d60801161154b575b6115398183612c44565b810190613092565b50509050886114b2565b503d61152f565b60049061155e81612cc5565b036115f157600054604051630557b78560e41b8152602060048201529060809082906001600160a01b0316818061159b6024820160028a01612dab565b03915afa928315611111576000805160206134d2833981519152946040946009936000916115cf575b5060088501556114b9565b6115e8915060803d60801161154b576115398183612c44565b505050886115c4565b600154604051636d3b249760e11b81529060609082906001600160a01b031681806116266003890160028a016004840161306a565b03915afa928315611111576000805160206134d283398151915294604094600993600091611659575060088501556114b9565b61167b915060603d606011611684575b6116738183612c44565b810190612fcc565b509050886115c4565b503d611669565b5061169581612cc5565b6001811461144b565b505050506000805160206134d2833981519152604080516003815260006020820152a2005b5060048401546003830154111561142d565b600390612fb4565b60405162461bcd60e51b815260206004820152601360248201527210db185a5b481b9bdd081cdd589b5a5d1d1959606a1b6044820152606490fd5b3461060957600036600319011261060957600a546040516001600160a01b039091168152602090f35b3461060957602036600319011261060957600061016060405161176381612bd6565b828152826020820152826040820152606080820152606060808201528260a08201528260c08201528260e0820152826101008201528261012082015282610140820152015260043560005260036020526040806000208151906117c582612bd6565b8054825260018101546001600160a01b038116602084019081529284810192909160a01c60ff166117f581612cc5565b835284519261180b846106de8160028601612dab565b60608301938452855193611826856106fa8160038701612dab565b6080840194855260048301549460a08501958652600584015460c086019081526118e960068601549260e088019384526118d66007880154956101008a019687526008890154976101208b01988952600a60ff60098c0154169a6101408d019b15158c5201549a61016081019b8c528e519e8f9e8f926020845251602084015260018060a01b03905116910152516118bd81612cc5565b60608d01525161018060808d01526101a08c0190612d1e565b90518a8203601f190160a08c0152612d1e565b965160c08901525160e0880152516101008701525161012086015251610140850152511515610160840152516101808301520390f35b346106095760203660031901126106095760043560058110156106095761194581612cc5565b60005260086020526020604060002054604051908152f35b3461060957602036600319011261060957611976612ce5565b6006546000916001600160a01b031660015b828110611a7957506119b261199c84613053565b936119aa6040519586612c44565b808552613053565b602084019290601f190136843760009160015b828110611a115784866040519182916020830190602084525180915260408301919060005b8181106119f8575050500390f35b82518452859450602093840193909201916001016119ea565b6000818152600360205260409020600101546001600160a01b03168214611a3b575b6001016119c5565b928551811015611a6357611a5b8185602060019460051b8a010152612f05565b939050611a33565b634e487b7160e01b600052603260045260246000fd5b6000818152600360205260409020600101546001600160a01b03168214611aa3575b600101611988565b92611aaf600191612f05565b939050611a9b565b3461060957602036600319011261060957600435600581101561060957611add81612cc5565b600052600560205260c0604060002060ff81541690600181015490600281015460038201549060ff60056004850154940154169360405195611b1e81612cc5565b86526020860152604085015260608401526080830152151560a0820152f35b60c0366003190112610609576024356004356005821015610609576044356001600160401b03811161060957611b77903690600401612c80565b906064356001600160401b03811161060957611b97903690600401612c80565b92611bef6084359460a43594611bae871515612e2e565b85151580611d60575b611bc090612e7a565b611bc984612cc5565b8360005260056020528587604060002095611bea60ff600589015416612eb9565b612ffa565b93611c088560018060a01b03600a541630903390613173565b611c21600d5494611c1886612f05565b600d5542612f2a565b926040519160e08301968388106001600160401b03891117611d4a57611d3660047f18a48f7ac4a1c05151a6b68127c85be89ea09754a6bcb803a96cece23f0339769660409660068b611d07819c60209f8c528a85528f8501908382528c860133815260608701908c82526080880192835260a08801936001855260c0890196600088526000526020600c90528f6000209851895551600189015560018060a01b03905116600288019060018060a01b03166001600160601b0360a01b8254161790555160038701555187860155511515600585019060ff801983541691151516179055565b5191015560018101611d1a858254612f2a565b905560028101611d2b868254612f2a565b905501918254612f2a565b9055825191825286820152a2604051908152f35b634e487b7160e01b600052604160045260246000fd5b506301e13380861115611bb7565b346106095760a0366003190112610609576004356005811015610609576064356001600160401b03811161060957611daa903690600401612c80565b90608435906001600160401b03821161060957602092611dd1611ddf933690600401612c80565b916044359060243590612ffa565b604051908152f35b346106095760003660031901126106095760015b600654811015610637578060005260036020526040600020906009820160ff815416806121a9575b611e33575b506001915001611dfb565b6001830180549160a083901c60ff16600080611e4e83612cc5565b82611fc6575050600054604051630557b78560e41b815260206004820152969060809088906001600160a01b03168180611e8e6024820160028801612dab565b03915afa91821561111157600197600093611fa3575b5082600a830154115b611ebc575b5050505050611e28565b600482015490611ecb81612cc5565b600052600560205260046040600020015490818082109118021892600682015493848111611efa575b50611eb2565b7f7b6da0477b8b69ee73a65b0b64c604d4548887491ae4d31a7956456e02f6bca095611f47611f2d60409760ff946130b4565b80998c8060a01b03600a5416908d8060a01b03169061338c565b5460a01c16611f5581612cc5565b600052600560205260048460002060038101611f72898254612f2a565b905501611f808782546130b4565b905560ff198154169055549382519182526020820152a282808080808080611ef4565b611fbc91935060803d811161154b576115398183612c44565b5050509188611ea4565b611fcf83612cc5565b60018303612059575050600054604051630557b78560e41b815260206004820152969060809088906001600160a01b031681806120126024820160028801612dab565b03915afa91821561111157600197600093612035575b5082600a83015410611ead565b61204e91935060803d811161154b576115398183612c44565b505090509188612028565b61206283612cc5565b600483036120ea575050600054604051630557b78560e41b815260206004820152969060809088906001600160a01b031681806120a56024820160028801612dab565b03915afa918215611111576001976000936120c7575082600a83015410611ead565b6120e091935060803d811161154b576115398183612c44565b5050509188612028565b909690916120f781612cc5565b600281148015612196575b61210f575b600197611ead565b600154604051636d3b249760e11b8152935060609084906001600160a01b0316818061214560038801600289016004840161306a565b03915afa92831561218b5760019893612168575b5082600a830154119750612107565b61218191935060603d8111611684576116738183612c44565b5090509188612159565b6040513d8a823e3d90fd5b506121a081612cc5565b60038114612102565b506008830154421115611e23565b34610609576080366003190112610609576004356024356001600160401b038111610609576121ea903690600401612c80565b906044356001600160401b0381116106095761220a903690600401612c80565b916064356005811015610609576122c5936122b36060936122876007602060018060a01b036002541695604051978161224c8a93518092868087019101612cfb565b820190605f60f81b8483015261226181612cc5565b60f81b6021820152645f7269736b60d81b60228201520301601819810187520185612c44565b6040516352ee0b7760e01b81526005600482015260248101869052968794859384936064850190612d1e565b83810360031901604485015290612d1e565b03915afa918215611111576000926123b0575b50610b016103e88306916064633b9aca00620f42406103e88704069504069060405161230381612c0e565b818152600460208201868152604083018881526060840190868252608085019242845286600052600b602052604060002095518655516001860155516002850155516003840155519101557ffff38d825c11f4ff51b1db4b9f188ceb3993374e4a77fe1b47a7cc2109c992c160405180612390858989846040919493926060820195825260208201520152565b0390a2604051938493846040919493926060820195825260208201520152565b6123ca91925060603d606011611684576116738183612c44565b505090826122d8565b34610609576060366003190112610609576024356004356044356001600160401b03811161060957612409903690600401612c80565b91612412613137565b600082815260036020526040902060018101546001600160a01b031633036126ca578061244760ff6009600494015416612f37565b6124576008820154421115612f77565b0154811161268c576007549161246c83612f05565b60075560405161247b81612bf2565b838152602081018281526040820133815260608301858152612519608085016001815260a086019242845260c08701946000865260e088019b8c52610100880196600088528b600052600460205260406000209851895551600189015560018060a01b03905116600288019060018060a01b03166001600160601b0360a01b8254161790555160038701555161251081612cc5565b60048601612fb4565b5160058401555160068301556007820195519586516001600160401b038111611d4a576125468254612d71565b97601f8911612644575b602098508890601f83116001146125da57600894939291600091836125cf575b50508160011b916000199060031b1c19161790555b51910155604051918252827f3a30d1c4069e097873e77443df9683e8de5c7ba3674315b8670a0211e3130195853394a4600160008051602061351283398151915255604051908152f35b015190508a80612570565b90601f1983169184600052816000209260005b81811061262d575091600193918560089897969410612614575b505050811b019055612585565b015160001960f88460031b161c191690558a8080612607565b92938c6001819287860151815501950193016125ed565b826000526020600020601f830160051c81019960208410612682575b601f0160051c01985b8981106126765750612550565b60008155600101612669565b9099508990612660565b60405162461bcd60e51b8152602060048201526016602482015275436c61696d206578636565647320636f76657261676560501b6044820152606490fd5b60405162461bcd60e51b815260206004820152601060248201526f2737ba103837b634b1bc9037bbb732b960811b6044820152606490fd5b346106095760a0366003190112610609576004356005811015610609576024356001600160401b0381116106095761273e903690600401612c80565b6044356001600160401b0381116106095761275d903690600401612c80565b916064356084359261276d613137565b612778821515612e2e565b83151580612bc8575b61278a90612e7a565b61279383612cc5565b82600052600560205260406000206127b160ff600583015416612eb9565b6127be8683878688612ffa565b916127d78360018060a01b03600a541630903390613173565b6127f0600654966127e788612f05565b60065542612f2a565b6127f986612cc5565b85600052600960205286604060002054916040519361281785612bd6565b82855260208501338152604086019161282f8b612cc5565b8a835260608701908152608087019c8d5260a087018a815260c08801918a835260e0890193600a8d0485526101008a01954287526101208b019788526101408b019860018a526101608c019a8b52600052600360205260406000209a518b5560018b019160018060a01b039060018060a01b03905116166001600160601b0360a01b835416178255516128c181612cc5565b6128ca81612cc5565b815460ff60a01b191660a09190911b60ff60a01b1617905551805160028a01916001600160401b038211611d4a5781906129048454612d71565b601f8111612b75575b50602090601f8311600114612b1057600092612b05575b50508160011b916000199060031b1c19161790555b600388019d519d8e516001600160401b038111611d4a5761295a8254612d71565b601f8111612abd575b5060209f602090601f8311600114612a4057936129df9c9a979383611d07989460049e9c9894600a9c98600092612a35575b50508160011b916000199060031b1c19161790555b518b8a0155516005890155516006880155516007870155516008860155511515600985019060ff801983541691151516179055565b9055604051916129ee81612cc5565b825283820152817f78e2ee02e1dd0cf71b75c6d5463946e0d324ca4b79fbd0b7e59ceffcf24654c160403393a3600160008051602061351283398151915255604051908152f35b015190503880612995565b90601f1983169184600052816000209260005b818110612aa55750846129df9f9d9a96929460049f9d999594600a9d9995611d079c9860019510612a8c575b505050811b0190556129aa565b015160001960f88460031b161c19169055388080612a7f565b92936020600181928786015181550195019301612a53565b826000526020600020601f830160051c81019160208410612afb575b601f0160051c01905b818110612aef5750612963565b60008155600101612ae2565b9091508190612ad9565b015190503880612924565b60008581528281209350601f198516905b818110612b5d5750908460019594939210612b44575b505050811b019055612939565b015160001960f88460031b161c19169055388080612b37565b92936020600181928786015181550195019301612b21565b909150836000526020600020601f840160051c81019160208510612bbe575b90601f859493920160051c01905b818110612baf575061290d565b60008155849350600101612ba2565b9091508190612b94565b506301e13380841115612781565b61018081019081106001600160401b03821117611d4a57604052565b61012081019081106001600160401b03821117611d4a57604052565b60a081019081106001600160401b03821117611d4a57604052565b60c081019081106001600160401b03821117611d4a57604052565b90601f801991011681019081106001600160401b03821117611d4a57604052565b6001600160401b038111611d4a57601f01601f191660200190565b81601f8201121561060957602081359101612c9a82612c65565b92612ca86040519485612c44565b828452828201116106095781600092602092838601378301015290565b60051115612ccf57565b634e487b7160e01b600052602160045260246000fd5b600435906001600160a01b038216820361060957565b60005b838110612d0e5750506000910152565b8181015183820152602001612cfe565b90602091612d3781518092818552858086019101612cfb565b601f01601f1916010190565b60243590811515820361060957565b6040906003190112610609576004356005811015610609579060243590565b90600182811c92168015612da1575b6020831014612d8b57565b634e487b7160e01b600052602260045260246000fd5b91607f1691612d80565b60009291815491612dbb83612d71565b8083529260018116908115612e115750600114612dd757505050565b60009081526020812093945091925b838310612df7575060209250010190565b600181602092949394548385870101520191019190612de6565b915050602093945060ff929192191683830152151560051b010190565b15612e3557565b60405162461bcd60e51b815260206004820152601b60248201527f436f76657261676520616d6f756e74206d757374206265203e203000000000006044820152606490fd5b15612e8157565b60405162461bcd60e51b815260206004820152601060248201526f24b73b30b634b210323ab930ba34b7b760811b6044820152606490fd5b15612ec057565b60405162461bcd60e51b815260206004820152601c60248201527f496e737572616e63652074797065206e6f7420617661696c61626c65000000006044820152606490fd5b6000198114612f145760010190565b634e487b7160e01b600052601160045260246000fd5b91908201809211612f1457565b15612f3e57565b60405162461bcd60e51b8152602060048201526011602482015270506f6c696379206e6f742061637469766560781b6044820152606490fd5b15612f7e57565b60405162461bcd60e51b815260206004820152600e60248201526d141bdb1a58de48195e1c1a5c995960921b6044820152606490fd5b90612fbe81612cc5565b60ff80198354169116179055565b90816060910312610609578051916040602083015192015190565b81810292918115918404141715612f1457565b9361304961304364496cebb80061303c61304f9796613037613037976127109b61302381612cc5565b600052600860205260406000205490612fe7565b612fe7565b04946131be565b9161329c565b92612fe7565b0490565b6001600160401b038111611d4a5760051b60200190565b909161308161308f93604084526040840190612dab565b916020818403910152612dab565b90565b9190826080910312610609578151916020810151916060604083015192015190565b91908203918211612f1457565b6001600160a01b03168015613121576000805160206134b283398151915280546001600160a01b0319811683179091556001600160a01b03167f8be0079c531659141344cd1fd0a4f28419497f9722a3daafe3b4186f6b6457e0600080a3565b631e4fbdf760e01b600052600060045260246000fd5b6002600080516020613512833981519152541461316257600260008051602061351283398151915255565b633ee5aeb560e01b60005260046000fd5b6040516323b872dd60e01b60208201526001600160a01b0392831660248201529290911660448301526064808301939093529181526131bc916131b7608483612c44565b6133c7565b565b6040516131ec602082816131db8183019687815193849201612cfb565b81010301601f198101835282612c44565b51902060405160208101906c64726f756768742d70726f6e6560981b8252600d8152613219602d82612c44565b51902081146132955760405160208101906a666c6f6f642d70726f6e6560a81b8252600b815261324a602b82612c44565b519020811461328e57604051602081019069706573742d70726f6e6560b01b8252600a815261327a602a82612c44565b519020146132885761271090565b613e8090565b506136b090565b50613a9890565b6040516132b9602082816131db8183019687815193849201612cfb565b5190206040516020810190646d61697a6560d81b8252600581526132de602582612c44565b519020811461334f576040516020810190637269636560e01b825260048152613308602482612c44565b519020811461334857604051602081019065636f6666656560d01b825260068152613334602682612c44565b519020146133425761271090565b613a9890565b506132c890565b50612ee090565b6000805160206134b2833981519152546001600160a01b0316330361337757565b63118cdaa760e01b6000523360045260246000fd5b60405163a9059cbb60e01b60208201526001600160a01b0390921660248301526044808301939093529181526131bc916131b7606483612c44565b906000602091828151910182855af115611111576000513d61341957506001600160a01b0381163b155b6133f85750565b635274afe760e01b60009081526001600160a01b0391909116600452602490fd5b600114156133f1565b60ff6000805160206135328339815191525460401c161561343f57565b631afcd79f60e31b60005260046000fd5b90613476575080511561346557602081519101fd5b63d6bda27560e01b60005260046000fd5b815115806134a8575b613487575090565b639996b31560e01b60009081526001600160a01b0391909116600452602490fd5b50803b1561347f56fe9016d09d72d40fdae2fd8ceac6b6234c7706214fd39c1cd1e609a0528c199300131884885e3b15c22fcaa4e2b49df807c03ab9e54bc149f6447e3c9166ce8814360894a13ba1a3210667c828492db98dca3e2076cc3735a920a3ca505d382bbc9b779b17422d0df92223018b32b4d1fa46e071723d6817e2486d003becc55f00f0c57e16840df040f15088dc2f81fe391c3923bec73e23a9662efc9c229c6a00a26469706673582212202f0cc5c23c00d8ae5c20a295307bc5566c5060011a62823833cf89db438b7c4d64736f6c634300081c0033",
  "linkReferences": {},
  "deployedLinkReferences": {}
}