{
  "_format": "hh-sol-artifact-1",
  "contractName": "ParametricInsurance",
  "sourceName": "contracts/ParametricInsurance.sol",
  "abi": [
    {
      "inputs": [
        {
          "internalType": "address",
          "name": "target",
          "type": "address"
        }
      ],
      "name": "AddressEmptyCode",
      "type": "error"
    },
    {
      "inputs": [
        {
          "internalType": "address",
          "name": "implementation",
          "type": "address"
        }
      ],
      "name": "ERC1967InvalidImplementation",
      "type": "error"
    },
    {
      "inputs": [],
      "name": "ERC1967NonPayable",
      "type": "error"
    },
    {
      "inputs": [],
      "name": "FailedCall",
      "type": "error"
    },
    {
      "inputs": [],
      "name": "InvalidInitialization",
      "type": "error"
    },
    {
      "inputs": [],
      "name": "NotInitializing",
      "type": "error"
    },
    {
      "inputs": [
        {
          "internalType": "address",
          "name": "owner",
          "type": "address"
        }
      ],
      "name": "OwnableInvalidOwner",
      "type": "error"
    },
    {
      "inputs": [
        {
          "internalType": "address",
          "name": "account",
          "type": "address"
        }
      ],
      "name": "OwnableUnauthorizedAccount",
      "type": "error"
    },
    {
      "inputs": [],
      "name": "ReentrancyGuardReentrantCall",
      "type": "error"
    },
    {
      "inputs": [
        {
          "internalType": "address",
          "name": "token",
          "type": "address"
        }
      ],
      "name": "SafeERC20FailedOperation",
      "type": "error"
    },
    {
      "inputs": [],
      "name": "UUPSUnauthorizedCallContext",
      "type": "error"
    },
    {
      "inputs": [
        {
          "internalType": "bytes32",
          "name": "slot",
          "type": "bytes32"
        }
      ],
      "name": "UUPSUnsupportedProxiableUUID",
      "type": "error"
    },
    {
      "anonymous": false,
      "inputs": [
        {
          "indexed": true,
          "internalType": "uint256",
          "name": "policyId",
          "type": "uint256"
        },
        {
          "indexed": false,
          "internalType": "uint256",
          "name": "aiRiskScore",
          "type": "uint256"
        },
        {
          "indexed": false,
          "internalType": "uint256",
          "name": "predictedLoss",
          "type": "uint256"
        },
        {
          "indexed": false,
          "internalType": "uint256",
          "name": "confidenceLevel",
          "type": "uint256"
        }
      ],
      "name": "AIRiskAssessed",
      "type": "event"
    },
    {
      "anonymous": false,
      "inputs": [
        {
          "indexed": true,
          "internalType": "uint256",
          "name": "claimId",
          "type": "uint256"
        },
        {
          "indexed": false,
          "internalType": "enum ParametricInsurance.ClaimStatus",
          "name": "status",
          "type": "uint8"
        },
        {
          "indexed": false,
          "internalType": "uint256",
          "name": "payoutAmount",
          "type": "uint256"
        }
      ],
      "name": "ClaimProcessed",
      "type": "event"
    },
    {
      "anonymous": false,
      "inputs": [
        {
          "indexed": true,
          "internalType": "uint256",
          "name": "claimId",
          "type": "uint256"
        },
        {
          "indexed": true,
          "internalType": "uint256",
          "name": "policyId",
          "type": "uint256"
        },
        {
          "indexed": true,
          "internalType": "address",
          "name": "claimant",
          "type": "address"
        },
        {
          "indexed": false,
          "internalType": "uint256",
          "name": "claimAmount",
          "type": "uint256"
        }
      ],
      "name": "ClaimSubmitted",
      "type": "event"
    },
    {
      "anonymous": false,
      "inputs": [
        {
          "indexed": true,
          "internalType": "uint256",
          "name": "policyId",
          "type": "uint256"
        },
        {
          "indexed": false,
          "internalType": "uint256",
          "name": "payoutAmount",
          "type": "uint256"
        }
      ],
      "name": "CrossChainClaimProcessed",
      "type": "event"
    },
    {
      "anonymous": false,
      "inputs": [
        {
          "indexed": true,
          "internalType": "uint256",
          "name": "policyId",
          "type": "uint256"
        },
        {
          "indexed": false,
          "internalType": "uint256",
          "name": "sourceChainId",
          "type": "uint256"
        },
        {
          "indexed": false,
          "internalType": "uint256",
          "name": "coverageAmount",
          "type": "uint256"
        }
      ],
      "name": "CrossChainPolicyCreated",
      "type": "event"
    },
    {
      "anonymous": false,
      "inputs": [
        {
          "indexed": false,
          "internalType": "uint64",
          "name": "version",
          "type": "uint64"
        }
      ],
      "name": "Initialized",
      "type": "event"
    },
    {
      "anonymous": false,
      "inputs": [
        {
          "indexed": true,
          "internalType": "address",
          "name": "previousOwner",
          "type": "address"
        },
        {
          "indexed": true,
          "internalType": "address",
          "name": "newOwner",
          "type": "address"
        }
      ],
      "name": "OwnershipTransferred",
      "type": "event"
    },
    {
      "anonymous": false,
      "inputs": [
        {
          "indexed": true,
          "internalType": "uint256",
          "name": "policyId",
          "type": "uint256"
        },
        {
          "indexed": false,
          "internalType": "uint256",
          "name": "oracleData",
          "type": "uint256"
        },
        {
          "indexed": false,
          "internalType": "uint256",
          "name": "payoutAmount",
          "type": "uint256"
        }
      ],
      "name": "ParametricTrigger",
      "type": "event"
    },
    {
      "anonymous": false,
      "inputs": [
        {
          "indexed": true,
          "internalType": "uint256",
          "name": "policyId",
          "type": "uint256"
        },
        {
          "indexed": true,
          "internalType": "address",
          "name": "farmer",
          "type": "address"
        },
        {
          "indexed": false,
          "internalType": "enum ParametricInsurance.InsuranceType",
          "name": "insuranceType",
          "type": "uint8"
        },
        {
          "indexed": false,
          "internalType": "uint256",
          "name": "coverageAmount",
          "type": "uint256"
        }
      ],
      "name": "PolicyCreated",
      "type": "event"
    },
    {
      "anonymous": false,
      "inputs": [
        {
          "indexed": true,
          "internalType": "address",
          "name": "implementation",
          "type": "address"
        }
      ],
      "name": "Upgraded",
      "type": "event"
    },
    {
      "inputs": [],
      "name": "UPGRADE_INTERFACE_VERSION",
      "outputs": [
        {
          "internalType": "string",
          "name": "",
          "type": "string"
        }
      ],
      "stateMutability": "view",
      "type": "function"
    },
    {
      "inputs": [
        {
          "internalType": "uint256",
          "name": "",
          "type": "uint256"
        }
      ],
      "name": "aiRiskAssessments",
      "outputs": [
        {
          "internalType": "uint256",
          "name": "policyId",
          "type": "uint256"
        },
        {
          "internalType": "uint256",
          "name": "aiRiskScore",
          "type": "uint256"
        },
        {
          "internalType": "uint256",
          "name": "predictedLoss",
          "type": "uint256"
        },
        {
          "internalType": "uint256",
          "name": "confidenceLevel",
          "type": "uint256"
        },
        {
          "internalType": "uint256",
          "name": "timestamp",
          "type": "uint256"
        }
      ],
      "stateMutability": "view",
      "type": "function"
    },
    {
      "inputs": [
        {
          "internalType": "uint256",
          "name": "_policyId",
          "type": "uint256"
        },
        {
          "internalType": "string",
          "name": "_location",
          "type": "string"
        },
        {
          "internalType": "string",
          "name": "_cropType",
          "type": "string"
        },
        {
          "internalType": "enum ParametricInsurance.InsuranceType",
          "name": "_insuranceType",
          "type": "uint8"
        }
      ],
      "name": "assessRiskWithAI",
      "outputs": [
        {
          "internalType": "uint256",
          "name": "aiRiskScore",
          "type": "uint256"
        },
        {
          "internalType": "uint256",
          "name": "predictedLoss",
          "type": "uint256"
        },
        {
          "internalType": "uint256",
          "name": "confidenceLevel",
          "type": "uint256"
        }
      ],
      "stateMutability": "nonpayable",
      "type": "function"
    },
    {
      "inputs": [
        {
          "internalType": "enum ParametricInsurance.InsuranceType",
          "name": "",
          "type": "uint8"
        }
      ],
      "name": "basePremiumRates",
      "outputs": [
        {
          "internalType": "uint256",
          "name": "",
          "type": "uint256"
        }
      ],
      "stateMutability": "view",
      "type": "function"
    },
    {
      "inputs": [
        {
          "internalType": "enum ParametricInsurance.InsuranceType",
          "name": "_insuranceType",
          "type": "uint8"
        },
        {
          "internalType": "uint256",
          "name": "_coverageAmount",
          "type": "uint256"
        },
        {
          "internalType": "uint256",
          "name": "_duration",
          "type": "uint256"
        },
        {
          "internalType": "string",
          "name": "_location",
          "type": "string"
        },
        {
          "internalType": "string",
          "name": "_cropType",
          "type": "string"
        }
      ],
      "name": "calculatePremium",
      "outputs": [
        {
          "internalType": "uint256",
          "name": "",
          "type": "uint256"
        }
      ],
      "stateMutability": "view",
      "type": "function"
    },
    {
      "inputs": [],
      "name": "checkParametricTriggers",
      "outputs": [],
      "stateMutability": "nonpayable",
      "type": "function"
    },
    {
      "inputs": [
        {
          "internalType": "uint256",
          "name": "_policyId",
          "type": "uint256"
        },
        {
          "internalType": "bytes",
          "name": "_proof",
          "type": "bytes"
        }
      ],
      "name": "claimCrossChainInsurance",
      "outputs": [],
      "stateMutability": "nonpayable",
      "type": "function"
    },
    {
      "inputs": [
        {
          "internalType": "uint256",
          "name": "",
          "type": "uint256"
        }
      ],
      "name": "claims",
      "outputs": [
        {
          "internalType": "uint256",
          "name": "id",
          "type": "uint256"
        },
        {
          "internalType": "uint256",
          "name": "policyId",
          "type": "uint256"
        },
        {
          "internalType": "address",
          "name": "claimant",
          "type": "address"
        },
        {
          "internalType": "uint256",
          "name": "claimAmount",
          "type": "uint256"
        },
        {
          "internalType": "enum ParametricInsurance.ClaimStatus",
          "name": "status",
          "type": "uint8"
        },
        {
          "internalType": "uint256",
          "name": "submittedAt",
          "type": "uint256"
        },
        {
          "internalType": "uint256",
          "name": "processedAt",
          "type": "uint256"
        },
        {
          "internalType": "string",
          "name": "evidence",
          "type": "string"
        },
        {
          "internalType": "uint256",
          "name": "oracleData",
          "type": "uint256"
        }
      ],
      "stateMutability": "view",
      "type": "function"
    },
    {
      "inputs": [
        {
          "internalType": "uint256",
          "name": "_sourceChainId",
          "type": "uint256"
        },
        {
          "internalType": "enum ParametricInsurance.InsuranceType",
          "name": "_insuranceType",
          "type": "uint8"
        },
        {
          "internalType": "string",
          "name": "_location",
          "type": "string"
        },
        {
          "internalType": "string",
          "name": "_cropType",
          "type": "string"
        },
        {
          "internalType": "uint256",
          "name": "_coverageAmount",
          "type": "uint256"
        },
        {
          "internalType": "uint256",
          "name": "_duration",
          "type": "uint256"
        }
      ],
      "name": "createCrossChainPolicy",
      "outputs": [
        {
          "internalType": "uint256",
          "name": "",
          "type": "uint256"
        }
      ],
      "stateMutability": "payable",
      "type": "function"
    },
    {
      "inputs": [
        {
          "internalType": "enum ParametricInsurance.InsuranceType",
          "name": "_insuranceType",
          "type": "uint8"
        },
        {
          "internalType": "string",
          "name": "_location",
          "type": "string"
        },
        {
          "internalType": "string",
          "name": "_cropType",
          "type": "string"
        },
        {
          "internalType": "uint256",
          "name": "_coverageAmount",
          "type": "uint256"
        },
        {
          "internalType": "uint256",
          "name": "_duration",
          "type": "uint256"
        }
      ],
      "name": "createPolicy",
      "outputs": [
        {
          "internalType": "uint256",
          "name": "",
          "type": "uint256"
        }
      ],
      "stateMutability": "nonpayable",
      "type": "function"
    },
    {
      "inputs": [],
      "name": "cropOracle",
      "outputs": [
        {
          "internalType": "contract ICropOracle",
          "name": "",
          "type": "address"
        }
      ],
      "stateMutability": "view",
      "type": "function"
    },
    {
      "inputs": [
        {
          "internalType": "uint256",
          "name": "",
          "type": "uint256"
        }
      ],
      "name": "crossChainPolicies",
      "outputs": [
        {
          "internalType": "uint256",
          "name": "sourceChainId",
          "type": "uint256"
        },
        {
          "internalType": "uint256",
          "name": "policyId",
          "type": "uint256"
        },
        {
          "internalType": "address",
          "name": "beneficiary",
          "type": "address"
        },
        {
          "internalType": "uint256",
          "name": "coverageAmount",
          "type": "uint256"
        },
        {
          "internalType": "uint256",
          "name": "expirationDate",
          "type": "uint256"
        },
        {
          "internalType": "bool",
          "name": "active",
          "type": "bool"
        },
        {
          "internalType": "bytes32",
          "name": "bridgeTxHash",
          "type": "bytes32"
        }
      ],
      "stateMutability": "view",
      "type": "function"
    },
    {
      "inputs": [],
      "name": "decentralizedOracle",
      "outputs": [
        {
          "internalType": "contract DecentralizedOracle",
          "name": "",
          "type": "address"
        }
      ],
      "stateMutability": "view",
      "type": "function"
    },
    {
      "inputs": [
        {
          "internalType": "uint256",
          "name": "_amount",
          "type": "uint256"
        }
      ],
      "name": "emergencyWithdraw",
      "outputs": [],
      "stateMutability": "nonpayable",
      "type": "function"
    },
    {
      "inputs": [
        {
          "internalType": "uint256",
          "name": "_policyId",
          "type": "uint256"
        }
      ],
      "name": "getAIRiskAssessment",
      "outputs": [
        {
          "components": [
            {
              "internalType": "uint256",
              "name": "policyId",
              "type": "uint256"
            },
            {
              "internalType": "uint256",
              "name": "aiRiskScore",
              "type": "uint256"
            },
            {
              "internalType": "uint256",
              "name": "predictedLoss",
              "type": "uint256"
            },
            {
              "internalType": "uint256",
              "name": "confidenceLevel",
              "type": "uint256"
            },
            {
              "internalType": "uint256",
              "name": "timestamp",
              "type": "uint256"
            }
          ],
          "internalType": "struct ParametricInsurance.AIRiskAssessment",
          "name": "",
          "type": "tuple"
        }
      ],
      "stateMutability": "view",
      "type": "function"
    },
    {
      "inputs": [
        {
          "internalType": "uint256",
          "name": "_claimId",
          "type": "uint256"
        }
      ],
      "name": "getClaim",
      "outputs": [
        {
          "components": [
            {
              "internalType": "uint256",
              "name": "id",
              "type": "uint256"
            },
            {
              "internalType": "uint256",
              "name": "policyId",
              "type": "uint256"
            },
            {
              "internalType": "address",
              "name": "claimant",
              "type": "address"
            },
            {
              "internalType": "uint256",
              "name": "claimAmount",
              "type": "uint256"
            },
            {
              "internalType": "enum ParametricInsurance.ClaimStatus",
              "name": "status",
              "type": "uint8"
            },
            {
              "internalType": "uint256",
              "name": "submittedAt",
              "type": "uint256"
            },
            {
              "internalType": "uint256",
              "name": "processedAt",
              "type": "uint256"
            },
            {
              "internalType": "string",
              "name": "evidence",
              "type": "string"
            },
            {
              "internalType": "uint256",
              "name": "oracleData",
              "type": "uint256"
            }
          ],
          "internalType": "struct ParametricInsurance.InsuranceClaim",
          "name": "",
          "type": "tuple"
        }
      ],
      "stateMutability": "view",
      "type": "function"
    },
    {
      "inputs": [
        {
          "internalType": "enum ParametricInsurance.InsuranceType",
          "name": "_type",
          "type": "uint8"
        }
      ],
      "name": "getInsurancePool",
      "outputs": [
        {
          "components": [
            {
              "internalType": "enum ParametricInsurance.InsuranceType",
              "name": "insuranceType",
              "type": "uint8"
            },
            {
              "internalType": "uint256",
              "name": "totalPremiums",
              "type": "uint256"
            },
            {
              "internalType": "uint256",
              "name": "totalCoverage",
              "type": "uint256"
            },
            {
              "internalType": "uint256",
              "name": "totalClaimsPaid",
              "type": "uint256"
            },
            {
              "internalType": "uint256",
              "name": "poolBalance",
              "type": "uint256"
            },
            {
              "internalType": "bool",
              "name": "active",
              "type": "bool"
            }
          ],
          "internalType": "struct ParametricInsurance.InsurancePool",
          "name": "",
          "type": "tuple"
        }
      ],
      "stateMutability": "view",
      "type": "function"
    },
    {
      "inputs": [
        {
          "internalType": "uint256",
          "name": "_policyId",
          "type": "uint256"
        }
      ],
      "name": "getPolicy",
      "outputs": [
        {
          "components": [
            {
              "internalType": "uint256",
              "name": "id",
              "type": "uint256"
            },
            {
              "internalType": "address",
              "name": "farmer",
              "type": "address"
            },
            {
              "internalType": "enum ParametricInsurance.InsuranceType",
              "name": "insuranceType",
              "type": "uint8"
            },
            {
              "internalType": "string",
              "name": "location",
              "type": "string"
            },
            {
              "internalType": "string",
              "name": "cropType",
              "type": "string"
            },
            {
              "internalType": "uint256",
              "name": "coverageAmount",
              "type": "uint256"
            },
            {
              "internalType": "uint256",
              "name": "premium",
              "type": "uint256"
            },
            {
              "internalType": "uint256",
              "name": "deductible",
              "type": "uint256"
            },
            {
              "internalType": "uint256",
              "name": "startTime",
              "type": "uint256"
            },
            {
              "internalType": "uint256",
              "name": "endTime",
              "type": "uint256"
            },
            {
              "internalType": "bool",
              "name": "active",
              "type": "bool"
            },
            {
              "internalType": "uint256",
              "name": "triggerThreshold",
              "type": "uint256"
            }
          ],
          "internalType": "struct ParametricInsurance.InsurancePolicy",
          "name": "",
          "type": "tuple"
        }
      ],
      "stateMutability": "view",
      "type": "function"
    },
    {
      "inputs": [
        {
          "internalType": "address",
          "name": "_user",
          "type": "address"
        }
      ],
      "name": "getUserPolicies",
      "outputs": [
        {
          "internalType": "uint256[]",
          "name": "",
          "type": "uint256[]"
        }
      ],
      "stateMutability": "view",
      "type": "function"
    },
    {
      "inputs": [
        {
          "internalType": "address",
          "name": "_weatherOracle",
          "type": "address"
        },
        {
          "internalType": "address",
          "name": "_cropOracle",
          "type": "address"
        },
        {
          "internalType": "address",
          "name": "_paymentToken",
          "type": "address"
        },
        {
          "internalType": "address",
          "name": "_decentralizedOracle",
          "type": "address"
        }
      ],
      "name": "initialize",
      "outputs": [],
      "stateMutability": "nonpayable",
      "type": "function"
    },
    {
      "inputs": [
        {
          "internalType": "enum ParametricInsurance.InsuranceType",
          "name": "",
          "type": "uint8"
        }
      ],
      "name": "insurancePools",
      "outputs": [
        {
          "internalType": "enum ParametricInsurance.InsuranceType",
          "name": "insuranceType",
          "type": "uint8"
        },
        {
          "internalType": "uint256",
          "name": "totalPremiums",
          "type": "uint256"
        },
        {
          "internalType": "uint256",
          "name": "totalCoverage",
          "type": "uint256"
        },
        {
          "internalType": "uint256",
          "name": "totalClaimsPaid",
          "type": "uint256"
        },
        {
          "internalType": "uint256",
          "name": "poolBalance",
          "type": "uint256"
        },
        {
          "internalType": "bool",
          "name": "active",
          "type": "bool"
        }
      ],
      "stateMutability": "view",
      "type": "function"
    },
    {
      "inputs": [],
      "name": "nextClaimId",
      "outputs": [
        {
          "internalType": "uint256",
          "name": "",
          "type": "uint256"
        }
      ],
      "stateMutability": "view",
      "type": "function"
    },
    {
      "inputs": [],
      "name": "nextCrossChainPolicyId",
      "outputs": [
        {
          "internalType": "uint256",
          "name": "",
          "type": "uint256"
        }
      ],
      "stateMutability": "view",
      "type": "function"
    },
    {
      "inputs": [],
      "name": "nextPolicyId",
      "outputs": [
        {
          "internalType": "uint256",
          "name": "",
          "type": "uint256"
        }
      ],
      "stateMutability": "view",
      "type": "function"
    },
    {
      "inputs": [],
      "name": "owner",
      "outputs": [
        {
          "internalType": "address",
          "name": "",
          "type": "address"
        }
      ],
      "stateMutability": "view",
      "type": "function"
    },
    {
      "inputs": [],
      "name": "paymentToken",
      "outputs": [
        {
          "internalType": "contract IERC20",
          "name": "",
          "type": "address"
        }
      ],
      "stateMutability": "view",
      "type": "function"
    },
    {
      "inputs": [
        {
          "internalType": "uint256",
          "name": "",
          "type": "uint256"
        }
      ],
      "name": "policies",
      "outputs": [
        {
          "internalType": "uint256",
          "name": "id",
          "type": "uint256"
        },
        {
          "internalType": "address",
          "name": "farmer",
          "type": "address"
        },
        {
          "internalType": "enum ParametricInsurance.InsuranceType",
          "name": "insuranceType",
          "type": "uint8"
        },
        {
          "internalType": "string",
          "name": "location",
          "type": "string"
        },
        {
          "internalType": "string",
          "name": "cropType",
          "type": "string"
        },
        {
          "internalType": "uint256",
          "name": "coverageAmount",
          "type": "uint256"
        },
        {
          "internalType": "uint256",
          "name": "premium",
          "type": "uint256"
        },
        {
          "internalType": "uint256",
          "name": "deductible",
          "type": "uint256"
        },
        {
          "internalType": "uint256",
          "name": "startTime",
          "type": "uint256"
        },
        {
          "internalType": "uint256",
          "name": "endTime",
          "type": "uint256"
        },
        {
          "internalType": "bool",
          "name": "active",
          "type": "bool"
        },
        {
          "internalType": "uint256",
          "name": "triggerThreshold",
          "type": "uint256"
        }
      ],
      "stateMutability": "view",
      "type": "function"
    },
    {
      "inputs": [
        {
          "internalType": "uint256",
          "name": "_claimId",
          "type": "uint256"
        },
        {
          "internalType": "bool",
          "name": "_approved",
          "type": "bool"
        }
      ],
      "name": "processClaim",
      "outputs": [],
      "stateMutability": "nonpayable",
      "type": "function"
    },
    {
      "inputs": [],
      "name": "proxiableUUID",
      "outputs": [
        {
          "internalType": "bytes32",
          "name": "",
          "type": "bytes32"
        }
      ],
      "stateMutability": "view",
      "type": "function"
    },
    {
      "inputs": [],
      "name": "renounceOwnership",
      "outputs": [],
      "stateMutability": "nonpayable",
      "type": "function"
    },
    {
      "inputs": [
        {
          "internalType": "enum ParametricInsurance.InsuranceType",
          "name": "_type",
          "type": "uint8"
        },
        {
          "internalType": "bool",
          "name": "_active",
          "type": "bool"
        }
      ],
      "name": "setPoolActive",
      "outputs": [],
      "stateMutability": "nonpayable",
      "type": "function"
    },
    {
      "inputs": [
        {
          "internalType": "uint256",
          "name": "_policyId",
          "type": "uint256"
        },
        {
          "internalType": "uint256",
          "name": "_claimAmount",
          "type": "uint256"
        },
        {
          "internalType": "string",
          "name": "_evidence",
          "type": "string"
        }
      ],
      "name": "submitClaim",
      "outputs": [
        {
          "internalType": "uint256",
          "name": "",
          "type": "uint256"
        }
      ],
      "stateMutability": "nonpayable",
      "type": "function"
    },
    {
      "inputs": [
        {
          "internalType": "address",
          "name": "newOwner",
          "type": "address"
        }
      ],
      "name": "transferOwnership",
      "outputs": [],
      "stateMutability": "nonpayable",
      "type": "function"
    },
    {
      "inputs": [
        {
          "internalType": "enum ParametricInsurance.InsuranceType",
          "name": "",
          "type": "uint8"
        }
      ],
      "name": "triggerThresholds",
      "outputs": [
        {
          "internalType": "uint256",
          "name": "",
          "type": "uint256"
        }
      ],
      "stateMutability": "view",
      "type": "function"
    },
    {
      "inputs": [
        {
          "internalType": "enum ParametricInsurance.InsuranceType",
          "name": "_type",
          "type": "uint8"
        },
        {
          "internalType": "uint256",
          "name": "_rate",
          "type": "uint256"
        }
      ],
      "name": "updatePremiumRate",
      "outputs": [],
      "stateMutability": "nonpayable",
      "type": "function"
    },
    {
      "inputs": [
        {
          "internalType": "enum ParametricInsurance.InsuranceType",
          "name": "_type",
          "type": "uint8"
        },
        {
          "internalType": "uint256",
          "name": "_threshold",
          "type": "uint256"
        }
      ],
      "name": "updateTriggerThreshold",
      "outputs": [],
      "stateMutability": "nonpayable",
      "type": "function"
    },
    {
      "inputs": [
        {
          "internalType": "address",
          "name": "newImplementation",
          "type": "address"
        },
        {
          "internalType": "bytes",
          "name": "data",
          "type": "bytes"
        }
      ],
      "name": "upgradeToAndCall",
      "outputs": [],
      "stateMutability": "payable",
      "type": "function"
    },
    {
      "inputs": [],
      "name": "weatherOracle",
      "outputs": [
        {
          "internalType": "contract IWeatherOracle",
          "name": "",
          "type": "address"
        }
      ],
      "stateMutability": "view",
      "type": "function"
    }
  ],
  "bytecode": "0x60a0806040523460385730608052600160065560016007556001600d556139fd908161003e823960805181818161127001526113280152f35b600080fdfe6080604052600436101561001257600080fd5b60003560e01c806306315b26146129eb57806306964de7146126975780630739988f1461242c5780630dfb75521461206557806311b8a4ed14611fea57806313d5ba1e14611db55780631988a68414611d2f57806319ac461414611bd55780631f8b1ce414611b975780632b07fce3146119905780633013ce291461196957806335446def1461158d5780634f1ef286146112ea57806352d1902d146112555780635312ea8e1461112a57806359ef8275146110d25780635aef244714610f65578063715018a614610ecc5780637a1419a114610dd95780637e1a811314610d9b5780637ee94ef114610d745780638305b8c414610d4d57806384caacfa14610d26578063896f811e14610cf35780638da5cb5b14610cad578063a0021cf114610c8f578063a888c2cd14610bcd578063ad3cb1cc14610b6a578063b412b08614610b4c578063b706fd9114610ad1578063bda605ba14610a51578063bddd4a47146108f5578063cad0b8db146108d7578063cd6b7eb71461082a578063d3e8948314610719578063ed93934b146106bd578063f2fde38b146106925763f8c8765e146101be57600080fd5b3461068d57608036600319011261068d576101d761300e565b6024356001600160a01b03811680910361068d576044356001600160a01b03811680910361068d57606435916001600160a01b03831680930361068d577ff0c57e16840df040f15088dc2f81fe391c3923bec73e23a9662efc9c229c6a005460ff8160401c16159467ffffffffffffffff821680159081610685575b600114908161067b575b159081610672575b506106485767ffffffffffffffff1982166001177ff0c57e16840df040f15088dc2f81fe391c3923bec73e23a9662efc9c229c6a00556001600160a01b039186610609575b506102b36138de565b6102bb6138de565b6102c43361340e565b6102cc6138de565b6102d46138de565b60017f9b779b17422d0df92223018b32b4d1fa46e071723d6817e2486d003becc55f00556103006138de565b60008054919092166001600160a01b031991821617825560018054821693909317909255600a8054831693909317909255600280549091169290921790915560c87f5eff886ea0ce6ca488a3d6e336d6c0f75f46d19b42c06ce5ee98e42c96d256c781905560967fad67d757c34507f157cacfa2e3153e9f260a2244f30428821be7be64587ac55f5561012c7f6add646517a5b0f6793cd5891b7937d28a5b2981a5d88ebc7cd776088fea90415560fa7f625b35f5e76f098dd7c3a05b10e2e5e78a4a01228d60c3b143426cdf36d264555560b47f9321edea6e3be4df59a344b401fab4f888b556fda1f954244cff9204bad624b8556009602052601e7fec8156718a8372b1db44bb411437d0870f3e3790d4a08526d024ce1b0b668f6b557f92e85d02570a8092d09a6e3a57665bc3815a2699a4074001bf1ccabf660f5a365560467f6cde3cea4b3a3fb2488b2808bae7556f4a405e50f65e1794383bc026131b13c355603c7fc575c31fea594a6eb97c8e9d3f9caee4c16218c6ef37e923234c0fe9014a61e7556004815260237f8dc18c4ccfd75f5c815b63770fa542fd953e8fef7e0e44bbdd4913470ce7e9cb555b6004811161058557806104c761058092612fee565b61057b6040516104d681612f4f565b6104df83612fee565b828152600560208201600081526040830160008152606084016000815260808501916000835260a08601936001855261051789612fee565b61052089612fee565b88600052856020526040600020965161053881612fee565b61054181612fee565b60ff8019895416911617875551600187015551600286015551600385015551600484015551151591019060ff801983541691151516179055565b613238565b6104b2565b5061058c57005b68ff0000000000000000197ff0c57e16840df040f15088dc2f81fe391c3923bec73e23a9662efc9c229c6a0054167ff0c57e16840df040f15088dc2f81fe391c3923bec73e23a9662efc9c229c6a00557fc7f505b2f371ae2175ee4913f4499e1f2633a7b5936321eed1cdaeb6115181d2602060405160018152a1005b68ffffffffffffffffff191668010000000000000001177ff0c57e16840df040f15088dc2f81fe391c3923bec73e23a9662efc9c229c6a0055386102aa565b7ff92ee8a90000000000000000000000000000000000000000000000000000000060005260046000fd5b90501538610265565b303b15915061025d565b879150610253565b600080fd5b3461068d57602036600319011261068d576106bb6106ae61300e565b6106b66137bc565b61340e565b005b3461068d57604036600319011261068d57600435600581101561068d576106bb906106e661306c565b906106ef6137bc565b6106f881612fee565b600052600560205260056040600020019060ff801983541691151516179055565b3461068d57602036600319011261068d576004356000526003602052604060002080546001820154918260a01c60ff16604051918280600283019061075d916130d4565b036107689084612f6b565b604051928361077a81600385016130d4565b036107859085612f6b565b6004820154936005830154600684015490600785015492600886015494600987015460ff1696600a0154976040519b8c9b8c526001600160a01b031660208c01526107cf81612fee565b60408b015260608a0161018090526101808a016107eb91613047565b89810360808b01526107fc91613047565b9660a089015260c088015260e087015261010086015261012085015215156101408401526101608301520390f35b3461068d57602036600319011261068d576000608060405161084b81612f33565b8281528260208201528260408201528260608201520152600435600052600b60205260a0604060002060405161088081612f33565b81549182825260018101546020830190815260028201549060408401918252608060046003850154946060870195865201549401938452604051948552516020850152516040840152516060830152516080820152f35b3461068d57600036600319011261068d576020600654604051908152f35b3461068d57604036600319011261068d5760043560243567ffffffffffffffff811161068d57610929903690600401612fa9565b81600052600c602052604060002090600582019182549161094c60ff841661326a565b6001600160a01b036002830154163303610a0d5761097060048301544211156132b5565b51156109c9577ffcb94267a66a8e20f641c8d0af7d6a33001fd21fe833246a3798cdee1f3a1fd79260209260ff191690556109bf60036001600160a01b03600a5416920191825490339061381d565b54604051908152a2005b606460405162461bcd60e51b815260206004820152600d60248201527f496e76616c69642070726f6f66000000000000000000000000000000000000006044820152fd5b606460405162461bcd60e51b815260206004820152601360248201527f4e6f74207468652062656e6566696369617279000000000000000000000000006044820152fd5b3461068d57610a5f3661307b565b90610a686137bc565b6103e88211610a8d57610a7a81612fee565b6000526008602052604060002055600080f35b606460405162461bcd60e51b815260206004820152600d60248201527f5261746520746f6f2068696768000000000000000000000000000000000000006044820152fd5b3461068d57602036600319011261068d57600435600052600c60205260e060406000208054906001810154906001600160a01b036002820154166003820154600483015491600660ff600586015416940154946040519687526020870152604086015260608501526080840152151560a083015260c0820152f35b3461068d57600036600319011261068d576020600d54604051908152f35b3461068d57600036600319011261068d57610bc96040805190610b8d8183612f6b565b600582527f352e302e30000000000000000000000000000000000000000000000000000000602083015251918291602083526020830190613047565b0390f35b3461068d57602036600319011261068d57600435600052600460205260406000208054600182015491610c846001600160a01b0360028301541691600381015460ff600483015416600583015490600684015492600860405195610c3f87610c3881600785016130d4565b0388612f6b565b015496604051998a998a5260208a015260408901526060880152610c6281612fee565b608087015260a086015260c085015261012060e0850152610120840190613047565b906101008301520390f35b3461068d57600036600319011261068d576020600754604051908152f35b3461068d57600036600319011261068d5760206001600160a01b037f9016d09d72d40fdae2fd8ceac6b6234c7706214fd39c1cd1e609a0528c1993005416604051908152f35b3461068d57610d013661307b565b90610d0a6137bc565b610d1381612fee565b6000526009602052604060002055600080f35b3461068d57600036600319011261068d5760206001600160a01b0360015416604051908152f35b3461068d57600036600319011261068d5760206001600160a01b0360025416604051908152f35b3461068d57600036600319011261068d5760206001600160a01b0360005416604051908152f35b3461068d57602036600319011261068d57600435600581101561068d57610dc181612fee565b60005260096020526020604060002054604051908152f35b3461068d57602036600319011261068d57600435600581101561068d57600060a0604051610e0681612f4f565b8281528260208201528260408201528260608201528260808201520152610e2c81612fee565b600052600560205260c06040600020604051610e4781612f4f565b60ff82541691610e5683612fee565b8282526001810154602083019081526002820154604084019081526003830154916060850192835260a060ff6005600487015496608089019788520154169501941515855260405195610ea881612fee565b865251602086015251604085015251606084015251608083015251151560a0820152f35b3461068d57600036600319011261068d57610ee56137bc565b60006001600160a01b037f9016d09d72d40fdae2fd8ceac6b6234c7706214fd39c1cd1e609a0528c199300546001600160a01b031981167f9016d09d72d40fdae2fd8ceac6b6234c7706214fd39c1cd1e609a0528c19930055167f8be0079c531659141344cd1fd0a4f28419497f9722a3daafe3b4186f6b6457e08280a3005b3461068d57602036600319011261068d576000610100604051610f8781612f16565b8281528260208201528260408201528260608201528260808201528260a08201528260c0820152606060e0820152015260043560005260046020526040600020604051610fd381612f16565b81548152600182015491602082019283526110c66001600160a01b03600283015416916040840192835260038101546060850190815260ff600483015416608086019061101f81612fee565b815260058301549060a0870191825260068401549260c088019384526001600160a01b036008604051966110618861105a81600785016130d4565b0389612f6b565b60e08b019788520154976101008a019889526040519a8b9a60208c525160208c01525160408b015251166060890152516080880152516110a081612fee565b60a08701525160c08601525160e085015251610120610100850152610140840190613047565b90516101208301520390f35b3461068d57602036600319011261068d57600435600052600b60205260a06040600020805490600181015490600281015460046003830154920154926040519485526020850152604084015260608301526080820152f35b3461068d57602036600319011261068d576004356111466137bc565b6001600160a01b03600a5416906040517f70a08231000000000000000000000000000000000000000000000000000000008152306004820152602081602481865afa90811561124957600091611217575b5081116111d3576106bb916001600160a01b037f9016d09d72d40fdae2fd8ceac6b6234c7706214fd39c1cd1e609a0528c19930054169061381d565b606460405162461bcd60e51b815260206004820152601460248201527f496e73756666696369656e742062616c616e63650000000000000000000000006044820152fd5b90506020813d602011611241575b8161123260209383612f6b565b8101031261068d575183611197565b3d9150611225565b6040513d6000823e3d90fd5b3461068d57600036600319011261068d576001600160a01b037f00000000000000000000000000000000000000000000000000000000000000001630036112c05760206040517f360894a13ba1a3210667c828492db98dca3e2076cc3735a920a3ca505d382bbc8152f35b7fe07c8dba0000000000000000000000000000000000000000000000000000000060005260046000fd5b604036600319011261068d576112fe61300e565b60243567ffffffffffffffff811161068d5761131e903690600401612fa9565b6001600160a01b037f000000000000000000000000000000000000000000000000000000000000000016803014908115611558575b506112c0576113606137bc565b6001600160a01b038216916040517f52d1902d000000000000000000000000000000000000000000000000000000008152602081600481875afa60009181611524575b506113bd5783634c9c8ce360e01b60005260045260246000fd5b807f360894a13ba1a3210667c828492db98dca3e2076cc3735a920a3ca505d382bbc8592036114f75750813b156114e357806001600160a01b03197f360894a13ba1a3210667c828492db98dca3e2076cc3735a920a3ca505d382bbc5416177f360894a13ba1a3210667c828492db98dca3e2076cc3735a920a3ca505d382bbc557fbc7cd75a20ee27fd9adebab32041f755214dbc6bffa90cc0225b39da2e5c2d3b600080a28151156114b0576000808360206106bb95519101845af43d156114a8573d9161148b83612f8d565b926114996040519485612f6b565b83523d6000602085013e613937565b606091613937565b5050346114b957005b7fb398979f0000000000000000000000000000000000000000000000000000000060005260046000fd5b634c9c8ce360e01b60005260045260246000fd5b7faa1d49a40000000000000000000000000000000000000000000000000000000060005260045260246000fd5b9091506020813d602011611550575b8161154060209383612f6b565b8101031261068d575190856113a3565b3d9150611533565b90506001600160a01b037f360894a13ba1a3210667c828492db98dca3e2076cc3735a920a3ca505d382bbc5416141583611353565b3461068d57604036600319011261068d576004356115a961306c565b6115b16137bc565b8160005260046020526040600020906004820191600160ff8454166115d581612fee565b036119255760018101546000526003602052604060002091600183019060ff825460a01c1661160381612fee565b600052600560205261162a6040600020954260068601558260001461191d57600290613300565b8061190b575b156118d4575460a01c60ff1661164581612fee565b801580156118c1575b1561176857506001600160a01b036000541660806040518092630557b78560e41b825260206004830152818061168a6024820160028a016130d4565b03915afa928315611249577f131884885e3b15c22fcaa4e2b49df807c03ab9e54bc149f6447e3c9166ce881494604094600993600091611735575b5060088501555b6116f66001600160a01b03600a541660036001600160a01b0360028801541696019586549161381d565b83546117076003830191825461325d565b905561171a600485549201918254613401565b90550160ff19815416905554815190600282526020820152a2005b611757915060803d608011611761575b61174f8183612f6b565b8101906133df565b50509050886116c5565b503d611745565b60049061177481612fee565b03611817576001600160a01b036000541660806040518092630557b78560e41b82526020600483015281806117af6024820160028a016130d4565b03915afa928315611249577f131884885e3b15c22fcaa4e2b49df807c03ab9e54bc149f6447e3c9166ce8814946040946009936000916117f5575b5060088501556116cc565b61180e915060803d6080116117615761174f8183612f6b565b505050886117ea565b6001600160a01b036001541660606040518092636d3b249760e11b8252818061184a6003890160028a01600484016133b7565b03915afa928315611249577f131884885e3b15c22fcaa4e2b49df807c03ab9e54bc149f6447e3c9166ce88149460409460099360009161188f575060088501556116cc565b6118b1915060603d6060116118ba575b6118a98183612f6b565b810190613318565b509050886117ea565b503d61189f565b506118cb81612fee565b6001811461164e565b505050507f131884885e3b15c22fcaa4e2b49df807c03ab9e54bc149f6447e3c9166ce8814604080516003815260006020820152a2005b50600484015460038301541115611630565b600390613300565b606460405162461bcd60e51b815260206004820152601360248201527f436c61696d206e6f74207375626d6974746564000000000000000000000000006044820152fd5b3461068d57600036600319011261068d5760206001600160a01b03600a5416604051908152f35b3461068d57602036600319011261068d576040516119ad81612ef9565b60008152602081016000905260408101600090526060810160609052608081016060905260a081016000905260c081016000905260e0810160009052610100810160009052610120810160009052610140810160009052610160016000905260043560005260036020526040600020604051611a2881612ef9565b8154815260018201549160208201926001600160a01b038116845260a01c60ff166040830190611a5781612fee565b81526040519182611a6b81600284016130d4565b03611a769084612f6b565b606084019283526040519283611a8f81600385016130d4565b03611a9a9085612f6b565b6080850193845260048201549360a08601948552600583015460c0870190815260068401549060e0880191825260078501549261010089019384526008860154946101208a01958652600987015460ff16966101408b019715158852600a0154976101608b019889526040519b8c9b60208d525160208d0152516001600160a01b031660408c015251611b2c81612fee565b60608b01525160808a0161018090526101a08a01611b4991613047565b9051898203601f190160a08b0152611b619190613047565b965160c08901525160e0880152516101008701525161012086015251610140850152511515610160840152516101808301520390f35b3461068d57602036600319011261068d57600435600581101561068d57611bbd81612fee565b60005260086020526020604060002054604051908152f35b3461068d57602036600319011261068d57611bee61300e565b6006546000916001600160a01b031660015b828110611cf15750611c2a611c148461339f565b93611c226040519586612f6b565b80855261339f565b602084019290601f190136843760009160015b828110611c895784866040519182916020830190602084525180915260408301919060005b818110611c70575050500390f35b8251845285945060209384019390920191600101611c62565b806000526003602052816001600160a01b036001604060002001541614611cb3575b600101611c3d565b928551811015611cdb57611cd38185602060019460051b8a010152613238565b939050611cab565b634e487b7160e01b600052603260045260246000fd5b806000526003602052816001600160a01b036001604060002001541614611d1b575b600101611c00565b92611d27600191613238565b939050611d13565b3461068d57602036600319011261068d57600435600581101561068d57611d5581612fee565b600052600560205260c0604060002060ff81541690600181015490600281015460038201549060ff60056004850154940154169360405195611d9681612fee565b86526020860152604085015260608401526080830152151560a0820152f35b60c036600319011261068d57602435600435600582101561068d5760443567ffffffffffffffff811161068d57611df0903690600401612fa9565b9060643567ffffffffffffffff811161068d57611e11903690600401612fa9565b92611e696084359460a43594611e28871515613157565b85151580611fdc575b611e3a906131a2565b611e4384612fee565b8360005260056020528587604060002095611e6460ff6005890154166131ed565b613346565b93611e83856001600160a01b03600a541630903390613546565b611e9c600d5494611e9386613238565b600d554261325d565b926040519160e083019683881067ffffffffffffffff891117611fc657611fb260047f18a48f7ac4a1c05151a6b68127c85be89ea09754a6bcb803a96cece23f0339769660409660068b611f83819c60209f8c528a85528f8501908382528c86013381526001600160a01b0360608801918d83526080890193845260a08901946001865260c08a0197600089526000526020600c9052604060002099518a555160018a015551166001600160a01b036002890191166001600160a01b03198254161790555160038701555187860155511515600585019060ff801983541691151516179055565b5191015560018101611f9685825461325d565b905560028101611fa786825461325d565b90550191825461325d565b9055825191825286820152a2604051908152f35b634e487b7160e01b600052604160045260246000fd5b506301e13380861115611e31565b3461068d5760a036600319011261068d57600435600581101561068d5760643567ffffffffffffffff811161068d57612027903690600401612fa9565b906084359067ffffffffffffffff821161068d5760209261204f61205d933690600401612fa9565b916044359060243590613346565b604051908152f35b3461068d57600036600319011261068d5760015b6006548110156106bb578060005260036020526040600020906009820160ff8154168061241e575b6120b1575b506001915001612079565b6001830180549160a083901c60ff166000806120cc83612fee565b8261223f5750506001600160a01b03600054169560806040518098630557b78560e41b825260206004830152818061210a60248201600288016130d4565b03915afa9182156112495760019760009361221c575b5082600a830154115b612138575b50505050506120a6565b60048201549061214781612fee565b600052600560205260046040600020015490818082109118021892600682015493848111612176575b5061212e565b7f7b6da0477b8b69ee73a65b0b64c604d4548887491ae4d31a7956456e02f6bca0956121c06121a960409760ff94613401565b80996001600160a01b0380600a541691169061381d565b5460a01c166121ce81612fee565b6000526005602052600484600020600381016121eb89825461325d565b9055016121f9878254613401565b905560ff198154169055549382519182526020820152a282808080808080612170565b61223591935060803d81116117615761174f8183612f6b565b5050509188612120565b61224883612fee565b600183036122d05750506001600160a01b03600054169560806040518098630557b78560e41b825260206004830152818061228960248201600288016130d4565b03915afa918215611249576001976000936122ac575b5082600a83015410612129565b6122c591935060803d81116117615761174f8183612f6b565b50509050918861229f565b6122d983612fee565b6004830361235f5750506001600160a01b03600054169560806040518098630557b78560e41b825260206004830152818061231a60248201600288016130d4565b03915afa9182156112495760019760009361233c575082600a83015410612129565b61235591935060803d81116117615761174f8183612f6b565b505050918861229f565b9096909161236c81612fee565b60028114801561240b575b612384575b600197612129565b91506001600160a01b03600154169160606040518094636d3b249760e11b825281806123ba6003880160028901600484016133b7565b03915afa92831561240057600198936123dd575b5082600a83015411975061237c565b6123f691935060603d81116118ba576118a98183612f6b565b50905091886123ce565b6040513d8a823e3d90fd5b5061241581612fee565b60038114612377565b5060088301544211156120a1565b3461068d57608036600319011261068d5760043560243567ffffffffffffffff811161068d57612460903690600401612fa9565b9060443567ffffffffffffffff811161068d57612481903690600401612fa9565b91606435600581101561068d5761258993612577606093612533600760206001600160a01b03600254169560405197816124c48a93518092868087019101613024565b8201907f5f00000000000000000000000000000000000000000000000000000000000000848301526124f581612fee565b60f81b60218201527f5f7269736b00000000000000000000000000000000000000000000000000000060228201520301601819810187520185612f6b565b604051968794859384937f52ee0b77000000000000000000000000000000000000000000000000000000008552600560048601528860248601526064850190613047565b83810360031901604485015290613047565b03915afa91821561124957600092612674575b50610bc96103e88306916064633b9aca00620f42406103e8870406950406906040516125c781612f33565b818152600460208201868152604083018881526060840190868252608085019242845286600052600b602052604060002095518655516001860155516002850155516003840155519101557ffff38d825c11f4ff51b1db4b9f188ceb3993374e4a77fe1b47a7cc2109c992c160405180612654858989846040919493926060820195825260208201520152565b0390a2604051938493846040919493926060820195825260208201520152565b61268e91925060603d6060116118ba576118a98183612f6b565b5050908261259c565b3461068d57606036600319011261068d5760243560043560443567ffffffffffffffff811161068d576126ce903690600401612fa9565b916126d76134cd565b81600052600360205260406000206001600160a01b0360018201541633036129a7578061270c60ff600960049401541661326a565b61271c60088201544211156132b5565b01548111612963576007549161273183613238565b60075560405161274081612f16565b8381526020810182815260408201338152606083018581526127dd608085016001815260a08601924284526001600160a01b0360c08801956000875260e089019c8d52610100890197600089528c6000526004602052604060002099518a555160018a015551166001600160a01b036002890191166001600160a01b0319825416179055516003870155516127d481612fee565b60048601613300565b51600584015551600683015560078201955195865167ffffffffffffffff8111611fc65761280b825461309a565b97601f891161291b575b602098508890601f83116001146128b157600894939291600091836128a6575b50508160011b916000199060031b1c19161790555b51910155604051918252827f3a30d1c4069e097873e77443df9683e8de5c7ba3674315b8670a0211e3130195853394a460017f9b779b17422d0df92223018b32b4d1fa46e071723d6817e2486d003becc55f0055604051908152f35b015190508a80612835565b90601f1983169184600052816000209260005b8181106129045750916001939185600898979694106128eb575b505050811b01905561284a565b015160001960f88460031b161c191690558a80806128de565b92938c6001819287860151815501950193016128c4565b826000526020600020601f830160051c81019960208410612959575b601f0160051c01985b89811061294d5750612815565b60008155600101612940565b9099508990612937565b606460405162461bcd60e51b815260206004820152601660248201527f436c61696d206578636565647320636f766572616765000000000000000000006044820152fd5b606460405162461bcd60e51b815260206004820152601060248201527f4e6f7420706f6c696379206f776e6572000000000000000000000000000000006044820152fd5b3461068d5760a036600319011261068d57600435600581101561068d5760243567ffffffffffffffff811161068d57612a28903690600401612fa9565b60443567ffffffffffffffff811161068d57612a48903690600401612fa9565b9160643560843592612a586134cd565b612a63821515613157565b83151580612eeb575b612a75906131a2565b612a7e83612fee565b8260005260056020526040600020612a9c60ff6005830154166131ed565b612aa98683878688613346565b91612ac3836001600160a01b03600a541630903390613546565b612adc60065496612ad388613238565b6006554261325d565b612ae586612fee565b856000526009602052866040600020549160405193612b0385612ef9565b828552602085013381526040860191612b1b8b612fee565b8a835260608701908152608087019c8d5260a087018a815260c08801918a835260e0890193600a8d0485526101008a01954287526101208b019788526101408b019860018a526101608c019a8b52600052600360205260406000209a518b556001600160a01b038060018d01935116166001600160a01b031983541617825551612ba481612fee565b612bad81612fee565b7fffffffffffffffffffffff00ffffffffffffffffffffffffffffffffffffffff74ff000000000000000000000000000000000000000083549260a01b16911617905560028901905180519067ffffffffffffffff8211611fc6578190612c14845461309a565b601f8111612e98575b50602090601f8311600114612e3357600092612e28575b50508160011b916000199060031b1c19161790555b600388019d519d8e5167ffffffffffffffff8111611fc657612c6b825461309a565b601f8111612de0575b5060209f602090601f8311600114612d635793612cf09c9a979383611f83989460049e9c9894600a9c98600092612d58575b50508160011b916000199060031b1c19161790555b518b8a0155516005890155516006880155516007870155516008860155511515600985019060ff801983541691151516179055565b905560405191612cff81612fee565b825283820152817f78e2ee02e1dd0cf71b75c6d5463946e0d324ca4b79fbd0b7e59ceffcf24654c160403393a360017f9b779b17422d0df92223018b32b4d1fa46e071723d6817e2486d003becc55f0055604051908152f35b015190503880612ca6565b90601f1983169184600052816000209260005b818110612dc8575084612cf09f9d9a96929460049f9d999594600a9d9995611f839c9860019510612daf575b505050811b019055612cbb565b015160001960f88460031b161c19169055388080612da2565b92936020600181928786015181550195019301612d76565b826000526020600020601f830160051c81019160208410612e1e575b601f0160051c01905b818110612e125750612c74565b60008155600101612e05565b9091508190612dfc565b015190503880612c34565b60008581528281209350601f198516905b818110612e805750908460019594939210612e67575b505050811b019055612c49565b015160001960f88460031b161c19169055388080612e5a565b92936020600181928786015181550195019301612e44565b909150836000526020600020601f840160051c81019160208510612ee1575b90601f859493920160051c01905b818110612ed25750612c1d565b60008155849350600101612ec5565b9091508190612eb7565b506301e13380841115612a6c565b610180810190811067ffffffffffffffff821117611fc657604052565b610120810190811067ffffffffffffffff821117611fc657604052565b60a0810190811067ffffffffffffffff821117611fc657604052565b60c0810190811067ffffffffffffffff821117611fc657604052565b90601f8019910116810190811067ffffffffffffffff821117611fc657604052565b67ffffffffffffffff8111611fc657601f01601f191660200190565b81601f8201121561068d57602081359101612fc382612f8d565b92612fd16040519485612f6b565b8284528282011161068d5781600092602092838601378301015290565b60051115612ff857565b634e487b7160e01b600052602160045260246000fd5b600435906001600160a01b038216820361068d57565b60005b8381106130375750506000910152565b8181015183820152602001613027565b9060209161306081518092818552858086019101613024565b601f01601f1916010190565b60243590811515820361068d57565b604090600319011261068d57600435600581101561068d579060243590565b90600182811c921680156130ca575b60208310146130b457565b634e487b7160e01b600052602260045260246000fd5b91607f16916130a9565b600092918154916130e48361309a565b808352926001811690811561313a575060011461310057505050565b60009081526020812093945091925b838310613120575060209250010190565b60018160209294939454838587010152019101919061310f565b915050602093945060ff929192191683830152151560051b010190565b1561315e57565b606460405162461bcd60e51b815260206004820152601b60248201527f436f76657261676520616d6f756e74206d757374206265203e203000000000006044820152fd5b156131a957565b606460405162461bcd60e51b815260206004820152601060248201527f496e76616c6964206475726174696f6e000000000000000000000000000000006044820152fd5b156131f457565b606460405162461bcd60e51b815260206004820152601c60248201527f496e737572616e63652074797065206e6f7420617661696c61626c65000000006044820152fd5b60001981146132475760010190565b634e487b7160e01b600052601160045260246000fd5b9190820180921161324757565b1561327157565b606460405162461bcd60e51b815260206004820152601160248201527f506f6c696379206e6f74206163746976650000000000000000000000000000006044820152fd5b156132bc57565b606460405162461bcd60e51b815260206004820152600e60248201527f506f6c69637920657870697265640000000000000000000000000000000000006044820152fd5b9061330a81612fee565b60ff80198354169116179055565b9081606091031261068d578051916040602083015192015190565b8181029291811591840414171561324757565b9361339561338f64496cebb80061338861339b9796613383613383976127109b61336f81612fee565b600052600860205260406000205490613333565b613333565b04946135a7565b916136ba565b92613333565b0490565b67ffffffffffffffff8111611fc65760051b60200190565b90916133ce6133dc936040845260408401906130d4565b9160208184039101526130d4565b90565b919082608091031261068d578151916020810151916060604083015192015190565b9190820391821161324757565b6001600160a01b0316801561349e576001600160a01b037f9016d09d72d40fdae2fd8ceac6b6234c7706214fd39c1cd1e609a0528c19930054826001600160a01b03198216177f9016d09d72d40fdae2fd8ceac6b6234c7706214fd39c1cd1e609a0528c19930055167f8be0079c531659141344cd1fd0a4f28419497f9722a3daafe3b4186f6b6457e0600080a3565b7f1e4fbdf700000000000000000000000000000000000000000000000000000000600052600060045260246000fd5b60027f9b779b17422d0df92223018b32b4d1fa46e071723d6817e2486d003becc55f00541461351c5760027f9b779b17422d0df92223018b32b4d1fa46e071723d6817e2486d003becc55f0055565b7f3ee5aeb50000000000000000000000000000000000000000000000000000000060005260046000fd5b9091926001600160a01b036135a59481604051957f23b872dd0000000000000000000000000000000000000000000000000000000060208801521660248601521660448401526064830152606482526135a0608483612f6b565b61386d565b565b6040516135d5602082816135c48183019687815193849201613024565b81010301601f198101835282612f6b565b51902060405160208101907f64726f756768742d70726f6e65000000000000000000000000000000000000008252600d8152613612602d82612f6b565b51902081146136b35760405160208101907f666c6f6f642d70726f6e650000000000000000000000000000000000000000008252600b8152613655602b82612f6b565b51902081146136ac5760405160208101907f706573742d70726f6e65000000000000000000000000000000000000000000008252600a8152613698602a82612f6b565b519020146136a65761271090565b613e8090565b506136b090565b50613a9890565b6040516136d7602082816135c48183019687815193849201613024565b51902060405160208101907f6d61697a65000000000000000000000000000000000000000000000000000000825260058152613714602582612f6b565b51902081146137b55760405160208101907f7269636500000000000000000000000000000000000000000000000000000000825260048152613757602482612f6b565b51902081146137ae5760405160208101907f636f66666565000000000000000000000000000000000000000000000000000082526006815261379a602682612f6b565b519020146137a85761271090565b613a9890565b506132c890565b50612ee090565b6001600160a01b037f9016d09d72d40fdae2fd8ceac6b6234c7706214fd39c1cd1e609a0528c199300541633036137ef57565b7f118cdaa7000000000000000000000000000000000000000000000000000000006000523360045260246000fd5b6135a5926001600160a01b03604051937fa9059cbb0000000000000000000000000000000000000000000000000000000060208601521660248401526044830152604482526135a0606483612f6b565b906000602091828151910182855af115611249576000513d6138d557506001600160a01b0381163b155b61389e5750565b6001600160a01b03907f5274afe7000000000000000000000000000000000000000000000000000000006000521660045260246000fd5b60011415613897565b60ff7ff0c57e16840df040f15088dc2f81fe391c3923bec73e23a9662efc9c229c6a005460401c161561390d57565b7fd7e6bcf80000000000000000000000000000000000000000000000000000000060005260046000fd5b90613976575080511561394c57602081519101fd5b7fd6bda2750000000000000000000000000000000000000000000000000000000060005260046000fd5b815115806139be575b613987575090565b6001600160a01b03907f9996b315000000000000000000000000000000000000000000000000000000006000521660045260246000fd5b50803b1561397f56fea2646970667358221220e68b564ad86115e19555b7464f405b794cb23d43150755ff502f41abb906c0ef64736f6c634300081c0033",
  "linkReferences": {},
  "deployedLinkReferences": {}
}