{
  "_format": "hh-sol-artifact-1",
  "contractName": "PredictionMarket",
  "sourceName": "contracts/PredictionMarket.sol",
  "abi": [
    {
      "inputs": [
        {
          "internalType": "address",
          "name": "target",
          "type": "address"
        }
      ],
      "name": "AddressEmptyCode",
      "type": "error"
    },
    {
      "inputs": [
        {
          "internalType": "address",
          "name": "implementation",
          "type": "address"
        }
      ],
      "name": "ERC1967InvalidImplementation",
      "type": "error"
    },
    {
      "inputs": [],
      "name": "ERC1967NonPayable",
      "type": "error"
    },
    {
      "inputs": [],
      "name": "FailedCall",
      "type": "error"
    },
    {
      "inputs": [],
      "name": "InvalidInitialization",
      "type": "error"
    },
    {
      "inputs": [],
      "name": "NotInitializing",
      "type": "error"
    },
    {
      "inputs": [
        {
          "internalType": "address",
          "name": "owner",
          "type": "address"
        }
      ],
      "name": "OwnableInvalidOwner",
      "type": "error"
    },
    {
      "inputs": [
        {
          "internalType": "address",
          "name": "account",
          "type": "address"
        }
      ],
      "name": "OwnableUnauthorizedAccount",
      "type": "error"
    },
    {
      "inputs": [],
      "name": "ReentrancyGuardReentrantCall",
      "type": "error"
    },
    {
      "inputs": [
        {
          "internalType": "address",
          "name": "token",
          "type": "address"
        }
      ],
      "name": "SafeERC20FailedOperation",
      "type": "error"
    },
    {
      "inputs": [],
      "name": "UUPSUnauthorizedCallContext",
      "type": "error"
    },
    {
      "inputs": [
        {
          "internalType": "bytes32",
          "name": "slot",
          "type": "bytes32"
        }
      ],
      "name": "UUPSUnsupportedProxiableUUID",
      "type": "error"
    },
    {
      "anonymous": false,
      "inputs": [
        {
          "indexed": true,
          "internalType": "address",
          "name": "recipient",
          "type": "address"
        },
        {
          "indexed": false,
          "internalType": "uint256",
          "name": "amount",
          "type": "uint256"
        }
      ],
      "name": "FeesCollected",
      "type": "event"
    },
    {
      "anonymous": false,
      "inputs": [
        {
          "indexed": false,
          "internalType": "uint64",
          "name": "version",
          "type": "uint64"
        }
      ],
      "name": "Initialized",
      "type": "event"
    },
    {
      "anonymous": false,
      "inputs": [
        {
          "indexed": true,
          "internalType": "uint256",
          "name": "marketId",
          "type": "uint256"
        },
        {
          "indexed": true,
          "internalType": "address",
          "name": "provider",
          "type": "address"
        },
        {
          "indexed": false,
          "internalType": "uint256",
          "name": "amount",
          "type": "uint256"
        }
      ],
      "name": "LiquidityAdded",
      "type": "event"
    },
    {
      "anonymous": false,
      "inputs": [
        {
          "indexed": true,
          "internalType": "uint256",
          "name": "marketId",
          "type": "uint256"
        },
        {
          "indexed": true,
          "internalType": "address",
          "name": "provider",
          "type": "address"
        },
        {
          "indexed": false,
          "internalType": "uint256",
          "name": "amount",
          "type": "uint256"
        }
      ],
      "name": "LiquidityRemoved",
      "type": "event"
    },
    {
      "anonymous": false,
      "inputs": [
        {
          "indexed": true,
          "internalType": "uint256",
          "name": "marketId",
          "type": "uint256"
        },
        {
          "indexed": true,
          "internalType": "address",
          "name": "creator",
          "type": "address"
        },
        {
          "indexed": false,
          "internalType": "string",
          "name": "question",
          "type": "string"
        },
        {
          "indexed": false,
          "internalType": "uint256",
          "name": "endTime",
          "type": "uint256"
        }
      ],
      "name": "MarketCreated",
      "type": "event"
    },
    {
      "anonymous": false,
      "inputs": [
        {
          "indexed": true,
          "internalType": "uint256",
          "name": "marketId",
          "type": "uint256"
        },
        {
          "indexed": false,
          "internalType": "uint256",
          "name": "winningOutcome",
          "type": "uint256"
        }
      ],
      "name": "MarketResolved",
      "type": "event"
    },
    {
      "anonymous": false,
      "inputs": [
        {
          "indexed": true,
          "internalType": "address",
          "name": "previousOwner",
          "type": "address"
        },
        {
          "indexed": true,
          "internalType": "address",
          "name": "newOwner",
          "type": "address"
        }
      ],
      "name": "OwnershipTransferred",
      "type": "event"
    },
    {
      "anonymous": false,
      "inputs": [
        {
          "indexed": true,
          "internalType": "address",
          "name": "user",
          "type": "address"
        },
        {
          "indexed": true,
          "internalType": "uint256",
          "name": "marketId",
          "type": "uint256"
        },
        {
          "indexed": false,
          "internalType": "uint256",
          "name": "outcomeIndex",
          "type": "uint256"
        },
        {
          "indexed": false,
          "internalType": "uint256",
          "name": "shares",
          "type": "uint256"
        },
        {
          "indexed": false,
          "internalType": "uint256",
          "name": "payout",
          "type": "uint256"
        }
      ],
      "name": "PositionClosed",
      "type": "event"
    },
    {
      "anonymous": false,
      "inputs": [
        {
          "indexed": true,
          "internalType": "address",
          "name": "user",
          "type": "address"
        },
        {
          "indexed": true,
          "internalType": "uint256",
          "name": "marketId",
          "type": "uint256"
        },
        {
          "indexed": false,
          "internalType": "uint256",
          "name": "outcomeIndex",
          "type": "uint256"
        },
        {
          "indexed": false,
          "internalType": "uint256",
          "name": "shares",
          "type": "uint256"
        },
        {
          "indexed": false,
          "internalType": "uint256",
          "name": "cost",
          "type": "uint256"
        }
      ],
      "name": "PositionOpened",
      "type": "event"
    },
    {
      "anonymous": false,
      "inputs": [
        {
          "indexed": true,
          "internalType": "address",
          "name": "implementation",
          "type": "address"
        }
      ],
      "name": "Upgraded",
      "type": "event"
    },
    {
      "inputs": [],
      "name": "UPGRADE_INTERFACE_VERSION",
      "outputs": [
        {
          "internalType": "string",
          "name": "",
          "type": "string"
        }
      ],
      "stateMutability": "view",
      "type": "function"
    },
    {
      "inputs": [
        {
          "internalType": "uint256",
          "name": "_marketId",
          "type": "uint256"
        },
        {
          "internalType": "uint256",
          "name": "_amount",
          "type": "uint256"
        }
      ],
      "name": "addLiquidity",
      "outputs": [],
      "stateMutability": "nonpayable",
      "type": "function"
    },
    {
      "inputs": [
        {
          "internalType": "uint256",
          "name": "_marketId",
          "type": "uint256"
        },
        {
          "internalType": "uint256",
          "name": "_outcomeIndex",
          "type": "uint256"
        },
        {
          "internalType": "uint256",
          "name": "_maxCost",
          "type": "uint256"
        }
      ],
      "name": "buyShares",
      "outputs": [
        {
          "internalType": "uint256",
          "name": "shares",
          "type": "uint256"
        },
        {
          "internalType": "uint256",
          "name": "totalCost",
          "type": "uint256"
        }
      ],
      "stateMutability": "nonpayable",
      "type": "function"
    },
    {
      "inputs": [
        {
          "internalType": "uint256",
          "name": "_marketId",
          "type": "uint256"
        }
      ],
      "name": "cancelMarket",
      "outputs": [],
      "stateMutability": "nonpayable",
      "type": "function"
    },
    {
      "inputs": [
        {
          "internalType": "uint256",
          "name": "_marketId",
          "type": "uint256"
        }
      ],
      "name": "claimWinnings",
      "outputs": [],
      "stateMutability": "nonpayable",
      "type": "function"
    },
    {
      "inputs": [],
      "name": "collectFees",
      "outputs": [],
      "stateMutability": "nonpayable",
      "type": "function"
    },
    {
      "inputs": [],
      "name": "collectedFees",
      "outputs": [
        {
          "internalType": "uint256",
          "name": "",
          "type": "uint256"
        }
      ],
      "stateMutability": "view",
      "type": "function"
    },
    {
      "inputs": [
        {
          "internalType": "string",
          "name": "_question",
          "type": "string"
        },
        {
          "internalType": "string",
          "name": "_description",
          "type": "string"
        },
        {
          "internalType": "string[]",
          "name": "_outcomes",
          "type": "string[]"
        },
        {
          "internalType": "uint256",
          "name": "_endTime",
          "type": "uint256"
        },
        {
          "internalType": "uint256",
          "name": "_resolutionTime",
          "type": "uint256"
        },
        {
          "internalType": "address",
          "name": "_collateralToken",
          "type": "address"
        },
        {
          "internalType": "bytes32",
          "name": "_oracleDataKey",
          "type": "bytes32"
        }
      ],
      "name": "createMarket",
      "outputs": [
        {
          "internalType": "uint256",
          "name": "",
          "type": "uint256"
        }
      ],
      "stateMutability": "payable",
      "type": "function"
    },
    {
      "inputs": [],
      "name": "emergencyPause",
      "outputs": [
        {
          "internalType": "bool",
          "name": "",
          "type": "bool"
        }
      ],
      "stateMutability": "view",
      "type": "function"
    },
    {
      "inputs": [],
      "name": "feeRecipient",
      "outputs": [
        {
          "internalType": "address",
          "name": "",
          "type": "address"
        }
      ],
      "stateMutability": "view",
      "type": "function"
    },
    {
      "inputs": [
        {
          "internalType": "uint256",
          "name": "_marketId",
          "type": "uint256"
        }
      ],
      "name": "getMarket",
      "outputs": [
        {
          "components": [
            {
              "internalType": "uint256",
              "name": "id",
              "type": "uint256"
            },
            {
              "internalType": "string",
              "name": "question",
              "type": "string"
            },
            {
              "internalType": "string",
              "name": "description",
              "type": "string"
            },
            {
              "internalType": "string[]",
              "name": "outcomes",
              "type": "string[]"
            },
            {
              "internalType": "uint256",
              "name": "endTime",
              "type": "uint256"
            },
            {
              "internalType": "uint256",
              "name": "resolutionTime",
              "type": "uint256"
            },
            {
              "internalType": "address",
              "name": "creator",
              "type": "address"
            },
            {
              "internalType": "enum PredictionMarket.MarketStatus",
              "name": "status",
              "type": "uint8"
            },
            {
              "internalType": "uint256",
              "name": "totalLiquidity",
              "type": "uint256"
            },
            {
              "internalType": "uint256",
              "name": "totalVolume",
              "type": "uint256"
            },
            {
              "internalType": "address",
              "name": "collateralToken",
              "type": "address"
            },
            {
              "internalType": "uint256",
              "name": "fee",
              "type": "uint256"
            },
            {
              "internalType": "bytes32",
              "name": "oracleDataKey",
              "type": "bytes32"
            },
            {
              "internalType": "uint256",
              "name": "winningOutcome",
              "type": "uint256"
            }
          ],
          "internalType": "struct PredictionMarket.Market",
          "name": "",
          "type": "tuple"
        }
      ],
      "stateMutability": "view",
      "type": "function"
    },
    {
      "inputs": [
        {
          "internalType": "uint256",
          "name": "_marketId",
          "type": "uint256"
        },
        {
          "internalType": "uint256",
          "name": "_outcomeIndex",
          "type": "uint256"
        }
      ],
      "name": "getMarketPrice",
      "outputs": [
        {
          "internalType": "uint256",
          "name": "",
          "type": "uint256"
        }
      ],
      "stateMutability": "view",
      "type": "function"
    },
    {
      "inputs": [
        {
          "internalType": "uint256",
          "name": "_marketId",
          "type": "uint256"
        },
        {
          "internalType": "uint256",
          "name": "_outcomeIndex",
          "type": "uint256"
        }
      ],
      "name": "getOutcomePool",
      "outputs": [
        {
          "internalType": "uint256",
          "name": "totalShares",
          "type": "uint256"
        },
        {
          "internalType": "uint256",
          "name": "totalLiquidity",
          "type": "uint256"
        }
      ],
      "stateMutability": "view",
      "type": "function"
    },
    {
      "inputs": [
        {
          "internalType": "address",
          "name": "_user",
          "type": "address"
        },
        {
          "internalType": "uint256",
          "name": "_marketId",
          "type": "uint256"
        },
        {
          "internalType": "uint256",
          "name": "_outcomeIndex",
          "type": "uint256"
        }
      ],
      "name": "getUserPosition",
      "outputs": [
        {
          "components": [
            {
              "internalType": "uint256",
              "name": "marketId",
              "type": "uint256"
            },
            {
              "internalType": "address",
              "name": "user",
              "type": "address"
            },
            {
              "internalType": "uint256",
              "name": "outcomeIndex",
              "type": "uint256"
            },
            {
              "internalType": "uint256",
              "name": "shares",
              "type": "uint256"
            },
            {
              "internalType": "uint256",
              "name": "avgPrice",
              "type": "uint256"
            },
            {
              "internalType": "uint256",
              "name": "totalInvested",
              "type": "uint256"
            }
          ],
          "internalType": "struct PredictionMarket.Position",
          "name": "",
          "type": "tuple"
        }
      ],
      "stateMutability": "view",
      "type": "function"
    },
    {
      "inputs": [
        {
          "internalType": "address",
          "name": "_user",
          "type": "address"
        }
      ],
      "name": "getUserPositions",
      "outputs": [
        {
          "components": [
            {
              "internalType": "uint256",
              "name": "marketId",
              "type": "uint256"
            },
            {
              "internalType": "address",
              "name": "user",
              "type": "address"
            },
            {
              "internalType": "uint256",
              "name": "outcomeIndex",
              "type": "uint256"
            },
            {
              "internalType": "uint256",
              "name": "shares",
              "type": "uint256"
            },
            {
              "internalType": "uint256",
              "name": "avgPrice",
              "type": "uint256"
            },
            {
              "internalType": "uint256",
              "name": "totalInvested",
              "type": "uint256"
            }
          ],
          "internalType": "struct PredictionMarket.Position[]",
          "name": "",
          "type": "tuple[]"
        }
      ],
      "stateMutability": "view",
      "type": "function"
    },
    {
      "inputs": [
        {
          "internalType": "address",
          "name": "_oracle",
          "type": "address"
        },
        {
          "internalType": "address",
          "name": "_feeRecipient",
          "type": "address"
        }
      ],
      "name": "initialize",
      "outputs": [],
      "stateMutability": "nonpayable",
      "type": "function"
    },
    {
      "inputs": [],
      "name": "marketCreationFee",
      "outputs": [
        {
          "internalType": "uint256",
          "name": "",
          "type": "uint256"
        }
      ],
      "stateMutability": "view",
      "type": "function"
    },
    {
      "inputs": [
        {
          "internalType": "address",
          "name": "",
          "type": "address"
        }
      ],
      "name": "marketCreators",
      "outputs": [
        {
          "internalType": "bool",
          "name": "",
          "type": "bool"
        }
      ],
      "stateMutability": "view",
      "type": "function"
    },
    {
      "inputs": [
        {
          "internalType": "uint256",
          "name": "",
          "type": "uint256"
        }
      ],
      "name": "markets",
      "outputs": [
        {
          "internalType": "uint256",
          "name": "id",
          "type": "uint256"
        },
        {
          "internalType": "string",
          "name": "question",
          "type": "string"
        },
        {
          "internalType": "string",
          "name": "description",
          "type": "string"
        },
        {
          "internalType": "uint256",
          "name": "endTime",
          "type": "uint256"
        },
        {
          "internalType": "uint256",
          "name": "resolutionTime",
          "type": "uint256"
        },
        {
          "internalType": "address",
          "name": "creator",
          "type": "address"
        },
        {
          "internalType": "enum PredictionMarket.MarketStatus",
          "name": "status",
          "type": "uint8"
        },
        {
          "internalType": "uint256",
          "name": "totalLiquidity",
          "type": "uint256"
        },
        {
          "internalType": "uint256",
          "name": "totalVolume",
          "type": "uint256"
        },
        {
          "internalType": "address",
          "name": "collateralToken",
          "type": "address"
        },
        {
          "internalType": "uint256",
          "name": "fee",
          "type": "uint256"
        },
        {
          "internalType": "bytes32",
          "name": "oracleDataKey",
          "type": "bytes32"
        },
        {
          "internalType": "uint256",
          "name": "winningOutcome",
          "type": "uint256"
        }
      ],
      "stateMutability": "view",
      "type": "function"
    },
    {
      "inputs": [],
      "name": "maxOutcomes",
      "outputs": [
        {
          "internalType": "uint256",
          "name": "",
          "type": "uint256"
        }
      ],
      "stateMutability": "view",
      "type": "function"
    },
    {
      "inputs": [],
      "name": "minLiquidity",
      "outputs": [
        {
          "internalType": "uint256",
          "name": "",
          "type": "uint256"
        }
      ],
      "stateMutability": "view",
      "type": "function"
    },
    {
      "inputs": [],
      "name": "nextMarketId",
      "outputs": [
        {
          "internalType": "uint256",
          "name": "",
          "type": "uint256"
        }
      ],
      "stateMutability": "view",
      "type": "function"
    },
    {
      "inputs": [],
      "name": "oracle",
      "outputs": [
        {
          "internalType": "contract DecentralizedOracle",
          "name": "",
          "type": "address"
        }
      ],
      "stateMutability": "view",
      "type": "function"
    },
    {
      "inputs": [
        {
          "internalType": "uint256",
          "name": "",
          "type": "uint256"
        },
        {
          "internalType": "uint256",
          "name": "",
          "type": "uint256"
        }
      ],
      "name": "outcomePools",
      "outputs": [
        {
          "internalType": "uint256",
          "name": "totalShares",
          "type": "uint256"
        },
        {
          "internalType": "uint256",
          "name": "totalLiquidity",
          "type": "uint256"
        }
      ],
      "stateMutability": "view",
      "type": "function"
    },
    {
      "inputs": [],
      "name": "owner",
      "outputs": [
        {
          "internalType": "address",
          "name": "",
          "type": "address"
        }
      ],
      "stateMutability": "view",
      "type": "function"
    },
    {
      "inputs": [
        {
          "internalType": "bytes32",
          "name": "",
          "type": "bytes32"
        }
      ],
      "name": "positionHashes",
      "outputs": [
        {
          "internalType": "uint256",
          "name": "",
          "type": "uint256"
        }
      ],
      "stateMutability": "view",
      "type": "function"
    },
    {
      "inputs": [],
      "name": "proxiableUUID",
      "outputs": [
        {
          "internalType": "bytes32",
          "name": "",
          "type": "bytes32"
        }
      ],
      "stateMutability": "view",
      "type": "function"
    },
    {
      "inputs": [
        {
          "internalType": "uint256",
          "name": "_marketId",
          "type": "uint256"
        },
        {
          "internalType": "uint256",
          "name": "_amount",
          "type": "uint256"
        }
      ],
      "name": "removeLiquidity",
      "outputs": [],
      "stateMutability": "nonpayable",
      "type": "function"
    },
    {
      "inputs": [],
      "name": "renounceOwnership",
      "outputs": [],
      "stateMutability": "nonpayable",
      "type": "function"
    },
    {
      "inputs": [],
      "name": "resolutionPeriod",
      "outputs": [
        {
          "internalType": "uint256",
          "name": "",
          "type": "uint256"
        }
      ],
      "stateMutability": "view",
      "type": "function"
    },
    {
      "inputs": [
        {
          "internalType": "uint256",
          "name": "_marketId",
          "type": "uint256"
        }
      ],
      "name": "resolveMarket",
      "outputs": [],
      "stateMutability": "nonpayable",
      "type": "function"
    },
    {
      "inputs": [
        {
          "internalType": "uint256",
          "name": "_marketId",
          "type": "uint256"
        },
        {
          "internalType": "uint256",
          "name": "_outcomeIndex",
          "type": "uint256"
        },
        {
          "internalType": "uint256",
          "name": "_shares",
          "type": "uint256"
        }
      ],
      "name": "sellShares",
      "outputs": [
        {
          "internalType": "uint256",
          "name": "payout",
          "type": "uint256"
        }
      ],
      "stateMutability": "nonpayable",
      "type": "function"
    },
    {
      "inputs": [
        {
          "internalType": "bool",
          "name": "_paused",
          "type": "bool"
        }
      ],
      "name": "setEmergencyPause",
      "outputs": [],
      "stateMutability": "nonpayable",
      "type": "function"
    },
    {
      "inputs": [
        {
          "internalType": "address",
          "name": "_creator",
          "type": "address"
        },
        {
          "internalType": "bool",
          "name": "_status",
          "type": "bool"
        }
      ],
      "name": "setMarketCreator",
      "outputs": [],
      "stateMutability": "nonpayable",
      "type": "function"
    },
    {
      "inputs": [
        {
          "internalType": "uint256",
          "name": "_marketCreationFee",
          "type": "uint256"
        },
        {
          "internalType": "uint256",
          "name": "_tradingFee",
          "type": "uint256"
        },
        {
          "internalType": "uint256",
          "name": "_minLiquidity",
          "type": "uint256"
        },
        {
          "internalType": "uint256",
          "name": "_maxOutcomes",
          "type": "uint256"
        }
      ],
      "name": "setProtocolParameters",
      "outputs": [],
      "stateMutability": "nonpayable",
      "type": "function"
    },
    {
      "inputs": [],
      "name": "tradingFee",
      "outputs": [
        {
          "internalType": "uint256",
          "name": "",
          "type": "uint256"
        }
      ],
      "stateMutability": "view",
      "type": "function"
    },
    {
      "inputs": [
        {
          "internalType": "address",
          "name": "newOwner",
          "type": "address"
        }
      ],
      "name": "transferOwnership",
      "outputs": [],
      "stateMutability": "nonpayable",
      "type": "function"
    },
    {
      "inputs": [
        {
          "internalType": "address",
          "name": "newImplementation",
          "type": "address"
        },
        {
          "internalType": "bytes",
          "name": "data",
          "type": "bytes"
        }
      ],
      "name": "upgradeToAndCall",
      "outputs": [],
      "stateMutability": "payable",
      "type": "function"
    },
    {
      "inputs": [
        {
          "internalType": "address",
          "name": "",
          "type": "address"
        },
        {
          "internalType": "uint256",
          "name": "",
          "type": "uint256"
        }
      ],
      "name": "userPositions",
      "outputs": [
        {
          "internalType": "uint256",
          "name": "marketId",
          "type": "uint256"
        },
        {
          "internalType": "address",
          "name": "user",
          "type": "address"
        },
        {
          "internalType": "uint256",
          "name": "outcomeIndex",
          "type": "uint256"
        },
        {
          "internalType": "uint256",
          "name": "shares",
          "type": "uint256"
        },
        {
          "internalType": "uint256",
          "name": "avgPrice",
          "type": "uint256"
        },
        {
          "internalType": "uint256",
          "name": "totalInvested",
          "type": "uint256"
        }
      ],
      "stateMutability": "view",
      "type": "function"
    }
  ],
  "bytecode": "0x60a0806040523460595730608052600160025568056bc75e2d63100000600655601e600755683635c9adc5dea00000600855600a60095562093a80600a556137db908161005f8239608051818181611e7a0152611f690152f35b600080fdfe608080604052600436101561001357600080fd5b60003560e01c9081631d6c8bc8146125b957508063252cf2d21461259b5780632a6bc2dd1461248d5780632ef1bdfa1461246f578063406ef2ef14612451578063469048401461242a578063485cc955146121ce5780634f1ef28614611f1a57806351858e2714611ef457806352d1902d14611e5f57806356f4335214611e415780635e1b4d9914611daf5780635e31ec16146114b05780636399d03d146111ee578063677bd9ff146111a4578063715018a61461110b5780637aabf58a146110ba5780637c16cd9e1461104f5780637dc0d1d0146110285780638130fae414610ffc57806383bd2467146101cc5780638ce9ba5d14610fda5780638da5cb5b14610f945780639003adfe14610f765780639ba2dbc414610f015780639cd441da14610de05780639d7de6b314610c24578063a41bfcfc14610bf1578063ad3cb1cc14610b8e578063b1283e7714610a90578063c8796572146109c7578063d036d1241461096f578063d67c687214610584578063d8d1a65714610540578063e352f64314610522578063eb44fdd314610256578063effd46b414610238578063f2fde38b1461020d5763f61e0a19146101cc57600080fd5b34610208576101da3661273a565b9060005260036020526040600020906000526020526040806000206001815491015482519182526020820152f35b600080fd5b34610208576020366003190112610208576102366102296125f4565b610231613209565b612fec565b005b34610208576000366003190112610208576020600954604051908152f35b346102085760203660031901126102085760006101a06040516102788161260a565b82815260606020820152606060408201526060808201528260808201528260a08201528260c08201528260e082015282610100820152826101208201528261014082015282610160820152826101808201520152600435600052600160205260406000206040516102e88161260a565b815481526102f8600183016127cb565b906020810191825261030c600284016127cb565b90604081019182526003840193845461032481612708565b956103326040519788612643565b818752602087019060005260206000206000915b8383106105055750505050606082019485526004810154926080830193845261042160058301549160a08501928352600c6006850154946103a060ff60c08901976001600160a01b038116895260a01c1660e089016128cb565b600781015461010088015260088101546101208801526001600160a01b03600982015416610140880152600a810154610160880152600b81015461018088015201546101a086015261040e6040519760208952865160208a0152516101c060408a01526101e0890190612750565b9051878203601f19016060890152612750565b955193601f19868803016080870152845180885260208801906020808260051b8b01019701916000905b8282106104d95789808a6101a08b6001600160a01b038c8c8c5160a08801525160c0870152511660e085015261048a60e082015161010086019061286f565b6101008101516101208501526101208101516101408501526001600160a01b03610140820151166101608501526101608101516101808501526101808101518285015201516101c08301520390f35b909192976020806104f76001938e601f199082030186528c51612750565b9a019201920190929161044b565b600160208192610514856127cb565b815201920192019190610346565b34610208576000366003190112610208576020600a54604051908152f35b346102085760203660031901126102085760043580151580910361020857610566613209565b60ff60a01b1960ff60a01b600c549260a01b16911617600c55600080f35b346102085761059236612720565b9161059b6130ab565b80600052600160205260406000209160ff600684015460a01c166004811015610959576105c8901561290e565b6105d760048401544210612b11565b81600052600360205260406000208160005260205260406000209260028401936001600160a01b033316600052846020528560406000205410610915576106b7916106a0670de0b6b3a7640000610638610631878961326a565b508a6128ee565b0461065561271061064d600a860154846128ee565b048092612959565b97846106638b8b9754612959565b90556001600160a01b03331660005260205260406000206106858a8254612959565b905560088301610696858254612901565b9055600b54612901565b600b556001600160a01b03600933920154166131b4565b6040513360601b6bffffffffffffffffffffffff1916602082019081526034820184905260548201839052600095916106fd81607481015b03601f198101835282612643565b519020808652600560205260408620549081156107d7575b507f5ee38bae97be523c51d534ba1d03dc2d75c0219ab51f9abb87a4efbc0d9c6f4991602096610750879333835260048a52604083206126b8565b50905061079160056107876003840161076a868254612959565b8091556107818661077b838a6128ee565b92612901565b90612b5c565b9201918254612959565b90556040805194855260208501919091528301523391606090a360017f9b779b17422d0df92223018b32b4d1fa46e071723d6817e2486d003becc55f0055604051908152f35b905033865260046020526040862054903387526004602052604087206040519061080082612627565b868252602082013381526040830187815260608401908b825260808501928c845260a08601948d865280549068010000000000000000821015610901579061084d916001820181556126b8565b9690966108ee57600595949392916001600160a01b039151885551166001600160a01b036001880191166001600160a01b03198254161790555160028601555160038501555160048401555191015560018201908183116108da578752600560205260408720557f5ee38bae97be523c51d534ba1d03dc2d75c0219ab51f9abb87a4efbc0d9c6f49610715565b602488634e487b7160e01b81526011600452fd5b60248e634e487b7160e01b815280600452fd5b60248f634e487b7160e01b81526041600452fd5b606460405162461bcd60e51b815260206004820152601360248201527f496e73756666696369656e7420736861726573000000000000000000000000006044820152fd5b634e487b7160e01b600052602160045260246000fd5b34610208576040366003190112610208576109886125f4565b60243590811515809203610208576001600160a01b03906109a7613209565b16600052600d60205260406000209060ff80198354169116179055600080f35b34610208576000366003190112610208576109e0613209565b600b548015610a4c576000600b556000808080846001600160a01b03600c541682f115610a40577f9dc46f23cfb5ddcad0ae7ea2be38d47fec07bb9382ec7e564efc69e036dd66ce60206001600160a01b03600c541692604051908152a2005b6040513d6000823e3d90fd5b606460405162461bcd60e51b815260206004820152601260248201527f4e6f206665657320746f20636f6c6c65637400000000000000000000000000006044820152fd5b346102085760203660031901126102085760043560005260016020526040600020805460018201610ac0906127cb565b91610acd600282016127cb565b60048201549160058101546006820154600783015460088401549060098501546001600160a01b031692600a86015494600b87015496600c0154976040519b8c9b8c5260208c016101a090526101a08c01610b2791612750565b8b810360408d0152610b3891612750565b9860608b015260808a01526001600160a01b03811660a08a015260c089019060a01c60ff1690610b679161286f565b60e08801526101008701526101208601526101408501526101608401526101808301520390f35b3461020857600036600319011261020857610bed6040805190610bb18183612643565b600582527f352e302e30000000000000000000000000000000000000000000000000000000602083015251918291602083526020830190612750565b0390f35b3461020857608036600319011261020857610c0a613209565b600435600655602435600755604435600855606435600955005b3461020857610c323661273a565b90610c3b6130ab565b80600052600160205260406000209060ff600683015460a01c16600481101561095957610c68901561290e565b610c7760048301544210612b11565b600782019283548111610d9c576003830192610c94845483612b5c565b9460005b8554811015610d2157846000526003602052604060002081600052602052600160406000200190815491828911610cdd57610cd589600194612959565b905501610c98565b606460405162461bcd60e51b815260206004820152601e60248201527f496e73756666696369656e74206f7574636f6d65206c697175696469747900006044820152fd5b50826001600160a01b0360098694610d4a94610d3e858254612959565b905501541633906131b4565b6040519182527f7cd78db3fa0f169740484c879803073b63a35c4c5d82f02312e7aa988eee855460203393a360017f9b779b17422d0df92223018b32b4d1fa46e071723d6817e2486d003becc55f0055005b606460405162461bcd60e51b815260206004820152601660248201527f496e73756666696369656e74206c6971756964697479000000000000000000006044820152fd5b3461020857610dee3661273a565b90610df76130ab565b806000526001602052604060002060ff600682015460a01c16600481101561095957610e23901561290e565b610e3260048201544210612b11565b610e4d836001600160a01b03600984015416309033906134b8565b6003810191610e5d835485612b5c565b9160005b8454811015610e9c5760019083600052600360205260406000208160005260205281604060002001610e94868254612901565b905501610e61565b858360078401610ead838254612901565b90556040519182527fc733c2813826d31c105dbff518b08258e9e7aeb3eb1c7c7f642d77696faf501d60203393a360017f9b779b17422d0df92223018b32b4d1fa46e071723d6817e2486d003becc55f0055005b346102085760603660031901126102085760c0610f2c610f1f6125f4565b6044359060243590612ee6565b610f74604051809260a08091805184526001600160a01b0360208201511660208501526040810151604085015260608101516060850152608081015160808501520151910152565bf35b34610208576000366003190112610208576020600b54604051908152f35b346102085760003660031901126102085760206001600160a01b037f9016d09d72d40fdae2fd8ceac6b6234c7706214fd39c1cd1e609a0528c1993005416604051908152f35b34610208576020610ff3610fed3661273a565b9061326a565b50604051908152f35b346102085760203660031901126102085760043560005260056020526020604060002054604051908152f35b346102085760003660031901126102085760206001600160a01b0360005416604051908152f35b3461020857602036600319011261020857611068613209565b6004356000526001602052600660406000200160ff815460a01c16600481101561095957611096901561290e565b805460ff60a01b191674020000000000000000000000000000000000000000179055005b346102085760406110db6110cd36612720565b916110d66130ab565b612b66565b60017f9b779b17422d0df92223018b32b4d1fa46e071723d6817e2486d003becc55f005582519182526020820152f35b3461020857600036600319011261020857611124613209565b60006001600160a01b037f9016d09d72d40fdae2fd8ceac6b6234c7706214fd39c1cd1e609a0528c199300546001600160a01b031981167f9016d09d72d40fdae2fd8ceac6b6234c7706214fd39c1cd1e609a0528c19930055167f8be0079c531659141344cd1fd0a4f28419497f9722a3daafe3b4186f6b6457e08280a3005b34610208576020366003190112610208576111bd6130ab565b6111c8600435612966565b60017f9b779b17422d0df92223018b32b4d1fa46e071723d6817e2486d003becc55f0055005b346102085760203660031901126102085760043561120a6130ab565b80600052600160205260406000206006810160ff815460a01c16600481101561095957611237901561290e565b6004820154421061146c57600582015442116114285761133960606001600160a01b0360005416604051907f6d61726b65745f0000000000000000000000000000000000000000000000000060208301528660278301527f5f726573756c74000000000000000000000000000000000000000000000000006047830152602e82526112c3604e83612643565b60405180809581947f52ee0b7700000000000000000000000000000000000000000000000000000000835260056004840152866024840152601560648401527f70726564696374696f6e5f7265736f6c7574696f6e0000000000000000000000608484015260a0604484015260a4830190612750565b03915afa908115610a40576000916113f6575b5060038301549182156113e0577f6dfc24f0f2fb42e49fb4fa3ffa8abb148cab908a1fb8335b3f128a08b2594af193602093600c930692839101557401000000000000000000000000000000000000000060ff60a01b198254161790556113b38185613124565b604051908152a260017f9b779b17422d0df92223018b32b4d1fa46e071723d6817e2486d003becc55f0055005b634e487b7160e01b600052601260045260246000fd5b90506060813d606011611420575b8161141160609383612643565b8101031261020857518461134c565b3d9150611404565b606460405162461bcd60e51b815260206004820152601960248201527f5265736f6c7574696f6e20706572696f642065787069726564000000000000006044820152fd5b606460405162461bcd60e51b815260206004820152601060248201527f4d61726b6574206e6f7420656e646564000000000000000000000000000000006044820152fd5b60e03660031901126102085760043567ffffffffffffffff8111610208576114dc9036906004016126ea565b60243567ffffffffffffffff8111610208576114fc9036906004016126ea565b6044359167ffffffffffffffff8311610208573660238401121561020857826004013561152881612708565b936115366040519586612643565b8185526024602086019260051b820101903682116102085760248101925b828410611d7f575050505060843560a435936001600160a01b03851685036102085761157e6130ab565b60ff600c5460a01c16611d3b5733600052600d60205260ff6040600020541615611cf7576006543410611cb357805160028110159081611ca6575b5015611c6257426064351115611c1e57606435821115611bb457600254936000198514611b9e576001850160025560075491604051926115f88461260a565b8684526020840194868652604085019384526060850192835260808501606435815260a086019182523360c08701526001600160a01b0360e087019a60008c526000610100890152600061012089015216610140870152610160860192835261018086019360c43585526101a0870195600087528a600052600160205260406000209888518a5560018a01905180519067ffffffffffffffff82116119cd576116a18354612791565b601f8111611b6c575b50602090601f8311600114611b05576116dc929160009183611918575b50508160011b916000199060031b1c19161790565b90555b51805160028a019167ffffffffffffffff82116119cd576117008354612791565b601f8111611ad3575b50602090601f8311600114611a6c5761173a929160009183611a615750508160011b916000199060031b1c19161790565b90555b51805160038901916801000000000000000082116119cd5782548284558083106119e3575b50602001916000526020600020916000905b8282106118a9575050505051600487015551600586015560068501976001600160a01b038060c087015116166001600160a01b03198a54161789555197600489101561095957610140600c956001600160a01b039260209b60ff60a01b1960ff60a01b83549260a01b169116179055610100810151600789015561012081015160088901550151166001600160a01b036009870191166001600160a01b031982541617905551600a85015551600b8401555191015561183534600b54612901565b600b55817f03e783e31593f59fda73a59d05e2525d610a533995cce4d4750186c3b6bf80bb61186f60405193604085526040850190612750565b92606435868201528033940390a360017f9b779b17422d0df92223018b32b4d1fa46e071723d6817e2486d003becc55f0055604051908152f35b805180519067ffffffffffffffff82116119cd576118c78654612791565b601f8111611990575b50602090601f83116001146119235792611909836001959460209487966000926119185750508160011b916000199060031b1c19161790565b87555b01940191019092611774565b0151905038806116c7565b90601f1983169187600052816000209260005b818110611978575093602093600196938796938388951061195f575b505050811b01875561190c565b015160001960f88460031b161c19169055388080611952565b92936020600181928786015181550195019301611936565b6119bd90876000526020600020601f850160051c810191602086106119c3575b601f0160051c01906128d7565b386118d0565b90915081906119b0565b634e487b7160e01b600052604160045260246000fd5b8360005282602060002091820191015b818110611a005750611762565b80611a0d60019254612791565b80611a1a575b50016119f3565b601f81118314611a305750600081555b38611a13565b611a4e908260005283601f6020600020920160051c820191016128d7565b8060005260006020812081835555611a2a565b015190508f806116c7565b90601f1983169184600052816000209260005b818110611abb5750908460019594939210611aa2575b505050811b01905561173d565b015160001960f88460031b161c191690558e8080611a95565b92936020600181928786015181550195019301611a7f565b611aff90846000526020600020601f850160051c810191602086106119c357601f0160051c01906128d7565b8e611709565b90601f1983169184600052816000209260005b818110611b545750908460019594939210611b3b575b505050811b0190556116df565b015160001960f88460031b161c191690558f8080611b2e565b92936020600181928786015181550195019301611b18565b611b9890846000526020600020601f850160051c810191602086106119c357601f0160051c01906128d7565b8f6116aa565b634e487b7160e01b600052601160045260246000fd5b608460405162461bcd60e51b815260206004820152602660248201527f5265736f6c7574696f6e2074696d65206d75737420626520616674657220656e60448201527f642074696d6500000000000000000000000000000000000000000000000000006064820152fd5b606460405162461bcd60e51b815260206004820152601a60248201527f456e642074696d65206d75737420626520696e206675747572650000000000006044820152fd5b606460405162461bcd60e51b815260206004820152601a60248201527f496e76616c6964206e756d626572206f66206f7574636f6d65730000000000006044820152fd5b90506009541015866115b9565b606460405162461bcd60e51b815260206004820152601960248201527f496e73756666696369656e74206372656174696f6e20666565000000000000006044820152fd5b606460405162461bcd60e51b815260206004820152602060248201527f4e6f7420617574686f72697a656420746f20637265617465206d61726b6574736044820152fd5b606460405162461bcd60e51b815260206004820152600f60248201527f50726f746f636f6c2070617573656400000000000000000000000000000000006044820152fd5b833567ffffffffffffffff811161020857602091611da48392602436918701016126ea565b815201930192611554565b3461020857604036600319011261020857611dc86125f4565b6001600160a01b0360243591166000526004602052604060002080548210156102085760c091611df7916126b8565b508054906001600160a01b036001820154169060028101546003820154906005600484015493015493604051958652602086015260408501526060840152608083015260a0820152f35b34610208576000366003190112610208576020600754604051908152f35b34610208576000366003190112610208576001600160a01b037f0000000000000000000000000000000000000000000000000000000000000000163003611eca5760206040517f360894a13ba1a3210667c828492db98dca3e2076cc3735a920a3ca505d382bbc8152f35b7fe07c8dba0000000000000000000000000000000000000000000000000000000060005260046000fd5b3461020857600036600319011261020857602060ff600c5460a01c166040519015158152f35b604036600319011261020857611f2e6125f4565b60243567ffffffffffffffff8111610208573660238201121561020857611f5f903690602481600401359101612681565b6001600160a01b037f000000000000000000000000000000000000000000000000000000000000000016803014908115612199575b50611eca57611fa1613209565b6001600160a01b038216916040517f52d1902d000000000000000000000000000000000000000000000000000000008152602081600481875afa60009181612165575b50611ffe5783634c9c8ce360e01b60005260045260246000fd5b807f360894a13ba1a3210667c828492db98dca3e2076cc3735a920a3ca505d382bbc8592036121385750813b1561212457806001600160a01b03197f360894a13ba1a3210667c828492db98dca3e2076cc3735a920a3ca505d382bbc5416177f360894a13ba1a3210667c828492db98dca3e2076cc3735a920a3ca505d382bbc557fbc7cd75a20ee27fd9adebab32041f755214dbc6bffa90cc0225b39da2e5c2d3b600080a28151156120f15760008083602061023695519101845af43d156120e9573d916120cc83612665565b926120da6040519485612643565b83523d6000602085013e613715565b606091613715565b5050346120fa57005b7fb398979f0000000000000000000000000000000000000000000000000000000060005260046000fd5b634c9c8ce360e01b60005260045260246000fd5b7faa1d49a40000000000000000000000000000000000000000000000000000000060005260045260246000fd5b9091506020813d602011612191575b8161218160209383612643565b8101031261020857519085611fe4565b3d9150612174565b90506001600160a01b037f360894a13ba1a3210667c828492db98dca3e2076cc3735a920a3ca505d382bbc5416141583611f94565b34610208576040366003190112610208576121e76125f4565b6024356001600160a01b038116809103610208577ff0c57e16840df040f15088dc2f81fe391c3923bec73e23a9662efc9c229c6a005460ff8160401c16159267ffffffffffffffff821680159081612422575b6001149081612418575b15908161240f575b506123e55767ffffffffffffffff1982166001177ff0c57e16840df040f15088dc2f81fe391c3923bec73e23a9662efc9c229c6a00556001600160a01b0391846123a6575b5061229a613512565b6122a2613512565b6122ab33612fec565b6122b3613512565b6122bb613512565b60017f9b779b17422d0df92223018b32b4d1fa46e071723d6817e2486d003becc55f00556122e7613512565b166001600160a01b031960005416176000556001600160a01b0319600c541617600c5533600052600d6020526040600020600160ff1982541617905561232957005b68ff0000000000000000197ff0c57e16840df040f15088dc2f81fe391c3923bec73e23a9662efc9c229c6a0054167ff0c57e16840df040f15088dc2f81fe391c3923bec73e23a9662efc9c229c6a00557fc7f505b2f371ae2175ee4913f4499e1f2633a7b5936321eed1cdaeb6115181d2602060405160018152a1005b68ffffffffffffffffff191668010000000000000001177ff0c57e16840df040f15088dc2f81fe391c3923bec73e23a9662efc9c229c6a005584612291565b7ff92ee8a90000000000000000000000000000000000000000000000000000000060005260046000fd5b9050158561224c565b303b159150612244565b85915061223a565b346102085760003660031901126102085760206001600160a01b03600c5416604051908152f35b34610208576000366003190112610208576020600254604051908152f35b34610208576000366003190112610208576020600654604051908152f35b34610208576020366003190112610208576001600160a01b036124ae6125f4565b16600052600460205260406000208054906124c882612708565b916124d66040519384612643565b80835260208301809260005260206000206000915b83831061257d5784866040519182916020830190602084525180915260408301919060005b81811061251e575050500390f35b91935091602060c08261256f600194885160a08091805184526001600160a01b0360208201511660208501526040810151604085015260608101516060850152608081015160808501520151910152565b019401910191849392612510565b6006602060019261258d8561287c565b8152019201920191906124eb565b34610208576000366003190112610208576020600854604051908152f35b34610208576020366003190112610208576020906001600160a01b036125dd6125f4565b16600052600d825260ff6040600020541615158152f35b600435906001600160a01b038216820361020857565b6101c0810190811067ffffffffffffffff8211176119cd57604052565b60c0810190811067ffffffffffffffff8211176119cd57604052565b90601f8019910116810190811067ffffffffffffffff8211176119cd57604052565b67ffffffffffffffff81116119cd57601f01601f191660200190565b92919261268d82612665565b9161269b6040519384612643565b829481845281830111610208578281602093846000960137010152565b80548210156126d4576000526006602060002091020190600090565b634e487b7160e01b600052603260045260246000fd5b9080601f830112156102085781602061270593359101612681565b90565b67ffffffffffffffff81116119cd5760051b60200190565b606090600319011261020857600435906024359060443590565b6040906003190112610208576004359060243590565b919082519283825260005b84811061277c575050826000602080949584010152601f8019910116010190565b8060208092840101518282860101520161275b565b90600182811c921680156127c1575b60208310146127ab57565b634e487b7160e01b600052602260045260246000fd5b91607f16916127a0565b90604051918260008254926127df84612791565b808452936001811690811561284d5750600114612806575b5061280492500383612643565b565b90506000929192526020600020906000915b81831061283157505090602061280492820101386127f7565b6020919350806001915483858901015201910190918492612818565b90506020925061280494915060ff191682840152151560051b820101386127f7565b9060048210156109595752565b9060405161288981612627565b60a060058294805484526001600160a01b0360018201541660208501526002810154604085015260038101546060850152600481015460808501520154910152565b60048210156109595752565b8181106128e2575050565b600081556001016128d7565b81810292918115918404141715611b9e57565b91908201809211611b9e57565b1561291557565b606460405162461bcd60e51b815260206004820152601160248201527f4d61726b6574206e6f74206163746976650000000000000000000000000000006044820152fd5b91908203918211611b9e57565b806000526001602052604060002060ff600682015460a01c16600481101561095957600103612acd57600c81019081546040516129d0816106ef602082019488338791605493916bffffffffffffffffffffffff199060601b168352601483015260348201520190565b51902060005260056020526040600020546000198101908111611b9e57336000526004602052604060002054811015612ac757612a1c60039133600052600460205260406000206126b8565b5001918254908115612a8357612a66827f5ee38bae97be523c51d534ba1d03dc2d75c0219ab51f9abb87a4efbc0d9c6f4994600087556001600160a01b03600933920154166131b4565b5492546040805194855260208501919091528301523391606090a3565b606460405162461bcd60e51b815260206004820152601360248201527f4e6f2077696e6e696e6720706f736974696f6e000000000000000000000000006044820152fd5b50505050565b606460405162461bcd60e51b815260206004820152601360248201527f4d61726b6574206e6f74207265736f6c766564000000000000000000000000006044820152fd5b15612b1857565b606460405162461bcd60e51b815260206004820152600c60248201527f4d61726b657420656e64656400000000000000000000000000000000000000006044820152fd5b81156113e0570490565b9291909280600052600160205260406000209360ff600686015460a01c16600481101561095957612b97901561290e565b612ba660048601544210612b11565b6003850154811015612ea2578160005260036020526040600020816000526020526040600020612bd6828461326a565b94670de0b6b3a7640000810290808204670de0b6b3a76400001490151715611b9e5781612c0291612b5c565b858082109118028086189514612e9357906008670de0b6b3a7640000612c2b612ca494886128ee565b04976002612710612c40600a8401548c6128ee565b0493612c4c858c612959565b50612c688b6001600160a01b03600986015416309033906134b8565b612c73898254612901565b81556001600160a01b033316600052016020526040600020612c96888254612901565b905501610696888254612901565b600b556040513360601b6bffffffffffffffffffffffff191660208201908152603482018490526054820183905290612ce081607481016106ef565b5190208060005260056020526040600020548015612da2575b612d11915033600052600460205260406000206126b8565b5060058101612d21878254612901565b6003830191612d31878454612901565b93670de0b6b3a76400008302838104670de0b6b3a76400001484151715611b9e57612d5e86600492612b5c565b91015555556040805191825260208201849052810185905233907f7a1ae8665412b69d0fd9db37f50dfa14e31fd10c7c46a9b5e22214e1b9b25eda90606090a39190565b5033600090815260046020526040908190208054915190612dc282612627565b858252602082019033825260408301868152606084016000815260808501916000835260a0860193600085528054680100000000000000008110156119cd57612e10916001820181556126b8565b969096612e7d576005956001600160a01b039151885551166001600160a01b036001880191166001600160a01b03198254161790555160028601555160038501555160048401555191015560018101808211611b9e57612d11926000526005602052604060002055612cf9565b634e487b7160e01b600052600060045260246000fd5b50505050509050600090600090565b606460405162461bcd60e51b815260206004820152600f60248201527f496e76616c6964206f7574636f6d6500000000000000000000000000000000006044820152fd5b91612f576106ef91604051612efa81612627565b6000815260006020820152600060408201526000606082015260006080820152600060a0820152506040519283916020830195878791605493916bffffffffffffffffffffffff199060601b168352601483015260348201520190565b5190206000526005602052604060002054906000198201918211611b9e576001600160a01b0316806000526004602052604060002054821015612fb45761270591612fae91600052600460205260406000206126b8565b5061287c565b5050604051612fc281612627565b6000815260006020820152600060408201526000606082015260006080820152600060a082015290565b6001600160a01b0316801561307c576001600160a01b037f9016d09d72d40fdae2fd8ceac6b6234c7706214fd39c1cd1e609a0528c19930054826001600160a01b03198216177f9016d09d72d40fdae2fd8ceac6b6234c7706214fd39c1cd1e609a0528c19930055167f8be0079c531659141344cd1fd0a4f28419497f9722a3daafe3b4186f6b6457e0600080a3565b7f1e4fbdf700000000000000000000000000000000000000000000000000000000600052600060045260246000fd5b60027f9b779b17422d0df92223018b32b4d1fa46e071723d6817e2486d003becc55f0054146130fa5760027f9b779b17422d0df92223018b32b4d1fa46e071723d6817e2486d003becc55f0055565b7f3ee5aeb50000000000000000000000000000000000000000000000000000000060005260046000fd5b806000526001602052604060002091816000526003602052604060002081600052602052604060002054156131af5760009060036000940154935b84811061316d575050505050565b81810361317d575b60010161315f565b916131a7600191856000526003602052604060002085600052602052826040600020015490612901565b929050613175565b505050565b612804926001600160a01b03604051937fa9059cbb000000000000000000000000000000000000000000000000000000006020860152166024840152604483015260448252613204606483612643565b61356b565b6001600160a01b037f9016d09d72d40fdae2fd8ceac6b6234c7706214fd39c1cd1e609a0528c1993005416330361323c57565b7f118cdaa7000000000000000000000000000000000000000000000000000000006000523360045260246000fd5b9190600092808452600160205260408420916040516132888161260a565b83548152613298600185016127cb565b60208201526132a9600285016127cb565b6040820152600384019384546132be81612708565b956132cc6040519788612643565b81875288526020808920899188015b83831061349b5750505050600c6101a0916060840196875260048101546080850152600581015460a085015261332d60ff60068301546001600160a01b03811660c088015260a01c1660e086016128cb565b600781015461010085015260088101546101208501526001600160a01b03600982015416610140850152600a810154610160850152600b8101546101808501520154910152818552600360205260408520908552602052839184925b8151518410156133c0576133b86001918488526003602052604088208689526020528260408920015490612901565b930192613389565b90939250801561348b576133d3906135dc565b849290835b85515185101561341e578387526003602052604087208588526020526001810180911161340a576001909401936133d8565b602487634e487b7160e01b81526011600452fd5b509250925050801581800460011481171561347757670de0b6b3a76400008202918204670de0b6b3a764000014171561346357670de0b6b3a764000090819004925090565b602483634e487b7160e01b81526011600452fd5b602484634e487b7160e01b81526011600452fd5b50670de0b6b3a764000093925050565b6001602081926134aa856127cb565b8152019201920191906132db565b9091926001600160a01b036128049481604051957f23b872dd000000000000000000000000000000000000000000000000000000006020880152166024860152166044840152606483015260648252613204608483612643565b60ff7ff0c57e16840df040f15088dc2f81fe391c3923bec73e23a9662efc9c229c6a005460401c161561354157565b7fd7e6bcf80000000000000000000000000000000000000000000000000000000060005260046000fd5b906000602091828151910182855af115610a40576000513d6135d357506001600160a01b0381163b155b61359c5750565b6001600160a01b03907f5274afe7000000000000000000000000000000000000000000000000000000006000521660045260246000fd5b60011415613595565b6001811115612705578060017001000000000000000000000000000000008310156136ff575b600482680100000000000000006136b19410156136f2575b6401000000008110156136e5575b620100008110156136d8575b6101008110156136cc575b60108110156136c0575b10156136b8575b60030260011c6136608184612b5c565b0160011c61366e8184612b5c565b0160011c61367c8184612b5c565b0160011c61368a8184612b5c565b0160011c6136988184612b5c565b0160011c6136a68184612b5c565b0160011c8092612b5c565b8111900390565b60011b613650565b811c9160021b91613649565b60081c91811b9161363f565b60101c9160081b91613634565b60201c9160101b91613628565b60401c9160201b9161361a565b5050608081901c68010000000000000000613602565b90613754575080511561372a57602081519101fd5b7fd6bda2750000000000000000000000000000000000000000000000000000000060005260046000fd5b8151158061379c575b613765575090565b6001600160a01b03907f9996b315000000000000000000000000000000000000000000000000000000006000521660045260246000fd5b50803b1561375d56fea2646970667358221220d687747ef8e311d938f36e12756f85e338ad6d4c2ab73a079658ad807245139164736f6c634300081c0033",
  "linkReferences": {},
  "deployedLinkReferences": {}
}