{
  "_format": "hh-sol-artifact-1",
  "contractName": "YieldToken",
  "sourceName": "contracts/YieldToken.sol",
  "abi": [
    {
      "inputs": [
        {
          "internalType": "address",
          "name": "target",
          "type": "address"
        }
      ],
      "name": "AddressEmptyCode",
      "type": "error"
    },
    {
      "inputs": [
        {
          "internalType": "address",
          "name": "implementation",
          "type": "address"
        }
      ],
      "name": "ERC1967InvalidImplementation",
      "type": "error"
    },
    {
      "inputs": [],
      "name": "ERC1967NonPayable",
      "type": "error"
    },
    {
      "inputs": [
        {
          "internalType": "address",
          "name": "spender",
          "type": "address"
        },
        {
          "internalType": "uint256",
          "name": "allowance",
          "type": "uint256"
        },
        {
          "internalType": "uint256",
          "name": "needed",
          "type": "uint256"
        }
      ],
      "name": "ERC20InsufficientAllowance",
      "type": "error"
    },
    {
      "inputs": [
        {
          "internalType": "address",
          "name": "sender",
          "type": "address"
        },
        {
          "internalType": "uint256",
          "name": "balance",
          "type": "uint256"
        },
        {
          "internalType": "uint256",
          "name": "needed",
          "type": "uint256"
        }
      ],
      "name": "ERC20InsufficientBalance",
      "type": "error"
    },
    {
      "inputs": [
        {
          "internalType": "address",
          "name": "approver",
          "type": "address"
        }
      ],
      "name": "ERC20InvalidApprover",
      "type": "error"
    },
    {
      "inputs": [
        {
          "internalType": "address",
          "name": "receiver",
          "type": "address"
        }
      ],
      "name": "ERC20InvalidReceiver",
      "type": "error"
    },
    {
      "inputs": [
        {
          "internalType": "address",
          "name": "sender",
          "type": "address"
        }
      ],
      "name": "ERC20InvalidSender",
      "type": "error"
    },
    {
      "inputs": [
        {
          "internalType": "address",
          "name": "spender",
          "type": "address"
        }
      ],
      "name": "ERC20InvalidSpender",
      "type": "error"
    },
    {
      "inputs": [],
      "name": "FailedCall",
      "type": "error"
    },
    {
      "inputs": [],
      "name": "InvalidInitialization",
      "type": "error"
    },
    {
      "inputs": [],
      "name": "NotInitializing",
      "type": "error"
    },
    {
      "inputs": [
        {
          "internalType": "address",
          "name": "owner",
          "type": "address"
        }
      ],
      "name": "OwnableInvalidOwner",
      "type": "error"
    },
    {
      "inputs": [
        {
          "internalType": "address",
          "name": "account",
          "type": "address"
        }
      ],
      "name": "OwnableUnauthorizedAccount",
      "type": "error"
    },
    {
      "inputs": [],
      "name": "ReentrancyGuardReentrantCall",
      "type": "error"
    },
    {
      "inputs": [],
      "name": "UUPSUnauthorizedCallContext",
      "type": "error"
    },
    {
      "inputs": [
        {
          "internalType": "bytes32",
          "name": "slot",
          "type": "bytes32"
        }
      ],
      "name": "UUPSUnsupportedProxiableUUID",
      "type": "error"
    },
    {
      "anonymous": false,
      "inputs": [
        {
          "indexed": true,
          "internalType": "address",
          "name": "owner",
          "type": "address"
        },
        {
          "indexed": true,
          "internalType": "address",
          "name": "spender",
          "type": "address"
        },
        {
          "indexed": false,
          "internalType": "uint256",
          "name": "value",
          "type": "uint256"
        }
      ],
      "name": "Approval",
      "type": "event"
    },
    {
      "anonymous": false,
      "inputs": [
        {
          "indexed": true,
          "internalType": "address",
          "name": "user",
          "type": "address"
        },
        {
          "indexed": false,
          "internalType": "uint256",
          "name": "amount",
          "type": "uint256"
        }
      ],
      "name": "AutoCompounded",
      "type": "event"
    },
    {
      "anonymous": false,
      "inputs": [
        {
          "indexed": true,
          "internalType": "address",
          "name": "user",
          "type": "address"
        },
        {
          "indexed": false,
          "internalType": "uint256",
          "name": "amount",
          "type": "uint256"
        }
      ],
      "name": "Deposited",
      "type": "event"
    },
    {
      "anonymous": false,
      "inputs": [
        {
          "indexed": true,
          "internalType": "address",
          "name": "token",
          "type": "address"
        },
        {
          "indexed": false,
          "internalType": "uint256",
          "name": "rewardRate",
          "type": "uint256"
        }
      ],
      "name": "FarmCreated",
      "type": "event"
    },
    {
      "anonymous": false,
      "inputs": [
        {
          "indexed": true,
          "internalType": "address",
          "name": "user",
          "type": "address"
        },
        {
          "indexed": true,
          "internalType": "address",
          "name": "token",
          "type": "address"
        },
        {
          "indexed": false,
          "internalType": "uint256",
          "name": "amount",
          "type": "uint256"
        }
      ],
      "name": "FarmDeposited",
      "type": "event"
    },
    {
      "anonymous": false,
      "inputs": [
        {
          "indexed": true,
          "internalType": "address",
          "name": "user",
          "type": "address"
        },
        {
          "indexed": true,
          "internalType": "address",
          "name": "token",
          "type": "address"
        },
        {
          "indexed": false,
          "internalType": "uint256",
          "name": "amount",
          "type": "uint256"
        }
      ],
      "name": "FarmRewardsClaimed",
      "type": "event"
    },
    {
      "anonymous": false,
      "inputs": [
        {
          "indexed": true,
          "internalType": "address",
          "name": "user",
          "type": "address"
        },
        {
          "indexed": true,
          "internalType": "address",
          "name": "token",
          "type": "address"
        },
        {
          "indexed": false,
          "internalType": "uint256",
          "name": "amount",
          "type": "uint256"
        }
      ],
      "name": "FarmWithdrawn",
      "type": "event"
    },
    {
      "anonymous": false,
      "inputs": [
        {
          "indexed": false,
          "internalType": "uint64",
          "name": "version",
          "type": "uint64"
        }
      ],
      "name": "Initialized",
      "type": "event"
    },
    {
      "anonymous": false,
      "inputs": [
        {
          "indexed": true,
          "internalType": "address",
          "name": "previousOwner",
          "type": "address"
        },
        {
          "indexed": true,
          "internalType": "address",
          "name": "newOwner",
          "type": "address"
        }
      ],
      "name": "OwnershipTransferred",
      "type": "event"
    },
    {
      "anonymous": false,
      "inputs": [
        {
          "indexed": true,
          "internalType": "address",
          "name": "from",
          "type": "address"
        },
        {
          "indexed": true,
          "internalType": "address",
          "name": "to",
          "type": "address"
        },
        {
          "indexed": false,
          "internalType": "uint256",
          "name": "value",
          "type": "uint256"
        }
      ],
      "name": "Transfer",
      "type": "event"
    },
    {
      "anonymous": false,
      "inputs": [
        {
          "indexed": true,
          "internalType": "address",
          "name": "implementation",
          "type": "address"
        }
      ],
      "name": "Upgraded",
      "type": "event"
    },
    {
      "anonymous": false,
      "inputs": [
        {
          "indexed": true,
          "internalType": "address",
          "name": "user",
          "type": "address"
        },
        {
          "indexed": false,
          "internalType": "uint256",
          "name": "amount",
          "type": "uint256"
        }
      ],
      "name": "Withdrawn",
      "type": "event"
    },
    {
      "anonymous": false,
      "inputs": [
        {
          "indexed": true,
          "internalType": "address",
          "name": "user",
          "type": "address"
        },
        {
          "indexed": false,
          "internalType": "uint256",
          "name": "amount",
          "type": "uint256"
        }
      ],
      "name": "YieldClaimed",
      "type": "event"
    },
    {
      "inputs": [],
      "name": "SECONDS_PER_YEAR",
      "outputs": [
        {
          "internalType": "uint256",
          "name": "",
          "type": "uint256"
        }
      ],
      "stateMutability": "view",
      "type": "function"
    },
    {
      "inputs": [],
      "name": "UPGRADE_INTERFACE_VERSION",
      "outputs": [
        {
          "internalType": "string",
          "name": "",
          "type": "string"
        }
      ],
      "stateMutability": "view",
      "type": "function"
    },
    {
      "inputs": [
        {
          "internalType": "address",
          "name": "owner",
          "type": "address"
        },
        {
          "internalType": "address",
          "name": "spender",
          "type": "address"
        }
      ],
      "name": "allowance",
      "outputs": [
        {
          "internalType": "uint256",
          "name": "",
          "type": "uint256"
        }
      ],
      "stateMutability": "view",
      "type": "function"
    },
    {
      "inputs": [
        {
          "internalType": "address",
          "name": "spender",
          "type": "address"
        },
        {
          "internalType": "uint256",
          "name": "value",
          "type": "uint256"
        }
      ],
      "name": "approve",
      "outputs": [
        {
          "internalType": "bool",
          "name": "",
          "type": "bool"
        }
      ],
      "stateMutability": "nonpayable",
      "type": "function"
    },
    {
      "inputs": [
        {
          "internalType": "address",
          "name": "user",
          "type": "address"
        }
      ],
      "name": "autoCompound",
      "outputs": [],
      "stateMutability": "nonpayable",
      "type": "function"
    },
    {
      "inputs": [],
      "name": "autoCompoundBonus",
      "outputs": [
        {
          "internalType": "uint256",
          "name": "",
          "type": "uint256"
        }
      ],
      "stateMutability": "view",
      "type": "function"
    },
    {
      "inputs": [
        {
          "internalType": "address",
          "name": "account",
          "type": "address"
        }
      ],
      "name": "balanceOf",
      "outputs": [
        {
          "internalType": "uint256",
          "name": "",
          "type": "uint256"
        }
      ],
      "stateMutability": "view",
      "type": "function"
    },
    {
      "inputs": [],
      "name": "baseYieldRate",
      "outputs": [
        {
          "internalType": "uint256",
          "name": "",
          "type": "uint256"
        }
      ],
      "stateMutability": "view",
      "type": "function"
    },
    {
      "inputs": [
        {
          "internalType": "address",
          "name": "user",
          "type": "address"
        }
      ],
      "name": "calculatePendingYield",
      "outputs": [
        {
          "internalType": "uint256",
          "name": "",
          "type": "uint256"
        }
      ],
      "stateMutability": "view",
      "type": "function"
    },
    {
      "inputs": [
        {
          "internalType": "address",
          "name": "token",
          "type": "address"
        }
      ],
      "name": "claimFarmRewards",
      "outputs": [],
      "stateMutability": "nonpayable",
      "type": "function"
    },
    {
      "inputs": [],
      "name": "claimYield",
      "outputs": [],
      "stateMutability": "nonpayable",
      "type": "function"
    },
    {
      "inputs": [
        {
          "internalType": "address",
          "name": "token",
          "type": "address"
        },
        {
          "internalType": "uint256",
          "name": "rewardRate",
          "type": "uint256"
        }
      ],
      "name": "createFarm",
      "outputs": [],
      "stateMutability": "nonpayable",
      "type": "function"
    },
    {
      "inputs": [],
      "name": "decimals",
      "outputs": [
        {
          "internalType": "uint8",
          "name": "",
          "type": "uint8"
        }
      ],
      "stateMutability": "view",
      "type": "function"
    },
    {
      "inputs": [
        {
          "internalType": "uint256",
          "name": "amount",
          "type": "uint256"
        }
      ],
      "name": "deposit",
      "outputs": [],
      "stateMutability": "nonpayable",
      "type": "function"
    },
    {
      "inputs": [
        {
          "internalType": "uint256",
          "name": "amount",
          "type": "uint256"
        },
        {
          "internalType": "bool",
          "name": "autoCompound",
          "type": "bool"
        },
        {
          "internalType": "uint256",
          "name": "lockPeriod",
          "type": "uint256"
        }
      ],
      "name": "deposit",
      "outputs": [],
      "stateMutability": "nonpayable",
      "type": "function"
    },
    {
      "inputs": [
        {
          "internalType": "address",
          "name": "token",
          "type": "address"
        },
        {
          "internalType": "uint256",
          "name": "amount",
          "type": "uint256"
        }
      ],
      "name": "depositToFarm",
      "outputs": [],
      "stateMutability": "nonpayable",
      "type": "function"
    },
    {
      "inputs": [],
      "name": "emergencyWithdraw",
      "outputs": [],
      "stateMutability": "nonpayable",
      "type": "function"
    },
    {
      "inputs": [
        {
          "internalType": "address",
          "name": "user",
          "type": "address"
        }
      ],
      "name": "getPosition",
      "outputs": [
        {
          "internalType": "uint256",
          "name": "amount",
          "type": "uint256"
        },
        {
          "internalType": "uint256",
          "name": "depositTime",
          "type": "uint256"
        },
        {
          "internalType": "uint256",
          "name": "lastClaimTime",
          "type": "uint256"
        },
        {
          "internalType": "uint256",
          "name": "pendingYield",
          "type": "uint256"
        },
        {
          "internalType": "uint256",
          "name": "totalAccumulated",
          "type": "uint256"
        }
      ],
      "stateMutability": "view",
      "type": "function"
    },
    {
      "inputs": [
        {
          "internalType": "address",
          "name": "_underlyingToken",
          "type": "address"
        },
        {
          "internalType": "string",
          "name": "name",
          "type": "string"
        },
        {
          "internalType": "string",
          "name": "symbol",
          "type": "string"
        }
      ],
      "name": "initialize",
      "outputs": [],
      "stateMutability": "nonpayable",
      "type": "function"
    },
    {
      "inputs": [],
      "name": "lockBonusMultiplier",
      "outputs": [
        {
          "internalType": "uint256",
          "name": "",
          "type": "uint256"
        }
      ],
      "stateMutability": "view",
      "type": "function"
    },
    {
      "inputs": [
        {
          "internalType": "address",
          "name": "",
          "type": "address"
        }
      ],
      "name": "multiTokenFarms",
      "outputs": [
        {
          "internalType": "address",
          "name": "token",
          "type": "address"
        },
        {
          "internalType": "uint256",
          "name": "totalStaked",
          "type": "uint256"
        },
        {
          "internalType": "uint256",
          "name": "rewardRate",
          "type": "uint256"
        },
        {
          "internalType": "uint256",
          "name": "lastRewardTime",
          "type": "uint256"
        },
        {
          "internalType": "uint256",
          "name": "rewardPerTokenStored",
          "type": "uint256"
        },
        {
          "internalType": "bool",
          "name": "active",
          "type": "bool"
        }
      ],
      "stateMutability": "view",
      "type": "function"
    },
    {
      "inputs": [],
      "name": "name",
      "outputs": [
        {
          "internalType": "string",
          "name": "",
          "type": "string"
        }
      ],
      "stateMutability": "view",
      "type": "function"
    },
    {
      "inputs": [],
      "name": "owner",
      "outputs": [
        {
          "internalType": "address",
          "name": "",
          "type": "address"
        }
      ],
      "stateMutability": "view",
      "type": "function"
    },
    {
      "inputs": [
        {
          "internalType": "address",
          "name": "",
          "type": "address"
        }
      ],
      "name": "positions",
      "outputs": [
        {
          "internalType": "uint256",
          "name": "amount",
          "type": "uint256"
        },
        {
          "internalType": "uint256",
          "name": "depositTime",
          "type": "uint256"
        },
        {
          "internalType": "uint256",
          "name": "lastClaimTime",
          "type": "uint256"
        },
        {
          "internalType": "uint256",
          "name": "accumulatedYield",
          "type": "uint256"
        },
        {
          "internalType": "bool",
          "name": "autoCompound",
          "type": "bool"
        },
        {
          "internalType": "uint256",
          "name": "lockPeriod",
          "type": "uint256"
        }
      ],
      "stateMutability": "view",
      "type": "function"
    },
    {
      "inputs": [],
      "name": "proxiableUUID",
      "outputs": [
        {
          "internalType": "bytes32",
          "name": "",
          "type": "bytes32"
        }
      ],
      "stateMutability": "view",
      "type": "function"
    },
    {
      "inputs": [],
      "name": "renounceOwnership",
      "outputs": [],
      "stateMutability": "nonpayable",
      "type": "function"
    },
    {
      "inputs": [
        {
          "internalType": "uint256",
          "name": "",
          "type": "uint256"
        }
      ],
      "name": "supportedFarmTokens",
      "outputs": [
        {
          "internalType": "address",
          "name": "",
          "type": "address"
        }
      ],
      "stateMutability": "view",
      "type": "function"
    },
    {
      "inputs": [],
      "name": "symbol",
      "outputs": [
        {
          "internalType": "string",
          "name": "",
          "type": "string"
        }
      ],
      "stateMutability": "view",
      "type": "function"
    },
    {
      "inputs": [],
      "name": "totalStaked",
      "outputs": [
        {
          "internalType": "uint256",
          "name": "",
          "type": "uint256"
        }
      ],
      "stateMutability": "view",
      "type": "function"
    },
    {
      "inputs": [],
      "name": "totalSupply",
      "outputs": [
        {
          "internalType": "uint256",
          "name": "",
          "type": "uint256"
        }
      ],
      "stateMutability": "view",
      "type": "function"
    },
    {
      "inputs": [],
      "name": "totalValueLocked",
      "outputs": [
        {
          "internalType": "uint256",
          "name": "",
          "type": "uint256"
        }
      ],
      "stateMutability": "view",
      "type": "function"
    },
    {
      "inputs": [
        {
          "internalType": "address",
          "name": "to",
          "type": "address"
        },
        {
          "internalType": "uint256",
          "name": "value",
          "type": "uint256"
        }
      ],
      "name": "transfer",
      "outputs": [
        {
          "internalType": "bool",
          "name": "",
          "type": "bool"
        }
      ],
      "stateMutability": "nonpayable",
      "type": "function"
    },
    {
      "inputs": [
        {
          "internalType": "address",
          "name": "from",
          "type": "address"
        },
        {
          "internalType": "address",
          "name": "to",
          "type": "address"
        },
        {
          "internalType": "uint256",
          "name": "value",
          "type": "uint256"
        }
      ],
      "name": "transferFrom",
      "outputs": [
        {
          "internalType": "bool",
          "name": "",
          "type": "bool"
        }
      ],
      "stateMutability": "nonpayable",
      "type": "function"
    },
    {
      "inputs": [
        {
          "internalType": "address",
          "name": "newOwner",
          "type": "address"
        }
      ],
      "name": "transferOwnership",
      "outputs": [],
      "stateMutability": "nonpayable",
      "type": "function"
    },
    {
      "inputs": [],
      "name": "underlyingToken",
      "outputs": [
        {
          "internalType": "address",
          "name": "",
          "type": "address"
        }
      ],
      "stateMutability": "view",
      "type": "function"
    },
    {
      "inputs": [
        {
          "internalType": "address",
          "name": "newImplementation",
          "type": "address"
        },
        {
          "internalType": "bytes",
          "name": "data",
          "type": "bytes"
        }
      ],
      "name": "upgradeToAndCall",
      "outputs": [],
      "stateMutability": "payable",
      "type": "function"
    },
    {
      "inputs": [
        {
          "internalType": "uint256",
          "name": "amount",
          "type": "uint256"
        }
      ],
      "name": "withdraw",
      "outputs": [],
      "stateMutability": "nonpayable",
      "type": "function"
    },
    {
      "inputs": [
        {
          "internalType": "address",
          "name": "token",
          "type": "address"
        },
        {
          "internalType": "uint256",
          "name": "amount",
          "type": "uint256"
        }
      ],
      "name": "withdrawFromFarm",
      "outputs": [],
      "stateMutability": "nonpayable",
      "type": "function"
    }
  ],
  "bytecode": "0x60a080604052346029573060805261264c908161002f823960805181818161113501526111db0152f35b600080fdfe6080604052600436101561001257600080fd5b60003560e01c80630562322f14611aa857806306fdde03146119e6578063095ea7b31461196557806316c19739146118b057806318160ddd1461188557806323b872dd146117a15780632495a599146117785780632e1a7d4d1461156b578063313ce5671461154f5780633236bee4146115245780633ee84f4414611503578063406cf229146114cd5780634373137d146113a15780634f1ef2861461118c57806352d1902d1461112257806355f57510146110ac5780636d2657da14610f3257806370a0823114610eeb578063715018a614610e81578063817b1cd2146103ee5780638da5cb5b14610e4b578063906571471461095757806395d89b4114610864578063974d946914610846578063978ac77f14610828578063a9059cbb146107f7578063ad3cb1cc146107b4578063b39528b414610772578063b6b55f2514610685578063db2e21bc14610591578063dbc48b9114610474578063dd62ed3e1461042b578063e6a69ab81461040c578063ec18154e146103ee578063f014beec1461028a578063f266a2131461026c578063f2fde38b146102415763f9e18aa0146101be57600080fd5b3461023c57602036600319011261023c576001600160a01b036101df611bf4565b16600052600360205260c0604060002060018060a01b0381541690600181015490600281015460038201549060ff6007600485015494015416936040519586526020860152604085015260608401526080830152151560a0820152f35b600080fd5b3461023c57602036600319011261023c5761026a61025d611bf4565b610265612451565b6120dd565b005b3461023c57600036600319011261023c576020600054604051908152f35b3461023c57606036600319011261023c5760043560243580151580910361023c576102b3612153565b6102be821515611d82565b6005546040516323b872dd60e01b81523360048201523060248201526044810184905290602090829060649082906000906001600160a01b03165af180156103e2576103b5575b5033600052600760205260406000209081546103a7575b610327838354611e19565b8255426001830155426002830155600482019060ff80198354169116179055600560443591015561035a81600654611e19565b60065561036781336123cb565b6040519081527f2da466a7b24304f47e87fa2e1e5a81b9831ce54fec19055ce277ca2f39ba42c460203392a260016000805160206125d783398151915255005b6103b033612341565b61031c565b6103d69060203d6020116103db575b6103ce8183611c85565b810190611e01565b610305565b503d6103c4565b6040513d6000823e3d90fd5b3461023c57600036600319011261023c576020600654604051908152f35b3461023c57600036600319011261023c5760206040516301e133808152f35b3461023c57604036600319011261023c57610444611bf4565b61045561044f611c0a565b91611cfa565b9060018060a01b03166000526020526020604060002054604051908152f35b3461023c57604036600319011261023c5761048d611bf4565b602435610498612153565b6001600160a01b038216600081815260036020526040902090926104d0906104c1841515611d82565b6104ca8161218f565b33612213565b3360009081526006830160205260409020805490916104ee91611e19565b905560405163a9059cbb60e01b815233600482015260248101839052906020826044816000885af19182156103e257600192610574575b5001610532828254611e76565b90556040519081527fcd2eb448034a10a99311e108dbb03778a53a5a2ea42ccc36674a101ae2ada21960203392a360016000805160206125d783398151915255005b61058c9060203d6020116103db576103ce8183611c85565b610525565b3461023c57600036600319011261023c576105aa612451565b6005546040516370a0823160e01b81523060048201526001600160a01b0390911690602081602481855afa9081156103e257600091610651575b506000805160206125778339815191525460405163a9059cbb60e01b81526001600160a01b039091166004820152602481019190915290602090829081600081604481015b03925af180156103e25761063957005b61026a9060203d6020116103db576103ce8183611c85565b90506020813d60201161067d575b8161066c60209383611c85565b8101031261023c57516106296105e4565b3d915061065f565b3461023c57602036600319011261023c576004356106a1612153565b6106a9612153565b6106b4811515611d82565b6005546040516323b872dd60e01b81523360048201523060248201526044810183905290602090829060649082906000906001600160a01b03165af180156103e257610755575b5033600052600760205260006005604082208054610747575b61071f848254611e19565b81554260018201554260028201556004810160ff198154169055015561035a81600654611e19565b61075033612341565b610714565b61076d9060203d6020116103db576103ce8183611c85565b6106fb565b3461023c57602036600319011261023c5760043560045481101561023c5761079b602091611d51565b905460405160039290921b1c6001600160a01b03168152f35b3461023c57600036600319011261023c576107f360408051906107d78183611c85565b60058252640352e302e360dc1b60208301525191829182611c20565b0390f35b3461023c57604036600319011261023c5761081d610813611bf4565b6024359033612268565b602060405160018152f35b3461023c57600036600319011261023c576020600154604051908152f35b3461023c57600036600319011261023c576020600254604051908152f35b3461023c57600036600319011261023c5760405160006000805160206125578339815191525461089381611e3c565b808452906001811690811561093357506001146108c7575b6107f3836108bb81850382611c85565b60405191829182611c20565b60008051602061255783398151915260009081527f46a2803e59a4de4e7a4c574b1243f25977ac4c77d5a1a4a609b5394cebb4a2aa939250905b808210610919575090915081016020016108bb6108ab565b919260018160209254838588010152019101909291610901565b60ff191660208086019190915291151560051b840190910191506108bb90506108ab565b3461023c57606036600319011261023c57610970611bf4565b60243567ffffffffffffffff811161023c57610990903690600401611d33565b9060443567ffffffffffffffff811161023c576109b1903690600401611d33565b906000805160206125f7833981519152549060ff8260401c16159167ffffffffffffffff811680159081610e43575b6001149081610e39575b159081610e30575b50610e1f5767ffffffffffffffff1981166001176000805160206125f78339815191525582610df2575b50610a25612487565b610a2d612487565b835167ffffffffffffffff8111610cde57610a5660008051602061251783398151915254611e3c565b601f8111610d80575b50602094601f8211600114610cff57948192939495600092610cf4575b50508160011b916000199060031b1c191617600080516020612517833981519152555b825167ffffffffffffffff8111610cde57610ac860008051602061255783398151915254611e3c565b601f8111610c6c575b506020601f8211600114610beb5781929394600092610be0575b50508160011b916000199060031b1c191617600080516020612557833981519152555b610b16612487565b610b1e612487565b610b27336120dd565b610b2f612487565b610b37612487565b60016000805160206125d783398151915255610b51612487565b60018060a01b03166bffffffffffffffffffffffff60a01b60055416176005556101f460005560c86001556096600255610b8757005b68ff0000000000000000196000805160206125f783398151915254166000805160206125f7833981519152557fc7f505b2f371ae2175ee4913f4499e1f2633a7b5936321eed1cdaeb6115181d2602060405160018152a1005b015190508480610aeb565b601f19821690600080516020612557833981519152600052806000209160005b818110610c5457509583600195969710610c3b575b505050811b0160008051602061255783398151915255610b0e565b015160001960f88460031b161c19169055848080610c20565b9192602060018192868b015181550194019201610c0b565b6000805160206125578339815191526000527f46a2803e59a4de4e7a4c574b1243f25977ac4c77d5a1a4a609b5394cebb4a2aa601f830160051c81019160208410610cd4575b601f0160051c01905b818110610cc85750610ad1565b60008155600101610cbb565b9091508190610cb2565b634e487b7160e01b600052604160045260246000fd5b015190508580610a7c565b601f19821695600080516020612517833981519152600052806000209160005b888110610d6857508360019596979810610d4f575b505050811b0160008051602061251783398151915255610a9f565b015160001960f88460031b161c19169055858080610d34565b91926020600181928685015181550194019201610d1f565b6000805160206125178339815191526000527f2ae08a8e29253f69ac5d979a101956ab8f8d9d7ded63fa7a83b16fc47648eab0601f830160051c81019160208410610de8575b601f0160051c01905b818110610ddc5750610a5f565b60008155600101610dcf565b9091508190610dc6565b68ffffffffffffffffff191668010000000000000001176000805160206125f78339815191525584610a1c565b63f92ee8a960e01b60005260046000fd5b905015866109f2565b303b1591506109ea565b8491506109e0565b3461023c57600036600319011261023c57600080516020612577833981519152546040516001600160a01b039091168152602090f35b3461023c57600036600319011261023c57610e9a612451565b60008051602061257783398151915280546001600160a01b031981169091556000906001600160a01b03167f8be0079c531659141344cd1fd0a4f28419497f9722a3daafe3b4186f6b6457e08280a3005b3461023c57602036600319011261023c576001600160a01b03610f0c611bf4565b166000526000805160206125378339815191526020526020604060002054604051908152f35b3461023c57604036600319011261023c57610f4b611bf4565b60243590610f57612451565b6001600160a01b0316908115611077576000828152600360205260409020546001600160a01b031661103c576000828152600360208190526040822080546001600160a01b031916851781556001808201849055600282018590554292820192909255600480820193909355600701805460ff191690911790555468010000000000000000811015610cde577f34b3dd1d28b1eecc9baba399815f4fddce8f9552a4115831754a011a68943e699161101782600160209401600455611d51565b81546001600160a01b0360039290921b91821b19169086901b179055604051908152a2005b60405162461bcd60e51b81526020600482015260136024820152724661726d20616c72656164792065786973747360681b6044820152606490fd5b60405162461bcd60e51b815260206004820152600d60248201526c24b73b30b634b2103a37b5b2b760991b6044820152606490fd5b3461023c57602036600319011261023c576001600160a01b036110cd611bf4565b16600052600760205260c060406000208054906001810154906002810154600382015490600560ff600485015416930154936040519586526020860152604085015260608401521515608083015260a0820152f35b3461023c57600036600319011261023c577f00000000000000000000000000000000000000000000000000000000000000006001600160a01b0316300361117b5760206040516000805160206125b78339815191528152f35b63703e46dd60e11b60005260046000fd5b604036600319011261023c576111a0611bf4565b60243567ffffffffffffffff811161023c573660238201121561023c576111d1903690602481600401359101611cc3565b6001600160a01b037f00000000000000000000000000000000000000000000000000000000000000001630811490811561137e575b5061117b57611213612451565b6040516352d1902d60e01b81526001600160a01b0383169290602081600481875afa6000918161134a575b506112585783634c9c8ce360e01b60005260045260246000fd5b806000805160206125b78339815191528592036113365750813b15611322576000805160206125b783398151915280546001600160a01b031916821790557fbc7cd75a20ee27fd9adebab32041f755214dbc6bffa90cc0225b39da2e5c2d3b600080a28151156113085760008083602061026a95519101845af43d15611300573d916112e383611ca7565b926112f16040519485611c85565b83523d6000602085013e6124b5565b6060916124b5565b50503461131157005b63b398979f60e01b60005260046000fd5b634c9c8ce360e01b60005260045260246000fd5b632a87526960e21b60005260045260246000fd5b9091506020813d602011611376575b8161136660209383611c85565b8101031261023c5751908561123e565b3d9150611359565b6000805160206125b7833981519152546001600160a01b03161415905083611206565b3461023c57602036600319011261023c576113ba611bf4565b6113c2612153565b60018060a01b0381169081600052600360205260406000206113ea60ff600783015416611dc3565b6113f38261218f565b611421600682019260018060a01b0333166000528360205261141b6040600020549133612213565b90611e19565b91821561149b573360008181526020928352604080822082905560048501546005909501909352919091209190915561145b9082906123cb565b6040519081527f2d2b8e27c71f652aae9bd22f2f42323a7fd5142b9924e9d0029653746ea966eb60203392a360016000805160206125d783398151915255005b60405162461bcd60e51b815260206004820152600a6024820152694e6f207265776172647360b01b6044820152606490fd5b3461023c57600036600319011261023c576114e6612153565b6114ef33612341565b60016000805160206125d783398151915255005b3461023c57602036600319011261023c5761026a61151f611bf4565b611f9a565b3461023c57602036600319011261023c576020611547611542611bf4565b611e96565b604051908152f35b3461023c57600036600319011261023c57602060405160128152f35b3461023c57602036600319011261023c57600435611587612153565b611592811515611d82565b33600052600760205260406000208181541061173c576115b133612341565b6115bc828254611e76565b90556115ca81600654611e76565b600655331561172657600033815260008051602061253783398151915260205260408120549180831061170d57808333845260008051602061253783398151915260205203604083205580600080516020612597833981519152540360008051602061259783398151915255816040518281527fddf252ad1be2c89b69c2b068fc378daa952ba7f163c4a11628f55a4df523b3ef60203392a360055460405163a9059cbb60e01b815233600482015260248101839052906020908290604490829087906001600160a01b03165af18015611702576116e5575b506040519081527f7084f5476618d8e60b11ef0d7d3f06914655adb8793e28ff7f018d4c76d505d560203392a260016000805160206125d78339815191525580f35b6116fd9060203d6020116103db576103ce8183611c85565b6116a3565b6040513d85823e3d90fd5b60649263391434e360e21b835233600452602452604452fd5b634b637e8f60e11b600052600060045260246000fd5b60405162461bcd60e51b8152602060048201526014602482015273496e73756666696369656e742062616c616e636560601b6044820152606490fd5b3461023c57600036600319011261023c576005546040516001600160a01b039091168152602090f35b3461023c57606036600319011261023c576117ba611bf4565b6117c2611c0a565b604435906117cf83611cfa565b33600090815260209190915260409020549260001984106117f5575b61081d9350612268565b828410611868576001600160a01b0381161561185257331561183c5761081d9361181e82611cfa565b60018060a01b033316600052602052836040600020910390556117eb565b634a1406b160e11b600052600060045260246000fd5b63e602df0560e01b600052600060045260246000fd5b8284637dc7a0d960e11b6000523360045260245260445260646000fd5b3461023c57600036600319011261023c57602060008051602061259783398151915254604051908152f35b3461023c57602036600319011261023c5760a06118cb611bf4565b600180831b03811660005260076020526040600020906040516118ed81611c69565b825481526001830154926020820193845261194861193a6002830154946040850195865260056003850154946060870195865260ff60048201541615156080880152015488860152611e96565b809351955194519251611e19565b926040519485526020850152604084015260608301526080820152f35b3461023c57604036600319011261023c5761197e611bf4565b602435903315611852576001600160a01b031690811561183c576119a133611cfa565b82600052602052806040600020556040519081527f8c5be1e5ebec7d5bd14f71427d1e84f3dd0314c0f7b2291e5b200ac8c7c3b92560203392a3602060405160018152f35b3461023c57600036600319011261023c57604051600060008051602061251783398151915254611a1581611e3c565b80845290600181169081156109335750600114611a3c576107f3836108bb81850382611c85565b60008051602061251783398151915260009081527f2ae08a8e29253f69ac5d979a101956ab8f8d9d7ded63fa7a83b16fc47648eab0939250905b808210611a8e575090915081016020016108bb6108ab565b919260018160209254838588010152019101909291611a76565b3461023c57604036600319011261023c57611ac1611bf4565b602435611acc612153565b611ad7811515611d82565b60018060a01b038216918260005260036020526040600020611aff60ff600783015416611dc3565b6040516323b872dd60e01b815233600482015230602482015260448101849052916020836064816000895af19081156103e257600193611b4892611bd7575b506104ca8161218f565b828060a01b03331660005260068201602052611b6a6040600020918254611e19565b90556004810154828060a01b0333166000526005820160205260406000205501611b95828254611e19565b90556040519081527f20e229574d4da6730cc23c746c927319c7f4fa7f5d70fb85117c5ee41dcc85ee60203392a360016000805160206125d783398151915255005b611bef9060203d6020116103db576103ce8183611c85565b611b3e565b600435906001600160a01b038216820361023c57565b602435906001600160a01b038216820361023c57565b91909160208152825180602083015260005b818110611c53575060409293506000838284010152601f8019910116010190565b8060208092870101516040828601015201611c32565b60c0810190811067ffffffffffffffff821117610cde57604052565b90601f8019910116810190811067ffffffffffffffff821117610cde57604052565b67ffffffffffffffff8111610cde57601f01601f191660200190565b929192611ccf82611ca7565b91611cdd6040519384611c85565b82948184528183011161023c578281602093846000960137010152565b6001600160a01b031660009081527f52c63247e1f47db19d5ce0460030c497f067ca4cebf71ba98eeadabe20bace016020526040902090565b9080601f8301121561023c57816020611d4e93359101611cc3565b90565b600454811015611d6c57600460005260206000200190600090565b634e487b7160e01b600052603260045260246000fd5b15611d8957565b60405162461bcd60e51b81526020600482015260126024820152710416d6f756e74206d757374206265203e20360741b6044820152606490fd5b15611dca57565b60405162461bcd60e51b815260206004820152600f60248201526e4661726d206e6f742061637469766560881b6044820152606490fd5b9081602091031261023c5751801515810361023c5790565b91908201809211611e2657565b634e487b7160e01b600052601160045260246000fd5b90600182811c92168015611e6c575b6020831014611e5657565b634e487b7160e01b600052602260045260246000fd5b91607f1691611e4b565b91908203918211611e2657565b81810292918115918404141715611e2657565b60018060a01b031660005260076020526040600020604051611eb781611c69565b815480825260018301549160208101928352600284015480604083015260038501546060830152600560ff6004870154169560808401961515875201549260a0830193845215611f905764496cebb80091611f23611f18611f289342611e76565b915160005490611e83565b611e83565b04809351611f6d575b50518015159182611f59575b5050611f465790565b611f5560649160025490611e83565b0490565b611f64925051611e19565b42103880611f3d565b611f89919350612710611f8260015483611e83565b0490611e19565b9138611f31565b5050505050600090565b6001600160a01b038116600081815260076020526040902060048101549192909160ff1615612098578154801561206557611fd482611e96565b90811561205e578160209360037fc04825ba3f383b602255d2a13065a68e325c65c9e0ed5d031ea2b06f641873af966120108461202b96611e19565b815542600282015501612024838254611e19565b90556123cb565b837f95b16666f2ba8078d36b18fc489cc80a51e48a2ef77a4075b8bd795f07320f2883604051848152a2604051908152a2565b5050505050565b60405162461bcd60e51b815260206004820152600b60248201526a2737903837b9b4ba34b7b760a91b6044820152606490fd5b60405162461bcd60e51b815260206004820152601960248201527f4175746f2d636f6d706f756e64206e6f7420656e61626c6564000000000000006044820152606490fd5b6001600160a01b0316801561213d5760008051602061257783398151915280546001600160a01b0319811683179091556001600160a01b03167f8be0079c531659141344cd1fd0a4f28419497f9722a3daafe3b4186f6b6457e0600080a3565b631e4fbdf760e01b600052600060045260246000fd5b60026000805160206125d7833981519152541461217e5760026000805160206125d783398151915255565b633ee5aeb560e01b60005260046000fd5b6001600160a01b0316600090815260036020526040902060018101549081156122095760038101916121cf6121c5845442611e76565b6002840154611e83565b670de0b6b3a7640000810290808204670de0b6b3a76400001490151715611e265761220291600491049201918254611e19565b9055429055565b9050600342910155565b611f5590670de0b6b3a76400009260018060a01b03166000526003602052600161225f604060002092600484015490838060a01b03166000526005840160205260406000205490611e76565b91015490611e83565b6001600160a01b0316908115611726576001600160a01b031691821561232b57600082815260008051602061253783398151915260205260408120548281106123115791604082827fddf252ad1be2c89b69c2b068fc378daa952ba7f163c4a11628f55a4df523b3ef95876020965260008051602061253783398151915286520382822055868152600080516020612537833981519152845220818154019055604051908152a3565b916064928463391434e360e21b8452600452602452604452fd5b63ec442f0560e01b600052600060045260246000fd5b6001600160a01b03811660008181526007602052604090208054919291156123c65761236c82611e96565b80156123c0576123b7817fc04825ba3f383b602255d2a13065a68e325c65c9e0ed5d031ea2b06f641873af94846003602096016123aa848254611e19565b90556002429101556123cb565b604051908152a2565b50505050565b505050565b6001600160a01b031690811561232b577fddf252ad1be2c89b69c2b068fc378daa952ba7f163c4a11628f55a4df523b3ef60208261241a60009460008051602061259783398151915254611e19565b60008051602061259783398151915255848452600080516020612537833981519152825260408420818154019055604051908152a3565b600080516020612577833981519152546001600160a01b0316330361247257565b63118cdaa760e01b6000523360045260246000fd5b60ff6000805160206125f78339815191525460401c16156124a457565b631afcd79f60e31b60005260046000fd5b906124db57508051156124ca57602081519101fd5b63d6bda27560e01b60005260046000fd5b8151158061250d575b6124ec575090565b639996b31560e01b60009081526001600160a01b0391909116600452602490fd5b50803b156124e456fe52c63247e1f47db19d5ce0460030c497f067ca4cebf71ba98eeadabe20bace0352c63247e1f47db19d5ce0460030c497f067ca4cebf71ba98eeadabe20bace0052c63247e1f47db19d5ce0460030c497f067ca4cebf71ba98eeadabe20bace049016d09d72d40fdae2fd8ceac6b6234c7706214fd39c1cd1e609a0528c19930052c63247e1f47db19d5ce0460030c497f067ca4cebf71ba98eeadabe20bace02360894a13ba1a3210667c828492db98dca3e2076cc3735a920a3ca505d382bbc9b779b17422d0df92223018b32b4d1fa46e071723d6817e2486d003becc55f00f0c57e16840df040f15088dc2f81fe391c3923bec73e23a9662efc9c229c6a00a26469706673582212208f8850aa46ecb7316c2dd7fab310fbf092831bd2e74a10d0ee0a4e2a4b1fd1a964736f6c634300081c0033",
  "linkReferences": {},
  "deployedLinkReferences": {}
}