{
  "_format": "hh-sol-artifact-1",
  "contractName": "YieldToken",
  "sourceName": "contracts/YieldToken.sol",
  "abi": [
    {
      "inputs": [
        {
          "internalType": "address",
          "name": "target",
          "type": "address"
        }
      ],
      "name": "AddressEmptyCode",
      "type": "error"
    },
    {
      "inputs": [
        {
          "internalType": "address",
          "name": "implementation",
          "type": "address"
        }
      ],
      "name": "ERC1967InvalidImplementation",
      "type": "error"
    },
    {
      "inputs": [],
      "name": "ERC1967NonPayable",
      "type": "error"
    },
    {
      "inputs": [
        {
          "internalType": "address",
          "name": "spender",
          "type": "address"
        },
        {
          "internalType": "uint256",
          "name": "allowance",
          "type": "uint256"
        },
        {
          "internalType": "uint256",
          "name": "needed",
          "type": "uint256"
        }
      ],
      "name": "ERC20InsufficientAllowance",
      "type": "error"
    },
    {
      "inputs": [
        {
          "internalType": "address",
          "name": "sender",
          "type": "address"
        },
        {
          "internalType": "uint256",
          "name": "balance",
          "type": "uint256"
        },
        {
          "internalType": "uint256",
          "name": "needed",
          "type": "uint256"
        }
      ],
      "name": "ERC20InsufficientBalance",
      "type": "error"
    },
    {
      "inputs": [
        {
          "internalType": "address",
          "name": "approver",
          "type": "address"
        }
      ],
      "name": "ERC20InvalidApprover",
      "type": "error"
    },
    {
      "inputs": [
        {
          "internalType": "address",
          "name": "receiver",
          "type": "address"
        }
      ],
      "name": "ERC20InvalidReceiver",
      "type": "error"
    },
    {
      "inputs": [
        {
          "internalType": "address",
          "name": "sender",
          "type": "address"
        }
      ],
      "name": "ERC20InvalidSender",
      "type": "error"
    },
    {
      "inputs": [
        {
          "internalType": "address",
          "name": "spender",
          "type": "address"
        }
      ],
      "name": "ERC20InvalidSpender",
      "type": "error"
    },
    {
      "inputs": [],
      "name": "FailedCall",
      "type": "error"
    },
    {
      "inputs": [],
      "name": "InvalidInitialization",
      "type": "error"
    },
    {
      "inputs": [],
      "name": "NotInitializing",
      "type": "error"
    },
    {
      "inputs": [
        {
          "internalType": "address",
          "name": "owner",
          "type": "address"
        }
      ],
      "name": "OwnableInvalidOwner",
      "type": "error"
    },
    {
      "inputs": [
        {
          "internalType": "address",
          "name": "account",
          "type": "address"
        }
      ],
      "name": "OwnableUnauthorizedAccount",
      "type": "error"
    },
    {
      "inputs": [],
      "name": "ReentrancyGuardReentrantCall",
      "type": "error"
    },
    {
      "inputs": [],
      "name": "UUPSUnauthorizedCallContext",
      "type": "error"
    },
    {
      "inputs": [
        {
          "internalType": "bytes32",
          "name": "slot",
          "type": "bytes32"
        }
      ],
      "name": "UUPSUnsupportedProxiableUUID",
      "type": "error"
    },
    {
      "anonymous": false,
      "inputs": [
        {
          "indexed": true,
          "internalType": "address",
          "name": "owner",
          "type": "address"
        },
        {
          "indexed": true,
          "internalType": "address",
          "name": "spender",
          "type": "address"
        },
        {
          "indexed": false,
          "internalType": "uint256",
          "name": "value",
          "type": "uint256"
        }
      ],
      "name": "Approval",
      "type": "event"
    },
    {
      "anonymous": false,
      "inputs": [
        {
          "indexed": true,
          "internalType": "address",
          "name": "user",
          "type": "address"
        },
        {
          "indexed": false,
          "internalType": "uint256",
          "name": "amount",
          "type": "uint256"
        }
      ],
      "name": "AutoCompounded",
      "type": "event"
    },
    {
      "anonymous": false,
      "inputs": [
        {
          "indexed": true,
          "internalType": "address",
          "name": "user",
          "type": "address"
        },
        {
          "indexed": false,
          "internalType": "uint256",
          "name": "amount",
          "type": "uint256"
        }
      ],
      "name": "Deposited",
      "type": "event"
    },
    {
      "anonymous": false,
      "inputs": [
        {
          "indexed": true,
          "internalType": "address",
          "name": "token",
          "type": "address"
        },
        {
          "indexed": false,
          "internalType": "uint256",
          "name": "rewardRate",
          "type": "uint256"
        }
      ],
      "name": "FarmCreated",
      "type": "event"
    },
    {
      "anonymous": false,
      "inputs": [
        {
          "indexed": true,
          "internalType": "address",
          "name": "user",
          "type": "address"
        },
        {
          "indexed": true,
          "internalType": "address",
          "name": "token",
          "type": "address"
        },
        {
          "indexed": false,
          "internalType": "uint256",
          "name": "amount",
          "type": "uint256"
        }
      ],
      "name": "FarmDeposited",
      "type": "event"
    },
    {
      "anonymous": false,
      "inputs": [
        {
          "indexed": true,
          "internalType": "address",
          "name": "user",
          "type": "address"
        },
        {
          "indexed": true,
          "internalType": "address",
          "name": "token",
          "type": "address"
        },
        {
          "indexed": false,
          "internalType": "uint256",
          "name": "amount",
          "type": "uint256"
        }
      ],
      "name": "FarmRewardsClaimed",
      "type": "event"
    },
    {
      "anonymous": false,
      "inputs": [
        {
          "indexed": true,
          "internalType": "address",
          "name": "user",
          "type": "address"
        },
        {
          "indexed": true,
          "internalType": "address",
          "name": "token",
          "type": "address"
        },
        {
          "indexed": false,
          "internalType": "uint256",
          "name": "amount",
          "type": "uint256"
        }
      ],
      "name": "FarmWithdrawn",
      "type": "event"
    },
    {
      "anonymous": false,
      "inputs": [
        {
          "indexed": false,
          "internalType": "uint64",
          "name": "version",
          "type": "uint64"
        }
      ],
      "name": "Initialized",
      "type": "event"
    },
    {
      "anonymous": false,
      "inputs": [
        {
          "indexed": true,
          "internalType": "address",
          "name": "previousOwner",
          "type": "address"
        },
        {
          "indexed": true,
          "internalType": "address",
          "name": "newOwner",
          "type": "address"
        }
      ],
      "name": "OwnershipTransferred",
      "type": "event"
    },
    {
      "anonymous": false,
      "inputs": [
        {
          "indexed": true,
          "internalType": "address",
          "name": "from",
          "type": "address"
        },
        {
          "indexed": true,
          "internalType": "address",
          "name": "to",
          "type": "address"
        },
        {
          "indexed": false,
          "internalType": "uint256",
          "name": "value",
          "type": "uint256"
        }
      ],
      "name": "Transfer",
      "type": "event"
    },
    {
      "anonymous": false,
      "inputs": [
        {
          "indexed": true,
          "internalType": "address",
          "name": "implementation",
          "type": "address"
        }
      ],
      "name": "Upgraded",
      "type": "event"
    },
    {
      "anonymous": false,
      "inputs": [
        {
          "indexed": true,
          "internalType": "address",
          "name": "user",
          "type": "address"
        },
        {
          "indexed": false,
          "internalType": "uint256",
          "name": "amount",
          "type": "uint256"
        }
      ],
      "name": "Withdrawn",
      "type": "event"
    },
    {
      "anonymous": false,
      "inputs": [
        {
          "indexed": true,
          "internalType": "address",
          "name": "user",
          "type": "address"
        },
        {
          "indexed": false,
          "internalType": "uint256",
          "name": "amount",
          "type": "uint256"
        }
      ],
      "name": "YieldClaimed",
      "type": "event"
    },
    {
      "inputs": [],
      "name": "SECONDS_PER_YEAR",
      "outputs": [
        {
          "internalType": "uint256",
          "name": "",
          "type": "uint256"
        }
      ],
      "stateMutability": "view",
      "type": "function"
    },
    {
      "inputs": [],
      "name": "UPGRADE_INTERFACE_VERSION",
      "outputs": [
        {
          "internalType": "string",
          "name": "",
          "type": "string"
        }
      ],
      "stateMutability": "view",
      "type": "function"
    },
    {
      "inputs": [
        {
          "internalType": "address",
          "name": "owner",
          "type": "address"
        },
        {
          "internalType": "address",
          "name": "spender",
          "type": "address"
        }
      ],
      "name": "allowance",
      "outputs": [
        {
          "internalType": "uint256",
          "name": "",
          "type": "uint256"
        }
      ],
      "stateMutability": "view",
      "type": "function"
    },
    {
      "inputs": [
        {
          "internalType": "address",
          "name": "spender",
          "type": "address"
        },
        {
          "internalType": "uint256",
          "name": "value",
          "type": "uint256"
        }
      ],
      "name": "approve",
      "outputs": [
        {
          "internalType": "bool",
          "name": "",
          "type": "bool"
        }
      ],
      "stateMutability": "nonpayable",
      "type": "function"
    },
    {
      "inputs": [
        {
          "internalType": "address",
          "name": "user",
          "type": "address"
        }
      ],
      "name": "autoCompound",
      "outputs": [],
      "stateMutability": "nonpayable",
      "type": "function"
    },
    {
      "inputs": [],
      "name": "autoCompoundBonus",
      "outputs": [
        {
          "internalType": "uint256",
          "name": "",
          "type": "uint256"
        }
      ],
      "stateMutability": "view",
      "type": "function"
    },
    {
      "inputs": [
        {
          "internalType": "address",
          "name": "account",
          "type": "address"
        }
      ],
      "name": "balanceOf",
      "outputs": [
        {
          "internalType": "uint256",
          "name": "",
          "type": "uint256"
        }
      ],
      "stateMutability": "view",
      "type": "function"
    },
    {
      "inputs": [],
      "name": "baseYieldRate",
      "outputs": [
        {
          "internalType": "uint256",
          "name": "",
          "type": "uint256"
        }
      ],
      "stateMutability": "view",
      "type": "function"
    },
    {
      "inputs": [
        {
          "internalType": "address",
          "name": "user",
          "type": "address"
        }
      ],
      "name": "calculatePendingYield",
      "outputs": [
        {
          "internalType": "uint256",
          "name": "",
          "type": "uint256"
        }
      ],
      "stateMutability": "view",
      "type": "function"
    },
    {
      "inputs": [
        {
          "internalType": "address",
          "name": "token",
          "type": "address"
        }
      ],
      "name": "claimFarmRewards",
      "outputs": [],
      "stateMutability": "nonpayable",
      "type": "function"
    },
    {
      "inputs": [],
      "name": "claimYield",
      "outputs": [],
      "stateMutability": "nonpayable",
      "type": "function"
    },
    {
      "inputs": [
        {
          "internalType": "address",
          "name": "token",
          "type": "address"
        },
        {
          "internalType": "uint256",
          "name": "rewardRate",
          "type": "uint256"
        }
      ],
      "name": "createFarm",
      "outputs": [],
      "stateMutability": "nonpayable",
      "type": "function"
    },
    {
      "inputs": [],
      "name": "decimals",
      "outputs": [
        {
          "internalType": "uint8",
          "name": "",
          "type": "uint8"
        }
      ],
      "stateMutability": "view",
      "type": "function"
    },
    {
      "inputs": [
        {
          "internalType": "uint256",
          "name": "amount",
          "type": "uint256"
        }
      ],
      "name": "deposit",
      "outputs": [],
      "stateMutability": "nonpayable",
      "type": "function"
    },
    {
      "inputs": [
        {
          "internalType": "uint256",
          "name": "amount",
          "type": "uint256"
        },
        {
          "internalType": "bool",
          "name": "autoCompound",
          "type": "bool"
        },
        {
          "internalType": "uint256",
          "name": "lockPeriod",
          "type": "uint256"
        }
      ],
      "name": "deposit",
      "outputs": [],
      "stateMutability": "nonpayable",
      "type": "function"
    },
    {
      "inputs": [
        {
          "internalType": "address",
          "name": "token",
          "type": "address"
        },
        {
          "internalType": "uint256",
          "name": "amount",
          "type": "uint256"
        }
      ],
      "name": "depositToFarm",
      "outputs": [],
      "stateMutability": "nonpayable",
      "type": "function"
    },
    {
      "inputs": [],
      "name": "emergencyWithdraw",
      "outputs": [],
      "stateMutability": "nonpayable",
      "type": "function"
    },
    {
      "inputs": [
        {
          "internalType": "address",
          "name": "user",
          "type": "address"
        }
      ],
      "name": "getPosition",
      "outputs": [
        {
          "internalType": "uint256",
          "name": "amount",
          "type": "uint256"
        },
        {
          "internalType": "uint256",
          "name": "depositTime",
          "type": "uint256"
        },
        {
          "internalType": "uint256",
          "name": "lastClaimTime",
          "type": "uint256"
        },
        {
          "internalType": "uint256",
          "name": "pendingYield",
          "type": "uint256"
        },
        {
          "internalType": "uint256",
          "name": "totalAccumulated",
          "type": "uint256"
        }
      ],
      "stateMutability": "view",
      "type": "function"
    },
    {
      "inputs": [
        {
          "internalType": "address",
          "name": "_underlyingToken",
          "type": "address"
        },
        {
          "internalType": "string",
          "name": "name",
          "type": "string"
        },
        {
          "internalType": "string",
          "name": "symbol",
          "type": "string"
        }
      ],
      "name": "initialize",
      "outputs": [],
      "stateMutability": "nonpayable",
      "type": "function"
    },
    {
      "inputs": [],
      "name": "lockBonusMultiplier",
      "outputs": [
        {
          "internalType": "uint256",
          "name": "",
          "type": "uint256"
        }
      ],
      "stateMutability": "view",
      "type": "function"
    },
    {
      "inputs": [
        {
          "internalType": "address",
          "name": "",
          "type": "address"
        }
      ],
      "name": "multiTokenFarms",
      "outputs": [
        {
          "internalType": "address",
          "name": "token",
          "type": "address"
        },
        {
          "internalType": "uint256",
          "name": "totalStaked",
          "type": "uint256"
        },
        {
          "internalType": "uint256",
          "name": "rewardRate",
          "type": "uint256"
        },
        {
          "internalType": "uint256",
          "name": "lastRewardTime",
          "type": "uint256"
        },
        {
          "internalType": "uint256",
          "name": "rewardPerTokenStored",
          "type": "uint256"
        },
        {
          "internalType": "bool",
          "name": "active",
          "type": "bool"
        }
      ],
      "stateMutability": "view",
      "type": "function"
    },
    {
      "inputs": [],
      "name": "name",
      "outputs": [
        {
          "internalType": "string",
          "name": "",
          "type": "string"
        }
      ],
      "stateMutability": "view",
      "type": "function"
    },
    {
      "inputs": [],
      "name": "owner",
      "outputs": [
        {
          "internalType": "address",
          "name": "",
          "type": "address"
        }
      ],
      "stateMutability": "view",
      "type": "function"
    },
    {
      "inputs": [
        {
          "internalType": "address",
          "name": "",
          "type": "address"
        }
      ],
      "name": "positions",
      "outputs": [
        {
          "internalType": "uint256",
          "name": "amount",
          "type": "uint256"
        },
        {
          "internalType": "uint256",
          "name": "depositTime",
          "type": "uint256"
        },
        {
          "internalType": "uint256",
          "name": "lastClaimTime",
          "type": "uint256"
        },
        {
          "internalType": "uint256",
          "name": "accumulatedYield",
          "type": "uint256"
        },
        {
          "internalType": "bool",
          "name": "autoCompound",
          "type": "bool"
        },
        {
          "internalType": "uint256",
          "name": "lockPeriod",
          "type": "uint256"
        }
      ],
      "stateMutability": "view",
      "type": "function"
    },
    {
      "inputs": [],
      "name": "proxiableUUID",
      "outputs": [
        {
          "internalType": "bytes32",
          "name": "",
          "type": "bytes32"
        }
      ],
      "stateMutability": "view",
      "type": "function"
    },
    {
      "inputs": [],
      "name": "renounceOwnership",
      "outputs": [],
      "stateMutability": "nonpayable",
      "type": "function"
    },
    {
      "inputs": [
        {
          "internalType": "uint256",
          "name": "",
          "type": "uint256"
        }
      ],
      "name": "supportedFarmTokens",
      "outputs": [
        {
          "internalType": "address",
          "name": "",
          "type": "address"
        }
      ],
      "stateMutability": "view",
      "type": "function"
    },
    {
      "inputs": [],
      "name": "symbol",
      "outputs": [
        {
          "internalType": "string",
          "name": "",
          "type": "string"
        }
      ],
      "stateMutability": "view",
      "type": "function"
    },
    {
      "inputs": [],
      "name": "totalStaked",
      "outputs": [
        {
          "internalType": "uint256",
          "name": "",
          "type": "uint256"
        }
      ],
      "stateMutability": "view",
      "type": "function"
    },
    {
      "inputs": [],
      "name": "totalSupply",
      "outputs": [
        {
          "internalType": "uint256",
          "name": "",
          "type": "uint256"
        }
      ],
      "stateMutability": "view",
      "type": "function"
    },
    {
      "inputs": [],
      "name": "totalValueLocked",
      "outputs": [
        {
          "internalType": "uint256",
          "name": "",
          "type": "uint256"
        }
      ],
      "stateMutability": "view",
      "type": "function"
    },
    {
      "inputs": [
        {
          "internalType": "address",
          "name": "to",
          "type": "address"
        },
        {
          "internalType": "uint256",
          "name": "value",
          "type": "uint256"
        }
      ],
      "name": "transfer",
      "outputs": [
        {
          "internalType": "bool",
          "name": "",
          "type": "bool"
        }
      ],
      "stateMutability": "nonpayable",
      "type": "function"
    },
    {
      "inputs": [
        {
          "internalType": "address",
          "name": "from",
          "type": "address"
        },
        {
          "internalType": "address",
          "name": "to",
          "type": "address"
        },
        {
          "internalType": "uint256",
          "name": "value",
          "type": "uint256"
        }
      ],
      "name": "transferFrom",
      "outputs": [
        {
          "internalType": "bool",
          "name": "",
          "type": "bool"
        }
      ],
      "stateMutability": "nonpayable",
      "type": "function"
    },
    {
      "inputs": [
        {
          "internalType": "address",
          "name": "newOwner",
          "type": "address"
        }
      ],
      "name": "transferOwnership",
      "outputs": [],
      "stateMutability": "nonpayable",
      "type": "function"
    },
    {
      "inputs": [],
      "name": "underlyingToken",
      "outputs": [
        {
          "internalType": "address",
          "name": "",
          "type": "address"
        }
      ],
      "stateMutability": "view",
      "type": "function"
    },
    {
      "inputs": [
        {
          "internalType": "address",
          "name": "newImplementation",
          "type": "address"
        },
        {
          "internalType": "bytes",
          "name": "data",
          "type": "bytes"
        }
      ],
      "name": "upgradeToAndCall",
      "outputs": [],
      "stateMutability": "payable",
      "type": "function"
    },
    {
      "inputs": [
        {
          "internalType": "uint256",
          "name": "amount",
          "type": "uint256"
        }
      ],
      "name": "withdraw",
      "outputs": [],
      "stateMutability": "nonpayable",
      "type": "function"
    },
    {
      "inputs": [
        {
          "internalType": "address",
          "name": "token",
          "type": "address"
        },
        {
          "internalType": "uint256",
          "name": "amount",
          "type": "uint256"
        }
      ],
      "name": "withdrawFromFarm",
      "outputs": [],
      "stateMutability": "nonpayable",
      "type": "function"
    }
  ],
  "bytecode": "0x60a0806040523460295730608052612be3908161002f82396080518181816113a4015261146d0152f35b600080fdfe6080604052600436101561001257600080fd5b60003560e01c80630562322f14611fab57806306fdde0314611ec5578063095ea7b314611e1f57806316c1973914611d6857806318160ddd14611d2b57806323b872dd14611b905780632495a59914611b695780632e1a7d4d146118e1578063313ce567146118c55780633236bee41461189a5780633ee84f4414611879578063406cf229146118315780634373137d146116d25780634f1ef2861461141e57806352d1902d1461138957806355f57510146113135780636d2657da1461118457806370a082311461112b578063715018a614611092578063817b1cd2146104015780638da5cb5b1461104c5780639065714714610a1857806395d89b4114610901578063974d9469146108e3578063978ac77f146108c5578063a9059cbb14610894578063ad3cb1cc14610839578063b39528b4146107f8578063b6b55f251461070b578063db2e21bc146105ef578063dbc48b91146104bb578063dd62ed3e1461043e578063e6a69ab81461041f578063ec18154e14610401578063f014beec1461028b578063f266a2131461026d578063f2fde38b146102425763f9e18aa0146101be57600080fd5b3461023d57602036600319011261023d576001600160a01b036101df61210e565b16600052600360205260c060406000206001600160a01b0381541690600181015490600281015460038201549060ff6007600485015494015416936040519586526020860152604085015260608401526080830152151560a0820152f35b600080fd5b3461023d57602036600319011261023d5761026b61025e61210e565b610266612a63565b6125e4565b005b3461023d57600036600319011261023d576020600054604051908152f35b3461023d57606036600319011261023d5760043560243580151580910361023d576102b46126a3565b6102bf821515612263565b6005546040516323b872dd60e01b81523360048201523060248201526044810184905290602090829060649082906000906001600160a01b03165af180156103f5576103c8575b5033600052600760205260406000209081546103ba575b610328838354612311565b8255426001830155426002830155600482019060ff80198354169116179055600560443591015561035b81600654612311565b60065561036881336129a7565b6040519081527f2da466a7b24304f47e87fa2e1e5a81b9831ce54fec19055ce277ca2f39ba42c460203392a260017f9b779b17422d0df92223018b32b4d1fa46e071723d6817e2486d003becc55f0055005b6103c33361291f565b61031d565b6103e99060203d6020116103ee575b6103e1818361219f565b8101906122f9565b610306565b503d6103d7565b6040513d6000823e3d90fd5b3461023d57600036600319011261023d576020600654604051908152f35b3461023d57600036600319011261023d5760206040516301e133808152f35b3461023d57604036600319011261023d5761045761210e565b6001600160a01b036104a361046a612124565b926001600160a01b03166000527f52c63247e1f47db19d5ce0460030c497f067ca4cebf71ba98eeadabe20bace01602052604060002090565b91166000526020526020604060002054604051908152f35b3461023d57604036600319011261023d576104d461210e565b6024356104df6126a3565b6001600160a01b03821691826000526003602052610516604060002091610507841515612263565b6105108161271c565b3361279f565b6001600160a01b0333166000526006820160205261053a6040600020918254612311565b905560405163a9059cbb60e01b815233600482015260248101839052906020826044816000885af19182156103f5576001926105d2575b500161057e82825461236e565b90556040519081527fcd2eb448034a10a99311e108dbb03778a53a5a2ea42ccc36674a101ae2ada21960203392a360017f9b779b17422d0df92223018b32b4d1fa46e071723d6817e2486d003becc55f0055005b6105ea9060203d6020116103ee576103e1818361219f565b610571565b3461023d57600036600319011261023d57610608612a63565b6001600160a01b03600554166040517f70a08231000000000000000000000000000000000000000000000000000000008152306004820152602081602481855afa9081156103f5576000916106d7575b507f9016d09d72d40fdae2fd8ceac6b6234c7706214fd39c1cd1e609a0528c1993005460405163a9059cbb60e01b81526001600160a01b039091166004820152602481019190915290602090829081600081604481015b03925af180156103f5576106bf57005b61026b9060203d6020116103ee576103e1818361219f565b90506020813d602011610703575b816106f26020938361219f565b8101031261023d57516106af610658565b3d91506106e5565b3461023d57602036600319011261023d576004356107276126a3565b61072f6126a3565b61073a811515612263565b6005546040516323b872dd60e01b81523360048201523060248201526044810183905290602090829060649082906000906001600160a01b03165af180156103f5576107db575b50336000526007602052600060056040822080546107cd575b6107a5848254612311565b81554260018201554260028201556004810160ff198154169055015561035b81600654612311565b6107d63361291f565b61079a565b6107f39060203d6020116103ee576103e1818361219f565b610781565b3461023d57602036600319011261023d5760043560045481101561023d576001600160a01b03610829602092612232565b90549060031b1c16604051908152f35b3461023d57600036600319011261023d57610890604080519061085c818361219f565b600582527f352e302e300000000000000000000000000000000000000000000000000000006020830152519182918261213a565b0390f35b3461023d57604036600319011261023d576108ba6108b061210e565b60243590336127f7565b602060405160018152f35b3461023d57600036600319011261023d576020600154604051908152f35b3461023d57600036600319011261023d576020600254604051908152f35b3461023d57600036600319011261023d5760405160007f52c63247e1f47db19d5ce0460030c497f067ca4cebf71ba98eeadabe20bace045461094281612334565b80845290600181169081156109f45750600114610976575b6108908361096a8185038261219f565b6040519182918261213a565b7f52c63247e1f47db19d5ce0460030c497f067ca4cebf71ba98eeadabe20bace0460009081527f46a2803e59a4de4e7a4c574b1243f25977ac4c77d5a1a4a609b5394cebb4a2aa939250905b8082106109da5750909150810160200161096a61095a565b9192600181602092548385880101520191019092916109c2565b60ff191660208086019190915291151560051b8401909101915061096a905061095a565b3461023d57606036600319011261023d57610a3161210e565b60243567ffffffffffffffff811161023d57610a51903690600401612214565b9060443567ffffffffffffffff811161023d57610a72903690600401612214565b907ff0c57e16840df040f15088dc2f81fe391c3923bec73e23a9662efc9c229c6a00549160ff8360401c16159267ffffffffffffffff811680159081611044575b600114908161103a575b159081611031575b506110075767ffffffffffffffff1981166001177ff0c57e16840df040f15088dc2f81fe391c3923bec73e23a9662efc9c229c6a005583610fc8575b50610b0a612ac4565b610b12612ac4565b835167ffffffffffffffff8111610e7e57610b4d7f52c63247e1f47db19d5ce0460030c497f067ca4cebf71ba98eeadabe20bace0354612334565b601f8111610f44575b50602094601f8211600114610e9f57948192939495600092610e94575b50508160011b916000199060031b1c1916177f52c63247e1f47db19d5ce0460030c497f067ca4cebf71ba98eeadabe20bace03555b80519067ffffffffffffffff8211610e7e57610be47f52c63247e1f47db19d5ce0460030c497f067ca4cebf71ba98eeadabe20bace0454612334565b601f8111610dfa575b50602090601f8311600114610d4a576001600160a01b0393929160009183610d3f575b50508160011b916000199060031b1c1916177f52c63247e1f47db19d5ce0460030c497f067ca4cebf71ba98eeadabe20bace04555b610c4d612ac4565b610c55612ac4565b610c5e336125e4565b610c66612ac4565b610c6e612ac4565b60017f9b779b17422d0df92223018b32b4d1fa46e071723d6817e2486d003becc55f0055610c9a612ac4565b166001600160a01b031960055416176005556101f460005560c86001556096600255610cc257005b68ff0000000000000000197ff0c57e16840df040f15088dc2f81fe391c3923bec73e23a9662efc9c229c6a0054167ff0c57e16840df040f15088dc2f81fe391c3923bec73e23a9662efc9c229c6a00557fc7f505b2f371ae2175ee4913f4499e1f2633a7b5936321eed1cdaeb6115181d2602060405160018152a1005b015190508580610c10565b90601f198316917f52c63247e1f47db19d5ce0460030c497f067ca4cebf71ba98eeadabe20bace04600052816000209260005b818110610de257509160019391856001600160a01b0397969410610dc9575b505050811b017f52c63247e1f47db19d5ce0460030c497f067ca4cebf71ba98eeadabe20bace0455610c45565b015160001960f88460031b161c19169055858080610d9c565b92936020600181928786015181550195019301610d7d565b7f52c63247e1f47db19d5ce0460030c497f067ca4cebf71ba98eeadabe20bace046000527f46a2803e59a4de4e7a4c574b1243f25977ac4c77d5a1a4a609b5394cebb4a2aa601f840160051c81019160208510610e74575b601f0160051c01905b818110610e685750610bed565b60008155600101610e5b565b9091508190610e52565b634e487b7160e01b600052604160045260246000fd5b015190508580610b73565b601f198216957f52c63247e1f47db19d5ce0460030c497f067ca4cebf71ba98eeadabe20bace03600052806000209160005b888110610f2c57508360019596979810610f13575b505050811b017f52c63247e1f47db19d5ce0460030c497f067ca4cebf71ba98eeadabe20bace0355610ba8565b015160001960f88460031b161c19169055858080610ee6565b91926020600181928685015181550194019201610ed1565b7f52c63247e1f47db19d5ce0460030c497f067ca4cebf71ba98eeadabe20bace036000527f2ae08a8e29253f69ac5d979a101956ab8f8d9d7ded63fa7a83b16fc47648eab0601f830160051c81019160208410610fbe575b601f0160051c01905b818110610fb25750610b56565b60008155600101610fa5565b9091508190610f9c565b68ffffffffffffffffff191668010000000000000001177ff0c57e16840df040f15088dc2f81fe391c3923bec73e23a9662efc9c229c6a005584610b01565b7ff92ee8a90000000000000000000000000000000000000000000000000000000060005260046000fd5b90501586610ac5565b303b159150610abd565b859150610ab3565b3461023d57600036600319011261023d5760206001600160a01b037f9016d09d72d40fdae2fd8ceac6b6234c7706214fd39c1cd1e609a0528c1993005416604051908152f35b3461023d57600036600319011261023d576110ab612a63565b60006001600160a01b037f9016d09d72d40fdae2fd8ceac6b6234c7706214fd39c1cd1e609a0528c199300546001600160a01b031981167f9016d09d72d40fdae2fd8ceac6b6234c7706214fd39c1cd1e609a0528c19930055167f8be0079c531659141344cd1fd0a4f28419497f9722a3daafe3b4186f6b6457e08280a3005b3461023d57602036600319011261023d576001600160a01b0361114c61210e565b166000527f52c63247e1f47db19d5ce0460030c497f067ca4cebf71ba98eeadabe20bace006020526020604060002054604051908152f35b3461023d57604036600319011261023d5761119d61210e565b6001600160a01b03602435916111b1612a63565b169081156112cf578160005260036020526001600160a01b036040600020541661128b576000828152600360208190526040822080546001600160a01b031916851781556001808201849055600282018590554292820192909255600480820193909355600701805460ff191690911790555468010000000000000000811015610e7e577f34b3dd1d28b1eecc9baba399815f4fddce8f9552a4115831754a011a68943e699161126982600160209401600455612232565b81549060031b906001600160a01b0387831b921b1916179055604051908152a2005b606460405162461bcd60e51b815260206004820152601360248201527f4661726d20616c726561647920657869737473000000000000000000000000006044820152fd5b606460405162461bcd60e51b815260206004820152600d60248201527f496e76616c696420746f6b656e000000000000000000000000000000000000006044820152fd5b3461023d57602036600319011261023d576001600160a01b0361133461210e565b16600052600760205260c060406000208054906001810154906002810154600382015490600560ff600485015416930154936040519586526020860152604085015260608401521515608083015260a0820152f35b3461023d57600036600319011261023d576001600160a01b037f00000000000000000000000000000000000000000000000000000000000000001630036113f45760206040517f360894a13ba1a3210667c828492db98dca3e2076cc3735a920a3ca505d382bbc8152f35b7fe07c8dba0000000000000000000000000000000000000000000000000000000060005260046000fd5b604036600319011261023d5761143261210e565b60243567ffffffffffffffff811161023d573660238201121561023d576114639036906024816004013591016121dd565b6001600160a01b037f00000000000000000000000000000000000000000000000000000000000000001680301490811561169d575b506113f4576114a5612a63565b6001600160a01b038216916040517f52d1902d000000000000000000000000000000000000000000000000000000008152602081600481875afa60009181611669575b506115025783634c9c8ce360e01b60005260045260246000fd5b807f360894a13ba1a3210667c828492db98dca3e2076cc3735a920a3ca505d382bbc85920361163c5750813b1561162857806001600160a01b03197f360894a13ba1a3210667c828492db98dca3e2076cc3735a920a3ca505d382bbc5416177f360894a13ba1a3210667c828492db98dca3e2076cc3735a920a3ca505d382bbc557fbc7cd75a20ee27fd9adebab32041f755214dbc6bffa90cc0225b39da2e5c2d3b600080a28151156115f55760008083602061026b95519101845af43d156115ed573d916115d0836121c1565b926115de604051948561219f565b83523d6000602085013e612b1d565b606091612b1d565b5050346115fe57005b7fb398979f0000000000000000000000000000000000000000000000000000000060005260046000fd5b634c9c8ce360e01b60005260045260246000fd5b7faa1d49a40000000000000000000000000000000000000000000000000000000060005260045260246000fd5b9091506020813d602011611695575b816116856020938361219f565b8101031261023d575190856114e8565b3d9150611678565b90506001600160a01b037f360894a13ba1a3210667c828492db98dca3e2076cc3735a920a3ca505d382bbc5416141583611498565b3461023d57602036600319011261023d576116eb61210e565b6116f36126a3565b6001600160a01b03811690816000526003602052604060002061171c60ff6007830154166122ae565b6117258261271c565b61175460068201926001600160a01b0333166000528360205261174e604060002054913361279f565b90612311565b9182156117ed576001600160a01b0333166000526020526000604081205560056004820154916001600160a01b0333166000520160205260406000205561179b81336129a7565b6040519081527f2d2b8e27c71f652aae9bd22f2f42323a7fd5142b9924e9d0029653746ea966eb60203392a360017f9b779b17422d0df92223018b32b4d1fa46e071723d6817e2486d003becc55f0055005b606460405162461bcd60e51b815260206004820152600a60248201527f4e6f2072657761726473000000000000000000000000000000000000000000006044820152fd5b3461023d57600036600319011261023d5761184a6126a3565b6118533361291f565b60017f9b779b17422d0df92223018b32b4d1fa46e071723d6817e2486d003becc55f0055005b3461023d57602036600319011261023d5761026b61189561210e565b612493565b3461023d57602036600319011261023d5760206118bd6118b861210e565b61238e565b604051908152f35b3461023d57600036600319011261023d57602060405160128152f35b3461023d57602036600319011261023d576004356118fd6126a3565b611908811515612263565b336000526007602052604060002081815410611b25576119273361291f565b61193282825461236e565b90556119408160065461236e565b6006553315611af65760003381527f52c63247e1f47db19d5ce0460030c497f067ca4cebf71ba98eeadabe20bace00602052604081205491808310611add5780833384527f52c63247e1f47db19d5ce0460030c497f067ca4cebf71ba98eeadabe20bace00602052036040832055807f52c63247e1f47db19d5ce0460030c497f067ca4cebf71ba98eeadabe20bace0254037f52c63247e1f47db19d5ce0460030c497f067ca4cebf71ba98eeadabe20bace0255816040518281527fddf252ad1be2c89b69c2b068fc378daa952ba7f163c4a11628f55a4df523b3ef60203392a360055460405163a9059cbb60e01b815233600482015260248101839052906020908290604490829087906001600160a01b03165af18015611ad257611ab5575b506040519081527f7084f5476618d8e60b11ef0d7d3f06914655adb8793e28ff7f018d4c76d505d560203392a260017f9b779b17422d0df92223018b32b4d1fa46e071723d6817e2486d003becc55f005580f35b611acd9060203d6020116103ee576103e1818361219f565b611a61565b6040513d85823e3d90fd5b60649263391434e360e21b835233600452602452604452fd5b7f96c6fd1e00000000000000000000000000000000000000000000000000000000600052600060045260246000fd5b606460405162461bcd60e51b815260206004820152601460248201527f496e73756666696369656e742062616c616e63650000000000000000000000006044820152fd5b3461023d57600036600319011261023d5760206001600160a01b0360055416604051908152f35b3461023d57606036600319011261023d57611ba961210e565b611bb1612124565b60443590611bf1836001600160a01b03166000527f52c63247e1f47db19d5ce0460030c497f067ca4cebf71ba98eeadabe20bace01602052604060002090565b6001600160a01b033316600052602052604060002054926000198410611c1c575b6108ba93506127f7565b828410611cf5576001600160a01b03811615611cc6573315611c97576108ba93611c78826001600160a01b03166000527f52c63247e1f47db19d5ce0460030c497f067ca4cebf71ba98eeadabe20bace01602052604060002090565b6001600160a01b03331660005260205283604060002091039055611c12565b7f94280d6200000000000000000000000000000000000000000000000000000000600052600060045260246000fd5b7fe602df0500000000000000000000000000000000000000000000000000000000600052600060045260246000fd5b82847ffb8f41b2000000000000000000000000000000000000000000000000000000006000523360045260245260445260646000fd5b3461023d57600036600319011261023d5760207f52c63247e1f47db19d5ce0460030c497f067ca4cebf71ba98eeadabe20bace0254604051908152f35b3461023d57602036600319011261023d5760a0611d8361210e565b6001600160a01b0381166000526007602052604060002090604051611da781612183565b8254815260018301549260208201938452611e02611df46002830154946040850195865260056003850154946060870195865260ff6004820154161515608088015201548886015261238e565b809351955194519251612311565b926040519485526020850152604084015260608301526080820152f35b3461023d57604036600319011261023d57611e3861210e565b602435903315611cc6576001600160a01b0316908115611c97573360009081527f52c63247e1f47db19d5ce0460030c497f067ca4cebf71ba98eeadabe20bace016020526040902082600052602052806040600020556040519081527f8c5be1e5ebec7d5bd14f71427d1e84f3dd0314c0f7b2291e5b200ac8c7c3b92560203392a3602060405160018152f35b3461023d57600036600319011261023d5760405160007f52c63247e1f47db19d5ce0460030c497f067ca4cebf71ba98eeadabe20bace0354611f0681612334565b80845290600181169081156109f45750600114611f2d576108908361096a8185038261219f565b7f52c63247e1f47db19d5ce0460030c497f067ca4cebf71ba98eeadabe20bace0360009081527f2ae08a8e29253f69ac5d979a101956ab8f8d9d7ded63fa7a83b16fc47648eab0939250905b808210611f915750909150810160200161096a61095a565b919260018160209254838588010152019101909291611f79565b3461023d57604036600319011261023d57611fc461210e565b602435611fcf6126a3565b611fda811515612263565b6001600160a01b03821691826000526003602052604060002061200360ff6007830154166122ae565b6040516323b872dd60e01b815233600482015230602482015260448101849052916020836064816000895af19081156103f55760019361204c926120f1575b506105108161271c565b6001600160a01b033316600052600682016020526120706040600020918254612311565b905560048101546001600160a01b033316600052600582016020526040600020550161209d828254612311565b90556040519081527f20e229574d4da6730cc23c746c927319c7f4fa7f5d70fb85117c5ee41dcc85ee60203392a360017f9b779b17422d0df92223018b32b4d1fa46e071723d6817e2486d003becc55f0055005b6121099060203d6020116103ee576103e1818361219f565b612042565b600435906001600160a01b038216820361023d57565b602435906001600160a01b038216820361023d57565b91909160208152825180602083015260005b81811061216d575060409293506000838284010152601f8019910116010190565b806020809287010151604082860101520161214c565b60c0810190811067ffffffffffffffff821117610e7e57604052565b90601f8019910116810190811067ffffffffffffffff821117610e7e57604052565b67ffffffffffffffff8111610e7e57601f01601f191660200190565b9291926121e9826121c1565b916121f7604051938461219f565b82948184528183011161023d578281602093846000960137010152565b9080601f8301121561023d5781602061222f933591016121dd565b90565b60045481101561224d57600460005260206000200190600090565b634e487b7160e01b600052603260045260246000fd5b1561226a57565b606460405162461bcd60e51b815260206004820152601260248201527f416d6f756e74206d757374206265203e203000000000000000000000000000006044820152fd5b156122b557565b606460405162461bcd60e51b815260206004820152600f60248201527f4661726d206e6f742061637469766500000000000000000000000000000000006044820152fd5b9081602091031261023d5751801515810361023d5790565b9190820180921161231e57565b634e487b7160e01b600052601160045260246000fd5b90600182811c92168015612364575b602083101461234e57565b634e487b7160e01b600052602260045260246000fd5b91607f1691612343565b9190820391821161231e57565b8181029291811591840414171561231e57565b6001600160a01b0316600052600760205260406000206040516123b081612183565b815480825260018301549160208101928352600284015480604083015260038501546060830152600560ff6004870154169560808401961515875201549260a08301938452156124895764496cebb8009161241c612411612421934261236e565b91516000549061237b565b61237b565b04809351612466575b50518015159182612452575b505061243f5790565b61244e6064916002549061237b565b0490565b61245d925051612311565b42103880612436565b61248291935061271061247b6001548361237b565b0490612311565b913861242a565b5050505050600090565b6001600160a01b0381169081600052600760205260406000209060ff600483015416156125a0578154801561255c576124cb8261238e565b908115612555578160209360037fc04825ba3f383b602255d2a13065a68e325c65c9e0ed5d031ea2b06f641873af966125078461252296612311565b81554260028201550161251b838254612311565b90556129a7565b837f95b16666f2ba8078d36b18fc489cc80a51e48a2ef77a4075b8bd795f07320f2883604051848152a2604051908152a2565b5050505050565b606460405162461bcd60e51b815260206004820152600b60248201527f4e6f20706f736974696f6e0000000000000000000000000000000000000000006044820152fd5b606460405162461bcd60e51b815260206004820152601960248201527f4175746f2d636f6d706f756e64206e6f7420656e61626c6564000000000000006044820152fd5b6001600160a01b03168015612674576001600160a01b037f9016d09d72d40fdae2fd8ceac6b6234c7706214fd39c1cd1e609a0528c19930054826001600160a01b03198216177f9016d09d72d40fdae2fd8ceac6b6234c7706214fd39c1cd1e609a0528c19930055167f8be0079c531659141344cd1fd0a4f28419497f9722a3daafe3b4186f6b6457e0600080a3565b7f1e4fbdf700000000000000000000000000000000000000000000000000000000600052600060045260246000fd5b60027f9b779b17422d0df92223018b32b4d1fa46e071723d6817e2486d003becc55f0054146126f25760027f9b779b17422d0df92223018b32b4d1fa46e071723d6817e2486d003becc55f0055565b7f3ee5aeb50000000000000000000000000000000000000000000000000000000060005260046000fd5b6001600160a01b031660005260036020526040600020600181015490811561279557600381019161275b61275184544261236e565b600284015461237b565b670de0b6b3a7640000810290808204670de0b6b3a7640000149015171561231e5761278e91600491049201918254612311565b9055429055565b9050600342910155565b61244e906001600160a01b03670de0b6b3a76400009316600052600360205260016127ee6040600020926001600160a01b0360048501549116600052600584016020526040600020549061236e565b9101549061237b565b6001600160a01b0316908115611af6576001600160a01b03169182156128f05760008281527f52c63247e1f47db19d5ce0460030c497f067ca4cebf71ba98eeadabe20bace0060205260408120548281106128d65791604082827fddf252ad1be2c89b69c2b068fc378daa952ba7f163c4a11628f55a4df523b3ef9587602096527f52c63247e1f47db19d5ce0460030c497f067ca4cebf71ba98eeadabe20bace00865203828220558681527f52c63247e1f47db19d5ce0460030c497f067ca4cebf71ba98eeadabe20bace00845220818154019055604051908152a3565b60649363391434e360e21b83949352600452602452604452fd5b7fec442f0500000000000000000000000000000000000000000000000000000000600052600060045260246000fd5b6001600160a01b0381169081600052600760205260406000208054156129a2576129488261238e565b801561299c57612993817fc04825ba3f383b602255d2a13065a68e325c65c9e0ed5d031ea2b06f641873af9484600360209601612986848254612311565b90556002429101556129a7565b604051908152a2565b50505050565b505050565b6001600160a01b03169081156128f0577fddf252ad1be2c89b69c2b068fc378daa952ba7f163c4a11628f55a4df523b3ef602082612a086000947f52c63247e1f47db19d5ce0460030c497f067ca4cebf71ba98eeadabe20bace0254612311565b7f52c63247e1f47db19d5ce0460030c497f067ca4cebf71ba98eeadabe20bace02558484527f52c63247e1f47db19d5ce0460030c497f067ca4cebf71ba98eeadabe20bace00825260408420818154019055604051908152a3565b6001600160a01b037f9016d09d72d40fdae2fd8ceac6b6234c7706214fd39c1cd1e609a0528c19930054163303612a9657565b7f118cdaa7000000000000000000000000000000000000000000000000000000006000523360045260246000fd5b60ff7ff0c57e16840df040f15088dc2f81fe391c3923bec73e23a9662efc9c229c6a005460401c1615612af357565b7fd7e6bcf80000000000000000000000000000000000000000000000000000000060005260046000fd5b90612b5c5750805115612b3257602081519101fd5b7fd6bda2750000000000000000000000000000000000000000000000000000000060005260046000fd5b81511580612ba4575b612b6d575090565b6001600160a01b03907f9996b315000000000000000000000000000000000000000000000000000000006000521660045260246000fd5b50803b15612b6556fea2646970667358221220b7a5155dc4218fdfa160f6b33ce64b005fbf19db5568e4f29b4e9eebdc46990e64736f6c634300081c0033",
  "linkReferences": {},
  "deployedLinkReferences": {}
}