{
  "_format": "hh-sol-artifact-1",
  "contractName": "YieldAggregator",
  "sourceName": "contracts/YieldAggregator.sol",
  "abi": [
    {
      "inputs": [
        {
          "internalType": "address",
          "name": "target",
          "type": "address"
        }
      ],
      "name": "AddressEmptyCode",
      "type": "error"
    },
    {
      "inputs": [
        {
          "internalType": "address",
          "name": "implementation",
          "type": "address"
        }
      ],
      "name": "ERC1967InvalidImplementation",
      "type": "error"
    },
    {
      "inputs": [],
      "name": "ERC1967NonPayable",
      "type": "error"
    },
    {
      "inputs": [],
      "name": "FailedCall",
      "type": "error"
    },
    {
      "inputs": [],
      "name": "InvalidInitialization",
      "type": "error"
    },
    {
      "inputs": [],
      "name": "NotInitializing",
      "type": "error"
    },
    {
      "inputs": [
        {
          "internalType": "address",
          "name": "owner",
          "type": "address"
        }
      ],
      "name": "OwnableInvalidOwner",
      "type": "error"
    },
    {
      "inputs": [
        {
          "internalType": "address",
          "name": "account",
          "type": "address"
        }
      ],
      "name": "OwnableUnauthorizedAccount",
      "type": "error"
    },
    {
      "inputs": [],
      "name": "ReentrancyGuardReentrantCall",
      "type": "error"
    },
    {
      "inputs": [
        {
          "internalType": "address",
          "name": "token",
          "type": "address"
        }
      ],
      "name": "SafeERC20FailedOperation",
      "type": "error"
    },
    {
      "inputs": [],
      "name": "UUPSUnauthorizedCallContext",
      "type": "error"
    },
    {
      "inputs": [
        {
          "internalType": "bytes32",
          "name": "slot",
          "type": "bytes32"
        }
      ],
      "name": "UUPSUnsupportedProxiableUUID",
      "type": "error"
    },
    {
      "anonymous": false,
      "inputs": [
        {
          "indexed": true,
          "internalType": "address",
          "name": "user",
          "type": "address"
        },
        {
          "indexed": false,
          "internalType": "uint256",
          "name": "strategyId",
          "type": "uint256"
        },
        {
          "indexed": false,
          "internalType": "uint256",
          "name": "amount",
          "type": "uint256"
        }
      ],
      "name": "Deposit",
      "type": "event"
    },
    {
      "anonymous": false,
      "inputs": [
        {
          "indexed": false,
          "internalType": "uint64",
          "name": "version",
          "type": "uint64"
        }
      ],
      "name": "Initialized",
      "type": "event"
    },
    {
      "anonymous": false,
      "inputs": [
        {
          "indexed": true,
          "internalType": "address",
          "name": "previousOwner",
          "type": "address"
        },
        {
          "indexed": true,
          "internalType": "address",
          "name": "newOwner",
          "type": "address"
        }
      ],
      "name": "OwnershipTransferred",
      "type": "event"
    },
    {
      "anonymous": false,
      "inputs": [
        {
          "indexed": true,
          "internalType": "address",
          "name": "user",
          "type": "address"
        },
        {
          "indexed": false,
          "internalType": "uint256[]",
          "name": "strategyIds",
          "type": "uint256[]"
        }
      ],
      "name": "PortfolioCreated",
      "type": "event"
    },
    {
      "anonymous": false,
      "inputs": [
        {
          "indexed": true,
          "internalType": "address",
          "name": "user",
          "type": "address"
        },
        {
          "indexed": false,
          "internalType": "uint256[]",
          "name": "strategyIds",
          "type": "uint256[]"
        },
        {
          "indexed": false,
          "internalType": "uint256[]",
          "name": "allocations",
          "type": "uint256[]"
        }
      ],
      "name": "RebalanceExecuted",
      "type": "event"
    },
    {
      "anonymous": false,
      "inputs": [
        {
          "indexed": true,
          "internalType": "address",
          "name": "user",
          "type": "address"
        },
        {
          "indexed": false,
          "internalType": "uint256",
          "name": "totalRewards",
          "type": "uint256"
        }
      ],
      "name": "RewardsHarvested",
      "type": "event"
    },
    {
      "anonymous": false,
      "inputs": [
        {
          "indexed": true,
          "internalType": "uint256",
          "name": "strategyId",
          "type": "uint256"
        },
        {
          "indexed": false,
          "internalType": "string",
          "name": "name",
          "type": "string"
        },
        {
          "indexed": false,
          "internalType": "address",
          "name": "protocol",
          "type": "address"
        }
      ],
      "name": "StrategyAdded",
      "type": "event"
    },
    {
      "anonymous": false,
      "inputs": [
        {
          "indexed": true,
          "internalType": "uint256",
          "name": "strategyId",
          "type": "uint256"
        },
        {
          "indexed": false,
          "internalType": "uint256",
          "name": "newAPY",
          "type": "uint256"
        }
      ],
      "name": "StrategyOptimized",
      "type": "event"
    },
    {
      "anonymous": false,
      "inputs": [
        {
          "indexed": true,
          "internalType": "address",
          "name": "implementation",
          "type": "address"
        }
      ],
      "name": "Upgraded",
      "type": "event"
    },
    {
      "anonymous": false,
      "inputs": [
        {
          "indexed": true,
          "internalType": "address",
          "name": "user",
          "type": "address"
        },
        {
          "indexed": false,
          "internalType": "uint256",
          "name": "strategyId",
          "type": "uint256"
        },
        {
          "indexed": false,
          "internalType": "uint256",
          "name": "amount",
          "type": "uint256"
        }
      ],
      "name": "Withdraw",
      "type": "event"
    },
    {
      "inputs": [],
      "name": "UPGRADE_INTERFACE_VERSION",
      "outputs": [
        {
          "internalType": "string",
          "name": "",
          "type": "string"
        }
      ],
      "stateMutability": "view",
      "type": "function"
    },
    {
      "inputs": [
        {
          "internalType": "string",
          "name": "_name",
          "type": "string"
        },
        {
          "internalType": "address",
          "name": "_protocol",
          "type": "address"
        },
        {
          "internalType": "bytes4",
          "name": "_depositFunction",
          "type": "bytes4"
        },
        {
          "internalType": "bytes4",
          "name": "_withdrawFunction",
          "type": "bytes4"
        },
        {
          "internalType": "bytes4",
          "name": "_harvestFunction",
          "type": "bytes4"
        },
        {
          "internalType": "address",
          "name": "_rewardToken",
          "type": "address"
        },
        {
          "internalType": "uint256",
          "name": "_riskLevel",
          "type": "uint256"
        },
        {
          "internalType": "uint256",
          "name": "_minDeposit",
          "type": "uint256"
        },
        {
          "internalType": "uint256",
          "name": "_maxDeposit",
          "type": "uint256"
        }
      ],
      "name": "addStrategy",
      "outputs": [
        {
          "internalType": "uint256",
          "name": "",
          "type": "uint256"
        }
      ],
      "stateMutability": "nonpayable",
      "type": "function"
    },
    {
      "inputs": [],
      "name": "collectFees",
      "outputs": [],
      "stateMutability": "nonpayable",
      "type": "function"
    },
    {
      "inputs": [],
      "name": "collectedFees",
      "outputs": [
        {
          "internalType": "uint256",
          "name": "",
          "type": "uint256"
        }
      ],
      "stateMutability": "view",
      "type": "function"
    },
    {
      "inputs": [
        {
          "internalType": "uint256[]",
          "name": "_strategyIds",
          "type": "uint256[]"
        },
        {
          "internalType": "uint256[]",
          "name": "_allocations",
          "type": "uint256[]"
        },
        {
          "internalType": "bool",
          "name": "_autoRebalance",
          "type": "bool"
        },
        {
          "internalType": "uint256",
          "name": "_rebalanceThreshold",
          "type": "uint256"
        }
      ],
      "name": "createPortfolio",
      "outputs": [
        {
          "internalType": "uint256",
          "name": "portfolioId",
          "type": "uint256"
        }
      ],
      "stateMutability": "nonpayable",
      "type": "function"
    },
    {
      "inputs": [
        {
          "internalType": "uint256",
          "name": "_strategyId",
          "type": "uint256"
        }
      ],
      "name": "deactivateStrategy",
      "outputs": [],
      "stateMutability": "nonpayable",
      "type": "function"
    },
    {
      "inputs": [
        {
          "internalType": "uint256",
          "name": "_strategyId",
          "type": "uint256"
        },
        {
          "internalType": "uint256",
          "name": "_amount",
          "type": "uint256"
        }
      ],
      "name": "depositToPortfolio",
      "outputs": [],
      "stateMutability": "nonpayable",
      "type": "function"
    },
    {
      "inputs": [],
      "name": "diversificationRequirement",
      "outputs": [
        {
          "internalType": "uint256",
          "name": "",
          "type": "uint256"
        }
      ],
      "stateMutability": "view",
      "type": "function"
    },
    {
      "inputs": [],
      "name": "emergencyPause",
      "outputs": [
        {
          "internalType": "bool",
          "name": "",
          "type": "bool"
        }
      ],
      "stateMutability": "view",
      "type": "function"
    },
    {
      "inputs": [],
      "name": "feeRecipient",
      "outputs": [
        {
          "internalType": "address",
          "name": "",
          "type": "address"
        }
      ],
      "stateMutability": "view",
      "type": "function"
    },
    {
      "inputs": [
        {
          "internalType": "address",
          "name": "_user",
          "type": "address"
        }
      ],
      "name": "getOptimalAllocations",
      "outputs": [
        {
          "internalType": "uint256[]",
          "name": "",
          "type": "uint256[]"
        }
      ],
      "stateMutability": "view",
      "type": "function"
    },
    {
      "inputs": [
        {
          "internalType": "address",
          "name": "_user",
          "type": "address"
        }
      ],
      "name": "getPortfolio",
      "outputs": [
        {
          "internalType": "uint256",
          "name": "totalValue",
          "type": "uint256"
        },
        {
          "internalType": "uint256",
          "name": "totalRewards",
          "type": "uint256"
        },
        {
          "internalType": "uint256[]",
          "name": "strategyIds",
          "type": "uint256[]"
        },
        {
          "internalType": "uint256",
          "name": "lastRebalance",
          "type": "uint256"
        },
        {
          "internalType": "bool",
          "name": "autoRebalance",
          "type": "bool"
        }
      ],
      "stateMutability": "view",
      "type": "function"
    },
    {
      "inputs": [
        {
          "internalType": "address",
          "name": "_user",
          "type": "address"
        },
        {
          "internalType": "uint256",
          "name": "_strategyId",
          "type": "uint256"
        }
      ],
      "name": "getPortfolioAllocation",
      "outputs": [
        {
          "internalType": "uint256",
          "name": "",
          "type": "uint256"
        }
      ],
      "stateMutability": "view",
      "type": "function"
    },
    {
      "inputs": [
        {
          "internalType": "uint256",
          "name": "_strategyId",
          "type": "uint256"
        }
      ],
      "name": "getStrategy",
      "outputs": [
        {
          "components": [
            {
              "internalType": "uint256",
              "name": "id",
              "type": "uint256"
            },
            {
              "internalType": "string",
              "name": "name",
              "type": "string"
            },
            {
              "internalType": "address",
              "name": "protocol",
              "type": "address"
            },
            {
              "internalType": "bytes4",
              "name": "depositFunction",
              "type": "bytes4"
            },
            {
              "internalType": "bytes4",
              "name": "withdrawFunction",
              "type": "bytes4"
            },
            {
              "internalType": "bytes4",
              "name": "harvestFunction",
              "type": "bytes4"
            },
            {
              "internalType": "address",
              "name": "rewardToken",
              "type": "address"
            },
            {
              "internalType": "uint256",
              "name": "totalDeposited",
              "type": "uint256"
            },
            {
              "internalType": "uint256",
              "name": "totalRewards",
              "type": "uint256"
            },
            {
              "internalType": "bool",
              "name": "active",
              "type": "bool"
            },
            {
              "internalType": "uint256",
              "name": "apy",
              "type": "uint256"
            },
            {
              "internalType": "uint256",
              "name": "riskLevel",
              "type": "uint256"
            },
            {
              "internalType": "uint256",
              "name": "minDeposit",
              "type": "uint256"
            },
            {
              "internalType": "uint256",
              "name": "maxDeposit",
              "type": "uint256"
            }
          ],
          "internalType": "struct YieldAggregator.Strategy",
          "name": "",
          "type": "tuple"
        }
      ],
      "stateMutability": "view",
      "type": "function"
    },
    {
      "inputs": [
        {
          "internalType": "address",
          "name": "_user",
          "type": "address"
        }
      ],
      "name": "getUserStrategies",
      "outputs": [
        {
          "components": [
            {
              "internalType": "uint256",
              "name": "strategyId",
              "type": "uint256"
            },
            {
              "internalType": "address",
              "name": "user",
              "type": "address"
            },
            {
              "internalType": "uint256",
              "name": "depositedAmount",
              "type": "uint256"
            },
            {
              "internalType": "uint256",
              "name": "rewardsEarned",
              "type": "uint256"
            },
            {
              "internalType": "uint256",
              "name": "lastRebalance",
              "type": "uint256"
            },
            {
              "internalType": "bool",
              "name": "autoRebalance",
              "type": "bool"
            },
            {
              "internalType": "uint256",
              "name": "targetAllocation",
              "type": "uint256"
            }
          ],
          "internalType": "struct YieldAggregator.UserStrategy[]",
          "name": "",
          "type": "tuple[]"
        }
      ],
      "stateMutability": "view",
      "type": "function"
    },
    {
      "inputs": [],
      "name": "harvestRewards",
      "outputs": [],
      "stateMutability": "nonpayable",
      "type": "function"
    },
    {
      "inputs": [
        {
          "internalType": "address",
          "name": "_oracle",
          "type": "address"
        },
        {
          "internalType": "address",
          "name": "_stakingRewards",
          "type": "address"
        },
        {
          "internalType": "address",
          "name": "_yieldVault",
          "type": "address"
        },
        {
          "internalType": "address",
          "name": "_liquidityPool",
          "type": "address"
        },
        {
          "internalType": "address",
          "name": "_feeRecipient",
          "type": "address"
        }
      ],
      "name": "initialize",
      "outputs": [],
      "stateMutability": "nonpayable",
      "type": "function"
    },
    {
      "inputs": [],
      "name": "liquidityPool",
      "outputs": [
        {
          "internalType": "contract LiquidityPool",
          "name": "",
          "type": "address"
        }
      ],
      "stateMutability": "view",
      "type": "function"
    },
    {
      "inputs": [],
      "name": "maxRiskLevel",
      "outputs": [
        {
          "internalType": "uint256",
          "name": "",
          "type": "uint256"
        }
      ],
      "stateMutability": "view",
      "type": "function"
    },
    {
      "inputs": [],
      "name": "maxSlippage",
      "outputs": [
        {
          "internalType": "uint256",
          "name": "",
          "type": "uint256"
        }
      ],
      "stateMutability": "view",
      "type": "function"
    },
    {
      "inputs": [],
      "name": "minPortfolioValue",
      "outputs": [
        {
          "internalType": "uint256",
          "name": "",
          "type": "uint256"
        }
      ],
      "stateMutability": "view",
      "type": "function"
    },
    {
      "inputs": [],
      "name": "nextStrategyId",
      "outputs": [
        {
          "internalType": "uint256",
          "name": "",
          "type": "uint256"
        }
      ],
      "stateMutability": "view",
      "type": "function"
    },
    {
      "inputs": [],
      "name": "oracle",
      "outputs": [
        {
          "internalType": "contract DecentralizedOracle",
          "name": "",
          "type": "address"
        }
      ],
      "stateMutability": "view",
      "type": "function"
    },
    {
      "inputs": [],
      "name": "owner",
      "outputs": [
        {
          "internalType": "address",
          "name": "",
          "type": "address"
        }
      ],
      "stateMutability": "view",
      "type": "function"
    },
    {
      "inputs": [],
      "name": "performanceFee",
      "outputs": [
        {
          "internalType": "uint256",
          "name": "",
          "type": "uint256"
        }
      ],
      "stateMutability": "view",
      "type": "function"
    },
    {
      "inputs": [
        {
          "internalType": "address",
          "name": "",
          "type": "address"
        }
      ],
      "name": "portfolios",
      "outputs": [
        {
          "internalType": "address",
          "name": "user",
          "type": "address"
        },
        {
          "internalType": "uint256",
          "name": "totalValue",
          "type": "uint256"
        },
        {
          "internalType": "uint256",
          "name": "totalRewards",
          "type": "uint256"
        },
        {
          "internalType": "uint256",
          "name": "lastRebalance",
          "type": "uint256"
        },
        {
          "internalType": "bool",
          "name": "autoRebalance",
          "type": "bool"
        },
        {
          "internalType": "uint256",
          "name": "rebalanceThreshold",
          "type": "uint256"
        }
      ],
      "stateMutability": "view",
      "type": "function"
    },
    {
      "inputs": [],
      "name": "proxiableUUID",
      "outputs": [
        {
          "internalType": "bytes32",
          "name": "",
          "type": "bytes32"
        }
      ],
      "stateMutability": "view",
      "type": "function"
    },
    {
      "inputs": [],
      "name": "rebalanceCooldown",
      "outputs": [
        {
          "internalType": "uint256",
          "name": "",
          "type": "uint256"
        }
      ],
      "stateMutability": "view",
      "type": "function"
    },
    {
      "inputs": [],
      "name": "rebalancePortfolio",
      "outputs": [],
      "stateMutability": "nonpayable",
      "type": "function"
    },
    {
      "inputs": [],
      "name": "renounceOwnership",
      "outputs": [],
      "stateMutability": "nonpayable",
      "type": "function"
    },
    {
      "inputs": [
        {
          "internalType": "bool",
          "name": "_paused",
          "type": "bool"
        }
      ],
      "name": "setEmergencyPause",
      "outputs": [],
      "stateMutability": "nonpayable",
      "type": "function"
    },
    {
      "inputs": [
        {
          "internalType": "uint256",
          "name": "_rebalanceCooldown",
          "type": "uint256"
        },
        {
          "internalType": "uint256",
          "name": "_maxSlippage",
          "type": "uint256"
        },
        {
          "internalType": "uint256",
          "name": "_performanceFee",
          "type": "uint256"
        },
        {
          "internalType": "uint256",
          "name": "_maxRiskLevel",
          "type": "uint256"
        }
      ],
      "name": "setProtocolParameters",
      "outputs": [],
      "stateMutability": "nonpayable",
      "type": "function"
    },
    {
      "inputs": [
        {
          "internalType": "address",
          "name": "_manager",
          "type": "address"
        },
        {
          "internalType": "bool",
          "name": "_status",
          "type": "bool"
        }
      ],
      "name": "setStrategyManager",
      "outputs": [],
      "stateMutability": "nonpayable",
      "type": "function"
    },
    {
      "inputs": [],
      "name": "stakingRewards",
      "outputs": [
        {
          "internalType": "contract StakingRewards",
          "name": "",
          "type": "address"
        }
      ],
      "stateMutability": "view",
      "type": "function"
    },
    {
      "inputs": [
        {
          "internalType": "uint256",
          "name": "",
          "type": "uint256"
        }
      ],
      "name": "strategies",
      "outputs": [
        {
          "internalType": "uint256",
          "name": "id",
          "type": "uint256"
        },
        {
          "internalType": "string",
          "name": "name",
          "type": "string"
        },
        {
          "internalType": "address",
          "name": "protocol",
          "type": "address"
        },
        {
          "internalType": "bytes4",
          "name": "depositFunction",
          "type": "bytes4"
        },
        {
          "internalType": "bytes4",
          "name": "withdrawFunction",
          "type": "bytes4"
        },
        {
          "internalType": "bytes4",
          "name": "harvestFunction",
          "type": "bytes4"
        },
        {
          "internalType": "address",
          "name": "rewardToken",
          "type": "address"
        },
        {
          "internalType": "uint256",
          "name": "totalDeposited",
          "type": "uint256"
        },
        {
          "internalType": "uint256",
          "name": "totalRewards",
          "type": "uint256"
        },
        {
          "internalType": "bool",
          "name": "active",
          "type": "bool"
        },
        {
          "internalType": "uint256",
          "name": "apy",
          "type": "uint256"
        },
        {
          "internalType": "uint256",
          "name": "riskLevel",
          "type": "uint256"
        },
        {
          "internalType": "uint256",
          "name": "minDeposit",
          "type": "uint256"
        },
        {
          "internalType": "uint256",
          "name": "maxDeposit",
          "type": "uint256"
        }
      ],
      "stateMutability": "view",
      "type": "function"
    },
    {
      "inputs": [
        {
          "internalType": "address",
          "name": "",
          "type": "address"
        }
      ],
      "name": "strategyManagers",
      "outputs": [
        {
          "internalType": "bool",
          "name": "",
          "type": "bool"
        }
      ],
      "stateMutability": "view",
      "type": "function"
    },
    {
      "inputs": [
        {
          "internalType": "address",
          "name": "newOwner",
          "type": "address"
        }
      ],
      "name": "transferOwnership",
      "outputs": [],
      "stateMutability": "nonpayable",
      "type": "function"
    },
    {
      "inputs": [
        {
          "internalType": "uint256",
          "name": "_strategyId",
          "type": "uint256"
        }
      ],
      "name": "updateStrategyAPY",
      "outputs": [],
      "stateMutability": "nonpayable",
      "type": "function"
    },
    {
      "inputs": [
        {
          "internalType": "address",
          "name": "newImplementation",
          "type": "address"
        },
        {
          "internalType": "bytes",
          "name": "data",
          "type": "bytes"
        }
      ],
      "name": "upgradeToAndCall",
      "outputs": [],
      "stateMutability": "payable",
      "type": "function"
    },
    {
      "inputs": [
        {
          "internalType": "address",
          "name": "",
          "type": "address"
        },
        {
          "internalType": "uint256",
          "name": "",
          "type": "uint256"
        }
      ],
      "name": "userStrategies",
      "outputs": [
        {
          "internalType": "uint256",
          "name": "strategyId",
          "type": "uint256"
        },
        {
          "internalType": "address",
          "name": "user",
          "type": "address"
        },
        {
          "internalType": "uint256",
          "name": "depositedAmount",
          "type": "uint256"
        },
        {
          "internalType": "uint256",
          "name": "rewardsEarned",
          "type": "uint256"
        },
        {
          "internalType": "uint256",
          "name": "lastRebalance",
          "type": "uint256"
        },
        {
          "internalType": "bool",
          "name": "autoRebalance",
          "type": "bool"
        },
        {
          "internalType": "uint256",
          "name": "targetAllocation",
          "type": "uint256"
        }
      ],
      "stateMutability": "view",
      "type": "function"
    },
    {
      "inputs": [],
      "name": "yieldVault",
      "outputs": [
        {
          "internalType": "contract YieldVault",
          "name": "",
          "type": "address"
        }
      ],
      "stateMutability": "view",
      "type": "function"
    }
  ],
  "bytecode": "0x60a08060405234605857306080526001600555610e106008556101f46009556107d0600a5568056bc75e2d63100000600b556003600c55610bb8600d556132ef908161005e82396080518181816110c3015261118f0152f35b600080fdfe6080604052600436101561001257600080fd5b60003560e01c80631459457a14611f19578063185f844714611efb5780632be11ae214611caa57806333fb28fc14611c5f5780633aec373f146118cd5780633c8a7234146114955780633d3aaa9a146114775780633e9f9e49146113d557806341526612146113b7578063456f948b1461137e57806346904840146113555780634f1ef2861461114057806351858e271461111a57806352d1902d146110b05780635531ca3614610d305780635c94e93114610cd9578063628ffc7b14610c8b57806364b87a7014610c62578063665a11ca14610c39578063715018a614610bcf57806379f02fd414610a725780637baab3da146109f45780637dc0d1d0146109cb578063822fc8aa1461099657806387788782146109785780638c04166f1461095a5780638da5cb5b146109245780639003adfe146109065780639ebbc16d146108e8578063a41bfcfc146108b5578063a7f8a5e21461088c578063ad3cb1cc14610841578063ae5f8f7214610802578063b3de272d146107e4578063c87965721461076a578063cfc0cc341461053d578063d574ea3d14610443578063d8d1a657146103fe578063eb22ae1114610367578063f0b9c4121461020f5763f2fde38b146101df57600080fd5b3461020a57602036600319011261020a576102086101fb612169565b610203612caf565b6128ef565b005b600080fd5b3461020a57602036600319011261020a57600435806000526004602052604060002061024160ff600683015416612505565b6000546040516873747261746567795f60b81b602082015260298101849052635f61707960e01b6049820152602d81526102dd91606091906001600160a01b031661028d604d836121ce565b60405180809581946352ee0b7760e01b835260056004840152866024840152601060648401526f3cb4b2b6322fb83932b234b1ba34b7b760811b608484015260a0604484015260a483019061231e565b03915afa801561035b577fa90f715377ab8c4556fca85e0bcbdd32a2ce90f03ddb9bbb43ef7a412440b3e99261c35060079260209460009161032a575b50069182910155604051908152a2005b61034c915060603d606011610354575b61034481836121ce565b8101906128d4565b50508761031a565b503d61033a565b6040513d6000823e3d90fd5b3461020a57602036600319011261020a576001600160a01b03610388612169565b166000526006602052604060002060018101546002820154916005810154906103ed60036103cf60ff600685015416936103c86040518094819301612572565b03826121ce565b6040519586958652602086015260a0604086015260a08501906122ea565b916060840152151560808301520390f35b3461020a57602036600319011261020a5760043580151580910361020a57610424612caf565b600f805460ff60a01b191660a09290921b60ff60a01b16919091179055005b3461020a57602036600319011261020a5760043560005260046020526040600020805461047260018301612399565b9160028101549060018060a01b03600382015416906004810154600582015460ff600684015416600784015491600885015493600a6009870154960154966104ce6040519b8c9b8c526101c060208d01526101c08c019061231e565b6001600160a01b038a1660408c8101919091528a901b6001600160e01b031990811660608d015260208b901b811660808d015290991660a08b015260c08a015260e089015261010088015215156101208701526101408601526101608501526101808401526101a08301520390f35b3461020a57602036600319011261020a5760405161055a816121b1565b60008152602081016060905260408101600090526060810160009052608081016000905260a081016000905260c081016000905260e08101600090526101008101600090526101208101600090526101408101600090526101608101600090526101808101600090526101a00160009052600435600052600460205260406000206040516105e7816121b1565b815481526105f760018301612399565b916020820192835260028101546040830191600160a01b6001900382168352606084019163ffffffff60e01b8160401b168352608085019063ffffffff60e01b8160201b16825260a086019063ffffffff60e01b168152600160a01b6001900360038401541660c08701908152600484015460e088019081526005850154906101008901918252600686015460ff16926101208a0193151584526007870154946101408b019586526008880154966101608c019788526009890154986101808d01998a52600a0154996101a08d019a8b52604051809e819e6020835251602083015251604082016101c090526101e082016106f19161231e565b9c516001600160a01b0390811660609092019190915290516001600160e01b031990811660808f01529151821660a08e015291511660c08c015290511660e08a015251610100890152516101208801525115156101408701525161016086015251610180850152516101a0840152516101c08301520390f35b3461020a57600036600319011261020a57610783612caf565b600e5480156107aa5760008080809381600e5560018060a01b03600f541682f11561035b57005b60405162461bcd60e51b8152602060048201526012602482015271139bc81999595cc81d1bc818dbdb1b1958dd60721b6044820152606490fd5b3461020a57600036600319011261020a576020600854604051908152f35b3461020a57602036600319011261020a576001600160a01b03610823612169565b166000526010602052602060ff604060002054166040519015158152f35b3461020a57600036600319011261020a57610888604080519061086481836121ce565b60058252640352e302e360dc1b60208301525191829160208352602083019061231e565b0390f35b3461020a57600036600319011261020a576002546040516001600160a01b039091168152602090f35b3461020a57608036600319011261020a576108ce612caf565b600435600855602435600955604435600a55606435600c55005b3461020a57600036600319011261020a576020600d54604051908152f35b3461020a57600036600319011261020a576020600e54604051908152f35b3461020a57600036600319011261020a5760008051602061323a833981519152546040516001600160a01b039091168152602090f35b3461020a57600036600319011261020a576020600954604051908152f35b3461020a57600036600319011261020a576020600a54604051908152f35b3461020a57600036600319011261020a576109af612965565b6109b76125ac565b600160008051602061327a83398151915255005b3461020a57600036600319011261020a576000546040516001600160a01b039091168152602090f35b3461020a57602036600319011261020a576001600160a01b03610a15612169565b16600052600660205260c0604060002060018060a01b03815416906001810154906002810154600582015490600760ff600685015416930154936040519586526020860152604085015260608401521515608083015260a0820152f35b3461020a57602036600319011261020a576001600160a01b03610a93612169565b1660005260076020526040600020805490610aad82612275565b91610abb60405193846121ce565b80835260208301809260005260206000206000915b838310610b645784866040519182916020830190602084525180915260408301919060005b818110610b03575050500390f35b91935091602060e060019260c0875180518352858060a01b0385820151168584015260408101516040840152606081015160608401526080810151608084015260a0810151151560a0840152015160c0820152019401910191849392610af5565b60076020600192604051610b7781612195565b85548152848060a01b0385870154168382015260028601546040820152600386015460608201526004860154608082015260ff600587015416151560a0820152600686015460c0820152815201920192019190610ad0565b3461020a57600036600319011261020a57610be8612caf565b60008051602061323a83398151915280546001600160a01b031981169091556000906001600160a01b03167f8be0079c531659141344cd1fd0a4f28419497f9722a3daafe3b4186f6b6457e08280a3005b3461020a57600036600319011261020a576003546040516001600160a01b039091168152602090f35b3461020a57600036600319011261020a576001546040516001600160a01b039091168152602090f35b3461020a57602036600319011261020a576001600160a01b03610cac612169565b166000526006602052610888610cc56040600020612ce5565b6040519182916020835260208301906122ea565b3461020a57604036600319011261020a57610cf2612169565b602435801515810361020a5761020891610d0a612caf565b60018060a01b0316600052601060205260406000209060ff801983541691151516179055565b3461020a57608036600319011261020a5760043567ffffffffffffffff811161020a57610d6190369060040161228d565b60243567ffffffffffffffff811161020a57610d8190369060040161228d565b9060443590811515820361020a57805183510361107757600281511061103257600090815b8451831015610dce57610dc6600191610dbf858861255e565b5190612499565b920191610da6565b6127109193925003610fed5760009060005b8451811015610e1a5782610df4828761255e565b5111610e03575b600101610de0565b91506001610e11838661255e565b51929050610dfb565b509190600d5461271003906127108211610fd75711610f925733600081815260066020526040902080546001600160a01b031916909117815581519092906003840167ffffffffffffffff8211610f7c57600160401b8211610f7c578054828255808310610f5e575b506020840190600052602060002060005b838110610f4a5750505050610eb890600684019060ff801983541691151516179055565b6064356007830155426005830155600460009201915b8151811015610f035780610ee46001928661255e565b51610eef828561255e565b516000528460205260406000205501610ece565b507f683fba1272114507832ff9fe9d8b9cd62e20b14a3502bcd0759c9301c56265326040516020815280610f3c339460208301906122ea565b0390a2602060405160008152f35b600190602084519401938184015501610e94565b610f7690826000528360206000209182019101612547565b86610e83565b634e487b7160e01b600052604160045260246000fd5b60405162461bcd60e51b815260206004820152601c60248201527f496e73756666696369656e7420646976657273696669636174696f6e000000006044820152606490fd5b634e487b7160e01b600052601160045260246000fd5b60405162461bcd60e51b815260206004820152601c60248201527f416c6c6f636174696f6e73206d7573742073756d20746f2031303025000000006044820152606490fd5b60405162461bcd60e51b815260206004820152601a60248201527f4e656564206174206c65617374203220737472617465676965730000000000006044820152606490fd5b60405162461bcd60e51b81526020600482015260116024820152704d69736d6174636865642061727261797360781b6044820152606490fd5b3461020a57600036600319011261020a577f00000000000000000000000000000000000000000000000000000000000000006001600160a01b0316300361110957602060405160008051602061325a8339815191528152f35b63703e46dd60e11b60005260046000fd5b3461020a57600036600319011261020a57602060ff600f5460a01c166040519015158152f35b604036600319011261020a57611154612169565b60243567ffffffffffffffff811161020a573660238201121561020a5761118590369060248160040135910161220c565b6001600160a01b037f000000000000000000000000000000000000000000000000000000000000000016308114908115611332575b50611109576111c7612caf565b6040516352d1902d60e01b81526001600160a01b0383169290602081600481875afa600091816112fe575b5061120c5783634c9c8ce360e01b60005260045260246000fd5b8060008051602061325a8339815191528592036112ea5750813b156112d65760008051602061325a83398151915280546001600160a01b031916821790557fbc7cd75a20ee27fd9adebab32041f755214dbc6bffa90cc0225b39da2e5c2d3b600080a28151156112bc5760008083602061020895519101845af43d156112b4573d91611297836121f0565b926112a560405194856121ce565b83523d6000602085013e6131d8565b6060916131d8565b5050346112c557005b63b398979f60e01b60005260046000fd5b634c9c8ce360e01b60005260045260246000fd5b632a87526960e21b60005260045260246000fd5b9091506020813d60201161132a575b8161131a602093836121ce565b8101031261020a575190856111f2565b3d915061130d565b60008051602061325a833981519152546001600160a01b031614159050836111ba565b3461020a57600036600319011261020a57600f546040516001600160a01b039091168152602090f35b3461020a57602036600319011261020a57611397612caf565b6004356000526004602052600660406000200160ff198154169055600080f35b3461020a57600036600319011261020a576020600b54604051908152f35b3461020a57604036600319011261020a576113ee612169565b6001600160a01b031660009081526007602052604090208054602435919082101561020a5760e09161141f91612243565b5080549060018060a01b036001820154169060028101546003820154600483015491600660ff600586015416940154946040519687526020870152604086015260608501526080840152151560a083015260c0820152f35b3461020a57600036600319011261020a576020600c54604051908152f35b3461020a5761012036600319011261020a5760043567ffffffffffffffff811161020a573660238201121561020a576114d890369060248160040135910161220c565b6114e061217f565b906044359163ffffffff60e01b831680930361020a576064359163ffffffff60e01b831680930361020a5760843563ffffffff60e01b811680910361020a5760a4356001600160a01b0381169081900361020a5760c4359133600052601060205260ff6040600020541615611897576005831161185d57600554956000198714610fd7576001870160055560405197611578896121b1565b8789528560208a015260018060a01b03871660408a01526060890152608088015260a087015260c0860152600060e086015260006101008601526001610120860152600061014086015261016085015260e435610180850152610104356101a08501528260005260046020526040600020918451835560208501519283519567ffffffffffffffff8711610f7c576020968695611618600185015461235f565b601f811161181f575b508890601f83116001146117815761175c9593837fb4f6e79b3a86f44f9532f08d9c5499ea9db5b25208bdf0c145a0d9164a041af4989694600a946101a094600092611776575b50508160011b916000199060031b1c19161760018501555b6040818101516060830151608084015160a085015191841c63ffffffff60a01b166001600160a01b039384161760209190911c63ffffffff60c01b16176001600160e01b031990911617600287015560c08301516003870180546001600160a01b0319169190921617905560e08201516004860155610100820151600586015561012082015160068601805460ff9215159290921660ff1990921691909117905561014082015160078601556101608201516008860155610180820151600986015591015191909201558051818152938493909184019061231e565b6001600160a01b03909116828801520390a2604051908152f35b015190508d80611668565b9060018501600052806000209160005b601f1985168110611805575093600184600a946101a09461175c9a987fb4f6e79b3a86f44f9532f08d9c5499ea9db5b25208bdf0c145a0d9164a041af49c9a98601f198116106117ec575b505050811b016001850155611680565b015160001960f88460031b161c191690558d80806117dc565b8183015184558a9950600190930192918b01918b01611791565b61184d90600186016000528a600020601f850160051c8101918c8610611853575b601f0160051c0190612547565b89611621565b9091508190611840565b60405162461bcd60e51b8152602060048201526012602482015271125b9d985b1a59081c9a5cdac81b195d995b60721b6044820152606490fd5b60405162461bcd60e51b815260206004820152600e60248201526d139bdd08185d5d1a1bdc9a5e995960921b6044820152606490fd5b3461020a57604036600319011261020a576004356024356118ec612965565b816000526004602052604060002061190a60ff600683015416612505565b60098101548210611c2657600a611925836004840154612499565b91015410611be157336000526006602052604060002060038101805461194c81151561243d565b8460009260005b838110611bb2575b5050505015611b6d576001546040516372f702f360e01b815290602090829060049082906001600160a01b03165afa801561035b576119dd91600091611b3e575b506040516323b872dd60e01b602082015233602482015230604482015260648082018690528152906119cf6084836121ce565b6001600160a01b031661303c565b6119e782846129b9565b600181016119f6838254612499565b9055336000526007602052604060002090600460ff600683015416918560005201602052604060002054604051611a2c81612195565b858152602081019233845260408201948686526060830160008152608084019142835260a08501931515845260c085019586528054600160401b811015610f7c57611a7c91600182018155612243565b979097611b2857600696611adf9551895560018060a01b03905116600189019060018060a01b03166001600160601b0360a01b825416179055516002880155516003870155516004860155511515600585019060ff801983541691151516179055565b5191015560405191825260208201527f90890809c654f11d6e72a28fa60149770a0d11ec6c92319d6ceb2bb0a4ea1a1560403392a2600160008051602061327a83398151915255005b634e487b7160e01b600052600060045260246000fd5b611b60915060203d602011611b66575b611b5881836121ce565b8101906124e6565b8561199c565b503d611b4e565b60405162461bcd60e51b815260206004820152601960248201527f5374726174656779206e6f7420696e20706f7274666f6c696f000000000000006044820152606490fd5b82611bbd8284612481565b90549060031b1c14611bd157600101611953565b505050505060018484818061195b565b60405162461bcd60e51b815260206004820152601a60248201527f53747261746567792063617061636974792065786365656465640000000000006044820152606490fd5b60405162461bcd60e51b815260206004820152601160248201527011195c1bdcda5d081d1bdbc81cdb585b1b607a1b6044820152606490fd5b3461020a57604036600319011261020a576001600160a01b03611c80612169565b16600052600660205260046040600020016024356000526020526020604060002054604051908152f35b3461020a57600036600319011261020a57611cc3612965565b33600052600660205260406000206003810190611ce28254151561243d565b600091825b8154841015611dd757611cfa8483612481565b905460039190911b1c600090815260046020526040812060028101546001546001600160a01b0390811694939116848103611d9f575050823b1561020a576000809360046040518096819363372500ab60e01b83525af191821561035b57600193611d8693611d8e575b50600568056bc75e2d63100000925b01611d7f838254612499565b9055612499565b930192611ce7565b6000611d99916121ce565b87611d64565b60025460019550611d86949293916001600160a01b0390911614611dc6575b600590611d73565b6802b5e3af16b18800009250611dbe565b8281611e1f575b506040519081527fbc8fb63d817de4fabea2108e9b7eefca87245899f4b357636c26b5cad02ec5b460203392a2600160008051602061327a83398151915255005b6002612710611e30600a54856124a6565b0491611e48611e3f84866124d9565b93600e54612499565b600e5501611e57828254612499565b90556001546040516372f702f360e01b815290602090829060049082906001600160a01b03165afa801561035b57611ed092611ec292600092611ed6575b5060405163a9059cbb60e01b60208201523360248201526044810191909152916119cf9083906064820190565b03601f1981018452836121ce565b81611dde565b6119cf919250611ef49060203d602011611b6657611b5881836121ce565b9190611e95565b3461020a57600036600319011261020a576020600554604051908152f35b3461020a5760a036600319011261020a57611f32612169565b611f3a61217f565b6044356001600160a01b0381169081900361020a576064356001600160a01b038116919082900361020a576084356001600160a01b038116939084900361020a5760008051602061329a833981519152549460ff8660401c16159567ffffffffffffffff811680159081612161575b6001149081612157575b15908161214e575b5061213d5767ffffffffffffffff19811660011760008051602061329a8339815191525586612110575b50611fee61300e565b611ff661300e565b611fff336128ef565b61200761300e565b61200f61300e565b600160008051602061327a8339815191525561202961300e565b60018060a01b03166001600160601b0360a01b600054161760005560018060a01b03166001600160601b0360a01b60015416176001556001600160601b0360a01b60025416176002556001600160601b0360a01b60035416176003556001600160601b0360a01b600f541617600f553360005260106020526040600020600160ff198254161790556120b757005b68ff00000000000000001960008051602061329a833981519152541660008051602061329a833981519152557fc7f505b2f371ae2175ee4913f4499e1f2633a7b5936321eed1cdaeb6115181d2602060405160018152a1005b68ffffffffffffffffff1916680100000000000000011760008051602061329a8339815191525586611fe5565b63f92ee8a960e01b60005260046000fd5b90501588611fbb565b303b159150611fb3565b889150611fa9565b600435906001600160a01b038216820361020a57565b602435906001600160a01b038216820361020a57565b60e0810190811067ffffffffffffffff821117610f7c57604052565b6101c0810190811067ffffffffffffffff821117610f7c57604052565b90601f8019910116810190811067ffffffffffffffff821117610f7c57604052565b67ffffffffffffffff8111610f7c57601f01601f191660200190565b929192612218826121f0565b9161222660405193846121ce565b82948184528183011161020a578281602093846000960137010152565b805482101561225f576000526007602060002091020190600090565b634e487b7160e01b600052603260045260246000fd5b67ffffffffffffffff8111610f7c5760051b60200190565b9080601f8301121561020a5781356122a481612275565b926122b260405194856121ce565b81845260208085019260051b82010192831161020a57602001905b8282106122da5750505090565b81358152602091820191016122cd565b906020808351928381520192019060005b8181106123085750505090565b82518452602093840193909201916001016122fb565b919082519283825260005b84811061234a575050826000602080949584010152601f8019910116010190565b80602080928401015182828601015201612329565b90600182811c9216801561238f575b602083101461237957565b634e487b7160e01b600052602260045260246000fd5b91607f169161236e565b90604051918260008254926123ad8461235f565b808452936001811690811561241b57506001146123d4575b506123d2925003836121ce565b565b90506000929192526020600020906000915b8183106123ff5750509060206123d292820101386123c5565b60209193508060019154838589010152019101909184926123e6565b9050602092506123d294915060ff191682840152151560051b820101386123c5565b1561244457565b60405162461bcd60e51b8152602060048201526015602482015274141bdc9d199bdb1a5bc81b9bdd0818dc99585d1959605a1b6044820152606490fd5b805482101561225f5760005260206000200190600090565b91908201809211610fd757565b81810292918115918404141715610fd757565b81156124c3570490565b634e487b7160e01b600052601260045260246000fd5b91908203918211610fd757565b9081602091031261020a57516001600160a01b038116810361020a5790565b1561250c57565b60405162461bcd60e51b81526020600482015260136024820152725374726174656779206e6f742061637469766560681b6044820152606490fd5b818110612552575050565b60008155600101612547565b805182101561225f5760209160051b010190565b906020825491828152019160005260206000209060005b8181106125965750505090565b8254845260209093019260019283019201612589565b3360005260066020526040600020600381016125ca8154151561243d565b60058201916125dd835460085490612499565b421061288f576125ec81612f85565b1580612880575b61287b5761260081612ce5565b9360018201549060005b84548110156128215761261d8186612481565b90549060031b1c61271061263b612634848b61255e565b51866124a6565b0461264f8260018060a01b038854166130e5565b818111612662575b50505060010161260a565b9061266c916124d9565b600082815260046020526040902060028101546001546001600160a01b03918216911681036127b157506001546001600160a01b031690813b1561020a576000809260046040518095819363016f7b3160e51b83525af191821561035b576004926127a0575b505b016126e08282546124d9565b9055600087541561278c5780886020925220916000925492838152600460205260076040822001546001918a54925b83811061273f5750505050908291600194930361272f575b829350612657565b612738916129b9565b3880612727565b612749818d612481565b90549060031b1c808352600460205283600760408520015411612770575b5060010161270f565b8083526004602052604083206007015490975092506001612767565b634e487b7160e01b81526032600452602490fd5b60006127ab916121ce565b386126d2565b6002546001600160a01b0316919082146127cf575b600491506126d4565b813b1561020a5760008092604460405180958193630441a3e760e41b83528960048401528860248401525af191821561035b57600492612810575b506127c6565b600061281b916121ce565b3861280a565b50949361286792507f7819455abd8f4b99cfc30fc64c532482b62d1e1e7e9d2a4a1595c83bcc21136a939150429055612876604051928392604084526040840190612572565b828103602084015233956122ea565b0390a2565b505050565b5060ff600682015416156125f3565b60405162461bcd60e51b815260206004820152601960248201527f526562616c616e636520636f6f6c646f776e20616374697665000000000000006044820152606490fd5b9081606091031261020a578051916040602083015192015190565b6001600160a01b0316801561294f5760008051602061323a83398151915280546001600160a01b0319811683179091556001600160a01b03167f8be0079c531659141344cd1fd0a4f28419497f9722a3daafe3b4186f6b6457e0600080a3565b631e4fbdf760e01b600052600060045260246000fd5b600260008051602061327a833981519152541461299057600260008051602061327a83398151915255565b633ee5aeb560e01b60005260046000fd5b9081602091031261020a5751801515810361020a5790565b600081815260046020526040812060028101546001549193916001600160a01b039182169116808203612b545750506001546040516372f702f360e01b815291506001600160a01b0316602082600481845afa918215612b4957612a5b9260209287928692612b2a575b5060405163095ea7b360e01b81526001600160a01b039091166004820152602481019290925290928391908290869082906044820190565b03926001600160a01b03165af18015612aee57612afd575b506001546001600160a01b0316803b15612af95781809160646040518094819363561b246360e01b835289600484015262278d006024840152600160448401525af18015612aee57612ad6575b50506004612ad2915b01918254612499565b9055565b612ae18280926121ce565b612aeb5780612ac0565b80fd5b6040513d84823e3d90fd5b5080fd5b612b1e9060203d602011612b23575b612b1681836121ce565b8101906129a1565b612a73565b503d612b0c565b612b42919250843d8611611b6657611b5881836121ce565b9038612a23565b6040513d85823e3d90fd5b6002546001600160a01b0316918214612b77575b505050506004612ad291612ac9565b906020600492604051938480926372f702f360e01b82525afa918215612ca457612bdf9260209288928792612c85575b5060405163095ea7b360e01b81526001600160a01b039091166004820152602481019290925290928391908290879082906044820190565b03926001600160a01b03165af18015612b4957612c68575b506002546001600160a01b031690813b15612c645782916064839260405194859384926321d0683360e11b84526004840152896024840152600160448401525af18015612aee5791612ad29391600493612c54575b829450612b68565b81612c5e916121ce565b38612c4c565b8280fd5b612c809060203d602011612b2357612b1681836121ce565b612bf7565b612c9d919250843d8611611b6657611b5881836121ce565b9038612ba7565b6040513d86823e3d90fd5b60008051602061323a833981519152546001600160a01b03163303612cd057565b63118cdaa760e01b6000523360045260246000fd5b600301908154612cf481612275565b92612d0260405194856121ce565b818452601f19612d1183612275565b01366020860137600080546001600160a01b031691905b838110612db757505050506000805b8351821015612d5857612d50600191610dbf848761255e565b910190612d37565b905091909180612d66575090565b919060005b8151811015612db257612d7e818361255e565b51906127108202918083046127101490151715610fd757612da1856001936124b9565b612dab828561255e565b5201612d6b565b509150565b806060612dc7612f379385612481565b90549060031b1c80600052600460205260406000206101a0600a60405192612dee846121b1565b80548452612dfe60018201612399565b6020850152600281015460018060a01b038116604086015263ffffffff60e01b8160401b168786015263ffffffff60e01b8160201b16608086015263ffffffff60e01b1660a085015260018060a01b0360038201541660c0850152600481015460e0850152600581015461010085015260ff60068201541615156101208501526007810154610140850152600881015461016085015260098101546101808501520154910152604051906873747261746567795f60b81b602083015260298201526a2fb0b63637b1b0ba34b7b760a91b604982015260348152612ee26054826121ce565b604051809481926352ee0b7760e01b83526005600484015284602484015260166064840152753837b93a3337b634b7afb7b83a34b6b4bd30ba34b7b760511b608484015260a0604484015260a483019061231e565b0381875afa91821561035b5760019261271191600091612f65575b5006612f5e828961255e565b5201612d28565b612f7d915060603d81116103545761034481836121ce565b505038612f52565b60005b6003820180548210156130065781612f9f91612481565b90549060031b1c612fb98160018060a01b03855416613097565b906000526004830160205260406000205490818111600014612ff85790612fdf916124d9565b600783015410612ff157600101612f88565b5050600190565b613001916124d9565b612fdf565b505050600090565b60ff60008051602061329a8339815191525460401c161561302b57565b631afcd79f60e31b60005260046000fd5b906000602091828151910182855af11561035b576000513d61308e57506001600160a01b0381163b155b61306d5750565b635274afe760e01b60009081526001600160a01b0391909116600452602490fd5b60011415613066565b6001600160a01b038116600090815260066020526040902060010154918215613006576130c3916130e5565b906127108202918083046127101490151715610fd7576130e2916124b9565b90565b6001600160a01b03166000908152600760205260409020805461310781612275565b9161311560405193846121ce565b818352602083019060005260206000206000915b83831061316d575050505060005b8151811015613006578261314b828461255e565b51511461315a57600101613137565b604092506131679161255e565b51015190565b6007602060019260405161318081612195565b85548152848060a01b0385870154168382015260028601546040820152600386015460608201526004860154608082015260ff600587015416151560a0820152600686015460c0820152815201920192019190613129565b906131fe57508051156131ed57602081519101fd5b63d6bda27560e01b60005260046000fd5b81511580613230575b61320f575090565b639996b31560e01b60009081526001600160a01b0391909116600452602490fd5b50803b1561320756fe9016d09d72d40fdae2fd8ceac6b6234c7706214fd39c1cd1e609a0528c199300360894a13ba1a3210667c828492db98dca3e2076cc3735a920a3ca505d382bbc9b779b17422d0df92223018b32b4d1fa46e071723d6817e2486d003becc55f00f0c57e16840df040f15088dc2f81fe391c3923bec73e23a9662efc9c229c6a00a26469706673582212206eb52c81fc3a875c87afb262416d802f8cfa9bb38139b7f56f68f7c1285ab5f664736f6c634300081c0033",
  "linkReferences": {},
  "deployedLinkReferences": {}
}