{
  "_format": "hh-sol-artifact-1",
  "contractName": "YieldAggregator",
  "sourceName": "contracts/YieldAggregator.sol",
  "abi": [
    {
      "inputs": [
        {
          "internalType": "address",
          "name": "target",
          "type": "address"
        }
      ],
      "name": "AddressEmptyCode",
      "type": "error"
    },
    {
      "inputs": [
        {
          "internalType": "address",
          "name": "implementation",
          "type": "address"
        }
      ],
      "name": "ERC1967InvalidImplementation",
      "type": "error"
    },
    {
      "inputs": [],
      "name": "ERC1967NonPayable",
      "type": "error"
    },
    {
      "inputs": [],
      "name": "FailedCall",
      "type": "error"
    },
    {
      "inputs": [],
      "name": "InvalidInitialization",
      "type": "error"
    },
    {
      "inputs": [],
      "name": "NotInitializing",
      "type": "error"
    },
    {
      "inputs": [
        {
          "internalType": "address",
          "name": "owner",
          "type": "address"
        }
      ],
      "name": "OwnableInvalidOwner",
      "type": "error"
    },
    {
      "inputs": [
        {
          "internalType": "address",
          "name": "account",
          "type": "address"
        }
      ],
      "name": "OwnableUnauthorizedAccount",
      "type": "error"
    },
    {
      "inputs": [],
      "name": "ReentrancyGuardReentrantCall",
      "type": "error"
    },
    {
      "inputs": [
        {
          "internalType": "address",
          "name": "token",
          "type": "address"
        }
      ],
      "name": "SafeERC20FailedOperation",
      "type": "error"
    },
    {
      "inputs": [],
      "name": "UUPSUnauthorizedCallContext",
      "type": "error"
    },
    {
      "inputs": [
        {
          "internalType": "bytes32",
          "name": "slot",
          "type": "bytes32"
        }
      ],
      "name": "UUPSUnsupportedProxiableUUID",
      "type": "error"
    },
    {
      "anonymous": false,
      "inputs": [
        {
          "indexed": true,
          "internalType": "address",
          "name": "user",
          "type": "address"
        },
        {
          "indexed": false,
          "internalType": "uint256",
          "name": "strategyId",
          "type": "uint256"
        },
        {
          "indexed": false,
          "internalType": "uint256",
          "name": "amount",
          "type": "uint256"
        }
      ],
      "name": "Deposit",
      "type": "event"
    },
    {
      "anonymous": false,
      "inputs": [
        {
          "indexed": false,
          "internalType": "uint64",
          "name": "version",
          "type": "uint64"
        }
      ],
      "name": "Initialized",
      "type": "event"
    },
    {
      "anonymous": false,
      "inputs": [
        {
          "indexed": true,
          "internalType": "address",
          "name": "previousOwner",
          "type": "address"
        },
        {
          "indexed": true,
          "internalType": "address",
          "name": "newOwner",
          "type": "address"
        }
      ],
      "name": "OwnershipTransferred",
      "type": "event"
    },
    {
      "anonymous": false,
      "inputs": [
        {
          "indexed": true,
          "internalType": "address",
          "name": "user",
          "type": "address"
        },
        {
          "indexed": false,
          "internalType": "uint256[]",
          "name": "strategyIds",
          "type": "uint256[]"
        }
      ],
      "name": "PortfolioCreated",
      "type": "event"
    },
    {
      "anonymous": false,
      "inputs": [
        {
          "indexed": true,
          "internalType": "address",
          "name": "user",
          "type": "address"
        },
        {
          "indexed": false,
          "internalType": "uint256[]",
          "name": "strategyIds",
          "type": "uint256[]"
        },
        {
          "indexed": false,
          "internalType": "uint256[]",
          "name": "allocations",
          "type": "uint256[]"
        }
      ],
      "name": "RebalanceExecuted",
      "type": "event"
    },
    {
      "anonymous": false,
      "inputs": [
        {
          "indexed": true,
          "internalType": "address",
          "name": "user",
          "type": "address"
        },
        {
          "indexed": false,
          "internalType": "uint256",
          "name": "totalRewards",
          "type": "uint256"
        }
      ],
      "name": "RewardsHarvested",
      "type": "event"
    },
    {
      "anonymous": false,
      "inputs": [
        {
          "indexed": true,
          "internalType": "uint256",
          "name": "strategyId",
          "type": "uint256"
        },
        {
          "indexed": false,
          "internalType": "string",
          "name": "name",
          "type": "string"
        },
        {
          "indexed": false,
          "internalType": "address",
          "name": "protocol",
          "type": "address"
        }
      ],
      "name": "StrategyAdded",
      "type": "event"
    },
    {
      "anonymous": false,
      "inputs": [
        {
          "indexed": true,
          "internalType": "uint256",
          "name": "strategyId",
          "type": "uint256"
        },
        {
          "indexed": false,
          "internalType": "uint256",
          "name": "newAPY",
          "type": "uint256"
        }
      ],
      "name": "StrategyOptimized",
      "type": "event"
    },
    {
      "anonymous": false,
      "inputs": [
        {
          "indexed": true,
          "internalType": "address",
          "name": "implementation",
          "type": "address"
        }
      ],
      "name": "Upgraded",
      "type": "event"
    },
    {
      "anonymous": false,
      "inputs": [
        {
          "indexed": true,
          "internalType": "address",
          "name": "user",
          "type": "address"
        },
        {
          "indexed": false,
          "internalType": "uint256",
          "name": "strategyId",
          "type": "uint256"
        },
        {
          "indexed": false,
          "internalType": "uint256",
          "name": "amount",
          "type": "uint256"
        }
      ],
      "name": "Withdraw",
      "type": "event"
    },
    {
      "inputs": [],
      "name": "UPGRADE_INTERFACE_VERSION",
      "outputs": [
        {
          "internalType": "string",
          "name": "",
          "type": "string"
        }
      ],
      "stateMutability": "view",
      "type": "function"
    },
    {
      "inputs": [
        {
          "internalType": "string",
          "name": "_name",
          "type": "string"
        },
        {
          "internalType": "address",
          "name": "_protocol",
          "type": "address"
        },
        {
          "internalType": "bytes4",
          "name": "_depositFunction",
          "type": "bytes4"
        },
        {
          "internalType": "bytes4",
          "name": "_withdrawFunction",
          "type": "bytes4"
        },
        {
          "internalType": "bytes4",
          "name": "_harvestFunction",
          "type": "bytes4"
        },
        {
          "internalType": "address",
          "name": "_rewardToken",
          "type": "address"
        },
        {
          "internalType": "uint256",
          "name": "_riskLevel",
          "type": "uint256"
        },
        {
          "internalType": "uint256",
          "name": "_minDeposit",
          "type": "uint256"
        },
        {
          "internalType": "uint256",
          "name": "_maxDeposit",
          "type": "uint256"
        }
      ],
      "name": "addStrategy",
      "outputs": [
        {
          "internalType": "uint256",
          "name": "",
          "type": "uint256"
        }
      ],
      "stateMutability": "nonpayable",
      "type": "function"
    },
    {
      "inputs": [],
      "name": "collectFees",
      "outputs": [],
      "stateMutability": "nonpayable",
      "type": "function"
    },
    {
      "inputs": [],
      "name": "collectedFees",
      "outputs": [
        {
          "internalType": "uint256",
          "name": "",
          "type": "uint256"
        }
      ],
      "stateMutability": "view",
      "type": "function"
    },
    {
      "inputs": [
        {
          "internalType": "uint256[]",
          "name": "_strategyIds",
          "type": "uint256[]"
        },
        {
          "internalType": "uint256[]",
          "name": "_allocations",
          "type": "uint256[]"
        },
        {
          "internalType": "bool",
          "name": "_autoRebalance",
          "type": "bool"
        },
        {
          "internalType": "uint256",
          "name": "_rebalanceThreshold",
          "type": "uint256"
        }
      ],
      "name": "createPortfolio",
      "outputs": [
        {
          "internalType": "uint256",
          "name": "portfolioId",
          "type": "uint256"
        }
      ],
      "stateMutability": "nonpayable",
      "type": "function"
    },
    {
      "inputs": [
        {
          "internalType": "uint256",
          "name": "_strategyId",
          "type": "uint256"
        }
      ],
      "name": "deactivateStrategy",
      "outputs": [],
      "stateMutability": "nonpayable",
      "type": "function"
    },
    {
      "inputs": [
        {
          "internalType": "uint256",
          "name": "_strategyId",
          "type": "uint256"
        },
        {
          "internalType": "uint256",
          "name": "_amount",
          "type": "uint256"
        }
      ],
      "name": "depositToPortfolio",
      "outputs": [],
      "stateMutability": "nonpayable",
      "type": "function"
    },
    {
      "inputs": [],
      "name": "diversificationRequirement",
      "outputs": [
        {
          "internalType": "uint256",
          "name": "",
          "type": "uint256"
        }
      ],
      "stateMutability": "view",
      "type": "function"
    },
    {
      "inputs": [],
      "name": "emergencyPause",
      "outputs": [
        {
          "internalType": "bool",
          "name": "",
          "type": "bool"
        }
      ],
      "stateMutability": "view",
      "type": "function"
    },
    {
      "inputs": [],
      "name": "feeRecipient",
      "outputs": [
        {
          "internalType": "address",
          "name": "",
          "type": "address"
        }
      ],
      "stateMutability": "view",
      "type": "function"
    },
    {
      "inputs": [
        {
          "internalType": "address",
          "name": "_user",
          "type": "address"
        }
      ],
      "name": "getOptimalAllocations",
      "outputs": [
        {
          "internalType": "uint256[]",
          "name": "",
          "type": "uint256[]"
        }
      ],
      "stateMutability": "view",
      "type": "function"
    },
    {
      "inputs": [
        {
          "internalType": "address",
          "name": "_user",
          "type": "address"
        }
      ],
      "name": "getPortfolio",
      "outputs": [
        {
          "internalType": "uint256",
          "name": "totalValue",
          "type": "uint256"
        },
        {
          "internalType": "uint256",
          "name": "totalRewards",
          "type": "uint256"
        },
        {
          "internalType": "uint256[]",
          "name": "strategyIds",
          "type": "uint256[]"
        },
        {
          "internalType": "uint256",
          "name": "lastRebalance",
          "type": "uint256"
        },
        {
          "internalType": "bool",
          "name": "autoRebalance",
          "type": "bool"
        }
      ],
      "stateMutability": "view",
      "type": "function"
    },
    {
      "inputs": [
        {
          "internalType": "address",
          "name": "_user",
          "type": "address"
        },
        {
          "internalType": "uint256",
          "name": "_strategyId",
          "type": "uint256"
        }
      ],
      "name": "getPortfolioAllocation",
      "outputs": [
        {
          "internalType": "uint256",
          "name": "",
          "type": "uint256"
        }
      ],
      "stateMutability": "view",
      "type": "function"
    },
    {
      "inputs": [
        {
          "internalType": "uint256",
          "name": "_strategyId",
          "type": "uint256"
        }
      ],
      "name": "getStrategy",
      "outputs": [
        {
          "components": [
            {
              "internalType": "uint256",
              "name": "id",
              "type": "uint256"
            },
            {
              "internalType": "string",
              "name": "name",
              "type": "string"
            },
            {
              "internalType": "address",
              "name": "protocol",
              "type": "address"
            },
            {
              "internalType": "bytes4",
              "name": "depositFunction",
              "type": "bytes4"
            },
            {
              "internalType": "bytes4",
              "name": "withdrawFunction",
              "type": "bytes4"
            },
            {
              "internalType": "bytes4",
              "name": "harvestFunction",
              "type": "bytes4"
            },
            {
              "internalType": "address",
              "name": "rewardToken",
              "type": "address"
            },
            {
              "internalType": "uint256",
              "name": "totalDeposited",
              "type": "uint256"
            },
            {
              "internalType": "uint256",
              "name": "totalRewards",
              "type": "uint256"
            },
            {
              "internalType": "bool",
              "name": "active",
              "type": "bool"
            },
            {
              "internalType": "uint256",
              "name": "apy",
              "type": "uint256"
            },
            {
              "internalType": "uint256",
              "name": "riskLevel",
              "type": "uint256"
            },
            {
              "internalType": "uint256",
              "name": "minDeposit",
              "type": "uint256"
            },
            {
              "internalType": "uint256",
              "name": "maxDeposit",
              "type": "uint256"
            }
          ],
          "internalType": "struct YieldAggregator.Strategy",
          "name": "",
          "type": "tuple"
        }
      ],
      "stateMutability": "view",
      "type": "function"
    },
    {
      "inputs": [
        {
          "internalType": "address",
          "name": "_user",
          "type": "address"
        }
      ],
      "name": "getUserStrategies",
      "outputs": [
        {
          "components": [
            {
              "internalType": "uint256",
              "name": "strategyId",
              "type": "uint256"
            },
            {
              "internalType": "address",
              "name": "user",
              "type": "address"
            },
            {
              "internalType": "uint256",
              "name": "depositedAmount",
              "type": "uint256"
            },
            {
              "internalType": "uint256",
              "name": "rewardsEarned",
              "type": "uint256"
            },
            {
              "internalType": "uint256",
              "name": "lastRebalance",
              "type": "uint256"
            },
            {
              "internalType": "bool",
              "name": "autoRebalance",
              "type": "bool"
            },
            {
              "internalType": "uint256",
              "name": "targetAllocation",
              "type": "uint256"
            }
          ],
          "internalType": "struct YieldAggregator.UserStrategy[]",
          "name": "",
          "type": "tuple[]"
        }
      ],
      "stateMutability": "view",
      "type": "function"
    },
    {
      "inputs": [],
      "name": "harvestRewards",
      "outputs": [],
      "stateMutability": "nonpayable",
      "type": "function"
    },
    {
      "inputs": [
        {
          "internalType": "address",
          "name": "_oracle",
          "type": "address"
        },
        {
          "internalType": "address",
          "name": "_stakingRewards",
          "type": "address"
        },
        {
          "internalType": "address",
          "name": "_yieldVault",
          "type": "address"
        },
        {
          "internalType": "address",
          "name": "_liquidityPool",
          "type": "address"
        },
        {
          "internalType": "address",
          "name": "_feeRecipient",
          "type": "address"
        }
      ],
      "name": "initialize",
      "outputs": [],
      "stateMutability": "nonpayable",
      "type": "function"
    },
    {
      "inputs": [],
      "name": "liquidityPool",
      "outputs": [
        {
          "internalType": "contract LiquidityPool",
          "name": "",
          "type": "address"
        }
      ],
      "stateMutability": "view",
      "type": "function"
    },
    {
      "inputs": [],
      "name": "maxRiskLevel",
      "outputs": [
        {
          "internalType": "uint256",
          "name": "",
          "type": "uint256"
        }
      ],
      "stateMutability": "view",
      "type": "function"
    },
    {
      "inputs": [],
      "name": "maxSlippage",
      "outputs": [
        {
          "internalType": "uint256",
          "name": "",
          "type": "uint256"
        }
      ],
      "stateMutability": "view",
      "type": "function"
    },
    {
      "inputs": [],
      "name": "minPortfolioValue",
      "outputs": [
        {
          "internalType": "uint256",
          "name": "",
          "type": "uint256"
        }
      ],
      "stateMutability": "view",
      "type": "function"
    },
    {
      "inputs": [],
      "name": "nextStrategyId",
      "outputs": [
        {
          "internalType": "uint256",
          "name": "",
          "type": "uint256"
        }
      ],
      "stateMutability": "view",
      "type": "function"
    },
    {
      "inputs": [],
      "name": "oracle",
      "outputs": [
        {
          "internalType": "contract DecentralizedOracle",
          "name": "",
          "type": "address"
        }
      ],
      "stateMutability": "view",
      "type": "function"
    },
    {
      "inputs": [],
      "name": "owner",
      "outputs": [
        {
          "internalType": "address",
          "name": "",
          "type": "address"
        }
      ],
      "stateMutability": "view",
      "type": "function"
    },
    {
      "inputs": [],
      "name": "performanceFee",
      "outputs": [
        {
          "internalType": "uint256",
          "name": "",
          "type": "uint256"
        }
      ],
      "stateMutability": "view",
      "type": "function"
    },
    {
      "inputs": [
        {
          "internalType": "address",
          "name": "",
          "type": "address"
        }
      ],
      "name": "portfolios",
      "outputs": [
        {
          "internalType": "address",
          "name": "user",
          "type": "address"
        },
        {
          "internalType": "uint256",
          "name": "totalValue",
          "type": "uint256"
        },
        {
          "internalType": "uint256",
          "name": "totalRewards",
          "type": "uint256"
        },
        {
          "internalType": "uint256",
          "name": "lastRebalance",
          "type": "uint256"
        },
        {
          "internalType": "bool",
          "name": "autoRebalance",
          "type": "bool"
        },
        {
          "internalType": "uint256",
          "name": "rebalanceThreshold",
          "type": "uint256"
        }
      ],
      "stateMutability": "view",
      "type": "function"
    },
    {
      "inputs": [],
      "name": "proxiableUUID",
      "outputs": [
        {
          "internalType": "bytes32",
          "name": "",
          "type": "bytes32"
        }
      ],
      "stateMutability": "view",
      "type": "function"
    },
    {
      "inputs": [],
      "name": "rebalanceCooldown",
      "outputs": [
        {
          "internalType": "uint256",
          "name": "",
          "type": "uint256"
        }
      ],
      "stateMutability": "view",
      "type": "function"
    },
    {
      "inputs": [],
      "name": "rebalancePortfolio",
      "outputs": [],
      "stateMutability": "nonpayable",
      "type": "function"
    },
    {
      "inputs": [],
      "name": "renounceOwnership",
      "outputs": [],
      "stateMutability": "nonpayable",
      "type": "function"
    },
    {
      "inputs": [
        {
          "internalType": "bool",
          "name": "_paused",
          "type": "bool"
        }
      ],
      "name": "setEmergencyPause",
      "outputs": [],
      "stateMutability": "nonpayable",
      "type": "function"
    },
    {
      "inputs": [
        {
          "internalType": "uint256",
          "name": "_rebalanceCooldown",
          "type": "uint256"
        },
        {
          "internalType": "uint256",
          "name": "_maxSlippage",
          "type": "uint256"
        },
        {
          "internalType": "uint256",
          "name": "_performanceFee",
          "type": "uint256"
        },
        {
          "internalType": "uint256",
          "name": "_maxRiskLevel",
          "type": "uint256"
        }
      ],
      "name": "setProtocolParameters",
      "outputs": [],
      "stateMutability": "nonpayable",
      "type": "function"
    },
    {
      "inputs": [
        {
          "internalType": "address",
          "name": "_manager",
          "type": "address"
        },
        {
          "internalType": "bool",
          "name": "_status",
          "type": "bool"
        }
      ],
      "name": "setStrategyManager",
      "outputs": [],
      "stateMutability": "nonpayable",
      "type": "function"
    },
    {
      "inputs": [],
      "name": "stakingRewards",
      "outputs": [
        {
          "internalType": "contract StakingRewards",
          "name": "",
          "type": "address"
        }
      ],
      "stateMutability": "view",
      "type": "function"
    },
    {
      "inputs": [
        {
          "internalType": "uint256",
          "name": "",
          "type": "uint256"
        }
      ],
      "name": "strategies",
      "outputs": [
        {
          "internalType": "uint256",
          "name": "id",
          "type": "uint256"
        },
        {
          "internalType": "string",
          "name": "name",
          "type": "string"
        },
        {
          "internalType": "address",
          "name": "protocol",
          "type": "address"
        },
        {
          "internalType": "bytes4",
          "name": "depositFunction",
          "type": "bytes4"
        },
        {
          "internalType": "bytes4",
          "name": "withdrawFunction",
          "type": "bytes4"
        },
        {
          "internalType": "bytes4",
          "name": "harvestFunction",
          "type": "bytes4"
        },
        {
          "internalType": "address",
          "name": "rewardToken",
          "type": "address"
        },
        {
          "internalType": "uint256",
          "name": "totalDeposited",
          "type": "uint256"
        },
        {
          "internalType": "uint256",
          "name": "totalRewards",
          "type": "uint256"
        },
        {
          "internalType": "bool",
          "name": "active",
          "type": "bool"
        },
        {
          "internalType": "uint256",
          "name": "apy",
          "type": "uint256"
        },
        {
          "internalType": "uint256",
          "name": "riskLevel",
          "type": "uint256"
        },
        {
          "internalType": "uint256",
          "name": "minDeposit",
          "type": "uint256"
        },
        {
          "internalType": "uint256",
          "name": "maxDeposit",
          "type": "uint256"
        }
      ],
      "stateMutability": "view",
      "type": "function"
    },
    {
      "inputs": [
        {
          "internalType": "address",
          "name": "",
          "type": "address"
        }
      ],
      "name": "strategyManagers",
      "outputs": [
        {
          "internalType": "bool",
          "name": "",
          "type": "bool"
        }
      ],
      "stateMutability": "view",
      "type": "function"
    },
    {
      "inputs": [
        {
          "internalType": "address",
          "name": "newOwner",
          "type": "address"
        }
      ],
      "name": "transferOwnership",
      "outputs": [],
      "stateMutability": "nonpayable",
      "type": "function"
    },
    {
      "inputs": [
        {
          "internalType": "uint256",
          "name": "_strategyId",
          "type": "uint256"
        }
      ],
      "name": "updateStrategyAPY",
      "outputs": [],
      "stateMutability": "nonpayable",
      "type": "function"
    },
    {
      "inputs": [
        {
          "internalType": "address",
          "name": "newImplementation",
          "type": "address"
        },
        {
          "internalType": "bytes",
          "name": "data",
          "type": "bytes"
        }
      ],
      "name": "upgradeToAndCall",
      "outputs": [],
      "stateMutability": "payable",
      "type": "function"
    },
    {
      "inputs": [
        {
          "internalType": "address",
          "name": "",
          "type": "address"
        },
        {
          "internalType": "uint256",
          "name": "",
          "type": "uint256"
        }
      ],
      "name": "userStrategies",
      "outputs": [
        {
          "internalType": "uint256",
          "name": "strategyId",
          "type": "uint256"
        },
        {
          "internalType": "address",
          "name": "user",
          "type": "address"
        },
        {
          "internalType": "uint256",
          "name": "depositedAmount",
          "type": "uint256"
        },
        {
          "internalType": "uint256",
          "name": "rewardsEarned",
          "type": "uint256"
        },
        {
          "internalType": "uint256",
          "name": "lastRebalance",
          "type": "uint256"
        },
        {
          "internalType": "bool",
          "name": "autoRebalance",
          "type": "bool"
        },
        {
          "internalType": "uint256",
          "name": "targetAllocation",
          "type": "uint256"
        }
      ],
      "stateMutability": "view",
      "type": "function"
    },
    {
      "inputs": [],
      "name": "yieldVault",
      "outputs": [
        {
          "internalType": "contract YieldVault",
          "name": "",
          "type": "address"
        }
      ],
      "stateMutability": "view",
      "type": "function"
    }
  ],
  "bytecode": "0x60a08060405234605857306080526001600555610e106008556101f46009556107d0600a5568056bc75e2d63100000600b556003600c55610bb8600d55613725908161005e82396080518181816111a801526112970152f35b600080fdfe6080604052600436101561001257600080fd5b60003560e01c80631459457a146121af578063185f8447146121915780632be11ae214611eed57806333fb28fc14611ea25780633aec373f14611ada5780633c8a7234146116395780633d3aaa9a1461161b5780633e9f9e491461157a578063415266121461155c578063456f948b1461152357806346904840146114fc5780634f1ef2861461124857806351858e271461122257806352d1902d1461118d5780635531ca3614610dfa5780635c94e93114610da2578063628ffc7b14610d5457806364b87a7014610d2d578063665a11ca14610d06578063715018a614610c6d57806379f02fd414610b0c5780637baab3da14610a8d5780637dc0d1d014610a66578063822fc8aa14610a1f5780638778878214610a015780638c04166f146109e35780638da5cb5b1461099d5780639003adfe1461097f5780639ebbc16d14610961578063a41bfcfc1461092e578063a7f8a5e214610907578063ad3cb1cc146108a4578063ae5f8f7214610865578063b3de272d14610847578063c8796572146107c2578063cfc0cc3414610587578063d574ea3d14610491578063d8d1a65714610421578063eb22ae111461038a578063f0b9c4121461020f5763f2fde38b146101df57600080fd5b3461020a57602036600319011261020a576102086101fb612475565b6102036130bb565b612c45565b005b600080fd5b3461020a57602036600319011261020a57600435806000526004602052604060002061024160ff600683015416612818565b61030060606001600160a01b0360005416604051906873747261746567795f60b81b60208301528560298301527f5f617079000000000000000000000000000000000000000000000000000000006049830152602d82526102a3604d836124da565b60405180809581946352ee0b7760e01b835260056004840152866024840152601060648401527f7969656c645f70726564696374696f6e00000000000000000000000000000000608484015260a0604484015260a483019061262a565b03915afa801561037e577fa90f715377ab8c4556fca85e0bcbdd32a2ce90f03ddb9bbb43ef7a412440b3e99261c35060079260209460009161034d575b50069182910155604051908152a2005b61036f915060603d606011610377575b61036781836124da565b810190612c2a565b50508761033d565b503d61035d565b6040513d6000823e3d90fd5b3461020a57602036600319011261020a576001600160a01b036103ab612475565b1660005260066020526040600020600181015460028201549160058101549061041060036103f260ff600685015416936103eb604051809481930161288e565b03826124da565b6040519586958652602086015260a0604086015260a08501906125f6565b916060840152151560808301520390f35b3461020a57602036600319011261020a5760043580151580910361020a576104476130bb565b7fffffffffffffffffffffff00ffffffffffffffffffffffffffffffffffffffff74ff0000000000000000000000000000000000000000600f549260a01b16911617600f55600080f35b3461020a57602036600319011261020a576004356000526004602052602060406000208054906104c3600182016126a5565b6002820154916001600160a01b036003820154166004820154600583015460ff600685015416906007850154926008860154946001600160e01b0319610527600a60098a0154990154996101c06040519e8f9e8f90815201526101c08d019061262a565b996001600160a01b03811660408d0152818160401b1660608d0152818160201b1660808d01521660a08b015260c08a015260e089015261010088015215156101208701526101408601526101608501526101808401526101a08301520390f35b3461020a57602036600319011261020a576040516105a4816124bd565b60008152602081016060905260408101600090526060810160009052608081016000905260a081016000905260c081016000905260e08101600090526101008101600090526101208101600090526101408101600090526101608101600090526101808101600090526101a0016000905260043560005260046020526040600020604051610631816124bd565b81548152610641600183016126a5565b9160208201928352600281015460408301916001600160a01b038216835260608401918060401b6001600160e01b031916835260808501908060201b6001600160e01b031916825260a08601906001600160e01b031916815260038301546001600160a01b031660c08701908152600484015460e088019081526005850154906101008901918252600686015460ff16926101208a0193151584526007870154946101408b019586526008880154966101608c019788526009890154986101808d01998a52600a0154996101a08d019a8b52604051809e819e6020835251602083015251604082016101c090526101e0820161073c9161262a565b9c516001600160a01b03169060600152516001600160e01b03191660808d0152516001600160e01b03191660a08c0152516001600160e01b03191660c08b0152516001600160a01b031660e08a015251610100890152516101208801525115156101408701525161016086015251610180850152516101a0840152516101c08301520390f35b3461020a57600036600319011261020a576107db6130bb565b600e5480156108035760008080809381600e556001600160a01b03600f541682f11561037e57005b606460405162461bcd60e51b815260206004820152601260248201527f4e6f206665657320746f20636f6c6c65637400000000000000000000000000006044820152fd5b3461020a57600036600319011261020a576020600854604051908152f35b3461020a57602036600319011261020a576001600160a01b03610886612475565b166000526010602052602060ff604060002054166040519015158152f35b3461020a57600036600319011261020a5761090360408051906108c781836124da565b600582527f352e302e3000000000000000000000000000000000000000000000000000000060208301525191829160208352602083019061262a565b0390f35b3461020a57600036600319011261020a5760206001600160a01b0360025416604051908152f35b3461020a57608036600319011261020a576109476130bb565b600435600855602435600955604435600a55606435600c55005b3461020a57600036600319011261020a576020600d54604051908152f35b3461020a57600036600319011261020a576020600e54604051908152f35b3461020a57600036600319011261020a5760206001600160a01b037f9016d09d72d40fdae2fd8ceac6b6234c7706214fd39c1cd1e609a0528c1993005416604051908152f35b3461020a57600036600319011261020a576020600954604051908152f35b3461020a57600036600319011261020a576020600a54604051908152f35b3461020a57600036600319011261020a57610a38612d04565b610a406128c8565b60017f9b779b17422d0df92223018b32b4d1fa46e071723d6817e2486d003becc55f0055005b3461020a57600036600319011261020a5760206001600160a01b0360005416604051908152f35b3461020a57602036600319011261020a576001600160a01b03610aae612475565b16600052600660205260c060406000206001600160a01b03815416906001810154906002810154600582015490600760ff600685015416930154936040519586526020860152604085015260608401521515608083015260a0820152f35b3461020a57602036600319011261020a576001600160a01b03610b2d612475565b1660005260076020526040600020805490610b4782612581565b91610b5560405193846124da565b80835260208301809260005260206000206000915b838310610c005784866040519182916020830190602084525180915260408301919060005b818110610b9d575050500390f35b91935091602060e060019260c08751805183526001600160a01b0385820151168584015260408101516040840152606081015160608401526080810151608084015260a0810151151560a0840152015160c0820152019401910191849392610b8f565b60076020600192604051610c13816124a1565b855481526001600160a01b0385870154168382015260028601546040820152600386015460608201526004860154608082015260ff600587015416151560a0820152600686015460c0820152815201920192019190610b6a565b3461020a57600036600319011261020a57610c866130bb565b60006001600160a01b037f9016d09d72d40fdae2fd8ceac6b6234c7706214fd39c1cd1e609a0528c199300546001600160a01b031981167f9016d09d72d40fdae2fd8ceac6b6234c7706214fd39c1cd1e609a0528c19930055167f8be0079c531659141344cd1fd0a4f28419497f9722a3daafe3b4186f6b6457e08280a3005b3461020a57600036600319011261020a5760206001600160a01b0360035416604051908152f35b3461020a57600036600319011261020a5760206001600160a01b0360015416604051908152f35b3461020a57602036600319011261020a576001600160a01b03610d75612475565b166000526006602052610903610d8e604060002061311c565b6040519182916020835260208301906125f6565b3461020a57604036600319011261020a57610dbb612475565b602435801515810361020a576001600160a01b0361020892610ddb6130bb565b16600052601060205260406000209060ff801983541691151516179055565b3461020a57608036600319011261020a5760043567ffffffffffffffff811161020a57610e2b903690600401612599565b60243567ffffffffffffffff811161020a57610e4b903690600401612599565b9060443590811515820361020a57805183510361114957600281511061110557600090815b8451831015610e9857610e90600191610e89858861287a565b51906127ac565b920191610e70565b61271091939250036110c15760009060005b8451811015610ee45782610ebe828761287a565b5111610ecd575b600101610eaa565b91506001610edb838661287a565b51929050610ec5565b509190600d54612710039061271082116110ab5711611067573360005260066020526040600020916001600160a01b0333166001600160a01b03198454161783556003830182519067ffffffffffffffff821161105157680100000000000000008211611051578054828255808310611033575b506020840190600052602060002060005b83811061101f5750505050610f8d90600684019060ff801983541691151516179055565b6064356007830155426005830155600460009201915b8151811015610fd85780610fb96001928661287a565b51610fc4828561287a565b516000528460205260406000205501610fa3565b507f683fba1272114507832ff9fe9d8b9cd62e20b14a3502bcd0759c9301c56265326040516020815280611011339460208301906125f6565b0390a2602060405160008152f35b600190602084519401938184015501610f69565b61104b90826000528360206000209182019101612863565b86610f58565b634e487b7160e01b600052604160045260246000fd5b606460405162461bcd60e51b815260206004820152601c60248201527f496e73756666696369656e7420646976657273696669636174696f6e000000006044820152fd5b634e487b7160e01b600052601160045260246000fd5b606460405162461bcd60e51b815260206004820152601c60248201527f416c6c6f636174696f6e73206d7573742073756d20746f2031303025000000006044820152fd5b606460405162461bcd60e51b815260206004820152601a60248201527f4e656564206174206c65617374203220737472617465676965730000000000006044820152fd5b606460405162461bcd60e51b815260206004820152601160248201527f4d69736d617463686564206172726179730000000000000000000000000000006044820152fd5b3461020a57600036600319011261020a576001600160a01b037f00000000000000000000000000000000000000000000000000000000000000001630036111f85760206040517f360894a13ba1a3210667c828492db98dca3e2076cc3735a920a3ca505d382bbc8152f35b7fe07c8dba0000000000000000000000000000000000000000000000000000000060005260046000fd5b3461020a57600036600319011261020a57602060ff600f5460a01c166040519015158152f35b604036600319011261020a5761125c612475565b60243567ffffffffffffffff811161020a573660238201121561020a5761128d903690602481600401359101612518565b6001600160a01b037f0000000000000000000000000000000000000000000000000000000000000000168030149081156114c7575b506111f8576112cf6130bb565b6001600160a01b038216916040517f52d1902d000000000000000000000000000000000000000000000000000000008152602081600481875afa60009181611493575b5061132c5783634c9c8ce360e01b60005260045260246000fd5b807f360894a13ba1a3210667c828492db98dca3e2076cc3735a920a3ca505d382bbc8592036114665750813b1561145257806001600160a01b03197f360894a13ba1a3210667c828492db98dca3e2076cc3735a920a3ca505d382bbc5416177f360894a13ba1a3210667c828492db98dca3e2076cc3735a920a3ca505d382bbc557fbc7cd75a20ee27fd9adebab32041f755214dbc6bffa90cc0225b39da2e5c2d3b600080a281511561141f5760008083602061020895519101845af43d15611417573d916113fa836124fc565b9261140860405194856124da565b83523d6000602085013e61365f565b60609161365f565b50503461142857005b7fb398979f0000000000000000000000000000000000000000000000000000000060005260046000fd5b634c9c8ce360e01b60005260045260246000fd5b7faa1d49a40000000000000000000000000000000000000000000000000000000060005260045260246000fd5b9091506020813d6020116114bf575b816114af602093836124da565b8101031261020a57519085611312565b3d91506114a2565b90506001600160a01b037f360894a13ba1a3210667c828492db98dca3e2076cc3735a920a3ca505d382bbc54161415836112c2565b3461020a57600036600319011261020a5760206001600160a01b03600f5416604051908152f35b3461020a57602036600319011261020a5761153c6130bb565b6004356000526004602052600660406000200160ff198154169055600080f35b3461020a57600036600319011261020a576020600b54604051908152f35b3461020a57604036600319011261020a57611593612475565b6001600160a01b03602435911660005260076020526040600020805482101561020a5760e0916115c29161254f565b508054906001600160a01b036001820154169060028101546003820154600483015491600660ff600586015416940154946040519687526020870152604086015260608501526080840152151560a083015260c0820152f35b3461020a57600036600319011261020a576020600c54604051908152f35b3461020a5761012036600319011261020a5760043567ffffffffffffffff811161020a573660238201121561020a5761167c903690602481600401359101612518565b61168461248b565b90604435916001600160e01b0319831680930361020a57606435916001600160e01b0319831680930361020a576084356001600160e01b0319811680910361020a5760a4356001600160a01b03811680910361020a5760c4359133600052601060205260ff6040600020541615611a965760058311611a52576005549560001987146110ab57600187016005556040519761171e896124bd565b8789528560208a01526001600160a01b03871660408a01526060890152608088015260a087015260c0860152600060e086015260006101008601526001610120860152600061014086015261016085015260e435610180850152610104356101a08501528260005260046020526040600020918451835560208501519283519567ffffffffffffffff87116110515760209686956117bf600185015461266b565b601f8111611a14575b508890601f83116001146119765761195a9593837fb4f6e79b3a86f44f9532f08d9c5499ea9db5b25208bdf0c145a0d9164a041af4989694600a946101a09460009261196b575b50508160011b916000199060031b1c19161760018501555b600284016001600160a01b0380604084015116166001600160a01b0319825416178155606082015181547bffffffff00000000000000000000000000000000000000000000000080608086015160201c1616906001600160a01b0377ffffffff0000000000000000000000000000000000000000806001600160e01b031960a0890151169560401c1616911617171790556001600160a01b0360c0820151166001600160a01b036003860191166001600160a01b031982541617905560e0810151600485015561010081015160058501556119186101208201511515600686019060ff801983541691151516179055565b61014081015160078501556101608101516008850155610180810151600985015501519101556001600160a01b0360405193849360408552604085019061262a565b9116878301520390a2604051908152f35b015190508d8061180f565b9060018501600052806000209160005b601f19851681106119fa575093600184600a946101a09461195a9a987fb4f6e79b3a86f44f9532f08d9c5499ea9db5b25208bdf0c145a0d9164a041af49c9a98601f198116106119e1575b505050811b016001850155611827565b015160001960f88460031b161c191690558d80806119d1565b8183015184558a9950600190930192918b01918b01611986565b611a4290600186016000528a600020601f850160051c8101918c8610611a48575b601f0160051c0190612863565b896117c8565b9091508190611a35565b606460405162461bcd60e51b815260206004820152601260248201527f496e76616c6964207269736b206c6576656c00000000000000000000000000006044820152fd5b606460405162461bcd60e51b815260206004820152600e60248201527f4e6f7420617574686f72697a65640000000000000000000000000000000000006044820152fd5b3461020a57604036600319011261020a57600435602435611af9612d04565b8160005260046020526040600020611b1760ff600683015416612818565b60098101548210611e5e57600a611b328360048401546127ac565b91015410611e1a573360005260066020526040600020600381018054611b59811515612749565b8460009260005b838110611deb575b5050505015611da757600460206001600160a01b0360015416604051928380926372f702f360e01b82525afa801561037e57611c0091600091611d78575b506001600160a01b03604051917f23b872dd00000000000000000000000000000000000000000000000000000000602084015233602484015230604484015285606484015260648352611bfa6084846124da565b166134ad565b611c0a8284612d95565b60018101611c198382546127ac565b9055336000526007602052604060002090600460ff60068301541691856000520160205260406000205460405191611c50836124a1565b858352602083019033825260408401948686526060850160008152608086019142835260a08701931515845260c0870195865280546801000000000000000081101561105157611ca59160018201815561254f565b979097611d62576001600160a01b03611d0795600698518a5551166001600160a01b0360018a0191166001600160a01b0319825416179055516002880155516003870155516004860155511515600585019060ff801983541691151516179055565b5191015560405191825260208201527f90890809c654f11d6e72a28fa60149770a0d11ec6c92319d6ceb2bb0a4ea1a1560403392a260017f9b779b17422d0df92223018b32b4d1fa46e071723d6817e2486d003becc55f0055005b634e487b7160e01b600052600060045260246000fd5b611d9a915060203d602011611da0575b611d9281836124da565b8101906127f9565b85611ba6565b503d611d88565b606460405162461bcd60e51b815260206004820152601960248201527f5374726174656779206e6f7420696e20706f7274666f6c696f000000000000006044820152fd5b82611df68284612794565b90549060031b1c14611e0a57600101611b60565b5050505050600184848180611b68565b606460405162461bcd60e51b815260206004820152601a60248201527f53747261746567792063617061636974792065786365656465640000000000006044820152fd5b606460405162461bcd60e51b815260206004820152601160248201527f4465706f73697420746f6f20736d616c6c0000000000000000000000000000006044820152fd5b3461020a57604036600319011261020a576001600160a01b03611ec3612475565b16600052600660205260046040600020016024356000526020526020604060002054604051908152f35b3461020a57600036600319011261020a57611f06612d04565b33600052600660205260406000206003810190611f2582541515612749565b600091825b815484101561203a57611f3d8483612794565b90549060031b1c60005260046020526040600020906000916001600160a01b03600282015416926001600160a01b036001541693848114600014612004575050823b1561020a57600080936004604051809681937f372500ab0000000000000000000000000000000000000000000000000000000083525af191821561037e57600193611feb93611ff3575b50600568056bc75e2d63100000925b01611fe48382546127ac565b90556127ac565b930192611f2a565b6000611ffe916124da565b87611fc9565b6001945091611feb9391926001600160a01b036002541614612029575b600590611fd8565b6802b5e3af16b18800009250612021565b8281612094575b506040519081527fbc8fb63d817de4fabea2108e9b7eefca87245899f4b357636c26b5cad02ec5b460203392a260017f9b779b17422d0df92223018b32b4d1fa46e071723d6817e2486d003becc55f0055005b60049060026127106120a8600a54866127b9565b04916120c06120b784876127ec565b93600e546127ac565b600e55016120cf8282546127ac565b905560206001600160a01b0360015416604051938480926372f702f360e01b82525afa91821561037e5761216692612158926001600160a01b039260009261216c575b506040517fa9059cbb000000000000000000000000000000000000000000000000000000006020820152336024820152604481019190915292611bfa9084906064820190565b03601f1981018552846124da565b81612041565b611bfa91925061218a9060203d602011611da057611d9281836124da565b9190612112565b3461020a57600036600319011261020a576020600554604051908152f35b3461020a5760a036600319011261020a576121c8612475565b6121d061248b565b906044356001600160a01b03811680910361020a57606435906001600160a01b03821680920361020a57608435926001600160a01b03841680940361020a577ff0c57e16840df040f15088dc2f81fe391c3923bec73e23a9662efc9c229c6a00549460ff8660401c16159567ffffffffffffffff81168015908161246d575b6001149081612463575b15908161245a575b506124305767ffffffffffffffff1981166001177ff0c57e16840df040f15088dc2f81fe391c3923bec73e23a9662efc9c229c6a00556001600160a01b03928391886123f1575b506122b1613454565b6122b9613454565b6122c233612c45565b6122ca613454565b6122d2613454565b60017f9b779b17422d0df92223018b32b4d1fa46e071723d6817e2486d003becc55f00556122fe613454565b166001600160a01b03196000541617600055166001600160a01b031960015416176001556001600160a01b031960025416176002556001600160a01b031960035416176003556001600160a01b0319600f541617600f553360005260106020526040600020600160ff1982541617905561237457005b68ff0000000000000000197ff0c57e16840df040f15088dc2f81fe391c3923bec73e23a9662efc9c229c6a0054167ff0c57e16840df040f15088dc2f81fe391c3923bec73e23a9662efc9c229c6a00557fc7f505b2f371ae2175ee4913f4499e1f2633a7b5936321eed1cdaeb6115181d2602060405160018152a1005b68ffffffffffffffffff191668010000000000000001177ff0c57e16840df040f15088dc2f81fe391c3923bec73e23a9662efc9c229c6a0055886122a8565b7ff92ee8a90000000000000000000000000000000000000000000000000000000060005260046000fd5b90501588612261565b303b159150612259565b88915061224f565b600435906001600160a01b038216820361020a57565b602435906001600160a01b038216820361020a57565b60e0810190811067ffffffffffffffff82111761105157604052565b6101c0810190811067ffffffffffffffff82111761105157604052565b90601f8019910116810190811067ffffffffffffffff82111761105157604052565b67ffffffffffffffff811161105157601f01601f191660200190565b929192612524826124fc565b9161253260405193846124da565b82948184528183011161020a578281602093846000960137010152565b805482101561256b576000526007602060002091020190600090565b634e487b7160e01b600052603260045260246000fd5b67ffffffffffffffff81116110515760051b60200190565b9080601f8301121561020a5781356125b081612581565b926125be60405194856124da565b81845260208085019260051b82010192831161020a57602001905b8282106125e65750505090565b81358152602091820191016125d9565b906020808351928381520192019060005b8181106126145750505090565b8251845260209384019390920191600101612607565b919082519283825260005b848110612656575050826000602080949584010152601f8019910116010190565b80602080928401015182828601015201612635565b90600182811c9216801561269b575b602083101461268557565b634e487b7160e01b600052602260045260246000fd5b91607f169161267a565b90604051918260008254926126b98461266b565b808452936001811690811561272757506001146126e0575b506126de925003836124da565b565b90506000929192526020600020906000915b81831061270b5750509060206126de92820101386126d1565b60209193508060019154838589010152019101909184926126f2565b9050602092506126de94915060ff191682840152151560051b820101386126d1565b1561275057565b606460405162461bcd60e51b815260206004820152601560248201527f506f7274666f6c696f206e6f74206372656174656400000000000000000000006044820152fd5b805482101561256b5760005260206000200190600090565b919082018092116110ab57565b818102929181159184041417156110ab57565b81156127d6570490565b634e487b7160e01b600052601260045260246000fd5b919082039182116110ab57565b9081602091031261020a57516001600160a01b038116810361020a5790565b1561281f57565b606460405162461bcd60e51b815260206004820152601360248201527f5374726174656779206e6f7420616374697665000000000000000000000000006044820152fd5b81811061286e575050565b60008155600101612863565b805182101561256b5760209160051b010190565b906020825491828152019160005260206000209060005b8181106128b25750505090565b82548452602090930192600192830192016128a5565b3360005260066020526040600020600381016128e681541515612749565b60058201916128f98354600854906127ac565b4210612be657612908816133ca565b1580612bd7575b612bd25761291c8161311c565b9360018201549060005b8454811015612b78576129398186612794565b90549060031b1c612710612957612950848b61287a565b51866127b9565b0461296c826001600160a01b0388541661356b565b81811161297f575b505050600101612926565b90612989916127ec565b81600052600460205260406000206001600160a01b036002820154166001600160a01b03600154168114600014612aef57506001600160a01b036001541690813b1561020a57600080926004604051809581937f2def66200000000000000000000000000000000000000000000000000000000083525af191821561037e57600492612ade575b505b01612a1e8282546127ec565b90556000875415612aca5780886020925220916000925492838152600460205260076040822001546001918a54925b838110612a7d57505050509082916001949303612a6d575b829350612974565b612a7691612d95565b3880612a65565b612a87818d612794565b90549060031b1c808352600460205283600760408520015411612aae575b50600101612a4d565b8083526004602052604083206007015490975092506001612aa5565b80634e487b7160e01b602492526032600452fd5b6000612ae9916124da565b38612a10565b906001600160a01b0360025416809214612b0d575b60049150612a12565b813b1561020a57600080926044604051809581937f441a3e700000000000000000000000000000000000000000000000000000000083528960048401528860248401525af191821561037e57600492612b67575b50612b04565b6000612b72916124da565b38612b61565b509493612bbe92507f7819455abd8f4b99cfc30fc64c532482b62d1e1e7e9d2a4a1595c83bcc21136a939150429055612bcd60405192839260408452604084019061288e565b828103602084015233956125f6565b0390a2565b505050565b5060ff6006820154161561290f565b606460405162461bcd60e51b815260206004820152601960248201527f526562616c616e636520636f6f6c646f776e20616374697665000000000000006044820152fd5b9081606091031261020a578051916040602083015192015190565b6001600160a01b03168015612cd5576001600160a01b037f9016d09d72d40fdae2fd8ceac6b6234c7706214fd39c1cd1e609a0528c19930054826001600160a01b03198216177f9016d09d72d40fdae2fd8ceac6b6234c7706214fd39c1cd1e609a0528c19930055167f8be0079c531659141344cd1fd0a4f28419497f9722a3daafe3b4186f6b6457e0600080a3565b7f1e4fbdf700000000000000000000000000000000000000000000000000000000600052600060045260246000fd5b60027f9b779b17422d0df92223018b32b4d1fa46e071723d6817e2486d003becc55f005414612d535760027f9b779b17422d0df92223018b32b4d1fa46e071723d6817e2486d003becc55f0055565b7f3ee5aeb50000000000000000000000000000000000000000000000000000000060005260046000fd5b9081602091031261020a5751801515810361020a5790565b6000818152600460205260408120916001600160a01b036002840154166001600160a01b0360015416808214600014612f4b575050506001600160a01b0360015416604051906372f702f360e01b8252602082600481845afa918215612f4057612e419260209287928692612f21575b50856001600160a01b0360405180978196829563095ea7b360e01b845260048401602090939291936001600160a01b0360408201951681520152565b0393165af18015612ee557612ef4575b506001600160a01b0360015416803b15612ef0578180916064604051809481937f561b246300000000000000000000000000000000000000000000000000000000835289600484015262278d006024840152600160448401525af18015612ee557612ecd575b50506004612ec9915b019182546127ac565b9055565b612ed88280926124da565b612ee25780612eb7565b80fd5b6040513d84823e3d90fd5b5080fd5b612f159060203d602011612f1a575b612f0d81836124da565b810190612d7d565b612e51565b503d612f03565b612f39919250843d8611611da057611d9281836124da565b9038612e05565b6040513d85823e3d90fd5b6001600160a01b0360025416809214612f6e575b505050506004612ec991612ec0565b906020600492604051938480926372f702f360e01b82525afa9182156130b057612fda9260209288928792613091575b50866001600160a01b0360405180978196829563095ea7b360e01b845260048401602090939291936001600160a01b0360408201951681520152565b0393165af18015612f4057613074575b506001600160a01b036002541690813b156130705782916064839260405194859384927f43a0d0660000000000000000000000000000000000000000000000000000000084526004840152896024840152600160448401525af18015612ee55791612ec99391600493613060575b829450612f5f565b8161306a916124da565b38613058565b8280fd5b61308c9060203d602011612f1a57612f0d81836124da565b612fea565b6130a9919250843d8611611da057611d9281836124da565b9038612f9e565b6040513d86823e3d90fd5b6001600160a01b037f9016d09d72d40fdae2fd8ceac6b6234c7706214fd39c1cd1e609a0528c199300541633036130ee57565b7f118cdaa7000000000000000000000000000000000000000000000000000000006000523360045260246000fd5b60030190815461312b81612581565b9261313960405194856124da565b818452601f1961314883612581565b013660208601376000906001600160a01b03825416915b8381106131ee57505050506000805b835182101561318f57613187600191610e89848761287a565b91019061316e565b90509190918061319d575090565b919060005b81518110156131e9576131b5818361287a565b519061271082029180830461271014901517156110ab576131d8856001936127cc565b6131e2828561287a565b52016131a2565b509150565b8060606131fe61337c9385612794565b90549060031b1c80600052600460205260406000206101a0600a60405192613225846124bd565b80548452613235600182016126a5565b60208501526001600160e01b031960028201546001600160a01b0381166040870152818160401b1688870152818160201b1660808701521660a08501526001600160a01b0360038201541660c0850152600481015460e0850152600581015461010085015260ff60068201541615156101208501526007810154610140850152600881015461016085015260098101546101808501520154910152604051906873747261746567795f60b81b602083015260298201527f5f616c6c6f636174696f6e0000000000000000000000000000000000000000006049820152603481526133206054826124da565b604051809481926352ee0b7760e01b835260056004840152846024840152601660648401527f706f7274666f6c696f5f6f7074696d697a6174696f6e00000000000000000000608484015260a0604484015260a483019061262a565b0381875afa91821561037e57600192612711916000916133aa575b50066133a3828961287a565b520161315f565b6133c2915060603d81116103775761036781836124da565b505038613397565b60005b60038201805482101561344c57816133e491612794565b90549060031b1c6133ff816001600160a01b0385541661351e565b90600052600483016020526040600020549081811160001461343e5790613425916127ec565b600783015410613437576001016133cd565b5050600190565b613447916127ec565b613425565b505050600090565b60ff7ff0c57e16840df040f15088dc2f81fe391c3923bec73e23a9662efc9c229c6a005460401c161561348357565b7fd7e6bcf80000000000000000000000000000000000000000000000000000000060005260046000fd5b906000602091828151910182855af11561037e576000513d61351557506001600160a01b0381163b155b6134de5750565b6001600160a01b03907f5274afe7000000000000000000000000000000000000000000000000000000006000521660045260246000fd5b600114156134d7565b6001600160a01b038116600052600660205260016040600020015491821561344c576135499161356b565b9061271082029180830461271014901517156110ab57613568916127cc565b90565b6001600160a01b031660005260076020526040600020805461358c81612581565b9161359a60405193846124da565b818352602083019060005260206000206000915b8383106135f2575050505060005b815181101561344c57826135d0828461287a565b5151146135df576001016135bc565b604092506135ec9161287a565b51015190565b60076020600192604051613605816124a1565b855481526001600160a01b0385870154168382015260028601546040820152600386015460608201526004860154608082015260ff600587015416151560a0820152600686015460c08201528152019201920191906135ae565b9061369e575080511561367457602081519101fd5b7fd6bda2750000000000000000000000000000000000000000000000000000000060005260046000fd5b815115806136e6575b6136af575090565b6001600160a01b03907f9996b315000000000000000000000000000000000000000000000000000000006000521660045260246000fd5b50803b156136a756fea264697066735822122017ad8115423e55c86b62f6d1d75c9bd0b80f7a890a45df77982b2feee6530a1f64736f6c634300081c0033",
  "linkReferences": {},
  "deployedLinkReferences": {}
}