{
  "_format": "hh-sol-artifact-1",
  "contractName": "StakingRewards",
  "sourceName": "contracts/StakingRewards.sol",
  "abi": [
    {
      "inputs": [
        {
          "internalType": "address",
          "name": "target",
          "type": "address"
        }
      ],
      "name": "AddressEmptyCode",
      "type": "error"
    },
    {
      "inputs": [
        {
          "internalType": "address",
          "name": "implementation",
          "type": "address"
        }
      ],
      "name": "ERC1967InvalidImplementation",
      "type": "error"
    },
    {
      "inputs": [],
      "name": "ERC1967NonPayable",
      "type": "error"
    },
    {
      "inputs": [],
      "name": "FailedCall",
      "type": "error"
    },
    {
      "inputs": [],
      "name": "InvalidInitialization",
      "type": "error"
    },
    {
      "inputs": [],
      "name": "NotInitializing",
      "type": "error"
    },
    {
      "inputs": [
        {
          "internalType": "address",
          "name": "owner",
          "type": "address"
        }
      ],
      "name": "OwnableInvalidOwner",
      "type": "error"
    },
    {
      "inputs": [
        {
          "internalType": "address",
          "name": "account",
          "type": "address"
        }
      ],
      "name": "OwnableUnauthorizedAccount",
      "type": "error"
    },
    {
      "inputs": [],
      "name": "ReentrancyGuardReentrantCall",
      "type": "error"
    },
    {
      "inputs": [
        {
          "internalType": "address",
          "name": "token",
          "type": "address"
        }
      ],
      "name": "SafeERC20FailedOperation",
      "type": "error"
    },
    {
      "inputs": [],
      "name": "UUPSUnauthorizedCallContext",
      "type": "error"
    },
    {
      "inputs": [
        {
          "internalType": "bytes32",
          "name": "slot",
          "type": "bytes32"
        }
      ],
      "name": "UUPSUnsupportedProxiableUUID",
      "type": "error"
    },
    {
      "anonymous": false,
      "inputs": [
        {
          "indexed": true,
          "internalType": "address",
          "name": "user",
          "type": "address"
        },
        {
          "indexed": false,
          "internalType": "uint256",
          "name": "predictedAPY",
          "type": "uint256"
        },
        {
          "indexed": false,
          "internalType": "uint256",
          "name": "confidence",
          "type": "uint256"
        }
      ],
      "name": "AIPredictionUpdated",
      "type": "event"
    },
    {
      "anonymous": false,
      "inputs": [
        {
          "indexed": false,
          "internalType": "uint64",
          "name": "version",
          "type": "uint64"
        }
      ],
      "name": "Initialized",
      "type": "event"
    },
    {
      "anonymous": false,
      "inputs": [
        {
          "indexed": true,
          "internalType": "address",
          "name": "previousOwner",
          "type": "address"
        },
        {
          "indexed": true,
          "internalType": "address",
          "name": "newOwner",
          "type": "address"
        }
      ],
      "name": "OwnershipTransferred",
      "type": "event"
    },
    {
      "anonymous": false,
      "inputs": [
        {
          "indexed": false,
          "internalType": "uint256",
          "name": "oldRate",
          "type": "uint256"
        },
        {
          "indexed": false,
          "internalType": "uint256",
          "name": "newRate",
          "type": "uint256"
        }
      ],
      "name": "RewardRateUpdated",
      "type": "event"
    },
    {
      "anonymous": false,
      "inputs": [
        {
          "indexed": true,
          "internalType": "address",
          "name": "user",
          "type": "address"
        },
        {
          "indexed": false,
          "internalType": "uint256",
          "name": "amount",
          "type": "uint256"
        }
      ],
      "name": "RewardsClaimed",
      "type": "event"
    },
    {
      "anonymous": false,
      "inputs": [
        {
          "indexed": true,
          "internalType": "address",
          "name": "user",
          "type": "address"
        },
        {
          "indexed": false,
          "internalType": "uint256",
          "name": "amount",
          "type": "uint256"
        },
        {
          "indexed": false,
          "internalType": "uint256",
          "name": "lockPeriod",
          "type": "uint256"
        }
      ],
      "name": "Staked",
      "type": "event"
    },
    {
      "anonymous": false,
      "inputs": [
        {
          "indexed": true,
          "internalType": "address",
          "name": "user",
          "type": "address"
        },
        {
          "indexed": false,
          "internalType": "uint256",
          "name": "amount",
          "type": "uint256"
        },
        {
          "indexed": false,
          "internalType": "uint256",
          "name": "rewards",
          "type": "uint256"
        }
      ],
      "name": "Unstaked",
      "type": "event"
    },
    {
      "anonymous": false,
      "inputs": [
        {
          "indexed": true,
          "internalType": "address",
          "name": "implementation",
          "type": "address"
        }
      ],
      "name": "Upgraded",
      "type": "event"
    },
    {
      "inputs": [],
      "name": "UPGRADE_INTERFACE_VERSION",
      "outputs": [
        {
          "internalType": "string",
          "name": "",
          "type": "string"
        }
      ],
      "stateMutability": "view",
      "type": "function"
    },
    {
      "inputs": [
        {
          "internalType": "uint256",
          "name": "_amount",
          "type": "uint256"
        }
      ],
      "name": "addRewardTokens",
      "outputs": [],
      "stateMutability": "nonpayable",
      "type": "function"
    },
    {
      "inputs": [
        {
          "internalType": "address",
          "name": "",
          "type": "address"
        }
      ],
      "name": "aiPredictions",
      "outputs": [
        {
          "internalType": "uint256",
          "name": "predictedAPY",
          "type": "uint256"
        },
        {
          "internalType": "uint256",
          "name": "confidenceScore",
          "type": "uint256"
        },
        {
          "internalType": "uint256",
          "name": "timestamp",
          "type": "uint256"
        }
      ],
      "stateMutability": "view",
      "type": "function"
    },
    {
      "inputs": [],
      "name": "claimRewards",
      "outputs": [],
      "stateMutability": "nonpayable",
      "type": "function"
    },
    {
      "inputs": [
        {
          "internalType": "address",
          "name": "_account",
          "type": "address"
        }
      ],
      "name": "earned",
      "outputs": [
        {
          "internalType": "uint256",
          "name": "",
          "type": "uint256"
        }
      ],
      "stateMutability": "view",
      "type": "function"
    },
    {
      "inputs": [],
      "name": "getAIPrediction",
      "outputs": [],
      "stateMutability": "nonpayable",
      "type": "function"
    },
    {
      "inputs": [],
      "name": "getOptimizedStakeAmount",
      "outputs": [
        {
          "internalType": "uint256",
          "name": "optimalAmount",
          "type": "uint256"
        },
        {
          "internalType": "uint256",
          "name": "expectedAPY",
          "type": "uint256"
        }
      ],
      "stateMutability": "view",
      "type": "function"
    },
    {
      "inputs": [
        {
          "internalType": "uint256",
          "name": "_amount",
          "type": "uint256"
        }
      ],
      "name": "getRewardTier",
      "outputs": [
        {
          "internalType": "uint256",
          "name": "tierIndex",
          "type": "uint256"
        },
        {
          "internalType": "uint256",
          "name": "baseAPY",
          "type": "uint256"
        },
        {
          "internalType": "uint256",
          "name": "bonusAPY",
          "type": "uint256"
        }
      ],
      "stateMutability": "view",
      "type": "function"
    },
    {
      "inputs": [
        {
          "internalType": "address",
          "name": "_user",
          "type": "address"
        }
      ],
      "name": "getStakeInfo",
      "outputs": [
        {
          "internalType": "uint256",
          "name": "amount",
          "type": "uint256"
        },
        {
          "internalType": "uint256",
          "name": "stakedAt",
          "type": "uint256"
        },
        {
          "internalType": "uint256",
          "name": "lockExpiry",
          "type": "uint256"
        },
        {
          "internalType": "uint256",
          "name": "earnedRewards",
          "type": "uint256"
        },
        {
          "internalType": "bool",
          "name": "canUnstake",
          "type": "bool"
        }
      ],
      "stateMutability": "view",
      "type": "function"
    },
    {
      "inputs": [],
      "name": "getTotalRewardTiers",
      "outputs": [
        {
          "internalType": "uint256",
          "name": "",
          "type": "uint256"
        }
      ],
      "stateMutability": "view",
      "type": "function"
    },
    {
      "inputs": [
        {
          "internalType": "address",
          "name": "_stakingToken",
          "type": "address"
        },
        {
          "internalType": "address",
          "name": "_rewardToken",
          "type": "address"
        },
        {
          "internalType": "address",
          "name": "_oracle",
          "type": "address"
        },
        {
          "internalType": "uint256",
          "name": "_rewardRate",
          "type": "uint256"
        },
        {
          "internalType": "uint256",
          "name": "_minStakeAmount",
          "type": "uint256"
        },
        {
          "internalType": "uint256",
          "name": "_maxStakeAmount",
          "type": "uint256"
        }
      ],
      "name": "initialize",
      "outputs": [],
      "stateMutability": "nonpayable",
      "type": "function"
    },
    {
      "inputs": [],
      "name": "lastUpdateTime",
      "outputs": [
        {
          "internalType": "uint256",
          "name": "",
          "type": "uint256"
        }
      ],
      "stateMutability": "view",
      "type": "function"
    },
    {
      "inputs": [],
      "name": "lockPeriodBonus",
      "outputs": [
        {
          "internalType": "uint256",
          "name": "",
          "type": "uint256"
        }
      ],
      "stateMutability": "view",
      "type": "function"
    },
    {
      "inputs": [],
      "name": "maxStakeAmount",
      "outputs": [
        {
          "internalType": "uint256",
          "name": "",
          "type": "uint256"
        }
      ],
      "stateMutability": "view",
      "type": "function"
    },
    {
      "inputs": [],
      "name": "minStakeAmount",
      "outputs": [
        {
          "internalType": "uint256",
          "name": "",
          "type": "uint256"
        }
      ],
      "stateMutability": "view",
      "type": "function"
    },
    {
      "inputs": [],
      "name": "oracle",
      "outputs": [
        {
          "internalType": "contract DecentralizedOracle",
          "name": "",
          "type": "address"
        }
      ],
      "stateMutability": "view",
      "type": "function"
    },
    {
      "inputs": [],
      "name": "owner",
      "outputs": [
        {
          "internalType": "address",
          "name": "",
          "type": "address"
        }
      ],
      "stateMutability": "view",
      "type": "function"
    },
    {
      "inputs": [
        {
          "internalType": "address",
          "name": "",
          "type": "address"
        }
      ],
      "name": "pendingRewards",
      "outputs": [
        {
          "internalType": "uint256",
          "name": "",
          "type": "uint256"
        }
      ],
      "stateMutability": "view",
      "type": "function"
    },
    {
      "inputs": [],
      "name": "proxiableUUID",
      "outputs": [
        {
          "internalType": "bytes32",
          "name": "",
          "type": "bytes32"
        }
      ],
      "stateMutability": "view",
      "type": "function"
    },
    {
      "inputs": [],
      "name": "renounceOwnership",
      "outputs": [],
      "stateMutability": "nonpayable",
      "type": "function"
    },
    {
      "inputs": [],
      "name": "rewardPerToken",
      "outputs": [
        {
          "internalType": "uint256",
          "name": "",
          "type": "uint256"
        }
      ],
      "stateMutability": "view",
      "type": "function"
    },
    {
      "inputs": [],
      "name": "rewardPerTokenStored",
      "outputs": [
        {
          "internalType": "uint256",
          "name": "",
          "type": "uint256"
        }
      ],
      "stateMutability": "view",
      "type": "function"
    },
    {
      "inputs": [],
      "name": "rewardRate",
      "outputs": [
        {
          "internalType": "uint256",
          "name": "",
          "type": "uint256"
        }
      ],
      "stateMutability": "view",
      "type": "function"
    },
    {
      "inputs": [
        {
          "internalType": "uint256",
          "name": "",
          "type": "uint256"
        }
      ],
      "name": "rewardTiers",
      "outputs": [
        {
          "internalType": "uint256",
          "name": "minStake",
          "type": "uint256"
        },
        {
          "internalType": "uint256",
          "name": "maxStake",
          "type": "uint256"
        },
        {
          "internalType": "uint256",
          "name": "baseAPY",
          "type": "uint256"
        },
        {
          "internalType": "uint256",
          "name": "bonusAPY",
          "type": "uint256"
        }
      ],
      "stateMutability": "view",
      "type": "function"
    },
    {
      "inputs": [],
      "name": "rewardToken",
      "outputs": [
        {
          "internalType": "contract IERC20",
          "name": "",
          "type": "address"
        }
      ],
      "stateMutability": "view",
      "type": "function"
    },
    {
      "inputs": [
        {
          "internalType": "address",
          "name": "",
          "type": "address"
        }
      ],
      "name": "rewards",
      "outputs": [
        {
          "internalType": "uint256",
          "name": "",
          "type": "uint256"
        }
      ],
      "stateMutability": "view",
      "type": "function"
    },
    {
      "inputs": [
        {
          "internalType": "uint256",
          "name": "_rewardRate",
          "type": "uint256"
        }
      ],
      "name": "setRewardRate",
      "outputs": [],
      "stateMutability": "nonpayable",
      "type": "function"
    },
    {
      "inputs": [
        {
          "internalType": "uint256",
          "name": "_minStakeAmount",
          "type": "uint256"
        },
        {
          "internalType": "uint256",
          "name": "_maxStakeAmount",
          "type": "uint256"
        },
        {
          "internalType": "uint256",
          "name": "_lockPeriodBonus",
          "type": "uint256"
        },
        {
          "internalType": "uint256",
          "name": "_unstakeFee",
          "type": "uint256"
        }
      ],
      "name": "setStakingParameters",
      "outputs": [],
      "stateMutability": "nonpayable",
      "type": "function"
    },
    {
      "inputs": [
        {
          "internalType": "uint256",
          "name": "_amount",
          "type": "uint256"
        },
        {
          "internalType": "uint256",
          "name": "_lockPeriod",
          "type": "uint256"
        },
        {
          "internalType": "bool",
          "name": "_autoCompound",
          "type": "bool"
        }
      ],
      "name": "stake",
      "outputs": [],
      "stateMutability": "nonpayable",
      "type": "function"
    },
    {
      "inputs": [
        {
          "internalType": "address",
          "name": "",
          "type": "address"
        }
      ],
      "name": "stakes",
      "outputs": [
        {
          "internalType": "uint256",
          "name": "amount",
          "type": "uint256"
        },
        {
          "internalType": "uint256",
          "name": "stakedAt",
          "type": "uint256"
        },
        {
          "internalType": "uint256",
          "name": "lastClaimTime",
          "type": "uint256"
        },
        {
          "internalType": "uint256",
          "name": "accumulatedRewards",
          "type": "uint256"
        },
        {
          "internalType": "uint256",
          "name": "lockPeriod",
          "type": "uint256"
        },
        {
          "internalType": "bool",
          "name": "autoCompound",
          "type": "bool"
        }
      ],
      "stateMutability": "view",
      "type": "function"
    },
    {
      "inputs": [],
      "name": "stakingToken",
      "outputs": [
        {
          "internalType": "contract IERC20",
          "name": "",
          "type": "address"
        }
      ],
      "stateMutability": "view",
      "type": "function"
    },
    {
      "inputs": [],
      "name": "totalRewardsDistributed",
      "outputs": [
        {
          "internalType": "uint256",
          "name": "",
          "type": "uint256"
        }
      ],
      "stateMutability": "view",
      "type": "function"
    },
    {
      "inputs": [],
      "name": "totalStaked",
      "outputs": [
        {
          "internalType": "uint256",
          "name": "",
          "type": "uint256"
        }
      ],
      "stateMutability": "view",
      "type": "function"
    },
    {
      "inputs": [
        {
          "internalType": "address",
          "name": "newOwner",
          "type": "address"
        }
      ],
      "name": "transferOwnership",
      "outputs": [],
      "stateMutability": "nonpayable",
      "type": "function"
    },
    {
      "inputs": [],
      "name": "unstake",
      "outputs": [],
      "stateMutability": "nonpayable",
      "type": "function"
    },
    {
      "inputs": [],
      "name": "unstakeFee",
      "outputs": [
        {
          "internalType": "uint256",
          "name": "",
          "type": "uint256"
        }
      ],
      "stateMutability": "view",
      "type": "function"
    },
    {
      "inputs": [
        {
          "internalType": "uint256[]",
          "name": "_minStakes",
          "type": "uint256[]"
        },
        {
          "internalType": "uint256[]",
          "name": "_maxStakes",
          "type": "uint256[]"
        },
        {
          "internalType": "uint256[]",
          "name": "_baseAPYs",
          "type": "uint256[]"
        },
        {
          "internalType": "uint256[]",
          "name": "_bonusAPYs",
          "type": "uint256[]"
        }
      ],
      "name": "updateRewardTiers",
      "outputs": [],
      "stateMutability": "nonpayable",
      "type": "function"
    },
    {
      "inputs": [
        {
          "internalType": "address",
          "name": "newImplementation",
          "type": "address"
        },
        {
          "internalType": "bytes",
          "name": "data",
          "type": "bytes"
        }
      ],
      "name": "upgradeToAndCall",
      "outputs": [],
      "stateMutability": "payable",
      "type": "function"
    },
    {
      "inputs": [
        {
          "internalType": "address",
          "name": "",
          "type": "address"
        }
      ],
      "name": "userRewardPerTokenPaid",
      "outputs": [
        {
          "internalType": "uint256",
          "name": "",
          "type": "uint256"
        }
      ],
      "stateMutability": "view",
      "type": "function"
    }
  ],
  "bytecode": "0x60a0806040523460295730608052612172908161002f8239608051818181610d3c0152610e330152f35b600080fdfe6080604052600436101561001257600080fd5b60003560e01c80628cc2621461181b5780630700037d146117e157806316934fc41461176b5780631773ad0d146115a0578063184b7084146115825780632def66201461140457806331d7a262146113ca57806333d54d0514611189578063372500ab146110965780634f1ef28614610db657806352d1902d14610d21578063561b246314610b0a57806358eb970014610ac55780635d80ca3214610aa757806368a9008014610a4c578063715018a6146109b3578063728cdbca146106735780637290381a1461065557806372f702f31461062e5780637b0a47ee146106105780637dc0d1d0146105e9578063817b1cd2146105cb5780638b876347146105915780638da5cb5b1461054b5780638ea97d261461052d57806399ec2aac146105065780639e447fc6146104a4578063ad3cb1cc14610445578063b2af789d14610412578063c34531531461034f578063c8f33c9114610331578063cd3daf9d1461030e578063df136d65146102f0578063eb586cae146102b0578063ee17254614610292578063f188768414610274578063f2fde38b14610249578063f7c618c1146102225763ff201114146101c857600080fd5b3461021d57602036600319011261021d5760043560055481101561021d576101f16080916119a5565b508054906001810154906003600282015491015491604051938452602084015260408301526060820152f35b600080fd5b3461021d57600036600319011261021d5760206001600160a01b0360015416604051908152f35b3461021d57602036600319011261021d5761027261026561183e565b61026d611f27565b611cc6565b005b3461021d57600036600319011261021d576020600d54604051908152f35b3461021d57600036600319011261021d576020600754604051908152f35b3461021d57602036600319011261021d576102ec6102cf600435611c4d565b604080519384526020840192909252908201529081906060820190565b0390f35b3461021d57600036600319011261021d576020600a54604051908152f35b3461021d57600036600319011261021d576020610329611bf5565b604051908152f35b3461021d57600036600319011261021d576020600954604051908152f35b3461021d57602036600319011261021d5760a061036a61183e565b6001600160a01b038116600052600360205260406000206040519061038e826118a2565b805482526103d560018201549360208401948552600283015460408501526003830154606085015260ff600560048501549460808701958652015416151586850152611a07565b906103f56103e685518351906119fa565b421015935194519151826119fa565b906040519485526020850152604084015260608301526080820152f35b3461021d57608036600319011261021d5761042b611f27565b600435600d55602435600e55604435600f55606435601055005b3461021d57600036600319011261021d576102ec604080519061046881836118be565b600582527f352e302e30000000000000000000000000000000000000000000000000000000602083015251918291602083526020830190611964565b3461021d57602036600319011261021d576004356104c0611f27565b6104c8611bf5565b600a55426009557fc390a98ace15a7bb6bab611eedfdbb2685043b241a869420043cdfb23ccfee5060406008548151908152836020820152a1600855005b3461021d57600036600319011261021d576040610521611b7e565b82519182526020820152f35b3461021d57600036600319011261021d576020601054604051908152f35b3461021d57600036600319011261021d5760206001600160a01b037f9016d09d72d40fdae2fd8ceac6b6234c7706214fd39c1cd1e609a0528c1993005416604051908152f35b3461021d57602036600319011261021d576001600160a01b036105b261183e565b16600052600b6020526020604060002054604051908152f35b3461021d57600036600319011261021d576020600654604051908152f35b3461021d57600036600319011261021d5760206001600160a01b0360025416604051908152f35b3461021d57600036600319011261021d576020600854604051908152f35b3461021d57600036600319011261021d5760206001600160a01b0360005416604051908152f35b3461021d57600036600319011261021d576020600554604051908152f35b3461021d5760c036600319011261021d5761068c61183e565b6024356001600160a01b03811680910361021d57604435906001600160a01b03821680920361021d577ff0c57e16840df040f15088dc2f81fe391c3923bec73e23a9662efc9c229c6a005460ff8160401c16159367ffffffffffffffff8216801590816109ab575b60011490816109a1575b159081610998575b5061096e5767ffffffffffffffff1982166001177ff0c57e16840df040f15088dc2f81fe391c3923bec73e23a9662efc9c229c6a00556001600160a01b03918561092f575b50610754612053565b61075c612053565b61076533611cc6565b61076d612053565b610775612053565b60017f9b779b17422d0df92223018b32b4d1fa46e071723d6817e2486d003becc55f00556107a1612053565b166001600160a01b031960005416176000556001600160a01b031960015416176001556001600160a01b03196002541617600255606435600855608435600d5560a435600e55426009556108296040516107fa81611886565b68056bc75e2d631000008152683635c9adc5dea0000060208201526101f4604082015260646060820152611af5565b61086860405161083881611886565b683635c9adc5dea00000815269021e19e0c9bab24000006020820152610320604082015260c86060820152611af5565b6108a160405161087781611886565b69021e19e0c9bab2400000815260001960208201526104b0604082015261012c6060820152611af5565b6032600f556101f46010556108b257005b68ff0000000000000000197ff0c57e16840df040f15088dc2f81fe391c3923bec73e23a9662efc9c229c6a0054167ff0c57e16840df040f15088dc2f81fe391c3923bec73e23a9662efc9c229c6a00557fc7f505b2f371ae2175ee4913f4499e1f2633a7b5936321eed1cdaeb6115181d2602060405160018152a1005b68ffffffffffffffffff191668010000000000000001177ff0c57e16840df040f15088dc2f81fe391c3923bec73e23a9662efc9c229c6a00558561074b565b7ff92ee8a90000000000000000000000000000000000000000000000000000000060005260046000fd5b90501586610706565b303b1591506106fe565b8691506106f4565b3461021d57600036600319011261021d576109cc611f27565b60006001600160a01b037f9016d09d72d40fdae2fd8ceac6b6234c7706214fd39c1cd1e609a0528c199300546001600160a01b031981167f9016d09d72d40fdae2fd8ceac6b6234c7706214fd39c1cd1e609a0528c19930055167f8be0079c531659141344cd1fd0a4f28419497f9722a3daafe3b4186f6b6457e08280a3005b3461021d57602036600319011261021d576001600160a01b03610a6d61183e565b166000526011602052604060002080546102ec60026001840154930154604051938493846040919493926060820195825260208201520152565b3461021d57600036600319011261021d576020600e54604051908152f35b3461021d57602036600319011261021d57610b05600435610ae4611f27565b610afd816001600160a01b036001541630903390611f88565b6007546119fa565b600755005b3461021d57606036600319011261021d5760043560243560443580151580910361021d57610b36611e08565b600d548310610cdd57600e548311610c9957336000526003602052604060002054610c5557610b6433611e81565b610b7d836001600160a01b036000541630903390611f88565b6005604051610b8b816118a2565b8481526020810142815260408201428152606083019060008252608084019287845260a08501968752336000526003602052604060002094518555516001850155516002840155516003830155516004820155019051151560ff80198354169116179055610bfb826006546119fa565b60065560405191825260208201527f1449c6dd7851abc30abf37f57715f492010519147cc2652fbc38202c18a6ee9060403392a260017f9b779b17422d0df92223018b32b4d1fa46e071723d6817e2486d003becc55f0055005b606460405162461bcd60e51b815260206004820152600f60248201527f416c7265616479207374616b696e6700000000000000000000000000000000006044820152fd5b606460405162461bcd60e51b815260206004820152601560248201527f5374616b6520616d6f756e7420746f6f206869676800000000000000000000006044820152fd5b606460405162461bcd60e51b815260206004820152601460248201527f5374616b6520616d6f756e7420746f6f206c6f770000000000000000000000006044820152fd5b3461021d57600036600319011261021d576001600160a01b037f0000000000000000000000000000000000000000000000000000000000000000163003610d8c5760206040517f360894a13ba1a3210667c828492db98dca3e2076cc3735a920a3ca505d382bbc8152f35b7fe07c8dba0000000000000000000000000000000000000000000000000000000060005260046000fd5b604036600319011261021d57610dca61183e565b6024359067ffffffffffffffff821161021d573660238301121561021d57816004013590610df782611948565b91610e0560405193846118be565b8083526020830193366024838301011161021d57816000926024602093018737840101526001600160a01b037f000000000000000000000000000000000000000000000000000000000000000016803014908115611061575b50610d8c57610e6b611f27565b6001600160a01b038116926040517f52d1902d000000000000000000000000000000000000000000000000000000008152602081600481885afa6000918161102d575b50610ec85784634c9c8ce360e01b60005260045260246000fd5b807f360894a13ba1a3210667c828492db98dca3e2076cc3735a920a3ca505d382bbc8692036110005750823b15610fec57806001600160a01b03197f360894a13ba1a3210667c828492db98dca3e2076cc3735a920a3ca505d382bbc5416177f360894a13ba1a3210667c828492db98dca3e2076cc3735a920a3ca505d382bbc557fbc7cd75a20ee27fd9adebab32041f755214dbc6bffa90cc0225b39da2e5c2d3b600080a2825115610fb85760008091610272945190845af43d15610fb0573d91610f9383611948565b92610fa160405194856118be565b83523d6000602085013e6120ac565b6060916120ac565b50505034610fc257005b7fb398979f0000000000000000000000000000000000000000000000000000000060005260046000fd5b634c9c8ce360e01b60005260045260246000fd5b7faa1d49a40000000000000000000000000000000000000000000000000000000060005260045260246000fd5b9091506020813d602011611059575b81611049602093836118be565b8101031261021d57519086610eae565b3d915061103c565b90506001600160a01b037f360894a13ba1a3210667c828492db98dca3e2076cc3735a920a3ca505d382bbc5416141584610e5e565b3461021d57600036600319011261021d576110af611e08565b6110b833611e81565b33600052600c60205260406000205480156111455733600052600c602052600060408120556110f381336001600160a01b0360015416611ed0565b6040519081527ffc30cddea38e2bf4d6ea7d3f9ed3b6ad7f176419f4963bd81318067a4aee73fe60203392a260017f9b779b17422d0df92223018b32b4d1fa46e071723d6817e2486d003becc55f0055005b606460405162461bcd60e51b815260206004820152601360248201527f4e6f207265776172647320746f20636c61696d000000000000000000000000006044820152fd5b3461021d57608036600319011261021d5760043567ffffffffffffffff811161021d576111ba9036906004016118e0565b60243567ffffffffffffffff811161021d576111da9036906004016118e0565b9060443567ffffffffffffffff811161021d576111fb9036906004016118e0565b9060643567ffffffffffffffff811161021d5761121c9036906004016118e0565b92611225611f27565b8151815180911490816113bf575b50806113b4575b15611370576005546000600555806112b6575b5060005b825181101561027257806112b061126a60019386611ae1565b516112758386611ae1565b516112808489611ae1565b5161128b858b611ae1565b51916040519361129a85611886565b8452602084015260408301526060820152611af5565b01611251565b7f3fffffffffffffffffffffffffffffffffffffffffffffffffffffffffffffff8116810361135a57600560005260021b7f036b6384b5eca791c62761152d0c79bb0604c104a5fb6f4eb0703f3154bb3db0017f036b6384b5eca791c62761152d0c79bb0604c104a5fb6f4eb0703f3154bb3db05b818110611338575061124d565b806000600492556000600182015560006002820155600060038201550161132b565b634e487b7160e01b600052601160045260246000fd5b606460405162461bcd60e51b815260206004820152601560248201527f4172726179206c656e677468206d69736d6174636800000000000000000000006044820152fd5b50825184511461123a565b905083511485611233565b3461021d57602036600319011261021d576001600160a01b036113eb61183e565b1660005260046020526020604060002054604051908152f35b3461021d57600036600319011261021d5761141d611e08565b336000526003602052604060002080541561153e5761143b33611e81565b80549033600052600c6020526040600020549061146160018201546004830154906119fa565b4210611519575b6000905533600052600c60205260006040812055611488826006546119da565b6006556114a182336001600160a01b0360005416611ed0565b806114fe575b60405191825260208201527f7fc4727e062e336010f2c282598ef5f14facb3de68cf8195c2f23e1454b2b74e60403392a260017f9b779b17422d0df92223018b32b4d1fa46e071723d6817e2486d003becc55f0055005b61151481336001600160a01b0360015416611ed0565b6114a7565b9161153660009161271061152f601054836119e7565b04906119da565b929050611468565b606460405162461bcd60e51b815260206004820152600e60248201527f4e6f207374616b6520666f756e640000000000000000000000000000000000006044820152fd5b3461021d57600036600319011261021d576020600f54604051908152f35b3461021d57600036600319011261021d5761169f60606001600160a01b0360025416604051907f757365725f000000000000000000000000000000000000000000000000000000602083015233831b60258301527f5f70726564696374696f6e0000000000000000000000000000000000000000006039830152602482526116296044836118be565b60405180809581947f52ee0b7700000000000000000000000000000000000000000000000000000000835260056004840152866024840152600760648401527f7374616b696e6700000000000000000000000000000000000000000000000000608484015260a0604484015260a4830190611964565b03915afa90811561175f5760009161172d575b5060656113888083069204066040516116ca81611854565b82815260026020820183815260408301904282523360005260116020526040600020935184555160018401555191015560405191825260208201527f93e5bae9815621078afb4a99dff5a0ebfe4873adf579560bbfeb77d611649dd360403392a2005b90506060813d606011611757575b81611748606093836118be565b8101031261021d5751816116b2565b3d915061173b565b6040513d6000823e3d90fd5b3461021d57602036600319011261021d576001600160a01b0361178c61183e565b16600052600360205260c06040600020805490600181015490600281015460038201549060ff6005600485015494015416936040519586526020860152604085015260608401526080830152151560a0820152f35b3461021d57602036600319011261021d576001600160a01b0361180261183e565b16600052600c6020526020604060002054604051908152f35b3461021d57602036600319011261021d57602061032961183961183e565b611a07565b600435906001600160a01b038216820361021d57565b6060810190811067ffffffffffffffff82111761187057604052565b634e487b7160e01b600052604160045260246000fd5b6080810190811067ffffffffffffffff82111761187057604052565b60c0810190811067ffffffffffffffff82111761187057604052565b90601f8019910116810190811067ffffffffffffffff82111761187057604052565b9080601f8301121561021d5781359167ffffffffffffffff8311611870578260051b906040519361191460208401866118be565b845260208085019282010192831161021d57602001905b8282106119385750505090565b813581526020918201910161192b565b67ffffffffffffffff811161187057601f01601f191660200190565b919082519283825260005b848110611990575050826000602080949584010152601f8019910116010190565b8060208092840101518282860101520161196f565b6005548110156119c457600560005260206000209060021b0190600090565b634e487b7160e01b600052603260045260246000fd5b9190820391821161135a57565b8181029291811591840414171561135a57565b9190820180921161135a57565b6001600160a01b031680600052600360205260406000209060405190611a2c826118a2565b60ff600584549485855260018101546020860152600281015460408601526003810154606086015260048101546080860152015416151560a08301528215611ad957611acf611ac9670de0b6b3a7640000611aae611ad696611aa861271096611a93611bf5565b90600052600b602052604060002054906119da565b906119e7565b0493611ac3611abd8251611d85565b91611de6565b906119fa565b836119e7565b04906119fa565b90565b505050600090565b80518210156119c45760209160051b010190565b6005546801000000000000000081101561187057600181016005556000600554821015611b6a576005905260021b7f036b6384b5eca791c62761152d0c79bb0604c104a5fb6f4eb0703f3154bb3db0019060608160039251845560208101516001850155604081015160028501550151910155565b80634e487b7160e01b602492526032600452fd5b33600052601160205260406000209060405191611b9a83611854565b600281549182855260018101546020860152015480604085015215611bec57600d5490670de0b6b3a7640000810290808204670de0b6b3a7640000149015171561135a57611be7916119fa565b915190565b50600091508190565b6006548015611c4657600a54611c19611c10600954426119da565b600854906119e7565b91670de0b6b3a7640000830292808404670de0b6b3a7640000149015171561135a57611ad69204906119fa565b50600a5490565b6005549060005b828110611c6957505050600090600090600090565b611c72816119a5565b505482101580611caf575b611c8957600101611c54565b9150506002611c97826119a5565b500154916003611ca6836119a5565b50015491929190565b506001611cbb826119a5565b500154821115611c7d565b6001600160a01b03168015611d56576001600160a01b037f9016d09d72d40fdae2fd8ceac6b6234c7706214fd39c1cd1e609a0528c19930054826001600160a01b03198216177f9016d09d72d40fdae2fd8ceac6b6234c7706214fd39c1cd1e609a0528c19930055167f8be0079c531659141344cd1fd0a4f28419497f9722a3daafe3b4186f6b6457e0600080a3565b7f1e4fbdf700000000000000000000000000000000000000000000000000000000600052600060045260246000fd5b6005549060005b828110611d9b57505050600090565b611da4816119a5565b505482101580611dcf575b611dbb57600101611d8c565b60039250611dc991506119a5565b50015490565b506001611ddb826119a5565b500154821115611daf565b608001518015611e0257611ad69062278d00600f5491046119e7565b50600090565b60027f9b779b17422d0df92223018b32b4d1fa46e071723d6817e2486d003becc55f005414611e575760027f9b779b17422d0df92223018b32b4d1fa46e071723d6817e2486d003becc55f0055565b7f3ee5aeb50000000000000000000000000000000000000000000000000000000060005260046000fd5b611e89611bf5565b600a55426009556001600160a01b0381169081611ea4575050565b611ead90611a07565b81600052600c602052604060002055600a5490600052600b602052604060002055565b611f25926001600160a01b03604051937fa9059cbb000000000000000000000000000000000000000000000000000000006020860152166024840152604483015260448252611f206064836118be565b611fe2565b565b6001600160a01b037f9016d09d72d40fdae2fd8ceac6b6234c7706214fd39c1cd1e609a0528c19930054163303611f5a57565b7f118cdaa7000000000000000000000000000000000000000000000000000000006000523360045260246000fd5b9091926001600160a01b03611f259481604051957f23b872dd000000000000000000000000000000000000000000000000000000006020880152166024860152166044840152606483015260648252611f206084836118be565b906000602091828151910182855af11561175f576000513d61204a57506001600160a01b0381163b155b6120135750565b6001600160a01b03907f5274afe7000000000000000000000000000000000000000000000000000000006000521660045260246000fd5b6001141561200c565b60ff7ff0c57e16840df040f15088dc2f81fe391c3923bec73e23a9662efc9c229c6a005460401c161561208257565b7fd7e6bcf80000000000000000000000000000000000000000000000000000000060005260046000fd5b906120eb57508051156120c157602081519101fd5b7fd6bda2750000000000000000000000000000000000000000000000000000000060005260046000fd5b81511580612133575b6120fc575090565b6001600160a01b03907f9996b315000000000000000000000000000000000000000000000000000000006000521660045260246000fd5b50803b156120f456fea2646970667358221220b3d5d832217b928e4af3df5a4a0cb82c7393213ee53f8dccfd594817fc9c113164736f6c634300081c0033",
  "linkReferences": {},
  "deployedLinkReferences": {}
}