{
  "_format": "hh-sol-artifact-1",
  "contractName": "GovernanceToken",
  "sourceName": "contracts/GovernanceToken.sol",
  "abi": [
    {
      "inputs": [
        {
          "internalType": "address",
          "name": "target",
          "type": "address"
        }
      ],
      "name": "AddressEmptyCode",
      "type": "error"
    },
    {
      "inputs": [],
      "name": "CheckpointUnorderedInsertion",
      "type": "error"
    },
    {
      "inputs": [],
      "name": "ECDSAInvalidSignature",
      "type": "error"
    },
    {
      "inputs": [
        {
          "internalType": "uint256",
          "name": "length",
          "type": "uint256"
        }
      ],
      "name": "ECDSAInvalidSignatureLength",
      "type": "error"
    },
    {
      "inputs": [
        {
          "internalType": "bytes32",
          "name": "s",
          "type": "bytes32"
        }
      ],
      "name": "ECDSAInvalidSignatureS",
      "type": "error"
    },
    {
      "inputs": [
        {
          "internalType": "address",
          "name": "implementation",
          "type": "address"
        }
      ],
      "name": "ERC1967InvalidImplementation",
      "type": "error"
    },
    {
      "inputs": [],
      "name": "ERC1967NonPayable",
      "type": "error"
    },
    {
      "inputs": [
        {
          "internalType": "uint256",
          "name": "increasedSupply",
          "type": "uint256"
        },
        {
          "internalType": "uint256",
          "name": "cap",
          "type": "uint256"
        }
      ],
      "name": "ERC20ExceededSafeSupply",
      "type": "error"
    },
    {
      "inputs": [
        {
          "internalType": "address",
          "name": "spender",
          "type": "address"
        },
        {
          "internalType": "uint256",
          "name": "allowance",
          "type": "uint256"
        },
        {
          "internalType": "uint256",
          "name": "needed",
          "type": "uint256"
        }
      ],
      "name": "ERC20InsufficientAllowance",
      "type": "error"
    },
    {
      "inputs": [
        {
          "internalType": "address",
          "name": "sender",
          "type": "address"
        },
        {
          "internalType": "uint256",
          "name": "balance",
          "type": "uint256"
        },
        {
          "internalType": "uint256",
          "name": "needed",
          "type": "uint256"
        }
      ],
      "name": "ERC20InsufficientBalance",
      "type": "error"
    },
    {
      "inputs": [
        {
          "internalType": "address",
          "name": "approver",
          "type": "address"
        }
      ],
      "name": "ERC20InvalidApprover",
      "type": "error"
    },
    {
      "inputs": [
        {
          "internalType": "address",
          "name": "receiver",
          "type": "address"
        }
      ],
      "name": "ERC20InvalidReceiver",
      "type": "error"
    },
    {
      "inputs": [
        {
          "internalType": "address",
          "name": "sender",
          "type": "address"
        }
      ],
      "name": "ERC20InvalidSender",
      "type": "error"
    },
    {
      "inputs": [
        {
          "internalType": "address",
          "name": "spender",
          "type": "address"
        }
      ],
      "name": "ERC20InvalidSpender",
      "type": "error"
    },
    {
      "inputs": [
        {
          "internalType": "uint256",
          "name": "timepoint",
          "type": "uint256"
        },
        {
          "internalType": "uint48",
          "name": "clock",
          "type": "uint48"
        }
      ],
      "name": "ERC5805FutureLookup",
      "type": "error"
    },
    {
      "inputs": [],
      "name": "ERC6372InconsistentClock",
      "type": "error"
    },
    {
      "inputs": [],
      "name": "FailedCall",
      "type": "error"
    },
    {
      "inputs": [
        {
          "internalType": "address",
          "name": "account",
          "type": "address"
        },
        {
          "internalType": "uint256",
          "name": "currentNonce",
          "type": "uint256"
        }
      ],
      "name": "InvalidAccountNonce",
      "type": "error"
    },
    {
      "inputs": [],
      "name": "InvalidInitialization",
      "type": "error"
    },
    {
      "inputs": [],
      "name": "NotInitializing",
      "type": "error"
    },
    {
      "inputs": [
        {
          "internalType": "address",
          "name": "owner",
          "type": "address"
        }
      ],
      "name": "OwnableInvalidOwner",
      "type": "error"
    },
    {
      "inputs": [
        {
          "internalType": "address",
          "name": "account",
          "type": "address"
        }
      ],
      "name": "OwnableUnauthorizedAccount",
      "type": "error"
    },
    {
      "inputs": [
        {
          "internalType": "uint8",
          "name": "bits",
          "type": "uint8"
        },
        {
          "internalType": "uint256",
          "name": "value",
          "type": "uint256"
        }
      ],
      "name": "SafeCastOverflowedUintDowncast",
      "type": "error"
    },
    {
      "inputs": [],
      "name": "UUPSUnauthorizedCallContext",
      "type": "error"
    },
    {
      "inputs": [
        {
          "internalType": "bytes32",
          "name": "slot",
          "type": "bytes32"
        }
      ],
      "name": "UUPSUnsupportedProxiableUUID",
      "type": "error"
    },
    {
      "inputs": [
        {
          "internalType": "uint256",
          "name": "expiry",
          "type": "uint256"
        }
      ],
      "name": "VotesExpiredSignature",
      "type": "error"
    },
    {
      "anonymous": false,
      "inputs": [
        {
          "indexed": true,
          "internalType": "address",
          "name": "owner",
          "type": "address"
        },
        {
          "indexed": true,
          "internalType": "address",
          "name": "spender",
          "type": "address"
        },
        {
          "indexed": false,
          "internalType": "uint256",
          "name": "value",
          "type": "uint256"
        }
      ],
      "name": "Approval",
      "type": "event"
    },
    {
      "anonymous": false,
      "inputs": [
        {
          "indexed": true,
          "internalType": "uint256",
          "name": "proposalId",
          "type": "uint256"
        },
        {
          "indexed": true,
          "internalType": "address",
          "name": "proposer",
          "type": "address"
        },
        {
          "indexed": false,
          "internalType": "string",
          "name": "description",
          "type": "string"
        },
        {
          "indexed": false,
          "internalType": "uint256",
          "name": "requestedAmount",
          "type": "uint256"
        }
      ],
      "name": "ConvictionProposalCreated",
      "type": "event"
    },
    {
      "anonymous": false,
      "inputs": [
        {
          "indexed": true,
          "internalType": "uint256",
          "name": "proposalId",
          "type": "uint256"
        },
        {
          "indexed": true,
          "internalType": "address",
          "name": "beneficiary",
          "type": "address"
        },
        {
          "indexed": false,
          "internalType": "uint256",
          "name": "amount",
          "type": "uint256"
        }
      ],
      "name": "ConvictionProposalExecuted",
      "type": "event"
    },
    {
      "anonymous": false,
      "inputs": [
        {
          "indexed": true,
          "internalType": "address",
          "name": "delegator",
          "type": "address"
        },
        {
          "indexed": true,
          "internalType": "address",
          "name": "fromDelegate",
          "type": "address"
        },
        {
          "indexed": true,
          "internalType": "address",
          "name": "toDelegate",
          "type": "address"
        }
      ],
      "name": "DelegateChanged",
      "type": "event"
    },
    {
      "anonymous": false,
      "inputs": [
        {
          "indexed": true,
          "internalType": "address",
          "name": "delegate",
          "type": "address"
        },
        {
          "indexed": false,
          "internalType": "uint256",
          "name": "previousVotes",
          "type": "uint256"
        },
        {
          "indexed": false,
          "internalType": "uint256",
          "name": "newVotes",
          "type": "uint256"
        }
      ],
      "name": "DelegateVotesChanged",
      "type": "event"
    },
    {
      "anonymous": false,
      "inputs": [
        {
          "indexed": true,
          "internalType": "address",
          "name": "delegator",
          "type": "address"
        },
        {
          "indexed": true,
          "internalType": "address",
          "name": "delegatee",
          "type": "address"
        },
        {
          "indexed": false,
          "internalType": "uint256",
          "name": "amount",
          "type": "uint256"
        },
        {
          "indexed": false,
          "internalType": "uint256",
          "name": "duration",
          "type": "uint256"
        }
      ],
      "name": "Delegated",
      "type": "event"
    },
    {
      "anonymous": false,
      "inputs": [
        {
          "indexed": true,
          "internalType": "address",
          "name": "delegator",
          "type": "address"
        },
        {
          "indexed": true,
          "internalType": "address",
          "name": "delegatee",
          "type": "address"
        }
      ],
      "name": "DelegationSet",
      "type": "event"
    },
    {
      "anonymous": false,
      "inputs": [],
      "name": "EIP712DomainChanged",
      "type": "event"
    },
    {
      "anonymous": false,
      "inputs": [
        {
          "indexed": false,
          "internalType": "uint64",
          "name": "version",
          "type": "uint64"
        }
      ],
      "name": "Initialized",
      "type": "event"
    },
    {
      "anonymous": false,
      "inputs": [
        {
          "indexed": true,
          "internalType": "address",
          "name": "previousOwner",
          "type": "address"
        },
        {
          "indexed": true,
          "internalType": "address",
          "name": "newOwner",
          "type": "address"
        }
      ],
      "name": "OwnershipTransferred",
      "type": "event"
    },
    {
      "anonymous": false,
      "inputs": [
        {
          "indexed": true,
          "internalType": "uint256",
          "name": "proposalId",
          "type": "uint256"
        },
        {
          "indexed": true,
          "internalType": "address",
          "name": "proposer",
          "type": "address"
        },
        {
          "indexed": false,
          "internalType": "string",
          "name": "description",
          "type": "string"
        }
      ],
      "name": "QuadraticProposalCreated",
      "type": "event"
    },
    {
      "anonymous": false,
      "inputs": [
        {
          "indexed": true,
          "internalType": "uint256",
          "name": "proposalId",
          "type": "uint256"
        }
      ],
      "name": "QuadraticProposalExecuted",
      "type": "event"
    },
    {
      "anonymous": false,
      "inputs": [
        {
          "indexed": true,
          "internalType": "uint256",
          "name": "proposalId",
          "type": "uint256"
        },
        {
          "indexed": true,
          "internalType": "address",
          "name": "voter",
          "type": "address"
        },
        {
          "indexed": false,
          "internalType": "uint256",
          "name": "linearVotes",
          "type": "uint256"
        },
        {
          "indexed": false,
          "internalType": "uint256",
          "name": "quadraticVotes",
          "type": "uint256"
        }
      ],
      "name": "QuadraticVoteCast",
      "type": "event"
    },
    {
      "anonymous": false,
      "inputs": [
        {
          "indexed": true,
          "internalType": "address",
          "name": "from",
          "type": "address"
        },
        {
          "indexed": false,
          "internalType": "uint256",
          "name": "amount",
          "type": "uint256"
        }
      ],
      "name": "TokensBurned",
      "type": "event"
    },
    {
      "anonymous": false,
      "inputs": [
        {
          "indexed": true,
          "internalType": "address",
          "name": "to",
          "type": "address"
        },
        {
          "indexed": false,
          "internalType": "uint256",
          "name": "amount",
          "type": "uint256"
        }
      ],
      "name": "TokensMinted",
      "type": "event"
    },
    {
      "anonymous": false,
      "inputs": [
        {
          "indexed": true,
          "internalType": "address",
          "name": "beneficiary",
          "type": "address"
        },
        {
          "indexed": false,
          "internalType": "uint256",
          "name": "amount",
          "type": "uint256"
        }
      ],
      "name": "TokensReleased",
      "type": "event"
    },
    {
      "anonymous": false,
      "inputs": [
        {
          "indexed": true,
          "internalType": "uint256",
          "name": "proposalId",
          "type": "uint256"
        },
        {
          "indexed": true,
          "internalType": "address",
          "name": "staker",
          "type": "address"
        },
        {
          "indexed": false,
          "internalType": "uint256",
          "name": "amount",
          "type": "uint256"
        }
      ],
      "name": "TokensStakedOnProposal",
      "type": "event"
    },
    {
      "anonymous": false,
      "inputs": [
        {
          "indexed": true,
          "internalType": "uint256",
          "name": "proposalId",
          "type": "uint256"
        },
        {
          "indexed": true,
          "internalType": "address",
          "name": "staker",
          "type": "address"
        },
        {
          "indexed": false,
          "internalType": "uint256",
          "name": "amount",
          "type": "uint256"
        }
      ],
      "name": "TokensUnstakedFromProposal",
      "type": "event"
    },
    {
      "anonymous": false,
      "inputs": [
        {
          "indexed": true,
          "internalType": "address",
          "name": "from",
          "type": "address"
        },
        {
          "indexed": true,
          "internalType": "address",
          "name": "to",
          "type": "address"
        },
        {
          "indexed": false,
          "internalType": "uint256",
          "name": "value",
          "type": "uint256"
        }
      ],
      "name": "Transfer",
      "type": "event"
    },
    {
      "anonymous": false,
      "inputs": [
        {
          "indexed": false,
          "internalType": "uint256",
          "name": "amount",
          "type": "uint256"
        }
      ],
      "name": "TreasuryFeesCollected",
      "type": "event"
    },
    {
      "anonymous": false,
      "inputs": [
        {
          "indexed": true,
          "internalType": "address",
          "name": "delegator",
          "type": "address"
        },
        {
          "indexed": true,
          "internalType": "address",
          "name": "delegatee",
          "type": "address"
        },
        {
          "indexed": false,
          "internalType": "uint256",
          "name": "amount",
          "type": "uint256"
        }
      ],
      "name": "Undelegated",
      "type": "event"
    },
    {
      "anonymous": false,
      "inputs": [
        {
          "indexed": true,
          "internalType": "address",
          "name": "implementation",
          "type": "address"
        }
      ],
      "name": "Upgraded",
      "type": "event"
    },
    {
      "anonymous": false,
      "inputs": [
        {
          "indexed": true,
          "internalType": "address",
          "name": "beneficiary",
          "type": "address"
        },
        {
          "indexed": false,
          "internalType": "uint256",
          "name": "amount",
          "type": "uint256"
        },
        {
          "indexed": false,
          "internalType": "uint256",
          "name": "duration",
          "type": "uint256"
        }
      ],
      "name": "VestingScheduleCreated",
      "type": "event"
    },
    {
      "inputs": [],
      "name": "CLOCK_MODE",
      "outputs": [
        {
          "internalType": "string",
          "name": "",
          "type": "string"
        }
      ],
      "stateMutability": "pure",
      "type": "function"
    },
    {
      "inputs": [],
      "name": "COMMUNITY_ALLOCATION",
      "outputs": [
        {
          "internalType": "uint256",
          "name": "",
          "type": "uint256"
        }
      ],
      "stateMutability": "view",
      "type": "function"
    },
    {
      "inputs": [],
      "name": "INITIAL_SUPPLY",
      "outputs": [
        {
          "internalType": "uint256",
          "name": "",
          "type": "uint256"
        }
      ],
      "stateMutability": "view",
      "type": "function"
    },
    {
      "inputs": [],
      "name": "LIQUIDITY_ALLOCATION",
      "outputs": [
        {
          "internalType": "uint256",
          "name": "",
          "type": "uint256"
        }
      ],
      "stateMutability": "view",
      "type": "function"
    },
    {
      "inputs": [],
      "name": "MAX_SUPPLY",
      "outputs": [
        {
          "internalType": "uint256",
          "name": "",
          "type": "uint256"
        }
      ],
      "stateMutability": "view",
      "type": "function"
    },
    {
      "inputs": [],
      "name": "REWARDS_ALLOCATION",
      "outputs": [
        {
          "internalType": "uint256",
          "name": "",
          "type": "uint256"
        }
      ],
      "stateMutability": "view",
      "type": "function"
    },
    {
      "inputs": [],
      "name": "TEAM_ALLOCATION",
      "outputs": [
        {
          "internalType": "uint256",
          "name": "",
          "type": "uint256"
        }
      ],
      "stateMutability": "view",
      "type": "function"
    },
    {
      "inputs": [],
      "name": "UPGRADE_INTERFACE_VERSION",
      "outputs": [
        {
          "internalType": "string",
          "name": "",
          "type": "string"
        }
      ],
      "stateMutability": "view",
      "type": "function"
    },
    {
      "inputs": [
        {
          "internalType": "uint256",
          "name": "_amount",
          "type": "uint256"
        }
      ],
      "name": "addCollectedFees",
      "outputs": [],
      "stateMutability": "nonpayable",
      "type": "function"
    },
    {
      "inputs": [
        {
          "internalType": "address",
          "name": "owner",
          "type": "address"
        },
        {
          "internalType": "address",
          "name": "spender",
          "type": "address"
        }
      ],
      "name": "allowance",
      "outputs": [
        {
          "internalType": "uint256",
          "name": "",
          "type": "uint256"
        }
      ],
      "stateMutability": "view",
      "type": "function"
    },
    {
      "inputs": [
        {
          "internalType": "address",
          "name": "spender",
          "type": "address"
        },
        {
          "internalType": "uint256",
          "name": "value",
          "type": "uint256"
        }
      ],
      "name": "approve",
      "outputs": [
        {
          "internalType": "bool",
          "name": "",
          "type": "bool"
        }
      ],
      "stateMutability": "nonpayable",
      "type": "function"
    },
    {
      "inputs": [
        {
          "internalType": "address",
          "name": "account",
          "type": "address"
        }
      ],
      "name": "balanceOf",
      "outputs": [
        {
          "internalType": "uint256",
          "name": "",
          "type": "uint256"
        }
      ],
      "stateMutability": "view",
      "type": "function"
    },
    {
      "inputs": [
        {
          "internalType": "uint256",
          "name": "_amount",
          "type": "uint256"
        }
      ],
      "name": "burn",
      "outputs": [],
      "stateMutability": "nonpayable",
      "type": "function"
    },
    {
      "inputs": [
        {
          "internalType": "address",
          "name": "_account",
          "type": "address"
        },
        {
          "internalType": "uint256",
          "name": "_amount",
          "type": "uint256"
        }
      ],
      "name": "burnFrom",
      "outputs": [],
      "stateMutability": "nonpayable",
      "type": "function"
    },
    {
      "inputs": [
        {
          "internalType": "address",
          "name": "_account",
          "type": "address"
        }
      ],
      "name": "canPropose",
      "outputs": [
        {
          "internalType": "bool",
          "name": "",
          "type": "bool"
        }
      ],
      "stateMutability": "view",
      "type": "function"
    },
    {
      "inputs": [
        {
          "internalType": "uint256",
          "name": "proposalId",
          "type": "uint256"
        },
        {
          "internalType": "uint256",
          "name": "votes",
          "type": "uint256"
        }
      ],
      "name": "castQuadraticVote",
      "outputs": [],
      "stateMutability": "nonpayable",
      "type": "function"
    },
    {
      "inputs": [
        {
          "internalType": "address",
          "name": "account",
          "type": "address"
        },
        {
          "internalType": "uint32",
          "name": "pos",
          "type": "uint32"
        }
      ],
      "name": "checkpoints",
      "outputs": [
        {
          "components": [
            {
              "internalType": "uint48",
              "name": "_key",
              "type": "uint48"
            },
            {
              "internalType": "uint208",
              "name": "_value",
              "type": "uint208"
            }
          ],
          "internalType": "struct Checkpoints.Checkpoint208",
          "name": "",
          "type": "tuple"
        }
      ],
      "stateMutability": "view",
      "type": "function"
    },
    {
      "inputs": [],
      "name": "clock",
      "outputs": [
        {
          "internalType": "uint48",
          "name": "",
          "type": "uint48"
        }
      ],
      "stateMutability": "view",
      "type": "function"
    },
    {
      "inputs": [
        {
          "internalType": "uint256",
          "name": "_amount",
          "type": "uint256"
        }
      ],
      "name": "collectFees",
      "outputs": [],
      "stateMutability": "nonpayable",
      "type": "function"
    },
    {
      "inputs": [],
      "name": "collectedFees",
      "outputs": [
        {
          "internalType": "uint256",
          "name": "",
          "type": "uint256"
        }
      ],
      "stateMutability": "view",
      "type": "function"
    },
    {
      "inputs": [],
      "name": "convictionGrowthRate",
      "outputs": [
        {
          "internalType": "uint256",
          "name": "",
          "type": "uint256"
        }
      ],
      "stateMutability": "view",
      "type": "function"
    },
    {
      "inputs": [],
      "name": "convictionHalfLife",
      "outputs": [
        {
          "internalType": "uint256",
          "name": "",
          "type": "uint256"
        }
      ],
      "stateMutability": "view",
      "type": "function"
    },
    {
      "inputs": [],
      "name": "convictionProposalCount",
      "outputs": [
        {
          "internalType": "uint256",
          "name": "",
          "type": "uint256"
        }
      ],
      "stateMutability": "view",
      "type": "function"
    },
    {
      "inputs": [
        {
          "internalType": "uint256",
          "name": "",
          "type": "uint256"
        }
      ],
      "name": "convictionProposals",
      "outputs": [
        {
          "internalType": "uint256",
          "name": "proposalId",
          "type": "uint256"
        },
        {
          "internalType": "address",
          "name": "proposer",
          "type": "address"
        },
        {
          "internalType": "string",
          "name": "description",
          "type": "string"
        },
        {
          "internalType": "uint256",
          "name": "requestedAmount",
          "type": "uint256"
        },
        {
          "internalType": "address",
          "name": "beneficiary",
          "type": "address"
        },
        {
          "internalType": "uint256",
          "name": "convictionScore",
          "type": "uint256"
        },
        {
          "internalType": "uint256",
          "name": "lastUpdate",
          "type": "uint256"
        },
        {
          "internalType": "bool",
          "name": "active",
          "type": "bool"
        },
        {
          "internalType": "uint256",
          "name": "totalStaked",
          "type": "uint256"
        }
      ],
      "stateMutability": "view",
      "type": "function"
    },
    {
      "inputs": [
        {
          "internalType": "string",
          "name": "description",
          "type": "string"
        },
        {
          "internalType": "uint256",
          "name": "requestedAmount",
          "type": "uint256"
        },
        {
          "internalType": "address",
          "name": "beneficiary",
          "type": "address"
        }
      ],
      "name": "createConvictionProposal",
      "outputs": [
        {
          "internalType": "uint256",
          "name": "",
          "type": "uint256"
        }
      ],
      "stateMutability": "nonpayable",
      "type": "function"
    },
    {
      "inputs": [
        {
          "internalType": "string",
          "name": "description",
          "type": "string"
        },
        {
          "internalType": "address[]",
          "name": "targets",
          "type": "address[]"
        },
        {
          "internalType": "uint256[]",
          "name": "values",
          "type": "uint256[]"
        },
        {
          "internalType": "bytes[]",
          "name": "calldatas",
          "type": "bytes[]"
        }
      ],
      "name": "createQuadraticProposal",
      "outputs": [
        {
          "internalType": "uint256",
          "name": "",
          "type": "uint256"
        }
      ],
      "stateMutability": "nonpayable",
      "type": "function"
    },
    {
      "inputs": [
        {
          "internalType": "address",
          "name": "_beneficiary",
          "type": "address"
        },
        {
          "internalType": "uint256",
          "name": "_amount",
          "type": "uint256"
        },
        {
          "internalType": "uint256",
          "name": "_duration",
          "type": "uint256"
        },
        {
          "internalType": "uint256",
          "name": "_cliffDuration",
          "type": "uint256"
        },
        {
          "internalType": "bool",
          "name": "_revocable",
          "type": "bool"
        }
      ],
      "name": "createVestingSchedule",
      "outputs": [],
      "stateMutability": "nonpayable",
      "type": "function"
    },
    {
      "inputs": [],
      "name": "decimals",
      "outputs": [
        {
          "internalType": "uint8",
          "name": "",
          "type": "uint8"
        }
      ],
      "stateMutability": "view",
      "type": "function"
    },
    {
      "inputs": [
        {
          "internalType": "address",
          "name": "delegatee",
          "type": "address"
        }
      ],
      "name": "delegate",
      "outputs": [],
      "stateMutability": "nonpayable",
      "type": "function"
    },
    {
      "inputs": [
        {
          "internalType": "address",
          "name": "delegatee",
          "type": "address"
        },
        {
          "internalType": "uint256",
          "name": "nonce",
          "type": "uint256"
        },
        {
          "internalType": "uint256",
          "name": "expiry",
          "type": "uint256"
        },
        {
          "internalType": "uint8",
          "name": "v",
          "type": "uint8"
        },
        {
          "internalType": "bytes32",
          "name": "r",
          "type": "bytes32"
        },
        {
          "internalType": "bytes32",
          "name": "s",
          "type": "bytes32"
        }
      ],
      "name": "delegateBySig",
      "outputs": [],
      "stateMutability": "nonpayable",
      "type": "function"
    },
    {
      "inputs": [
        {
          "internalType": "address",
          "name": "",
          "type": "address"
        }
      ],
      "name": "delegatedPower",
      "outputs": [
        {
          "internalType": "uint256",
          "name": "",
          "type": "uint256"
        }
      ],
      "stateMutability": "view",
      "type": "function"
    },
    {
      "inputs": [
        {
          "internalType": "address",
          "name": "account",
          "type": "address"
        }
      ],
      "name": "delegates",
      "outputs": [
        {
          "internalType": "address",
          "name": "",
          "type": "address"
        }
      ],
      "stateMutability": "view",
      "type": "function"
    },
    {
      "inputs": [],
      "name": "eip712Domain",
      "outputs": [
        {
          "internalType": "bytes1",
          "name": "fields",
          "type": "bytes1"
        },
        {
          "internalType": "string",
          "name": "name",
          "type": "string"
        },
        {
          "internalType": "string",
          "name": "version",
          "type": "string"
        },
        {
          "internalType": "uint256",
          "name": "chainId",
          "type": "uint256"
        },
        {
          "internalType": "address",
          "name": "verifyingContract",
          "type": "address"
        },
        {
          "internalType": "bytes32",
          "name": "salt",
          "type": "bytes32"
        },
        {
          "internalType": "uint256[]",
          "name": "extensions",
          "type": "uint256[]"
        }
      ],
      "stateMutability": "view",
      "type": "function"
    },
    {
      "inputs": [
        {
          "internalType": "uint256",
          "name": "proposalId",
          "type": "uint256"
        }
      ],
      "name": "executeConvictionProposal",
      "outputs": [],
      "stateMutability": "nonpayable",
      "type": "function"
    },
    {
      "inputs": [
        {
          "internalType": "uint256",
          "name": "proposalId",
          "type": "uint256"
        }
      ],
      "name": "executeQuadraticProposal",
      "outputs": [],
      "stateMutability": "nonpayable",
      "type": "function"
    },
    {
      "inputs": [],
      "name": "executionDelay",
      "outputs": [
        {
          "internalType": "uint256",
          "name": "",
          "type": "uint256"
        }
      ],
      "stateMutability": "view",
      "type": "function"
    },
    {
      "inputs": [
        {
          "internalType": "address",
          "name": "_account",
          "type": "address"
        }
      ],
      "name": "getDelegate",
      "outputs": [
        {
          "internalType": "address",
          "name": "",
          "type": "address"
        }
      ],
      "stateMutability": "view",
      "type": "function"
    },
    {
      "inputs": [
        {
          "internalType": "address",
          "name": "_account",
          "type": "address"
        }
      ],
      "name": "getDelegatedPower",
      "outputs": [
        {
          "internalType": "uint256",
          "name": "",
          "type": "uint256"
        }
      ],
      "stateMutability": "view",
      "type": "function"
    },
    {
      "inputs": [],
      "name": "getExecutionDelay",
      "outputs": [
        {
          "internalType": "uint256",
          "name": "",
          "type": "uint256"
        }
      ],
      "stateMutability": "view",
      "type": "function"
    },
    {
      "inputs": [
        {
          "internalType": "uint256",
          "name": "timepoint",
          "type": "uint256"
        }
      ],
      "name": "getPastTotalSupply",
      "outputs": [
        {
          "internalType": "uint256",
          "name": "",
          "type": "uint256"
        }
      ],
      "stateMutability": "view",
      "type": "function"
    },
    {
      "inputs": [
        {
          "internalType": "address",
          "name": "account",
          "type": "address"
        },
        {
          "internalType": "uint256",
          "name": "timepoint",
          "type": "uint256"
        }
      ],
      "name": "getPastVotes",
      "outputs": [
        {
          "internalType": "uint256",
          "name": "",
          "type": "uint256"
        }
      ],
      "stateMutability": "view",
      "type": "function"
    },
    {
      "inputs": [],
      "name": "getQuorum",
      "outputs": [
        {
          "internalType": "uint256",
          "name": "",
          "type": "uint256"
        }
      ],
      "stateMutability": "view",
      "type": "function"
    },
    {
      "inputs": [
        {
          "internalType": "address",
          "name": "_beneficiary",
          "type": "address"
        }
      ],
      "name": "getReleasableAmount",
      "outputs": [
        {
          "internalType": "uint256",
          "name": "",
          "type": "uint256"
        }
      ],
      "stateMutability": "view",
      "type": "function"
    },
    {
      "inputs": [],
      "name": "getTotalVotingPower",
      "outputs": [
        {
          "internalType": "uint256",
          "name": "",
          "type": "uint256"
        }
      ],
      "stateMutability": "view",
      "type": "function"
    },
    {
      "inputs": [],
      "name": "getVestees",
      "outputs": [
        {
          "internalType": "address[]",
          "name": "",
          "type": "address[]"
        }
      ],
      "stateMutability": "view",
      "type": "function"
    },
    {
      "inputs": [
        {
          "internalType": "address",
          "name": "_beneficiary",
          "type": "address"
        }
      ],
      "name": "getVestingSchedule",
      "outputs": [
        {
          "internalType": "uint256",
          "name": "totalAmount",
          "type": "uint256"
        },
        {
          "internalType": "uint256",
          "name": "releasedAmount",
          "type": "uint256"
        },
        {
          "internalType": "uint256",
          "name": "startTime",
          "type": "uint256"
        },
        {
          "internalType": "uint256",
          "name": "duration",
          "type": "uint256"
        },
        {
          "internalType": "uint256",
          "name": "cliffDuration",
          "type": "uint256"
        },
        {
          "internalType": "bool",
          "name": "revocable",
          "type": "bool"
        }
      ],
      "stateMutability": "view",
      "type": "function"
    },
    {
      "inputs": [
        {
          "internalType": "address",
          "name": "account",
          "type": "address"
        }
      ],
      "name": "getVotes",
      "outputs": [
        {
          "internalType": "uint256",
          "name": "",
          "type": "uint256"
        }
      ],
      "stateMutability": "view",
      "type": "function"
    },
    {
      "inputs": [],
      "name": "getVotingPeriod",
      "outputs": [
        {
          "internalType": "uint256",
          "name": "",
          "type": "uint256"
        }
      ],
      "stateMutability": "view",
      "type": "function"
    },
    {
      "inputs": [
        {
          "internalType": "address",
          "name": "_account",
          "type": "address"
        }
      ],
      "name": "getVotingPower",
      "outputs": [
        {
          "internalType": "uint256",
          "name": "",
          "type": "uint256"
        }
      ],
      "stateMutability": "view",
      "type": "function"
    },
    {
      "inputs": [
        {
          "internalType": "address",
          "name": "_treasury",
          "type": "address"
        }
      ],
      "name": "initialize",
      "outputs": [],
      "stateMutability": "nonpayable",
      "type": "function"
    },
    {
      "inputs": [
        {
          "internalType": "address",
          "name": "_to",
          "type": "address"
        },
        {
          "internalType": "uint256",
          "name": "_amount",
          "type": "uint256"
        }
      ],
      "name": "mint",
      "outputs": [],
      "stateMutability": "nonpayable",
      "type": "function"
    },
    {
      "inputs": [],
      "name": "mintingPaused",
      "outputs": [
        {
          "internalType": "bool",
          "name": "",
          "type": "bool"
        }
      ],
      "stateMutability": "view",
      "type": "function"
    },
    {
      "inputs": [],
      "name": "name",
      "outputs": [
        {
          "internalType": "string",
          "name": "",
          "type": "string"
        }
      ],
      "stateMutability": "view",
      "type": "function"
    },
    {
      "inputs": [
        {
          "internalType": "address",
          "name": "owner",
          "type": "address"
        }
      ],
      "name": "nonces",
      "outputs": [
        {
          "internalType": "uint256",
          "name": "",
          "type": "uint256"
        }
      ],
      "stateMutability": "view",
      "type": "function"
    },
    {
      "inputs": [
        {
          "internalType": "address",
          "name": "account",
          "type": "address"
        }
      ],
      "name": "numCheckpoints",
      "outputs": [
        {
          "internalType": "uint32",
          "name": "",
          "type": "uint32"
        }
      ],
      "stateMutability": "view",
      "type": "function"
    },
    {
      "inputs": [],
      "name": "owner",
      "outputs": [
        {
          "internalType": "address",
          "name": "",
          "type": "address"
        }
      ],
      "stateMutability": "view",
      "type": "function"
    },
    {
      "inputs": [
        {
          "internalType": "bool",
          "name": "_paused",
          "type": "bool"
        }
      ],
      "name": "pauseMinting",
      "outputs": [],
      "stateMutability": "nonpayable",
      "type": "function"
    },
    {
      "inputs": [
        {
          "internalType": "bool",
          "name": "_paused",
          "type": "bool"
        }
      ],
      "name": "pauseTransfers",
      "outputs": [],
      "stateMutability": "nonpayable",
      "type": "function"
    },
    {
      "inputs": [],
      "name": "proposalThreshold",
      "outputs": [
        {
          "internalType": "uint256",
          "name": "",
          "type": "uint256"
        }
      ],
      "stateMutability": "view",
      "type": "function"
    },
    {
      "inputs": [],
      "name": "proxiableUUID",
      "outputs": [
        {
          "internalType": "bytes32",
          "name": "",
          "type": "bytes32"
        }
      ],
      "stateMutability": "view",
      "type": "function"
    },
    {
      "inputs": [],
      "name": "quadraticProposalCount",
      "outputs": [
        {
          "internalType": "uint256",
          "name": "",
          "type": "uint256"
        }
      ],
      "stateMutability": "view",
      "type": "function"
    },
    {
      "inputs": [
        {
          "internalType": "uint256",
          "name": "",
          "type": "uint256"
        }
      ],
      "name": "quadraticProposals",
      "outputs": [
        {
          "internalType": "uint256",
          "name": "proposalId",
          "type": "uint256"
        },
        {
          "internalType": "address",
          "name": "proposer",
          "type": "address"
        },
        {
          "internalType": "string",
          "name": "description",
          "type": "string"
        },
        {
          "internalType": "uint256",
          "name": "startTime",
          "type": "uint256"
        },
        {
          "internalType": "uint256",
          "name": "endTime",
          "type": "uint256"
        },
        {
          "internalType": "uint256",
          "name": "totalQuadraticVotes",
          "type": "uint256"
        },
        {
          "internalType": "uint256",
          "name": "totalLinearVotes",
          "type": "uint256"
        },
        {
          "internalType": "bool",
          "name": "executed",
          "type": "bool"
        },
        {
          "internalType": "bool",
          "name": "canceled",
          "type": "bool"
        }
      ],
      "stateMutability": "view",
      "type": "function"
    },
    {
      "inputs": [],
      "name": "quorumThreshold",
      "outputs": [
        {
          "internalType": "uint256",
          "name": "",
          "type": "uint256"
        }
      ],
      "stateMutability": "view",
      "type": "function"
    },
    {
      "inputs": [],
      "name": "releaseVestedTokens",
      "outputs": [],
      "stateMutability": "nonpayable",
      "type": "function"
    },
    {
      "inputs": [],
      "name": "renounceOwnership",
      "outputs": [],
      "stateMutability": "nonpayable",
      "type": "function"
    },
    {
      "inputs": [
        {
          "internalType": "address",
          "name": "_beneficiary",
          "type": "address"
        }
      ],
      "name": "revokeVesting",
      "outputs": [],
      "stateMutability": "nonpayable",
      "type": "function"
    },
    {
      "inputs": [
        {
          "internalType": "uint256",
          "name": "_proposalThreshold",
          "type": "uint256"
        },
        {
          "internalType": "uint256",
          "name": "_quorumThreshold",
          "type": "uint256"
        },
        {
          "internalType": "uint256",
          "name": "_votingPeriod",
          "type": "uint256"
        },
        {
          "internalType": "uint256",
          "name": "_executionDelay",
          "type": "uint256"
        }
      ],
      "name": "setGovernanceParameters",
      "outputs": [],
      "stateMutability": "nonpayable",
      "type": "function"
    },
    {
      "inputs": [
        {
          "internalType": "address",
          "name": "_treasury",
          "type": "address"
        }
      ],
      "name": "setTreasury",
      "outputs": [],
      "stateMutability": "nonpayable",
      "type": "function"
    },
    {
      "inputs": [
        {
          "internalType": "uint256",
          "name": "proposalId",
          "type": "uint256"
        },
        {
          "internalType": "uint256",
          "name": "amount",
          "type": "uint256"
        }
      ],
      "name": "stakeOnConvictionProposal",
      "outputs": [],
      "stateMutability": "nonpayable",
      "type": "function"
    },
    {
      "inputs": [],
      "name": "symbol",
      "outputs": [
        {
          "internalType": "string",
          "name": "",
          "type": "string"
        }
      ],
      "stateMutability": "view",
      "type": "function"
    },
    {
      "inputs": [],
      "name": "totalSupply",
      "outputs": [
        {
          "internalType": "uint256",
          "name": "",
          "type": "uint256"
        }
      ],
      "stateMutability": "view",
      "type": "function"
    },
    {
      "inputs": [
        {
          "internalType": "address",
          "name": "to",
          "type": "address"
        },
        {
          "internalType": "uint256",
          "name": "value",
          "type": "uint256"
        }
      ],
      "name": "transfer",
      "outputs": [
        {
          "internalType": "bool",
          "name": "",
          "type": "bool"
        }
      ],
      "stateMutability": "nonpayable",
      "type": "function"
    },
    {
      "inputs": [
        {
          "internalType": "address",
          "name": "from",
          "type": "address"
        },
        {
          "internalType": "address",
          "name": "to",
          "type": "address"
        },
        {
          "internalType": "uint256",
          "name": "value",
          "type": "uint256"
        }
      ],
      "name": "transferFrom",
      "outputs": [
        {
          "internalType": "bool",
          "name": "",
          "type": "bool"
        }
      ],
      "stateMutability": "nonpayable",
      "type": "function"
    },
    {
      "inputs": [
        {
          "internalType": "address",
          "name": "newOwner",
          "type": "address"
        }
      ],
      "name": "transferOwnership",
      "outputs": [],
      "stateMutability": "nonpayable",
      "type": "function"
    },
    {
      "inputs": [],
      "name": "transfersPaused",
      "outputs": [
        {
          "internalType": "bool",
          "name": "",
          "type": "bool"
        }
      ],
      "stateMutability": "view",
      "type": "function"
    },
    {
      "inputs": [],
      "name": "treasury",
      "outputs": [
        {
          "internalType": "address",
          "name": "",
          "type": "address"
        }
      ],
      "stateMutability": "view",
      "type": "function"
    },
    {
      "inputs": [
        {
          "internalType": "uint256",
          "name": "proposalId",
          "type": "uint256"
        },
        {
          "internalType": "uint256",
          "name": "amount",
          "type": "uint256"
        }
      ],
      "name": "unstakeFromConvictionProposal",
      "outputs": [],
      "stateMutability": "nonpayable",
      "type": "function"
    },
    {
      "inputs": [
        {
          "internalType": "address",
          "name": "newImplementation",
          "type": "address"
        },
        {
          "internalType": "bytes",
          "name": "data",
          "type": "bytes"
        }
      ],
      "name": "upgradeToAndCall",
      "outputs": [],
      "stateMutability": "payable",
      "type": "function"
    },
    {
      "inputs": [
        {
          "internalType": "uint256",
          "name": "",
          "type": "uint256"
        }
      ],
      "name": "vestees",
      "outputs": [
        {
          "internalType": "address",
          "name": "",
          "type": "address"
        }
      ],
      "stateMutability": "view",
      "type": "function"
    },
    {
      "inputs": [
        {
          "internalType": "address",
          "name": "",
          "type": "address"
        }
      ],
      "name": "vestingSchedules",
      "outputs": [
        {
          "internalType": "address",
          "name": "beneficiary",
          "type": "address"
        },
        {
          "internalType": "uint256",
          "name": "totalAmount",
          "type": "uint256"
        },
        {
          "internalType": "uint256",
          "name": "releasedAmount",
          "type": "uint256"
        },
        {
          "internalType": "uint256",
          "name": "startTime",
          "type": "uint256"
        },
        {
          "internalType": "uint256",
          "name": "duration",
          "type": "uint256"
        },
        {
          "internalType": "uint256",
          "name": "cliffDuration",
          "type": "uint256"
        },
        {
          "internalType": "bool",
          "name": "revocable",
          "type": "bool"
        }
      ],
      "stateMutability": "view",
      "type": "function"
    },
    {
      "inputs": [],
      "name": "votingPeriod",
      "outputs": [
        {
          "internalType": "uint256",
          "name": "",
          "type": "uint256"
        }
      ],
      "stateMutability": "view",
      "type": "function"
    }
  ],
  "bytecode": "0x60a08060405234605f573060805269152d02c7e14af680000060025569d3c21bcecceda100000060035562093a806004556202a3006005556002600b5562278d00600c55615af9908161006582396080518181816118790152611a220152f35b600080fdfe6080604052600436101561001257600080fd5b60003560e01c806302a251a314610509578063062888851461043c578063064ac3f11461050457806306fdde03146104ff578063089ce7de146104fa578063095ea7b3146104f55780630ea2d0a7146104f05780630f19734f146104eb57806311acc1a7146104e6578063169df0641461040057806318160ddd146104e657806323682cad146104e157806323b872dd146104dc5780632aaa37ec146104195780632afd1a7d146104d75780632ff2e9dc146104d2578063313ce567146104cd57806332cb6b0c146104c8578063359803cd146104c357806339428bc9146104be5780633a46b1a8146104b95780633b0da260146104b45780633b45f844146104af5780633ecc6a43146104aa57806340c10f19146104a557806342966c68146104a057806342b4632e1461049b5780634563f30a146104965780634bf5d7e9146104915780634f1ef2861461048c57806352d1902d14610487578063544d85641461048257806354a91dad1461047d57806354dd1da414610478578063587cde1e146104735780635ae157981461046e5780635c19a95c1461046957806361d027b3146104645780636fcfff451461045f57806370a082311461045a578063715018a61461045557806378d875ea1461045057806379cc67901461044b5780637b7a91dd146103dd5780637ecebe001461044657806384b0196e146104415780638b2579891461043c5780638da5cb5b146104375780638e539e8c146104325780639003adfe1461042d57806391ddadf41461042857806395d89b4114610423578063960196e61461041e578063993eb1c5146104195780639ab24eb0146104145780639f8290631461040f578063a579df6f1461040a578063a8bc206414610405578063a8d52da314610400578063a9059cbb146103fb578063ad3cb1cc146103f6578063b17acdcd146103f1578063b58131b0146103ec578063b6c9aa44146103e7578063bb4d4436146103e2578063c26c12eb146103dd578063c3cda520146103d8578063c4d66de8146103d3578063dd62ed3e146103ce578063de6c8710146103c9578063e17439b2146103c4578063e1a283d6146103bf578063f0f44260146103ba578063f1127ed8146103b5578063f11aafe1146103b0578063f2fde38b146103ab578063f34aec97146103a6578063f9428f38146103a1578063fd99cbed146103a1578063fdb20ccb1461039c5763fdc930eb1461039757600080fd5b61323e565b6131ad565b613187565b61310c565b61308d565b61301f565b612f42565b612f02565b612edc565b612ddd565b612cc9565b612c5e565b612a46565b6128cf565b612041565b6128b1565b612857565b61280b565b61274e565b6126ef565b6126be565b610c7a565b612632565b6125d1565b612541565b61250a565b61115b565b6124ec565b612406565b6123e3565b6123c5565b612279565b612233565b61052c565b61215b565b61205f565b611fdc565b611ed2565b611d45565b611cee565b611c64565b611c3d565b611c1b565b611bfd565b611b9b565b611ac7565b611a97565b611a72565b611a07565b61183a565b6117db565b6117b5565b611785565b611739565b611634565b610509565b611508565b6113d2565b6112be565b6112a0565b611233565b61120c565b6111f0565b6111ca565b611181565b611082565b61100c565b610c3d565b610b78565b610a15565b6108f1565b610868565b61074d565b61054a565b34610527576000366003190112610527576020600454604051908152f35b600080fd5b34610527576000366003190112610527576020600554604051908152f35b3461052757604036600319011261052757600435602435907fb92a92a9eef5637bf6082f4b473804de580725d3dfd4a66f0a012be79733bbb76106a661059a836000526007602052604060002090565b6105aa600682015442101561332a565b6105ba6007820154421115613375565b6105e0600a8201546105d36105cf8260ff1690565b1590565b90816106e3575b506133c0565b336000908152600b820160205260409020600990916002830192610605845460ff1690565b801580156106d8575b6106179061340b565b61062b61062333613e32565b8a1115613456565b6106ab575b6106686106516106476106428b6134d3565b614308565b633b9aca00900490565b94898355856001840155600160ff19825416179055565b6003429101556008810161067d848254613538565b90550161068b868254613538565b90556040805195865260208601919091523394918291820190565b0390a3005b60018101546106bf600884019182546134c6565b905580546106d18484019182546134c6565b9055610630565b50815489141561060e565b6106f2915060081c60ff161590565b386105da565b919082519283825260005b848110610724575050826000602080949584010152601f8019910116010190565b80602080928401015182828601015201610703565b90602061074a9281815201906106f8565b90565b346105275760003660031901126105275760405160007f52c63247e1f47db19d5ce0460030c497f067ca4cebf71ba98eeadabe20bace035461078e81610cb4565b808452906001811690811561084457506001146107c6575b6107c2836107b681850382610d25565b60405191829182610739565b0390f35b7f52c63247e1f47db19d5ce0460030c497f067ca4cebf71ba98eeadabe20bace0360009081527f2ae08a8e29253f69ac5d979a101956ab8f8d9d7ded63fa7a83b16fc47648eab0939250905b80821061082a575090915081016020016107b66107a6565b919260018160209254838588010152019101909291610812565b60ff191660208086019190915291151560051b840190910191506107b690506107a6565b346105275760803660031901126105275760643560443560243560043561088d614473565b600255600355600455600555005b600435906001600160a01b038216820361052757565b602435906001600160a01b038216820361052757565b604435906001600160a01b038216820361052757565b35906001600160a01b038216820361052757565b346105275760403660031901126105275761090a61089b565b60243533156109e6576001600160a01b0382169182156109b75761097d8291610965336001600160a01b03166000527f52c63247e1f47db19d5ce0460030c497f067ca4cebf71ba98eeadabe20bace01602052604060002090565b906001600160a01b0316600052602052604060002090565b5560405190815233907f8c5be1e5ebec7d5bd14f71427d1e84f3dd0314c0f7b2291e5b200ac8c7c3b92590602090a3602060405160018152f35b7f94280d6200000000000000000000000000000000000000000000000000000000600052600060045260246000fd5b7fe602df0500000000000000000000000000000000000000000000000000000000600052600060045260246000fd5b3461052757602036600319011261052757600435610a3d816000526007602052604060002090565b90610a4d60078301544211613545565b610a92600a8301610a738154610a666105cf8260ff1690565b9081610b45575b50613590565b610a8560088501546003541115613601565b805460ff19166001179055565b6000600383016005600485019401915b8154811015610b1d5780610b17600080610ad4610ac160019688612829565b90546001600160a01b039160031b1c1690565b610b05610aee610ae4878d612829565b90549060031b1c90565b610af8878b612829565b506040519283809261364c565b03925af1610b116136ba565b506136ea565b01610aa2565b837f045bc9e01ba5ff98b1c6caf95048a2e9407e4c54953f669bbaefb2b9c5979042600080a2005b610b54915060081c60ff161590565b38610a6d565b60843590811515820361052757565b60043590811515820361052757565b346105275760a036600319011261052757610b9161089b565b602435606435604435610ba2610b5a565b92610bab614473565b80610be8306001600160a01b03166000527f52c63247e1f47db19d5ce0460030c497f067ca4cebf71ba98eeadabe20bace00602052604060002090565b5410610bf957610bf794614857565b005b606460405162461bcd60e51b815260206004820152601d60248201527f496e73756666696369656e7420636f6e74726163742062616c616e63650000006044820152fd5b346105275760003660031901126105275760207f52c63247e1f47db19d5ce0460030c497f067ca4cebf71ba98eeadabe20bace0254604051908152f35b34610527576020366003190112610527576001600160a01b03610c9b61089b565b1660005260066020526020604060002054604051908152f35b90600182811c92168015610ce4575b6020831014610cce57565b634e487b7160e01b600052602260045260246000fd5b91607f1691610cc3565b634e487b7160e01b600052604160045260246000fd5b6040810190811067ffffffffffffffff821117610d2057604052565b610cee565b90601f8019910116810190811067ffffffffffffffff821117610d2057604052565b604051906000827fa16a46d94261c7517cc8ff89f61c0ce93598e3c849801011dee649a6a557d1025491610d7a83610cb4565b8083529260018116908115610e1f5750600114610da0575b610d9e92500383610d25565b565b507fa16a46d94261c7517cc8ff89f61c0ce93598e3c849801011dee649a6a557d102600090815290917f42ad5d3e1f2e6e70edcf6d991b8a3023d3fca8047a131592f9edb9fd9b89d57d5b818310610e03575050906020610d9e92820101610d92565b6020919350806001915483858901015201910190918492610deb565b60209250610d9e94915060ff191682840152151560051b820101610d92565b604051906000827fa16a46d94261c7517cc8ff89f61c0ce93598e3c849801011dee649a6a557d1035491610e7183610cb4565b8083529260018116908115610e1f5750600114610e9457610d9e92500383610d25565b507fa16a46d94261c7517cc8ff89f61c0ce93598e3c849801011dee649a6a557d103600090815290917f5f9ce34815f8e11431c7bb75a8e6886a91478f7ffc1dbb0a98dc240fddd76b755b818310610ef7575050906020610d9e92820101610d92565b6020919350806001915483858901015201910190918492610edf565b9060405191826000825492610f2784610cb4565b8084529360018116908115610f935750600114610f4c575b50610d9e92500383610d25565b90506000929192526020600020906000915b818310610f77575050906020610d9e9282010138610f3f565b6020919350806001915483858901015201910190918492610f5e565b905060209250610d9e94915060ff191682840152151560051b82010138610f3f565b979491926001600160a01b0361010098959b9a9794610fe9938b521660208a015261012060408a01526101208901906106f8565b986060880152608087015260a086015260c0850152151560e08401521515910152565b3461052757602036600319011261052757600435600052600760205260406000208054906107c26001600160a01b036001830154169161104e60028201610f13565b936006820154916007810154600882015490600a60098401549301549460405198899860ff808960081c169816968a610fb5565b346105275760603660031901126105275761109b61089b565b6110a36108b1565b604435906110e733610965856001600160a01b03166000527f52c63247e1f47db19d5ce0460030c497f067ca4cebf71ba98eeadabe20bace01602052604060002090565b54926000198410611109575b6110fd9350614923565b60405160018152602090f35b82841061112557611120836110fd95033383614ddb565b6110f3565b82847ffb8f41b2000000000000000000000000000000000000000000000000000000006000523360045260245260445260646000fd5b346105275760003660031901126105275760206040516a18d0bf423c03d8de0000008152f35b34610527576020366003190112610527576001600160a01b036111a261089b565b16600052600060205260206111c26111bd6040600020613735565b614a37565b604051908152f35b346105275760003660031901126105275760206040516a52b7d2dcc80cd2e40000008152f35b3461052757600036600319011261052757602060405160128152f35b346105275760003660031901126105275760206040516b033b2e3c9fd0803ce80000008152f35b346105275760203660031901126105275761124c610b69565b611254614473565b7fffffffffffffffffffffff00ffffffffffffffffffffffffffffffffffffffff74ff0000000000000000000000000000000000000000600e5492151560a01b16911617600e55600080f35b34610527576000366003190112610527576020600b54604051908152f35b34610527576040366003190112610527576112d761089b565b61131f611319602435926001600160a01b03166000527fe8b26c30fad74198956032a3533d903385d56dd795af560196f9c78d4af40d01602052604060002090565b91614aa9565b90600090805482938160058111611373575b50906020946113409284614e91565b806113595750505b6001600160d01b0360405191168152f35b611362906134b7565b90825290829020015460301c611348565b9461137d86614308565b86039586116113cd576020956113409385875265ffffffffffff8289892001541665ffffffffffff8516106000146113bb5750915b91925094611331565b9291506113c79061352a565b906113b2565b6134a1565b34610527576020366003190112610527576001600160a01b036113f361089b565b6113fb614473565b166000526000602052604060002060ff6006820154161561144557806001610bf79201906114306002835492015480926134c6565b9155600e546001600160a01b03165b30614923565b606460405162461bcd60e51b815260206004820152601560248201527f56657374696e67206e6f74207265766f6361626c6500000000000000000000006044820152fd5b60405190610d9e60e083610d25565b60405190610d9e604083610d25565b67ffffffffffffffff8111610d2057601f01601f191660200190565b81601f82011215610527576020813591016114dd826114a7565b926114eb6040519485610d25565b828452828201116105275781600092602092838601378301015290565b346105275760603660031901126105275760043567ffffffffffffffff81116105275761153c6107c29136906004016114c3565b602435906115486108c7565b61155e61155433613e32565b6002541115613456565b7f2e7cf6d68955cd87967a660485cbe2b64717b0b29ee689e792cff1499ab3cf5361162161158d600a546137bf565b94859384600a558460005260096020526115fe6040600020918683556115cc3360018501906001600160a01b03166001600160a01b0319825416179055565b6115d98860028501613a07565b83600384015560048301906001600160a01b03166001600160a01b0319825416179055565b60078101805460ff19166001179055600642910155604051918291339683613acd565b0390a36040519081529081906020820190565b346105275760403660031901126105275761164d61089b565b60243590611659614473565b60ff600e5460a01c166116f5576001600160a01b037f3f2c9d57c068687834f0de942a9babb9e5acab57d516d3480a3c16ee165a4273916116d86b033b2e3c9fd0803ce80000006116d1866116cc7f52c63247e1f47db19d5ce0460030c497f067ca4cebf71ba98eeadabe20bace025490565b613538565b1115613ae9565b6116e28482614b41565b604051938452169180602081015b0390a2005b606460405162461bcd60e51b815260206004820152600e60248201527f4d696e74696e67207061757365640000000000000000000000000000000000006044820152fd5b34610527576020366003190112610527576004356117578133614b5a565b6040519081527ffd38818f5291bf0bb3a2a48aadc06ba8757865d1dabd804585338aab3009dcb660203392a2005b346105275760203660031901126105275760206117a86117a361089b565b613e7d565b6002541115604051908152f35b3461052757600036600319011261052757602060ff600e5460a81c166040519015158152f35b34610527576000366003190112610527576107c260408051906117fe8183610d25565b600e82527f6d6f64653d74696d657374616d700000000000000000000000000000000000006020830152519182916020835260208301906106f8565b60403660031901126105275761184e61089b565b60243567ffffffffffffffff81116105275761186e9036906004016114c3565b906001600160a01b037f0000000000000000000000000000000000000000000000000000000000000000168030149081156119d2575b506119a8576118b1614473565b604051917f52d1902d0000000000000000000000000000000000000000000000000000000083526020836004816001600160a01b0386165afa60009381611977575b5061191657634c9c8ce360e01b6000526001600160a01b03821660045260246000fd5b907f360894a13ba1a3210667c828492db98dca3e2076cc3735a920a3ca505d382bbc830361194857610bf79250614ef8565b7faa1d49a400000000000000000000000000000000000000000000000000000000600052600483905260246000fd5b61199a91945060203d6020116119a1575b6119928183610d25565b810190614bbe565b92386118f3565b503d611988565b7fe07c8dba0000000000000000000000000000000000000000000000000000000060005260046000fd5b90506001600160a01b037f360894a13ba1a3210667c828492db98dca3e2076cc3735a920a3ca505d382bbc54161415386118a4565b34610527576000366003190112610527576001600160a01b037f00000000000000000000000000000000000000000000000000000000000000001630036119a85760206040517f360894a13ba1a3210667c828492db98dca3e2076cc3735a920a3ca505d382bbc8152f35b3461052757602036600319011261052757611a8b61089b565b50602060405160008152f35b3461052757602036600319011261052757600435600d54908082018092116113cd57610bf791600d553033614923565b34610527576000366003190112610527573360005260006020526040600020600181015415611b57576002611afe6111bd83613735565b91611b0a831515613b34565b01611b16828254613538565b9055611b23813330614923565b60405190815233907fc7798891864187665ac6dd119286e44ec13f014527aeeb2b8eb3fd413df931799080602081016116f0565b606460405162461bcd60e51b815260206004820152601360248201527f4e6f2076657374696e67207363686564756c65000000000000000000000000006044820152fd5b34610527576020366003190112610527576001600160a01b03611bbc61089b565b166000527fe8b26c30fad74198956032a3533d903385d56dd795af560196f9c78d4af40d0060205260206001600160a01b0360406000205416604051908152f35b34610527576000366003190112610527576020600854604051908152f35b3461052757602036600319011261052757610bf7611c3761089b565b33614bcd565b346105275760003660031901126105275760206001600160a01b03600e5416604051908152f35b3461052757602036600319011261052757611cb8611c8061089b565b6001600160a01b03166000527fe8b26c30fad74198956032a3533d903385d56dd795af560196f9c78d4af40d01602052604060002090565b5463ffffffff8111611cd55760209063ffffffff60405191168152f35b6306dfcc6560e41b600052602060045260245260446000fd5b346105275760203660031901126105275760206111c2611d0c61089b565b6001600160a01b03166000527f52c63247e1f47db19d5ce0460030c497f067ca4cebf71ba98eeadabe20bace0060205260406000205490565b3461052757600036600319011261052757611d5e614473565b60006001600160a01b037f9016d09d72d40fdae2fd8ceac6b6234c7706214fd39c1cd1e609a0528c199300546001600160a01b031981167f9016d09d72d40fdae2fd8ceac6b6234c7706214fd39c1cd1e609a0528c19930055167f8be0079c531659141344cd1fd0a4f28419497f9722a3daafe3b4186f6b6457e08280a3005b67ffffffffffffffff8111610d205760051b60200190565b9080601f83011215610527578135611e0d81611dde565b92611e1b6040519485610d25565b81845260208085019260051b82010192831161052757602001905b828210611e435750505090565b8135815260209182019101611e36565b9080601f83011215610527578135611e6a81611dde565b92611e786040519485610d25565b81845260208085019260051b820101918383116105275760208201905b838210611ea457505050505090565b813567ffffffffffffffff811161052757602091611ec7878480948801016114c3565b815201910190611e95565b346105275760803660031901126105275760043567ffffffffffffffff811161052757611f039036906004016114c3565b6024359067ffffffffffffffff8211610527573660238301121561052757816004013591611f3083611dde565b92611f3e6040519485610d25565b8084526024602085019160051b8301019136831161052757602401905b828210611fc45750505060443567ffffffffffffffff811161052757611f85903690600401611df6565b906064359167ffffffffffffffff8311610527576107c293611fae611fb4943690600401611e53565b92613d45565b6040519081529081906020820190565b60208091611fd1846108dd565b815201910190611f5b565b3461052757604036600319011261052757611ff561089b565b7ffd38818f5291bf0bb3a2a48aadc06ba8757865d1dabd804585338aab3009dcb660206001600160a01b036024359361202c614473565b6120368582614b5a565b6040519485521692a2005b34610527576000366003190112610527576020600354604051908152f35b34610527576020366003190112610527576001600160a01b0361208061089b565b166000527f5ab42ced628888259c08ac98db1eb0cf702fc1501344311d8b100cd1bfe4bb006020526020604060002054604051908152f35b9293906001600160a01b03926120ff61210d927f0f00000000000000000000000000000000000000000000000000000000000000875260e0602088015260e08701906106f8565b9085820360408701526106f8565b936060840152166080820152600060a082015260c08183039101526020808351928381520192019060005b8181106121455750505090565b8251845260209384019390920191600101612138565b34610527576000366003190112610527577fa16a46d94261c7517cc8ff89f61c0ce93598e3c849801011dee649a6a557d10054158061220a575b156121c6576121a2610d47565b6121aa610e3e565b906107c26121b6613e16565b60405193849330914691866120b8565b606460405162461bcd60e51b815260206004820152601560248201527f4549503731323a20556e696e697469616c697a656400000000000000000000006044820152fd5b507fa16a46d94261c7517cc8ff89f61c0ce93598e3c849801011dee649a6a557d1015415612195565b346105275760003660031901126105275760206001600160a01b037f9016d09d72d40fdae2fd8ceac6b6234c7706214fd39c1cd1e609a0528c1993005416604051908152f35b3461052757602036600319011261052757612295600435614aa9565b60007fe8b26c30fad74198956032a3533d903385d56dd795af560196f9c78d4af40d02548192816005811161234b575b50906020936122f4927fe8b26c30fad74198956032a3533d903385d56dd795af560196f9c78d4af40d02614e91565b8061230b57506001600160d01b0360405191168152f35b9082612319612346936134b7565b917fe8b26c30fad74198956032a3533d903385d56dd795af560196f9c78d4af40d02815220015460301c90565b611348565b9361235585614308565b85039485116113cd576020946122f4937fe8b26c30fad74198956032a3533d903385d56dd795af560196f9c78d4af40d02865265ffffffffffff8288882001541665ffffffffffff8516106000146123b35750915b919250936122c5565b9291506123bf9061352a565b906123aa565b34610527576000366003190112610527576020600d54604051908152f35b3461052757600036600319011261052757602060405165ffffffffffff42168152f35b346105275760003660031901126105275760405160007f52c63247e1f47db19d5ce0460030c497f067ca4cebf71ba98eeadabe20bace045461244781610cb4565b8084529060018116908115610844575060011461246e576107c2836107b681850382610d25565b7f52c63247e1f47db19d5ce0460030c497f067ca4cebf71ba98eeadabe20bace0460009081527f46a2803e59a4de4e7a4c574b1243f25977ac4c77d5a1a4a609b5394cebb4a2aa939250905b8082106124d2575090915081016020016107b66107a6565b9192600181602092548385880101520191019092916124ba565b34610527576000366003190112610527576020600a54604051908152f35b346105275760203660031901126105275760206001600160d01b03612538612533611c8061089b565b614c94565b16604051908152f35b34610527576020366003190112610527576001600160a01b0361256261089b565b1660005260006020526125786040600020613735565b60208101516107c2604083015192606081015190608081015160c060a08301519201511515926040519687968794919260a0949197969360c0870198875260208701526040860152606085015260808401521515910152565b34610527576000366003190112610527576020600c54604051908152f35b602060408183019282815284518094520192019060005b8181106126135750505090565b82516001600160a01b0316845260209384019390920191600101612606565b346105275760003660031901126105275760405180602060015491828152019060016000527fb10e2d527612073b26eecdfd717e6a320cf44b4afac2b0732d9fcbe2b7fa0cf69060005b81811061269f576107c28561269381870382610d25565b604051918291826125ef565b82546001600160a01b031684526020909301926001928301920161267c565b34610527576040366003190112610527576126e46126da61089b565b6024359033614923565b602060405160018152f35b34610527576000366003190112610527576107c260408051906127128183610d25565b600582527f352e302e300000000000000000000000000000000000000000000000000000006020830152519182916020835260208301906106f8565b346105275760203660031901126105275760043561276a614473565b600d548181106127c7578181039081116113cd577f53102d4fc7940339ae4d571f52aa1f074833924631529a5d75532cc7c5c3a6b8916127ac6127c292600d55565b611fb48161143f600e546001600160a01b031690565b0390a1005b606460405162461bcd60e51b815260206004820152601b60248201527f496e73756666696369656e7420636f6c6c6563746564206665657300000000006044820152fd5b34610527576000366003190112610527576020600254604051908152f35b80548210156128415760005260206000200190600090565b634e487b7160e01b600052603260045260246000fd5b3461052757602036600319011261052757600435600154811015610527576001600160a01b0360209160016000527fb10e2d527612073b26eecdfd717e6a320cf44b4afac2b0732d9fcbe2b7fa0cf6015416604051908152f35b346105275760203660031901126105275760206111c26117a361089b565b346105275760c0366003190112610527576128e861089b565b6044359060243560643560ff811681036105275760843560a43591854211612a185791612a0c91612a13936042610bf79860405160208101917fe48329057bfd03d55e49b547132e39cffd9c1820ad7b9d4c5307691425d15adf83526001600160a01b038b16604083015289606083015260808201526080815261296d60a082610d25565b5190206129786158c1565b61298061592b565b6040519060208201927f8b73c3c69bb8fe3d512ecc4cf759cc79239f7b179b0ffacaa9a75d522b39400f8452604083015260608201524660808201523060a082015260a081526129d160c082610d25565b51902090604051917f190100000000000000000000000000000000000000000000000000000000000083526002830152602282015220614cc3565b9182614cdb565b614bcd565b857f4683af0e0000000000000000000000000000000000000000000000000000000060005260045260246000fd5b3461052757602036600319011261052757612a5f61089b565b7ff0c57e16840df040f15088dc2f81fe391c3923bec73e23a9662efc9c229c6a00549067ffffffffffffffff612aa560ff604085901c16159367ffffffffffffffff1690565b1680159081612c56575b6001149081612c4c575b159081612c43575b50612c1957612b2b9082612b22600167ffffffffffffffff197ff0c57e16840df040f15088dc2f81fe391c3923bec73e23a9662efc9c229c6a005416177ff0c57e16840df040f15088dc2f81fe391c3923bec73e23a9662efc9c229c6a0055565b612bb957613ecf565b612b3157005b612b8668ff0000000000000000197ff0c57e16840df040f15088dc2f81fe391c3923bec73e23a9662efc9c229c6a0054167ff0c57e16840df040f15088dc2f81fe391c3923bec73e23a9662efc9c229c6a0055565b604051600181527fc7f505b2f371ae2175ee4913f4499e1f2633a7b5936321eed1cdaeb6115181d29080602081016127c2565b612c14600160401b68ff0000000000000000197ff0c57e16840df040f15088dc2f81fe391c3923bec73e23a9662efc9c229c6a005416177ff0c57e16840df040f15088dc2f81fe391c3923bec73e23a9662efc9c229c6a0055565b613ecf565b7ff92ee8a90000000000000000000000000000000000000000000000000000000060005260046000fd5b90501538612ac1565b303b159150612ab9565b839150612aaf565b34610527576040366003190112610527576020612cc0612c7c61089b565b610965612c876108b1565b916001600160a01b03166000527f52c63247e1f47db19d5ce0460030c497f067ca4cebf71ba98eeadabe20bace01602052604060002090565b54604051908152f35b3461052757604036600319011261052757600435602435908060005260096020526040600020600881019083612d123384906001600160a01b0316600052602052604060002090565b5410612d9957612d36600992336001600160a01b0316600052602052604060002090565b612d418582546134c6565b905501612d4f8382546134c6565b9055612d5c823330614923565b612d6581614d69565b60405191825233917fbe7893140b643ca3b8bf0abac917216f7f832f3bd94066627dd0bb2be317d8d49080602081016106a6565b606460405162461bcd60e51b815260206004820152601a60248201527f496e73756666696369656e74207374616b656420616d6f756e740000000000006044820152fd5b34610527576040366003190112610527576004356024359080600052600960205260096040600020612e1560ff6007830154166133c0565b612e2084151561414f565b612e6884612e60336001600160a01b03166000527f52c63247e1f47db19d5ce0460030c497f067ca4cebf71ba98eeadabe20bace00602052604060002090565b54101561419a565b612e73843033614923565b3360009081526008820160205260409020612e8f858254613538565b905501612e9d838254613538565b9055612ea881614d69565b60405191825233917fa65ee0a0dd8fafcb4be315b2627b73d6dd9312acd9bc011e90ac6e2c40bb59869080602081016106a6565b3461052757600036600319011261052757602060ff600e5460a01c166040519015158152f35b34610527576020366003190112610527576001600160a01b03612f2361089b565b612f2b614473565b166001600160a01b0319600e541617600e55600080f35b3461052757604036600319011261052757612f5b61089b565b6024359063ffffffff82168203610527576107c291612fc1612fcf92612f7f6141e5565b50612f886141e5565b506001600160a01b03166000527fe8b26c30fad74198956032a3533d903385d56dd795af560196f9c78d4af40d01602052604060002090565b612fc96141e5565b50612829565b5060405190612fdd82610d04565b5465ffffffffffff8116825260301c60208201526040519182918291909160206001600160d01b0381604084019565ffffffffffff8151168552015116910152565b3461052757602036600319011261052757613038610b69565b613040614473565b7fffffffffffffffffffff00ffffffffffffffffffffffffffffffffffffffffff75ff000000000000000000000000000000000000000000600e5492151560a81b16911617600e55600080f35b3461052757602036600319011261052757610bf76130a961089b565b6130b1614473565b6141fe565b95926130eb906001600160a01b0380946101009a979d9c9b98948a5216602089015261012060408901526101208801906106f8565b99606087015216608085015260a084015260c0830152151560e08201520152565b34610527576020366003190112610527576004356000526009602052604060002080546107c26001600160a01b036001840154169261314d60028201610f13565b9060038101546001600160a01b03600483015416600583015490600684015492600960ff60078701541695015495604051998a998a6130b6565b346105275760003660031901126105275760206040516a108b2a2c280290940000008152f35b34610527576020366003190112610527576001600160a01b036131ce61089b565b166000908152602081815260409182902080546001820154600283015460038401546004850154600586015460069096015488516001600160a01b03909616865296850193909352958301526060820194909452608081019390935260a083015260ff16151560c082015260e090f35b34610527576020366003190112610527576004358060005260096020526040600020907f841eadde730594457612d2994f9803df1752dd4ed193cb3e2d1dd0dd296386046001600160a01b03613315600460078601956132a160ff8854166133c0565b6132ea60038201976132e06132d48a546103e89004683635c9adc5dea00000808211911802683635c9adc5dea000001890565b600585015410156142bd565b805460ff19169055565b016133086132ff82546001600160a01b031690565b87549030614923565b546001600160a01b031690565b935460405190815293169280602081016106a6565b1561333157565b606460405162461bcd60e51b815260206004820152601260248201527f566f74696e67206e6f74207374617274656400000000000000000000000000006044820152fd5b1561337c57565b606460405162461bcd60e51b815260206004820152600c60248201527f566f74696e6720656e64656400000000000000000000000000000000000000006044820152fd5b156133c757565b606460405162461bcd60e51b815260206004820152601360248201527f50726f706f73616c206e6f7420616374697665000000000000000000000000006044820152fd5b1561341257565b606460405162461bcd60e51b815260206004820152601660248201527f53616d6520766f746520616c72656164792063617374000000000000000000006044820152fd5b1561345d57565b606460405162461bcd60e51b815260206004820152601960248201527f496e73756666696369656e7420766f74696e6720706f776572000000000000006044820152fd5b634e487b7160e01b600052601160045260246000fd5b6000198101919082116113cd57565b919082039182116113cd57565b90670de0b6b3a7640000820291808304670de0b6b3a764000014901517156113cd57565b818102929181159184041417156113cd57565b8115613514570490565b634e487b7160e01b600052601260045260246000fd5b90600182018092116113cd57565b919082018092116113cd57565b1561354c57565b606460405162461bcd60e51b815260206004820152601060248201527f566f74696e67206e6f7420656e646564000000000000000000000000000000006044820152fd5b1561359757565b608460405162461bcd60e51b815260206004820152602560248201527f50726f706f73616c20616c7265616479206578656375746564206f722063616e60448201527f63656c65640000000000000000000000000000000000000000000000000000006064820152fd5b1561360857565b606460405162461bcd60e51b815260206004820152601c60248201527f496e73756666696369656e742071756164726174696320766f746573000000006044820152fd5b6000929181549161365c83610cb4565b92600181169081156136a7575060011461367557505050565b909192935060005260206000206000905b8382106136935750500190565b600181602092548486015201910190613686565b60ff191683525050811515909102019150565b3d156136e5573d906136cb826114a7565b916136d96040519384610d25565b82523d6000602084013e565b606090565b156136f157565b606460405162461bcd60e51b815260206004820152601960248201527f50726f706f73616c20657865637574696f6e206661696c6564000000000000006044820152fd5b9060405160e081019080821067ffffffffffffffff831117610d2057610d9e9160405260c06137b86006839661377e6001600160a01b0382541686906001600160a01b03169052565b60018101546020860152600281015460408601526003810154606086015260048101546080860152600581015460a0860152015460ff1690565b1515910152565b60001981146113cd5760010190565b8181106137d9575050565b600081556001016137ce565b90601f82116137f2575050565b610d9e917f52c63247e1f47db19d5ce0460030c497f067ca4cebf71ba98eeadabe20bace036000526020600020906020601f840160051c8301931061383f575b601f0160051c01906137ce565b9091508190613832565b9190601f811161385857505050565b610d9e926000526020600020906020601f840160051c8301931061383f57601f0160051c01906137ce565b90815167ffffffffffffffff8111610d20576138e9816138c37f52c63247e1f47db19d5ce0460030c497f067ca4cebf71ba98eeadabe20bace0454610cb4565b7f52c63247e1f47db19d5ce0460030c497f067ca4cebf71ba98eeadabe20bace04613849565b602092601f821160011461394a5761391b9293829160009261393f575b50508160011b916000199060031b1c19161790565b7f52c63247e1f47db19d5ce0460030c497f067ca4cebf71ba98eeadabe20bace0455565b015190503880613906565b7f52c63247e1f47db19d5ce0460030c497f067ca4cebf71ba98eeadabe20bace04600052601f198216937f46a2803e59a4de4e7a4c574b1243f25977ac4c77d5a1a4a609b5394cebb4a2aa9160005b8681106139ef57508360019596106139d6575b505050811b017f52c63247e1f47db19d5ce0460030c497f067ca4cebf71ba98eeadabe20bace0455565b015160001960f88460031b161c191690553880806139ac565b91926020600181928685015181550194019201613999565b919091825167ffffffffffffffff8111610d2057613a2f81613a298454610cb4565b84613849565b6020601f8211600114613a64578190613a6093949560009261393f5750508160011b916000199060031b1c19161790565b9055565b601f19821690613a7984600052602060002090565b9160005b818110613ab557509583600195969710613a9c575b505050811b019055565b015160001960f88460031b161c19169055388080613a92565b9192602060018192868b015181550194019201613a7d565b929190613ae46020916040865260408601906106f8565b930152565b15613af057565b606460405162461bcd60e51b815260206004820152601260248201527f45786365656473206d617820737570706c7900000000000000000000000000006044820152fd5b15613b3b57565b606460405162461bcd60e51b815260206004820152601460248201527f4e6f20746f6b656e7320746f2072656c656173650000000000000000000000006044820152fd5b91818110613b8c57505050565b610d9e92600052602060002091820191016137ce565b81519167ffffffffffffffff8311610d2057600160401b8311610d2057602090613bd184845481865585613b7f565b0190600052602060002060005b838110613beb5750505050565b60019060206001600160a01b038551169401938184015501613bde565b81519167ffffffffffffffff8311610d2057600160401b8311610d2057602090613c3784845481865585613b7f565b0190600052602060002060005b838110613c515750505050565b600190602084519401938184015501613c44565b815191600160401b8311610d20578154838355808410613cc2575b506020613c94910191600052602060002090565b6000915b838310613ca55750505050565b6001602082613cb683945186613a07565b01920192019190613c98565b8260005283602060002091820191015b818110613cdf5750613c80565b80613cec60019254610cb4565b80613cf9575b5001613cd2565b601f81118314613d0f5750600081555b38613cf2565b613d339083601f613d2585600052602060002090565b920160051c820191016137ce565b60008181526020812081835555613d09565b9192613dc890613d5761155433613e32565b613d6a613d656008546137bf565b600855565b613dbf60085495613db6613d88886000526007602052604060002090565b8881556001810180546001600160a01b0319163317905595613dad8860028901613a07565b60038701613ba2565b60048501613c08565b60058301613c65565b4260068201556007613ddc60045442613538565b910155817fe1ceb9b8a106e64b857b61cc4faa2dbb34ee8c54522480a0c7bba1d49f55677d60405180613e10339582610739565b0390a390565b60405190613e25602083610d25565b6000808352366020840137565b613e796125336001600160d01b03926001600160a01b03166000527fe8b26c30fad74198956032a3533d903385d56dd795af560196f9c78d4af40d01602052604060002090565b1690565b6001600160a01b0316806000527f52c63247e1f47db19d5ce0460030c497f067ca4cebf71ba98eeadabe20bace0060205260406000205490600052600660205260406000205481018091116113cd5790565b90604091825192613ee08185610d25565b601b84527f4167726943726564697420476f7665726e616e636520546f6b656e00000000006020850152613f1681519182610d25565b600381527f41474300000000000000000000000000000000000000000000000000000000006020820152613f486152d4565b613f506152d4565b835167ffffffffffffffff8111610d2057613f9481613f8f7f52c63247e1f47db19d5ce0460030c497f067ca4cebf71ba98eeadabe20bace0354610cb4565b6137e5565b6020601f82116001146140845781613ff39392613fcc92614028979860009261393f5750508160011b916000199060031b1c19161790565b7f52c63247e1f47db19d5ce0460030c497f067ca4cebf71ba98eeadabe20bace0355613883565b613ffb6152d4565b61400433614d55565b61400c6152d4565b6001600160a01b03166001600160a01b0319600e541617600e55565b61403130614b1d565b61406a6140657f9016d09d72d40fdae2fd8ceac6b6234c7706214fd39c1cd1e609a0528c199300546001600160a01b031690565b61466d565b610d9e61407f600e546001600160a01b031690565b614779565b7f52c63247e1f47db19d5ce0460030c497f067ca4cebf71ba98eeadabe20bace03600052601f198216957f2ae08a8e29253f69ac5d979a101956ab8f8d9d7ded63fa7a83b16fc47648eab09660005b8181106141375750966001928492613ff39695614028999a1061411e575b505050811b017f52c63247e1f47db19d5ce0460030c497f067ca4cebf71ba98eeadabe20bace0355613883565b015160001960f88460031b161c191690553880806140f1565b838301518955600190980197602093840193016140d3565b1561415657565b606460405162461bcd60e51b815260206004820152601d60248201527f416d6f756e74206d7573742062652067726561746572207468616e20300000006044820152fd5b156141a157565b606460405162461bcd60e51b815260206004820152601460248201527f496e73756666696369656e742062616c616e63650000000000000000000000006044820152fd5b604051906141f282610d04565b60006020838281520152565b6001600160a01b0316801561428e576001600160a01b037f9016d09d72d40fdae2fd8ceac6b6234c7706214fd39c1cd1e609a0528c19930054826001600160a01b03198216177f9016d09d72d40fdae2fd8ceac6b6234c7706214fd39c1cd1e609a0528c19930055167f8be0079c531659141344cd1fd0a4f28419497f9722a3daafe3b4186f6b6457e0600080a3565b7f1e4fbdf700000000000000000000000000000000000000000000000000000000600052600060045260246000fd5b156142c457565b606460405162461bcd60e51b815260206004820152601c60248201527f436f6e76696374696f6e207468726573686f6c64206e6f74206d6574000000006044820152fd5b600181111561074a57806001700100000000000000000000000000000000831015614436575b6143dc6143d26143c86143be6143b46143aa6143996143e39760048a600160401b6143e89c1015614429575b64010000000081101561441c575b6201000081101561440f575b610100811015614402575b60108110156143f5575b10156143ed575b60030260011c90565b6143a3818b61350a565b0160011c90565b6143a3818a61350a565b6143a3818961350a565b6143a3818861350a565b6143a3818761350a565b6143a3818661350a565b809361350a565b821190565b900390565b60011b614390565b60041c9160021b91614389565b60081c9160041b9161437f565b60101c9160081b91614374565b60201c9160101b91614368565b60401c9160201b9161435a565b50506143e86143e36143dc6143d26143c86143be6143b46143aa61439961445d8a60801c90565b9850600160401b975061432e9650505050505050565b6001600160a01b037f9016d09d72d40fdae2fd8ceac6b6234c7706214fd39c1cd1e609a0528c199300541633036144a657565b7f118cdaa7000000000000000000000000000000000000000000000000000000006000523360045260246000fd5b156144db57565b606460405162461bcd60e51b815260206004820152601360248201527f496e76616c69642062656e6566696369617279000000000000000000000000006044820152fd5b1561452657565b606460405162461bcd60e51b815260206004820152600e60248201527f496e76616c696420616d6f756e740000000000000000000000000000000000006044820152fd5b1561457157565b606460405162461bcd60e51b815260206004820152601660248201527f56657374696e6720616c726561647920657869737473000000000000000000006044820152fd5b9060c06006916145e56001600160a01b0382511685906001600160a01b03166001600160a01b0319825416179055565b6020810151600185015560408101516002850155606081015160038501556080810151600485015560a081015160058501550151151591019060ff801983541691151516179055565b600154600160401b811015610d205780600161464f92016001556001612829565b6001600160a01b0380839493549260031b9316831b921b1916179055565b6147316001600160a01b038216916146868315156144d4565b614690600161451f565b6146ba60016146b2836001600160a01b03166000526000602052604060002090565b01541561456a565b61472c6146c5611489565b6001600160a01b03831681526a108b2a2c280290940000006020820152600060408201524260608201526303c26700608082015262ed4e0060a0820152600160c08201525b614727836001600160a01b03166000526000602052604060002090565b6145b5565b61462e565b604080516a108b2a2c2802909400000081526303c2670060208201527f402b9fa52520ce724d8e25ad1521f70484bd3c833f98ed26451d7c966682020391819081015b0390a2565b6148106001600160a01b038216916147928315156144d4565b61479c600161451f565b6147be60016146b2836001600160a01b03166000526000602052604060002090565b61472c6147c9611489565b6001600160a01b03831681526a18d0bf423c03d8de00000060208201526000604082018190524260608301526301e13380608083015260a0820181905260c082015261470a565b604080516a18d0bf423c03d8de00000081526301e1338060208201527f402b9fa52520ce724d8e25ad1521f70484bd3c833f98ed26451d7c96668202039181908101614774565b61490a9061472c7f402b9fa52520ce724d8e25ad1521f70484bd3c833f98ed26451d7c96668202039561470a6001600160a01b038416986148998a15156144d4565b6148a487151561451f565b6148c660016146b2876001600160a01b03166000526000602052604060002090565b604051926148d560e085610d25565b6001600160a01b03861684528760208501526000604085015242606085015288608085015260a084015260c083019015159052565b6040805191825260208201929092529081908101614774565b91906001600160a01b03831615614a08576001600160a01b038116156149d95760ff600e5460a81c161580156149a6575b1561496257610d9e9261532d565b606460405162461bcd60e51b815260206004820152601060248201527f5472616e736665727320706175736564000000000000000000000000000000006044820152fd5b506001600160a01b037f9016d09d72d40fdae2fd8ceac6b6234c7706214fd39c1cd1e609a0528c19930054163314614954565b7fec442f0500000000000000000000000000000000000000000000000000000000600052600060045260246000fd5b7f96c6fd1e00000000000000000000000000000000000000000000000000000000600052600060045260246000fd5b60608101805160a083015181018091116113cd574210614aa257514203904282116113cd5760808101805161074a93908110614a8057505060406020820151915b0151906134c6565b604091614a94614a9c9260208601516134f7565b90519061350a565b91614a78565b5050600090565b65ffffffffffff421680821015614aec575065ffffffffffff8111614ad35765ffffffffffff1690565b6306dfcc6560e41b600052603060045260245260446000fd5b907fecd3f81e0000000000000000000000000000000000000000000000000000000060005260045260245260446000fd5b6001600160a01b038116156149d9576a52b7d2dcc80cd2e4000000610d9e91614e3c565b906001600160a01b038216156149d957610d9e91614e3c565b906001600160a01b03821615614a085760ff600e5460a81c16158015614b8b575b15614962576000610d9e9261532d565b506001600160a01b037f9016d09d72d40fdae2fd8ceac6b6234c7706214fd39c1cd1e609a0528c19930054163314614b7b565b90816020910312610527575190565b6001600160a01b0381811660008181527fe8b26c30fad74198956032a3533d903385d56dd795af560196f9c78d4af40d006020526040902080546001600160a01b0319811684871617909155610d9e94921692614c8e91846001600160a01b038516917f3134e8a2e6d97e929a7e54011ea5485d7d196dd5f0ba4d4ef95803e8e3fc257f600080a46001600160a01b03166000527f52c63247e1f47db19d5ce0460030c497f067ca4cebf71ba98eeadabe20bace0060205260406000205490565b91614fe3565b80549081614ca3575050600090565b816000198101116113cd5760005260001990602060002001015460301c90565b9161074a9391614cd293615152565b90929192615207565b6001600160a01b0316806000527f5ab42ced628888259c08ac98db1eb0cf702fc1501344311d8b100cd1bfe4bb006020526040600020805492839160018301905503614d25575050565b7f752d88c00000000000000000000000000000000000000000000000000000000060005260045260245260446000fd5b610d9e90614d616152d4565b6130b16152d4565b6000526009602052604060002060068101908154804203904282116113cd574214614dd657610642614d9e91600b54906134f7565b614dbb6005614db06009850154614308565b9301928354926134f7565b81018091116113cd57670de0b6b3a764000090049055429055565b505050565b906001600160a01b038216156109e6576001600160a01b038116156109b757610965614e39926001600160a01b03166000527f52c63247e1f47db19d5ce0460030c497f067ca4cebf71ba98eeadabe20bace01602052604060002090565b55565b9060ff600e5460a81c16158015614e5e575b1561496257610d9e91600061532d565b506001600160a01b037f9016d09d72d40fdae2fd8ceac6b6234c7706214fd39c1cd1e609a0528c19930054163314614e4e565b91905b838210614ea15750505090565b9091928083169080841860011c82018092116113cd578460005265ffffffffffff82602060002001541665ffffffffffff841610600014614ee65750925b9190614e94565b939250614ef29061352a565b91614edf565b90813b15614fc5576001600160a01b038216806001600160a01b03197f360894a13ba1a3210667c828492db98dca3e2076cc3735a920a3ca505d382bbc5416177f360894a13ba1a3210667c828492db98dca3e2076cc3735a920a3ca505d382bbc557fbc7cd75a20ee27fd9adebab32041f755214dbc6bffa90cc0225b39da2e5c2d3b600080a2805115614f9257614f8f916155a6565b50565b505034614f9b57565b7fb398979f0000000000000000000000000000000000000000000000000000000060005260046000fd5b6001600160a01b0382634c9c8ce360e01b6000521660045260246000fd5b91906001600160a01b038116926001600160a01b038116908482141580615149575b615011575b5050505050565b816150c5575b505082615026575b808061500a565b6150ba6150a17fdec2bacdd2f05b59de34da9b523dff8be42e5e38e818c82fdb0bae774387a7249361509b6150956001600160d01b03956001600160a01b03166000527fe8b26c30fad74198956032a3533d903385d56dd795af560196f9c78d4af40d01602052604060002090565b916155c4565b90615634565b6040805192851683529316602082015291829190820190565b0390a238808061501f565b6001600160d01b0361513f6150a16151307fdec2bacdd2f05b59de34da9b523dff8be42e5e38e818c82fdb0bae774387a724946001600160a01b03166000527fe8b26c30fad74198956032a3533d903385d56dd795af560196f9c78d4af40d01602052604060002090565b615139886155c4565b906155f7565b0390a23880615017565b50831515615005565b91907f7fffffffffffffffffffffffffffffff5d576e7357a4501ddfe92f46681b20a084116151db579160209360809260ff60009560405194855216868401526040830152606082015282805260015afa156151cf576000516001600160a01b038116156151c35790600090600090565b50600090600190600090565b6040513d6000823e3d90fd5b50505060009160039190565b600411156151f157565b634e487b7160e01b600052602160045260246000fd5b615210816151e7565b80615219575050565b615222816151e7565b60018103615254577ff645eedf0000000000000000000000000000000000000000000000000000000060005260046000fd5b61525d816151e7565b6002810361529357507ffce698f70000000000000000000000000000000000000000000000000000000060005260045260246000fd5b8061529f6003926151e7565b146152a75750565b7fd78bce0c0000000000000000000000000000000000000000000000000000000060005260045260246000fd5b60ff7ff0c57e16840df040f15088dc2f81fe391c3923bec73e23a9662efc9c229c6a005460401c161561530357565b7fd7e6bcf80000000000000000000000000000000000000000000000000000000060005260046000fd5b9291906001600160a01b03841680159081156154de57615395615371857f52c63247e1f47db19d5ce0460030c497f067ca4cebf71ba98eeadabe20bace0254613538565b7f52c63247e1f47db19d5ce0460030c497f067ca4cebf71ba98eeadabe20bace0255565b6001600160a01b0383169081615497576153f0857f52c63247e1f47db19d5ce0460030c497f067ca4cebf71ba98eeadabe20bace0254037f52c63247e1f47db19d5ce0460030c497f067ca4cebf71ba98eeadabe20bace0255565b6040518581527fddf252ad1be2c89b69c2b068fc378daa952ba7f163c4a11628f55a4df523b3ef90602090a361542b575b610d9e92936156e5565b7f52c63247e1f47db19d5ce0460030c497f067ca4cebf71ba98eeadabe20bace0254936001600160d01b0380861161546557509350615421565b7f1cb15d2600000000000000000000000000000000000000000000000000000000600052600486905260245260446000fd5b6154d3846001600160a01b03166000527f52c63247e1f47db19d5ce0460030c497f067ca4cebf71ba98eeadabe20bace00602052604060002090565b8581540190556153f0565b61551a866001600160a01b03166000527f52c63247e1f47db19d5ce0460030c497f067ca4cebf71ba98eeadabe20bace00602052604060002090565b5484811061556757849003615561876001600160a01b03166000527f52c63247e1f47db19d5ce0460030c497f067ca4cebf71ba98eeadabe20bace00602052604060002090565b55615395565b7fe450d38c000000000000000000000000000000000000000000000000000000006000526001600160a01b038716600452602452604484905260646000fd5b60008061074a93602081519101845af46155be6136ba565b91615831565b6001600160d01b0381116155de576001600160d01b031690565b6306dfcc6560e41b60005260d060045260245260446000fd5b906001600160d01b038061560a84614c94565b92169116036001600160d01b0381116113cd576156309165ffffffffffff4216906159cf565b9091565b906001600160d01b038061564784614c94565b92169116016001600160d01b0381116113cd576156309165ffffffffffff4216906159cf565b6001600160d01b038061569f7fe8b26c30fad74198956032a3533d903385d56dd795af560196f9c78d4af40d02614c94565b92169116036001600160d01b0381116113cd57615630904265ffffffffffff167fe8b26c30fad74198956032a3533d903385d56dd795af560196f9c78d4af40d026159cf565b9091906001600160a01b03168015615798575b6001600160a01b03610d9e9316908115615780575b6000527fe8b26c30fad74198956032a3533d903385d56dd795af560196f9c78d4af40d006020526001600160a01b0360406000205416906000527fe8b26c30fad74198956032a3533d903385d56dd795af560196f9c78d4af40d006020526001600160a01b036040600020541690614fe3565b61579161578c846155c4565b61566d565b505061570d565b6157a1826155c4565b6001600160d01b03806157d37fe8b26c30fad74198956032a3533d903385d56dd795af560196f9c78d4af40d02614c94565b92169116016001600160d01b0381116113cd57610d9e936001600160a01b0391615826904265ffffffffffff167fe8b26c30fad74198956032a3533d903385d56dd795af560196f9c78d4af40d026159cf565b9050509350506156f8565b90615870575080511561584657602081519101fd5b7fd6bda2750000000000000000000000000000000000000000000000000000000060005260046000fd5b815115806158b8575b615881575090565b6001600160a01b03907f9996b315000000000000000000000000000000000000000000000000000000006000521660045260246000fd5b50803b15615879565b6158c9610d47565b80519081156158d9576020012090565b50507fa16a46d94261c7517cc8ff89f61c0ce93598e3c849801011dee649a6a557d1005480156159065790565b507fc5d2460186f7233c927e7db2dcc703c0e500b653ca82273b7bfad8045d85a47090565b615933610e3e565b8051908115615943576020012090565b50507fa16a46d94261c7517cc8ff89f61c0ce93598e3c849801011dee649a6a557d1015480156159065790565b8054600160401b811015610d205761598d91600182018155612829565b6159b95781516020929092015160301b65ffffffffffff191665ffffffffffff92909216919091179055565b634e487b7160e01b600052600060045260246000fd5b80549293928015615a98576159e66159f3916134b7565b8260005260206000200190565b8054603081901c9365ffffffffffff91821692918116808411615a6e57879303615a3a5750615a3692509065ffffffffffff82549181199060301b169116179055565b9190565b915050615a3691615a5a615a4c611498565b65ffffffffffff9093168352565b6001600160d01b0386166020830152615970565b7f2520601d0000000000000000000000000000000000000000000000000000000060005260046000fd5b5090615abd91615aa9615a4c611498565b6001600160d01b0385166020830152615970565b6000919056fea2646970667358221220240b8516020743bd6f0acb4b927e716edf3655f04264befdb98eefdab61caaaa64736f6c634300081c0033",
  "linkReferences": {},
  "deployedLinkReferences": {}
}