{
  "_format": "hh-sol-artifact-1",
  "contractName": "GovernanceDAO",
  "sourceName": "contracts/GovernanceDAO.sol",
  "abi": [
    {
      "inputs": [
        {
          "internalType": "address",
          "name": "target",
          "type": "address"
        }
      ],
      "name": "AddressEmptyCode",
      "type": "error"
    },
    {
      "inputs": [],
      "name": "ECDSAInvalidSignature",
      "type": "error"
    },
    {
      "inputs": [
        {
          "internalType": "uint256",
          "name": "length",
          "type": "uint256"
        }
      ],
      "name": "ECDSAInvalidSignatureLength",
      "type": "error"
    },
    {
      "inputs": [
        {
          "internalType": "bytes32",
          "name": "s",
          "type": "bytes32"
        }
      ],
      "name": "ECDSAInvalidSignatureS",
      "type": "error"
    },
    {
      "inputs": [
        {
          "internalType": "address",
          "name": "implementation",
          "type": "address"
        }
      ],
      "name": "ERC1967InvalidImplementation",
      "type": "error"
    },
    {
      "inputs": [],
      "name": "ERC1967NonPayable",
      "type": "error"
    },
    {
      "inputs": [],
      "name": "FailedCall",
      "type": "error"
    },
    {
      "inputs": [],
      "name": "InvalidInitialization",
      "type": "error"
    },
    {
      "inputs": [],
      "name": "NotInitializing",
      "type": "error"
    },
    {
      "inputs": [
        {
          "internalType": "address",
          "name": "owner",
          "type": "address"
        }
      ],
      "name": "OwnableInvalidOwner",
      "type": "error"
    },
    {
      "inputs": [
        {
          "internalType": "address",
          "name": "account",
          "type": "address"
        }
      ],
      "name": "OwnableUnauthorizedAccount",
      "type": "error"
    },
    {
      "inputs": [],
      "name": "ReentrancyGuardReentrantCall",
      "type": "error"
    },
    {
      "inputs": [],
      "name": "UUPSUnauthorizedCallContext",
      "type": "error"
    },
    {
      "inputs": [
        {
          "internalType": "bytes32",
          "name": "slot",
          "type": "bytes32"
        }
      ],
      "name": "UUPSUnsupportedProxiableUUID",
      "type": "error"
    },
    {
      "anonymous": false,
      "inputs": [
        {
          "indexed": true,
          "internalType": "address",
          "name": "delegator",
          "type": "address"
        },
        {
          "indexed": true,
          "internalType": "address",
          "name": "fromDelegate",
          "type": "address"
        },
        {
          "indexed": true,
          "internalType": "address",
          "name": "toDelegate",
          "type": "address"
        }
      ],
      "name": "DelegateChanged",
      "type": "event"
    },
    {
      "anonymous": false,
      "inputs": [
        {
          "indexed": true,
          "internalType": "address",
          "name": "delegator",
          "type": "address"
        },
        {
          "indexed": true,
          "internalType": "address",
          "name": "delegatee",
          "type": "address"
        }
      ],
      "name": "DelegationRemoved",
      "type": "event"
    },
    {
      "anonymous": false,
      "inputs": [
        {
          "indexed": true,
          "internalType": "uint256",
          "name": "proposalId",
          "type": "uint256"
        }
      ],
      "name": "EmergencyDeclared",
      "type": "event"
    },
    {
      "anonymous": false,
      "inputs": [
        {
          "indexed": true,
          "internalType": "bytes32",
          "name": "voteHash",
          "type": "bytes32"
        },
        {
          "indexed": true,
          "internalType": "address",
          "name": "voter",
          "type": "address"
        },
        {
          "indexed": true,
          "internalType": "uint256",
          "name": "proposalId",
          "type": "uint256"
        },
        {
          "indexed": false,
          "internalType": "bool",
          "name": "support",
          "type": "bool"
        },
        {
          "indexed": false,
          "internalType": "uint256",
          "name": "weight",
          "type": "uint256"
        }
      ],
      "name": "GaslessVoteCast",
      "type": "event"
    },
    {
      "anonymous": false,
      "inputs": [
        {
          "indexed": false,
          "internalType": "uint64",
          "name": "version",
          "type": "uint64"
        }
      ],
      "name": "Initialized",
      "type": "event"
    },
    {
      "anonymous": false,
      "inputs": [
        {
          "indexed": true,
          "internalType": "uint256",
          "name": "proposalId",
          "type": "uint256"
        }
      ],
      "name": "MultiSigExecuted",
      "type": "event"
    },
    {
      "anonymous": false,
      "inputs": [
        {
          "indexed": true,
          "internalType": "uint256",
          "name": "proposalId",
          "type": "uint256"
        },
        {
          "indexed": true,
          "internalType": "address",
          "name": "signer",
          "type": "address"
        }
      ],
      "name": "MultiSigSigned",
      "type": "event"
    },
    {
      "anonymous": false,
      "inputs": [
        {
          "indexed": true,
          "internalType": "address",
          "name": "previousOwner",
          "type": "address"
        },
        {
          "indexed": true,
          "internalType": "address",
          "name": "newOwner",
          "type": "address"
        }
      ],
      "name": "OwnershipTransferred",
      "type": "event"
    },
    {
      "anonymous": false,
      "inputs": [
        {
          "indexed": true,
          "internalType": "uint256",
          "name": "proposalId",
          "type": "uint256"
        }
      ],
      "name": "ProposalCancelled",
      "type": "event"
    },
    {
      "anonymous": false,
      "inputs": [
        {
          "indexed": true,
          "internalType": "uint256",
          "name": "proposalId",
          "type": "uint256"
        },
        {
          "indexed": true,
          "internalType": "address",
          "name": "proposer",
          "type": "address"
        },
        {
          "indexed": false,
          "internalType": "enum GovernanceDAO.ProposalType",
          "name": "proposalType",
          "type": "uint8"
        },
        {
          "indexed": false,
          "internalType": "string",
          "name": "description",
          "type": "string"
        },
        {
          "indexed": false,
          "internalType": "uint256",
          "name": "startTime",
          "type": "uint256"
        },
        {
          "indexed": false,
          "internalType": "uint256",
          "name": "endTime",
          "type": "uint256"
        },
        {
          "indexed": false,
          "internalType": "bool",
          "name": "emergency",
          "type": "bool"
        }
      ],
      "name": "ProposalCreated",
      "type": "event"
    },
    {
      "anonymous": false,
      "inputs": [
        {
          "indexed": true,
          "internalType": "uint256",
          "name": "proposalId",
          "type": "uint256"
        },
        {
          "indexed": false,
          "internalType": "bool",
          "name": "success",
          "type": "bool"
        }
      ],
      "name": "ProposalExecuted",
      "type": "event"
    },
    {
      "anonymous": false,
      "inputs": [
        {
          "indexed": true,
          "internalType": "uint256",
          "name": "templateId",
          "type": "uint256"
        },
        {
          "indexed": false,
          "internalType": "string",
          "name": "name",
          "type": "string"
        }
      ],
      "name": "ProposalTemplateCreated",
      "type": "event"
    },
    {
      "anonymous": false,
      "inputs": [
        {
          "indexed": true,
          "internalType": "uint256",
          "name": "proposalId",
          "type": "uint256"
        },
        {
          "indexed": true,
          "internalType": "address",
          "name": "voter",
          "type": "address"
        },
        {
          "indexed": false,
          "internalType": "uint256",
          "name": "credits",
          "type": "uint256"
        },
        {
          "indexed": false,
          "internalType": "bool",
          "name": "support",
          "type": "bool"
        }
      ],
      "name": "QuadraticVoteCast",
      "type": "event"
    },
    {
      "anonymous": false,
      "inputs": [
        {
          "indexed": true,
          "internalType": "address",
          "name": "user",
          "type": "address"
        },
        {
          "indexed": false,
          "internalType": "uint256",
          "name": "amount",
          "type": "uint256"
        },
        {
          "indexed": false,
          "internalType": "uint256",
          "name": "duration",
          "type": "uint256"
        }
      ],
      "name": "TokensLocked",
      "type": "event"
    },
    {
      "anonymous": false,
      "inputs": [
        {
          "indexed": true,
          "internalType": "address",
          "name": "user",
          "type": "address"
        },
        {
          "indexed": false,
          "internalType": "uint256",
          "name": "amount",
          "type": "uint256"
        }
      ],
      "name": "TokensUnlocked",
      "type": "event"
    },
    {
      "anonymous": false,
      "inputs": [
        {
          "indexed": true,
          "internalType": "address",
          "name": "to",
          "type": "address"
        },
        {
          "indexed": false,
          "internalType": "uint256",
          "name": "amount",
          "type": "uint256"
        }
      ],
      "name": "TreasuryTransfer",
      "type": "event"
    },
    {
      "anonymous": false,
      "inputs": [
        {
          "indexed": true,
          "internalType": "address",
          "name": "implementation",
          "type": "address"
        }
      ],
      "name": "Upgraded",
      "type": "event"
    },
    {
      "anonymous": false,
      "inputs": [
        {
          "indexed": true,
          "internalType": "uint256",
          "name": "proposalId",
          "type": "uint256"
        },
        {
          "indexed": true,
          "internalType": "address",
          "name": "voter",
          "type": "address"
        },
        {
          "indexed": false,
          "internalType": "bool",
          "name": "support",
          "type": "bool"
        },
        {
          "indexed": false,
          "internalType": "uint256",
          "name": "weight",
          "type": "uint256"
        },
        {
          "indexed": false,
          "internalType": "uint256",
          "name": "timestamp",
          "type": "uint256"
        }
      ],
      "name": "VoteCast",
      "type": "event"
    },
    {
      "anonymous": false,
      "inputs": [
        {
          "indexed": true,
          "internalType": "address",
          "name": "delegator",
          "type": "address"
        },
        {
          "indexed": true,
          "internalType": "address",
          "name": "delegatee",
          "type": "address"
        },
        {
          "indexed": false,
          "internalType": "uint256",
          "name": "weight",
          "type": "uint256"
        }
      ],
      "name": "WeightedDelegation",
      "type": "event"
    },
    {
      "anonymous": false,
      "inputs": [
        {
          "indexed": true,
          "internalType": "bytes32",
          "name": "commitment",
          "type": "bytes32"
        },
        {
          "indexed": true,
          "internalType": "uint256",
          "name": "proposalId",
          "type": "uint256"
        },
        {
          "indexed": false,
          "internalType": "uint256",
          "name": "weight",
          "type": "uint256"
        }
      ],
      "name": "ZKVoteCast",
      "type": "event"
    },
    {
      "inputs": [],
      "name": "UPGRADE_INTERFACE_VERSION",
      "outputs": [
        {
          "internalType": "string",
          "name": "",
          "type": "string"
        }
      ],
      "stateMutability": "view",
      "type": "function"
    },
    {
      "inputs": [
        {
          "internalType": "uint256",
          "name": "_proposalId",
          "type": "uint256"
        }
      ],
      "name": "abstain",
      "outputs": [],
      "stateMutability": "nonpayable",
      "type": "function"
    },
    {
      "inputs": [
        {
          "internalType": "address",
          "name": "member",
          "type": "address"
        }
      ],
      "name": "addEmergencyCommitteeMember",
      "outputs": [],
      "stateMutability": "nonpayable",
      "type": "function"
    },
    {
      "inputs": [
        {
          "internalType": "uint256",
          "name": "_proposalId",
          "type": "uint256"
        }
      ],
      "name": "cancelProposal",
      "outputs": [],
      "stateMutability": "nonpayable",
      "type": "function"
    },
    {
      "inputs": [
        {
          "components": [
            {
              "internalType": "uint256",
              "name": "proposalId",
              "type": "uint256"
            },
            {
              "internalType": "bool",
              "name": "support",
              "type": "bool"
            },
            {
              "internalType": "uint256",
              "name": "weight",
              "type": "uint256"
            },
            {
              "internalType": "uint256",
              "name": "nonce",
              "type": "uint256"
            },
            {
              "internalType": "uint256",
              "name": "deadline",
              "type": "uint256"
            },
            {
              "internalType": "bytes",
              "name": "signature",
              "type": "bytes"
            }
          ],
          "internalType": "struct GovernanceDAO.GaslessVote",
          "name": "voteData",
          "type": "tuple"
        }
      ],
      "name": "castGaslessVote",
      "outputs": [],
      "stateMutability": "nonpayable",
      "type": "function"
    },
    {
      "inputs": [
        {
          "internalType": "uint256",
          "name": "_proposalId",
          "type": "uint256"
        },
        {
          "internalType": "uint256",
          "name": "_credits",
          "type": "uint256"
        },
        {
          "internalType": "bool",
          "name": "_support",
          "type": "bool"
        }
      ],
      "name": "castQuadraticVote",
      "outputs": [],
      "stateMutability": "payable",
      "type": "function"
    },
    {
      "inputs": [
        {
          "components": [
            {
              "internalType": "uint256",
              "name": "proposalId",
              "type": "uint256"
            },
            {
              "internalType": "bool",
              "name": "support",
              "type": "bool"
            },
            {
              "internalType": "uint256",
              "name": "weight",
              "type": "uint256"
            },
            {
              "internalType": "bytes32",
              "name": "commitment",
              "type": "bytes32"
            },
            {
              "components": [
                {
                  "internalType": "uint256[2]",
                  "name": "a",
                  "type": "uint256[2]"
                },
                {
                  "internalType": "uint256[2][2]",
                  "name": "b",
                  "type": "uint256[2][2]"
                },
                {
                  "internalType": "uint256[2]",
                  "name": "c",
                  "type": "uint256[2]"
                },
                {
                  "internalType": "uint256[1]",
                  "name": "input",
                  "type": "uint256[1]"
                }
              ],
              "internalType": "struct GovernanceDAO.ZKProof",
              "name": "proof",
              "type": "tuple"
            }
          ],
          "internalType": "struct GovernanceDAO.PrivateVote",
          "name": "zkVote",
          "type": "tuple"
        }
      ],
      "name": "castZKVote",
      "outputs": [],
      "stateMutability": "nonpayable",
      "type": "function"
    },
    {
      "inputs": [
        {
          "internalType": "string",
          "name": "_name",
          "type": "string"
        },
        {
          "internalType": "string",
          "name": "_description",
          "type": "string"
        },
        {
          "internalType": "enum GovernanceDAO.ProposalType",
          "name": "_proposalType",
          "type": "uint8"
        },
        {
          "internalType": "bytes",
          "name": "_templateCallData",
          "type": "bytes"
        }
      ],
      "name": "createProposalTemplate",
      "outputs": [
        {
          "internalType": "uint256",
          "name": "",
          "type": "uint256"
        }
      ],
      "stateMutability": "nonpayable",
      "type": "function"
    },
    {
      "inputs": [
        {
          "internalType": "uint256",
          "name": "_templateId",
          "type": "uint256"
        }
      ],
      "name": "deactivateProposalTemplate",
      "outputs": [],
      "stateMutability": "nonpayable",
      "type": "function"
    },
    {
      "inputs": [
        {
          "internalType": "address",
          "name": "delegatee",
          "type": "address"
        }
      ],
      "name": "delegate",
      "outputs": [],
      "stateMutability": "nonpayable",
      "type": "function"
    },
    {
      "inputs": [
        {
          "internalType": "address",
          "name": "delegatee",
          "type": "address"
        },
        {
          "internalType": "uint256",
          "name": "weight",
          "type": "uint256"
        }
      ],
      "name": "delegateWithWeight",
      "outputs": [],
      "stateMutability": "nonpayable",
      "type": "function"
    },
    {
      "inputs": [
        {
          "internalType": "address",
          "name": "",
          "type": "address"
        }
      ],
      "name": "delegates",
      "outputs": [
        {
          "internalType": "address",
          "name": "",
          "type": "address"
        }
      ],
      "stateMutability": "view",
      "type": "function"
    },
    {
      "inputs": [
        {
          "internalType": "address",
          "name": "",
          "type": "address"
        },
        {
          "internalType": "uint256",
          "name": "",
          "type": "uint256"
        }
      ],
      "name": "delegationChains",
      "outputs": [
        {
          "internalType": "address",
          "name": "delegate",
          "type": "address"
        },
        {
          "internalType": "uint256",
          "name": "weight",
          "type": "uint256"
        },
        {
          "internalType": "uint256",
          "name": "depth",
          "type": "uint256"
        },
        {
          "internalType": "bool",
          "name": "active",
          "type": "bool"
        }
      ],
      "stateMutability": "view",
      "type": "function"
    },
    {
      "inputs": [
        {
          "internalType": "address",
          "name": "",
          "type": "address"
        },
        {
          "internalType": "address",
          "name": "",
          "type": "address"
        }
      ],
      "name": "delegationWeights",
      "outputs": [
        {
          "internalType": "uint256",
          "name": "",
          "type": "uint256"
        }
      ],
      "stateMutability": "view",
      "type": "function"
    },
    {
      "inputs": [],
      "name": "depositToTreasury",
      "outputs": [],
      "stateMutability": "payable",
      "type": "function"
    },
    {
      "inputs": [
        {
          "internalType": "address",
          "name": "",
          "type": "address"
        }
      ],
      "name": "emergencyCommittee",
      "outputs": [
        {
          "internalType": "bool",
          "name": "",
          "type": "bool"
        }
      ],
      "stateMutability": "view",
      "type": "function"
    },
    {
      "inputs": [
        {
          "internalType": "uint256",
          "name": "_proposalId",
          "type": "uint256"
        }
      ],
      "name": "emergencyExecute",
      "outputs": [],
      "stateMutability": "nonpayable",
      "type": "function"
    },
    {
      "inputs": [],
      "name": "emergencyThreshold",
      "outputs": [
        {
          "internalType": "uint256",
          "name": "",
          "type": "uint256"
        }
      ],
      "stateMutability": "view",
      "type": "function"
    },
    {
      "inputs": [],
      "name": "emergencyVotingPeriod",
      "outputs": [
        {
          "internalType": "uint256",
          "name": "",
          "type": "uint256"
        }
      ],
      "stateMutability": "view",
      "type": "function"
    },
    {
      "inputs": [
        {
          "internalType": "uint256",
          "name": "_proposalId",
          "type": "uint256"
        },
        {
          "internalType": "address[]",
          "name": "_signers",
          "type": "address[]"
        },
        {
          "internalType": "uint256",
          "name": "_requiredSignatures",
          "type": "uint256"
        }
      ],
      "name": "enableMultiSigExecution",
      "outputs": [],
      "stateMutability": "nonpayable",
      "type": "function"
    },
    {
      "inputs": [
        {
          "internalType": "uint256",
          "name": "_proposalId",
          "type": "uint256"
        }
      ],
      "name": "executeProposal",
      "outputs": [],
      "stateMutability": "nonpayable",
      "type": "function"
    },
    {
      "inputs": [
        {
          "internalType": "bytes32",
          "name": "",
          "type": "bytes32"
        }
      ],
      "name": "executedGaslessVotes",
      "outputs": [
        {
          "internalType": "bool",
          "name": "",
          "type": "bool"
        }
      ],
      "stateMutability": "view",
      "type": "function"
    },
    {
      "inputs": [
        {
          "internalType": "address",
          "name": "account",
          "type": "address"
        }
      ],
      "name": "getLockedTokenBalance",
      "outputs": [
        {
          "internalType": "uint256",
          "name": "",
          "type": "uint256"
        }
      ],
      "stateMutability": "view",
      "type": "function"
    },
    {
      "inputs": [
        {
          "internalType": "uint256",
          "name": "_proposalId",
          "type": "uint256"
        }
      ],
      "name": "getProposal",
      "outputs": [
        {
          "components": [
            {
              "internalType": "uint256",
              "name": "id",
              "type": "uint256"
            },
            {
              "internalType": "address",
              "name": "proposer",
              "type": "address"
            },
            {
              "internalType": "enum GovernanceDAO.ProposalType",
              "name": "proposalType",
              "type": "uint8"
            },
            {
              "internalType": "string",
              "name": "description",
              "type": "string"
            },
            {
              "internalType": "uint256",
              "name": "forVotes",
              "type": "uint256"
            },
            {
              "internalType": "uint256",
              "name": "againstVotes",
              "type": "uint256"
            },
            {
              "internalType": "uint256",
              "name": "abstainVotes",
              "type": "uint256"
            },
            {
              "internalType": "uint256",
              "name": "startTime",
              "type": "uint256"
            },
            {
              "internalType": "uint256",
              "name": "endTime",
              "type": "uint256"
            },
            {
              "internalType": "enum GovernanceDAO.ProposalStatus",
              "name": "status",
              "type": "uint8"
            },
            {
              "internalType": "bool",
              "name": "emergency",
              "type": "bool"
            }
          ],
          "internalType": "struct GovernanceDAO.ProposalCore",
          "name": "",
          "type": "tuple"
        }
      ],
      "stateMutability": "view",
      "type": "function"
    },
    {
      "inputs": [
        {
          "internalType": "uint256",
          "name": "_proposalId",
          "type": "uint256"
        }
      ],
      "name": "getProposalState",
      "outputs": [
        {
          "internalType": "enum GovernanceDAO.ProposalStatus",
          "name": "",
          "type": "uint8"
        }
      ],
      "stateMutability": "view",
      "type": "function"
    },
    {
      "inputs": [
        {
          "internalType": "address",
          "name": "account",
          "type": "address"
        }
      ],
      "name": "getTimeWeightedVotes",
      "outputs": [
        {
          "internalType": "uint256",
          "name": "",
          "type": "uint256"
        }
      ],
      "stateMutability": "view",
      "type": "function"
    },
    {
      "inputs": [
        {
          "internalType": "address",
          "name": "account",
          "type": "address"
        }
      ],
      "name": "getTokenLocks",
      "outputs": [
        {
          "components": [
            {
              "internalType": "uint256",
              "name": "amount",
              "type": "uint256"
            },
            {
              "internalType": "uint256",
              "name": "lockTime",
              "type": "uint256"
            },
            {
              "internalType": "uint256",
              "name": "lockDuration",
              "type": "uint256"
            },
            {
              "internalType": "bool",
              "name": "active",
              "type": "bool"
            }
          ],
          "internalType": "struct GovernanceDAO.TokenLock[]",
          "name": "",
          "type": "tuple[]"
        }
      ],
      "stateMutability": "view",
      "type": "function"
    },
    {
      "inputs": [
        {
          "internalType": "uint256",
          "name": "_proposalId",
          "type": "uint256"
        },
        {
          "internalType": "address",
          "name": "_voter",
          "type": "address"
        }
      ],
      "name": "getVote",
      "outputs": [
        {
          "components": [
            {
              "internalType": "bool",
              "name": "hasVoted",
              "type": "bool"
            },
            {
              "internalType": "bool",
              "name": "support",
              "type": "bool"
            },
            {
              "internalType": "uint256",
              "name": "weight",
              "type": "uint256"
            },
            {
              "internalType": "uint256",
              "name": "timestamp",
              "type": "uint256"
            }
          ],
          "internalType": "struct GovernanceDAO.Vote",
          "name": "",
          "type": "tuple"
        }
      ],
      "stateMutability": "view",
      "type": "function"
    },
    {
      "inputs": [
        {
          "internalType": "address",
          "name": "account",
          "type": "address"
        }
      ],
      "name": "getVotes",
      "outputs": [
        {
          "internalType": "uint256",
          "name": "",
          "type": "uint256"
        }
      ],
      "stateMutability": "view",
      "type": "function"
    },
    {
      "inputs": [],
      "name": "governanceToken",
      "outputs": [
        {
          "internalType": "contract IERC20",
          "name": "",
          "type": "address"
        }
      ],
      "stateMutability": "view",
      "type": "function"
    },
    {
      "inputs": [
        {
          "internalType": "uint256",
          "name": "_proposalId",
          "type": "uint256"
        },
        {
          "internalType": "address",
          "name": "_voter",
          "type": "address"
        }
      ],
      "name": "hasVoted",
      "outputs": [
        {
          "internalType": "bool",
          "name": "",
          "type": "bool"
        }
      ],
      "stateMutability": "view",
      "type": "function"
    },
    {
      "inputs": [
        {
          "internalType": "address",
          "name": "_governanceToken",
          "type": "address"
        },
        {
          "internalType": "address",
          "name": "_treasury",
          "type": "address"
        },
        {
          "internalType": "address",
          "name": "_zkVerifier",
          "type": "address"
        }
      ],
      "name": "initialize",
      "outputs": [],
      "stateMutability": "nonpayable",
      "type": "function"
    },
    {
      "inputs": [
        {
          "internalType": "bytes32",
          "name": "commitment",
          "type": "bytes32"
        }
      ],
      "name": "isZKProofVerified",
      "outputs": [
        {
          "internalType": "bool",
          "name": "",
          "type": "bool"
        }
      ],
      "stateMutability": "view",
      "type": "function"
    },
    {
      "inputs": [
        {
          "internalType": "address",
          "name": "",
          "type": "address"
        }
      ],
      "name": "lastProposalTime",
      "outputs": [
        {
          "internalType": "uint256",
          "name": "",
          "type": "uint256"
        }
      ],
      "stateMutability": "view",
      "type": "function"
    },
    {
      "inputs": [
        {
          "internalType": "uint256",
          "name": "amount",
          "type": "uint256"
        },
        {
          "internalType": "uint256",
          "name": "duration",
          "type": "uint256"
        }
      ],
      "name": "lockTokens",
      "outputs": [],
      "stateMutability": "nonpayable",
      "type": "function"
    },
    {
      "inputs": [],
      "name": "maxLockDuration",
      "outputs": [
        {
          "internalType": "uint256",
          "name": "",
          "type": "uint256"
        }
      ],
      "stateMutability": "view",
      "type": "function"
    },
    {
      "inputs": [],
      "name": "maxQuadraticCredits",
      "outputs": [
        {
          "internalType": "uint256",
          "name": "",
          "type": "uint256"
        }
      ],
      "stateMutability": "view",
      "type": "function"
    },
    {
      "inputs": [
        {
          "internalType": "uint256",
          "name": "",
          "type": "uint256"
        }
      ],
      "name": "multiSigExecutions",
      "outputs": [
        {
          "internalType": "uint256",
          "name": "proposalId",
          "type": "uint256"
        },
        {
          "internalType": "uint256",
          "name": "requiredSignatures",
          "type": "uint256"
        },
        {
          "internalType": "uint256",
          "name": "signatureCount",
          "type": "uint256"
        },
        {
          "internalType": "bool",
          "name": "executed",
          "type": "bool"
        }
      ],
      "stateMutability": "view",
      "type": "function"
    },
    {
      "inputs": [
        {
          "internalType": "address",
          "name": "",
          "type": "address"
        }
      ],
      "name": "multiSigSigners",
      "outputs": [
        {
          "internalType": "bool",
          "name": "",
          "type": "bool"
        }
      ],
      "stateMutability": "view",
      "type": "function"
    },
    {
      "inputs": [
        {
          "internalType": "address",
          "name": "",
          "type": "address"
        }
      ],
      "name": "nonces",
      "outputs": [
        {
          "internalType": "uint256",
          "name": "",
          "type": "uint256"
        }
      ],
      "stateMutability": "view",
      "type": "function"
    },
    {
      "inputs": [],
      "name": "owner",
      "outputs": [
        {
          "internalType": "address",
          "name": "",
          "type": "address"
        }
      ],
      "stateMutability": "view",
      "type": "function"
    },
    {
      "inputs": [],
      "name": "proposalCooldown",
      "outputs": [
        {
          "internalType": "uint256",
          "name": "",
          "type": "uint256"
        }
      ],
      "stateMutability": "view",
      "type": "function"
    },
    {
      "inputs": [],
      "name": "proposalCount",
      "outputs": [
        {
          "internalType": "uint256",
          "name": "",
          "type": "uint256"
        }
      ],
      "stateMutability": "view",
      "type": "function"
    },
    {
      "inputs": [
        {
          "internalType": "uint256",
          "name": "",
          "type": "uint256"
        }
      ],
      "name": "proposalTemplates",
      "outputs": [
        {
          "internalType": "string",
          "name": "name",
          "type": "string"
        },
        {
          "internalType": "string",
          "name": "description",
          "type": "string"
        },
        {
          "internalType": "enum GovernanceDAO.ProposalType",
          "name": "proposalType",
          "type": "uint8"
        },
        {
          "internalType": "bytes",
          "name": "templateCallData",
          "type": "bytes"
        },
        {
          "internalType": "bool",
          "name": "active",
          "type": "bool"
        }
      ],
      "stateMutability": "view",
      "type": "function"
    },
    {
      "inputs": [],
      "name": "proposalThreshold",
      "outputs": [
        {
          "internalType": "uint256",
          "name": "",
          "type": "uint256"
        }
      ],
      "stateMutability": "view",
      "type": "function"
    },
    {
      "inputs": [
        {
          "internalType": "uint256",
          "name": "",
          "type": "uint256"
        }
      ],
      "name": "proposals",
      "outputs": [
        {
          "internalType": "uint256",
          "name": "id",
          "type": "uint256"
        },
        {
          "internalType": "address",
          "name": "proposer",
          "type": "address"
        },
        {
          "internalType": "enum GovernanceDAO.ProposalType",
          "name": "proposalType",
          "type": "uint8"
        },
        {
          "internalType": "string",
          "name": "description",
          "type": "string"
        },
        {
          "internalType": "bytes",
          "name": "callData",
          "type": "bytes"
        },
        {
          "internalType": "address",
          "name": "targetContract",
          "type": "address"
        },
        {
          "internalType": "uint256",
          "name": "value",
          "type": "uint256"
        },
        {
          "internalType": "uint256",
          "name": "forVotes",
          "type": "uint256"
        },
        {
          "internalType": "uint256",
          "name": "againstVotes",
          "type": "uint256"
        },
        {
          "internalType": "uint256",
          "name": "abstainVotes",
          "type": "uint256"
        },
        {
          "internalType": "uint256",
          "name": "startTime",
          "type": "uint256"
        },
        {
          "internalType": "uint256",
          "name": "endTime",
          "type": "uint256"
        },
        {
          "internalType": "enum GovernanceDAO.ProposalStatus",
          "name": "status",
          "type": "uint8"
        },
        {
          "internalType": "uint256",
          "name": "executionTime",
          "type": "uint256"
        },
        {
          "internalType": "bool",
          "name": "emergency",
          "type": "bool"
        }
      ],
      "stateMutability": "view",
      "type": "function"
    },
    {
      "inputs": [
        {
          "internalType": "enum GovernanceDAO.ProposalType",
          "name": "_proposalType",
          "type": "uint8"
        },
        {
          "internalType": "string",
          "name": "_description",
          "type": "string"
        },
        {
          "internalType": "address",
          "name": "_targetContract",
          "type": "address"
        },
        {
          "internalType": "bytes",
          "name": "_callData",
          "type": "bytes"
        },
        {
          "internalType": "uint256",
          "name": "_value",
          "type": "uint256"
        },
        {
          "internalType": "bool",
          "name": "_emergency",
          "type": "bool"
        }
      ],
      "name": "propose",
      "outputs": [
        {
          "internalType": "uint256",
          "name": "",
          "type": "uint256"
        }
      ],
      "stateMutability": "nonpayable",
      "type": "function"
    },
    {
      "inputs": [
        {
          "internalType": "uint256",
          "name": "_templateId",
          "type": "uint256"
        },
        {
          "internalType": "address",
          "name": "_targetContract",
          "type": "address"
        },
        {
          "internalType": "uint256",
          "name": "_value",
          "type": "uint256"
        },
        {
          "internalType": "bool",
          "name": "_emergency",
          "type": "bool"
        }
      ],
      "name": "proposeFromTemplate",
      "outputs": [
        {
          "internalType": "uint256",
          "name": "",
          "type": "uint256"
        }
      ],
      "stateMutability": "nonpayable",
      "type": "function"
    },
    {
      "inputs": [],
      "name": "proxiableUUID",
      "outputs": [
        {
          "internalType": "bytes32",
          "name": "",
          "type": "bytes32"
        }
      ],
      "stateMutability": "view",
      "type": "function"
    },
    {
      "inputs": [],
      "name": "quadraticCreditPrice",
      "outputs": [
        {
          "internalType": "uint256",
          "name": "",
          "type": "uint256"
        }
      ],
      "stateMutability": "view",
      "type": "function"
    },
    {
      "inputs": [
        {
          "internalType": "address",
          "name": "",
          "type": "address"
        },
        {
          "internalType": "uint256",
          "name": "",
          "type": "uint256"
        }
      ],
      "name": "quadraticVotes",
      "outputs": [
        {
          "internalType": "uint256",
          "name": "proposalId",
          "type": "uint256"
        },
        {
          "internalType": "uint256",
          "name": "creditsUsed",
          "type": "uint256"
        },
        {
          "internalType": "bool",
          "name": "support",
          "type": "bool"
        },
        {
          "internalType": "uint256",
          "name": "timestamp",
          "type": "uint256"
        }
      ],
      "stateMutability": "view",
      "type": "function"
    },
    {
      "inputs": [
        {
          "internalType": "uint256",
          "name": "",
          "type": "uint256"
        }
      ],
      "name": "quadraticVotingCredits",
      "outputs": [
        {
          "internalType": "uint256",
          "name": "",
          "type": "uint256"
        }
      ],
      "stateMutability": "view",
      "type": "function"
    },
    {
      "inputs": [],
      "name": "quorumThreshold",
      "outputs": [
        {
          "internalType": "uint256",
          "name": "",
          "type": "uint256"
        }
      ],
      "stateMutability": "view",
      "type": "function"
    },
    {
      "inputs": [
        {
          "internalType": "address",
          "name": "delegatee",
          "type": "address"
        }
      ],
      "name": "removeDelegation",
      "outputs": [],
      "stateMutability": "nonpayable",
      "type": "function"
    },
    {
      "inputs": [
        {
          "internalType": "address",
          "name": "member",
          "type": "address"
        }
      ],
      "name": "removeEmergencyCommitteeMember",
      "outputs": [],
      "stateMutability": "nonpayable",
      "type": "function"
    },
    {
      "inputs": [],
      "name": "renounceOwnership",
      "outputs": [],
      "stateMutability": "nonpayable",
      "type": "function"
    },
    {
      "inputs": [],
      "name": "requiredMultiSigSignatures",
      "outputs": [
        {
          "internalType": "uint256",
          "name": "",
          "type": "uint256"
        }
      ],
      "stateMutability": "view",
      "type": "function"
    },
    {
      "inputs": [
        {
          "internalType": "uint256",
          "name": "_proposalId",
          "type": "uint256"
        }
      ],
      "name": "signMultiSigExecution",
      "outputs": [],
      "stateMutability": "nonpayable",
      "type": "function"
    },
    {
      "inputs": [],
      "name": "templateCount",
      "outputs": [
        {
          "internalType": "uint256",
          "name": "",
          "type": "uint256"
        }
      ],
      "stateMutability": "view",
      "type": "function"
    },
    {
      "inputs": [],
      "name": "timeWeightMultiplier",
      "outputs": [
        {
          "internalType": "uint256",
          "name": "",
          "type": "uint256"
        }
      ],
      "stateMutability": "view",
      "type": "function"
    },
    {
      "inputs": [],
      "name": "timelockPeriod",
      "outputs": [
        {
          "internalType": "uint256",
          "name": "",
          "type": "uint256"
        }
      ],
      "stateMutability": "view",
      "type": "function"
    },
    {
      "inputs": [
        {
          "internalType": "address",
          "name": "",
          "type": "address"
        },
        {
          "internalType": "uint256",
          "name": "",
          "type": "uint256"
        }
      ],
      "name": "tokenLocks",
      "outputs": [
        {
          "internalType": "uint256",
          "name": "amount",
          "type": "uint256"
        },
        {
          "internalType": "uint256",
          "name": "lockTime",
          "type": "uint256"
        },
        {
          "internalType": "uint256",
          "name": "lockDuration",
          "type": "uint256"
        },
        {
          "internalType": "bool",
          "name": "active",
          "type": "bool"
        }
      ],
      "stateMutability": "view",
      "type": "function"
    },
    {
      "inputs": [
        {
          "internalType": "address",
          "name": "",
          "type": "address"
        }
      ],
      "name": "totalLockedTokens",
      "outputs": [
        {
          "internalType": "uint256",
          "name": "",
          "type": "uint256"
        }
      ],
      "stateMutability": "view",
      "type": "function"
    },
    {
      "inputs": [
        {
          "internalType": "address",
          "name": "newOwner",
          "type": "address"
        }
      ],
      "name": "transferOwnership",
      "outputs": [],
      "stateMutability": "nonpayable",
      "type": "function"
    },
    {
      "inputs": [],
      "name": "treasury",
      "outputs": [
        {
          "internalType": "address",
          "name": "",
          "type": "address"
        }
      ],
      "stateMutability": "view",
      "type": "function"
    },
    {
      "inputs": [],
      "name": "treasuryBalance",
      "outputs": [
        {
          "internalType": "uint256",
          "name": "",
          "type": "uint256"
        }
      ],
      "stateMutability": "view",
      "type": "function"
    },
    {
      "inputs": [
        {
          "internalType": "uint256",
          "name": "lockIndex",
          "type": "uint256"
        }
      ],
      "name": "unlockTokens",
      "outputs": [],
      "stateMutability": "nonpayable",
      "type": "function"
    },
    {
      "inputs": [
        {
          "internalType": "uint256",
          "name": "_votingPeriod",
          "type": "uint256"
        },
        {
          "internalType": "uint256",
          "name": "_votingDelay",
          "type": "uint256"
        },
        {
          "internalType": "uint256",
          "name": "_proposalThreshold",
          "type": "uint256"
        },
        {
          "internalType": "uint256",
          "name": "_quorumThreshold",
          "type": "uint256"
        },
        {
          "internalType": "uint256",
          "name": "_timelockPeriod",
          "type": "uint256"
        },
        {
          "internalType": "uint256",
          "name": "_emergencyThreshold",
          "type": "uint256"
        },
        {
          "internalType": "uint256",
          "name": "_emergencyVotingPeriod",
          "type": "uint256"
        },
        {
          "internalType": "uint256",
          "name": "_proposalCooldown",
          "type": "uint256"
        }
      ],
      "name": "updateGovernanceParameters",
      "outputs": [],
      "stateMutability": "nonpayable",
      "type": "function"
    },
    {
      "inputs": [
        {
          "internalType": "uint256",
          "name": "_maxLockDuration",
          "type": "uint256"
        },
        {
          "internalType": "uint256",
          "name": "_timeWeightMultiplier",
          "type": "uint256"
        }
      ],
      "name": "updateTimeWeightedParameters",
      "outputs": [],
      "stateMutability": "nonpayable",
      "type": "function"
    },
    {
      "inputs": [
        {
          "internalType": "address",
          "name": "_zkVerifier",
          "type": "address"
        }
      ],
      "name": "updateZKVerifier",
      "outputs": [],
      "stateMutability": "nonpayable",
      "type": "function"
    },
    {
      "inputs": [
        {
          "internalType": "address",
          "name": "newImplementation",
          "type": "address"
        },
        {
          "internalType": "bytes",
          "name": "data",
          "type": "bytes"
        }
      ],
      "name": "upgradeToAndCall",
      "outputs": [],
      "stateMutability": "payable",
      "type": "function"
    },
    {
      "inputs": [
        {
          "internalType": "bytes32",
          "name": "",
          "type": "bytes32"
        }
      ],
      "name": "verifiedZKProofs",
      "outputs": [
        {
          "internalType": "bool",
          "name": "",
          "type": "bool"
        }
      ],
      "stateMutability": "view",
      "type": "function"
    },
    {
      "inputs": [
        {
          "internalType": "uint256",
          "name": "_proposalId",
          "type": "uint256"
        },
        {
          "internalType": "bool",
          "name": "_support",
          "type": "bool"
        }
      ],
      "name": "vote",
      "outputs": [],
      "stateMutability": "nonpayable",
      "type": "function"
    },
    {
      "inputs": [],
      "name": "votingDelay",
      "outputs": [
        {
          "internalType": "uint256",
          "name": "",
          "type": "uint256"
        }
      ],
      "stateMutability": "view",
      "type": "function"
    },
    {
      "inputs": [],
      "name": "votingPeriod",
      "outputs": [
        {
          "internalType": "uint256",
          "name": "",
          "type": "uint256"
        }
      ],
      "stateMutability": "view",
      "type": "function"
    },
    {
      "inputs": [
        {
          "internalType": "address payable",
          "name": "to",
          "type": "address"
        },
        {
          "internalType": "uint256",
          "name": "amount",
          "type": "uint256"
        }
      ],
      "name": "withdrawFromTreasury",
      "outputs": [],
      "stateMutability": "nonpayable",
      "type": "function"
    },
    {
      "inputs": [],
      "name": "zkVerifier",
      "outputs": [
        {
          "internalType": "address",
          "name": "",
          "type": "address"
        }
      ],
      "stateMutability": "view",
      "type": "function"
    },
    {
      "stateMutability": "payable",
      "type": "receive"
    }
  ],
  "bytecode": "0x60a08060405234602957306080526158cb908161002f82396080518181816131f901526136be0152f35b600080fdfe608080604052600436101561002c575b50361561001b57600080fd5b61002734602054614410565b602055005b60003560e01c908163013cf08b14613ec15750806301d3888614613e8157806302a251a314613e63578063055c99db14613e4557806305cf5d1614613c515780630663af0814613be65780630d61b51914613b0e5780631363420a146119ba57806318b6262914613af057806326705c3c14613ad25780632690ab1e14613a715780632ecaf67514613a53578063313dab2014613a365780633932abb114613a185780633ba64c5c146139d657806343859632146139665780634be2857a1461393a5780634e9e8f5a146138fb5780634f1ef286146136805780634f65166b146132df5780634fb68323146132a957806351404f7a1461327357806352d1902d146131de578063587cde1e1461319b5780635b7ad578146131615780635c19a95c146130d657806361d027b3146130af5780636ac9d587146130915780636eba236714613073578063715018a614612fda578063718b205814612fc25780637752d12214612f915780637b7a91dd14612f735780637c40532514612d885780637eb1f14114612c435780637ecebe0014612c0957806389158d8e1461292a57806389549eae146128de578063896d6db1146128095780638970ce34146127875780638da5cb5b146127415780638e635232146127025780639080936f146126b75780639ab24eb014612694578063a16cdbb114612676578063a580472d1461225a578063ad3cb1cc146121fb578063b1b3b7fb146117a3578063b4c0d43a14611fa4578063b58131b014611f86578063b656934314611f41578063bc3f931f14611e66578063bcd037c814611e48578063c0c53b8b14611b69578063c1f0fb9f146119eb578063c35ce431146119ba578063c7f758a8146117dd578063c8ba9870146117a3578063c9d27afe146115ed578063ccebfa3f14611562578063d3553c0d14611156578063d3a6925814611137578063d6df096d14611110578063d8f9b874146110b8578063d93f3df414610cdb578063da35c66414610cbd578063e0a8f6f514610b76578063e12f6e2614610b58578063e25409d814610acc578063e54bd677146107ab578063e8d9510a14610642578063f0466c7314610589578063f2fde38b1461055e578063f357dc081461044b578063f6fdcb5a1461042d578063f96dae0a146104065763fa6b5cfe14610388573861000f565b34610401576040366003190112610401576103a1614195565b6001600160a01b036024359116600052601660205260406000208054821015610401576080916103d091614275565b50805490600181015490600360ff600283015416910154916040519384526020840152151560408301526060820152f35b600080fd5b346104015760003660031901126104015760206001600160a01b0360005416604051908152f35b34610401576000366003190112610401576020601954604051908152f35b34610401576020366003190112610401576001600160a01b0361046c614195565b1660005260126020526040600020805490610486826141d7565b916104946040519384614118565b80835260208301809260005260206000206000915b8383106105185784866040519182916020830190602084525180915260408301919060005b8181106104dc575050500390f35b919350916020608060019260608751805183528481015185840152604081015160408401520151151560608201520194019101918493926104ce565b6004602060019260405161052b816140c3565b8554815284860154838201526002860154604082015260ff600387015416151560608201528152019201920191906104a9565b346104015760203660031901126104015761058761057a614195565b6105826151b0565b6150f1565b005b34610401576020366003190112610401576105a2614195565b33600052600d60205260406000206001600160a01b0360009216915b815481101561058757826001600160a01b036105da8385614275565b505416146105ea576001016105be565b6105f690600392614275565b500160ff19815416905533600052600e6020526000604080822082908482526020522055337fd34d27e61da1c0024d36fb461da2b2cc55f26de3975c87a55e96d835f6674629600080a3005b346104015760203660031901126104015760043533600052600a60205260ff6040600020541615610767578015158061075b575b61067f906142e4565b806000526001602052604060002060ff600e820154161561071757600b810160ff8154166006811015610701577f948f4a9cd986f1118c3fbd459f7a22b23c0693e1ca3ef06a6a8be5aa7d39cc03926020926106e060026106f694146150a6565b805460ff1916600417905542600d820155615241565b6040519015158152a2005b634e487b7160e01b600052602160045260246000fd5b606460405162461bcd60e51b815260206004820152601960248201527f4e6f7420616e20656d657267656e63792070726f706f73616c000000000000006044820152fd5b50600254811115610676565b606460405162461bcd60e51b815260206004820152601e60248201527f4e6f7420656d657267656e637920636f6d6d6974746565206d656d62657200006044820152fd5b34610401576040366003190112610401576107c4614195565b6001600160a01b038116906024356107dd83151561469c565b6107e9338414156146e7565b80151580610ac1575b15610a7d5733600052600d602052604060002060009260005b8254811015610a7457856001600160a01b036108278386614275565b505416146108375760010161080b565b839450808394600161084f6108589460039697614275565b50015584614275565b5001600160ff1982541617905560015b156108ba575b505033600052600e602052604060002082600052602052806040600020556040519081527f1f8074952783822b6652f64641272fbcb06c7f5308062b8aa671490f904ef4ef60203392a3005b9290916001600160a01b036000945b1680151580610a6a575b1561095257600052600b6020526001600160a01b03604060002054169333851461090e576109086001600160a01b0391614aed565b946108c9565b606460405162461bcd60e51b815260206004820152601c60248201527f43697263756c61722064656c65676174696f6e206465746563746564000000006044820152fd5b509190926005811015610a265760405161096b816140c3565b848152602081019284845260408201928352606082019060018252805468010000000000000000811015610a10576109a891600182018155614275565b9390936109fa576109f3946001600160a01b03806003955116166001600160a01b031986541617855551600185015551600284015551151591019060ff801983541691151516179055565b828061086e565b634e487b7160e01b600052600060045260246000fd5b634e487b7160e01b600052604160045260246000fd5b606460405162461bcd60e51b815260206004820152601960248201527f44656c65676174696f6e20636861696e20746f6f2064656570000000000000006044820152fd5b50600a85106108d3565b50909192610868565b606460405162461bcd60e51b815260206004820152601460248201527f576569676874206d75737420626520312d3130300000000000000000000000006044820152fd5b5060648111156107f2565b346104015760c03660031901126104015760043560058110156104015760243567ffffffffffffffff811161040157610b0990369060040161420b565b610b116141c1565b9160643567ffffffffffffffff811161040157610b3290369060040161420b565b9060a43591821515830361040157602094610b509460843593614b8e565b604051908152f35b34610401576000366003190112610401576020601854604051908152f35b346104015760203660031901126104015760043580151580610cb1575b610b9c906142e4565b8060005260016020526001600160a01b03600160406000200154163303610c6d57806000526001602052600b60406000200160ff8154166006811015610701578015908115610c62575b5015610c1e57805460ff191660051790557f416e669c63d9a3a5e36ee7cc7e2104b8db28ccd286aa18966e98fa230c73b08c600080a2005b606460405162461bcd60e51b815260206004820152600d60248201527f43616e6e6f742063616e63656c000000000000000000000000000000000000006044820152fd5b600191501483610be6565b606460405162461bcd60e51b815260206004820152601460248201527f4e6f742070726f706f73616c2063726561746f720000000000000000000000006044820152fd5b50600254811115610b93565b34610401576000366003190112610401576020600254604051908152f35b346104015760803660031901126104015760043567ffffffffffffffff811161040157610d0c90369060040161420b565b60243567ffffffffffffffff811161040157610d2c90369060040161420b565b6044359160058310156104015760643567ffffffffffffffff811161040157610d5990369060040161420b565b610d616151b0565b610d6c601b54614aed565b9081601b5560405193610d7e856140df565b83855260208501908152610d96604086019687614795565b60608501918252608085019260018452600052601a6020526040600020945180519067ffffffffffffffff8211610a1057610ddb82610dd58954614006565b89614b47565b602090601f831160011461105157610e0c929160009183610fdf575b50508160011b916000199060031b1c19161790565b85555b518051600186019167ffffffffffffffff8211610a1057610e3a82610e348554614006565b85614b47565b602090601f8311600114610fea57610e6a929160009183610fdf5750508160011b916000199060031b1c19161790565b90555b6002840194519460058610156107015760009560ff8019835416911617905560038401905180519067ffffffffffffffff8211610fcb5795602096610ebc83610eb68654614006565b86614b47565b8791601f8411600114610f5e5783600494610f0f9794610f489a9794610ef69492610f535750508160011b916000199060031b1c19161790565b90555b51151591019060ff801983541691151516179055565b7f7ae5a1ac3f32e29b3ae7ab2ec7df94a50bfed4214cbcf9bb61caf83485471224601b5492839260405191829187835287830190614147565b0390a2604051908152f35b015190508b80610df7565b9190601f198416858452828420935b818110610fb4575093610f0f9693610f489996936001938360049810610f9b575b505050811b019055610ef9565b015160001960f88460031b161c191690558a8080610f8e565b92938a600181928786015181550195019301610f6d565b602487634e487b7160e01b81526041600452fd5b015190508980610df7565b90601f1983169184600052816000209260005b8181106110395750908460019594939210611020575b505050811b019055610e6d565b015160001960f88460031b161c19169055888080611013565b92936020600181928786015181550195019301610ffd565b90601f1983169188600052816000209260005b8181106110a05750908460019594939210611087575b505050811b018555610e0f565b015160001960f88460031b161c1916905588808061107a565b92936020600181928786015181550195019301611064565b34610401576040366003190112610401576110d1614195565b6001600160a01b036110e16141ab565b9116600052600e6020526001600160a01b03604060002091166000526020526020604060002054604051908152f35b346104015760003660031901126104015760206001600160a01b0360115416604051908152f35b34610401576111453661425f565b9061114e6151b0565b601455601555005b34610401576101a0366003190112610401576000604051611176816140df565b6004358152611183614250565b90602081019182526040810191604435835260608201606435815261012060831936011261155e57604051916111b8836140c3565b3660a3121561155a576111cc3660846142a7565b83523660e3121561155a5760409283516111e68582614118565b80366101441161152a5760c4905b6101448210611532575050602082015236610163121561152e5761121a366101446142a7565b84820152366101a3121561152e578351611235602082614118565b80366101a41161152a57610184905b6101a4821061151a5750506060820152608085019081526001600160a01b0360115416156114d75782518752601060205260ff8488205416611494575160600151511561145157815186526010602052828620600160ff198254161790558351905115159085519181885260016020528488209260ff600b85015416600681101561143d577f195eb45632ec5377edd6382d85b694820bb0a42bcbf472e8e445dab61aa5fb68969492602096949261131f60017f77a255f45c79d26605c257d8dfc37f9a619f53963ddbed1e95aa0aab1c801cee94146143c5565b6001600160a01b038751898101908682528460f81b8a82015283604182015242606182015260618152611353608182614118565b51902016948c600287600c84016001600160a01b0382168452808d5261137f60ff8d8620541615614651565b8b519361138b856140c3565b600185526113ce8d8f8701928a8452818801948a86526001600160a01b0360608a01974289521682526020522095511515869060ff801983541691151516179055565b51845461ff00191690151560081b61ff001617845551600184015551910155821561142857600601611401828254614410565b90555b865191151582526020820152426040820152606090a351935194519051908152a380f35b600701611436828254614410565b9055611404565b60248a634e487b7160e01b81526021600452fd5b6064835162461bcd60e51b815260206004820152601060248201527f496e76616c6964205a4b2070726f6f66000000000000000000000000000000006044820152fd5b6064845162461bcd60e51b815260206004820152601560248201527f5a4b2070726f6f6620616c7265616479207573656400000000000000000000006044820152fd5b6064845162461bcd60e51b815260206004820152601360248201527f5a4b207665726966696572206e6f7420736574000000000000000000000000006044820152fd5b8135815260209182019101611244565b8880fd5b8680fd5b36601f83011215611556576020879161154b36856142a7565b8152019101906111f4565b8980fd5b8580fd5b8480fd5b346104015760403660031901126104015761157b614195565b6001600160a01b03602435911660005260126020526040600020908154811015610401576115a891614275565b5080546115e960018301549260ff60036002830154920154169060405194859485926060929594919560808501968552602085015260408401521515910152565b0390f35b3461040157604036600319011261040157600435611609614250565b9080151580611797575b61161c906142e4565b80600052600160205260406000209160ff600b840154166006811015610701577f77a255f45c79d26605c257d8dfc37f9a619f53963ddbed1e95aa0aab1c801cee9161166d600161177d93146143c5565b61167d60098601544210156145bb565b61168d600a860154421115614606565b600c8501946001600160a01b033316600052856020526116b560ff6040600020541615614651565b6116be33614828565b956116ca871515614afc565b6002604051916116d9836140c3565b6001835260208301851515815260408401908a8252611724604060608701944286526000906001600160a01b03331682526020522095511515869060ff801983541691151516179055565b51845461ff00191690151560081b61ff001617845551600184015551910155811561178257600601611757868254614410565b90555b604051918291339642918460409194939260608201951515825260208201520152565b0390a3005b600701611790868254614410565b905561175a565b50600254811115611613565b34610401576020366003190112610401576001600160a01b036117c4614195565b1660005260136020526020604060002054604051908152f35b34610401576020366003190112610401576004356000610140604051611802816140fb565b8281528260208201528260408201526060808201528260808201528260a08201528260c08201528260e082015282610100820152826101208201520152801515806119ae575b611851906142e4565b600052600160205260406000208054600182015491600681015490600781015460088201546009830154600a84015491600b85015460ff1693600e86015460ff1695604051986118a08a6140fb565b895260208901996001600160a01b0381168b5260408a019060a01c60ff166118c89082614795565b604051806002819401906118db91614040565b036118e69083614118565b60608a0191825260808a0198895260a08a0192835260c08a0193845260e08a019485526101008a019586526101208a019660068110156107015787526101408a0197151588526040519a8b9a60208c525160208c0152516001600160a01b031660408b01525160608a016119599161413a565b51608089016101609052610180890161197191614147565b965160a08901525160c08801525160e087015251610100860152516101208501525161014084016119a191614188565b5115156101608301520390f35b50600254811115611848565b34610401576020366003190112610401576004356000526010602052602060ff604060002054166040519015158152f35b346104015760203660031901126104015760043580151580611b5d575b611a11906142e4565b80600052600160205260406000209060ff600b830154166006811015610701576001611a3d91146143c5565b611a4d60098301544210156145bb565b611a5d600a830154421115614606565b6008600c8301926001600160a01b03331660005283602052611a8760ff6040600020541615614651565b611a9033614828565b93611a9c851515614afc565b600260405191611aab836140c3565b6001835260208301600081526040840190888252611af5604060608701944286526000906001600160a01b03331682526020522095511515869060ff801983541691151516179055565b51151561ff00855491881b169061ff0019161784555160018401555191015501611b20838254614410565b9055604051916000835260208301524260408301527f77a255f45c79d26605c257d8dfc37f9a619f53963ddbed1e95aa0aab1c801cee60603393a3005b50600254811115611a08565b3461040157606036600319011261040157611b82614195565b611b8a6141ab565b90611b936141c1565b7ff0c57e16840df040f15088dc2f81fe391c3923bec73e23a9662efc9c229c6a00549160ff8360401c16159367ffffffffffffffff841680159081611e40575b6001149081611e36575b159081611e2d575b50611e035767ffffffffffffffff1984166001177ff0c57e16840df040f15088dc2f81fe391c3923bec73e23a9662efc9c229c6a00556001600160a01b03938492839187611dc4575b50611c37615723565b611c3f615723565b611c48336150f1565b611c50615723565b611c58615723565b60017f9b779b17422d0df92223018b32b4d1fa46e071723d6817e2486d003becc55f0055611c84615723565b166001600160a01b03196000541617600055166001600160a01b0319601f541617601f55166001600160a01b0319601154161760115562093a8060035562015180600455683635c9adc5dea0000060055569021e19e0c9bab24000006006556202a300600755690a968163f0a57b400000600855620151806009556301e133806014556002601555662386f26fc1000060185560646019556003601e556201518060225533600052600a6020526040600020600160ff19825416179055611d4757005b68ff0000000000000000197ff0c57e16840df040f15088dc2f81fe391c3923bec73e23a9662efc9c229c6a0054167ff0c57e16840df040f15088dc2f81fe391c3923bec73e23a9662efc9c229c6a00557fc7f505b2f371ae2175ee4913f4499e1f2633a7b5936321eed1cdaeb6115181d2602060405160018152a1005b68ffffffffffffffffff191668010000000000000001177ff0c57e16840df040f15088dc2f81fe391c3923bec73e23a9662efc9c229c6a005587611c2e565b7ff92ee8a90000000000000000000000000000000000000000000000000000000060005260046000fd5b90501586611be5565b303b159150611bdd565b869150611bd3565b34610401576000366003190112610401576020600854604051908152f35b346104015760403660031901126104015760806040600435611e866141ab565b90600060608451611e96816140c3565b8281528260208201528286820152015280151580611f35575b611eb8906142e4565b6000526001602052600c82600020016001600160a01b0360009216825260205220604051611ee5816140c3565b81549160ff831615159283835260ff602084019160081c16151581526060600260018401549360408601948552015493019283526040519384525115156020840152516040830152516060820152f35b50600254811115611eaf565b34610401576020366003190112610401576001600160a01b03611f62614195565b611f6a6151b0565b166000908152600a60205260409020805460ff19166001179055005b34610401576000366003190112610401576020600554604051908152f35b346104015760203660031901126104015760043580600052601c6020526040600020818154036121b75733600052601d60205260ff604060002054161561217357600381016001600160a01b0333166000528060205260ff6040600020541661212f5761201860ff60058401541615614aa2565b6001600160a01b0333166000526020526040600020600160ff19825416179055600260048201916120498354614aed565b80935533847fbb7bdee2a70d2bfc3187883cd87700c1bcce30e29f11f3b25671b64412983631600080a30154111561207d57005b80600052601c602052600560406000200161209c60ff82541615614aa2565b816000526001602052604060002090600b82019060ff8254166006811015610701577f948f4a9cd986f1118c3fbd459f7a22b23c0693e1ca3ef06a6a8be5aa7d39cc03936020936106e060026120f294146150a6565b815460ff191660011790915560405190847fcf794100bfbd100de0808c8db99945f7deb9005015fd219007c340d235009e12600080a215158152a2005b606460405162461bcd60e51b815260206004820152600e60248201527f416c7265616479207369676e65640000000000000000000000000000000000006044820152fd5b606460405162461bcd60e51b815260206004820152601560248201527f4e6f7420617574686f72697a6564207369676e657200000000000000000000006044820152fd5b606460405162461bcd60e51b815260206004820152601560248201527f4d756c74692d736967206e6f7420656e61626c656400000000000000000000006044820152fd5b34610401576000366003190112610401576115e9604080519061221e8183614118565b600582527f352e302e30000000000000000000000000000000000000000000000000000000602083015251918291602083526020830190614147565b346104015760203660031901126104015760043567ffffffffffffffff81116104015760c06003198236030112610401576040519060c0820182811067ffffffffffffffff821117610a10576040528060040135825260248101359182151583036104015760208101928352604081019060448301358252606081016064840135815260808201936084810135855260a48101359067ffffffffffffffff821161040157600461230d923692010161420b565b9360a083019485528051421161263257825191865115159185519151905191604051936020850195865260408501526060840152608083015260a082015260a0815261235a60c082614118565b5190209182600052600f60205260ff604060002054166125ee576123c66123cf9460405160208101907f19457468657265756d205369676e6564204d6573736167653a0a333200000000825286603c820152603c81526123bb605c82614118565b51902090519061562a565b90959195615666565b6001600160a01b0384169384156125aa576123eb825191614828565b106125665782600052600f6020526040600020600160ff19825416179055815190855115159281519280600052600160205260406000209060ff600b830154166006811015610701577f8b4c39b7b7073b8fddf4029b82722157413281409faaa4484728052440c7f0e6966040968a9461248860017f77a255f45c79d26605c257d8dfc37f9a619f53963ddbed1e95aa0aab1c801cee95146143c5565b600c810186600052806020526124a560ff8b600020541615614651565b60028a51916124b3836140c3565b60018352602083018681528c8401908682526124f18e8c606088019542875260009182526020522095511515869060ff801983541691151516179055565b51845461ff00191690151560081b61ff001617845551600184015551910155821561255157600601612524828254614410565b90555b875191151582526020820152426040820152606090a35195511515905182519182526020820152a4005b60070161255f828254614410565b9055612527565b606460405162461bcd60e51b815260206004820152601960248201527f496e73756666696369656e7420766f74696e6720706f776572000000000000006044820152fd5b606460405162461bcd60e51b815260206004820152601160248201527f496e76616c6964207369676e61747572650000000000000000000000000000006044820152fd5b606460405162461bcd60e51b815260206004820152601560248201527f566f746520616c726561647920657865637574656400000000000000000000006044820152fd5b606460405162461bcd60e51b815260206004820152601460248201527f566f746520646561646c696e65207061737365640000000000000000000000006044820152fd5b34610401576000366003190112610401576020601454604051908152f35b34610401576020366003190112610401576020610b506126b2614195565b614828565b346104015760203660031901126104015760206126e7600435801515806126f6575b6126e2906142e4565b6147a1565b6126f46040518092614188565bf35b506002548111156126d9565b34610401576020366003190112610401576001600160a01b03612723614195565b16600052600a602052602060ff604060002054166040519015158152f35b346104015760003660031901126104015760206001600160a01b037f9016d09d72d40fdae2fd8ceac6b6234c7706214fd39c1cd1e609a0528c1993005416604051908152f35b34610401576040366003190112610401576127a0614195565b6001600160a01b036024359116600052600d60205260406000208054821015610401576080916127cf91614275565b506001600160a01b038154169060018101549060ff6003600283015492015416916040519384526020840152604083015215156060820152f35b3461040157602036600319011261040157600435600052601a6020526128ac6040600020604051906128468261283f8184614040565b0383614118565b6128d2604051916128658361285e8160018501614040565b0384614118565b60ff600282015416906128c56128ba60ff6004604051946128948661288d8160038501614040565b0387614118565b0154169560405198899860a08a5260a08a0190614147565b9088820360208a0152614147565b92604087019061413a565b8482036060860152614147565b90151560808301520390f35b3461040157610100366003190112610401576128f86151b0565b60048035600355602435905560443560055560643560065560843560075560a43560085560c43560095560e435602255005b34610401576129383661425f565b8115612bc55780151580612bb9575b15612b75576001600160a01b03600054166040516370a0823160e01b8152336004820152602081602481855afa8015612af0578491600091612b40575b5010612afc5760206000916064604051809481937f23b872dd0000000000000000000000000000000000000000000000000000000083523360048401523060248401528860448401525af18015612af0576129e791600091612ac1575b5061474a565b336000526012602052604060002060405190612a02826140c3565b83825260208201914283526040810191848352606082019060018252805468010000000000000000811015610a1057612a4091600182018155614275565b9390936109fa57612a739460039351855551600185015551600284015551151591019060ff801983541691151516179055565b3360005260136020526040600020612a8c838254614410565b905560405191825260208201527fd741e738a23fd18a03a26522320d9fc6cac1fed483e215ea9150fbc2fc43385d60403392a2005b612ae3915060203d602011612ae9575b612adb8183614118565b810190614732565b846129e1565b503d612ad1565b6040513d6000823e3d90fd5b606460405162461bcd60e51b815260206004820152601460248201527f496e73756666696369656e742062616c616e63650000000000000000000000006044820152fd5b9150506020813d602011612b6d575b81612b5c60209383614118565b810103126104015783905185612984565b3d9150612b4f565b606460405162461bcd60e51b815260206004820152601560248201527f496e76616c6964206c6f636b206475726174696f6e00000000000000000000006044820152fd5b50601454811115612947565b606460405162461bcd60e51b815260206004820152601760248201527f416d6f756e74206d75737420626520706f7369746976650000000000000000006044820152fd5b34610401576020366003190112610401576001600160a01b03612c2a614195565b16600052600c6020526020604060002054604051908152f35b3461040157608036600319011261040157600435612c5f6141ab565b906064359081151582036104015780600052601a60205260ff6004604060002001541615612d4457600052601a60205260406000209060405191612ca2836140df565b604051612cba81612cb38185614040565b0382614118565b835260405192612cd884612cd18160018601614040565b0385614118565b6020810193845260ff60028301541690612cf6604082019283614795565b608060ff600460405195612d1887612d118160038501614040565b0388614118565b60608501968752015416151591015251600581101561070157602094610b509451604435935192614b8e565b606460405162461bcd60e51b815260206004820152601360248201527f54656d706c617465206e6f7420616374697665000000000000000000000000006044820152fd5b3461040157602036600319011261040157600435336000526012602052604060002054811015612f2f57612dc9903360005260126020526040600020614275565b506003810160ff81541615612eeb57612deb6001830154600284015490614410565b4210612ea757600060206001600160a01b038254166044855460405194859384927fa9059cbb00000000000000000000000000000000000000000000000000000000845233600485015260248401525af18015612af057612e5391600091612ac1575061474a565b8154336000526013602052612e6e60406000209182546143b8565b905560ff198154169055546040519081527fe7b379c6c1fa169e9079c25e9143b127637eef8ec8c9d5c06ddb4ab3e119588860203392a2005b606460405162461bcd60e51b815260206004820152601760248201527f4c6f636b20706572696f64206e6f7420657870697265640000000000000000006044820152fd5b606460405162461bcd60e51b815260206004820152600f60248201527f4c6f636b206e6f742061637469766500000000000000000000000000000000006044820152fd5b606460405162461bcd60e51b815260206004820152601260248201527f496e76616c6964206c6f636b20696e64657800000000000000000000000000006044820152fd5b34610401576000366003190112610401576020600654604051908152f35b3461040157602036600319011261040157600435600052600f602052602060ff604060002054166040519015158152f35b60003660031901126104015761002734602054614410565b3461040157600036600319011261040157612ff36151b0565b60006001600160a01b037f9016d09d72d40fdae2fd8ceac6b6234c7706214fd39c1cd1e609a0528c199300546001600160a01b031981167f9016d09d72d40fdae2fd8ceac6b6234c7706214fd39c1cd1e609a0528c19930055167f8be0079c531659141344cd1fd0a4f28419497f9722a3daafe3b4186f6b6457e08280a3005b34610401576000366003190112610401576020601554604051908152f35b34610401576000366003190112610401576020601e54604051908152f35b346104015760003660031901126104015760206001600160a01b03601f5416604051908152f35b34610401576020366003190112610401576001600160a01b036130f7614195565b1661310381151561469c565b61310f338214156146e7565b336000818152600b6020526040812080546001600160a01b0319811685179091556001600160a01b031691907f3134e8a2e6d97e929a7e54011ea5485d7d196dd5f0ba4d4ef95803e8e3fc257f9080a4005b34610401576020366003190112610401576001600160a01b03613182614195565b1660005260216020526020604060002054604051908152f35b34610401576020366003190112610401576001600160a01b036131bc614195565b16600052600b60205260206001600160a01b0360406000205416604051908152f35b34610401576000366003190112610401576001600160a01b037f00000000000000000000000000000000000000000000000000000000000000001630036132495760206040517f360894a13ba1a3210667c828492db98dca3e2076cc3735a920a3ca505d382bbc8152f35b7fe07c8dba0000000000000000000000000000000000000000000000000000000060005260046000fd5b346104015760203660031901126104015761328c6151b0565b600480356000908152601a6020526040902001805460ff19169055005b34610401576020366003190112610401576020610b506132c7614195565b6132d96132d382614828565b916154f5565b90614410565b6060366003190112610401576044356004358115156024358184036104015782151580613674575b613310906142e4565b82600052600160205260406000209360ff600b86015416600681101561070157600161333c91146143c5565b61334c60098601544210156145bb565b61335c600a860154421115614606565b600c8501946001600160a01b0333166000528560205261338460ff6040600020541615614651565b8215801580613668575b156136245761339f6018548561432f565b8034106135e0578034116135b2575b50670de0b6b3a7640000840290848204670de0b6b3a764000014171561359c576133d7906153bc565b956002604051916133e7836140c3565b600183526020830187815260408401908a8252613430604060608701944286526000906001600160a01b03331682526020522095511515869060ff801983541691151516179055565b51845461ff00191690151560081b61ff001617845551600184015551910155811561358757600601613463868254614410565b90555b33600052601660205260406000209160405193613482856140c3565b858552602085019382855260408601948286526060870191428352805468010000000000000000811015610a10576134bf91600182018155614275565b9290926109fa5761351361177d976003937f77a255f45c79d26605c257d8dfc37f9a619f53963ddbed1e95aa0aab1c801cee9a518655516001860155511515600285019060ff801983541691151516179055565b519101558560005260176020526040600020613530838254614410565b90556040519182526020820152847f0cdc3452ac145ec17857a359ca5669db32e0c59772a4c08d63714f1a7ab93c7f60403393a3604051918291339642918460409194939260608201951515825260208201520152565b600701613595868254614410565b9055613466565b634e487b7160e01b600052601160045260246000fd5b600080806135c18194346143b8565b8181156135d7575b3390f115612af057876133ae565b506108fc6135c9565b606460405162461bcd60e51b815260206004820152601460248201527f496e73756666696369656e74207061796d656e740000000000000000000000006044820152fd5b606460405162461bcd60e51b815260206004820152601560248201527f496e76616c69642063726564697420616d6f756e7400000000000000000000006044820152fd5b5060195484111561338e565b50600254831115613307565b604036600319011261040157613694614195565b60243567ffffffffffffffff8111610401576136b490369060040161420b565b6001600160a01b037f0000000000000000000000000000000000000000000000000000000000000000168030149081156138c6575b50613249576136f66151b0565b6001600160a01b038216916040517f52d1902d000000000000000000000000000000000000000000000000000000008152602081600481875afa60009181613892575b506137535783634c9c8ce360e01b60005260045260246000fd5b807f360894a13ba1a3210667c828492db98dca3e2076cc3735a920a3ca505d382bbc8592036138655750813b1561385157806001600160a01b03197f360894a13ba1a3210667c828492db98dca3e2076cc3735a920a3ca505d382bbc5416177f360894a13ba1a3210667c828492db98dca3e2076cc3735a920a3ca505d382bbc557fbc7cd75a20ee27fd9adebab32041f755214dbc6bffa90cc0225b39da2e5c2d3b600080a281511561381e5760008083602061058795519101845af4613818615211565b91615805565b50503461382757005b7fb398979f0000000000000000000000000000000000000000000000000000000060005260046000fd5b634c9c8ce360e01b60005260045260246000fd5b7faa1d49a40000000000000000000000000000000000000000000000000000000060005260045260246000fd5b9091506020813d6020116138be575b816138ae60209383614118565b8101031261040157519085613739565b3d91506138a1565b90506001600160a01b037f360894a13ba1a3210667c828492db98dca3e2076cc3735a920a3ca505d382bbc54161415836136e9565b34610401576020366003190112610401576001600160a01b0361391c614195565b16600052601d602052602060ff604060002054166040519015158152f35b346104015760203660031901126104015760043560005260176020526020604060002054604051908152f35b34610401576040366003190112610401576004356139826141ab565b90801515806139ca575b613995906142e4565b60005260016020526001600160a01b03600c6040600020019116600052602052602060ff604060002054166040519015158152f35b5060025481111561398c565b34610401576020366003190112610401576001600160a01b036139f7614195565b6139ff6151b0565b166000908152600a60205260409020805460ff19169055005b34610401576000366003190112610401576020600454604051908152f35b346104015760003660031901126104015760208054604051908152f35b34610401576000366003190112610401576020600754604051908152f35b3461040157602036600319011261040157600435600052601c602052604060002080546115e960028301549260ff60056004830154920154169060405194859485926060929594919560808501968552602085015260408401521515910152565b34610401576000366003190112610401576020601b54604051908152f35b34610401576000366003190112610401576020600954604051908152f35b346104015760203660031901126104015760043580151580613bda575b613b34906142e4565b60027f9b779b17422d0df92223018b32b4d1fa46e071723d6817e2486d003becc55f005414613bb057613b8a9060027f9b779b17422d0df92223018b32b4d1fa46e071723d6817e2486d003becc55f005561441d565b60017f9b779b17422d0df92223018b32b4d1fa46e071723d6817e2486d003becc55f0055005b7f3ee5aeb50000000000000000000000000000000000000000000000000000000060005260046000fd5b50600254811115613b2b565b34610401576040366003190112610401576004356001600160a01b0381168091036104015760008080809360243590613c1d6151b0565b613c3582602054613c308282101561436d565b6143b8565b602055828215613c48575bf115612af057005b506108fc613c40565b346104015760603660031901126104015760043560243567ffffffffffffffff8111610401573660238201121561040157806004013591613c91836141d7565b91613c9f6040519384614118565b83835260208301906024829560051b8201019036821161040157602401915b818310613e2557505050604435613cd36151b0565b81151580613e19575b613ce5906142e4565b80835110613dd55781600052601c6020526040600020918255600182019383519067ffffffffffffffff8211610a1057680100000000000000008211610a10578554828755808310613db7575b509460005260206000209460005b828110613d9a57856005868660028201550160ff19815416905560005b815181101561058757806001600160a01b03613d7b60019385614359565b5116600052601d60205260406000208260ff1982541617905501613d5d565b60019060206001600160a01b038451169301928189015501613d40565b613dcf90876000528360206000209182019101614342565b86613d32565b606460405162461bcd60e51b815260206004820152601e60248201527f496e76616c6964207369676e617475726520726571756972656d656e747300006044820152fd5b50600254821115613cdc565b82356001600160a01b038116810361040157815260209283019201613cbe565b34610401576000366003190112610401576020602254604051908152f35b34610401576000366003190112610401576020600354604051908152f35b34610401576020366003190112610401576001600160a01b03613ea2614195565b613eaa6151b0565b166001600160a01b03196011541617601155600080f35b34610401576020366003190112610401576004356000526001602052604060002080549060018101549280806002840190613efb91614040565b03613f069082614118565b6040519182613f188160038401614040565b03613f239084614118565b60048101546001600160a01b031692600582015460068301546007840154600885015490600986015492600a87015494600b88015460ff1696600d89015498600e015460ff16996040519d8e9d8e528d6001600160a01b03821660208201526040019060a01c60ff1690613f969161413a565b60608d016101e090526101e08d01613fad91614147565b8c810360808e0152613fbe91614147565b9960a08c015260c08b015260e08a01526101008901526101208801526101408701526101608601526101808501613ff491614188565b6101a084015215156101c08301520390f35b90600182811c92168015614036575b602083101461402057565b634e487b7160e01b600052602260045260246000fd5b91607f1691614015565b6000929181549161405083614006565b80835292600181169081156140a6575060011461406c57505050565b60009081526020812093945091925b83831061408c575060209250010190565b60018160209294939454838587010152019101919061407b565b915050602093945060ff929192191683830152151560051b010190565b6080810190811067ffffffffffffffff821117610a1057604052565b60a0810190811067ffffffffffffffff821117610a1057604052565b610160810190811067ffffffffffffffff821117610a1057604052565b90601f8019910116810190811067ffffffffffffffff821117610a1057604052565b9060058210156107015752565b919082519283825260005b848110614173575050826000602080949584010152601f8019910116010190565b80602080928401015182828601015201614152565b9060068210156107015752565b600435906001600160a01b038216820361040157565b602435906001600160a01b038216820361040157565b604435906001600160a01b038216820361040157565b67ffffffffffffffff8111610a105760051b60200190565b67ffffffffffffffff8111610a1057601f01601f191660200190565b81601f8201121561040157602081359101614225826141ef565b926142336040519485614118565b828452828201116104015781600092602092838601378301015290565b60243590811515820361040157565b6040906003190112610401576004359060243590565b80548210156142915760005260206000209060021b0190600090565b634e487b7160e01b600052603260045260246000fd5b91906040805193906142b99085614118565b83906040810192831161040157905b8282106142d457505050565b81358152602091820191016142c8565b156142eb57565b606460405162461bcd60e51b815260206004820152601760248201527f50726f706f73616c20646f6573206e6f742065786973740000000000000000006044820152fd5b8181029291811591840414171561359c57565b81811061434d575050565b60008155600101614342565b80518210156142915760209160051b010190565b1561437457565b606460405162461bcd60e51b815260206004820152601d60248201527f496e73756666696369656e742074726561737572792062616c616e63650000006044820152fd5b9190820391821161359c57565b156143cc57565b606460405162461bcd60e51b815260206004820152601360248201527f50726f706f73616c206e6f7420616374697665000000000000000000000000006044820152fd5b9190820180921161359c57565b8060005260016020526040600020600b81019060ff825416600681101561070157600161444a91146143c5565b600a81015442111561457757600681015461447a61446f600784015480841193614410565b600884015490614410565b8161456a575b501561453157600260ff1983541617825561449d60075442614410565b600d820181905542106144ed576144e26020917f948f4a9cd986f1118c3fbd459f7a22b23c0693e1ca3ef06a6a8be5aa7d39cc0393600460ff19825416179055615241565b6040519015158152a2565b606460405162461bcd60e51b815260206004820152601460248201527f54696d656c6f636b206e6f7420657870697265640000000000000000000000006044820152fd5b50600360ff198254161790557f948f4a9cd986f1118c3fbd459f7a22b23c0693e1ca3ef06a6a8be5aa7d39cc03602060405160008152a2565b9050600654111538614480565b606460405162461bcd60e51b815260206004820152601060248201527f566f74696e67206e6f7420656e646564000000000000000000000000000000006044820152fd5b156145c257565b606460405162461bcd60e51b815260206004820152601260248201527f566f74696e67206e6f74207374617274656400000000000000000000000000006044820152fd5b1561460d57565b606460405162461bcd60e51b815260206004820152600c60248201527f566f74696e6720656e64656400000000000000000000000000000000000000006044820152fd5b1561465857565b606460405162461bcd60e51b815260206004820152600d60248201527f416c726561647920766f746564000000000000000000000000000000000000006044820152fd5b156146a357565b606460405162461bcd60e51b815260206004820152601f60248201527f43616e6e6f742064656c656761746520746f207a65726f2061646472657373006044820152fd5b156146ee57565b606460405162461bcd60e51b815260206004820152601760248201527f43616e6e6f742064656c656761746520746f2073656c660000000000000000006044820152fd5b90816020910312610401575180151581036104015790565b1561475157565b606460405162461bcd60e51b815260206004820152600f60248201527f5472616e73666572206661696c656400000000000000000000000000000000006044820152fd5b60058210156107015752565b6000526001602052604060002060ff600b82015416600681101561070157600181036148235750600a81015442111561481d576006810154906147f860078201549160086147ef8486614410565b91015490614410565b91119081614810575b5061480b57600390565b600290565b9050600654111538614801565b50600190565b905090565b6001600160a01b03811680600052600b6020526001600160a01b036040600020541660008115600014614a1b575050602460206001600160a01b0360005416604051928380926370a0823160e01b82528660048301525afa8015612af0576000906149e7575b61489891506153bc565b90600052600d60205260406000209283546148b2816141d7565b946148c06040519687614118565b818652602086019060005260206000206000915b838310614998575050505060009160005b85518110156149765760606148fa8288614359565b51015161490a575b6001016148e5565b60406149168288614359565b510151600a810290808204600a149015171561359c5780606403906064821161359c57606403614947575b50614902565b8194606461496861496f9360206149606001978d614359565b51015161432f565b0490614410565b9390614941565b509161499091945061498a614995946154f5565b92614410565b614410565b90565b600460206001926040516149ab816140c3565b6001600160a01b03865416815284860154838201526002860154604082015260ff600387015416151560608201528152019201920191906148d4565b506020813d602011614a13575b81614a0160209383614118565b8101031261040157614898905161488e565b3d91506149f4565b60206001600160a01b03825416926024604051809581936370a0823160e01b835260048301525afa908115614a96578091614a5c575b5061489891506153bc565b90506020823d602011614a8e575b81614a7760209383614118565b81010312614a8b5750614898905138614a51565b80fd5b3d9150614a6a565b604051903d90823e3d90fd5b15614aa957565b606460405162461bcd60e51b815260206004820152601060248201527f416c7265616479206578656375746564000000000000000000000000000000006044820152fd5b600019811461359c5760010190565b15614b0357565b606460405162461bcd60e51b815260206004820152600f60248201527f4e6f20766f74696e6720706f77657200000000000000000000000000000000006044820152fd5b9190601f8111614b5657505050565b614b82926000526020600020906020601f840160051c83019310614b84575b601f0160051c0190614342565b565b9091508190614b75565b9092959493614b9c33614828565b851561509d57600854905b1061503457336000526021602052614bc760406000205460225490614410565b4210614ff05784614f70575b614bde600254614aed565b92836002558360005260016020526040600020938455600184016001600160a01b0333166001600160a01b031982541617815560058410156107015780547fffffffffffffffffffffff00ffffffffffffffffffffffffffffffffffffffff74ff00000000000000000000000000000000000000008660a01b16911617905560028401855167ffffffffffffffff8111610a1057614c8681614c808454614006565b84614b47565b6020601f8211600114614f0a579080614cb592600091614eff575b508160011b916000199060031b1c19161790565b90555b60038401885167ffffffffffffffff8111610a1057614cdb81614c808454614006565b6020601f8211600114614e7057817f91046785e39dbc2dbba126b31d2ddb635a475109c485d0bd1a61952789b6e5e59695949392614d3492614df99c9d600092614e655750508160011b916000199060031b1c19161790565b90555b6001600160a01b036004860191166001600160a01b0319825416179055600584015584600014614e5a57614d6d60005b42614410565b92614d8a600982019480865587600014614e515760095490614410565b94600a8201958655614db787600e600b85019460ff198654168655019060ff801983541691151516179055565b86159182614e40575b503360005260216020524260406000205560025497889554965491614de8604051809661413a565b60a0602086015260a0850190614147565b95604084015260608301521560808201528033940390a3614e175790565b807f5128720a64efb221a132f55c0aef8df9f1740000d7a0888511b7d1765d24216a600080a290565b805460ff1916600117905538614dc0565b60035490614410565b614d6d600454614d67565b015190503880610df7565b601f1982169a83600052816000209b60005b818110614ee757509b60019284927f91046785e39dbc2dbba126b31d2ddb635a475109c485d0bd1a61952789b6e5e59998979695614df99e9f10614ece575b505050811b019055614d37565b015160001960f88460031b161c19169055388080614ec1565b838301518e556001909d019c60209384019301614e82565b905088015138614ca1565b601f1982169083600052806000209160005b8a828210614f585750509083600194939210614f3f575b5050811b019055614cb8565b89015160001960f88460031b161c191690553880614f33565b60018495602093958493015181550194019201614f1c565b33600052600a60205260ff60406000205416614bd357608460405162461bcd60e51b815260206004820152603760248201527f4f6e6c7920656d657267656e637920636f6d6d69747465652063616e2063726560448201527f61746520656d657267656e63792070726f706f73616c730000000000000000006064820152fd5b606460405162461bcd60e51b815260206004820152601860248201527f50726f706f73616c20636f6f6c646f776e2061637469766500000000000000006044820152fd5b608460405162461bcd60e51b8152602060048201526024808201527f496e73756666696369656e7420766f74696e6720706f77657220746f2070726f60448201527f706f7365000000000000000000000000000000000000000000000000000000006064820152fd5b60055490614ba7565b156150ad57565b606460405162461bcd60e51b815260206004820152601660248201527f50726f706f73616c206e6f7420737563636565646564000000000000000000006044820152fd5b6001600160a01b03168015615181576001600160a01b037f9016d09d72d40fdae2fd8ceac6b6234c7706214fd39c1cd1e609a0528c19930054826001600160a01b03198216177f9016d09d72d40fdae2fd8ceac6b6234c7706214fd39c1cd1e609a0528c19930055167f8be0079c531659141344cd1fd0a4f28419497f9722a3daafe3b4186f6b6457e0600080a3565b7f1e4fbdf700000000000000000000000000000000000000000000000000000000600052600060045260246000fd5b6001600160a01b037f9016d09d72d40fdae2fd8ceac6b6234c7706214fd39c1cd1e609a0528c199300541633036151e357565b7f118cdaa7000000000000000000000000000000000000000000000000000000006000523360045260246000fd5b3d1561523c573d90615222826141ef565b916152306040519384614118565b82523d6000602084013e565b606090565b600481016001600160a01b03815416156153955760ff600183015460a01c16600581101561070157600414615314576001600160a01b0390541690600360058201549101906040519160009080549061529982614006565b91600181169081156152fd57506001146152c8575b5050916000939181859403925af16152c4615211565b5090565b90915060005260206000206000905b8282106152e9575050820181836152ae565b6001816020925484880152019101906152d7565b60ff191686525050801515028301905081836152ae565b9061532f6005602054920191825490613c308282101561436d565b60205560008080806001600160a01b038654168554905af19182615351615211565b5061535b57505090565b60206001600160a01b037f0e0155fc4999bbb125969d44fd6a09db6b8682e20c096fe64f43c010ec14e1be9254169254604051908152a290565b5050600190565b81156153a6570490565b634e487b7160e01b600052601260045260246000fd5b6001811115614995578060017001000000000000000000000000000000008310156154df575b600482680100000000000000006154919410156154d2575b6401000000008110156154c5575b620100008110156154b8575b6101008110156154ac575b60108110156154a0575b1015615498575b60030260011c615440818461539c565b0160011c61544e818461539c565b0160011c61545c818461539c565b0160011c61546a818461539c565b0160011c615478818461539c565b0160011c615486818461539c565b0160011c809261539c565b8111900390565b60011b615430565b811c9160021b91615429565b60081c91811b9161541f565b60101c9160081b91615414565b60201c9160101b91615408565b60401c9160201b916153fa565b5050608081901c680100000000000000006153e2565b6001600160a01b0316600052601260205260406000208054615516816141d7565b916155246040519384614118565b818352602083019060005260206000206000915b8383106155e4575050505060009060005b81518110156155df57606061555e8284614359565b51015161556e575b600101615549565b916155d7600191670de0b6b3a764000061496861559960206155908989614359565b510151426143b8565b6155be6155a9601554809361432f565b60406155b58b8b614359565b5101519061539c565b81808210911802186155d08888614359565b515161432f565b929050615566565b505090565b600460206001926040516155f7816140c3565b8554815284860154838201526002860154604082015260ff60038701541615156060820152815201920192019190615538565b815191906041830361565b5761565492506020820151906060604084015193015160001a9061577c565b9192909190565b505060009160029190565b9190916004811015610701578061567c57509050565b6000600182036156b0577ff645eedf0000000000000000000000000000000000000000000000000000000060005260046000fd5b50600281036156e757827ffce698f70000000000000000000000000000000000000000000000000000000060005260045260246000fd5b90916003600092146156f7575050565b602492507fd78bce0c000000000000000000000000000000000000000000000000000000008252600452fd5b60ff7ff0c57e16840df040f15088dc2f81fe391c3923bec73e23a9662efc9c229c6a005460401c161561575257565b7fd7e6bcf80000000000000000000000000000000000000000000000000000000060005260046000fd5b91907f7fffffffffffffffffffffffffffffff5d576e7357a4501ddfe92f46681b20a084116157f9579160209360809260ff60009560405194855216868401526040830152606082015282805260015afa15612af0576000516001600160a01b038116156157ed5790600090600090565b50600090600190600090565b50505060009160039190565b90615844575080511561581a57602081519101fd5b7fd6bda2750000000000000000000000000000000000000000000000000000000060005260046000fd5b8151158061588c575b615855575090565b6001600160a01b03907f9996b315000000000000000000000000000000000000000000000000000000006000521660045260246000fd5b50803b1561584d56fea2646970667358221220edc5bc137f033fbeae24f9d302e3f1970741f845fe1b87228898783f38260d4764736f6c634300081c0033",
  "linkReferences": {},
  "deployedLinkReferences": {}
}