{
  "_format": "hh-sol-artifact-1",
  "contractName": "GovernanceDAO",
  "sourceName": "contracts/GovernanceDAO.sol",
  "abi": [
    {
      "inputs": [
        {
          "internalType": "address",
          "name": "target",
          "type": "address"
        }
      ],
      "name": "AddressEmptyCode",
      "type": "error"
    },
    {
      "inputs": [],
      "name": "ECDSAInvalidSignature",
      "type": "error"
    },
    {
      "inputs": [
        {
          "internalType": "uint256",
          "name": "length",
          "type": "uint256"
        }
      ],
      "name": "ECDSAInvalidSignatureLength",
      "type": "error"
    },
    {
      "inputs": [
        {
          "internalType": "bytes32",
          "name": "s",
          "type": "bytes32"
        }
      ],
      "name": "ECDSAInvalidSignatureS",
      "type": "error"
    },
    {
      "inputs": [
        {
          "internalType": "address",
          "name": "implementation",
          "type": "address"
        }
      ],
      "name": "ERC1967InvalidImplementation",
      "type": "error"
    },
    {
      "inputs": [],
      "name": "ERC1967NonPayable",
      "type": "error"
    },
    {
      "inputs": [],
      "name": "FailedCall",
      "type": "error"
    },
    {
      "inputs": [],
      "name": "InvalidInitialization",
      "type": "error"
    },
    {
      "inputs": [],
      "name": "NotInitializing",
      "type": "error"
    },
    {
      "inputs": [
        {
          "internalType": "address",
          "name": "owner",
          "type": "address"
        }
      ],
      "name": "OwnableInvalidOwner",
      "type": "error"
    },
    {
      "inputs": [
        {
          "internalType": "address",
          "name": "account",
          "type": "address"
        }
      ],
      "name": "OwnableUnauthorizedAccount",
      "type": "error"
    },
    {
      "inputs": [],
      "name": "ReentrancyGuardReentrantCall",
      "type": "error"
    },
    {
      "inputs": [],
      "name": "UUPSUnauthorizedCallContext",
      "type": "error"
    },
    {
      "inputs": [
        {
          "internalType": "bytes32",
          "name": "slot",
          "type": "bytes32"
        }
      ],
      "name": "UUPSUnsupportedProxiableUUID",
      "type": "error"
    },
    {
      "anonymous": false,
      "inputs": [
        {
          "indexed": true,
          "internalType": "address",
          "name": "delegator",
          "type": "address"
        },
        {
          "indexed": true,
          "internalType": "address",
          "name": "fromDelegate",
          "type": "address"
        },
        {
          "indexed": true,
          "internalType": "address",
          "name": "toDelegate",
          "type": "address"
        }
      ],
      "name": "DelegateChanged",
      "type": "event"
    },
    {
      "anonymous": false,
      "inputs": [
        {
          "indexed": true,
          "internalType": "address",
          "name": "delegator",
          "type": "address"
        },
        {
          "indexed": true,
          "internalType": "address",
          "name": "delegatee",
          "type": "address"
        }
      ],
      "name": "DelegationRemoved",
      "type": "event"
    },
    {
      "anonymous": false,
      "inputs": [
        {
          "indexed": true,
          "internalType": "uint256",
          "name": "proposalId",
          "type": "uint256"
        }
      ],
      "name": "EmergencyDeclared",
      "type": "event"
    },
    {
      "anonymous": false,
      "inputs": [
        {
          "indexed": true,
          "internalType": "bytes32",
          "name": "voteHash",
          "type": "bytes32"
        },
        {
          "indexed": true,
          "internalType": "address",
          "name": "voter",
          "type": "address"
        },
        {
          "indexed": true,
          "internalType": "uint256",
          "name": "proposalId",
          "type": "uint256"
        },
        {
          "indexed": false,
          "internalType": "bool",
          "name": "support",
          "type": "bool"
        },
        {
          "indexed": false,
          "internalType": "uint256",
          "name": "weight",
          "type": "uint256"
        }
      ],
      "name": "GaslessVoteCast",
      "type": "event"
    },
    {
      "anonymous": false,
      "inputs": [
        {
          "indexed": false,
          "internalType": "uint64",
          "name": "version",
          "type": "uint64"
        }
      ],
      "name": "Initialized",
      "type": "event"
    },
    {
      "anonymous": false,
      "inputs": [
        {
          "indexed": true,
          "internalType": "uint256",
          "name": "proposalId",
          "type": "uint256"
        }
      ],
      "name": "MultiSigExecuted",
      "type": "event"
    },
    {
      "anonymous": false,
      "inputs": [
        {
          "indexed": true,
          "internalType": "uint256",
          "name": "proposalId",
          "type": "uint256"
        },
        {
          "indexed": true,
          "internalType": "address",
          "name": "signer",
          "type": "address"
        }
      ],
      "name": "MultiSigSigned",
      "type": "event"
    },
    {
      "anonymous": false,
      "inputs": [
        {
          "indexed": true,
          "internalType": "address",
          "name": "previousOwner",
          "type": "address"
        },
        {
          "indexed": true,
          "internalType": "address",
          "name": "newOwner",
          "type": "address"
        }
      ],
      "name": "OwnershipTransferred",
      "type": "event"
    },
    {
      "anonymous": false,
      "inputs": [
        {
          "indexed": true,
          "internalType": "uint256",
          "name": "proposalId",
          "type": "uint256"
        }
      ],
      "name": "ProposalCancelled",
      "type": "event"
    },
    {
      "anonymous": false,
      "inputs": [
        {
          "indexed": true,
          "internalType": "uint256",
          "name": "proposalId",
          "type": "uint256"
        },
        {
          "indexed": true,
          "internalType": "address",
          "name": "proposer",
          "type": "address"
        },
        {
          "indexed": false,
          "internalType": "enum GovernanceDAO.ProposalType",
          "name": "proposalType",
          "type": "uint8"
        },
        {
          "indexed": false,
          "internalType": "string",
          "name": "description",
          "type": "string"
        },
        {
          "indexed": false,
          "internalType": "uint256",
          "name": "startTime",
          "type": "uint256"
        },
        {
          "indexed": false,
          "internalType": "uint256",
          "name": "endTime",
          "type": "uint256"
        },
        {
          "indexed": false,
          "internalType": "bool",
          "name": "emergency",
          "type": "bool"
        }
      ],
      "name": "ProposalCreated",
      "type": "event"
    },
    {
      "anonymous": false,
      "inputs": [
        {
          "indexed": true,
          "internalType": "uint256",
          "name": "proposalId",
          "type": "uint256"
        },
        {
          "indexed": false,
          "internalType": "bool",
          "name": "success",
          "type": "bool"
        }
      ],
      "name": "ProposalExecuted",
      "type": "event"
    },
    {
      "anonymous": false,
      "inputs": [
        {
          "indexed": true,
          "internalType": "uint256",
          "name": "templateId",
          "type": "uint256"
        },
        {
          "indexed": false,
          "internalType": "string",
          "name": "name",
          "type": "string"
        }
      ],
      "name": "ProposalTemplateCreated",
      "type": "event"
    },
    {
      "anonymous": false,
      "inputs": [
        {
          "indexed": true,
          "internalType": "uint256",
          "name": "proposalId",
          "type": "uint256"
        },
        {
          "indexed": true,
          "internalType": "address",
          "name": "voter",
          "type": "address"
        },
        {
          "indexed": false,
          "internalType": "uint256",
          "name": "credits",
          "type": "uint256"
        },
        {
          "indexed": false,
          "internalType": "bool",
          "name": "support",
          "type": "bool"
        }
      ],
      "name": "QuadraticVoteCast",
      "type": "event"
    },
    {
      "anonymous": false,
      "inputs": [
        {
          "indexed": true,
          "internalType": "address",
          "name": "user",
          "type": "address"
        },
        {
          "indexed": false,
          "internalType": "uint256",
          "name": "amount",
          "type": "uint256"
        },
        {
          "indexed": false,
          "internalType": "uint256",
          "name": "duration",
          "type": "uint256"
        }
      ],
      "name": "TokensLocked",
      "type": "event"
    },
    {
      "anonymous": false,
      "inputs": [
        {
          "indexed": true,
          "internalType": "address",
          "name": "user",
          "type": "address"
        },
        {
          "indexed": false,
          "internalType": "uint256",
          "name": "amount",
          "type": "uint256"
        }
      ],
      "name": "TokensUnlocked",
      "type": "event"
    },
    {
      "anonymous": false,
      "inputs": [
        {
          "indexed": true,
          "internalType": "address",
          "name": "to",
          "type": "address"
        },
        {
          "indexed": false,
          "internalType": "uint256",
          "name": "amount",
          "type": "uint256"
        }
      ],
      "name": "TreasuryTransfer",
      "type": "event"
    },
    {
      "anonymous": false,
      "inputs": [
        {
          "indexed": true,
          "internalType": "address",
          "name": "implementation",
          "type": "address"
        }
      ],
      "name": "Upgraded",
      "type": "event"
    },
    {
      "anonymous": false,
      "inputs": [
        {
          "indexed": true,
          "internalType": "uint256",
          "name": "proposalId",
          "type": "uint256"
        },
        {
          "indexed": true,
          "internalType": "address",
          "name": "voter",
          "type": "address"
        },
        {
          "indexed": false,
          "internalType": "bool",
          "name": "support",
          "type": "bool"
        },
        {
          "indexed": false,
          "internalType": "uint256",
          "name": "weight",
          "type": "uint256"
        },
        {
          "indexed": false,
          "internalType": "uint256",
          "name": "timestamp",
          "type": "uint256"
        }
      ],
      "name": "VoteCast",
      "type": "event"
    },
    {
      "anonymous": false,
      "inputs": [
        {
          "indexed": true,
          "internalType": "address",
          "name": "delegator",
          "type": "address"
        },
        {
          "indexed": true,
          "internalType": "address",
          "name": "delegatee",
          "type": "address"
        },
        {
          "indexed": false,
          "internalType": "uint256",
          "name": "weight",
          "type": "uint256"
        }
      ],
      "name": "WeightedDelegation",
      "type": "event"
    },
    {
      "anonymous": false,
      "inputs": [
        {
          "indexed": true,
          "internalType": "bytes32",
          "name": "commitment",
          "type": "bytes32"
        },
        {
          "indexed": true,
          "internalType": "uint256",
          "name": "proposalId",
          "type": "uint256"
        },
        {
          "indexed": false,
          "internalType": "uint256",
          "name": "weight",
          "type": "uint256"
        }
      ],
      "name": "ZKVoteCast",
      "type": "event"
    },
    {
      "inputs": [],
      "name": "UPGRADE_INTERFACE_VERSION",
      "outputs": [
        {
          "internalType": "string",
          "name": "",
          "type": "string"
        }
      ],
      "stateMutability": "view",
      "type": "function"
    },
    {
      "inputs": [
        {
          "internalType": "uint256",
          "name": "_proposalId",
          "type": "uint256"
        }
      ],
      "name": "abstain",
      "outputs": [],
      "stateMutability": "nonpayable",
      "type": "function"
    },
    {
      "inputs": [
        {
          "internalType": "address",
          "name": "member",
          "type": "address"
        }
      ],
      "name": "addEmergencyCommitteeMember",
      "outputs": [],
      "stateMutability": "nonpayable",
      "type": "function"
    },
    {
      "inputs": [
        {
          "internalType": "uint256",
          "name": "_proposalId",
          "type": "uint256"
        }
      ],
      "name": "cancelProposal",
      "outputs": [],
      "stateMutability": "nonpayable",
      "type": "function"
    },
    {
      "inputs": [
        {
          "components": [
            {
              "internalType": "uint256",
              "name": "proposalId",
              "type": "uint256"
            },
            {
              "internalType": "bool",
              "name": "support",
              "type": "bool"
            },
            {
              "internalType": "uint256",
              "name": "weight",
              "type": "uint256"
            },
            {
              "internalType": "uint256",
              "name": "nonce",
              "type": "uint256"
            },
            {
              "internalType": "uint256",
              "name": "deadline",
              "type": "uint256"
            },
            {
              "internalType": "bytes",
              "name": "signature",
              "type": "bytes"
            }
          ],
          "internalType": "struct GovernanceDAO.GaslessVote",
          "name": "voteData",
          "type": "tuple"
        }
      ],
      "name": "castGaslessVote",
      "outputs": [],
      "stateMutability": "nonpayable",
      "type": "function"
    },
    {
      "inputs": [
        {
          "internalType": "uint256",
          "name": "_proposalId",
          "type": "uint256"
        },
        {
          "internalType": "uint256",
          "name": "_credits",
          "type": "uint256"
        },
        {
          "internalType": "bool",
          "name": "_support",
          "type": "bool"
        }
      ],
      "name": "castQuadraticVote",
      "outputs": [],
      "stateMutability": "payable",
      "type": "function"
    },
    {
      "inputs": [
        {
          "components": [
            {
              "internalType": "uint256",
              "name": "proposalId",
              "type": "uint256"
            },
            {
              "internalType": "bool",
              "name": "support",
              "type": "bool"
            },
            {
              "internalType": "uint256",
              "name": "weight",
              "type": "uint256"
            },
            {
              "internalType": "bytes32",
              "name": "commitment",
              "type": "bytes32"
            },
            {
              "components": [
                {
                  "internalType": "uint256[2]",
                  "name": "a",
                  "type": "uint256[2]"
                },
                {
                  "internalType": "uint256[2][2]",
                  "name": "b",
                  "type": "uint256[2][2]"
                },
                {
                  "internalType": "uint256[2]",
                  "name": "c",
                  "type": "uint256[2]"
                },
                {
                  "internalType": "uint256[1]",
                  "name": "input",
                  "type": "uint256[1]"
                }
              ],
              "internalType": "struct GovernanceDAO.ZKProof",
              "name": "proof",
              "type": "tuple"
            }
          ],
          "internalType": "struct GovernanceDAO.PrivateVote",
          "name": "zkVote",
          "type": "tuple"
        }
      ],
      "name": "castZKVote",
      "outputs": [],
      "stateMutability": "nonpayable",
      "type": "function"
    },
    {
      "inputs": [
        {
          "internalType": "string",
          "name": "_name",
          "type": "string"
        },
        {
          "internalType": "string",
          "name": "_description",
          "type": "string"
        },
        {
          "internalType": "enum GovernanceDAO.ProposalType",
          "name": "_proposalType",
          "type": "uint8"
        },
        {
          "internalType": "bytes",
          "name": "_templateCallData",
          "type": "bytes"
        }
      ],
      "name": "createProposalTemplate",
      "outputs": [
        {
          "internalType": "uint256",
          "name": "",
          "type": "uint256"
        }
      ],
      "stateMutability": "nonpayable",
      "type": "function"
    },
    {
      "inputs": [
        {
          "internalType": "uint256",
          "name": "_templateId",
          "type": "uint256"
        }
      ],
      "name": "deactivateProposalTemplate",
      "outputs": [],
      "stateMutability": "nonpayable",
      "type": "function"
    },
    {
      "inputs": [
        {
          "internalType": "address",
          "name": "delegatee",
          "type": "address"
        }
      ],
      "name": "delegate",
      "outputs": [],
      "stateMutability": "nonpayable",
      "type": "function"
    },
    {
      "inputs": [
        {
          "internalType": "address",
          "name": "delegatee",
          "type": "address"
        },
        {
          "internalType": "uint256",
          "name": "weight",
          "type": "uint256"
        }
      ],
      "name": "delegateWithWeight",
      "outputs": [],
      "stateMutability": "nonpayable",
      "type": "function"
    },
    {
      "inputs": [
        {
          "internalType": "address",
          "name": "",
          "type": "address"
        }
      ],
      "name": "delegates",
      "outputs": [
        {
          "internalType": "address",
          "name": "",
          "type": "address"
        }
      ],
      "stateMutability": "view",
      "type": "function"
    },
    {
      "inputs": [
        {
          "internalType": "address",
          "name": "",
          "type": "address"
        },
        {
          "internalType": "uint256",
          "name": "",
          "type": "uint256"
        }
      ],
      "name": "delegationChains",
      "outputs": [
        {
          "internalType": "address",
          "name": "delegate",
          "type": "address"
        },
        {
          "internalType": "uint256",
          "name": "weight",
          "type": "uint256"
        },
        {
          "internalType": "uint256",
          "name": "depth",
          "type": "uint256"
        },
        {
          "internalType": "bool",
          "name": "active",
          "type": "bool"
        }
      ],
      "stateMutability": "view",
      "type": "function"
    },
    {
      "inputs": [
        {
          "internalType": "address",
          "name": "",
          "type": "address"
        },
        {
          "internalType": "address",
          "name": "",
          "type": "address"
        }
      ],
      "name": "delegationWeights",
      "outputs": [
        {
          "internalType": "uint256",
          "name": "",
          "type": "uint256"
        }
      ],
      "stateMutability": "view",
      "type": "function"
    },
    {
      "inputs": [],
      "name": "depositToTreasury",
      "outputs": [],
      "stateMutability": "payable",
      "type": "function"
    },
    {
      "inputs": [
        {
          "internalType": "address",
          "name": "",
          "type": "address"
        }
      ],
      "name": "emergencyCommittee",
      "outputs": [
        {
          "internalType": "bool",
          "name": "",
          "type": "bool"
        }
      ],
      "stateMutability": "view",
      "type": "function"
    },
    {
      "inputs": [
        {
          "internalType": "uint256",
          "name": "_proposalId",
          "type": "uint256"
        }
      ],
      "name": "emergencyExecute",
      "outputs": [],
      "stateMutability": "nonpayable",
      "type": "function"
    },
    {
      "inputs": [],
      "name": "emergencyThreshold",
      "outputs": [
        {
          "internalType": "uint256",
          "name": "",
          "type": "uint256"
        }
      ],
      "stateMutability": "view",
      "type": "function"
    },
    {
      "inputs": [],
      "name": "emergencyVotingPeriod",
      "outputs": [
        {
          "internalType": "uint256",
          "name": "",
          "type": "uint256"
        }
      ],
      "stateMutability": "view",
      "type": "function"
    },
    {
      "inputs": [
        {
          "internalType": "uint256",
          "name": "_proposalId",
          "type": "uint256"
        },
        {
          "internalType": "address[]",
          "name": "_signers",
          "type": "address[]"
        },
        {
          "internalType": "uint256",
          "name": "_requiredSignatures",
          "type": "uint256"
        }
      ],
      "name": "enableMultiSigExecution",
      "outputs": [],
      "stateMutability": "nonpayable",
      "type": "function"
    },
    {
      "inputs": [
        {
          "internalType": "uint256",
          "name": "_proposalId",
          "type": "uint256"
        }
      ],
      "name": "executeProposal",
      "outputs": [],
      "stateMutability": "nonpayable",
      "type": "function"
    },
    {
      "inputs": [
        {
          "internalType": "bytes32",
          "name": "",
          "type": "bytes32"
        }
      ],
      "name": "executedGaslessVotes",
      "outputs": [
        {
          "internalType": "bool",
          "name": "",
          "type": "bool"
        }
      ],
      "stateMutability": "view",
      "type": "function"
    },
    {
      "inputs": [
        {
          "internalType": "address",
          "name": "account",
          "type": "address"
        }
      ],
      "name": "getLockedTokenBalance",
      "outputs": [
        {
          "internalType": "uint256",
          "name": "",
          "type": "uint256"
        }
      ],
      "stateMutability": "view",
      "type": "function"
    },
    {
      "inputs": [
        {
          "internalType": "uint256",
          "name": "_proposalId",
          "type": "uint256"
        }
      ],
      "name": "getProposal",
      "outputs": [
        {
          "components": [
            {
              "internalType": "uint256",
              "name": "id",
              "type": "uint256"
            },
            {
              "internalType": "address",
              "name": "proposer",
              "type": "address"
            },
            {
              "internalType": "enum GovernanceDAO.ProposalType",
              "name": "proposalType",
              "type": "uint8"
            },
            {
              "internalType": "string",
              "name": "description",
              "type": "string"
            },
            {
              "internalType": "uint256",
              "name": "forVotes",
              "type": "uint256"
            },
            {
              "internalType": "uint256",
              "name": "againstVotes",
              "type": "uint256"
            },
            {
              "internalType": "uint256",
              "name": "abstainVotes",
              "type": "uint256"
            },
            {
              "internalType": "uint256",
              "name": "startTime",
              "type": "uint256"
            },
            {
              "internalType": "uint256",
              "name": "endTime",
              "type": "uint256"
            },
            {
              "internalType": "enum GovernanceDAO.ProposalStatus",
              "name": "status",
              "type": "uint8"
            },
            {
              "internalType": "bool",
              "name": "emergency",
              "type": "bool"
            }
          ],
          "internalType": "struct GovernanceDAO.ProposalCore",
          "name": "",
          "type": "tuple"
        }
      ],
      "stateMutability": "view",
      "type": "function"
    },
    {
      "inputs": [
        {
          "internalType": "uint256",
          "name": "_proposalId",
          "type": "uint256"
        }
      ],
      "name": "getProposalState",
      "outputs": [
        {
          "internalType": "enum GovernanceDAO.ProposalStatus",
          "name": "",
          "type": "uint8"
        }
      ],
      "stateMutability": "view",
      "type": "function"
    },
    {
      "inputs": [
        {
          "internalType": "address",
          "name": "account",
          "type": "address"
        }
      ],
      "name": "getTimeWeightedVotes",
      "outputs": [
        {
          "internalType": "uint256",
          "name": "",
          "type": "uint256"
        }
      ],
      "stateMutability": "view",
      "type": "function"
    },
    {
      "inputs": [
        {
          "internalType": "address",
          "name": "account",
          "type": "address"
        }
      ],
      "name": "getTokenLocks",
      "outputs": [
        {
          "components": [
            {
              "internalType": "uint256",
              "name": "amount",
              "type": "uint256"
            },
            {
              "internalType": "uint256",
              "name": "lockTime",
              "type": "uint256"
            },
            {
              "internalType": "uint256",
              "name": "lockDuration",
              "type": "uint256"
            },
            {
              "internalType": "bool",
              "name": "active",
              "type": "bool"
            }
          ],
          "internalType": "struct GovernanceDAO.TokenLock[]",
          "name": "",
          "type": "tuple[]"
        }
      ],
      "stateMutability": "view",
      "type": "function"
    },
    {
      "inputs": [
        {
          "internalType": "uint256",
          "name": "_proposalId",
          "type": "uint256"
        },
        {
          "internalType": "address",
          "name": "_voter",
          "type": "address"
        }
      ],
      "name": "getVote",
      "outputs": [
        {
          "components": [
            {
              "internalType": "bool",
              "name": "hasVoted",
              "type": "bool"
            },
            {
              "internalType": "bool",
              "name": "support",
              "type": "bool"
            },
            {
              "internalType": "uint256",
              "name": "weight",
              "type": "uint256"
            },
            {
              "internalType": "uint256",
              "name": "timestamp",
              "type": "uint256"
            }
          ],
          "internalType": "struct GovernanceDAO.Vote",
          "name": "",
          "type": "tuple"
        }
      ],
      "stateMutability": "view",
      "type": "function"
    },
    {
      "inputs": [
        {
          "internalType": "address",
          "name": "account",
          "type": "address"
        }
      ],
      "name": "getVotes",
      "outputs": [
        {
          "internalType": "uint256",
          "name": "",
          "type": "uint256"
        }
      ],
      "stateMutability": "view",
      "type": "function"
    },
    {
      "inputs": [],
      "name": "governanceToken",
      "outputs": [
        {
          "internalType": "contract IERC20",
          "name": "",
          "type": "address"
        }
      ],
      "stateMutability": "view",
      "type": "function"
    },
    {
      "inputs": [
        {
          "internalType": "uint256",
          "name": "_proposalId",
          "type": "uint256"
        },
        {
          "internalType": "address",
          "name": "_voter",
          "type": "address"
        }
      ],
      "name": "hasVoted",
      "outputs": [
        {
          "internalType": "bool",
          "name": "",
          "type": "bool"
        }
      ],
      "stateMutability": "view",
      "type": "function"
    },
    {
      "inputs": [
        {
          "internalType": "address",
          "name": "_governanceToken",
          "type": "address"
        },
        {
          "internalType": "address",
          "name": "_treasury",
          "type": "address"
        },
        {
          "internalType": "address",
          "name": "_zkVerifier",
          "type": "address"
        }
      ],
      "name": "initialize",
      "outputs": [],
      "stateMutability": "nonpayable",
      "type": "function"
    },
    {
      "inputs": [
        {
          "internalType": "bytes32",
          "name": "commitment",
          "type": "bytes32"
        }
      ],
      "name": "isZKProofVerified",
      "outputs": [
        {
          "internalType": "bool",
          "name": "",
          "type": "bool"
        }
      ],
      "stateMutability": "view",
      "type": "function"
    },
    {
      "inputs": [
        {
          "internalType": "address",
          "name": "",
          "type": "address"
        }
      ],
      "name": "lastProposalTime",
      "outputs": [
        {
          "internalType": "uint256",
          "name": "",
          "type": "uint256"
        }
      ],
      "stateMutability": "view",
      "type": "function"
    },
    {
      "inputs": [
        {
          "internalType": "uint256",
          "name": "amount",
          "type": "uint256"
        },
        {
          "internalType": "uint256",
          "name": "duration",
          "type": "uint256"
        }
      ],
      "name": "lockTokens",
      "outputs": [],
      "stateMutability": "nonpayable",
      "type": "function"
    },
    {
      "inputs": [],
      "name": "maxLockDuration",
      "outputs": [
        {
          "internalType": "uint256",
          "name": "",
          "type": "uint256"
        }
      ],
      "stateMutability": "view",
      "type": "function"
    },
    {
      "inputs": [],
      "name": "maxQuadraticCredits",
      "outputs": [
        {
          "internalType": "uint256",
          "name": "",
          "type": "uint256"
        }
      ],
      "stateMutability": "view",
      "type": "function"
    },
    {
      "inputs": [
        {
          "internalType": "uint256",
          "name": "",
          "type": "uint256"
        }
      ],
      "name": "multiSigExecutions",
      "outputs": [
        {
          "internalType": "uint256",
          "name": "proposalId",
          "type": "uint256"
        },
        {
          "internalType": "uint256",
          "name": "requiredSignatures",
          "type": "uint256"
        },
        {
          "internalType": "uint256",
          "name": "signatureCount",
          "type": "uint256"
        },
        {
          "internalType": "bool",
          "name": "executed",
          "type": "bool"
        }
      ],
      "stateMutability": "view",
      "type": "function"
    },
    {
      "inputs": [
        {
          "internalType": "address",
          "name": "",
          "type": "address"
        }
      ],
      "name": "multiSigSigners",
      "outputs": [
        {
          "internalType": "bool",
          "name": "",
          "type": "bool"
        }
      ],
      "stateMutability": "view",
      "type": "function"
    },
    {
      "inputs": [
        {
          "internalType": "address",
          "name": "",
          "type": "address"
        }
      ],
      "name": "nonces",
      "outputs": [
        {
          "internalType": "uint256",
          "name": "",
          "type": "uint256"
        }
      ],
      "stateMutability": "view",
      "type": "function"
    },
    {
      "inputs": [],
      "name": "owner",
      "outputs": [
        {
          "internalType": "address",
          "name": "",
          "type": "address"
        }
      ],
      "stateMutability": "view",
      "type": "function"
    },
    {
      "inputs": [],
      "name": "proposalCooldown",
      "outputs": [
        {
          "internalType": "uint256",
          "name": "",
          "type": "uint256"
        }
      ],
      "stateMutability": "view",
      "type": "function"
    },
    {
      "inputs": [],
      "name": "proposalCount",
      "outputs": [
        {
          "internalType": "uint256",
          "name": "",
          "type": "uint256"
        }
      ],
      "stateMutability": "view",
      "type": "function"
    },
    {
      "inputs": [
        {
          "internalType": "uint256",
          "name": "",
          "type": "uint256"
        }
      ],
      "name": "proposalTemplates",
      "outputs": [
        {
          "internalType": "string",
          "name": "name",
          "type": "string"
        },
        {
          "internalType": "string",
          "name": "description",
          "type": "string"
        },
        {
          "internalType": "enum GovernanceDAO.ProposalType",
          "name": "proposalType",
          "type": "uint8"
        },
        {
          "internalType": "bytes",
          "name": "templateCallData",
          "type": "bytes"
        },
        {
          "internalType": "bool",
          "name": "active",
          "type": "bool"
        }
      ],
      "stateMutability": "view",
      "type": "function"
    },
    {
      "inputs": [],
      "name": "proposalThreshold",
      "outputs": [
        {
          "internalType": "uint256",
          "name": "",
          "type": "uint256"
        }
      ],
      "stateMutability": "view",
      "type": "function"
    },
    {
      "inputs": [
        {
          "internalType": "uint256",
          "name": "",
          "type": "uint256"
        }
      ],
      "name": "proposals",
      "outputs": [
        {
          "internalType": "uint256",
          "name": "id",
          "type": "uint256"
        },
        {
          "internalType": "address",
          "name": "proposer",
          "type": "address"
        },
        {
          "internalType": "enum GovernanceDAO.ProposalType",
          "name": "proposalType",
          "type": "uint8"
        },
        {
          "internalType": "string",
          "name": "description",
          "type": "string"
        },
        {
          "internalType": "bytes",
          "name": "callData",
          "type": "bytes"
        },
        {
          "internalType": "address",
          "name": "targetContract",
          "type": "address"
        },
        {
          "internalType": "uint256",
          "name": "value",
          "type": "uint256"
        },
        {
          "internalType": "uint256",
          "name": "forVotes",
          "type": "uint256"
        },
        {
          "internalType": "uint256",
          "name": "againstVotes",
          "type": "uint256"
        },
        {
          "internalType": "uint256",
          "name": "abstainVotes",
          "type": "uint256"
        },
        {
          "internalType": "uint256",
          "name": "startTime",
          "type": "uint256"
        },
        {
          "internalType": "uint256",
          "name": "endTime",
          "type": "uint256"
        },
        {
          "internalType": "enum GovernanceDAO.ProposalStatus",
          "name": "status",
          "type": "uint8"
        },
        {
          "internalType": "uint256",
          "name": "executionTime",
          "type": "uint256"
        },
        {
          "internalType": "bool",
          "name": "emergency",
          "type": "bool"
        }
      ],
      "stateMutability": "view",
      "type": "function"
    },
    {
      "inputs": [
        {
          "internalType": "enum GovernanceDAO.ProposalType",
          "name": "_proposalType",
          "type": "uint8"
        },
        {
          "internalType": "string",
          "name": "_description",
          "type": "string"
        },
        {
          "internalType": "address",
          "name": "_targetContract",
          "type": "address"
        },
        {
          "internalType": "bytes",
          "name": "_callData",
          "type": "bytes"
        },
        {
          "internalType": "uint256",
          "name": "_value",
          "type": "uint256"
        },
        {
          "internalType": "bool",
          "name": "_emergency",
          "type": "bool"
        }
      ],
      "name": "propose",
      "outputs": [
        {
          "internalType": "uint256",
          "name": "",
          "type": "uint256"
        }
      ],
      "stateMutability": "nonpayable",
      "type": "function"
    },
    {
      "inputs": [
        {
          "internalType": "uint256",
          "name": "_templateId",
          "type": "uint256"
        },
        {
          "internalType": "address",
          "name": "_targetContract",
          "type": "address"
        },
        {
          "internalType": "uint256",
          "name": "_value",
          "type": "uint256"
        },
        {
          "internalType": "bool",
          "name": "_emergency",
          "type": "bool"
        }
      ],
      "name": "proposeFromTemplate",
      "outputs": [
        {
          "internalType": "uint256",
          "name": "",
          "type": "uint256"
        }
      ],
      "stateMutability": "nonpayable",
      "type": "function"
    },
    {
      "inputs": [],
      "name": "proxiableUUID",
      "outputs": [
        {
          "internalType": "bytes32",
          "name": "",
          "type": "bytes32"
        }
      ],
      "stateMutability": "view",
      "type": "function"
    },
    {
      "inputs": [],
      "name": "quadraticCreditPrice",
      "outputs": [
        {
          "internalType": "uint256",
          "name": "",
          "type": "uint256"
        }
      ],
      "stateMutability": "view",
      "type": "function"
    },
    {
      "inputs": [
        {
          "internalType": "address",
          "name": "",
          "type": "address"
        },
        {
          "internalType": "uint256",
          "name": "",
          "type": "uint256"
        }
      ],
      "name": "quadraticVotes",
      "outputs": [
        {
          "internalType": "uint256",
          "name": "proposalId",
          "type": "uint256"
        },
        {
          "internalType": "uint256",
          "name": "creditsUsed",
          "type": "uint256"
        },
        {
          "internalType": "bool",
          "name": "support",
          "type": "bool"
        },
        {
          "internalType": "uint256",
          "name": "timestamp",
          "type": "uint256"
        }
      ],
      "stateMutability": "view",
      "type": "function"
    },
    {
      "inputs": [
        {
          "internalType": "uint256",
          "name": "",
          "type": "uint256"
        }
      ],
      "name": "quadraticVotingCredits",
      "outputs": [
        {
          "internalType": "uint256",
          "name": "",
          "type": "uint256"
        }
      ],
      "stateMutability": "view",
      "type": "function"
    },
    {
      "inputs": [],
      "name": "quorumThreshold",
      "outputs": [
        {
          "internalType": "uint256",
          "name": "",
          "type": "uint256"
        }
      ],
      "stateMutability": "view",
      "type": "function"
    },
    {
      "inputs": [
        {
          "internalType": "address",
          "name": "delegatee",
          "type": "address"
        }
      ],
      "name": "removeDelegation",
      "outputs": [],
      "stateMutability": "nonpayable",
      "type": "function"
    },
    {
      "inputs": [
        {
          "internalType": "address",
          "name": "member",
          "type": "address"
        }
      ],
      "name": "removeEmergencyCommitteeMember",
      "outputs": [],
      "stateMutability": "nonpayable",
      "type": "function"
    },
    {
      "inputs": [],
      "name": "renounceOwnership",
      "outputs": [],
      "stateMutability": "nonpayable",
      "type": "function"
    },
    {
      "inputs": [],
      "name": "requiredMultiSigSignatures",
      "outputs": [
        {
          "internalType": "uint256",
          "name": "",
          "type": "uint256"
        }
      ],
      "stateMutability": "view",
      "type": "function"
    },
    {
      "inputs": [
        {
          "internalType": "uint256",
          "name": "_proposalId",
          "type": "uint256"
        }
      ],
      "name": "signMultiSigExecution",
      "outputs": [],
      "stateMutability": "nonpayable",
      "type": "function"
    },
    {
      "inputs": [],
      "name": "templateCount",
      "outputs": [
        {
          "internalType": "uint256",
          "name": "",
          "type": "uint256"
        }
      ],
      "stateMutability": "view",
      "type": "function"
    },
    {
      "inputs": [],
      "name": "timeWeightMultiplier",
      "outputs": [
        {
          "internalType": "uint256",
          "name": "",
          "type": "uint256"
        }
      ],
      "stateMutability": "view",
      "type": "function"
    },
    {
      "inputs": [],
      "name": "timelockPeriod",
      "outputs": [
        {
          "internalType": "uint256",
          "name": "",
          "type": "uint256"
        }
      ],
      "stateMutability": "view",
      "type": "function"
    },
    {
      "inputs": [
        {
          "internalType": "address",
          "name": "",
          "type": "address"
        },
        {
          "internalType": "uint256",
          "name": "",
          "type": "uint256"
        }
      ],
      "name": "tokenLocks",
      "outputs": [
        {
          "internalType": "uint256",
          "name": "amount",
          "type": "uint256"
        },
        {
          "internalType": "uint256",
          "name": "lockTime",
          "type": "uint256"
        },
        {
          "internalType": "uint256",
          "name": "lockDuration",
          "type": "uint256"
        },
        {
          "internalType": "bool",
          "name": "active",
          "type": "bool"
        }
      ],
      "stateMutability": "view",
      "type": "function"
    },
    {
      "inputs": [
        {
          "internalType": "address",
          "name": "",
          "type": "address"
        }
      ],
      "name": "totalLockedTokens",
      "outputs": [
        {
          "internalType": "uint256",
          "name": "",
          "type": "uint256"
        }
      ],
      "stateMutability": "view",
      "type": "function"
    },
    {
      "inputs": [
        {
          "internalType": "address",
          "name": "newOwner",
          "type": "address"
        }
      ],
      "name": "transferOwnership",
      "outputs": [],
      "stateMutability": "nonpayable",
      "type": "function"
    },
    {
      "inputs": [],
      "name": "treasury",
      "outputs": [
        {
          "internalType": "address",
          "name": "",
          "type": "address"
        }
      ],
      "stateMutability": "view",
      "type": "function"
    },
    {
      "inputs": [],
      "name": "treasuryBalance",
      "outputs": [
        {
          "internalType": "uint256",
          "name": "",
          "type": "uint256"
        }
      ],
      "stateMutability": "view",
      "type": "function"
    },
    {
      "inputs": [
        {
          "internalType": "uint256",
          "name": "lockIndex",
          "type": "uint256"
        }
      ],
      "name": "unlockTokens",
      "outputs": [],
      "stateMutability": "nonpayable",
      "type": "function"
    },
    {
      "inputs": [
        {
          "internalType": "uint256",
          "name": "_votingPeriod",
          "type": "uint256"
        },
        {
          "internalType": "uint256",
          "name": "_votingDelay",
          "type": "uint256"
        },
        {
          "internalType": "uint256",
          "name": "_proposalThreshold",
          "type": "uint256"
        },
        {
          "internalType": "uint256",
          "name": "_quorumThreshold",
          "type": "uint256"
        },
        {
          "internalType": "uint256",
          "name": "_timelockPeriod",
          "type": "uint256"
        },
        {
          "internalType": "uint256",
          "name": "_emergencyThreshold",
          "type": "uint256"
        },
        {
          "internalType": "uint256",
          "name": "_emergencyVotingPeriod",
          "type": "uint256"
        },
        {
          "internalType": "uint256",
          "name": "_proposalCooldown",
          "type": "uint256"
        }
      ],
      "name": "updateGovernanceParameters",
      "outputs": [],
      "stateMutability": "nonpayable",
      "type": "function"
    },
    {
      "inputs": [
        {
          "internalType": "uint256",
          "name": "_maxLockDuration",
          "type": "uint256"
        },
        {
          "internalType": "uint256",
          "name": "_timeWeightMultiplier",
          "type": "uint256"
        }
      ],
      "name": "updateTimeWeightedParameters",
      "outputs": [],
      "stateMutability": "nonpayable",
      "type": "function"
    },
    {
      "inputs": [
        {
          "internalType": "address",
          "name": "_zkVerifier",
          "type": "address"
        }
      ],
      "name": "updateZKVerifier",
      "outputs": [],
      "stateMutability": "nonpayable",
      "type": "function"
    },
    {
      "inputs": [
        {
          "internalType": "address",
          "name": "newImplementation",
          "type": "address"
        },
        {
          "internalType": "bytes",
          "name": "data",
          "type": "bytes"
        }
      ],
      "name": "upgradeToAndCall",
      "outputs": [],
      "stateMutability": "payable",
      "type": "function"
    },
    {
      "inputs": [
        {
          "internalType": "bytes32",
          "name": "",
          "type": "bytes32"
        }
      ],
      "name": "verifiedZKProofs",
      "outputs": [
        {
          "internalType": "bool",
          "name": "",
          "type": "bool"
        }
      ],
      "stateMutability": "view",
      "type": "function"
    },
    {
      "inputs": [
        {
          "internalType": "uint256",
          "name": "_proposalId",
          "type": "uint256"
        },
        {
          "internalType": "bool",
          "name": "_support",
          "type": "bool"
        }
      ],
      "name": "vote",
      "outputs": [],
      "stateMutability": "nonpayable",
      "type": "function"
    },
    {
      "inputs": [],
      "name": "votingDelay",
      "outputs": [
        {
          "internalType": "uint256",
          "name": "",
          "type": "uint256"
        }
      ],
      "stateMutability": "view",
      "type": "function"
    },
    {
      "inputs": [],
      "name": "votingPeriod",
      "outputs": [
        {
          "internalType": "uint256",
          "name": "",
          "type": "uint256"
        }
      ],
      "stateMutability": "view",
      "type": "function"
    },
    {
      "inputs": [
        {
          "internalType": "address payable",
          "name": "to",
          "type": "address"
        },
        {
          "internalType": "uint256",
          "name": "amount",
          "type": "uint256"
        }
      ],
      "name": "withdrawFromTreasury",
      "outputs": [],
      "stateMutability": "nonpayable",
      "type": "function"
    },
    {
      "inputs": [],
      "name": "zkVerifier",
      "outputs": [
        {
          "internalType": "address",
          "name": "",
          "type": "address"
        }
      ],
      "stateMutability": "view",
      "type": "function"
    },
    {
      "stateMutability": "payable",
      "type": "receive"
    }
  ],
  "bytecode": "0x60a08060405234602957306080526153f8908161002f8239608051818181612fb001526134290152f35b600080fdfe608080604052600436101561002c575b50361561001b57600080fd5b6100273460205461407f565b602055005b60003560e01c908163013cf08b14613b3b5750806301d3888614613af857806302a251a314613ada578063055c99db14613abc57806305cf5d16146138ce5780630663af08146138625780630d61b519146137d95780631363420a1461193657806318b62629146137bb57806326705c3c1461379d5780632690ab1e1461373c5780632ecaf6751461371e578063313dab20146137015780633932abb1146136e35780633ba64c5c146136a157806343859632146136325780634be2857a146136065780634e9e8f5a146135c75780634f1ef286146133ec5780634f65166b146130735780634fb683231461303d57806351404f7a1461300757806352d1902d14612f9d578063587cde1e14612f5b5780635b7ad57814612f215780635c19a95c14612e9657806361d027b314612e6d5780636ac9d58714612e4f5780636eba236714612e31578063715018a614612dc7578063718b205814612daf5780637752d12214612d7e5780637b7a91dd14612d605780637c40532514612ba55780637eb1f14114612a695780637ecebe0014612a2f57806389158d8e1461277957806389549eae1461272d578063896d6db11461265f5780638970ce34146125dc5780638da5cb5b146125a65780638e635232146125675780639080936f1461251c5780639ab24eb0146124f9578063a16cdbb1146124db578063a580472d146120ed578063ad3cb1cc146120a6578063b1b3b7fb1461171e578063b4c0d43a14611e84578063b58131b014611e66578063b656934314611e21578063bc3f931f14611d47578063bcd037c814611d29578063c0c53b8b14611ac2578063c1f0fb9f14611967578063c35ce43114611936578063c7f758a814611758578063c8ba98701461171e578063c9d27afe1461157c578063ccebfa3f146114f1578063d3553c0d14611116578063d3a69258146110f7578063d6df096d146110ce578063d8f9b8741461107d578063d93f3df414610ca6578063da35c66414610c88578063e0a8f6f514610b57578063e12f6e2614610b39578063e25409d814610aaf578063e54bd677146107a0578063e8d9510a14610647578063f0466c731461058d578063f2fde38b14610562578063f357dc081461044f578063f6fdcb5a14610431578063f96dae0a146104085763fa6b5cfe14610388573861000f565b34610403576040366003190112610403576103a1613e0d565b6001600160a01b0316600090815260166020526040902080546024359190821015610403576080916103d291613eeb565b50805490600181015490600360ff600283015416910154916040519384526020840152151560408301526060820152f35b600080fd5b34610403576000366003190112610403576000546040516001600160a01b039091168152602090f35b34610403576000366003190112610403576020601954604051908152f35b34610403576020366003190112610403576001600160a01b03610470613e0d565b166000526012602052604060002080549061048a82613e4f565b916104986040519384613d91565b80835260208301809260005260206000206000915b83831061051c5784866040519182916020830190602084525180915260408301919060005b8181106104e0575050500390f35b919350916020608060019260608751805183528481015185840152604081015160408401520151151560608201520194019101918493926104d2565b6004602060019260405161052f81613d3f565b8554815284860154838201526002860154604082015260ff600387015416151560608201528152019201920191906104ad565b346104035760203660031901126104035761058b61057e613e0d565b610586614d04565b614c8e565b005b34610403576020366003190112610403576105a6613e0d565b336000908152600d602052604081206001600160a01b0390921691905b815481101561058b57826105d78284613eeb565b50546001600160a01b0316146105ef576001016105c3565b6105fb90600392613eeb565b500160ff19815416905533600052600e6020526000604080822082908482526020522055337fd34d27e61da1c0024d36fb461da2b2cc55f26de3975c87a55e96d835f6674629600080a3005b346104035760203660031901126104035760043533600052600a60205260ff604060002054161561075b578015158061074f575b61068490613f5a565b806000526001602052604060002060ff600e820154161561070a57600b810160ff81541660068110156106f4576000805160206153a3833981519152926020926106d360026106e99414614c49565b805460ff1916600417905542600d820155614d6a565b6040519015158152a2005b634e487b7160e01b600052602160045260246000fd5b60405162461bcd60e51b815260206004820152601960248201527f4e6f7420616e20656d657267656e63792070726f706f73616c000000000000006044820152606490fd5b5060025481111561067b565b60405162461bcd60e51b815260206004820152601e60248201527f4e6f7420656d657267656e637920636f6d6d6974746565206d656d62657200006044820152606490fd5b34610403576040366003190112610403576107b9613e0d565b6001600160a01b038116906024356107d28315156142aa565b6107de338414156142f6565b80151580610aa4575b15610a685733600052600d602052604060002060009260005b8254811015610a5f57856108148285613eeb565b50546001600160a01b03161461082c57600101610800565b839450808394600161084461084d9460039697613eeb565b50015584613eeb565b5001600160ff1982541617905560015b156108af575b505033600052600e602052604060002082600052602052806040600020556040519081527f1f8074952783822b6652f64641272fbcb06c7f5308062b8aa671490f904ef4ef60203392a3005b9290916000935b6001600160a01b031680151580610a55575b15610941576000908152600b60205260409020546001600160a01b0316933385146108fc576108f6906146e3565b936108b6565b60405162461bcd60e51b815260206004820152601c60248201527f43697263756c61722064656c65676174696f6e206465746563746564000000006044820152606490fd5b509190926005811015610a105760405161095a81613d3f565b8481526020810192848452604082019283526060820190600182528054600160401b8110156109fa5761099291600182018155613eeb565b9390936109e457915183546001600160a01b039091166001600160a01b03199091161783559251600183015551600282015590516003909101805460ff191691151560ff169190911790558280610863565b634e487b7160e01b600052600060045260246000fd5b634e487b7160e01b600052604160045260246000fd5b60405162461bcd60e51b815260206004820152601960248201527f44656c65676174696f6e20636861696e20746f6f2064656570000000000000006044820152606490fd5b50600a85106108c8565b5090919261085d565b60405162461bcd60e51b81526020600482015260146024820152730576569676874206d75737420626520312d3130360641b6044820152606490fd5b5060648111156107e7565b346104035760c0366003190112610403576004356005811015610403576024356001600160401b03811161040357610aeb903690600401613e81565b610af3613e39565b916064356001600160401b03811161040357610b13903690600401613e81565b9060a43591821515830361040357602094610b319460843593614777565b604051908152f35b34610403576000366003190112610403576020601854604051908152f35b346104035760203660031901126104035760043580151580610c7c575b610b7d90613f5a565b600081815260016020819052604090912001546001600160a01b03163303610c4057806000526001602052600b60406000200160ff81541660068110156106f4578015908115610c35575b5015610c0057805460ff191660051790557f416e669c63d9a3a5e36ee7cc7e2104b8db28ccd286aa18966e98fa230c73b08c600080a2005b60405162461bcd60e51b815260206004820152600d60248201526c10d85b9b9bdd0818d85b98d95b609a1b6044820152606490fd5b600191501483610bc8565b60405162461bcd60e51b81526020600482015260146024820152732737ba10383937b837b9b0b61031b932b0ba37b960611b6044820152606490fd5b50600254811115610b74565b34610403576000366003190112610403576020600254604051908152f35b34610403576080366003190112610403576004356001600160401b03811161040357610cd6903690600401613e81565b6024356001600160401b03811161040357610cf5903690600401613e81565b604435916005831015610403576064356001600160401b03811161040357610d21903690600401613e81565b610d29614d04565b610d34601b546146e3565b9081601b5560405193610d4685613d5a565b83855260208501908152610d5e604086019687614398565b60608501918252608085019260018452600052601a602052604060002094518051906001600160401b0382116109fa57610da282610d9c8954613c82565b89614730565b602090601f831160011461101657610dd3929160009183610fa4575b50508160011b916000199060031b1c19161790565b85555b51805160018601916001600160401b0382116109fa57610e0082610dfa8554613c82565b85614730565b602090601f8311600114610faf57610e30929160009183610fa45750508160011b916000199060031b1c19161790565b90555b6002840194519460058610156106f45760009560ff801983541691161790556003840190518051906001600160401b038211610f905795602096610e8183610e7b8654613c82565b86614730565b8791601f8411600114610f235783600494610ed49794610f0d9a9794610ebb9492610f185750508160011b916000199060031b1c19161790565b90555b51151591019060ff801983541691151516179055565b7f7ae5a1ac3f32e29b3ae7ab2ec7df94a50bfed4214cbcf9bb61caf83485471224601b5492839260405191829187835287830190613dbf565b0390a2604051908152f35b015190508b80610dbe565b9190601f198416858452828420935b818110610f79575093610ed49693610f0d9996936001938360049810610f60575b505050811b019055610ebe565b015160001960f88460031b161c191690558a8080610f53565b92938a600181928786015181550195019301610f32565b634e487b7160e01b87526041600452602487fd5b015190508980610dbe565b90601f1983169184600052816000209260005b818110610ffe5750908460019594939210610fe5575b505050811b019055610e33565b015160001960f88460031b161c19169055888080610fd8565b92936020600181928786015181550195019301610fc2565b90601f1983169188600052816000209260005b818110611065575090846001959493921061104c575b505050811b018555610dd6565b015160001960f88460031b161c1916905588808061103f565b92936020600181928786015181550195019301611029565b3461040357604036600319011261040357611096613e0d565b61109e613e23565b6001600160a01b039182166000908152600e60209081526040808320949093168252928352819020549051908152f35b34610403576000366003190112610403576011546040516001600160a01b039091168152602090f35b346104035761110536613ed5565b9061110e614d04565b601455601555005b34610403576101a036600319011261040357600060405161113681613d5a565b6004358152611143613ec6565b9060208101918252604081019160443583526060820160643581526101206083193601126114ed576040519161117883613d3f565b3660a312156114e95761118c366084613f1d565b83523660e312156114e95760409283516111a68582613d91565b8036610144116114b95760c4905b61014482106114c157505060208201523661016312156114bd576111da36610144613f1d565b84820152366101a312156114bd5783516111f5602082613d91565b80366101a4116114b957610184905b6101a482106114a95750506060820152608085019081526011546001600160a01b03161561146f5782518752601060205260ff848820541661143357516060015151156113fc57815186526010602052828620600160ff198254161790558351905115159085519181885260016020528488209260ff600b8501541660068110156113e8577f195eb45632ec5377edd6382d85b694820bb0a42bcbf472e8e445dab61aa5fb6896949260209694926112cd6001600080516020615323833981519152941461403d565b86518881018581528360f81b89830152826041830152426061830152606182526112f8608183613d91565b905190206001600160a01b0316808d52600c8601808a52888e20549196918e9160029189919061132b9060ff161561426e565b8b519361133785613d3f565b600185526113798d8f8701928a8452818801948a8652606089019642885260018060a01b031682526020522095511515869060ff801983541691151516179055565b51845461ff00191690151560081b61ff00161784555160018401555191015582156113d3576006016113ac82825461407f565b90555b865191151582526020820152426040820152606090a351935194519051908152a380f35b6007016113e182825461407f565b90556113af565b634e487b7160e01b8a52602160045260248afd5b825162461bcd60e51b815260206004820152601060248201526f24b73b30b634b2102d2590383937b7b360811b6044820152606490fd5b835162461bcd60e51b81526020600482015260156024820152741692c81c1c9bdbd988185b1c9958591e481d5cd959605a1b6044820152606490fd5b835162461bcd60e51b81526020600482015260136024820152721692c81d995c9a599a595c881b9bdd081cd95d606a1b6044820152606490fd5b8135815260209182019101611204565b8880fd5b8680fd5b36601f830112156114e557602087916114da3685613f1d565b8152019101906111b4565b8980fd5b8580fd5b8480fd5b346104035760403660031901126104035761150a613e0d565b6001600160a01b031660009081526012602052604090208054602435908110156104035761153791613eeb565b50805461157860018301549260ff60036002830154920154169060405194859485926060929594919560808501968552602085015260408401521515910152565b0390f35b3461040357604036600319011261040357600435611598613ec6565b9080151580611712575b6115ab90613f5a565b80600052600160205260406000209160ff600b8401541660068110156106f457600080516020615323833981519152916115ea60016116f8931461403d565b6115fa60098601544210156141f2565b61160a600a860154421115614233565b600c85019460018060a01b0333166000528560205261163160ff604060002054161561426e565b61163a3361442b565b956116468715156146f2565b60026040519161165583613d3f565b6001835260208301851515815260408401908a825261169f6040606087019442865260009060018060a01b03331682526020522095511515869060ff801983541691151516179055565b51845461ff00191690151560081b61ff00161784555160018401555191015581156116fd576006016116d286825461407f565b90555b604051918291339642918460409194939260608201951515825260208201520152565b0390a3005b60070161170b86825461407f565b90556116d5565b506002548111156115a2565b34610403576020366003190112610403576001600160a01b0361173f613e0d565b1660005260136020526020604060002054604051908152f35b3461040357602036600319011261040357600435600061014060405161177d81613d75565b8281528260208201528260408201526060808201528260808201528260a08201528260c08201528260e0820152826101008201528261012082015201528015158061192a575b6117cc90613f5a565b60005260016020526040600020805490600181015491600682015490600783015493600260088501546009860154600a8701549160ff600b890154169860ff600e8a015416966040519061181f82613d75565b815261185f602082019a60018060a01b0389168c5261184860ff604085019a60a01c168a614398565b6118586040518099819301613cbc565b0387613d91565b606081019586526080810198895260a0810191825260c0810192835260e08101938452610100810194855261012081019560068c10156106f4576118dc61191d986118f09360409e8a5261014081019b15158c528e519e8f9e8f926020845251602084015260018060a01b039051169101525160608d0190613db2565b5161016060808c01526101808b0190613dbf565b975160a08a01525160c08901525160e0880152516101008701525161012086015251610140850190613e00565b5115156101608301520390f35b506002548111156117c3565b34610403576020366003190112610403576004356000526010602052602060ff604060002054166040519015158152f35b346104035760203660031901126104035760043580151580611ab6575b61198d90613f5a565b80600052600160205260406000209060ff600b8301541660068110156106f45760016119b9911461403d565b6119c960098301544210156141f2565b6119d9600a830154421115614233565b6008600c83019260018060a01b03331660005283602052611a0260ff604060002054161561426e565b611a0b3361442b565b93611a178515156146f2565b600260405191611a2683613d3f565b600183526000602080850182815260408087018b81524260608901908152338652959093529092209451855460ff191690151560ff161785559051151561ff00855491881b169061ff0019161784555160018401555191015501611a8b83825461407f565b90556040519160008352602083015242604083015260008051602061532383398151915260603393a3005b50600254811115611984565b3461040357606036600319011261040357611adb613e0d565b611ae3613e23565b611aeb613e39565b90600080516020615383833981519152549260ff8460401c1615936001600160401b03811680159081611d21575b6001149081611d17575b159081611d0e575b50611cfd5767ffffffffffffffff1981166001176000805160206153838339815191525584611cd0575b50611b5e6151ea565b611b666151ea565b611b6f33614c8e565b611b776151ea565b611b7f6151ea565b600160008051602061536383398151915255611b996151ea565b60018060a01b03166001600160601b0360a01b600054161760005560018060a01b03166001600160601b0360a01b601f541617601f5560018060a01b03166001600160601b0360a01b601154161760115562093a8060035562015180600455683635c9adc5dea0000060055569021e19e0c9bab24000006006556202a300600755690a968163f0a57b400000600855620151806009556301e133806014556002601555662386f26fc1000060185560646019556003601e556201518060225533600052600a6020526040600020600160ff19825416179055611c7757005b68ff0000000000000000196000805160206153838339815191525416600080516020615383833981519152557fc7f505b2f371ae2175ee4913f4499e1f2633a7b5936321eed1cdaeb6115181d2602060405160018152a1005b68ffffffffffffffffff191668010000000000000001176000805160206153838339815191525584611b55565b63f92ee8a960e01b60005260046000fd5b90501586611b2b565b303b159150611b23565b869150611b19565b34610403576000366003190112610403576020600854604051908152f35b346104035760403660031901126104035760806040600435611d67613e23565b90600060608451611d7781613d3f565b8281528260208201528286820152015280151580611e15575b611d9990613f5a565b6000526001602052600c826000200160009160018060a01b0316825260205220604051611dc581613d3f565b81549160ff831615159283835260ff602084019160081c16151581526060600260018401549360408601948552015493019283526040519384525115156020840152516040830152516060820152f35b50600254811115611d90565b3461040357602036600319011261040357611e3a613e0d565b611e42614d04565b6001600160a01b03166000908152600a60205260409020805460ff19166001179055005b34610403576000366003190112610403576020600554604051908152f35b346104035760203660031901126104035760043580600052601c6020526040600020818154036120695733600052601d60205260ff604060002054161561202c5733600090815260038201602081905260409091205460ff16611ff657611ef260ff600584015416156146a4565b60018060a01b0333166000526020526040600020600160ff1982541617905560026004820191611f2283546146e3565b80935533847fbb7bdee2a70d2bfc3187883cd87700c1bcce30e29f11f3b25671b64412983631600080a301541115611f5657005b80600052601c6020526005604060002001611f7560ff825416156146a4565b816000526001602052604060002090600b82019060ff82541660068110156106f4576000805160206153a3833981519152936020936106d36002611fb99414614c49565b815460ff191660011790915560405190847fcf794100bfbd100de0808c8db99945f7deb9005015fd219007c340d235009e12600080a215158152a2005b60405162461bcd60e51b815260206004820152600e60248201526d105b1c9958591e481cda59db995960921b6044820152606490fd5b60405162461bcd60e51b81526020600482015260156024820152742737ba1030baba3437b934bd32b21039b4b3b732b960591b6044820152606490fd5b60405162461bcd60e51b8152602060048201526015602482015274135d5b1d1a4b5cda59c81b9bdd08195b98589b1959605a1b6044820152606490fd5b346104035760003660031901126104035761157860408051906120c98183613d91565b60058252640352e302e360dc1b602083015251918291602083526020830190613dbf565b34610403576020366003190112610403576004356001600160401b0381116104035760c06003198236030112610403576040519060c082018281106001600160401b038211176109fa576040528060040135825260248101359182151583036104035760208101928352604081019060448301358252606081016064840135815260808201936084810135855260a4810135906001600160401b03821161040357600461219d9236920101613e81565b9360a083019485528051421161249f57825191865115159185519151905191604051936020850195865260408501526060840152608083015260a082015260a081526121ea60c082613d91565b5190209182600052600f60205260ff604060002054166124625761225661225f9460405160208101907f19457468657265756d205369676e6564204d6573736167653a0a333200000000825286603c820152603c815261224b605c82613d91565b51902090519061513c565b90959195615178565b6001600160a01b0384169384156124295761227b82519161442b565b106123e45782600052600f6020526040600020600160ff19825416179055815190855115159281519280600052600160205260406000209060ff600b8301541660068110156106f4577f8b4c39b7b7073b8fddf4029b82722157413281409faaa4484728052440c7f0e6966040968a946123066001600080516020615323833981519152951461403d565b600c8101866000528060205261232360ff8b60002054161561426e565b60028a519161233183613d3f565b60018352602083018681528c84019086825261236f8e8c606088019542875260009182526020522095511515869060ff801983541691151516179055565b51845461ff00191690151560081b61ff00161784555160018401555191015582156123cf576006016123a282825461407f565b90555b875191151582526020820152426040820152606090a35195511515905182519182526020820152a4005b6007016123dd82825461407f565b90556123a5565b60405162461bcd60e51b815260206004820152601960248201527f496e73756666696369656e7420766f74696e6720706f776572000000000000006044820152606490fd5b60405162461bcd60e51b8152602060048201526011602482015270496e76616c6964207369676e617475726560781b6044820152606490fd5b60405162461bcd60e51b8152602060048201526015602482015274159bdd1948185b1c9958591e48195e1958dd5d1959605a1b6044820152606490fd5b60405162461bcd60e51b8152602060048201526014602482015273159bdd1948191958591b1a5b99481c185cdcd95960621b6044820152606490fd5b34610403576000366003190112610403576020601454604051908152f35b34610403576020366003190112610403576020610b31612517613e0d565b61442b565b3461040357602036600319011261040357602061254c6004358015158061255b575b61254790613f5a565b6143a4565b6125596040518092613e00565bf35b5060025481111561253e565b34610403576020366003190112610403576001600160a01b03612588613e0d565b16600052600a602052602060ff604060002054166040519015158152f35b3461040357600036600319011261040357600080516020615303833981519152546040516001600160a01b039091168152602090f35b34610403576040366003190112610403576125f5613e0d565b6001600160a01b03166000908152600d60205260409020805460243591908210156104035760809161262691613eeb565b5060018060a01b038154169060018101549060ff6003600283015492015416916040519384526020840152604083015215156060820152f35b3461040357602036600319011261040357600435600052601a6020526126fb60406000206040519061269c826126958184613cbc565b0383613d91565b612721604051916126bb836126b48160018501613cbc565b0384613d91565b60ff6002820154169061271461270960ff6004604051946126e3866118588160038501613cbc565b0154169560405198899860a08a5260a08a0190613dbf565b9088820360208a0152613dbf565b926040870190613db2565b8482036060860152613dbf565b90151560808301520390f35b346104035761010036600319011261040357612747614d04565b60048035600355602435905560443560055560643560065560843560075560a43560085560c43560095560e435602255005b346104035761278736613ed5565b81156129ea57801515806129de575b156129a1576000546040516370a0823160e01b81523360048201526001600160a01b0390911690602081602481855afa801561292457849160009161296c575b50106129305760206000916064604051809481936323b872dd60e01b83523360048401523060248401528860448401525af1801561292457612820916000916128f5575b5061435a565b33600052601260205260406000206040519061283b82613d3f565b838252602082019142835260408101918483526060820190600182528054600160401b8110156109fa5761287491600182018155613eeb565b9390936109e4576128a79460039351855551600185015551600284015551151591019060ff801983541691151516179055565b33600052601360205260406000206128c083825461407f565b905560405191825260208201527fd741e738a23fd18a03a26522320d9fc6cac1fed483e215ea9150fbc2fc43385d60403392a2005b612917915060203d60201161291d575b61290f8183613d91565b810190614342565b8461281a565b503d612905565b6040513d6000823e3d90fd5b60405162461bcd60e51b8152602060048201526014602482015273496e73756666696369656e742062616c616e636560601b6044820152606490fd5b9150506020813d602011612999575b8161298860209383613d91565b8101031261040357839051856127d6565b3d915061297b565b60405162461bcd60e51b815260206004820152601560248201527424b73b30b634b2103637b1b590323ab930ba34b7b760591b6044820152606490fd5b50601454811115612796565b60405162461bcd60e51b815260206004820152601760248201527f416d6f756e74206d75737420626520706f7369746976650000000000000000006044820152606490fd5b34610403576020366003190112610403576001600160a01b03612a50613e0d565b16600052600c6020526020604060002054604051908152f35b3461040357608036600319011261040357600435612a85613e23565b906064359081151582036104035780600052601a60205260ff6004604060002001541615612b6a57600052601a60205260406000209060405191612ac883613d5a565b604051612ae081612ad98185613cbc565b0382613d91565b835260405192612afe84612af78160018601613cbc565b0385613d91565b6020810193845260ff60028301541690612b1c604082019283614398565b608060ff600460405195612b3e87612b378160038501613cbc565b0388613d91565b6060850196875201541615159101525160058110156106f457602094610b319451604435935192614777565b60405162461bcd60e51b815260206004820152601360248201527254656d706c617465206e6f742061637469766560681b6044820152606490fd5b3461040357602036600319011261040357600435336000526012602052604060002054811015612d2657612be6903360005260126020526040600020613eeb565b506003810160ff81541615612cef57612c08600183015460028401549061407f565b4210612caa576000602060018060a01b0382541660448554604051948593849263a9059cbb60e01b845233600485015260248401525af1801561292457612c56916000916128f5575061435a565b8154336000526013602052612c716040600020918254614030565b905560ff198154169055546040519081527fe7b379c6c1fa169e9079c25e9143b127637eef8ec8c9d5c06ddb4ab3e119588860203392a2005b60405162461bcd60e51b815260206004820152601760248201527f4c6f636b20706572696f64206e6f7420657870697265640000000000000000006044820152606490fd5b60405162461bcd60e51b815260206004820152600f60248201526e4c6f636b206e6f742061637469766560881b6044820152606490fd5b60405162461bcd60e51b8152602060048201526012602482015271092dcecc2d8d2c840d8dec6d640d2dcc8caf60731b6044820152606490fd5b34610403576000366003190112610403576020600654604051908152f35b3461040357602036600319011261040357600435600052600f602052602060ff604060002054166040519015158152f35b6000366003190112610403576100273460205461407f565b3461040357600036600319011261040357612de0614d04565b60008051602061530383398151915280546001600160a01b031981169091556000906001600160a01b03167f8be0079c531659141344cd1fd0a4f28419497f9722a3daafe3b4186f6b6457e08280a3005b34610403576000366003190112610403576020601554604051908152f35b34610403576000366003190112610403576020601e54604051908152f35b3461040357600036600319011261040357601f546040516001600160a01b039091168152602090f35b34610403576020366003190112610403576001600160a01b03612eb7613e0d565b16612ec38115156142aa565b612ecf338214156142f6565b336000818152600b6020526040812080546001600160a01b0319811685179091556001600160a01b031691907f3134e8a2e6d97e929a7e54011ea5485d7d196dd5f0ba4d4ef95803e8e3fc257f9080a4005b34610403576020366003190112610403576001600160a01b03612f42613e0d565b1660005260216020526020604060002054604051908152f35b34610403576020366003190112610403576001600160a01b03612f7c613e0d565b16600052600b602052602060018060a01b0360406000205416604051908152f35b34610403576000366003190112610403577f00000000000000000000000000000000000000000000000000000000000000006001600160a01b03163003612ff65760206040516000805160206153438339815191528152f35b63703e46dd60e11b60005260046000fd5b3461040357602036600319011261040357613020614d04565b600480356000908152601a6020526040902001805460ff19169055005b34610403576020366003190112610403576020610b3161305b613e0d565b61306d6130678261442b565b91615006565b9061407f565b60603660031901126104035760443560043581151560243581840361040357821515806133e0575b6130a490613f5a565b82600052600160205260406000209360ff600b8601541660068110156106f45760016130d0911461403d565b6130e060098601544210156141f2565b6130f0600a860154421115614233565b600c85019460018060a01b0333166000528560205261311760ff604060002054161561426e565b82158015806133d4575b156133975761313260185485613fa6565b80341061335b5780341161332d575b50670de0b6b3a7640000840290848204670de0b6b3a76400001417156133175761316a90614ee4565b9560026040519161317a83613d3f565b600183526020830187815260408401908a82526131c26040606087019442865260009060018060a01b03331682526020522095511515869060ff801983541691151516179055565b51845461ff00191690151560081b61ff0016178455516001840155519101558115613302576006016131f586825461407f565b90555b3360005260166020526040600020916040519361321485613d3f565b8585526020850193828552604086019482865260608701914283528054600160401b8110156109fa5761324c91600182018155613eeb565b9290926109e45761328e6116f8976003936000805160206153238339815191529a518655516001860155511515600285019060ff801983541691151516179055565b5191015585600052601760205260406000206132ab83825461407f565b90556040519182526020820152847f0cdc3452ac145ec17857a359ca5669db32e0c59772a4c08d63714f1a7ab93c7f60403393a3604051918291339642918460409194939260608201951515825260208201520152565b60070161331086825461407f565b90556131f8565b634e487b7160e01b600052601160045260246000fd5b6000808061333c819434614030565b818115613352575b3390f1156129245787613141565b506108fc613344565b60405162461bcd60e51b8152602060048201526014602482015273125b9cdd59999a58da595b9d081c185e5b595b9d60621b6044820152606490fd5b60405162461bcd60e51b8152602060048201526015602482015274125b9d985b1a590818dc99591a5d08185b5bdd5b9d605a1b6044820152606490fd5b50601954841115613121565b5060025483111561309b565b604036600319011261040357613400613e0d565b6024356001600160401b0381116104035761341f903690600401613e81565b6001600160a01b037f0000000000000000000000000000000000000000000000000000000000000000163081149081156135a4575b50612ff657613461614d04565b6040516352d1902d60e01b81526001600160a01b0383169290602081600481875afa60009181613570575b506134a65783634c9c8ce360e01b60005260045260246000fd5b8060008051602061534383398151915285920361355c5750813b156135485760008051602061534383398151915280546001600160a01b031916821790557fbc7cd75a20ee27fd9adebab32041f755214dbc6bffa90cc0225b39da2e5c2d3b600080a281511561352e5760008083602061058b95519101845af4613528614d3a565b916152a1565b50503461353757005b63b398979f60e01b60005260046000fd5b634c9c8ce360e01b60005260045260246000fd5b632a87526960e21b60005260045260246000fd5b9091506020813d60201161359c575b8161358c60209383613d91565b810103126104035751908561348c565b3d915061357f565b600080516020615343833981519152546001600160a01b03161415905083613454565b34610403576020366003190112610403576001600160a01b036135e8613e0d565b16600052601d602052602060ff604060002054166040519015158152f35b346104035760203660031901126104035760043560005260176020526020604060002054604051908152f35b346104035760403660031901126104035760043561364e613e23565b9080151580613695575b61366190613f5a565b6000526001602052600c6040600020019060018060a01b0316600052602052602060ff604060002054166040519015158152f35b50600254811115613658565b34610403576020366003190112610403576136ba613e0d565b6136c2614d04565b6001600160a01b03166000908152600a60205260409020805460ff19169055005b34610403576000366003190112610403576020600454604051908152f35b346104035760003660031901126104035760208054604051908152f35b34610403576000366003190112610403576020600754604051908152f35b3461040357602036600319011261040357600435600052601c6020526040600020805461157860028301549260ff60056004830154920154169060405194859485926060929594919560808501968552602085015260408401521515910152565b34610403576000366003190112610403576020601b54604051908152f35b34610403576000366003190112610403576020600954604051908152f35b346104035760203660031901126104035760043580151580613856575b6137ff90613f5a565b60026000805160206153638339815191525414613845576138319060026000805160206153638339815191525561408c565b600160008051602061536383398151915255005b633ee5aeb560e01b60005260046000fd5b506002548111156137f6565b34610403576040366003190112610403576004356001600160a01b03811690819003610403576000808080936024359061389a614d04565b6138b2826020546138ad82821015613fe4565b614030565b6020558282156138c5575bf11561292457005b506108fc6138bd565b34610403576060366003190112610403576004356024356001600160401b03811161040357366023820112156104035780600401359161390d83613e4f565b9161391b6040519384613d91565b83835260208301906024829560051b8201019036821161040357602401915b818310613a9c5750505060443561394f614d04565b81151580613a90575b61396190613f5a565b80835110613a4b5781600052601c602052604060002091825560018201938351906001600160401b0382116109fa57600160401b82116109fa578554828755808310613a2d575b509460005260206000209460005b828110613a1057856005868660028201550160ff19815416905560005b815181101561058b576001906001600160a01b036139f18285613fd0565b5116600052601d60205260406000208260ff19825416179055016139d3565b81516001600160a01b0316818801556020909101906001016139b6565b613a4590876000528360206000209182019101613fb9565b866139a8565b60405162461bcd60e51b815260206004820152601e60248201527f496e76616c6964207369676e617475726520726571756972656d656e747300006044820152606490fd5b50600254821115613958565b82356001600160a01b03811681036104035781526020928301920161393a565b34610403576000366003190112610403576020602254604051908152f35b34610403576000366003190112610403576020600354604051908152f35b3461040357602036600319011261040357613b11613e0d565b613b19614d04565b601180546001600160a01b0319166001600160a01b0392909216919091179055005b34610403576020366003190112610403576004356000526001602052604060002080549060018101549280806002840190613b7591613cbc565b03613b809082613d91565b6040519182613b928160038401613cbc565b03613b9d9084613d91565b600160a01b6001900360048201541692600582015460068301546007840154600885015490600986015492600a87015494600b88015460ff1696600d89015498600e015460ff16996040519d8e9d8e528d600160a01b60019003821660208201526040019060a01c60ff1690613c1291613db2565b60608d016101e090526101e08d01613c2991613dbf565b8c810360808e0152613c3a91613dbf565b9960a08c015260c08b015260e08a01526101008901526101208801526101408701526101608601526101808501613c7091613e00565b6101a084015215156101c08301520390f35b90600182811c92168015613cb2575b6020831014613c9c57565b634e487b7160e01b600052602260045260246000fd5b91607f1691613c91565b60009291815491613ccc83613c82565b8083529260018116908115613d225750600114613ce857505050565b60009081526020812093945091925b838310613d08575060209250010190565b600181602092949394548385870101520191019190613cf7565b915050602093945060ff929192191683830152151560051b010190565b608081019081106001600160401b038211176109fa57604052565b60a081019081106001600160401b038211176109fa57604052565b61016081019081106001600160401b038211176109fa57604052565b90601f801991011681019081106001600160401b038211176109fa57604052565b9060058210156106f45752565b919082519283825260005b848110613deb575050826000602080949584010152601f8019910116010190565b80602080928401015182828601015201613dca565b9060068210156106f45752565b600435906001600160a01b038216820361040357565b602435906001600160a01b038216820361040357565b604435906001600160a01b038216820361040357565b6001600160401b0381116109fa5760051b60200190565b6001600160401b0381116109fa57601f01601f191660200190565b81601f8201121561040357602081359101613e9b82613e66565b92613ea96040519485613d91565b828452828201116104035781600092602092838601378301015290565b60243590811515820361040357565b6040906003190112610403576004359060243590565b8054821015613f075760005260206000209060021b0190600090565b634e487b7160e01b600052603260045260246000fd5b9190604080519390613f2f9085613d91565b83906040810192831161040357905b828210613f4a57505050565b8135815260209182019101613f3e565b15613f6157565b60405162461bcd60e51b815260206004820152601760248201527f50726f706f73616c20646f6573206e6f742065786973740000000000000000006044820152606490fd5b8181029291811591840414171561331757565b818110613fc4575050565b60008155600101613fb9565b8051821015613f075760209160051b010190565b15613feb57565b60405162461bcd60e51b815260206004820152601d60248201527f496e73756666696369656e742074726561737572792062616c616e63650000006044820152606490fd5b9190820391821161331757565b1561404457565b60405162461bcd60e51b815260206004820152601360248201527250726f706f73616c206e6f742061637469766560681b6044820152606490fd5b9190820180921161331757565b8060005260016020526040600020600b81019060ff82541660068110156106f45760016140b9911461403d565b600a8101544211156141ba5760068101546140e96140de60078401548084119361407f565b60088401549061407f565b816141ad575b501561418657600260ff1983541617825561410c6007544261407f565b600d8201819055421061414a5761413f6020916000805160206153a383398151915293600460ff19825416179055614d6a565b6040519015158152a2565b60405162461bcd60e51b8152602060048201526014602482015273151a5b595b1bd8dac81b9bdd08195e1c1a5c995960621b6044820152606490fd5b50600360ff198254161790556000805160206153a3833981519152602060405160008152a2565b90506006541115386140ef565b60405162461bcd60e51b815260206004820152601060248201526f159bdd1a5b99c81b9bdd08195b99195960821b6044820152606490fd5b156141f957565b60405162461bcd60e51b8152602060048201526012602482015271159bdd1a5b99c81b9bdd081cdd185c9d195960721b6044820152606490fd5b1561423a57565b60405162461bcd60e51b815260206004820152600c60248201526b159bdd1a5b99c8195b99195960a21b6044820152606490fd5b1561427557565b60405162461bcd60e51b815260206004820152600d60248201526c105b1c9958591e481d9bdd1959609a1b6044820152606490fd5b156142b157565b60405162461bcd60e51b815260206004820152601f60248201527f43616e6e6f742064656c656761746520746f207a65726f2061646472657373006044820152606490fd5b156142fd57565b60405162461bcd60e51b815260206004820152601760248201527f43616e6e6f742064656c656761746520746f2073656c660000000000000000006044820152606490fd5b90816020910312610403575180151581036104035790565b1561436157565b60405162461bcd60e51b815260206004820152600f60248201526e151c985b9cd9995c8819985a5b1959608a1b6044820152606490fd5b60058210156106f45752565b6000526001602052604060002060ff600b8201541660068110156106f457600181036144265750600a810154421115614420576006810154906143fb60078201549160086143f2848661407f565b9101549061407f565b91119081614413575b5061440e57600390565b600290565b9050600654111538614404565b50600190565b905090565b6001600160a01b038181166000818152600b602052604081205491929190911690816146195750506000546040516370a0823160e01b81526004810183905290602090829060249082906001600160a01b03165afa8015612924576000906145e5575b6144989150614ee4565b90600052600d60205260406000209283546144b281613e4f565b946144c06040519687613d91565b818652602086019060005260206000206000915b838310614598575050505060009160005b85518110156145765760606144fa8288613fd0565b51015161450a575b6001016144e5565b60406145168288613fd0565b510151600a810290808204600a14901517156133175780606403906064821161331757606403614547575b50614502565b8194606461456861456f9360206145606001978d613fd0565b510151613fa6565b049061407f565b9390614541565b509161459091945061458a61459594615006565b9261407f565b61407f565b90565b600460206001926040516145ab81613d3f565b848060a01b03865416815284860154838201526002860154604082015260ff600387015416151560608201528152019201920191906144d4565b506020813d602011614611575b816145ff60209383613d91565b8101031261040357614498905161448e565b3d91506145f2565b80546040516370a0823160e01b81526004810193909352602090839060249082906001600160a01b03165afa90811561469857809161465e575b506144989150614ee4565b90506020823d602011614690575b8161467960209383613d91565b8101031261468d5750614498905138614653565b80fd5b3d915061466c565b604051903d90823e3d90fd5b156146ab57565b60405162461bcd60e51b815260206004820152601060248201526f105b1c9958591e48195e1958dd5d195960821b6044820152606490fd5b60001981146133175760010190565b156146f957565b60405162461bcd60e51b815260206004820152600f60248201526e2737903b37ba34b733903837bbb2b960891b6044820152606490fd5b9190601f811161473f57505050565b61476b926000526020600020906020601f840160051c8301931061476d575b601f0160051c0190613fb9565b565b909150819061475e565b90929594936147853361442b565b8515614c4057600854905b10614bef573360005260216020526147b06040600020546022549061407f565b4210614baa5784614b29575b6147c76002546146e3565b60028190556000818152600160208190526040909120918255810180546001600160a01b0319163317815590939060058410156106f457805460ff60a01b191660a085901b60ff60a01b16179055845160028501906001600160401b0381116109fa5761483e816148388454613c82565b84614730565b6020601f8211600114614ac357908061486d92600091614ab8575b508160011b916000199060031b1c19161790565b90555b6003840188516001600160401b0381116109fa57614892816148388454613c82565b6020601f8211600114614a2957817f91046785e39dbc2dbba126b31d2ddb635a475109c485d0bd1a61952789b6e5e596959493926148eb926149b29c9d600092614a1e5750508160011b916000199060031b1c19161790565b90555b6004850180546001600160a01b0319166001600160a01b0390921691909117905560058401558415614a135761492660005b4261407f565b92614943600982019480865587600014614a0a576009549061407f565b94600a820195865561497087600e600b85019460ff198654168655019060ff801983541691151516179055565b861591826149f9575b5033600052602160205242604060002055600254978895549654916149a16040518096613db2565b60a0602086015260a0850190613dbf565b95604084015260608301521560808201528033940390a36149d05790565b807f5128720a64efb221a132f55c0aef8df9f1740000d7a0888511b7d1765d24216a600080a290565b805460ff1916600117905538614979565b6003549061407f565b614926600454614920565b015190503880610dbe565b601f1982169a83600052816000209b60005b818110614aa057509b60019284927f91046785e39dbc2dbba126b31d2ddb635a475109c485d0bd1a61952789b6e5e599989796956149b29e9f10614a87575b505050811b0190556148ee565b015160001960f88460031b161c19169055388080614a7a565b838301518e556001909d019c60209384019301614a3b565b905088015138614859565b601f1982169083600052806000209160005b8a828210614b115750509083600194939210614af8575b5050811b019055614870565b89015160001960f88460031b161c191690553880614aec565b60018495602093958493015181550194019201614ad5565b33600052600a60205260ff604060002054166147bc5760405162461bcd60e51b815260206004820152603760248201527f4f6e6c7920656d657267656e637920636f6d6d69747465652063616e2063726560448201527f61746520656d657267656e63792070726f706f73616c730000000000000000006064820152608490fd5b60405162461bcd60e51b815260206004820152601860248201527f50726f706f73616c20636f6f6c646f776e2061637469766500000000000000006044820152606490fd5b60405162461bcd60e51b8152602060048201526024808201527f496e73756666696369656e7420766f74696e6720706f77657220746f2070726f604482015263706f736560e01b6064820152608490fd5b60055490614790565b15614c5057565b60405162461bcd60e51b8152602060048201526016602482015275141c9bdc1bdcd85b081b9bdd081cdd58d8d95959195960521b6044820152606490fd5b6001600160a01b03168015614cee5760008051602061530383398151915280546001600160a01b0319811683179091556001600160a01b03167f8be0079c531659141344cd1fd0a4f28419497f9722a3daafe3b4186f6b6457e0600080a3565b631e4fbdf760e01b600052600060045260246000fd5b600080516020615303833981519152546001600160a01b03163303614d2557565b63118cdaa760e01b6000523360045260246000fd5b3d15614d65573d90614d4b82613e66565b91614d596040519384613d91565b82523d6000602084013e565b606090565b6004810180546001600160a01b031615614ebd5760ff600183015460a01c1660058110156106f457600414614e3d57546005820154604051600390930180546001600160a01b039093169392600091614dc282613c82565b9160018116908115614e265750600114614df1575b5050916000939181859403925af1614ded614d3a565b5090565b90915060005260206000206000905b828210614e1257505082018183614dd7565b600181602092548488015201910190614e00565b60ff19168652505080151502830190508183614dd7565b90614e5860056020549201918254906138ad82821015613fe4565b602055600080808060018060a01b038654168554905af19182614e79614d3a565b50614e8357505090565b60207f0e0155fc4999bbb125969d44fd6a09db6b8682e20c096fe64f43c010ec14e1be9160018060a01b039054169254604051908152a290565b5050600190565b8115614ece570490565b634e487b7160e01b600052601260045260246000fd5b600181111561459557806001600160801b821015614ff5575b600482600160401b614fa7941015614fe8575b640100000000811015614fdb575b62010000811015614fce575b610100811015614fc2575b6010811015614fb6575b1015614fae575b60030260011c614f568184614ec4565b0160011c614f648184614ec4565b0160011c614f728184614ec4565b0160011c614f808184614ec4565b0160011c614f8e8184614ec4565b0160011c614f9c8184614ec4565b0160011c8092614ec4565b8111900390565b60011b614f46565b811c9160021b91614f3f565b60081c91811b91614f35565b60101c9160081b91614f2a565b60201c9160101b91614f1e565b60401c9160201b91614f10565b5050608081901c600160401b614efd565b6001600160a01b03166000908152601260205260409020805461502881613e4f565b916150366040519384613d91565b818352602083019060005260206000206000915b8383106150f6575050505060009060005b81518110156150f15760606150708284613fd0565b510151615080575b60010161505b565b916150e9600191670de0b6b3a76400006145686150ab60206150a28989613fd0565b51015142614030565b6150d06150bb6015548093613fa6565b60406150c78b8b613fd0565b51015190614ec4565b81808210911802186150e28888613fd0565b5151613fa6565b929050615078565b505090565b6004602060019260405161510981613d3f565b8554815284860154838201526002860154604082015260ff6003870154161515606082015281520192019201919061504a565b815191906041830361516d5761516692506020820151906060604084015193015160001a90615218565b9192909190565b505060009160029190565b91909160048110156106f4578061518e57509050565b6000600182036151a95763f645eedf60e01b60005260046000fd5b50600281036151c7578263fce698f760e01b60005260045260246000fd5b90916003600092146151d7575050565b6335e2f38360e21b825260045260249150fd5b60ff6000805160206153838339815191525460401c161561520757565b631afcd79f60e31b60005260046000fd5b91907f7fffffffffffffffffffffffffffffff5d576e7357a4501ddfe92f46681b20a08411615295579160209360809260ff60009560405194855216868401526040830152606082015282805260015afa15612924576000516001600160a01b038116156152895790600090600090565b50600090600190600090565b50505060009160039190565b906152c757508051156152b657602081519101fd5b63d6bda27560e01b60005260046000fd5b815115806152f9575b6152d8575090565b639996b31560e01b60009081526001600160a01b0391909116600452602490fd5b50803b156152d056fe9016d09d72d40fdae2fd8ceac6b6234c7706214fd39c1cd1e609a0528c19930077a255f45c79d26605c257d8dfc37f9a619f53963ddbed1e95aa0aab1c801cee360894a13ba1a3210667c828492db98dca3e2076cc3735a920a3ca505d382bbc9b779b17422d0df92223018b32b4d1fa46e071723d6817e2486d003becc55f00f0c57e16840df040f15088dc2f81fe391c3923bec73e23a9662efc9c229c6a00948f4a9cd986f1118c3fbd459f7a22b23c0693e1ca3ef06a6a8be5aa7d39cc03a264697066735822122084605d8208a9d9627286a1399d6825d64e022602cb0a4bc158356d1e1896a1bb64736f6c634300081c0033",
  "linkReferences": {},
  "deployedLinkReferences": {}
}