{
  "_format": "hh-sol-artifact-1",
  "contractName": "AgriDAO",
  "sourceName": "contracts/AgriDAO.sol",
  "abi": [
    {
      "inputs": [
        {
          "internalType": "address",
          "name": "target",
          "type": "address"
        }
      ],
      "name": "AddressEmptyCode",
      "type": "error"
    },
    {
      "inputs": [
        {
          "internalType": "address",
          "name": "implementation",
          "type": "address"
        }
      ],
      "name": "ERC1967InvalidImplementation",
      "type": "error"
    },
    {
      "inputs": [],
      "name": "ERC1967NonPayable",
      "type": "error"
    },
    {
      "inputs": [],
      "name": "FailedCall",
      "type": "error"
    },
    {
      "inputs": [],
      "name": "InvalidInitialization",
      "type": "error"
    },
    {
      "inputs": [],
      "name": "NotInitializing",
      "type": "error"
    },
    {
      "inputs": [
        {
          "internalType": "address",
          "name": "owner",
          "type": "address"
        }
      ],
      "name": "OwnableInvalidOwner",
      "type": "error"
    },
    {
      "inputs": [
        {
          "internalType": "address",
          "name": "account",
          "type": "address"
        }
      ],
      "name": "OwnableUnauthorizedAccount",
      "type": "error"
    },
    {
      "inputs": [],
      "name": "ReentrancyGuardReentrantCall",
      "type": "error"
    },
    {
      "inputs": [
        {
          "internalType": "address",
          "name": "token",
          "type": "address"
        }
      ],
      "name": "SafeERC20FailedOperation",
      "type": "error"
    },
    {
      "inputs": [],
      "name": "UUPSUnauthorizedCallContext",
      "type": "error"
    },
    {
      "inputs": [
        {
          "internalType": "bytes32",
          "name": "slot",
          "type": "bytes32"
        }
      ],
      "name": "UUPSUnsupportedProxiableUUID",
      "type": "error"
    },
    {
      "anonymous": false,
      "inputs": [
        {
          "indexed": true,
          "internalType": "uint256",
          "name": "proposalId",
          "type": "uint256"
        },
        {
          "indexed": true,
          "internalType": "address",
          "name": "proposer",
          "type": "address"
        },
        {
          "indexed": false,
          "internalType": "string",
          "name": "title",
          "type": "string"
        }
      ],
      "name": "ConvictionProposalCreated",
      "type": "event"
    },
    {
      "anonymous": false,
      "inputs": [
        {
          "indexed": true,
          "internalType": "address",
          "name": "activator",
          "type": "address"
        }
      ],
      "name": "EmergencyModeActivated",
      "type": "event"
    },
    {
      "anonymous": false,
      "inputs": [
        {
          "indexed": true,
          "internalType": "address",
          "name": "deactivator",
          "type": "address"
        }
      ],
      "name": "EmergencyModeDeactivated",
      "type": "event"
    },
    {
      "anonymous": false,
      "inputs": [
        {
          "indexed": false,
          "internalType": "uint64",
          "name": "version",
          "type": "uint64"
        }
      ],
      "name": "Initialized",
      "type": "event"
    },
    {
      "anonymous": false,
      "inputs": [
        {
          "indexed": true,
          "internalType": "address",
          "name": "member",
          "type": "address"
        },
        {
          "indexed": false,
          "internalType": "enum AgriDAO.MemberTier",
          "name": "tier",
          "type": "uint8"
        }
      ],
      "name": "MemberJoined",
      "type": "event"
    },
    {
      "anonymous": false,
      "inputs": [
        {
          "indexed": true,
          "internalType": "address",
          "name": "previousOwner",
          "type": "address"
        },
        {
          "indexed": true,
          "internalType": "address",
          "name": "newOwner",
          "type": "address"
        }
      ],
      "name": "OwnershipTransferred",
      "type": "event"
    },
    {
      "anonymous": false,
      "inputs": [
        {
          "indexed": true,
          "internalType": "uint256",
          "name": "proposalId",
          "type": "uint256"
        },
        {
          "indexed": true,
          "internalType": "address",
          "name": "proposer",
          "type": "address"
        },
        {
          "indexed": false,
          "internalType": "enum AgriDAO.ProposalType",
          "name": "proposalType",
          "type": "uint8"
        },
        {
          "indexed": false,
          "internalType": "string",
          "name": "title",
          "type": "string"
        }
      ],
      "name": "ProposalCreated",
      "type": "event"
    },
    {
      "anonymous": false,
      "inputs": [
        {
          "indexed": true,
          "internalType": "uint256",
          "name": "proposalId",
          "type": "uint256"
        }
      ],
      "name": "ProposalExecuted",
      "type": "event"
    },
    {
      "anonymous": false,
      "inputs": [
        {
          "indexed": true,
          "internalType": "uint256",
          "name": "proposalId",
          "type": "uint256"
        },
        {
          "indexed": true,
          "internalType": "address",
          "name": "staker",
          "type": "address"
        },
        {
          "indexed": false,
          "internalType": "uint256",
          "name": "amount",
          "type": "uint256"
        }
      ],
      "name": "TokensStakedOnConviction",
      "type": "event"
    },
    {
      "anonymous": false,
      "inputs": [
        {
          "indexed": true,
          "internalType": "address",
          "name": "implementation",
          "type": "address"
        }
      ],
      "name": "Upgraded",
      "type": "event"
    },
    {
      "anonymous": false,
      "inputs": [
        {
          "indexed": true,
          "internalType": "uint256",
          "name": "proposalId",
          "type": "uint256"
        },
        {
          "indexed": true,
          "internalType": "address",
          "name": "voter",
          "type": "address"
        },
        {
          "indexed": false,
          "internalType": "enum AgriDAO.VoteType",
          "name": "voteType",
          "type": "uint8"
        },
        {
          "indexed": false,
          "internalType": "uint256",
          "name": "weight",
          "type": "uint256"
        },
        {
          "indexed": false,
          "internalType": "uint256",
          "name": "quadraticWeight",
          "type": "uint256"
        }
      ],
      "name": "VoteCast",
      "type": "event"
    },
    {
      "inputs": [],
      "name": "UPGRADE_INTERFACE_VERSION",
      "outputs": [
        {
          "internalType": "string",
          "name": "",
          "type": "string"
        }
      ],
      "stateMutability": "view",
      "type": "function"
    },
    {
      "inputs": [],
      "name": "activateEmergencyMode",
      "outputs": [],
      "stateMutability": "nonpayable",
      "type": "function"
    },
    {
      "inputs": [],
      "name": "aiOracle",
      "outputs": [
        {
          "internalType": "address",
          "name": "",
          "type": "address"
        }
      ],
      "stateMutability": "view",
      "type": "function"
    },
    {
      "inputs": [
        {
          "internalType": "uint256",
          "name": "proposalId",
          "type": "uint256"
        },
        {
          "internalType": "enum AgriDAO.VoteType",
          "name": "voteType",
          "type": "uint8"
        },
        {
          "internalType": "string",
          "name": "reasoning",
          "type": "string"
        }
      ],
      "name": "castQuadraticVote",
      "outputs": [],
      "stateMutability": "nonpayable",
      "type": "function"
    },
    {
      "inputs": [],
      "name": "convictionGrowthRate",
      "outputs": [
        {
          "internalType": "uint256",
          "name": "",
          "type": "uint256"
        }
      ],
      "stateMutability": "view",
      "type": "function"
    },
    {
      "inputs": [],
      "name": "convictionHalfLife",
      "outputs": [
        {
          "internalType": "uint256",
          "name": "",
          "type": "uint256"
        }
      ],
      "stateMutability": "view",
      "type": "function"
    },
    {
      "inputs": [],
      "name": "convictionProposalCount",
      "outputs": [
        {
          "internalType": "uint256",
          "name": "",
          "type": "uint256"
        }
      ],
      "stateMutability": "view",
      "type": "function"
    },
    {
      "inputs": [
        {
          "internalType": "uint256",
          "name": "",
          "type": "uint256"
        }
      ],
      "name": "convictionProposals",
      "outputs": [
        {
          "internalType": "uint256",
          "name": "id",
          "type": "uint256"
        },
        {
          "internalType": "address",
          "name": "proposer",
          "type": "address"
        },
        {
          "internalType": "string",
          "name": "title",
          "type": "string"
        },
        {
          "internalType": "string",
          "name": "description",
          "type": "string"
        },
        {
          "internalType": "uint256",
          "name": "requestedAmount",
          "type": "uint256"
        },
        {
          "internalType": "address",
          "name": "beneficiary",
          "type": "address"
        },
        {
          "internalType": "uint256",
          "name": "convictionScore",
          "type": "uint256"
        },
        {
          "internalType": "uint256",
          "name": "lastUpdate",
          "type": "uint256"
        },
        {
          "internalType": "bool",
          "name": "active",
          "type": "bool"
        },
        {
          "internalType": "uint256",
          "name": "totalStaked",
          "type": "uint256"
        },
        {
          "internalType": "uint256",
          "name": "threshold",
          "type": "uint256"
        }
      ],
      "stateMutability": "view",
      "type": "function"
    },
    {
      "inputs": [],
      "name": "convictionThresholdBase",
      "outputs": [
        {
          "internalType": "uint256",
          "name": "",
          "type": "uint256"
        }
      ],
      "stateMutability": "view",
      "type": "function"
    },
    {
      "inputs": [],
      "name": "convictionVotingPeriod",
      "outputs": [
        {
          "internalType": "uint256",
          "name": "",
          "type": "uint256"
        }
      ],
      "stateMutability": "view",
      "type": "function"
    },
    {
      "inputs": [
        {
          "internalType": "string",
          "name": "title",
          "type": "string"
        },
        {
          "internalType": "string",
          "name": "description",
          "type": "string"
        },
        {
          "internalType": "uint256",
          "name": "requestedAmount",
          "type": "uint256"
        },
        {
          "internalType": "address",
          "name": "beneficiary",
          "type": "address"
        }
      ],
      "name": "createConvictionProposal",
      "outputs": [
        {
          "internalType": "uint256",
          "name": "",
          "type": "uint256"
        }
      ],
      "stateMutability": "nonpayable",
      "type": "function"
    },
    {
      "inputs": [
        {
          "internalType": "enum AgriDAO.ProposalType",
          "name": "proposalType",
          "type": "uint8"
        },
        {
          "internalType": "string",
          "name": "title",
          "type": "string"
        },
        {
          "internalType": "string",
          "name": "description",
          "type": "string"
        },
        {
          "internalType": "address[]",
          "name": "targets",
          "type": "address[]"
        },
        {
          "internalType": "uint256[]",
          "name": "values",
          "type": "uint256[]"
        },
        {
          "internalType": "bytes[]",
          "name": "calldatas",
          "type": "bytes[]"
        }
      ],
      "name": "createProposal",
      "outputs": [
        {
          "internalType": "uint256",
          "name": "",
          "type": "uint256"
        }
      ],
      "stateMutability": "nonpayable",
      "type": "function"
    },
    {
      "inputs": [],
      "name": "deactivateEmergencyMode",
      "outputs": [],
      "stateMutability": "nonpayable",
      "type": "function"
    },
    {
      "inputs": [
        {
          "internalType": "uint256",
          "name": "proposalId",
          "type": "uint256"
        }
      ],
      "name": "emergencyExecute",
      "outputs": [],
      "stateMutability": "nonpayable",
      "type": "function"
    },
    {
      "inputs": [],
      "name": "emergencyGuardian",
      "outputs": [
        {
          "internalType": "address",
          "name": "",
          "type": "address"
        }
      ],
      "stateMutability": "view",
      "type": "function"
    },
    {
      "inputs": [],
      "name": "emergencyMode",
      "outputs": [
        {
          "internalType": "bool",
          "name": "",
          "type": "bool"
        }
      ],
      "stateMutability": "view",
      "type": "function"
    },
    {
      "inputs": [],
      "name": "emergencyVotingPeriod",
      "outputs": [
        {
          "internalType": "uint256",
          "name": "",
          "type": "uint256"
        }
      ],
      "stateMutability": "view",
      "type": "function"
    },
    {
      "inputs": [
        {
          "internalType": "uint256",
          "name": "proposalId",
          "type": "uint256"
        }
      ],
      "name": "executeConvictionProposal",
      "outputs": [],
      "stateMutability": "nonpayable",
      "type": "function"
    },
    {
      "inputs": [
        {
          "internalType": "uint256",
          "name": "proposalId",
          "type": "uint256"
        }
      ],
      "name": "executeProposal",
      "outputs": [],
      "stateMutability": "nonpayable",
      "type": "function"
    },
    {
      "inputs": [],
      "name": "executionDelay",
      "outputs": [
        {
          "internalType": "uint256",
          "name": "",
          "type": "uint256"
        }
      ],
      "stateMutability": "view",
      "type": "function"
    },
    {
      "inputs": [
        {
          "internalType": "uint256",
          "name": "proposalId",
          "type": "uint256"
        }
      ],
      "name": "getConvictionProposal",
      "outputs": [
        {
          "internalType": "address",
          "name": "proposer",
          "type": "address"
        },
        {
          "internalType": "string",
          "name": "title",
          "type": "string"
        },
        {
          "internalType": "uint256",
          "name": "convictionScore",
          "type": "uint256"
        },
        {
          "internalType": "uint256",
          "name": "threshold",
          "type": "uint256"
        },
        {
          "internalType": "bool",
          "name": "active",
          "type": "bool"
        }
      ],
      "stateMutability": "view",
      "type": "function"
    },
    {
      "inputs": [
        {
          "internalType": "address",
          "name": "memberAddress",
          "type": "address"
        }
      ],
      "name": "getMemberInfo",
      "outputs": [
        {
          "internalType": "uint256",
          "name": "votingPower",
          "type": "uint256"
        },
        {
          "internalType": "uint256",
          "name": "reputation",
          "type": "uint256"
        },
        {
          "internalType": "enum AgriDAO.MemberTier",
          "name": "tier",
          "type": "uint8"
        },
        {
          "internalType": "bool",
          "name": "active",
          "type": "bool"
        }
      ],
      "stateMutability": "view",
      "type": "function"
    },
    {
      "inputs": [
        {
          "internalType": "uint256",
          "name": "proposalId",
          "type": "uint256"
        }
      ],
      "name": "getProposal",
      "outputs": [
        {
          "internalType": "address",
          "name": "proposer",
          "type": "address"
        },
        {
          "internalType": "enum AgriDAO.ProposalType",
          "name": "proposalType",
          "type": "uint8"
        },
        {
          "internalType": "string",
          "name": "title",
          "type": "string"
        },
        {
          "internalType": "uint256",
          "name": "forVotes",
          "type": "uint256"
        },
        {
          "internalType": "uint256",
          "name": "againstVotes",
          "type": "uint256"
        },
        {
          "internalType": "uint256",
          "name": "abstainVotes",
          "type": "uint256"
        },
        {
          "internalType": "enum AgriDAO.ProposalStatus",
          "name": "status",
          "type": "uint8"
        },
        {
          "internalType": "bool",
          "name": "executed",
          "type": "bool"
        }
      ],
      "stateMutability": "view",
      "type": "function"
    },
    {
      "inputs": [],
      "name": "governanceToken",
      "outputs": [
        {
          "internalType": "contract IERC20",
          "name": "",
          "type": "address"
        }
      ],
      "stateMutability": "view",
      "type": "function"
    },
    {
      "inputs": [
        {
          "internalType": "uint256",
          "name": "proposalId",
          "type": "uint256"
        },
        {
          "internalType": "address",
          "name": "voter",
          "type": "address"
        }
      ],
      "name": "hasVoted",
      "outputs": [
        {
          "internalType": "bool",
          "name": "",
          "type": "bool"
        }
      ],
      "stateMutability": "view",
      "type": "function"
    },
    {
      "inputs": [
        {
          "internalType": "address",
          "name": "_governanceToken",
          "type": "address"
        },
        {
          "internalType": "address",
          "name": "_treasury",
          "type": "address"
        },
        {
          "internalType": "address",
          "name": "_aiOracle",
          "type": "address"
        },
        {
          "internalType": "address",
          "name": "_emergencyGuardian",
          "type": "address"
        }
      ],
      "name": "initialize",
      "outputs": [],
      "stateMutability": "nonpayable",
      "type": "function"
    },
    {
      "inputs": [
        {
          "internalType": "uint256",
          "name": "initialStake",
          "type": "uint256"
        }
      ],
      "name": "joinDAO",
      "outputs": [],
      "stateMutability": "nonpayable",
      "type": "function"
    },
    {
      "inputs": [
        {
          "internalType": "uint256",
          "name": "",
          "type": "uint256"
        }
      ],
      "name": "memberList",
      "outputs": [
        {
          "internalType": "address",
          "name": "",
          "type": "address"
        }
      ],
      "stateMutability": "view",
      "type": "function"
    },
    {
      "inputs": [
        {
          "internalType": "address",
          "name": "",
          "type": "address"
        }
      ],
      "name": "members",
      "outputs": [
        {
          "internalType": "address",
          "name": "memberAddress",
          "type": "address"
        },
        {
          "internalType": "uint256",
          "name": "votingPower",
          "type": "uint256"
        },
        {
          "internalType": "uint256",
          "name": "reputation",
          "type": "uint256"
        },
        {
          "internalType": "uint256",
          "name": "joinTime",
          "type": "uint256"
        },
        {
          "internalType": "bool",
          "name": "active",
          "type": "bool"
        },
        {
          "internalType": "enum AgriDAO.MemberTier",
          "name": "tier",
          "type": "uint8"
        }
      ],
      "stateMutability": "view",
      "type": "function"
    },
    {
      "inputs": [],
      "name": "owner",
      "outputs": [
        {
          "internalType": "address",
          "name": "",
          "type": "address"
        }
      ],
      "stateMutability": "view",
      "type": "function"
    },
    {
      "inputs": [],
      "name": "proposalCount",
      "outputs": [
        {
          "internalType": "uint256",
          "name": "",
          "type": "uint256"
        }
      ],
      "stateMutability": "view",
      "type": "function"
    },
    {
      "inputs": [],
      "name": "proposalThreshold",
      "outputs": [
        {
          "internalType": "uint256",
          "name": "",
          "type": "uint256"
        }
      ],
      "stateMutability": "view",
      "type": "function"
    },
    {
      "inputs": [
        {
          "internalType": "uint256",
          "name": "",
          "type": "uint256"
        }
      ],
      "name": "proposals",
      "outputs": [
        {
          "internalType": "uint256",
          "name": "id",
          "type": "uint256"
        },
        {
          "internalType": "address",
          "name": "proposer",
          "type": "address"
        },
        {
          "internalType": "enum AgriDAO.ProposalType",
          "name": "proposalType",
          "type": "uint8"
        },
        {
          "internalType": "string",
          "name": "title",
          "type": "string"
        },
        {
          "internalType": "string",
          "name": "description",
          "type": "string"
        },
        {
          "internalType": "uint256",
          "name": "startTime",
          "type": "uint256"
        },
        {
          "internalType": "uint256",
          "name": "endTime",
          "type": "uint256"
        },
        {
          "internalType": "uint256",
          "name": "executionTime",
          "type": "uint256"
        },
        {
          "internalType": "uint256",
          "name": "forVotes",
          "type": "uint256"
        },
        {
          "internalType": "uint256",
          "name": "againstVotes",
          "type": "uint256"
        },
        {
          "internalType": "uint256",
          "name": "abstainVotes",
          "type": "uint256"
        },
        {
          "internalType": "uint256",
          "name": "quadraticForVotes",
          "type": "uint256"
        },
        {
          "internalType": "uint256",
          "name": "quadraticAgainstVotes",
          "type": "uint256"
        },
        {
          "internalType": "enum AgriDAO.ProposalStatus",
          "name": "status",
          "type": "uint8"
        },
        {
          "internalType": "bool",
          "name": "executed",
          "type": "bool"
        }
      ],
      "stateMutability": "view",
      "type": "function"
    },
    {
      "inputs": [],
      "name": "proxiableUUID",
      "outputs": [
        {
          "internalType": "bytes32",
          "name": "",
          "type": "bytes32"
        }
      ],
      "stateMutability": "view",
      "type": "function"
    },
    {
      "inputs": [],
      "name": "quorumThreshold",
      "outputs": [
        {
          "internalType": "uint256",
          "name": "",
          "type": "uint256"
        }
      ],
      "stateMutability": "view",
      "type": "function"
    },
    {
      "inputs": [],
      "name": "renounceOwnership",
      "outputs": [],
      "stateMutability": "nonpayable",
      "type": "function"
    },
    {
      "inputs": [
        {
          "internalType": "address",
          "name": "_aiOracle",
          "type": "address"
        }
      ],
      "name": "setAIOracle",
      "outputs": [],
      "stateMutability": "nonpayable",
      "type": "function"
    },
    {
      "inputs": [
        {
          "internalType": "address",
          "name": "_guardian",
          "type": "address"
        }
      ],
      "name": "setEmergencyGuardian",
      "outputs": [],
      "stateMutability": "nonpayable",
      "type": "function"
    },
    {
      "inputs": [
        {
          "internalType": "uint256",
          "name": "_threshold",
          "type": "uint256"
        }
      ],
      "name": "setProposalThreshold",
      "outputs": [],
      "stateMutability": "nonpayable",
      "type": "function"
    },
    {
      "inputs": [
        {
          "internalType": "uint256",
          "name": "_threshold",
          "type": "uint256"
        }
      ],
      "name": "setQuorumThreshold",
      "outputs": [],
      "stateMutability": "nonpayable",
      "type": "function"
    },
    {
      "inputs": [
        {
          "internalType": "uint256",
          "name": "_period",
          "type": "uint256"
        }
      ],
      "name": "setVotingPeriod",
      "outputs": [],
      "stateMutability": "nonpayable",
      "type": "function"
    },
    {
      "inputs": [
        {
          "internalType": "uint256",
          "name": "proposalId",
          "type": "uint256"
        },
        {
          "internalType": "uint256",
          "name": "amount",
          "type": "uint256"
        }
      ],
      "name": "stakeOnConvictionProposal",
      "outputs": [],
      "stateMutability": "nonpayable",
      "type": "function"
    },
    {
      "inputs": [
        {
          "internalType": "address",
          "name": "newOwner",
          "type": "address"
        }
      ],
      "name": "transferOwnership",
      "outputs": [],
      "stateMutability": "nonpayable",
      "type": "function"
    },
    {
      "inputs": [],
      "name": "treasury",
      "outputs": [
        {
          "internalType": "address",
          "name": "",
          "type": "address"
        }
      ],
      "stateMutability": "view",
      "type": "function"
    },
    {
      "inputs": [],
      "name": "treasuryBalance",
      "outputs": [
        {
          "internalType": "uint256",
          "name": "",
          "type": "uint256"
        }
      ],
      "stateMutability": "view",
      "type": "function"
    },
    {
      "inputs": [
        {
          "internalType": "address",
          "name": "memberAddress",
          "type": "address"
        }
      ],
      "name": "updateMemberTier",
      "outputs": [],
      "stateMutability": "nonpayable",
      "type": "function"
    },
    {
      "inputs": [
        {
          "internalType": "address",
          "name": "newImplementation",
          "type": "address"
        },
        {
          "internalType": "bytes",
          "name": "data",
          "type": "bytes"
        }
      ],
      "name": "upgradeToAndCall",
      "outputs": [],
      "stateMutability": "payable",
      "type": "function"
    },
    {
      "inputs": [],
      "name": "votingPeriod",
      "outputs": [
        {
          "internalType": "uint256",
          "name": "",
          "type": "uint256"
        }
      ],
      "stateMutability": "view",
      "type": "function"
    }
  ],
  "bytecode": "0x60a08060405234607a573060805269152d02c7e14af680000060075569d3c21bcecceda100000060085562093a806009556202a300600a5562015180600b5562278d00600c556002600d556213c680600e55683635c9adc5dea00000600f556135eb90816100808239608051818181611c320152611cea0152f35b600080fdfe6080604052600436101561001257600080fd5b60003560e01c8063013cf08b146128a357806302a251a31461288557806308ae4b0c146127fb5780630905f560146127d55780630d61b519146126b357806318b62629146126955780631aa632b314612655578063313dab201461263757806331b221cd1461261057806336a7119c146125f257806339428bc9146125d45780633fbdf32c146123eb578063438596321461239a5780634524c7e1146123795780634b39608614611f275780634f1ef28614611cac57806352d1902d14611c175780635f1231ea14611ba957806361d027b314611b82578063715018a614611ae95780637ad27f8f146113535780637b7a91dd14611335578063880be873146112b45780638b257989146112965780638da5cb5b1461125057806394069bd014611232578063960196e614611214578063967c771d1461110457806399b20eaf14611059578063a338df3814611019578063a579df6f14610ffb578063ad3cb1cc14610f98578063b307fc6d14610f57578063b58131b014610f39578063bc39435014610f12578063c7f758a814610e5c578063d009601014610d5a578063da35c66414610d3c578063e17439b214610b52578063e8d9510a14610aae578063ea0217cf14610a8d578063ece40cc114610a6c578063f2fde38b14610a41578063f34aec9714610962578063f5c036121461061e578063f8c8765e146103a0578063f96dae0a146103795763fdc930eb1461022c57600080fd5b3461037457602036600319011261037457610245612ee3565b6004356000526002602052604060002060088101805461026760ff8216612c1d565b6006830154600b840154116103305760ff1916905560115460048201805492918381106102ec576102c69361029b91612ed6565b6011556001600160a01b0360005416916001600160a01b0360058160105416920154169154926131ee565b60017f9b779b17422d0df92223018b32b4d1fa46e071723d6817e2486d003becc55f0055005b606460405162461bcd60e51b815260206004820152601b60248201527f496e73756666696369656e742074726561737572792066756e647300000000006044820152fd5b606460405162461bcd60e51b815260206004820152601c60248201527f436f6e76696374696f6e207468726573686f6c64206e6f74206d6574000000006044820152fd5b600080fd5b346103745760003660031901126103745760206001600160a01b0360005416604051908152f35b34610374576080366003190112610374576103b9612b19565b6103c1612b2f565b906044356001600160a01b038116809103610374576103de612b45565b907ff0c57e16840df040f15088dc2f81fe391c3923bec73e23a9662efc9c229c6a00549260ff8460401c16159467ffffffffffffffff851680159081610616575b600114908161060c575b159081610603575b506105d95767ffffffffffffffff1985166001177ff0c57e16840df040f15088dc2f81fe391c3923bec73e23a9662efc9c229c6a00556001600160a01b0394859283918861059a575b506104836134cc565b61048b6134cc565b61049433612e17565b61049c6134cc565b6104a46134cc565b60017f9b779b17422d0df92223018b32b4d1fa46e071723d6817e2486d003becc55f00556104d06134cc565b166001600160a01b03196000541617600055166001600160a01b031960105416176010556001600160a01b03196012541617601255166001600160a01b0319601354161760135561051d57005b68ff0000000000000000197ff0c57e16840df040f15088dc2f81fe391c3923bec73e23a9662efc9c229c6a0054167ff0c57e16840df040f15088dc2f81fe391c3923bec73e23a9662efc9c229c6a00557fc7f505b2f371ae2175ee4913f4499e1f2633a7b5936321eed1cdaeb6115181d2602060405160018152a1005b68ffffffffffffffffff191668010000000000000001177ff0c57e16840df040f15088dc2f81fe391c3923bec73e23a9662efc9c229c6a00558861047a565b7ff92ee8a90000000000000000000000000000000000000000000000000000000060005260046000fd5b90501587610431565b303b159150610429565b87915061041f565b346103745760803660031901126103745760043567ffffffffffffffff81116103745761064f903690600401612b77565b60243567ffffffffffffffff81116103745761066f903690600401612b77565b906044359061067c612b45565b33600052600360205260ff600460406000200154161561091e576106a1600554612d4f565b9283600555836000526002602052604060002091848355600183016001600160a01b0333166001600160a01b031982541617905560028301845167ffffffffffffffff8111610899576106fe816106f884546129c1565b84612d0a565b6020601f82116001146108ba57908061072d926000916108af575b508160011b916000199060031b1c19161790565b90555b60038301865167ffffffffffffffff81116108995760209761075c8261075685546129c1565b85612d0a565b8890601f831160011461082c578260649593600b97959361079493600092610821575b50508160011b916000199060031b1c19161790565b90555b8160048601556001600160a01b036005860191166001600160a01b031982541617905560088401600160ff1982541617905542600785015504600f54908180821191180218910155817f0a0d774abe0ff0e23f9134586acd485007514108e76000819649b7a45f21159e60405185815280610816339588830190612acb565b0390a3604051908152f35b015190508c8061077f565b90601f1983169184600052816000209260005b818110610882575092600192859260649896600b9a989610610869575b505050811b019055610797565b015160001960f88460031b161c191690558b808061085c565b92938c60018192878601518155019501930161083f565b634e487b7160e01b600052604160045260246000fd5b90508701518a610719565b601f1982169083600052806000209160005b818110610906575090836001949392106108ed575b5050811b019055610730565b88015160001960f88460031b161c1916905589806108e1565b9192602060018192868d0151815501940192016108cc565b606460405162461bcd60e51b815260206004820152601060248201527f4e6f7420612044414f206d656d626572000000000000000000000000000000006044820152fd5b34610374576020366003190112610374576004356000526002602052604060002080546001600160a01b03600183015416916109a060028201612a1d565b6109ac60038301612a1d565b916004810154926001600160a01b036005830154166006830154600784015491610a1460ff60088701541694610a06600b600a890154980154986040519c8d9c8d5260208d015261016060408d01526101608c0190612acb565b908a820360608c0152612acb565b96608089015260a088015260c087015260e086015215156101008501526101208401526101408301520390f35b3461037457602036600319011261037457610a6a610a5d612b19565b610a6561318d565b612e17565b005b3461037457602036600319011261037457610a8561318d565b600435600755005b3461037457602036600319011261037457610aa661318d565b600435600955005b3461037457602036600319011261037457610a6a600435610ad660ff60125460a01c16612dcc565b6001600160a01b036013541633148015610b1a575b610af490612d81565b806000526001602052610b1560ff600f6040600020015460081c1615612c68565b61300d565b50610af46001600160a01b037f9016d09d72d40fdae2fd8ceac6b6234c7706214fd39c1cd1e609a0528c199300541633149050610aeb565b3461037457604036600319011261037457602435600435610b71612ee3565b8060005260026020526040600020610b8f60ff600883015416612c1d565b8215610cf8576001600160a01b0360005416906040516370a0823160e01b8152336004820152602081602481865afa8015610cec578591600091610cb7575b5010610c7357610be484600a93309033906131ee565b6001600160a01b033316600052600981016020526040600020610c08858254612cb3565b905501610c16838254612cb3565b9055610c2181613458565b6040519182527f86bdf14192b571660642739d38044024e1e64604c4102e17efbf3b4521047fe160203393a360017f9b779b17422d0df92223018b32b4d1fa46e071723d6817e2486d003becc55f0055005b606460405162461bcd60e51b815260206004820152601460248201527f496e73756666696369656e742062616c616e63650000000000000000000000006044820152fd5b9150506020813d602011610ce4575b81610cd3602093836129fb565b810103126103745784905186610bce565b3d9150610cc6565b6040513d6000823e3d90fd5b606460405162461bcd60e51b815260206004820152601d60248201527f416d6f756e74206d7573742062652067726561746572207468616e20300000006044820152fd5b34610374576000366003190112610374576020600454604051908152f35b34610374576000366003190112610374576001600160a01b036013541633148015610e24575b610d8990612d81565b60125460ff8160a01c16610de05760ff60a01b19167401000000000000000000000000000000000000000017601255337f43f3e8d1092da4d3201e4d117b99bf80e75127516bc6523bd8cdb4464a923cde600080a2005b606460405162461bcd60e51b815260206004820152601960248201527f416c726561647920696e20656d657267656e6379206d6f6465000000000000006044820152fd5b50610d896001600160a01b037f9016d09d72d40fdae2fd8ceac6b6234c7706214fd39c1cd1e609a0528c199300541633149050610d80565b346103745760203660031901126103745760043560005260016020526001600160a01b03604060002060018101549060ff808360a01c1691600a81015492600b820154610ee4600c84015492610eb96002600f8701549601612a1d565b90604051998a99168952610ecc81612ac1565b60208901526101006040890152610100880190612acb565b946060870152608086015260a0850152610f0360c08501838316612b0c565b60081c16151560e08301520390f35b346103745760003660031901126103745760206001600160a01b0360135416604051908152f35b34610374576000366003190112610374576020600754604051908152f35b3461037457602036600319011261037457600435600654811015610374576001600160a01b03610f88602092612bd4565b90549060031b1c16604051908152f35b3461037457600036600319011261037457610ff76040805190610fbb81836129fb565b600582527f352e302e30000000000000000000000000000000000000000000000000000000602083015251918291602083526020830190612acb565b0390f35b34610374576000366003190112610374576020600e54604051908152f35b34610374576020366003190112610374576001600160a01b0361103a612b19565b61104261318d565b166001600160a01b03196013541617601355600080f35b34610374576000366003190112610374576001600160a01b0360135416331480156110cc575b61108890612d81565b60ff60a01b196012546110a060ff8260a01c16612dcc565b16601255337fbd95437b04432c9bbcf6d10c00e0e1cdc482151ffe5da10870858d456ee9fc23600080a2005b506110886001600160a01b037f9016d09d72d40fdae2fd8ceac6b6234c7706214fd39c1cd1e609a0528c19930054163314905061107f565b346103745760203660031901126103745761111d612b19565b6001600160a01b0381166000526003602052604060002090600482019182549160ff8316156111d05761114f906133ee565b926103e884106111a15760ff6003935b60081c1661116c81612ac1565b61117584612ac1565b830361117d57005b82611189600294612ac1565b815461ff00191660089190911b61ff00161790550155005b6101f484106111b45760ff60029361115f565b60c884106111c65760ff60019361115f565b60ff60009361115f565b606460405162461bcd60e51b815260206004820152601160248201527f4d656d626572206e6f74206163746976650000000000000000000000000000006044820152fd5b34610374576000366003190112610374576020600554604051908152f35b34610374576000366003190112610374576020600c54604051908152f35b346103745760003660031901126103745760206001600160a01b037f9016d09d72d40fdae2fd8ceac6b6234c7706214fd39c1cd1e609a0528c1993005416604051908152f35b34610374576000366003190112610374576020600a54604051908152f35b3461037457602036600319011261037457600435600052600260205260406000206001600160a01b036001820154166006820154600b83015492611302600260ff6008840154169201612a1d565b9361131f604051958695865260a0602087015260a0860190612acb565b9260408501526060840152151560808301520390f35b34610374576000366003190112610374576020600854604051908152f35b346103745760c03660031901126103745760043560048110156103745760243567ffffffffffffffff811161037457611390903690600401612b77565b60443567ffffffffffffffff8111610374576113b0903690600401612b77565b906064359167ffffffffffffffff831161037457366023840112156103745782600401356113dd81612bbc565b936113eb60405195866129fb565b81855260208501906024829360051b8201019036821161037457602401915b818310611ac9575050506084359067ffffffffffffffff8211610374573660238301121561037457816004013561144081612bbc565b9261144e60405194856129fb565b818452602084016024819360051b8301019136831161037457602401905b828210611ab95750505060a4359267ffffffffffffffff84116103745736602385011215610374578360040135926114a384612bbc565b946114b160405196876129fb565b84865260208601906024829660051b820101903682116103745760248101925b828410611a895750505050602460206001600160a01b0360005416604051928380926370a0823160e01b82523360048301525afa908115610cec57600091611a57575b5060075411611a1357611528600454612d4f565b9788600455886000526001602052604060002096898855600188016001600160a01b0333166001600160a01b03198254161781556115658c612ac1565b8b60ff60a01b1974ff000000000000000000000000000000000000000083549260a01b16911617905560028801895167ffffffffffffffff8111610899576115b1816106f884546129c1565b6020601f82116001146119ad5790806115df926000916119a257508160011b916000199060031b1c19161790565b90555b8051600389019167ffffffffffffffff8211610899576116068261075685546129c1565b602090601f831160011461193b576116369291600091836118145750508160011b916000199060031b1c19161790565b90555b6004870190519167ffffffffffffffff8311610899576801000000000000000083116108995761166e83835481855584612d5e565b90600052602060002060005b83811061191e57505050506005850190519167ffffffffffffffff831161089957680100000000000000008311610899576116ba83835481855584612d5e565b90600052602060002060005b83811061190a57505050506006830191519068010000000000000000821161089957825482845580831061188c575b50916000526020600020916000905b8282106117a55760208787817f8356bc5007056a642094f44da4e8e22469db3e8a36b5811c0f91f735f1491c798c600f8b42600782015561174483612ac1565b6001830361178f57611758600b5442612cb3565b60088201555b01805460ff191660011790556040519061177781612ac1565b81526040868201528061081633956040830190612acb565b61179b60095442612cb3565b600882015561175e565b805180519067ffffffffffffffff8211610899576117cd826117c788546129c1565b88612d0a565b602090601f831160011461181f5792611805836001959460209487966000926118145750508160011b916000199060031b1c19161790565b87555b01940191019092611704565b015190508e8061077f565b90601f1983169187600052816000209260005b818110611874575093602093600196938796938388951061185b575b505050811b018755611808565b015160001960f88460031b161c191690558d808061184e565b92936020600181928786015181550195019301611832565b8360005282602060002091820191015b8181106118a957506116f5565b806118b6600192546129c1565b806118c3575b500161189c565b601f811183146118d95750600081555b8a6118bc565b6118f7908260005283601f6020600020920160051c82019101612cf3565b80600052600060208120818355556118d3565b6001906020845194019381840155016116c6565b60019060206001600160a01b03855116940193818401550161167a565b90601f1983169184600052816000209260005b81811061198a5750908460019594939210611971575b505050811b019055611639565b015160001960f88460031b161c191690558d8080611964565b9293602060018192878601518155019501930161194e565b90508c01518f610719565b60008381528181209190601f198416908e5b8282106119fa57505090836001949392106119e1575b5050811b0190556115e2565b8d015160001960f88460031b161c191690558e806119d5565b600184956020939584930151815501940192018e6119bf565b606460405162461bcd60e51b815260206004820152601e60248201527f496e73756666696369656e7420746f6b656e7320746f2070726f706f736500006044820152fd5b90506020813d602011611a81575b81611a72602093836129fb565b8101031261037457518a611514565b3d9150611a65565b833567ffffffffffffffff811161037457602091611aae839260243691870101612b77565b8152019301926114d1565b813581526020918201910161146c565b82356001600160a01b03811681036103745781526020928301920161140a565b3461037457600036600319011261037457611b0261318d565b60006001600160a01b037f9016d09d72d40fdae2fd8ceac6b6234c7706214fd39c1cd1e609a0528c199300546001600160a01b031981167f9016d09d72d40fdae2fd8ceac6b6234c7706214fd39c1cd1e609a0528c19930055167f8be0079c531659141344cd1fd0a4f28419497f9722a3daafe3b4186f6b6457e08280a3005b346103745760003660031901126103745760206001600160a01b0360105416604051908152f35b34610374576020366003190112610374576001600160a01b03611bca612b19565b1660005260036020526080604060002060ff6001820154916004600282015491015490828260081c16906040519485526020850152611c0881612ac1565b60408401521615156060820152f35b34610374576000366003190112610374576001600160a01b037f0000000000000000000000000000000000000000000000000000000000000000163003611c825760206040517f360894a13ba1a3210667c828492db98dca3e2076cc3735a920a3ca505d382bbc8152f35b7fe07c8dba0000000000000000000000000000000000000000000000000000000060005260046000fd5b604036600319011261037457611cc0612b19565b60243567ffffffffffffffff811161037457611ce0903690600401612b77565b6001600160a01b037f000000000000000000000000000000000000000000000000000000000000000016803014908115611ef2575b50611c8257611d2261318d565b6001600160a01b038216916040517f52d1902d000000000000000000000000000000000000000000000000000000008152602081600481875afa60009181611ebe575b50611d7f5783634c9c8ce360e01b60005260045260246000fd5b807f360894a13ba1a3210667c828492db98dca3e2076cc3735a920a3ca505d382bbc859203611e915750813b15611e7d57806001600160a01b03197f360894a13ba1a3210667c828492db98dca3e2076cc3735a920a3ca505d382bbc5416177f360894a13ba1a3210667c828492db98dca3e2076cc3735a920a3ca505d382bbc557fbc7cd75a20ee27fd9adebab32041f755214dbc6bffa90cc0225b39da2e5c2d3b600080a2815115611e4a57600080836020610a6a95519101845af4611e44612fdd565b91613525565b505034611e5357005b7fb398979f0000000000000000000000000000000000000000000000000000000060005260046000fd5b634c9c8ce360e01b60005260045260246000fd5b7faa1d49a40000000000000000000000000000000000000000000000000000000060005260045260246000fd5b9091506020813d602011611eea575b81611eda602093836129fb565b8101031261037457519085611d65565b3d9150611ecd565b90506001600160a01b037f360894a13ba1a3210667c828492db98dca3e2076cc3735a920a3ca505d382bbc5416141583611d15565b346103745760603660031901126103745760243560043560038210156103745760443567ffffffffffffffff811161037457611f67903690600401612b77565b91611f70612ee3565b81600052600160205260406000209260ff600f85015416600681101561217c576001611f9c9114612c1d565b60078401544210158061236b575b156123275760118401916001600160a01b0333166000528260205260ff604060002054166122e35760249160206001600160a01b0360005416604051948580926370a0823160e01b82523360048301525afa928315610cec576000936122ac575b50821561226857670de0b6b3a76400008302838104670de0b6b3a7640000036122525761203c633b9aca00916132b2565b0493604060006001600160a01b0333168152601089016020522091600460009360ff1981541660ff8716178155866001820155876002820155426003820155019080519067ffffffffffffffff821161223e5761209d8261075685546129c1565b602090601f83116001146121db576120cc92918691836121d05750508160011b916000199060031b1c19161790565b90555b6001600160a01b033316825260205260408120600160ff1982541617905594600182146000146121925780600a600d920161210b858254612cb3565b905501612119848254612cb3565b90555b6040519461217c578452602084015260408301527f6e8bd44a147cd07b025b7748fc3704d4c79fce242883c53a90dcf5c05189c68960603393a360017f9b779b17422d0df92223018b32b4d1fa46e071723d6817e2486d003becc55f0055005b634e487b7160e01b600052602160045260246000fd5b60009550816121c25780600b600e92016121ad858254612cb3565b9055016121bb848254612cb3565b905561211c565b600c016121bb838254612cb3565b015190508b8061077f565b8386528186209190601f198416875b818110612226575090846001959493921061220d575b505050811b0190556120cf565b015160001960f88460031b161c191690558a8080612200565b929360206001819287860151815501950193016121ea565b602485634e487b7160e01b81526041600452fd5b634e487b7160e01b600052601160045260246000fd5b606460405162461bcd60e51b815260206004820152600f60248201527f4e6f20766f74696e6720706f77657200000000000000000000000000000000006044820152fd5b90926020823d6020116122db575b816122c7602093836129fb565b810103126122d8575051918661200b565b80fd5b3d91506122ba565b606460405162461bcd60e51b815260206004820152600d60248201527f416c726561647920766f746564000000000000000000000000000000000000006044820152fd5b606460405162461bcd60e51b815260206004820152601160248201527f566f74696e67206e6f74206163746976650000000000000000000000000000006044820152fd5b506008840154421115611faa565b346103745760203660031901126103745761239261318d565b600435600855005b34610374576040366003190112610374576123b3612b2f565b60043560005260016020526001600160a01b0360116040600020019116600052602052602060ff604060002054166040519015158152f35b3461037457602036600319011261037457600435612407612ee3565b33600052600360205260ff600460406000200154166125905768056bc75e2d63100000811061254c57612454816001600160a01b03600054166001600160a01b03601054169033906131ee565b336000526003602052600460406000206001600160a01b0333166001600160a01b03198254161781558260018201556064600282015542600382015501610101815461ffff1916178155600654680100000000000000008110156108995760ff926124c88260016124e99401600655612bd4565b81549060031b906001600160a01b0333831b921b1916179055601154612cb3565b6011555460081c16604051906124fe81612ac1565b81527f1cd012c714ed3cded48d6931e2880a1a26270c62446812b1fb8589be7d51538060203392a260017f9b779b17422d0df92223018b32b4d1fa46e071723d6817e2486d003becc55f0055005b606460405162461bcd60e51b815260206004820152601660248201527f4d696e696d756d207374616b65207265717569726564000000000000000000006044820152fd5b606460405162461bcd60e51b815260206004820152601060248201527f416c72656164792061206d656d626572000000000000000000000000000000006044820152fd5b34610374576000366003190112610374576020600d54604051908152f35b34610374576000366003190112610374576020600f54604051908152f35b346103745760003660031901126103745760206001600160a01b0360125416604051908152f35b34610374576000366003190112610374576020601154604051908152f35b34610374576020366003190112610374576001600160a01b03612676612b19565b61267e61318d565b166001600160a01b03196012541617601255600080f35b34610374576000366003190112610374576020600b54604051908152f35b34610374576020366003190112610374576004356126cf612ee3565b806000526001602052604060002090600f820191825460ff8116600681101561217c5760016126fe9114612c1d565b60088201544211156127915760ff61271a9160081c1615612c68565b61272382612f5c565b1561274d576102c692600260ff198254161790556009612745600a5442612cb3565b91015561300d565b606460405162461bcd60e51b815260206004820152601860248201527f50726f706f73616c20646964206e6f74207375636365656400000000000000006044820152fd5b606460405162461bcd60e51b815260206004820152601060248201527f566f74696e67206e6f7420656e646564000000000000000000000000000000006044820152fd5b3461037457600036600319011261037457602060ff60125460a01c166040519015158152f35b34610374576020366003190112610374576001600160a01b0361281c612b19565b16600052600360205260c060406000206001600160a01b038154169060ff6001820154916002810154906004600382015491015491838360081c1694604051968752602087015260408601526060850152161515608083015261287e81612ac1565b60a0820152f35b34610374576000366003190112610374576020600954604051908152f35b34610374576020366003190112610374576004356000526001602052604060002080546001820154918260a01c60ff16600282016128e090612a1d565b916128ed60038201612a1d565b9260078201549360088301546009840154600a85015490600b86015492600c87015494600d88015496600e89015498600f015499604051809e819e82526001600160a01b0316906020015261294181612ac1565b60408d015260608c016101e090526101e08c0161295d91612acb565b8b810360808d015261296e91612acb565b9860a08b015260c08a015260e08901526101008801526101208701526101408601526101608501526101808401526101a0830160ff8216906129af91612b0c565b60081c60ff1615156101c08301520390f35b90600182811c921680156129f1575b60208310146129db57565b634e487b7160e01b600052602260045260246000fd5b91607f16916129d0565b90601f8019910116810190811067ffffffffffffffff82111761089957604052565b9060405191826000825492612a31846129c1565b8084529360018116908115612a9f5750600114612a58575b50612a56925003836129fb565b565b90506000929192526020600020906000915b818310612a83575050906020612a569282010138612a49565b6020919350806001915483858901015201910190918492612a6a565b905060209250612a5694915060ff191682840152151560051b82010138612a49565b6004111561217c57565b919082519283825260005b848110612af7575050826000602080949584010152601f8019910116010190565b80602080928401015182828601015201612ad6565b90600682101561217c5752565b600435906001600160a01b038216820361037457565b602435906001600160a01b038216820361037457565b606435906001600160a01b038216820361037457565b67ffffffffffffffff811161089957601f01601f191660200190565b81601f8201121561037457602081359101612b9182612b5b565b92612b9f60405194856129fb565b828452828201116103745781600092602092838601378301015290565b67ffffffffffffffff81116108995760051b60200190565b600654811015612bef57600660005260206000200190600090565b634e487b7160e01b600052603260045260246000fd5b8054821015612bef5760005260206000200190600090565b15612c2457565b606460405162461bcd60e51b815260206004820152601360248201527f50726f706f73616c206e6f7420616374697665000000000000000000000000006044820152fd5b15612c6f57565b606460405162461bcd60e51b815260206004820152601060248201527f416c7265616479206578656375746564000000000000000000000000000000006044820152fd5b9190820180921161225257565b8181029291811591840414171561225257565b8115612cdd570490565b634e487b7160e01b600052601260045260246000fd5b818110612cfe575050565b60008155600101612cf3565b9190601f8111612d1957505050565b612a56926000526020600020906020601f840160051c83019310612d45575b601f0160051c0190612cf3565b9091508190612d38565b60001981146122525760010190565b91818110612d6b57505050565b612a569260005260206000209182019101612cf3565b15612d8857565b606460405162461bcd60e51b815260206004820152600e60248201527f4e6f7420617574686f72697a65640000000000000000000000000000000000006044820152fd5b15612dd357565b606460405162461bcd60e51b815260206004820152601560248201527f4e6f7420696e20656d657267656e6379206d6f646500000000000000000000006044820152fd5b6001600160a01b03168015612ea7576001600160a01b037f9016d09d72d40fdae2fd8ceac6b6234c7706214fd39c1cd1e609a0528c19930054826001600160a01b03198216177f9016d09d72d40fdae2fd8ceac6b6234c7706214fd39c1cd1e609a0528c19930055167f8be0079c531659141344cd1fd0a4f28419497f9722a3daafe3b4186f6b6457e0600080a3565b7f1e4fbdf700000000000000000000000000000000000000000000000000000000600052600060045260246000fd5b9190820391821161225257565b60027f9b779b17422d0df92223018b32b4d1fa46e071723d6817e2486d003becc55f005414612f325760027f9b779b17422d0df92223018b32b4d1fa46e071723d6817e2486d003becc55f0055565b7f3ee5aeb50000000000000000000000000000000000000000000000000000000060005260046000fd5b60005260016020526040600020600a81015490600b810154612f8c612f818285612cb3565b600c84015490612cb3565b916008548310612fd45760ff6001600292015460a01c16612fac81612ac1565b03612fcd57508060011b908082046002149015171561225257600390041090565b9190501190565b50505050600090565b3d15613008573d90612fee82612b5b565b91612ffc60405193846129fb565b82523d6000602084013e565b606090565b8060005260016020526040600020916000906004840190600585019360068601935b835481101561314b576001600160a01b0361304a8286612c05565b90549060031b1c1661305c8288612c05565b90549060031b1c61306d8388612c05565b509060405191600090805490613082826129c1565b916001811690811561313457506001146130ff575b5050916000939181859403925af16130ad612fdd565b50156130bb5760010161302f565b606460405162461bcd60e51b815260206004820152601960248201527f50726f706f73616c20657865637574696f6e206661696c6564000000000000006044820152fd5b90915060005260206000206000905b82821061312057505082018183613097565b60018160209254848801520191019061310e565b60ff19168652505080151502830190508183613097565b50600f95909501805461ffff19166101041790559392507f712ae1383f79ac853f8d882153778e0260ef8f03b504e2866e0593e04d2b291f91506000905080a2565b6001600160a01b037f9016d09d72d40fdae2fd8ceac6b6234c7706214fd39c1cd1e609a0528c199300541633036131c057565b7f118cdaa7000000000000000000000000000000000000000000000000000000006000523360045260246000fd5b92906020926000926001600160a01b036040519281878501957f23b872dd00000000000000000000000000000000000000000000000000000000875216602485015216604483015260648201526064815261324a6084826129fb565b519082855af115610cec576000513d6132a957506001600160a01b0381163b155b6132725750565b6001600160a01b03907f5274afe7000000000000000000000000000000000000000000000000000000006000521660045260246000fd5b6001141561326b565b60018111156133eb578060017001000000000000000000000000000000008310156133d5575b600482680100000000000000006133879410156133c8575b6401000000008110156133bb575b620100008110156133ae575b6101008110156133a2575b6010811015613396575b101561338e575b60030260011c6133368184612cd3565b0160011c6133448184612cd3565b0160011c6133528184612cd3565b0160011c6133608184612cd3565b0160011c61336e8184612cd3565b0160011c61337c8184612cd3565b0160011c8092612cd3565b8111900390565b60011b613326565b811c9160021b9161331f565b60081c91811b91613315565b60101c9160081b9161330a565b60201c9160101b916132fe565b60401c9160201b916132f0565b5050608081901c680100000000000000006132d8565b90565b6001600160a01b03166000526003602052604060002060ff60048201541615613452576301e1338061343b6003613432670de0b6b3a76400006001860154046132b2565b93015442612ed6565b04906064019081606411612252576133eb91612cb3565b50600090565b600052600260205260406000206007810190613475825442612ed6565b80156134c7576134bf61349c613497670de0b6b3a764000093600d5490612cc0565b6132b2565b6134b960066134ae600a8701546132b2565b950194855492612cc0565b90612cb3565b049055429055565b505050565b60ff7ff0c57e16840df040f15088dc2f81fe391c3923bec73e23a9662efc9c229c6a005460401c16156134fb57565b7fd7e6bcf80000000000000000000000000000000000000000000000000000000060005260046000fd5b90613564575080511561353a57602081519101fd5b7fd6bda2750000000000000000000000000000000000000000000000000000000060005260046000fd5b815115806135ac575b613575575090565b6001600160a01b03907f9996b315000000000000000000000000000000000000000000000000000000006000521660045260246000fd5b50803b1561356d56fea2646970667358221220621f3f866883dbfd731bab354317aaea04399b96cb8ed8f8646cb5376957f40264736f6c634300081c0033",
  "linkReferences": {},
  "deployedLinkReferences": {}
}