{
  "_format": "hh-sol-artifact-1",
  "contractName": "CarbonMarketplace",
  "sourceName": "contracts/CarbonMarketplace.sol",
  "abi": [
    {
      "inputs": [
        {
          "internalType": "address",
          "name": "target",
          "type": "address"
        }
      ],
      "name": "AddressEmptyCode",
      "type": "error"
    },
    {
      "inputs": [
        {
          "internalType": "address",
          "name": "implementation",
          "type": "address"
        }
      ],
      "name": "ERC1967InvalidImplementation",
      "type": "error"
    },
    {
      "inputs": [],
      "name": "ERC1967NonPayable",
      "type": "error"
    },
    {
      "inputs": [],
      "name": "FailedCall",
      "type": "error"
    },
    {
      "inputs": [],
      "name": "InvalidInitialization",
      "type": "error"
    },
    {
      "inputs": [],
      "name": "NotInitializing",
      "type": "error"
    },
    {
      "inputs": [
        {
          "internalType": "address",
          "name": "owner",
          "type": "address"
        }
      ],
      "name": "OwnableInvalidOwner",
      "type": "error"
    },
    {
      "inputs": [
        {
          "internalType": "address",
          "name": "account",
          "type": "address"
        }
      ],
      "name": "OwnableUnauthorizedAccount",
      "type": "error"
    },
    {
      "inputs": [],
      "name": "ReentrancyGuardReentrantCall",
      "type": "error"
    },
    {
      "inputs": [
        {
          "internalType": "address",
          "name": "token",
          "type": "address"
        }
      ],
      "name": "SafeERC20FailedOperation",
      "type": "error"
    },
    {
      "inputs": [],
      "name": "UUPSUnauthorizedCallContext",
      "type": "error"
    },
    {
      "inputs": [
        {
          "internalType": "bytes32",
          "name": "slot",
          "type": "bytes32"
        }
      ],
      "name": "UUPSUnsupportedProxiableUUID",
      "type": "error"
    },
    {
      "anonymous": false,
      "inputs": [
        {
          "indexed": true,
          "internalType": "uint256",
          "name": "listingId",
          "type": "uint256"
        },
        {
          "indexed": false,
          "internalType": "uint256",
          "name": "aiPrice",
          "type": "uint256"
        },
        {
          "indexed": false,
          "internalType": "uint256",
          "name": "confidence",
          "type": "uint256"
        }
      ],
      "name": "AIBidPlaced",
      "type": "event"
    },
    {
      "anonymous": false,
      "inputs": [
        {
          "indexed": true,
          "internalType": "uint256",
          "name": "bidId",
          "type": "uint256"
        },
        {
          "indexed": true,
          "internalType": "uint256",
          "name": "listingId",
          "type": "uint256"
        }
      ],
      "name": "BidAccepted",
      "type": "event"
    },
    {
      "anonymous": false,
      "inputs": [
        {
          "indexed": true,
          "internalType": "uint256",
          "name": "bidId",
          "type": "uint256"
        },
        {
          "indexed": true,
          "internalType": "uint256",
          "name": "listingId",
          "type": "uint256"
        },
        {
          "indexed": true,
          "internalType": "address",
          "name": "bidder",
          "type": "address"
        },
        {
          "indexed": false,
          "internalType": "uint256",
          "name": "amount",
          "type": "uint256"
        }
      ],
      "name": "BidPlaced",
      "type": "event"
    },
    {
      "anonymous": false,
      "inputs": [
        {
          "indexed": false,
          "internalType": "uint64",
          "name": "version",
          "type": "uint64"
        }
      ],
      "name": "Initialized",
      "type": "event"
    },
    {
      "anonymous": false,
      "inputs": [
        {
          "indexed": true,
          "internalType": "uint256",
          "name": "listingId",
          "type": "uint256"
        }
      ],
      "name": "ListingCancelled",
      "type": "event"
    },
    {
      "anonymous": false,
      "inputs": [
        {
          "indexed": true,
          "internalType": "uint256",
          "name": "listingId",
          "type": "uint256"
        },
        {
          "indexed": true,
          "internalType": "address",
          "name": "seller",
          "type": "address"
        },
        {
          "indexed": false,
          "internalType": "uint256",
          "name": "tokenId",
          "type": "uint256"
        },
        {
          "indexed": false,
          "internalType": "uint256",
          "name": "price",
          "type": "uint256"
        }
      ],
      "name": "ListingCreated",
      "type": "event"
    },
    {
      "anonymous": false,
      "inputs": [
        {
          "indexed": true,
          "internalType": "uint256",
          "name": "listingId",
          "type": "uint256"
        },
        {
          "indexed": true,
          "internalType": "address",
          "name": "buyer",
          "type": "address"
        },
        {
          "indexed": false,
          "internalType": "uint256",
          "name": "price",
          "type": "uint256"
        }
      ],
      "name": "ListingSold",
      "type": "event"
    },
    {
      "anonymous": false,
      "inputs": [
        {
          "indexed": true,
          "internalType": "uint256",
          "name": "listingId",
          "type": "uint256"
        },
        {
          "indexed": false,
          "internalType": "uint256",
          "name": "newPrice",
          "type": "uint256"
        }
      ],
      "name": "ListingUpdated",
      "type": "event"
    },
    {
      "anonymous": false,
      "inputs": [
        {
          "indexed": true,
          "internalType": "address",
          "name": "previousOwner",
          "type": "address"
        },
        {
          "indexed": true,
          "internalType": "address",
          "name": "newOwner",
          "type": "address"
        }
      ],
      "name": "OwnershipTransferred",
      "type": "event"
    },
    {
      "anonymous": false,
      "inputs": [
        {
          "indexed": true,
          "internalType": "address",
          "name": "implementation",
          "type": "address"
        }
      ],
      "name": "Upgraded",
      "type": "event"
    },
    {
      "inputs": [],
      "name": "UPGRADE_INTERFACE_VERSION",
      "outputs": [
        {
          "internalType": "string",
          "name": "",
          "type": "string"
        }
      ],
      "stateMutability": "view",
      "type": "function"
    },
    {
      "inputs": [
        {
          "internalType": "uint256",
          "name": "bidId",
          "type": "uint256"
        }
      ],
      "name": "acceptBid",
      "outputs": [],
      "stateMutability": "nonpayable",
      "type": "function"
    },
    {
      "inputs": [],
      "name": "aiOracle",
      "outputs": [
        {
          "internalType": "address",
          "name": "",
          "type": "address"
        }
      ],
      "stateMutability": "view",
      "type": "function"
    },
    {
      "inputs": [
        {
          "internalType": "uint256",
          "name": "listingId",
          "type": "uint256"
        }
      ],
      "name": "cancelListing",
      "outputs": [],
      "stateMutability": "nonpayable",
      "type": "function"
    },
    {
      "inputs": [],
      "name": "carbonToken",
      "outputs": [
        {
          "internalType": "contract ICarbonToken",
          "name": "",
          "type": "address"
        }
      ],
      "stateMutability": "view",
      "type": "function"
    },
    {
      "inputs": [
        {
          "internalType": "uint256",
          "name": "tokenId",
          "type": "uint256"
        },
        {
          "internalType": "uint256",
          "name": "price",
          "type": "uint256"
        },
        {
          "internalType": "address",
          "name": "paymentToken",
          "type": "address"
        },
        {
          "internalType": "enum CarbonMarketplace.ListingType",
          "name": "listingType",
          "type": "uint8"
        },
        {
          "internalType": "uint256",
          "name": "expiry",
          "type": "uint256"
        }
      ],
      "name": "createListing",
      "outputs": [
        {
          "internalType": "uint256",
          "name": "",
          "type": "uint256"
        }
      ],
      "stateMutability": "nonpayable",
      "type": "function"
    },
    {
      "inputs": [],
      "name": "feeRecipient",
      "outputs": [
        {
          "internalType": "address",
          "name": "",
          "type": "address"
        }
      ],
      "stateMutability": "view",
      "type": "function"
    },
    {
      "inputs": [
        {
          "internalType": "uint256",
          "name": "listingId",
          "type": "uint256"
        }
      ],
      "name": "getListing",
      "outputs": [
        {
          "components": [
            {
              "internalType": "uint256",
              "name": "listingId",
              "type": "uint256"
            },
            {
              "internalType": "address",
              "name": "seller",
              "type": "address"
            },
            {
              "internalType": "uint256",
              "name": "tokenId",
              "type": "uint256"
            },
            {
              "internalType": "uint256",
              "name": "carbonAmount",
              "type": "uint256"
            },
            {
              "internalType": "uint256",
              "name": "price",
              "type": "uint256"
            },
            {
              "internalType": "address",
              "name": "paymentToken",
              "type": "address"
            },
            {
              "internalType": "uint256",
              "name": "aiValuation",
              "type": "uint256"
            },
            {
              "internalType": "uint256",
              "name": "aiConfidence",
              "type": "uint256"
            },
            {
              "internalType": "uint256",
              "name": "expiry",
              "type": "uint256"
            },
            {
              "internalType": "bool",
              "name": "active",
              "type": "bool"
            },
            {
              "internalType": "enum CarbonMarketplace.ListingType",
              "name": "listingType",
              "type": "uint8"
            }
          ],
          "internalType": "struct CarbonMarketplace.Listing",
          "name": "",
          "type": "tuple"
        }
      ],
      "stateMutability": "view",
      "type": "function"
    },
    {
      "inputs": [
        {
          "internalType": "uint256",
          "name": "listingId",
          "type": "uint256"
        }
      ],
      "name": "getListingBids",
      "outputs": [
        {
          "components": [
            {
              "internalType": "uint256",
              "name": "bidId",
              "type": "uint256"
            },
            {
              "internalType": "uint256",
              "name": "listingId",
              "type": "uint256"
            },
            {
              "internalType": "address",
              "name": "bidder",
              "type": "address"
            },
            {
              "internalType": "uint256",
              "name": "bidAmount",
              "type": "uint256"
            },
            {
              "internalType": "uint256",
              "name": "timestamp",
              "type": "uint256"
            },
            {
              "internalType": "bool",
              "name": "active",
              "type": "bool"
            }
          ],
          "internalType": "struct CarbonMarketplace.Bid[]",
          "name": "",
          "type": "tuple[]"
        }
      ],
      "stateMutability": "view",
      "type": "function"
    },
    {
      "inputs": [
        {
          "internalType": "address",
          "name": "user",
          "type": "address"
        }
      ],
      "name": "getUserBids",
      "outputs": [
        {
          "internalType": "uint256[]",
          "name": "",
          "type": "uint256[]"
        }
      ],
      "stateMutability": "view",
      "type": "function"
    },
    {
      "inputs": [
        {
          "internalType": "address",
          "name": "user",
          "type": "address"
        }
      ],
      "name": "getUserListings",
      "outputs": [
        {
          "internalType": "uint256[]",
          "name": "",
          "type": "uint256[]"
        }
      ],
      "stateMutability": "view",
      "type": "function"
    },
    {
      "inputs": [
        {
          "internalType": "address",
          "name": "_soulboundCredit",
          "type": "address"
        },
        {
          "internalType": "address",
          "name": "_carbonToken",
          "type": "address"
        },
        {
          "internalType": "address",
          "name": "_aiOracle",
          "type": "address"
        }
      ],
      "name": "initialize",
      "outputs": [],
      "stateMutability": "nonpayable",
      "type": "function"
    },
    {
      "inputs": [
        {
          "internalType": "uint256",
          "name": "",
          "type": "uint256"
        },
        {
          "internalType": "uint256",
          "name": "",
          "type": "uint256"
        }
      ],
      "name": "listingBids",
      "outputs": [
        {
          "internalType": "uint256",
          "name": "bidId",
          "type": "uint256"
        },
        {
          "internalType": "uint256",
          "name": "listingId",
          "type": "uint256"
        },
        {
          "internalType": "address",
          "name": "bidder",
          "type": "address"
        },
        {
          "internalType": "uint256",
          "name": "bidAmount",
          "type": "uint256"
        },
        {
          "internalType": "uint256",
          "name": "timestamp",
          "type": "uint256"
        },
        {
          "internalType": "bool",
          "name": "active",
          "type": "bool"
        }
      ],
      "stateMutability": "view",
      "type": "function"
    },
    {
      "inputs": [
        {
          "internalType": "uint256",
          "name": "",
          "type": "uint256"
        }
      ],
      "name": "listings",
      "outputs": [
        {
          "internalType": "uint256",
          "name": "listingId",
          "type": "uint256"
        },
        {
          "internalType": "address",
          "name": "seller",
          "type": "address"
        },
        {
          "internalType": "uint256",
          "name": "tokenId",
          "type": "uint256"
        },
        {
          "internalType": "uint256",
          "name": "carbonAmount",
          "type": "uint256"
        },
        {
          "internalType": "uint256",
          "name": "price",
          "type": "uint256"
        },
        {
          "internalType": "address",
          "name": "paymentToken",
          "type": "address"
        },
        {
          "internalType": "uint256",
          "name": "aiValuation",
          "type": "uint256"
        },
        {
          "internalType": "uint256",
          "name": "aiConfidence",
          "type": "uint256"
        },
        {
          "internalType": "uint256",
          "name": "expiry",
          "type": "uint256"
        },
        {
          "internalType": "bool",
          "name": "active",
          "type": "bool"
        },
        {
          "internalType": "enum CarbonMarketplace.ListingType",
          "name": "listingType",
          "type": "uint8"
        }
      ],
      "stateMutability": "view",
      "type": "function"
    },
    {
      "inputs": [],
      "name": "nextBidId",
      "outputs": [
        {
          "internalType": "uint256",
          "name": "",
          "type": "uint256"
        }
      ],
      "stateMutability": "view",
      "type": "function"
    },
    {
      "inputs": [],
      "name": "nextListingId",
      "outputs": [
        {
          "internalType": "uint256",
          "name": "",
          "type": "uint256"
        }
      ],
      "stateMutability": "view",
      "type": "function"
    },
    {
      "inputs": [],
      "name": "owner",
      "outputs": [
        {
          "internalType": "address",
          "name": "",
          "type": "address"
        }
      ],
      "stateMutability": "view",
      "type": "function"
    },
    {
      "inputs": [
        {
          "internalType": "uint256",
          "name": "listingId",
          "type": "uint256"
        }
      ],
      "name": "placeAIBid",
      "outputs": [],
      "stateMutability": "nonpayable",
      "type": "function"
    },
    {
      "inputs": [
        {
          "internalType": "uint256",
          "name": "listingId",
          "type": "uint256"
        },
        {
          "internalType": "uint256",
          "name": "bidAmount",
          "type": "uint256"
        }
      ],
      "name": "placeBid",
      "outputs": [
        {
          "internalType": "uint256",
          "name": "",
          "type": "uint256"
        }
      ],
      "stateMutability": "nonpayable",
      "type": "function"
    },
    {
      "inputs": [],
      "name": "platformFee",
      "outputs": [
        {
          "internalType": "uint256",
          "name": "",
          "type": "uint256"
        }
      ],
      "stateMutability": "view",
      "type": "function"
    },
    {
      "inputs": [],
      "name": "proxiableUUID",
      "outputs": [
        {
          "internalType": "bytes32",
          "name": "",
          "type": "bytes32"
        }
      ],
      "stateMutability": "view",
      "type": "function"
    },
    {
      "inputs": [
        {
          "internalType": "uint256",
          "name": "listingId",
          "type": "uint256"
        }
      ],
      "name": "purchaseListing",
      "outputs": [],
      "stateMutability": "nonpayable",
      "type": "function"
    },
    {
      "inputs": [],
      "name": "renounceOwnership",
      "outputs": [],
      "stateMutability": "nonpayable",
      "type": "function"
    },
    {
      "inputs": [
        {
          "internalType": "address",
          "name": "_aiOracle",
          "type": "address"
        }
      ],
      "name": "setAIOracle",
      "outputs": [],
      "stateMutability": "nonpayable",
      "type": "function"
    },
    {
      "inputs": [
        {
          "internalType": "uint256",
          "name": "_fee",
          "type": "uint256"
        }
      ],
      "name": "setPlatformFee",
      "outputs": [],
      "stateMutability": "nonpayable",
      "type": "function"
    },
    {
      "inputs": [],
      "name": "soulboundCredit",
      "outputs": [
        {
          "internalType": "contract ISoulboundCarbonCredit",
          "name": "",
          "type": "address"
        }
      ],
      "stateMutability": "view",
      "type": "function"
    },
    {
      "inputs": [
        {
          "internalType": "address",
          "name": "newOwner",
          "type": "address"
        }
      ],
      "name": "transferOwnership",
      "outputs": [],
      "stateMutability": "nonpayable",
      "type": "function"
    },
    {
      "inputs": [
        {
          "internalType": "address",
          "name": "newImplementation",
          "type": "address"
        },
        {
          "internalType": "bytes",
          "name": "data",
          "type": "bytes"
        }
      ],
      "name": "upgradeToAndCall",
      "outputs": [],
      "stateMutability": "payable",
      "type": "function"
    },
    {
      "inputs": [
        {
          "internalType": "address",
          "name": "",
          "type": "address"
        },
        {
          "internalType": "uint256",
          "name": "",
          "type": "uint256"
        }
      ],
      "name": "userBids",
      "outputs": [
        {
          "internalType": "uint256",
          "name": "",
          "type": "uint256"
        }
      ],
      "stateMutability": "view",
      "type": "function"
    },
    {
      "inputs": [
        {
          "internalType": "address",
          "name": "",
          "type": "address"
        },
        {
          "internalType": "uint256",
          "name": "",
          "type": "uint256"
        }
      ],
      "name": "userListings",
      "outputs": [
        {
          "internalType": "uint256",
          "name": "",
          "type": "uint256"
        }
      ],
      "stateMutability": "view",
      "type": "function"
    }
  ],
  "bytecode": "0x60a0806040523460295730608052612574908161002f8239608051818181610bc50152610ca00152f35b600080fdfe608080604052600436101561001357600080fd5b600090813560e01c908163107a274a14611c005750806312e8e2c314611b90578063169d5a7d146119585780631aa632b31461191957806326232a2e146118fb578063297202a3146113de5780632b1fd58a1461114d578063305a67a8146110d657806331b221cd146110af57806335de6c4c14610f3a5780634690484014610f135780634f1ef28614610c2457806352d1902d14610baa57806357c90de514610a395780636759789f146109c7578063715018a61461092e57806382a71ef21461090757806386cfa7d3146108bf5780638da5cb5b1461087957806390e467a11461072057806396ec50c3146106c95780639da0e1dd14610648578063aaccf1ec1461062a578063ad3cb1cc14610598578063c0c53b8b1461031b578063c1c1de1e146102f5578063dc269049146102d7578063de74e57b1461021c578063eb18a9d81461019a5763f2fde38b1461016b57600080fd5b3461019757602036600319011261019757610194610187611d2a565b61018f6121ef565b612130565b80f35b80fd5b5034610197576020366003190112610197576001600160a01b036101bc611d2a565b168152600460205260408120604051918260208354918281520192825260208220915b81811061020657610202856101f681870382611daa565b60405191829182611dfe565b0390f35b82548452602090930192600192830192016101df565b50346101975760203660031901126101975760406101609160043581526002602052206102d58154916001600160a01b03600182015416906002810154600382015460048301546001600160a01b036005850154169060068501549260078601549460096008880154970154976040519a8b5260208b015260408a01526060890152608088015260a087015260c086015260e085015261010084015260ff8116151561012084015260ff61014084019160081c16611d07565bf35b50346101975780600319360112610197576020600754604051908152f35b50346101975780600319360112610197576001600160a01b036020915416604051908152f35b503461019757606036600319011261019757610335611d2a565b6024356001600160a01b03811680910361059457610351611d45565b907ff0c57e16840df040f15088dc2f81fe391c3923bec73e23a9662efc9c229c6a00549260ff8460401c16159367ffffffffffffffff81168015908161058c575b6001149081610582575b159081610579575b506105515767ffffffffffffffff1981166001177ff0c57e16840df040f15088dc2f81fe391c3923bec73e23a9662efc9c229c6a00556001600160a01b03939291849186610512575b506103f6612455565b6103fe612455565b61040733612130565b61040f612455565b610417612455565b60017f9b779b17422d0df92223018b32b4d1fa46e071723d6817e2486d003becc55f0055610443612455565b166001600160a01b03198654161785556001600160a01b03196001541617600155166001600160a01b0319600a541617600a5560fa600855336001600160a01b031960095416176009556104945780f35b68ff0000000000000000197ff0c57e16840df040f15088dc2f81fe391c3923bec73e23a9662efc9c229c6a0054167ff0c57e16840df040f15088dc2f81fe391c3923bec73e23a9662efc9c229c6a00557fc7f505b2f371ae2175ee4913f4499e1f2633a7b5936321eed1cdaeb6115181d2602060405160018152a180f35b68ffffffffffffffffff191668010000000000000001177ff0c57e16840df040f15088dc2f81fe391c3923bec73e23a9662efc9c229c6a0055386103ed565b6004867ff92ee8a9000000000000000000000000000000000000000000000000000000008152fd5b905015386103a4565b303b15915061039c565b869150610392565b8280fd5b503461019757806003193601126101975760408051916105b88284611daa565b600583527f352e302e300000000000000000000000000000000000000000000000000000006020840152815192839160208352815191826020850152815b838110610613575050828201840152601f01601f19168101030190f35b6020828201810151888301880152879550016105f6565b50346101975780600319360112610197576020600654604051908152f35b50346101975761065736611de8565b919081526003602052604081209081548310156101975760c061067a8484611e66565b508054906001810154906001600160a01b0360028201541660038201549060ff6005600485015494015416936040519586526020860152604085015260608401526080830152151560a0820152f35b5034610197576040366003190112610197576106e3611d2a565b6001600160a01b03168152600560205260408120805460243592908310156101975760206107118484611e38565b90549060031b1c604051908152f35b5034610197576020366003190112610197576004358152600360205260408120805467ffffffffffffffff8111610865576040519061076560208260051b0183611daa565b80825260208201809385526020852085915b83831061080257868587604051928392602084019060208552518091526040840192915b8181106107a9575050500390f35b91935091602060c060019260a087518051835284810151858401526001600160a01b03604082015116604084015260608101516060840152608081015160808401520151151560a082015201940191019184939261079b565b6006602060019260405161081581611d8e565b8554815284860154838201526001600160a01b036002870154166040820152600386015460608201526004860154608082015260ff600587015416151560a0820152815201920192019190610777565b602483634e487b7160e01b81526041600452fd5b503461019757806003193601126101975760206001600160a01b037f9016d09d72d40fdae2fd8ceac6b6234c7706214fd39c1cd1e609a0528c1993005416604051908152f35b5034610197576040366003190112610197576108d9611d2a565b6001600160a01b03168152600460205260408120805460243592908310156101975760206107118484611e38565b503461019757806003193601126101975760206001600160a01b0360015416604051908152f35b50346101975780600319360112610197576109476121ef565b806001600160a01b037f9016d09d72d40fdae2fd8ceac6b6234c7706214fd39c1cd1e609a0528c199300546001600160a01b031981167f9016d09d72d40fdae2fd8ceac6b6234c7706214fd39c1cd1e609a0528c19930055167f8be0079c531659141344cd1fd0a4f28419497f9722a3daafe3b4186f6b6457e08280a380f35b5034610197576020366003190112610197576001600160a01b036109e9611d2a565b168152600560205260408120604051918260208354918281520192825260208220915b818110610a2357610202856101f681870382611daa565b8254845260209093019260019283019201610a0c565b503461019757610a4836611de8565b610a53929192612250565b8282526002602052610a7d600860408420610a7460ff600983015416611f28565b01544210611f73565b8015610b4057602092610ae8604093610a97600754611ff4565b94859182600755610adb8251610aac81611d8e565b848152868a8201523384820152876060820152426080820152600160a082015286835260038a52838320612088565b3381526005885220612003565b604051918252827f6f7e354ea3ab5c288aea37fce29c603f9a98a3b040f6d8f32f10e192ec47ff6a853394a460017f9b779b17422d0df92223018b32b4d1fa46e071723d6817e2486d003becc55f0055604051908152f35b608460405162461bcd60e51b815260206004820152602160248201527f42696420616d6f756e74206d7573742062652067726561746572207468616e2060448201527f30000000000000000000000000000000000000000000000000000000000000006064820152fd5b50346101975780600319360112610197576001600160a01b037f0000000000000000000000000000000000000000000000000000000000000000163003610c155760206040517f360894a13ba1a3210667c828492db98dca3e2076cc3735a920a3ca505d382bbc8152f35b8063703e46dd60e11b60049252fd5b50604036600319011261019757610c39611d2a565b6024359067ffffffffffffffff821161059457366023830112156105945781600401359083610c6783611dcc565b93610c756040519586611daa565b8385526020850193366024828401011161059457806024602093018637850101526001600160a01b037f000000000000000000000000000000000000000000000000000000000000000016803014908115610ede575b50610ecf57610cd86121ef565b6001600160a01b038116926040517f52d1902d000000000000000000000000000000000000000000000000000000008152602081600481885afa869181610e97575b50610d325760248686634c9c8ce360e01b8252600452fd5b93847f360894a13ba1a3210667c828492db98dca3e2076cc3735a920a3ca505d382bbc879603610e6c5750823b15610e5a57908185926001600160a01b03197f360894a13ba1a3210667c828492db98dca3e2076cc3735a920a3ca505d382bbc5416177f360894a13ba1a3210667c828492db98dca3e2076cc3735a920a3ca505d382bbc557fbc7cd75a20ee27fd9adebab32041f755214dbc6bffa90cc0225b39da2e5c2d3b8380a2805115610e2657610e1a9382915190845af43d15610e1e573d91610dfe83611dcc565b92610e0c6040519485611daa565b83523d85602085013e6124ae565b5080f35b6060916124ae565b5050505034610e325780f35b807fb398979f0000000000000000000000000000000000000000000000000000000060049252fd5b634c9c8ce360e01b8552600452602484fd5b7faa1d49a4000000000000000000000000000000000000000000000000000000008652600452602485fd5b9091506020813d602011610ec7575b81610eb360209383611daa565b81010312610ec357519038610d1a565b8680fd5b3d9150610ea6565b60048463703e46dd60e11b8152fd5b90506001600160a01b037f360894a13ba1a3210667c828492db98dca3e2076cc3735a920a3ca505d382bbc5416141538610ccb565b503461019757806003193601126101975760206001600160a01b0360095416604051908152f35b5034610197576020366003190112610197576004356001600160a01b03600a5416330361106b57808252600260205260408220610f7d60ff600983015416611f28565b610f8681611e8e565b60606080820151910151670de0b6b3a7640000810290808204670de0b6b3a764000014901517156110575791605060076040936103e87f6f842c21342a846fd2266d95f196a8a8b30d7596255757f3e9da0c51afe8cd83960490818082109118021892610ff281611e8e565b5061103f6110008354611ff4565b80845586519061100f82611d8e565b81528860208201523087820152856060820152426080820152600160a0820152888a526003602052868a20612088565b8360068201550155815190815260506020820152a280f35b602485634e487b7160e01b81526011600452fd5b606460405162461bcd60e51b815260206004820152602060248201527f4f6e6c79204149206f7261636c652063616e20706c61636520414920626964736044820152fd5b503461019757806003193601126101975760206001600160a01b03600a5416604051908152f35b50346101975760203660031901126101975760043580825260026020526009604083206111116001600160a01b03600183015416331461203d565b01805461112060ff8216611f28565b60ff191690557f411aee90354c51b1b04cd563fcab2617142a9d50da19232d888547c8a1b7fd8a8280a280f35b50346101975760203660031901126101975760043561116a612250565b611173816123ab565b600181019081548452600260205260408420906001820161119f6001600160a01b03825416331461203d565b60098301916111b160ff845416611f28565b600581019360ff8554161561139a57879261122b60038401546001600160a01b036111ec6127106111e460085485611fbe565b048093611fe7565b9161120d6005870191600284845416990198848a54168560095416916122c9565b54166001600160a01b038654166001600160a01b03855416916122c9565b6001600160a01b03808554169154166001600160a01b0384541691600284015490803b15610ec357604051632142170760e11b81526001600160a01b039384166004820152939092166024840152604483015284908290606490829084905af190811561138f57849161137a575b505060036001600160a01b038060015416935416910154823b15611376576040516340c10f1960e01b81526001600160a01b0392909216600483015260248201529082908290604490829084905af1801561136b57611352575b505060ff19815416905560ff19815416905554907feeb046b305fcff3538cfdefcb3ce223663ef84836df9830a1de00bc00817631e8380a360017f9b779b17422d0df92223018b32b4d1fa46e071723d6817e2486d003becc55f005580f35b8161135c91611daa565b6113675784386112f3565b8480fd5b6040513d84823e3d90fd5b8380fd5b8161138491611daa565b610594578238611299565b6040513d86823e3d90fd5b606460405162461bcd60e51b815260206004820152600e60248201527f426964206e6f74206163746976650000000000000000000000000000000000006044820152fd5b50346101975760a0366003190112610197576024356004356113fe611d45565b916064359260038410156113675760843593611418612250565b6001600160a01b03865416916040517f6352211e000000000000000000000000000000000000000000000000000000008152856004820152602081602481875afa9081156118f05788916118aa575b506001600160a01b033391160361186657831561182257428611156117de5786956020602494604051958680927fdd0c0f430000000000000000000000000000000000000000000000000000000082528a60048301525afa9384156117d357879461179f575b506006546114da90611ff4565b96879485600655604051936114ee85611d5b565b868552602085019133835260408601908a82526060870190815260808701918a835260a08801936001600160a01b0316845260c088019486865260e08901968088526101008a019889526101208a019b60018d526101408b019b611552908d611e82565b815260026020526040902098518955516001600160a01b031660018901906001600160a01b031681546001600160a01b031916179055516002880155516003870155516004860155516001600160a01b031660058501906001600160a01b031681546001600160a01b031916179055516006840155516007830155516008820155600901915115156115f090839060ff801983541691151516179055565b51600381101561178b5761ff0082549160081b169061ff00191617905533845260046020526116228360408620612003565b82845260026020526040842093600385015468015af1d78b58c4000081029080820468015af1d78b58c40000148115171561177757689513ea9de024380000810291808304606e149015171561177757693d252b3ac0eedaf8000081029180830460691490151715611777576a17683a8c7ddb6fd2f00000029080820460621490151715611763576305f5e1009004906004860154918260011c908180821191180218908260011b928084046002149015171561174f575060209582828160559560079510911802186006820155015560405191825283820152817f12dc294b81a709d694b1337a350a12a00076c19a77a25aab67a5f0c07e0f164d60403393a360017f9b779b17422d0df92223018b32b4d1fa46e071723d6817e2486d003becc55f0055604051908152f35b80634e487b7160e01b602492526011600452fd5b602482634e487b7160e01b81526011600452fd5b602483634e487b7160e01b81526011600452fd5b602486634e487b7160e01b81526021600452fd5b9093506020813d6020116117cb575b816117bb60209383611daa565b81010312610ec3575192386114cd565b3d91506117ae565b6040513d89823e3d90fd5b606460405162461bcd60e51b815260206004820152601860248201527f457870697279206d75737420626520696e2066757475726500000000000000006044820152fd5b606460405162461bcd60e51b815260206004820152601c60248201527f5072696365206d7573742062652067726561746572207468616e2030000000006044820152fd5b606460405162461bcd60e51b815260206004820152600f60248201527f4e6f7420746f6b656e206f776e657200000000000000000000000000000000006044820152fd5b90506020813d6020116118e8575b816118c560209383611daa565b810103126118e457516001600160a01b03811681036118e45738611467565b8780fd5b3d91506118b8565b6040513d8a823e3d90fd5b50346101975780600319360112610197576020600854604051908152f35b5034610197576020366003190112610197576001600160a01b0361193b611d2a565b6119436121ef565b166001600160a01b0319600a541617600a5580f35b503461019757602036600319011261019757600435611975612250565b8082526002602052604082206009810161199260ff825416611f28565b6119a160088301544210611f73565b60018201916001600160a01b038354163314611b4c576004810192611a0a84546001600160a01b036119db6127106111e460085485611fbe565b916119f560058701918383541684600954169033906122c9565b54166001600160a01b038454169033906122c9565b856001600160a01b038082541692541691600284015490803b1561059457604051632142170760e11b81526001600160a01b0394909416600485015233602485015260448401919091528290606490829084905af18015611b4157611b2d575b50849060036001600160a01b036001541691015490803b15610594576040516340c10f1960e01b8152336004820152602481019290925282908290604490829084905af1801561136b57611b18575b505060ff19815416905554906040519182527f8e378317cc1b9c64766fd136e5849da5f702d26a8f8b750115b7422909b2309f60203393a360017f9b779b17422d0df92223018b32b4d1fa46e071723d6817e2486d003becc55f005580f35b81611b2291611daa565b611376578338611ab9565b85611b3a91969296611daa565b9338611a6a565b6040513d88823e3d90fd5b606460405162461bcd60e51b815260206004820152601660248201527f43616e6e6f7420627579206f776e206c697374696e67000000000000000000006044820152fd5b503461019757602036600319011261019757600435611bad6121ef565b6103e88111611bbc5760085580f35b606460405162461bcd60e51b815260206004820152600c60248201527f46656520746f6f206869676800000000000000000000000000000000000000006044820152fd5b905034611d03576020366003190112611d03576040826101609361014084611c2a611c7696611d5b565b82815282602082015282858201528260608201528260808201528260a08201528260c08201528260e0820152826101008201528261012082015201526004358152600260205220611e8e565b6102d561014060405192805184526001600160a01b0360208201511660208501526040810151604085015260608101516060850152608081015160808501526001600160a01b0360a08201511660a085015260c081015160c085015260e081015160e085015261010081015161010085015261012081015115156101208501520151610140830190611d07565b5080fd5b906003821015611d145752565b634e487b7160e01b600052602160045260246000fd5b600435906001600160a01b0382168203611d4057565b600080fd5b604435906001600160a01b0382168203611d4057565b610160810190811067ffffffffffffffff821117611d7857604052565b634e487b7160e01b600052604160045260246000fd5b60c0810190811067ffffffffffffffff821117611d7857604052565b90601f8019910116810190811067ffffffffffffffff821117611d7857604052565b67ffffffffffffffff8111611d7857601f01601f191660200190565b6040906003190112611d40576004359060243590565b602060408183019282815284518094520192019060005b818110611e225750505090565b8251845260209384019390920191600101611e15565b8054821015611e505760005260206000200190600090565b634e487b7160e01b600052603260045260246000fd5b8054821015611e50576000526006602060002091020190600090565b6003821015611d145752565b90611f26604051611e9e81611d5b565b61014060ff60098396805485526001600160a01b0360018201541660208601526002810154604086015260038101546060860152600481015460808601526001600160a01b0360058201541660a0860152600681015460c0860152600781015460e086015260088101546101008601520154818116151561012085015260081c169101611e82565b565b15611f2f57565b606460405162461bcd60e51b815260206004820152601260248201527f4c697374696e67206e6f742061637469766500000000000000000000000000006044820152fd5b15611f7a57565b606460405162461bcd60e51b815260206004820152600f60248201527f4c697374696e67206578706972656400000000000000000000000000000000006044820152fd5b81810292918115918404141715611fd157565b634e487b7160e01b600052601160045260246000fd5b91908203918211611fd157565b6000198114611fd15760010190565b805468010000000000000000811015611d785761202591600182018155611e38565b819291549060031b91821b91600019901b1916179055565b1561204457565b606460405162461bcd60e51b815260206004820152601260248201527f4e6f74206c697374696e672073656c6c657200000000000000000000000000006044820152fd5b805468010000000000000000811015611d78576120aa91600182018155611e66565b61211a57600560a083611f2694518455602081015160018501556001600160a01b036040820151166001600160a01b036002860191166001600160a01b031982541617905560608101516003850155608081015160048501550151151591019060ff801983541691151516179055565b634e487b7160e01b600052600060045260246000fd5b6001600160a01b031680156121c0576001600160a01b037f9016d09d72d40fdae2fd8ceac6b6234c7706214fd39c1cd1e609a0528c19930054826001600160a01b03198216177f9016d09d72d40fdae2fd8ceac6b6234c7706214fd39c1cd1e609a0528c19930055167f8be0079c531659141344cd1fd0a4f28419497f9722a3daafe3b4186f6b6457e0600080a3565b7f1e4fbdf700000000000000000000000000000000000000000000000000000000600052600060045260246000fd5b6001600160a01b037f9016d09d72d40fdae2fd8ceac6b6234c7706214fd39c1cd1e609a0528c1993005416330361222257565b7f118cdaa7000000000000000000000000000000000000000000000000000000006000523360045260246000fd5b60027f9b779b17422d0df92223018b32b4d1fa46e071723d6817e2486d003becc55f00541461229f5760027f9b779b17422d0df92223018b32b4d1fa46e071723d6817e2486d003becc55f0055565b7f3ee5aeb50000000000000000000000000000000000000000000000000000000060005260046000fd5b9290600091612337602094612329604051938492888401967f23b872dd000000000000000000000000000000000000000000000000000000008852602485016001600160a01b036040929594938160608401971683521660208201520152565b03601f198101835282611daa565b519082855af11561239f576000513d61239657506001600160a01b0381163b155b61235f5750565b6001600160a01b03907f5274afe7000000000000000000000000000000000000000000000000000000006000521660045260246000fd5b60011415612358565b6040513d6000823e3d90fd5b6006549060015b828111156123fe57606460405162461bcd60e51b815260206004820152600d60248201527f426964206e6f7420666f756e64000000000000000000000000000000000000006044820152fd5b60008181526003602052604081208054915b8281106124285750505061242390611ff4565b6123b2565b846124338284611e66565b50541461244257600101612410565b93509150506124519250611e66565b5090565b60ff7ff0c57e16840df040f15088dc2f81fe391c3923bec73e23a9662efc9c229c6a005460401c161561248457565b7fd7e6bcf80000000000000000000000000000000000000000000000000000000060005260046000fd5b906124ed57508051156124c357602081519101fd5b7fd6bda2750000000000000000000000000000000000000000000000000000000060005260046000fd5b81511580612535575b6124fe575090565b6001600160a01b03907f9996b315000000000000000000000000000000000000000000000000000000006000521660045260246000fd5b50803b156124f656fea2646970667358221220b89d5b669d4376fa84829c461909fd203f8d6e2f99a9c5e9d2138e14e4f21a9c64736f6c634300081c0033",
  "linkReferences": {},
  "deployedLinkReferences": {}
}