{
  "_format": "hh-sol-artifact-1",
  "contractName": "Reputation",
  "sourceName": "contracts/Reputation.sol",
  "abi": [
    {
      "inputs": [
        {
          "internalType": "address",
          "name": "target",
          "type": "address"
        }
      ],
      "name": "AddressEmptyCode",
      "type": "error"
    },
    {
      "inputs": [
        {
          "internalType": "address",
          "name": "implementation",
          "type": "address"
        }
      ],
      "name": "ERC1967InvalidImplementation",
      "type": "error"
    },
    {
      "inputs": [],
      "name": "ERC1967NonPayable",
      "type": "error"
    },
    {
      "inputs": [],
      "name": "FailedCall",
      "type": "error"
    },
    {
      "inputs": [],
      "name": "InvalidInitialization",
      "type": "error"
    },
    {
      "inputs": [],
      "name": "NotInitializing",
      "type": "error"
    },
    {
      "inputs": [
        {
          "internalType": "address",
          "name": "owner",
          "type": "address"
        }
      ],
      "name": "OwnableInvalidOwner",
      "type": "error"
    },
    {
      "inputs": [
        {
          "internalType": "address",
          "name": "account",
          "type": "address"
        }
      ],
      "name": "OwnableUnauthorizedAccount",
      "type": "error"
    },
    {
      "inputs": [],
      "name": "UUPSUnauthorizedCallContext",
      "type": "error"
    },
    {
      "inputs": [
        {
          "internalType": "bytes32",
          "name": "slot",
          "type": "bytes32"
        }
      ],
      "name": "UUPSUnsupportedProxiableUUID",
      "type": "error"
    },
    {
      "anonymous": false,
      "inputs": [
        {
          "indexed": true,
          "internalType": "bytes32",
          "name": "loanId",
          "type": "bytes32"
        },
        {
          "indexed": true,
          "internalType": "address",
          "name": "borrower",
          "type": "address"
        },
        {
          "indexed": false,
          "internalType": "uint256",
          "name": "amount",
          "type": "uint256"
        }
      ],
      "name": "DefaultRecorded",
      "type": "event"
    },
    {
      "anonymous": false,
      "inputs": [
        {
          "indexed": false,
          "internalType": "uint64",
          "name": "version",
          "type": "uint64"
        }
      ],
      "name": "Initialized",
      "type": "event"
    },
    {
      "anonymous": false,
      "inputs": [
        {
          "indexed": true,
          "internalType": "bytes32",
          "name": "loanId",
          "type": "bytes32"
        },
        {
          "indexed": true,
          "internalType": "address",
          "name": "borrower",
          "type": "address"
        },
        {
          "indexed": false,
          "internalType": "uint256",
          "name": "amount",
          "type": "uint256"
        }
      ],
      "name": "LoanRecorded",
      "type": "event"
    },
    {
      "anonymous": false,
      "inputs": [
        {
          "indexed": true,
          "internalType": "address",
          "name": "previousOwner",
          "type": "address"
        },
        {
          "indexed": true,
          "internalType": "address",
          "name": "newOwner",
          "type": "address"
        }
      ],
      "name": "OwnershipTransferred",
      "type": "event"
    },
    {
      "anonymous": false,
      "inputs": [
        {
          "indexed": true,
          "internalType": "bytes32",
          "name": "loanId",
          "type": "bytes32"
        },
        {
          "indexed": true,
          "internalType": "address",
          "name": "borrower",
          "type": "address"
        },
        {
          "indexed": false,
          "internalType": "uint256",
          "name": "amount",
          "type": "uint256"
        },
        {
          "indexed": false,
          "internalType": "bool",
          "name": "onTime",
          "type": "bool"
        }
      ],
      "name": "RepaymentRecorded",
      "type": "event"
    },
    {
      "anonymous": false,
      "inputs": [
        {
          "indexed": true,
          "internalType": "address",
          "name": "borrower",
          "type": "address"
        },
        {
          "indexed": false,
          "internalType": "uint256",
          "name": "newScore",
          "type": "uint256"
        },
        {
          "indexed": false,
          "internalType": "string",
          "name": "reason",
          "type": "string"
        }
      ],
      "name": "ReputationUpdated",
      "type": "event"
    },
    {
      "anonymous": false,
      "inputs": [
        {
          "indexed": true,
          "internalType": "address",
          "name": "implementation",
          "type": "address"
        }
      ],
      "name": "Upgraded",
      "type": "event"
    },
    {
      "inputs": [],
      "name": "UPGRADE_INTERFACE_VERSION",
      "outputs": [
        {
          "internalType": "string",
          "name": "",
          "type": "string"
        }
      ],
      "stateMutability": "view",
      "type": "function"
    },
    {
      "inputs": [],
      "name": "baseReputationScore",
      "outputs": [
        {
          "internalType": "uint256",
          "name": "",
          "type": "uint256"
        }
      ],
      "stateMutability": "view",
      "type": "function"
    },
    {
      "inputs": [
        {
          "internalType": "address[]",
          "name": "_borrowers",
          "type": "address[]"
        },
        {
          "internalType": "uint256[]",
          "name": "_newScores",
          "type": "uint256[]"
        }
      ],
      "name": "batchUpdateReputations",
      "outputs": [],
      "stateMutability": "nonpayable",
      "type": "function"
    },
    {
      "inputs": [
        {
          "internalType": "address",
          "name": "",
          "type": "address"
        },
        {
          "internalType": "uint256",
          "name": "",
          "type": "uint256"
        }
      ],
      "name": "borrowerLoans",
      "outputs": [
        {
          "internalType": "bytes32",
          "name": "",
          "type": "bytes32"
        }
      ],
      "stateMutability": "view",
      "type": "function"
    },
    {
      "inputs": [
        {
          "internalType": "address",
          "name": "",
          "type": "address"
        }
      ],
      "name": "borrowerReputations",
      "outputs": [
        {
          "internalType": "uint256",
          "name": "totalLoans",
          "type": "uint256"
        },
        {
          "internalType": "uint256",
          "name": "repaidLoans",
          "type": "uint256"
        },
        {
          "internalType": "uint256",
          "name": "defaultedLoans",
          "type": "uint256"
        },
        {
          "internalType": "uint256",
          "name": "totalBorrowed",
          "type": "uint256"
        },
        {
          "internalType": "uint256",
          "name": "totalRepaid",
          "type": "uint256"
        },
        {
          "internalType": "uint256",
          "name": "lastRepaymentTime",
          "type": "uint256"
        },
        {
          "internalType": "uint256",
          "name": "reputationScore",
          "type": "uint256"
        },
        {
          "internalType": "bool",
          "name": "isActive",
          "type": "bool"
        },
        {
          "internalType": "uint256",
          "name": "createdAt",
          "type": "uint256"
        },
        {
          "internalType": "uint256",
          "name": "updatedAt",
          "type": "uint256"
        }
      ],
      "stateMutability": "view",
      "type": "function"
    },
    {
      "inputs": [
        {
          "internalType": "address",
          "name": "_borrower",
          "type": "address"
        }
      ],
      "name": "calculateCreditScore",
      "outputs": [
        {
          "internalType": "uint256",
          "name": "",
          "type": "uint256"
        }
      ],
      "stateMutability": "view",
      "type": "function"
    },
    {
      "inputs": [],
      "name": "consistentRepaymentBonus",
      "outputs": [
        {
          "internalType": "uint256",
          "name": "",
          "type": "uint256"
        }
      ],
      "stateMutability": "view",
      "type": "function"
    },
    {
      "inputs": [],
      "name": "defaultPenalty",
      "outputs": [
        {
          "internalType": "uint256",
          "name": "",
          "type": "uint256"
        }
      ],
      "stateMutability": "view",
      "type": "function"
    },
    {
      "inputs": [],
      "name": "earlyRepaymentBonus",
      "outputs": [
        {
          "internalType": "uint256",
          "name": "",
          "type": "uint256"
        }
      ],
      "stateMutability": "view",
      "type": "function"
    },
    {
      "inputs": [
        {
          "internalType": "address",
          "name": "_borrower",
          "type": "address"
        }
      ],
      "name": "getBorrowerLoans",
      "outputs": [
        {
          "internalType": "bytes32[]",
          "name": "",
          "type": "bytes32[]"
        }
      ],
      "stateMutability": "view",
      "type": "function"
    },
    {
      "inputs": [
        {
          "internalType": "address",
          "name": "_borrower",
          "type": "address"
        }
      ],
      "name": "getBorrowerReputation",
      "outputs": [
        {
          "internalType": "uint256",
          "name": "totalLoans",
          "type": "uint256"
        },
        {
          "internalType": "uint256",
          "name": "repaidLoans",
          "type": "uint256"
        },
        {
          "internalType": "uint256",
          "name": "defaultedLoans",
          "type": "uint256"
        },
        {
          "internalType": "uint256",
          "name": "reputationScore",
          "type": "uint256"
        },
        {
          "internalType": "uint256",
          "name": "repaymentRate",
          "type": "uint256"
        }
      ],
      "stateMutability": "view",
      "type": "function"
    },
    {
      "inputs": [
        {
          "internalType": "bytes32",
          "name": "_loanId",
          "type": "bytes32"
        }
      ],
      "name": "getLoanRecord",
      "outputs": [
        {
          "internalType": "address",
          "name": "borrower",
          "type": "address"
        },
        {
          "internalType": "uint256",
          "name": "amount",
          "type": "uint256"
        },
        {
          "internalType": "uint256",
          "name": "repaidAmount",
          "type": "uint256"
        },
        {
          "internalType": "uint256",
          "name": "dueDate",
          "type": "uint256"
        },
        {
          "internalType": "uint256",
          "name": "repaymentDate",
          "type": "uint256"
        },
        {
          "internalType": "bool",
          "name": "isRepaid",
          "type": "bool"
        },
        {
          "internalType": "bool",
          "name": "isDefaulted",
          "type": "bool"
        }
      ],
      "stateMutability": "view",
      "type": "function"
    },
    {
      "inputs": [],
      "name": "initialize",
      "outputs": [],
      "stateMutability": "nonpayable",
      "type": "function"
    },
    {
      "inputs": [],
      "name": "lateRepaymentPenalty",
      "outputs": [
        {
          "internalType": "uint256",
          "name": "",
          "type": "uint256"
        }
      ],
      "stateMutability": "view",
      "type": "function"
    },
    {
      "inputs": [
        {
          "internalType": "bytes32",
          "name": "",
          "type": "bytes32"
        }
      ],
      "name": "loanRecords",
      "outputs": [
        {
          "internalType": "address",
          "name": "borrower",
          "type": "address"
        },
        {
          "internalType": "uint256",
          "name": "loanId",
          "type": "uint256"
        },
        {
          "internalType": "uint256",
          "name": "amount",
          "type": "uint256"
        },
        {
          "internalType": "uint256",
          "name": "repaidAmount",
          "type": "uint256"
        },
        {
          "internalType": "uint256",
          "name": "dueDate",
          "type": "uint256"
        },
        {
          "internalType": "uint256",
          "name": "repaymentDate",
          "type": "uint256"
        },
        {
          "internalType": "bool",
          "name": "isRepaid",
          "type": "bool"
        },
        {
          "internalType": "bool",
          "name": "isDefaulted",
          "type": "bool"
        },
        {
          "internalType": "uint256",
          "name": "createdAt",
          "type": "uint256"
        }
      ],
      "stateMutability": "view",
      "type": "function"
    },
    {
      "inputs": [],
      "name": "longTermBorrowerBonus",
      "outputs": [
        {
          "internalType": "uint256",
          "name": "",
          "type": "uint256"
        }
      ],
      "stateMutability": "view",
      "type": "function"
    },
    {
      "inputs": [],
      "name": "maxReputationScore",
      "outputs": [
        {
          "internalType": "uint256",
          "name": "",
          "type": "uint256"
        }
      ],
      "stateMutability": "view",
      "type": "function"
    },
    {
      "inputs": [],
      "name": "minReputationScore",
      "outputs": [
        {
          "internalType": "uint256",
          "name": "",
          "type": "uint256"
        }
      ],
      "stateMutability": "view",
      "type": "function"
    },
    {
      "inputs": [],
      "name": "onTimeRepaymentBonus",
      "outputs": [
        {
          "internalType": "uint256",
          "name": "",
          "type": "uint256"
        }
      ],
      "stateMutability": "view",
      "type": "function"
    },
    {
      "inputs": [],
      "name": "owner",
      "outputs": [
        {
          "internalType": "address",
          "name": "",
          "type": "address"
        }
      ],
      "stateMutability": "view",
      "type": "function"
    },
    {
      "inputs": [],
      "name": "proxiableUUID",
      "outputs": [
        {
          "internalType": "bytes32",
          "name": "",
          "type": "bytes32"
        }
      ],
      "stateMutability": "view",
      "type": "function"
    },
    {
      "inputs": [
        {
          "internalType": "bytes32",
          "name": "_loanId",
          "type": "bytes32"
        }
      ],
      "name": "recordDefault",
      "outputs": [],
      "stateMutability": "nonpayable",
      "type": "function"
    },
    {
      "inputs": [
        {
          "internalType": "address",
          "name": "_borrower",
          "type": "address"
        },
        {
          "internalType": "bytes32",
          "name": "_loanId",
          "type": "bytes32"
        },
        {
          "internalType": "uint256",
          "name": "_amount",
          "type": "uint256"
        },
        {
          "internalType": "uint256",
          "name": "_dueDate",
          "type": "uint256"
        }
      ],
      "name": "recordLoan",
      "outputs": [],
      "stateMutability": "nonpayable",
      "type": "function"
    },
    {
      "inputs": [
        {
          "internalType": "bytes32",
          "name": "_loanId",
          "type": "bytes32"
        },
        {
          "internalType": "uint256",
          "name": "_repaidAmount",
          "type": "uint256"
        },
        {
          "internalType": "bool",
          "name": "_onTime",
          "type": "bool"
        }
      ],
      "name": "recordRepayment",
      "outputs": [],
      "stateMutability": "nonpayable",
      "type": "function"
    },
    {
      "inputs": [],
      "name": "renounceOwnership",
      "outputs": [],
      "stateMutability": "nonpayable",
      "type": "function"
    },
    {
      "inputs": [
        {
          "internalType": "address",
          "name": "newOwner",
          "type": "address"
        }
      ],
      "name": "transferOwnership",
      "outputs": [],
      "stateMutability": "nonpayable",
      "type": "function"
    },
    {
      "inputs": [
        {
          "internalType": "uint256",
          "name": "_maxReputationScore",
          "type": "uint256"
        },
        {
          "internalType": "uint256",
          "name": "_minReputationScore",
          "type": "uint256"
        },
        {
          "internalType": "uint256",
          "name": "_onTimeRepaymentBonus",
          "type": "uint256"
        },
        {
          "internalType": "uint256",
          "name": "_lateRepaymentPenalty",
          "type": "uint256"
        },
        {
          "internalType": "uint256",
          "name": "_defaultPenalty",
          "type": "uint256"
        }
      ],
      "name": "updateParameters",
      "outputs": [],
      "stateMutability": "nonpayable",
      "type": "function"
    },
    {
      "inputs": [
        {
          "internalType": "address",
          "name": "newImplementation",
          "type": "address"
        },
        {
          "internalType": "bytes",
          "name": "data",
          "type": "bytes"
        }
      ],
      "name": "upgradeToAndCall",
      "outputs": [],
      "stateMutability": "payable",
      "type": "function"
    }
  ],
  "bytecode": "0x60a08060405234605857306080526103e860035560646004556101f4600555600a6006556014600755606460085560056009556005600a556019600b55611fde908161005e823960805181818161118b015261125c0152f35b600080fdfe6080604052600436101561001257600080fd5b6000803560e01c8063343dda1b1461144f5780634aa1ebe6146114315780634f1ef286146111e057806352d1902d1461117857806353f0366c1461115a5780636193e43714610ed657806363a933ee14610eb8578063715018a614610e4e5780638129fc1c14610cfa5780638d51f45114610cdc5780638da5cb5b14610ca65780638fbd3d8014610a87578063947ec0e014610a6957806398c006a214610a4b578063ad3cb1cc146109fe578063b7622dd4146109c3578063bdb3c7f6146109a5578063d684bafa146108e0578063d95ba6a2146108c2578063db1baeda14610820578063e3316a7c14610703578063e3ed1902146106ac578063eee8b7ff146105f7578063f1c3753a146105cb578063f2fde38b1461059e578063fca9dc231461050b578063fcc05e9c146104ed5763fd42955d1461015157600080fd5b346104ea5760803660031901126104ea5761016a611836565b60243560443591610179611c49565b6001600160a01b03169182156104a557801561046a57818452600160205260408420546001600160a01b031661042d578284528360205260ff60076040862001541615610373575b6040516101cd81611851565b8381526007856020830185815260408401908582526060850183815260808601606435815260a087019185835260c088019486865260e089019487865260406101008b0198428a528d81526001602052209960018060a01b039051166bffffffffffffffffffffffff60a01b8b5416178a555160018a015551600289015551600388015551600487015551600586015561027a6006860192511515839060ff801983541691151516179055565b51815461ff00191690151560081b61ff0016179055519101558284526002602052604084208054906801000000000000000082101561035f57906102c391600182018155611938565b81549060031b9084821b91600019901b191617905582845283602052604084208054906001820180921161034b57916020917f32f32fb3add830db77d3c0e9d6a32d6560058818eebc0f2eb796fce52d56e6059355848652858252600360408720016103308282546119e5565b9055848652858252426009604088200155604051908152a380f35b634e487b7160e01b86526011600452602486fd5b634e487b7160e01b86526041600452602486fd5b8360098460055461041e60405194859261038c84611884565b818452602084018281526040850183815260608601848152608087019185835260a088019386855260c08901958652604060e08a0197600189526101206101008c019b428d52019b428d52815280602052209b518c555160018c01555160028b01555160038a0155516004890155516005880155516006870155511515600786019060ff801983541691151516179055565b516008840155519101556101c1565b60405162461bcd60e51b8152602060048201526015602482015274131bd85b88185b1c9958591e481c9958dbdc991959605a1b6044820152606490fd5b60405162461bcd60e51b8152602060048201526013602482015272125b9d985b1a59081b1bd85b88185b5bdd5b9d606a1b6044820152606490fd5b60405162461bcd60e51b815260206004820152601860248201527f496e76616c696420626f72726f776572206164647265737300000000000000006044820152606490fd5b80fd5b50346104ea57806003193601126104ea576020600a54604051908152f35b50346104ea5760203660031901126104ea57604061012091600435815260016020522060018060a01b038154169060ff600182015491600281015460038201546004830154906005840154926007600686015495015496604051988952602089015260408801526060870152608086015260a0850152818116151560c085015260081c16151560e0830152610100820152f35b50346104ea5760203660031901126104ea576105c86105bb611836565b6105c3611c49565b611bd3565b80f35b50346104ea5760203660031901126104ea5760206105ef6105ea611836565b611a49565b604051908152f35b50346104ea5760203660031901126104ea576001600160a01b03610619611836565b168152600260205260408120604051908160208254918281520190819285526020852090855b81811061069657505050826106559103836118a1565b604051928392602084019060208552518091526040840192915b81811061067d575050500390f35b825184528594506020938401939092019160010161066f565b825484526020909301926001928301920161063f565b50346104ea5760403660031901126104ea576106c6611836565b6001600160a01b03168152600260205260408120805460243592908310156104ea5760206106f48484611938565b90549060031b1c604051908152f35b50346104ea5760203660031901126104ea576001600160a01b03610725611836565b1681528060205260408120906040519061073e82611884565b8254908183526001840154936020840193858552600282015492604082019384526003830154606083015260048301546080830152600583015460a0830152600960068401549360c0840194855260ff600782015416151560e08501526008810154610100850152015461012083015280946107de575b5060a0955051935191519051916040519485526020850152604084015260608301526080820152f35b909350612710860295808704612710149015171561080c575061080560a095845190611a1c565b92386107b5565b634e487b7160e01b81526011600452602490fd5b50346104ea5760203660031901126104ea57610140906040906001600160a01b03610849611836565b168152806020522080549060018101549060028101546003820154600483015460058401549060068501549260ff600787015416946009600888015497015497604051998a5260208a015260408901526060880152608087015260a086015260c0850152151560e0840152610100830152610120820152f35b50346104ea57806003193601126104ea576020600554604051908152f35b50346104ea5760203660031901126104ea57604060e09160043581526001602052206040519061090f82611851565b60018060a01b038154169182815260018201546020820152600282015480604083015260038301548060608401526004840154908160808501526005850154928360a0860152600686015494610100600760ff8089161515988960c086015260081c16151598898c8501520154910152604051968752602087015260408601526060850152608084015260a083015260c0820152f35b50346104ea57806003193601126104ea576020600454604051908152f35b50346104ea5760a03660031901126104ea576109dd611c49565b60043560035560243560045560443560065560643560075560843560085580f35b50346104ea57806003193601126104ea5750610a47604051610a216040826118a1565b60058152640352e302e360dc1b60208201526040519182916020835260208301906118f7565b0390f35b50346104ea57806003193601126104ea576020600b54604051908152f35b50346104ea57806003193601126104ea576020600354604051908152f35b50346104ea5760203660031901126104ea57600435610aa4611c49565b80825260016020526040822080546001600160a01b03169190610ac8831515611966565b60068101805490610adc60ff8316156119a3565b60ff8260081c16610c685784865285602052610100604087209261ff0019161790554260058301556002810180549060018201809211610c5457917fdf483566f6ac3078fd6f86f418fc5b7d9fd280b5f656794d2c7ce77059457fc99391602093556009429101558486528582526002600660408820610b5e6008548a611c7f565b60088201548015159081610c3c575b50610c2b575b89811315610bff57610b89838301918254611c98565b90818155600354809211610bf7575b50505b01549186600080516020611f49833981519152604094855190610bbe87836118a1565b6007825266191959985d5b1d60ca1b88830152610be987519283928352888a840152888301906118f7565b0390a201549051908152a380f35b553880610b98565b610c0d838301918254611c7f565b90818155600454809210610c23575b5050610b9b565b553880610c1c565b600b54610c3791611c98565b610b73565b6301e133809150610c4d9042611a3c565b1138610b6d565b634e487b7160e01b87526011600452602487fd5b60405162461bcd60e51b8152602060048201526016602482015275131bd85b88185b1c9958591e48191959985d5b1d195960521b6044820152606490fd5b50346104ea57806003193601126104ea57600080516020611f29833981519152546040516001600160a01b039091168152602090f35b50346104ea57806003193601126104ea576020600654604051908152f35b50346104ea57806003193601126104ea57600080516020611f898339815191525460ff8160401c16159067ffffffffffffffff811680159081610e46575b6001149081610e3c575b159081610e33575b50610e245767ffffffffffffffff198116600117600080516020611f898339815191525581610df7575b50610d7d611e99565b610d85611e99565b610d8e33611bd3565b610d96611e99565b610d9d5780f35b68ff000000000000000019600080516020611f898339815191525416600080516020611f89833981519152557fc7f505b2f371ae2175ee4913f4499e1f2633a7b5936321eed1cdaeb6115181d2602060405160018152a180f35b68ffffffffffffffffff19166801000000000000000117600080516020611f898339815191525538610d74565b63f92ee8a960e01b8352600483fd5b90501538610d4a565b303b159150610d42565b839150610d38565b50346104ea57806003193601126104ea57610e67611c49565b600080516020611f2983398151915280546001600160a01b0319811690915581906001600160a01b03167f8be0079c531659141344cd1fd0a4f28419497f9722a3daafe3b4186f6b6457e08280a380f35b50346104ea57806003193601126104ea576020600954604051908152f35b50346104ea5760403660031901126104ea5760043567ffffffffffffffff81116111565736602382011215611156578060040135610f13816118df565b91610f2160405193846118a1565b8183526024602084019260051b8201019036821161115257602401915b8183106111325750505060243567ffffffffffffffff811161112e573660238201121561112e57806004013590610f74826118df565b91610f8260405193846118a1565b8083526024602084019160051b8301019136831161112a57602401905b82821061111a57505050610fb1611c49565b81518151036110dc57825b82518110156110d857610fcf8183611a08565b516004541115806110c2575b1561108d5780610fed60019284611a08565b51828060a01b03610ffe8387611a08565b51168652856020526006604087200155818060a01b0361101e8286611a08565b5116855284602052426009604087200155818060a01b0361103f8286611a08565b5116600080516020611f49833981519152608061105c8487611a08565b5160405190815260406020820152600c60408201526b62617463682075706461746560a01b6060820152a201610fbc565b60405162461bcd60e51b815260206004820152600d60248201526c496e76616c69642073636f726560981b6044820152606490fd5b506110cd8183611a08565b516003541015610fdb565b8380f35b60405162461bcd60e51b8152602060048201526016602482015275082e4e4c2f2e640d8cadccee8d040dad2e6dac2e8c6d60531b6044820152606490fd5b8135815260209182019101610f9f565b8580fd5b8280fd5b82356001600160a01b038116810361112a57815260209283019201610f3e565b8480fd5b5080fd5b50346104ea57806003193601126104ea576020600854604051908152f35b50346104ea57806003193601126104ea577f00000000000000000000000000000000000000000000000000000000000000006001600160a01b031630036111d1576020604051600080516020611f698339815191528152f35b63703e46dd60e11b8152600490fd5b5060403660031901126104ea576111f5611836565b6024359067ffffffffffffffff821161112e573660238301121561112e5781600401359083611223836118c3565b9361123160405195866118a1565b8385526020850193366024828401011161112e57806024602093018637850101526001600160a01b037f00000000000000000000000000000000000000000000000000000000000000001630811490811561140e575b506113ff57611294611c49565b6040516352d1902d60e01b81526001600160a01b0382169390602081600481885afa8691816113c7575b506112d757634c9c8ce360e01b86526004859052602486fd5b9384600080516020611f698339815191528796036113b55750823b156113a357600080516020611f6983398151915280546001600160a01b031916821790558491907fbc7cd75a20ee27fd9adebab32041f755214dbc6bffa90cc0225b39da2e5c2d3b8380a28051156113885761137c9382915190845af43d15611380573d91611360836118c3565b9261136e60405194856118a1565b83523d85602085013e611ec7565b5080f35b606091611ec7565b50505050346113945780f35b63b398979f60e01b8152600490fd5b634c9c8ce360e01b8552600452602484fd5b632a87526960e21b8652600452602485fd5b9091506020813d6020116113f7575b816113e3602093836118a1565b810103126113f3575190386112be565b8680fd5b3d91506113d6565b63703e46dd60e11b8452600484fd5b600080516020611f69833981519152546001600160a01b03161415905038611287565b50346104ea57806003193601126104ea576020600754604051908152f35b50346104ea5760603660031901126104ea5760043560243560443592831515908185036104ea5761147e611c49565b83815260016020526040812080546001600160a01b031695906114a2871515611966565b6006810180546114b560ff8216156119a3565b60ff8160081c166117fd57888552846020526040852092600260038201916114de8a84546119e5565b809355426005820155015411156117bf575b5050600481016115018682546119e5565b9055600942910155858252816020526040822082826000146117505760065461152991611c98565b61153288611cb4565b61173f575b8784526002602052604084208885526002602052604085205490600019820191821161034b579061156791611938565b90549060031b1c84526001602052600560408520015488855260026020526040852089865260026020526040862054906000198201918211610c54578a94600080516020611f49833981519152947fafe1a4a505f7a8c7df0ee6ba18af9c98a0d7d94b30b68b284916b43f3c66bd5a9a98946115e960409b9995600695611938565b90549060031b1c8652600160205260048b872001541161172e575b60088201548015159081611716575b50611705575b848113156116d95761162f838301918254611c98565b908181556003548092116116d1575b50505b01549150600090156116a35750855161165a87826118a1565b60118152701bdb8b5d1a5b59481c995c185e5b595b9d607a1b6020820152905b61169387519283928352886020840152888301906118f7565b0390a282519182526020820152a3005b5085516116b087826118a1565b600e81526d1b185d19481c995c185e5b595b9d60921b60208201529061167a565b55388061163e565b6116e7838301918254611c7f565b908181556004548092106116fd575b5050611641565b5538806116f6565b600b5461171191611c98565b611619565b6301e1338091506117279042611a3c565b1138611613565b60095461173a91611c98565b611604565b600a5461174b91611c98565b611537565b50600754838181039112848212811690858313901516176117ab577fafe1a4a505f7a8c7df0ee6ba18af9c98a0d7d94b30b68b284916b43f3c66bd5a95936040959360068a94600080516020611f4983398151915294611604565b634e487b7160e01b84526011600452602484fd5b60019060ff191617905560018101805490600182018092116117e9575542600582015538806114f0565b634e487b7160e01b85526011600452602485fd5b60405162461bcd60e51b8152602060048201526011602482015270131bd85b881a5cc8191959985d5b1d1959607a1b6044820152606490fd5b600435906001600160a01b038216820361184c57565b600080fd5b610120810190811067ffffffffffffffff82111761186e57604052565b634e487b7160e01b600052604160045260246000fd5b610140810190811067ffffffffffffffff82111761186e57604052565b90601f8019910116810190811067ffffffffffffffff82111761186e57604052565b67ffffffffffffffff811161186e57601f01601f191660200190565b67ffffffffffffffff811161186e5760051b60200190565b919082519283825260005b848110611923575050826000602080949584010152601f8019910116010190565b80602080928401015182828601015201611902565b80548210156119505760005260206000200190600090565b634e487b7160e01b600052603260045260246000fd5b1561196d57565b60405162461bcd60e51b815260206004820152600e60248201526d131bd85b881b9bdd08199bdd5b9960921b6044820152606490fd5b156119aa57565b60405162461bcd60e51b8152602060048201526013602482015272131bd85b88185b1c9958591e481c995c185a59606a1b6044820152606490fd5b919082018092116119f257565b634e487b7160e01b600052601160045260246000fd5b80518210156119505760209160051b010190565b8115611a26570490565b634e487b7160e01b600052601260045260246000fd5b919082039182116119f257565b60018060a01b031660005260006020526040600020604051611a6a81611884565b815491828252600181015492836020840152600282015460408401526003820154606084015260048201546080840152600582015460a08401526006820154918260c0850152600960ff6007830154161591821560e087015260088101546101008701520154610120850152611bc9578193600091611ba3575b50605f8110611b6357505090603281018091116119f257905b51600a8110611b3a5750601981018091116119f2575b600354808211611b32575b50600454808210611b2d575090565b905090565b905038611b1e565b600511611b1357600a810180911115611b1357634e487b7160e01b600052601160045260246000fd5b60558110611b7f57505090601981018091116119f25790611afd565b604611611b8d575b50611afd565b90915060311981019081116119f2579038611b87565b9060648202918083046064149015171561080c57508251611bc391611a1c565b38611ae4565b5050505060055490565b6001600160a01b03168015611c3357600080516020611f2983398151915280546001600160a01b0319811683179091556001600160a01b03167f8be0079c531659141344cd1fd0a4f28419497f9722a3daafe3b4186f6b6457e0600080a3565b631e4fbdf760e01b600052600060045260246000fd5b600080516020611f29833981519152546001600160a01b03163303611c6a57565b63118cdaa760e01b6000523360045260246000fd5b818103929160001380158285131691841216176119f257565b919091600083820193841291129080158216911516176119f257565b60018060a01b0316600052600260205260406000206040518082602082945493848152019060005260206000209260005b818110611e80575050611cfa925003826118a1565b805160028110611e795760001981019081116119f257611d1a9082611a08565b5160005260016020526040600020604051611d3481611851565b60018060a01b0382541681526001820154602082015260028201546040820152600382015460608201526004820154926080820193845260058301549160a08101928352610100600760068601549560ff60c08501978181161515895260081c16151560e08501520154910152805160011981019081116119f257611db891611a08565b51600052600160205260406000209260405191611dd483611851565b60018060a01b0385541683526001850154602084015260028501546040840152600385015460608401526004850154938460808501526005860154938460a0820152610100600760068901549860ff808b1615159a8b60c087015260081c16151560e085015201549101525115159485611e71575b5084611e63575b505082611e5c57505090565b1115919050565b519051101592503880611e50565b945038611e49565b5050600090565b8454835260019485019486945060209093019201611ce5565b60ff600080516020611f898339815191525460401c1615611eb657565b631afcd79f60e31b60005260046000fd5b90611eed5750805115611edc57602081519101fd5b63d6bda27560e01b60005260046000fd5b81511580611f1f575b611efe575090565b639996b31560e01b60009081526001600160a01b0391909116600452602490fd5b50803b15611ef656fe9016d09d72d40fdae2fd8ceac6b6234c7706214fd39c1cd1e609a0528c199300c17e77081800e4bec45161da763d23d62f41146fb2629ee32a8fea0765743a12360894a13ba1a3210667c828492db98dca3e2076cc3735a920a3ca505d382bbcf0c57e16840df040f15088dc2f81fe391c3923bec73e23a9662efc9c229c6a00a264697066735822122052bc391b44b4fb3a07d4454d2295d98407c0b64aed55e13bbae8d3680f79c1ea64736f6c634300081c0033",
  "linkReferences": {},
  "deployedLinkReferences": {}
}