{
  "_format": "hh-sol-artifact-1",
  "contractName": "Reputation",
  "sourceName": "contracts/Reputation.sol",
  "abi": [
    {
      "inputs": [
        {
          "internalType": "address",
          "name": "target",
          "type": "address"
        }
      ],
      "name": "AddressEmptyCode",
      "type": "error"
    },
    {
      "inputs": [
        {
          "internalType": "address",
          "name": "implementation",
          "type": "address"
        }
      ],
      "name": "ERC1967InvalidImplementation",
      "type": "error"
    },
    {
      "inputs": [],
      "name": "ERC1967NonPayable",
      "type": "error"
    },
    {
      "inputs": [],
      "name": "FailedCall",
      "type": "error"
    },
    {
      "inputs": [],
      "name": "InvalidInitialization",
      "type": "error"
    },
    {
      "inputs": [],
      "name": "NotInitializing",
      "type": "error"
    },
    {
      "inputs": [
        {
          "internalType": "address",
          "name": "owner",
          "type": "address"
        }
      ],
      "name": "OwnableInvalidOwner",
      "type": "error"
    },
    {
      "inputs": [
        {
          "internalType": "address",
          "name": "account",
          "type": "address"
        }
      ],
      "name": "OwnableUnauthorizedAccount",
      "type": "error"
    },
    {
      "inputs": [],
      "name": "UUPSUnauthorizedCallContext",
      "type": "error"
    },
    {
      "inputs": [
        {
          "internalType": "bytes32",
          "name": "slot",
          "type": "bytes32"
        }
      ],
      "name": "UUPSUnsupportedProxiableUUID",
      "type": "error"
    },
    {
      "anonymous": false,
      "inputs": [
        {
          "indexed": true,
          "internalType": "bytes32",
          "name": "loanId",
          "type": "bytes32"
        },
        {
          "indexed": true,
          "internalType": "address",
          "name": "borrower",
          "type": "address"
        },
        {
          "indexed": false,
          "internalType": "uint256",
          "name": "amount",
          "type": "uint256"
        }
      ],
      "name": "DefaultRecorded",
      "type": "event"
    },
    {
      "anonymous": false,
      "inputs": [
        {
          "indexed": false,
          "internalType": "uint64",
          "name": "version",
          "type": "uint64"
        }
      ],
      "name": "Initialized",
      "type": "event"
    },
    {
      "anonymous": false,
      "inputs": [
        {
          "indexed": true,
          "internalType": "bytes32",
          "name": "loanId",
          "type": "bytes32"
        },
        {
          "indexed": true,
          "internalType": "address",
          "name": "borrower",
          "type": "address"
        },
        {
          "indexed": false,
          "internalType": "uint256",
          "name": "amount",
          "type": "uint256"
        }
      ],
      "name": "LoanRecorded",
      "type": "event"
    },
    {
      "anonymous": false,
      "inputs": [
        {
          "indexed": true,
          "internalType": "address",
          "name": "previousOwner",
          "type": "address"
        },
        {
          "indexed": true,
          "internalType": "address",
          "name": "newOwner",
          "type": "address"
        }
      ],
      "name": "OwnershipTransferred",
      "type": "event"
    },
    {
      "anonymous": false,
      "inputs": [
        {
          "indexed": true,
          "internalType": "bytes32",
          "name": "loanId",
          "type": "bytes32"
        },
        {
          "indexed": true,
          "internalType": "address",
          "name": "borrower",
          "type": "address"
        },
        {
          "indexed": false,
          "internalType": "uint256",
          "name": "amount",
          "type": "uint256"
        },
        {
          "indexed": false,
          "internalType": "bool",
          "name": "onTime",
          "type": "bool"
        }
      ],
      "name": "RepaymentRecorded",
      "type": "event"
    },
    {
      "anonymous": false,
      "inputs": [
        {
          "indexed": true,
          "internalType": "address",
          "name": "borrower",
          "type": "address"
        },
        {
          "indexed": false,
          "internalType": "uint256",
          "name": "newScore",
          "type": "uint256"
        },
        {
          "indexed": false,
          "internalType": "string",
          "name": "reason",
          "type": "string"
        }
      ],
      "name": "ReputationUpdated",
      "type": "event"
    },
    {
      "anonymous": false,
      "inputs": [
        {
          "indexed": true,
          "internalType": "address",
          "name": "implementation",
          "type": "address"
        }
      ],
      "name": "Upgraded",
      "type": "event"
    },
    {
      "inputs": [],
      "name": "UPGRADE_INTERFACE_VERSION",
      "outputs": [
        {
          "internalType": "string",
          "name": "",
          "type": "string"
        }
      ],
      "stateMutability": "view",
      "type": "function"
    },
    {
      "inputs": [],
      "name": "baseReputationScore",
      "outputs": [
        {
          "internalType": "uint256",
          "name": "",
          "type": "uint256"
        }
      ],
      "stateMutability": "view",
      "type": "function"
    },
    {
      "inputs": [
        {
          "internalType": "address[]",
          "name": "_borrowers",
          "type": "address[]"
        },
        {
          "internalType": "uint256[]",
          "name": "_newScores",
          "type": "uint256[]"
        }
      ],
      "name": "batchUpdateReputations",
      "outputs": [],
      "stateMutability": "nonpayable",
      "type": "function"
    },
    {
      "inputs": [
        {
          "internalType": "address",
          "name": "",
          "type": "address"
        },
        {
          "internalType": "uint256",
          "name": "",
          "type": "uint256"
        }
      ],
      "name": "borrowerLoans",
      "outputs": [
        {
          "internalType": "bytes32",
          "name": "",
          "type": "bytes32"
        }
      ],
      "stateMutability": "view",
      "type": "function"
    },
    {
      "inputs": [
        {
          "internalType": "address",
          "name": "",
          "type": "address"
        }
      ],
      "name": "borrowerReputations",
      "outputs": [
        {
          "internalType": "uint256",
          "name": "totalLoans",
          "type": "uint256"
        },
        {
          "internalType": "uint256",
          "name": "repaidLoans",
          "type": "uint256"
        },
        {
          "internalType": "uint256",
          "name": "defaultedLoans",
          "type": "uint256"
        },
        {
          "internalType": "uint256",
          "name": "totalBorrowed",
          "type": "uint256"
        },
        {
          "internalType": "uint256",
          "name": "totalRepaid",
          "type": "uint256"
        },
        {
          "internalType": "uint256",
          "name": "lastRepaymentTime",
          "type": "uint256"
        },
        {
          "internalType": "uint256",
          "name": "reputationScore",
          "type": "uint256"
        },
        {
          "internalType": "bool",
          "name": "isActive",
          "type": "bool"
        },
        {
          "internalType": "uint256",
          "name": "createdAt",
          "type": "uint256"
        },
        {
          "internalType": "uint256",
          "name": "updatedAt",
          "type": "uint256"
        }
      ],
      "stateMutability": "view",
      "type": "function"
    },
    {
      "inputs": [
        {
          "internalType": "address",
          "name": "_borrower",
          "type": "address"
        }
      ],
      "name": "calculateCreditScore",
      "outputs": [
        {
          "internalType": "uint256",
          "name": "",
          "type": "uint256"
        }
      ],
      "stateMutability": "view",
      "type": "function"
    },
    {
      "inputs": [],
      "name": "consistentRepaymentBonus",
      "outputs": [
        {
          "internalType": "uint256",
          "name": "",
          "type": "uint256"
        }
      ],
      "stateMutability": "view",
      "type": "function"
    },
    {
      "inputs": [],
      "name": "defaultPenalty",
      "outputs": [
        {
          "internalType": "uint256",
          "name": "",
          "type": "uint256"
        }
      ],
      "stateMutability": "view",
      "type": "function"
    },
    {
      "inputs": [],
      "name": "earlyRepaymentBonus",
      "outputs": [
        {
          "internalType": "uint256",
          "name": "",
          "type": "uint256"
        }
      ],
      "stateMutability": "view",
      "type": "function"
    },
    {
      "inputs": [
        {
          "internalType": "address",
          "name": "_borrower",
          "type": "address"
        }
      ],
      "name": "getBorrowerLoans",
      "outputs": [
        {
          "internalType": "bytes32[]",
          "name": "",
          "type": "bytes32[]"
        }
      ],
      "stateMutability": "view",
      "type": "function"
    },
    {
      "inputs": [
        {
          "internalType": "address",
          "name": "_borrower",
          "type": "address"
        }
      ],
      "name": "getBorrowerReputation",
      "outputs": [
        {
          "internalType": "uint256",
          "name": "totalLoans",
          "type": "uint256"
        },
        {
          "internalType": "uint256",
          "name": "repaidLoans",
          "type": "uint256"
        },
        {
          "internalType": "uint256",
          "name": "defaultedLoans",
          "type": "uint256"
        },
        {
          "internalType": "uint256",
          "name": "reputationScore",
          "type": "uint256"
        },
        {
          "internalType": "uint256",
          "name": "repaymentRate",
          "type": "uint256"
        }
      ],
      "stateMutability": "view",
      "type": "function"
    },
    {
      "inputs": [
        {
          "internalType": "bytes32",
          "name": "_loanId",
          "type": "bytes32"
        }
      ],
      "name": "getLoanRecord",
      "outputs": [
        {
          "internalType": "address",
          "name": "borrower",
          "type": "address"
        },
        {
          "internalType": "uint256",
          "name": "amount",
          "type": "uint256"
        },
        {
          "internalType": "uint256",
          "name": "repaidAmount",
          "type": "uint256"
        },
        {
          "internalType": "uint256",
          "name": "dueDate",
          "type": "uint256"
        },
        {
          "internalType": "uint256",
          "name": "repaymentDate",
          "type": "uint256"
        },
        {
          "internalType": "bool",
          "name": "isRepaid",
          "type": "bool"
        },
        {
          "internalType": "bool",
          "name": "isDefaulted",
          "type": "bool"
        }
      ],
      "stateMutability": "view",
      "type": "function"
    },
    {
      "inputs": [],
      "name": "initialize",
      "outputs": [],
      "stateMutability": "nonpayable",
      "type": "function"
    },
    {
      "inputs": [],
      "name": "lateRepaymentPenalty",
      "outputs": [
        {
          "internalType": "uint256",
          "name": "",
          "type": "uint256"
        }
      ],
      "stateMutability": "view",
      "type": "function"
    },
    {
      "inputs": [
        {
          "internalType": "bytes32",
          "name": "",
          "type": "bytes32"
        }
      ],
      "name": "loanRecords",
      "outputs": [
        {
          "internalType": "address",
          "name": "borrower",
          "type": "address"
        },
        {
          "internalType": "uint256",
          "name": "loanId",
          "type": "uint256"
        },
        {
          "internalType": "uint256",
          "name": "amount",
          "type": "uint256"
        },
        {
          "internalType": "uint256",
          "name": "repaidAmount",
          "type": "uint256"
        },
        {
          "internalType": "uint256",
          "name": "dueDate",
          "type": "uint256"
        },
        {
          "internalType": "uint256",
          "name": "repaymentDate",
          "type": "uint256"
        },
        {
          "internalType": "bool",
          "name": "isRepaid",
          "type": "bool"
        },
        {
          "internalType": "bool",
          "name": "isDefaulted",
          "type": "bool"
        },
        {
          "internalType": "uint256",
          "name": "createdAt",
          "type": "uint256"
        }
      ],
      "stateMutability": "view",
      "type": "function"
    },
    {
      "inputs": [],
      "name": "longTermBorrowerBonus",
      "outputs": [
        {
          "internalType": "uint256",
          "name": "",
          "type": "uint256"
        }
      ],
      "stateMutability": "view",
      "type": "function"
    },
    {
      "inputs": [],
      "name": "maxReputationScore",
      "outputs": [
        {
          "internalType": "uint256",
          "name": "",
          "type": "uint256"
        }
      ],
      "stateMutability": "view",
      "type": "function"
    },
    {
      "inputs": [],
      "name": "minReputationScore",
      "outputs": [
        {
          "internalType": "uint256",
          "name": "",
          "type": "uint256"
        }
      ],
      "stateMutability": "view",
      "type": "function"
    },
    {
      "inputs": [],
      "name": "onTimeRepaymentBonus",
      "outputs": [
        {
          "internalType": "uint256",
          "name": "",
          "type": "uint256"
        }
      ],
      "stateMutability": "view",
      "type": "function"
    },
    {
      "inputs": [],
      "name": "owner",
      "outputs": [
        {
          "internalType": "address",
          "name": "",
          "type": "address"
        }
      ],
      "stateMutability": "view",
      "type": "function"
    },
    {
      "inputs": [],
      "name": "proxiableUUID",
      "outputs": [
        {
          "internalType": "bytes32",
          "name": "",
          "type": "bytes32"
        }
      ],
      "stateMutability": "view",
      "type": "function"
    },
    {
      "inputs": [
        {
          "internalType": "bytes32",
          "name": "_loanId",
          "type": "bytes32"
        }
      ],
      "name": "recordDefault",
      "outputs": [],
      "stateMutability": "nonpayable",
      "type": "function"
    },
    {
      "inputs": [
        {
          "internalType": "address",
          "name": "_borrower",
          "type": "address"
        },
        {
          "internalType": "bytes32",
          "name": "_loanId",
          "type": "bytes32"
        },
        {
          "internalType": "uint256",
          "name": "_amount",
          "type": "uint256"
        },
        {
          "internalType": "uint256",
          "name": "_dueDate",
          "type": "uint256"
        }
      ],
      "name": "recordLoan",
      "outputs": [],
      "stateMutability": "nonpayable",
      "type": "function"
    },
    {
      "inputs": [
        {
          "internalType": "bytes32",
          "name": "_loanId",
          "type": "bytes32"
        },
        {
          "internalType": "uint256",
          "name": "_repaidAmount",
          "type": "uint256"
        },
        {
          "internalType": "bool",
          "name": "_onTime",
          "type": "bool"
        }
      ],
      "name": "recordRepayment",
      "outputs": [],
      "stateMutability": "nonpayable",
      "type": "function"
    },
    {
      "inputs": [],
      "name": "renounceOwnership",
      "outputs": [],
      "stateMutability": "nonpayable",
      "type": "function"
    },
    {
      "inputs": [
        {
          "internalType": "address",
          "name": "newOwner",
          "type": "address"
        }
      ],
      "name": "transferOwnership",
      "outputs": [],
      "stateMutability": "nonpayable",
      "type": "function"
    },
    {
      "inputs": [
        {
          "internalType": "uint256",
          "name": "_maxReputationScore",
          "type": "uint256"
        },
        {
          "internalType": "uint256",
          "name": "_minReputationScore",
          "type": "uint256"
        },
        {
          "internalType": "uint256",
          "name": "_onTimeRepaymentBonus",
          "type": "uint256"
        },
        {
          "internalType": "uint256",
          "name": "_lateRepaymentPenalty",
          "type": "uint256"
        },
        {
          "internalType": "uint256",
          "name": "_defaultPenalty",
          "type": "uint256"
        }
      ],
      "name": "updateParameters",
      "outputs": [],
      "stateMutability": "nonpayable",
      "type": "function"
    },
    {
      "inputs": [
        {
          "internalType": "address",
          "name": "newImplementation",
          "type": "address"
        },
        {
          "internalType": "bytes",
          "name": "data",
          "type": "bytes"
        }
      ],
      "name": "upgradeToAndCall",
      "outputs": [],
      "stateMutability": "payable",
      "type": "function"
    }
  ],
  "bytecode": "0x60a08060405234605857306080526103e860035560646004556101f4600555600a6006556014600755606460085560056009556005600a556019600b556122b5908161005e82396080518181816112e901526113c40152f35b600080fdfe6080604052600436101561001257600080fd5b6000803560e01c8063343dda1b146116665780634aa1ebe6146116485780634f1ef2861461134857806352d1902d146112ce57806353f0366c146112b05780636193e43714610ff157806363a933ee14610fd3578063715018a614610f2d5780638129fc1c14610d665780638d51f45114610d485780638da5cb5b14610d025780638fbd3d8014610ab5578063947ec0e014610a9757806398c006a214610a79578063ad3cb1cc14610a14578063b7622dd4146109d9578063bdb3c7f6146109bb578063d684bafa146108f5578063d95ba6a2146108d7578063db1baeda14610836578063e3316a7c14610719578063e3ed1902146106c2578063eee8b7ff1461060d578063f1c3753a146105e1578063f2fde38b146105b4578063fca9dc2314610520578063fcc05e9c146105025763fd42955d1461015157600080fd5b346104ff5760803660031901126104ff5761016a611a97565b6024356001600160a01b0360443592610181611f18565b169182156104bb5780156104775781845260016020526001600160a01b03604085205416610433578284528360205260ff60076040862001541615610379575b6040516101cd81611ab2565b838152600783602083018181528760408501868152606086018281526080870190606435825260a088019284845260c08901958587526001600160a01b03604060e08c01978089526101008d019a428c5281526001602052209a511673ffffffffffffffffffffffffffffffffffffffff198b5416178a555160018a01555160028901555160038801555160048701555160058601556102806006860192511515839060ff801983541691151516179055565b51815461ff00191690151560081b61ff0016179055519101558284526002602052604084208054906801000000000000000082101561036557906102c991600182018155611b99565b81549060031b9084821b91600019901b191617905582845283602052604084208054906001820180921161035157916020917f32f32fb3add830db77d3c0e9d6a32d6560058818eebc0f2eb796fce52d56e605935584865285825260036040872001610336828254611c5d565b9055848652858252426009604088200155604051908152a380f35b602486634e487b7160e01b81526011600452fd5b602486634e487b7160e01b81526041600452fd5b8360098460055461042460405194859261039284611ae5565b818452602084018281526040850183815260608601848152608087019185835260a088019386855260c08901958652604060e08a0197600189526101206101008c019b428d52019b428d52815280602052209b518c555160018c01555160028b01555160038a0155516004890155516005880155516006870155511515600786019060ff801983541691151516179055565b516008840155519101556101c1565b606460405162461bcd60e51b815260206004820152601560248201527f4c6f616e20616c7265616479207265636f7264656400000000000000000000006044820152fd5b606460405162461bcd60e51b815260206004820152601360248201527f496e76616c6964206c6f616e20616d6f756e74000000000000000000000000006044820152fd5b606460405162461bcd60e51b815260206004820152601860248201527f496e76616c696420626f72726f776572206164647265737300000000000000006044820152fd5b80fd5b50346104ff57806003193601126104ff576020600a54604051908152f35b50346104ff5760203660031901126104ff5760406101209160043581526001602052206001600160a01b038154169060ff600182015491600281015460038201546004830154906005840154926007600686015495015496604051988952602089015260408801526060870152608086015260a0850152818116151560c085015260081c16151560e0830152610100820152f35b50346104ff5760203660031901126104ff576105de6105d1611a97565b6105d9611f18565b611e4c565b80f35b50346104ff5760203660031901126104ff576020610605610600611a97565b611cc1565b604051908152f35b50346104ff5760203660031901126104ff576001600160a01b0361062f611a97565b168152600260205260408120604051908160208254918281520190819285526020852090855b8181106106ac575050508261066b910383611b02565b604051928392602084019060208552518091526040840192915b818110610693575050500390f35b8251845285945060209384019390920191600101610685565b8254845260209093019260019283019201610655565b50346104ff5760403660031901126104ff576106dc611a97565b6001600160a01b03168152600260205260408120805460243592908310156104ff57602061070a8484611b99565b90549060031b1c604051908152f35b50346104ff5760203660031901126104ff576001600160a01b0361073b611a97565b1681528060205260408120906040519061075482611ae5565b8254908183526001840154936020840193858552600282015492604082019384526003830154606083015260048301546080830152600583015460a0830152600960068401549360c0840194855260ff600782015416151560e08501526008810154610100850152015461012083015280946107f4575b5060a0955051935191519051916040519485526020850152604084015260608301526080820152f35b9093506127108602958087046127101490151715610822575061081b60a095845190611c94565b92386107cb565b80634e487b7160e01b602492526011600452fd5b50346104ff5760203660031901126104ff576040610140916001600160a01b0361085e611a97565b168152806020522080549060018101549060028101546003820154600483015460058401549060068501549260ff600787015416946009600888015497015497604051998a5260208a015260408901526060880152608087015260a086015260c0850152151560e0840152610100830152610120820152f35b50346104ff57806003193601126104ff576020600554604051908152f35b50346104ff5760203660031901126104ff57604060e09160043581526001602052206040519061092482611ab2565b6001600160a01b038154169182815260018201546020820152600282015480604083015260038301548060608401526004840154908160808501526005850154928360a0860152600686015494610100600760ff8089161515988960c086015260081c16151598898c8501520154910152604051968752602087015260408601526060850152608084015260a083015260c0820152f35b50346104ff57806003193601126104ff576020600454604051908152f35b50346104ff5760a03660031901126104ff576109f3611f18565b60043560035560243560045560443560065560643560075560843560085580f35b50346104ff57806003193601126104ff5750610a75604051610a37604082611b02565b600581527f352e302e300000000000000000000000000000000000000000000000000000006020820152604051918291602083526020830190611b58565b0390f35b50346104ff57806003193601126104ff576020600b54604051908152f35b50346104ff57806003193601126104ff576020600354604051908152f35b50346104ff5760203660031901126104ff57600435610ad2611f18565b808252600160205260408220906001600160a01b0382541691610af6831515611bc7565b60068101805490610b0a60ff831615611c12565b60ff8260081c16610cbe5784865285602052610100604087209261ff0019161790554260058301556002810180549060018201809211610caa57917fdf483566f6ac3078fd6f86f418fc5b7d9fd280b5f656794d2c7ce77059457fc99391602093556009429101558486528582526002600660408820610b8c6008548a611f79565b60088201548015159081610c92575b50610c81575b89811315610c5557610bb7838301918254611f92565b90818155600354809211610c4d575b50505b015491867fc17e77081800e4bec45161da763d23d62f41146fb2629ee32a8fea0765743a12604094855190610bfe8783611b02565b600782527f64656661756c740000000000000000000000000000000000000000000000000088830152610c3f87519283928352888a84015288830190611b58565b0390a201549051908152a380f35b553880610bc6565b610c63838301918254611f79565b90818155600454809210610c79575b5050610bc9565b553880610c72565b600b54610c8d91611f92565b610ba1565b6301e133809150610ca39042611cb4565b1138610b9b565b602487634e487b7160e01b81526011600452fd5b606460405162461bcd60e51b815260206004820152601660248201527f4c6f616e20616c72656164792064656661756c746564000000000000000000006044820152fd5b50346104ff57806003193601126104ff5760206001600160a01b037f9016d09d72d40fdae2fd8ceac6b6234c7706214fd39c1cd1e609a0528c1993005416604051908152f35b50346104ff57806003193601126104ff576020600654604051908152f35b50346104ff57806003193601126104ff577ff0c57e16840df040f15088dc2f81fe391c3923bec73e23a9662efc9c229c6a005460ff8160401c16159067ffffffffffffffff811680159081610f25575b6001149081610f1b575b159081610f12575b50610eea5767ffffffffffffffff1981166001177ff0c57e16840df040f15088dc2f81fe391c3923bec73e23a9662efc9c229c6a005581610eab575b50610e0d612196565b610e15612196565b610e1e33611e4c565b610e26612196565b610e2d5780f35b68ff0000000000000000197ff0c57e16840df040f15088dc2f81fe391c3923bec73e23a9662efc9c229c6a0054167ff0c57e16840df040f15088dc2f81fe391c3923bec73e23a9662efc9c229c6a00557fc7f505b2f371ae2175ee4913f4499e1f2633a7b5936321eed1cdaeb6115181d2602060405160018152a180f35b68ffffffffffffffffff191668010000000000000001177ff0c57e16840df040f15088dc2f81fe391c3923bec73e23a9662efc9c229c6a005538610e04565b6004837ff92ee8a9000000000000000000000000000000000000000000000000000000008152fd5b90501538610dc8565b303b159150610dc0565b839150610db6565b50346104ff57806003193601126104ff57610f46611f18565b806001600160a01b037f9016d09d72d40fdae2fd8ceac6b6234c7706214fd39c1cd1e609a0528c1993005473ffffffffffffffffffffffffffffffffffffffff1981167f9016d09d72d40fdae2fd8ceac6b6234c7706214fd39c1cd1e609a0528c19930055167f8be0079c531659141344cd1fd0a4f28419497f9722a3daafe3b4186f6b6457e08280a380f35b50346104ff57806003193601126104ff576020600954604051908152f35b50346104ff5760403660031901126104ff576004359067ffffffffffffffff82116104ff57366023830112156104ff57816004013561102f81611b40565b9261103d6040519485611b02565b8184526024602085019260051b820101903682116112ac57602401915b81831061128c5750505060243567ffffffffffffffff811161128857366023820112156112885780600401359061109082611b40565b9161109e6040519384611b02565b8083526024602084019160051b8301019136831161128457602401905b828210611274575050506110cd611f18565b825181510361123057815b835181101561122c576110eb8183611c80565b51600454111580611216575b156111d2578061110960019284611c80565b516001600160a01b0361111c8388611c80565b511685528460205260066040862001556001600160a01b0361113e8287611c80565b51168452836020524260096040862001556001600160a01b036111618287611c80565b51167fc17e77081800e4bec45161da763d23d62f41146fb2629ee32a8fea0765743a1260806111908487611c80565b5160405190815260406020820152600c60408201527f62617463682075706461746500000000000000000000000000000000000000006060820152a2016110d8565b606460405162461bcd60e51b815260206004820152600d60248201527f496e76616c69642073636f7265000000000000000000000000000000000000006044820152fd5b506112218183611c80565b5160035410156110f7565b8280f35b606460405162461bcd60e51b815260206004820152601660248201527f417272617973206c656e677468206d69736d61746368000000000000000000006044820152fd5b81358152602091820191016110bb565b8480fd5b5080fd5b82356001600160a01b03811681036112845781526020928301920161105a565b8380fd5b50346104ff57806003193601126104ff576020600854604051908152f35b50346104ff57806003193601126104ff576001600160a01b037f00000000000000000000000000000000000000000000000000000000000000001630036113395760206040517f360894a13ba1a3210667c828492db98dca3e2076cc3735a920a3ca505d382bbc8152f35b8063703e46dd60e11b60049252fd5b5060403660031901126104ff5761135d611a97565b6024359067ffffffffffffffff82116116445736602383011215611644578160040135908361138b83611b24565b936113996040519586611b02565b8385526020850193366024828401011161164457806024602093018637850101526001600160a01b037f00000000000000000000000000000000000000000000000000000000000000001680301490811561160f575b50611600576113fc611f18565b6001600160a01b038116926040517f52d1902d000000000000000000000000000000000000000000000000000000008152602081600481885afa8691816115c8575b506114565760248686634c9c8ce360e01b8252600452fd5b93847f360894a13ba1a3210667c828492db98dca3e2076cc3735a920a3ca505d382bbc87960361159d5750823b1561158b579081859273ffffffffffffffffffffffffffffffffffffffff197f360894a13ba1a3210667c828492db98dca3e2076cc3735a920a3ca505d382bbc5416177f360894a13ba1a3210667c828492db98dca3e2076cc3735a920a3ca505d382bbc557fbc7cd75a20ee27fd9adebab32041f755214dbc6bffa90cc0225b39da2e5c2d3b8380a28051156115575761154b9382915190845af43d1561154f573d9161152f83611b24565b9261153d6040519485611b02565b83523d85602085013e6121ef565b5080f35b6060916121ef565b50505050346115635780f35b807fb398979f0000000000000000000000000000000000000000000000000000000060049252fd5b634c9c8ce360e01b8552600452602484fd5b7faa1d49a4000000000000000000000000000000000000000000000000000000008652600452602485fd5b9091506020813d6020116115f8575b816115e460209383611b02565b810103126115f45751903861143e565b8680fd5b3d91506115d7565b60048463703e46dd60e11b8152fd5b90506001600160a01b037f360894a13ba1a3210667c828492db98dca3e2076cc3735a920a3ca505d382bbc54161415386113ef565b8280fd5b50346104ff57806003193601126104ff576020600754604051908152f35b50346104ff5760603660031901126104ff5760043560243560443592831515908185036104ff57611695611f18565b838152600160205260408120946001600160a01b03865416956116b9871515611bc7565b6006810180546116cc60ff821615611c12565b60ff8160081c16611a5357888552846020526040852092600260038201916116f58a8454611c5d565b80935542600582015501541115611a15575b505060048101611718868254611c5d565b9055600942910155858252816020526040822082826000146119945760065461174091611f92565b61174988611fae565b611983575b87845260026020526040842088855260026020526040852054906000198201918211610351579061177e91611b99565b90549060031b1c84526001602052600560408520015488855260026020526040852089865260026020526040862054906000198201918211610caa578a947fc17e77081800e4bec45161da763d23d62f41146fb2629ee32a8fea0765743a12947fafe1a4a505f7a8c7df0ee6ba18af9c98a0d7d94b30b68b284916b43f3c66bd5a9a989461181260409b9995600695611b99565b90549060031b1c8652600160205260048b8720015411611972575b6008820154801515908161195a575b50611949575b8481131561191d57611858838301918254611f92565b90818155600354809211611915575b50505b01549150600090156118d8575085516118838782611b02565b601181527f6f6e2d74696d652072657061796d656e740000000000000000000000000000006020820152905b6118c88751928392835288602084015288830190611b58565b0390a282519182526020820152a3005b5085516118e58782611b02565b600e81527f6c6174652072657061796d656e740000000000000000000000000000000000006020820152906118af565b553880611867565b61192b838301918254611f79565b90818155600454809210611941575b505061186a565b55388061193a565b600b5461195591611f92565b611842565b6301e13380915061196b9042611cb4565b113861183c565b60095461197e91611f92565b61182d565b600a5461198f91611f92565b61174e565b5060075483818103911284821281169085831390151617611a01577fafe1a4a505f7a8c7df0ee6ba18af9c98a0d7d94b30b68b284916b43f3c66bd5a95936040959360068a947fc17e77081800e4bec45161da763d23d62f41146fb2629ee32a8fea0765743a129461182d565b602484634e487b7160e01b81526011600452fd5b60019060ff19161790556001810180549060018201809211611a3f57554260058201553880611707565b602485634e487b7160e01b81526011600452fd5b606460405162461bcd60e51b815260206004820152601160248201527f4c6f616e2069732064656661756c7465640000000000000000000000000000006044820152fd5b600435906001600160a01b0382168203611aad57565b600080fd5b610120810190811067ffffffffffffffff821117611acf57604052565b634e487b7160e01b600052604160045260246000fd5b610140810190811067ffffffffffffffff821117611acf57604052565b90601f8019910116810190811067ffffffffffffffff821117611acf57604052565b67ffffffffffffffff8111611acf57601f01601f191660200190565b67ffffffffffffffff8111611acf5760051b60200190565b919082519283825260005b848110611b84575050826000602080949584010152601f8019910116010190565b80602080928401015182828601015201611b63565b8054821015611bb15760005260206000200190600090565b634e487b7160e01b600052603260045260246000fd5b15611bce57565b606460405162461bcd60e51b815260206004820152600e60248201527f4c6f616e206e6f7420666f756e640000000000000000000000000000000000006044820152fd5b15611c1957565b606460405162461bcd60e51b815260206004820152601360248201527f4c6f616e20616c726561647920726570616964000000000000000000000000006044820152fd5b91908201809211611c6a57565b634e487b7160e01b600052601160045260246000fd5b8051821015611bb15760209160051b010190565b8115611c9e570490565b634e487b7160e01b600052601260045260246000fd5b91908203918211611c6a57565b6001600160a01b031660005260006020526040600020604051611ce381611ae5565b815491828252600181015492836020840152600282015460408401526003820154606084015260048201546080840152600582015460a08401526006820154918260c0850152600960ff6007830154161591821560e087015260088101546101008701520154610120850152611e42578193600091611e1c575b50605f8110611ddc5750509060328101809111611c6a57905b51600a8110611db3575060198101809111611c6a575b600354808211611dab575b50600454808210611da6575090565b905090565b905038611d97565b600511611d8c57600a810180911115611d8c57634e487b7160e01b600052601160045260246000fd5b60558110611df85750509060198101809111611c6a5790611d76565b604611611e06575b50611d76565b9091506031198101908111611c6a579038611e00565b9060648202918083046064149015171561082257508251611e3c91611c94565b38611d5d565b5050505060055490565b6001600160a01b03168015611ee9576001600160a01b037f9016d09d72d40fdae2fd8ceac6b6234c7706214fd39c1cd1e609a0528c199300548273ffffffffffffffffffffffffffffffffffffffff198216177f9016d09d72d40fdae2fd8ceac6b6234c7706214fd39c1cd1e609a0528c19930055167f8be0079c531659141344cd1fd0a4f28419497f9722a3daafe3b4186f6b6457e0600080a3565b7f1e4fbdf700000000000000000000000000000000000000000000000000000000600052600060045260246000fd5b6001600160a01b037f9016d09d72d40fdae2fd8ceac6b6234c7706214fd39c1cd1e609a0528c19930054163303611f4b57565b7f118cdaa7000000000000000000000000000000000000000000000000000000006000523360045260246000fd5b81810392916000138015828513169184121617611c6a57565b91909160008382019384129112908015821691151617611c6a57565b6001600160a01b0316600052600260205260406000206040518082602082945493848152019060005260206000209260005b81811061217d575050611ff592500382611b02565b805160028110612176576000198101908111611c6a576120159082611c80565b516000526001602052604060002060405161202f81611ab2565b6001600160a01b0382541681526001820154602082015260028201546040820152600382015460608201526004820154926080820193845260058301549160a08101928352610100600760068601549560ff60c08501978181161515895260081c16151560e0850152015491015280516001198101908111611c6a576120b491611c80565b516000526001602052604060002092604051916120d083611ab2565b6001600160a01b0385541683526001850154602084015260028501546040840152600385015460608401526004850154938460808501526005860154938460a0820152610100600760068901549860ff808b1615159a8b60c087015260081c16151560e08501520154910152511515948561216e575b5084612160575b50508261215957505090565b1115919050565b51905110159250388061214d565b945038612146565b5050600090565b8454835260019485019486945060209093019201611fe0565b60ff7ff0c57e16840df040f15088dc2f81fe391c3923bec73e23a9662efc9c229c6a005460401c16156121c557565b7fd7e6bcf80000000000000000000000000000000000000000000000000000000060005260046000fd5b9061222e575080511561220457602081519101fd5b7fd6bda2750000000000000000000000000000000000000000000000000000000060005260046000fd5b81511580612276575b61223f575090565b6001600160a01b03907f9996b315000000000000000000000000000000000000000000000000000000006000521660045260246000fd5b50803b1561223756fea2646970667358221220594b78362b91f1c91f2cb8452ceddddac7369ce0d042d455fdad494630cc4a0264736f6c634300081c0033",
  "linkReferences": {},
  "deployedLinkReferences": {}
}