{
  "_format": "hh-sol-artifact-1",
  "contractName": "MarketplaceEscrow",
  "sourceName": "contracts/MarketplaceEscrow.sol",
  "abi": [
    {
      "inputs": [
        {
          "internalType": "address",
          "name": "target",
          "type": "address"
        }
      ],
      "name": "AddressEmptyCode",
      "type": "error"
    },
    {
      "inputs": [
        {
          "internalType": "address",
          "name": "implementation",
          "type": "address"
        }
      ],
      "name": "ERC1967InvalidImplementation",
      "type": "error"
    },
    {
      "inputs": [],
      "name": "ERC1967NonPayable",
      "type": "error"
    },
    {
      "inputs": [],
      "name": "EnforcedPause",
      "type": "error"
    },
    {
      "inputs": [],
      "name": "ExpectedPause",
      "type": "error"
    },
    {
      "inputs": [],
      "name": "FailedCall",
      "type": "error"
    },
    {
      "inputs": [],
      "name": "InvalidInitialization",
      "type": "error"
    },
    {
      "inputs": [],
      "name": "NotInitializing",
      "type": "error"
    },
    {
      "inputs": [
        {
          "internalType": "address",
          "name": "owner",
          "type": "address"
        }
      ],
      "name": "OwnableInvalidOwner",
      "type": "error"
    },
    {
      "inputs": [
        {
          "internalType": "address",
          "name": "account",
          "type": "address"
        }
      ],
      "name": "OwnableUnauthorizedAccount",
      "type": "error"
    },
    {
      "inputs": [],
      "name": "ReentrancyGuardReentrantCall",
      "type": "error"
    },
    {
      "inputs": [
        {
          "internalType": "address",
          "name": "token",
          "type": "address"
        }
      ],
      "name": "SafeERC20FailedOperation",
      "type": "error"
    },
    {
      "inputs": [],
      "name": "UUPSUnauthorizedCallContext",
      "type": "error"
    },
    {
      "inputs": [
        {
          "internalType": "bytes32",
          "name": "slot",
          "type": "bytes32"
        }
      ],
      "name": "UUPSUnsupportedProxiableUUID",
      "type": "error"
    },
    {
      "anonymous": false,
      "inputs": [
        {
          "indexed": true,
          "internalType": "address",
          "name": "bridge",
          "type": "address"
        }
      ],
      "name": "CrossChainBridgeSet",
      "type": "event"
    },
    {
      "anonymous": false,
      "inputs": [
        {
          "indexed": true,
          "internalType": "uint256",
          "name": "escrowId",
          "type": "uint256"
        },
        {
          "indexed": true,
          "internalType": "uint256",
          "name": "listingId",
          "type": "uint256"
        },
        {
          "indexed": true,
          "internalType": "uint256",
          "name": "targetChainId",
          "type": "uint256"
        }
      ],
      "name": "CrossChainEscrowInitiated",
      "type": "event"
    },
    {
      "anonymous": false,
      "inputs": [
        {
          "indexed": true,
          "internalType": "uint256",
          "name": "listingId",
          "type": "uint256"
        },
        {
          "indexed": true,
          "internalType": "uint256",
          "name": "targetChainId",
          "type": "uint256"
        },
        {
          "indexed": true,
          "internalType": "address",
          "name": "seller",
          "type": "address"
        }
      ],
      "name": "CrossChainListingCreated",
      "type": "event"
    },
    {
      "anonymous": false,
      "inputs": [
        {
          "indexed": true,
          "internalType": "uint256",
          "name": "escrowId",
          "type": "uint256"
        },
        {
          "indexed": false,
          "internalType": "string",
          "name": "proof",
          "type": "string"
        }
      ],
      "name": "DeliveryConfirmed",
      "type": "event"
    },
    {
      "anonymous": false,
      "inputs": [
        {
          "indexed": true,
          "internalType": "uint256",
          "name": "disputeId",
          "type": "uint256"
        },
        {
          "indexed": true,
          "internalType": "address",
          "name": "submitter",
          "type": "address"
        },
        {
          "indexed": false,
          "internalType": "uint256",
          "name": "evidenceIndex",
          "type": "uint256"
        },
        {
          "indexed": false,
          "internalType": "string",
          "name": "evidence",
          "type": "string"
        }
      ],
      "name": "DisputeEvidenceSubmitted",
      "type": "event"
    },
    {
      "anonymous": false,
      "inputs": [
        {
          "indexed": true,
          "internalType": "uint256",
          "name": "escrowId",
          "type": "uint256"
        }
      ],
      "name": "EscrowCancelled",
      "type": "event"
    },
    {
      "anonymous": false,
      "inputs": [
        {
          "indexed": true,
          "internalType": "uint256",
          "name": "escrowId",
          "type": "uint256"
        }
      ],
      "name": "EscrowCompleted",
      "type": "event"
    },
    {
      "anonymous": false,
      "inputs": [
        {
          "indexed": true,
          "internalType": "uint256",
          "name": "escrowId",
          "type": "uint256"
        },
        {
          "indexed": true,
          "internalType": "address",
          "name": "buyer",
          "type": "address"
        },
        {
          "indexed": true,
          "internalType": "address",
          "name": "seller",
          "type": "address"
        },
        {
          "indexed": false,
          "internalType": "uint256",
          "name": "amount",
          "type": "uint256"
        }
      ],
      "name": "EscrowCreated",
      "type": "event"
    },
    {
      "anonymous": false,
      "inputs": [
        {
          "indexed": true,
          "internalType": "uint256",
          "name": "escrowId",
          "type": "uint256"
        }
      ],
      "name": "EscrowDisputed",
      "type": "event"
    },
    {
      "anonymous": false,
      "inputs": [
        {
          "indexed": true,
          "internalType": "uint256",
          "name": "escrowId",
          "type": "uint256"
        }
      ],
      "name": "EscrowFunded",
      "type": "event"
    },
    {
      "anonymous": false,
      "inputs": [
        {
          "indexed": true,
          "internalType": "uint256",
          "name": "disputeId",
          "type": "uint256"
        },
        {
          "indexed": true,
          "internalType": "uint256",
          "name": "escrowId",
          "type": "uint256"
        },
        {
          "indexed": true,
          "internalType": "address",
          "name": "initiator",
          "type": "address"
        },
        {
          "indexed": false,
          "internalType": "string",
          "name": "reason",
          "type": "string"
        }
      ],
      "name": "FormalDisputeInitiated",
      "type": "event"
    },
    {
      "anonymous": false,
      "inputs": [
        {
          "indexed": true,
          "internalType": "uint256",
          "name": "disputeId",
          "type": "uint256"
        },
        {
          "indexed": true,
          "internalType": "address",
          "name": "winner",
          "type": "address"
        },
        {
          "indexed": false,
          "internalType": "string",
          "name": "resolutionNotes",
          "type": "string"
        }
      ],
      "name": "FormalDisputeResolved",
      "type": "event"
    },
    {
      "anonymous": false,
      "inputs": [
        {
          "indexed": false,
          "internalType": "uint64",
          "name": "version",
          "type": "uint64"
        }
      ],
      "name": "Initialized",
      "type": "event"
    },
    {
      "anonymous": false,
      "inputs": [
        {
          "indexed": true,
          "internalType": "uint256",
          "name": "listingId",
          "type": "uint256"
        },
        {
          "indexed": true,
          "internalType": "address",
          "name": "seller",
          "type": "address"
        },
        {
          "indexed": false,
          "internalType": "string",
          "name": "cropType",
          "type": "string"
        },
        {
          "indexed": false,
          "internalType": "uint256",
          "name": "quantity",
          "type": "uint256"
        }
      ],
      "name": "ListingCreated",
      "type": "event"
    },
    {
      "anonymous": false,
      "inputs": [
        {
          "indexed": true,
          "internalType": "uint256",
          "name": "listingId",
          "type": "uint256"
        },
        {
          "indexed": false,
          "internalType": "uint256",
          "name": "aiScore",
          "type": "uint256"
        }
      ],
      "name": "ListingUpdated",
      "type": "event"
    },
    {
      "anonymous": false,
      "inputs": [
        {
          "indexed": true,
          "internalType": "address",
          "name": "previousOwner",
          "type": "address"
        },
        {
          "indexed": true,
          "internalType": "address",
          "name": "newOwner",
          "type": "address"
        }
      ],
      "name": "OwnershipTransferred",
      "type": "event"
    },
    {
      "anonymous": false,
      "inputs": [
        {
          "indexed": false,
          "internalType": "address",
          "name": "account",
          "type": "address"
        }
      ],
      "name": "Paused",
      "type": "event"
    },
    {
      "anonymous": false,
      "inputs": [
        {
          "indexed": true,
          "internalType": "uint256",
          "name": "escrowId",
          "type": "uint256"
        },
        {
          "indexed": false,
          "internalType": "string",
          "name": "geoData",
          "type": "string"
        }
      ],
      "name": "ShipmentConfirmed",
      "type": "event"
    },
    {
      "anonymous": false,
      "inputs": [
        {
          "indexed": false,
          "internalType": "address",
          "name": "account",
          "type": "address"
        }
      ],
      "name": "Unpaused",
      "type": "event"
    },
    {
      "anonymous": false,
      "inputs": [
        {
          "indexed": true,
          "internalType": "address",
          "name": "implementation",
          "type": "address"
        }
      ],
      "name": "Upgraded",
      "type": "event"
    },
    {
      "inputs": [],
      "name": "UPGRADE_INTERFACE_VERSION",
      "outputs": [
        {
          "internalType": "string",
          "name": "",
          "type": "string"
        }
      ],
      "stateMutability": "view",
      "type": "function"
    },
    {
      "inputs": [
        {
          "internalType": "uint256",
          "name": "_listingId",
          "type": "uint256"
        },
        {
          "internalType": "bytes",
          "name": "_qualityData",
          "type": "bytes"
        }
      ],
      "name": "assessQualityWithOracle",
      "outputs": [],
      "stateMutability": "nonpayable",
      "type": "function"
    },
    {
      "inputs": [
        {
          "internalType": "uint256",
          "name": "_escrowId",
          "type": "uint256"
        }
      ],
      "name": "cancelEscrow",
      "outputs": [],
      "stateMutability": "nonpayable",
      "type": "function"
    },
    {
      "inputs": [
        {
          "internalType": "bytes",
          "name": "tradeData",
          "type": "bytes"
        }
      ],
      "name": "completeCrossChainTrade",
      "outputs": [],
      "stateMutability": "nonpayable",
      "type": "function"
    },
    {
      "inputs": [
        {
          "internalType": "uint256",
          "name": "_escrowId",
          "type": "uint256"
        }
      ],
      "name": "completeEscrow",
      "outputs": [],
      "stateMutability": "nonpayable",
      "type": "function"
    },
    {
      "inputs": [
        {
          "internalType": "uint256",
          "name": "_escrowId",
          "type": "uint256"
        },
        {
          "internalType": "string",
          "name": "_proof",
          "type": "string"
        },
        {
          "internalType": "uint256",
          "name": "_qualityScore",
          "type": "uint256"
        }
      ],
      "name": "confirmDelivery",
      "outputs": [],
      "stateMutability": "nonpayable",
      "type": "function"
    },
    {
      "inputs": [
        {
          "internalType": "uint256",
          "name": "_escrowId",
          "type": "uint256"
        },
        {
          "internalType": "string",
          "name": "_geoData",
          "type": "string"
        }
      ],
      "name": "confirmShipment",
      "outputs": [],
      "stateMutability": "nonpayable",
      "type": "function"
    },
    {
      "inputs": [
        {
          "components": [
            {
              "internalType": "string",
              "name": "cropType",
              "type": "string"
            },
            {
              "internalType": "uint256",
              "name": "quantity",
              "type": "uint256"
            },
            {
              "internalType": "uint256",
              "name": "pricePerUnit",
              "type": "uint256"
            },
            {
              "internalType": "string",
              "name": "location",
              "type": "string"
            },
            {
              "internalType": "uint256",
              "name": "harvestDate",
              "type": "uint256"
            },
            {
              "internalType": "uint256",
              "name": "expiryDate",
              "type": "uint256"
            },
            {
              "internalType": "string",
              "name": "geoData",
              "type": "string"
            }
          ],
          "internalType": "struct MarketplaceEscrow.BatchListing[]",
          "name": "_listings",
          "type": "tuple[]"
        }
      ],
      "name": "createBatchListings",
      "outputs": [
        {
          "internalType": "uint256[]",
          "name": "",
          "type": "uint256[]"
        }
      ],
      "stateMutability": "nonpayable",
      "type": "function"
    },
    {
      "inputs": [
        {
          "internalType": "uint256",
          "name": "targetChainId",
          "type": "uint256"
        },
        {
          "internalType": "string",
          "name": "_cropType",
          "type": "string"
        },
        {
          "internalType": "uint256",
          "name": "_quantity",
          "type": "uint256"
        },
        {
          "internalType": "uint256",
          "name": "_pricePerUnit",
          "type": "uint256"
        },
        {
          "internalType": "address",
          "name": "_paymentToken",
          "type": "address"
        }
      ],
      "name": "createCrossChainListing",
      "outputs": [
        {
          "internalType": "uint256",
          "name": "",
          "type": "uint256"
        }
      ],
      "stateMutability": "nonpayable",
      "type": "function"
    },
    {
      "inputs": [
        {
          "internalType": "address",
          "name": "_seller",
          "type": "address"
        },
        {
          "internalType": "uint256",
          "name": "_amount",
          "type": "uint256"
        },
        {
          "internalType": "address",
          "name": "_token",
          "type": "address"
        },
        {
          "internalType": "uint256",
          "name": "_listingId",
          "type": "uint256"
        },
        {
          "internalType": "string",
          "name": "_geoLocation",
          "type": "string"
        }
      ],
      "name": "createEscrow",
      "outputs": [
        {
          "internalType": "uint256",
          "name": "",
          "type": "uint256"
        }
      ],
      "stateMutability": "nonpayable",
      "type": "function"
    },
    {
      "inputs": [
        {
          "internalType": "string",
          "name": "_cropType",
          "type": "string"
        },
        {
          "internalType": "uint256",
          "name": "_quantity",
          "type": "uint256"
        },
        {
          "internalType": "uint256",
          "name": "_pricePerUnit",
          "type": "uint256"
        },
        {
          "internalType": "string",
          "name": "_location",
          "type": "string"
        },
        {
          "internalType": "uint256",
          "name": "_harvestDate",
          "type": "uint256"
        },
        {
          "internalType": "uint256",
          "name": "_expiryDate",
          "type": "uint256"
        },
        {
          "internalType": "string",
          "name": "_geoData",
          "type": "string"
        }
      ],
      "name": "createListing",
      "outputs": [
        {
          "internalType": "uint256",
          "name": "",
          "type": "uint256"
        }
      ],
      "stateMutability": "nonpayable",
      "type": "function"
    },
    {
      "inputs": [],
      "name": "crossChainBridge",
      "outputs": [
        {
          "internalType": "contract ICrossChainBridge",
          "name": "",
          "type": "address"
        }
      ],
      "stateMutability": "view",
      "type": "function"
    },
    {
      "inputs": [
        {
          "internalType": "uint256",
          "name": "",
          "type": "uint256"
        }
      ],
      "name": "crossChainEscrows",
      "outputs": [
        {
          "internalType": "uint256",
          "name": "id",
          "type": "uint256"
        },
        {
          "internalType": "uint256",
          "name": "sourceChainId",
          "type": "uint256"
        },
        {
          "internalType": "uint256",
          "name": "targetChainId",
          "type": "uint256"
        },
        {
          "internalType": "address",
          "name": "buyer",
          "type": "address"
        },
        {
          "internalType": "address",
          "name": "seller",
          "type": "address"
        },
        {
          "internalType": "uint256",
          "name": "amount",
          "type": "uint256"
        },
        {
          "internalType": "address",
          "name": "token",
          "type": "address"
        },
        {
          "internalType": "uint256",
          "name": "listingId",
          "type": "uint256"
        },
        {
          "internalType": "enum MarketplaceEscrow.EscrowStatus",
          "name": "status",
          "type": "uint8"
        },
        {
          "internalType": "bytes32",
          "name": "bridgeTxHash",
          "type": "bytes32"
        }
      ],
      "stateMutability": "view",
      "type": "function"
    },
    {
      "inputs": [
        {
          "internalType": "uint256",
          "name": "",
          "type": "uint256"
        }
      ],
      "name": "crossChainListings",
      "outputs": [
        {
          "internalType": "uint256",
          "name": "id",
          "type": "uint256"
        },
        {
          "internalType": "uint256",
          "name": "sourceChainId",
          "type": "uint256"
        },
        {
          "internalType": "address",
          "name": "sourceContract",
          "type": "address"
        },
        {
          "internalType": "uint256",
          "name": "sourceListingId",
          "type": "uint256"
        },
        {
          "internalType": "address",
          "name": "seller",
          "type": "address"
        },
        {
          "internalType": "string",
          "name": "cropType",
          "type": "string"
        },
        {
          "internalType": "uint256",
          "name": "quantity",
          "type": "uint256"
        },
        {
          "internalType": "uint256",
          "name": "pricePerUnit",
          "type": "uint256"
        },
        {
          "internalType": "address",
          "name": "paymentToken",
          "type": "address"
        },
        {
          "internalType": "bool",
          "name": "active",
          "type": "bool"
        },
        {
          "internalType": "uint256",
          "name": "createdAt",
          "type": "uint256"
        }
      ],
      "stateMutability": "view",
      "type": "function"
    },
    {
      "inputs": [
        {
          "internalType": "uint256",
          "name": "_listingId",
          "type": "uint256"
        }
      ],
      "name": "deactivateListing",
      "outputs": [],
      "stateMutability": "nonpayable",
      "type": "function"
    },
    {
      "inputs": [],
      "name": "deliveryOracle",
      "outputs": [
        {
          "internalType": "contract IDeliveryOracle",
          "name": "",
          "type": "address"
        }
      ],
      "stateMutability": "view",
      "type": "function"
    },
    {
      "inputs": [],
      "name": "disputePeriod",
      "outputs": [
        {
          "internalType": "uint256",
          "name": "",
          "type": "uint256"
        }
      ],
      "stateMutability": "view",
      "type": "function"
    },
    {
      "inputs": [
        {
          "internalType": "uint256",
          "name": "",
          "type": "uint256"
        }
      ],
      "name": "disputes",
      "outputs": [
        {
          "internalType": "uint256",
          "name": "escrowId",
          "type": "uint256"
        },
        {
          "internalType": "address",
          "name": "initiator",
          "type": "address"
        },
        {
          "internalType": "string",
          "name": "reason",
          "type": "string"
        },
        {
          "internalType": "uint256",
          "name": "evidenceCount",
          "type": "uint256"
        },
        {
          "internalType": "uint256",
          "name": "resolutionDeadline",
          "type": "uint256"
        },
        {
          "internalType": "bool",
          "name": "resolved",
          "type": "bool"
        },
        {
          "internalType": "address",
          "name": "winner",
          "type": "address"
        }
      ],
      "stateMutability": "view",
      "type": "function"
    },
    {
      "inputs": [
        {
          "internalType": "uint256",
          "name": "",
          "type": "uint256"
        }
      ],
      "name": "escrows",
      "outputs": [
        {
          "internalType": "uint256",
          "name": "id",
          "type": "uint256"
        },
        {
          "internalType": "address",
          "name": "buyer",
          "type": "address"
        },
        {
          "internalType": "address",
          "name": "seller",
          "type": "address"
        },
        {
          "internalType": "uint256",
          "name": "amount",
          "type": "uint256"
        },
        {
          "internalType": "address",
          "name": "token",
          "type": "address"
        },
        {
          "internalType": "enum MarketplaceEscrow.EscrowStatus",
          "name": "status",
          "type": "uint8"
        },
        {
          "internalType": "uint256",
          "name": "createdAt",
          "type": "uint256"
        },
        {
          "internalType": "uint256",
          "name": "shippedAt",
          "type": "uint256"
        },
        {
          "internalType": "uint256",
          "name": "deliveredAt",
          "type": "uint256"
        },
        {
          "internalType": "string",
          "name": "deliveryProof",
          "type": "string"
        },
        {
          "internalType": "string",
          "name": "geoLocation",
          "type": "string"
        },
        {
          "internalType": "uint256",
          "name": "qualityScore",
          "type": "uint256"
        },
        {
          "internalType": "bool",
          "name": "buyerConfirmed",
          "type": "bool"
        },
        {
          "internalType": "bool",
          "name": "sellerConfirmed",
          "type": "bool"
        },
        {
          "internalType": "uint256",
          "name": "disputeDeadline",
          "type": "uint256"
        }
      ],
      "stateMutability": "view",
      "type": "function"
    },
    {
      "inputs": [],
      "name": "feeCollector",
      "outputs": [
        {
          "internalType": "address",
          "name": "",
          "type": "address"
        }
      ],
      "stateMutability": "view",
      "type": "function"
    },
    {
      "inputs": [
        {
          "internalType": "uint256",
          "name": "_escrowId",
          "type": "uint256"
        }
      ],
      "name": "fundEscrow",
      "outputs": [],
      "stateMutability": "nonpayable",
      "type": "function"
    },
    {
      "inputs": [
        {
          "internalType": "uint256",
          "name": "_offset",
          "type": "uint256"
        },
        {
          "internalType": "uint256",
          "name": "_limit",
          "type": "uint256"
        }
      ],
      "name": "getActiveListings",
      "outputs": [
        {
          "components": [
            {
              "internalType": "uint256",
              "name": "id",
              "type": "uint256"
            },
            {
              "internalType": "address",
              "name": "seller",
              "type": "address"
            },
            {
              "internalType": "string",
              "name": "cropType",
              "type": "string"
            },
            {
              "internalType": "uint256",
              "name": "quantity",
              "type": "uint256"
            },
            {
              "internalType": "uint256",
              "name": "pricePerUnit",
              "type": "uint256"
            },
            {
              "internalType": "string",
              "name": "location",
              "type": "string"
            },
            {
              "internalType": "uint256",
              "name": "harvestDate",
              "type": "uint256"
            },
            {
              "internalType": "uint256",
              "name": "expiryDate",
              "type": "uint256"
            },
            {
              "internalType": "bool",
              "name": "active",
              "type": "bool"
            },
            {
              "internalType": "uint256",
              "name": "aiRecommendationScore",
              "type": "uint256"
            },
            {
              "internalType": "string",
              "name": "geoData",
              "type": "string"
            }
          ],
          "internalType": "struct MarketplaceEscrow.Listing[]",
          "name": "",
          "type": "tuple[]"
        }
      ],
      "stateMutability": "view",
      "type": "function"
    },
    {
      "inputs": [
        {
          "internalType": "uint256",
          "name": "_escrowId",
          "type": "uint256"
        }
      ],
      "name": "getEscrow",
      "outputs": [
        {
          "components": [
            {
              "internalType": "uint256",
              "name": "id",
              "type": "uint256"
            },
            {
              "internalType": "address",
              "name": "buyer",
              "type": "address"
            },
            {
              "internalType": "address",
              "name": "seller",
              "type": "address"
            },
            {
              "internalType": "uint256",
              "name": "amount",
              "type": "uint256"
            },
            {
              "internalType": "address",
              "name": "token",
              "type": "address"
            },
            {
              "internalType": "enum MarketplaceEscrow.EscrowStatus",
              "name": "status",
              "type": "uint8"
            },
            {
              "internalType": "uint256",
              "name": "createdAt",
              "type": "uint256"
            },
            {
              "internalType": "uint256",
              "name": "shippedAt",
              "type": "uint256"
            },
            {
              "internalType": "uint256",
              "name": "deliveredAt",
              "type": "uint256"
            },
            {
              "internalType": "string",
              "name": "deliveryProof",
              "type": "string"
            },
            {
              "internalType": "string",
              "name": "geoLocation",
              "type": "string"
            },
            {
              "internalType": "uint256",
              "name": "qualityScore",
              "type": "uint256"
            },
            {
              "internalType": "bool",
              "name": "buyerConfirmed",
              "type": "bool"
            },
            {
              "internalType": "bool",
              "name": "sellerConfirmed",
              "type": "bool"
            },
            {
              "internalType": "uint256",
              "name": "disputeDeadline",
              "type": "uint256"
            }
          ],
          "internalType": "struct MarketplaceEscrow.Escrow",
          "name": "",
          "type": "tuple"
        }
      ],
      "stateMutability": "view",
      "type": "function"
    },
    {
      "inputs": [
        {
          "internalType": "uint256",
          "name": "_listingId",
          "type": "uint256"
        }
      ],
      "name": "getListing",
      "outputs": [
        {
          "components": [
            {
              "internalType": "uint256",
              "name": "id",
              "type": "uint256"
            },
            {
              "internalType": "address",
              "name": "seller",
              "type": "address"
            },
            {
              "internalType": "string",
              "name": "cropType",
              "type": "string"
            },
            {
              "internalType": "uint256",
              "name": "quantity",
              "type": "uint256"
            },
            {
              "internalType": "uint256",
              "name": "pricePerUnit",
              "type": "uint256"
            },
            {
              "internalType": "string",
              "name": "location",
              "type": "string"
            },
            {
              "internalType": "uint256",
              "name": "harvestDate",
              "type": "uint256"
            },
            {
              "internalType": "uint256",
              "name": "expiryDate",
              "type": "uint256"
            },
            {
              "internalType": "bool",
              "name": "active",
              "type": "bool"
            },
            {
              "internalType": "uint256",
              "name": "aiRecommendationScore",
              "type": "uint256"
            },
            {
              "internalType": "string",
              "name": "geoData",
              "type": "string"
            }
          ],
          "internalType": "struct MarketplaceEscrow.Listing",
          "name": "",
          "type": "tuple"
        }
      ],
      "stateMutability": "view",
      "type": "function"
    },
    {
      "inputs": [],
      "name": "identityRegistry",
      "outputs": [
        {
          "internalType": "contract IdentityRegistry",
          "name": "",
          "type": "address"
        }
      ],
      "stateMutability": "view",
      "type": "function"
    },
    {
      "inputs": [
        {
          "internalType": "address",
          "name": "_identityRegistry",
          "type": "address"
        },
        {
          "internalType": "address",
          "name": "_deliveryOracle",
          "type": "address"
        },
        {
          "internalType": "address",
          "name": "_qualityOracle",
          "type": "address"
        },
        {
          "internalType": "address",
          "name": "_feeCollector",
          "type": "address"
        },
        {
          "internalType": "address",
          "name": "_crossChainBridge",
          "type": "address"
        }
      ],
      "name": "initialize",
      "outputs": [],
      "stateMutability": "nonpayable",
      "type": "function"
    },
    {
      "inputs": [
        {
          "internalType": "uint256",
          "name": "crossChainListingId",
          "type": "uint256"
        },
        {
          "internalType": "uint256",
          "name": "targetChainId",
          "type": "uint256"
        },
        {
          "internalType": "uint256",
          "name": "amount",
          "type": "uint256"
        }
      ],
      "name": "initiateCrossChainEscrow",
      "outputs": [
        {
          "internalType": "uint256",
          "name": "",
          "type": "uint256"
        }
      ],
      "stateMutability": "payable",
      "type": "function"
    },
    {
      "inputs": [
        {
          "internalType": "uint256",
          "name": "_escrowId",
          "type": "uint256"
        },
        {
          "internalType": "string",
          "name": "_reason",
          "type": "string"
        },
        {
          "internalType": "string",
          "name": "_initialEvidence",
          "type": "string"
        }
      ],
      "name": "initiateFormalDispute",
      "outputs": [
        {
          "internalType": "uint256",
          "name": "",
          "type": "uint256"
        }
      ],
      "stateMutability": "nonpayable",
      "type": "function"
    },
    {
      "inputs": [
        {
          "internalType": "uint256",
          "name": "",
          "type": "uint256"
        }
      ],
      "name": "listings",
      "outputs": [
        {
          "internalType": "uint256",
          "name": "id",
          "type": "uint256"
        },
        {
          "internalType": "address",
          "name": "seller",
          "type": "address"
        },
        {
          "internalType": "string",
          "name": "cropType",
          "type": "string"
        },
        {
          "internalType": "uint256",
          "name": "quantity",
          "type": "uint256"
        },
        {
          "internalType": "uint256",
          "name": "pricePerUnit",
          "type": "uint256"
        },
        {
          "internalType": "string",
          "name": "location",
          "type": "string"
        },
        {
          "internalType": "uint256",
          "name": "harvestDate",
          "type": "uint256"
        },
        {
          "internalType": "uint256",
          "name": "expiryDate",
          "type": "uint256"
        },
        {
          "internalType": "bool",
          "name": "active",
          "type": "bool"
        },
        {
          "internalType": "uint256",
          "name": "aiRecommendationScore",
          "type": "uint256"
        },
        {
          "internalType": "string",
          "name": "geoData",
          "type": "string"
        }
      ],
      "stateMutability": "view",
      "type": "function"
    },
    {
      "inputs": [],
      "name": "nextCrossChainEscrowId",
      "outputs": [
        {
          "internalType": "uint256",
          "name": "",
          "type": "uint256"
        }
      ],
      "stateMutability": "view",
      "type": "function"
    },
    {
      "inputs": [],
      "name": "nextCrossChainListingId",
      "outputs": [
        {
          "internalType": "uint256",
          "name": "",
          "type": "uint256"
        }
      ],
      "stateMutability": "view",
      "type": "function"
    },
    {
      "inputs": [],
      "name": "nextDisputeId",
      "outputs": [
        {
          "internalType": "uint256",
          "name": "",
          "type": "uint256"
        }
      ],
      "stateMutability": "view",
      "type": "function"
    },
    {
      "inputs": [],
      "name": "nextEscrowId",
      "outputs": [
        {
          "internalType": "uint256",
          "name": "",
          "type": "uint256"
        }
      ],
      "stateMutability": "view",
      "type": "function"
    },
    {
      "inputs": [],
      "name": "nextListingId",
      "outputs": [
        {
          "internalType": "uint256",
          "name": "",
          "type": "uint256"
        }
      ],
      "stateMutability": "view",
      "type": "function"
    },
    {
      "inputs": [],
      "name": "owner",
      "outputs": [
        {
          "internalType": "address",
          "name": "",
          "type": "address"
        }
      ],
      "stateMutability": "view",
      "type": "function"
    },
    {
      "inputs": [],
      "name": "pause",
      "outputs": [],
      "stateMutability": "nonpayable",
      "type": "function"
    },
    {
      "inputs": [],
      "name": "paused",
      "outputs": [
        {
          "internalType": "bool",
          "name": "",
          "type": "bool"
        }
      ],
      "stateMutability": "view",
      "type": "function"
    },
    {
      "inputs": [],
      "name": "platformFee",
      "outputs": [
        {
          "internalType": "uint256",
          "name": "",
          "type": "uint256"
        }
      ],
      "stateMutability": "view",
      "type": "function"
    },
    {
      "inputs": [],
      "name": "proxiableUUID",
      "outputs": [
        {
          "internalType": "bytes32",
          "name": "",
          "type": "bytes32"
        }
      ],
      "stateMutability": "view",
      "type": "function"
    },
    {
      "inputs": [],
      "name": "qualityOracle",
      "outputs": [
        {
          "internalType": "contract IQualityOracle",
          "name": "",
          "type": "address"
        }
      ],
      "stateMutability": "view",
      "type": "function"
    },
    {
      "inputs": [
        {
          "internalType": "uint256",
          "name": "_escrowId",
          "type": "uint256"
        }
      ],
      "name": "raiseDispute",
      "outputs": [],
      "stateMutability": "nonpayable",
      "type": "function"
    },
    {
      "inputs": [],
      "name": "renounceOwnership",
      "outputs": [],
      "stateMutability": "nonpayable",
      "type": "function"
    },
    {
      "inputs": [
        {
          "internalType": "uint256",
          "name": "_escrowId",
          "type": "uint256"
        },
        {
          "internalType": "bool",
          "name": "_refundBuyer",
          "type": "bool"
        }
      ],
      "name": "resolveDispute",
      "outputs": [],
      "stateMutability": "nonpayable",
      "type": "function"
    },
    {
      "inputs": [
        {
          "internalType": "uint256",
          "name": "_disputeId",
          "type": "uint256"
        },
        {
          "internalType": "bool",
          "name": "_refundBuyer",
          "type": "bool"
        },
        {
          "internalType": "string",
          "name": "_resolutionNotes",
          "type": "string"
        }
      ],
      "name": "resolveFormalDispute",
      "outputs": [],
      "stateMutability": "nonpayable",
      "type": "function"
    },
    {
      "inputs": [
        {
          "internalType": "address",
          "name": "_bridge",
          "type": "address"
        }
      ],
      "name": "setCrossChainBridge",
      "outputs": [],
      "stateMutability": "nonpayable",
      "type": "function"
    },
    {
      "inputs": [
        {
          "internalType": "uint256",
          "name": "_period",
          "type": "uint256"
        }
      ],
      "name": "setDisputePeriod",
      "outputs": [],
      "stateMutability": "nonpayable",
      "type": "function"
    },
    {
      "inputs": [
        {
          "internalType": "address",
          "name": "_collector",
          "type": "address"
        }
      ],
      "name": "setFeeCollector",
      "outputs": [],
      "stateMutability": "nonpayable",
      "type": "function"
    },
    {
      "inputs": [
        {
          "internalType": "uint256",
          "name": "_fee",
          "type": "uint256"
        }
      ],
      "name": "setPlatformFee",
      "outputs": [],
      "stateMutability": "nonpayable",
      "type": "function"
    },
    {
      "inputs": [
        {
          "internalType": "uint256",
          "name": "_disputeId",
          "type": "uint256"
        },
        {
          "internalType": "string",
          "name": "_evidence",
          "type": "string"
        }
      ],
      "name": "submitDisputeEvidence",
      "outputs": [],
      "stateMutability": "nonpayable",
      "type": "function"
    },
    {
      "inputs": [
        {
          "internalType": "address",
          "name": "newOwner",
          "type": "address"
        }
      ],
      "name": "transferOwnership",
      "outputs": [],
      "stateMutability": "nonpayable",
      "type": "function"
    },
    {
      "inputs": [],
      "name": "unpause",
      "outputs": [],
      "stateMutability": "nonpayable",
      "type": "function"
    },
    {
      "inputs": [
        {
          "internalType": "uint256",
          "name": "_listingId",
          "type": "uint256"
        },
        {
          "internalType": "uint256",
          "name": "_aiScore",
          "type": "uint256"
        }
      ],
      "name": "updateListingAIScore",
      "outputs": [],
      "stateMutability": "nonpayable",
      "type": "function"
    },
    {
      "inputs": [
        {
          "internalType": "address",
          "name": "newImplementation",
          "type": "address"
        },
        {
          "internalType": "bytes",
          "name": "data",
          "type": "bytes"
        }
      ],
      "name": "upgradeToAndCall",
      "outputs": [],
      "stateMutability": "payable",
      "type": "function"
    },
    {
      "inputs": [
        {
          "internalType": "uint256",
          "name": "_escrowId",
          "type": "uint256"
        },
        {
          "internalType": "bytes",
          "name": "_proof",
          "type": "bytes"
        }
      ],
      "name": "verifyDeliveryWithOracle",
      "outputs": [],
      "stateMutability": "nonpayable",
      "type": "function"
    }
  ],
  "bytecode": "0x60a08060405234602957306080526163fa908161002f8239608051818181614b120152614bca0152f35b600080fdfe6080604052600436101561001257600080fd5b60003560e01c8063012f52ee146157695780630db399341461574b578063107a274a146156f257806312e8e2c314615684578063134e18f41461565d5780631459457a1461538c57806321c8fd631461531d57806326232a2e146152ff5780632cef65751461509157806334b25ee214614f715780633b8d915f14614eef5780633f4ba83a14614e2f5780634f1ef28614614b8c57806352d1902d14614af757806353b16677146148a6578063564a565d1461480b5780635bf31d4d146147ed5780635c975abb146147ab578063715018a6146147365780637a446ecb146144335780637d19e596146141e35780637f0ebb03146141805780638456cb59146140bd57806384599baf14613a9157806389cb29dd14613a735780638da5cb5b14613a3f57806398cfbf20146133005780639e1575b1146132e2578063a42dce80146132a2578063a47523271461327b578063a5c1674e146131b7578063a83ba53e14613196578063aaccf1ec14613178578063ad1cfb4b14613076578063ad3cb1cc14613017578063ade039af14612f43578063b3e2656614612f1c578063b8917b3b14612ef5578063c128b23114612c87578063c415b95c14612c60578063c7047a35146126bd578063c9c31af514612522578063cb0cdafb1461212e578063cb26446d14612110578063d24a0e9014611ce5578063d3bada9914611a6c578063d748dceb146119b6578063de74e57b146118c6578063df3e0a1d146116b6578063e0182436146114c1578063e05f0be914610a3a578063e0cb23b914610715578063efab85641461029e5763f2fde38b1461026e57600080fd5b346102995760203660031901126102995761029761028a615abd565b61029261612d565b616092565b005b600080fd5b346102995760a03660031901126102995760243567ffffffffffffffff8111610299576102cf903690600401615b31565b6064356102da615ae9565b90602460206001600160a01b036000541660405192838092637b1d63b160e11b82523360048301525afa90811561059a576000916106e6575b50156106a257600e549161032683615e1c565b600e55604051610335816158ca565b8381526020810190468252604081013081526001600160a01b03606083016000815260808401903382528260a08601948b865260443560c08801528960e08801528189166101008801526001610120880152426101408801528a600052600c602052604060002097875189555160018901555116836002880191166001600160a01b031982541617905551600386015551166001600160a01b036004850191166001600160a01b03198254161790555180519067ffffffffffffffff821161068c576104046005850154615890565b601f8111610641575b50602090601f83116001146105b157610525956104d69560096101406104f8978760009e988f986001600160a01b039860209f9a926105a6575b50508160011b916000199060031b1c19161760058501555b60c0810151600685015560e0810151600785015560088401868061010084015116166001600160a01b0319825416178155610120820151151560ff60a01b1960ff60a01b83549260a01b16911617905501519101556040519586948a8a87015233604087015260c0606087015260e08601906159d7565b92604435608086015260a08501521660c083015203601f198101835282615904565b6001600160a01b036010541690604051958680948193634e20205d60e11b8352306004356004850161600e565b03925af1801561059a57610568575b60405160209133600435827f5fc2b1e07882a5d117d495dde3f0edd61820a491f610c3e225c3a5ad6e576092600080a48152f35b6020823d602011610592575b8161058160209383615904565b810103126102995760209150610534565b3d9150610574565b6040513d6000823e3d90fd5b015190503880610447565b9060058501600052806000209160005b601f19851681106106295750956104d69560096101406104f89760018860009f99986001600160a01b039860209f9a9e6105259f601f19811610610610575b505050811b01600585015561045f565b015160001960f88460031b161c19169055388080610600565b919260206001819286850151815501940192016105c1565b600585016000526020600020601f840160051c81019160208510610682575b601f0160051c01905b818110610676575061040d565b60008155600101610669565b9091508190610660565b634e487b7160e01b600052604160045260246000fd5b606460405162461bcd60e51b815260206004820152601560248201527f4964656e74697479206e6f7420766572696669656400000000000000000000006044820152fd5b610708915060203d60201161070e575b6107008183615904565b810190615d57565b84610313565b503d6106f6565b3461029957606036600319011261029957600435610731615ba6565b9060443567ffffffffffffffff811161029957610752903690600401615b31565b9161075b61612d565b81600052600760205260406000206006810190815461077d60ff821615616033565b600582015442116109f657600160ff198216811784559084156109a8578254600052600360205274ffffffffffffffffffffffffffffffffffffffffff1974ffffffffffffffffffffffffffffffffffffffff006001600160a01b038460406000200154165b60081b16911617178255546107f661612d565b8060005260036020526040600020600481019081549060ff8260a01c1660078110156109925760050361094e577f116cb6591d88cd94b850ef3e38a8943a6ffc59cd70bc43caccfc4a24bba0b63a95156108d45761087491506001600160a01b038354169060036001600160a01b036001830154169101549161617c565b600160a21b60ff60a01b198254161790556108cf6001600160a01b036040519384937f9285bd636dda01bef18996aa38303bb742f6c67a6941646dddb17630cb492c2e600080a25460081c16956020835260208301906159d7565b0390a3005b80600361090e920154926001600160a01b038060026109036127106108fb6009548a615c94565b048098615ca7565b94015416911661617c565b8061091a575b50610874565b610948906001600160a01b038354166001600160a01b036000805160206163a583398151915254169061617c565b86610914565b606460405162461bcd60e51b815260206004820152601360248201527f457363726f77206e6f74206469737075746564000000000000000000000000006044820152fd5b634e487b7160e01b600052602160045260246000fd5b8254600052600360205274ffffffffffffffffffffffffffffffffffffffffff1974ffffffffffffffffffffffffffffffffffffffff006001600160a01b03600260406000200154166107e3565b606460405162461bcd60e51b815260206004820152601a60248201527f5265736f6c7574696f6e20646561646c696e65207061737365640000000000006044820152fd5b346102995760203660031901126102995760043567ffffffffffffffff8111610299573660238201121561029957806004013567ffffffffffffffff8111610299578101366024820111610299576001600160a01b0360105416330361147d5760e0908290031261029957602481013590610ab76064820161607e565b91610ac46084830161607e565b90610ad160c4840161607e565b9060018103610ff75750509091506040908151610aee8382615904565b600781527f6272696467656400000000000000000000000000000000000000000000000000602082015260065492610b2584615e1c565b6006558051610b33816158ca565b84815260208101906001600160a01b03851682528281019084825286606082019360a48a013585526080830193600085526020958695885190610b768883615904565b6000825260a0870191825260c08701926000845260e088019460008652610100890196600188526101208a019860008a528d519c610bb4908e615904565b60008d526101408b019c8d5260005260048b528c60002099518a55516001600160a01b031660018a01906001600160a01b031681546001600160a01b03191617905560028901905180519067ffffffffffffffff821161068c5781908c610c1b8554615890565b601f8111610fa3575b50508c90601f8311600114610f3d57600092610f32575b50508160011b916000199060031b1c19161790555b516003880155516004870155518051600587019167ffffffffffffffff821161068c57610c7d8354615890565b601f8111610eec575b508890601f8311600114610e7a579180610ce4969492600a9a99989694600092610e6f575b50508160011b916000199060031b1c19161790555b516006860155516007850155511515600884019060ff801983541691151516179055565b5160098201550191519081519167ffffffffffffffff831161068c57610d0a8454615890565b601f8111610e29575b5081601f8411600114610d8e5750936108cf93836001600160a01b03979460a4947f6b7a3194eaddce2be5200d10785a15a5cd14a78b827cf902f4d23c35e6bd73f89a98600092610d83575b50508160011b916000199060031b1c19161790555b51948594169701359083615f36565b015190508c80610d5f565b9190601f1984168560005283600020936000905b828210610e115750508460a4947f6b7a3194eaddce2be5200d10785a15a5cd14a78b827cf902f4d23c35e6bd73f89a98946108cf98946001600160a01b039b9860019510610df8575b505050811b019055610d74565b015160001960f88460031b161c191690558c8080610deb565b80600186978294978701518155019601940190610da2565b8460005282600020601f850160051c810191848610610e65575b601f0160051c01905b818110610e595750610d13565b60008155600101610e4c565b9091508190610e43565b015190503880610cab565b90601f19831691846000528a6000209260005b8c828210610ed6575050926001928592600a9c9b9a9896610ce49a989610610ebd575b505050811b019055610cc0565b015160001960f88460031b161c19169055388080610eb0565b6001859682939686015181550195019301610e8d565b8360005289600020601f840160051c8101918b8510610f28575b601f0160051c01905b818110610f1c5750610c86565b60008155600101610f0f565b9091508190610f06565b015190503880610c3b565b60008581528e81209350601f198516908f5b828210610f8c575050908460019594939210610f73575b505050811b019055610c50565b015160001960f88460031b161c19169055388080610f66565b60018596829396860151815501950193018f610f4f565b90919250846000528160002090601f850160051c8201928510610fed575b90601f859493920160051c01905b818110610fde578e9150610c24565b60008155849350600101610fcf565b9091508190610fc1565b60021461100057005b6005549161100d83615e1c565b6005556001600160a01b0360405192611025846158e7565b8484528187166020850152818316604085015260a48601356060850152166080830152600160a08301524260c0830152600060e083015260006101008301526020916040516110748482615904565b6000815261012082015260405161108b8482615904565b6000815261014082015260006101608201526101808101600081526101a0820190600082526101c0830191600083528660005260038652604060002093805185556001600160a01b036020820151166001600160a01b036001870191166001600160a01b03198254161790556001600160a01b036040820151166001600160a01b036002870191166001600160a01b031982541617905560608101516003860155600485016001600160a01b0380608084015116166001600160a01b031982541617815560a082015160078110156109925761116691615c71565b60c0810151600586015560e0810151600686015561010081015160078601556008850161012082015180519067ffffffffffffffff821161068c5781906111ad8454615890565b601f811161142c575b508a90601f83116001146113c7576000926113bc575b50508160011b916000199060031b1c19161790555b6009850161014082015180519067ffffffffffffffff821161068c576112078354615890565b601f8111611376575b508990601f83116001146112d55794610160600c956001600160a01b039a9795856112b5967f9405ad0a6208539879349284d71265479b1623846f70303da1f9890d6e8c10a79f9e9b968e9d996000926112ca575b50508160011b916000199060031b1c19161790555b0151600a87015561129e600b870192511515839060ff801983541691151516179055565b51815461ff00191690151560081b61ff0016179055565b5191015560a4604051970135875216951693a4005b015190503880611265565b90601f19831691846000528b6000209260005b81811061135f5750956001600160a01b039a9792956001867f9405ad0a6208539879349284d71265479b1623846f70303da1f9890d6e8c10a79f9e9b968e9d99610160966112b59a600c9d10611346575b505050811b01905561127a565b015160001960f88460031b161c19169055388080611339565b92938d6001819287860151815501950193016112e8565b836000528a600020601f840160051c8101918c85106113b2575b601f0160051c01905b8181106113a65750611210565b60008155600101611399565b9091508190611390565b015190508d806111cc565b60008581528c81209350601f198516905b8d8282106114165750509084600195949392106113fd575b505050811b0190556111e1565b015160001960f88460031b161c191690558d80806113f0565b60018596829396860151815501950193016113d8565b909150836000528a600020601f840160051c8101918c8510611473575b90601f859493920160051c01905b81811061146457506111b6565b60008155849350600101611457565b9091508190611449565b606460405162461bcd60e51b815260206004820152601460248201527f4f6e6c79206272696467652063616e2063616c6c0000000000000000000000006044820152fd5b34610299576020366003190112610299576004356114dd6161d1565b80600052600360205260406000206001600160a01b036001820154169081331480156116a0575b801561167f575b1561163b57600481019182549060ff8260a01c166007811015806109925760048214158061162d575b156115e95761099257600181149081156115de575b506115bf575b5050507406000000000000000000000000000000000000000060ff60a01b198254161790557f0d977c6b1a383ac5ce532b4a668d0ef9ad38478e1a5ff28abb221f4b682b2643600080a260017f9b779b17422d0df92223018b32b4d1fa46e071723d6817e2486d003becc55f0055005b6001600160a01b0360036115d6940154921661617c565b82808061154f565b600291501486611549565b606460405162461bcd60e51b815260206004820152600d60248201527f43616e6e6f742063616e63656c000000000000000000000000000000000000006044820152fd5b505060006005821415611534565b606460405162461bcd60e51b815260206004820152601860248201527f4e6f7420617574686f72697a656420746f2063616e63656c00000000000000006044820152fd5b506001600160a01b036000805160206163a58339815191525416331461150b565b506001600160a01b036002820154163314611504565b34610299576020366003190112610299576004356116d26161d1565b8060005260036020526040600020600481019081549160ff8360a01c16600781101561099257600303611882576001600160a01b0360028301541680330361183e57600c8301544211156117fa57611755600b946003850154926001600160a01b0361174e61271061174660095488615c94565b048096615ca7565b921661617c565b806117c6575b50805460ff60a01b1916600160a21b17905501805461ff0019166101001790557f9285bd636dda01bef18996aa38303bb742f6c67a6941646dddb17630cb492c2e600080a260017f9b779b17422d0df92223018b32b4d1fa46e071723d6817e2486d003becc55f0055005b6117f4906001600160a01b038354166001600160a01b036000805160206163a583398151915254169061617c565b8461175b565b606460405162461bcd60e51b815260206004820152601860248201527f4469737075746520706572696f64206e6f7420656e64656400000000000000006044820152fd5b606460405162461bcd60e51b815260206004820152601860248201527f4f6e6c792073656c6c65722063616e20636f6d706c65746500000000000000006044820152fd5b606460405162461bcd60e51b815260206004820152601660248201527f44656c6976657279206e6f7420636f6e6669726d6564000000000000000000006044820152fd5b346102995760203660031901126102995760043560005260046020526040600020805460018201546001600160a01b0316916002810161190590615926565b9060038101549060048101546005820161191e90615926565b92600683015493600784015491600885015460ff1693600986015495600a0161194690615926565b976040519a8b9a8b5260208b015260408a0161016090526101608a0161196b916159d7565b9160608a0152608089015287810360a0890152611987916159d7565b9360c087015260e086015215156101008501526101208401528281036101408401526119b2916159d7565b0390f35b3461029957602036600319011261029957600435600052600d6020526101406040600020805490611a6460018201549160028101546001600160a01b036003830154166001600160a01b036004840154166005840154906001600160a01b0360068601541692600786015494600960ff600889015416970154986040519a8b5260208b015260408a01526060890152608088015260a087015260c086015260e08501526101008401906159ca565b610120820152f35b3461029957611a7a36615b76565b908060005260076020526040600020611a9a60ff60068301541615616033565b60058101544211611c7b5780546000526003602052611ad560406000206001600160a01b036001820154163314908115611c64575b50615cb4565b60038101600481549283600052016020526040600020845167ffffffffffffffff811161068c57611b068254615890565b601f8111611c1c575b506020601f8211600114611b945790807f686ab94578a695671340d8351793c5ceb7a1441f3a491efe012aeba609cf8fca95949392600091611b89575b508160011b916000199060031b1c19161790555b611b6a8154615e1c565b905560405190815260406020820152806108cf339560408301906159d7565b905087015188611b4c565b601f1982169083600052806000209160005b818110611c0457509183917f686ab94578a695671340d8351793c5ceb7a1441f3a491efe012aeba609cf8fca9796959460019410611beb575b5050811b019055611b60565b89015160001960f88460031b161c191690558880611bdf565b9192602060018192868d015181550194019201611ba6565b826000526020600020601f830160051c81019160208410611c5a575b601f0160051c01905b818110611c4e5750611b0f565b60008155600101611c41565b9091508190611c38565b6001600160a01b0391506002015416331485611acf565b608460405162461bcd60e51b815260206004820152602260248201527f45766964656e6365207375626d697373696f6e20706572696f6420657870697260448201527f65640000000000000000000000000000000000000000000000000000000000006064820152fd5b606036600319011261029957600435600052600c6020526040600020611d1460ff600883015460a01c16615dd1565b6044356006820154106120cc57600f5490611d2e82615e1c565b600f556001600160a01b03600482015416916001600160a01b0360088301541660405193610140850185811067ffffffffffffffff82111761068c576040528285524660208601526024356040860152336060860152608085015260443560a085015260c084015260043560e08401526000610100840152600061012084015280600052600d60205260406000208351815560208401516001820155604084015160028201556001600160a01b036060850151166001600160a01b036003830191166001600160a01b03198254161790556001600160a01b036080850151166001600160a01b036004830191166001600160a01b031982541617905560a084015160058201556001600160a01b0360c0850151166001600160a01b036006830191166001600160a01b031982541617905560e084015160078201556008810193610100810151946007861015610992576009916101209160009760ff801983541691161790550151910155826001600160a01b03600884015416801560001461203f575050611ec36007830154604435615c94565b3410611ffb576020611f6184935b6001600160a01b03600482015416906001600160a01b036008611efa6007840154604435615c94565b92015416906040519286868501523360408501526060840152608083015260a082015260043560c082015260c08152611f3460e082615904565b6001600160a01b036010541690604051968780948193634e20205d60e11b8352306024356004850161600e565b03925af18015611ff0578290611fb9575b60209350818352600d845260096040842001556040519160243590827f0efc1ba3e8605b00fbae133cdae9c708eacbd5b0301ed4788ee7c753dd087d1d6004359280a48152f35b506020833d602011611fe8575b81611fd360209383615904565b81010312611fe45760209251611f72565b5080fd5b3d9150611fc6565b6040513d84823e3d90fd5b606460405162461bcd60e51b815260206004820152601460248201527f496e73756666696369656e74207061796d656e740000000000000000000000006044820152fd5b92602061208783956120576007850154604435615c94565b6040516323b872dd60e01b8152336004820152306024820152604481019190915294859283919082906064820190565b03925af19081156120c157602092611f61926120a4575b50611ed1565b6120ba90843d861161070e576107008183615904565b508661209e565b6040513d86823e3d90fd5b606460405162461bcd60e51b815260206004820152601560248201527f496e73756666696369656e74207175616e7469747900000000000000000000006044820152fd5b34610299576000366003190112610299576020600e54604051908152f35b346102995760603660031901126102995760043560243567ffffffffffffffff811161029957612162903690600401615b31565b9060443567ffffffffffffffff811161029957612183903690600401615b31565b918160005260036020526040600020600481019060ff825460a01c16906007821015610992576121b860036121e59314615f52565b6121c8600c820154421115615fc3565b6001600160a01b03600182015416331490811561250b5750615cb4565b600560a01b60ff60a01b198254161790556008549061220382615e1c565b600855816000526007602052604060002093838555600185016001600160a01b0333166001600160a01b031982541617905560028501825167ffffffffffffffff811161068c576122548254615890565b601f81116124c3575b50806020601f821160011461246057600091612455575b508160011b916000199060031b1c19161790555b60016003860155600080526004850160205260406000209080519067ffffffffffffffff821161068c5781906122be8454615890565b601f8111612402575b50602090601f831160011461239d57600092612392575b50508160011b916000199060031b1c19161790555b62127500420180421161237c5784600691600560209701550160ff19815416905582827f719d16ff7b1a36e969069386baa6fa0b81ddba5e924a156e401d49839eaeceec6040518781528061234c33968a8301906159d7565b0390a4604051917f7ce7831fed9a800b1aa5e7ca21034bf7b95efc31a196459012cf8b8eb42b7dac600080a28152f35b634e487b7160e01b600052601160045260246000fd5b0151905087806122de565b60008581528281209350601f198516905b8181106123ea57509084600195949392106123d1575b505050811b0190556122f3565b015160001960f88460031b161c191690558780806123c4565b929360206001819287860151815501950193016123ae565b909150836000526020600020601f840160051c8101916020851061244b575b90601f859493920160051c01905b81811061243c57506122c7565b6000815584935060010161242f565b9091508190612421565b905084015188612274565b60008481528181209250601f198416905b8181106124ab57509083600194939210612492575b5050811b019055612288565b86015160001960f88460031b161c191690558880612486565b9192602060018192868b015181550194019201612471565b826000526020600020601f830160051c81019160208410612501575b601f0160051c01905b8181106124f5575061225d565b600081556001016124e8565b90915081906124df565b6001600160a01b0391506002015416331486611acf565b346102995760203660031901126102995760043561253e6161d1565b80600052600360205260406000206004810190815460ff8160a01c16600781101561099257612679576001600160a01b03600183015416330361263557600391909101546040516323b872dd60e01b60208201523360248201523060448201526064808201929092529081526125c8916001600160a01b03906125c2608484615904565b166162a3565b7401000000000000000000000000000000000000000060ff60a01b198254161790557f3b4f5a74452cddb80ae5a0d279eb7db6afd5e556e72ca2883016b1da7c9d2116600080a260017f9b779b17422d0df92223018b32b4d1fa46e071723d6817e2486d003becc55f0055005b606460405162461bcd60e51b815260206004820152601360248201527f4f6e6c792062757965722063616e2066756e64000000000000000000000000006044820152fd5b606460405162461bcd60e51b815260206004820152601b60248201527f457363726f77206e6f7420696e206372656174656420737461746500000000006044820152fd5b346102995760e03660031901126102995760043567ffffffffffffffff8111610299576126ee903690600401615b31565b602435906044359060643567ffffffffffffffff811161029957612716903690600401615b31565b9160843560a4359360c43567ffffffffffffffff81116102995761273e903690600401615b31565b92602460206001600160a01b036000541660405192838092637b1d63b160e11b82523360048301525afa801561059a5761278091600091612c41575b50615d86565b61278b871515615e55565b612796811515615ea0565b6127a1868410615eeb565b600654956127ae87615e1c565b600655604051936127be856158ca565b87855260208501933385526040860193888552606087018b81526080880191825260a0880192835260c0880193845260e08801948552610100880195600187526001600160a01b036101208a019860008a526101408b019b8c528d600052600460205260406000209a518b5551166001600160a01b0360018b0191166001600160a01b031982541617905560028901905180519067ffffffffffffffff821161068c57819061286d8454615890565b601f8111612bee575b50602090601f8311600114612b8957600092612b7e575b50508160011b916000199060031b1c19161790555b516003880155516004870155518051600587019167ffffffffffffffff821161068c576128cf8354615890565b601f8111612b36575b50602090601f8311600114612ac5579180612935969492600a9a99989694600092612aba5750508160011b916000199060031b1c1916179055516006860155516007850155511515600884019060ff801983541691151516179055565b51600982015501905180519067ffffffffffffffff821161068c5761295a8354615890565b601f8111612a72575b50916020959185938790601f83116001146129e35791806129cd94927f6b7a3194eaddce2be5200d10785a15a5cd14a78b827cf902f4d23c35e6bd73f896946000926129d8575b50508160011b916000199060031b1c19161790555b604051918291339683615f36565b0390a3604051908152f35b015190508a806129aa565b90601f1983169184600052816000209260005b818110612a5857509260019285927f6b7a3194eaddce2be5200d10785a15a5cd14a78b827cf902f4d23c35e6bd73f898966129cd989610612a3f575b505050811b0190556129bf565b015160001960f88460031b161c191690558a8080612a32565b8284015185558a9850600190940193928b01928b016129f6565b836000526020600020601f840160051c81019160208510612ab0575b601f0160051c01905b818110612aa45750612963565b60008155600101612a97565b9091508190612a8e565b015190508e80610cab565b90601f1983169184600052816000209260005b818110612b1e5750926001928592600a9c9b9a98966129359a989610612b0557505050811b019055610cc0565b015160001960f88460031b161c191690558e8080610eb0565b92936020600181928786015181550195019301612ad8565b836000526020600020601f840160051c81019160208510612b74575b601f0160051c01905b818110612b6857506128d8565b60008155600101612b5b565b9091508190612b52565b015190508f8061288d565b60008581528281209350601f198516905b818110612bd65750908460019594939210612bbd575b505050811b0190556128a2565b015160001960f88460031b161c191690558f8080612bb0565b92936020600181928786015181550195019301612b9a565b909150836000526020600020601f840160051c81019160208510612c37575b90601f859493920160051c01905b818110612c285750612876565b60008155849350600101612c1b565b9091508190612c0d565b612c5a915060203d60201161070e576107008183615904565b8961277a565b346102995760003660031901126102995760206001600160a01b03600a5416604051908152f35b3461029957612c9536615aff565b6006549082600060015b848110612eb95750612cb18282615ca7565b831115612eb157612cc29250615ca7565b915b612ccd83615bb5565b92612cdb6040519485615904565b808452612cea601f1991615bb5565b0160005b818110612e9a57505060008060015b84811080612e90575b15612e285780600052600460205260ff60086040600020015416612d33575b612d2e90615e1c565b612cfd565b9183811015612d51575b612d49612d2e91615e1c565b929050612d25565b90612d49612e1f612d2e928560005260046020526040600020612dfe600a60405192612d7c846158ca565b805484526001600160a01b036001820154166020850152612d9f60028201615926565b60408501526003810154606085015260048101546080850152612dc460058201615926565b60a0850152600681015460c0850152600781015460e085015260ff6008820154161515610100850152600981015461012085015201615926565b610140820152612e0e828b615e2b565b52612e19818a615e2b565b50615e1c565b92915050612d3d565b856040518091602082016020835281518091526040830190602060408260051b8601019301916000905b828210612e6157505050500390f35b91936001919395506020612e808192603f198a82030186528851615a18565b9601920192018594939192612e52565b5085518210612d06565b602090612ea5615bcd565b82828801015201612cee565b505091612cc4565b80919250600052600460205260ff60086040600020015416612ee1575b600101908491612c9f565b90612eed600191615e1c565b919050612ed6565b346102995760003660031901126102995760206001600160a01b0360015416604051908152f35b346102995760003660031901126102995760206001600160a01b0360105416604051908152f35b3461029957602036600319011261029957600435600052600c602052604060002080546001820154916001600160a01b0360028201541660ff6003830154926001600160a01b0360048201541693612fe6612fa060058401615926565b60068401549660078501549360096008870154960154976040519b8c9b8c5260208c015260408b015260608a0152608089015261016060a08901526101608801906159d7565b9460c087015260e08601526001600160a01b03811661010086015260a01c1615156101208401526101408301520390f35b34610299576000366003190112610299576119b2604080519061303a8183615904565b600582527f352e302e300000000000000000000000000000000000000000000000000000006020830152519182916020835260208301906159d7565b34610299576130ef6000602061308b36615b76565b61309694919461612d565b848452600483526130ac60408520541515615c26565b6001600160a01b0360025416906040519485809481937ffd2be2df0000000000000000000000000000000000000000000000000000000083528960048401615d6f565b03925af190811561059a57600091613142575b5060207f66bcde9f7aec9b81719a4fdec54cbafbf6c834d1f2f989d9cd2134dab8d0c0de91836000526004825280600960406000200155604051908152a2005b906020823d602011613170575b8161315c60209383615904565b8101031261316d5750516020613102565b80fd5b3d915061314f565b34610299576000366003190112610299576020600654604051908152f35b34610299576020366003190112610299576131af61612d565b600435600b55005b34610299576020366003190112610299576004358060005260036020526040600020600481019060ff825460a01c16906007821015610992576131ff600361322c9314615f52565b61320f600c820154421115615fc3565b6001600160a01b0360018201541633149081156132645750615cb4565b600560a01b60ff60a01b198254161790557f7ce7831fed9a800b1aa5e7ca21034bf7b95efc31a196459012cf8b8eb42b7dac600080a2005b6001600160a01b0391506002015416331484611acf565b346102995760003660031901126102995760206001600160a01b0360025416604051908152f35b34610299576020366003190112610299576001600160a01b036132c3615abd565b6132cb61612d565b166001600160a01b0319600a541617600a55600080f35b34610299576000366003190112610299576020600f54604051908152f35b346102995760203660031901126102995760043567ffffffffffffffff8111610299573660238201121561029957806004013561333c81615bb5565b9161334a6040519384615904565b8183526024602084019260051b820101903682116102995760248101925b8284106139505784602460206001600160a01b036000541660405192838092637b1d63b160e11b82523360048301525afa801561059a576133b0916000916139315750615d86565b80516133d46133be82615bb5565b916133cc6040519384615904565b808352615bb5565b601f19013660208301376000915b80518310156138eb576133f58382615e2b565b519261340660208501511515615e55565b604084019361341785511515615ea0565b6080810180519561342e60a0840197885111615eeb565b6006549161343b83615e1c565b60065583519760208501519251916060860151905191519260c0870151946040519b6134668d6158ca565b878d528c60203391015260408d015260608c015260808b015260a08a015260c089015260e0880152600161010088015260006101208801526101408701528060005260046020526040600020865181556001600160a01b036020880151166001600160a01b036001830191166001600160a01b0319825416179055604087015180519067ffffffffffffffff821161068c5781906135076002850154615890565b601f8111613895575b50602090601f83116001146138295760009261381e575b50508160011b916000199060031b1c19161760028201555b60608701516003820155608087015160048201556005810160a088015180519067ffffffffffffffff821161068c576135788354615890565b601f81116137d6575b50602090601f8311600114613768579180600a9492610140969460009261375d575b50508160011b916000199060031b1c19161790555b60c0890151600682015560e089015160078201556135ec6101008a01511515600883019060ff801983541691151516179055565b61012089015160098201550196015195865167ffffffffffffffff811161068c576136178254615890565b601f8111613715575b506020601f82116001146136ac57819060019798996000926136a1575b5050600019600383901b1c191690861b1790555b8061365c8488615e2b565b527f6b7a3194eaddce2be5200d10785a15a5cd14a78b827cf902f4d23c35e6bd73f861369660208451940151604051918291339683615f36565b0390a30191906133e2565b01519050898061363d565b601f1982169883600052816000209960005b8181106136fd575091600198999a91848a9594106136e4575b505050811b019055613651565b015160001960f88460031b161c191690558980806136d7565b929a6020600181928e8601518155019c0193016136be565b826000526020600020601f830160051c81019160208410613753575b601f0160051c01905b8181106137475750613620565b6000815560010161373a565b9091508190613731565b015190508c806135a3565b90601f1983169184600052816000209260005b8181106137be57509260019285926101409896600a9896106137a5575b505050811b0190556135b8565b015160001960f88460031b161c191690558c8080613798565b9293602060018192878601518155019501930161377b565b836000526020600020601f840160051c81019160208510613814575b601f0160051c01905b8181106138085750613581565b600081556001016137fb565b90915081906137f2565b015190508980613527565b6002850160009081528281209350601f198516905b81811061387d5750908460019594939210613864575b505050811b01600282015561353f565b015160001960f88460031b161c19169055898080613854565b9293602060018192878601518155019501930161383e565b909150600284016000526020600020601f840160051c810191602085106138e1575b90601f859493920160051c01905b8181106138d25750613510565b600081558493506001016138c5565b90915081906138b7565b5060405180916020820160208352815180915260206040840192019060005b818110613918575050500390f35b825184528594506020938401939092019160010161390a565b61394a915060203d60201161070e576107008183615904565b8361277a565b833567ffffffffffffffff811161029957820160e06023198236030112610299576040519160e0830183811067ffffffffffffffff82111761068c57604052602482013567ffffffffffffffff8111610299576139b39060243691850101615b31565b83526044820135602084015260648201356040840152608482013567ffffffffffffffff8111610299576139ed9060243691850101615b31565b606084015260a4820135608084015260c482013560a084015260e48201359267ffffffffffffffff841161029957613a2f602094936024869536920101615b31565b60c0820152815201930192613368565b346102995760003660031901126102995760206001600160a01b036000805160206163a58339815191525416604051908152f35b34610299576000366003190112610299576020600554604051908152f35b346102995760a036600319011261029957613aaa615abd565b602435613ab5615ad3565b916064359160843567ffffffffffffffff811161029957613ada903690600401615b31565b926001600160a01b036000541692604051637b1d63b160e11b8152336004820152602081602481885afa90811561059a5760009161409e575b501561405a5760206001600160a01b0391602460405180948193637b1d63b160e11b835216978860048301525afa801561059a57613b589160009161403b5750615d86565b8115613ff757806000526004602052613b7b60ff60086040600020015416615dd1565b6000526004602052816001600160a01b036001604060002001541603613fb35760055492613ba884615e1c565b60055583604051613bb8816158e7565b81815260208101923384526040820191868352606081019186835260808201996001600160a01b03168a5260a08201926000845260c0830142815260e08401600081526101008501916000835260209d8e9760405195613c188a88615904565b600087526101208901968752610140890197885261016089019860008a5261018081019b60008d526101a082019b60008d526101c083019e8f600090526000526003905260406000209e8f92518355516001600160a01b031660018301906001600160a01b031681546001600160a01b031916179055516001600160a01b031690600201906001600160a01b031681546001600160a01b0319161790555160038d015560048c0191516001600160a01b03166001600160a01b031682546001600160a01b03191617825551600781101561099257613cf591615c71565b5160058a0155516006890155516007880155518051600888019167ffffffffffffffff821161068c578c8291613d2b8554615890565b601f8111613f58575b5081601f8411600114613ef25750600092613ee7575b50508160011b916000199060031b1c19161790555b518051600987019167ffffffffffffffff821161068c578b613d818454615890565b601f8111613e9f575b50508b908c601f8411600114613e2c57509180613de9969492600c99989694600092613e21575b50508160011b916000199060031b1c19161790555b51600a87015561129e600b870192511515839060ff801983541691151516179055565b51910155604051908152827f9405ad0a6208539879349284d71265479b1623846f70303da1f9890d6e8c10a7853393a4604051908152f35b015190508e80613db1565b9190601f1984168560005283600020936000905b828210613e87575050926001928592600c9b9a9896613de99a989610613e6e575b505050811b019055613dc6565b015160001960f88460031b161c191690558e8080613e61565b80600186978294978701518155019601940190613e40565b846000528160002090601f850160051c8201928510613edd575b601f0160051c01905b818110613ed1578d9150613d8a565b60008155600101613ec2565b9091508190613eb9565b015190508d80613d4a565b60008681528181209450601f198616915b828210613f40575050908460019594939210613f27575b505050811b019055613d5f565b015160001960f88460031b161c191690558d8080613f1a565b80600186978294978701518155019601940190613f03565b909250846000528160002090601f850160051c8201928510613fa9575b918f9291601f8695930160051c01905b818110613f925750613d34565b90925060019193506000815501918e918493613f85565b9091508190613f75565b606460405162461bcd60e51b815260206004820152601a60248201527f496e76616c69642073656c6c657220666f72206c697374696e670000000000006044820152fd5b606460405162461bcd60e51b815260206004820152601260248201527f416d6f756e74206d757374206265203e203000000000000000000000000000006044820152fd5b614054915060203d60201161070e576107008183615904565b8761277a565b606460405162461bcd60e51b815260206004820152601260248201527f4275796572206e6f7420766572696669656400000000000000000000000000006044820152fd5b6140b7915060203d60201161070e576107008183615904565b87613b13565b34610299576000366003190112610299576140d661612d565b7fcd5ed15c6e187e77e9aee88184c21f4f2182ab5827cb3b7e07fbedcd63f033005460ff81166141565760019060ff1916177fcd5ed15c6e187e77e9aee88184c21f4f2182ab5827cb3b7e07fbedcd63f03300557f62e78cea01bee320cd4e420270b5ea74000d11b0c9f74754ebdbfc544b05a2586020604051338152a1005b7fd93c06650000000000000000000000000000000000000000000000000000000060005260046000fd5b34610299576020366003190112610299576001600160a01b036141a1615abd565b6141a961612d565b16806001600160a01b031960105416176010557f114be21c75640466cbc0aaabbcc6f9ccf7217e6eb0294901fd357e0f78924f8e600080a2005b346102995760203660031901126102995760006101c0604051614205816158e7565b8281528260208201528260408201528260608201528260808201528260a08201528260c08201528260e082015282610100820152606061012082015260606101408201528261016082015282610180820152826101a08201520152600435600052600360205260406000206040519061427d826158e7565b805482526001600160a01b0360018201541690602083019182526001600160a01b03600282015416926040810193845260038201546060820190815260048301549260ff60808401946001600160a01b038116865260a01c1660a08401906007811015610992578152600582015460c08501908152600683015460e08601908152600784015461010087019081529061431860088601615926565b61012088019081529261432d60098701615926565b946101408901958652600a870154996101608a019a8b52600b880154986101808b019860ff8b1615158a526101a08c019a60081c60ff1615158b52600c01549a6101c081019b8c526040519e8f9e8f9260208452516020840152516001600160a01b03166040830152516001600160a01b031690606001525160808d0152516001600160a01b031660a08c01525160c08b016143c8916159ca565b5160e08a015251610100890152516101208801525161014087016101e0905261020087016143f5916159d7565b9051868203601f190161016088015261440e91906159d7565b93516101808601525115156101a08501525115156101c0840152516101e08301520390f35b346102995761444136615b76565b81600052600360205260406000206004810160ff815460a01c1660078110156109925760026144709114615cff565b6001600160a01b0360018301541633036146f2576001600160a01b0360015416602060405180927f6bcef6f3000000000000000000000000000000000000000000000000000000008252816000816144cc8a8c60048401615d6f565b03925af190811561059a576000916146d3575b501561468f57600360a01b60ff60a01b1982541617905542600782015560088101825167ffffffffffffffff811161068c5761451b8254615890565b601f8111614647575b506020601f82116001146145bc5791816145ac94927fe1fb67c8f0a839112508831b181d7a2275936839ca3b8a94e916430d85d98b4796946000916145b1575b508160011b916000199060031b1c19161790555b600b8101600160ff19825416179055600c614595600b5442615d4a565b9101556040519182916020835260208301906159d7565b0390a2005b905084015188614564565b601f1982169083600052806000209160005b81811061462f5750927fe1fb67c8f0a839112508831b181d7a2275936839ca3b8a94e916430d85d98b47969492600192826145ac989610614616575b5050811b019055614578565b86015160001960f88460031b161c19169055888061460a565b9192602060018192868b0151815501940192016145ce565b826000526020600020601f830160051c81019160208410614685575b601f0160051c01905b8181106146795750614524565b6000815560010161466c565b9091508190614663565b606460405162461bcd60e51b815260206004820152601c60248201527f44656c697665727920766572696669636174696f6e206661696c6564000000006044820152fd5b6146ec915060203d60201161070e576107008183615904565b856144df565b606460405162461bcd60e51b815260206004820152601e60248201527f4f6e6c792062757965722063616e207665726966792064656c697665727900006044820152fd5b346102995760003660031901126102995761474f61612d565b60006001600160a01b036000805160206163a5833981519152546001600160a01b031981166000805160206163a583398151915255167f8be0079c531659141344cd1fd0a4f28419497f9722a3daafe3b4186f6b6457e08280a3005b3461029957600036600319011261029957602060ff7fcd5ed15c6e187e77e9aee88184c21f4f2182ab5827cb3b7e07fbedcd63f0330054166040519015158152f35b34610299576000366003190112610299576020600b54604051908152f35b34610299576020366003190112610299576004356000526007602052604060002080546001600160a01b03600183015416916001600160a01b0361485160028301615926565b60038301549261488360066005830154920154926040519788978852602088015260e0604088015260e08701906159d7565b936060860152608085015260ff8116151560a085015260081c1660c08301520390f35b346102995760603660031901126102995760043560243567ffffffffffffffff8111610299576148da903690600401615b31565b81600052600360205260406000206004810160ff815460a01c1660078110156109925760026149099114615cff565b6001600160a01b036001830154163303614ab357600360a01b60ff60a01b1982541617905542600782015560088101825167ffffffffffffffff811161068c576149538254615890565b601f8111614a6b575b506020601f82116001146149e05791816145ac94927fe1fb67c8f0a839112508831b181d7a2275936839ca3b8a94e916430d85d98b4796946000916149d5575b508160011b916000199060031b1c19161790555b604435600a820155600b8101600160ff19825416179055600c614595600b5442615d4a565b90508401518861499c565b601f1982169083600052806000209160005b818110614a535750927fe1fb67c8f0a839112508831b181d7a2275936839ca3b8a94e916430d85d98b47969492600192826145ac989610614a3a575b5050811b0190556149b0565b86015160001960f88460031b161c191690558880614a2e565b9192602060018192868b0151815501940192016149f2565b826000526020600020601f830160051c81019160208410614aa9575b601f0160051c01905b818110614a9d575061495c565b60008155600101614a90565b9091508190614a87565b606460405162461bcd60e51b815260206004820152601f60248201527f4f6e6c792062757965722063616e20636f6e6669726d2064656c6976657279006044820152fd5b34610299576000366003190112610299576001600160a01b037f0000000000000000000000000000000000000000000000000000000000000000163003614b625760206040517f360894a13ba1a3210667c828492db98dca3e2076cc3735a920a3ca505d382bbc8152f35b7fe07c8dba0000000000000000000000000000000000000000000000000000000060005260046000fd5b604036600319011261029957614ba0615abd565b60243567ffffffffffffffff811161029957614bc0903690600401615b31565b6001600160a01b037f000000000000000000000000000000000000000000000000000000000000000016803014908115614dfa575b50614b6257614c0261612d565b6001600160a01b038216916040517f52d1902d000000000000000000000000000000000000000000000000000000008152602081600481875afa60009181614dc6575b50614c5f5783634c9c8ce360e01b60005260045260246000fd5b807f360894a13ba1a3210667c828492db98dca3e2076cc3735a920a3ca505d382bbc859203614d995750813b15614d8557806001600160a01b03197f360894a13ba1a3210667c828492db98dca3e2076cc3735a920a3ca505d382bbc5416177f360894a13ba1a3210667c828492db98dca3e2076cc3735a920a3ca505d382bbc557fbc7cd75a20ee27fd9adebab32041f755214dbc6bffa90cc0225b39da2e5c2d3b600080a2815115614d525760008083602061029795519101845af43d15614d4a573d91614d2d83615b15565b92614d3b6040519485615904565b83523d6000602085013e616314565b606091616314565b505034614d5b57005b7fb398979f0000000000000000000000000000000000000000000000000000000060005260046000fd5b634c9c8ce360e01b60005260045260246000fd5b7faa1d49a40000000000000000000000000000000000000000000000000000000060005260045260246000fd5b9091506020813d602011614df2575b81614de260209383615904565b8101031261029957519085614c45565b3d9150614dd5565b90506001600160a01b037f360894a13ba1a3210667c828492db98dca3e2076cc3735a920a3ca505d382bbc5416141583614bf5565b3461029957600036600319011261029957614e4861612d565b7fcd5ed15c6e187e77e9aee88184c21f4f2182ab5827cb3b7e07fbedcd63f033005460ff811615614ec55760ff19167fcd5ed15c6e187e77e9aee88184c21f4f2182ab5827cb3b7e07fbedcd63f03300557f5db9ee0a495bf2e6ff9c91a7834c1ba4fdd244a5e8aa4e537bd38aeae4b073aa6020604051338152a1005b7f8dfc202b0000000000000000000000000000000000000000000000000000000060005260046000fd5b34610299576020366003190112610299576004358060005260046020526001600160a01b036001604060002001541633148015614f4b575b614f3090615cb4565b6000908152600460205260409020600801805460ff19169055005b50614f306001600160a01b036000805160206163a5833981519152541633149050614f27565b3461029957604036600319011261029957600435614f8d615ba6565b614f9561612d565b816000526003602052604060002090600482019182549160ff8360a01c1660078110156109925760050361094e571561502a57614ff291506001600160a01b038354169060036001600160a01b036001830154169101549161617c565b600160a21b60ff60a01b198254161790557f9285bd636dda01bef18996aa38303bb742f6c67a6941646dddb17630cb492c2e600080a2005b806003615051920154926001600160a01b038060026109036127106108fb6009548a615c94565b8061505d575b50614ff2565b61508b906001600160a01b038354166001600160a01b036000805160206163a583398151915254169061617c565b82615057565b346102995761509f36615b76565b908060005260036020526040600020600481019060ff825460a01c166007811015610992576001036152bb576001600160a01b036002820154163303615277576009917402000000000000000000000000000000000000000060ff60a01b19825416179055426006820155019180519267ffffffffffffffff841161068c576151288154615890565b601f811161522f575b50602093601f81116001146151a55790816145ac93927f83d40620329d583cfd9cc7122d382ef81f890367b6b0db40d0b4d6bba1b426c5959660009161519a575b508160011b916000199060031b1c19161790555b6040519182916020835260208301906159d7565b905083015187615172565b601f19811682600052856000209060005b8181106152175750916001917f83d40620329d583cfd9cc7122d382ef81f890367b6b0db40d0b4d6bba1b426c59697826145ac979695106151fe575b5050811b019055615186565b85015160001960f88460031b161c1916905587806151f2565b858801518355602097880197600190930192016151b6565b816000526020600020601f860160051c8101916020871061526d575b601f0160051c01905b8181106152615750615131565b60008155600101615254565b909150819061524b565b606460405162461bcd60e51b815260206004820152602060248201527f4f6e6c792073656c6c65722063616e20636f6e6669726d20736869706d656e746044820152fd5b606460405162461bcd60e51b815260206004820152601160248201527f457363726f77206e6f742066756e6465640000000000000000000000000000006044820152fd5b34610299576000366003190112610299576020600954604051908152f35b346102995760207f66bcde9f7aec9b81719a4fdec54cbafbf6c834d1f2f989d9cd2134dab8d0c0de61534e36615aff565b61535993919361612d565b83600052600482526153716040600020541515615c26565b836000526004825280600960406000200155604051908152a2005b346102995760a0366003190112610299576153a5615abd565b602435906001600160a01b038216809203610299576153c2615ad3565b906064356001600160a01b038116809103610299576153df615ae9565b917ff0c57e16840df040f15088dc2f81fe391c3923bec73e23a9662efc9c229c6a00549360ff8560401c16159567ffffffffffffffff861680159081615655575b600114908161564b575b159081615642575b506156185767ffffffffffffffff1986166001177ff0c57e16840df040f15088dc2f81fe391c3923bec73e23a9662efc9c229c6a00556001600160a01b039586938491896155d9575b5061548461624a565b61548c61624a565b61549533616092565b61549d61624a565b6154a561624a565b60017f9b779b17422d0df92223018b32b4d1fa46e071723d6817e2486d003becc55f00556154d161624a565b6154d961624a565b166001600160a01b031960005416176000556001600160a01b03196001541617600155166001600160a01b031960025416176002556001600160a01b0319600a541617600a55166001600160a01b03196010541617601055600160055560016006556001600855601960095562093a80600b556001600e556001600f5561555c57005b68ff0000000000000000197ff0c57e16840df040f15088dc2f81fe391c3923bec73e23a9662efc9c229c6a0054167ff0c57e16840df040f15088dc2f81fe391c3923bec73e23a9662efc9c229c6a00557fc7f505b2f371ae2175ee4913f4499e1f2633a7b5936321eed1cdaeb6115181d2602060405160018152a1005b68ffffffffffffffffff191668010000000000000001177ff0c57e16840df040f15088dc2f81fe391c3923bec73e23a9662efc9c229c6a00558961547b565b7ff92ee8a90000000000000000000000000000000000000000000000000000000060005260046000fd5b90501588615432565b303b15915061542a565b889150615420565b346102995760003660031901126102995760206001600160a01b0360005416604051908152f35b34610299576020366003190112610299576004356156a061612d565b6103e881116156ae57600955005b606460405162461bcd60e51b815260206004820152600c60248201527f46656520746f6f206869676800000000000000000000000000000000000000006044820152fd5b346102995760203660031901126102995761570b615bcd565b5060043560005260046020526119b26040600020615731600a60405192612d7c846158ca565b610140820152604051918291602083526020830190615a18565b34610299576000366003190112610299576020600854604051908152f35b346102995760203660031901126102995760043560005260036020526040600020805460018201546001600160a01b03169160028101546001600160a01b0316600382015491600481015460058201546006830154600784015490600885016157d190615926565b926157de60098701615926565b94600a87015498600b88015497600c0154986040519c8d9c8d5260208d015260408c015260608b01526001600160a01b03811660808b015260a08a019060a01c60ff169061582b916159ca565b60c089015260e088015261010087015261012086016101e090526101e08601615853916159d7565b858103610140870152615865916159d7565b9261016085015260ff8116151561018085015260081c60ff1615156101a08401526101c08301520390f35b90600182811c921680156158c0575b60208310146158aa57565b634e487b7160e01b600052602260045260246000fd5b91607f169161589f565b610160810190811067ffffffffffffffff82111761068c57604052565b6101e0810190811067ffffffffffffffff82111761068c57604052565b90601f8019910116810190811067ffffffffffffffff82111761068c57604052565b906040519182600082549261593a84615890565b80845293600181169081156159a85750600114615961575b5061595f92500383615904565b565b90506000929192526020600020906000915b81831061598c57505090602061595f9282010138615952565b6020919350806001915483858901015201910190918492615973565b90506020925061595f94915060ff191682840152151560051b82010138615952565b9060078210156109925752565b919082519283825260005b848110615a03575050826000602080949584010152601f8019910116010190565b806020809284010151828286010152016159e2565b615aba91815181526001600160a01b036020830151166020820152610140615a7a615a54604085015161016060408601526101608501906159d7565b606085015160608501526080850151608085015260a085015184820360a08601526159d7565b9260c081015160c084015260e081015160e084015261010081015115156101008401526101208101516101208401520151906101408184039101526159d7565b90565b600435906001600160a01b038216820361029957565b604435906001600160a01b038216820361029957565b608435906001600160a01b038216820361029957565b6040906003190112610299576004359060243590565b67ffffffffffffffff811161068c57601f01601f191660200190565b81601f8201121561029957602081359101615b4b82615b15565b92615b596040519485615904565b828452828201116102995781600092602092838601378301015290565b90604060031983011261029957600435916024359067ffffffffffffffff821161029957615aba91600401615b31565b60243590811515820361029957565b67ffffffffffffffff811161068c5760051b60200190565b60405190615bda826158ca565b6060610140836000815260006020820152826040820152600083820152600060808201528260a0820152600060c0820152600060e0820152600061010082015260006101208201520152565b15615c2d57565b606460405162461bcd60e51b815260206004820152601160248201527f4c697374696e67206e6f7420666f756e640000000000000000000000000000006044820152fd5b9060078110156109925760ff60a01b1960ff60a01b83549260a01b169116179055565b8181029291811591840414171561237c57565b9190820391821161237c57565b15615cbb57565b606460405162461bcd60e51b815260206004820152600e60248201527f4e6f7420617574686f72697a65640000000000000000000000000000000000006044820152fd5b15615d0657565b606460405162461bcd60e51b815260206004820152601260248201527f457363726f77206e6f74207368697070656400000000000000000000000000006044820152fd5b9190820180921161237c57565b90816020910312610299575180151581036102995790565b604090615aba9392815281602082015201906159d7565b15615d8d57565b606460405162461bcd60e51b815260206004820152601360248201527f53656c6c6572206e6f74207665726966696564000000000000000000000000006044820152fd5b15615dd857565b606460405162461bcd60e51b815260206004820152601260248201527f4c697374696e67206e6f742061637469766500000000000000000000000000006044820152fd5b600019811461237c5760010190565b8051821015615e3f5760209160051b010190565b634e487b7160e01b600052603260045260246000fd5b15615e5c57565b606460405162461bcd60e51b815260206004820152601460248201527f5175616e74697479206d757374206265203e20300000000000000000000000006044820152fd5b15615ea757565b606460405162461bcd60e51b815260206004820152601160248201527f5072696365206d757374206265203e20300000000000000000000000000000006044820152fd5b15615ef257565b606460405162461bcd60e51b815260206004820152600d60248201527f496e76616c6964206461746573000000000000000000000000000000000000006044820152fd5b929190615f4d6020916040865260408601906159d7565b930152565b15615f5957565b608460405162461bcd60e51b815260206004820152602260248201527f43616e206f6e6c7920646973707574652064656c69766572656420657363726f60448201527f77730000000000000000000000000000000000000000000000000000000000006064820152fd5b15615fca57565b606460405162461bcd60e51b815260206004820152601660248201527f4469737075746520706572696f642065787069726564000000000000000000006044820152fd5b6001600160a01b03615aba9493606093835216602082015281604082015201906159d7565b1561603a57565b606460405162461bcd60e51b815260206004820152601860248201527f4469737075746520616c7265616479207265736f6c76656400000000000000006044820152fd5b35906001600160a01b038216820361029957565b6001600160a01b031680156160fe576001600160a01b036000805160206163a583398151915254826001600160a01b03198216176000805160206163a583398151915255167f8be0079c531659141344cd1fd0a4f28419497f9722a3daafe3b4186f6b6457e0600080a3565b7f1e4fbdf700000000000000000000000000000000000000000000000000000000600052600060045260246000fd5b6001600160a01b036000805160206163a58339815191525416330361614e57565b7f118cdaa7000000000000000000000000000000000000000000000000000000006000523360045260246000fd5b61595f926001600160a01b03604051937fa9059cbb0000000000000000000000000000000000000000000000000000000060208601521660248401526044830152604482526161cc606483615904565b6162a3565b60027f9b779b17422d0df92223018b32b4d1fa46e071723d6817e2486d003becc55f0054146162205760027f9b779b17422d0df92223018b32b4d1fa46e071723d6817e2486d003becc55f0055565b7f3ee5aeb50000000000000000000000000000000000000000000000000000000060005260046000fd5b60ff7ff0c57e16840df040f15088dc2f81fe391c3923bec73e23a9662efc9c229c6a005460401c161561627957565b7fd7e6bcf80000000000000000000000000000000000000000000000000000000060005260046000fd5b906000602091828151910182855af11561059a576000513d61630b57506001600160a01b0381163b155b6162d45750565b6001600160a01b03907f5274afe7000000000000000000000000000000000000000000000000000000006000521660045260246000fd5b600114156162cd565b90616353575080511561632957602081519101fd5b7fd6bda2750000000000000000000000000000000000000000000000000000000060005260046000fd5b8151158061639b575b616364575090565b6001600160a01b03907f9996b315000000000000000000000000000000000000000000000000000000006000521660045260246000fd5b50803b1561635c56fe9016d09d72d40fdae2fd8ceac6b6234c7706214fd39c1cd1e609a0528c199300a26469706673582212207efe3358ab7ff3c7cbd83ab49c41ea516420fc5d27a162fec7432ad5817e526e64736f6c634300081c0033",
  "linkReferences": {},
  "deployedLinkReferences": {}
}