{
  "_format": "hh-sol-artifact-1",
  "contractName": "MarketplaceEscrow",
  "sourceName": "contracts/MarketplaceEscrow.sol",
  "abi": [
    {
      "inputs": [
        {
          "internalType": "address",
          "name": "target",
          "type": "address"
        }
      ],
      "name": "AddressEmptyCode",
      "type": "error"
    },
    {
      "inputs": [
        {
          "internalType": "address",
          "name": "implementation",
          "type": "address"
        }
      ],
      "name": "ERC1967InvalidImplementation",
      "type": "error"
    },
    {
      "inputs": [],
      "name": "ERC1967NonPayable",
      "type": "error"
    },
    {
      "inputs": [],
      "name": "EnforcedPause",
      "type": "error"
    },
    {
      "inputs": [],
      "name": "ExpectedPause",
      "type": "error"
    },
    {
      "inputs": [],
      "name": "FailedCall",
      "type": "error"
    },
    {
      "inputs": [],
      "name": "InvalidInitialization",
      "type": "error"
    },
    {
      "inputs": [],
      "name": "NotInitializing",
      "type": "error"
    },
    {
      "inputs": [
        {
          "internalType": "address",
          "name": "owner",
          "type": "address"
        }
      ],
      "name": "OwnableInvalidOwner",
      "type": "error"
    },
    {
      "inputs": [
        {
          "internalType": "address",
          "name": "account",
          "type": "address"
        }
      ],
      "name": "OwnableUnauthorizedAccount",
      "type": "error"
    },
    {
      "inputs": [],
      "name": "ReentrancyGuardReentrantCall",
      "type": "error"
    },
    {
      "inputs": [
        {
          "internalType": "address",
          "name": "token",
          "type": "address"
        }
      ],
      "name": "SafeERC20FailedOperation",
      "type": "error"
    },
    {
      "inputs": [],
      "name": "UUPSUnauthorizedCallContext",
      "type": "error"
    },
    {
      "inputs": [
        {
          "internalType": "bytes32",
          "name": "slot",
          "type": "bytes32"
        }
      ],
      "name": "UUPSUnsupportedProxiableUUID",
      "type": "error"
    },
    {
      "anonymous": false,
      "inputs": [
        {
          "indexed": true,
          "internalType": "address",
          "name": "bridge",
          "type": "address"
        }
      ],
      "name": "CrossChainBridgeSet",
      "type": "event"
    },
    {
      "anonymous": false,
      "inputs": [
        {
          "indexed": true,
          "internalType": "uint256",
          "name": "escrowId",
          "type": "uint256"
        },
        {
          "indexed": true,
          "internalType": "uint256",
          "name": "listingId",
          "type": "uint256"
        },
        {
          "indexed": true,
          "internalType": "uint256",
          "name": "targetChainId",
          "type": "uint256"
        }
      ],
      "name": "CrossChainEscrowInitiated",
      "type": "event"
    },
    {
      "anonymous": false,
      "inputs": [
        {
          "indexed": true,
          "internalType": "uint256",
          "name": "listingId",
          "type": "uint256"
        },
        {
          "indexed": true,
          "internalType": "uint256",
          "name": "targetChainId",
          "type": "uint256"
        },
        {
          "indexed": true,
          "internalType": "address",
          "name": "seller",
          "type": "address"
        }
      ],
      "name": "CrossChainListingCreated",
      "type": "event"
    },
    {
      "anonymous": false,
      "inputs": [
        {
          "indexed": true,
          "internalType": "uint256",
          "name": "escrowId",
          "type": "uint256"
        },
        {
          "indexed": false,
          "internalType": "string",
          "name": "proof",
          "type": "string"
        }
      ],
      "name": "DeliveryConfirmed",
      "type": "event"
    },
    {
      "anonymous": false,
      "inputs": [
        {
          "indexed": true,
          "internalType": "uint256",
          "name": "disputeId",
          "type": "uint256"
        },
        {
          "indexed": true,
          "internalType": "address",
          "name": "submitter",
          "type": "address"
        },
        {
          "indexed": false,
          "internalType": "uint256",
          "name": "evidenceIndex",
          "type": "uint256"
        },
        {
          "indexed": false,
          "internalType": "string",
          "name": "evidence",
          "type": "string"
        }
      ],
      "name": "DisputeEvidenceSubmitted",
      "type": "event"
    },
    {
      "anonymous": false,
      "inputs": [
        {
          "indexed": true,
          "internalType": "uint256",
          "name": "escrowId",
          "type": "uint256"
        }
      ],
      "name": "EscrowCancelled",
      "type": "event"
    },
    {
      "anonymous": false,
      "inputs": [
        {
          "indexed": true,
          "internalType": "uint256",
          "name": "escrowId",
          "type": "uint256"
        }
      ],
      "name": "EscrowCompleted",
      "type": "event"
    },
    {
      "anonymous": false,
      "inputs": [
        {
          "indexed": true,
          "internalType": "uint256",
          "name": "escrowId",
          "type": "uint256"
        },
        {
          "indexed": true,
          "internalType": "address",
          "name": "buyer",
          "type": "address"
        },
        {
          "indexed": true,
          "internalType": "address",
          "name": "seller",
          "type": "address"
        },
        {
          "indexed": false,
          "internalType": "uint256",
          "name": "amount",
          "type": "uint256"
        }
      ],
      "name": "EscrowCreated",
      "type": "event"
    },
    {
      "anonymous": false,
      "inputs": [
        {
          "indexed": true,
          "internalType": "uint256",
          "name": "escrowId",
          "type": "uint256"
        }
      ],
      "name": "EscrowDisputed",
      "type": "event"
    },
    {
      "anonymous": false,
      "inputs": [
        {
          "indexed": true,
          "internalType": "uint256",
          "name": "escrowId",
          "type": "uint256"
        }
      ],
      "name": "EscrowFunded",
      "type": "event"
    },
    {
      "anonymous": false,
      "inputs": [
        {
          "indexed": true,
          "internalType": "uint256",
          "name": "disputeId",
          "type": "uint256"
        },
        {
          "indexed": true,
          "internalType": "uint256",
          "name": "escrowId",
          "type": "uint256"
        },
        {
          "indexed": true,
          "internalType": "address",
          "name": "initiator",
          "type": "address"
        },
        {
          "indexed": false,
          "internalType": "string",
          "name": "reason",
          "type": "string"
        }
      ],
      "name": "FormalDisputeInitiated",
      "type": "event"
    },
    {
      "anonymous": false,
      "inputs": [
        {
          "indexed": true,
          "internalType": "uint256",
          "name": "disputeId",
          "type": "uint256"
        },
        {
          "indexed": true,
          "internalType": "address",
          "name": "winner",
          "type": "address"
        },
        {
          "indexed": false,
          "internalType": "string",
          "name": "resolutionNotes",
          "type": "string"
        }
      ],
      "name": "FormalDisputeResolved",
      "type": "event"
    },
    {
      "anonymous": false,
      "inputs": [
        {
          "indexed": false,
          "internalType": "uint64",
          "name": "version",
          "type": "uint64"
        }
      ],
      "name": "Initialized",
      "type": "event"
    },
    {
      "anonymous": false,
      "inputs": [
        {
          "indexed": true,
          "internalType": "uint256",
          "name": "listingId",
          "type": "uint256"
        },
        {
          "indexed": true,
          "internalType": "address",
          "name": "seller",
          "type": "address"
        },
        {
          "indexed": false,
          "internalType": "string",
          "name": "cropType",
          "type": "string"
        },
        {
          "indexed": false,
          "internalType": "uint256",
          "name": "quantity",
          "type": "uint256"
        }
      ],
      "name": "ListingCreated",
      "type": "event"
    },
    {
      "anonymous": false,
      "inputs": [
        {
          "indexed": true,
          "internalType": "uint256",
          "name": "listingId",
          "type": "uint256"
        },
        {
          "indexed": false,
          "internalType": "uint256",
          "name": "aiScore",
          "type": "uint256"
        }
      ],
      "name": "ListingUpdated",
      "type": "event"
    },
    {
      "anonymous": false,
      "inputs": [
        {
          "indexed": true,
          "internalType": "address",
          "name": "previousOwner",
          "type": "address"
        },
        {
          "indexed": true,
          "internalType": "address",
          "name": "newOwner",
          "type": "address"
        }
      ],
      "name": "OwnershipTransferred",
      "type": "event"
    },
    {
      "anonymous": false,
      "inputs": [
        {
          "indexed": false,
          "internalType": "address",
          "name": "account",
          "type": "address"
        }
      ],
      "name": "Paused",
      "type": "event"
    },
    {
      "anonymous": false,
      "inputs": [
        {
          "indexed": true,
          "internalType": "uint256",
          "name": "escrowId",
          "type": "uint256"
        },
        {
          "indexed": false,
          "internalType": "string",
          "name": "geoData",
          "type": "string"
        }
      ],
      "name": "ShipmentConfirmed",
      "type": "event"
    },
    {
      "anonymous": false,
      "inputs": [
        {
          "indexed": false,
          "internalType": "address",
          "name": "account",
          "type": "address"
        }
      ],
      "name": "Unpaused",
      "type": "event"
    },
    {
      "anonymous": false,
      "inputs": [
        {
          "indexed": true,
          "internalType": "address",
          "name": "implementation",
          "type": "address"
        }
      ],
      "name": "Upgraded",
      "type": "event"
    },
    {
      "inputs": [],
      "name": "UPGRADE_INTERFACE_VERSION",
      "outputs": [
        {
          "internalType": "string",
          "name": "",
          "type": "string"
        }
      ],
      "stateMutability": "view",
      "type": "function"
    },
    {
      "inputs": [
        {
          "internalType": "uint256",
          "name": "_listingId",
          "type": "uint256"
        },
        {
          "internalType": "bytes",
          "name": "_qualityData",
          "type": "bytes"
        }
      ],
      "name": "assessQualityWithOracle",
      "outputs": [],
      "stateMutability": "nonpayable",
      "type": "function"
    },
    {
      "inputs": [
        {
          "internalType": "uint256",
          "name": "_escrowId",
          "type": "uint256"
        }
      ],
      "name": "cancelEscrow",
      "outputs": [],
      "stateMutability": "nonpayable",
      "type": "function"
    },
    {
      "inputs": [
        {
          "internalType": "bytes",
          "name": "tradeData",
          "type": "bytes"
        }
      ],
      "name": "completeCrossChainTrade",
      "outputs": [],
      "stateMutability": "nonpayable",
      "type": "function"
    },
    {
      "inputs": [
        {
          "internalType": "uint256",
          "name": "_escrowId",
          "type": "uint256"
        }
      ],
      "name": "completeEscrow",
      "outputs": [],
      "stateMutability": "nonpayable",
      "type": "function"
    },
    {
      "inputs": [
        {
          "internalType": "uint256",
          "name": "_escrowId",
          "type": "uint256"
        },
        {
          "internalType": "string",
          "name": "_proof",
          "type": "string"
        },
        {
          "internalType": "uint256",
          "name": "_qualityScore",
          "type": "uint256"
        }
      ],
      "name": "confirmDelivery",
      "outputs": [],
      "stateMutability": "nonpayable",
      "type": "function"
    },
    {
      "inputs": [
        {
          "internalType": "uint256",
          "name": "_escrowId",
          "type": "uint256"
        },
        {
          "internalType": "string",
          "name": "_geoData",
          "type": "string"
        }
      ],
      "name": "confirmShipment",
      "outputs": [],
      "stateMutability": "nonpayable",
      "type": "function"
    },
    {
      "inputs": [
        {
          "components": [
            {
              "internalType": "string",
              "name": "cropType",
              "type": "string"
            },
            {
              "internalType": "uint256",
              "name": "quantity",
              "type": "uint256"
            },
            {
              "internalType": "uint256",
              "name": "pricePerUnit",
              "type": "uint256"
            },
            {
              "internalType": "string",
              "name": "location",
              "type": "string"
            },
            {
              "internalType": "uint256",
              "name": "harvestDate",
              "type": "uint256"
            },
            {
              "internalType": "uint256",
              "name": "expiryDate",
              "type": "uint256"
            },
            {
              "internalType": "string",
              "name": "geoData",
              "type": "string"
            }
          ],
          "internalType": "struct MarketplaceEscrow.BatchListing[]",
          "name": "_listings",
          "type": "tuple[]"
        }
      ],
      "name": "createBatchListings",
      "outputs": [
        {
          "internalType": "uint256[]",
          "name": "",
          "type": "uint256[]"
        }
      ],
      "stateMutability": "nonpayable",
      "type": "function"
    },
    {
      "inputs": [
        {
          "internalType": "uint256",
          "name": "targetChainId",
          "type": "uint256"
        },
        {
          "internalType": "string",
          "name": "_cropType",
          "type": "string"
        },
        {
          "internalType": "uint256",
          "name": "_quantity",
          "type": "uint256"
        },
        {
          "internalType": "uint256",
          "name": "_pricePerUnit",
          "type": "uint256"
        },
        {
          "internalType": "address",
          "name": "_paymentToken",
          "type": "address"
        }
      ],
      "name": "createCrossChainListing",
      "outputs": [
        {
          "internalType": "uint256",
          "name": "",
          "type": "uint256"
        }
      ],
      "stateMutability": "nonpayable",
      "type": "function"
    },
    {
      "inputs": [
        {
          "internalType": "address",
          "name": "_seller",
          "type": "address"
        },
        {
          "internalType": "uint256",
          "name": "_amount",
          "type": "uint256"
        },
        {
          "internalType": "address",
          "name": "_token",
          "type": "address"
        },
        {
          "internalType": "uint256",
          "name": "_listingId",
          "type": "uint256"
        },
        {
          "internalType": "string",
          "name": "_geoLocation",
          "type": "string"
        }
      ],
      "name": "createEscrow",
      "outputs": [
        {
          "internalType": "uint256",
          "name": "",
          "type": "uint256"
        }
      ],
      "stateMutability": "nonpayable",
      "type": "function"
    },
    {
      "inputs": [
        {
          "internalType": "string",
          "name": "_cropType",
          "type": "string"
        },
        {
          "internalType": "uint256",
          "name": "_quantity",
          "type": "uint256"
        },
        {
          "internalType": "uint256",
          "name": "_pricePerUnit",
          "type": "uint256"
        },
        {
          "internalType": "string",
          "name": "_location",
          "type": "string"
        },
        {
          "internalType": "uint256",
          "name": "_harvestDate",
          "type": "uint256"
        },
        {
          "internalType": "uint256",
          "name": "_expiryDate",
          "type": "uint256"
        },
        {
          "internalType": "string",
          "name": "_geoData",
          "type": "string"
        }
      ],
      "name": "createListing",
      "outputs": [
        {
          "internalType": "uint256",
          "name": "",
          "type": "uint256"
        }
      ],
      "stateMutability": "nonpayable",
      "type": "function"
    },
    {
      "inputs": [],
      "name": "crossChainBridge",
      "outputs": [
        {
          "internalType": "contract ICrossChainBridge",
          "name": "",
          "type": "address"
        }
      ],
      "stateMutability": "view",
      "type": "function"
    },
    {
      "inputs": [
        {
          "internalType": "uint256",
          "name": "",
          "type": "uint256"
        }
      ],
      "name": "crossChainEscrows",
      "outputs": [
        {
          "internalType": "uint256",
          "name": "id",
          "type": "uint256"
        },
        {
          "internalType": "uint256",
          "name": "sourceChainId",
          "type": "uint256"
        },
        {
          "internalType": "uint256",
          "name": "targetChainId",
          "type": "uint256"
        },
        {
          "internalType": "address",
          "name": "buyer",
          "type": "address"
        },
        {
          "internalType": "address",
          "name": "seller",
          "type": "address"
        },
        {
          "internalType": "uint256",
          "name": "amount",
          "type": "uint256"
        },
        {
          "internalType": "address",
          "name": "token",
          "type": "address"
        },
        {
          "internalType": "uint256",
          "name": "listingId",
          "type": "uint256"
        },
        {
          "internalType": "enum MarketplaceEscrow.EscrowStatus",
          "name": "status",
          "type": "uint8"
        },
        {
          "internalType": "bytes32",
          "name": "bridgeTxHash",
          "type": "bytes32"
        }
      ],
      "stateMutability": "view",
      "type": "function"
    },
    {
      "inputs": [
        {
          "internalType": "uint256",
          "name": "",
          "type": "uint256"
        }
      ],
      "name": "crossChainListings",
      "outputs": [
        {
          "internalType": "uint256",
          "name": "id",
          "type": "uint256"
        },
        {
          "internalType": "uint256",
          "name": "sourceChainId",
          "type": "uint256"
        },
        {
          "internalType": "address",
          "name": "sourceContract",
          "type": "address"
        },
        {
          "internalType": "uint256",
          "name": "sourceListingId",
          "type": "uint256"
        },
        {
          "internalType": "address",
          "name": "seller",
          "type": "address"
        },
        {
          "internalType": "string",
          "name": "cropType",
          "type": "string"
        },
        {
          "internalType": "uint256",
          "name": "quantity",
          "type": "uint256"
        },
        {
          "internalType": "uint256",
          "name": "pricePerUnit",
          "type": "uint256"
        },
        {
          "internalType": "address",
          "name": "paymentToken",
          "type": "address"
        },
        {
          "internalType": "bool",
          "name": "active",
          "type": "bool"
        },
        {
          "internalType": "uint256",
          "name": "createdAt",
          "type": "uint256"
        }
      ],
      "stateMutability": "view",
      "type": "function"
    },
    {
      "inputs": [
        {
          "internalType": "uint256",
          "name": "_listingId",
          "type": "uint256"
        }
      ],
      "name": "deactivateListing",
      "outputs": [],
      "stateMutability": "nonpayable",
      "type": "function"
    },
    {
      "inputs": [],
      "name": "deliveryOracle",
      "outputs": [
        {
          "internalType": "contract IDeliveryOracle",
          "name": "",
          "type": "address"
        }
      ],
      "stateMutability": "view",
      "type": "function"
    },
    {
      "inputs": [],
      "name": "disputePeriod",
      "outputs": [
        {
          "internalType": "uint256",
          "name": "",
          "type": "uint256"
        }
      ],
      "stateMutability": "view",
      "type": "function"
    },
    {
      "inputs": [
        {
          "internalType": "uint256",
          "name": "",
          "type": "uint256"
        }
      ],
      "name": "disputes",
      "outputs": [
        {
          "internalType": "uint256",
          "name": "escrowId",
          "type": "uint256"
        },
        {
          "internalType": "address",
          "name": "initiator",
          "type": "address"
        },
        {
          "internalType": "string",
          "name": "reason",
          "type": "string"
        },
        {
          "internalType": "uint256",
          "name": "evidenceCount",
          "type": "uint256"
        },
        {
          "internalType": "uint256",
          "name": "resolutionDeadline",
          "type": "uint256"
        },
        {
          "internalType": "bool",
          "name": "resolved",
          "type": "bool"
        },
        {
          "internalType": "address",
          "name": "winner",
          "type": "address"
        }
      ],
      "stateMutability": "view",
      "type": "function"
    },
    {
      "inputs": [
        {
          "internalType": "uint256",
          "name": "",
          "type": "uint256"
        }
      ],
      "name": "escrows",
      "outputs": [
        {
          "internalType": "uint256",
          "name": "id",
          "type": "uint256"
        },
        {
          "internalType": "address",
          "name": "buyer",
          "type": "address"
        },
        {
          "internalType": "address",
          "name": "seller",
          "type": "address"
        },
        {
          "internalType": "uint256",
          "name": "amount",
          "type": "uint256"
        },
        {
          "internalType": "address",
          "name": "token",
          "type": "address"
        },
        {
          "internalType": "enum MarketplaceEscrow.EscrowStatus",
          "name": "status",
          "type": "uint8"
        },
        {
          "internalType": "uint256",
          "name": "createdAt",
          "type": "uint256"
        },
        {
          "internalType": "uint256",
          "name": "shippedAt",
          "type": "uint256"
        },
        {
          "internalType": "uint256",
          "name": "deliveredAt",
          "type": "uint256"
        },
        {
          "internalType": "string",
          "name": "deliveryProof",
          "type": "string"
        },
        {
          "internalType": "string",
          "name": "geoLocation",
          "type": "string"
        },
        {
          "internalType": "uint256",
          "name": "qualityScore",
          "type": "uint256"
        },
        {
          "internalType": "bool",
          "name": "buyerConfirmed",
          "type": "bool"
        },
        {
          "internalType": "bool",
          "name": "sellerConfirmed",
          "type": "bool"
        },
        {
          "internalType": "uint256",
          "name": "disputeDeadline",
          "type": "uint256"
        }
      ],
      "stateMutability": "view",
      "type": "function"
    },
    {
      "inputs": [],
      "name": "feeCollector",
      "outputs": [
        {
          "internalType": "address",
          "name": "",
          "type": "address"
        }
      ],
      "stateMutability": "view",
      "type": "function"
    },
    {
      "inputs": [
        {
          "internalType": "uint256",
          "name": "_escrowId",
          "type": "uint256"
        }
      ],
      "name": "fundEscrow",
      "outputs": [],
      "stateMutability": "nonpayable",
      "type": "function"
    },
    {
      "inputs": [
        {
          "internalType": "uint256",
          "name": "_offset",
          "type": "uint256"
        },
        {
          "internalType": "uint256",
          "name": "_limit",
          "type": "uint256"
        }
      ],
      "name": "getActiveListings",
      "outputs": [
        {
          "components": [
            {
              "internalType": "uint256",
              "name": "id",
              "type": "uint256"
            },
            {
              "internalType": "address",
              "name": "seller",
              "type": "address"
            },
            {
              "internalType": "string",
              "name": "cropType",
              "type": "string"
            },
            {
              "internalType": "uint256",
              "name": "quantity",
              "type": "uint256"
            },
            {
              "internalType": "uint256",
              "name": "pricePerUnit",
              "type": "uint256"
            },
            {
              "internalType": "string",
              "name": "location",
              "type": "string"
            },
            {
              "internalType": "uint256",
              "name": "harvestDate",
              "type": "uint256"
            },
            {
              "internalType": "uint256",
              "name": "expiryDate",
              "type": "uint256"
            },
            {
              "internalType": "bool",
              "name": "active",
              "type": "bool"
            },
            {
              "internalType": "uint256",
              "name": "aiRecommendationScore",
              "type": "uint256"
            },
            {
              "internalType": "string",
              "name": "geoData",
              "type": "string"
            }
          ],
          "internalType": "struct MarketplaceEscrow.Listing[]",
          "name": "",
          "type": "tuple[]"
        }
      ],
      "stateMutability": "view",
      "type": "function"
    },
    {
      "inputs": [
        {
          "internalType": "uint256",
          "name": "_escrowId",
          "type": "uint256"
        }
      ],
      "name": "getEscrow",
      "outputs": [
        {
          "components": [
            {
              "internalType": "uint256",
              "name": "id",
              "type": "uint256"
            },
            {
              "internalType": "address",
              "name": "buyer",
              "type": "address"
            },
            {
              "internalType": "address",
              "name": "seller",
              "type": "address"
            },
            {
              "internalType": "uint256",
              "name": "amount",
              "type": "uint256"
            },
            {
              "internalType": "address",
              "name": "token",
              "type": "address"
            },
            {
              "internalType": "enum MarketplaceEscrow.EscrowStatus",
              "name": "status",
              "type": "uint8"
            },
            {
              "internalType": "uint256",
              "name": "createdAt",
              "type": "uint256"
            },
            {
              "internalType": "uint256",
              "name": "shippedAt",
              "type": "uint256"
            },
            {
              "internalType": "uint256",
              "name": "deliveredAt",
              "type": "uint256"
            },
            {
              "internalType": "string",
              "name": "deliveryProof",
              "type": "string"
            },
            {
              "internalType": "string",
              "name": "geoLocation",
              "type": "string"
            },
            {
              "internalType": "uint256",
              "name": "qualityScore",
              "type": "uint256"
            },
            {
              "internalType": "bool",
              "name": "buyerConfirmed",
              "type": "bool"
            },
            {
              "internalType": "bool",
              "name": "sellerConfirmed",
              "type": "bool"
            },
            {
              "internalType": "uint256",
              "name": "disputeDeadline",
              "type": "uint256"
            }
          ],
          "internalType": "struct MarketplaceEscrow.Escrow",
          "name": "",
          "type": "tuple"
        }
      ],
      "stateMutability": "view",
      "type": "function"
    },
    {
      "inputs": [
        {
          "internalType": "uint256",
          "name": "_listingId",
          "type": "uint256"
        }
      ],
      "name": "getListing",
      "outputs": [
        {
          "components": [
            {
              "internalType": "uint256",
              "name": "id",
              "type": "uint256"
            },
            {
              "internalType": "address",
              "name": "seller",
              "type": "address"
            },
            {
              "internalType": "string",
              "name": "cropType",
              "type": "string"
            },
            {
              "internalType": "uint256",
              "name": "quantity",
              "type": "uint256"
            },
            {
              "internalType": "uint256",
              "name": "pricePerUnit",
              "type": "uint256"
            },
            {
              "internalType": "string",
              "name": "location",
              "type": "string"
            },
            {
              "internalType": "uint256",
              "name": "harvestDate",
              "type": "uint256"
            },
            {
              "internalType": "uint256",
              "name": "expiryDate",
              "type": "uint256"
            },
            {
              "internalType": "bool",
              "name": "active",
              "type": "bool"
            },
            {
              "internalType": "uint256",
              "name": "aiRecommendationScore",
              "type": "uint256"
            },
            {
              "internalType": "string",
              "name": "geoData",
              "type": "string"
            }
          ],
          "internalType": "struct MarketplaceEscrow.Listing",
          "name": "",
          "type": "tuple"
        }
      ],
      "stateMutability": "view",
      "type": "function"
    },
    {
      "inputs": [],
      "name": "identityRegistry",
      "outputs": [
        {
          "internalType": "contract IdentityRegistry",
          "name": "",
          "type": "address"
        }
      ],
      "stateMutability": "view",
      "type": "function"
    },
    {
      "inputs": [
        {
          "internalType": "address",
          "name": "_identityRegistry",
          "type": "address"
        },
        {
          "internalType": "address",
          "name": "_deliveryOracle",
          "type": "address"
        },
        {
          "internalType": "address",
          "name": "_qualityOracle",
          "type": "address"
        },
        {
          "internalType": "address",
          "name": "_feeCollector",
          "type": "address"
        },
        {
          "internalType": "address",
          "name": "_crossChainBridge",
          "type": "address"
        }
      ],
      "name": "initialize",
      "outputs": [],
      "stateMutability": "nonpayable",
      "type": "function"
    },
    {
      "inputs": [
        {
          "internalType": "uint256",
          "name": "crossChainListingId",
          "type": "uint256"
        },
        {
          "internalType": "uint256",
          "name": "targetChainId",
          "type": "uint256"
        },
        {
          "internalType": "uint256",
          "name": "amount",
          "type": "uint256"
        }
      ],
      "name": "initiateCrossChainEscrow",
      "outputs": [
        {
          "internalType": "uint256",
          "name": "",
          "type": "uint256"
        }
      ],
      "stateMutability": "payable",
      "type": "function"
    },
    {
      "inputs": [
        {
          "internalType": "uint256",
          "name": "_escrowId",
          "type": "uint256"
        },
        {
          "internalType": "string",
          "name": "_reason",
          "type": "string"
        },
        {
          "internalType": "string",
          "name": "_initialEvidence",
          "type": "string"
        }
      ],
      "name": "initiateFormalDispute",
      "outputs": [
        {
          "internalType": "uint256",
          "name": "",
          "type": "uint256"
        }
      ],
      "stateMutability": "nonpayable",
      "type": "function"
    },
    {
      "inputs": [
        {
          "internalType": "uint256",
          "name": "",
          "type": "uint256"
        }
      ],
      "name": "listings",
      "outputs": [
        {
          "internalType": "uint256",
          "name": "id",
          "type": "uint256"
        },
        {
          "internalType": "address",
          "name": "seller",
          "type": "address"
        },
        {
          "internalType": "string",
          "name": "cropType",
          "type": "string"
        },
        {
          "internalType": "uint256",
          "name": "quantity",
          "type": "uint256"
        },
        {
          "internalType": "uint256",
          "name": "pricePerUnit",
          "type": "uint256"
        },
        {
          "internalType": "string",
          "name": "location",
          "type": "string"
        },
        {
          "internalType": "uint256",
          "name": "harvestDate",
          "type": "uint256"
        },
        {
          "internalType": "uint256",
          "name": "expiryDate",
          "type": "uint256"
        },
        {
          "internalType": "bool",
          "name": "active",
          "type": "bool"
        },
        {
          "internalType": "uint256",
          "name": "aiRecommendationScore",
          "type": "uint256"
        },
        {
          "internalType": "string",
          "name": "geoData",
          "type": "string"
        }
      ],
      "stateMutability": "view",
      "type": "function"
    },
    {
      "inputs": [],
      "name": "nextCrossChainEscrowId",
      "outputs": [
        {
          "internalType": "uint256",
          "name": "",
          "type": "uint256"
        }
      ],
      "stateMutability": "view",
      "type": "function"
    },
    {
      "inputs": [],
      "name": "nextCrossChainListingId",
      "outputs": [
        {
          "internalType": "uint256",
          "name": "",
          "type": "uint256"
        }
      ],
      "stateMutability": "view",
      "type": "function"
    },
    {
      "inputs": [],
      "name": "nextDisputeId",
      "outputs": [
        {
          "internalType": "uint256",
          "name": "",
          "type": "uint256"
        }
      ],
      "stateMutability": "view",
      "type": "function"
    },
    {
      "inputs": [],
      "name": "nextEscrowId",
      "outputs": [
        {
          "internalType": "uint256",
          "name": "",
          "type": "uint256"
        }
      ],
      "stateMutability": "view",
      "type": "function"
    },
    {
      "inputs": [],
      "name": "nextListingId",
      "outputs": [
        {
          "internalType": "uint256",
          "name": "",
          "type": "uint256"
        }
      ],
      "stateMutability": "view",
      "type": "function"
    },
    {
      "inputs": [],
      "name": "owner",
      "outputs": [
        {
          "internalType": "address",
          "name": "",
          "type": "address"
        }
      ],
      "stateMutability": "view",
      "type": "function"
    },
    {
      "inputs": [],
      "name": "pause",
      "outputs": [],
      "stateMutability": "nonpayable",
      "type": "function"
    },
    {
      "inputs": [],
      "name": "paused",
      "outputs": [
        {
          "internalType": "bool",
          "name": "",
          "type": "bool"
        }
      ],
      "stateMutability": "view",
      "type": "function"
    },
    {
      "inputs": [],
      "name": "platformFee",
      "outputs": [
        {
          "internalType": "uint256",
          "name": "",
          "type": "uint256"
        }
      ],
      "stateMutability": "view",
      "type": "function"
    },
    {
      "inputs": [],
      "name": "proxiableUUID",
      "outputs": [
        {
          "internalType": "bytes32",
          "name": "",
          "type": "bytes32"
        }
      ],
      "stateMutability": "view",
      "type": "function"
    },
    {
      "inputs": [],
      "name": "qualityOracle",
      "outputs": [
        {
          "internalType": "contract IQualityOracle",
          "name": "",
          "type": "address"
        }
      ],
      "stateMutability": "view",
      "type": "function"
    },
    {
      "inputs": [
        {
          "internalType": "uint256",
          "name": "_escrowId",
          "type": "uint256"
        }
      ],
      "name": "raiseDispute",
      "outputs": [],
      "stateMutability": "nonpayable",
      "type": "function"
    },
    {
      "inputs": [],
      "name": "renounceOwnership",
      "outputs": [],
      "stateMutability": "nonpayable",
      "type": "function"
    },
    {
      "inputs": [
        {
          "internalType": "uint256",
          "name": "_escrowId",
          "type": "uint256"
        },
        {
          "internalType": "bool",
          "name": "_refundBuyer",
          "type": "bool"
        }
      ],
      "name": "resolveDispute",
      "outputs": [],
      "stateMutability": "nonpayable",
      "type": "function"
    },
    {
      "inputs": [
        {
          "internalType": "uint256",
          "name": "_disputeId",
          "type": "uint256"
        },
        {
          "internalType": "bool",
          "name": "_refundBuyer",
          "type": "bool"
        },
        {
          "internalType": "string",
          "name": "_resolutionNotes",
          "type": "string"
        }
      ],
      "name": "resolveFormalDispute",
      "outputs": [],
      "stateMutability": "nonpayable",
      "type": "function"
    },
    {
      "inputs": [
        {
          "internalType": "address",
          "name": "_bridge",
          "type": "address"
        }
      ],
      "name": "setCrossChainBridge",
      "outputs": [],
      "stateMutability": "nonpayable",
      "type": "function"
    },
    {
      "inputs": [
        {
          "internalType": "uint256",
          "name": "_period",
          "type": "uint256"
        }
      ],
      "name": "setDisputePeriod",
      "outputs": [],
      "stateMutability": "nonpayable",
      "type": "function"
    },
    {
      "inputs": [
        {
          "internalType": "address",
          "name": "_collector",
          "type": "address"
        }
      ],
      "name": "setFeeCollector",
      "outputs": [],
      "stateMutability": "nonpayable",
      "type": "function"
    },
    {
      "inputs": [
        {
          "internalType": "uint256",
          "name": "_fee",
          "type": "uint256"
        }
      ],
      "name": "setPlatformFee",
      "outputs": [],
      "stateMutability": "nonpayable",
      "type": "function"
    },
    {
      "inputs": [
        {
          "internalType": "uint256",
          "name": "_disputeId",
          "type": "uint256"
        },
        {
          "internalType": "string",
          "name": "_evidence",
          "type": "string"
        }
      ],
      "name": "submitDisputeEvidence",
      "outputs": [],
      "stateMutability": "nonpayable",
      "type": "function"
    },
    {
      "inputs": [
        {
          "internalType": "address",
          "name": "newOwner",
          "type": "address"
        }
      ],
      "name": "transferOwnership",
      "outputs": [],
      "stateMutability": "nonpayable",
      "type": "function"
    },
    {
      "inputs": [],
      "name": "unpause",
      "outputs": [],
      "stateMutability": "nonpayable",
      "type": "function"
    },
    {
      "inputs": [
        {
          "internalType": "uint256",
          "name": "_listingId",
          "type": "uint256"
        },
        {
          "internalType": "uint256",
          "name": "_aiScore",
          "type": "uint256"
        }
      ],
      "name": "updateListingAIScore",
      "outputs": [],
      "stateMutability": "nonpayable",
      "type": "function"
    },
    {
      "inputs": [
        {
          "internalType": "address",
          "name": "newImplementation",
          "type": "address"
        },
        {
          "internalType": "bytes",
          "name": "data",
          "type": "bytes"
        }
      ],
      "name": "upgradeToAndCall",
      "outputs": [],
      "stateMutability": "payable",
      "type": "function"
    },
    {
      "inputs": [
        {
          "internalType": "uint256",
          "name": "_escrowId",
          "type": "uint256"
        },
        {
          "internalType": "bytes",
          "name": "_proof",
          "type": "bytes"
        }
      ],
      "name": "verifyDeliveryWithOracle",
      "outputs": [],
      "stateMutability": "nonpayable",
      "type": "function"
    }
  ],
  "bytecode": "0x60a08060405234604e5730608052600160055560016006556001600855601960095562093a80600b556001600e556001600f55615ea29081610054823960805181818161484f01526148e30152f35b600080fdfe6080604052600436101561001257600080fd5b60003560e01c8063012f52ee146152c85780630db39934146152aa578063107a274a1461525157806312e8e2c3146151f3578063134e18f4146151ca5780631459457a14614f9157806321c8fd6314614f2257806326232a2e14614f045780632cef657514614cb357806334b25ee214614ba85780633b8d915f14614b2c5780633f4ba83a14614aa95780634f1ef286146148a657806352d1902d1461483c57806353b166771461460f578063564a565d146145715780635bf31d4d146145535780635c975abb14614523578063715018a6146144b95780637a446ecb146141ef5780637d19e59614613f9f5780637f0ebb0314613f385780638456cb5914613eb257806384599baf1461388657806389cb29dd146138685780638da5cb5b1461383257806398cfbf201461310b5780639e1575b1146130ed578063a42dce80146130aa578063a475232714613081578063a5c1674e14612fbd578063a83ba53e14612f9c578063aaccf1ec14612f7e578063ad1cfb4b14612e92578063ad3cb1cc14612e4b578063ade039af14612d77578063b3e2656614612d4e578063b8917b3b14612d25578063c128b23114612ab7578063c415b95c14612a8e578063c7047a351461250f578063c9c31af5146123a2578063cb0cdafb14611fb8578063cb26446d14611f9a578063d24a0e9014611bb7578063d3bada991461195a578063d748dceb146118a7578063de74e57b146117b5578063df3e0a1d146115c7578063e018243614611403578063e05f0be9146109ed578063e0cb23b91461071a578063efab85641461029e5763f2fde38b1461026e57600080fd5b346102995760203660031901126102995761029761028a61561b565b610292615bf0565b615b7a565b005b600080fd5b346102995760a0366003190112610299576024356001600160401b038111610299576102ce90369060040161568e565b6064356102d9615647565b600054604051637b1d63b160e11b815233600482015291929190602090829060249082906001600160a01b03165afa9081156105af576000916106eb575b50156106ae57600e549161032a83615942565b600e556040516103398161542c565b838152466020808301918252306040808501918252600060608601818152336080880190815260a088018c815260443560c08a015260e089018b90526001600160a01b038a81166101008b015260016101208b01819052426101408c01528d8652600c909852949093208851815596519587019590955592516002860180546001600160a01b03199081169285169290921790559251600386015592516004850180549093169116179055518051919291906001600160401b0382116106985761040660058501546153f2565b601f811161064d575b50602090601f83116001146105c657946104de94600961014061050a968660009d9760209c978f9c61053a9d926105bb575b50508160011b918f199060031b1c19161760058501555b60c0810151600685015560e081015160078501556008840160018060a01b0360018060a01b0361010084015116166001600160601b0360a01b825416178155610120820151151581549060ff60a01b9060a01b169060ff60a01b19161790550151910155604051948593898986015233604086015260c0606086015260e0850190615536565b604435608085015260a08401929092526001600160a01b031660c083015203601f198101835282615464565b601054604051634e20205d60e11b81529586936001600160a01b0390921692849283913060048035908501615af2565b03925af180156105af5761057d575b60405160209133600435827f5fc2b1e07882a5d117d495dde3f0edd61820a491f610c3e225c3a5ad6e576092600080a48152f35b6020823d6020116105a7575b8161059660209383615464565b810103126102995760209150610549565b3d9150610589565b6040513d6000823e3d90fd5b015190508f80610441565b9060058501600052806000209160005b601f1985168110610635575094600961014061050a9660018760209c9760009f99976104de9c61053a9e99601f1981161061061c575b505050811b016005850155610458565b015160001960f88460031b161c191690558f808061060c565b919260206001819286850151815501940192016105d6565b600585016000526020600020601f840160051c8101916020851061068e575b601f0160051c01905b818110610682575061040f565b60008155600101610675565b909150819061066c565b634e487b7160e01b600052604160045260246000fd5b60405162461bcd60e51b81526020600482015260156024820152741259195b9d1a5d1e481b9bdd081d995c9a599a5959605a1b6044820152606490fd5b61070d915060203d602011610713575b6107058183615464565b810190615890565b84610317565b503d6106fb565b3461029957606036600319011261029957600435610736615702565b906044356001600160401b0381116102995761075690369060040161568e565b9161075f615bf0565b81600052600760205260406000206006810190815461078160ff821615615b1a565b600582015442116109a857600160ff198216811784559084156109895782546000526003602052818060a01b038260406000200154165b6101008360a81b039060081b16906affffffffffffffffffffff60a81b1617178255546107e3615bf0565b8060005260036020526040600020600481019081549060ff8260a01c16600781101561097357600503610938577f116cb6591d88cd94b850ef3e38a8943a6ffc59cd70bc43caccfc4a24bba0b63a95156108c1578254600182015460039092015461085c9350916001600160a01b039081169116615c26565b805460ff60a01b1916600160a21b1790556040519182916108bc91907f9285bd636dda01bef18996aa38303bb742f6c67a6941646dddb17630cb492c2e600080a254602080845260089190911c6001600160a01b03169690830190615536565b0390a3005b8060036108fd920154926108e56127106108dd600954876157e5565b0480956157f8565b6002909201546001600160a01b039081169116615c26565b80610909575b5061085c565b8154600080516020615dad8339815191525461093292916001600160a01b039182169116615c26565b86610903565b60405162461bcd60e51b8152602060048201526013602482015272115cd8dc9bddc81b9bdd08191a5cdc1d5d1959606a1b6044820152606490fd5b634e487b7160e01b600052602160045260246000fd5b82546000526003602052818060a01b03600260406000200154166107b8565b60405162461bcd60e51b815260206004820152601a60248201527f5265736f6c7574696f6e20646561646c696e65207061737365640000000000006044820152606490fd5b34610299576020366003190112610299576004356001600160401b03811161029957366023820112156102995780600401356001600160401b038111610299578101366024820111610299576010546001600160a01b031633036113c75760e09082900312610299576024810135610a6760648301615b66565b90610a7460848401615b66565b91610a8160c48501615b66565b9160018103610f5c575050506040908151610a9c8382615464565b6007815266189c9a5919d95960ca1b602082015260065492610abd84615942565b6006558051610acb8161542c565b848152602081019060018060a01b0385168252828101908482528387606083019460a48b013586526080840194600086526020968796855191610b0e8984615464565b6000835260a0880192835260c08801936000855260e0890195600087526101008a019760018952610b4a6101208c019a60008c52519d8e615464565b6000808e526101408c019d8e5290815260048c528d902099518a555160018a0180546001600160a01b0319166001600160a01b039290921691909117905551805160028a01916001600160401b0382116106985781908c610bab85546153f2565b601f8111610f08575b50508c90601f8311600114610ea257600092610e97575b50508160011b916000199060031b1c19161790555b51600388015551600487015551805160058701916001600160401b03821161069857610c0c83546153f2565b601f8111610e51575b508890601f8311600114610ddf579180610c73969492600a9a99989694600092610dd4575b50508160011b916000199060031b1c19161790555b516006860155516007850155511515600884019060ff801983541691151516179055565b516009820155019151908151916001600160401b03831161069857610c9884546153f2565b601f8111610d8e575b5081601f8411600114610d0d5750928260a49693600080516020615ded8339815191529896936108bc96600092610d02575b50508160011b916000199060031b1c19161790555b516001600160a01b03909316969293849301359083615a3a565b015190508b80610cd3565b9190601f1984168560005283600020936000905b828210610d7657505093600080516020615ded8339815191529896936108bc96936001938360a49b9810610d5d575b505050811b019055610ce8565b015160001960f88460031b161c191690558b8080610d50565b80600186978294978701518155019601940190610d21565b8460005282600020601f850160051c810191848610610dca575b601f0160051c01905b818110610dbe5750610ca1565b60008155600101610db1565b9091508190610da8565b015190503880610c3a565b90601f19831691846000528a6000209260005b8c828210610e3b575050926001928592600a9c9b9a9896610c739a989610610e22575b505050811b019055610c4f565b015160001960f88460031b161c19169055388080610e15565b6001859682939686015181550195019301610df2565b8360005289600020601f840160051c8101918b8510610e8d575b601f0160051c01905b818110610e815750610c15565b60008155600101610e74565b9091508190610e6b565b015190503880610bcb565b60008581528e81209350601f198516908f5b828210610ef1575050908460019594939210610ed8575b505050811b019055610be0565b015160001960f88460031b161c19169055388080610ecb565b60018596829396860151815501950193018f610eb4565b90919250846000528160002090601f850160051c8201928510610f52575b90601f859493920160051c01905b818110610f43578e9150610bb4565b60008155849350600101610f34565b9091508190610f26565b919390929091600214610f6b57005b60055490610f7882615942565b60055560405194610f8886615448565b82865260018060a01b038516602087015260018060a01b038216604087015260a4840135606087015260018060a01b03166080860152600160a08601524260c0860152600060e08601526000610100860152602090604051610fea8382615464565b600081526101208701526040516110018382615464565b6000808252610140880191909152610160870181905261018087018181526101a088018281526101c0890183815286845260038087526040948590208b51815560208c01516001820180546001600160a01b039283166001600160a01b031991821617909155968d015160028301805491831691891691909117905560608d01519282019290925560808c015160048201805491909316961695909517815560a08b0151919a916007811015610973576110ba916157c1565b60c0810151600585015560e081015160068501556101008101516007850155600884016101208201518051906001600160401b03821161069857819061110084546153f2565b601f8111611376575b508990601f831160011461131157600092611306575b50508160011b916000199060031b1c19161790555b600984016101408201518051906001600160401b0382116106985761115983546153f2565b601f81116112c0575b508890601f83116001146112295793600c9693837f9405ad0a6208539879349284d71265479b1623846f70303da1f9890d6e8c10a79c9d9e9f9794610160946111fd9860009261121e575b50508160011b916000199060031b1c19161790555b0151600a8701556111e6600b870192511515839060ff801983541691151516179055565b51815461ff00191690151560081b61ff0016179055565b5191015560405160a4959095013585526001600160a01b03908116951693a4005b0151905038806111ad565b90601f19831691846000528a6000209260005b8181106112a957507f9405ad0a6208539879349284d71265479b1623846f70303da1f9890d6e8c10a79c9d9e9f9794610160946111fd9894600c9b98948360019510611290575b505050811b0190556111c2565b015160001960f88460031b161c19169055388080611283565b92938c60018192878601518155019501930161123c565b8360005289600020601f840160051c8101918b85106112fc575b601f0160051c01905b8181106112f05750611162565b600081556001016112e3565b90915081906112da565b015190508d8061111f565b60008581528b81209350601f198516905b8c828210611360575050908460019594939210611347575b505050811b019055611134565b015160001960f88460031b161c191690558d808061133a565b6001859682939686015181550195019301611322565b9091508360005289600020601f840160051c8101918b85106113bd575b90601f859493920160051c01905b8181106113ae5750611109565b600081558493506001016113a1565b9091508190611393565b60405162461bcd60e51b815260206004820152601460248201527313db9b1e48189c9a5919d94818d85b8818d85b1b60621b6044820152606490fd5b346102995760203660031901126102995760043561141f615c66565b600081815260036020526040902060018101546001600160a01b03169033821480156115b1575b8015611590575b1561154b57600481019182549060ff8260a01c166007811015806109735760048214158061153d575b156115085761097357600181149081156114fd575b506114df575b5050815460ff60a01b1916600360a11b17909155507f0d977c6b1a383ac5ce532b4a668d0ef9ad38478e1a5ff28abb221f4b682b2643600080a26001600080516020615e2d83398151915255005b60036114f59301549160018060a01b0316615c26565b828080611491565b60029150148661148b565b60405162461bcd60e51b815260206004820152600d60248201526c10d85b9b9bdd0818d85b98d95b609a1b6044820152606490fd5b505060006005821415611476565b60405162461bcd60e51b815260206004820152601860248201527f4e6f7420617574686f72697a656420746f2063616e63656c00000000000000006044820152606490fd5b50600080516020615dad833981519152546001600160a01b0316331461144d565b5060028101546001600160a01b03163314611446565b34610299576020366003190112610299576004356115e3615c66565b8060005260036020526040600020600481019081549160ff8360a01c166007811015610973576003036117775760028201546001600160a01b03163381900361173257600c8301544211156116ed5761165f600b946003850154926116506127106108dd600954876157e5565b916001600160a01b0316615c26565b806116be575b50805460ff60a01b1916600160a21b17905501805461ff0019166101001790557f9285bd636dda01bef18996aa38303bb742f6c67a6941646dddb17630cb492c2e600080a26001600080516020615e2d83398151915255005b8154600080516020615dad833981519152546116e792916001600160a01b039182169116615c26565b84611665565b60405162461bcd60e51b815260206004820152601860248201527f4469737075746520706572696f64206e6f7420656e64656400000000000000006044820152606490fd5b60405162461bcd60e51b815260206004820152601860248201527f4f6e6c792073656c6c65722063616e20636f6d706c65746500000000000000006044820152606490fd5b60405162461bcd60e51b815260206004820152601660248201527511195b1a5d995c9e481b9bdd0818dbdb999a5c9b595960521b6044820152606490fd5b346102995760203660031901126102995760048035600090815260209190915260409020805460018201546001600160a01b0316916117f660028201615485565b9060038101549060048101546005820161180f90615485565b92600683015493600784015491600885015460ff1693600986015495600a0161183790615485565b976040519a8b9a8b5260208b015260408a0161016090526101608a0161185c91615536565b9160608a0152608089015287810360a089015261187891615536565b9360c087015260e086015215156101008501526101208401528281036101408401526118a391615536565b0390f35b3461029957602036600319011261029957600435600052600d6020526101406040600020805490611952600182015491600281015460018060a01b0360038301541660018060a01b0360048401541660058401549060018060a01b0360068601541692600786015494600960ff600889015416970154986040519a8b5260208b015260408a01526060890152608088015260a087015260c086015260e0850152610100840190615529565b610120820152f35b3461029957611968366156d3565b90806000526007602052604060002061198860ff60068301541615615b1a565b60058101544211611b6757805460005260036020526119c2604060002060018060a01b036001820154163314908115611b50575b50615805565b6003810160048154928360005201602052604060002084516001600160401b038111610698576119f282546153f2565b601f8111611b08575b506020601f8211600114611a805790807f686ab94578a695671340d8351793c5ceb7a1441f3a491efe012aeba609cf8fca95949392600091611a75575b508160011b916000199060031b1c19161790555b611a568154615942565b905560405190815260406020820152806108bc33956040830190615536565b905087015188611a38565b601f1982169083600052806000209160005b818110611af057509183917f686ab94578a695671340d8351793c5ceb7a1441f3a491efe012aeba609cf8fca9796959460019410611ad7575b5050811b019055611a4c565b89015160001960f88460031b161c191690558880611acb565b9192602060018192868d015181550194019201611a92565b826000526020600020601f830160051c81019160208410611b46575b601f0160051c01905b818110611b3a57506119fb565b60008155600101611b2d565b9091508190611b24565b600201546001600160a01b031633149050856119bc565b60405162461bcd60e51b815260206004820152602260248201527f45766964656e6365207375626d697373696f6e20706572696f64206578706972604482015261195960f21b6064820152608490fd5b606036600319011261029957600435600052600c6020526040600020611be660ff600883015460a01c16615901565b604435600682015410611f5d57600f5490611c0082615942565b600f556004810154600882015460405193916001600160a01b03918216911661014085016001600160401b038111868210176106985760409081528386524660208088019182526024358884019081523360608a0190815260808a0195865260443560a08b0190815260c08b019788526004803560e08d0190815260006101008e018181526101208f018290528c8252600d909752979097208c518155955160018701559251600286015590516003850180546001600160a01b03199081166001600160a01b03938416179091559651928501805488169382169390931790925551600584015594516006830180549095169516949094179092555160078083019190915591519490916008830190861015610973576009916101209160009760ff8019835416911617905501519101558260018060a01b036008840154168015600014611ed0575050611d5a60078301546044356157e5565b3410611e94576020611dfa84935b60018060a01b0360048201541690611d8660078201546044356157e5565b90600860018060a01b0391015416906040519286868501523360408501526060840152608083015260a082015260043560c082015260c08152611dca60e082615464565b601054604051634e20205d60e11b81529687936001600160a01b0390921692849283913060243560048501615af2565b03925af18015611e89578290611e52575b60209350818352600d845260096040842001556040519160243590827f0efc1ba3e8605b00fbae133cdae9c708eacbd5b0301ed4788ee7c753dd087d1d6004359280a48152f35b506020833d602011611e81575b81611e6c60209383615464565b81010312611e7d5760209251611e0b565b5080fd5b3d9150611e5f565b6040513d84823e3d90fd5b60405162461bcd60e51b8152602060048201526014602482015273125b9cdd59999a58da595b9d081c185e5b595b9d60621b6044820152606490fd5b926020611f188395611ee860078501546044356157e5565b6040516323b872dd60e01b8152336004820152306024820152604481019190915294859283919082906064820190565b03925af1908115611f5257602092611dfa92611f35575b50611d68565b611f4b90843d8611610713576107058183615464565b5086611f2f565b6040513d86823e3d90fd5b60405162461bcd60e51b8152602060048201526015602482015274496e73756666696369656e74207175616e7469747960581b6044820152606490fd5b34610299576000366003190112610299576020600e54604051908152f35b34610299576060366003190112610299576004356024356001600160401b03811161029957611feb90369060040161568e565b906044356001600160401b0381116102995761200b90369060040161568e565b918160005260036020526040600020600481019060ff825460a01c1690600782101561097357612040600361206d9314615a56565b612050600c820154421115615aad565b60018101546001600160a01b0316331490811561238b5750615805565b805460ff60a01b1916600560a01b1790556008549061208b82615942565b60085560008281526007602052604090208381556001810180546001600160a01b03191633179055815190949060028601906001600160401b038111610698576120d582546153f2565b601f8111612343575b50806020601f82116001146122e0576000916122d5575b508160011b916000199060031b1c19161790555b6001600386015560008052600485016020526040600020908051906001600160401b03821161069857819061213e84546153f2565b601f8111612282575b50602090601f831160011461221d57600092612212575b50508160011b916000199060031b1c19161790555b6212750042018042116121fc5784600691600560209701550160ff19815416905582827f719d16ff7b1a36e969069386baa6fa0b81ddba5e924a156e401d49839eaeceec604051878152806121cc33968a830190615536565b0390a4604051917f7ce7831fed9a800b1aa5e7ca21034bf7b95efc31a196459012cf8b8eb42b7dac600080a28152f35b634e487b7160e01b600052601160045260246000fd5b01519050878061215e565b60008581528281209350601f198516905b81811061226a5750908460019594939210612251575b505050811b019055612173565b015160001960f88460031b161c19169055878080612244565b9293602060018192878601518155019501930161222e565b909150836000526020600020601f840160051c810191602085106122cb575b90601f859493920160051c01905b8181106122bc5750612147565b600081558493506001016122af565b90915081906122a1565b9050840151886120f5565b60008481528181209250601f198416905b81811061232b57509083600194939210612312575b5050811b019055612109565b86015160001960f88460031b161c191690558880612306565b9192602060018192868b0151815501940192016122f1565b826000526020600020601f830160051c81019160208410612381575b601f0160051c01905b81811061237557506120de565b60008155600101612368565b909150819061235f565b600201546001600160a01b031633149050866119bc565b34610299576020366003190112610299576004356123be615c66565b8060005260036020526040600020600481019081549060ff8260a01c166007811015610973576124ca5760018101546001600160a01b0316330361248f57600301546040516323b872dd60e01b602082015233602482015230604482015260648082019290925290815261244591612437608483615464565b6001600160a01b0316615cd0565b805460ff60a01b1916600160a01b1790557f3b4f5a74452cddb80ae5a0d279eb7db6afd5e556e72ca2883016b1da7c9d2116600080a26001600080516020615e2d83398151915255005b60405162461bcd60e51b815260206004820152601360248201527213db9b1e48189d5e595c8818d85b88199d5b99606a1b6044820152606490fd5b60405162461bcd60e51b815260206004820152601b60248201527f457363726f77206e6f7420696e206372656174656420737461746500000000006044820152606490fd5b346102995760e0366003190112610299576004356001600160401b0381116102995761253f90369060040161568e565b60243590604435906064356001600160401b0381116102995761256690369060040161568e565b9160843560a4359360c4356001600160401b0381116102995761258d90369060040161568e565b600054604051637b1d63b160e11b815233600482015291949190602090829060249082906001600160a01b03165afa80156105af576125d491600091612a6f575b506158bf565b6125df87151561597b565b6125ea8115156159be565b6125f58684106159fe565b6006549561260287615942565b600655604051936126128561542c565b87855260208501933385526040860193888552606087018b81526080880191825260a0880192835260c0880193845260e0880194855261010088019560018752610120890197600089526101408a019a8b528c6000526004602052604060002099518a5560018060a01b0390511660018a019060018060a01b03166001600160601b0360a01b8254161790556002890190518051906001600160401b0382116106985781906126c184546153f2565b601f8111612a1c575b50602090601f83116001146129b7576000926129ac575b50508160011b916000199060031b1c19161790555b51600388015551600487015551805160058701916001600160401b0382116106985761272283546153f2565b601f8111612964575b50602090601f83116001146128f3579180612788969492600a9a999896946000926128e85750508160011b916000199060031b1c1916179055516006860155516007850155511515600884019060ff801983541691151516179055565b5160098201550190518051906001600160401b038211610698576127ac83546153f2565b601f81116128a0575b50916020959185938790601f831160011461282357918061280d9492600080516020615ded8339815191529694600092612818575b50508160011b916000199060031b1c19161790555b604051918291339683615a3a565b0390a3604051908152f35b015190508a806127ea565b90601f1983169184600052816000209260005b8181106128865750926001928592600080516020615ded833981519152989661280d98961061286d575b505050811b0190556127ff565b015160001960f88460031b161c191690558a8080612860565b8284015185558a9850600190940193928b01928b01612836565b836000526020600020601f840160051c810191602085106128de575b601f0160051c01905b8181106128d257506127b5565b600081556001016128c5565b90915081906128bc565b015190508e80610c3a565b90601f1983169184600052816000209260005b81811061294c5750926001928592600a9c9b9a98966127889a98961061293357505050811b019055610c4f565b015160001960f88460031b161c191690558e8080610e15565b92936020600181928786015181550195019301612906565b836000526020600020601f840160051c810191602085106129a2575b601f0160051c01905b818110612996575061272b565b60008155600101612989565b9091508190612980565b015190508f806126e1565b60008581528281209350601f198516905b818110612a0457509084600195949392106129eb575b505050811b0190556126f6565b015160001960f88460031b161c191690558f80806129de565b929360206001819287860151815501950193016129c8565b909150836000526020600020601f840160051c81019160208510612a65575b90601f859493920160051c01905b818110612a5657506126ca565b60008155849350600101612a49565b9091508190612a3b565b612a88915060203d602011610713576107058183615464565b896125ce565b3461029957600036600319011261029957600a546040516001600160a01b039091168152602090f35b3461029957612ac53661565d565b6006549082600060015b848110612ce95750612ae182826157f8565b831115612ce157612af292506157f8565b915b612afd83615711565b92612b0b6040519485615464565b808452612b1a601f1991615711565b0160005b818110612cca57505060008060015b84811080612cc0575b15612c585780600052600460205260ff60086040600020015416612b63575b612b5e90615942565b612b2d565b9183811015612b81575b612b79612b5e91615942565b929050612b55565b90612b79612c4f612b5e928560005260046020526040600020612c2e600a60405192612bac8461542c565b8054845260018101546001600160a01b03166020850152612bcf60028201615485565b60408501526003810154606085015260048101546080850152612bf460058201615485565b60a0850152600681015460c0850152600781015460e085015260ff6008820154161515610100850152600981015461012085015201615485565b610140820152612c3e828b615951565b52612c49818a615951565b50615942565b92915050612b6d565b856040518091602082016020835281518091526040830190602060408260051b8601019301916000905b828210612c9157505050500390f35b91936001919395506020612cb08192603f198a82030186528851615577565b9601920192018594939192612c82565b5085518210612b36565b602090612cd5615728565b82828801015201612b1e565b505091612af4565b80919250600052600460205260ff60086040600020015416612d11575b600101908491612acf565b90612d1d600191615942565b919050612d06565b34610299576000366003190112610299576001546040516001600160a01b039091168152602090f35b34610299576000366003190112610299576010546040516001600160a01b039091168152602090f35b3461029957602036600319011261029957600435600052600c6020526040600020805460018201549160018060a01b0360028201541660ff60038301549260018060a01b0360048201541693612e18612dd260058401615485565b60068401549660078501549360096008870154960154976040519b8c9b8c5260208c015260408b015260608a0152608089015261016060a0890152610160880190615536565b60c087019590955260e08601526001600160a01b03811661010086015260a01c1615156101208401526101408301520390f35b34610299576000366003190112610299576118a36040805190612e6e8183615464565b60058252640352e302e360dc1b602083015251918291602083526020830190615536565b3461029957612ef560006020612ea7366156d3565b612eb2949194615bf0565b84845260048352612ec860408520541515615781565b60025460405163fd2be2df60e01b81529485936001600160a01b03909216928492839189600484016158a8565b03925af19081156105af57600091612f48575b5060207f66bcde9f7aec9b81719a4fdec54cbafbf6c834d1f2f989d9cd2134dab8d0c0de91836000526004825280600960406000200155604051908152a2005b906020823d602011612f76575b81612f6260209383615464565b81010312612f735750516020612f08565b80fd5b3d9150612f55565b34610299576000366003190112610299576020600654604051908152f35b3461029957602036600319011261029957612fb5615bf0565b600435600b55005b34610299576020366003190112610299576004358060005260036020526040600020600481019060ff825460a01c169060078210156109735761300560036130329314615a56565b613015600c820154421115615aad565b60018101546001600160a01b0316331490811561306a5750615805565b805460ff60a01b1916600560a01b1790557f7ce7831fed9a800b1aa5e7ca21034bf7b95efc31a196459012cf8b8eb42b7dac600080a2005b600201546001600160a01b031633149050846119bc565b34610299576000366003190112610299576002546040516001600160a01b039091168152602090f35b34610299576020366003190112610299576130c361561b565b6130cb615bf0565b600a80546001600160a01b0319166001600160a01b0392909216919091179055005b34610299576000366003190112610299576020600f54604051908152f35b34610299576020366003190112610299576004356001600160401b038111610299573660238201121561029957806004013561314681615711565b916131546040519384615464565b8183526024602084019260051b820101903682116102995760248101925b82841061374857600054604051637b1d63b160e11b81523360048201528691602090829060249082906001600160a01b03165afa80156105af576131bd9160009161372957506158bf565b80516131e16131cb82615711565b916131d96040519384615464565b808352615711565b601f19013660208301376000915b80518310156136e3576132028382615951565b51926132136020850151151561597b565b6040840193613224855115156159be565b6080810180519561323b60a08401978851116159fe565b6006549161324883615942565b60065583519760208501519251916060860151905191519260c0870151946040519b6132738d61542c565b878d528c60203391015260408d015260608c015260808b015260a08a015260c089015260e08801526001610100880152600061012088015261014087015280600052600460205260406000208651815560018060a01b03602088015116600182019060018060a01b03166001600160601b0360a01b82541617905560408701518051906001600160401b03821161069857819061331360028501546153f2565b601f811161368d575b50602090601f831160011461362157600092613616575b50508160011b916000199060031b1c19161760028201555b60608701516003820155608087015160048201556005810160a08801518051906001600160401b0382116106985761338383546153f2565b601f81116135ce575b50602090601f8311600114613560579180600a94926101409694600092613555575b50508160011b916000199060031b1c19161790555b60c0890151600682015560e089015160078201556133f76101008a01511515600883019060ff801983541691151516179055565b6101208901516009820155019601519586516001600160401b0381116106985761342182546153f2565b601f811161350d575b506020601f82116001146134a45781906001979899600092613499575b5050600019600383901b1c191690861b1790555b806134668488615951565b52600080516020615ded83398151915261348e60208451940151604051918291339683615a3a565b0390a30191906131ef565b015190508980613447565b601f1982169883600052816000209960005b8181106134f5575091600198999a91848a9594106134dc575b505050811b01905561345b565b015160001960f88460031b161c191690558980806134cf565b929a6020600181928e8601518155019c0193016134b6565b826000526020600020601f830160051c8101916020841061354b575b601f0160051c01905b81811061353f575061342a565b60008155600101613532565b9091508190613529565b015190508c806133ae565b90601f1983169184600052816000209260005b8181106135b657509260019285926101409896600a98961061359d575b505050811b0190556133c3565b015160001960f88460031b161c191690558c8080613590565b92936020600181928786015181550195019301613573565b836000526020600020601f840160051c8101916020851061360c575b601f0160051c01905b818110613600575061338c565b600081556001016135f3565b90915081906135ea565b015190508980613333565b6002850160009081528281209350601f198516905b818110613675575090846001959493921061365c575b505050811b01600282015561334b565b015160001960f88460031b161c1916905589808061364c565b92936020600181928786015181550195019301613636565b909150600284016000526020600020601f840160051c810191602085106136d9575b90601f859493920160051c01905b8181106136ca575061331c565b600081558493506001016136bd565b90915081906136af565b5060405180916020820160208352815180915260206040840192019060005b818110613710575050500390f35b8251845285945060209384019390920191600101613702565b613742915060203d602011610713576107058183615464565b836125ce565b83356001600160401b03811161029957820160e06023198236030112610299576040519160e083018381106001600160401b038211176106985760405260248201356001600160401b038111610299576137a8906024369185010161568e565b8352604482013560208401526064820135604084015260848201356001600160401b038111610299576137e1906024369185010161568e565b606084015260a4820135608084015260c482013560a084015260e4820135926001600160401b0384116102995761382260209493602486953692010161568e565b60c0820152815201930192613172565b3461029957600036600319011261029957600080516020615dad833981519152546040516001600160a01b039091168152602090f35b34610299576000366003190112610299576020600554604051908152f35b346102995760a03660031901126102995761389f61561b565b6024356138aa615631565b91606435916084356001600160401b038111610299576138ce90369060040161568e565b9260018060a01b036000541692604051637b1d63b160e11b8152336004820152602081602481885afa9081156105af57600091613e93575b5015613e5957604051637b1d63b160e11b81526001600160a01b039091166004820181905293602090829060249082905afa80156105af5761394f91600091613e3a57506158bf565b8115613e005780600052600460205261397260ff60086040600020015416615901565b6000908152600460205260409020600101546001600160a01b0316829003613dbb57600554926139a184615942565b600555836040516139b181615448565b8181526020810192338452604082019186835260608101918683526080820199600160a01b60019003168a5260a08201926000845260c0830142815260e08401600081526101008501916000835260209d8e9760405195613a128a88615464565b600087526101208901968752610140890197885261016089019860008a5261018081019b60008d526101a082019b60008d526101c083019e8f600090526000526003905260406000209e8f92518355600160a01b600190039051166001830190600160a01b60019003166001600160601b0360a01b825416179055600160a01b600190039051169060020190600160a01b60019003166001600160601b0360a01b8254161790555160038d015560048c0191600160a01b6001900390600160a01b60019003905116166001600160601b0360a01b83541617825551600781101561097357613aff916157c1565b5160058a015551600689015551600788015551805160088801916001600160401b038211610698578c8291613b3485546153f2565b601f8111613d60575b5081601f8411600114613cfa5750600092613cef575b50508160011b916000199060031b1c19161790555b51805160098701916001600160401b038211610698578b613b8984546153f2565b601f8111613ca7575b50508b908c601f8411600114613c3457509180613bf1969492600c99989694600092613c29575b50508160011b916000199060031b1c19161790555b51600a8701556111e6600b870192511515839060ff801983541691151516179055565b51910155604051908152827f9405ad0a6208539879349284d71265479b1623846f70303da1f9890d6e8c10a7853393a4604051908152f35b015190508e80613bb9565b9190601f1984168560005283600020936000905b828210613c8f575050926001928592600c9b9a9896613bf19a989610613c76575b505050811b019055613bce565b015160001960f88460031b161c191690558e8080613c69565b80600186978294978701518155019601940190613c48565b846000528160002090601f850160051c8201928510613ce5575b601f0160051c01905b818110613cd9578d9150613b92565b60008155600101613cca565b9091508190613cc1565b015190508d80613b53565b60008681528181209450601f198616915b828210613d48575050908460019594939210613d2f575b505050811b019055613b68565b015160001960f88460031b161c191690558d8080613d22565b80600186978294978701518155019601940190613d0b565b909250846000528160002090601f850160051c8201928510613db1575b918f9291601f8695930160051c01905b818110613d9a5750613b3d565b90925060019193506000815501918e918493613d8d565b9091508190613d7d565b60405162461bcd60e51b815260206004820152601a60248201527f496e76616c69642073656c6c657220666f72206c697374696e670000000000006044820152606490fd5b60405162461bcd60e51b81526020600482015260126024820152710416d6f756e74206d757374206265203e20360741b6044820152606490fd5b613e53915060203d602011610713576107058183615464565b876125ce565b60405162461bcd60e51b8152602060048201526012602482015271109d5e595c881b9bdd081d995c9a599a595960721b6044820152606490fd5b613eac915060203d602011610713576107058183615464565b87613906565b3461029957600036600319011261029957613ecb615bf0565b600080516020615e0d8339815191525460ff8116613f275760019060ff191617600080516020615e0d833981519152557f62e78cea01bee320cd4e420270b5ea74000d11b0c9f74754ebdbfc544b05a2586020604051338152a1005b63d93c066560e01b60005260046000fd5b3461029957602036600319011261029957613f5161561b565b613f59615bf0565b601080546001600160a01b0319166001600160a01b039290921691821790557f114be21c75640466cbc0aaabbcc6f9ccf7217e6eb0294901fd357e0f78924f8e600080a2005b346102995760203660031901126102995760006101c0604051613fc181615448565b8281528260208201528260408201528260608201528260808201528260a08201528260c08201528260e082015282610100820152606061012082015260606101408201528261016082015282610180820152826101a08201520152600435600052600360205260406000206040519061403982615448565b8054825260018101546001600160a01b0390811660208401908152600283015482166040850190815260038401546060860190815260048501549384166080870190815291959294919390919060a080850191901c60ff166007811015610973578152600582015460c08501908152600683015460e0860190815260078401546101008701908152906140ce60088601615485565b6101208801908152926140e360098701615485565b946101408901958652600a870154996101608a019a8b52600b880154986101808b019860ff8b1615158a526101a08c019a60081c60ff1615158b52600c01549a6101c081019b8c526040519e8f9e8f9260208452516020840152600160a01b600190039051166040830152600160a01b6001900390511690606001525160808d0152600160a01b6001900390511660a08c01525160c08b0161418491615529565b5160e08a015251610100890152516101208801525161014087016101e0905261020087016141b191615536565b9051868203601f19016101608801526141ca9190615536565b93516101808601525115156101a08501525115156101c0840152516101e08301520390f35b34610299576141fd366156d3565b81600052600360205260406000206004810160ff815460a01c16600781101561097357600261422c9114615842565b60018201546001600160a01b0316330361447457600154604051636bcef6f360e01b81529060209082906001600160a01b0316816000816142718a8c600484016158a8565b03925af19081156105af57600091614455575b501561441057805460ff60a01b1916600360a01b179055426007820155815160088201906001600160401b038111610698576142c082546153f2565b601f81116143c8575b506020601f821160011461434f57918161433f9492600080516020615d8d8339815191529694600091614344575b508160011b916000199060031b1c19161790555b600b8101600160ff19825416179055600c614328600b5442615883565b910155604051918291602083526020830190615536565b0390a2005b9050840151886142f7565b601f1982169083600052806000209160005b8181106143b0575092600080516020615d8d8339815191529694926001928261433f989610614397575b5050811b01905561430b565b86015160001960f88460031b161c19169055888061438b565b9192602060018192868b015181550194019201614361565b826000526020600020601f830160051c81019160208410614406575b601f0160051c01905b8181106143fa57506142c9565b600081556001016143ed565b90915081906143e4565b60405162461bcd60e51b815260206004820152601c60248201527f44656c697665727920766572696669636174696f6e206661696c6564000000006044820152606490fd5b61446e915060203d602011610713576107058183615464565b85614284565b60405162461bcd60e51b815260206004820152601e60248201527f4f6e6c792062757965722063616e207665726966792064656c697665727900006044820152606490fd5b34610299576000366003190112610299576144d2615bf0565b600080516020615dad83398151915280546001600160a01b031981169091556000906001600160a01b03167f8be0079c531659141344cd1fd0a4f28419497f9722a3daafe3b4186f6b6457e08280a3005b3461029957600036600319011261029957602060ff600080516020615e0d83398151915254166040519015158152f35b34610299576000366003190112610299576020600b54604051908152f35b34610299576020366003190112610299576004356000908152600760205260409020805460018201546001600160a01b0316916145b060028201615485565b6003820154916145e260066005830154920154926040519687968752602087015260e0604087015260e0860190615536565b6060850193909352608084015260ff8116151560a084015260081c6001600160a01b031660c08301520390f35b34610299576060366003190112610299576004356024356001600160401b0381116102995761464290369060040161568e565b81600052600360205260406000206004810160ff815460a01c1660078110156109735760026146719114615842565b60018201546001600160a01b031633036147f757805460ff60a01b1916600360a01b179055426007820155815160088201906001600160401b038111610698576146bb82546153f2565b601f81116147af575b506020601f821160011461473657918161433f9492600080516020615d8d833981519152969460009161472b575b508160011b916000199060031b1c19161790555b604435600a820155600b8101600160ff19825416179055600c614328600b5442615883565b9050840151886146f2565b601f1982169083600052806000209160005b818110614797575092600080516020615d8d8339815191529694926001928261433f98961061477e575b5050811b019055614706565b86015160001960f88460031b161c191690558880614772565b9192602060018192868b015181550194019201614748565b826000526020600020601f830160051c810191602084106147ed575b601f0160051c01905b8181106147e157506146c4565b600081556001016147d4565b90915081906147cb565b60405162461bcd60e51b815260206004820152601f60248201527f4f6e6c792062757965722063616e20636f6e6669726d2064656c6976657279006044820152606490fd5b34610299576000366003190112610299577f00000000000000000000000000000000000000000000000000000000000000006001600160a01b03163003614895576020604051600080516020615dcd8339815191528152f35b63703e46dd60e11b60005260046000fd5b6040366003190112610299576148ba61561b565b6024356001600160401b038111610299576148d990369060040161568e565b6001600160a01b037f000000000000000000000000000000000000000000000000000000000000000016308114908115614a86575b506148955761491b615bf0565b6040516352d1902d60e01b81526001600160a01b0383169290602081600481875afa60009181614a52575b506149605783634c9c8ce360e01b60005260045260246000fd5b80600080516020615dcd833981519152859203614a3e5750813b15614a2a57600080516020615dcd83398151915280546001600160a01b031916821790557fbc7cd75a20ee27fd9adebab32041f755214dbc6bffa90cc0225b39da2e5c2d3b600080a2815115614a105760008083602061029795519101845af43d15614a08573d916149eb83615673565b926149f96040519485615464565b83523d6000602085013e615d2b565b606091615d2b565b505034614a1957005b63b398979f60e01b60005260046000fd5b634c9c8ce360e01b60005260045260246000fd5b632a87526960e21b60005260045260246000fd5b9091506020813d602011614a7e575b81614a6e60209383615464565b8101031261029957519085614946565b3d9150614a61565b600080516020615dcd833981519152546001600160a01b0316141590508361490e565b3461029957600036600319011261029957614ac2615bf0565b600080516020615e0d8339815191525460ff811615614b1b5760ff1916600080516020615e0d833981519152557f5db9ee0a495bf2e6ff9c91a7834c1ba4fdd244a5e8aa4e537bd38aeae4b073aa6020604051338152a1005b638dfc202b60e01b60005260046000fd5b346102995760203660031901126102995760043580600052600460205260018060a01b036001604060002001541633148015614b87575b614b6c90615805565b6000908152600460205260409020600801805460ff19169055005b50600080516020615dad833981519152546001600160a01b03163314614b63565b3461029957604036600319011261029957600435614bc4615702565b614bcc615bf0565b816000526003602052604060002090600482019182549160ff8360a01c166007811015610973576005036109385715614c5c5782546001820154600390920154614c249350916001600160a01b039081169116615c26565b805460ff60a01b1916600160a21b1790557f9285bd636dda01bef18996aa38303bb742f6c67a6941646dddb17630cb492c2e600080a2005b806003614c78920154926108e56127106108dd600954876157e5565b80614c84575b50614c24565b8154600080516020615dad83398151915254614cad92916001600160a01b039182169116615c26565b82614c7e565b3461029957614cc1366156d3565b908060005260036020526040600020600481019060ff825460a01c16600781101561097357600103614ecb5760028101546001600160a01b03163303614e8757815460ff60a01b1916600160a11b17909155426006820155825192906009016001600160401b03841161069857614d3881546153f2565b601f8111614e3f575b50602093601f8111600114614db557908161433f93927f83d40620329d583cfd9cc7122d382ef81f890367b6b0db40d0b4d6bba1b426c59596600091614daa575b508160011b916000199060031b1c19161790555b604051918291602083526020830190615536565b905083015187614d82565b601f19811682600052856000209060005b818110614e275750916001917f83d40620329d583cfd9cc7122d382ef81f890367b6b0db40d0b4d6bba1b426c596978261433f97969510614e0e575b5050811b019055614d96565b85015160001960f88460031b161c191690558780614e02565b85880151835560209788019760019093019201614dc6565b816000526020600020601f860160051c81019160208710614e7d575b601f0160051c01905b818110614e715750614d41565b60008155600101614e64565b9091508190614e5b565b606460405162461bcd60e51b815260206004820152602060248201527f4f6e6c792073656c6c65722063616e20636f6e6669726d20736869706d656e746044820152fd5b60405162461bcd60e51b8152602060048201526011602482015270115cd8dc9bddc81b9bdd08199d5b991959607a1b6044820152606490fd5b34610299576000366003190112610299576020600954604051908152f35b346102995760207f66bcde9f7aec9b81719a4fdec54cbafbf6c834d1f2f989d9cd2134dab8d0c0de614f533661565d565b614f5e939193615bf0565b8360005260048252614f766040600020541515615781565b836000526004825280600960406000200155604051908152a2005b346102995760a036600319011261029957614faa61561b565b6024356001600160a01b0381169081900361029957614fc7615631565b6064356001600160a01b038116919082900361029957614fe5615647565b92600080516020615e4d833981519152549460ff8660401c1615956001600160401b038116801590816151c2575b60011490816151b8575b1590816151af575b5061519e5767ffffffffffffffff198116600117600080516020615e4d8339815191525586615171575b50615058615ca2565b615060615ca2565b61506933615b7a565b615071615ca2565b615079615ca2565b6001600080516020615e2d83398151915255615093615ca2565b61509b615ca2565b60018060a01b03166001600160601b0360a01b60005416176000556001600160601b0360a01b600154161760015560018060a01b03166001600160601b0360a01b60025416176002556001600160601b0360a01b600a541617600a5560018060a01b03166001600160601b0360a01b601054161760105561511857005b68ff000000000000000019600080516020615e4d8339815191525416600080516020615e4d833981519152557fc7f505b2f371ae2175ee4913f4499e1f2633a7b5936321eed1cdaeb6115181d2602060405160018152a1005b68ffffffffffffffffff19166801000000000000000117600080516020615e4d833981519152558661504f565b63f92ee8a960e01b60005260046000fd5b90501588615025565b303b15915061501d565b889150615013565b34610299576000366003190112610299576000546040516001600160a01b039091168152602090f35b346102995760203660031901126102995760043561520f615bf0565b6103e8811161521d57600955005b60405162461bcd60e51b815260206004820152600c60248201526b08ccaca40e8dede40d0d2ced60a31b6044820152606490fd5b346102995760203660031901126102995761526a615728565b5060043560005260046020526118a36040600020615290600a60405192612bac8461542c565b610140820152604051918291602083526020830190615577565b34610299576000366003190112610299576020600854604051908152f35b3461029957602036600319011261029957600435600052600360205260406000208054600160a01b6001900360018301541691600160a01b600190036002820154166003820154916004810154600582015460068301546007840154906008850161533290615485565b9261533f60098701615485565b94600a87015498600b88015497600c0154986040519c8d9c8d5260208d015260408c015260608b0152600160a01b60019003811660808b015260a08a019060a01c60ff169061538d91615529565b60c089015260e088015261010087015261012086016101e090526101e086016153b591615536565b8581036101408701526153c791615536565b9261016085015260ff8116151561018085015260081c60ff1615156101a08401526101c08301520390f35b90600182811c92168015615422575b602083101461540c57565b634e487b7160e01b600052602260045260246000fd5b91607f1691615401565b61016081019081106001600160401b0382111761069857604052565b6101e081019081106001600160401b0382111761069857604052565b90601f801991011681019081106001600160401b0382111761069857604052565b9060405191826000825492615499846153f2565b808452936001811690811561550757506001146154c0575b506154be92500383615464565b565b90506000929192526020600020906000915b8183106154eb5750509060206154be92820101386154b1565b60209193508060019154838589010152019101909184926154d2565b9050602092506154be94915060ff191682840152151560051b820101386154b1565b9060078210156109735752565b919082519283825260005b848110615562575050826000602080949584010152601f8019910116010190565b80602080928401015182828601015201615541565b615618918151815260018060a01b0360208301511660208201526101406155d86155b260408501516101606040860152610160850190615536565b606085015160608501526080850151608085015260a085015184820360a0860152615536565b9260c081015160c084015260e081015160e08401526101008101511515610100840152610120810151610120840152015190610140818403910152615536565b90565b600435906001600160a01b038216820361029957565b604435906001600160a01b038216820361029957565b608435906001600160a01b038216820361029957565b6040906003190112610299576004359060243590565b6001600160401b03811161069857601f01601f191660200190565b81601f82011215610299576020813591016156a882615673565b926156b66040519485615464565b828452828201116102995781600092602092838601378301015290565b9060406003198301126102995760043591602435906001600160401b038211610299576156189160040161568e565b60243590811515820361029957565b6001600160401b0381116106985760051b60200190565b604051906157358261542c565b6060610140836000815260006020820152826040820152600083820152600060808201528260a0820152600060c0820152600060e0820152600061010082015260006101208201520152565b1561578857565b60405162461bcd60e51b8152602060048201526011602482015270131a5cdd1a5b99c81b9bdd08199bdd5b99607a1b6044820152606490fd5b90600781101561097357815460ff60a01b191660a09190911b60ff60a01b16179055565b818102929181159184041417156121fc57565b919082039182116121fc57565b1561580c57565b60405162461bcd60e51b815260206004820152600e60248201526d139bdd08185d5d1a1bdc9a5e995960921b6044820152606490fd5b1561584957565b60405162461bcd60e51b8152602060048201526012602482015271115cd8dc9bddc81b9bdd081cda1a5c1c195960721b6044820152606490fd5b919082018092116121fc57565b90816020910312610299575180151581036102995790565b604090615618939281528160208201520190615536565b156158c657565b60405162461bcd60e51b815260206004820152601360248201527214d95b1b195c881b9bdd081d995c9a599a5959606a1b6044820152606490fd5b1561590857565b60405162461bcd60e51b81526020600482015260126024820152714c697374696e67206e6f742061637469766560701b6044820152606490fd5b60001981146121fc5760010190565b80518210156159655760209160051b010190565b634e487b7160e01b600052603260045260246000fd5b1561598257565b60405162461bcd60e51b815260206004820152601460248201527305175616e74697479206d757374206265203e20360641b6044820152606490fd5b156159c557565b60405162461bcd60e51b815260206004820152601160248201527005072696365206d757374206265203e203607c1b6044820152606490fd5b15615a0557565b60405162461bcd60e51b815260206004820152600d60248201526c496e76616c696420646174657360981b6044820152606490fd5b929190615a51602091604086526040860190615536565b930152565b15615a5d57565b60405162461bcd60e51b815260206004820152602260248201527f43616e206f6e6c7920646973707574652064656c69766572656420657363726f604482015261777360f01b6064820152608490fd5b15615ab457565b60405162461bcd60e51b8152602060048201526016602482015275111a5cdc1d5d19481c195c9a5bd908195e1c1a5c995960521b6044820152606490fd5b9081526001600160a01b03909116602082015260606040820181905261561892910190615536565b15615b2157565b60405162461bcd60e51b815260206004820152601860248201527f4469737075746520616c7265616479207265736f6c76656400000000000000006044820152606490fd5b35906001600160a01b038216820361029957565b6001600160a01b03168015615bda57600080516020615dad83398151915280546001600160a01b0319811683179091556001600160a01b03167f8be0079c531659141344cd1fd0a4f28419497f9722a3daafe3b4186f6b6457e0600080a3565b631e4fbdf760e01b600052600060045260246000fd5b600080516020615dad833981519152546001600160a01b03163303615c1157565b63118cdaa760e01b6000523360045260246000fd5b60405163a9059cbb60e01b60208201526001600160a01b0390921660248301526044808301939093529181526154be91615c61606483615464565b615cd0565b6002600080516020615e2d8339815191525414615c91576002600080516020615e2d83398151915255565b633ee5aeb560e01b60005260046000fd5b60ff600080516020615e4d8339815191525460401c1615615cbf57565b631afcd79f60e31b60005260046000fd5b906000602091828151910182855af1156105af576000513d615d2257506001600160a01b0381163b155b615d015750565b635274afe760e01b60009081526001600160a01b0391909116600452602490fd5b60011415615cfa565b90615d515750805115615d4057602081519101fd5b63d6bda27560e01b60005260046000fd5b81511580615d83575b615d62575090565b639996b31560e01b60009081526001600160a01b0391909116600452602490fd5b50803b15615d5a56fee1fb67c8f0a839112508831b181d7a2275936839ca3b8a94e916430d85d98b479016d09d72d40fdae2fd8ceac6b6234c7706214fd39c1cd1e609a0528c199300360894a13ba1a3210667c828492db98dca3e2076cc3735a920a3ca505d382bbc6b7a3194eaddce2be5200d10785a15a5cd14a78b827cf902f4d23c35e6bd73f8cd5ed15c6e187e77e9aee88184c21f4f2182ab5827cb3b7e07fbedcd63f033009b779b17422d0df92223018b32b4d1fa46e071723d6817e2486d003becc55f00f0c57e16840df040f15088dc2f81fe391c3923bec73e23a9662efc9c229c6a00a2646970667358221220b75d5c8b0de879ec520198200f5acb0fe8f7badd6f720a924873df9e2f103df664736f6c634300081c0033",
  "linkReferences": {},
  "deployedLinkReferences": {}
}